{
	"contracts/pixel_prismatica_utils.sol": {
		"PixelPrismaticaUtils": {
			"abi": [
				{
					"inputs": [],
					"stateMutability": "nonpayable",
					"type": "constructor"
				},
				{
					"inputs": [
						{
							"internalType": "uint256[2]",
							"name": "RND",
							"type": "uint256[2]"
						}
					],
					"name": "getBlueColorString",
					"outputs": [
						{
							"internalType": "string",
							"name": "",
							"type": "string"
						},
						{
							"internalType": "uint256[2]",
							"name": "",
							"type": "uint256[2]"
						}
					],
					"stateMutability": "pure",
					"type": "function"
				},
				{
					"inputs": [
						{
							"internalType": "bytes4",
							"name": "_selector",
							"type": "bytes4"
						},
						{
							"internalType": "uint256[2]",
							"name": "RND",
							"type": "uint256[2]"
						}
					],
					"name": "getColorString",
					"outputs": [
						{
							"internalType": "string",
							"name": "",
							"type": "string"
						},
						{
							"internalType": "uint256[2]",
							"name": "",
							"type": "uint256[2]"
						}
					],
					"stateMutability": "view",
					"type": "function"
				},
				{
					"inputs": [
						{
							"internalType": "uint256[2]",
							"name": "RND",
							"type": "uint256[2]"
						}
					],
					"name": "getCyanColorString",
					"outputs": [
						{
							"internalType": "string",
							"name": "",
							"type": "string"
						},
						{
							"internalType": "uint256[2]",
							"name": "",
							"type": "uint256[2]"
						}
					],
					"stateMutability": "pure",
					"type": "function"
				},
				{
					"inputs": [
						{
							"internalType": "uint256[2]",
							"name": "RND",
							"type": "uint256[2]"
						}
					],
					"name": "getGreenBlueColorString",
					"outputs": [
						{
							"internalType": "string",
							"name": "",
							"type": "string"
						},
						{
							"internalType": "uint256[2]",
							"name": "",
							"type": "uint256[2]"
						}
					],
					"stateMutability": "pure",
					"type": "function"
				},
				{
					"inputs": [
						{
							"internalType": "uint256[2]",
							"name": "RND",
							"type": "uint256[2]"
						}
					],
					"name": "getGreenColorString",
					"outputs": [
						{
							"internalType": "string",
							"name": "",
							"type": "string"
						},
						{
							"internalType": "uint256[2]",
							"name": "",
							"type": "uint256[2]"
						}
					],
					"stateMutability": "pure",
					"type": "function"
				},
				{
					"inputs": [],
					"name": "getInitialSeed",
					"outputs": [
						{
							"internalType": "uint256",
							"name": "",
							"type": "uint256"
						}
					],
					"stateMutability": "view",
					"type": "function"
				},
				{
					"inputs": [
						{
							"internalType": "uint256[2]",
							"name": "RND",
							"type": "uint256[2]"
						}
					],
					"name": "getMagentaColorString",
					"outputs": [
						{
							"internalType": "string",
							"name": "",
							"type": "string"
						},
						{
							"internalType": "uint256[2]",
							"name": "",
							"type": "uint256[2]"
						}
					],
					"stateMutability": "pure",
					"type": "function"
				},
				{
					"inputs": [
						{
							"internalType": "uint256[2]",
							"name": "RND",
							"type": "uint256[2]"
						}
					],
					"name": "getMonochromeColorString",
					"outputs": [
						{
							"internalType": "string",
							"name": "",
							"type": "string"
						},
						{
							"internalType": "uint256[2]",
							"name": "",
							"type": "uint256[2]"
						}
					],
					"stateMutability": "pure",
					"type": "function"
				},
				{
					"inputs": [
						{
							"internalType": "uint256[2]",
							"name": "RND",
							"type": "uint256[2]"
						}
					],
					"name": "getRainbowDarkColorString",
					"outputs": [
						{
							"internalType": "string",
							"name": "",
							"type": "string"
						},
						{
							"internalType": "uint256[2]",
							"name": "",
							"type": "uint256[2]"
						}
					],
					"stateMutability": "pure",
					"type": "function"
				},
				{
					"inputs": [
						{
							"internalType": "uint256[2]",
							"name": "RND",
							"type": "uint256[2]"
						}
					],
					"name": "getRainbowLightColorString",
					"outputs": [
						{
							"internalType": "string",
							"name": "",
							"type": "string"
						},
						{
							"internalType": "uint256[2]",
							"name": "",
							"type": "uint256[2]"
						}
					],
					"stateMutability": "pure",
					"type": "function"
				},
				{
					"inputs": [
						{
							"internalType": "uint256[2]",
							"name": "RND",
							"type": "uint256[2]"
						}
					],
					"name": "getRedBlueColorString",
					"outputs": [
						{
							"internalType": "string",
							"name": "",
							"type": "string"
						},
						{
							"internalType": "uint256[2]",
							"name": "",
							"type": "uint256[2]"
						}
					],
					"stateMutability": "pure",
					"type": "function"
				},
				{
					"inputs": [
						{
							"internalType": "uint256[2]",
							"name": "RND",
							"type": "uint256[2]"
						}
					],
					"name": "getRedColorString",
					"outputs": [
						{
							"internalType": "string",
							"name": "",
							"type": "string"
						},
						{
							"internalType": "uint256[2]",
							"name": "",
							"type": "uint256[2]"
						}
					],
					"stateMutability": "pure",
					"type": "function"
				},
				{
					"inputs": [
						{
							"internalType": "uint256[2]",
							"name": "RND",
							"type": "uint256[2]"
						}
					],
					"name": "getRedGreenColorString",
					"outputs": [
						{
							"internalType": "string",
							"name": "",
							"type": "string"
						},
						{
							"internalType": "uint256[2]",
							"name": "",
							"type": "uint256[2]"
						}
					],
					"stateMutability": "pure",
					"type": "function"
				},
				{
					"inputs": [
						{
							"internalType": "uint256[2]",
							"name": "RND",
							"type": "uint256[2]"
						}
					],
					"name": "getYellowColorString",
					"outputs": [
						{
							"internalType": "string",
							"name": "",
							"type": "string"
						},
						{
							"internalType": "uint256[2]",
							"name": "",
							"type": "uint256[2]"
						}
					],
					"stateMutability": "pure",
					"type": "function"
				},
				{
					"inputs": [
						{
							"internalType": "uint256",
							"name": "n",
							"type": "uint256"
						},
						{
							"internalType": "uint256[2]",
							"name": "RND",
							"type": "uint256[2]"
						}
					],
					"name": "nextInt",
					"outputs": [
						{
							"internalType": "uint256",
							"name": "",
							"type": "uint256"
						}
					],
					"stateMutability": "pure",
					"type": "function"
				},
				{
					"inputs": [
						{
							"internalType": "uint256",
							"name": "n",
							"type": "uint256"
						},
						{
							"internalType": "uint256[2]",
							"name": "RND",
							"type": "uint256[2]"
						}
					],
					"name": "nextInt2P",
					"outputs": [
						{
							"internalType": "uint256",
							"name": "",
							"type": "uint256"
						}
					],
					"stateMutability": "pure",
					"type": "function"
				}
			],
			"devdoc": {
				"kind": "dev",
				"methods": {},
				"version": 1
			},
			"evm": {
				"assembly": "    /* \"contracts/pixel_prismatica_utils.sol\":2939:8152  contract PixelPrismaticaUtils {... */\n  mstore(0x40, 0xa0)\n    /* \"contracts/pixel_prismatica_utils.sol\":3214:3347  constructor() {... */\n  callvalue\n  dup1\n  iszero\n  tag_1\n  jumpi\n  0x00\n  dup1\n  revert\ntag_1:\n  pop\n    /* \"contracts/pixel_prismatica_utils.sol\":3093:3106  (1 << 48) - 1 */\n  0xffffffffffff\n    /* \"contracts/pixel_prismatica_utils.sol\":3151:3162  0x5DEECE66D */\n  0x05deece66d\n    /* \"contracts/pixel_prismatica_utils.sol\":3314:3315  1 */\n  0x01\n    /* \"contracts/pixel_prismatica_utils.sol\":3299:3311  block.number */\n  number\n    /* \"contracts/pixel_prismatica_utils.sol\":3299:3315  block.number - 1 */\n  tag_4\n  swap2\n  swap1\n  tag_5\n  jump\t// in\ntag_4:\n    /* \"contracts/pixel_prismatica_utils.sol\":3289:3316  blockhash(block.number - 1) */\n  blockhash\n    /* \"contracts/pixel_prismatica_utils.sol\":3281:3317  uint256(blockhash(block.number - 1)) */\n  0x00\n  shr\n    /* \"contracts/pixel_prismatica_utils.sol\":3280:3331  (uint256(blockhash(block.number - 1))) ^ multiplier */\n  xor\n    /* \"contracts/pixel_prismatica_utils.sol\":3279:3339  ((uint256(blockhash(block.number - 1))) ^ multiplier) & mask */\n  and\n    /* \"contracts/pixel_prismatica_utils.sol\":3272:3339  rnd0 = ((uint256(blockhash(block.number - 1))) ^ multiplier) & mask */\n  0x80\n  dup2\n  dup2\n  mstore\n  pop\n  pop\n    /* \"contracts/pixel_prismatica_utils.sol\":2939:8152  contract PixelPrismaticaUtils {... */\n  jump(tag_6)\n    /* \"#utility.yul\":7:84   */\ntag_7:\n    /* \"#utility.yul\":44:51   */\n  0x00\n    /* \"#utility.yul\":73:78   */\n  dup2\n    /* \"#utility.yul\":62:78   */\n  swap1\n  pop\n    /* \"#utility.yul\":7:84   */\n  swap2\n  swap1\n  pop\n  jump\t// out\n    /* \"#utility.yul\":90:270   */\ntag_8:\n    /* \"#utility.yul\":138:215   */\n  0x4e487b7100000000000000000000000000000000000000000000000000000000\n    /* \"#utility.yul\":135:136   */\n  0x00\n    /* \"#utility.yul\":128:216   */\n  mstore\n    /* \"#utility.yul\":235:239   */\n  0x11\n    /* \"#utility.yul\":232:233   */\n  0x04\n    /* \"#utility.yul\":225:240   */\n  mstore\n    /* \"#utility.yul\":259:263   */\n  0x24\n    /* \"#utility.yul\":256:257   */\n  0x00\n    /* \"#utility.yul\":249:264   */\n  revert\n    /* \"#utility.yul\":276:470   */\ntag_5:\n    /* \"#utility.yul\":316:320   */\n  0x00\n    /* \"#utility.yul\":336:356   */\n  tag_13\n    /* \"#utility.yul\":354:355   */\n  dup3\n    /* \"#utility.yul\":336:356   */\n  tag_7\n  jump\t// in\ntag_13:\n    /* \"#utility.yul\":331:356   */\n  swap2\n  pop\n    /* \"#utility.yul\":370:390   */\n  tag_14\n    /* \"#utility.yul\":388:389   */\n  dup4\n    /* \"#utility.yul\":370:390   */\n  tag_7\n  jump\t// in\ntag_14:\n    /* \"#utility.yul\":365:390   */\n  swap3\n  pop\n    /* \"#utility.yul\":414:415   */\n  dup3\n    /* \"#utility.yul\":411:412   */\n  dup3\n    /* \"#utility.yul\":407:416   */\n  sub\n    /* \"#utility.yul\":399:416   */\n  swap1\n  pop\n    /* \"#utility.yul\":438:439   */\n  dup2\n    /* \"#utility.yul\":432:436   */\n  dup2\n    /* \"#utility.yul\":429:440   */\n  gt\n    /* \"#utility.yul\":426:463   */\n  iszero\n  tag_15\n  jumpi\n    /* \"#utility.yul\":443:461   */\n  tag_16\n  tag_8\n  jump\t// in\ntag_16:\n    /* \"#utility.yul\":426:463   */\ntag_15:\n    /* \"#utility.yul\":276:470   */\n  swap3\n  swap2\n  pop\n  pop\n  jump\t// out\n    /* \"contracts/pixel_prismatica_utils.sol\":2939:8152  contract PixelPrismaticaUtils {... */\ntag_6:\n  mload(0x80)\n  codecopy(0x00, dataOffset(sub_0), dataSize(sub_0))\n  0x00\n  assignImmutable(\"0xecac27c21aa9a89d7be9ad03c2d91e82cbd466284ecdf2bd5bad7f953539cc45\")\n  return(0x00, dataSize(sub_0))\nstop\n\nsub_0: assembly {\n        /* \"contracts/pixel_prismatica_utils.sol\":2939:8152  contract PixelPrismaticaUtils {... */\n      mstore(0x40, 0x80)\n      callvalue\n      dup1\n      iszero\n      tag_1\n      jumpi\n      0x00\n      dup1\n      revert\n    tag_1:\n      pop\n      jumpi(tag_2, lt(calldatasize, 0x04))\n      shr(0xe0, calldataload(0x00))\n      dup1\n      0xa920c0ae\n      gt\n      tag_19\n      jumpi\n      dup1\n      0xe79fdacb\n      gt\n      tag_20\n      jumpi\n      dup1\n      0xe79fdacb\n      eq\n      tag_15\n      jumpi\n      dup1\n      0xf8006f3b\n      eq\n      tag_16\n      jumpi\n      dup1\n      0xfcfe40e0\n      eq\n      tag_17\n      jumpi\n      dup1\n      0xff08cbe7\n      eq\n      tag_18\n      jumpi\n      jump(tag_2)\n    tag_20:\n      dup1\n      0xa920c0ae\n      eq\n      tag_11\n      jumpi\n      dup1\n      0xca8666e0\n      eq\n      tag_12\n      jumpi\n      dup1\n      0xdee0a5bb\n      eq\n      tag_13\n      jumpi\n      dup1\n      0xe184526a\n      eq\n      tag_14\n      jumpi\n      jump(tag_2)\n    tag_19:\n      dup1\n      0x4d424a32\n      gt\n      tag_21\n      jumpi\n      dup1\n      0x4d424a32\n      eq\n      tag_7\n      jumpi\n      dup1\n      0x4da4d590\n      eq\n      tag_8\n      jumpi\n      dup1\n      0x77b31f88\n      eq\n      tag_9\n      jumpi\n      dup1\n      0x79147850\n      eq\n      tag_10\n      jumpi\n      jump(tag_2)\n    tag_21:\n      dup1\n      0x0a609c3b\n      eq\n      tag_3\n      jumpi\n      dup1\n      0x1336e0da\n      eq\n      tag_4\n      jumpi\n      dup1\n      0x3708f98c\n      eq\n      tag_5\n      jumpi\n      dup1\n      0x414163c1\n      eq\n      tag_6\n      jumpi\n    tag_2:\n      0x00\n      dup1\n      revert\n        /* \"contracts/pixel_prismatica_utils.sol\":7949:8149  function getMagentaColorString(uint256[2] memory RND) public pure returns (string memory, uint256[2] memory) {... */\n    tag_3:\n      tag_22\n      0x04\n      dup1\n      calldatasize\n      sub\n      dup2\n      add\n      swap1\n      tag_23\n      swap2\n      swap1\n      tag_24\n      jump\t// in\n    tag_23:\n      tag_25\n      jump\t// in\n    tag_22:\n      mload(0x40)\n      tag_26\n      swap3\n      swap2\n      swap1\n      tag_27\n      jump\t// in\n    tag_26:\n      mload(0x40)\n      dup1\n      swap2\n      sub\n      swap1\n      return\n        /* \"contracts/pixel_prismatica_utils.sol\":6567:6764  function getBlueColorString(uint256[2] memory RND) public pure returns (string memory, uint256[2] memory) {... */\n    tag_4:\n      tag_28\n      0x04\n      dup1\n      calldatasize\n      sub\n      dup2\n      add\n      swap1\n      tag_29\n      swap2\n      swap1\n      tag_24\n      jump\t// in\n    tag_29:\n      tag_30\n      jump\t// in\n    tag_28:\n      mload(0x40)\n      tag_31\n      swap3\n      swap2\n      swap1\n      tag_27\n      jump\t// in\n    tag_31:\n      mload(0x40)\n      dup1\n      swap2\n      sub\n      swap1\n      return\n        /* \"contracts/pixel_prismatica_utils.sol\":5215:5938  function getRainbowDarkColorString(uint256[2] memory RND) public pure returns (string memory, uint256[2] memory) {... */\n    tag_5:\n      tag_32\n      0x04\n      dup1\n      calldatasize\n      sub\n      dup2\n      add\n      swap1\n      tag_33\n      swap2\n      swap1\n      tag_24\n      jump\t// in\n    tag_33:\n      tag_34\n      jump\t// in\n    tag_32:\n      mload(0x40)\n      tag_35\n      swap3\n      swap2\n      swap1\n      tag_27\n      jump\t// in\n    tag_35:\n      mload(0x40)\n      dup1\n      swap2\n      sub\n      swap1\n      return\n        /* \"contracts/pixel_prismatica_utils.sol\":3774:4056  function nextInt2P(uint256 n, uint256[2] memory RND) public pure returns (uint256) {... */\n    tag_6:\n      tag_36\n      0x04\n      dup1\n      calldatasize\n      sub\n      dup2\n      add\n      swap1\n      tag_37\n      swap2\n      swap1\n      tag_38\n      jump\t// in\n    tag_37:\n      tag_39\n      jump\t// in\n    tag_36:\n      mload(0x40)\n      tag_40\n      swap2\n      swap1\n      tag_41\n      jump\t// in\n    tag_40:\n      mload(0x40)\n      dup1\n      swap2\n      sub\n      swap1\n      return\n        /* \"contracts/pixel_prismatica_utils.sol\":4107:4475  function getColorString(bytes4 _selector, uint256[2] memory RND) public view returns (string memory, uint256[2] memory) {... */\n    tag_7:\n      tag_42\n      0x04\n      dup1\n      calldatasize\n      sub\n      dup2\n      add\n      swap1\n      tag_43\n      swap2\n      swap1\n      tag_44\n      jump\t// in\n    tag_43:\n      tag_45\n      jump\t// in\n    tag_42:\n      mload(0x40)\n      tag_46\n      swap3\n      swap2\n      swap1\n      tag_27\n      jump\t// in\n    tag_46:\n      mload(0x40)\n      dup1\n      swap2\n      sub\n      swap1\n      return\n        /* \"contracts/pixel_prismatica_utils.sol\":6157:6353  function getRedColorString(uint256[2] memory RND) public pure returns (string memory, uint256[2] memory) {... */\n    tag_8:\n      tag_47\n      0x04\n      dup1\n      calldatasize\n      sub\n      dup2\n      add\n      swap1\n      tag_48\n      swap2\n      swap1\n      tag_24\n      jump\t// in\n    tag_48:\n      tag_49\n      jump\t// in\n    tag_47:\n      mload(0x40)\n      tag_50\n      swap3\n      swap2\n      swap1\n      tag_27\n      jump\t// in\n    tag_50:\n      mload(0x40)\n      dup1\n      swap2\n      sub\n      swap1\n      return\n        /* \"contracts/pixel_prismatica_utils.sol\":7742:7941  function getYellowColorString(uint256[2] memory RND) public pure returns (string memory, uint256[2] memory) {... */\n    tag_9:\n      tag_51\n      0x04\n      dup1\n      calldatasize\n      sub\n      dup2\n      add\n      swap1\n      tag_52\n      swap2\n      swap1\n      tag_24\n      jump\t// in\n    tag_52:\n      tag_53\n      jump\t// in\n    tag_51:\n      mload(0x40)\n      tag_54\n      swap3\n      swap2\n      swap1\n      tag_27\n      jump\t// in\n    tag_54:\n      mload(0x40)\n      dup1\n      swap2\n      sub\n      swap1\n      return\n        /* \"contracts/pixel_prismatica_utils.sol\":3396:3482  function getInitialSeed() public view returns (uint256) {... */\n    tag_10:\n      tag_55\n      tag_56\n      jump\t// in\n    tag_55:\n      mload(0x40)\n      tag_57\n      swap2\n      swap1\n      tag_41\n      jump\t// in\n    tag_57:\n      mload(0x40)\n      dup1\n      swap2\n      sub\n      swap1\n      return\n        /* \"contracts/pixel_prismatica_utils.sol\":4483:5207  function getRainbowLightColorString(uint256[2] memory RND) public pure returns (string memory, uint256[2] memory) {... */\n    tag_11:\n      tag_58\n      0x04\n      dup1\n      calldatasize\n      sub\n      dup2\n      add\n      swap1\n      tag_59\n      swap2\n      swap1\n      tag_24\n      jump\t// in\n    tag_59:\n      tag_60\n      jump\t// in\n    tag_58:\n      mload(0x40)\n      tag_61\n      swap3\n      swap2\n      swap1\n      tag_27\n      jump\t// in\n    tag_61:\n      mload(0x40)\n      dup1\n      swap2\n      sub\n      swap1\n      return\n        /* \"contracts/pixel_prismatica_utils.sol\":7283:7529  function getRedBlueColorString(uint256[2] memory RND) public pure returns (string memory, uint256[2] memory) {... */\n    tag_12:\n      tag_62\n      0x04\n      dup1\n      calldatasize\n      sub\n      dup2\n      add\n      swap1\n      tag_63\n      swap2\n      swap1\n      tag_24\n      jump\t// in\n    tag_63:\n      tag_64\n      jump\t// in\n    tag_62:\n      mload(0x40)\n      tag_65\n      swap3\n      swap2\n      swap1\n      tag_27\n      jump\t// in\n    tag_65:\n      mload(0x40)\n      dup1\n      swap2\n      sub\n      swap1\n      return\n        /* \"contracts/pixel_prismatica_utils.sol\":6361:6559  function getGreenColorString(uint256[2] memory RND) public pure returns (string memory, uint256[2] memory) {... */\n    tag_13:\n      tag_66\n      0x04\n      dup1\n      calldatasize\n      sub\n      dup2\n      add\n      swap1\n      tag_67\n      swap2\n      swap1\n      tag_24\n      jump\t// in\n    tag_67:\n      tag_68\n      jump\t// in\n    tag_66:\n      mload(0x40)\n      tag_69\n      swap3\n      swap2\n      swap1\n      tag_27\n      jump\t// in\n    tag_69:\n      mload(0x40)\n      dup1\n      swap2\n      sub\n      swap1\n      return\n        /* \"contracts/pixel_prismatica_utils.sol\":5946:6149  function getMonochromeColorString(uint256[2] memory RND) public pure returns (string memory, uint256[2] memory) {... */\n    tag_14:\n      tag_70\n      0x04\n      dup1\n      calldatasize\n      sub\n      dup2\n      add\n      swap1\n      tag_71\n      swap2\n      swap1\n      tag_24\n      jump\t// in\n    tag_71:\n      tag_72\n      jump\t// in\n    tag_70:\n      mload(0x40)\n      tag_73\n      swap3\n      swap2\n      swap1\n      tag_27\n      jump\t// in\n    tag_73:\n      mload(0x40)\n      dup1\n      swap2\n      sub\n      swap1\n      return\n        /* \"contracts/pixel_prismatica_utils.sol\":7537:7734  function getCyanColorString(uint256[2] memory RND) public pure returns (string memory, uint256[2] memory) {... */\n    tag_15:\n      tag_74\n      0x04\n      dup1\n      calldatasize\n      sub\n      dup2\n      add\n      swap1\n      tag_75\n      swap2\n      swap1\n      tag_24\n      jump\t// in\n    tag_75:\n      tag_76\n      jump\t// in\n    tag_74:\n      mload(0x40)\n      tag_77\n      swap3\n      swap2\n      swap1\n      tag_27\n      jump\t// in\n    tag_77:\n      mload(0x40)\n      dup1\n      swap2\n      sub\n      swap1\n      return\n        /* \"contracts/pixel_prismatica_utils.sol\":3490:3766  function nextInt(uint256 n, uint256[2] memory RND) public pure returns (uint256) {... */\n    tag_16:\n      tag_78\n      0x04\n      dup1\n      calldatasize\n      sub\n      dup2\n      add\n      swap1\n      tag_79\n      swap2\n      swap1\n      tag_38\n      jump\t// in\n    tag_79:\n      tag_80\n      jump\t// in\n    tag_78:\n      mload(0x40)\n      tag_81\n      swap2\n      swap1\n      tag_41\n      jump\t// in\n    tag_81:\n      mload(0x40)\n      dup1\n      swap2\n      sub\n      swap1\n      return\n        /* \"contracts/pixel_prismatica_utils.sol\":6772:7020  function getGreenBlueColorString(uint256[2] memory RND) public pure returns (string memory, uint256[2] memory) {... */\n    tag_17:\n      tag_82\n      0x04\n      dup1\n      calldatasize\n      sub\n      dup2\n      add\n      swap1\n      tag_83\n      swap2\n      swap1\n      tag_24\n      jump\t// in\n    tag_83:\n      tag_84\n      jump\t// in\n    tag_82:\n      mload(0x40)\n      tag_85\n      swap3\n      swap2\n      swap1\n      tag_27\n      jump\t// in\n    tag_85:\n      mload(0x40)\n      dup1\n      swap2\n      sub\n      swap1\n      return\n        /* \"contracts/pixel_prismatica_utils.sol\":7028:7275  function getRedGreenColorString(uint256[2] memory RND) public pure returns (string memory, uint256[2] memory) {... */\n    tag_18:\n      tag_86\n      0x04\n      dup1\n      calldatasize\n      sub\n      dup2\n      add\n      swap1\n      tag_87\n      swap2\n      swap1\n      tag_24\n      jump\t// in\n    tag_87:\n      tag_88\n      jump\t// in\n    tag_86:\n      mload(0x40)\n      tag_89\n      swap3\n      swap2\n      swap1\n      tag_27\n      jump\t// in\n    tag_89:\n      mload(0x40)\n      dup1\n      swap2\n      sub\n      swap1\n      return\n        /* \"contracts/pixel_prismatica_utils.sol\":7949:8149  function getMagentaColorString(uint256[2] memory RND) public pure returns (string memory, uint256[2] memory) {... */\n    tag_25:\n        /* \"contracts/pixel_prismatica_utils.sol\":8024:8037  string memory */\n      0x60\n        /* \"contracts/pixel_prismatica_utils.sol\":8039:8056  uint256[2] memory */\n      tag_90\n      tag_91\n      jump\t// in\n    tag_90:\n        /* \"contracts/pixel_prismatica_utils.sol\":8069:8078  uint256 c */\n      0x00\n        /* \"contracts/pixel_prismatica_utils.sol\":8081:8100  nextInt2P(256, RND) */\n      tag_93\n        /* \"contracts/pixel_prismatica_utils.sol\":8091:8094  256 */\n      0x0100\n        /* \"contracts/pixel_prismatica_utils.sol\":8096:8099  RND */\n      dup6\n        /* \"contracts/pixel_prismatica_utils.sol\":8081:8090  nextInt2P */\n      tag_39\n        /* \"contracts/pixel_prismatica_utils.sol\":8081:8100  nextInt2P(256, RND) */\n      jump\t// in\n    tag_93:\n        /* \"contracts/pixel_prismatica_utils.sol\":8069:8100  uint256 c = nextInt2P(256, RND) */\n      swap1\n      pop\n        /* \"contracts/pixel_prismatica_utils.sol\":8119:8135  get3Hex(c, 0, c) */\n      tag_94\n        /* \"contracts/pixel_prismatica_utils.sol\":8127:8128  c */\n      dup2\n        /* \"contracts/pixel_prismatica_utils.sol\":8130:8131  0 */\n      0x00\n        /* \"contracts/pixel_prismatica_utils.sol\":8133:8134  c */\n      dup4\n        /* \"contracts/pixel_prismatica_utils.sol\":8119:8126  get3Hex */\n      tag_95\n        /* \"contracts/pixel_prismatica_utils.sol\":8119:8135  get3Hex(c, 0, c) */\n      jump\t// in\n    tag_94:\n        /* \"contracts/pixel_prismatica_utils.sol\":8137:8140  RND */\n      dup5\n        /* \"contracts/pixel_prismatica_utils.sol\":8111:8141  return (get3Hex(c, 0, c), RND) */\n      swap3\n      pop\n      swap3\n      pop\n      pop\n        /* \"contracts/pixel_prismatica_utils.sol\":7949:8149  function getMagentaColorString(uint256[2] memory RND) public pure returns (string memory, uint256[2] memory) {... */\n      swap2\n      pop\n      swap2\n      jump\t// out\n        /* \"contracts/pixel_prismatica_utils.sol\":6567:6764  function getBlueColorString(uint256[2] memory RND) public pure returns (string memory, uint256[2] memory) {... */\n    tag_30:\n        /* \"contracts/pixel_prismatica_utils.sol\":6639:6652  string memory */\n      0x60\n        /* \"contracts/pixel_prismatica_utils.sol\":6654:6671  uint256[2] memory */\n      tag_96\n      tag_91\n      jump\t// in\n    tag_96:\n        /* \"contracts/pixel_prismatica_utils.sol\":6684:6693  uint256 c */\n      0x00\n        /* \"contracts/pixel_prismatica_utils.sol\":6696:6715  nextInt2P(256, RND) */\n      tag_98\n        /* \"contracts/pixel_prismatica_utils.sol\":6706:6709  256 */\n      0x0100\n        /* \"contracts/pixel_prismatica_utils.sol\":6711:6714  RND */\n      dup6\n        /* \"contracts/pixel_prismatica_utils.sol\":6696:6705  nextInt2P */\n      tag_39\n        /* \"contracts/pixel_prismatica_utils.sol\":6696:6715  nextInt2P(256, RND) */\n      jump\t// in\n    tag_98:\n        /* \"contracts/pixel_prismatica_utils.sol\":6684:6715  uint256 c = nextInt2P(256, RND) */\n      swap1\n      pop\n        /* \"contracts/pixel_prismatica_utils.sol\":6734:6750  get3Hex(0, 0, c) */\n      tag_99\n        /* \"contracts/pixel_prismatica_utils.sol\":6742:6743  0 */\n      0x00\n        /* \"contracts/pixel_prismatica_utils.sol\":6745:6746  0 */\n      dup1\n        /* \"contracts/pixel_prismatica_utils.sol\":6748:6749  c */\n      dup4\n        /* \"contracts/pixel_prismatica_utils.sol\":6734:6741  get3Hex */\n      tag_95\n        /* \"contracts/pixel_prismatica_utils.sol\":6734:6750  get3Hex(0, 0, c) */\n      jump\t// in\n    tag_99:\n        /* \"contracts/pixel_prismatica_utils.sol\":6752:6755  RND */\n      dup5\n        /* \"contracts/pixel_prismatica_utils.sol\":6726:6756  return (get3Hex(0, 0, c), RND) */\n      swap3\n      pop\n      swap3\n      pop\n      pop\n        /* \"contracts/pixel_prismatica_utils.sol\":6567:6764  function getBlueColorString(uint256[2] memory RND) public pure returns (string memory, uint256[2] memory) {... */\n      swap2\n      pop\n      swap2\n      jump\t// out\n        /* \"contracts/pixel_prismatica_utils.sol\":5215:5938  function getRainbowDarkColorString(uint256[2] memory RND) public pure returns (string memory, uint256[2] memory) {... */\n    tag_34:\n        /* \"contracts/pixel_prismatica_utils.sol\":5294:5307  string memory */\n      0x60\n        /* \"contracts/pixel_prismatica_utils.sol\":5309:5326  uint256[2] memory */\n      tag_100\n      tag_91\n      jump\t// in\n    tag_100:\n        /* \"contracts/pixel_prismatica_utils.sol\":5339:5348  uint256 c */\n      0x00\n        /* \"contracts/pixel_prismatica_utils.sol\":5351:5354  128 */\n      0x80\n        /* \"contracts/pixel_prismatica_utils.sol\":5339:5354  uint256 c = 128 */\n      swap1\n      pop\n        /* \"contracts/pixel_prismatica_utils.sol\":5365:5374  uint256 r */\n      0x00\n        /* \"contracts/pixel_prismatica_utils.sol\":5377:5392  nextInt(6, RND) */\n      tag_102\n        /* \"contracts/pixel_prismatica_utils.sol\":5385:5386  6 */\n      0x06\n        /* \"contracts/pixel_prismatica_utils.sol\":5388:5391  RND */\n      dup7\n        /* \"contracts/pixel_prismatica_utils.sol\":5377:5384  nextInt */\n      tag_80\n        /* \"contracts/pixel_prismatica_utils.sol\":5377:5392  nextInt(6, RND) */\n      jump\t// in\n    tag_102:\n        /* \"contracts/pixel_prismatica_utils.sol\":5365:5392  uint256 r = nextInt(6, RND) */\n      swap1\n      pop\n        /* \"contracts/pixel_prismatica_utils.sol\":5405:5420  string memory s */\n      0x60\n        /* \"contracts/pixel_prismatica_utils.sol\":5439:5440  0 */\n      0x00\n        /* \"contracts/pixel_prismatica_utils.sol\":5434:5435  r */\n      dup3\n        /* \"contracts/pixel_prismatica_utils.sol\":5434:5440  r == 0 */\n      sub\n        /* \"contracts/pixel_prismatica_utils.sol\":5431:5903  if(r == 0) {... */\n      tag_103\n      jumpi\n        /* \"contracts/pixel_prismatica_utils.sol\":5461:5477  get3Hex(c, 0, 0) */\n      tag_104\n        /* \"contracts/pixel_prismatica_utils.sol\":5469:5470  c */\n      dup4\n        /* \"contracts/pixel_prismatica_utils.sol\":5472:5473  0 */\n      0x00\n        /* \"contracts/pixel_prismatica_utils.sol\":5475:5476  0 */\n      dup1\n        /* \"contracts/pixel_prismatica_utils.sol\":5461:5468  get3Hex */\n      tag_95\n        /* \"contracts/pixel_prismatica_utils.sol\":5461:5477  get3Hex(c, 0, 0) */\n      jump\t// in\n    tag_104:\n        /* \"contracts/pixel_prismatica_utils.sol\":5457:5477  s = get3Hex(c, 0, 0) */\n      swap1\n      pop\n        /* \"contracts/pixel_prismatica_utils.sol\":5431:5903  if(r == 0) {... */\n      jump(tag_105)\n    tag_103:\n        /* \"contracts/pixel_prismatica_utils.sol\":5512:5513  1 */\n      0x01\n        /* \"contracts/pixel_prismatica_utils.sol\":5507:5508  r */\n      dup3\n        /* \"contracts/pixel_prismatica_utils.sol\":5507:5513  r == 1 */\n      sub\n        /* \"contracts/pixel_prismatica_utils.sol\":5504:5903  if(r == 1) {... */\n      tag_106\n      jumpi\n        /* \"contracts/pixel_prismatica_utils.sol\":5534:5550  get3Hex(0, c, 0) */\n      tag_107\n        /* \"contracts/pixel_prismatica_utils.sol\":5542:5543  0 */\n      0x00\n        /* \"contracts/pixel_prismatica_utils.sol\":5545:5546  c */\n      dup5\n        /* \"contracts/pixel_prismatica_utils.sol\":5548:5549  0 */\n      0x00\n        /* \"contracts/pixel_prismatica_utils.sol\":5534:5541  get3Hex */\n      tag_95\n        /* \"contracts/pixel_prismatica_utils.sol\":5534:5550  get3Hex(0, c, 0) */\n      jump\t// in\n    tag_107:\n        /* \"contracts/pixel_prismatica_utils.sol\":5530:5550  s = get3Hex(0, c, 0) */\n      swap1\n      pop\n        /* \"contracts/pixel_prismatica_utils.sol\":5504:5903  if(r == 1) {... */\n      jump(tag_108)\n    tag_106:\n        /* \"contracts/pixel_prismatica_utils.sol\":5585:5586  2 */\n      0x02\n        /* \"contracts/pixel_prismatica_utils.sol\":5580:5581  r */\n      dup3\n        /* \"contracts/pixel_prismatica_utils.sol\":5580:5586  r == 2 */\n      sub\n        /* \"contracts/pixel_prismatica_utils.sol\":5577:5903  if(r == 2) {... */\n      tag_109\n      jumpi\n        /* \"contracts/pixel_prismatica_utils.sol\":5607:5623  get3Hex(0, 0, c) */\n      tag_110\n        /* \"contracts/pixel_prismatica_utils.sol\":5615:5616  0 */\n      0x00\n        /* \"contracts/pixel_prismatica_utils.sol\":5618:5619  0 */\n      dup1\n        /* \"contracts/pixel_prismatica_utils.sol\":5621:5622  c */\n      dup6\n        /* \"contracts/pixel_prismatica_utils.sol\":5607:5614  get3Hex */\n      tag_95\n        /* \"contracts/pixel_prismatica_utils.sol\":5607:5623  get3Hex(0, 0, c) */\n      jump\t// in\n    tag_110:\n        /* \"contracts/pixel_prismatica_utils.sol\":5603:5623  s = get3Hex(0, 0, c) */\n      swap1\n      pop\n        /* \"contracts/pixel_prismatica_utils.sol\":5577:5903  if(r == 2) {... */\n      jump(tag_111)\n    tag_109:\n        /* \"contracts/pixel_prismatica_utils.sol\":5658:5659  3 */\n      0x03\n        /* \"contracts/pixel_prismatica_utils.sol\":5653:5654  r */\n      dup3\n        /* \"contracts/pixel_prismatica_utils.sol\":5653:5659  r == 3 */\n      sub\n        /* \"contracts/pixel_prismatica_utils.sol\":5650:5903  if(r == 3) {... */\n      tag_112\n      jumpi\n        /* \"contracts/pixel_prismatica_utils.sol\":5680:5696  get3Hex(0, c, c) */\n      tag_113\n        /* \"contracts/pixel_prismatica_utils.sol\":5688:5689  0 */\n      0x00\n        /* \"contracts/pixel_prismatica_utils.sol\":5691:5692  c */\n      dup5\n        /* \"contracts/pixel_prismatica_utils.sol\":5694:5695  c */\n      dup6\n        /* \"contracts/pixel_prismatica_utils.sol\":5680:5687  get3Hex */\n      tag_95\n        /* \"contracts/pixel_prismatica_utils.sol\":5680:5696  get3Hex(0, c, c) */\n      jump\t// in\n    tag_113:\n        /* \"contracts/pixel_prismatica_utils.sol\":5676:5696  s = get3Hex(0, c, c) */\n      swap1\n      pop\n        /* \"contracts/pixel_prismatica_utils.sol\":5650:5903  if(r == 3) {... */\n      jump(tag_114)\n    tag_112:\n        /* \"contracts/pixel_prismatica_utils.sol\":5731:5732  4 */\n      0x04\n        /* \"contracts/pixel_prismatica_utils.sol\":5726:5727  r */\n      dup3\n        /* \"contracts/pixel_prismatica_utils.sol\":5726:5732  r == 4 */\n      sub\n        /* \"contracts/pixel_prismatica_utils.sol\":5723:5903  if(r == 4) {... */\n      tag_115\n      jumpi\n        /* \"contracts/pixel_prismatica_utils.sol\":5753:5769  get3Hex(c, c, 0) */\n      tag_116\n        /* \"contracts/pixel_prismatica_utils.sol\":5761:5762  c */\n      dup4\n        /* \"contracts/pixel_prismatica_utils.sol\":5764:5765  c */\n      dup5\n        /* \"contracts/pixel_prismatica_utils.sol\":5767:5768  0 */\n      0x00\n        /* \"contracts/pixel_prismatica_utils.sol\":5753:5760  get3Hex */\n      tag_95\n        /* \"contracts/pixel_prismatica_utils.sol\":5753:5769  get3Hex(c, c, 0) */\n      jump\t// in\n    tag_116:\n        /* \"contracts/pixel_prismatica_utils.sol\":5749:5769  s = get3Hex(c, c, 0) */\n      swap1\n      pop\n        /* \"contracts/pixel_prismatica_utils.sol\":5723:5903  if(r == 4) {... */\n      jump(tag_117)\n    tag_115:\n        /* \"contracts/pixel_prismatica_utils.sol\":5804:5805  5 */\n      0x05\n        /* \"contracts/pixel_prismatica_utils.sol\":5799:5800  r */\n      dup3\n        /* \"contracts/pixel_prismatica_utils.sol\":5799:5805  r == 5 */\n      sub\n        /* \"contracts/pixel_prismatica_utils.sol\":5796:5903  if(r == 5) {... */\n      tag_118\n      jumpi\n        /* \"contracts/pixel_prismatica_utils.sol\":5826:5842  get3Hex(c, 0, c) */\n      tag_119\n        /* \"contracts/pixel_prismatica_utils.sol\":5834:5835  c */\n      dup4\n        /* \"contracts/pixel_prismatica_utils.sol\":5837:5838  0 */\n      0x00\n        /* \"contracts/pixel_prismatica_utils.sol\":5840:5841  c */\n      dup6\n        /* \"contracts/pixel_prismatica_utils.sol\":5826:5833  get3Hex */\n      tag_95\n        /* \"contracts/pixel_prismatica_utils.sol\":5826:5842  get3Hex(c, 0, c) */\n      jump\t// in\n    tag_119:\n        /* \"contracts/pixel_prismatica_utils.sol\":5822:5842  s = get3Hex(c, 0, c) */\n      swap1\n      pop\n        /* \"contracts/pixel_prismatica_utils.sol\":5796:5903  if(r == 5) {... */\n      jump(tag_120)\n    tag_118:\n        /* \"contracts/pixel_prismatica_utils.sol\":5884:5891  s = \"?\" */\n      mload(0x40)\n      dup1\n      0x40\n      add\n      0x40\n      mstore\n      dup1\n      0x01\n      dup2\n      mstore\n      0x20\n      add\n      0x3f00000000000000000000000000000000000000000000000000000000000000\n      dup2\n      mstore\n      pop\n      swap1\n      pop\n        /* \"contracts/pixel_prismatica_utils.sol\":5796:5903  if(r == 5) {... */\n    tag_120:\n        /* \"contracts/pixel_prismatica_utils.sol\":5723:5903  if(r == 4) {... */\n    tag_117:\n        /* \"contracts/pixel_prismatica_utils.sol\":5650:5903  if(r == 3) {... */\n    tag_114:\n        /* \"contracts/pixel_prismatica_utils.sol\":5577:5903  if(r == 2) {... */\n    tag_111:\n        /* \"contracts/pixel_prismatica_utils.sol\":5504:5903  if(r == 1) {... */\n    tag_108:\n        /* \"contracts/pixel_prismatica_utils.sol\":5431:5903  if(r == 0) {... */\n    tag_105:\n        /* \"contracts/pixel_prismatica_utils.sol\":5923:5924  s */\n      dup1\n        /* \"contracts/pixel_prismatica_utils.sol\":5926:5929  RND */\n      dup7\n        /* \"contracts/pixel_prismatica_utils.sol\":5915:5930  return (s, RND) */\n      swap5\n      pop\n      swap5\n      pop\n      pop\n      pop\n      pop\n        /* \"contracts/pixel_prismatica_utils.sol\":5215:5938  function getRainbowDarkColorString(uint256[2] memory RND) public pure returns (string memory, uint256[2] memory) {... */\n      swap2\n      pop\n      swap2\n      jump\t// out\n        /* \"contracts/pixel_prismatica_utils.sol\":3774:4056  function nextInt2P(uint256 n, uint256[2] memory RND) public pure returns (uint256) {... */\n    tag_39:\n        /* \"contracts/pixel_prismatica_utils.sol\":3848:3855  uint256 */\n      0x00\n        /* \"contracts/pixel_prismatica_utils.sol\":3093:3106  (1 << 48) - 1 */\n      0xffffffffffff\n        /* \"contracts/pixel_prismatica_utils.sol\":3990:3993  RND */\n      dup3\n        /* \"contracts/pixel_prismatica_utils.sol\":3994:3995  1 */\n      0x01\n        /* \"contracts/pixel_prismatica_utils.sol\":3990:3996  RND[1] */\n      0x02\n      dup2\n      lt\n      tag_122\n      jumpi\n      tag_123\n      tag_124\n      jump\t// in\n    tag_123:\n    tag_122:\n      0x20\n      mul\n      add\n      mload\n        /* \"contracts/pixel_prismatica_utils.sol\":3051:3054  0xB */\n      0x0b\n        /* \"contracts/pixel_prismatica_utils.sol\":3151:3162  0x5DEECE66D */\n      0x05deece66d\n        /* \"contracts/pixel_prismatica_utils.sol\":3959:3962  RND */\n      dup6\n        /* \"contracts/pixel_prismatica_utils.sol\":3963:3964  0 */\n      0x00\n        /* \"contracts/pixel_prismatica_utils.sol\":3959:3965  RND[0] */\n      0x02\n      dup2\n      lt\n      tag_125\n      jumpi\n      tag_126\n      tag_124\n      jump\t// in\n    tag_126:\n    tag_125:\n      0x20\n      mul\n      add\n      mload\n        /* \"contracts/pixel_prismatica_utils.sol\":3959:3978  RND[0] * multiplier */\n      tag_127\n      swap2\n      swap1\n      tag_128\n      jump\t// in\n    tag_127:\n        /* \"contracts/pixel_prismatica_utils.sol\":3959:3987  RND[0] * multiplier + addend */\n      tag_129\n      swap2\n      swap1\n      tag_130\n      jump\t// in\n    tag_129:\n        /* \"contracts/pixel_prismatica_utils.sol\":3959:3996  RND[0] * multiplier + addend + RND[1] */\n      tag_131\n      swap2\n      swap1\n      tag_130\n      jump\t// in\n    tag_131:\n        /* \"contracts/pixel_prismatica_utils.sol\":3958:4004  (RND[0] * multiplier + addend + RND[1]) & mask */\n      and\n        /* \"contracts/pixel_prismatica_utils.sol\":3949:3952  RND */\n      dup3\n        /* \"contracts/pixel_prismatica_utils.sol\":3953:3954  0 */\n      0x00\n        /* \"contracts/pixel_prismatica_utils.sol\":3949:3955  RND[0] */\n      0x02\n      dup2\n      lt\n      tag_132\n      jumpi\n      tag_133\n      tag_124\n      jump\t// in\n    tag_133:\n    tag_132:\n      0x20\n      mul\n      add\n        /* \"contracts/pixel_prismatica_utils.sol\":3949:4004  RND[0] = (RND[0] * multiplier + addend + RND[1]) & mask */\n      dup2\n      dup2\n      mstore\n      pop\n      pop\n        /* \"contracts/pixel_prismatica_utils.sol\":4046:4048  31 */\n      0x1f\n        /* \"contracts/pixel_prismatica_utils.sol\":4038:4040  17 */\n      0x11\n        /* \"contracts/pixel_prismatica_utils.sol\":4028:4031  RND */\n      dup4\n        /* \"contracts/pixel_prismatica_utils.sol\":4032:4033  0 */\n      0x00\n        /* \"contracts/pixel_prismatica_utils.sol\":4028:4034  RND[0] */\n      0x02\n      dup2\n      lt\n      tag_134\n      jumpi\n      tag_135\n      tag_124\n      jump\t// in\n    tag_135:\n    tag_134:\n      0x20\n      mul\n      add\n      mload\n        /* \"contracts/pixel_prismatica_utils.sol\":4028:4040  RND[0] >> 17 */\n      swap1\n      shr\n        /* \"contracts/pixel_prismatica_utils.sol\":4023:4024  n */\n      dup5\n        /* \"contracts/pixel_prismatica_utils.sol\":4023:4041  n * (RND[0] >> 17) */\n      tag_136\n      swap2\n      swap1\n      tag_128\n      jump\t// in\n    tag_136:\n        /* \"contracts/pixel_prismatica_utils.sol\":4022:4048  (n * (RND[0] >> 17)) >> 31 */\n      swap1\n      shr\n        /* \"contracts/pixel_prismatica_utils.sol\":4015:4048  return (n * (RND[0] >> 17)) >> 31 */\n      swap1\n      pop\n        /* \"contracts/pixel_prismatica_utils.sol\":3774:4056  function nextInt2P(uint256 n, uint256[2] memory RND) public pure returns (uint256) {... */\n      swap3\n      swap2\n      pop\n      pop\n      jump\t// out\n        /* \"contracts/pixel_prismatica_utils.sol\":4107:4475  function getColorString(bytes4 _selector, uint256[2] memory RND) public view returns (string memory, uint256[2] memory) {... */\n    tag_45:\n        /* \"contracts/pixel_prismatica_utils.sol\":4193:4206  string memory */\n      0x60\n        /* \"contracts/pixel_prismatica_utils.sol\":4208:4225  uint256[2] memory */\n      tag_137\n      tag_91\n      jump\t// in\n    tag_137:\n        /* \"contracts/pixel_prismatica_utils.sol\":4238:4255  bytes memory data */\n      0x00\n        /* \"contracts/pixel_prismatica_utils.sol\":4281:4290  _selector */\n      dup5\n        /* \"contracts/pixel_prismatica_utils.sol\":4292:4295  RND */\n      dup5\n        /* \"contracts/pixel_prismatica_utils.sol\":4258:4296  abi.encodeWithSelector(_selector, RND) */\n      add(0x24, mload(0x40))\n      tag_139\n      swap2\n      swap1\n      tag_140\n      jump\t// in\n    tag_139:\n      mload(0x40)\n      0x20\n      dup2\n      dup4\n      sub\n      sub\n      dup2\n      mstore\n      swap1\n      0x40\n      mstore\n      swap1\n      not(0xffffffffffffffffffffffffffffffffffffffffffffffffffffffff)\n      and\n      0x20\n      dup3\n      add\n      dup1\n      mload\n      0xffffffffffffffffffffffffffffffffffffffffffffffffffffffff\n      dup4\n      dup2\n      dup4\n      and\n      or\n      dup4\n      mstore\n      pop\n      pop\n      pop\n      pop\n        /* \"contracts/pixel_prismatica_utils.sol\":4238:4296  bytes memory data = abi.encodeWithSelector(_selector, RND) */\n      swap1\n      pop\n        /* \"contracts/pixel_prismatica_utils.sol\":4308:4320  bool success */\n      0x00\n        /* \"contracts/pixel_prismatica_utils.sol\":4322:4345  bytes memory returnData */\n      dup1\n        /* \"contracts/pixel_prismatica_utils.sol\":4357:4361  this */\n      address\n        /* \"contracts/pixel_prismatica_utils.sol\":4349:4373  address(this).staticcall */\n      0xffffffffffffffffffffffffffffffffffffffff\n      and\n        /* \"contracts/pixel_prismatica_utils.sol\":4374:4378  data */\n      dup4\n        /* \"contracts/pixel_prismatica_utils.sol\":4349:4379  address(this).staticcall(data) */\n      mload(0x40)\n      tag_141\n      swap2\n      swap1\n      tag_142\n      jump\t// in\n    tag_141:\n      0x00\n      mload(0x40)\n      dup1\n      dup4\n      sub\n      dup2\n      dup6\n      gas\n      staticcall\n      swap2\n      pop\n      pop\n      returndatasize\n      dup1\n      0x00\n      dup2\n      eq\n      tag_145\n      jumpi\n      mload(0x40)\n      swap2\n      pop\n      and(add(returndatasize, 0x3f), not(0x1f))\n      dup3\n      add\n      0x40\n      mstore\n      returndatasize\n      dup3\n      mstore\n      returndatasize\n      0x00\n      0x20\n      dup5\n      add\n      returndatacopy\n      jump(tag_144)\n    tag_145:\n      0x60\n      swap2\n      pop\n    tag_144:\n      pop\n        /* \"contracts/pixel_prismatica_utils.sol\":4307:4379  (bool success, bytes memory returnData) = address(this).staticcall(data) */\n      swap2\n      pop\n      swap2\n      pop\n        /* \"contracts/pixel_prismatica_utils.sol\":4397:4404  success */\n      dup2\n        /* \"contracts/pixel_prismatica_utils.sol\":4390:4405  assert(success) */\n      tag_146\n      jumpi\n      tag_147\n      tag_148\n      jump\t// in\n    tag_147:\n    tag_146:\n        /* \"contracts/pixel_prismatica_utils.sol\":4434:4444  returnData */\n      dup1\n        /* \"contracts/pixel_prismatica_utils.sol\":4423:4467  abi.decode(returnData, (string, uint256[2])) */\n      dup1\n      0x20\n      add\n      swap1\n      mload\n      dup2\n      add\n      swap1\n      tag_149\n      swap2\n      swap1\n      tag_150\n      jump\t// in\n    tag_149:\n        /* \"contracts/pixel_prismatica_utils.sol\":4416:4467  return abi.decode(returnData, (string, uint256[2])) */\n      swap5\n      pop\n      swap5\n      pop\n      pop\n      pop\n      pop\n        /* \"contracts/pixel_prismatica_utils.sol\":4107:4475  function getColorString(bytes4 _selector, uint256[2] memory RND) public view returns (string memory, uint256[2] memory) {... */\n      swap3\n      pop\n      swap3\n      swap1\n      pop\n      jump\t// out\n        /* \"contracts/pixel_prismatica_utils.sol\":6157:6353  function getRedColorString(uint256[2] memory RND) public pure returns (string memory, uint256[2] memory) {... */\n    tag_49:\n        /* \"contracts/pixel_prismatica_utils.sol\":6228:6241  string memory */\n      0x60\n        /* \"contracts/pixel_prismatica_utils.sol\":6243:6260  uint256[2] memory */\n      tag_151\n      tag_91\n      jump\t// in\n    tag_151:\n        /* \"contracts/pixel_prismatica_utils.sol\":6273:6282  uint256 c */\n      0x00\n        /* \"contracts/pixel_prismatica_utils.sol\":6285:6304  nextInt2P(256, RND) */\n      tag_153\n        /* \"contracts/pixel_prismatica_utils.sol\":6295:6298  256 */\n      0x0100\n        /* \"contracts/pixel_prismatica_utils.sol\":6300:6303  RND */\n      dup6\n        /* \"contracts/pixel_prismatica_utils.sol\":6285:6294  nextInt2P */\n      tag_39\n        /* \"contracts/pixel_prismatica_utils.sol\":6285:6304  nextInt2P(256, RND) */\n      jump\t// in\n    tag_153:\n        /* \"contracts/pixel_prismatica_utils.sol\":6273:6304  uint256 c = nextInt2P(256, RND) */\n      swap1\n      pop\n        /* \"contracts/pixel_prismatica_utils.sol\":6323:6339  get3Hex(c, 0, 0) */\n      tag_154\n        /* \"contracts/pixel_prismatica_utils.sol\":6331:6332  c */\n      dup2\n        /* \"contracts/pixel_prismatica_utils.sol\":6334:6335  0 */\n      0x00\n        /* \"contracts/pixel_prismatica_utils.sol\":6337:6338  0 */\n      dup1\n        /* \"contracts/pixel_prismatica_utils.sol\":6323:6330  get3Hex */\n      tag_95\n        /* \"contracts/pixel_prismatica_utils.sol\":6323:6339  get3Hex(c, 0, 0) */\n      jump\t// in\n    tag_154:\n        /* \"contracts/pixel_prismatica_utils.sol\":6341:6344  RND */\n      dup5\n        /* \"contracts/pixel_prismatica_utils.sol\":6315:6345  return (get3Hex(c, 0, 0), RND) */\n      swap3\n      pop\n      swap3\n      pop\n      pop\n        /* \"contracts/pixel_prismatica_utils.sol\":6157:6353  function getRedColorString(uint256[2] memory RND) public pure returns (string memory, uint256[2] memory) {... */\n      swap2\n      pop\n      swap2\n      jump\t// out\n        /* \"contracts/pixel_prismatica_utils.sol\":7742:7941  function getYellowColorString(uint256[2] memory RND) public pure returns (string memory, uint256[2] memory) {... */\n    tag_53:\n        /* \"contracts/pixel_prismatica_utils.sol\":7816:7829  string memory */\n      0x60\n        /* \"contracts/pixel_prismatica_utils.sol\":7831:7848  uint256[2] memory */\n      tag_155\n      tag_91\n      jump\t// in\n    tag_155:\n        /* \"contracts/pixel_prismatica_utils.sol\":7861:7870  uint256 c */\n      0x00\n        /* \"contracts/pixel_prismatica_utils.sol\":7873:7892  nextInt2P(256, RND) */\n      tag_157\n        /* \"contracts/pixel_prismatica_utils.sol\":7883:7886  256 */\n      0x0100\n        /* \"contracts/pixel_prismatica_utils.sol\":7888:7891  RND */\n      dup6\n        /* \"contracts/pixel_prismatica_utils.sol\":7873:7882  nextInt2P */\n      tag_39\n        /* \"contracts/pixel_prismatica_utils.sol\":7873:7892  nextInt2P(256, RND) */\n      jump\t// in\n    tag_157:\n        /* \"contracts/pixel_prismatica_utils.sol\":7861:7892  uint256 c = nextInt2P(256, RND) */\n      swap1\n      pop\n        /* \"contracts/pixel_prismatica_utils.sol\":7911:7927  get3Hex(c, c, 0) */\n      tag_158\n        /* \"contracts/pixel_prismatica_utils.sol\":7919:7920  c */\n      dup2\n        /* \"contracts/pixel_prismatica_utils.sol\":7922:7923  c */\n      dup3\n        /* \"contracts/pixel_prismatica_utils.sol\":7925:7926  0 */\n      0x00\n        /* \"contracts/pixel_prismatica_utils.sol\":7911:7918  get3Hex */\n      tag_95\n        /* \"contracts/pixel_prismatica_utils.sol\":7911:7927  get3Hex(c, c, 0) */\n      jump\t// in\n    tag_158:\n        /* \"contracts/pixel_prismatica_utils.sol\":7929:7932  RND */\n      dup5\n        /* \"contracts/pixel_prismatica_utils.sol\":7903:7933  return (get3Hex(c, c, 0), RND) */\n      swap3\n      pop\n      swap3\n      pop\n      pop\n        /* \"contracts/pixel_prismatica_utils.sol\":7742:7941  function getYellowColorString(uint256[2] memory RND) public pure returns (string memory, uint256[2] memory) {... */\n      swap2\n      pop\n      swap2\n      jump\t// out\n        /* \"contracts/pixel_prismatica_utils.sol\":3396:3482  function getInitialSeed() public view returns (uint256) {... */\n    tag_56:\n        /* \"contracts/pixel_prismatica_utils.sol\":3443:3450  uint256 */\n      0x00\n        /* \"contracts/pixel_prismatica_utils.sol\":3470:3474  rnd0 */\n      immutable(\"0xecac27c21aa9a89d7be9ad03c2d91e82cbd466284ecdf2bd5bad7f953539cc45\")\n        /* \"contracts/pixel_prismatica_utils.sol\":3463:3474  return rnd0 */\n      swap1\n      pop\n        /* \"contracts/pixel_prismatica_utils.sol\":3396:3482  function getInitialSeed() public view returns (uint256) {... */\n      swap1\n      jump\t// out\n        /* \"contracts/pixel_prismatica_utils.sol\":4483:5207  function getRainbowLightColorString(uint256[2] memory RND) public pure returns (string memory, uint256[2] memory) {... */\n    tag_60:\n        /* \"contracts/pixel_prismatica_utils.sol\":4563:4576  string memory */\n      0x60\n        /* \"contracts/pixel_prismatica_utils.sol\":4578:4595  uint256[2] memory */\n      tag_160\n      tag_91\n      jump\t// in\n    tag_160:\n        /* \"contracts/pixel_prismatica_utils.sol\":4608:4617  uint256 c */\n      0x00\n        /* \"contracts/pixel_prismatica_utils.sol\":4620:4623  255 */\n      0xff\n        /* \"contracts/pixel_prismatica_utils.sol\":4608:4623  uint256 c = 255 */\n      swap1\n      pop\n        /* \"contracts/pixel_prismatica_utils.sol\":4634:4643  uint256 r */\n      0x00\n        /* \"contracts/pixel_prismatica_utils.sol\":4646:4661  nextInt(6, RND) */\n      tag_162\n        /* \"contracts/pixel_prismatica_utils.sol\":4654:4655  6 */\n      0x06\n        /* \"contracts/pixel_prismatica_utils.sol\":4657:4660  RND */\n      dup7\n        /* \"contracts/pixel_prismatica_utils.sol\":4646:4653  nextInt */\n      tag_80\n        /* \"contracts/pixel_prismatica_utils.sol\":4646:4661  nextInt(6, RND) */\n      jump\t// in\n    tag_162:\n        /* \"contracts/pixel_prismatica_utils.sol\":4634:4661  uint256 r = nextInt(6, RND) */\n      swap1\n      pop\n        /* \"contracts/pixel_prismatica_utils.sol\":4674:4689  string memory s */\n      0x60\n        /* \"contracts/pixel_prismatica_utils.sol\":4708:4709  0 */\n      0x00\n        /* \"contracts/pixel_prismatica_utils.sol\":4703:4704  r */\n      dup3\n        /* \"contracts/pixel_prismatica_utils.sol\":4703:4709  r == 0 */\n      sub\n        /* \"contracts/pixel_prismatica_utils.sol\":4700:5172  if(r == 0) {... */\n      tag_163\n      jumpi\n        /* \"contracts/pixel_prismatica_utils.sol\":4730:4746  get3Hex(c, 0, 0) */\n      tag_164\n        /* \"contracts/pixel_prismatica_utils.sol\":4738:4739  c */\n      dup4\n        /* \"contracts/pixel_prismatica_utils.sol\":4741:4742  0 */\n      0x00\n        /* \"contracts/pixel_prismatica_utils.sol\":4744:4745  0 */\n      dup1\n        /* \"contracts/pixel_prismatica_utils.sol\":4730:4737  get3Hex */\n      tag_95\n        /* \"contracts/pixel_prismatica_utils.sol\":4730:4746  get3Hex(c, 0, 0) */\n      jump\t// in\n    tag_164:\n        /* \"contracts/pixel_prismatica_utils.sol\":4726:4746  s = get3Hex(c, 0, 0) */\n      swap1\n      pop\n        /* \"contracts/pixel_prismatica_utils.sol\":4700:5172  if(r == 0) {... */\n      jump(tag_165)\n    tag_163:\n        /* \"contracts/pixel_prismatica_utils.sol\":4781:4782  1 */\n      0x01\n        /* \"contracts/pixel_prismatica_utils.sol\":4776:4777  r */\n      dup3\n        /* \"contracts/pixel_prismatica_utils.sol\":4776:4782  r == 1 */\n      sub\n        /* \"contracts/pixel_prismatica_utils.sol\":4773:5172  if(r == 1) {... */\n      tag_166\n      jumpi\n        /* \"contracts/pixel_prismatica_utils.sol\":4803:4819  get3Hex(0, c, 0) */\n      tag_167\n        /* \"contracts/pixel_prismatica_utils.sol\":4811:4812  0 */\n      0x00\n        /* \"contracts/pixel_prismatica_utils.sol\":4814:4815  c */\n      dup5\n        /* \"contracts/pixel_prismatica_utils.sol\":4817:4818  0 */\n      0x00\n        /* \"contracts/pixel_prismatica_utils.sol\":4803:4810  get3Hex */\n      tag_95\n        /* \"contracts/pixel_prismatica_utils.sol\":4803:4819  get3Hex(0, c, 0) */\n      jump\t// in\n    tag_167:\n        /* \"contracts/pixel_prismatica_utils.sol\":4799:4819  s = get3Hex(0, c, 0) */\n      swap1\n      pop\n        /* \"contracts/pixel_prismatica_utils.sol\":4773:5172  if(r == 1) {... */\n      jump(tag_168)\n    tag_166:\n        /* \"contracts/pixel_prismatica_utils.sol\":4854:4855  2 */\n      0x02\n        /* \"contracts/pixel_prismatica_utils.sol\":4849:4850  r */\n      dup3\n        /* \"contracts/pixel_prismatica_utils.sol\":4849:4855  r == 2 */\n      sub\n        /* \"contracts/pixel_prismatica_utils.sol\":4846:5172  if(r == 2) {... */\n      tag_169\n      jumpi\n        /* \"contracts/pixel_prismatica_utils.sol\":4876:4892  get3Hex(0, 0, c) */\n      tag_170\n        /* \"contracts/pixel_prismatica_utils.sol\":4884:4885  0 */\n      0x00\n        /* \"contracts/pixel_prismatica_utils.sol\":4887:4888  0 */\n      dup1\n        /* \"contracts/pixel_prismatica_utils.sol\":4890:4891  c */\n      dup6\n        /* \"contracts/pixel_prismatica_utils.sol\":4876:4883  get3Hex */\n      tag_95\n        /* \"contracts/pixel_prismatica_utils.sol\":4876:4892  get3Hex(0, 0, c) */\n      jump\t// in\n    tag_170:\n        /* \"contracts/pixel_prismatica_utils.sol\":4872:4892  s = get3Hex(0, 0, c) */\n      swap1\n      pop\n        /* \"contracts/pixel_prismatica_utils.sol\":4846:5172  if(r == 2) {... */\n      jump(tag_171)\n    tag_169:\n        /* \"contracts/pixel_prismatica_utils.sol\":4927:4928  3 */\n      0x03\n        /* \"contracts/pixel_prismatica_utils.sol\":4922:4923  r */\n      dup3\n        /* \"contracts/pixel_prismatica_utils.sol\":4922:4928  r == 3 */\n      sub\n        /* \"contracts/pixel_prismatica_utils.sol\":4919:5172  if(r == 3) {... */\n      tag_172\n      jumpi\n        /* \"contracts/pixel_prismatica_utils.sol\":4949:4965  get3Hex(0, c, c) */\n      tag_173\n        /* \"contracts/pixel_prismatica_utils.sol\":4957:4958  0 */\n      0x00\n        /* \"contracts/pixel_prismatica_utils.sol\":4960:4961  c */\n      dup5\n        /* \"contracts/pixel_prismatica_utils.sol\":4963:4964  c */\n      dup6\n        /* \"contracts/pixel_prismatica_utils.sol\":4949:4956  get3Hex */\n      tag_95\n        /* \"contracts/pixel_prismatica_utils.sol\":4949:4965  get3Hex(0, c, c) */\n      jump\t// in\n    tag_173:\n        /* \"contracts/pixel_prismatica_utils.sol\":4945:4965  s = get3Hex(0, c, c) */\n      swap1\n      pop\n        /* \"contracts/pixel_prismatica_utils.sol\":4919:5172  if(r == 3) {... */\n      jump(tag_174)\n    tag_172:\n        /* \"contracts/pixel_prismatica_utils.sol\":5000:5001  4 */\n      0x04\n        /* \"contracts/pixel_prismatica_utils.sol\":4995:4996  r */\n      dup3\n        /* \"contracts/pixel_prismatica_utils.sol\":4995:5001  r == 4 */\n      sub\n        /* \"contracts/pixel_prismatica_utils.sol\":4992:5172  if(r == 4) {... */\n      tag_175\n      jumpi\n        /* \"contracts/pixel_prismatica_utils.sol\":5022:5038  get3Hex(c, c, 0) */\n      tag_176\n        /* \"contracts/pixel_prismatica_utils.sol\":5030:5031  c */\n      dup4\n        /* \"contracts/pixel_prismatica_utils.sol\":5033:5034  c */\n      dup5\n        /* \"contracts/pixel_prismatica_utils.sol\":5036:5037  0 */\n      0x00\n        /* \"contracts/pixel_prismatica_utils.sol\":5022:5029  get3Hex */\n      tag_95\n        /* \"contracts/pixel_prismatica_utils.sol\":5022:5038  get3Hex(c, c, 0) */\n      jump\t// in\n    tag_176:\n        /* \"contracts/pixel_prismatica_utils.sol\":5018:5038  s = get3Hex(c, c, 0) */\n      swap1\n      pop\n        /* \"contracts/pixel_prismatica_utils.sol\":4992:5172  if(r == 4) {... */\n      jump(tag_177)\n    tag_175:\n        /* \"contracts/pixel_prismatica_utils.sol\":5073:5074  5 */\n      0x05\n        /* \"contracts/pixel_prismatica_utils.sol\":5068:5069  r */\n      dup3\n        /* \"contracts/pixel_prismatica_utils.sol\":5068:5074  r == 5 */\n      sub\n        /* \"contracts/pixel_prismatica_utils.sol\":5065:5172  if(r == 5) {... */\n      tag_178\n      jumpi\n        /* \"contracts/pixel_prismatica_utils.sol\":5095:5111  get3Hex(c, 0, c) */\n      tag_179\n        /* \"contracts/pixel_prismatica_utils.sol\":5103:5104  c */\n      dup4\n        /* \"contracts/pixel_prismatica_utils.sol\":5106:5107  0 */\n      0x00\n        /* \"contracts/pixel_prismatica_utils.sol\":5109:5110  c */\n      dup6\n        /* \"contracts/pixel_prismatica_utils.sol\":5095:5102  get3Hex */\n      tag_95\n        /* \"contracts/pixel_prismatica_utils.sol\":5095:5111  get3Hex(c, 0, c) */\n      jump\t// in\n    tag_179:\n        /* \"contracts/pixel_prismatica_utils.sol\":5091:5111  s = get3Hex(c, 0, c) */\n      swap1\n      pop\n        /* \"contracts/pixel_prismatica_utils.sol\":5065:5172  if(r == 5) {... */\n      jump(tag_180)\n    tag_178:\n        /* \"contracts/pixel_prismatica_utils.sol\":5153:5160  s = \"?\" */\n      mload(0x40)\n      dup1\n      0x40\n      add\n      0x40\n      mstore\n      dup1\n      0x01\n      dup2\n      mstore\n      0x20\n      add\n      0x3f00000000000000000000000000000000000000000000000000000000000000\n      dup2\n      mstore\n      pop\n      swap1\n      pop\n        /* \"contracts/pixel_prismatica_utils.sol\":5065:5172  if(r == 5) {... */\n    tag_180:\n        /* \"contracts/pixel_prismatica_utils.sol\":4992:5172  if(r == 4) {... */\n    tag_177:\n        /* \"contracts/pixel_prismatica_utils.sol\":4919:5172  if(r == 3) {... */\n    tag_174:\n        /* \"contracts/pixel_prismatica_utils.sol\":4846:5172  if(r == 2) {... */\n    tag_171:\n        /* \"contracts/pixel_prismatica_utils.sol\":4773:5172  if(r == 1) {... */\n    tag_168:\n        /* \"contracts/pixel_prismatica_utils.sol\":4700:5172  if(r == 0) {... */\n    tag_165:\n        /* \"contracts/pixel_prismatica_utils.sol\":5192:5193  s */\n      dup1\n        /* \"contracts/pixel_prismatica_utils.sol\":5195:5198  RND */\n      dup7\n        /* \"contracts/pixel_prismatica_utils.sol\":5184:5199  return (s, RND) */\n      swap5\n      pop\n      swap5\n      pop\n      pop\n      pop\n      pop\n        /* \"contracts/pixel_prismatica_utils.sol\":4483:5207  function getRainbowLightColorString(uint256[2] memory RND) public pure returns (string memory, uint256[2] memory) {... */\n      swap2\n      pop\n      swap2\n      jump\t// out\n        /* \"contracts/pixel_prismatica_utils.sol\":7283:7529  function getRedBlueColorString(uint256[2] memory RND) public pure returns (string memory, uint256[2] memory) {... */\n    tag_64:\n        /* \"contracts/pixel_prismatica_utils.sol\":7358:7371  string memory */\n      0x60\n        /* \"contracts/pixel_prismatica_utils.sol\":7373:7390  uint256[2] memory */\n      tag_181\n      tag_91\n      jump\t// in\n    tag_181:\n        /* \"contracts/pixel_prismatica_utils.sol\":7403:7413  uint256 cA */\n      0x00\n        /* \"contracts/pixel_prismatica_utils.sol\":7416:7435  nextInt2P(256, RND) */\n      tag_183\n        /* \"contracts/pixel_prismatica_utils.sol\":7426:7429  256 */\n      0x0100\n        /* \"contracts/pixel_prismatica_utils.sol\":7431:7434  RND */\n      dup6\n        /* \"contracts/pixel_prismatica_utils.sol\":7416:7425  nextInt2P */\n      tag_39\n        /* \"contracts/pixel_prismatica_utils.sol\":7416:7435  nextInt2P(256, RND) */\n      jump\t// in\n    tag_183:\n        /* \"contracts/pixel_prismatica_utils.sol\":7403:7435  uint256 cA = nextInt2P(256, RND) */\n      swap1\n      pop\n        /* \"contracts/pixel_prismatica_utils.sol\":7446:7456  uint256 cB */\n      0x00\n        /* \"contracts/pixel_prismatica_utils.sol\":7459:7478  nextInt2P(256, RND) */\n      tag_184\n        /* \"contracts/pixel_prismatica_utils.sol\":7469:7472  256 */\n      0x0100\n        /* \"contracts/pixel_prismatica_utils.sol\":7474:7477  RND */\n      dup7\n        /* \"contracts/pixel_prismatica_utils.sol\":7459:7468  nextInt2P */\n      tag_39\n        /* \"contracts/pixel_prismatica_utils.sol\":7459:7478  nextInt2P(256, RND) */\n      jump\t// in\n    tag_184:\n        /* \"contracts/pixel_prismatica_utils.sol\":7446:7478  uint256 cB = nextInt2P(256, RND) */\n      swap1\n      pop\n        /* \"contracts/pixel_prismatica_utils.sol\":7497:7515  get3Hex(cA, 0, cB) */\n      tag_185\n        /* \"contracts/pixel_prismatica_utils.sol\":7505:7507  cA */\n      dup3\n        /* \"contracts/pixel_prismatica_utils.sol\":7509:7510  0 */\n      0x00\n        /* \"contracts/pixel_prismatica_utils.sol\":7512:7514  cB */\n      dup4\n        /* \"contracts/pixel_prismatica_utils.sol\":7497:7504  get3Hex */\n      tag_95\n        /* \"contracts/pixel_prismatica_utils.sol\":7497:7515  get3Hex(cA, 0, cB) */\n      jump\t// in\n    tag_185:\n        /* \"contracts/pixel_prismatica_utils.sol\":7517:7520  RND */\n      dup6\n        /* \"contracts/pixel_prismatica_utils.sol\":7489:7521  return (get3Hex(cA, 0, cB), RND) */\n      swap4\n      pop\n      swap4\n      pop\n      pop\n      pop\n        /* \"contracts/pixel_prismatica_utils.sol\":7283:7529  function getRedBlueColorString(uint256[2] memory RND) public pure returns (string memory, uint256[2] memory) {... */\n      swap2\n      pop\n      swap2\n      jump\t// out\n        /* \"contracts/pixel_prismatica_utils.sol\":6361:6559  function getGreenColorString(uint256[2] memory RND) public pure returns (string memory, uint256[2] memory) {... */\n    tag_68:\n        /* \"contracts/pixel_prismatica_utils.sol\":6434:6447  string memory */\n      0x60\n        /* \"contracts/pixel_prismatica_utils.sol\":6449:6466  uint256[2] memory */\n      tag_186\n      tag_91\n      jump\t// in\n    tag_186:\n        /* \"contracts/pixel_prismatica_utils.sol\":6479:6488  uint256 c */\n      0x00\n        /* \"contracts/pixel_prismatica_utils.sol\":6491:6510  nextInt2P(256, RND) */\n      tag_188\n        /* \"contracts/pixel_prismatica_utils.sol\":6501:6504  256 */\n      0x0100\n        /* \"contracts/pixel_prismatica_utils.sol\":6506:6509  RND */\n      dup6\n        /* \"contracts/pixel_prismatica_utils.sol\":6491:6500  nextInt2P */\n      tag_39\n        /* \"contracts/pixel_prismatica_utils.sol\":6491:6510  nextInt2P(256, RND) */\n      jump\t// in\n    tag_188:\n        /* \"contracts/pixel_prismatica_utils.sol\":6479:6510  uint256 c = nextInt2P(256, RND) */\n      swap1\n      pop\n        /* \"contracts/pixel_prismatica_utils.sol\":6529:6545  get3Hex(0, c, 0) */\n      tag_189\n        /* \"contracts/pixel_prismatica_utils.sol\":6537:6538  0 */\n      0x00\n        /* \"contracts/pixel_prismatica_utils.sol\":6540:6541  c */\n      dup3\n        /* \"contracts/pixel_prismatica_utils.sol\":6543:6544  0 */\n      0x00\n        /* \"contracts/pixel_prismatica_utils.sol\":6529:6536  get3Hex */\n      tag_95\n        /* \"contracts/pixel_prismatica_utils.sol\":6529:6545  get3Hex(0, c, 0) */\n      jump\t// in\n    tag_189:\n        /* \"contracts/pixel_prismatica_utils.sol\":6547:6550  RND */\n      dup5\n        /* \"contracts/pixel_prismatica_utils.sol\":6521:6551  return (get3Hex(0, c, 0), RND) */\n      swap3\n      pop\n      swap3\n      pop\n      pop\n        /* \"contracts/pixel_prismatica_utils.sol\":6361:6559  function getGreenColorString(uint256[2] memory RND) public pure returns (string memory, uint256[2] memory) {... */\n      swap2\n      pop\n      swap2\n      jump\t// out\n        /* \"contracts/pixel_prismatica_utils.sol\":5946:6149  function getMonochromeColorString(uint256[2] memory RND) public pure returns (string memory, uint256[2] memory) {... */\n    tag_72:\n        /* \"contracts/pixel_prismatica_utils.sol\":6024:6037  string memory */\n      0x60\n        /* \"contracts/pixel_prismatica_utils.sol\":6039:6056  uint256[2] memory */\n      tag_190\n      tag_91\n      jump\t// in\n    tag_190:\n        /* \"contracts/pixel_prismatica_utils.sol\":6069:6078  uint256 c */\n      0x00\n        /* \"contracts/pixel_prismatica_utils.sol\":6081:6100  nextInt2P(256, RND) */\n      tag_192\n        /* \"contracts/pixel_prismatica_utils.sol\":6091:6094  256 */\n      0x0100\n        /* \"contracts/pixel_prismatica_utils.sol\":6096:6099  RND */\n      dup6\n        /* \"contracts/pixel_prismatica_utils.sol\":6081:6090  nextInt2P */\n      tag_39\n        /* \"contracts/pixel_prismatica_utils.sol\":6081:6100  nextInt2P(256, RND) */\n      jump\t// in\n    tag_192:\n        /* \"contracts/pixel_prismatica_utils.sol\":6069:6100  uint256 c = nextInt2P(256, RND) */\n      swap1\n      pop\n        /* \"contracts/pixel_prismatica_utils.sol\":6119:6135  get3Hex(c, c, c) */\n      tag_193\n        /* \"contracts/pixel_prismatica_utils.sol\":6127:6128  c */\n      dup2\n        /* \"contracts/pixel_prismatica_utils.sol\":6130:6131  c */\n      dup3\n        /* \"contracts/pixel_prismatica_utils.sol\":6133:6134  c */\n      dup4\n        /* \"contracts/pixel_prismatica_utils.sol\":6119:6126  get3Hex */\n      tag_95\n        /* \"contracts/pixel_prismatica_utils.sol\":6119:6135  get3Hex(c, c, c) */\n      jump\t// in\n    tag_193:\n        /* \"contracts/pixel_prismatica_utils.sol\":6137:6140  RND */\n      dup5\n        /* \"contracts/pixel_prismatica_utils.sol\":6111:6141  return (get3Hex(c, c, c), RND) */\n      swap3\n      pop\n      swap3\n      pop\n      pop\n        /* \"contracts/pixel_prismatica_utils.sol\":5946:6149  function getMonochromeColorString(uint256[2] memory RND) public pure returns (string memory, uint256[2] memory) {... */\n      swap2\n      pop\n      swap2\n      jump\t// out\n        /* \"contracts/pixel_prismatica_utils.sol\":7537:7734  function getCyanColorString(uint256[2] memory RND) public pure returns (string memory, uint256[2] memory) {... */\n    tag_76:\n        /* \"contracts/pixel_prismatica_utils.sol\":7609:7622  string memory */\n      0x60\n        /* \"contracts/pixel_prismatica_utils.sol\":7624:7641  uint256[2] memory */\n      tag_194\n      tag_91\n      jump\t// in\n    tag_194:\n        /* \"contracts/pixel_prismatica_utils.sol\":7654:7663  uint256 c */\n      0x00\n        /* \"contracts/pixel_prismatica_utils.sol\":7666:7685  nextInt2P(256, RND) */\n      tag_196\n        /* \"contracts/pixel_prismatica_utils.sol\":7676:7679  256 */\n      0x0100\n        /* \"contracts/pixel_prismatica_utils.sol\":7681:7684  RND */\n      dup6\n        /* \"contracts/pixel_prismatica_utils.sol\":7666:7675  nextInt2P */\n      tag_39\n        /* \"contracts/pixel_prismatica_utils.sol\":7666:7685  nextInt2P(256, RND) */\n      jump\t// in\n    tag_196:\n        /* \"contracts/pixel_prismatica_utils.sol\":7654:7685  uint256 c = nextInt2P(256, RND) */\n      swap1\n      pop\n        /* \"contracts/pixel_prismatica_utils.sol\":7704:7720  get3Hex(0, c, c) */\n      tag_197\n        /* \"contracts/pixel_prismatica_utils.sol\":7712:7713  0 */\n      0x00\n        /* \"contracts/pixel_prismatica_utils.sol\":7715:7716  c */\n      dup3\n        /* \"contracts/pixel_prismatica_utils.sol\":7718:7719  c */\n      dup4\n        /* \"contracts/pixel_prismatica_utils.sol\":7704:7711  get3Hex */\n      tag_95\n        /* \"contracts/pixel_prismatica_utils.sol\":7704:7720  get3Hex(0, c, c) */\n      jump\t// in\n    tag_197:\n        /* \"contracts/pixel_prismatica_utils.sol\":7722:7725  RND */\n      dup5\n        /* \"contracts/pixel_prismatica_utils.sol\":7696:7726  return (get3Hex(0, c, c), RND) */\n      swap3\n      pop\n      swap3\n      pop\n      pop\n        /* \"contracts/pixel_prismatica_utils.sol\":7537:7734  function getCyanColorString(uint256[2] memory RND) public pure returns (string memory, uint256[2] memory) {... */\n      swap2\n      pop\n      swap2\n      jump\t// out\n        /* \"contracts/pixel_prismatica_utils.sol\":3490:3766  function nextInt(uint256 n, uint256[2] memory RND) public pure returns (uint256) {... */\n    tag_80:\n        /* \"contracts/pixel_prismatica_utils.sol\":3562:3569  uint256 */\n      0x00\n        /* \"contracts/pixel_prismatica_utils.sol\":3093:3106  (1 << 48) - 1 */\n      0xffffffffffff\n        /* \"contracts/pixel_prismatica_utils.sol\":3708:3711  RND */\n      dup3\n        /* \"contracts/pixel_prismatica_utils.sol\":3712:3713  1 */\n      0x01\n        /* \"contracts/pixel_prismatica_utils.sol\":3708:3714  RND[1] */\n      0x02\n      dup2\n      lt\n      tag_199\n      jumpi\n      tag_200\n      tag_124\n      jump\t// in\n    tag_200:\n    tag_199:\n      0x20\n      mul\n      add\n      mload\n        /* \"contracts/pixel_prismatica_utils.sol\":3051:3054  0xB */\n      0x0b\n        /* \"contracts/pixel_prismatica_utils.sol\":3151:3162  0x5DEECE66D */\n      0x05deece66d\n        /* \"contracts/pixel_prismatica_utils.sol\":3677:3680  RND */\n      dup6\n        /* \"contracts/pixel_prismatica_utils.sol\":3681:3682  0 */\n      0x00\n        /* \"contracts/pixel_prismatica_utils.sol\":3677:3683  RND[0] */\n      0x02\n      dup2\n      lt\n      tag_201\n      jumpi\n      tag_202\n      tag_124\n      jump\t// in\n    tag_202:\n    tag_201:\n      0x20\n      mul\n      add\n      mload\n        /* \"contracts/pixel_prismatica_utils.sol\":3677:3696  RND[0] * multiplier */\n      tag_203\n      swap2\n      swap1\n      tag_128\n      jump\t// in\n    tag_203:\n        /* \"contracts/pixel_prismatica_utils.sol\":3677:3705  RND[0] * multiplier + addend */\n      tag_204\n      swap2\n      swap1\n      tag_130\n      jump\t// in\n    tag_204:\n        /* \"contracts/pixel_prismatica_utils.sol\":3677:3714  RND[0] * multiplier + addend + RND[1] */\n      tag_205\n      swap2\n      swap1\n      tag_130\n      jump\t// in\n    tag_205:\n        /* \"contracts/pixel_prismatica_utils.sol\":3676:3722  (RND[0] * multiplier + addend + RND[1]) & mask */\n      and\n        /* \"contracts/pixel_prismatica_utils.sol\":3667:3670  RND */\n      dup3\n        /* \"contracts/pixel_prismatica_utils.sol\":3671:3672  0 */\n      0x00\n        /* \"contracts/pixel_prismatica_utils.sol\":3667:3673  RND[0] */\n      0x02\n      dup2\n      lt\n      tag_206\n      jumpi\n      tag_207\n      tag_124\n      jump\t// in\n    tag_207:\n    tag_206:\n      0x20\n      mul\n      add\n        /* \"contracts/pixel_prismatica_utils.sol\":3667:3722  RND[0] = (RND[0] * multiplier + addend + RND[1]) & mask */\n      dup2\n      dup2\n      mstore\n      pop\n      pop\n        /* \"contracts/pixel_prismatica_utils.sol\":3757:3758  n */\n      dup3\n        /* \"contracts/pixel_prismatica_utils.sol\":3751:3753  17 */\n      0x11\n        /* \"contracts/pixel_prismatica_utils.sol\":3741:3744  RND */\n      dup4\n        /* \"contracts/pixel_prismatica_utils.sol\":3745:3746  0 */\n      0x00\n        /* \"contracts/pixel_prismatica_utils.sol\":3741:3747  RND[0] */\n      0x02\n      dup2\n      lt\n      tag_208\n      jumpi\n      tag_209\n      tag_124\n      jump\t// in\n    tag_209:\n    tag_208:\n      0x20\n      mul\n      add\n      mload\n        /* \"contracts/pixel_prismatica_utils.sol\":3741:3753  RND[0] >> 17 */\n      swap1\n      shr\n        /* \"contracts/pixel_prismatica_utils.sol\":3740:3758  (RND[0] >> 17) % n */\n      tag_210\n      swap2\n      swap1\n      tag_211\n      jump\t// in\n    tag_210:\n        /* \"contracts/pixel_prismatica_utils.sol\":3733:3758  return (RND[0] >> 17) % n */\n      swap1\n      pop\n        /* \"contracts/pixel_prismatica_utils.sol\":3490:3766  function nextInt(uint256 n, uint256[2] memory RND) public pure returns (uint256) {... */\n      swap3\n      swap2\n      pop\n      pop\n      jump\t// out\n        /* \"contracts/pixel_prismatica_utils.sol\":6772:7020  function getGreenBlueColorString(uint256[2] memory RND) public pure returns (string memory, uint256[2] memory) {... */\n    tag_84:\n        /* \"contracts/pixel_prismatica_utils.sol\":6849:6862  string memory */\n      0x60\n        /* \"contracts/pixel_prismatica_utils.sol\":6864:6881  uint256[2] memory */\n      tag_212\n      tag_91\n      jump\t// in\n    tag_212:\n        /* \"contracts/pixel_prismatica_utils.sol\":6894:6904  uint256 cA */\n      0x00\n        /* \"contracts/pixel_prismatica_utils.sol\":6907:6926  nextInt2P(256, RND) */\n      tag_214\n        /* \"contracts/pixel_prismatica_utils.sol\":6917:6920  256 */\n      0x0100\n        /* \"contracts/pixel_prismatica_utils.sol\":6922:6925  RND */\n      dup6\n        /* \"contracts/pixel_prismatica_utils.sol\":6907:6916  nextInt2P */\n      tag_39\n        /* \"contracts/pixel_prismatica_utils.sol\":6907:6926  nextInt2P(256, RND) */\n      jump\t// in\n    tag_214:\n        /* \"contracts/pixel_prismatica_utils.sol\":6894:6926  uint256 cA = nextInt2P(256, RND) */\n      swap1\n      pop\n        /* \"contracts/pixel_prismatica_utils.sol\":6937:6947  uint256 cB */\n      0x00\n        /* \"contracts/pixel_prismatica_utils.sol\":6950:6969  nextInt2P(256, RND) */\n      tag_215\n        /* \"contracts/pixel_prismatica_utils.sol\":6960:6963  256 */\n      0x0100\n        /* \"contracts/pixel_prismatica_utils.sol\":6965:6968  RND */\n      dup7\n        /* \"contracts/pixel_prismatica_utils.sol\":6950:6959  nextInt2P */\n      tag_39\n        /* \"contracts/pixel_prismatica_utils.sol\":6950:6969  nextInt2P(256, RND) */\n      jump\t// in\n    tag_215:\n        /* \"contracts/pixel_prismatica_utils.sol\":6937:6969  uint256 cB = nextInt2P(256, RND) */\n      swap1\n      pop\n        /* \"contracts/pixel_prismatica_utils.sol\":6988:7006  get3Hex(0, cA, cB) */\n      tag_216\n        /* \"contracts/pixel_prismatica_utils.sol\":6996:6997  0 */\n      0x00\n        /* \"contracts/pixel_prismatica_utils.sol\":6999:7001  cA */\n      dup4\n        /* \"contracts/pixel_prismatica_utils.sol\":7003:7005  cB */\n      dup4\n        /* \"contracts/pixel_prismatica_utils.sol\":6988:6995  get3Hex */\n      tag_95\n        /* \"contracts/pixel_prismatica_utils.sol\":6988:7006  get3Hex(0, cA, cB) */\n      jump\t// in\n    tag_216:\n        /* \"contracts/pixel_prismatica_utils.sol\":7008:7011  RND */\n      dup6\n        /* \"contracts/pixel_prismatica_utils.sol\":6980:7012  return (get3Hex(0, cA, cB), RND) */\n      swap4\n      pop\n      swap4\n      pop\n      pop\n      pop\n        /* \"contracts/pixel_prismatica_utils.sol\":6772:7020  function getGreenBlueColorString(uint256[2] memory RND) public pure returns (string memory, uint256[2] memory) {... */\n      swap2\n      pop\n      swap2\n      jump\t// out\n        /* \"contracts/pixel_prismatica_utils.sol\":7028:7275  function getRedGreenColorString(uint256[2] memory RND) public pure returns (string memory, uint256[2] memory) {... */\n    tag_88:\n        /* \"contracts/pixel_prismatica_utils.sol\":7104:7117  string memory */\n      0x60\n        /* \"contracts/pixel_prismatica_utils.sol\":7119:7136  uint256[2] memory */\n      tag_217\n      tag_91\n      jump\t// in\n    tag_217:\n        /* \"contracts/pixel_prismatica_utils.sol\":7149:7159  uint256 cA */\n      0x00\n        /* \"contracts/pixel_prismatica_utils.sol\":7162:7181  nextInt2P(256, RND) */\n      tag_219\n        /* \"contracts/pixel_prismatica_utils.sol\":7172:7175  256 */\n      0x0100\n        /* \"contracts/pixel_prismatica_utils.sol\":7177:7180  RND */\n      dup6\n        /* \"contracts/pixel_prismatica_utils.sol\":7162:7171  nextInt2P */\n      tag_39\n        /* \"contracts/pixel_prismatica_utils.sol\":7162:7181  nextInt2P(256, RND) */\n      jump\t// in\n    tag_219:\n        /* \"contracts/pixel_prismatica_utils.sol\":7149:7181  uint256 cA = nextInt2P(256, RND) */\n      swap1\n      pop\n        /* \"contracts/pixel_prismatica_utils.sol\":7192:7202  uint256 cB */\n      0x00\n        /* \"contracts/pixel_prismatica_utils.sol\":7205:7224  nextInt2P(256, RND) */\n      tag_220\n        /* \"contracts/pixel_prismatica_utils.sol\":7215:7218  256 */\n      0x0100\n        /* \"contracts/pixel_prismatica_utils.sol\":7220:7223  RND */\n      dup7\n        /* \"contracts/pixel_prismatica_utils.sol\":7205:7214  nextInt2P */\n      tag_39\n        /* \"contracts/pixel_prismatica_utils.sol\":7205:7224  nextInt2P(256, RND) */\n      jump\t// in\n    tag_220:\n        /* \"contracts/pixel_prismatica_utils.sol\":7192:7224  uint256 cB = nextInt2P(256, RND) */\n      swap1\n      pop\n        /* \"contracts/pixel_prismatica_utils.sol\":7243:7261  get3Hex(cA, cB, 0) */\n      tag_221\n        /* \"contracts/pixel_prismatica_utils.sol\":7251:7253  cA */\n      dup3\n        /* \"contracts/pixel_prismatica_utils.sol\":7255:7257  cB */\n      dup3\n        /* \"contracts/pixel_prismatica_utils.sol\":7259:7260  0 */\n      0x00\n        /* \"contracts/pixel_prismatica_utils.sol\":7243:7250  get3Hex */\n      tag_95\n        /* \"contracts/pixel_prismatica_utils.sol\":7243:7261  get3Hex(cA, cB, 0) */\n      jump\t// in\n    tag_221:\n        /* \"contracts/pixel_prismatica_utils.sol\":7263:7266  RND */\n      dup6\n        /* \"contracts/pixel_prismatica_utils.sol\":7235:7267  return (get3Hex(cA, cB, 0), RND) */\n      swap4\n      pop\n      swap4\n      pop\n      pop\n      pop\n        /* \"contracts/pixel_prismatica_utils.sol\":7028:7275  function getRedGreenColorString(uint256[2] memory RND) public pure returns (string memory, uint256[2] memory) {... */\n      swap2\n      pop\n      swap2\n      jump\t// out\n        /* \"contracts/pixel_prismatica_utils.sol\":1737:2250  function get3Hex(uint256 valueA, uint256 valueB, uint256 valueC) pure returns (string memory) {... */\n    tag_95:\n        /* \"contracts/pixel_prismatica_utils.sol\":1816:1829  string memory */\n      0x60\n        /* \"contracts/pixel_prismatica_utils.sol\":1872:1891  bytes memory buffer */\n      0x00\n        /* \"contracts/pixel_prismatica_utils.sol\":1904:1905  7 */\n      0x07\n        /* \"contracts/pixel_prismatica_utils.sol\":1894:1906  new bytes(7) */\n      0xffffffffffffffff\n      dup2\n      gt\n      iszero\n      tag_223\n      jumpi\n      tag_224\n      tag_225\n      jump\t// in\n    tag_224:\n    tag_223:\n      mload(0x40)\n      swap1\n      dup1\n      dup3\n      mstore\n      dup1\n      0x1f\n      add\n      not(0x1f)\n      and\n      0x20\n      add\n      dup3\n      add\n      0x40\n      mstore\n      dup1\n      iszero\n      tag_226\n      jumpi\n      dup2\n      0x20\n      add\n      0x01\n      dup3\n      mul\n      dup1\n      calldatasize\n      dup4\n      calldatacopy\n      dup1\n      dup3\n      add\n      swap2\n      pop\n      pop\n      swap1\n      pop\n    tag_226:\n      pop\n        /* \"contracts/pixel_prismatica_utils.sol\":1872:1906  bytes memory buffer = new bytes(7) */\n      swap1\n      pop\n        /* \"contracts/pixel_prismatica_utils.sol\":1913:1928  buffer[0] = \"#\" */\n      0x2300000000000000000000000000000000000000000000000000000000000000\n        /* \"contracts/pixel_prismatica_utils.sol\":1913:1919  buffer */\n      dup2\n        /* \"contracts/pixel_prismatica_utils.sol\":1920:1921  0 */\n      0x00\n        /* \"contracts/pixel_prismatica_utils.sol\":1913:1922  buffer[0] */\n      dup2\n      mload\n      dup2\n      lt\n      tag_227\n      jumpi\n      tag_228\n      tag_124\n      jump\t// in\n    tag_228:\n    tag_227:\n      0x20\n      add\n      add\n        /* \"contracts/pixel_prismatica_utils.sol\":1913:1928  buffer[0] = \"#\" */\n      swap1\n      not(0xffffffffffffffffffffffffffffffffffffffffffffffffffffffffffffff)\n      and\n      swap1\n      dup2\n      0x00\n      byte\n      swap1\n      mstore8\n      pop\n        /* \"contracts/pixel_prismatica_utils.sol\":1947:1958  HEX_SYMBOLS */\n      0x3031323334353637383941424344454600000000000000000000000000000000\n        /* \"contracts/pixel_prismatica_utils.sol\":1978:1979  4 */\n      0x04\n        /* \"contracts/pixel_prismatica_utils.sol\":1969:1973  0xf0 */\n      0xf0\n        /* \"contracts/pixel_prismatica_utils.sol\":1960:1966  valueA */\n      dup8\n        /* \"contracts/pixel_prismatica_utils.sol\":1960:1973  valueA & 0xf0 */\n      and\n        /* \"contracts/pixel_prismatica_utils.sol\":1959:1979  (valueA & 0xf0) >> 4 */\n      swap1\n      shr\n        /* \"contracts/pixel_prismatica_utils.sol\":1947:1980  HEX_SYMBOLS[(valueA & 0xf0) >> 4] */\n      0x10\n      dup2\n      lt\n      tag_229\n      jumpi\n      tag_230\n      tag_124\n      jump\t// in\n    tag_230:\n    tag_229:\n      byte\n      0xf8\n      shl\n        /* \"contracts/pixel_prismatica_utils.sol\":1935:1941  buffer */\n      dup2\n        /* \"contracts/pixel_prismatica_utils.sol\":1942:1943  1 */\n      0x01\n        /* \"contracts/pixel_prismatica_utils.sol\":1935:1944  buffer[1] */\n      dup2\n      mload\n      dup2\n      lt\n      tag_231\n      jumpi\n      tag_232\n      tag_124\n      jump\t// in\n    tag_232:\n    tag_231:\n      0x20\n      add\n      add\n        /* \"contracts/pixel_prismatica_utils.sol\":1935:1980  buffer[1] = HEX_SYMBOLS[(valueA & 0xf0) >> 4] */\n      swap1\n      not(0xffffffffffffffffffffffffffffffffffffffffffffffffffffffffffffff)\n      and\n      swap1\n      dup2\n      0x00\n      byte\n      swap1\n      mstore8\n      pop\n        /* \"contracts/pixel_prismatica_utils.sol\":1999:2010  HEX_SYMBOLS */\n      0x3031323334353637383941424344454600000000000000000000000000000000\n        /* \"contracts/pixel_prismatica_utils.sol\":2020:2023  0xf */\n      0x0f\n        /* \"contracts/pixel_prismatica_utils.sol\":2011:2017  valueA */\n      dup7\n        /* \"contracts/pixel_prismatica_utils.sol\":2011:2023  valueA & 0xf */\n      and\n        /* \"contracts/pixel_prismatica_utils.sol\":1999:2024  HEX_SYMBOLS[valueA & 0xf] */\n      0x10\n      dup2\n      lt\n      tag_233\n      jumpi\n      tag_234\n      tag_124\n      jump\t// in\n    tag_234:\n    tag_233:\n      byte\n      0xf8\n      shl\n        /* \"contracts/pixel_prismatica_utils.sol\":1987:1993  buffer */\n      dup2\n        /* \"contracts/pixel_prismatica_utils.sol\":1994:1995  2 */\n      0x02\n        /* \"contracts/pixel_prismatica_utils.sol\":1987:1996  buffer[2] */\n      dup2\n      mload\n      dup2\n      lt\n      tag_235\n      jumpi\n      tag_236\n      tag_124\n      jump\t// in\n    tag_236:\n    tag_235:\n      0x20\n      add\n      add\n        /* \"contracts/pixel_prismatica_utils.sol\":1987:2024  buffer[2] = HEX_SYMBOLS[valueA & 0xf] */\n      swap1\n      not(0xffffffffffffffffffffffffffffffffffffffffffffffffffffffffffffff)\n      and\n      swap1\n      dup2\n      0x00\n      byte\n      swap1\n      mstore8\n      pop\n        /* \"contracts/pixel_prismatica_utils.sol\":2043:2054  HEX_SYMBOLS */\n      0x3031323334353637383941424344454600000000000000000000000000000000\n        /* \"contracts/pixel_prismatica_utils.sol\":2074:2075  4 */\n      0x04\n        /* \"contracts/pixel_prismatica_utils.sol\":2065:2069  0xf0 */\n      0xf0\n        /* \"contracts/pixel_prismatica_utils.sol\":2056:2062  valueB */\n      dup7\n        /* \"contracts/pixel_prismatica_utils.sol\":2056:2069  valueB & 0xf0 */\n      and\n        /* \"contracts/pixel_prismatica_utils.sol\":2055:2075  (valueB & 0xf0) >> 4 */\n      swap1\n      shr\n        /* \"contracts/pixel_prismatica_utils.sol\":2043:2076  HEX_SYMBOLS[(valueB & 0xf0) >> 4] */\n      0x10\n      dup2\n      lt\n      tag_237\n      jumpi\n      tag_238\n      tag_124\n      jump\t// in\n    tag_238:\n    tag_237:\n      byte\n      0xf8\n      shl\n        /* \"contracts/pixel_prismatica_utils.sol\":2031:2037  buffer */\n      dup2\n        /* \"contracts/pixel_prismatica_utils.sol\":2038:2039  3 */\n      0x03\n        /* \"contracts/pixel_prismatica_utils.sol\":2031:2040  buffer[3] */\n      dup2\n      mload\n      dup2\n      lt\n      tag_239\n      jumpi\n      tag_240\n      tag_124\n      jump\t// in\n    tag_240:\n    tag_239:\n      0x20\n      add\n      add\n        /* \"contracts/pixel_prismatica_utils.sol\":2031:2076  buffer[3] = HEX_SYMBOLS[(valueB & 0xf0) >> 4] */\n      swap1\n      not(0xffffffffffffffffffffffffffffffffffffffffffffffffffffffffffffff)\n      and\n      swap1\n      dup2\n      0x00\n      byte\n      swap1\n      mstore8\n      pop\n        /* \"contracts/pixel_prismatica_utils.sol\":2095:2106  HEX_SYMBOLS */\n      0x3031323334353637383941424344454600000000000000000000000000000000\n        /* \"contracts/pixel_prismatica_utils.sol\":2116:2119  0xf */\n      0x0f\n        /* \"contracts/pixel_prismatica_utils.sol\":2107:2113  valueB */\n      dup6\n        /* \"contracts/pixel_prismatica_utils.sol\":2107:2119  valueB & 0xf */\n      and\n        /* \"contracts/pixel_prismatica_utils.sol\":2095:2120  HEX_SYMBOLS[valueB & 0xf] */\n      0x10\n      dup2\n      lt\n      tag_241\n      jumpi\n      tag_242\n      tag_124\n      jump\t// in\n    tag_242:\n    tag_241:\n      byte\n      0xf8\n      shl\n        /* \"contracts/pixel_prismatica_utils.sol\":2083:2089  buffer */\n      dup2\n        /* \"contracts/pixel_prismatica_utils.sol\":2090:2091  4 */\n      0x04\n        /* \"contracts/pixel_prismatica_utils.sol\":2083:2092  buffer[4] */\n      dup2\n      mload\n      dup2\n      lt\n      tag_243\n      jumpi\n      tag_244\n      tag_124\n      jump\t// in\n    tag_244:\n    tag_243:\n      0x20\n      add\n      add\n        /* \"contracts/pixel_prismatica_utils.sol\":2083:2120  buffer[4] = HEX_SYMBOLS[valueB & 0xf] */\n      swap1\n      not(0xffffffffffffffffffffffffffffffffffffffffffffffffffffffffffffff)\n      and\n      swap1\n      dup2\n      0x00\n      byte\n      swap1\n      mstore8\n      pop\n        /* \"contracts/pixel_prismatica_utils.sol\":2139:2150  HEX_SYMBOLS */\n      0x3031323334353637383941424344454600000000000000000000000000000000\n        /* \"contracts/pixel_prismatica_utils.sol\":2170:2171  4 */\n      0x04\n        /* \"contracts/pixel_prismatica_utils.sol\":2161:2165  0xf0 */\n      0xf0\n        /* \"contracts/pixel_prismatica_utils.sol\":2152:2158  valueC */\n      dup6\n        /* \"contracts/pixel_prismatica_utils.sol\":2152:2165  valueC & 0xf0 */\n      and\n        /* \"contracts/pixel_prismatica_utils.sol\":2151:2171  (valueC & 0xf0) >> 4 */\n      swap1\n      shr\n        /* \"contracts/pixel_prismatica_utils.sol\":2139:2172  HEX_SYMBOLS[(valueC & 0xf0) >> 4] */\n      0x10\n      dup2\n      lt\n      tag_245\n      jumpi\n      tag_246\n      tag_124\n      jump\t// in\n    tag_246:\n    tag_245:\n      byte\n      0xf8\n      shl\n        /* \"contracts/pixel_prismatica_utils.sol\":2127:2133  buffer */\n      dup2\n        /* \"contracts/pixel_prismatica_utils.sol\":2134:2135  5 */\n      0x05\n        /* \"contracts/pixel_prismatica_utils.sol\":2127:2136  buffer[5] */\n      dup2\n      mload\n      dup2\n      lt\n      tag_247\n      jumpi\n      tag_248\n      tag_124\n      jump\t// in\n    tag_248:\n    tag_247:\n      0x20\n      add\n      add\n        /* \"contracts/pixel_prismatica_utils.sol\":2127:2172  buffer[5] = HEX_SYMBOLS[(valueC & 0xf0) >> 4] */\n      swap1\n      not(0xffffffffffffffffffffffffffffffffffffffffffffffffffffffffffffff)\n      and\n      swap1\n      dup2\n      0x00\n      byte\n      swap1\n      mstore8\n      pop\n        /* \"contracts/pixel_prismatica_utils.sol\":2191:2202  HEX_SYMBOLS */\n      0x3031323334353637383941424344454600000000000000000000000000000000\n        /* \"contracts/pixel_prismatica_utils.sol\":2212:2215  0xf */\n      0x0f\n        /* \"contracts/pixel_prismatica_utils.sol\":2203:2209  valueC */\n      dup5\n        /* \"contracts/pixel_prismatica_utils.sol\":2203:2215  valueC & 0xf */\n      and\n        /* \"contracts/pixel_prismatica_utils.sol\":2191:2216  HEX_SYMBOLS[valueC & 0xf] */\n      0x10\n      dup2\n      lt\n      tag_249\n      jumpi\n      tag_250\n      tag_124\n      jump\t// in\n    tag_250:\n    tag_249:\n      byte\n      0xf8\n      shl\n        /* \"contracts/pixel_prismatica_utils.sol\":2179:2185  buffer */\n      dup2\n        /* \"contracts/pixel_prismatica_utils.sol\":2186:2187  6 */\n      0x06\n        /* \"contracts/pixel_prismatica_utils.sol\":2179:2188  buffer[6] */\n      dup2\n      mload\n      dup2\n      lt\n      tag_251\n      jumpi\n      tag_252\n      tag_124\n      jump\t// in\n    tag_252:\n    tag_251:\n      0x20\n      add\n      add\n        /* \"contracts/pixel_prismatica_utils.sol\":2179:2216  buffer[6] = HEX_SYMBOLS[valueC & 0xf] */\n      swap1\n      not(0xffffffffffffffffffffffffffffffffffffffffffffffffffffffffffffff)\n      and\n      swap1\n      dup2\n      0x00\n      byte\n      swap1\n      mstore8\n      pop\n        /* \"contracts/pixel_prismatica_utils.sol\":2239:2245  buffer */\n      dup1\n        /* \"contracts/pixel_prismatica_utils.sol\":2225:2246  return string(buffer) */\n      swap2\n      pop\n      pop\n        /* \"contracts/pixel_prismatica_utils.sol\":1737:2250  function get3Hex(uint256 valueA, uint256 valueB, uint256 valueC) pure returns (string memory) {... */\n      swap4\n      swap3\n      pop\n      pop\n      pop\n      jump\t// out\n    tag_91:\n      mload(0x40)\n      dup1\n      0x40\n      add\n      0x40\n      mstore\n      dup1\n      0x02\n      swap1\n      0x20\n      dup3\n      mul\n      dup1\n      calldatasize\n      dup4\n      calldatacopy\n      dup1\n      dup3\n      add\n      swap2\n      pop\n      pop\n      swap1\n      pop\n      pop\n      swap1\n      jump\t// out\n        /* \"#utility.yul\":7:82   */\n    tag_253:\n        /* \"#utility.yul\":40:46   */\n      0x00\n        /* \"#utility.yul\":73:75   */\n      0x40\n        /* \"#utility.yul\":67:76   */\n      mload\n        /* \"#utility.yul\":57:76   */\n      swap1\n      pop\n        /* \"#utility.yul\":7:82   */\n      swap1\n      jump\t// out\n        /* \"#utility.yul\":88:205   */\n    tag_254:\n        /* \"#utility.yul\":197:198   */\n      0x00\n        /* \"#utility.yul\":194:195   */\n      dup1\n        /* \"#utility.yul\":187:199   */\n      revert\n        /* \"#utility.yul\":211:328   */\n    tag_255:\n        /* \"#utility.yul\":320:321   */\n      0x00\n        /* \"#utility.yul\":317:318   */\n      dup1\n        /* \"#utility.yul\":310:322   */\n      revert\n        /* \"#utility.yul\":334:451   */\n    tag_256:\n        /* \"#utility.yul\":443:444   */\n      0x00\n        /* \"#utility.yul\":440:441   */\n      dup1\n        /* \"#utility.yul\":433:445   */\n      revert\n        /* \"#utility.yul\":457:559   */\n    tag_257:\n        /* \"#utility.yul\":498:504   */\n      0x00\n        /* \"#utility.yul\":549:551   */\n      0x1f\n        /* \"#utility.yul\":545:552   */\n      not\n        /* \"#utility.yul\":540:542   */\n      0x1f\n        /* \"#utility.yul\":533:538   */\n      dup4\n        /* \"#utility.yul\":529:543   */\n      add\n        /* \"#utility.yul\":525:553   */\n      and\n        /* \"#utility.yul\":515:553   */\n      swap1\n      pop\n        /* \"#utility.yul\":457:559   */\n      swap2\n      swap1\n      pop\n      jump\t// out\n        /* \"#utility.yul\":565:745   */\n    tag_225:\n        /* \"#utility.yul\":613:690   */\n      0x4e487b7100000000000000000000000000000000000000000000000000000000\n        /* \"#utility.yul\":610:611   */\n      0x00\n        /* \"#utility.yul\":603:691   */\n      mstore\n        /* \"#utility.yul\":710:714   */\n      0x41\n        /* \"#utility.yul\":707:708   */\n      0x04\n        /* \"#utility.yul\":700:715   */\n      mstore\n        /* \"#utility.yul\":734:738   */\n      0x24\n        /* \"#utility.yul\":731:732   */\n      0x00\n        /* \"#utility.yul\":724:739   */\n      revert\n        /* \"#utility.yul\":751:1032   */\n    tag_258:\n        /* \"#utility.yul\":834:861   */\n      tag_302\n        /* \"#utility.yul\":856:860   */\n      dup3\n        /* \"#utility.yul\":834:861   */\n      tag_257\n      jump\t// in\n    tag_302:\n        /* \"#utility.yul\":826:832   */\n      dup2\n        /* \"#utility.yul\":822:862   */\n      add\n        /* \"#utility.yul\":964:970   */\n      dup2\n        /* \"#utility.yul\":952:962   */\n      dup2\n        /* \"#utility.yul\":949:971   */\n      lt\n        /* \"#utility.yul\":928:946   */\n      0xffffffffffffffff\n        /* \"#utility.yul\":916:926   */\n      dup3\n        /* \"#utility.yul\":913:947   */\n      gt\n        /* \"#utility.yul\":910:972   */\n      or\n        /* \"#utility.yul\":907:995   */\n      iszero\n      tag_303\n      jumpi\n        /* \"#utility.yul\":975:993   */\n      tag_304\n      tag_225\n      jump\t// in\n    tag_304:\n        /* \"#utility.yul\":907:995   */\n    tag_303:\n        /* \"#utility.yul\":1015:1025   */\n      dup1\n        /* \"#utility.yul\":1011:1013   */\n      0x40\n        /* \"#utility.yul\":1004:1026   */\n      mstore\n        /* \"#utility.yul\":794:1032   */\n      pop\n        /* \"#utility.yul\":751:1032   */\n      pop\n      pop\n      jump\t// out\n        /* \"#utility.yul\":1038:1167   */\n    tag_259:\n        /* \"#utility.yul\":1072:1078   */\n      0x00\n        /* \"#utility.yul\":1099:1119   */\n      tag_306\n      tag_253\n      jump\t// in\n    tag_306:\n        /* \"#utility.yul\":1089:1119   */\n      swap1\n      pop\n        /* \"#utility.yul\":1128:1161   */\n      tag_307\n        /* \"#utility.yul\":1156:1160   */\n      dup3\n        /* \"#utility.yul\":1148:1154   */\n      dup3\n        /* \"#utility.yul\":1128:1161   */\n      tag_258\n      jump\t// in\n    tag_307:\n        /* \"#utility.yul\":1038:1167   */\n      swap2\n      swap1\n      pop\n      jump\t// out\n        /* \"#utility.yul\":1173:1422   */\n    tag_260:\n        /* \"#utility.yul\":1248:1252   */\n      0x00\n        /* \"#utility.yul\":1338:1356   */\n      0xffffffffffffffff\n        /* \"#utility.yul\":1330:1336   */\n      dup3\n        /* \"#utility.yul\":1327:1357   */\n      gt\n        /* \"#utility.yul\":1324:1380   */\n      iszero\n      tag_309\n      jumpi\n        /* \"#utility.yul\":1360:1378   */\n      tag_310\n      tag_225\n      jump\t// in\n    tag_310:\n        /* \"#utility.yul\":1324:1380   */\n    tag_309:\n        /* \"#utility.yul\":1410:1414   */\n      0x20\n        /* \"#utility.yul\":1402:1408   */\n      dup3\n        /* \"#utility.yul\":1398:1415   */\n      mul\n        /* \"#utility.yul\":1390:1415   */\n      swap1\n      pop\n        /* \"#utility.yul\":1173:1422   */\n      swap2\n      swap1\n      pop\n      jump\t// out\n        /* \"#utility.yul\":1428:1545   */\n    tag_261:\n        /* \"#utility.yul\":1537:1538   */\n      0x00\n        /* \"#utility.yul\":1534:1535   */\n      dup1\n        /* \"#utility.yul\":1527:1539   */\n      revert\n        /* \"#utility.yul\":1551:1628   */\n    tag_262:\n        /* \"#utility.yul\":1588:1595   */\n      0x00\n        /* \"#utility.yul\":1617:1622   */\n      dup2\n        /* \"#utility.yul\":1606:1622   */\n      swap1\n      pop\n        /* \"#utility.yul\":1551:1628   */\n      swap2\n      swap1\n      pop\n      jump\t// out\n        /* \"#utility.yul\":1634:1756   */\n    tag_263:\n        /* \"#utility.yul\":1707:1731   */\n      tag_314\n        /* \"#utility.yul\":1725:1730   */\n      dup2\n        /* \"#utility.yul\":1707:1731   */\n      tag_262\n      jump\t// in\n    tag_314:\n        /* \"#utility.yul\":1700:1705   */\n      dup2\n        /* \"#utility.yul\":1697:1732   */\n      eq\n        /* \"#utility.yul\":1687:1750   */\n      tag_315\n      jumpi\n        /* \"#utility.yul\":1746:1747   */\n      0x00\n        /* \"#utility.yul\":1743:1744   */\n      dup1\n        /* \"#utility.yul\":1736:1748   */\n      revert\n        /* \"#utility.yul\":1687:1750   */\n    tag_315:\n        /* \"#utility.yul\":1634:1756   */\n      pop\n      jump\t// out\n        /* \"#utility.yul\":1762:1901   */\n    tag_264:\n        /* \"#utility.yul\":1808:1813   */\n      0x00\n        /* \"#utility.yul\":1846:1852   */\n      dup2\n        /* \"#utility.yul\":1833:1853   */\n      calldataload\n        /* \"#utility.yul\":1824:1853   */\n      swap1\n      pop\n        /* \"#utility.yul\":1862:1895   */\n      tag_317\n        /* \"#utility.yul\":1889:1894   */\n      dup2\n        /* \"#utility.yul\":1862:1895   */\n      tag_263\n      jump\t// in\n    tag_317:\n        /* \"#utility.yul\":1762:1901   */\n      swap3\n      swap2\n      pop\n      pop\n      jump\t// out\n        /* \"#utility.yul\":1925:2568   */\n    tag_265:\n        /* \"#utility.yul\":2019:2024   */\n      0x00\n        /* \"#utility.yul\":2044:2123   */\n      tag_319\n        /* \"#utility.yul\":2060:2122   */\n      tag_320\n        /* \"#utility.yul\":2115:2121   */\n      dup5\n        /* \"#utility.yul\":2060:2122   */\n      tag_260\n      jump\t// in\n    tag_320:\n        /* \"#utility.yul\":2044:2123   */\n      tag_259\n      jump\t// in\n    tag_319:\n        /* \"#utility.yul\":2035:2123   */\n      swap1\n      pop\n        /* \"#utility.yul\":2143:2148   */\n      dup1\n        /* \"#utility.yul\":2196:2200   */\n      0x20\n        /* \"#utility.yul\":2188:2194   */\n      dup5\n        /* \"#utility.yul\":2184:2201   */\n      mul\n        /* \"#utility.yul\":2176:2182   */\n      dup4\n        /* \"#utility.yul\":2172:2202   */\n      add\n        /* \"#utility.yul\":2225:2228   */\n      dup6\n        /* \"#utility.yul\":2217:2223   */\n      dup2\n        /* \"#utility.yul\":2214:2229   */\n      gt\n        /* \"#utility.yul\":2211:2333   */\n      iszero\n      tag_321\n      jumpi\n        /* \"#utility.yul\":2244:2323   */\n      tag_322\n      tag_261\n      jump\t// in\n    tag_322:\n        /* \"#utility.yul\":2211:2333   */\n    tag_321:\n        /* \"#utility.yul\":2359:2365   */\n      dup4\n        /* \"#utility.yul\":2342:2562   */\n    tag_323:\n        /* \"#utility.yul\":2376:2382   */\n      dup2\n        /* \"#utility.yul\":2371:2374   */\n      dup2\n        /* \"#utility.yul\":2368:2383   */\n      lt\n        /* \"#utility.yul\":2342:2562   */\n      iszero\n      tag_325\n      jumpi\n        /* \"#utility.yul\":2451:2454   */\n      dup1\n        /* \"#utility.yul\":2480:2517   */\n      tag_326\n        /* \"#utility.yul\":2513:2516   */\n      dup9\n        /* \"#utility.yul\":2501:2511   */\n      dup3\n        /* \"#utility.yul\":2480:2517   */\n      tag_264\n      jump\t// in\n    tag_326:\n        /* \"#utility.yul\":2475:2478   */\n      dup5\n        /* \"#utility.yul\":2468:2518   */\n      mstore\n        /* \"#utility.yul\":2547:2551   */\n      0x20\n        /* \"#utility.yul\":2542:2545   */\n      dup5\n        /* \"#utility.yul\":2538:2552   */\n      add\n        /* \"#utility.yul\":2531:2552   */\n      swap4\n      pop\n        /* \"#utility.yul\":2418:2562   */\n      pop\n        /* \"#utility.yul\":2402:2406   */\n      0x20\n        /* \"#utility.yul\":2397:2400   */\n      dup2\n        /* \"#utility.yul\":2393:2407   */\n      add\n        /* \"#utility.yul\":2386:2407   */\n      swap1\n      pop\n        /* \"#utility.yul\":2342:2562   */\n      jump(tag_323)\n    tag_325:\n        /* \"#utility.yul\":2346:2367   */\n      pop\n        /* \"#utility.yul\":2025:2568   */\n      pop\n      pop\n        /* \"#utility.yul\":1925:2568   */\n      swap4\n      swap3\n      pop\n      pop\n      pop\n      jump\t// out\n        /* \"#utility.yul\":2592:2931   */\n    tag_266:\n        /* \"#utility.yul\":2661:2666   */\n      0x00\n        /* \"#utility.yul\":2710:2713   */\n      dup3\n        /* \"#utility.yul\":2703:2707   */\n      0x1f\n        /* \"#utility.yul\":2695:2701   */\n      dup4\n        /* \"#utility.yul\":2691:2708   */\n      add\n        /* \"#utility.yul\":2687:2714   */\n      slt\n        /* \"#utility.yul\":2677:2799   */\n      tag_328\n      jumpi\n        /* \"#utility.yul\":2718:2797   */\n      tag_329\n      tag_256\n      jump\t// in\n    tag_329:\n        /* \"#utility.yul\":2677:2799   */\n    tag_328:\n        /* \"#utility.yul\":2822:2826   */\n      0x02\n        /* \"#utility.yul\":2844:2925   */\n      tag_330\n        /* \"#utility.yul\":2921:2924   */\n      dup5\n        /* \"#utility.yul\":2913:2919   */\n      dup3\n        /* \"#utility.yul\":2905:2911   */\n      dup6\n        /* \"#utility.yul\":2844:2925   */\n      tag_265\n      jump\t// in\n    tag_330:\n        /* \"#utility.yul\":2835:2925   */\n      swap2\n      pop\n        /* \"#utility.yul\":2667:2931   */\n      pop\n        /* \"#utility.yul\":2592:2931   */\n      swap3\n      swap2\n      pop\n      pop\n      jump\t// out\n        /* \"#utility.yul\":2937:3312   */\n    tag_24:\n        /* \"#utility.yul\":3019:3025   */\n      0x00\n        /* \"#utility.yul\":3068:3070   */\n      0x40\n        /* \"#utility.yul\":3056:3065   */\n      dup3\n        /* \"#utility.yul\":3047:3054   */\n      dup5\n        /* \"#utility.yul\":3043:3066   */\n      sub\n        /* \"#utility.yul\":3039:3071   */\n      slt\n        /* \"#utility.yul\":3036:3155   */\n      iszero\n      tag_332\n      jumpi\n        /* \"#utility.yul\":3074:3153   */\n      tag_333\n      tag_254\n      jump\t// in\n    tag_333:\n        /* \"#utility.yul\":3036:3155   */\n    tag_332:\n        /* \"#utility.yul\":3194:3195   */\n      0x00\n        /* \"#utility.yul\":3219:3295   */\n      tag_334\n        /* \"#utility.yul\":3287:3294   */\n      dup5\n        /* \"#utility.yul\":3278:3284   */\n      dup3\n        /* \"#utility.yul\":3267:3276   */\n      dup6\n        /* \"#utility.yul\":3263:3285   */\n      add\n        /* \"#utility.yul\":3219:3295   */\n      tag_266\n      jump\t// in\n    tag_334:\n        /* \"#utility.yul\":3209:3295   */\n      swap2\n      pop\n        /* \"#utility.yul\":3165:3305   */\n      pop\n        /* \"#utility.yul\":2937:3312   */\n      swap3\n      swap2\n      pop\n      pop\n      jump\t// out\n        /* \"#utility.yul\":3318:3417   */\n    tag_267:\n        /* \"#utility.yul\":3370:3376   */\n      0x00\n        /* \"#utility.yul\":3404:3409   */\n      dup2\n        /* \"#utility.yul\":3398:3410   */\n      mload\n        /* \"#utility.yul\":3388:3410   */\n      swap1\n      pop\n        /* \"#utility.yul\":3318:3417   */\n      swap2\n      swap1\n      pop\n      jump\t// out\n        /* \"#utility.yul\":3423:3592   */\n    tag_268:\n        /* \"#utility.yul\":3507:3518   */\n      0x00\n        /* \"#utility.yul\":3541:3547   */\n      dup3\n        /* \"#utility.yul\":3536:3539   */\n      dup3\n        /* \"#utility.yul\":3529:3548   */\n      mstore\n        /* \"#utility.yul\":3581:3585   */\n      0x20\n        /* \"#utility.yul\":3576:3579   */\n      dup3\n        /* \"#utility.yul\":3572:3586   */\n      add\n        /* \"#utility.yul\":3557:3586   */\n      swap1\n      pop\n        /* \"#utility.yul\":3423:3592   */\n      swap3\n      swap2\n      pop\n      pop\n      jump\t// out\n        /* \"#utility.yul\":3598:3844   */\n    tag_269:\n        /* \"#utility.yul\":3679:3680   */\n      0x00\n        /* \"#utility.yul\":3689:3802   */\n    tag_338:\n        /* \"#utility.yul\":3703:3709   */\n      dup4\n        /* \"#utility.yul\":3700:3701   */\n      dup2\n        /* \"#utility.yul\":3697:3710   */\n      lt\n        /* \"#utility.yul\":3689:3802   */\n      iszero\n      tag_340\n      jumpi\n        /* \"#utility.yul\":3788:3789   */\n      dup1\n        /* \"#utility.yul\":3783:3786   */\n      dup3\n        /* \"#utility.yul\":3779:3790   */\n      add\n        /* \"#utility.yul\":3773:3791   */\n      mload\n        /* \"#utility.yul\":3769:3770   */\n      dup2\n        /* \"#utility.yul\":3764:3767   */\n      dup5\n        /* \"#utility.yul\":3760:3771   */\n      add\n        /* \"#utility.yul\":3753:3792   */\n      mstore\n        /* \"#utility.yul\":3725:3727   */\n      0x20\n        /* \"#utility.yul\":3722:3723   */\n      dup2\n        /* \"#utility.yul\":3718:3728   */\n      add\n        /* \"#utility.yul\":3713:3728   */\n      swap1\n      pop\n        /* \"#utility.yul\":3689:3802   */\n      jump(tag_338)\n    tag_340:\n        /* \"#utility.yul\":3836:3837   */\n      0x00\n        /* \"#utility.yul\":3827:3833   */\n      dup5\n        /* \"#utility.yul\":3822:3825   */\n      dup5\n        /* \"#utility.yul\":3818:3834   */\n      add\n        /* \"#utility.yul\":3811:3838   */\n      mstore\n        /* \"#utility.yul\":3660:3844   */\n      pop\n        /* \"#utility.yul\":3598:3844   */\n      pop\n      pop\n      pop\n      jump\t// out\n        /* \"#utility.yul\":3850:4227   */\n    tag_270:\n        /* \"#utility.yul\":3938:3941   */\n      0x00\n        /* \"#utility.yul\":3966:4005   */\n      tag_342\n        /* \"#utility.yul\":3999:4004   */\n      dup3\n        /* \"#utility.yul\":3966:4005   */\n      tag_267\n      jump\t// in\n    tag_342:\n        /* \"#utility.yul\":4021:4092   */\n      tag_343\n        /* \"#utility.yul\":4085:4091   */\n      dup2\n        /* \"#utility.yul\":4080:4083   */\n      dup6\n        /* \"#utility.yul\":4021:4092   */\n      tag_268\n      jump\t// in\n    tag_343:\n        /* \"#utility.yul\":4014:4092   */\n      swap4\n      pop\n        /* \"#utility.yul\":4101:4166   */\n      tag_344\n        /* \"#utility.yul\":4159:4165   */\n      dup2\n        /* \"#utility.yul\":4154:4157   */\n      dup6\n        /* \"#utility.yul\":4147:4151   */\n      0x20\n        /* \"#utility.yul\":4140:4145   */\n      dup7\n        /* \"#utility.yul\":4136:4152   */\n      add\n        /* \"#utility.yul\":4101:4166   */\n      tag_269\n      jump\t// in\n    tag_344:\n        /* \"#utility.yul\":4191:4220   */\n      tag_345\n        /* \"#utility.yul\":4213:4219   */\n      dup2\n        /* \"#utility.yul\":4191:4220   */\n      tag_257\n      jump\t// in\n    tag_345:\n        /* \"#utility.yul\":4186:4189   */\n      dup5\n        /* \"#utility.yul\":4182:4221   */\n      add\n        /* \"#utility.yul\":4175:4221   */\n      swap2\n      pop\n        /* \"#utility.yul\":3942:4227   */\n      pop\n        /* \"#utility.yul\":3850:4227   */\n      swap3\n      swap2\n      pop\n      pop\n      jump\t// out\n        /* \"#utility.yul\":4233:4337   */\n    tag_271:\n        /* \"#utility.yul\":4298:4304   */\n      0x00\n        /* \"#utility.yul\":4326:4330   */\n      0x02\n        /* \"#utility.yul\":4316:4330   */\n      swap1\n      pop\n        /* \"#utility.yul\":4233:4337   */\n      swap2\n      swap1\n      pop\n      jump\t// out\n        /* \"#utility.yul\":4343:4486   */\n    tag_272:\n        /* \"#utility.yul\":4440:4451   */\n      0x00\n        /* \"#utility.yul\":4477:4480   */\n      dup2\n        /* \"#utility.yul\":4462:4480   */\n      swap1\n      pop\n        /* \"#utility.yul\":4343:4486   */\n      swap3\n      swap2\n      pop\n      pop\n      jump\t// out\n        /* \"#utility.yul\":4492:4590   */\n    tag_273:\n        /* \"#utility.yul\":4557:4561   */\n      0x00\n        /* \"#utility.yul\":4580:4583   */\n      dup2\n        /* \"#utility.yul\":4572:4583   */\n      swap1\n      pop\n        /* \"#utility.yul\":4492:4590   */\n      swap2\n      swap1\n      pop\n      jump\t// out\n        /* \"#utility.yul\":4596:4704   */\n    tag_274:\n        /* \"#utility.yul\":4673:4697   */\n      tag_350\n        /* \"#utility.yul\":4691:4696   */\n      dup2\n        /* \"#utility.yul\":4673:4697   */\n      tag_262\n      jump\t// in\n    tag_350:\n        /* \"#utility.yul\":4668:4671   */\n      dup3\n        /* \"#utility.yul\":4661:4698   */\n      mstore\n        /* \"#utility.yul\":4596:4704   */\n      pop\n      pop\n      jump\t// out\n        /* \"#utility.yul\":4710:4889   */\n    tag_275:\n        /* \"#utility.yul\":4779:4789   */\n      0x00\n        /* \"#utility.yul\":4800:4846   */\n      tag_352\n        /* \"#utility.yul\":4842:4845   */\n      dup4\n        /* \"#utility.yul\":4834:4840   */\n      dup4\n        /* \"#utility.yul\":4800:4846   */\n      tag_274\n      jump\t// in\n    tag_352:\n        /* \"#utility.yul\":4878:4882   */\n      0x20\n        /* \"#utility.yul\":4873:4876   */\n      dup4\n        /* \"#utility.yul\":4869:4883   */\n      add\n        /* \"#utility.yul\":4855:4883   */\n      swap1\n      pop\n        /* \"#utility.yul\":4710:4889   */\n      swap3\n      swap2\n      pop\n      pop\n      jump\t// out\n        /* \"#utility.yul\":4895:5006   */\n    tag_276:\n        /* \"#utility.yul\":4963:4967   */\n      0x00\n        /* \"#utility.yul\":4995:4999   */\n      0x20\n        /* \"#utility.yul\":4990:4993   */\n      dup3\n        /* \"#utility.yul\":4986:5000   */\n      add\n        /* \"#utility.yul\":4978:5000   */\n      swap1\n      pop\n        /* \"#utility.yul\":4895:5006   */\n      swap2\n      swap1\n      pop\n      jump\t// out\n        /* \"#utility.yul\":5044:5738   */\n    tag_277:\n        /* \"#utility.yul\":5180:5232   */\n      tag_355\n        /* \"#utility.yul\":5226:5231   */\n      dup2\n        /* \"#utility.yul\":5180:5232   */\n      tag_271\n      jump\t// in\n    tag_355:\n        /* \"#utility.yul\":5248:5332   */\n      tag_356\n        /* \"#utility.yul\":5325:5331   */\n      dup2\n        /* \"#utility.yul\":5320:5323   */\n      dup5\n        /* \"#utility.yul\":5248:5332   */\n      tag_272\n      jump\t// in\n    tag_356:\n        /* \"#utility.yul\":5241:5332   */\n      swap3\n      pop\n        /* \"#utility.yul\":5356:5410   */\n      tag_357\n        /* \"#utility.yul\":5404:5409   */\n      dup3\n        /* \"#utility.yul\":5356:5410   */\n      tag_273\n      jump\t// in\n    tag_357:\n        /* \"#utility.yul\":5433:5440   */\n      dup1\n        /* \"#utility.yul\":5464:5465   */\n      0x00\n        /* \"#utility.yul\":5449:5731   */\n    tag_358:\n        /* \"#utility.yul\":5474:5480   */\n      dup4\n        /* \"#utility.yul\":5471:5472   */\n      dup2\n        /* \"#utility.yul\":5468:5481   */\n      lt\n        /* \"#utility.yul\":5449:5731   */\n      iszero\n      tag_360\n      jumpi\n        /* \"#utility.yul\":5550:5556   */\n      dup2\n        /* \"#utility.yul\":5544:5557   */\n      mload\n        /* \"#utility.yul\":5577:5640   */\n      tag_361\n        /* \"#utility.yul\":5636:5639   */\n      dup8\n        /* \"#utility.yul\":5621:5634   */\n      dup3\n        /* \"#utility.yul\":5577:5640   */\n      tag_275\n      jump\t// in\n    tag_361:\n        /* \"#utility.yul\":5570:5640   */\n      swap7\n      pop\n        /* \"#utility.yul\":5663:5721   */\n      tag_362\n        /* \"#utility.yul\":5714:5720   */\n      dup4\n        /* \"#utility.yul\":5663:5721   */\n      tag_276\n      jump\t// in\n    tag_362:\n        /* \"#utility.yul\":5653:5721   */\n      swap3\n      pop\n        /* \"#utility.yul\":5509:5731   */\n      pop\n        /* \"#utility.yul\":5496:5497   */\n      0x01\n        /* \"#utility.yul\":5493:5494   */\n      dup2\n        /* \"#utility.yul\":5489:5498   */\n      add\n        /* \"#utility.yul\":5484:5498   */\n      swap1\n      pop\n        /* \"#utility.yul\":5449:5731   */\n      jump(tag_358)\n    tag_360:\n        /* \"#utility.yul\":5453:5467   */\n      pop\n        /* \"#utility.yul\":5156:5738   */\n      pop\n      pop\n      pop\n        /* \"#utility.yul\":5044:5738   */\n      pop\n      pop\n      jump\t// out\n        /* \"#utility.yul\":5744:6259   */\n    tag_27:\n        /* \"#utility.yul\":5931:5935   */\n      0x00\n        /* \"#utility.yul\":5969:5971   */\n      0x60\n        /* \"#utility.yul\":5958:5967   */\n      dup3\n        /* \"#utility.yul\":5954:5972   */\n      add\n        /* \"#utility.yul\":5946:5972   */\n      swap1\n      pop\n        /* \"#utility.yul\":6018:6027   */\n      dup2\n        /* \"#utility.yul\":6012:6016   */\n      dup2\n        /* \"#utility.yul\":6008:6028   */\n      sub\n        /* \"#utility.yul\":6004:6005   */\n      0x00\n        /* \"#utility.yul\":5993:6002   */\n      dup4\n        /* \"#utility.yul\":5989:6006   */\n      add\n        /* \"#utility.yul\":5982:6029   */\n      mstore\n        /* \"#utility.yul\":6046:6124   */\n      tag_364\n        /* \"#utility.yul\":6119:6123   */\n      dup2\n        /* \"#utility.yul\":6110:6116   */\n      dup6\n        /* \"#utility.yul\":6046:6124   */\n      tag_270\n      jump\t// in\n    tag_364:\n        /* \"#utility.yul\":6038:6124   */\n      swap1\n      pop\n        /* \"#utility.yul\":6134:6252   */\n      tag_365\n        /* \"#utility.yul\":6248:6250   */\n      0x20\n        /* \"#utility.yul\":6237:6246   */\n      dup4\n        /* \"#utility.yul\":6233:6251   */\n      add\n        /* \"#utility.yul\":6224:6230   */\n      dup5\n        /* \"#utility.yul\":6134:6252   */\n      tag_277\n      jump\t// in\n    tag_365:\n        /* \"#utility.yul\":5744:6259   */\n      swap4\n      swap3\n      pop\n      pop\n      pop\n      jump\t// out\n        /* \"#utility.yul\":6265:6785   */\n    tag_38:\n        /* \"#utility.yul\":6356:6362   */\n      0x00\n        /* \"#utility.yul\":6364:6370   */\n      dup1\n        /* \"#utility.yul\":6413:6415   */\n      0x60\n        /* \"#utility.yul\":6401:6410   */\n      dup4\n        /* \"#utility.yul\":6392:6399   */\n      dup6\n        /* \"#utility.yul\":6388:6411   */\n      sub\n        /* \"#utility.yul\":6384:6416   */\n      slt\n        /* \"#utility.yul\":6381:6500   */\n      iszero\n      tag_367\n      jumpi\n        /* \"#utility.yul\":6419:6498   */\n      tag_368\n      tag_254\n      jump\t// in\n    tag_368:\n        /* \"#utility.yul\":6381:6500   */\n    tag_367:\n        /* \"#utility.yul\":6539:6540   */\n      0x00\n        /* \"#utility.yul\":6564:6617   */\n      tag_369\n        /* \"#utility.yul\":6609:6616   */\n      dup6\n        /* \"#utility.yul\":6600:6606   */\n      dup3\n        /* \"#utility.yul\":6589:6598   */\n      dup7\n        /* \"#utility.yul\":6585:6607   */\n      add\n        /* \"#utility.yul\":6564:6617   */\n      tag_264\n      jump\t// in\n    tag_369:\n        /* \"#utility.yul\":6554:6617   */\n      swap3\n      pop\n        /* \"#utility.yul\":6510:6627   */\n      pop\n        /* \"#utility.yul\":6666:6668   */\n      0x20\n        /* \"#utility.yul\":6692:6768   */\n      tag_370\n        /* \"#utility.yul\":6760:6767   */\n      dup6\n        /* \"#utility.yul\":6751:6757   */\n      dup3\n        /* \"#utility.yul\":6740:6749   */\n      dup7\n        /* \"#utility.yul\":6736:6758   */\n      add\n        /* \"#utility.yul\":6692:6768   */\n      tag_266\n      jump\t// in\n    tag_370:\n        /* \"#utility.yul\":6682:6768   */\n      swap2\n      pop\n        /* \"#utility.yul\":6637:6778   */\n      pop\n        /* \"#utility.yul\":6265:6785   */\n      swap3\n      pop\n      swap3\n      swap1\n      pop\n      jump\t// out\n        /* \"#utility.yul\":6791:6909   */\n    tag_278:\n        /* \"#utility.yul\":6878:6902   */\n      tag_372\n        /* \"#utility.yul\":6896:6901   */\n      dup2\n        /* \"#utility.yul\":6878:6902   */\n      tag_262\n      jump\t// in\n    tag_372:\n        /* \"#utility.yul\":6873:6876   */\n      dup3\n        /* \"#utility.yul\":6866:6903   */\n      mstore\n        /* \"#utility.yul\":6791:6909   */\n      pop\n      pop\n      jump\t// out\n        /* \"#utility.yul\":6915:7137   */\n    tag_41:\n        /* \"#utility.yul\":7008:7012   */\n      0x00\n        /* \"#utility.yul\":7046:7048   */\n      0x20\n        /* \"#utility.yul\":7035:7044   */\n      dup3\n        /* \"#utility.yul\":7031:7049   */\n      add\n        /* \"#utility.yul\":7023:7049   */\n      swap1\n      pop\n        /* \"#utility.yul\":7059:7130   */\n      tag_374\n        /* \"#utility.yul\":7127:7128   */\n      0x00\n        /* \"#utility.yul\":7116:7125   */\n      dup4\n        /* \"#utility.yul\":7112:7129   */\n      add\n        /* \"#utility.yul\":7103:7109   */\n      dup5\n        /* \"#utility.yul\":7059:7130   */\n      tag_278\n      jump\t// in\n    tag_374:\n        /* \"#utility.yul\":6915:7137   */\n      swap3\n      swap2\n      pop\n      pop\n      jump\t// out\n        /* \"#utility.yul\":7143:7292   */\n    tag_279:\n        /* \"#utility.yul\":7179:7186   */\n      0x00\n        /* \"#utility.yul\":7219:7285   */\n      0xffffffff00000000000000000000000000000000000000000000000000000000\n        /* \"#utility.yul\":7212:7217   */\n      dup3\n        /* \"#utility.yul\":7208:7286   */\n      and\n        /* \"#utility.yul\":7197:7286   */\n      swap1\n      pop\n        /* \"#utility.yul\":7143:7292   */\n      swap2\n      swap1\n      pop\n      jump\t// out\n        /* \"#utility.yul\":7298:7418   */\n    tag_280:\n        /* \"#utility.yul\":7370:7393   */\n      tag_377\n        /* \"#utility.yul\":7387:7392   */\n      dup2\n        /* \"#utility.yul\":7370:7393   */\n      tag_279\n      jump\t// in\n    tag_377:\n        /* \"#utility.yul\":7363:7368   */\n      dup2\n        /* \"#utility.yul\":7360:7394   */\n      eq\n        /* \"#utility.yul\":7350:7412   */\n      tag_378\n      jumpi\n        /* \"#utility.yul\":7408:7409   */\n      0x00\n        /* \"#utility.yul\":7405:7406   */\n      dup1\n        /* \"#utility.yul\":7398:7410   */\n      revert\n        /* \"#utility.yul\":7350:7412   */\n    tag_378:\n        /* \"#utility.yul\":7298:7418   */\n      pop\n      jump\t// out\n        /* \"#utility.yul\":7424:7561   */\n    tag_281:\n        /* \"#utility.yul\":7469:7474   */\n      0x00\n        /* \"#utility.yul\":7507:7513   */\n      dup2\n        /* \"#utility.yul\":7494:7514   */\n      calldataload\n        /* \"#utility.yul\":7485:7514   */\n      swap1\n      pop\n        /* \"#utility.yul\":7523:7555   */\n      tag_380\n        /* \"#utility.yul\":7549:7554   */\n      dup2\n        /* \"#utility.yul\":7523:7555   */\n      tag_280\n      jump\t// in\n    tag_380:\n        /* \"#utility.yul\":7424:7561   */\n      swap3\n      swap2\n      pop\n      pop\n      jump\t// out\n        /* \"#utility.yul\":7567:8085   */\n    tag_44:\n        /* \"#utility.yul\":7657:7663   */\n      0x00\n        /* \"#utility.yul\":7665:7671   */\n      dup1\n        /* \"#utility.yul\":7714:7716   */\n      0x60\n        /* \"#utility.yul\":7702:7711   */\n      dup4\n        /* \"#utility.yul\":7693:7700   */\n      dup6\n        /* \"#utility.yul\":7689:7712   */\n      sub\n        /* \"#utility.yul\":7685:7717   */\n      slt\n        /* \"#utility.yul\":7682:7801   */\n      iszero\n      tag_382\n      jumpi\n        /* \"#utility.yul\":7720:7799   */\n      tag_383\n      tag_254\n      jump\t// in\n    tag_383:\n        /* \"#utility.yul\":7682:7801   */\n    tag_382:\n        /* \"#utility.yul\":7840:7841   */\n      0x00\n        /* \"#utility.yul\":7865:7917   */\n      tag_384\n        /* \"#utility.yul\":7909:7916   */\n      dup6\n        /* \"#utility.yul\":7900:7906   */\n      dup3\n        /* \"#utility.yul\":7889:7898   */\n      dup7\n        /* \"#utility.yul\":7885:7907   */\n      add\n        /* \"#utility.yul\":7865:7917   */\n      tag_281\n      jump\t// in\n    tag_384:\n        /* \"#utility.yul\":7855:7917   */\n      swap3\n      pop\n        /* \"#utility.yul\":7811:7927   */\n      pop\n        /* \"#utility.yul\":7966:7968   */\n      0x20\n        /* \"#utility.yul\":7992:8068   */\n      tag_385\n        /* \"#utility.yul\":8060:8067   */\n      dup6\n        /* \"#utility.yul\":8051:8057   */\n      dup3\n        /* \"#utility.yul\":8040:8049   */\n      dup7\n        /* \"#utility.yul\":8036:8058   */\n      add\n        /* \"#utility.yul\":7992:8068   */\n      tag_266\n      jump\t// in\n    tag_385:\n        /* \"#utility.yul\":7982:8068   */\n      swap2\n      pop\n        /* \"#utility.yul\":7937:8078   */\n      pop\n        /* \"#utility.yul\":7567:8085   */\n      swap3\n      pop\n      swap3\n      swap1\n      pop\n      jump\t// out\n        /* \"#utility.yul\":8091:8271   */\n    tag_124:\n        /* \"#utility.yul\":8139:8216   */\n      0x4e487b7100000000000000000000000000000000000000000000000000000000\n        /* \"#utility.yul\":8136:8137   */\n      0x00\n        /* \"#utility.yul\":8129:8217   */\n      mstore\n        /* \"#utility.yul\":8236:8240   */\n      0x32\n        /* \"#utility.yul\":8233:8234   */\n      0x04\n        /* \"#utility.yul\":8226:8241   */\n      mstore\n        /* \"#utility.yul\":8260:8264   */\n      0x24\n        /* \"#utility.yul\":8257:8258   */\n      0x00\n        /* \"#utility.yul\":8250:8265   */\n      revert\n        /* \"#utility.yul\":8277:8457   */\n    tag_282:\n        /* \"#utility.yul\":8325:8402   */\n      0x4e487b7100000000000000000000000000000000000000000000000000000000\n        /* \"#utility.yul\":8322:8323   */\n      0x00\n        /* \"#utility.yul\":8315:8403   */\n      mstore\n        /* \"#utility.yul\":8422:8426   */\n      0x11\n        /* \"#utility.yul\":8419:8420   */\n      0x04\n        /* \"#utility.yul\":8412:8427   */\n      mstore\n        /* \"#utility.yul\":8446:8450   */\n      0x24\n        /* \"#utility.yul\":8443:8444   */\n      0x00\n        /* \"#utility.yul\":8436:8451   */\n      revert\n        /* \"#utility.yul\":8463:8873   */\n    tag_128:\n        /* \"#utility.yul\":8503:8510   */\n      0x00\n        /* \"#utility.yul\":8526:8546   */\n      tag_389\n        /* \"#utility.yul\":8544:8545   */\n      dup3\n        /* \"#utility.yul\":8526:8546   */\n      tag_262\n      jump\t// in\n    tag_389:\n        /* \"#utility.yul\":8521:8546   */\n      swap2\n      pop\n        /* \"#utility.yul\":8560:8580   */\n      tag_390\n        /* \"#utility.yul\":8578:8579   */\n      dup4\n        /* \"#utility.yul\":8560:8580   */\n      tag_262\n      jump\t// in\n    tag_390:\n        /* \"#utility.yul\":8555:8580   */\n      swap3\n      pop\n        /* \"#utility.yul\":8615:8616   */\n      dup3\n        /* \"#utility.yul\":8612:8613   */\n      dup3\n        /* \"#utility.yul\":8608:8617   */\n      mul\n        /* \"#utility.yul\":8637:8667   */\n      tag_391\n        /* \"#utility.yul\":8655:8666   */\n      dup2\n        /* \"#utility.yul\":8637:8667   */\n      tag_262\n      jump\t// in\n    tag_391:\n        /* \"#utility.yul\":8626:8667   */\n      swap2\n      pop\n        /* \"#utility.yul\":8816:8817   */\n      dup3\n        /* \"#utility.yul\":8807:8814   */\n      dup3\n        /* \"#utility.yul\":8803:8818   */\n      div\n        /* \"#utility.yul\":8800:8801   */\n      dup5\n        /* \"#utility.yul\":8797:8819   */\n      eq\n        /* \"#utility.yul\":8777:8778   */\n      dup4\n        /* \"#utility.yul\":8770:8779   */\n      iszero\n        /* \"#utility.yul\":8750:8833   */\n      or\n        /* \"#utility.yul\":8727:8866   */\n      tag_392\n      jumpi\n        /* \"#utility.yul\":8846:8864   */\n      tag_393\n      tag_282\n      jump\t// in\n    tag_393:\n        /* \"#utility.yul\":8727:8866   */\n    tag_392:\n        /* \"#utility.yul\":8511:8873   */\n      pop\n        /* \"#utility.yul\":8463:8873   */\n      swap3\n      swap2\n      pop\n      pop\n      jump\t// out\n        /* \"#utility.yul\":8879:9070   */\n    tag_130:\n        /* \"#utility.yul\":8919:8922   */\n      0x00\n        /* \"#utility.yul\":8938:8958   */\n      tag_395\n        /* \"#utility.yul\":8956:8957   */\n      dup3\n        /* \"#utility.yul\":8938:8958   */\n      tag_262\n      jump\t// in\n    tag_395:\n        /* \"#utility.yul\":8933:8958   */\n      swap2\n      pop\n        /* \"#utility.yul\":8972:8992   */\n      tag_396\n        /* \"#utility.yul\":8990:8991   */\n      dup4\n        /* \"#utility.yul\":8972:8992   */\n      tag_262\n      jump\t// in\n    tag_396:\n        /* \"#utility.yul\":8967:8992   */\n      swap3\n      pop\n        /* \"#utility.yul\":9015:9016   */\n      dup3\n        /* \"#utility.yul\":9012:9013   */\n      dup3\n        /* \"#utility.yul\":9008:9017   */\n      add\n        /* \"#utility.yul\":9001:9017   */\n      swap1\n      pop\n        /* \"#utility.yul\":9036:9039   */\n      dup1\n        /* \"#utility.yul\":9033:9034   */\n      dup3\n        /* \"#utility.yul\":9030:9040   */\n      gt\n        /* \"#utility.yul\":9027:9063   */\n      iszero\n      tag_397\n      jumpi\n        /* \"#utility.yul\":9043:9061   */\n      tag_398\n      tag_282\n      jump\t// in\n    tag_398:\n        /* \"#utility.yul\":9027:9063   */\n    tag_397:\n        /* \"#utility.yul\":8879:9070   */\n      swap3\n      swap2\n      pop\n      pop\n      jump\t// out\n        /* \"#utility.yul\":9076:9390   */\n    tag_140:\n        /* \"#utility.yul\":9215:9219   */\n      0x00\n        /* \"#utility.yul\":9253:9255   */\n      0x40\n        /* \"#utility.yul\":9242:9251   */\n      dup3\n        /* \"#utility.yul\":9238:9256   */\n      add\n        /* \"#utility.yul\":9230:9256   */\n      swap1\n      pop\n        /* \"#utility.yul\":9266:9383   */\n      tag_400\n        /* \"#utility.yul\":9380:9381   */\n      0x00\n        /* \"#utility.yul\":9369:9378   */\n      dup4\n        /* \"#utility.yul\":9365:9382   */\n      add\n        /* \"#utility.yul\":9356:9362   */\n      dup5\n        /* \"#utility.yul\":9266:9383   */\n      tag_277\n      jump\t// in\n    tag_400:\n        /* \"#utility.yul\":9076:9390   */\n      swap3\n      swap2\n      pop\n      pop\n      jump\t// out\n        /* \"#utility.yul\":9396:9494   */\n    tag_283:\n        /* \"#utility.yul\":9447:9453   */\n      0x00\n        /* \"#utility.yul\":9481:9486   */\n      dup2\n        /* \"#utility.yul\":9475:9487   */\n      mload\n        /* \"#utility.yul\":9465:9487   */\n      swap1\n      pop\n        /* \"#utility.yul\":9396:9494   */\n      swap2\n      swap1\n      pop\n      jump\t// out\n        /* \"#utility.yul\":9500:9647   */\n    tag_284:\n        /* \"#utility.yul\":9601:9612   */\n      0x00\n        /* \"#utility.yul\":9638:9641   */\n      dup2\n        /* \"#utility.yul\":9623:9641   */\n      swap1\n      pop\n        /* \"#utility.yul\":9500:9647   */\n      swap3\n      swap2\n      pop\n      pop\n      jump\t// out\n        /* \"#utility.yul\":9653:10039   */\n    tag_285:\n        /* \"#utility.yul\":9757:9760   */\n      0x00\n        /* \"#utility.yul\":9785:9823   */\n      tag_404\n        /* \"#utility.yul\":9817:9822   */\n      dup3\n        /* \"#utility.yul\":9785:9823   */\n      tag_283\n      jump\t// in\n    tag_404:\n        /* \"#utility.yul\":9839:9927   */\n      tag_405\n        /* \"#utility.yul\":9920:9926   */\n      dup2\n        /* \"#utility.yul\":9915:9918   */\n      dup6\n        /* \"#utility.yul\":9839:9927   */\n      tag_284\n      jump\t// in\n    tag_405:\n        /* \"#utility.yul\":9832:9927   */\n      swap4\n      pop\n        /* \"#utility.yul\":9936:10001   */\n      tag_406\n        /* \"#utility.yul\":9994:10000   */\n      dup2\n        /* \"#utility.yul\":9989:9992   */\n      dup6\n        /* \"#utility.yul\":9982:9986   */\n      0x20\n        /* \"#utility.yul\":9975:9980   */\n      dup7\n        /* \"#utility.yul\":9971:9987   */\n      add\n        /* \"#utility.yul\":9936:10001   */\n      tag_269\n      jump\t// in\n    tag_406:\n        /* \"#utility.yul\":10026:10032   */\n      dup1\n        /* \"#utility.yul\":10021:10024   */\n      dup5\n        /* \"#utility.yul\":10017:10033   */\n      add\n        /* \"#utility.yul\":10010:10033   */\n      swap2\n      pop\n        /* \"#utility.yul\":9761:10039   */\n      pop\n        /* \"#utility.yul\":9653:10039   */\n      swap3\n      swap2\n      pop\n      pop\n      jump\t// out\n        /* \"#utility.yul\":10045:10316   */\n    tag_142:\n        /* \"#utility.yul\":10175:10178   */\n      0x00\n        /* \"#utility.yul\":10197:10290   */\n      tag_408\n        /* \"#utility.yul\":10286:10289   */\n      dup3\n        /* \"#utility.yul\":10277:10283   */\n      dup5\n        /* \"#utility.yul\":10197:10290   */\n      tag_285\n      jump\t// in\n    tag_408:\n        /* \"#utility.yul\":10190:10290   */\n      swap2\n      pop\n        /* \"#utility.yul\":10307:10310   */\n      dup2\n        /* \"#utility.yul\":10300:10310   */\n      swap1\n      pop\n        /* \"#utility.yul\":10045:10316   */\n      swap3\n      swap2\n      pop\n      pop\n      jump\t// out\n        /* \"#utility.yul\":10322:10502   */\n    tag_148:\n        /* \"#utility.yul\":10370:10447   */\n      0x4e487b7100000000000000000000000000000000000000000000000000000000\n        /* \"#utility.yul\":10367:10368   */\n      0x00\n        /* \"#utility.yul\":10360:10448   */\n      mstore\n        /* \"#utility.yul\":10467:10471   */\n      0x01\n        /* \"#utility.yul\":10464:10465   */\n      0x04\n        /* \"#utility.yul\":10457:10472   */\n      mstore\n        /* \"#utility.yul\":10491:10495   */\n      0x24\n        /* \"#utility.yul\":10488:10489   */\n      0x00\n        /* \"#utility.yul\":10481:10496   */\n      revert\n        /* \"#utility.yul\":10508:10625   */\n    tag_286:\n        /* \"#utility.yul\":10617:10618   */\n      0x00\n        /* \"#utility.yul\":10614:10615   */\n      dup1\n        /* \"#utility.yul\":10607:10619   */\n      revert\n        /* \"#utility.yul\":10631:10939   */\n    tag_287:\n        /* \"#utility.yul\":10693:10697   */\n      0x00\n        /* \"#utility.yul\":10783:10801   */\n      0xffffffffffffffff\n        /* \"#utility.yul\":10775:10781   */\n      dup3\n        /* \"#utility.yul\":10772:10802   */\n      gt\n        /* \"#utility.yul\":10769:10825   */\n      iszero\n      tag_412\n      jumpi\n        /* \"#utility.yul\":10805:10823   */\n      tag_413\n      tag_225\n      jump\t// in\n    tag_413:\n        /* \"#utility.yul\":10769:10825   */\n    tag_412:\n        /* \"#utility.yul\":10843:10872   */\n      tag_414\n        /* \"#utility.yul\":10865:10871   */\n      dup3\n        /* \"#utility.yul\":10843:10872   */\n      tag_257\n      jump\t// in\n    tag_414:\n        /* \"#utility.yul\":10835:10872   */\n      swap1\n      pop\n        /* \"#utility.yul\":10927:10931   */\n      0x20\n        /* \"#utility.yul\":10921:10925   */\n      dup2\n        /* \"#utility.yul\":10917:10932   */\n      add\n        /* \"#utility.yul\":10909:10932   */\n      swap1\n      pop\n        /* \"#utility.yul\":10631:10939   */\n      swap2\n      swap1\n      pop\n      jump\t// out\n        /* \"#utility.yul\":10945:11379   */\n    tag_288:\n        /* \"#utility.yul\":11034:11039   */\n      0x00\n        /* \"#utility.yul\":11059:11125   */\n      tag_416\n        /* \"#utility.yul\":11075:11124   */\n      tag_417\n        /* \"#utility.yul\":11117:11123   */\n      dup5\n        /* \"#utility.yul\":11075:11124   */\n      tag_287\n      jump\t// in\n    tag_417:\n        /* \"#utility.yul\":11059:11125   */\n      tag_259\n      jump\t// in\n    tag_416:\n        /* \"#utility.yul\":11050:11125   */\n      swap1\n      pop\n        /* \"#utility.yul\":11148:11154   */\n      dup3\n        /* \"#utility.yul\":11141:11146   */\n      dup2\n        /* \"#utility.yul\":11134:11155   */\n      mstore\n        /* \"#utility.yul\":11186:11190   */\n      0x20\n        /* \"#utility.yul\":11179:11184   */\n      dup2\n        /* \"#utility.yul\":11175:11191   */\n      add\n        /* \"#utility.yul\":11224:11227   */\n      dup5\n        /* \"#utility.yul\":11215:11221   */\n      dup5\n        /* \"#utility.yul\":11210:11213   */\n      dup5\n        /* \"#utility.yul\":11206:11222   */\n      add\n        /* \"#utility.yul\":11203:11228   */\n      gt\n        /* \"#utility.yul\":11200:11312   */\n      iszero\n      tag_418\n      jumpi\n        /* \"#utility.yul\":11231:11310   */\n      tag_419\n      tag_286\n      jump\t// in\n    tag_419:\n        /* \"#utility.yul\":11200:11312   */\n    tag_418:\n        /* \"#utility.yul\":11321:11373   */\n      tag_420\n        /* \"#utility.yul\":11366:11372   */\n      dup5\n        /* \"#utility.yul\":11361:11364   */\n      dup3\n        /* \"#utility.yul\":11356:11359   */\n      dup6\n        /* \"#utility.yul\":11321:11373   */\n      tag_269\n      jump\t// in\n    tag_420:\n        /* \"#utility.yul\":11040:11379   */\n      pop\n        /* \"#utility.yul\":10945:11379   */\n      swap4\n      swap3\n      pop\n      pop\n      pop\n      jump\t// out\n        /* \"#utility.yul\":11399:11754   */\n    tag_289:\n        /* \"#utility.yul\":11466:11471   */\n      0x00\n        /* \"#utility.yul\":11515:11518   */\n      dup3\n        /* \"#utility.yul\":11508:11512   */\n      0x1f\n        /* \"#utility.yul\":11500:11506   */\n      dup4\n        /* \"#utility.yul\":11496:11513   */\n      add\n        /* \"#utility.yul\":11492:11519   */\n      slt\n        /* \"#utility.yul\":11482:11604   */\n      tag_422\n      jumpi\n        /* \"#utility.yul\":11523:11602   */\n      tag_423\n      tag_256\n      jump\t// in\n    tag_423:\n        /* \"#utility.yul\":11482:11604   */\n    tag_422:\n        /* \"#utility.yul\":11633:11639   */\n      dup2\n        /* \"#utility.yul\":11627:11640   */\n      mload\n        /* \"#utility.yul\":11658:11748   */\n      tag_424\n        /* \"#utility.yul\":11744:11747   */\n      dup5\n        /* \"#utility.yul\":11736:11742   */\n      dup3\n        /* \"#utility.yul\":11729:11733   */\n      0x20\n        /* \"#utility.yul\":11721:11727   */\n      dup7\n        /* \"#utility.yul\":11717:11734   */\n      add\n        /* \"#utility.yul\":11658:11748   */\n      tag_288\n      jump\t// in\n    tag_424:\n        /* \"#utility.yul\":11649:11748   */\n      swap2\n      pop\n        /* \"#utility.yul\":11472:11754   */\n      pop\n        /* \"#utility.yul\":11399:11754   */\n      swap3\n      swap2\n      pop\n      pop\n      jump\t// out\n        /* \"#utility.yul\":11760:11903   */\n    tag_290:\n        /* \"#utility.yul\":11817:11822   */\n      0x00\n        /* \"#utility.yul\":11848:11854   */\n      dup2\n        /* \"#utility.yul\":11842:11855   */\n      mload\n        /* \"#utility.yul\":11833:11855   */\n      swap1\n      pop\n        /* \"#utility.yul\":11864:11897   */\n      tag_426\n        /* \"#utility.yul\":11891:11896   */\n      dup2\n        /* \"#utility.yul\":11864:11897   */\n      tag_263\n      jump\t// in\n    tag_426:\n        /* \"#utility.yul\":11760:11903   */\n      swap3\n      swap2\n      pop\n      pop\n      jump\t// out\n        /* \"#utility.yul\":11927:12592   */\n    tag_291:\n        /* \"#utility.yul\":12032:12037   */\n      0x00\n        /* \"#utility.yul\":12057:12136   */\n      tag_428\n        /* \"#utility.yul\":12073:12135   */\n      tag_429\n        /* \"#utility.yul\":12128:12134   */\n      dup5\n        /* \"#utility.yul\":12073:12135   */\n      tag_260\n      jump\t// in\n    tag_429:\n        /* \"#utility.yul\":12057:12136   */\n      tag_259\n      jump\t// in\n    tag_428:\n        /* \"#utility.yul\":12048:12136   */\n      swap1\n      pop\n        /* \"#utility.yul\":12156:12161   */\n      dup1\n        /* \"#utility.yul\":12209:12213   */\n      0x20\n        /* \"#utility.yul\":12201:12207   */\n      dup5\n        /* \"#utility.yul\":12197:12214   */\n      mul\n        /* \"#utility.yul\":12189:12195   */\n      dup4\n        /* \"#utility.yul\":12185:12215   */\n      add\n        /* \"#utility.yul\":12238:12241   */\n      dup6\n        /* \"#utility.yul\":12230:12236   */\n      dup2\n        /* \"#utility.yul\":12227:12242   */\n      gt\n        /* \"#utility.yul\":12224:12346   */\n      iszero\n      tag_430\n      jumpi\n        /* \"#utility.yul\":12257:12336   */\n      tag_431\n      tag_261\n      jump\t// in\n    tag_431:\n        /* \"#utility.yul\":12224:12346   */\n    tag_430:\n        /* \"#utility.yul\":12372:12378   */\n      dup4\n        /* \"#utility.yul\":12355:12586   */\n    tag_432:\n        /* \"#utility.yul\":12389:12395   */\n      dup2\n        /* \"#utility.yul\":12384:12387   */\n      dup2\n        /* \"#utility.yul\":12381:12396   */\n      lt\n        /* \"#utility.yul\":12355:12586   */\n      iszero\n      tag_434\n      jumpi\n        /* \"#utility.yul\":12464:12467   */\n      dup1\n        /* \"#utility.yul\":12493:12541   */\n      tag_435\n        /* \"#utility.yul\":12537:12540   */\n      dup9\n        /* \"#utility.yul\":12525:12535   */\n      dup3\n        /* \"#utility.yul\":12493:12541   */\n      tag_290\n      jump\t// in\n    tag_435:\n        /* \"#utility.yul\":12488:12491   */\n      dup5\n        /* \"#utility.yul\":12481:12542   */\n      mstore\n        /* \"#utility.yul\":12571:12575   */\n      0x20\n        /* \"#utility.yul\":12566:12569   */\n      dup5\n        /* \"#utility.yul\":12562:12576   */\n      add\n        /* \"#utility.yul\":12555:12576   */\n      swap4\n      pop\n        /* \"#utility.yul\":12431:12586   */\n      pop\n        /* \"#utility.yul\":12415:12419   */\n      0x20\n        /* \"#utility.yul\":12410:12413   */\n      dup2\n        /* \"#utility.yul\":12406:12420   */\n      add\n        /* \"#utility.yul\":12399:12420   */\n      swap1\n      pop\n        /* \"#utility.yul\":12355:12586   */\n      jump(tag_432)\n    tag_434:\n        /* \"#utility.yul\":12359:12380   */\n      pop\n        /* \"#utility.yul\":12038:12592   */\n      pop\n      pop\n        /* \"#utility.yul\":11927:12592   */\n      swap4\n      swap3\n      pop\n      pop\n      pop\n      jump\t// out\n        /* \"#utility.yul\":12616:12977   */\n    tag_292:\n        /* \"#utility.yul\":12696:12701   */\n      0x00\n        /* \"#utility.yul\":12745:12748   */\n      dup3\n        /* \"#utility.yul\":12738:12742   */\n      0x1f\n        /* \"#utility.yul\":12730:12736   */\n      dup4\n        /* \"#utility.yul\":12726:12743   */\n      add\n        /* \"#utility.yul\":12722:12749   */\n      slt\n        /* \"#utility.yul\":12712:12834   */\n      tag_437\n      jumpi\n        /* \"#utility.yul\":12753:12832   */\n      tag_438\n      tag_256\n      jump\t// in\n    tag_438:\n        /* \"#utility.yul\":12712:12834   */\n    tag_437:\n        /* \"#utility.yul\":12857:12861   */\n      0x02\n        /* \"#utility.yul\":12879:12971   */\n      tag_439\n        /* \"#utility.yul\":12967:12970   */\n      dup5\n        /* \"#utility.yul\":12959:12965   */\n      dup3\n        /* \"#utility.yul\":12951:12957   */\n      dup6\n        /* \"#utility.yul\":12879:12971   */\n      tag_291\n      jump\t// in\n    tag_439:\n        /* \"#utility.yul\":12870:12971   */\n      swap2\n      pop\n        /* \"#utility.yul\":12702:12977   */\n      pop\n        /* \"#utility.yul\":12616:12977   */\n      swap3\n      swap2\n      pop\n      pop\n      jump\t// out\n        /* \"#utility.yul\":12983:13709   */\n    tag_150:\n        /* \"#utility.yul\":13095:13101   */\n      0x00\n        /* \"#utility.yul\":13103:13109   */\n      dup1\n        /* \"#utility.yul\":13152:13154   */\n      0x60\n        /* \"#utility.yul\":13140:13149   */\n      dup4\n        /* \"#utility.yul\":13131:13138   */\n      dup6\n        /* \"#utility.yul\":13127:13150   */\n      sub\n        /* \"#utility.yul\":13123:13155   */\n      slt\n        /* \"#utility.yul\":13120:13239   */\n      iszero\n      tag_441\n      jumpi\n        /* \"#utility.yul\":13158:13237   */\n      tag_442\n      tag_254\n      jump\t// in\n    tag_442:\n        /* \"#utility.yul\":13120:13239   */\n    tag_441:\n        /* \"#utility.yul\":13299:13300   */\n      0x00\n        /* \"#utility.yul\":13288:13297   */\n      dup4\n        /* \"#utility.yul\":13284:13301   */\n      add\n        /* \"#utility.yul\":13278:13302   */\n      mload\n        /* \"#utility.yul\":13329:13347   */\n      0xffffffffffffffff\n        /* \"#utility.yul\":13321:13327   */\n      dup2\n        /* \"#utility.yul\":13318:13348   */\n      gt\n        /* \"#utility.yul\":13315:13432   */\n      iszero\n      tag_443\n      jumpi\n        /* \"#utility.yul\":13351:13430   */\n      tag_444\n      tag_255\n      jump\t// in\n    tag_444:\n        /* \"#utility.yul\":13315:13432   */\n    tag_443:\n        /* \"#utility.yul\":13456:13530   */\n      tag_445\n        /* \"#utility.yul\":13522:13529   */\n      dup6\n        /* \"#utility.yul\":13513:13519   */\n      dup3\n        /* \"#utility.yul\":13502:13511   */\n      dup7\n        /* \"#utility.yul\":13498:13520   */\n      add\n        /* \"#utility.yul\":13456:13530   */\n      tag_289\n      jump\t// in\n    tag_445:\n        /* \"#utility.yul\":13446:13530   */\n      swap3\n      pop\n        /* \"#utility.yul\":13249:13540   */\n      pop\n        /* \"#utility.yul\":13579:13581   */\n      0x20\n        /* \"#utility.yul\":13605:13692   */\n      tag_446\n        /* \"#utility.yul\":13684:13691   */\n      dup6\n        /* \"#utility.yul\":13675:13681   */\n      dup3\n        /* \"#utility.yul\":13664:13673   */\n      dup7\n        /* \"#utility.yul\":13660:13682   */\n      add\n        /* \"#utility.yul\":13605:13692   */\n      tag_292\n      jump\t// in\n    tag_446:\n        /* \"#utility.yul\":13595:13692   */\n      swap2\n      pop\n        /* \"#utility.yul\":13550:13702   */\n      pop\n        /* \"#utility.yul\":12983:13709   */\n      swap3\n      pop\n      swap3\n      swap1\n      pop\n      jump\t// out\n        /* \"#utility.yul\":13715:13895   */\n    tag_293:\n        /* \"#utility.yul\":13763:13840   */\n      0x4e487b7100000000000000000000000000000000000000000000000000000000\n        /* \"#utility.yul\":13760:13761   */\n      0x00\n        /* \"#utility.yul\":13753:13841   */\n      mstore\n        /* \"#utility.yul\":13860:13864   */\n      0x12\n        /* \"#utility.yul\":13857:13858   */\n      0x04\n        /* \"#utility.yul\":13850:13865   */\n      mstore\n        /* \"#utility.yul\":13884:13888   */\n      0x24\n        /* \"#utility.yul\":13881:13882   */\n      0x00\n        /* \"#utility.yul\":13874:13889   */\n      revert\n        /* \"#utility.yul\":13901:14077   */\n    tag_211:\n        /* \"#utility.yul\":13933:13934   */\n      0x00\n        /* \"#utility.yul\":13950:13970   */\n      tag_449\n        /* \"#utility.yul\":13968:13969   */\n      dup3\n        /* \"#utility.yul\":13950:13970   */\n      tag_262\n      jump\t// in\n    tag_449:\n        /* \"#utility.yul\":13945:13970   */\n      swap2\n      pop\n        /* \"#utility.yul\":13984:14004   */\n      tag_450\n        /* \"#utility.yul\":14002:14003   */\n      dup4\n        /* \"#utility.yul\":13984:14004   */\n      tag_262\n      jump\t// in\n    tag_450:\n        /* \"#utility.yul\":13979:14004   */\n      swap3\n      pop\n        /* \"#utility.yul\":14023:14024   */\n      dup3\n        /* \"#utility.yul\":14013:14048   */\n      tag_451\n      jumpi\n        /* \"#utility.yul\":14028:14046   */\n      tag_452\n      tag_293\n      jump\t// in\n    tag_452:\n        /* \"#utility.yul\":14013:14048   */\n    tag_451:\n        /* \"#utility.yul\":14069:14070   */\n      dup3\n        /* \"#utility.yul\":14066:14067   */\n      dup3\n        /* \"#utility.yul\":14062:14071   */\n      mod\n        /* \"#utility.yul\":14057:14071   */\n      swap1\n      pop\n        /* \"#utility.yul\":13901:14077   */\n      swap3\n      swap2\n      pop\n      pop\n      jump\t// out\n\n    auxdata: 0xa2646970667358221220def8e18cfe0241ca9eeb6bf67d809107c37df959455e6df608e5ae3442d7a4ac64736f6c63430008120033\n}\n",
				"bytecode": {
					"linkReferences": {},
					"object": "60a06040523480156200001157600080fd5b5065ffffffffffff6405deece66d6001436200002e91906200007a565b4060001c181660808181525050620000b5565b6000819050919050565b7f4e487b7100000000000000000000000000000000000000000000000000000000600052601160045260246000fd5b6000620000878262000041565b9150620000948362000041565b9250828203905081811115620000af57620000ae6200004b565b5b92915050565b60805161168e620000d160003960006107a5015261168e6000f3fe608060405234801561001057600080fd5b50600436106101005760003560e01c8063a920c0ae11610097578063e79fdacb11610066578063e79fdacb1461033d578063f8006f3b1461036e578063fcfe40e01461039e578063ff08cbe7146103cf57610100565b8063a920c0ae14610279578063ca8666e0146102aa578063dee0a5bb146102db578063e184526a1461030c57610100565b80634d424a32116100d35780634d424a32146101c85780634da4d590146101f957806377b31f881461022a578063791478501461025b57610100565b80630a609c3b146101055780631336e0da146101365780633708f98c14610167578063414163c114610198575b600080fd5b61011f600480360381019061011a9190611051565b610400565b60405161012d9291906111a8565b60405180910390f35b610150600480360381019061014b9190611051565b610431565b60405161015e9291906111a8565b60405180910390f35b610181600480360381019061017c9190611051565b610462565b60405161018f9291906111a8565b60405180910390f35b6101b260048036038101906101ad91906111d8565b610572565b6040516101bf9190611227565b60405180910390f35b6101e260048036038101906101dd919061129a565b610625565b6040516101f09291906111a8565b60405180910390f35b610213600480360381019061020e9190611051565b61073f565b6040516102219291906111a8565b60405180910390f35b610244600480360381019061023f9190611051565b610770565b6040516102529291906111a8565b60405180910390f35b6102636107a1565b6040516102709190611227565b60405180910390f35b610293600480360381019061028e9190611051565b6107c9565b6040516102a19291906111a8565b60405180910390f35b6102c460048036038101906102bf9190611051565b6108d9565b6040516102d29291906111a8565b60405180910390f35b6102f560048036038101906102f09190611051565b61091b565b6040516103039291906111a8565b60405180910390f35b61032660048036038101906103219190611051565b61094d565b6040516103349291906111a8565b60405180910390f35b61035760048036038101906103529190611051565b61097d565b6040516103659291906111a8565b60405180910390f35b610388600480360381019061038391906111d8565b6109ae565b6040516103959190611227565b60405180910390f35b6103b860048036038101906103b39190611051565b610a5d565b6040516103c69291906111a8565b60405180910390f35b6103e960048036038101906103e49190611051565b610a9f565b6040516103f79291906111a8565b60405180910390f35b606061040a610e9e565b600061041861010085610572565b905061042681600083610ae1565b849250925050915091565b606061043b610e9e565b600061044961010085610572565b905061045760008083610ae1565b849250925050915091565b606061046c610e9e565b600060809050600061047f6006866109ae565b905060606000820361049e5761049783600080610ae1565b9050610564565b600182036104ba576104b36000846000610ae1565b9050610563565b600282036104d5576104ce60008085610ae1565b9050610562565b600382036104f0576104e960008485610ae1565b9050610561565b6004820361050b5761050483846000610ae1565b9050610560565b600582036105265761051f83600085610ae1565b905061055f565b6040518060400160405280600181526020017f3f0000000000000000000000000000000000000000000000000000000000000081525090505b5b5b5b5b5b808694509450505050915091565b600065ffffffffffff8260016002811061058f5761058e6112da565b5b6020020151600b6405deece66d856000600281106105b0576105af6112da565b5b60200201516105bf9190611338565b6105c9919061137a565b6105d3919061137a565b16826000600281106105e8576105e76112da565b5b602002018181525050601f601183600060028110610609576106086112da565b5b6020020151901c8461061b9190611338565b901c905092915050565b606061062f610e9e565b6000848460405160240161064391906113ae565b604051602081830303815290604052907bffffffffffffffffffffffffffffffffffffffffffffffffffffffff19166020820180517bffffffffffffffffffffffffffffffffffffffffffffffffffffffff838183161783525050505090506000803073ffffffffffffffffffffffffffffffffffffffff16836040516106ca9190611410565b600060405180830381855afa9150503d8060008114610705576040519150601f19603f3d011682016040523d82523d6000602084013e61070a565b606091505b50915091508161071d5761071c611427565b5b80806020019051810190610731919061159c565b945094505050509250929050565b6060610749610e9e565b600061075761010085610572565b905061076581600080610ae1565b849250925050915091565b606061077a610e9e565b600061078861010085610572565b905061079681826000610ae1565b849250925050915091565b60007f0000000000000000000000000000000000000000000000000000000000000000905090565b60606107d3610e9e565b600060ff905060006107e66006866109ae565b9050606060008203610805576107fe83600080610ae1565b90506108cb565b600182036108215761081a6000846000610ae1565b90506108ca565b6002820361083c5761083560008085610ae1565b90506108c9565b600382036108575761085060008485610ae1565b90506108c8565b600482036108725761086b83846000610ae1565b90506108c7565b6005820361088d5761088683600085610ae1565b90506108c6565b6040518060400160405280600181526020017f3f0000000000000000000000000000000000000000000000000000000000000081525090505b5b5b5b5b5b808694509450505050915091565b60606108e3610e9e565b60006108f161010085610572565b9050600061090161010086610572565b905061090f82600083610ae1565b85935093505050915091565b6060610925610e9e565b600061093361010085610572565b90506109426000826000610ae1565b849250925050915091565b6060610957610e9e565b600061096561010085610572565b9050610972818283610ae1565b849250925050915091565b6060610987610e9e565b600061099561010085610572565b90506109a360008283610ae1565b849250925050915091565b600065ffffffffffff826001600281106109cb576109ca6112da565b5b6020020151600b6405deece66d856000600281106109ec576109eb6112da565b5b60200201516109fb9190611338565b610a05919061137a565b610a0f919061137a565b1682600060028110610a2457610a236112da565b5b60200201818152505082601183600060028110610a4457610a436112da565b5b6020020151901c610a559190611627565b905092915050565b6060610a67610e9e565b6000610a7561010085610572565b90506000610a8561010086610572565b9050610a9360008383610ae1565b85935093505050915091565b6060610aa9610e9e565b6000610ab761010085610572565b90506000610ac761010086610572565b9050610ad582826000610ae1565b85935093505050915091565b60606000600767ffffffffffffffff811115610b0057610aff610eea565b5b6040519080825280601f01601f191660200182016040528015610b325781602001600182028036833780820191505090505b5090507f230000000000000000000000000000000000000000000000000000000000000081600081518110610b6a57610b696112da565b5b60200101907effffffffffffffffffffffffffffffffffffffffffffffffffffffffffffff1916908160001a9053507f3031323334353637383941424344454600000000000000000000000000000000600460f08716901c60108110610bd357610bd26112da565b5b1a60f81b81600181518110610beb57610bea6112da565b5b60200101907effffffffffffffffffffffffffffffffffffffffffffffffffffffffffffff1916908160001a9053507f3031323334353637383941424344454600000000000000000000000000000000600f861660108110610c5057610c4f6112da565b5b1a60f81b81600281518110610c6857610c676112da565b5b60200101907effffffffffffffffffffffffffffffffffffffffffffffffffffffffffffff1916908160001a9053507f3031323334353637383941424344454600000000000000000000000000000000600460f08616901c60108110610cd157610cd06112da565b5b1a60f81b81600381518110610ce957610ce86112da565b5b60200101907effffffffffffffffffffffffffffffffffffffffffffffffffffffffffffff1916908160001a9053507f3031323334353637383941424344454600000000000000000000000000000000600f851660108110610d4e57610d4d6112da565b5b1a60f81b81600481518110610d6657610d656112da565b5b60200101907effffffffffffffffffffffffffffffffffffffffffffffffffffffffffffff1916908160001a9053507f3031323334353637383941424344454600000000000000000000000000000000600460f08516901c60108110610dcf57610dce6112da565b5b1a60f81b81600581518110610de757610de66112da565b5b60200101907effffffffffffffffffffffffffffffffffffffffffffffffffffffffffffff1916908160001a9053507f3031323334353637383941424344454600000000000000000000000000000000600f841660108110610e4c57610e4b6112da565b5b1a60f81b81600681518110610e6457610e636112da565b5b60200101907effffffffffffffffffffffffffffffffffffffffffffffffffffffffffffff1916908160001a905350809150509392505050565b6040518060400160405280600290602082028036833780820191505090505090565b6000604051905090565b600080fd5b600080fd5b600080fd5b6000601f19601f8301169050919050565b7f4e487b7100000000000000000000000000000000000000000000000000000000600052604160045260246000fd5b610f2282610ed9565b810181811067ffffffffffffffff82111715610f4157610f40610eea565b5b80604052505050565b6000610f54610ec0565b9050610f608282610f19565b919050565b600067ffffffffffffffff821115610f8057610f7f610eea565b5b602082029050919050565b600080fd5b6000819050919050565b610fa381610f90565b8114610fae57600080fd5b50565b600081359050610fc081610f9a565b92915050565b6000610fd9610fd484610f65565b610f4a565b90508060208402830185811115610ff357610ff2610f8b565b5b835b8181101561101c57806110088882610fb1565b845260208401935050602081019050610ff5565b5050509392505050565b600082601f83011261103b5761103a610ed4565b5b6002611048848285610fc6565b91505092915050565b60006040828403121561106757611066610eca565b5b600061107584828501611026565b91505092915050565b600081519050919050565b600082825260208201905092915050565b60005b838110156110b857808201518184015260208101905061109d565b60008484015250505050565b60006110cf8261107e565b6110d98185611089565b93506110e981856020860161109a565b6110f281610ed9565b840191505092915050565b600060029050919050565b600081905092915050565b6000819050919050565b61112681610f90565b82525050565b6000611138838361111d565b60208301905092915050565b6000602082019050919050565b61115a816110fd565b6111648184611108565b925061116f82611113565b8060005b838110156111a0578151611187878261112c565b965061119283611144565b925050600181019050611173565b505050505050565b600060608201905081810360008301526111c281856110c4565b90506111d16020830184611151565b9392505050565b600080606083850312156111ef576111ee610eca565b5b60006111fd85828601610fb1565b925050602061120e85828601611026565b9150509250929050565b61122181610f90565b82525050565b600060208201905061123c6000830184611218565b92915050565b60007fffffffff0000000000000000000000000000000000000000000000000000000082169050919050565b61127781611242565b811461128257600080fd5b50565b6000813590506112948161126e565b92915050565b600080606083850312156112b1576112b0610eca565b5b60006112bf85828601611285565b92505060206112d085828601611026565b9150509250929050565b7f4e487b7100000000000000000000000000000000000000000000000000000000600052603260045260246000fd5b7f4e487b7100000000000000000000000000000000000000000000000000000000600052601160045260246000fd5b600061134382610f90565b915061134e83610f90565b925082820261135c81610f90565b9150828204841483151761137357611372611309565b5b5092915050565b600061138582610f90565b915061139083610f90565b92508282019050808211156113a8576113a7611309565b5b92915050565b60006040820190506113c36000830184611151565b92915050565b600081519050919050565b600081905092915050565b60006113ea826113c9565b6113f481856113d4565b935061140481856020860161109a565b80840191505092915050565b600061141c82846113df565b915081905092915050565b7f4e487b7100000000000000000000000000000000000000000000000000000000600052600160045260246000fd5b600080fd5b600067ffffffffffffffff82111561147657611475610eea565b5b61147f82610ed9565b9050602081019050919050565b600061149f61149a8461145b565b610f4a565b9050828152602081018484840111156114bb576114ba611456565b5b6114c684828561109a565b509392505050565b600082601f8301126114e3576114e2610ed4565b5b81516114f384826020860161148c565b91505092915050565b60008151905061150b81610f9a565b92915050565b600061152461151f84610f65565b610f4a565b9050806020840283018581111561153e5761153d610f8b565b5b835b81811015611567578061155388826114fc565b845260208401935050602081019050611540565b5050509392505050565b600082601f83011261158657611585610ed4565b5b6002611593848285611511565b91505092915050565b600080606083850312156115b3576115b2610eca565b5b600083015167ffffffffffffffff8111156115d1576115d0610ecf565b5b6115dd858286016114ce565b92505060206115ee85828601611571565b9150509250929050565b7f4e487b7100000000000000000000000000000000000000000000000000000000600052601260045260246000fd5b600061163282610f90565b915061163d83610f90565b92508261164d5761164c6115f8565b5b82820690509291505056fea2646970667358221220def8e18cfe0241ca9eeb6bf67d809107c37df959455e6df608e5ae3442d7a4ac64736f6c63430008120033",
					"opcodes": "PUSH1 0xA0 PUSH1 0x40 MSTORE CALLVALUE DUP1 ISZERO PUSH3 0x11 JUMPI PUSH1 0x0 DUP1 REVERT JUMPDEST POP PUSH6 0xFFFFFFFFFFFF PUSH5 0x5DEECE66D PUSH1 0x1 NUMBER PUSH3 0x2E SWAP2 SWAP1 PUSH3 0x7A JUMP JUMPDEST BLOCKHASH PUSH1 0x0 SHR XOR AND PUSH1 0x80 DUP2 DUP2 MSTORE POP POP PUSH3 0xB5 JUMP JUMPDEST PUSH1 0x0 DUP2 SWAP1 POP SWAP2 SWAP1 POP JUMP JUMPDEST PUSH32 0x4E487B7100000000000000000000000000000000000000000000000000000000 PUSH1 0x0 MSTORE PUSH1 0x11 PUSH1 0x4 MSTORE PUSH1 0x24 PUSH1 0x0 REVERT JUMPDEST PUSH1 0x0 PUSH3 0x87 DUP3 PUSH3 0x41 JUMP JUMPDEST SWAP2 POP PUSH3 0x94 DUP4 PUSH3 0x41 JUMP JUMPDEST SWAP3 POP DUP3 DUP3 SUB SWAP1 POP DUP2 DUP2 GT ISZERO PUSH3 0xAF JUMPI PUSH3 0xAE PUSH3 0x4B JUMP JUMPDEST JUMPDEST SWAP3 SWAP2 POP POP JUMP JUMPDEST PUSH1 0x80 MLOAD PUSH2 0x168E PUSH3 0xD1 PUSH1 0x0 CODECOPY PUSH1 0x0 PUSH2 0x7A5 ADD MSTORE PUSH2 0x168E PUSH1 0x0 RETURN INVALID PUSH1 0x80 PUSH1 0x40 MSTORE CALLVALUE DUP1 ISZERO PUSH2 0x10 JUMPI PUSH1 0x0 DUP1 REVERT JUMPDEST POP PUSH1 0x4 CALLDATASIZE LT PUSH2 0x100 JUMPI PUSH1 0x0 CALLDATALOAD PUSH1 0xE0 SHR DUP1 PUSH4 0xA920C0AE GT PUSH2 0x97 JUMPI DUP1 PUSH4 0xE79FDACB GT PUSH2 0x66 JUMPI DUP1 PUSH4 0xE79FDACB EQ PUSH2 0x33D JUMPI DUP1 PUSH4 0xF8006F3B EQ PUSH2 0x36E JUMPI DUP1 PUSH4 0xFCFE40E0 EQ PUSH2 0x39E JUMPI DUP1 PUSH4 0xFF08CBE7 EQ PUSH2 0x3CF JUMPI PUSH2 0x100 JUMP JUMPDEST DUP1 PUSH4 0xA920C0AE EQ PUSH2 0x279 JUMPI DUP1 PUSH4 0xCA8666E0 EQ PUSH2 0x2AA JUMPI DUP1 PUSH4 0xDEE0A5BB EQ PUSH2 0x2DB JUMPI DUP1 PUSH4 0xE184526A EQ PUSH2 0x30C JUMPI PUSH2 0x100 JUMP JUMPDEST DUP1 PUSH4 0x4D424A32 GT PUSH2 0xD3 JUMPI DUP1 PUSH4 0x4D424A32 EQ PUSH2 0x1C8 JUMPI DUP1 PUSH4 0x4DA4D590 EQ PUSH2 0x1F9 JUMPI DUP1 PUSH4 0x77B31F88 EQ PUSH2 0x22A JUMPI DUP1 PUSH4 0x79147850 EQ PUSH2 0x25B JUMPI PUSH2 0x100 JUMP JUMPDEST DUP1 PUSH4 0xA609C3B EQ PUSH2 0x105 JUMPI DUP1 PUSH4 0x1336E0DA EQ PUSH2 0x136 JUMPI DUP1 PUSH4 0x3708F98C EQ PUSH2 0x167 JUMPI DUP1 PUSH4 0x414163C1 EQ PUSH2 0x198 JUMPI JUMPDEST PUSH1 0x0 DUP1 REVERT JUMPDEST PUSH2 0x11F PUSH1 0x4 DUP1 CALLDATASIZE SUB DUP2 ADD SWAP1 PUSH2 0x11A SWAP2 SWAP1 PUSH2 0x1051 JUMP JUMPDEST PUSH2 0x400 JUMP JUMPDEST PUSH1 0x40 MLOAD PUSH2 0x12D SWAP3 SWAP2 SWAP1 PUSH2 0x11A8 JUMP JUMPDEST PUSH1 0x40 MLOAD DUP1 SWAP2 SUB SWAP1 RETURN JUMPDEST PUSH2 0x150 PUSH1 0x4 DUP1 CALLDATASIZE SUB DUP2 ADD SWAP1 PUSH2 0x14B SWAP2 SWAP1 PUSH2 0x1051 JUMP JUMPDEST PUSH2 0x431 JUMP JUMPDEST PUSH1 0x40 MLOAD PUSH2 0x15E SWAP3 SWAP2 SWAP1 PUSH2 0x11A8 JUMP JUMPDEST PUSH1 0x40 MLOAD DUP1 SWAP2 SUB SWAP1 RETURN JUMPDEST PUSH2 0x181 PUSH1 0x4 DUP1 CALLDATASIZE SUB DUP2 ADD SWAP1 PUSH2 0x17C SWAP2 SWAP1 PUSH2 0x1051 JUMP JUMPDEST PUSH2 0x462 JUMP JUMPDEST PUSH1 0x40 MLOAD PUSH2 0x18F SWAP3 SWAP2 SWAP1 PUSH2 0x11A8 JUMP JUMPDEST PUSH1 0x40 MLOAD DUP1 SWAP2 SUB SWAP1 RETURN JUMPDEST PUSH2 0x1B2 PUSH1 0x4 DUP1 CALLDATASIZE SUB DUP2 ADD SWAP1 PUSH2 0x1AD SWAP2 SWAP1 PUSH2 0x11D8 JUMP JUMPDEST PUSH2 0x572 JUMP JUMPDEST PUSH1 0x40 MLOAD PUSH2 0x1BF SWAP2 SWAP1 PUSH2 0x1227 JUMP JUMPDEST PUSH1 0x40 MLOAD DUP1 SWAP2 SUB SWAP1 RETURN JUMPDEST PUSH2 0x1E2 PUSH1 0x4 DUP1 CALLDATASIZE SUB DUP2 ADD SWAP1 PUSH2 0x1DD SWAP2 SWAP1 PUSH2 0x129A JUMP JUMPDEST PUSH2 0x625 JUMP JUMPDEST PUSH1 0x40 MLOAD PUSH2 0x1F0 SWAP3 SWAP2 SWAP1 PUSH2 0x11A8 JUMP JUMPDEST PUSH1 0x40 MLOAD DUP1 SWAP2 SUB SWAP1 RETURN JUMPDEST PUSH2 0x213 PUSH1 0x4 DUP1 CALLDATASIZE SUB DUP2 ADD SWAP1 PUSH2 0x20E SWAP2 SWAP1 PUSH2 0x1051 JUMP JUMPDEST PUSH2 0x73F JUMP JUMPDEST PUSH1 0x40 MLOAD PUSH2 0x221 SWAP3 SWAP2 SWAP1 PUSH2 0x11A8 JUMP JUMPDEST PUSH1 0x40 MLOAD DUP1 SWAP2 SUB SWAP1 RETURN JUMPDEST PUSH2 0x244 PUSH1 0x4 DUP1 CALLDATASIZE SUB DUP2 ADD SWAP1 PUSH2 0x23F SWAP2 SWAP1 PUSH2 0x1051 JUMP JUMPDEST PUSH2 0x770 JUMP JUMPDEST PUSH1 0x40 MLOAD PUSH2 0x252 SWAP3 SWAP2 SWAP1 PUSH2 0x11A8 JUMP JUMPDEST PUSH1 0x40 MLOAD DUP1 SWAP2 SUB SWAP1 RETURN JUMPDEST PUSH2 0x263 PUSH2 0x7A1 JUMP JUMPDEST PUSH1 0x40 MLOAD PUSH2 0x270 SWAP2 SWAP1 PUSH2 0x1227 JUMP JUMPDEST PUSH1 0x40 MLOAD DUP1 SWAP2 SUB SWAP1 RETURN JUMPDEST PUSH2 0x293 PUSH1 0x4 DUP1 CALLDATASIZE SUB DUP2 ADD SWAP1 PUSH2 0x28E SWAP2 SWAP1 PUSH2 0x1051 JUMP JUMPDEST PUSH2 0x7C9 JUMP JUMPDEST PUSH1 0x40 MLOAD PUSH2 0x2A1 SWAP3 SWAP2 SWAP1 PUSH2 0x11A8 JUMP JUMPDEST PUSH1 0x40 MLOAD DUP1 SWAP2 SUB SWAP1 RETURN JUMPDEST PUSH2 0x2C4 PUSH1 0x4 DUP1 CALLDATASIZE SUB DUP2 ADD SWAP1 PUSH2 0x2BF SWAP2 SWAP1 PUSH2 0x1051 JUMP JUMPDEST PUSH2 0x8D9 JUMP JUMPDEST PUSH1 0x40 MLOAD PUSH2 0x2D2 SWAP3 SWAP2 SWAP1 PUSH2 0x11A8 JUMP JUMPDEST PUSH1 0x40 MLOAD DUP1 SWAP2 SUB SWAP1 RETURN JUMPDEST PUSH2 0x2F5 PUSH1 0x4 DUP1 CALLDATASIZE SUB DUP2 ADD SWAP1 PUSH2 0x2F0 SWAP2 SWAP1 PUSH2 0x1051 JUMP JUMPDEST PUSH2 0x91B JUMP JUMPDEST PUSH1 0x40 MLOAD PUSH2 0x303 SWAP3 SWAP2 SWAP1 PUSH2 0x11A8 JUMP JUMPDEST PUSH1 0x40 MLOAD DUP1 SWAP2 SUB SWAP1 RETURN JUMPDEST PUSH2 0x326 PUSH1 0x4 DUP1 CALLDATASIZE SUB DUP2 ADD SWAP1 PUSH2 0x321 SWAP2 SWAP1 PUSH2 0x1051 JUMP JUMPDEST PUSH2 0x94D JUMP JUMPDEST PUSH1 0x40 MLOAD PUSH2 0x334 SWAP3 SWAP2 SWAP1 PUSH2 0x11A8 JUMP JUMPDEST PUSH1 0x40 MLOAD DUP1 SWAP2 SUB SWAP1 RETURN JUMPDEST PUSH2 0x357 PUSH1 0x4 DUP1 CALLDATASIZE SUB DUP2 ADD SWAP1 PUSH2 0x352 SWAP2 SWAP1 PUSH2 0x1051 JUMP JUMPDEST PUSH2 0x97D JUMP JUMPDEST PUSH1 0x40 MLOAD PUSH2 0x365 SWAP3 SWAP2 SWAP1 PUSH2 0x11A8 JUMP JUMPDEST PUSH1 0x40 MLOAD DUP1 SWAP2 SUB SWAP1 RETURN JUMPDEST PUSH2 0x388 PUSH1 0x4 DUP1 CALLDATASIZE SUB DUP2 ADD SWAP1 PUSH2 0x383 SWAP2 SWAP1 PUSH2 0x11D8 JUMP JUMPDEST PUSH2 0x9AE JUMP JUMPDEST PUSH1 0x40 MLOAD PUSH2 0x395 SWAP2 SWAP1 PUSH2 0x1227 JUMP JUMPDEST PUSH1 0x40 MLOAD DUP1 SWAP2 SUB SWAP1 RETURN JUMPDEST PUSH2 0x3B8 PUSH1 0x4 DUP1 CALLDATASIZE SUB DUP2 ADD SWAP1 PUSH2 0x3B3 SWAP2 SWAP1 PUSH2 0x1051 JUMP JUMPDEST PUSH2 0xA5D JUMP JUMPDEST PUSH1 0x40 MLOAD PUSH2 0x3C6 SWAP3 SWAP2 SWAP1 PUSH2 0x11A8 JUMP JUMPDEST PUSH1 0x40 MLOAD DUP1 SWAP2 SUB SWAP1 RETURN JUMPDEST PUSH2 0x3E9 PUSH1 0x4 DUP1 CALLDATASIZE SUB DUP2 ADD SWAP1 PUSH2 0x3E4 SWAP2 SWAP1 PUSH2 0x1051 JUMP JUMPDEST PUSH2 0xA9F JUMP JUMPDEST PUSH1 0x40 MLOAD PUSH2 0x3F7 SWAP3 SWAP2 SWAP1 PUSH2 0x11A8 JUMP JUMPDEST PUSH1 0x40 MLOAD DUP1 SWAP2 SUB SWAP1 RETURN JUMPDEST PUSH1 0x60 PUSH2 0x40A PUSH2 0xE9E JUMP JUMPDEST PUSH1 0x0 PUSH2 0x418 PUSH2 0x100 DUP6 PUSH2 0x572 JUMP JUMPDEST SWAP1 POP PUSH2 0x426 DUP2 PUSH1 0x0 DUP4 PUSH2 0xAE1 JUMP JUMPDEST DUP5 SWAP3 POP SWAP3 POP POP SWAP2 POP SWAP2 JUMP JUMPDEST PUSH1 0x60 PUSH2 0x43B PUSH2 0xE9E JUMP JUMPDEST PUSH1 0x0 PUSH2 0x449 PUSH2 0x100 DUP6 PUSH2 0x572 JUMP JUMPDEST SWAP1 POP PUSH2 0x457 PUSH1 0x0 DUP1 DUP4 PUSH2 0xAE1 JUMP JUMPDEST DUP5 SWAP3 POP SWAP3 POP POP SWAP2 POP SWAP2 JUMP JUMPDEST PUSH1 0x60 PUSH2 0x46C PUSH2 0xE9E JUMP JUMPDEST PUSH1 0x0 PUSH1 0x80 SWAP1 POP PUSH1 0x0 PUSH2 0x47F PUSH1 0x6 DUP7 PUSH2 0x9AE JUMP JUMPDEST SWAP1 POP PUSH1 0x60 PUSH1 0x0 DUP3 SUB PUSH2 0x49E JUMPI PUSH2 0x497 DUP4 PUSH1 0x0 DUP1 PUSH2 0xAE1 JUMP JUMPDEST SWAP1 POP PUSH2 0x564 JUMP JUMPDEST PUSH1 0x1 DUP3 SUB PUSH2 0x4BA JUMPI PUSH2 0x4B3 PUSH1 0x0 DUP5 PUSH1 0x0 PUSH2 0xAE1 JUMP JUMPDEST SWAP1 POP PUSH2 0x563 JUMP JUMPDEST PUSH1 0x2 DUP3 SUB PUSH2 0x4D5 JUMPI PUSH2 0x4CE PUSH1 0x0 DUP1 DUP6 PUSH2 0xAE1 JUMP JUMPDEST SWAP1 POP PUSH2 0x562 JUMP JUMPDEST PUSH1 0x3 DUP3 SUB PUSH2 0x4F0 JUMPI PUSH2 0x4E9 PUSH1 0x0 DUP5 DUP6 PUSH2 0xAE1 JUMP JUMPDEST SWAP1 POP PUSH2 0x561 JUMP JUMPDEST PUSH1 0x4 DUP3 SUB PUSH2 0x50B JUMPI PUSH2 0x504 DUP4 DUP5 PUSH1 0x0 PUSH2 0xAE1 JUMP JUMPDEST SWAP1 POP PUSH2 0x560 JUMP JUMPDEST PUSH1 0x5 DUP3 SUB PUSH2 0x526 JUMPI PUSH2 0x51F DUP4 PUSH1 0x0 DUP6 PUSH2 0xAE1 JUMP JUMPDEST SWAP1 POP PUSH2 0x55F JUMP JUMPDEST PUSH1 0x40 MLOAD DUP1 PUSH1 0x40 ADD PUSH1 0x40 MSTORE DUP1 PUSH1 0x1 DUP2 MSTORE PUSH1 0x20 ADD PUSH32 0x3F00000000000000000000000000000000000000000000000000000000000000 DUP2 MSTORE POP SWAP1 POP JUMPDEST JUMPDEST JUMPDEST JUMPDEST JUMPDEST JUMPDEST DUP1 DUP7 SWAP5 POP SWAP5 POP POP POP POP SWAP2 POP SWAP2 JUMP JUMPDEST PUSH1 0x0 PUSH6 0xFFFFFFFFFFFF DUP3 PUSH1 0x1 PUSH1 0x2 DUP2 LT PUSH2 0x58F JUMPI PUSH2 0x58E PUSH2 0x12DA JUMP JUMPDEST JUMPDEST PUSH1 0x20 MUL ADD MLOAD PUSH1 0xB PUSH5 0x5DEECE66D DUP6 PUSH1 0x0 PUSH1 0x2 DUP2 LT PUSH2 0x5B0 JUMPI PUSH2 0x5AF PUSH2 0x12DA JUMP JUMPDEST JUMPDEST PUSH1 0x20 MUL ADD MLOAD PUSH2 0x5BF SWAP2 SWAP1 PUSH2 0x1338 JUMP JUMPDEST PUSH2 0x5C9 SWAP2 SWAP1 PUSH2 0x137A JUMP JUMPDEST PUSH2 0x5D3 SWAP2 SWAP1 PUSH2 0x137A JUMP JUMPDEST AND DUP3 PUSH1 0x0 PUSH1 0x2 DUP2 LT PUSH2 0x5E8 JUMPI PUSH2 0x5E7 PUSH2 0x12DA JUMP JUMPDEST JUMPDEST PUSH1 0x20 MUL ADD DUP2 DUP2 MSTORE POP POP PUSH1 0x1F PUSH1 0x11 DUP4 PUSH1 0x0 PUSH1 0x2 DUP2 LT PUSH2 0x609 JUMPI PUSH2 0x608 PUSH2 0x12DA JUMP JUMPDEST JUMPDEST PUSH1 0x20 MUL ADD MLOAD SWAP1 SHR DUP5 PUSH2 0x61B SWAP2 SWAP1 PUSH2 0x1338 JUMP JUMPDEST SWAP1 SHR SWAP1 POP SWAP3 SWAP2 POP POP JUMP JUMPDEST PUSH1 0x60 PUSH2 0x62F PUSH2 0xE9E JUMP JUMPDEST PUSH1 0x0 DUP5 DUP5 PUSH1 0x40 MLOAD PUSH1 0x24 ADD PUSH2 0x643 SWAP2 SWAP1 PUSH2 0x13AE JUMP JUMPDEST PUSH1 0x40 MLOAD PUSH1 0x20 DUP2 DUP4 SUB SUB DUP2 MSTORE SWAP1 PUSH1 0x40 MSTORE SWAP1 PUSH28 0xFFFFFFFFFFFFFFFFFFFFFFFFFFFFFFFFFFFFFFFFFFFFFFFFFFFFFFFF NOT AND PUSH1 0x20 DUP3 ADD DUP1 MLOAD PUSH28 0xFFFFFFFFFFFFFFFFFFFFFFFFFFFFFFFFFFFFFFFFFFFFFFFFFFFFFFFF DUP4 DUP2 DUP4 AND OR DUP4 MSTORE POP POP POP POP SWAP1 POP PUSH1 0x0 DUP1 ADDRESS PUSH20 0xFFFFFFFFFFFFFFFFFFFFFFFFFFFFFFFFFFFFFFFF AND DUP4 PUSH1 0x40 MLOAD PUSH2 0x6CA SWAP2 SWAP1 PUSH2 0x1410 JUMP JUMPDEST PUSH1 0x0 PUSH1 0x40 MLOAD DUP1 DUP4 SUB DUP2 DUP6 GAS STATICCALL SWAP2 POP POP RETURNDATASIZE DUP1 PUSH1 0x0 DUP2 EQ PUSH2 0x705 JUMPI PUSH1 0x40 MLOAD SWAP2 POP PUSH1 0x1F NOT PUSH1 0x3F RETURNDATASIZE ADD AND DUP3 ADD PUSH1 0x40 MSTORE RETURNDATASIZE DUP3 MSTORE RETURNDATASIZE PUSH1 0x0 PUSH1 0x20 DUP5 ADD RETURNDATACOPY PUSH2 0x70A JUMP JUMPDEST PUSH1 0x60 SWAP2 POP JUMPDEST POP SWAP2 POP SWAP2 POP DUP2 PUSH2 0x71D JUMPI PUSH2 0x71C PUSH2 0x1427 JUMP JUMPDEST JUMPDEST DUP1 DUP1 PUSH1 0x20 ADD SWAP1 MLOAD DUP2 ADD SWAP1 PUSH2 0x731 SWAP2 SWAP1 PUSH2 0x159C JUMP JUMPDEST SWAP5 POP SWAP5 POP POP POP POP SWAP3 POP SWAP3 SWAP1 POP JUMP JUMPDEST PUSH1 0x60 PUSH2 0x749 PUSH2 0xE9E JUMP JUMPDEST PUSH1 0x0 PUSH2 0x757 PUSH2 0x100 DUP6 PUSH2 0x572 JUMP JUMPDEST SWAP1 POP PUSH2 0x765 DUP2 PUSH1 0x0 DUP1 PUSH2 0xAE1 JUMP JUMPDEST DUP5 SWAP3 POP SWAP3 POP POP SWAP2 POP SWAP2 JUMP JUMPDEST PUSH1 0x60 PUSH2 0x77A PUSH2 0xE9E JUMP JUMPDEST PUSH1 0x0 PUSH2 0x788 PUSH2 0x100 DUP6 PUSH2 0x572 JUMP JUMPDEST SWAP1 POP PUSH2 0x796 DUP2 DUP3 PUSH1 0x0 PUSH2 0xAE1 JUMP JUMPDEST DUP5 SWAP3 POP SWAP3 POP POP SWAP2 POP SWAP2 JUMP JUMPDEST PUSH1 0x0 PUSH32 0x0 SWAP1 POP SWAP1 JUMP JUMPDEST PUSH1 0x60 PUSH2 0x7D3 PUSH2 0xE9E JUMP JUMPDEST PUSH1 0x0 PUSH1 0xFF SWAP1 POP PUSH1 0x0 PUSH2 0x7E6 PUSH1 0x6 DUP7 PUSH2 0x9AE JUMP JUMPDEST SWAP1 POP PUSH1 0x60 PUSH1 0x0 DUP3 SUB PUSH2 0x805 JUMPI PUSH2 0x7FE DUP4 PUSH1 0x0 DUP1 PUSH2 0xAE1 JUMP JUMPDEST SWAP1 POP PUSH2 0x8CB JUMP JUMPDEST PUSH1 0x1 DUP3 SUB PUSH2 0x821 JUMPI PUSH2 0x81A PUSH1 0x0 DUP5 PUSH1 0x0 PUSH2 0xAE1 JUMP JUMPDEST SWAP1 POP PUSH2 0x8CA JUMP JUMPDEST PUSH1 0x2 DUP3 SUB PUSH2 0x83C JUMPI PUSH2 0x835 PUSH1 0x0 DUP1 DUP6 PUSH2 0xAE1 JUMP JUMPDEST SWAP1 POP PUSH2 0x8C9 JUMP JUMPDEST PUSH1 0x3 DUP3 SUB PUSH2 0x857 JUMPI PUSH2 0x850 PUSH1 0x0 DUP5 DUP6 PUSH2 0xAE1 JUMP JUMPDEST SWAP1 POP PUSH2 0x8C8 JUMP JUMPDEST PUSH1 0x4 DUP3 SUB PUSH2 0x872 JUMPI PUSH2 0x86B DUP4 DUP5 PUSH1 0x0 PUSH2 0xAE1 JUMP JUMPDEST SWAP1 POP PUSH2 0x8C7 JUMP JUMPDEST PUSH1 0x5 DUP3 SUB PUSH2 0x88D JUMPI PUSH2 0x886 DUP4 PUSH1 0x0 DUP6 PUSH2 0xAE1 JUMP JUMPDEST SWAP1 POP PUSH2 0x8C6 JUMP JUMPDEST PUSH1 0x40 MLOAD DUP1 PUSH1 0x40 ADD PUSH1 0x40 MSTORE DUP1 PUSH1 0x1 DUP2 MSTORE PUSH1 0x20 ADD PUSH32 0x3F00000000000000000000000000000000000000000000000000000000000000 DUP2 MSTORE POP SWAP1 POP JUMPDEST JUMPDEST JUMPDEST JUMPDEST JUMPDEST JUMPDEST DUP1 DUP7 SWAP5 POP SWAP5 POP POP POP POP SWAP2 POP SWAP2 JUMP JUMPDEST PUSH1 0x60 PUSH2 0x8E3 PUSH2 0xE9E JUMP JUMPDEST PUSH1 0x0 PUSH2 0x8F1 PUSH2 0x100 DUP6 PUSH2 0x572 JUMP JUMPDEST SWAP1 POP PUSH1 0x0 PUSH2 0x901 PUSH2 0x100 DUP7 PUSH2 0x572 JUMP JUMPDEST SWAP1 POP PUSH2 0x90F DUP3 PUSH1 0x0 DUP4 PUSH2 0xAE1 JUMP JUMPDEST DUP6 SWAP4 POP SWAP4 POP POP POP SWAP2 POP SWAP2 JUMP JUMPDEST PUSH1 0x60 PUSH2 0x925 PUSH2 0xE9E JUMP JUMPDEST PUSH1 0x0 PUSH2 0x933 PUSH2 0x100 DUP6 PUSH2 0x572 JUMP JUMPDEST SWAP1 POP PUSH2 0x942 PUSH1 0x0 DUP3 PUSH1 0x0 PUSH2 0xAE1 JUMP JUMPDEST DUP5 SWAP3 POP SWAP3 POP POP SWAP2 POP SWAP2 JUMP JUMPDEST PUSH1 0x60 PUSH2 0x957 PUSH2 0xE9E JUMP JUMPDEST PUSH1 0x0 PUSH2 0x965 PUSH2 0x100 DUP6 PUSH2 0x572 JUMP JUMPDEST SWAP1 POP PUSH2 0x972 DUP2 DUP3 DUP4 PUSH2 0xAE1 JUMP JUMPDEST DUP5 SWAP3 POP SWAP3 POP POP SWAP2 POP SWAP2 JUMP JUMPDEST PUSH1 0x60 PUSH2 0x987 PUSH2 0xE9E JUMP JUMPDEST PUSH1 0x0 PUSH2 0x995 PUSH2 0x100 DUP6 PUSH2 0x572 JUMP JUMPDEST SWAP1 POP PUSH2 0x9A3 PUSH1 0x0 DUP3 DUP4 PUSH2 0xAE1 JUMP JUMPDEST DUP5 SWAP3 POP SWAP3 POP POP SWAP2 POP SWAP2 JUMP JUMPDEST PUSH1 0x0 PUSH6 0xFFFFFFFFFFFF DUP3 PUSH1 0x1 PUSH1 0x2 DUP2 LT PUSH2 0x9CB JUMPI PUSH2 0x9CA PUSH2 0x12DA JUMP JUMPDEST JUMPDEST PUSH1 0x20 MUL ADD MLOAD PUSH1 0xB PUSH5 0x5DEECE66D DUP6 PUSH1 0x0 PUSH1 0x2 DUP2 LT PUSH2 0x9EC JUMPI PUSH2 0x9EB PUSH2 0x12DA JUMP JUMPDEST JUMPDEST PUSH1 0x20 MUL ADD MLOAD PUSH2 0x9FB SWAP2 SWAP1 PUSH2 0x1338 JUMP JUMPDEST PUSH2 0xA05 SWAP2 SWAP1 PUSH2 0x137A JUMP JUMPDEST PUSH2 0xA0F SWAP2 SWAP1 PUSH2 0x137A JUMP JUMPDEST AND DUP3 PUSH1 0x0 PUSH1 0x2 DUP2 LT PUSH2 0xA24 JUMPI PUSH2 0xA23 PUSH2 0x12DA JUMP JUMPDEST JUMPDEST PUSH1 0x20 MUL ADD DUP2 DUP2 MSTORE POP POP DUP3 PUSH1 0x11 DUP4 PUSH1 0x0 PUSH1 0x2 DUP2 LT PUSH2 0xA44 JUMPI PUSH2 0xA43 PUSH2 0x12DA JUMP JUMPDEST JUMPDEST PUSH1 0x20 MUL ADD MLOAD SWAP1 SHR PUSH2 0xA55 SWAP2 SWAP1 PUSH2 0x1627 JUMP JUMPDEST SWAP1 POP SWAP3 SWAP2 POP POP JUMP JUMPDEST PUSH1 0x60 PUSH2 0xA67 PUSH2 0xE9E JUMP JUMPDEST PUSH1 0x0 PUSH2 0xA75 PUSH2 0x100 DUP6 PUSH2 0x572 JUMP JUMPDEST SWAP1 POP PUSH1 0x0 PUSH2 0xA85 PUSH2 0x100 DUP7 PUSH2 0x572 JUMP JUMPDEST SWAP1 POP PUSH2 0xA93 PUSH1 0x0 DUP4 DUP4 PUSH2 0xAE1 JUMP JUMPDEST DUP6 SWAP4 POP SWAP4 POP POP POP SWAP2 POP SWAP2 JUMP JUMPDEST PUSH1 0x60 PUSH2 0xAA9 PUSH2 0xE9E JUMP JUMPDEST PUSH1 0x0 PUSH2 0xAB7 PUSH2 0x100 DUP6 PUSH2 0x572 JUMP JUMPDEST SWAP1 POP PUSH1 0x0 PUSH2 0xAC7 PUSH2 0x100 DUP7 PUSH2 0x572 JUMP JUMPDEST SWAP1 POP PUSH2 0xAD5 DUP3 DUP3 PUSH1 0x0 PUSH2 0xAE1 JUMP JUMPDEST DUP6 SWAP4 POP SWAP4 POP POP POP SWAP2 POP SWAP2 JUMP JUMPDEST PUSH1 0x60 PUSH1 0x0 PUSH1 0x7 PUSH8 0xFFFFFFFFFFFFFFFF DUP2 GT ISZERO PUSH2 0xB00 JUMPI PUSH2 0xAFF PUSH2 0xEEA JUMP JUMPDEST JUMPDEST PUSH1 0x40 MLOAD SWAP1 DUP1 DUP3 MSTORE DUP1 PUSH1 0x1F ADD PUSH1 0x1F NOT AND PUSH1 0x20 ADD DUP3 ADD PUSH1 0x40 MSTORE DUP1 ISZERO PUSH2 0xB32 JUMPI DUP2 PUSH1 0x20 ADD PUSH1 0x1 DUP3 MUL DUP1 CALLDATASIZE DUP4 CALLDATACOPY DUP1 DUP3 ADD SWAP2 POP POP SWAP1 POP JUMPDEST POP SWAP1 POP PUSH32 0x2300000000000000000000000000000000000000000000000000000000000000 DUP2 PUSH1 0x0 DUP2 MLOAD DUP2 LT PUSH2 0xB6A JUMPI PUSH2 0xB69 PUSH2 0x12DA JUMP JUMPDEST JUMPDEST PUSH1 0x20 ADD ADD SWAP1 PUSH31 0xFFFFFFFFFFFFFFFFFFFFFFFFFFFFFFFFFFFFFFFFFFFFFFFFFFFFFFFFFFFFFF NOT AND SWAP1 DUP2 PUSH1 0x0 BYTE SWAP1 MSTORE8 POP PUSH32 0x3031323334353637383941424344454600000000000000000000000000000000 PUSH1 0x4 PUSH1 0xF0 DUP8 AND SWAP1 SHR PUSH1 0x10 DUP2 LT PUSH2 0xBD3 JUMPI PUSH2 0xBD2 PUSH2 0x12DA JUMP JUMPDEST JUMPDEST BYTE PUSH1 0xF8 SHL DUP2 PUSH1 0x1 DUP2 MLOAD DUP2 LT PUSH2 0xBEB JUMPI PUSH2 0xBEA PUSH2 0x12DA JUMP JUMPDEST JUMPDEST PUSH1 0x20 ADD ADD SWAP1 PUSH31 0xFFFFFFFFFFFFFFFFFFFFFFFFFFFFFFFFFFFFFFFFFFFFFFFFFFFFFFFFFFFFFF NOT AND SWAP1 DUP2 PUSH1 0x0 BYTE SWAP1 MSTORE8 POP PUSH32 0x3031323334353637383941424344454600000000000000000000000000000000 PUSH1 0xF DUP7 AND PUSH1 0x10 DUP2 LT PUSH2 0xC50 JUMPI PUSH2 0xC4F PUSH2 0x12DA JUMP JUMPDEST JUMPDEST BYTE PUSH1 0xF8 SHL DUP2 PUSH1 0x2 DUP2 MLOAD DUP2 LT PUSH2 0xC68 JUMPI PUSH2 0xC67 PUSH2 0x12DA JUMP JUMPDEST JUMPDEST PUSH1 0x20 ADD ADD SWAP1 PUSH31 0xFFFFFFFFFFFFFFFFFFFFFFFFFFFFFFFFFFFFFFFFFFFFFFFFFFFFFFFFFFFFFF NOT AND SWAP1 DUP2 PUSH1 0x0 BYTE SWAP1 MSTORE8 POP PUSH32 0x3031323334353637383941424344454600000000000000000000000000000000 PUSH1 0x4 PUSH1 0xF0 DUP7 AND SWAP1 SHR PUSH1 0x10 DUP2 LT PUSH2 0xCD1 JUMPI PUSH2 0xCD0 PUSH2 0x12DA JUMP JUMPDEST JUMPDEST BYTE PUSH1 0xF8 SHL DUP2 PUSH1 0x3 DUP2 MLOAD DUP2 LT PUSH2 0xCE9 JUMPI PUSH2 0xCE8 PUSH2 0x12DA JUMP JUMPDEST JUMPDEST PUSH1 0x20 ADD ADD SWAP1 PUSH31 0xFFFFFFFFFFFFFFFFFFFFFFFFFFFFFFFFFFFFFFFFFFFFFFFFFFFFFFFFFFFFFF NOT AND SWAP1 DUP2 PUSH1 0x0 BYTE SWAP1 MSTORE8 POP PUSH32 0x3031323334353637383941424344454600000000000000000000000000000000 PUSH1 0xF DUP6 AND PUSH1 0x10 DUP2 LT PUSH2 0xD4E JUMPI PUSH2 0xD4D PUSH2 0x12DA JUMP JUMPDEST JUMPDEST BYTE PUSH1 0xF8 SHL DUP2 PUSH1 0x4 DUP2 MLOAD DUP2 LT PUSH2 0xD66 JUMPI PUSH2 0xD65 PUSH2 0x12DA JUMP JUMPDEST JUMPDEST PUSH1 0x20 ADD ADD SWAP1 PUSH31 0xFFFFFFFFFFFFFFFFFFFFFFFFFFFFFFFFFFFFFFFFFFFFFFFFFFFFFFFFFFFFFF NOT AND SWAP1 DUP2 PUSH1 0x0 BYTE SWAP1 MSTORE8 POP PUSH32 0x3031323334353637383941424344454600000000000000000000000000000000 PUSH1 0x4 PUSH1 0xF0 DUP6 AND SWAP1 SHR PUSH1 0x10 DUP2 LT PUSH2 0xDCF JUMPI PUSH2 0xDCE PUSH2 0x12DA JUMP JUMPDEST JUMPDEST BYTE PUSH1 0xF8 SHL DUP2 PUSH1 0x5 DUP2 MLOAD DUP2 LT PUSH2 0xDE7 JUMPI PUSH2 0xDE6 PUSH2 0x12DA JUMP JUMPDEST JUMPDEST PUSH1 0x20 ADD ADD SWAP1 PUSH31 0xFFFFFFFFFFFFFFFFFFFFFFFFFFFFFFFFFFFFFFFFFFFFFFFFFFFFFFFFFFFFFF NOT AND SWAP1 DUP2 PUSH1 0x0 BYTE SWAP1 MSTORE8 POP PUSH32 0x3031323334353637383941424344454600000000000000000000000000000000 PUSH1 0xF DUP5 AND PUSH1 0x10 DUP2 LT PUSH2 0xE4C JUMPI PUSH2 0xE4B PUSH2 0x12DA JUMP JUMPDEST JUMPDEST BYTE PUSH1 0xF8 SHL DUP2 PUSH1 0x6 DUP2 MLOAD DUP2 LT PUSH2 0xE64 JUMPI PUSH2 0xE63 PUSH2 0x12DA JUMP JUMPDEST JUMPDEST PUSH1 0x20 ADD ADD SWAP1 PUSH31 0xFFFFFFFFFFFFFFFFFFFFFFFFFFFFFFFFFFFFFFFFFFFFFFFFFFFFFFFFFFFFFF NOT AND SWAP1 DUP2 PUSH1 0x0 BYTE SWAP1 MSTORE8 POP DUP1 SWAP2 POP POP SWAP4 SWAP3 POP POP POP JUMP JUMPDEST PUSH1 0x40 MLOAD DUP1 PUSH1 0x40 ADD PUSH1 0x40 MSTORE DUP1 PUSH1 0x2 SWAP1 PUSH1 0x20 DUP3 MUL DUP1 CALLDATASIZE DUP4 CALLDATACOPY DUP1 DUP3 ADD SWAP2 POP POP SWAP1 POP POP SWAP1 JUMP JUMPDEST PUSH1 0x0 PUSH1 0x40 MLOAD SWAP1 POP SWAP1 JUMP JUMPDEST PUSH1 0x0 DUP1 REVERT JUMPDEST PUSH1 0x0 DUP1 REVERT JUMPDEST PUSH1 0x0 DUP1 REVERT JUMPDEST PUSH1 0x0 PUSH1 0x1F NOT PUSH1 0x1F DUP4 ADD AND SWAP1 POP SWAP2 SWAP1 POP JUMP JUMPDEST PUSH32 0x4E487B7100000000000000000000000000000000000000000000000000000000 PUSH1 0x0 MSTORE PUSH1 0x41 PUSH1 0x4 MSTORE PUSH1 0x24 PUSH1 0x0 REVERT JUMPDEST PUSH2 0xF22 DUP3 PUSH2 0xED9 JUMP JUMPDEST DUP2 ADD DUP2 DUP2 LT PUSH8 0xFFFFFFFFFFFFFFFF DUP3 GT OR ISZERO PUSH2 0xF41 JUMPI PUSH2 0xF40 PUSH2 0xEEA JUMP JUMPDEST JUMPDEST DUP1 PUSH1 0x40 MSTORE POP POP POP JUMP JUMPDEST PUSH1 0x0 PUSH2 0xF54 PUSH2 0xEC0 JUMP JUMPDEST SWAP1 POP PUSH2 0xF60 DUP3 DUP3 PUSH2 0xF19 JUMP JUMPDEST SWAP2 SWAP1 POP JUMP JUMPDEST PUSH1 0x0 PUSH8 0xFFFFFFFFFFFFFFFF DUP3 GT ISZERO PUSH2 0xF80 JUMPI PUSH2 0xF7F PUSH2 0xEEA JUMP JUMPDEST JUMPDEST PUSH1 0x20 DUP3 MUL SWAP1 POP SWAP2 SWAP1 POP JUMP JUMPDEST PUSH1 0x0 DUP1 REVERT JUMPDEST PUSH1 0x0 DUP2 SWAP1 POP SWAP2 SWAP1 POP JUMP JUMPDEST PUSH2 0xFA3 DUP2 PUSH2 0xF90 JUMP JUMPDEST DUP2 EQ PUSH2 0xFAE JUMPI PUSH1 0x0 DUP1 REVERT JUMPDEST POP JUMP JUMPDEST PUSH1 0x0 DUP2 CALLDATALOAD SWAP1 POP PUSH2 0xFC0 DUP2 PUSH2 0xF9A JUMP JUMPDEST SWAP3 SWAP2 POP POP JUMP JUMPDEST PUSH1 0x0 PUSH2 0xFD9 PUSH2 0xFD4 DUP5 PUSH2 0xF65 JUMP JUMPDEST PUSH2 0xF4A JUMP JUMPDEST SWAP1 POP DUP1 PUSH1 0x20 DUP5 MUL DUP4 ADD DUP6 DUP2 GT ISZERO PUSH2 0xFF3 JUMPI PUSH2 0xFF2 PUSH2 0xF8B JUMP JUMPDEST JUMPDEST DUP4 JUMPDEST DUP2 DUP2 LT ISZERO PUSH2 0x101C JUMPI DUP1 PUSH2 0x1008 DUP9 DUP3 PUSH2 0xFB1 JUMP JUMPDEST DUP5 MSTORE PUSH1 0x20 DUP5 ADD SWAP4 POP POP PUSH1 0x20 DUP2 ADD SWAP1 POP PUSH2 0xFF5 JUMP JUMPDEST POP POP POP SWAP4 SWAP3 POP POP POP JUMP JUMPDEST PUSH1 0x0 DUP3 PUSH1 0x1F DUP4 ADD SLT PUSH2 0x103B JUMPI PUSH2 0x103A PUSH2 0xED4 JUMP JUMPDEST JUMPDEST PUSH1 0x2 PUSH2 0x1048 DUP5 DUP3 DUP6 PUSH2 0xFC6 JUMP JUMPDEST SWAP2 POP POP SWAP3 SWAP2 POP POP JUMP JUMPDEST PUSH1 0x0 PUSH1 0x40 DUP3 DUP5 SUB SLT ISZERO PUSH2 0x1067 JUMPI PUSH2 0x1066 PUSH2 0xECA JUMP JUMPDEST JUMPDEST PUSH1 0x0 PUSH2 0x1075 DUP5 DUP3 DUP6 ADD PUSH2 0x1026 JUMP JUMPDEST SWAP2 POP POP SWAP3 SWAP2 POP POP JUMP JUMPDEST PUSH1 0x0 DUP2 MLOAD SWAP1 POP SWAP2 SWAP1 POP JUMP JUMPDEST PUSH1 0x0 DUP3 DUP3 MSTORE PUSH1 0x20 DUP3 ADD SWAP1 POP SWAP3 SWAP2 POP POP JUMP JUMPDEST PUSH1 0x0 JUMPDEST DUP4 DUP2 LT ISZERO PUSH2 0x10B8 JUMPI DUP1 DUP3 ADD MLOAD DUP2 DUP5 ADD MSTORE PUSH1 0x20 DUP2 ADD SWAP1 POP PUSH2 0x109D JUMP JUMPDEST PUSH1 0x0 DUP5 DUP5 ADD MSTORE POP POP POP POP JUMP JUMPDEST PUSH1 0x0 PUSH2 0x10CF DUP3 PUSH2 0x107E JUMP JUMPDEST PUSH2 0x10D9 DUP2 DUP6 PUSH2 0x1089 JUMP JUMPDEST SWAP4 POP PUSH2 0x10E9 DUP2 DUP6 PUSH1 0x20 DUP7 ADD PUSH2 0x109A JUMP JUMPDEST PUSH2 0x10F2 DUP2 PUSH2 0xED9 JUMP JUMPDEST DUP5 ADD SWAP2 POP POP SWAP3 SWAP2 POP POP JUMP JUMPDEST PUSH1 0x0 PUSH1 0x2 SWAP1 POP SWAP2 SWAP1 POP JUMP JUMPDEST PUSH1 0x0 DUP2 SWAP1 POP SWAP3 SWAP2 POP POP JUMP JUMPDEST PUSH1 0x0 DUP2 SWAP1 POP SWAP2 SWAP1 POP JUMP JUMPDEST PUSH2 0x1126 DUP2 PUSH2 0xF90 JUMP JUMPDEST DUP3 MSTORE POP POP JUMP JUMPDEST PUSH1 0x0 PUSH2 0x1138 DUP4 DUP4 PUSH2 0x111D JUMP JUMPDEST PUSH1 0x20 DUP4 ADD SWAP1 POP SWAP3 SWAP2 POP POP JUMP JUMPDEST PUSH1 0x0 PUSH1 0x20 DUP3 ADD SWAP1 POP SWAP2 SWAP1 POP JUMP JUMPDEST PUSH2 0x115A DUP2 PUSH2 0x10FD JUMP JUMPDEST PUSH2 0x1164 DUP2 DUP5 PUSH2 0x1108 JUMP JUMPDEST SWAP3 POP PUSH2 0x116F DUP3 PUSH2 0x1113 JUMP JUMPDEST DUP1 PUSH1 0x0 JUMPDEST DUP4 DUP2 LT ISZERO PUSH2 0x11A0 JUMPI DUP2 MLOAD PUSH2 0x1187 DUP8 DUP3 PUSH2 0x112C JUMP JUMPDEST SWAP7 POP PUSH2 0x1192 DUP4 PUSH2 0x1144 JUMP JUMPDEST SWAP3 POP POP PUSH1 0x1 DUP2 ADD SWAP1 POP PUSH2 0x1173 JUMP JUMPDEST POP POP POP POP POP POP JUMP JUMPDEST PUSH1 0x0 PUSH1 0x60 DUP3 ADD SWAP1 POP DUP2 DUP2 SUB PUSH1 0x0 DUP4 ADD MSTORE PUSH2 0x11C2 DUP2 DUP6 PUSH2 0x10C4 JUMP JUMPDEST SWAP1 POP PUSH2 0x11D1 PUSH1 0x20 DUP4 ADD DUP5 PUSH2 0x1151 JUMP JUMPDEST SWAP4 SWAP3 POP POP POP JUMP JUMPDEST PUSH1 0x0 DUP1 PUSH1 0x60 DUP4 DUP6 SUB SLT ISZERO PUSH2 0x11EF JUMPI PUSH2 0x11EE PUSH2 0xECA JUMP JUMPDEST JUMPDEST PUSH1 0x0 PUSH2 0x11FD DUP6 DUP3 DUP7 ADD PUSH2 0xFB1 JUMP JUMPDEST SWAP3 POP POP PUSH1 0x20 PUSH2 0x120E DUP6 DUP3 DUP7 ADD PUSH2 0x1026 JUMP JUMPDEST SWAP2 POP POP SWAP3 POP SWAP3 SWAP1 POP JUMP JUMPDEST PUSH2 0x1221 DUP2 PUSH2 0xF90 JUMP JUMPDEST DUP3 MSTORE POP POP JUMP JUMPDEST PUSH1 0x0 PUSH1 0x20 DUP3 ADD SWAP1 POP PUSH2 0x123C PUSH1 0x0 DUP4 ADD DUP5 PUSH2 0x1218 JUMP JUMPDEST SWAP3 SWAP2 POP POP JUMP JUMPDEST PUSH1 0x0 PUSH32 0xFFFFFFFF00000000000000000000000000000000000000000000000000000000 DUP3 AND SWAP1 POP SWAP2 SWAP1 POP JUMP JUMPDEST PUSH2 0x1277 DUP2 PUSH2 0x1242 JUMP JUMPDEST DUP2 EQ PUSH2 0x1282 JUMPI PUSH1 0x0 DUP1 REVERT JUMPDEST POP JUMP JUMPDEST PUSH1 0x0 DUP2 CALLDATALOAD SWAP1 POP PUSH2 0x1294 DUP2 PUSH2 0x126E JUMP JUMPDEST SWAP3 SWAP2 POP POP JUMP JUMPDEST PUSH1 0x0 DUP1 PUSH1 0x60 DUP4 DUP6 SUB SLT ISZERO PUSH2 0x12B1 JUMPI PUSH2 0x12B0 PUSH2 0xECA JUMP JUMPDEST JUMPDEST PUSH1 0x0 PUSH2 0x12BF DUP6 DUP3 DUP7 ADD PUSH2 0x1285 JUMP JUMPDEST SWAP3 POP POP PUSH1 0x20 PUSH2 0x12D0 DUP6 DUP3 DUP7 ADD PUSH2 0x1026 JUMP JUMPDEST SWAP2 POP POP SWAP3 POP SWAP3 SWAP1 POP JUMP JUMPDEST PUSH32 0x4E487B7100000000000000000000000000000000000000000000000000000000 PUSH1 0x0 MSTORE PUSH1 0x32 PUSH1 0x4 MSTORE PUSH1 0x24 PUSH1 0x0 REVERT JUMPDEST PUSH32 0x4E487B7100000000000000000000000000000000000000000000000000000000 PUSH1 0x0 MSTORE PUSH1 0x11 PUSH1 0x4 MSTORE PUSH1 0x24 PUSH1 0x0 REVERT JUMPDEST PUSH1 0x0 PUSH2 0x1343 DUP3 PUSH2 0xF90 JUMP JUMPDEST SWAP2 POP PUSH2 0x134E DUP4 PUSH2 0xF90 JUMP JUMPDEST SWAP3 POP DUP3 DUP3 MUL PUSH2 0x135C DUP2 PUSH2 0xF90 JUMP JUMPDEST SWAP2 POP DUP3 DUP3 DIV DUP5 EQ DUP4 ISZERO OR PUSH2 0x1373 JUMPI PUSH2 0x1372 PUSH2 0x1309 JUMP JUMPDEST JUMPDEST POP SWAP3 SWAP2 POP POP JUMP JUMPDEST PUSH1 0x0 PUSH2 0x1385 DUP3 PUSH2 0xF90 JUMP JUMPDEST SWAP2 POP PUSH2 0x1390 DUP4 PUSH2 0xF90 JUMP JUMPDEST SWAP3 POP DUP3 DUP3 ADD SWAP1 POP DUP1 DUP3 GT ISZERO PUSH2 0x13A8 JUMPI PUSH2 0x13A7 PUSH2 0x1309 JUMP JUMPDEST JUMPDEST SWAP3 SWAP2 POP POP JUMP JUMPDEST PUSH1 0x0 PUSH1 0x40 DUP3 ADD SWAP1 POP PUSH2 0x13C3 PUSH1 0x0 DUP4 ADD DUP5 PUSH2 0x1151 JUMP JUMPDEST SWAP3 SWAP2 POP POP JUMP JUMPDEST PUSH1 0x0 DUP2 MLOAD SWAP1 POP SWAP2 SWAP1 POP JUMP JUMPDEST PUSH1 0x0 DUP2 SWAP1 POP SWAP3 SWAP2 POP POP JUMP JUMPDEST PUSH1 0x0 PUSH2 0x13EA DUP3 PUSH2 0x13C9 JUMP JUMPDEST PUSH2 0x13F4 DUP2 DUP6 PUSH2 0x13D4 JUMP JUMPDEST SWAP4 POP PUSH2 0x1404 DUP2 DUP6 PUSH1 0x20 DUP7 ADD PUSH2 0x109A JUMP JUMPDEST DUP1 DUP5 ADD SWAP2 POP POP SWAP3 SWAP2 POP POP JUMP JUMPDEST PUSH1 0x0 PUSH2 0x141C DUP3 DUP5 PUSH2 0x13DF JUMP JUMPDEST SWAP2 POP DUP2 SWAP1 POP SWAP3 SWAP2 POP POP JUMP JUMPDEST PUSH32 0x4E487B7100000000000000000000000000000000000000000000000000000000 PUSH1 0x0 MSTORE PUSH1 0x1 PUSH1 0x4 MSTORE PUSH1 0x24 PUSH1 0x0 REVERT JUMPDEST PUSH1 0x0 DUP1 REVERT JUMPDEST PUSH1 0x0 PUSH8 0xFFFFFFFFFFFFFFFF DUP3 GT ISZERO PUSH2 0x1476 JUMPI PUSH2 0x1475 PUSH2 0xEEA JUMP JUMPDEST JUMPDEST PUSH2 0x147F DUP3 PUSH2 0xED9 JUMP JUMPDEST SWAP1 POP PUSH1 0x20 DUP2 ADD SWAP1 POP SWAP2 SWAP1 POP JUMP JUMPDEST PUSH1 0x0 PUSH2 0x149F PUSH2 0x149A DUP5 PUSH2 0x145B JUMP JUMPDEST PUSH2 0xF4A JUMP JUMPDEST SWAP1 POP DUP3 DUP2 MSTORE PUSH1 0x20 DUP2 ADD DUP5 DUP5 DUP5 ADD GT ISZERO PUSH2 0x14BB JUMPI PUSH2 0x14BA PUSH2 0x1456 JUMP JUMPDEST JUMPDEST PUSH2 0x14C6 DUP5 DUP3 DUP6 PUSH2 0x109A JUMP JUMPDEST POP SWAP4 SWAP3 POP POP POP JUMP JUMPDEST PUSH1 0x0 DUP3 PUSH1 0x1F DUP4 ADD SLT PUSH2 0x14E3 JUMPI PUSH2 0x14E2 PUSH2 0xED4 JUMP JUMPDEST JUMPDEST DUP2 MLOAD PUSH2 0x14F3 DUP5 DUP3 PUSH1 0x20 DUP7 ADD PUSH2 0x148C JUMP JUMPDEST SWAP2 POP POP SWAP3 SWAP2 POP POP JUMP JUMPDEST PUSH1 0x0 DUP2 MLOAD SWAP1 POP PUSH2 0x150B DUP2 PUSH2 0xF9A JUMP JUMPDEST SWAP3 SWAP2 POP POP JUMP JUMPDEST PUSH1 0x0 PUSH2 0x1524 PUSH2 0x151F DUP5 PUSH2 0xF65 JUMP JUMPDEST PUSH2 0xF4A JUMP JUMPDEST SWAP1 POP DUP1 PUSH1 0x20 DUP5 MUL DUP4 ADD DUP6 DUP2 GT ISZERO PUSH2 0x153E JUMPI PUSH2 0x153D PUSH2 0xF8B JUMP JUMPDEST JUMPDEST DUP4 JUMPDEST DUP2 DUP2 LT ISZERO PUSH2 0x1567 JUMPI DUP1 PUSH2 0x1553 DUP9 DUP3 PUSH2 0x14FC JUMP JUMPDEST DUP5 MSTORE PUSH1 0x20 DUP5 ADD SWAP4 POP POP PUSH1 0x20 DUP2 ADD SWAP1 POP PUSH2 0x1540 JUMP JUMPDEST POP POP POP SWAP4 SWAP3 POP POP POP JUMP JUMPDEST PUSH1 0x0 DUP3 PUSH1 0x1F DUP4 ADD SLT PUSH2 0x1586 JUMPI PUSH2 0x1585 PUSH2 0xED4 JUMP JUMPDEST JUMPDEST PUSH1 0x2 PUSH2 0x1593 DUP5 DUP3 DUP6 PUSH2 0x1511 JUMP JUMPDEST SWAP2 POP POP SWAP3 SWAP2 POP POP JUMP JUMPDEST PUSH1 0x0 DUP1 PUSH1 0x60 DUP4 DUP6 SUB SLT ISZERO PUSH2 0x15B3 JUMPI PUSH2 0x15B2 PUSH2 0xECA JUMP JUMPDEST JUMPDEST PUSH1 0x0 DUP4 ADD MLOAD PUSH8 0xFFFFFFFFFFFFFFFF DUP2 GT ISZERO PUSH2 0x15D1 JUMPI PUSH2 0x15D0 PUSH2 0xECF JUMP JUMPDEST JUMPDEST PUSH2 0x15DD DUP6 DUP3 DUP7 ADD PUSH2 0x14CE JUMP JUMPDEST SWAP3 POP POP PUSH1 0x20 PUSH2 0x15EE DUP6 DUP3 DUP7 ADD PUSH2 0x1571 JUMP JUMPDEST SWAP2 POP POP SWAP3 POP SWAP3 SWAP1 POP JUMP JUMPDEST PUSH32 0x4E487B7100000000000000000000000000000000000000000000000000000000 PUSH1 0x0 MSTORE PUSH1 0x12 PUSH1 0x4 MSTORE PUSH1 0x24 PUSH1 0x0 REVERT JUMPDEST PUSH1 0x0 PUSH2 0x1632 DUP3 PUSH2 0xF90 JUMP JUMPDEST SWAP2 POP PUSH2 0x163D DUP4 PUSH2 0xF90 JUMP JUMPDEST SWAP3 POP DUP3 PUSH2 0x164D JUMPI PUSH2 0x164C PUSH2 0x15F8 JUMP JUMPDEST JUMPDEST DUP3 DUP3 MOD SWAP1 POP SWAP3 SWAP2 POP POP JUMP INVALID LOG2 PUSH5 0x6970667358 0x22 SLT KECCAK256 0xDE 0xF8 0xE1 DUP13 INVALID MUL COINBASE 0xCA SWAP15 0xEB PUSH12 0xF67D809107C37DF959455E6D 0xF6 ADDMOD 0xE5 0xAE CALLVALUE TIMESTAMP 0xD7 LOG4 0xAC PUSH5 0x736F6C6343 STOP ADDMOD SLT STOP CALLER "
				},
				"gasEstimates": {
					"creation": {
						"codeDepositCost": "1154800",
						"executionCost": "infinite",
						"totalCost": "infinite"
					},
					"external": {
						"getBlueColorString(uint256[2])": "infinite",
						"getColorString(bytes4,uint256[2])": "infinite",
						"getCyanColorString(uint256[2])": "infinite",
						"getGreenBlueColorString(uint256[2])": "infinite",
						"getGreenColorString(uint256[2])": "infinite",
						"getInitialSeed()": "infinite",
						"getMagentaColorString(uint256[2])": "infinite",
						"getMonochromeColorString(uint256[2])": "infinite",
						"getRainbowDarkColorString(uint256[2])": "infinite",
						"getRainbowLightColorString(uint256[2])": "infinite",
						"getRedBlueColorString(uint256[2])": "infinite",
						"getRedColorString(uint256[2])": "infinite",
						"getRedGreenColorString(uint256[2])": "infinite",
						"getYellowColorString(uint256[2])": "infinite",
						"nextInt(uint256,uint256[2])": "infinite",
						"nextInt2P(uint256,uint256[2])": "infinite"
					}
				},
				"methodIdentifiers": {
					"getBlueColorString(uint256[2])": "1336e0da",
					"getColorString(bytes4,uint256[2])": "4d424a32",
					"getCyanColorString(uint256[2])": "e79fdacb",
					"getGreenBlueColorString(uint256[2])": "fcfe40e0",
					"getGreenColorString(uint256[2])": "dee0a5bb",
					"getInitialSeed()": "79147850",
					"getMagentaColorString(uint256[2])": "0a609c3b",
					"getMonochromeColorString(uint256[2])": "e184526a",
					"getRainbowDarkColorString(uint256[2])": "3708f98c",
					"getRainbowLightColorString(uint256[2])": "a920c0ae",
					"getRedBlueColorString(uint256[2])": "ca8666e0",
					"getRedColorString(uint256[2])": "4da4d590",
					"getRedGreenColorString(uint256[2])": "ff08cbe7",
					"getYellowColorString(uint256[2])": "77b31f88",
					"nextInt(uint256,uint256[2])": "f8006f3b",
					"nextInt2P(uint256,uint256[2])": "414163c1"
				}
			},
			"storageLayout": {
				"storage": [],
				"types": null
			},
			"userdoc": {
				"kind": "user",
				"methods": {},
				"version": 1
			}
		}
	}
}