{
	"contracts/pixel_pictasia_utils.sol": {
		"PixelPictasiaUtils": {
			"abi": [
				{
					"inputs": [],
					"stateMutability": "payable",
					"type": "constructor"
				},
				{
					"inputs": [
						{
							"internalType": "bytes1[]",
							"name": "_buf",
							"type": "bytes1[]"
						},
						{
							"internalType": "uint256",
							"name": "_len",
							"type": "uint256"
						}
					],
					"name": "adler32",
					"outputs": [
						{
							"internalType": "uint256",
							"name": "",
							"type": "uint256"
						}
					],
					"stateMutability": "pure",
					"type": "function"
				},
				{
					"inputs": [
						{
							"internalType": "bytes1[]",
							"name": "_buf",
							"type": "bytes1[]"
						},
						{
							"internalType": "uint256",
							"name": "_len",
							"type": "uint256"
						}
					],
					"name": "crc",
					"outputs": [
						{
							"internalType": "uint256",
							"name": "",
							"type": "uint256"
						}
					],
					"stateMutability": "view",
					"type": "function"
				},
				{
					"inputs": [
						{
							"internalType": "uint256",
							"name": "_width",
							"type": "uint256"
						},
						{
							"internalType": "uint256",
							"name": "_height",
							"type": "uint256"
						},
						{
							"components": [
								{
									"internalType": "bytes1[]",
									"name": "red",
									"type": "bytes1[]"
								},
								{
									"internalType": "bytes1[]",
									"name": "green",
									"type": "bytes1[]"
								},
								{
									"internalType": "bytes1[]",
									"name": "blue",
									"type": "bytes1[]"
								}
							],
							"internalType": "struct PixelPictasiaUtils.PNGData",
							"name": "pngData",
							"type": "tuple"
						}
					],
					"name": "createPNG",
					"outputs": [
						{
							"internalType": "bytes",
							"name": "",
							"type": "bytes"
						}
					],
					"stateMutability": "view",
					"type": "function"
				},
				{
					"inputs": [],
					"name": "createPNGString",
					"outputs": [
						{
							"internalType": "string",
							"name": "",
							"type": "string"
						}
					],
					"stateMutability": "view",
					"type": "function"
				}
			],
			"devdoc": {
				"kind": "dev",
				"methods": {},
				"version": 1
			},
			"evm": {
				"assembly": "    /* \"contracts/pixel_pictasia_utils.sol\":4602:14643  contract PixelPictasiaUtils {... */\n  mstore(0x40, 0x80)\n    /* \"contracts/pixel_pictasia_utils.sol\":4709:4725  createCRCTable() */\n  tag_3\n    /* \"contracts/pixel_pictasia_utils.sol\":4709:4723  createCRCTable */\n  tag_4\n    /* \"contracts/pixel_pictasia_utils.sol\":4709:4725  createCRCTable() */\n  jump\t// in\ntag_3:\n    /* \"contracts/pixel_pictasia_utils.sol\":4602:14643  contract PixelPictasiaUtils {... */\n  jump(tag_22)\n    /* \"contracts/pixel_pictasia_utils.sol\":5216:5612  function createCRCTable() private {... */\ntag_4:\n    /* \"contracts/pixel_pictasia_utils.sol\":5265:5274  uint256 n */\n  0x00\n    /* \"contracts/pixel_pictasia_utils.sol\":5261:5605  for(uint256 n = 0; n < 256; n++) {... */\ntag_7:\n    /* \"contracts/pixel_pictasia_utils.sol\":5284:5287  256 */\n  0x0100\n    /* \"contracts/pixel_pictasia_utils.sol\":5280:5281  n */\n  dup2\n    /* \"contracts/pixel_pictasia_utils.sol\":5280:5287  n < 256 */\n  lt\n    /* \"contracts/pixel_pictasia_utils.sol\":5261:5605  for(uint256 n = 0; n < 256; n++) {... */\n  iszero\n  tag_8\n  jumpi\n    /* \"contracts/pixel_pictasia_utils.sol\":5321:5322  n */\n  dup1\n    /* \"contracts/pixel_pictasia_utils.sol\":5309:5318  uint256 c */\n  0x00\n    /* \"contracts/pixel_pictasia_utils.sol\":5339:5563  for(uint256 k = 0; k < 8; k++) {... */\ntag_10:\n    /* \"contracts/pixel_pictasia_utils.sol\":5362:5363  8 */\n  0x08\n    /* \"contracts/pixel_pictasia_utils.sol\":5358:5359  k */\n  dup2\n    /* \"contracts/pixel_pictasia_utils.sol\":5358:5363  k < 8 */\n  lt\n    /* \"contracts/pixel_pictasia_utils.sol\":5339:5563  for(uint256 k = 0; k < 8; k++) {... */\n  iszero\n  tag_11\n  jumpi\n    /* \"contracts/pixel_pictasia_utils.sol\":5392:5393  c */\n  dup2\n    /* \"contracts/pixel_pictasia_utils.sol\":5396:5397  1 */\n  0x01\n    /* \"contracts/pixel_pictasia_utils.sol\":5392:5397  c & 1 */\n  and\n    /* \"contracts/pixel_pictasia_utils.sol\":5401:5402  1 */\n  0x01\n    /* \"contracts/pixel_pictasia_utils.sol\":5392:5402  c & 1 == 1 */\n  sub\n    /* \"contracts/pixel_pictasia_utils.sol\":5389:5548  if(c & 1 == 1) {... */\n  tag_13\n  jumpi\n    /* \"contracts/pixel_pictasia_utils.sol\":5450:5451  1 */\n  0x01\n    /* \"contracts/pixel_pictasia_utils.sol\":5445:5446  c */\n  dup3\n    /* \"contracts/pixel_pictasia_utils.sol\":5445:5451  c >> 1 */\n  swap1\n  shr\n    /* \"contracts/pixel_pictasia_utils.sol\":5431:5441  3988292384 */\n  0xedb88320\n    /* \"contracts/pixel_pictasia_utils.sol\":5431:5452  3988292384 ^ (c >> 1) */\n  xor\n    /* \"contracts/pixel_pictasia_utils.sol\":5427:5452  c = 3988292384 ^ (c >> 1) */\n  swap2\n  pop\n    /* \"contracts/pixel_pictasia_utils.sol\":5389:5548  if(c & 1 == 1) {... */\n  jump(tag_14)\ntag_13:\n    /* \"contracts/pixel_pictasia_utils.sol\":5527:5528  1 */\n  0x01\n    /* \"contracts/pixel_pictasia_utils.sol\":5522:5523  c */\n  dup3\n    /* \"contracts/pixel_pictasia_utils.sol\":5522:5528  c >> 1 */\n  swap1\n  shr\n    /* \"contracts/pixel_pictasia_utils.sol\":5518:5528  c = c >> 1 */\n  swap2\n  pop\n    /* \"contracts/pixel_pictasia_utils.sol\":5389:5548  if(c & 1 == 1) {... */\ntag_14:\n    /* \"contracts/pixel_pictasia_utils.sol\":5365:5368  k++ */\n  dup1\n  tag_15\n  dup2\n  tag_16\n  jump\t// in\ntag_15:\n  swap2\n  pop\n  pop\n    /* \"contracts/pixel_pictasia_utils.sol\":5339:5563  for(uint256 k = 0; k < 8; k++) {... */\n  jump(tag_10)\ntag_11:\n  pop\n    /* \"contracts/pixel_pictasia_utils.sol\":5592:5593  c */\n  dup1\n    /* \"contracts/pixel_pictasia_utils.sol\":5577:5586  CRC_TABLE */\n  0x00\n    /* \"contracts/pixel_pictasia_utils.sol\":5587:5588  n */\n  dup4\n    /* \"contracts/pixel_pictasia_utils.sol\":5577:5589  CRC_TABLE[n] */\n  0x0100\n  dup2\n  lt\n  tag_18\n  jumpi\n  tag_18\n  tag_19\n  jump\t// in\ntag_18:\n  add\n    /* \"contracts/pixel_pictasia_utils.sol\":5577:5593  CRC_TABLE[n] = c */\n  sstore\n  pop\n    /* \"contracts/pixel_pictasia_utils.sol\":5289:5292  n++ */\n  dup1\n  tag_21\n  dup2\n  tag_16\n  jump\t// in\ntag_21:\n  swap2\n  pop\n  pop\n    /* \"contracts/pixel_pictasia_utils.sol\":5261:5605  for(uint256 n = 0; n < 256; n++) {... */\n  jump(tag_7)\ntag_8:\n  pop\n    /* \"contracts/pixel_pictasia_utils.sol\":5216:5612  function createCRCTable() private {... */\n  jump\t// out\n    /* \"#utility.yul\":14:246   */\ntag_16:\n    /* \"#utility.yul\":53:56   */\n  0x00\n    /* \"#utility.yul\":74:91   */\n  0x01\n  dup3\n  add\n    /* \"#utility.yul\":71:211   */\n  tag_24\n  jumpi\n    /* \"#utility.yul\":133:143   */\n  0x4e487b71\n    /* \"#utility.yul\":128:131   */\n  0xe0\n    /* \"#utility.yul\":124:144   */\n  shl\n    /* \"#utility.yul\":121:122   */\n  0x00\n    /* \"#utility.yul\":114:145   */\n  mstore\n    /* \"#utility.yul\":168:172   */\n  0x11\n    /* \"#utility.yul\":165:166   */\n  0x04\n    /* \"#utility.yul\":158:173   */\n  mstore\n    /* \"#utility.yul\":196:200   */\n  0x24\n    /* \"#utility.yul\":193:194   */\n  0x00\n    /* \"#utility.yul\":186:201   */\n  revert\n    /* \"#utility.yul\":71:211   */\ntag_24:\n  pop\n    /* \"#utility.yul\":238:239   */\n  0x01\n    /* \"#utility.yul\":227:240   */\n  add\n  swap1\n    /* \"#utility.yul\":14:246   */\n  jump\t// out\n    /* \"#utility.yul\":251:378   */\ntag_19:\n    /* \"#utility.yul\":312:322   */\n  0x4e487b71\n    /* \"#utility.yul\":307:310   */\n  0xe0\n    /* \"#utility.yul\":303:323   */\n  shl\n    /* \"#utility.yul\":300:301   */\n  0x00\n    /* \"#utility.yul\":293:324   */\n  mstore\n    /* \"#utility.yul\":343:347   */\n  0x32\n    /* \"#utility.yul\":340:341   */\n  0x04\n    /* \"#utility.yul\":333:348   */\n  mstore\n    /* \"#utility.yul\":367:371   */\n  0x24\n    /* \"#utility.yul\":364:365   */\n  0x00\n    /* \"#utility.yul\":357:372   */\n  revert\n    /* \"#utility.yul\":251:378   */\ntag_22:\n    /* \"contracts/pixel_pictasia_utils.sol\":4602:14643  contract PixelPictasiaUtils {... */\n  dataSize(sub_0)\n  dup1\n  dataOffset(sub_0)\n  0x00\n  codecopy\n  0x00\n  return\nstop\n\nsub_0: assembly {\n        /* \"contracts/pixel_pictasia_utils.sol\":4602:14643  contract PixelPictasiaUtils {... */\n      mstore(0x40, 0x80)\n      callvalue\n      dup1\n      iszero\n      tag_1\n      jumpi\n      0x00\n      dup1\n      revert\n    tag_1:\n      pop\n      jumpi(tag_2, lt(calldatasize, 0x04))\n      shr(0xe0, calldataload(0x00))\n      dup1\n      0x19858b36\n      eq\n      tag_3\n      jumpi\n      dup1\n      0x48b508b7\n      eq\n      tag_4\n      jumpi\n      dup1\n      0xf6d57f9e\n      eq\n      tag_5\n      jumpi\n      dup1\n      0xfe2a3649\n      eq\n      tag_6\n      jumpi\n    tag_2:\n      0x00\n      dup1\n      revert\n        /* \"contracts/pixel_pictasia_utils.sol\":4901:5208  function adler32(bytes1[] memory _buf, uint256 _len) public pure returns (uint256) {... */\n    tag_3:\n      tag_7\n      tag_8\n      calldatasize\n      0x04\n      tag_9\n      jump\t// in\n    tag_8:\n      tag_10\n      jump\t// in\n    tag_7:\n      mload(0x40)\n        /* \"#utility.yul\":2140:2165   */\n      swap1\n      dup2\n      mstore\n        /* \"#utility.yul\":2128:2130   */\n      0x20\n        /* \"#utility.yul\":2113:2131   */\n      add\n        /* \"contracts/pixel_pictasia_utils.sol\":4901:5208  function adler32(bytes1[] memory _buf, uint256 _len) public pure returns (uint256) {... */\n    tag_11:\n      mload(0x40)\n      dup1\n      swap2\n      sub\n      swap1\n      return\n        /* \"contracts/pixel_pictasia_utils.sol\":6022:6753  function createPNGString() public view returns (string memory) {... */\n    tag_4:\n      tag_13\n      tag_14\n      jump\t// in\n    tag_13:\n      mload(0x40)\n      tag_11\n      swap2\n      swap1\n      tag_16\n      jump\t// in\n        /* \"contracts/pixel_pictasia_utils.sol\":6761:7422  function createPNG(uint256 _width, uint256 _height, PNGData memory pngData) public view returns (bytes memory) {... */\n    tag_5:\n      tag_13\n      tag_18\n      calldatasize\n      0x04\n      tag_19\n      jump\t// in\n    tag_18:\n      tag_20\n      jump\t// in\n        /* \"contracts/pixel_pictasia_utils.sol\":4741:4893  function crc(bytes1[] memory _buf, uint256 _len) public view returns (uint256) {... */\n    tag_6:\n      tag_7\n      tag_24\n      calldatasize\n      0x04\n      tag_9\n      jump\t// in\n    tag_24:\n      tag_25\n      jump\t// in\n        /* \"contracts/pixel_pictasia_utils.sol\":4901:5208  function adler32(bytes1[] memory _buf, uint256 _len) public pure returns (uint256) {... */\n    tag_10:\n        /* \"contracts/pixel_pictasia_utils.sol\":4975:4982  uint256 */\n      0x00\n        /* \"contracts/pixel_pictasia_utils.sol\":5007:5008  1 */\n      0x01\n        /* \"contracts/pixel_pictasia_utils.sol\":4975:4982  uint256 */\n      dup2\n      dup1\n        /* \"contracts/pixel_pictasia_utils.sol\":5053:5160  for(uint256 i = 0; i < _len; i++) {... */\n    tag_28:\n        /* \"contracts/pixel_pictasia_utils.sol\":5076:5080  _len */\n      dup5\n        /* \"contracts/pixel_pictasia_utils.sol\":5072:5073  i */\n      dup2\n        /* \"contracts/pixel_pictasia_utils.sol\":5072:5080  i < _len */\n      lt\n        /* \"contracts/pixel_pictasia_utils.sol\":5053:5160  for(uint256 i = 0; i < _len; i++) {... */\n      iszero\n      tag_29\n      jumpi\n        /* \"contracts/pixel_pictasia_utils.sol\":5116:5120  _buf */\n      dup6\n        /* \"contracts/pixel_pictasia_utils.sol\":5121:5122  i */\n      dup2\n        /* \"contracts/pixel_pictasia_utils.sol\":5116:5123  _buf[i] */\n      dup2\n      mload\n      dup2\n      lt\n      tag_32\n      jumpi\n      tag_32\n      tag_33\n      jump\t// in\n    tag_32:\n      0x20\n      mul\n      0x20\n      add\n      add\n      mload\n        /* \"contracts/pixel_pictasia_utils.sol\":5110:5124  uint8(_buf[i]) */\n      0xf8\n      shr\n        /* \"contracts/pixel_pictasia_utils.sol\":5106:5124  A + uint8(_buf[i]) */\n      0xff\n      and\n        /* \"contracts/pixel_pictasia_utils.sol\":5106:5107  A */\n      dup4\n        /* \"contracts/pixel_pictasia_utils.sol\":5106:5124  A + uint8(_buf[i]) */\n      tag_34\n      swap2\n      swap1\n      tag_35\n      jump\t// in\n    tag_34:\n        /* \"contracts/pixel_pictasia_utils.sol\":5102:5124  A = A + uint8(_buf[i]) */\n      swap3\n      pop\n        /* \"contracts/pixel_pictasia_utils.sol\":5143:5148  B + A */\n      tag_36\n        /* \"contracts/pixel_pictasia_utils.sol\":5102:5124  A = A + uint8(_buf[i]) */\n      dup4\n        /* \"contracts/pixel_pictasia_utils.sol\":5143:5144  B */\n      dup4\n        /* \"contracts/pixel_pictasia_utils.sol\":5143:5148  B + A */\n      tag_35\n      jump\t// in\n    tag_36:\n        /* \"contracts/pixel_pictasia_utils.sol\":5139:5148  B = B + A */\n      swap2\n      pop\n        /* \"contracts/pixel_pictasia_utils.sol\":5082:5085  i++ */\n      dup1\n      tag_37\n      dup2\n      tag_38\n      jump\t// in\n    tag_37:\n      swap2\n      pop\n      pop\n        /* \"contracts/pixel_pictasia_utils.sol\":5053:5160  for(uint256 i = 0; i < _len; i++) {... */\n      jump(tag_28)\n    tag_29:\n      pop\n        /* \"contracts/pixel_pictasia_utils.sol\":5199:5200  A */\n      dup2\n        /* \"contracts/pixel_pictasia_utils.sol\":5187:5196  B * 65536 */\n      tag_39\n        /* \"contracts/pixel_pictasia_utils.sol\":5187:5188  B */\n      dup3\n        /* \"contracts/pixel_pictasia_utils.sol\":5191:5196  65536 */\n      0x010000\n        /* \"contracts/pixel_pictasia_utils.sol\":5187:5196  B * 65536 */\n      tag_40\n      jump\t// in\n    tag_39:\n        /* \"contracts/pixel_pictasia_utils.sol\":5187:5200  B * 65536 + A */\n      tag_41\n      swap2\n      swap1\n      tag_35\n      jump\t// in\n    tag_41:\n        /* \"contracts/pixel_pictasia_utils.sol\":5180:5200  return B * 65536 + A */\n      swap3\n      pop\n      pop\n      pop\n        /* \"contracts/pixel_pictasia_utils.sol\":4901:5208  function adler32(bytes1[] memory _buf, uint256 _len) public pure returns (uint256) {... */\n    tag_27:\n      swap3\n      swap2\n      pop\n      pop\n      jump\t// out\n        /* \"contracts/pixel_pictasia_utils.sol\":6022:6753  function createPNGString() public view returns (string memory) {... */\n    tag_14:\n        /* \"contracts/pixel_pictasia_utils.sol\":6121:6179  PNGData(new bytes1[](3), new bytes1[](3), new bytes1[](3)) */\n      0x40\n      dup1\n      mload\n        /* \"contracts/pixel_pictasia_utils.sol\":6142:6143  3 */\n      0x03\n        /* \"contracts/pixel_pictasia_utils.sol\":6070:6083  string memory */\n      0x60\n        /* \"contracts/pixel_pictasia_utils.sol\":6121:6179  PNGData(new bytes1[](3), new bytes1[](3), new bytes1[](3)) */\n      dup1\n      dup4\n      add\n        /* \"contracts/pixel_pictasia_utils.sol\":6129:6144  new bytes1[](3) */\n      dup3\n      dup2\n      mstore\n      0xe0\n      dup5\n      add\n      swap1\n      swap5\n      mstore\n        /* \"contracts/pixel_pictasia_utils.sol\":6070:6083  string memory */\n      swap3\n      0x00\n      swap3\n        /* \"contracts/pixel_pictasia_utils.sol\":6121:6179  PNGData(new bytes1[](3), new bytes1[](3), new bytes1[](3)) */\n      swap2\n      dup3\n      swap2\n      swap1\n        /* \"contracts/pixel_pictasia_utils.sol\":6129:6144  new bytes1[](3) */\n      0x80\n      dup4\n      add\n        /* \"contracts/pixel_pictasia_utils.sol\":6070:6083  string memory */\n      dup7\n      dup1\n        /* \"contracts/pixel_pictasia_utils.sol\":6129:6144  new bytes1[](3) */\n      calldatasize\n      dup4\n      calldatacopy\n      pop\n      pop\n      pop\n        /* \"contracts/pixel_pictasia_utils.sol\":6121:6179  PNGData(new bytes1[](3), new bytes1[](3), new bytes1[](3)) */\n      dup2\n      mstore\n        /* \"contracts/pixel_pictasia_utils.sol\":6146:6161  new bytes1[](3) */\n      0x40\n      dup1\n      mload\n        /* \"contracts/pixel_pictasia_utils.sol\":6159:6160  3 */\n      0x03\n        /* \"contracts/pixel_pictasia_utils.sol\":6146:6161  new bytes1[](3) */\n      dup1\n      dup3\n      mstore\n      0x80\n      dup3\n      add\n      swap1\n      swap3\n      mstore\n        /* \"contracts/pixel_pictasia_utils.sol\":6121:6179  PNGData(new bytes1[](3), new bytes1[](3), new bytes1[](3)) */\n      0x20\n      swap3\n      dup4\n      add\n      swap3\n        /* \"contracts/pixel_pictasia_utils.sol\":6146:6161  new bytes1[](3) */\n      swap1\n      swap2\n        /* \"contracts/pixel_pictasia_utils.sol\":6159:6160  3 */\n      swap1\n        /* \"contracts/pixel_pictasia_utils.sol\":6146:6161  new bytes1[](3) */\n      dup3\n      add\n      0x60\n      dup1\n      calldatasize\n      dup4\n      calldatacopy\n      pop\n      pop\n      pop\n        /* \"contracts/pixel_pictasia_utils.sol\":6121:6179  PNGData(new bytes1[](3), new bytes1[](3), new bytes1[](3)) */\n      dup2\n      mstore\n        /* \"contracts/pixel_pictasia_utils.sol\":6163:6178  new bytes1[](3) */\n      0x40\n      dup1\n      mload\n        /* \"contracts/pixel_pictasia_utils.sol\":6176:6177  3 */\n      0x03\n        /* \"contracts/pixel_pictasia_utils.sol\":6163:6178  new bytes1[](3) */\n      dup1\n      dup3\n      mstore\n      0x80\n      dup3\n      add\n      swap1\n      swap3\n      mstore\n        /* \"contracts/pixel_pictasia_utils.sol\":6121:6179  PNGData(new bytes1[](3), new bytes1[](3), new bytes1[](3)) */\n      0x20\n      swap3\n      dup4\n      add\n      swap3\n        /* \"contracts/pixel_pictasia_utils.sol\":6163:6178  new bytes1[](3) */\n      swap1\n      swap2\n        /* \"contracts/pixel_pictasia_utils.sol\":6176:6177  3 */\n      swap1\n        /* \"contracts/pixel_pictasia_utils.sol\":6163:6178  new bytes1[](3) */\n      dup3\n      add\n      0x60\n      dup1\n      calldatasize\n      dup4\n      calldatacopy\n      pop\n      pop\n      pop\n        /* \"contracts/pixel_pictasia_utils.sol\":6121:6179  PNGData(new bytes1[](3), new bytes1[](3), new bytes1[](3)) */\n      swap1\n      mstore\n        /* \"contracts/pixel_pictasia_utils.sol\":6190:6201  pngData.red */\n      dup1\n      mload\n        /* \"contracts/pixel_pictasia_utils.sol\":6190:6204  pngData.red[0] */\n      dup1\n      mload\n        /* \"contracts/pixel_pictasia_utils.sol\":6096:6179  PNGData memory pngData = PNGData(new bytes1[](3), new bytes1[](3), new bytes1[](3)) */\n      swap2\n      swap3\n      pop\n      not(sub(shl(0xf8, 0x01), 0x01))\n        /* \"contracts/pixel_pictasia_utils.sol\":6190:6214  pngData.red[0] = hex\"FF\" */\n      swap2\n        /* \"contracts/pixel_pictasia_utils.sol\":6190:6201  pngData.red */\n      0x00\n      swap1\n        /* \"contracts/pixel_pictasia_utils.sol\":6190:6204  pngData.red[0] */\n      tag_54\n      jumpi\n      tag_54\n      tag_33\n      jump\t// in\n    tag_54:\n      not(sub(shl(0xf8, 0x01), 0x01))\n        /* \"contracts/pixel_pictasia_utils.sol\":6190:6214  pngData.red[0] = hex\"FF\" */\n      swap1\n      swap3\n      and\n        /* \"contracts/pixel_pictasia_utils.sol\":6190:6204  pngData.red[0] */\n      0x20\n      swap3\n      dup4\n      mul\n      swap2\n      swap1\n      swap2\n      add\n      swap1\n      swap2\n      add\n        /* \"contracts/pixel_pictasia_utils.sol\":6190:6214  pngData.red[0] = hex\"FF\" */\n      mstore\n        /* \"contracts/pixel_pictasia_utils.sol\":6225:6236  pngData.red */\n      dup1\n      mload\n        /* \"contracts/pixel_pictasia_utils.sol\":6225:6239  pngData.red[1] */\n      dup1\n      mload\n        /* \"contracts/pixel_pictasia_utils.sol\":6225:6249  pngData.red[1] = hex\"00\" */\n      0x00\n      swap2\n        /* \"contracts/pixel_pictasia_utils.sol\":6225:6236  pngData.red */\n      swap1\n        /* \"contracts/pixel_pictasia_utils.sol\":6237:6238  1 */\n      0x01\n      swap1\n        /* \"contracts/pixel_pictasia_utils.sol\":6225:6239  pngData.red[1] */\n      dup2\n      lt\n      tag_56\n      jumpi\n      tag_56\n      tag_33\n      jump\t// in\n    tag_56:\n      not(sub(shl(0xf8, 0x01), 0x01))\n        /* \"contracts/pixel_pictasia_utils.sol\":6225:6249  pngData.red[1] = hex\"00\" */\n      swap1\n      swap3\n      and\n        /* \"contracts/pixel_pictasia_utils.sol\":6225:6239  pngData.red[1] */\n      0x20\n      swap3\n      dup4\n      mul\n      swap2\n      swap1\n      swap2\n      add\n      swap1\n      swap2\n      add\n        /* \"contracts/pixel_pictasia_utils.sol\":6225:6249  pngData.red[1] = hex\"00\" */\n      mstore\n        /* \"contracts/pixel_pictasia_utils.sol\":6260:6271  pngData.red */\n      dup1\n      mload\n        /* \"contracts/pixel_pictasia_utils.sol\":6260:6274  pngData.red[2] */\n      dup1\n      mload\n        /* \"contracts/pixel_pictasia_utils.sol\":6260:6284  pngData.red[2] = hex\"00\" */\n      0x00\n      swap2\n        /* \"contracts/pixel_pictasia_utils.sol\":6260:6271  pngData.red */\n      swap1\n        /* \"contracts/pixel_pictasia_utils.sol\":6272:6273  2 */\n      0x02\n      swap1\n        /* \"contracts/pixel_pictasia_utils.sol\":6260:6274  pngData.red[2] */\n      dup2\n      lt\n      tag_58\n      jumpi\n      tag_58\n      tag_33\n      jump\t// in\n    tag_58:\n      not(sub(shl(0xf8, 0x01), 0x01))\n        /* \"contracts/pixel_pictasia_utils.sol\":6260:6284  pngData.red[2] = hex\"00\" */\n      swap1\n      swap3\n      and\n        /* \"contracts/pixel_pictasia_utils.sol\":6260:6274  pngData.red[2] */\n      0x20\n      swap3\n      dup4\n      mul\n      swap2\n      swap1\n      swap2\n      add\n      dup3\n      add\n        /* \"contracts/pixel_pictasia_utils.sol\":6260:6284  pngData.red[2] = hex\"00\" */\n      mstore\n        /* \"contracts/pixel_pictasia_utils.sol\":6295:6308  pngData.green */\n      dup2\n      add\n      mload\n        /* \"contracts/pixel_pictasia_utils.sol\":6295:6311  pngData.green[0] */\n      dup1\n      mload\n        /* \"contracts/pixel_pictasia_utils.sol\":6295:6321  pngData.green[0] = hex\"00\" */\n      0x00\n      swap2\n        /* \"contracts/pixel_pictasia_utils.sol\":6295:6308  pngData.green */\n      swap1\n        /* \"contracts/pixel_pictasia_utils.sol\":6295:6321  pngData.green[0] = hex\"00\" */\n      dup3\n      swap1\n        /* \"contracts/pixel_pictasia_utils.sol\":6295:6311  pngData.green[0] */\n      tag_60\n      jumpi\n      tag_60\n      tag_33\n      jump\t// in\n    tag_60:\n      not(sub(shl(0xf8, 0x01), 0x01))\n        /* \"contracts/pixel_pictasia_utils.sol\":6295:6321  pngData.green[0] = hex\"00\" */\n      swap3\n      dup4\n      and\n        /* \"contracts/pixel_pictasia_utils.sol\":6295:6311  pngData.green[0] */\n      0x20\n      swap2\n      dup3\n      mul\n      swap3\n      swap1\n      swap3\n      add\n      dup2\n      add\n        /* \"contracts/pixel_pictasia_utils.sol\":6295:6321  pngData.green[0] = hex\"00\" */\n      swap2\n      swap1\n      swap2\n      mstore\n        /* \"contracts/pixel_pictasia_utils.sol\":6332:6345  pngData.green */\n      dup3\n      add\n      mload\n        /* \"contracts/pixel_pictasia_utils.sol\":6332:6348  pngData.green[1] */\n      dup1\n      mload\n        /* \"contracts/pixel_pictasia_utils.sol\":6346:6347  1 */\n      0x01\n      swap1\n        /* \"contracts/pixel_pictasia_utils.sol\":6332:6348  pngData.green[1] */\n      dup2\n      lt\n      tag_62\n      jumpi\n      tag_62\n      tag_33\n      jump\t// in\n    tag_62:\n      not(sub(shl(0xf8, 0x01), 0x01))\n        /* \"contracts/pixel_pictasia_utils.sol\":6332:6358  pngData.green[1] = hex\"FF\" */\n      swap1\n      swap3\n      and\n        /* \"contracts/pixel_pictasia_utils.sol\":6332:6348  pngData.green[1] */\n      0x20\n      swap3\n      dup4\n      mul\n      swap2\n      swap1\n      swap2\n      add\n      dup3\n      add\n        /* \"contracts/pixel_pictasia_utils.sol\":6332:6358  pngData.green[1] = hex\"FF\" */\n      mstore\n        /* \"contracts/pixel_pictasia_utils.sol\":6369:6382  pngData.green */\n      dup2\n      add\n      mload\n        /* \"contracts/pixel_pictasia_utils.sol\":6369:6385  pngData.green[2] */\n      dup1\n      mload\n        /* \"contracts/pixel_pictasia_utils.sol\":6369:6395  pngData.green[2] = hex\"00\" */\n      0x00\n      swap2\n        /* \"contracts/pixel_pictasia_utils.sol\":6369:6382  pngData.green */\n      swap1\n        /* \"contracts/pixel_pictasia_utils.sol\":6383:6384  2 */\n      0x02\n      swap1\n        /* \"contracts/pixel_pictasia_utils.sol\":6369:6385  pngData.green[2] */\n      dup2\n      lt\n      tag_64\n      jumpi\n      tag_64\n      tag_33\n      jump\t// in\n    tag_64:\n      0x20\n      mul\n      0x20\n      add\n      add\n        /* \"contracts/pixel_pictasia_utils.sol\":6369:6395  pngData.green[2] = hex\"00\" */\n      swap1\n      not(sub(shl(0xf8, 0x01), 0x01))\n      and\n      swap1\n      dup2\n      not(sub(shl(0xf8, 0x01), 0x01))\n      and\n      dup2\n      mstore\n      pop\n      pop\n        /* \"contracts/pixel_pictasia_utils.sol\":6406:6431  pngData.blue[0] = hex\"00\" */\n      0x00\n        /* \"contracts/pixel_pictasia_utils.sol\":6406:6413  pngData */\n      dup2\n        /* \"contracts/pixel_pictasia_utils.sol\":6406:6418  pngData.blue */\n      0x40\n      add\n      mload\n        /* \"contracts/pixel_pictasia_utils.sol\":6419:6420  0 */\n      0x00\n        /* \"contracts/pixel_pictasia_utils.sol\":6406:6421  pngData.blue[0] */\n      dup2\n      mload\n      dup2\n      lt\n      tag_66\n      jumpi\n      tag_66\n      tag_33\n      jump\t// in\n    tag_66:\n      0x20\n      mul\n      0x20\n      add\n      add\n        /* \"contracts/pixel_pictasia_utils.sol\":6406:6431  pngData.blue[0] = hex\"00\" */\n      swap1\n      not(sub(shl(0xf8, 0x01), 0x01))\n      and\n      swap1\n      dup2\n      not(sub(shl(0xf8, 0x01), 0x01))\n      and\n      dup2\n      mstore\n      pop\n      pop\n        /* \"contracts/pixel_pictasia_utils.sol\":6442:6467  pngData.blue[1] = hex\"00\" */\n      0x00\n        /* \"contracts/pixel_pictasia_utils.sol\":6442:6449  pngData */\n      dup2\n        /* \"contracts/pixel_pictasia_utils.sol\":6442:6454  pngData.blue */\n      0x40\n      add\n      mload\n        /* \"contracts/pixel_pictasia_utils.sol\":6455:6456  1 */\n      0x01\n        /* \"contracts/pixel_pictasia_utils.sol\":6442:6457  pngData.blue[1] */\n      dup2\n      mload\n      dup2\n      lt\n      tag_68\n      jumpi\n      tag_68\n      tag_33\n      jump\t// in\n    tag_68:\n      not(sub(shl(0xf8, 0x01), 0x01))\n        /* \"contracts/pixel_pictasia_utils.sol\":6442:6467  pngData.blue[1] = hex\"00\" */\n      swap3\n      dup4\n      and\n        /* \"contracts/pixel_pictasia_utils.sol\":6442:6457  pngData.blue[1] */\n      0x20\n      swap2\n      dup3\n      mul\n      swap3\n      swap1\n      swap3\n      add\n      add\n        /* \"contracts/pixel_pictasia_utils.sol\":6442:6467  pngData.blue[1] = hex\"00\" */\n      mstore\n        /* \"contracts/pixel_pictasia_utils.sol\":6478:6490  pngData.blue */\n      0x40\n      dup3\n      add\n      mload\n        /* \"contracts/pixel_pictasia_utils.sol\":6478:6493  pngData.blue[2] */\n      dup1\n      mload\n        /* \"contracts/pixel_pictasia_utils.sol\":6491:6492  2 */\n      0x02\n      swap1\n        /* \"contracts/pixel_pictasia_utils.sol\":6478:6493  pngData.blue[2] */\n      dup2\n      lt\n      tag_70\n      jumpi\n      tag_70\n      tag_33\n      jump\t// in\n    tag_70:\n      not(sub(shl(0xf8, 0x01), 0x01))\n        /* \"contracts/pixel_pictasia_utils.sol\":6478:6503  pngData.blue[2] = hex\"FF\" */\n      swap1\n      swap3\n      and\n        /* \"contracts/pixel_pictasia_utils.sol\":6478:6493  pngData.blue[2] */\n      0x20\n      swap3\n      dup4\n      mul\n      swap2\n      swap1\n      swap2\n      add\n      swap1\n      swap2\n      add\n        /* \"contracts/pixel_pictasia_utils.sol\":6478:6503  pngData.blue[2] = hex\"FF\" */\n      mstore\n        /* \"contracts/pixel_pictasia_utils.sol\":6516:6538  bytes memory imageData */\n      0x00\n        /* \"contracts/pixel_pictasia_utils.sol\":6541:6565  createPNG(3, 1, pngData) */\n      tag_71\n        /* \"contracts/pixel_pictasia_utils.sol\":6551:6552  3 */\n      0x03\n        /* \"contracts/pixel_pictasia_utils.sol\":6554:6555  1 */\n      0x01\n        /* \"contracts/pixel_pictasia_utils.sol\":6557:6564  pngData */\n      dup5\n        /* \"contracts/pixel_pictasia_utils.sol\":6541:6550  createPNG */\n      tag_20\n        /* \"contracts/pixel_pictasia_utils.sol\":6541:6565  createPNG(3, 1, pngData) */\n      jump\t// in\n    tag_71:\n        /* \"contracts/pixel_pictasia_utils.sol\":6516:6565  bytes memory imageData = createPNG(3, 1, pngData) */\n      swap1\n      pop\n        /* \"contracts/pixel_pictasia_utils.sol\":6576:6605  string memory imageDataString */\n      0x00\n        /* \"contracts/pixel_pictasia_utils.sol\":6615:6624  imageData */\n      dup2\n        /* \"contracts/pixel_pictasia_utils.sol\":6576:6625  string memory imageDataString = string(imageData) */\n      swap1\n      pop\n        /* \"contracts/pixel_pictasia_utils.sol\":6695:6743  Base64.encode(abi.encodePacked(imageDataString)) */\n      tag_72\n        /* \"contracts/pixel_pictasia_utils.sol\":6726:6741  imageDataString */\n      dup2\n        /* \"contracts/pixel_pictasia_utils.sol\":6709:6742  abi.encodePacked(imageDataString) */\n      add(0x20, mload(0x40))\n      tag_73\n      swap2\n      swap1\n      tag_74\n      jump\t// in\n    tag_73:\n      mload(0x40)\n      0x20\n      dup2\n      dup4\n      sub\n      sub\n      dup2\n      mstore\n      swap1\n      0x40\n      mstore\n        /* \"contracts/pixel_pictasia_utils.sol\":6695:6708  Base64.encode */\n      tag_75\n        /* \"contracts/pixel_pictasia_utils.sol\":6695:6743  Base64.encode(abi.encodePacked(imageDataString)) */\n      jump\t// in\n    tag_72:\n        /* \"contracts/pixel_pictasia_utils.sol\":6652:6744  abi.encodePacked(\"data:image/png;base64,\", Base64.encode(abi.encodePacked(imageDataString))) */\n      add(0x20, mload(0x40))\n      tag_76\n      swap2\n      swap1\n      tag_77\n      jump\t// in\n    tag_76:\n      mload(0x40)\n      0x20\n      dup2\n      dup4\n      sub\n      sub\n      dup2\n      mstore\n      swap1\n      0x40\n      mstore\n        /* \"contracts/pixel_pictasia_utils.sol\":6638:6745  return string(abi.encodePacked(\"data:image/png;base64,\", Base64.encode(abi.encodePacked(imageDataString)))) */\n      swap4\n      pop\n      pop\n      pop\n      pop\n        /* \"contracts/pixel_pictasia_utils.sol\":6022:6753  function createPNGString() public view returns (string memory) {... */\n      swap1\n      jump\t// out\n        /* \"contracts/pixel_pictasia_utils.sol\":6761:7422  function createPNG(uint256 _width, uint256 _height, PNGData memory pngData) public view returns (bytes memory) {... */\n    tag_20:\n        /* \"contracts/pixel_pictasia_utils.sol\":6935:6952  new bytes1[](100) */\n      0x40\n      dup1\n      mload\n        /* \"contracts/pixel_pictasia_utils.sol\":6948:6951  100 */\n      0x64\n        /* \"contracts/pixel_pictasia_utils.sol\":6935:6952  new bytes1[](100) */\n      dup1\n      dup3\n      mstore\n      0x0ca0\n      dup3\n      add\n      swap1\n      swap3\n      mstore\n        /* \"contracts/pixel_pictasia_utils.sol\":6858:6870  bytes memory */\n      0x60\n      swap2\n        /* \"contracts/pixel_pictasia_utils.sol\":6883:6892  uint256 i */\n      0x00\n      swap2\n      dup3\n      swap2\n        /* \"contracts/pixel_pictasia_utils.sol\":6935:6952  new bytes1[](100) */\n      0x20\n      dup3\n      add\n      0x0c80\n      dup1\n      calldatasize\n      dup4\n      calldatacopy\n      add\n      swap1\n      pop\n      pop\n        /* \"contracts/pixel_pictasia_utils.sol\":6907:6952  bytes1[] memory imageData = new bytes1[](100) */\n      swap1\n      pop\n        /* \"contracts/pixel_pictasia_utils.sol\":6982:7011  addPNGSignature(imageData, i) */\n      tag_82\n        /* \"contracts/pixel_pictasia_utils.sol\":6998:7007  imageData */\n      dup2\n        /* \"contracts/pixel_pictasia_utils.sol\":7009:7010  i */\n      dup4\n        /* \"contracts/pixel_pictasia_utils.sol\":6982:6997  addPNGSignature */\n      tag_83\n        /* \"contracts/pixel_pictasia_utils.sol\":6982:7011  addPNGSignature(imageData, i) */\n      jump\t// in\n    tag_82:\n        /* \"contracts/pixel_pictasia_utils.sol\":6965:7011  (imageData, i) = addPNGSignature(imageData, i) */\n      swap3\n      pop\n      swap1\n      pop\n        /* \"contracts/pixel_pictasia_utils.sol\":7039:7083  addIHDRChunck(imageData, i, _width, _height) */\n      tag_84\n        /* \"contracts/pixel_pictasia_utils.sol\":6965:7011  (imageData, i) = addPNGSignature(imageData, i) */\n      dup2\n      dup4\n        /* \"contracts/pixel_pictasia_utils.sol\":7067:7073  _width */\n      dup9\n        /* \"contracts/pixel_pictasia_utils.sol\":7075:7082  _height */\n      dup9\n        /* \"contracts/pixel_pictasia_utils.sol\":7039:7052  addIHDRChunck */\n      tag_85\n        /* \"contracts/pixel_pictasia_utils.sol\":7039:7083  addIHDRChunck(imageData, i, _width, _height) */\n      jump\t// in\n    tag_84:\n        /* \"contracts/pixel_pictasia_utils.sol\":7022:7083  (imageData, i) = addIHDRChunck(imageData, i, _width, _height) */\n      swap3\n      pop\n      swap1\n      pop\n        /* \"contracts/pixel_pictasia_utils.sol\":7111:7164  addIDATChunck(imageData, i, _width, _height, pngData) */\n      tag_86\n        /* \"contracts/pixel_pictasia_utils.sol\":7022:7083  (imageData, i) = addIHDRChunck(imageData, i, _width, _height) */\n      dup2\n      dup4\n        /* \"contracts/pixel_pictasia_utils.sol\":7139:7145  _width */\n      dup9\n        /* \"contracts/pixel_pictasia_utils.sol\":7147:7154  _height */\n      dup9\n        /* \"contracts/pixel_pictasia_utils.sol\":7156:7163  pngData */\n      dup9\n        /* \"contracts/pixel_pictasia_utils.sol\":7111:7124  addIDATChunck */\n      tag_87\n        /* \"contracts/pixel_pictasia_utils.sol\":7111:7164  addIDATChunck(imageData, i, _width, _height, pngData) */\n      jump\t// in\n    tag_86:\n        /* \"contracts/pixel_pictasia_utils.sol\":7094:7164  (imageData, i) = addIDATChunck(imageData, i, _width, _height, pngData) */\n      swap3\n      pop\n      swap1\n      pop\n        /* \"contracts/pixel_pictasia_utils.sol\":7192:7219  addIENDChunck(imageData, i) */\n      tag_88\n        /* \"contracts/pixel_pictasia_utils.sol\":7094:7164  (imageData, i) = addIDATChunck(imageData, i, _width, _height, pngData) */\n      dup2\n      dup4\n        /* \"contracts/pixel_pictasia_utils.sol\":7192:7205  addIENDChunck */\n      tag_89\n        /* \"contracts/pixel_pictasia_utils.sol\":7192:7219  addIENDChunck(imageData, i) */\n      jump\t// in\n    tag_88:\n        /* \"contracts/pixel_pictasia_utils.sol\":7175:7219  (imageData, i) = addIENDChunck(imageData, i) */\n      swap3\n      pop\n      swap1\n      pop\n        /* \"contracts/pixel_pictasia_utils.sol\":7232:7261  bytes memory trimmedImageData */\n      0x00\n        /* \"contracts/pixel_pictasia_utils.sol\":7175:7219  (imageData, i) = addIENDChunck(imageData, i) */\n      dup3\n        /* \"contracts/pixel_pictasia_utils.sol\":7264:7276  new bytes(i) */\n      0xffffffffffffffff\n      dup2\n      gt\n      iszero\n      tag_91\n      jumpi\n      tag_91\n      tag_45\n      jump\t// in\n    tag_91:\n      mload(0x40)\n      swap1\n      dup1\n      dup3\n      mstore\n      dup1\n      0x1f\n      add\n      not(0x1f)\n      and\n      0x20\n      add\n      dup3\n      add\n      0x40\n      mstore\n      dup1\n      iszero\n      tag_92\n      jumpi\n      0x20\n      dup3\n      add\n      dup2\n      dup1\n      calldatasize\n      dup4\n      calldatacopy\n      add\n      swap1\n      pop\n    tag_92:\n      pop\n        /* \"contracts/pixel_pictasia_utils.sol\":7232:7276  bytes memory trimmedImageData = new bytes(i) */\n      swap1\n      pop\n        /* \"contracts/pixel_pictasia_utils.sol\":7291:7300  uint256 x */\n      0x00\n        /* \"contracts/pixel_pictasia_utils.sol\":7287:7379  for(uint256 x = 0; x < i; x++) {... */\n    tag_93:\n        /* \"contracts/pixel_pictasia_utils.sol\":7310:7311  i */\n      dup4\n        /* \"contracts/pixel_pictasia_utils.sol\":7306:7307  x */\n      dup2\n        /* \"contracts/pixel_pictasia_utils.sol\":7306:7311  x < i */\n      lt\n        /* \"contracts/pixel_pictasia_utils.sol\":7287:7379  for(uint256 x = 0; x < i; x++) {... */\n      iszero\n      tag_94\n      jumpi\n        /* \"contracts/pixel_pictasia_utils.sol\":7355:7364  imageData */\n      dup3\n        /* \"contracts/pixel_pictasia_utils.sol\":7365:7366  x */\n      dup2\n        /* \"contracts/pixel_pictasia_utils.sol\":7355:7367  imageData[x] */\n      dup2\n      mload\n      dup2\n      lt\n      tag_97\n      jumpi\n      tag_97\n      tag_33\n      jump\t// in\n    tag_97:\n      0x20\n      mul\n      0x20\n      add\n      add\n      mload\n        /* \"contracts/pixel_pictasia_utils.sol\":7333:7349  trimmedImageData */\n      dup3\n        /* \"contracts/pixel_pictasia_utils.sol\":7350:7351  x */\n      dup3\n        /* \"contracts/pixel_pictasia_utils.sol\":7333:7352  trimmedImageData[x] */\n      dup2\n      mload\n      dup2\n      lt\n      tag_99\n      jumpi\n      tag_99\n      tag_33\n      jump\t// in\n    tag_99:\n      0x20\n      add\n      add\n        /* \"contracts/pixel_pictasia_utils.sol\":7333:7367  trimmedImageData[x] = imageData[x] */\n      swap1\n      not(sub(shl(0xf8, 0x01), 0x01))\n      and\n      swap1\n      dup2\n      0x00\n      byte\n      swap1\n      mstore8\n      pop\n        /* \"contracts/pixel_pictasia_utils.sol\":7313:7316  x++ */\n      dup1\n      tag_100\n      dup2\n      tag_38\n      jump\t// in\n    tag_100:\n      swap2\n      pop\n      pop\n        /* \"contracts/pixel_pictasia_utils.sol\":7287:7379  for(uint256 x = 0; x < i; x++) {... */\n      jump(tag_93)\n    tag_94:\n      pop\n        /* \"contracts/pixel_pictasia_utils.sol\":7398:7414  trimmedImageData */\n      swap7\n        /* \"contracts/pixel_pictasia_utils.sol\":6761:7422  function createPNG(uint256 _width, uint256 _height, PNGData memory pngData) public view returns (bytes memory) {... */\n      swap6\n      pop\n      pop\n      pop\n      pop\n      pop\n      pop\n      jump\t// out\n        /* \"contracts/pixel_pictasia_utils.sol\":4741:4893  function crc(bytes1[] memory _buf, uint256 _len) public view returns (uint256) {... */\n    tag_25:\n        /* \"contracts/pixel_pictasia_utils.sol\":4811:4818  uint256 */\n      0x00\n        /* \"contracts/pixel_pictasia_utils.sol\":4838:4872  update_crc(4294967295, _buf, _len) */\n      tag_102\n        /* \"contracts/pixel_pictasia_utils.sol\":4849:4859  4294967295 */\n      0xffffffff\n        /* \"contracts/pixel_pictasia_utils.sol\":4861:4865  _buf */\n      dup5\n        /* \"contracts/pixel_pictasia_utils.sol\":4867:4871  _len */\n      dup5\n        /* \"contracts/pixel_pictasia_utils.sol\":4838:4848  update_crc */\n      tag_103\n        /* \"contracts/pixel_pictasia_utils.sol\":4838:4872  update_crc(4294967295, _buf, _len) */\n      jump\t// in\n    tag_102:\n        /* \"contracts/pixel_pictasia_utils.sol\":4875:4885  4294967295 */\n      0xffffffff\n        /* \"contracts/pixel_pictasia_utils.sol\":4838:4885  update_crc(4294967295, _buf, _len) ^ 4294967295 */\n      xor\n      swap4\n        /* \"contracts/pixel_pictasia_utils.sol\":4741:4893  function crc(bytes1[] memory _buf, uint256 _len) public view returns (uint256) {... */\n      swap3\n      pop\n      pop\n      pop\n      jump\t// out\n        /* \"contracts/pixel_pictasia_utils.sol\":253:1765  function encode(bytes memory data) internal pure returns (string memory) {... */\n    tag_75:\n        /* \"contracts/pixel_pictasia_utils.sol\":311:324  string memory */\n      0x60\n        /* \"contracts/pixel_pictasia_utils.sol\":340:344  data */\n      dup2\n        /* \"contracts/pixel_pictasia_utils.sol\":340:351  data.length */\n      mload\n        /* \"contracts/pixel_pictasia_utils.sol\":355:356  0 */\n      0x00\n        /* \"contracts/pixel_pictasia_utils.sol\":340:356  data.length == 0 */\n      sub\n        /* \"contracts/pixel_pictasia_utils.sol\":337:367  if(data.length == 0) return \"\" */\n      tag_105\n      jumpi\n      pop\n      pop\n        /* \"contracts/pixel_pictasia_utils.sol\":358:367  return \"\" */\n      0x40\n      dup1\n      mload\n      0x20\n      dup2\n      add\n      swap1\n      swap2\n      mstore\n      0x00\n      dup2\n      mstore\n      swap1\n        /* \"contracts/pixel_pictasia_utils.sol\":253:1765  function encode(bytes memory data) internal pure returns (string memory) {... */\n      jump\t// out\n        /* \"contracts/pixel_pictasia_utils.sol\":337:367  if(data.length == 0) return \"\" */\n    tag_105:\n        /* \"contracts/pixel_pictasia_utils.sol\":378:397  string memory table */\n      0x00\n        /* \"contracts/pixel_pictasia_utils.sol\":400:406  _TABLE */\n      mload(0x40)\n      dup1\n      0x60\n      add\n      0x40\n      mstore\n      dup1\n      0x40\n      dup2\n      mstore\n      0x20\n      add\n      data_84d8a590de33e00cbdc16e1f28c3506f5ec15c599fab9a6a4bcd575cc2f110ce\n      0x40\n      swap2\n      codecopy\n        /* \"contracts/pixel_pictasia_utils.sol\":378:406  string memory table = _TABLE */\n      swap1\n      pop\n        /* \"contracts/pixel_pictasia_utils.sol\":417:437  string memory result */\n      0x00\n        /* \"contracts/pixel_pictasia_utils.sol\":476:477  3 */\n      0x03\n        /* \"contracts/pixel_pictasia_utils.sol\":457:461  data */\n      dup5\n        /* \"contracts/pixel_pictasia_utils.sol\":457:468  data.length */\n      mload\n        /* \"contracts/pixel_pictasia_utils.sol\":471:472  2 */\n      0x02\n        /* \"contracts/pixel_pictasia_utils.sol\":457:472  data.length + 2 */\n      tag_106\n      swap2\n      swap1\n      tag_35\n      jump\t// in\n    tag_106:\n        /* \"contracts/pixel_pictasia_utils.sol\":456:477  (data.length + 2) / 3 */\n      tag_107\n      swap2\n      swap1\n      tag_108\n      jump\t// in\n    tag_107:\n        /* \"contracts/pixel_pictasia_utils.sol\":451:478  4 * ((data.length + 2) / 3) */\n      tag_109\n      swap1\n        /* \"contracts/pixel_pictasia_utils.sol\":451:452  4 */\n      0x04\n        /* \"contracts/pixel_pictasia_utils.sol\":451:478  4 * ((data.length + 2) / 3) */\n      tag_40\n      jump\t// in\n    tag_109:\n        /* \"contracts/pixel_pictasia_utils.sol\":440:479  new string(4 * ((data.length + 2) / 3)) */\n      0xffffffffffffffff\n      dup2\n      gt\n      iszero\n      tag_111\n      jumpi\n      tag_111\n      tag_45\n      jump\t// in\n    tag_111:\n      mload(0x40)\n      swap1\n      dup1\n      dup3\n      mstore\n      dup1\n      0x1f\n      add\n      not(0x1f)\n      and\n      0x20\n      add\n      dup3\n      add\n      0x40\n      mstore\n      dup1\n      iszero\n      tag_112\n      jumpi\n      0x20\n      dup3\n      add\n      dup2\n      dup1\n      calldatasize\n      dup4\n      calldatacopy\n      add\n      swap1\n      pop\n    tag_112:\n      pop\n        /* \"contracts/pixel_pictasia_utils.sol\":417:479  string memory result = new string(4 * ((data.length + 2) / 3)) */\n      swap1\n      pop\n        /* \"contracts/pixel_pictasia_utils.sol\":541:542  1 */\n      0x01\n        /* \"contracts/pixel_pictasia_utils.sol\":534:539  table */\n      dup3\n        /* \"contracts/pixel_pictasia_utils.sol\":530:543  add(table, 1) */\n      add\n        /* \"contracts/pixel_pictasia_utils.sol\":586:588  32 */\n      0x20\n        /* \"contracts/pixel_pictasia_utils.sol\":578:584  result */\n      dup3\n        /* \"contracts/pixel_pictasia_utils.sol\":574:589  add(result, 32) */\n      add\n        /* \"contracts/pixel_pictasia_utils.sol\":641:645  data */\n      dup6\n        /* \"contracts/pixel_pictasia_utils.sol\":693:697  data */\n      dup7\n        /* \"contracts/pixel_pictasia_utils.sol\":687:698  mload(data) */\n      mload\n        /* \"contracts/pixel_pictasia_utils.sol\":681:685  data */\n      dup8\n        /* \"contracts/pixel_pictasia_utils.sol\":677:699  add(data, mload(data)) */\n      add\n        /* \"contracts/pixel_pictasia_utils.sol\":603:1459  for {... */\n    tag_113:\n        /* \"contracts/pixel_pictasia_utils.sol\":727:733  endPtr */\n      dup1\n        /* \"contracts/pixel_pictasia_utils.sol\":718:725  dataPtr */\n      dup3\n        /* \"contracts/pixel_pictasia_utils.sol\":715:734  lt(dataPtr, endPtr) */\n      lt\n        /* \"contracts/pixel_pictasia_utils.sol\":603:1459  for {... */\n      iszero\n      tag_115\n      jumpi\n        /* \"contracts/pixel_pictasia_utils.sol\":831:832  3 */\n      0x03\n        /* \"contracts/pixel_pictasia_utils.sol\":822:829  dataPtr */\n      dup3\n        /* \"contracts/pixel_pictasia_utils.sol\":818:833  add(dataPtr, 3) */\n      add\n        /* \"contracts/pixel_pictasia_utils.sol\":807:833  dataPtr := add(dataPtr, 3) */\n      swap2\n      pop\n        /* \"contracts/pixel_pictasia_utils.sol\":870:877  dataPtr */\n      dup2\n        /* \"contracts/pixel_pictasia_utils.sol\":864:878  mload(dataPtr) */\n      mload\n        /* \"contracts/pixel_pictasia_utils.sol\":955:959  0x3F */\n      0x3f\n        /* \"contracts/pixel_pictasia_utils.sol\":947:952  input */\n      dup2\n        /* \"contracts/pixel_pictasia_utils.sol\":943:945  18 */\n      0x12\n        /* \"contracts/pixel_pictasia_utils.sol\":939:953  shr(18, input) */\n      shr\n        /* \"contracts/pixel_pictasia_utils.sol\":935:960  and(shr(18, input), 0x3F) */\n      and\n        /* \"contracts/pixel_pictasia_utils.sol\":925:933  tablePtr */\n      dup6\n        /* \"contracts/pixel_pictasia_utils.sol\":921:961  add(tablePtr, and(shr(18, input), 0x3F)) */\n      add\n        /* \"contracts/pixel_pictasia_utils.sol\":915:962  mload(add(tablePtr, and(shr(18, input), 0x3F))) */\n      mload\n        /* \"contracts/pixel_pictasia_utils.sol\":904:913  resultPtr */\n      dup5\n        /* \"contracts/pixel_pictasia_utils.sol\":896:963  mstore8(resultPtr, mload(add(tablePtr, and(shr(18, input), 0x3F)))) */\n      mstore8\n        /* \"contracts/pixel_pictasia_utils.sol\":1009:1010  1 */\n      0x01\n        /* \"contracts/pixel_pictasia_utils.sol\":998:1007  resultPtr */\n      dup5\n        /* \"contracts/pixel_pictasia_utils.sol\":994:1011  add(resultPtr, 1) */\n      add\n        /* \"contracts/pixel_pictasia_utils.sol\":981:1011  resultPtr := add(resultPtr, 1) */\n      swap4\n      pop\n        /* \"contracts/pixel_pictasia_utils.sol\":1099:1103  0x3F */\n      0x3f\n        /* \"contracts/pixel_pictasia_utils.sol\":1091:1096  input */\n      dup2\n        /* \"contracts/pixel_pictasia_utils.sol\":1087:1089  12 */\n      0x0c\n        /* \"contracts/pixel_pictasia_utils.sol\":1083:1097  shr(12, input) */\n      shr\n        /* \"contracts/pixel_pictasia_utils.sol\":1079:1104  and(shr(12, input), 0x3F) */\n      and\n        /* \"contracts/pixel_pictasia_utils.sol\":1069:1077  tablePtr */\n      dup6\n        /* \"contracts/pixel_pictasia_utils.sol\":1065:1105  add(tablePtr, and(shr(12, input), 0x3F)) */\n      add\n        /* \"contracts/pixel_pictasia_utils.sol\":1059:1106  mload(add(tablePtr, and(shr(12, input), 0x3F))) */\n      mload\n        /* \"contracts/pixel_pictasia_utils.sol\":1048:1057  resultPtr */\n      dup5\n        /* \"contracts/pixel_pictasia_utils.sol\":1040:1107  mstore8(resultPtr, mload(add(tablePtr, and(shr(12, input), 0x3F)))) */\n      mstore8\n        /* \"contracts/pixel_pictasia_utils.sol\":1153:1154  1 */\n      0x01\n        /* \"contracts/pixel_pictasia_utils.sol\":1142:1151  resultPtr */\n      dup5\n        /* \"contracts/pixel_pictasia_utils.sol\":1138:1155  add(resultPtr, 1) */\n      add\n        /* \"contracts/pixel_pictasia_utils.sol\":1125:1155  resultPtr := add(resultPtr, 1) */\n      swap4\n      pop\n        /* \"contracts/pixel_pictasia_utils.sol\":1242:1246  0x3F */\n      0x3f\n        /* \"contracts/pixel_pictasia_utils.sol\":1234:1239  input */\n      dup2\n        /* \"contracts/pixel_pictasia_utils.sol\":1231:1232  6 */\n      0x06\n        /* \"contracts/pixel_pictasia_utils.sol\":1227:1240  shr(6, input) */\n      shr\n        /* \"contracts/pixel_pictasia_utils.sol\":1223:1247  and(shr(6, input), 0x3F) */\n      and\n        /* \"contracts/pixel_pictasia_utils.sol\":1213:1221  tablePtr */\n      dup6\n        /* \"contracts/pixel_pictasia_utils.sol\":1209:1248  add(tablePtr, and(shr(6, input), 0x3F)) */\n      add\n        /* \"contracts/pixel_pictasia_utils.sol\":1203:1249  mload(add(tablePtr, and(shr(6, input), 0x3F))) */\n      mload\n        /* \"contracts/pixel_pictasia_utils.sol\":1192:1201  resultPtr */\n      dup5\n        /* \"contracts/pixel_pictasia_utils.sol\":1184:1250  mstore8(resultPtr, mload(add(tablePtr, and(shr(6, input), 0x3F)))) */\n      mstore8\n        /* \"contracts/pixel_pictasia_utils.sol\":1296:1297  1 */\n      0x01\n        /* \"contracts/pixel_pictasia_utils.sol\":1285:1294  resultPtr */\n      dup5\n        /* \"contracts/pixel_pictasia_utils.sol\":1281:1298  add(resultPtr, 1) */\n      add\n        /* \"contracts/pixel_pictasia_utils.sol\":1268:1298  resultPtr := add(resultPtr, 1) */\n      swap4\n      pop\n        /* \"contracts/pixel_pictasia_utils.sol\":1377:1381  0x3F */\n      0x3f\n        /* \"contracts/pixel_pictasia_utils.sol\":1370:1375  input */\n      dup2\n        /* \"contracts/pixel_pictasia_utils.sol\":1366:1382  and(input, 0x3F) */\n      and\n        /* \"contracts/pixel_pictasia_utils.sol\":1356:1364  tablePtr */\n      dup6\n        /* \"contracts/pixel_pictasia_utils.sol\":1352:1383  add(tablePtr, and(input, 0x3F)) */\n      add\n        /* \"contracts/pixel_pictasia_utils.sol\":1346:1384  mload(add(tablePtr, and(input, 0x3F))) */\n      mload\n        /* \"contracts/pixel_pictasia_utils.sol\":1335:1344  resultPtr */\n      dup5\n        /* \"contracts/pixel_pictasia_utils.sol\":1327:1385  mstore8(resultPtr, mload(add(tablePtr, and(input, 0x3F)))) */\n      mstore8\n      pop\n        /* \"contracts/pixel_pictasia_utils.sol\":1431:1432  1 */\n      0x01\n        /* \"contracts/pixel_pictasia_utils.sol\":1420:1429  resultPtr */\n      dup4\n        /* \"contracts/pixel_pictasia_utils.sol\":1416:1433  add(resultPtr, 1) */\n      add\n        /* \"contracts/pixel_pictasia_utils.sol\":1403:1433  resultPtr := add(resultPtr, 1) */\n      swap3\n      pop\n        /* \"contracts/pixel_pictasia_utils.sol\":603:1459  for {... */\n      jump(tag_113)\n    tag_115:\n        /* \"contracts/pixel_pictasia_utils.sol\":607:714  {... */\n      pop\n      pop\n        /* \"contracts/pixel_pictasia_utils.sol\":1497:1498  3 */\n      0x03\n        /* \"contracts/pixel_pictasia_utils.sol\":1490:1494  data */\n      dup7\n        /* \"contracts/pixel_pictasia_utils.sol\":1484:1495  mload(data) */\n      mload\n        /* \"contracts/pixel_pictasia_utils.sol\":1480:1499  mod(mload(data), 3) */\n      mod\n        /* \"contracts/pixel_pictasia_utils.sol\":1518:1519  1 */\n      0x01\n        /* \"contracts/pixel_pictasia_utils.sol\":1513:1636  case 1 {... */\n      dup2\n      eq\n      tag_117\n      jumpi\n        /* \"contracts/pixel_pictasia_utils.sol\":1655:1656  2 */\n      0x02\n        /* \"contracts/pixel_pictasia_utils.sol\":1650:1723  case 2 {... */\n      dup2\n      eq\n      tag_118\n      jumpi\n        /* \"contracts/pixel_pictasia_utils.sol\":1473:1723  switch mod(mload(data), 3)... */\n      jump(tag_116)\n        /* \"contracts/pixel_pictasia_utils.sol\":1513:1636  case 1 {... */\n    tag_117:\n        /* \"contracts/pixel_pictasia_utils.sol\":1566:1570  0x3d */\n      0x3d\n        /* \"contracts/pixel_pictasia_utils.sol\":1562:1563  1 */\n      0x01\n        /* \"contracts/pixel_pictasia_utils.sol\":1551:1560  resultPtr */\n      dup4\n        /* \"contracts/pixel_pictasia_utils.sol\":1547:1564  sub(resultPtr, 1) */\n      sub\n        /* \"contracts/pixel_pictasia_utils.sol\":1539:1571  mstore8(sub(resultPtr, 1), 0x3d) */\n      mstore8\n        /* \"contracts/pixel_pictasia_utils.sol\":1616:1620  0x3d */\n      0x3d\n        /* \"contracts/pixel_pictasia_utils.sol\":1612:1613  2 */\n      0x02\n        /* \"contracts/pixel_pictasia_utils.sol\":1601:1610  resultPtr */\n      dup4\n        /* \"contracts/pixel_pictasia_utils.sol\":1597:1614  sub(resultPtr, 2) */\n      sub\n        /* \"contracts/pixel_pictasia_utils.sol\":1589:1621  mstore8(sub(resultPtr, 2), 0x3d) */\n      mstore8\n        /* \"contracts/pixel_pictasia_utils.sol\":1513:1636  case 1 {... */\n      jump(tag_116)\n        /* \"contracts/pixel_pictasia_utils.sol\":1650:1723  case 2 {... */\n    tag_118:\n        /* \"contracts/pixel_pictasia_utils.sol\":1703:1707  0x3d */\n      0x3d\n        /* \"contracts/pixel_pictasia_utils.sol\":1699:1700  1 */\n      0x01\n        /* \"contracts/pixel_pictasia_utils.sol\":1688:1697  resultPtr */\n      dup4\n        /* \"contracts/pixel_pictasia_utils.sol\":1684:1701  sub(resultPtr, 1) */\n      sub\n        /* \"contracts/pixel_pictasia_utils.sol\":1676:1708  mstore8(sub(resultPtr, 1), 0x3d) */\n      mstore8\n        /* \"contracts/pixel_pictasia_utils.sol\":1473:1723  switch mod(mload(data), 3)... */\n    tag_116:\n      pop\n        /* \"contracts/pixel_pictasia_utils.sol\":1751:1757  result */\n      swap2\n      swap6\n        /* \"contracts/pixel_pictasia_utils.sol\":253:1765  function encode(bytes memory data) internal pure returns (string memory) {... */\n      swap5\n      pop\n      pop\n      pop\n      pop\n      pop\n      jump\t// out\n        /* \"contracts/pixel_pictasia_utils.sol\":7430:7883  function addPNGSignature(bytes1[] memory _imageData, uint256 _i) private pure returns (bytes1[] memory, uint256) {... */\n    tag_83:\n        /* \"contracts/pixel_pictasia_utils.sol\":7517:7532  bytes1[] memory */\n      0x60\n        /* \"contracts/pixel_pictasia_utils.sol\":7534:7541  uint256 */\n      0x00\n      shl(0xf8, 0x89)\n        /* \"contracts/pixel_pictasia_utils.sol\":7554:7564  _imageData */\n      dup5\n        /* \"contracts/pixel_pictasia_utils.sol\":7565:7569  _i++ */\n      dup5\n      tag_120\n      dup2\n      tag_38\n      jump\t// in\n    tag_120:\n      swap6\n      pop\n        /* \"contracts/pixel_pictasia_utils.sol\":7554:7570  _imageData[_i++] */\n      dup2\n      mload\n      dup2\n      lt\n      tag_122\n      jumpi\n      tag_122\n      tag_33\n      jump\t// in\n    tag_122:\n      not(sub(shl(0xf8, 0x01), 0x01))\n        /* \"contracts/pixel_pictasia_utils.sol\":7554:7580  _imageData[_i++] = hex\"89\" */\n      swap1\n      swap3\n      and\n        /* \"contracts/pixel_pictasia_utils.sol\":7554:7570  _imageData[_i++] */\n      0x20\n      swap3\n      dup4\n      mul\n      swap2\n      swap1\n      swap2\n      add\n      swap1\n      swap2\n      add\n        /* \"contracts/pixel_pictasia_utils.sol\":7554:7580  _imageData[_i++] = hex\"89\" */\n      mstore\n      shl(0xfc, 0x05)\n        /* \"contracts/pixel_pictasia_utils.sol\":7591:7601  _imageData */\n      dup5\n        /* \"contracts/pixel_pictasia_utils.sol\":7602:7606  _i++ */\n      dup5\n      tag_123\n      dup2\n      tag_38\n      jump\t// in\n    tag_123:\n      swap6\n      pop\n        /* \"contracts/pixel_pictasia_utils.sol\":7591:7607  _imageData[_i++] */\n      dup2\n      mload\n      dup2\n      lt\n      tag_125\n      jumpi\n      tag_125\n      tag_33\n      jump\t// in\n    tag_125:\n      not(sub(shl(0xf8, 0x01), 0x01))\n        /* \"contracts/pixel_pictasia_utils.sol\":7591:7617  _imageData[_i++] = hex\"50\" */\n      swap1\n      swap3\n      and\n        /* \"contracts/pixel_pictasia_utils.sol\":7591:7607  _imageData[_i++] */\n      0x20\n      swap3\n      dup4\n      mul\n      swap2\n      swap1\n      swap2\n      add\n      swap1\n      swap2\n      add\n        /* \"contracts/pixel_pictasia_utils.sol\":7591:7617  _imageData[_i++] = hex\"50\" */\n      mstore\n      shl(0xf9, 0x27)\n        /* \"contracts/pixel_pictasia_utils.sol\":7628:7638  _imageData */\n      dup5\n        /* \"contracts/pixel_pictasia_utils.sol\":7639:7643  _i++ */\n      dup5\n      tag_126\n      dup2\n      tag_38\n      jump\t// in\n    tag_126:\n      swap6\n      pop\n        /* \"contracts/pixel_pictasia_utils.sol\":7628:7644  _imageData[_i++] */\n      dup2\n      mload\n      dup2\n      lt\n      tag_128\n      jumpi\n      tag_128\n      tag_33\n      jump\t// in\n    tag_128:\n      not(sub(shl(0xf8, 0x01), 0x01))\n        /* \"contracts/pixel_pictasia_utils.sol\":7628:7654  _imageData[_i++] = hex\"4E\" */\n      swap1\n      swap3\n      and\n        /* \"contracts/pixel_pictasia_utils.sol\":7628:7644  _imageData[_i++] */\n      0x20\n      swap3\n      dup4\n      mul\n      swap2\n      swap1\n      swap2\n      add\n      swap1\n      swap2\n      add\n        /* \"contracts/pixel_pictasia_utils.sol\":7628:7654  _imageData[_i++] = hex\"4E\" */\n      mstore\n      shl(0xf8, 0x47)\n        /* \"contracts/pixel_pictasia_utils.sol\":7665:7675  _imageData */\n      dup5\n        /* \"contracts/pixel_pictasia_utils.sol\":7676:7680  _i++ */\n      dup5\n      tag_129\n      dup2\n      tag_38\n      jump\t// in\n    tag_129:\n      swap6\n      pop\n        /* \"contracts/pixel_pictasia_utils.sol\":7665:7681  _imageData[_i++] */\n      dup2\n      mload\n      dup2\n      lt\n      tag_131\n      jumpi\n      tag_131\n      tag_33\n      jump\t// in\n    tag_131:\n      not(sub(shl(0xf8, 0x01), 0x01))\n        /* \"contracts/pixel_pictasia_utils.sol\":7665:7691  _imageData[_i++] = hex\"47\" */\n      swap1\n      swap3\n      and\n        /* \"contracts/pixel_pictasia_utils.sol\":7665:7681  _imageData[_i++] */\n      0x20\n      swap3\n      dup4\n      mul\n      swap2\n      swap1\n      swap2\n      add\n      swap1\n      swap2\n      add\n        /* \"contracts/pixel_pictasia_utils.sol\":7665:7691  _imageData[_i++] = hex\"47\" */\n      mstore\n      shl(0xf8, 0x0d)\n        /* \"contracts/pixel_pictasia_utils.sol\":7702:7712  _imageData */\n      dup5\n        /* \"contracts/pixel_pictasia_utils.sol\":7713:7717  _i++ */\n      dup5\n      tag_132\n      dup2\n      tag_38\n      jump\t// in\n    tag_132:\n      swap6\n      pop\n        /* \"contracts/pixel_pictasia_utils.sol\":7702:7718  _imageData[_i++] */\n      dup2\n      mload\n      dup2\n      lt\n      tag_134\n      jumpi\n      tag_134\n      tag_33\n      jump\t// in\n    tag_134:\n      not(sub(shl(0xf8, 0x01), 0x01))\n        /* \"contracts/pixel_pictasia_utils.sol\":7702:7728  _imageData[_i++] = hex\"0D\" */\n      swap1\n      swap3\n      and\n        /* \"contracts/pixel_pictasia_utils.sol\":7702:7718  _imageData[_i++] */\n      0x20\n      swap3\n      dup4\n      mul\n      swap2\n      swap1\n      swap2\n      add\n      swap1\n      swap2\n      add\n        /* \"contracts/pixel_pictasia_utils.sol\":7702:7728  _imageData[_i++] = hex\"0D\" */\n      mstore\n      shl(0xf9, 0x05)\n        /* \"contracts/pixel_pictasia_utils.sol\":7739:7749  _imageData */\n      dup5\n        /* \"contracts/pixel_pictasia_utils.sol\":7750:7754  _i++ */\n      dup5\n      tag_135\n      dup2\n      tag_38\n      jump\t// in\n    tag_135:\n      swap6\n      pop\n        /* \"contracts/pixel_pictasia_utils.sol\":7739:7755  _imageData[_i++] */\n      dup2\n      mload\n      dup2\n      lt\n      tag_137\n      jumpi\n      tag_137\n      tag_33\n      jump\t// in\n    tag_137:\n      not(sub(shl(0xf8, 0x01), 0x01))\n        /* \"contracts/pixel_pictasia_utils.sol\":7739:7765  _imageData[_i++] = hex\"0A\" */\n      swap1\n      swap3\n      and\n        /* \"contracts/pixel_pictasia_utils.sol\":7739:7755  _imageData[_i++] */\n      0x20\n      swap3\n      dup4\n      mul\n      swap2\n      swap1\n      swap2\n      add\n      swap1\n      swap2\n      add\n        /* \"contracts/pixel_pictasia_utils.sol\":7739:7765  _imageData[_i++] = hex\"0A\" */\n      mstore\n      shl(0xf9, 0x0d)\n        /* \"contracts/pixel_pictasia_utils.sol\":7776:7786  _imageData */\n      dup5\n        /* \"contracts/pixel_pictasia_utils.sol\":7787:7791  _i++ */\n      dup5\n      tag_138\n      dup2\n      tag_38\n      jump\t// in\n    tag_138:\n      swap6\n      pop\n        /* \"contracts/pixel_pictasia_utils.sol\":7776:7792  _imageData[_i++] */\n      dup2\n      mload\n      dup2\n      lt\n      tag_140\n      jumpi\n      tag_140\n      tag_33\n      jump\t// in\n    tag_140:\n      not(sub(shl(0xf8, 0x01), 0x01))\n        /* \"contracts/pixel_pictasia_utils.sol\":7776:7802  _imageData[_i++] = hex\"1A\" */\n      swap1\n      swap3\n      and\n        /* \"contracts/pixel_pictasia_utils.sol\":7776:7792  _imageData[_i++] */\n      0x20\n      swap3\n      dup4\n      mul\n      swap2\n      swap1\n      swap2\n      add\n      swap1\n      swap2\n      add\n        /* \"contracts/pixel_pictasia_utils.sol\":7776:7802  _imageData[_i++] = hex\"1A\" */\n      mstore\n      shl(0xf9, 0x05)\n        /* \"contracts/pixel_pictasia_utils.sol\":7813:7823  _imageData */\n      dup5\n        /* \"contracts/pixel_pictasia_utils.sol\":7824:7828  _i++ */\n      dup5\n      tag_141\n      dup2\n      tag_38\n      jump\t// in\n    tag_141:\n      swap6\n      pop\n        /* \"contracts/pixel_pictasia_utils.sol\":7813:7829  _imageData[_i++] */\n      dup2\n      mload\n      dup2\n      lt\n      tag_143\n      jumpi\n      tag_143\n      tag_33\n      jump\t// in\n    tag_143:\n      not(sub(shl(0xf8, 0x01), 0x01))\n        /* \"contracts/pixel_pictasia_utils.sol\":7813:7839  _imageData[_i++] = hex\"0A\" */\n      swap3\n      swap1\n      swap3\n      and\n        /* \"contracts/pixel_pictasia_utils.sol\":7813:7829  _imageData[_i++] */\n      0x20\n      swap3\n      dup4\n      mul\n      swap2\n      swap1\n      swap2\n      add\n      swap1\n      swap2\n      add\n        /* \"contracts/pixel_pictasia_utils.sol\":7813:7839  _imageData[_i++] = hex\"0A\" */\n      mstore\n      pop\n        /* \"contracts/pixel_pictasia_utils.sol\":7860:7870  _imageData */\n      swap2\n      swap3\n        /* \"contracts/pixel_pictasia_utils.sol\":7872:7874  _i */\n      swap1\n      swap2\n      pop\n        /* \"contracts/pixel_pictasia_utils.sol\":7430:7883  function addPNGSignature(bytes1[] memory _imageData, uint256 _i) private pure returns (bytes1[] memory, uint256) {... */\n      jump\t// out\n        /* \"contracts/pixel_pictasia_utils.sol\":7891:9278  function addIHDRChunck(bytes1[] memory _imageData, uint256 _i, uint256 _width, uint256 _height) private view returns (bytes1[] memory, uint256) {... */\n    tag_85:\n        /* \"contracts/pixel_pictasia_utils.sol\":8009:8024  bytes1[] memory */\n      0x60\n        /* \"contracts/pixel_pictasia_utils.sol\":8026:8033  uint256 */\n      0x00\n        /* \"contracts/pixel_pictasia_utils.sol\":8101:8103  _i */\n      dup5\n        /* \"contracts/pixel_pictasia_utils.sol\":8114:8121  _i += 4 */\n      tag_145\n        /* \"contracts/pixel_pictasia_utils.sol\":8120:8121  4 */\n      0x04\n        /* \"contracts/pixel_pictasia_utils.sol\":8101:8103  _i */\n      dup3\n        /* \"contracts/pixel_pictasia_utils.sol\":8114:8121  _i += 4 */\n      tag_35\n      jump\t// in\n    tag_145:\n      swap6\n      pop\n      dup6\n      shl(0xf8, 0x49)\n        /* \"contracts/pixel_pictasia_utils.sol\":8193:8203  _imageData */\n      dup9\n        /* \"contracts/pixel_pictasia_utils.sol\":8114:8121  _i += 4 */\n      dup3\n        /* \"contracts/pixel_pictasia_utils.sol\":8204:8208  _i++ */\n      tag_146\n        /* \"contracts/pixel_pictasia_utils.sol\":8114:8121  _i += 4 */\n      dup2\n        /* \"contracts/pixel_pictasia_utils.sol\":8204:8208  _i++ */\n      tag_38\n      jump\t// in\n    tag_146:\n      swap10\n      pop\n        /* \"contracts/pixel_pictasia_utils.sol\":8193:8209  _imageData[_i++] */\n      dup2\n      mload\n      dup2\n      lt\n      tag_148\n      jumpi\n      tag_148\n      tag_33\n      jump\t// in\n    tag_148:\n      not(sub(shl(0xf8, 0x01), 0x01))\n        /* \"contracts/pixel_pictasia_utils.sol\":8193:8219  _imageData[_i++] = hex\"49\" */\n      swap1\n      swap3\n      and\n        /* \"contracts/pixel_pictasia_utils.sol\":8193:8209  _imageData[_i++] */\n      0x20\n      swap3\n      dup4\n      mul\n      swap2\n      swap1\n      swap2\n      add\n      swap1\n      swap2\n      add\n        /* \"contracts/pixel_pictasia_utils.sol\":8193:8219  _imageData[_i++] = hex\"49\" */\n      mstore\n      shl(0xfb, 0x09)\n        /* \"contracts/pixel_pictasia_utils.sol\":8230:8240  _imageData */\n      dup9\n        /* \"contracts/pixel_pictasia_utils.sol\":8241:8245  _i++ */\n      dup9\n      tag_149\n      dup2\n      tag_38\n      jump\t// in\n    tag_149:\n      swap10\n      pop\n        /* \"contracts/pixel_pictasia_utils.sol\":8230:8246  _imageData[_i++] */\n      dup2\n      mload\n      dup2\n      lt\n      tag_151\n      jumpi\n      tag_151\n      tag_33\n      jump\t// in\n    tag_151:\n      not(sub(shl(0xf8, 0x01), 0x01))\n        /* \"contracts/pixel_pictasia_utils.sol\":8230:8256  _imageData[_i++] = hex\"48\" */\n      swap1\n      swap3\n      and\n        /* \"contracts/pixel_pictasia_utils.sol\":8230:8246  _imageData[_i++] */\n      0x20\n      swap3\n      dup4\n      mul\n      swap2\n      swap1\n      swap2\n      add\n      swap1\n      swap2\n      add\n        /* \"contracts/pixel_pictasia_utils.sol\":8230:8256  _imageData[_i++] = hex\"48\" */\n      mstore\n      shl(0xfa, 0x11)\n        /* \"contracts/pixel_pictasia_utils.sol\":8267:8277  _imageData */\n      dup9\n        /* \"contracts/pixel_pictasia_utils.sol\":8278:8282  _i++ */\n      dup9\n      tag_152\n      dup2\n      tag_38\n      jump\t// in\n    tag_152:\n      swap10\n      pop\n        /* \"contracts/pixel_pictasia_utils.sol\":8267:8283  _imageData[_i++] */\n      dup2\n      mload\n      dup2\n      lt\n      tag_154\n      jumpi\n      tag_154\n      tag_33\n      jump\t// in\n    tag_154:\n      not(sub(shl(0xf8, 0x01), 0x01))\n        /* \"contracts/pixel_pictasia_utils.sol\":8267:8293  _imageData[_i++] = hex\"44\" */\n      swap1\n      swap3\n      and\n        /* \"contracts/pixel_pictasia_utils.sol\":8267:8283  _imageData[_i++] */\n      0x20\n      swap3\n      dup4\n      mul\n      swap2\n      swap1\n      swap2\n      add\n      swap1\n      swap2\n      add\n        /* \"contracts/pixel_pictasia_utils.sol\":8267:8293  _imageData[_i++] = hex\"44\" */\n      mstore\n      shl(0xf9, 0x29)\n        /* \"contracts/pixel_pictasia_utils.sol\":8304:8314  _imageData */\n      dup9\n        /* \"contracts/pixel_pictasia_utils.sol\":8315:8319  _i++ */\n      dup9\n      tag_155\n      dup2\n      tag_38\n      jump\t// in\n    tag_155:\n      swap10\n      pop\n        /* \"contracts/pixel_pictasia_utils.sol\":8304:8320  _imageData[_i++] */\n      dup2\n      mload\n      dup2\n      lt\n      tag_157\n      jumpi\n      tag_157\n      tag_33\n      jump\t// in\n    tag_157:\n      not(sub(shl(0xf8, 0x01), 0x01))\n        /* \"contracts/pixel_pictasia_utils.sol\":8304:8330  _imageData[_i++] = hex\"52\" */\n      swap1\n      swap3\n      and\n        /* \"contracts/pixel_pictasia_utils.sol\":8304:8320  _imageData[_i++] */\n      0x20\n      swap3\n      dup4\n      mul\n      swap2\n      swap1\n      swap2\n      add\n      swap1\n      swap2\n      add\n        /* \"contracts/pixel_pictasia_utils.sol\":8304:8330  _imageData[_i++] = hex\"52\" */\n      mstore\n        /* \"contracts/pixel_pictasia_utils.sol\":8383:8385  _i */\n      dup7\n        /* \"contracts/pixel_pictasia_utils.sol\":8435:8472  add4ByteValue(_imageData, _i, _width) */\n      tag_158\n        /* \"contracts/pixel_pictasia_utils.sol\":8449:8459  _imageData */\n      dup10\n        /* \"contracts/pixel_pictasia_utils.sol\":8383:8385  _i */\n      dup3\n        /* \"contracts/pixel_pictasia_utils.sol\":8465:8471  _width */\n      dup10\n        /* \"contracts/pixel_pictasia_utils.sol\":8435:8448  add4ByteValue */\n      tag_159\n        /* \"contracts/pixel_pictasia_utils.sol\":8435:8472  add4ByteValue(_imageData, _i, _width) */\n      jump\t// in\n    tag_158:\n        /* \"contracts/pixel_pictasia_utils.sol\":8416:8472  (_imageData, _i) = add4ByteValue(_imageData, _i, _width) */\n      swap1\n      swap10\n      pop\n      swap8\n      pop\n        /* \"contracts/pixel_pictasia_utils.sol\":8523:8561  add4ByteValue(_imageData, _i, _height) */\n      tag_160\n        /* \"contracts/pixel_pictasia_utils.sol\":8416:8472  (_imageData, _i) = add4ByteValue(_imageData, _i, _width) */\n      dup10\n      dup10\n        /* \"contracts/pixel_pictasia_utils.sol\":8553:8560  _height */\n      dup9\n        /* \"contracts/pixel_pictasia_utils.sol\":8523:8536  add4ByteValue */\n      tag_159\n        /* \"contracts/pixel_pictasia_utils.sol\":8523:8561  add4ByteValue(_imageData, _i, _height) */\n      jump\t// in\n    tag_160:\n        /* \"contracts/pixel_pictasia_utils.sol\":8504:8561  (_imageData, _i) = add4ByteValue(_imageData, _i, _height) */\n      swap1\n      swap10\n      pop\n      swap8\n      pop\n      shl(0xfb, 0x01)\n      dup10\n      dup10\n        /* \"contracts/pixel_pictasia_utils.sol\":8607:8611  _i++ */\n      tag_161\n        /* \"contracts/pixel_pictasia_utils.sol\":8504:8561  (_imageData, _i) = add4ByteValue(_imageData, _i, _height) */\n      dup2\n        /* \"contracts/pixel_pictasia_utils.sol\":8607:8611  _i++ */\n      tag_38\n      jump\t// in\n    tag_161:\n      swap11\n      pop\n        /* \"contracts/pixel_pictasia_utils.sol\":8596:8612  _imageData[_i++] */\n      dup2\n      mload\n      dup2\n      lt\n      tag_163\n      jumpi\n      tag_163\n      tag_33\n      jump\t// in\n    tag_163:\n      not(sub(shl(0xf8, 0x01), 0x01))\n        /* \"contracts/pixel_pictasia_utils.sol\":8596:8622  _imageData[_i++] = hex\"08\" */\n      swap1\n      swap3\n      and\n        /* \"contracts/pixel_pictasia_utils.sol\":8596:8612  _imageData[_i++] */\n      0x20\n      swap3\n      dup4\n      mul\n      swap2\n      swap1\n      swap2\n      add\n      swap1\n      swap2\n      add\n        /* \"contracts/pixel_pictasia_utils.sol\":8596:8622  _imageData[_i++] = hex\"08\" */\n      mstore\n      shl(0xf9, 0x01)\n        /* \"contracts/pixel_pictasia_utils.sol\":8659:8669  _imageData */\n      dup10\n        /* \"contracts/pixel_pictasia_utils.sol\":8670:8674  _i++ */\n      dup10\n      tag_164\n      dup2\n      tag_38\n      jump\t// in\n    tag_164:\n      swap11\n      pop\n        /* \"contracts/pixel_pictasia_utils.sol\":8659:8675  _imageData[_i++] */\n      dup2\n      mload\n      dup2\n      lt\n      tag_166\n      jumpi\n      tag_166\n      tag_33\n      jump\t// in\n    tag_166:\n      not(sub(shl(0xf8, 0x01), 0x01))\n        /* \"contracts/pixel_pictasia_utils.sol\":8659:8685  _imageData[_i++] = hex\"02\" */\n      swap1\n      swap3\n      and\n        /* \"contracts/pixel_pictasia_utils.sol\":8659:8675  _imageData[_i++] */\n      0x20\n      swap3\n      dup4\n      mul\n      swap2\n      swap1\n      swap2\n      add\n      swap1\n      swap2\n      add\n        /* \"contracts/pixel_pictasia_utils.sol\":8659:8685  _imageData[_i++] = hex\"02\" */\n      mstore\n        /* \"contracts/pixel_pictasia_utils.sol\":8729:8755  _imageData[_i++] = hex\"00\" */\n      0x00\n        /* \"contracts/pixel_pictasia_utils.sol\":8729:8739  _imageData */\n      dup10\n        /* \"contracts/pixel_pictasia_utils.sol\":8740:8744  _i++ */\n      dup10\n      tag_167\n      dup2\n      tag_38\n      jump\t// in\n    tag_167:\n      swap11\n      pop\n        /* \"contracts/pixel_pictasia_utils.sol\":8729:8745  _imageData[_i++] */\n      dup2\n      mload\n      dup2\n      lt\n      tag_169\n      jumpi\n      tag_169\n      tag_33\n      jump\t// in\n    tag_169:\n      not(sub(shl(0xf8, 0x01), 0x01))\n        /* \"contracts/pixel_pictasia_utils.sol\":8729:8755  _imageData[_i++] = hex\"00\" */\n      swap1\n      swap3\n      and\n        /* \"contracts/pixel_pictasia_utils.sol\":8729:8745  _imageData[_i++] */\n      0x20\n      swap3\n      dup4\n      mul\n      swap2\n      swap1\n      swap2\n      add\n      swap1\n      swap2\n      add\n        /* \"contracts/pixel_pictasia_utils.sol\":8729:8755  _imageData[_i++] = hex\"00\" */\n      mstore\n        /* \"contracts/pixel_pictasia_utils.sol\":8794:8820  _imageData[_i++] = hex\"00\" */\n      0x00\n        /* \"contracts/pixel_pictasia_utils.sol\":8794:8804  _imageData */\n      dup10\n        /* \"contracts/pixel_pictasia_utils.sol\":8805:8809  _i++ */\n      dup10\n      tag_170\n      dup2\n      tag_38\n      jump\t// in\n    tag_170:\n      swap11\n      pop\n        /* \"contracts/pixel_pictasia_utils.sol\":8794:8810  _imageData[_i++] */\n      dup2\n      mload\n      dup2\n      lt\n      tag_172\n      jumpi\n      tag_172\n      tag_33\n      jump\t// in\n    tag_172:\n      not(sub(shl(0xf8, 0x01), 0x01))\n        /* \"contracts/pixel_pictasia_utils.sol\":8794:8820  _imageData[_i++] = hex\"00\" */\n      swap1\n      swap3\n      and\n        /* \"contracts/pixel_pictasia_utils.sol\":8794:8810  _imageData[_i++] */\n      0x20\n      swap3\n      dup4\n      mul\n      swap2\n      swap1\n      swap2\n      add\n      swap1\n      swap2\n      add\n        /* \"contracts/pixel_pictasia_utils.sol\":8794:8820  _imageData[_i++] = hex\"00\" */\n      mstore\n        /* \"contracts/pixel_pictasia_utils.sol\":8862:8888  _imageData[_i++] = hex\"00\" */\n      0x00\n        /* \"contracts/pixel_pictasia_utils.sol\":8862:8872  _imageData */\n      dup10\n        /* \"contracts/pixel_pictasia_utils.sol\":8873:8877  _i++ */\n      dup10\n      tag_173\n      dup2\n      tag_38\n      jump\t// in\n    tag_173:\n      swap11\n      pop\n        /* \"contracts/pixel_pictasia_utils.sol\":8862:8878  _imageData[_i++] */\n      dup2\n      mload\n      dup2\n      lt\n      tag_175\n      jumpi\n      tag_175\n      tag_33\n      jump\t// in\n    tag_175:\n      not(sub(shl(0xf8, 0x01), 0x01))\n        /* \"contracts/pixel_pictasia_utils.sol\":8862:8888  _imageData[_i++] = hex\"00\" */\n      swap1\n      swap3\n      and\n        /* \"contracts/pixel_pictasia_utils.sol\":8862:8878  _imageData[_i++] */\n      0x20\n      swap3\n      dup4\n      mul\n      swap2\n      swap1\n      swap2\n      add\n      swap1\n      swap2\n      add\n        /* \"contracts/pixel_pictasia_utils.sol\":8862:8888  _imageData[_i++] = hex\"00\" */\n      mstore\n        /* \"contracts/pixel_pictasia_utils.sol\":8922:8924  _i */\n      dup8\n      dup1\n        /* \"contracts/pixel_pictasia_utils.sol\":9003:9045  addCRC(_imageData, _i, iCRCStart, iCRCEnd) */\n      tag_176\n        /* \"contracts/pixel_pictasia_utils.sol\":9010:9020  _imageData */\n      dup12\n        /* \"contracts/pixel_pictasia_utils.sol\":8922:8924  _i */\n      dup3\n        /* \"contracts/pixel_pictasia_utils.sol\":9026:9035  iCRCStart */\n      dup7\n        /* \"contracts/pixel_pictasia_utils.sol\":8922:8924  _i */\n      dup2\n        /* \"contracts/pixel_pictasia_utils.sol\":9003:9009  addCRC */\n      tag_177\n        /* \"contracts/pixel_pictasia_utils.sol\":9003:9045  addCRC(_imageData, _i, iCRCStart, iCRCEnd) */\n      jump\t// in\n    tag_176:\n        /* \"contracts/pixel_pictasia_utils.sol\":8984:9045  (_imageData, _i) = addCRC(_imageData, _i, iCRCStart, iCRCEnd) */\n      swap1\n      swap12\n      pop\n      swap10\n      pop\n        /* \"contracts/pixel_pictasia_utils.sol\":9170:9234  add4ByteValue(_imageData, iLengthIdx, iLengthEnd - iLengthStart) */\n      tag_178\n        /* \"contracts/pixel_pictasia_utils.sol\":8984:9045  (_imageData, _i) = addCRC(_imageData, _i, iCRCStart, iCRCEnd) */\n      dup12\n        /* \"contracts/pixel_pictasia_utils.sol\":9196:9206  iLengthIdx */\n      dup7\n        /* \"contracts/pixel_pictasia_utils.sol\":9208:9233  iLengthEnd - iLengthStart */\n      tag_179\n        /* \"contracts/pixel_pictasia_utils.sol\":9221:9233  iLengthStart */\n      dup7\n        /* \"contracts/pixel_pictasia_utils.sol\":9208:9218  iLengthEnd */\n      dup7\n        /* \"contracts/pixel_pictasia_utils.sol\":9208:9233  iLengthEnd - iLengthStart */\n      tag_180\n      jump\t// in\n    tag_179:\n        /* \"contracts/pixel_pictasia_utils.sol\":9170:9183  add4ByteValue */\n      tag_159\n        /* \"contracts/pixel_pictasia_utils.sol\":9170:9234  add4ByteValue(_imageData, iLengthIdx, iLengthEnd - iLengthStart) */\n      jump\t// in\n    tag_178:\n      pop\n        /* \"contracts/pixel_pictasia_utils.sol\":9143:9234  (_imageData, iLengthIdx) = add4ByteValue(_imageData, iLengthIdx, iLengthEnd - iLengthStart) */\n      swap12\n        /* \"contracts/pixel_pictasia_utils.sol\":9267:9269  _i */\n      swap10\n      swap11\n      pop\n      pop\n      pop\n      pop\n      pop\n      pop\n      pop\n      pop\n      pop\n      pop\n        /* \"contracts/pixel_pictasia_utils.sol\":7891:9278  function addIHDRChunck(bytes1[] memory _imageData, uint256 _i, uint256 _width, uint256 _height) private view returns (bytes1[] memory, uint256) {... */\n      jump\t// out\n        /* \"contracts/pixel_pictasia_utils.sol\":9286:12016  function addIDATChunck(bytes1[] memory _imageData, uint256 _i, uint256 _width, uint256 _height, PNGData memory pngData) private view returns (bytes1[] memory, uint256) {... */\n    tag_87:\n        /* \"contracts/pixel_pictasia_utils.sol\":9428:9443  bytes1[] memory */\n      0x60\n        /* \"contracts/pixel_pictasia_utils.sol\":9445:9452  uint256 */\n      0x00\n        /* \"contracts/pixel_pictasia_utils.sol\":9520:9522  _i */\n      dup6\n        /* \"contracts/pixel_pictasia_utils.sol\":9533:9540  _i += 4 */\n      tag_182\n        /* \"contracts/pixel_pictasia_utils.sol\":9539:9540  4 */\n      0x04\n        /* \"contracts/pixel_pictasia_utils.sol\":9520:9522  _i */\n      dup3\n        /* \"contracts/pixel_pictasia_utils.sol\":9533:9540  _i += 4 */\n      tag_35\n      jump\t// in\n    tag_182:\n      swap7\n      pop\n      shl(0xf8, 0x49)\n        /* \"contracts/pixel_pictasia_utils.sol\":9614:9624  _imageData */\n      dup9\n        /* \"contracts/pixel_pictasia_utils.sol\":9533:9540  _i += 4 */\n      dup9\n        /* \"contracts/pixel_pictasia_utils.sol\":9625:9629  _i++ */\n      tag_183\n        /* \"contracts/pixel_pictasia_utils.sol\":9533:9540  _i += 4 */\n      dup2\n        /* \"contracts/pixel_pictasia_utils.sol\":9625:9629  _i++ */\n      tag_38\n      jump\t// in\n    tag_183:\n      swap10\n      pop\n        /* \"contracts/pixel_pictasia_utils.sol\":9614:9630  _imageData[_i++] */\n      dup2\n      mload\n      dup2\n      lt\n      tag_185\n      jumpi\n      tag_185\n      tag_33\n      jump\t// in\n    tag_185:\n      not(sub(shl(0xf8, 0x01), 0x01))\n        /* \"contracts/pixel_pictasia_utils.sol\":9614:9640  _imageData[_i++] = hex\"49\" */\n      swap1\n      swap3\n      and\n        /* \"contracts/pixel_pictasia_utils.sol\":9614:9630  _imageData[_i++] */\n      0x20\n      swap3\n      dup4\n      mul\n      swap2\n      swap1\n      swap2\n      add\n      swap1\n      swap2\n      add\n        /* \"contracts/pixel_pictasia_utils.sol\":9614:9640  _imageData[_i++] = hex\"49\" */\n      mstore\n      shl(0xfa, 0x11)\n        /* \"contracts/pixel_pictasia_utils.sol\":9651:9661  _imageData */\n      dup9\n        /* \"contracts/pixel_pictasia_utils.sol\":9662:9666  _i++ */\n      dup9\n      tag_186\n      dup2\n      tag_38\n      jump\t// in\n    tag_186:\n      swap10\n      pop\n        /* \"contracts/pixel_pictasia_utils.sol\":9651:9667  _imageData[_i++] */\n      dup2\n      mload\n      dup2\n      lt\n      tag_188\n      jumpi\n      tag_188\n      tag_33\n      jump\t// in\n    tag_188:\n      not(sub(shl(0xf8, 0x01), 0x01))\n        /* \"contracts/pixel_pictasia_utils.sol\":9651:9677  _imageData[_i++] = hex\"44\" */\n      swap1\n      swap3\n      and\n        /* \"contracts/pixel_pictasia_utils.sol\":9651:9667  _imageData[_i++] */\n      0x20\n      swap3\n      dup4\n      mul\n      swap2\n      swap1\n      swap2\n      add\n      swap1\n      swap2\n      add\n        /* \"contracts/pixel_pictasia_utils.sol\":9651:9677  _imageData[_i++] = hex\"44\" */\n      mstore\n      shl(0xf8, 0x41)\n        /* \"contracts/pixel_pictasia_utils.sol\":9688:9698  _imageData */\n      dup9\n        /* \"contracts/pixel_pictasia_utils.sol\":9699:9703  _i++ */\n      dup9\n      tag_189\n      dup2\n      tag_38\n      jump\t// in\n    tag_189:\n      swap10\n      pop\n        /* \"contracts/pixel_pictasia_utils.sol\":9688:9704  _imageData[_i++] */\n      dup2\n      mload\n      dup2\n      lt\n      tag_191\n      jumpi\n      tag_191\n      tag_33\n      jump\t// in\n    tag_191:\n      not(sub(shl(0xf8, 0x01), 0x01))\n        /* \"contracts/pixel_pictasia_utils.sol\":9688:9714  _imageData[_i++] = hex\"41\" */\n      swap1\n      swap3\n      and\n        /* \"contracts/pixel_pictasia_utils.sol\":9688:9704  _imageData[_i++] */\n      0x20\n      swap3\n      dup4\n      mul\n      swap2\n      swap1\n      swap2\n      add\n      swap1\n      swap2\n      add\n        /* \"contracts/pixel_pictasia_utils.sol\":9688:9714  _imageData[_i++] = hex\"41\" */\n      mstore\n      shl(0xfa, 0x15)\n        /* \"contracts/pixel_pictasia_utils.sol\":9725:9735  _imageData */\n      dup9\n        /* \"contracts/pixel_pictasia_utils.sol\":9736:9740  _i++ */\n      dup9\n      tag_192\n      dup2\n      tag_38\n      jump\t// in\n    tag_192:\n      swap10\n      pop\n        /* \"contracts/pixel_pictasia_utils.sol\":9725:9741  _imageData[_i++] */\n      dup2\n      mload\n      dup2\n      lt\n      tag_194\n      jumpi\n      tag_194\n      tag_33\n      jump\t// in\n    tag_194:\n      not(sub(shl(0xf8, 0x01), 0x01))\n        /* \"contracts/pixel_pictasia_utils.sol\":9725:9751  _imageData[_i++] = hex\"54\" */\n      swap1\n      swap3\n      and\n        /* \"contracts/pixel_pictasia_utils.sol\":9725:9741  _imageData[_i++] */\n      0x20\n      swap3\n      dup4\n      mul\n      swap2\n      swap1\n      swap2\n      add\n      swap1\n      swap2\n      add\n        /* \"contracts/pixel_pictasia_utils.sol\":9725:9751  _imageData[_i++] = hex\"54\" */\n      mstore\n        /* \"contracts/pixel_pictasia_utils.sol\":9804:9806  _i */\n      dup7\n      shl(0xfb, 0x0f)\n        /* \"contracts/pixel_pictasia_utils.sol\":9843:9853  _imageData */\n      dup10\n        /* \"contracts/pixel_pictasia_utils.sol\":9804:9806  _i */\n      dup3\n        /* \"contracts/pixel_pictasia_utils.sol\":9854:9858  _i++ */\n      tag_195\n        /* \"contracts/pixel_pictasia_utils.sol\":9804:9806  _i */\n      dup2\n        /* \"contracts/pixel_pictasia_utils.sol\":9854:9858  _i++ */\n      tag_38\n      jump\t// in\n    tag_195:\n      swap11\n      pop\n        /* \"contracts/pixel_pictasia_utils.sol\":9843:9859  _imageData[_i++] */\n      dup2\n      mload\n      dup2\n      lt\n      tag_197\n      jumpi\n      tag_197\n      tag_33\n      jump\t// in\n    tag_197:\n      not(sub(shl(0xf8, 0x01), 0x01))\n        /* \"contracts/pixel_pictasia_utils.sol\":9843:9869  _imageData[_i++] = hex\"78\" */\n      swap1\n      swap3\n      and\n        /* \"contracts/pixel_pictasia_utils.sol\":9843:9859  _imageData[_i++] */\n      0x20\n      swap3\n      dup4\n      mul\n      swap2\n      swap1\n      swap2\n      add\n      swap1\n      swap2\n      add\n        /* \"contracts/pixel_pictasia_utils.sol\":9843:9869  _imageData[_i++] = hex\"78\" */\n      mstore\n      shl(0xf8, 0x01)\n        /* \"contracts/pixel_pictasia_utils.sol\":9880:9890  _imageData */\n      dup10\n        /* \"contracts/pixel_pictasia_utils.sol\":9891:9895  _i++ */\n      dup10\n      tag_198\n      dup2\n      tag_38\n      jump\t// in\n    tag_198:\n      swap11\n      pop\n        /* \"contracts/pixel_pictasia_utils.sol\":9880:9896  _imageData[_i++] */\n      dup2\n      mload\n      dup2\n      lt\n      tag_200\n      jumpi\n      tag_200\n      tag_33\n      jump\t// in\n    tag_200:\n      not(sub(shl(0xf8, 0x01), 0x01))\n        /* \"contracts/pixel_pictasia_utils.sol\":9880:9906  _imageData[_i++] = hex\"01\" */\n      swap1\n      swap3\n      and\n        /* \"contracts/pixel_pictasia_utils.sol\":9880:9896  _imageData[_i++] */\n      0x20\n      swap3\n      dup4\n      mul\n      swap2\n      swap1\n      swap2\n      add\n      swap1\n      swap2\n      add\n        /* \"contracts/pixel_pictasia_utils.sol\":9880:9906  _imageData[_i++] = hex\"01\" */\n      mstore\n      shl(0xf8, 0x01)\n        /* \"contracts/pixel_pictasia_utils.sol\":9948:9958  _imageData */\n      dup10\n        /* \"contracts/pixel_pictasia_utils.sol\":9959:9963  _i++ */\n      dup10\n      tag_201\n      dup2\n      tag_38\n      jump\t// in\n    tag_201:\n      swap11\n      pop\n        /* \"contracts/pixel_pictasia_utils.sol\":9948:9964  _imageData[_i++] */\n      dup2\n      mload\n      dup2\n      lt\n      tag_203\n      jumpi\n      tag_203\n      tag_33\n      jump\t// in\n    tag_203:\n      not(sub(shl(0xf8, 0x01), 0x01))\n        /* \"contracts/pixel_pictasia_utils.sol\":9948:9974  _imageData[_i++] = hex\"01\" */\n      swap1\n      swap3\n      and\n        /* \"contracts/pixel_pictasia_utils.sol\":9948:9964  _imageData[_i++] */\n      0x20\n      swap3\n      dup4\n      mul\n      swap2\n      swap1\n      swap2\n      add\n      swap1\n      swap2\n      add\n        /* \"contracts/pixel_pictasia_utils.sol\":9948:9974  _imageData[_i++] = hex\"01\" */\n      mstore\n        /* \"contracts/pixel_pictasia_utils.sol\":10071:10073  _i */\n      dup8\n        /* \"contracts/pixel_pictasia_utils.sol\":10084:10091  _i += 4 */\n      tag_204\n        /* \"contracts/pixel_pictasia_utils.sol\":10090:10091  4 */\n      0x04\n        /* \"contracts/pixel_pictasia_utils.sol\":10071:10073  _i */\n      dup3\n        /* \"contracts/pixel_pictasia_utils.sol\":10084:10091  _i += 4 */\n      tag_35\n      jump\t// in\n    tag_204:\n      swap9\n      pop\n      dup9\n        /* \"contracts/pixel_pictasia_utils.sol\":10143:10167  uint256 iZLIBLengthStart */\n      0x00\n        /* \"contracts/pixel_pictasia_utils.sol\":10217:10227  _imageData */\n      dup12\n        /* \"contracts/pixel_pictasia_utils.sol\":10084:10091  _i += 4 */\n      dup3\n        /* \"contracts/pixel_pictasia_utils.sol\":10228:10232  _i++ */\n      tag_205\n        /* \"contracts/pixel_pictasia_utils.sol\":10084:10091  _i += 4 */\n      dup2\n        /* \"contracts/pixel_pictasia_utils.sol\":10228:10232  _i++ */\n      tag_38\n      jump\t// in\n    tag_205:\n      swap13\n      pop\n        /* \"contracts/pixel_pictasia_utils.sol\":10217:10233  _imageData[_i++] */\n      dup2\n      mload\n      dup2\n      lt\n      tag_207\n      jumpi\n      tag_207\n      tag_33\n      jump\t// in\n    tag_207:\n      not(sub(shl(0xf8, 0x01), 0x01))\n        /* \"contracts/pixel_pictasia_utils.sol\":10217:10243  _imageData[_i++] = hex\"00\" */\n      swap1\n      swap3\n      and\n        /* \"contracts/pixel_pictasia_utils.sol\":10217:10233  _imageData[_i++] */\n      0x20\n      swap3\n      dup4\n      mul\n      swap2\n      swap1\n      swap2\n      add\n      swap1\n      swap2\n      add\n        /* \"contracts/pixel_pictasia_utils.sol\":10217:10243  _imageData[_i++] = hex\"00\" */\n      mstore\n        /* \"contracts/pixel_pictasia_utils.sol\":10285:10296  pngData.red */\n      dup7\n      mload\n        /* \"contracts/pixel_pictasia_utils.sol\":10285:10299  pngData.red[0] */\n      dup1\n      mload\n        /* \"contracts/pixel_pictasia_utils.sol\":10285:10296  pngData.red */\n      0x00\n      swap1\n        /* \"contracts/pixel_pictasia_utils.sol\":10285:10299  pngData.red[0] */\n      tag_209\n      jumpi\n      tag_209\n      tag_33\n      jump\t// in\n    tag_209:\n      0x20\n      mul\n      0x20\n      add\n      add\n      mload\n        /* \"contracts/pixel_pictasia_utils.sol\":10266:10276  _imageData */\n      dup12\n        /* \"contracts/pixel_pictasia_utils.sol\":10277:10281  _i++ */\n      dup12\n      dup1\n      tag_210\n      swap1\n      tag_38\n      jump\t// in\n    tag_210:\n      swap13\n      pop\n        /* \"contracts/pixel_pictasia_utils.sol\":10266:10282  _imageData[_i++] */\n      dup2\n      mload\n      dup2\n      lt\n      tag_212\n      jumpi\n      tag_212\n      tag_33\n      jump\t// in\n    tag_212:\n      not(sub(shl(0xf8, 0x01), 0x01))\n        /* \"contracts/pixel_pictasia_utils.sol\":10266:10299  _imageData[_i++] = pngData.red[0] */\n      swap1\n      swap3\n      and\n        /* \"contracts/pixel_pictasia_utils.sol\":10266:10282  _imageData[_i++] */\n      0x20\n      swap3\n      dup4\n      mul\n      swap2\n      swap1\n      swap2\n      add\n      swap1\n      swap2\n      add\n        /* \"contracts/pixel_pictasia_utils.sol\":10266:10299  _imageData[_i++] = pngData.red[0] */\n      mstore\n        /* \"contracts/pixel_pictasia_utils.sol\":10329:10340  pngData.red */\n      dup7\n      mload\n        /* \"contracts/pixel_pictasia_utils.sol\":10329:10343  pngData.red[1] */\n      dup1\n      mload\n        /* \"contracts/pixel_pictasia_utils.sol\":10341:10342  1 */\n      0x01\n      swap1\n        /* \"contracts/pixel_pictasia_utils.sol\":10329:10343  pngData.red[1] */\n      dup2\n      lt\n      tag_214\n      jumpi\n      tag_214\n      tag_33\n      jump\t// in\n    tag_214:\n      0x20\n      mul\n      0x20\n      add\n      add\n      mload\n        /* \"contracts/pixel_pictasia_utils.sol\":10310:10320  _imageData */\n      dup12\n        /* \"contracts/pixel_pictasia_utils.sol\":10321:10325  _i++ */\n      dup12\n      dup1\n      tag_215\n      swap1\n      tag_38\n      jump\t// in\n    tag_215:\n      swap13\n      pop\n        /* \"contracts/pixel_pictasia_utils.sol\":10310:10326  _imageData[_i++] */\n      dup2\n      mload\n      dup2\n      lt\n      tag_217\n      jumpi\n      tag_217\n      tag_33\n      jump\t// in\n    tag_217:\n      not(sub(shl(0xf8, 0x01), 0x01))\n        /* \"contracts/pixel_pictasia_utils.sol\":10310:10343  _imageData[_i++] = pngData.red[1] */\n      swap1\n      swap3\n      and\n        /* \"contracts/pixel_pictasia_utils.sol\":10310:10326  _imageData[_i++] */\n      0x20\n      swap3\n      dup4\n      mul\n      swap2\n      swap1\n      swap2\n      add\n      swap1\n      swap2\n      add\n        /* \"contracts/pixel_pictasia_utils.sol\":10310:10343  _imageData[_i++] = pngData.red[1] */\n      mstore\n        /* \"contracts/pixel_pictasia_utils.sol\":10373:10384  pngData.red */\n      dup7\n      mload\n        /* \"contracts/pixel_pictasia_utils.sol\":10373:10387  pngData.red[2] */\n      dup1\n      mload\n        /* \"contracts/pixel_pictasia_utils.sol\":10385:10386  2 */\n      0x02\n      swap1\n        /* \"contracts/pixel_pictasia_utils.sol\":10373:10387  pngData.red[2] */\n      dup2\n      lt\n      tag_219\n      jumpi\n      tag_219\n      tag_33\n      jump\t// in\n    tag_219:\n      0x20\n      mul\n      0x20\n      add\n      add\n      mload\n        /* \"contracts/pixel_pictasia_utils.sol\":10354:10364  _imageData */\n      dup12\n        /* \"contracts/pixel_pictasia_utils.sol\":10365:10369  _i++ */\n      dup12\n      dup1\n      tag_220\n      swap1\n      tag_38\n      jump\t// in\n    tag_220:\n      swap13\n      pop\n        /* \"contracts/pixel_pictasia_utils.sol\":10354:10370  _imageData[_i++] */\n      dup2\n      mload\n      dup2\n      lt\n      tag_222\n      jumpi\n      tag_222\n      tag_33\n      jump\t// in\n    tag_222:\n      not(sub(shl(0xf8, 0x01), 0x01))\n        /* \"contracts/pixel_pictasia_utils.sol\":10354:10387  _imageData[_i++] = pngData.red[2] */\n      swap1\n      swap3\n      and\n        /* \"contracts/pixel_pictasia_utils.sol\":10354:10370  _imageData[_i++] */\n      0x20\n      swap3\n      dup4\n      mul\n      swap2\n      swap1\n      swap2\n      add\n      dup3\n      add\n        /* \"contracts/pixel_pictasia_utils.sol\":10354:10387  _imageData[_i++] = pngData.red[2] */\n      mstore\n        /* \"contracts/pixel_pictasia_utils.sol\":10419:10432  pngData.green */\n      dup8\n      add\n      mload\n        /* \"contracts/pixel_pictasia_utils.sol\":10419:10435  pngData.green[0] */\n      dup1\n      mload\n        /* \"contracts/pixel_pictasia_utils.sol\":10433:10434  0 */\n      0x00\n      swap1\n        /* \"contracts/pixel_pictasia_utils.sol\":10419:10435  pngData.green[0] */\n      tag_224\n      jumpi\n      tag_224\n      tag_33\n      jump\t// in\n    tag_224:\n      0x20\n      mul\n      0x20\n      add\n      add\n      mload\n        /* \"contracts/pixel_pictasia_utils.sol\":10400:10410  _imageData */\n      dup12\n        /* \"contracts/pixel_pictasia_utils.sol\":10411:10415  _i++ */\n      dup12\n      dup1\n      tag_225\n      swap1\n      tag_38\n      jump\t// in\n    tag_225:\n      swap13\n      pop\n        /* \"contracts/pixel_pictasia_utils.sol\":10400:10416  _imageData[_i++] */\n      dup2\n      mload\n      dup2\n      lt\n      tag_227\n      jumpi\n      tag_227\n      tag_33\n      jump\t// in\n    tag_227:\n      not(sub(shl(0xf8, 0x01), 0x01))\n        /* \"contracts/pixel_pictasia_utils.sol\":10400:10435  _imageData[_i++] = pngData.green[0] */\n      swap1\n      swap3\n      and\n        /* \"contracts/pixel_pictasia_utils.sol\":10400:10416  _imageData[_i++] */\n      0x20\n      swap3\n      dup4\n      mul\n      swap2\n      swap1\n      swap2\n      add\n      dup3\n      add\n        /* \"contracts/pixel_pictasia_utils.sol\":10400:10435  _imageData[_i++] = pngData.green[0] */\n      mstore\n        /* \"contracts/pixel_pictasia_utils.sol\":10465:10478  pngData.green */\n      dup8\n      add\n      mload\n        /* \"contracts/pixel_pictasia_utils.sol\":10465:10481  pngData.green[1] */\n      dup1\n      mload\n        /* \"contracts/pixel_pictasia_utils.sol\":10479:10480  1 */\n      0x01\n      swap1\n        /* \"contracts/pixel_pictasia_utils.sol\":10465:10481  pngData.green[1] */\n      dup2\n      lt\n      tag_229\n      jumpi\n      tag_229\n      tag_33\n      jump\t// in\n    tag_229:\n      0x20\n      mul\n      0x20\n      add\n      add\n      mload\n        /* \"contracts/pixel_pictasia_utils.sol\":10446:10456  _imageData */\n      dup12\n        /* \"contracts/pixel_pictasia_utils.sol\":10457:10461  _i++ */\n      dup12\n      dup1\n      tag_230\n      swap1\n      tag_38\n      jump\t// in\n    tag_230:\n      swap13\n      pop\n        /* \"contracts/pixel_pictasia_utils.sol\":10446:10462  _imageData[_i++] */\n      dup2\n      mload\n      dup2\n      lt\n      tag_232\n      jumpi\n      tag_232\n      tag_33\n      jump\t// in\n    tag_232:\n      not(sub(shl(0xf8, 0x01), 0x01))\n        /* \"contracts/pixel_pictasia_utils.sol\":10446:10481  _imageData[_i++] = pngData.green[1] */\n      swap1\n      swap3\n      and\n        /* \"contracts/pixel_pictasia_utils.sol\":10446:10462  _imageData[_i++] */\n      0x20\n      swap3\n      dup4\n      mul\n      swap2\n      swap1\n      swap2\n      add\n      dup3\n      add\n        /* \"contracts/pixel_pictasia_utils.sol\":10446:10481  _imageData[_i++] = pngData.green[1] */\n      mstore\n        /* \"contracts/pixel_pictasia_utils.sol\":10511:10524  pngData.green */\n      dup8\n      add\n      mload\n        /* \"contracts/pixel_pictasia_utils.sol\":10511:10527  pngData.green[2] */\n      dup1\n      mload\n        /* \"contracts/pixel_pictasia_utils.sol\":10525:10526  2 */\n      0x02\n      swap1\n        /* \"contracts/pixel_pictasia_utils.sol\":10511:10527  pngData.green[2] */\n      dup2\n      lt\n      tag_234\n      jumpi\n      tag_234\n      tag_33\n      jump\t// in\n    tag_234:\n      0x20\n      mul\n      0x20\n      add\n      add\n      mload\n        /* \"contracts/pixel_pictasia_utils.sol\":10492:10502  _imageData */\n      dup12\n        /* \"contracts/pixel_pictasia_utils.sol\":10503:10507  _i++ */\n      dup12\n      dup1\n      tag_235\n      swap1\n      tag_38\n      jump\t// in\n    tag_235:\n      swap13\n      pop\n        /* \"contracts/pixel_pictasia_utils.sol\":10492:10508  _imageData[_i++] */\n      dup2\n      mload\n      dup2\n      lt\n      tag_237\n      jumpi\n      tag_237\n      tag_33\n      jump\t// in\n    tag_237:\n      not(sub(shl(0xf8, 0x01), 0x01))\n        /* \"contracts/pixel_pictasia_utils.sol\":10492:10527  _imageData[_i++] = pngData.green[2] */\n      swap1\n      swap3\n      and\n        /* \"contracts/pixel_pictasia_utils.sol\":10492:10508  _imageData[_i++] */\n      0x20\n      swap3\n      dup4\n      mul\n      swap2\n      swap1\n      swap2\n      add\n      swap1\n      swap2\n      add\n        /* \"contracts/pixel_pictasia_utils.sol\":10492:10527  _imageData[_i++] = pngData.green[2] */\n      mstore\n        /* \"contracts/pixel_pictasia_utils.sol\":10559:10571  pngData.blue */\n      0x40\n      dup8\n      add\n      mload\n        /* \"contracts/pixel_pictasia_utils.sol\":10559:10574  pngData.blue[0] */\n      dup1\n      mload\n        /* \"contracts/pixel_pictasia_utils.sol\":10572:10573  0 */\n      0x00\n      swap1\n        /* \"contracts/pixel_pictasia_utils.sol\":10559:10574  pngData.blue[0] */\n      tag_239\n      jumpi\n      tag_239\n      tag_33\n      jump\t// in\n    tag_239:\n      0x20\n      mul\n      0x20\n      add\n      add\n      mload\n        /* \"contracts/pixel_pictasia_utils.sol\":10540:10550  _imageData */\n      dup12\n        /* \"contracts/pixel_pictasia_utils.sol\":10551:10555  _i++ */\n      dup12\n      dup1\n      tag_240\n      swap1\n      tag_38\n      jump\t// in\n    tag_240:\n      swap13\n      pop\n        /* \"contracts/pixel_pictasia_utils.sol\":10540:10556  _imageData[_i++] */\n      dup2\n      mload\n      dup2\n      lt\n      tag_242\n      jumpi\n      tag_242\n      tag_33\n      jump\t// in\n    tag_242:\n      not(sub(shl(0xf8, 0x01), 0x01))\n        /* \"contracts/pixel_pictasia_utils.sol\":10540:10574  _imageData[_i++] = pngData.blue[0] */\n      swap1\n      swap3\n      and\n        /* \"contracts/pixel_pictasia_utils.sol\":10540:10556  _imageData[_i++] */\n      0x20\n      swap3\n      dup4\n      mul\n      swap2\n      swap1\n      swap2\n      add\n      swap1\n      swap2\n      add\n        /* \"contracts/pixel_pictasia_utils.sol\":10540:10574  _imageData[_i++] = pngData.blue[0] */\n      mstore\n        /* \"contracts/pixel_pictasia_utils.sol\":10604:10616  pngData.blue */\n      0x40\n      dup8\n      add\n      mload\n        /* \"contracts/pixel_pictasia_utils.sol\":10604:10619  pngData.blue[1] */\n      dup1\n      mload\n        /* \"contracts/pixel_pictasia_utils.sol\":10617:10618  1 */\n      0x01\n      swap1\n        /* \"contracts/pixel_pictasia_utils.sol\":10604:10619  pngData.blue[1] */\n      dup2\n      lt\n      tag_244\n      jumpi\n      tag_244\n      tag_33\n      jump\t// in\n    tag_244:\n      0x20\n      mul\n      0x20\n      add\n      add\n      mload\n        /* \"contracts/pixel_pictasia_utils.sol\":10585:10595  _imageData */\n      dup12\n        /* \"contracts/pixel_pictasia_utils.sol\":10596:10600  _i++ */\n      dup12\n      dup1\n      tag_245\n      swap1\n      tag_38\n      jump\t// in\n    tag_245:\n      swap13\n      pop\n        /* \"contracts/pixel_pictasia_utils.sol\":10585:10601  _imageData[_i++] */\n      dup2\n      mload\n      dup2\n      lt\n      tag_247\n      jumpi\n      tag_247\n      tag_33\n      jump\t// in\n    tag_247:\n      not(sub(shl(0xf8, 0x01), 0x01))\n        /* \"contracts/pixel_pictasia_utils.sol\":10585:10619  _imageData[_i++] = pngData.blue[1] */\n      swap1\n      swap3\n      and\n        /* \"contracts/pixel_pictasia_utils.sol\":10585:10601  _imageData[_i++] */\n      0x20\n      swap3\n      dup4\n      mul\n      swap2\n      swap1\n      swap2\n      add\n      swap1\n      swap2\n      add\n        /* \"contracts/pixel_pictasia_utils.sol\":10585:10619  _imageData[_i++] = pngData.blue[1] */\n      mstore\n        /* \"contracts/pixel_pictasia_utils.sol\":10649:10661  pngData.blue */\n      0x40\n      dup8\n      add\n      mload\n        /* \"contracts/pixel_pictasia_utils.sol\":10649:10664  pngData.blue[2] */\n      dup1\n      mload\n        /* \"contracts/pixel_pictasia_utils.sol\":10662:10663  2 */\n      0x02\n      swap1\n        /* \"contracts/pixel_pictasia_utils.sol\":10649:10664  pngData.blue[2] */\n      dup2\n      lt\n      tag_249\n      jumpi\n      tag_249\n      tag_33\n      jump\t// in\n    tag_249:\n      0x20\n      mul\n      0x20\n      add\n      add\n      mload\n        /* \"contracts/pixel_pictasia_utils.sol\":10630:10640  _imageData */\n      dup12\n        /* \"contracts/pixel_pictasia_utils.sol\":10641:10645  _i++ */\n      dup12\n      dup1\n      tag_250\n      swap1\n      tag_38\n      jump\t// in\n    tag_250:\n      swap13\n      pop\n        /* \"contracts/pixel_pictasia_utils.sol\":10630:10646  _imageData[_i++] */\n      dup2\n      mload\n      dup2\n      lt\n      tag_252\n      jumpi\n      tag_252\n      tag_33\n      jump\t// in\n    tag_252:\n      not(sub(shl(0xf8, 0x01), 0x01))\n        /* \"contracts/pixel_pictasia_utils.sol\":10630:10664  _imageData[_i++] = pngData.blue[2] */\n      swap1\n      swap3\n      and\n        /* \"contracts/pixel_pictasia_utils.sol\":10630:10646  _imageData[_i++] */\n      0x20\n      swap3\n      dup4\n      mul\n      swap2\n      swap1\n      swap2\n      add\n      swap1\n      swap2\n      add\n        /* \"contracts/pixel_pictasia_utils.sol\":10630:10664  _imageData[_i++] = pngData.blue[2] */\n      mstore\n        /* \"contracts/pixel_pictasia_utils.sol\":11094:11096  _i */\n      dup10\n        /* \"contracts/pixel_pictasia_utils.sol\":11234:11294  addADLER32(_imageData, _i, iZLIBLengthStart, iZLIBLengthEnd) */\n      tag_253\n        /* \"contracts/pixel_pictasia_utils.sol\":11245:11255  _imageData */\n      dup13\n        /* \"contracts/pixel_pictasia_utils.sol\":11094:11096  _i */\n      dup3\n        /* \"contracts/pixel_pictasia_utils.sol\":11261:11277  iZLIBLengthStart */\n      dup5\n        /* \"contracts/pixel_pictasia_utils.sol\":11094:11096  _i */\n      dup2\n        /* \"contracts/pixel_pictasia_utils.sol\":11234:11244  addADLER32 */\n      tag_254\n        /* \"contracts/pixel_pictasia_utils.sol\":11234:11294  addADLER32(_imageData, _i, iZLIBLengthStart, iZLIBLengthEnd) */\n      jump\t// in\n    tag_253:\n        /* \"contracts/pixel_pictasia_utils.sol\":11215:11294  (_imageData, _i) = addADLER32(_imageData, _i, iZLIBLengthStart, iZLIBLengthEnd) */\n      swap1\n      swap13\n      pop\n      swap11\n      pop\n      dup11\n        /* \"contracts/pixel_pictasia_utils.sol\":11485:11537  addCRC(_imageData, _i, iLengthStart - 4, iLengthEnd) */\n      tag_255\n        /* \"contracts/pixel_pictasia_utils.sol\":11215:11294  (_imageData, _i) = addADLER32(_imageData, _i, iZLIBLengthStart, iZLIBLengthEnd) */\n      dup14\n      dup3\n        /* \"contracts/pixel_pictasia_utils.sol\":11508:11524  iLengthStart - 4 */\n      tag_256\n        /* \"contracts/pixel_pictasia_utils.sol\":11523:11524  4 */\n      0x04\n        /* \"contracts/pixel_pictasia_utils.sol\":11508:11520  iLengthStart */\n      dup10\n        /* \"contracts/pixel_pictasia_utils.sol\":11508:11524  iLengthStart - 4 */\n      tag_180\n      jump\t// in\n    tag_256:\n        /* \"contracts/pixel_pictasia_utils.sol\":11526:11536  iLengthEnd */\n      dup5\n        /* \"contracts/pixel_pictasia_utils.sol\":11485:11491  addCRC */\n      tag_177\n        /* \"contracts/pixel_pictasia_utils.sol\":11485:11537  addCRC(_imageData, _i, iLengthStart - 4, iLengthEnd) */\n      jump\t// in\n    tag_255:\n        /* \"contracts/pixel_pictasia_utils.sol\":11466:11537  (_imageData, _i) = addCRC(_imageData, _i, iLengthStart - 4, iLengthEnd) */\n      swap1\n      swap14\n      pop\n      swap12\n      pop\n        /* \"contracts/pixel_pictasia_utils.sol\":11662:11726  add4ByteValue(_imageData, iLengthIdx, iLengthEnd - iLengthStart) */\n      tag_257\n        /* \"contracts/pixel_pictasia_utils.sol\":11466:11537  (_imageData, _i) = addCRC(_imageData, _i, iLengthStart - 4, iLengthEnd) */\n      dup14\n        /* \"contracts/pixel_pictasia_utils.sol\":11688:11698  iLengthIdx */\n      dup8\n        /* \"contracts/pixel_pictasia_utils.sol\":11700:11725  iLengthEnd - iLengthStart */\n      tag_179\n        /* \"contracts/pixel_pictasia_utils.sol\":11713:11725  iLengthStart */\n      dup9\n        /* \"contracts/pixel_pictasia_utils.sol\":11700:11710  iLengthEnd */\n      dup6\n        /* \"contracts/pixel_pictasia_utils.sol\":11700:11725  iLengthEnd - iLengthStart */\n      tag_180\n      jump\t// in\n        /* \"contracts/pixel_pictasia_utils.sol\":11662:11726  add4ByteValue(_imageData, iLengthIdx, iLengthEnd - iLengthStart) */\n    tag_257:\n        /* \"contracts/pixel_pictasia_utils.sol\":11635:11726  (_imageData, iLengthIdx) = add4ByteValue(_imageData, iLengthIdx, iLengthEnd - iLengthStart) */\n      swap1\n      swap14\n      pop\n      swap6\n      pop\n        /* \"contracts/pixel_pictasia_utils.sol\":11768:11844  add2ByteValue(_imageData, iZLIBLengthIdx, iZLIBLengthEnd - iZLIBLengthStart) */\n      tag_259\n        /* \"contracts/pixel_pictasia_utils.sol\":11635:11726  (_imageData, iLengthIdx) = add4ByteValue(_imageData, iLengthIdx, iLengthEnd - iLengthStart) */\n      dup14\n        /* \"contracts/pixel_pictasia_utils.sol\":11794:11808  iZLIBLengthIdx */\n      dup6\n        /* \"contracts/pixel_pictasia_utils.sol\":11810:11843  iZLIBLengthEnd - iZLIBLengthStart */\n      tag_260\n        /* \"contracts/pixel_pictasia_utils.sol\":11827:11843  iZLIBLengthStart */\n      dup7\n        /* \"contracts/pixel_pictasia_utils.sol\":11810:11824  iZLIBLengthEnd */\n      dup7\n        /* \"contracts/pixel_pictasia_utils.sol\":11810:11843  iZLIBLengthEnd - iZLIBLengthStart */\n      tag_180\n      jump\t// in\n    tag_260:\n        /* \"contracts/pixel_pictasia_utils.sol\":11768:11781  add2ByteValue */\n      tag_261\n        /* \"contracts/pixel_pictasia_utils.sol\":11768:11844  add2ByteValue(_imageData, iZLIBLengthIdx, iZLIBLengthEnd - iZLIBLengthStart) */\n      jump\t// in\n    tag_259:\n        /* \"contracts/pixel_pictasia_utils.sol\":11737:11844  (_imageData, iZLIBLengthIdx) = add2ByteValue(_imageData, iZLIBLengthIdx, iZLIBLengthEnd - iZLIBLengthStart) */\n      swap1\n      swap14\n      pop\n      swap4\n      pop\n        /* \"contracts/pixel_pictasia_utils.sol\":11886:11972  add2ByteValue(_imageData, iZLIBLengthIdx, 65535 - (iZLIBLengthEnd - iZLIBLengthStart)) */\n      tag_262\n        /* \"contracts/pixel_pictasia_utils.sol\":11737:11844  (_imageData, iZLIBLengthIdx) = add2ByteValue(_imageData, iZLIBLengthIdx, iZLIBLengthEnd - iZLIBLengthStart) */\n      dup14\n      dup6\n        /* \"contracts/pixel_pictasia_utils.sol\":11937:11970  iZLIBLengthEnd - iZLIBLengthStart */\n      tag_263\n        /* \"contracts/pixel_pictasia_utils.sol\":11954:11970  iZLIBLengthStart */\n      dup7\n        /* \"contracts/pixel_pictasia_utils.sol\":11937:11951  iZLIBLengthEnd */\n      dup7\n        /* \"contracts/pixel_pictasia_utils.sol\":11937:11970  iZLIBLengthEnd - iZLIBLengthStart */\n      tag_180\n      jump\t// in\n    tag_263:\n        /* \"contracts/pixel_pictasia_utils.sol\":11928:11971  65535 - (iZLIBLengthEnd - iZLIBLengthStart) */\n      tag_260\n      swap1\n        /* \"contracts/pixel_pictasia_utils.sol\":11928:11933  65535 */\n      0xffff\n        /* \"contracts/pixel_pictasia_utils.sol\":11928:11971  65535 - (iZLIBLengthEnd - iZLIBLengthStart) */\n      tag_180\n      jump\t// in\n        /* \"contracts/pixel_pictasia_utils.sol\":11886:11972  add2ByteValue(_imageData, iZLIBLengthIdx, 65535 - (iZLIBLengthEnd - iZLIBLengthStart)) */\n    tag_262:\n      pop\n        /* \"contracts/pixel_pictasia_utils.sol\":11855:11972  (_imageData, iZLIBLengthIdx) = add2ByteValue(_imageData, iZLIBLengthIdx, 65535 - (iZLIBLengthEnd - iZLIBLengthStart)) */\n      swap14\n        /* \"contracts/pixel_pictasia_utils.sol\":12005:12007  _i */\n      swap12\n      swap13\n      pop\n      pop\n      pop\n      pop\n      pop\n      pop\n      pop\n      pop\n      pop\n      pop\n      pop\n      pop\n        /* \"contracts/pixel_pictasia_utils.sol\":9286:12016  function addIDATChunck(bytes1[] memory _imageData, uint256 _i, uint256 _width, uint256 _height, PNGData memory pngData) private view returns (bytes1[] memory, uint256) {... */\n      jump\t// out\n        /* \"contracts/pixel_pictasia_utils.sol\":12024:12604  function addIENDChunck(bytes1[] memory _imageData, uint256 _i) private view returns (bytes1[] memory, uint256) {... */\n    tag_89:\n        /* \"contracts/pixel_pictasia_utils.sol\":12109:12124  bytes1[] memory */\n      0x60\n        /* \"contracts/pixel_pictasia_utils.sol\":12126:12133  uint256 */\n      0x00\n        /* \"contracts/pixel_pictasia_utils.sol\":12196:12228  add4ByteValue(_imageData, _i, 0) */\n      tag_266\n        /* \"contracts/pixel_pictasia_utils.sol\":12210:12220  _imageData */\n      dup5\n        /* \"contracts/pixel_pictasia_utils.sol\":12222:12224  _i */\n      dup5\n        /* \"contracts/pixel_pictasia_utils.sol\":12226:12227  0 */\n      0x00\n        /* \"contracts/pixel_pictasia_utils.sol\":12196:12209  add4ByteValue */\n      tag_159\n        /* \"contracts/pixel_pictasia_utils.sol\":12196:12228  add4ByteValue(_imageData, _i, 0) */\n      jump\t// in\n    tag_266:\n        /* \"contracts/pixel_pictasia_utils.sol\":12177:12228  (_imageData, _i) = add4ByteValue(_imageData, _i, 0) */\n      swap1\n      swap5\n      pop\n      swap3\n      pop\n      dup3\n      shl(0xf8, 0x49)\n      dup6\n      dup3\n        /* \"contracts/pixel_pictasia_utils.sol\":12311:12315  _i++ */\n      tag_267\n        /* \"contracts/pixel_pictasia_utils.sol\":12177:12228  (_imageData, _i) = add4ByteValue(_imageData, _i, 0) */\n      dup2\n        /* \"contracts/pixel_pictasia_utils.sol\":12311:12315  _i++ */\n      tag_38\n      jump\t// in\n    tag_267:\n      swap7\n      pop\n        /* \"contracts/pixel_pictasia_utils.sol\":12300:12316  _imageData[_i++] */\n      dup2\n      mload\n      dup2\n      lt\n      tag_269\n      jumpi\n      tag_269\n      tag_33\n      jump\t// in\n    tag_269:\n      not(sub(shl(0xf8, 0x01), 0x01))\n        /* \"contracts/pixel_pictasia_utils.sol\":12300:12326  _imageData[_i++] = hex\"49\" */\n      swap1\n      swap3\n      and\n        /* \"contracts/pixel_pictasia_utils.sol\":12300:12316  _imageData[_i++] */\n      0x20\n      swap3\n      dup4\n      mul\n      swap2\n      swap1\n      swap2\n      add\n      swap1\n      swap2\n      add\n        /* \"contracts/pixel_pictasia_utils.sol\":12300:12326  _imageData[_i++] = hex\"49\" */\n      mstore\n      shl(0xf8, 0x45)\n        /* \"contracts/pixel_pictasia_utils.sol\":12337:12347  _imageData */\n      dup6\n        /* \"contracts/pixel_pictasia_utils.sol\":12348:12352  _i++ */\n      dup6\n      tag_270\n      dup2\n      tag_38\n      jump\t// in\n    tag_270:\n      swap7\n      pop\n        /* \"contracts/pixel_pictasia_utils.sol\":12337:12353  _imageData[_i++] */\n      dup2\n      mload\n      dup2\n      lt\n      tag_272\n      jumpi\n      tag_272\n      tag_33\n      jump\t// in\n    tag_272:\n      not(sub(shl(0xf8, 0x01), 0x01))\n        /* \"contracts/pixel_pictasia_utils.sol\":12337:12363  _imageData[_i++] = hex\"45\" */\n      swap1\n      swap3\n      and\n        /* \"contracts/pixel_pictasia_utils.sol\":12337:12353  _imageData[_i++] */\n      0x20\n      swap3\n      dup4\n      mul\n      swap2\n      swap1\n      swap2\n      add\n      swap1\n      swap2\n      add\n        /* \"contracts/pixel_pictasia_utils.sol\":12337:12363  _imageData[_i++] = hex\"45\" */\n      mstore\n      shl(0xf9, 0x27)\n        /* \"contracts/pixel_pictasia_utils.sol\":12374:12384  _imageData */\n      dup6\n        /* \"contracts/pixel_pictasia_utils.sol\":12385:12389  _i++ */\n      dup6\n      tag_273\n      dup2\n      tag_38\n      jump\t// in\n    tag_273:\n      swap7\n      pop\n        /* \"contracts/pixel_pictasia_utils.sol\":12374:12390  _imageData[_i++] */\n      dup2\n      mload\n      dup2\n      lt\n      tag_275\n      jumpi\n      tag_275\n      tag_33\n      jump\t// in\n    tag_275:\n      not(sub(shl(0xf8, 0x01), 0x01))\n        /* \"contracts/pixel_pictasia_utils.sol\":12374:12400  _imageData[_i++] = hex\"4E\" */\n      swap1\n      swap3\n      and\n        /* \"contracts/pixel_pictasia_utils.sol\":12374:12390  _imageData[_i++] */\n      0x20\n      swap3\n      dup4\n      mul\n      swap2\n      swap1\n      swap2\n      add\n      swap1\n      swap2\n      add\n        /* \"contracts/pixel_pictasia_utils.sol\":12374:12400  _imageData[_i++] = hex\"4E\" */\n      mstore\n      shl(0xfa, 0x11)\n        /* \"contracts/pixel_pictasia_utils.sol\":12411:12421  _imageData */\n      dup6\n        /* \"contracts/pixel_pictasia_utils.sol\":12422:12426  _i++ */\n      dup6\n      tag_276\n      dup2\n      tag_38\n      jump\t// in\n    tag_276:\n      swap7\n      pop\n        /* \"contracts/pixel_pictasia_utils.sol\":12411:12427  _imageData[_i++] */\n      dup2\n      mload\n      dup2\n      lt\n      tag_278\n      jumpi\n      tag_278\n      tag_33\n      jump\t// in\n    tag_278:\n      not(sub(shl(0xf8, 0x01), 0x01))\n        /* \"contracts/pixel_pictasia_utils.sol\":12411:12437  _imageData[_i++] = hex\"44\" */\n      swap1\n      swap3\n      and\n        /* \"contracts/pixel_pictasia_utils.sol\":12411:12427  _imageData[_i++] */\n      0x20\n      swap3\n      dup4\n      mul\n      swap2\n      swap1\n      swap2\n      add\n      swap1\n      swap2\n      add\n        /* \"contracts/pixel_pictasia_utils.sol\":12411:12437  _imageData[_i++] = hex\"44\" */\n      mstore\n        /* \"contracts/pixel_pictasia_utils.sol\":12468:12470  _i */\n      dup4\n        /* \"contracts/pixel_pictasia_utils.sol\":12518:12560  addCRC(_imageData, _i, iCRCStart, iCRCEnd) */\n      tag_279\n        /* \"contracts/pixel_pictasia_utils.sol\":12525:12535  _imageData */\n      dup7\n        /* \"contracts/pixel_pictasia_utils.sol\":12468:12470  _i */\n      dup3\n        /* \"contracts/pixel_pictasia_utils.sol\":12541:12550  iCRCStart */\n      dup5\n        /* \"contracts/pixel_pictasia_utils.sol\":12468:12470  _i */\n      dup2\n        /* \"contracts/pixel_pictasia_utils.sol\":12518:12524  addCRC */\n      tag_177\n        /* \"contracts/pixel_pictasia_utils.sol\":12518:12560  addCRC(_imageData, _i, iCRCStart, iCRCEnd) */\n      jump\t// in\n    tag_279:\n        /* \"contracts/pixel_pictasia_utils.sol\":12499:12560  (_imageData, _i) = addCRC(_imageData, _i, iCRCStart, iCRCEnd) */\n      swap1\n      swap8\n      swap1\n      swap7\n      pop\n        /* \"contracts/pixel_pictasia_utils.sol\":12024:12604  function addIENDChunck(bytes1[] memory _imageData, uint256 _i) private view returns (bytes1[] memory, uint256) {... */\n      swap5\n      pop\n      pop\n      pop\n      pop\n      pop\n      jump\t// out\n        /* \"contracts/pixel_pictasia_utils.sol\":5620:5911  function update_crc(uint256 _crc, bytes1[] memory _buf, uint256 _len) private view returns (uint256) {... */\n    tag_103:\n        /* \"contracts/pixel_pictasia_utils.sol\":5712:5719  uint256 */\n      0x00\n        /* \"contracts/pixel_pictasia_utils.sol\":5744:5748  _crc */\n      dup4\n        /* \"contracts/pixel_pictasia_utils.sol\":5712:5719  uint256 */\n      dup2\n        /* \"contracts/pixel_pictasia_utils.sol\":5761:5875  for (uint256 n = 0; n < _len; n++) {... */\n    tag_281:\n        /* \"contracts/pixel_pictasia_utils.sol\":5785:5789  _len */\n      dup4\n        /* \"contracts/pixel_pictasia_utils.sol\":5781:5782  n */\n      dup2\n        /* \"contracts/pixel_pictasia_utils.sol\":5781:5789  n < _len */\n      lt\n        /* \"contracts/pixel_pictasia_utils.sol\":5761:5875  for (uint256 n = 0; n < _len; n++) {... */\n      iszero\n      tag_282\n      jumpi\n        /* \"contracts/pixel_pictasia_utils.sol\":5861:5862  8 */\n      0x08\n        /* \"contracts/pixel_pictasia_utils.sol\":5856:5857  c */\n      dup3\n        /* \"contracts/pixel_pictasia_utils.sol\":5856:5862  c >> 8 */\n      swap1\n      shr\n        /* \"contracts/pixel_pictasia_utils.sol\":5815:5824  CRC_TABLE */\n      0x00\n        /* \"contracts/pixel_pictasia_utils.sol\":5836:5840  _buf */\n      dup7\n        /* \"contracts/pixel_pictasia_utils.sol\":5841:5842  n */\n      dup4\n        /* \"contracts/pixel_pictasia_utils.sol\":5836:5843  _buf[n] */\n      dup2\n      mload\n      dup2\n      lt\n      tag_285\n      jumpi\n      tag_285\n      tag_33\n      jump\t// in\n    tag_285:\n      0x20\n      mul\n      0x20\n      add\n      add\n      mload\n        /* \"contracts/pixel_pictasia_utils.sol\":5830:5844  uint8(_buf[n]) */\n      0xf8\n      shr\n        /* \"contracts/pixel_pictasia_utils.sol\":5826:5844  c ^ uint8(_buf[n]) */\n      0xff\n      and\n        /* \"contracts/pixel_pictasia_utils.sol\":5826:5827  c */\n      dup5\n        /* \"contracts/pixel_pictasia_utils.sol\":5826:5844  c ^ uint8(_buf[n]) */\n      xor\n        /* \"contracts/pixel_pictasia_utils.sol\":5848:5851  255 */\n      0xff\n        /* \"contracts/pixel_pictasia_utils.sol\":5825:5851  (c ^ uint8(_buf[n])) & 255 */\n      and\n        /* \"contracts/pixel_pictasia_utils.sol\":5815:5852  CRC_TABLE[(c ^ uint8(_buf[n])) & 255] */\n      0x0100\n      dup2\n      lt\n      tag_287\n      jumpi\n      tag_287\n      tag_33\n      jump\t// in\n    tag_287:\n      add\n      sload\n        /* \"contracts/pixel_pictasia_utils.sol\":5815:5863  CRC_TABLE[(c ^ uint8(_buf[n])) & 255] ^ (c >> 8) */\n      xor\n      swap2\n      pop\n        /* \"contracts/pixel_pictasia_utils.sol\":5791:5794  n++ */\n      dup1\n      tag_289\n      dup2\n      tag_38\n      jump\t// in\n    tag_289:\n      swap2\n      pop\n      pop\n        /* \"contracts/pixel_pictasia_utils.sol\":5761:5875  for (uint256 n = 0; n < _len; n++) {... */\n      jump(tag_281)\n    tag_282:\n      pop\n        /* \"contracts/pixel_pictasia_utils.sol\":5902:5903  c */\n      swap5\n        /* \"contracts/pixel_pictasia_utils.sol\":5620:5911  function update_crc(uint256 _crc, bytes1[] memory _buf, uint256 _len) private view returns (uint256) {... */\n      swap4\n      pop\n      pop\n      pop\n      pop\n      jump\t// out\n        /* \"contracts/pixel_pictasia_utils.sol\":14110:14640  function add4ByteValue(bytes1[] memory _imageData, uint256 _i, uint256 _value) private pure returns (bytes1[] memory, uint256) {... */\n    tag_159:\n        /* \"contracts/pixel_pictasia_utils.sol\":14211:14226  bytes1[] memory */\n      0x60\n        /* \"contracts/pixel_pictasia_utils.sol\":14228:14235  uint256 */\n      0x00\n      not(sub(shl(0xf8, 0x01), 0x01))\n        /* \"contracts/pixel_pictasia_utils.sol\":14357:14399  bytes1(uint8((_value & 0xff000000) >> 24)) */\n      0xe0\n      dup5\n      swap1\n      shl\n      and\n        /* \"contracts/pixel_pictasia_utils.sol\":14338:14348  _imageData */\n      dup6\n        /* \"contracts/pixel_pictasia_utils.sol\":14349:14353  _i++ */\n      dup6\n      tag_291\n      dup2\n      tag_38\n      jump\t// in\n    tag_291:\n      swap7\n      pop\n        /* \"contracts/pixel_pictasia_utils.sol\":14338:14354  _imageData[_i++] */\n      dup2\n      mload\n      dup2\n      lt\n      tag_293\n      jumpi\n      tag_293\n      tag_33\n      jump\t// in\n    tag_293:\n      not(sub(shl(0xf8, 0x01), 0x01))\n        /* \"contracts/pixel_pictasia_utils.sol\":14338:14399  _imageData[_i++] = bytes1(uint8((_value & 0xff000000) >> 24)) */\n      swap3\n      dup4\n      and\n        /* \"contracts/pixel_pictasia_utils.sol\":14338:14354  _imageData[_i++] */\n      0x20\n      swap2\n      dup3\n      mul\n      swap3\n      swap1\n      swap3\n      add\n      add\n        /* \"contracts/pixel_pictasia_utils.sol\":14338:14399  _imageData[_i++] = bytes1(uint8((_value & 0xff000000) >> 24)) */\n      mstore\n        /* \"contracts/pixel_pictasia_utils.sol\":14429:14469  bytes1(uint8((_value & 0xff0000) >> 16)) */\n      0xe8\n      dup5\n      swap1\n      shl\n      and\n        /* \"contracts/pixel_pictasia_utils.sol\":14410:14420  _imageData */\n      dup6\n        /* \"contracts/pixel_pictasia_utils.sol\":14421:14425  _i++ */\n      dup6\n      tag_294\n      dup2\n      tag_38\n      jump\t// in\n    tag_294:\n      swap7\n      pop\n        /* \"contracts/pixel_pictasia_utils.sol\":14410:14426  _imageData[_i++] */\n      dup2\n      mload\n      dup2\n      lt\n      tag_296\n      jumpi\n      tag_296\n      tag_33\n      jump\t// in\n    tag_296:\n      not(sub(shl(0xf8, 0x01), 0x01))\n        /* \"contracts/pixel_pictasia_utils.sol\":14410:14469  _imageData[_i++] = bytes1(uint8((_value & 0xff0000) >> 16)) */\n      swap3\n      dup4\n      and\n        /* \"contracts/pixel_pictasia_utils.sol\":14410:14426  _imageData[_i++] */\n      0x20\n      swap2\n      dup3\n      mul\n      swap3\n      swap1\n      swap3\n      add\n      add\n        /* \"contracts/pixel_pictasia_utils.sol\":14410:14469  _imageData[_i++] = bytes1(uint8((_value & 0xff0000) >> 16)) */\n      mstore\n        /* \"contracts/pixel_pictasia_utils.sol\":14499:14536  bytes1(uint8((_value & 0xff00) >> 8)) */\n      0xf0\n      dup5\n      swap1\n      shl\n      and\n        /* \"contracts/pixel_pictasia_utils.sol\":14480:14490  _imageData */\n      dup6\n        /* \"contracts/pixel_pictasia_utils.sol\":14491:14495  _i++ */\n      dup6\n      tag_297\n      dup2\n      tag_38\n      jump\t// in\n    tag_297:\n      swap7\n      pop\n        /* \"contracts/pixel_pictasia_utils.sol\":14480:14496  _imageData[_i++] */\n      dup2\n      mload\n      dup2\n      lt\n      tag_299\n      jumpi\n      tag_299\n      tag_33\n      jump\t// in\n    tag_299:\n      not(sub(shl(0xf8, 0x01), 0x01))\n        /* \"contracts/pixel_pictasia_utils.sol\":14480:14536  _imageData[_i++] = bytes1(uint8((_value & 0xff00) >> 8)) */\n      swap3\n      dup4\n      and\n        /* \"contracts/pixel_pictasia_utils.sol\":14480:14496  _imageData[_i++] */\n      0x20\n      swap2\n      dup3\n      mul\n      swap3\n      swap1\n      swap3\n      add\n      add\n        /* \"contracts/pixel_pictasia_utils.sol\":14480:14536  _imageData[_i++] = bytes1(uint8((_value & 0xff00) >> 8)) */\n      mstore\n        /* \"contracts/pixel_pictasia_utils.sol\":14566:14596  bytes1(uint8((_value & 0xff))) */\n      0xf8\n      dup5\n      swap1\n      shl\n      and\n        /* \"contracts/pixel_pictasia_utils.sol\":14547:14557  _imageData */\n      dup6\n        /* \"contracts/pixel_pictasia_utils.sol\":14558:14562  _i++ */\n      dup6\n      tag_300\n      dup2\n      tag_38\n      jump\t// in\n    tag_300:\n      swap7\n      pop\n        /* \"contracts/pixel_pictasia_utils.sol\":14547:14563  _imageData[_i++] */\n      dup2\n      mload\n      dup2\n      lt\n      tag_302\n      jumpi\n      tag_302\n      tag_33\n      jump\t// in\n    tag_302:\n      not(sub(shl(0xf8, 0x01), 0x01))\n        /* \"contracts/pixel_pictasia_utils.sol\":14547:14596  _imageData[_i++] = bytes1(uint8((_value & 0xff))) */\n      swap3\n      swap1\n      swap3\n      and\n        /* \"contracts/pixel_pictasia_utils.sol\":14547:14563  _imageData[_i++] */\n      0x20\n      swap3\n      dup4\n      mul\n      swap2\n      swap1\n      swap2\n      add\n      swap1\n      swap2\n      add\n        /* \"contracts/pixel_pictasia_utils.sol\":14547:14596  _imageData[_i++] = bytes1(uint8((_value & 0xff))) */\n      mstore\n      pop\n        /* \"contracts/pixel_pictasia_utils.sol\":14617:14627  _imageData */\n      swap3\n      swap4\n        /* \"contracts/pixel_pictasia_utils.sol\":14629:14631  _i */\n      swap2\n      swap3\n      pop\n      pop\n        /* \"contracts/pixel_pictasia_utils.sol\":14110:14640  function add4ByteValue(bytes1[] memory _imageData, uint256 _i, uint256 _value) private pure returns (bytes1[] memory, uint256) {... */\n      jump\t// out\n        /* \"contracts/pixel_pictasia_utils.sol\":13186:13712  function addCRC(bytes1[] memory _imageData, uint256 _i, uint256 _iCRCStart, uint256 _iCRCEnd) private view returns (bytes1[] memory, uint256) {... */\n    tag_177:\n        /* \"contracts/pixel_pictasia_utils.sol\":13302:13317  bytes1[] memory */\n      0x60\n        /* \"contracts/pixel_pictasia_utils.sol\":13319:13326  uint256 */\n      0x00\n      dup1\n        /* \"contracts/pixel_pictasia_utils.sol\":13351:13372  _iCRCEnd - _iCRCStart */\n      tag_304\n        /* \"contracts/pixel_pictasia_utils.sol\":13362:13372  _iCRCStart */\n      dup6\n        /* \"contracts/pixel_pictasia_utils.sol\":13351:13359  _iCRCEnd */\n      dup6\n        /* \"contracts/pixel_pictasia_utils.sol\":13351:13372  _iCRCEnd - _iCRCStart */\n      tag_180\n      jump\t// in\n    tag_304:\n        /* \"contracts/pixel_pictasia_utils.sol\":13339:13372  uint256 L = _iCRCEnd - _iCRCStart */\n      swap1\n      pop\n        /* \"contracts/pixel_pictasia_utils.sol\":13385:13394  uint256 b */\n      0x00\n        /* \"contracts/pixel_pictasia_utils.sol\":13409:13428  bytes1[] memory buf */\n      dup1\n        /* \"contracts/pixel_pictasia_utils.sol\":13444:13445  L */\n      dup3\n        /* \"contracts/pixel_pictasia_utils.sol\":13431:13446  new bytes1[](L) */\n      0xffffffffffffffff\n      dup2\n      gt\n      iszero\n      tag_306\n      jumpi\n      tag_306\n      tag_45\n      jump\t// in\n    tag_306:\n      mload(0x40)\n      swap1\n      dup1\n      dup3\n      mstore\n      dup1\n      0x20\n      mul\n      0x20\n      add\n      dup3\n      add\n      0x40\n      mstore\n      dup1\n      iszero\n      tag_307\n      jumpi\n      dup2\n      0x20\n      add\n      0x20\n      dup3\n      mul\n      dup1\n      calldatasize\n      dup4\n      calldatacopy\n      add\n      swap1\n      pop\n    tag_307:\n      pop\n        /* \"contracts/pixel_pictasia_utils.sol\":13409:13446  bytes1[] memory buf = new bytes1[](L) */\n      swap1\n      pop\n        /* \"contracts/pixel_pictasia_utils.sol\":13475:13485  _iCRCStart */\n      dup7\n        /* \"contracts/pixel_pictasia_utils.sol\":13459:13557  for(uint256 x = _iCRCStart; x < _iCRCEnd; x++) {... */\n    tag_308:\n        /* \"contracts/pixel_pictasia_utils.sol\":13491:13499  _iCRCEnd */\n      dup7\n        /* \"contracts/pixel_pictasia_utils.sol\":13487:13488  x */\n      dup2\n        /* \"contracts/pixel_pictasia_utils.sol\":13487:13499  x < _iCRCEnd */\n      lt\n        /* \"contracts/pixel_pictasia_utils.sol\":13459:13557  for(uint256 x = _iCRCStart; x < _iCRCEnd; x++) {... */\n      iszero\n      tag_309\n      jumpi\n        /* \"contracts/pixel_pictasia_utils.sol\":13532:13542  _imageData */\n      dup10\n        /* \"contracts/pixel_pictasia_utils.sol\":13543:13544  x */\n      dup2\n        /* \"contracts/pixel_pictasia_utils.sol\":13532:13545  _imageData[x] */\n      dup2\n      mload\n      dup2\n      lt\n      tag_312\n      jumpi\n      tag_312\n      tag_33\n      jump\t// in\n    tag_312:\n      0x20\n      mul\n      0x20\n      add\n      add\n      mload\n        /* \"contracts/pixel_pictasia_utils.sol\":13521:13524  buf */\n      dup3\n        /* \"contracts/pixel_pictasia_utils.sol\":13525:13528  b++ */\n      dup5\n      dup1\n      tag_313\n      swap1\n      tag_38\n      jump\t// in\n    tag_313:\n      swap6\n      pop\n        /* \"contracts/pixel_pictasia_utils.sol\":13521:13529  buf[b++] */\n      dup2\n      mload\n      dup2\n      lt\n      tag_315\n      jumpi\n      tag_315\n      tag_33\n      jump\t// in\n    tag_315:\n      not(sub(shl(0xf8, 0x01), 0x01))\n        /* \"contracts/pixel_pictasia_utils.sol\":13521:13545  buf[b++] = _imageData[x] */\n      swap1\n      swap3\n      and\n        /* \"contracts/pixel_pictasia_utils.sol\":13521:13529  buf[b++] */\n      0x20\n      swap3\n      dup4\n      mul\n      swap2\n      swap1\n      swap2\n      add\n      swap1\n      swap2\n      add\n        /* \"contracts/pixel_pictasia_utils.sol\":13521:13545  buf[b++] = _imageData[x] */\n      mstore\n        /* \"contracts/pixel_pictasia_utils.sol\":13501:13504  x++ */\n      dup1\n      tag_316\n      dup2\n      tag_38\n      jump\t// in\n    tag_316:\n      swap2\n      pop\n      pop\n        /* \"contracts/pixel_pictasia_utils.sol\":13459:13557  for(uint256 x = _iCRCStart; x < _iCRCEnd; x++) {... */\n      jump(tag_308)\n    tag_309:\n      pop\n        /* \"contracts/pixel_pictasia_utils.sol\":13569:13585  uint256 crcValue */\n      0x00\n        /* \"contracts/pixel_pictasia_utils.sol\":13588:13599  crc(buf, L) */\n      tag_317\n        /* \"contracts/pixel_pictasia_utils.sol\":13592:13595  buf */\n      dup3\n        /* \"contracts/pixel_pictasia_utils.sol\":13597:13598  L */\n      dup6\n        /* \"contracts/pixel_pictasia_utils.sol\":13588:13591  crc */\n      tag_25\n        /* \"contracts/pixel_pictasia_utils.sol\":13588:13599  crc(buf, L) */\n      jump\t// in\n    tag_317:\n        /* \"contracts/pixel_pictasia_utils.sol\":13569:13599  uint256 crcValue = crc(buf, L) */\n      swap1\n      pop\n        /* \"contracts/pixel_pictasia_utils.sol\":13629:13668  add4ByteValue(_imageData, _i, crcValue) */\n      tag_318\n        /* \"contracts/pixel_pictasia_utils.sol\":13643:13653  _imageData */\n      dup11\n        /* \"contracts/pixel_pictasia_utils.sol\":13655:13657  _i */\n      dup11\n        /* \"contracts/pixel_pictasia_utils.sol\":13659:13667  crcValue */\n      dup4\n        /* \"contracts/pixel_pictasia_utils.sol\":13629:13642  add4ByteValue */\n      tag_159\n        /* \"contracts/pixel_pictasia_utils.sol\":13629:13668  add4ByteValue(_imageData, _i, crcValue) */\n      jump\t// in\n    tag_318:\n        /* \"contracts/pixel_pictasia_utils.sol\":13610:13668  (_imageData, _i) = add4ByteValue(_imageData, _i, crcValue) */\n      swap1\n      swap12\n      swap1\n      swap11\n      pop\n        /* \"contracts/pixel_pictasia_utils.sol\":13186:13712  function addCRC(bytes1[] memory _imageData, uint256 _i, uint256 _iCRCStart, uint256 _iCRCEnd) private view returns (bytes1[] memory, uint256) {... */\n      swap9\n      pop\n      pop\n      pop\n      pop\n      pop\n      pop\n      pop\n      pop\n      pop\n      jump\t// out\n        /* \"contracts/pixel_pictasia_utils.sol\":12612:13178  function addADLER32(bytes1[] memory _imageData, uint256 _i, uint256 _iADLER32Start, uint256 _iADLER32End) private pure returns (bytes1[] memory, uint256) {... */\n    tag_254:\n        /* \"contracts/pixel_pictasia_utils.sol\":12740:12755  bytes1[] memory */\n      0x60\n        /* \"contracts/pixel_pictasia_utils.sol\":12757:12764  uint256 */\n      0x00\n      dup1\n        /* \"contracts/pixel_pictasia_utils.sol\":12789:12818  _iADLER32End - _iADLER32Start */\n      tag_320\n        /* \"contracts/pixel_pictasia_utils.sol\":12804:12818  _iADLER32Start */\n      dup6\n        /* \"contracts/pixel_pictasia_utils.sol\":12789:12801  _iADLER32End */\n      dup6\n        /* \"contracts/pixel_pictasia_utils.sol\":12789:12818  _iADLER32End - _iADLER32Start */\n      tag_180\n      jump\t// in\n    tag_320:\n        /* \"contracts/pixel_pictasia_utils.sol\":12777:12818  uint256 L = _iADLER32End - _iADLER32Start */\n      swap1\n      pop\n        /* \"contracts/pixel_pictasia_utils.sol\":12831:12840  uint256 b */\n      0x00\n        /* \"contracts/pixel_pictasia_utils.sol\":12855:12874  bytes1[] memory buf */\n      dup1\n        /* \"contracts/pixel_pictasia_utils.sol\":12890:12891  L */\n      dup3\n        /* \"contracts/pixel_pictasia_utils.sol\":12877:12892  new bytes1[](L) */\n      0xffffffffffffffff\n      dup2\n      gt\n      iszero\n      tag_322\n      jumpi\n      tag_322\n      tag_45\n      jump\t// in\n    tag_322:\n      mload(0x40)\n      swap1\n      dup1\n      dup3\n      mstore\n      dup1\n      0x20\n      mul\n      0x20\n      add\n      dup3\n      add\n      0x40\n      mstore\n      dup1\n      iszero\n      tag_323\n      jumpi\n      dup2\n      0x20\n      add\n      0x20\n      dup3\n      mul\n      dup1\n      calldatasize\n      dup4\n      calldatacopy\n      add\n      swap1\n      pop\n    tag_323:\n      pop\n        /* \"contracts/pixel_pictasia_utils.sol\":12855:12892  bytes1[] memory buf = new bytes1[](L) */\n      swap1\n      pop\n        /* \"contracts/pixel_pictasia_utils.sol\":12921:12935  _iADLER32Start */\n      dup7\n        /* \"contracts/pixel_pictasia_utils.sol\":12905:13011  for(uint256 x = _iADLER32Start; x < _iADLER32End; x++) {... */\n    tag_324:\n        /* \"contracts/pixel_pictasia_utils.sol\":12941:12953  _iADLER32End */\n      dup7\n        /* \"contracts/pixel_pictasia_utils.sol\":12937:12938  x */\n      dup2\n        /* \"contracts/pixel_pictasia_utils.sol\":12937:12953  x < _iADLER32End */\n      lt\n        /* \"contracts/pixel_pictasia_utils.sol\":12905:13011  for(uint256 x = _iADLER32Start; x < _iADLER32End; x++) {... */\n      iszero\n      tag_325\n      jumpi\n        /* \"contracts/pixel_pictasia_utils.sol\":12986:12996  _imageData */\n      dup10\n        /* \"contracts/pixel_pictasia_utils.sol\":12997:12998  x */\n      dup2\n        /* \"contracts/pixel_pictasia_utils.sol\":12986:12999  _imageData[x] */\n      dup2\n      mload\n      dup2\n      lt\n      tag_328\n      jumpi\n      tag_328\n      tag_33\n      jump\t// in\n    tag_328:\n      0x20\n      mul\n      0x20\n      add\n      add\n      mload\n        /* \"contracts/pixel_pictasia_utils.sol\":12975:12978  buf */\n      dup3\n        /* \"contracts/pixel_pictasia_utils.sol\":12979:12982  b++ */\n      dup5\n      dup1\n      tag_329\n      swap1\n      tag_38\n      jump\t// in\n    tag_329:\n      swap6\n      pop\n        /* \"contracts/pixel_pictasia_utils.sol\":12975:12983  buf[b++] */\n      dup2\n      mload\n      dup2\n      lt\n      tag_331\n      jumpi\n      tag_331\n      tag_33\n      jump\t// in\n    tag_331:\n      not(sub(shl(0xf8, 0x01), 0x01))\n        /* \"contracts/pixel_pictasia_utils.sol\":12975:12999  buf[b++] = _imageData[x] */\n      swap1\n      swap3\n      and\n        /* \"contracts/pixel_pictasia_utils.sol\":12975:12983  buf[b++] */\n      0x20\n      swap3\n      dup4\n      mul\n      swap2\n      swap1\n      swap2\n      add\n      swap1\n      swap2\n      add\n        /* \"contracts/pixel_pictasia_utils.sol\":12975:12999  buf[b++] = _imageData[x] */\n      mstore\n        /* \"contracts/pixel_pictasia_utils.sol\":12955:12958  x++ */\n      dup1\n      tag_332\n      dup2\n      tag_38\n      jump\t// in\n    tag_332:\n      swap2\n      pop\n      pop\n        /* \"contracts/pixel_pictasia_utils.sol\":12905:13011  for(uint256 x = _iADLER32Start; x < _iADLER32End; x++) {... */\n      jump(tag_324)\n    tag_325:\n      pop\n        /* \"contracts/pixel_pictasia_utils.sol\":13023:13043  uint256 adler32Value */\n      0x00\n        /* \"contracts/pixel_pictasia_utils.sol\":13046:13061  adler32(buf, L) */\n      tag_317\n        /* \"contracts/pixel_pictasia_utils.sol\":13054:13057  buf */\n      dup3\n        /* \"contracts/pixel_pictasia_utils.sol\":13059:13060  L */\n      dup6\n        /* \"contracts/pixel_pictasia_utils.sol\":13046:13053  adler32 */\n      tag_10\n        /* \"contracts/pixel_pictasia_utils.sol\":13046:13061  adler32(buf, L) */\n      jump\t// in\n        /* \"contracts/pixel_pictasia_utils.sol\":13720:14102  function add2ByteValue(bytes1[] memory _imageData, uint256 _i, uint256 _value) private pure returns (bytes1[] memory, uint256) {... */\n    tag_261:\n        /* \"contracts/pixel_pictasia_utils.sol\":13821:13836  bytes1[] memory */\n      0x60\n        /* \"contracts/pixel_pictasia_utils.sol\":13838:13845  uint256 */\n      0x00\n      not(sub(shl(0xf8, 0x01), 0x01))\n        /* \"contracts/pixel_pictasia_utils.sol\":13961:13998  bytes1(uint8((_value & 0xff00) >> 8)) */\n      0xf0\n      dup5\n      swap1\n      shl\n      and\n        /* \"contracts/pixel_pictasia_utils.sol\":13942:13952  _imageData */\n      dup6\n        /* \"contracts/pixel_pictasia_utils.sol\":13953:13957  _i++ */\n      dup6\n      tag_297\n      dup2\n      tag_38\n      jump\t// in\n        /* \"#utility.yul\":14:141   */\n    tag_45:\n        /* \"#utility.yul\":75:85   */\n      0x4e487b71\n        /* \"#utility.yul\":70:73   */\n      0xe0\n        /* \"#utility.yul\":66:86   */\n      shl\n        /* \"#utility.yul\":63:64   */\n      0x00\n        /* \"#utility.yul\":56:87   */\n      mstore\n        /* \"#utility.yul\":106:110   */\n      0x41\n        /* \"#utility.yul\":103:104   */\n      0x04\n        /* \"#utility.yul\":96:111   */\n      mstore\n        /* \"#utility.yul\":130:134   */\n      0x24\n        /* \"#utility.yul\":127:128   */\n      0x00\n        /* \"#utility.yul\":120:135   */\n      revert\n        /* \"#utility.yul\":146:396   */\n    tag_342:\n        /* \"#utility.yul\":217:219   */\n      0x40\n        /* \"#utility.yul\":211:220   */\n      mload\n        /* \"#utility.yul\":259:261   */\n      0x60\n        /* \"#utility.yul\":247:262   */\n      dup2\n      add\n        /* \"#utility.yul\":292:310   */\n      0xffffffffffffffff\n        /* \"#utility.yul\":277:311   */\n      dup2\n      gt\n        /* \"#utility.yul\":313:335   */\n      dup3\n      dup3\n      lt\n        /* \"#utility.yul\":274:336   */\n      or\n        /* \"#utility.yul\":271:359   */\n      iszero\n      tag_352\n      jumpi\n        /* \"#utility.yul\":339:357   */\n      tag_352\n      tag_45\n      jump\t// in\n    tag_352:\n        /* \"#utility.yul\":375:377   */\n      0x40\n        /* \"#utility.yul\":368:390   */\n      mstore\n        /* \"#utility.yul\":146:396   */\n      swap1\n      jump\t// out\n        /* \"#utility.yul\":401:676   */\n    tag_343:\n        /* \"#utility.yul\":472:474   */\n      0x40\n        /* \"#utility.yul\":466:475   */\n      mload\n        /* \"#utility.yul\":537:539   */\n      0x1f\n        /* \"#utility.yul\":518:531   */\n      dup3\n      add\n      not(0x1f)\n        /* \"#utility.yul\":514:541   */\n      and\n        /* \"#utility.yul\":502:542   */\n      dup2\n      add\n        /* \"#utility.yul\":572:590   */\n      0xffffffffffffffff\n        /* \"#utility.yul\":557:591   */\n      dup2\n      gt\n        /* \"#utility.yul\":593:615   */\n      dup3\n      dup3\n      lt\n        /* \"#utility.yul\":554:616   */\n      or\n        /* \"#utility.yul\":551:639   */\n      iszero\n      tag_355\n      jumpi\n        /* \"#utility.yul\":619:637   */\n      tag_355\n      tag_45\n      jump\t// in\n    tag_355:\n        /* \"#utility.yul\":655:657   */\n      0x40\n        /* \"#utility.yul\":648:670   */\n      mstore\n        /* \"#utility.yul\":401:676   */\n      swap2\n      swap1\n      pop\n      jump\t// out\n        /* \"#utility.yul\":681:1570   */\n    tag_344:\n        /* \"#utility.yul\":734:739   */\n      0x00\n        /* \"#utility.yul\":787:790   */\n      dup3\n        /* \"#utility.yul\":780:784   */\n      0x1f\n        /* \"#utility.yul\":772:778   */\n      dup4\n        /* \"#utility.yul\":768:785   */\n      add\n        /* \"#utility.yul\":764:791   */\n      slt\n        /* \"#utility.yul\":754:809   */\n      tag_357\n      jumpi\n        /* \"#utility.yul\":805:806   */\n      0x00\n        /* \"#utility.yul\":802:803   */\n      dup1\n        /* \"#utility.yul\":795:807   */\n      revert\n        /* \"#utility.yul\":754:809   */\n    tag_357:\n        /* \"#utility.yul\":841:847   */\n      dup2\n        /* \"#utility.yul\":828:848   */\n      calldataload\n        /* \"#utility.yul\":867:871   */\n      0x20\n        /* \"#utility.yul\":890:908   */\n      0xffffffffffffffff\n        /* \"#utility.yul\":886:888   */\n      dup3\n        /* \"#utility.yul\":883:909   */\n      gt\n        /* \"#utility.yul\":880:932   */\n      iszero\n      tag_359\n      jumpi\n        /* \"#utility.yul\":912:930   */\n      tag_359\n      tag_45\n      jump\t// in\n    tag_359:\n        /* \"#utility.yul\":958:960   */\n      dup2\n        /* \"#utility.yul\":955:956   */\n      0x05\n        /* \"#utility.yul\":951:961   */\n      shl\n        /* \"#utility.yul\":981:1009   */\n      tag_360\n        /* \"#utility.yul\":1005:1007   */\n      dup3\n        /* \"#utility.yul\":1001:1003   */\n      dup3\n        /* \"#utility.yul\":997:1008   */\n      add\n        /* \"#utility.yul\":981:1009   */\n      tag_343\n      jump\t// in\n    tag_360:\n        /* \"#utility.yul\":1043:1058   */\n      swap3\n      dup4\n      mstore\n        /* \"#utility.yul\":1113:1128   */\n      dup5\n      dup2\n      add\n        /* \"#utility.yul\":1109:1133   */\n      dup3\n      add\n      swap3\n        /* \"#utility.yul\":1074:1086   */\n      dup3\n      dup2\n      add\n      swap1\n        /* \"#utility.yul\":1145:1160   */\n      dup8\n      dup6\n      gt\n        /* \"#utility.yul\":1142:1177   */\n      iszero\n      tag_361\n      jumpi\n        /* \"#utility.yul\":1173:1174   */\n      0x00\n        /* \"#utility.yul\":1170:1171   */\n      dup1\n        /* \"#utility.yul\":1163:1175   */\n      revert\n        /* \"#utility.yul\":1142:1177   */\n    tag_361:\n        /* \"#utility.yul\":1209:1211   */\n      dup4\n        /* \"#utility.yul\":1201:1207   */\n      dup8\n        /* \"#utility.yul\":1197:1212   */\n      add\n        /* \"#utility.yul\":1186:1212   */\n      swap3\n      pop\n        /* \"#utility.yul\":1221:1541   */\n    tag_362:\n        /* \"#utility.yul\":1237:1243   */\n      dup5\n        /* \"#utility.yul\":1232:1235   */\n      dup4\n        /* \"#utility.yul\":1229:1244   */\n      lt\n        /* \"#utility.yul\":1221:1541   */\n      iszero\n      tag_364\n      jumpi\n        /* \"#utility.yul\":1304:1321   */\n      dup3\n      calldataload\n      not(sub(shl(0xf8, 0x01), 0x01))\n        /* \"#utility.yul\":1354:1379   */\n      dup2\n      and\n        /* \"#utility.yul\":1344:1380   */\n      dup2\n      eq\n        /* \"#utility.yul\":1334:1468   */\n      tag_365\n      jumpi\n        /* \"#utility.yul\":1422:1423   */\n      0x00\n        /* \"#utility.yul\":1451:1453   */\n      dup1\n        /* \"#utility.yul\":1447:1449   */\n      dup2\n        /* \"#utility.yul\":1440:1454   */\n      revert\n        /* \"#utility.yul\":1334:1468   */\n    tag_365:\n        /* \"#utility.yul\":1481:1499   */\n      dup3\n      mstore\n        /* \"#utility.yul\":1254:1266   */\n      swap2\n      dup4\n      add\n      swap2\n        /* \"#utility.yul\":1519:1531   */\n      swap1\n      dup4\n      add\n      swap1\n        /* \"#utility.yul\":1221:1541   */\n      jump(tag_362)\n    tag_364:\n        /* \"#utility.yul\":1559:1564   */\n      swap8\n        /* \"#utility.yul\":681:1570   */\n      swap7\n      pop\n      pop\n      pop\n      pop\n      pop\n      pop\n      pop\n      jump\t// out\n        /* \"#utility.yul\":1575:1989   */\n    tag_9:\n        /* \"#utility.yul\":1667:1673   */\n      0x00\n        /* \"#utility.yul\":1675:1681   */\n      dup1\n        /* \"#utility.yul\":1728:1730   */\n      0x40\n        /* \"#utility.yul\":1716:1725   */\n      dup4\n        /* \"#utility.yul\":1707:1714   */\n      dup6\n        /* \"#utility.yul\":1703:1726   */\n      sub\n        /* \"#utility.yul\":1699:1731   */\n      slt\n        /* \"#utility.yul\":1696:1748   */\n      iszero\n      tag_367\n      jumpi\n        /* \"#utility.yul\":1744:1745   */\n      0x00\n        /* \"#utility.yul\":1741:1742   */\n      dup1\n        /* \"#utility.yul\":1734:1746   */\n      revert\n        /* \"#utility.yul\":1696:1748   */\n    tag_367:\n        /* \"#utility.yul\":1784:1793   */\n      dup3\n        /* \"#utility.yul\":1771:1794   */\n      calldataload\n        /* \"#utility.yul\":1817:1835   */\n      0xffffffffffffffff\n        /* \"#utility.yul\":1809:1815   */\n      dup2\n        /* \"#utility.yul\":1806:1836   */\n      gt\n        /* \"#utility.yul\":1803:1853   */\n      iszero\n      tag_368\n      jumpi\n        /* \"#utility.yul\":1849:1850   */\n      0x00\n        /* \"#utility.yul\":1846:1847   */\n      dup1\n        /* \"#utility.yul\":1839:1851   */\n      revert\n        /* \"#utility.yul\":1803:1853   */\n    tag_368:\n        /* \"#utility.yul\":1872:1932   */\n      tag_369\n        /* \"#utility.yul\":1924:1931   */\n      dup6\n        /* \"#utility.yul\":1915:1921   */\n      dup3\n        /* \"#utility.yul\":1904:1913   */\n      dup7\n        /* \"#utility.yul\":1900:1922   */\n      add\n        /* \"#utility.yul\":1872:1932   */\n      tag_344\n      jump\t// in\n    tag_369:\n        /* \"#utility.yul\":1862:1932   */\n      swap6\n        /* \"#utility.yul\":1979:1981   */\n      0x20\n        /* \"#utility.yul\":1964:1982   */\n      swap5\n      swap1\n      swap5\n      add\n        /* \"#utility.yul\":1951:1983   */\n      calldataload\n      swap5\n      pop\n      pop\n      pop\n      pop\n        /* \"#utility.yul\":1575:1989   */\n      jump\t// out\n        /* \"#utility.yul\":2176:2426   */\n    tag_345:\n        /* \"#utility.yul\":2261:2262   */\n      0x00\n        /* \"#utility.yul\":2271:2384   */\n    tag_372:\n        /* \"#utility.yul\":2285:2291   */\n      dup4\n        /* \"#utility.yul\":2282:2283   */\n      dup2\n        /* \"#utility.yul\":2279:2292   */\n      lt\n        /* \"#utility.yul\":2271:2384   */\n      iszero\n      tag_374\n      jumpi\n        /* \"#utility.yul\":2361:2372   */\n      dup2\n      dup2\n      add\n        /* \"#utility.yul\":2355:2373   */\n      mload\n        /* \"#utility.yul\":2342:2353   */\n      dup4\n      dup3\n      add\n        /* \"#utility.yul\":2335:2374   */\n      mstore\n        /* \"#utility.yul\":2307:2309   */\n      0x20\n        /* \"#utility.yul\":2300:2310   */\n      add\n        /* \"#utility.yul\":2271:2384   */\n      jump(tag_372)\n    tag_374:\n      pop\n      pop\n        /* \"#utility.yul\":2418:2419   */\n      0x00\n        /* \"#utility.yul\":2400:2416   */\n      swap2\n      add\n        /* \"#utility.yul\":2393:2420   */\n      mstore\n        /* \"#utility.yul\":2176:2426   */\n      jump\t// out\n        /* \"#utility.yul\":2431:2702   */\n    tag_346:\n        /* \"#utility.yul\":2473:2476   */\n      0x00\n        /* \"#utility.yul\":2511:2516   */\n      dup2\n        /* \"#utility.yul\":2505:2517   */\n      mload\n        /* \"#utility.yul\":2538:2544   */\n      dup1\n        /* \"#utility.yul\":2533:2536   */\n      dup5\n        /* \"#utility.yul\":2526:2545   */\n      mstore\n        /* \"#utility.yul\":2554:2630   */\n      tag_376\n        /* \"#utility.yul\":2623:2629   */\n      dup2\n        /* \"#utility.yul\":2616:2620   */\n      0x20\n        /* \"#utility.yul\":2611:2614   */\n      dup7\n        /* \"#utility.yul\":2607:2621   */\n      add\n        /* \"#utility.yul\":2600:2604   */\n      0x20\n        /* \"#utility.yul\":2593:2598   */\n      dup7\n        /* \"#utility.yul\":2589:2605   */\n      add\n        /* \"#utility.yul\":2554:2630   */\n      tag_345\n      jump\t// in\n    tag_376:\n        /* \"#utility.yul\":2684:2686   */\n      0x1f\n        /* \"#utility.yul\":2663:2678   */\n      add\n      not(0x1f)\n        /* \"#utility.yul\":2659:2688   */\n      and\n        /* \"#utility.yul\":2650:2689   */\n      swap3\n      swap1\n      swap3\n      add\n        /* \"#utility.yul\":2691:2695   */\n      0x20\n        /* \"#utility.yul\":2646:2696   */\n      add\n      swap3\n        /* \"#utility.yul\":2431:2702   */\n      swap2\n      pop\n      pop\n      jump\t// out\n        /* \"#utility.yul\":2707:2927   */\n    tag_16:\n        /* \"#utility.yul\":2856:2858   */\n      0x20\n        /* \"#utility.yul\":2845:2854   */\n      dup2\n        /* \"#utility.yul\":2838:2859   */\n      mstore\n        /* \"#utility.yul\":2819:2823   */\n      0x00\n        /* \"#utility.yul\":2876:2921   */\n      tag_378\n        /* \"#utility.yul\":2917:2919   */\n      0x20\n        /* \"#utility.yul\":2906:2915   */\n      dup4\n        /* \"#utility.yul\":2902:2920   */\n      add\n        /* \"#utility.yul\":2894:2900   */\n      dup5\n        /* \"#utility.yul\":2876:2921   */\n      tag_346\n      jump\t// in\n    tag_378:\n        /* \"#utility.yul\":2868:2921   */\n      swap4\n        /* \"#utility.yul\":2707:2927   */\n      swap3\n      pop\n      pop\n      pop\n      jump\t// out\n        /* \"#utility.yul\":2932:4049   */\n    tag_19:\n        /* \"#utility.yul\":3033:3039   */\n      0x00\n        /* \"#utility.yul\":3041:3047   */\n      dup1\n        /* \"#utility.yul\":3049:3055   */\n      0x00\n        /* \"#utility.yul\":3102:3104   */\n      0x60\n        /* \"#utility.yul\":3090:3099   */\n      dup5\n        /* \"#utility.yul\":3081:3088   */\n      dup7\n        /* \"#utility.yul\":3077:3100   */\n      sub\n        /* \"#utility.yul\":3073:3105   */\n      slt\n        /* \"#utility.yul\":3070:3122   */\n      iszero\n      tag_380\n      jumpi\n        /* \"#utility.yul\":3118:3119   */\n      0x00\n        /* \"#utility.yul\":3115:3116   */\n      dup1\n        /* \"#utility.yul\":3108:3120   */\n      revert\n        /* \"#utility.yul\":3070:3122   */\n    tag_380:\n        /* \"#utility.yul\":3154:3163   */\n      dup4\n        /* \"#utility.yul\":3141:3164   */\n      calldataload\n        /* \"#utility.yul\":3131:3164   */\n      swap3\n      pop\n        /* \"#utility.yul\":3211:3213   */\n      0x20\n        /* \"#utility.yul\":3200:3209   */\n      dup5\n        /* \"#utility.yul\":3196:3214   */\n      add\n        /* \"#utility.yul\":3183:3215   */\n      calldataload\n        /* \"#utility.yul\":3173:3215   */\n      swap2\n      pop\n        /* \"#utility.yul\":3266:3268   */\n      0x40\n        /* \"#utility.yul\":3255:3264   */\n      dup5\n        /* \"#utility.yul\":3251:3269   */\n      add\n        /* \"#utility.yul\":3238:3270   */\n      calldataload\n        /* \"#utility.yul\":3289:3307   */\n      0xffffffffffffffff\n        /* \"#utility.yul\":3330:3332   */\n      dup1\n        /* \"#utility.yul\":3322:3328   */\n      dup3\n        /* \"#utility.yul\":3319:3333   */\n      gt\n        /* \"#utility.yul\":3316:3350   */\n      iszero\n      tag_381\n      jumpi\n        /* \"#utility.yul\":3346:3347   */\n      0x00\n        /* \"#utility.yul\":3343:3344   */\n      dup1\n        /* \"#utility.yul\":3336:3348   */\n      revert\n        /* \"#utility.yul\":3316:3350   */\n    tag_381:\n        /* \"#utility.yul\":3369:3391   */\n      swap1\n      dup6\n      add\n      swap1\n        /* \"#utility.yul\":3425:3427   */\n      0x60\n        /* \"#utility.yul\":3407:3423   */\n      dup3\n      dup9\n      sub\n        /* \"#utility.yul\":3403:3428   */\n      slt\n        /* \"#utility.yul\":3400:3445   */\n      iszero\n      tag_382\n      jumpi\n        /* \"#utility.yul\":3441:3442   */\n      0x00\n        /* \"#utility.yul\":3438:3439   */\n      dup1\n        /* \"#utility.yul\":3431:3443   */\n      revert\n        /* \"#utility.yul\":3400:3445   */\n    tag_382:\n        /* \"#utility.yul\":3467:3488   */\n      tag_383\n      tag_342\n      jump\t// in\n    tag_383:\n        /* \"#utility.yul\":3526:3528   */\n      dup3\n        /* \"#utility.yul\":3513:3529   */\n      calldataload\n        /* \"#utility.yul\":3554:3556   */\n      dup3\n        /* \"#utility.yul\":3544:3552   */\n      dup2\n        /* \"#utility.yul\":3541:3557   */\n      gt\n        /* \"#utility.yul\":3538:3574   */\n      iszero\n      tag_384\n      jumpi\n        /* \"#utility.yul\":3570:3571   */\n      0x00\n        /* \"#utility.yul\":3567:3568   */\n      dup1\n        /* \"#utility.yul\":3560:3572   */\n      revert\n        /* \"#utility.yul\":3538:3574   */\n    tag_384:\n        /* \"#utility.yul\":3597:3652   */\n      tag_385\n        /* \"#utility.yul\":3644:3651   */\n      dup10\n        /* \"#utility.yul\":3633:3641   */\n      dup3\n        /* \"#utility.yul\":3629:3631   */\n      dup7\n        /* \"#utility.yul\":3625:3642   */\n      add\n        /* \"#utility.yul\":3597:3652   */\n      tag_344\n      jump\t// in\n    tag_385:\n        /* \"#utility.yul\":3590:3595   */\n      dup3\n        /* \"#utility.yul\":3583:3653   */\n      mstore\n      pop\n        /* \"#utility.yul\":3699:3701   */\n      0x20\n        /* \"#utility.yul\":3695:3697   */\n      dup4\n        /* \"#utility.yul\":3691:3702   */\n      add\n        /* \"#utility.yul\":3678:3703   */\n      calldataload\n        /* \"#utility.yul\":3728:3730   */\n      dup3\n        /* \"#utility.yul\":3718:3726   */\n      dup2\n        /* \"#utility.yul\":3715:3731   */\n      gt\n        /* \"#utility.yul\":3712:3748   */\n      iszero\n      tag_386\n      jumpi\n        /* \"#utility.yul\":3744:3745   */\n      0x00\n        /* \"#utility.yul\":3741:3742   */\n      dup1\n        /* \"#utility.yul\":3734:3746   */\n      revert\n        /* \"#utility.yul\":3712:3748   */\n    tag_386:\n        /* \"#utility.yul\":3780:3835   */\n      tag_387\n        /* \"#utility.yul\":3827:3834   */\n      dup10\n        /* \"#utility.yul\":3816:3824   */\n      dup3\n        /* \"#utility.yul\":3812:3814   */\n      dup7\n        /* \"#utility.yul\":3808:3825   */\n      add\n        /* \"#utility.yul\":3780:3835   */\n      tag_344\n      jump\t// in\n    tag_387:\n        /* \"#utility.yul\":3775:3777   */\n      0x20\n        /* \"#utility.yul\":3768:3773   */\n      dup4\n        /* \"#utility.yul\":3764:3778   */\n      add\n        /* \"#utility.yul\":3757:3836   */\n      mstore\n      pop\n        /* \"#utility.yul\":3882:3884   */\n      0x40\n        /* \"#utility.yul\":3878:3880   */\n      dup4\n        /* \"#utility.yul\":3874:3885   */\n      add\n        /* \"#utility.yul\":3861:3886   */\n      calldataload\n        /* \"#utility.yul\":3911:3913   */\n      dup3\n        /* \"#utility.yul\":3901:3909   */\n      dup2\n        /* \"#utility.yul\":3898:3914   */\n      gt\n        /* \"#utility.yul\":3895:3931   */\n      iszero\n      tag_388\n      jumpi\n        /* \"#utility.yul\":3927:3928   */\n      0x00\n        /* \"#utility.yul\":3924:3925   */\n      dup1\n        /* \"#utility.yul\":3917:3929   */\n      revert\n        /* \"#utility.yul\":3895:3931   */\n    tag_388:\n        /* \"#utility.yul\":3963:4018   */\n      tag_389\n        /* \"#utility.yul\":4010:4017   */\n      dup10\n        /* \"#utility.yul\":3999:4007   */\n      dup3\n        /* \"#utility.yul\":3995:3997   */\n      dup7\n        /* \"#utility.yul\":3991:4008   */\n      add\n        /* \"#utility.yul\":3963:4018   */\n      tag_344\n      jump\t// in\n    tag_389:\n        /* \"#utility.yul\":3958:3960   */\n      0x40\n        /* \"#utility.yul\":3951:3956   */\n      dup4\n        /* \"#utility.yul\":3947:3961   */\n      add\n        /* \"#utility.yul\":3940:4019   */\n      mstore\n      pop\n        /* \"#utility.yul\":4038:4043   */\n      dup1\n        /* \"#utility.yul\":4028:4043   */\n      swap4\n      pop\n      pop\n      pop\n      pop\n        /* \"#utility.yul\":2932:4049   */\n      swap3\n      pop\n      swap3\n      pop\n      swap3\n      jump\t// out\n        /* \"#utility.yul\":4277:4404   */\n    tag_33:\n        /* \"#utility.yul\":4338:4348   */\n      0x4e487b71\n        /* \"#utility.yul\":4333:4336   */\n      0xe0\n        /* \"#utility.yul\":4329:4349   */\n      shl\n        /* \"#utility.yul\":4326:4327   */\n      0x00\n        /* \"#utility.yul\":4319:4350   */\n      mstore\n        /* \"#utility.yul\":4369:4373   */\n      0x32\n        /* \"#utility.yul\":4366:4367   */\n      0x04\n        /* \"#utility.yul\":4359:4374   */\n      mstore\n        /* \"#utility.yul\":4393:4397   */\n      0x24\n        /* \"#utility.yul\":4390:4391   */\n      0x00\n        /* \"#utility.yul\":4383:4398   */\n      revert\n        /* \"#utility.yul\":4409:4536   */\n    tag_347:\n        /* \"#utility.yul\":4470:4480   */\n      0x4e487b71\n        /* \"#utility.yul\":4465:4468   */\n      0xe0\n        /* \"#utility.yul\":4461:4481   */\n      shl\n        /* \"#utility.yul\":4458:4459   */\n      0x00\n        /* \"#utility.yul\":4451:4482   */\n      mstore\n        /* \"#utility.yul\":4501:4505   */\n      0x11\n        /* \"#utility.yul\":4498:4499   */\n      0x04\n        /* \"#utility.yul\":4491:4506   */\n      mstore\n        /* \"#utility.yul\":4525:4529   */\n      0x24\n        /* \"#utility.yul\":4522:4523   */\n      0x00\n        /* \"#utility.yul\":4515:4530   */\n      revert\n        /* \"#utility.yul\":4541:4666   */\n    tag_35:\n        /* \"#utility.yul\":4606:4615   */\n      dup1\n      dup3\n      add\n        /* \"#utility.yul\":4627:4637   */\n      dup1\n      dup3\n      gt\n        /* \"#utility.yul\":4624:4660   */\n      iszero\n      tag_27\n      jumpi\n        /* \"#utility.yul\":4640:4658   */\n      tag_27\n      tag_347\n      jump\t// in\n        /* \"#utility.yul\":4671:4806   */\n    tag_38:\n        /* \"#utility.yul\":4710:4713   */\n      0x00\n        /* \"#utility.yul\":4731:4748   */\n      0x01\n      dup3\n      add\n        /* \"#utility.yul\":4728:4771   */\n      tag_399\n      jumpi\n        /* \"#utility.yul\":4751:4769   */\n      tag_399\n      tag_347\n      jump\t// in\n    tag_399:\n      pop\n        /* \"#utility.yul\":4798:4799   */\n      0x01\n        /* \"#utility.yul\":4787:4800   */\n      add\n      swap1\n        /* \"#utility.yul\":4671:4806   */\n      jump\t// out\n        /* \"#utility.yul\":4811:4979   */\n    tag_40:\n        /* \"#utility.yul\":4884:4893   */\n      dup1\n      dup3\n      mul\n        /* \"#utility.yul\":4915:4924   */\n      dup2\n      iszero\n        /* \"#utility.yul\":4932:4947   */\n      dup3\n      dup3\n      div\n        /* \"#utility.yul\":4926:4948   */\n      dup5\n      eq\n        /* \"#utility.yul\":4912:4949   */\n      or\n        /* \"#utility.yul\":4902:4973   */\n      tag_27\n      jumpi\n        /* \"#utility.yul\":4953:4971   */\n      tag_27\n      tag_347\n      jump\t// in\n        /* \"#utility.yul\":4984:5273   */\n    tag_74:\n        /* \"#utility.yul\":5115:5118   */\n      0x00\n        /* \"#utility.yul\":5153:5159   */\n      dup3\n        /* \"#utility.yul\":5147:5160   */\n      mload\n        /* \"#utility.yul\":5169:5235   */\n      tag_404\n        /* \"#utility.yul\":5228:5234   */\n      dup2\n        /* \"#utility.yul\":5223:5226   */\n      dup5\n        /* \"#utility.yul\":5216:5220   */\n      0x20\n        /* \"#utility.yul\":5208:5214   */\n      dup8\n        /* \"#utility.yul\":5204:5221   */\n      add\n        /* \"#utility.yul\":5169:5235   */\n      tag_345\n      jump\t// in\n    tag_404:\n        /* \"#utility.yul\":5251:5267   */\n      swap2\n      swap1\n      swap2\n      add\n      swap3\n        /* \"#utility.yul\":4984:5273   */\n      swap2\n      pop\n      pop\n      jump\t// out\n        /* \"#utility.yul\":5278:5732   */\n    tag_77:\n      shl(0x52, 0x19185d184e9a5b5859d94bdc1b99ced8985cd94d8d0b)\n        /* \"#utility.yul\":5535:5538   */\n      dup2\n        /* \"#utility.yul\":5528:5565   */\n      mstore\n        /* \"#utility.yul\":5510:5513   */\n      0x00\n        /* \"#utility.yul\":5594:5600   */\n      dup3\n        /* \"#utility.yul\":5588:5601   */\n      mload\n        /* \"#utility.yul\":5610:5685   */\n      tag_406\n        /* \"#utility.yul\":5678:5684   */\n      dup2\n        /* \"#utility.yul\":5673:5675   */\n      0x16\n        /* \"#utility.yul\":5668:5671   */\n      dup6\n        /* \"#utility.yul\":5664:5676   */\n      add\n        /* \"#utility.yul\":5657:5661   */\n      0x20\n        /* \"#utility.yul\":5649:5655   */\n      dup8\n        /* \"#utility.yul\":5645:5662   */\n      add\n        /* \"#utility.yul\":5610:5685   */\n      tag_345\n      jump\t// in\n    tag_406:\n        /* \"#utility.yul\":5705:5721   */\n      swap2\n      swap1\n      swap2\n      add\n        /* \"#utility.yul\":5723:5725   */\n      0x16\n        /* \"#utility.yul\":5701:5726   */\n      add\n      swap3\n        /* \"#utility.yul\":5278:5732   */\n      swap2\n      pop\n      pop\n      jump\t// out\n        /* \"#utility.yul\":5737:5954   */\n    tag_108:\n        /* \"#utility.yul\":5777:5778   */\n      0x00\n        /* \"#utility.yul\":5803:5804   */\n      dup3\n        /* \"#utility.yul\":5793:5925   */\n      tag_408\n      jumpi\n        /* \"#utility.yul\":5847:5857   */\n      0x4e487b71\n        /* \"#utility.yul\":5842:5845   */\n      0xe0\n        /* \"#utility.yul\":5838:5858   */\n      shl\n        /* \"#utility.yul\":5835:5836   */\n      0x00\n        /* \"#utility.yul\":5828:5859   */\n      mstore\n        /* \"#utility.yul\":5882:5886   */\n      0x12\n        /* \"#utility.yul\":5879:5880   */\n      0x04\n        /* \"#utility.yul\":5872:5887   */\n      mstore\n        /* \"#utility.yul\":5910:5914   */\n      0x24\n        /* \"#utility.yul\":5907:5908   */\n      0x00\n        /* \"#utility.yul\":5900:5915   */\n      revert\n        /* \"#utility.yul\":5793:5925   */\n    tag_408:\n      pop\n        /* \"#utility.yul\":5939:5948   */\n      div\n      swap1\n        /* \"#utility.yul\":5737:5954   */\n      jump\t// out\n        /* \"#utility.yul\":5959:6087   */\n    tag_180:\n        /* \"#utility.yul\":6026:6035   */\n      dup2\n      dup2\n      sub\n        /* \"#utility.yul\":6047:6058   */\n      dup2\n      dup2\n      gt\n        /* \"#utility.yul\":6044:6081   */\n      iszero\n      tag_27\n      jumpi\n        /* \"#utility.yul\":6061:6079   */\n      tag_27\n      tag_347\n      jump\t// in\n    stop\n    data_84d8a590de33e00cbdc16e1f28c3506f5ec15c599fab9a6a4bcd575cc2f110ce 4142434445464748494a4b4c4d4e4f505152535455565758595a6162636465666768696a6b6c6d6e6f707172737475767778797a303132333435363738392b2f\n\n    auxdata: 0xa2646970667358221220e40778a29a0c47f87c119dd855aac78077edbd9c46c5a046b18ae28e29e1e41764736f6c63430008120033\n}\n",
				"bytecode": {
					"linkReferences": {},
					"object": "60806040526200000e62000014565b620000de565b60005b6101008110156200009d578060005b60088110156200006c57816001166001036200004f57600182901c63edb8832018915062000057565b600182901c91505b806200006381620000a0565b91505062000026565b50806000836101008110620000855762000085620000c8565b015550806200009481620000a0565b91505062000017565b50565b600060018201620000c157634e487b7160e01b600052601160045260246000fd5b5060010190565b634e487b7160e01b600052603260045260246000fd5b61189880620000ee6000396000f3fe608060405234801561001057600080fd5b506004361061004c5760003560e01c806319858b361461005157806348b508b714610077578063f6d57f9e1461008c578063fe2a36491461009f575b600080fd5b61006461005f3660046115ab565b6100b2565b6040519081526020015b60405180910390f35b61007f610130565b60405161006e9190611640565b61007f61009a36600461165a565b6103e0565b6100646100ad3660046115ab565b6104fa565b6000600181805b8481101561010c578581815181106100d3576100d3611724565b602002602001015160f81c60ff16836100ec9190611750565b92506100f88383611750565b91508061010481611763565b9150506100b9565b508161011b826201000061177c565b6101259190611750565b925050505b92915050565b604080516003606080830182815260e084019094529260009291829190608083018680368337505050815260408051600380825260808201909252602092830192909190820160608036833750505081526040805160038082526080820190925260209283019290919082016060803683375050509052805180519192506001600160f81b0319916000906101c7576101c7611724565b6001600160f81b031990921660209283029190910190910152805180516000919060019081106101f9576101f9611724565b6001600160f81b0319909216602092830291909101909101528051805160009190600290811061022b5761022b611724565b6001600160f81b0319909216602092830291909101820152810151805160009190829061025a5761025a611724565b6001600160f81b03199283166020918202929092018101919091528201518051600190811061028b5761028b611724565b6001600160f81b031990921660209283029190910182015281015180516000919060029081106102bd576102bd611724565b60200260200101906001600160f81b03191690816001600160f81b03191681525050600081604001516000815181106102f8576102f8611724565b60200260200101906001600160f81b03191690816001600160f81b031916815250506000816040015160018151811061033357610333611724565b6001600160f81b0319928316602091820292909201015260408201518051600290811061036257610362611724565b6001600160f81b031990921660209283029190910190910152600061038a60036001846103e0565b905060008190506103b9816040516020016103a59190611793565b604051602081830303815290604052610518565b6040516020016103c991906117af565b604051602081830303815290604052935050505090565b604080516064808252610ca08201909252606091600091829160208201610c8080368337019050509050610414818361066b565b9250905061042481838888610850565b925090506104358183888888610ac5565b92509050610443818361103b565b9250905060008267ffffffffffffffff811115610462576104626114a4565b6040519080825280601f01601f19166020018201604052801561048c576020820181803683370190505b50905060005b838110156104ef578281815181106104ac576104ac611724565b60200260200101518282815181106104c6576104c6611724565b60200101906001600160f81b031916908160001a905350806104e781611763565b915050610492565b509695505050505050565b600061050b63ffffffff8484611157565b63ffffffff189392505050565b6060815160000361053757505060408051602081019091526000815290565b600060405180606001604052806040815260200161182360409139905060006003845160026105669190611750565b61057091906117ed565b61057b90600461177c565b67ffffffffffffffff811115610593576105936114a4565b6040519080825280601f01601f1916602001820160405280156105bd576020820181803683370190505b509050600182016020820185865187015b80821015610629576003820191508151603f8160121c168501518453600184019350603f81600c1c168501518453600184019350603f8160061c168501518453600184019350603f81168501518453506001830192506105ce565b5050600386510660018114610645576002811461065857610660565b603d6001830353603d6002830353610660565b603d60018303535b509195945050505050565b60606000608960f81b848461067f81611763565b95508151811061069157610691611724565b6001600160f81b031990921660209283029190910190910152600560fc1b84846106ba81611763565b9550815181106106cc576106cc611724565b6001600160f81b031990921660209283029190910190910152602760f91b84846106f581611763565b95508151811061070757610707611724565b6001600160f81b031990921660209283029190910190910152604760f81b848461073081611763565b95508151811061074257610742611724565b6001600160f81b031990921660209283029190910190910152600d60f81b848461076b81611763565b95508151811061077d5761077d611724565b6001600160f81b031990921660209283029190910190910152600560f91b84846107a681611763565b9550815181106107b8576107b8611724565b6001600160f81b031990921660209283029190910190910152600d60f91b84846107e181611763565b9550815181106107f3576107f3611724565b6001600160f81b031990921660209283029190910190910152600560f91b848461081c81611763565b95508151811061082e5761082e611724565b6001600160f81b03199290921660209283029190910190910152509192909150565b6060600084610860600482611750565b955085604960f81b888261087381611763565b99508151811061088557610885611724565b6001600160f81b031990921660209283029190910190910152600960fb1b88886108ae81611763565b9950815181106108c0576108c0611724565b6001600160f81b031990921660209283029190910190910152601160fa1b88886108e981611763565b9950815181106108fb576108fb611724565b6001600160f81b031990921660209283029190910190910152602960f91b888861092481611763565b99508151811061093657610936611724565b6001600160f81b0319909216602092830291909101909101528661095b8982896111c1565b909950975061096b8989886111c1565b9099509750600160fb1b898961098081611763565b9a508151811061099257610992611724565b6001600160f81b031990921660209283029190910190910152600160f91b89896109bb81611763565b9a50815181106109cd576109cd611724565b6001600160f81b031990921660209283029190910190910152600089896109f381611763565b9a5081518110610a0557610a05611724565b6001600160f81b03199092166020928302919091019091015260008989610a2b81611763565b9a5081518110610a3d57610a3d611724565b6001600160f81b03199092166020928302919091019091015260008989610a6381611763565b9a5081518110610a7557610a75611724565b6001600160f81b0319909216602092830291909101909101528780610a9c8b8286816112c2565b909b509950610ab58b86610ab0868661180f565b6111c1565b509b999a50505050505050505050565b6060600085610ad5600482611750565b9650604960f81b8888610ae781611763565b995081518110610af957610af9611724565b6001600160f81b031990921660209283029190910190910152601160fa1b8888610b2281611763565b995081518110610b3457610b34611724565b6001600160f81b031990921660209283029190910190910152604160f81b8888610b5d81611763565b995081518110610b6f57610b6f611724565b6001600160f81b031990921660209283029190910190910152601560fa1b8888610b9881611763565b995081518110610baa57610baa611724565b6001600160f81b03199092166020928302919091019091015286600f60fb1b8982610bd481611763565b9a5081518110610be657610be6611724565b6001600160f81b031990921660209283029190910190910152600160f81b8989610c0f81611763565b9a5081518110610c2157610c21611724565b6001600160f81b031990921660209283029190910190910152600160f81b8989610c4a81611763565b9a5081518110610c5c57610c5c611724565b6001600160f81b03199092166020928302919091019091015287610c81600482611750565b98508860008b82610c9181611763565b9c5081518110610ca357610ca3611724565b6001600160f81b03199092166020928302919091019091015286518051600090610ccf57610ccf611724565b60200260200101518b8b80610ce390611763565b9c5081518110610cf557610cf5611724565b6001600160f81b031990921660209283029190910190910152865180516001908110610d2357610d23611724565b60200260200101518b8b80610d3790611763565b9c5081518110610d4957610d49611724565b6001600160f81b031990921660209283029190910190910152865180516002908110610d7757610d77611724565b60200260200101518b8b80610d8b90611763565b9c5081518110610d9d57610d9d611724565b6001600160f81b03199092166020928302919091018201528701518051600090610dc957610dc9611724565b60200260200101518b8b80610ddd90611763565b9c5081518110610def57610def611724565b6001600160f81b031990921660209283029190910182015287015180516001908110610e1d57610e1d611724565b60200260200101518b8b80610e3190611763565b9c5081518110610e4357610e43611724565b6001600160f81b031990921660209283029190910182015287015180516002908110610e7157610e71611724565b60200260200101518b8b80610e8590611763565b9c5081518110610e9757610e97611724565b6001600160f81b03199092166020928302919091019091015260408701518051600090610ec657610ec6611724565b60200260200101518b8b80610eda90611763565b9c5081518110610eec57610eec611724565b6001600160f81b031990921660209283029190910190910152604087015180516001908110610f1d57610f1d611724565b60200260200101518b8b80610f3190611763565b9c5081518110610f4357610f43611724565b6001600160f81b031990921660209283029190910190910152604087015180516002908110610f7457610f74611724565b60200260200101518b8b80610f8890611763565b9c5081518110610f9a57610f9a611724565b6001600160f81b03199092166020928302919091019091015289610fc08c8284816113b3565b909c509a508a610fdc8d82610fd660048961180f565b846112c2565b909d509b50610ff08d87610ab0888561180f565b909d5095506110098d85611004868661180f565b611486565b909d5093506110298d8561101d868661180f565b6110049061ffff61180f565b509d9b9c505050505050505050505050565b6060600061104b848460006111c1565b909450925082604960f81b858261106181611763565b96508151811061107357611073611724565b6001600160f81b031990921660209283029190910190910152604560f81b858561109c81611763565b9650815181106110ae576110ae611724565b6001600160f81b031990921660209283029190910190910152602760f91b85856110d781611763565b9650815181106110e9576110e9611724565b6001600160f81b031990921660209283029190910190910152601160fa1b858561111281611763565b96508151811061112457611124611724565b6001600160f81b0319909216602092830291909101909101528361114a868284816112c2565b9097909650945050505050565b600083815b838110156111b857600882901c600086838151811061117d5761117d611724565b602002602001015160f81c60ff16841860ff1661010081106111a1576111a1611724565b0154189150806111b081611763565b91505061115c565b50949350505050565b606060006001600160f81b031960e084901b1685856111df81611763565b9650815181106111f1576111f1611724565b6001600160f81b0319928316602091820292909201015260e884901b16858561121981611763565b96508151811061122b5761122b611724565b6001600160f81b0319928316602091820292909201015260f084901b16858561125381611763565b96508151811061126557611265611724565b6001600160f81b0319928316602091820292909201015260f884901b16858561128d81611763565b96508151811061129f5761129f611724565b6001600160f81b0319929092166020928302919091019091015250929391925050565b60606000806112d1858561180f565b90506000808267ffffffffffffffff8111156112ef576112ef6114a4565b604051908082528060200260200182016040528015611318578160200160208202803683370190505b509050865b868110156113885789818151811061133757611337611724565b602002602001015182848061134b90611763565b95508151811061135d5761135d611724565b6001600160f81b0319909216602092830291909101909101528061138081611763565b91505061131d565b50600061139582856104fa565b90506113a28a8a836111c1565b909b909a5098505050505050505050565b60606000806113c2858561180f565b90506000808267ffffffffffffffff8111156113e0576113e06114a4565b604051908082528060200260200182016040528015611409578160200160208202803683370190505b509050865b868110156114795789818151811061142857611428611724565b602002602001015182848061143c90611763565b95508151811061144e5761144e611724565b6001600160f81b0319909216602092830291909101909101528061147181611763565b91505061140e565b50600061139582856100b2565b606060006001600160f81b031960f084901b16858561125381611763565b634e487b7160e01b600052604160045260246000fd5b6040516060810167ffffffffffffffff811182821017156114dd576114dd6114a4565b60405290565b604051601f8201601f1916810167ffffffffffffffff8111828210171561150c5761150c6114a4565b604052919050565b600082601f83011261152557600080fd5b8135602067ffffffffffffffff821115611541576115416114a4565b8160051b6115508282016114e3565b928352848101820192828101908785111561156a57600080fd5b83870192505b848310156115a05782356001600160f81b0319811681146115915760008081fd5b82529183019190830190611570565b979650505050505050565b600080604083850312156115be57600080fd5b823567ffffffffffffffff8111156115d557600080fd5b6115e185828601611514565b95602094909401359450505050565b60005b8381101561160b5781810151838201526020016115f3565b50506000910152565b6000815180845261162c8160208601602086016115f0565b601f01601f19169290920160200192915050565b6020815260006116536020830184611614565b9392505050565b60008060006060848603121561166f57600080fd5b8335925060208401359150604084013567ffffffffffffffff8082111561169557600080fd5b90850190606082880312156116a957600080fd5b6116b16114ba565b8235828111156116c057600080fd5b6116cc89828601611514565b8252506020830135828111156116e157600080fd5b6116ed89828601611514565b60208301525060408301358281111561170557600080fd5b61171189828601611514565b6040830152508093505050509250925092565b634e487b7160e01b600052603260045260246000fd5b634e487b7160e01b600052601160045260246000fd5b8082018082111561012a5761012a61173a565b6000600182016117755761177561173a565b5060010190565b808202811582820484141761012a5761012a61173a565b600082516117a58184602087016115f0565b9190910192915050565b7519185d184e9a5b5859d94bdc1b99ced8985cd94d8d0b60521b8152600082516117e08160168501602087016115f0565b9190910160160192915050565b60008261180a57634e487b7160e01b600052601260045260246000fd5b500490565b8181038181111561012a5761012a61173a56fe4142434445464748494a4b4c4d4e4f505152535455565758595a6162636465666768696a6b6c6d6e6f707172737475767778797a303132333435363738392b2fa2646970667358221220e40778a29a0c47f87c119dd855aac78077edbd9c46c5a046b18ae28e29e1e41764736f6c63430008120033",
					"opcodes": "PUSH1 0x80 PUSH1 0x40 MSTORE PUSH3 0xE PUSH3 0x14 JUMP JUMPDEST PUSH3 0xDE JUMP JUMPDEST PUSH1 0x0 JUMPDEST PUSH2 0x100 DUP2 LT ISZERO PUSH3 0x9D JUMPI DUP1 PUSH1 0x0 JUMPDEST PUSH1 0x8 DUP2 LT ISZERO PUSH3 0x6C JUMPI DUP2 PUSH1 0x1 AND PUSH1 0x1 SUB PUSH3 0x4F JUMPI PUSH1 0x1 DUP3 SWAP1 SHR PUSH4 0xEDB88320 XOR SWAP2 POP PUSH3 0x57 JUMP JUMPDEST PUSH1 0x1 DUP3 SWAP1 SHR SWAP2 POP JUMPDEST DUP1 PUSH3 0x63 DUP2 PUSH3 0xA0 JUMP JUMPDEST SWAP2 POP POP PUSH3 0x26 JUMP JUMPDEST POP DUP1 PUSH1 0x0 DUP4 PUSH2 0x100 DUP2 LT PUSH3 0x85 JUMPI PUSH3 0x85 PUSH3 0xC8 JUMP JUMPDEST ADD SSTORE POP DUP1 PUSH3 0x94 DUP2 PUSH3 0xA0 JUMP JUMPDEST SWAP2 POP POP PUSH3 0x17 JUMP JUMPDEST POP JUMP JUMPDEST PUSH1 0x0 PUSH1 0x1 DUP3 ADD PUSH3 0xC1 JUMPI PUSH4 0x4E487B71 PUSH1 0xE0 SHL PUSH1 0x0 MSTORE PUSH1 0x11 PUSH1 0x4 MSTORE PUSH1 0x24 PUSH1 0x0 REVERT JUMPDEST POP PUSH1 0x1 ADD SWAP1 JUMP JUMPDEST PUSH4 0x4E487B71 PUSH1 0xE0 SHL PUSH1 0x0 MSTORE PUSH1 0x32 PUSH1 0x4 MSTORE PUSH1 0x24 PUSH1 0x0 REVERT JUMPDEST PUSH2 0x1898 DUP1 PUSH3 0xEE PUSH1 0x0 CODECOPY PUSH1 0x0 RETURN INVALID PUSH1 0x80 PUSH1 0x40 MSTORE CALLVALUE DUP1 ISZERO PUSH2 0x10 JUMPI PUSH1 0x0 DUP1 REVERT JUMPDEST POP PUSH1 0x4 CALLDATASIZE LT PUSH2 0x4C JUMPI PUSH1 0x0 CALLDATALOAD PUSH1 0xE0 SHR DUP1 PUSH4 0x19858B36 EQ PUSH2 0x51 JUMPI DUP1 PUSH4 0x48B508B7 EQ PUSH2 0x77 JUMPI DUP1 PUSH4 0xF6D57F9E EQ PUSH2 0x8C JUMPI DUP1 PUSH4 0xFE2A3649 EQ PUSH2 0x9F JUMPI JUMPDEST PUSH1 0x0 DUP1 REVERT JUMPDEST PUSH2 0x64 PUSH2 0x5F CALLDATASIZE PUSH1 0x4 PUSH2 0x15AB JUMP JUMPDEST PUSH2 0xB2 JUMP JUMPDEST PUSH1 0x40 MLOAD SWAP1 DUP2 MSTORE PUSH1 0x20 ADD JUMPDEST PUSH1 0x40 MLOAD DUP1 SWAP2 SUB SWAP1 RETURN JUMPDEST PUSH2 0x7F PUSH2 0x130 JUMP JUMPDEST PUSH1 0x40 MLOAD PUSH2 0x6E SWAP2 SWAP1 PUSH2 0x1640 JUMP JUMPDEST PUSH2 0x7F PUSH2 0x9A CALLDATASIZE PUSH1 0x4 PUSH2 0x165A JUMP JUMPDEST PUSH2 0x3E0 JUMP JUMPDEST PUSH2 0x64 PUSH2 0xAD CALLDATASIZE PUSH1 0x4 PUSH2 0x15AB JUMP JUMPDEST PUSH2 0x4FA JUMP JUMPDEST PUSH1 0x0 PUSH1 0x1 DUP2 DUP1 JUMPDEST DUP5 DUP2 LT ISZERO PUSH2 0x10C JUMPI DUP6 DUP2 DUP2 MLOAD DUP2 LT PUSH2 0xD3 JUMPI PUSH2 0xD3 PUSH2 0x1724 JUMP JUMPDEST PUSH1 0x20 MUL PUSH1 0x20 ADD ADD MLOAD PUSH1 0xF8 SHR PUSH1 0xFF AND DUP4 PUSH2 0xEC SWAP2 SWAP1 PUSH2 0x1750 JUMP JUMPDEST SWAP3 POP PUSH2 0xF8 DUP4 DUP4 PUSH2 0x1750 JUMP JUMPDEST SWAP2 POP DUP1 PUSH2 0x104 DUP2 PUSH2 0x1763 JUMP JUMPDEST SWAP2 POP POP PUSH2 0xB9 JUMP JUMPDEST POP DUP2 PUSH2 0x11B DUP3 PUSH3 0x10000 PUSH2 0x177C JUMP JUMPDEST PUSH2 0x125 SWAP2 SWAP1 PUSH2 0x1750 JUMP JUMPDEST SWAP3 POP POP POP JUMPDEST SWAP3 SWAP2 POP POP JUMP JUMPDEST PUSH1 0x40 DUP1 MLOAD PUSH1 0x3 PUSH1 0x60 DUP1 DUP4 ADD DUP3 DUP2 MSTORE PUSH1 0xE0 DUP5 ADD SWAP1 SWAP5 MSTORE SWAP3 PUSH1 0x0 SWAP3 SWAP2 DUP3 SWAP2 SWAP1 PUSH1 0x80 DUP4 ADD DUP7 DUP1 CALLDATASIZE DUP4 CALLDATACOPY POP POP POP DUP2 MSTORE PUSH1 0x40 DUP1 MLOAD PUSH1 0x3 DUP1 DUP3 MSTORE PUSH1 0x80 DUP3 ADD SWAP1 SWAP3 MSTORE PUSH1 0x20 SWAP3 DUP4 ADD SWAP3 SWAP1 SWAP2 SWAP1 DUP3 ADD PUSH1 0x60 DUP1 CALLDATASIZE DUP4 CALLDATACOPY POP POP POP DUP2 MSTORE PUSH1 0x40 DUP1 MLOAD PUSH1 0x3 DUP1 DUP3 MSTORE PUSH1 0x80 DUP3 ADD SWAP1 SWAP3 MSTORE PUSH1 0x20 SWAP3 DUP4 ADD SWAP3 SWAP1 SWAP2 SWAP1 DUP3 ADD PUSH1 0x60 DUP1 CALLDATASIZE DUP4 CALLDATACOPY POP POP POP SWAP1 MSTORE DUP1 MLOAD DUP1 MLOAD SWAP2 SWAP3 POP PUSH1 0x1 PUSH1 0x1 PUSH1 0xF8 SHL SUB NOT SWAP2 PUSH1 0x0 SWAP1 PUSH2 0x1C7 JUMPI PUSH2 0x1C7 PUSH2 0x1724 JUMP JUMPDEST PUSH1 0x1 PUSH1 0x1 PUSH1 0xF8 SHL SUB NOT SWAP1 SWAP3 AND PUSH1 0x20 SWAP3 DUP4 MUL SWAP2 SWAP1 SWAP2 ADD SWAP1 SWAP2 ADD MSTORE DUP1 MLOAD DUP1 MLOAD PUSH1 0x0 SWAP2 SWAP1 PUSH1 0x1 SWAP1 DUP2 LT PUSH2 0x1F9 JUMPI PUSH2 0x1F9 PUSH2 0x1724 JUMP JUMPDEST PUSH1 0x1 PUSH1 0x1 PUSH1 0xF8 SHL SUB NOT SWAP1 SWAP3 AND PUSH1 0x20 SWAP3 DUP4 MUL SWAP2 SWAP1 SWAP2 ADD SWAP1 SWAP2 ADD MSTORE DUP1 MLOAD DUP1 MLOAD PUSH1 0x0 SWAP2 SWAP1 PUSH1 0x2 SWAP1 DUP2 LT PUSH2 0x22B JUMPI PUSH2 0x22B PUSH2 0x1724 JUMP JUMPDEST PUSH1 0x1 PUSH1 0x1 PUSH1 0xF8 SHL SUB NOT SWAP1 SWAP3 AND PUSH1 0x20 SWAP3 DUP4 MUL SWAP2 SWAP1 SWAP2 ADD DUP3 ADD MSTORE DUP2 ADD MLOAD DUP1 MLOAD PUSH1 0x0 SWAP2 SWAP1 DUP3 SWAP1 PUSH2 0x25A JUMPI PUSH2 0x25A PUSH2 0x1724 JUMP JUMPDEST PUSH1 0x1 PUSH1 0x1 PUSH1 0xF8 SHL SUB NOT SWAP3 DUP4 AND PUSH1 0x20 SWAP2 DUP3 MUL SWAP3 SWAP1 SWAP3 ADD DUP2 ADD SWAP2 SWAP1 SWAP2 MSTORE DUP3 ADD MLOAD DUP1 MLOAD PUSH1 0x1 SWAP1 DUP2 LT PUSH2 0x28B JUMPI PUSH2 0x28B PUSH2 0x1724 JUMP JUMPDEST PUSH1 0x1 PUSH1 0x1 PUSH1 0xF8 SHL SUB NOT SWAP1 SWAP3 AND PUSH1 0x20 SWAP3 DUP4 MUL SWAP2 SWAP1 SWAP2 ADD DUP3 ADD MSTORE DUP2 ADD MLOAD DUP1 MLOAD PUSH1 0x0 SWAP2 SWAP1 PUSH1 0x2 SWAP1 DUP2 LT PUSH2 0x2BD JUMPI PUSH2 0x2BD PUSH2 0x1724 JUMP JUMPDEST PUSH1 0x20 MUL PUSH1 0x20 ADD ADD SWAP1 PUSH1 0x1 PUSH1 0x1 PUSH1 0xF8 SHL SUB NOT AND SWAP1 DUP2 PUSH1 0x1 PUSH1 0x1 PUSH1 0xF8 SHL SUB NOT AND DUP2 MSTORE POP POP PUSH1 0x0 DUP2 PUSH1 0x40 ADD MLOAD PUSH1 0x0 DUP2 MLOAD DUP2 LT PUSH2 0x2F8 JUMPI PUSH2 0x2F8 PUSH2 0x1724 JUMP JUMPDEST PUSH1 0x20 MUL PUSH1 0x20 ADD ADD SWAP1 PUSH1 0x1 PUSH1 0x1 PUSH1 0xF8 SHL SUB NOT AND SWAP1 DUP2 PUSH1 0x1 PUSH1 0x1 PUSH1 0xF8 SHL SUB NOT AND DUP2 MSTORE POP POP PUSH1 0x0 DUP2 PUSH1 0x40 ADD MLOAD PUSH1 0x1 DUP2 MLOAD DUP2 LT PUSH2 0x333 JUMPI PUSH2 0x333 PUSH2 0x1724 JUMP JUMPDEST PUSH1 0x1 PUSH1 0x1 PUSH1 0xF8 SHL SUB NOT SWAP3 DUP4 AND PUSH1 0x20 SWAP2 DUP3 MUL SWAP3 SWAP1 SWAP3 ADD ADD MSTORE PUSH1 0x40 DUP3 ADD MLOAD DUP1 MLOAD PUSH1 0x2 SWAP1 DUP2 LT PUSH2 0x362 JUMPI PUSH2 0x362 PUSH2 0x1724 JUMP JUMPDEST PUSH1 0x1 PUSH1 0x1 PUSH1 0xF8 SHL SUB NOT SWAP1 SWAP3 AND PUSH1 0x20 SWAP3 DUP4 MUL SWAP2 SWAP1 SWAP2 ADD SWAP1 SWAP2 ADD MSTORE PUSH1 0x0 PUSH2 0x38A PUSH1 0x3 PUSH1 0x1 DUP5 PUSH2 0x3E0 JUMP JUMPDEST SWAP1 POP PUSH1 0x0 DUP2 SWAP1 POP PUSH2 0x3B9 DUP2 PUSH1 0x40 MLOAD PUSH1 0x20 ADD PUSH2 0x3A5 SWAP2 SWAP1 PUSH2 0x1793 JUMP JUMPDEST PUSH1 0x40 MLOAD PUSH1 0x20 DUP2 DUP4 SUB SUB DUP2 MSTORE SWAP1 PUSH1 0x40 MSTORE PUSH2 0x518 JUMP JUMPDEST PUSH1 0x40 MLOAD PUSH1 0x20 ADD PUSH2 0x3C9 SWAP2 SWAP1 PUSH2 0x17AF JUMP JUMPDEST PUSH1 0x40 MLOAD PUSH1 0x20 DUP2 DUP4 SUB SUB DUP2 MSTORE SWAP1 PUSH1 0x40 MSTORE SWAP4 POP POP POP POP SWAP1 JUMP JUMPDEST PUSH1 0x40 DUP1 MLOAD PUSH1 0x64 DUP1 DUP3 MSTORE PUSH2 0xCA0 DUP3 ADD SWAP1 SWAP3 MSTORE PUSH1 0x60 SWAP2 PUSH1 0x0 SWAP2 DUP3 SWAP2 PUSH1 0x20 DUP3 ADD PUSH2 0xC80 DUP1 CALLDATASIZE DUP4 CALLDATACOPY ADD SWAP1 POP POP SWAP1 POP PUSH2 0x414 DUP2 DUP4 PUSH2 0x66B JUMP JUMPDEST SWAP3 POP SWAP1 POP PUSH2 0x424 DUP2 DUP4 DUP9 DUP9 PUSH2 0x850 JUMP JUMPDEST SWAP3 POP SWAP1 POP PUSH2 0x435 DUP2 DUP4 DUP9 DUP9 DUP9 PUSH2 0xAC5 JUMP JUMPDEST SWAP3 POP SWAP1 POP PUSH2 0x443 DUP2 DUP4 PUSH2 0x103B JUMP JUMPDEST SWAP3 POP SWAP1 POP PUSH1 0x0 DUP3 PUSH8 0xFFFFFFFFFFFFFFFF DUP2 GT ISZERO PUSH2 0x462 JUMPI PUSH2 0x462 PUSH2 0x14A4 JUMP JUMPDEST PUSH1 0x40 MLOAD SWAP1 DUP1 DUP3 MSTORE DUP1 PUSH1 0x1F ADD PUSH1 0x1F NOT AND PUSH1 0x20 ADD DUP3 ADD PUSH1 0x40 MSTORE DUP1 ISZERO PUSH2 0x48C JUMPI PUSH1 0x20 DUP3 ADD DUP2 DUP1 CALLDATASIZE DUP4 CALLDATACOPY ADD SWAP1 POP JUMPDEST POP SWAP1 POP PUSH1 0x0 JUMPDEST DUP4 DUP2 LT ISZERO PUSH2 0x4EF JUMPI DUP3 DUP2 DUP2 MLOAD DUP2 LT PUSH2 0x4AC JUMPI PUSH2 0x4AC PUSH2 0x1724 JUMP JUMPDEST PUSH1 0x20 MUL PUSH1 0x20 ADD ADD MLOAD DUP3 DUP3 DUP2 MLOAD DUP2 LT PUSH2 0x4C6 JUMPI PUSH2 0x4C6 PUSH2 0x1724 JUMP JUMPDEST PUSH1 0x20 ADD ADD SWAP1 PUSH1 0x1 PUSH1 0x1 PUSH1 0xF8 SHL SUB NOT AND SWAP1 DUP2 PUSH1 0x0 BYTE SWAP1 MSTORE8 POP DUP1 PUSH2 0x4E7 DUP2 PUSH2 0x1763 JUMP JUMPDEST SWAP2 POP POP PUSH2 0x492 JUMP JUMPDEST POP SWAP7 SWAP6 POP POP POP POP POP POP JUMP JUMPDEST PUSH1 0x0 PUSH2 0x50B PUSH4 0xFFFFFFFF DUP5 DUP5 PUSH2 0x1157 JUMP JUMPDEST PUSH4 0xFFFFFFFF XOR SWAP4 SWAP3 POP POP POP JUMP JUMPDEST PUSH1 0x60 DUP2 MLOAD PUSH1 0x0 SUB PUSH2 0x537 JUMPI POP POP PUSH1 0x40 DUP1 MLOAD PUSH1 0x20 DUP2 ADD SWAP1 SWAP2 MSTORE PUSH1 0x0 DUP2 MSTORE SWAP1 JUMP JUMPDEST PUSH1 0x0 PUSH1 0x40 MLOAD DUP1 PUSH1 0x60 ADD PUSH1 0x40 MSTORE DUP1 PUSH1 0x40 DUP2 MSTORE PUSH1 0x20 ADD PUSH2 0x1823 PUSH1 0x40 SWAP2 CODECOPY SWAP1 POP PUSH1 0x0 PUSH1 0x3 DUP5 MLOAD PUSH1 0x2 PUSH2 0x566 SWAP2 SWAP1 PUSH2 0x1750 JUMP JUMPDEST PUSH2 0x570 SWAP2 SWAP1 PUSH2 0x17ED JUMP JUMPDEST PUSH2 0x57B SWAP1 PUSH1 0x4 PUSH2 0x177C JUMP JUMPDEST PUSH8 0xFFFFFFFFFFFFFFFF DUP2 GT ISZERO PUSH2 0x593 JUMPI PUSH2 0x593 PUSH2 0x14A4 JUMP JUMPDEST PUSH1 0x40 MLOAD SWAP1 DUP1 DUP3 MSTORE DUP1 PUSH1 0x1F ADD PUSH1 0x1F NOT AND PUSH1 0x20 ADD DUP3 ADD PUSH1 0x40 MSTORE DUP1 ISZERO PUSH2 0x5BD JUMPI PUSH1 0x20 DUP3 ADD DUP2 DUP1 CALLDATASIZE DUP4 CALLDATACOPY ADD SWAP1 POP JUMPDEST POP SWAP1 POP PUSH1 0x1 DUP3 ADD PUSH1 0x20 DUP3 ADD DUP6 DUP7 MLOAD DUP8 ADD JUMPDEST DUP1 DUP3 LT ISZERO PUSH2 0x629 JUMPI PUSH1 0x3 DUP3 ADD SWAP2 POP DUP2 MLOAD PUSH1 0x3F DUP2 PUSH1 0x12 SHR AND DUP6 ADD MLOAD DUP5 MSTORE8 PUSH1 0x1 DUP5 ADD SWAP4 POP PUSH1 0x3F DUP2 PUSH1 0xC SHR AND DUP6 ADD MLOAD DUP5 MSTORE8 PUSH1 0x1 DUP5 ADD SWAP4 POP PUSH1 0x3F DUP2 PUSH1 0x6 SHR AND DUP6 ADD MLOAD DUP5 MSTORE8 PUSH1 0x1 DUP5 ADD SWAP4 POP PUSH1 0x3F DUP2 AND DUP6 ADD MLOAD DUP5 MSTORE8 POP PUSH1 0x1 DUP4 ADD SWAP3 POP PUSH2 0x5CE JUMP JUMPDEST POP POP PUSH1 0x3 DUP7 MLOAD MOD PUSH1 0x1 DUP2 EQ PUSH2 0x645 JUMPI PUSH1 0x2 DUP2 EQ PUSH2 0x658 JUMPI PUSH2 0x660 JUMP JUMPDEST PUSH1 0x3D PUSH1 0x1 DUP4 SUB MSTORE8 PUSH1 0x3D PUSH1 0x2 DUP4 SUB MSTORE8 PUSH2 0x660 JUMP JUMPDEST PUSH1 0x3D PUSH1 0x1 DUP4 SUB MSTORE8 JUMPDEST POP SWAP2 SWAP6 SWAP5 POP POP POP POP POP JUMP JUMPDEST PUSH1 0x60 PUSH1 0x0 PUSH1 0x89 PUSH1 0xF8 SHL DUP5 DUP5 PUSH2 0x67F DUP2 PUSH2 0x1763 JUMP JUMPDEST SWAP6 POP DUP2 MLOAD DUP2 LT PUSH2 0x691 JUMPI PUSH2 0x691 PUSH2 0x1724 JUMP JUMPDEST PUSH1 0x1 PUSH1 0x1 PUSH1 0xF8 SHL SUB NOT SWAP1 SWAP3 AND PUSH1 0x20 SWAP3 DUP4 MUL SWAP2 SWAP1 SWAP2 ADD SWAP1 SWAP2 ADD MSTORE PUSH1 0x5 PUSH1 0xFC SHL DUP5 DUP5 PUSH2 0x6BA DUP2 PUSH2 0x1763 JUMP JUMPDEST SWAP6 POP DUP2 MLOAD DUP2 LT PUSH2 0x6CC JUMPI PUSH2 0x6CC PUSH2 0x1724 JUMP JUMPDEST PUSH1 0x1 PUSH1 0x1 PUSH1 0xF8 SHL SUB NOT SWAP1 SWAP3 AND PUSH1 0x20 SWAP3 DUP4 MUL SWAP2 SWAP1 SWAP2 ADD SWAP1 SWAP2 ADD MSTORE PUSH1 0x27 PUSH1 0xF9 SHL DUP5 DUP5 PUSH2 0x6F5 DUP2 PUSH2 0x1763 JUMP JUMPDEST SWAP6 POP DUP2 MLOAD DUP2 LT PUSH2 0x707 JUMPI PUSH2 0x707 PUSH2 0x1724 JUMP JUMPDEST PUSH1 0x1 PUSH1 0x1 PUSH1 0xF8 SHL SUB NOT SWAP1 SWAP3 AND PUSH1 0x20 SWAP3 DUP4 MUL SWAP2 SWAP1 SWAP2 ADD SWAP1 SWAP2 ADD MSTORE PUSH1 0x47 PUSH1 0xF8 SHL DUP5 DUP5 PUSH2 0x730 DUP2 PUSH2 0x1763 JUMP JUMPDEST SWAP6 POP DUP2 MLOAD DUP2 LT PUSH2 0x742 JUMPI PUSH2 0x742 PUSH2 0x1724 JUMP JUMPDEST PUSH1 0x1 PUSH1 0x1 PUSH1 0xF8 SHL SUB NOT SWAP1 SWAP3 AND PUSH1 0x20 SWAP3 DUP4 MUL SWAP2 SWAP1 SWAP2 ADD SWAP1 SWAP2 ADD MSTORE PUSH1 0xD PUSH1 0xF8 SHL DUP5 DUP5 PUSH2 0x76B DUP2 PUSH2 0x1763 JUMP JUMPDEST SWAP6 POP DUP2 MLOAD DUP2 LT PUSH2 0x77D JUMPI PUSH2 0x77D PUSH2 0x1724 JUMP JUMPDEST PUSH1 0x1 PUSH1 0x1 PUSH1 0xF8 SHL SUB NOT SWAP1 SWAP3 AND PUSH1 0x20 SWAP3 DUP4 MUL SWAP2 SWAP1 SWAP2 ADD SWAP1 SWAP2 ADD MSTORE PUSH1 0x5 PUSH1 0xF9 SHL DUP5 DUP5 PUSH2 0x7A6 DUP2 PUSH2 0x1763 JUMP JUMPDEST SWAP6 POP DUP2 MLOAD DUP2 LT PUSH2 0x7B8 JUMPI PUSH2 0x7B8 PUSH2 0x1724 JUMP JUMPDEST PUSH1 0x1 PUSH1 0x1 PUSH1 0xF8 SHL SUB NOT SWAP1 SWAP3 AND PUSH1 0x20 SWAP3 DUP4 MUL SWAP2 SWAP1 SWAP2 ADD SWAP1 SWAP2 ADD MSTORE PUSH1 0xD PUSH1 0xF9 SHL DUP5 DUP5 PUSH2 0x7E1 DUP2 PUSH2 0x1763 JUMP JUMPDEST SWAP6 POP DUP2 MLOAD DUP2 LT PUSH2 0x7F3 JUMPI PUSH2 0x7F3 PUSH2 0x1724 JUMP JUMPDEST PUSH1 0x1 PUSH1 0x1 PUSH1 0xF8 SHL SUB NOT SWAP1 SWAP3 AND PUSH1 0x20 SWAP3 DUP4 MUL SWAP2 SWAP1 SWAP2 ADD SWAP1 SWAP2 ADD MSTORE PUSH1 0x5 PUSH1 0xF9 SHL DUP5 DUP5 PUSH2 0x81C DUP2 PUSH2 0x1763 JUMP JUMPDEST SWAP6 POP DUP2 MLOAD DUP2 LT PUSH2 0x82E JUMPI PUSH2 0x82E PUSH2 0x1724 JUMP JUMPDEST PUSH1 0x1 PUSH1 0x1 PUSH1 0xF8 SHL SUB NOT SWAP3 SWAP1 SWAP3 AND PUSH1 0x20 SWAP3 DUP4 MUL SWAP2 SWAP1 SWAP2 ADD SWAP1 SWAP2 ADD MSTORE POP SWAP2 SWAP3 SWAP1 SWAP2 POP JUMP JUMPDEST PUSH1 0x60 PUSH1 0x0 DUP5 PUSH2 0x860 PUSH1 0x4 DUP3 PUSH2 0x1750 JUMP JUMPDEST SWAP6 POP DUP6 PUSH1 0x49 PUSH1 0xF8 SHL DUP9 DUP3 PUSH2 0x873 DUP2 PUSH2 0x1763 JUMP JUMPDEST SWAP10 POP DUP2 MLOAD DUP2 LT PUSH2 0x885 JUMPI PUSH2 0x885 PUSH2 0x1724 JUMP JUMPDEST PUSH1 0x1 PUSH1 0x1 PUSH1 0xF8 SHL SUB NOT SWAP1 SWAP3 AND PUSH1 0x20 SWAP3 DUP4 MUL SWAP2 SWAP1 SWAP2 ADD SWAP1 SWAP2 ADD MSTORE PUSH1 0x9 PUSH1 0xFB SHL DUP9 DUP9 PUSH2 0x8AE DUP2 PUSH2 0x1763 JUMP JUMPDEST SWAP10 POP DUP2 MLOAD DUP2 LT PUSH2 0x8C0 JUMPI PUSH2 0x8C0 PUSH2 0x1724 JUMP JUMPDEST PUSH1 0x1 PUSH1 0x1 PUSH1 0xF8 SHL SUB NOT SWAP1 SWAP3 AND PUSH1 0x20 SWAP3 DUP4 MUL SWAP2 SWAP1 SWAP2 ADD SWAP1 SWAP2 ADD MSTORE PUSH1 0x11 PUSH1 0xFA SHL DUP9 DUP9 PUSH2 0x8E9 DUP2 PUSH2 0x1763 JUMP JUMPDEST SWAP10 POP DUP2 MLOAD DUP2 LT PUSH2 0x8FB JUMPI PUSH2 0x8FB PUSH2 0x1724 JUMP JUMPDEST PUSH1 0x1 PUSH1 0x1 PUSH1 0xF8 SHL SUB NOT SWAP1 SWAP3 AND PUSH1 0x20 SWAP3 DUP4 MUL SWAP2 SWAP1 SWAP2 ADD SWAP1 SWAP2 ADD MSTORE PUSH1 0x29 PUSH1 0xF9 SHL DUP9 DUP9 PUSH2 0x924 DUP2 PUSH2 0x1763 JUMP JUMPDEST SWAP10 POP DUP2 MLOAD DUP2 LT PUSH2 0x936 JUMPI PUSH2 0x936 PUSH2 0x1724 JUMP JUMPDEST PUSH1 0x1 PUSH1 0x1 PUSH1 0xF8 SHL SUB NOT SWAP1 SWAP3 AND PUSH1 0x20 SWAP3 DUP4 MUL SWAP2 SWAP1 SWAP2 ADD SWAP1 SWAP2 ADD MSTORE DUP7 PUSH2 0x95B DUP10 DUP3 DUP10 PUSH2 0x11C1 JUMP JUMPDEST SWAP1 SWAP10 POP SWAP8 POP PUSH2 0x96B DUP10 DUP10 DUP9 PUSH2 0x11C1 JUMP JUMPDEST SWAP1 SWAP10 POP SWAP8 POP PUSH1 0x1 PUSH1 0xFB SHL DUP10 DUP10 PUSH2 0x980 DUP2 PUSH2 0x1763 JUMP JUMPDEST SWAP11 POP DUP2 MLOAD DUP2 LT PUSH2 0x992 JUMPI PUSH2 0x992 PUSH2 0x1724 JUMP JUMPDEST PUSH1 0x1 PUSH1 0x1 PUSH1 0xF8 SHL SUB NOT SWAP1 SWAP3 AND PUSH1 0x20 SWAP3 DUP4 MUL SWAP2 SWAP1 SWAP2 ADD SWAP1 SWAP2 ADD MSTORE PUSH1 0x1 PUSH1 0xF9 SHL DUP10 DUP10 PUSH2 0x9BB DUP2 PUSH2 0x1763 JUMP JUMPDEST SWAP11 POP DUP2 MLOAD DUP2 LT PUSH2 0x9CD JUMPI PUSH2 0x9CD PUSH2 0x1724 JUMP JUMPDEST PUSH1 0x1 PUSH1 0x1 PUSH1 0xF8 SHL SUB NOT SWAP1 SWAP3 AND PUSH1 0x20 SWAP3 DUP4 MUL SWAP2 SWAP1 SWAP2 ADD SWAP1 SWAP2 ADD MSTORE PUSH1 0x0 DUP10 DUP10 PUSH2 0x9F3 DUP2 PUSH2 0x1763 JUMP JUMPDEST SWAP11 POP DUP2 MLOAD DUP2 LT PUSH2 0xA05 JUMPI PUSH2 0xA05 PUSH2 0x1724 JUMP JUMPDEST PUSH1 0x1 PUSH1 0x1 PUSH1 0xF8 SHL SUB NOT SWAP1 SWAP3 AND PUSH1 0x20 SWAP3 DUP4 MUL SWAP2 SWAP1 SWAP2 ADD SWAP1 SWAP2 ADD MSTORE PUSH1 0x0 DUP10 DUP10 PUSH2 0xA2B DUP2 PUSH2 0x1763 JUMP JUMPDEST SWAP11 POP DUP2 MLOAD DUP2 LT PUSH2 0xA3D JUMPI PUSH2 0xA3D PUSH2 0x1724 JUMP JUMPDEST PUSH1 0x1 PUSH1 0x1 PUSH1 0xF8 SHL SUB NOT SWAP1 SWAP3 AND PUSH1 0x20 SWAP3 DUP4 MUL SWAP2 SWAP1 SWAP2 ADD SWAP1 SWAP2 ADD MSTORE PUSH1 0x0 DUP10 DUP10 PUSH2 0xA63 DUP2 PUSH2 0x1763 JUMP JUMPDEST SWAP11 POP DUP2 MLOAD DUP2 LT PUSH2 0xA75 JUMPI PUSH2 0xA75 PUSH2 0x1724 JUMP JUMPDEST PUSH1 0x1 PUSH1 0x1 PUSH1 0xF8 SHL SUB NOT SWAP1 SWAP3 AND PUSH1 0x20 SWAP3 DUP4 MUL SWAP2 SWAP1 SWAP2 ADD SWAP1 SWAP2 ADD MSTORE DUP8 DUP1 PUSH2 0xA9C DUP12 DUP3 DUP7 DUP2 PUSH2 0x12C2 JUMP JUMPDEST SWAP1 SWAP12 POP SWAP10 POP PUSH2 0xAB5 DUP12 DUP7 PUSH2 0xAB0 DUP7 DUP7 PUSH2 0x180F JUMP JUMPDEST PUSH2 0x11C1 JUMP JUMPDEST POP SWAP12 SWAP10 SWAP11 POP POP POP POP POP POP POP POP POP POP JUMP JUMPDEST PUSH1 0x60 PUSH1 0x0 DUP6 PUSH2 0xAD5 PUSH1 0x4 DUP3 PUSH2 0x1750 JUMP JUMPDEST SWAP7 POP PUSH1 0x49 PUSH1 0xF8 SHL DUP9 DUP9 PUSH2 0xAE7 DUP2 PUSH2 0x1763 JUMP JUMPDEST SWAP10 POP DUP2 MLOAD DUP2 LT PUSH2 0xAF9 JUMPI PUSH2 0xAF9 PUSH2 0x1724 JUMP JUMPDEST PUSH1 0x1 PUSH1 0x1 PUSH1 0xF8 SHL SUB NOT SWAP1 SWAP3 AND PUSH1 0x20 SWAP3 DUP4 MUL SWAP2 SWAP1 SWAP2 ADD SWAP1 SWAP2 ADD MSTORE PUSH1 0x11 PUSH1 0xFA SHL DUP9 DUP9 PUSH2 0xB22 DUP2 PUSH2 0x1763 JUMP JUMPDEST SWAP10 POP DUP2 MLOAD DUP2 LT PUSH2 0xB34 JUMPI PUSH2 0xB34 PUSH2 0x1724 JUMP JUMPDEST PUSH1 0x1 PUSH1 0x1 PUSH1 0xF8 SHL SUB NOT SWAP1 SWAP3 AND PUSH1 0x20 SWAP3 DUP4 MUL SWAP2 SWAP1 SWAP2 ADD SWAP1 SWAP2 ADD MSTORE PUSH1 0x41 PUSH1 0xF8 SHL DUP9 DUP9 PUSH2 0xB5D DUP2 PUSH2 0x1763 JUMP JUMPDEST SWAP10 POP DUP2 MLOAD DUP2 LT PUSH2 0xB6F JUMPI PUSH2 0xB6F PUSH2 0x1724 JUMP JUMPDEST PUSH1 0x1 PUSH1 0x1 PUSH1 0xF8 SHL SUB NOT SWAP1 SWAP3 AND PUSH1 0x20 SWAP3 DUP4 MUL SWAP2 SWAP1 SWAP2 ADD SWAP1 SWAP2 ADD MSTORE PUSH1 0x15 PUSH1 0xFA SHL DUP9 DUP9 PUSH2 0xB98 DUP2 PUSH2 0x1763 JUMP JUMPDEST SWAP10 POP DUP2 MLOAD DUP2 LT PUSH2 0xBAA JUMPI PUSH2 0xBAA PUSH2 0x1724 JUMP JUMPDEST PUSH1 0x1 PUSH1 0x1 PUSH1 0xF8 SHL SUB NOT SWAP1 SWAP3 AND PUSH1 0x20 SWAP3 DUP4 MUL SWAP2 SWAP1 SWAP2 ADD SWAP1 SWAP2 ADD MSTORE DUP7 PUSH1 0xF PUSH1 0xFB SHL DUP10 DUP3 PUSH2 0xBD4 DUP2 PUSH2 0x1763 JUMP JUMPDEST SWAP11 POP DUP2 MLOAD DUP2 LT PUSH2 0xBE6 JUMPI PUSH2 0xBE6 PUSH2 0x1724 JUMP JUMPDEST PUSH1 0x1 PUSH1 0x1 PUSH1 0xF8 SHL SUB NOT SWAP1 SWAP3 AND PUSH1 0x20 SWAP3 DUP4 MUL SWAP2 SWAP1 SWAP2 ADD SWAP1 SWAP2 ADD MSTORE PUSH1 0x1 PUSH1 0xF8 SHL DUP10 DUP10 PUSH2 0xC0F DUP2 PUSH2 0x1763 JUMP JUMPDEST SWAP11 POP DUP2 MLOAD DUP2 LT PUSH2 0xC21 JUMPI PUSH2 0xC21 PUSH2 0x1724 JUMP JUMPDEST PUSH1 0x1 PUSH1 0x1 PUSH1 0xF8 SHL SUB NOT SWAP1 SWAP3 AND PUSH1 0x20 SWAP3 DUP4 MUL SWAP2 SWAP1 SWAP2 ADD SWAP1 SWAP2 ADD MSTORE PUSH1 0x1 PUSH1 0xF8 SHL DUP10 DUP10 PUSH2 0xC4A DUP2 PUSH2 0x1763 JUMP JUMPDEST SWAP11 POP DUP2 MLOAD DUP2 LT PUSH2 0xC5C JUMPI PUSH2 0xC5C PUSH2 0x1724 JUMP JUMPDEST PUSH1 0x1 PUSH1 0x1 PUSH1 0xF8 SHL SUB NOT SWAP1 SWAP3 AND PUSH1 0x20 SWAP3 DUP4 MUL SWAP2 SWAP1 SWAP2 ADD SWAP1 SWAP2 ADD MSTORE DUP8 PUSH2 0xC81 PUSH1 0x4 DUP3 PUSH2 0x1750 JUMP JUMPDEST SWAP9 POP DUP9 PUSH1 0x0 DUP12 DUP3 PUSH2 0xC91 DUP2 PUSH2 0x1763 JUMP JUMPDEST SWAP13 POP DUP2 MLOAD DUP2 LT PUSH2 0xCA3 JUMPI PUSH2 0xCA3 PUSH2 0x1724 JUMP JUMPDEST PUSH1 0x1 PUSH1 0x1 PUSH1 0xF8 SHL SUB NOT SWAP1 SWAP3 AND PUSH1 0x20 SWAP3 DUP4 MUL SWAP2 SWAP1 SWAP2 ADD SWAP1 SWAP2 ADD MSTORE DUP7 MLOAD DUP1 MLOAD PUSH1 0x0 SWAP1 PUSH2 0xCCF JUMPI PUSH2 0xCCF PUSH2 0x1724 JUMP JUMPDEST PUSH1 0x20 MUL PUSH1 0x20 ADD ADD MLOAD DUP12 DUP12 DUP1 PUSH2 0xCE3 SWAP1 PUSH2 0x1763 JUMP JUMPDEST SWAP13 POP DUP2 MLOAD DUP2 LT PUSH2 0xCF5 JUMPI PUSH2 0xCF5 PUSH2 0x1724 JUMP JUMPDEST PUSH1 0x1 PUSH1 0x1 PUSH1 0xF8 SHL SUB NOT SWAP1 SWAP3 AND PUSH1 0x20 SWAP3 DUP4 MUL SWAP2 SWAP1 SWAP2 ADD SWAP1 SWAP2 ADD MSTORE DUP7 MLOAD DUP1 MLOAD PUSH1 0x1 SWAP1 DUP2 LT PUSH2 0xD23 JUMPI PUSH2 0xD23 PUSH2 0x1724 JUMP JUMPDEST PUSH1 0x20 MUL PUSH1 0x20 ADD ADD MLOAD DUP12 DUP12 DUP1 PUSH2 0xD37 SWAP1 PUSH2 0x1763 JUMP JUMPDEST SWAP13 POP DUP2 MLOAD DUP2 LT PUSH2 0xD49 JUMPI PUSH2 0xD49 PUSH2 0x1724 JUMP JUMPDEST PUSH1 0x1 PUSH1 0x1 PUSH1 0xF8 SHL SUB NOT SWAP1 SWAP3 AND PUSH1 0x20 SWAP3 DUP4 MUL SWAP2 SWAP1 SWAP2 ADD SWAP1 SWAP2 ADD MSTORE DUP7 MLOAD DUP1 MLOAD PUSH1 0x2 SWAP1 DUP2 LT PUSH2 0xD77 JUMPI PUSH2 0xD77 PUSH2 0x1724 JUMP JUMPDEST PUSH1 0x20 MUL PUSH1 0x20 ADD ADD MLOAD DUP12 DUP12 DUP1 PUSH2 0xD8B SWAP1 PUSH2 0x1763 JUMP JUMPDEST SWAP13 POP DUP2 MLOAD DUP2 LT PUSH2 0xD9D JUMPI PUSH2 0xD9D PUSH2 0x1724 JUMP JUMPDEST PUSH1 0x1 PUSH1 0x1 PUSH1 0xF8 SHL SUB NOT SWAP1 SWAP3 AND PUSH1 0x20 SWAP3 DUP4 MUL SWAP2 SWAP1 SWAP2 ADD DUP3 ADD MSTORE DUP8 ADD MLOAD DUP1 MLOAD PUSH1 0x0 SWAP1 PUSH2 0xDC9 JUMPI PUSH2 0xDC9 PUSH2 0x1724 JUMP JUMPDEST PUSH1 0x20 MUL PUSH1 0x20 ADD ADD MLOAD DUP12 DUP12 DUP1 PUSH2 0xDDD SWAP1 PUSH2 0x1763 JUMP JUMPDEST SWAP13 POP DUP2 MLOAD DUP2 LT PUSH2 0xDEF JUMPI PUSH2 0xDEF PUSH2 0x1724 JUMP JUMPDEST PUSH1 0x1 PUSH1 0x1 PUSH1 0xF8 SHL SUB NOT SWAP1 SWAP3 AND PUSH1 0x20 SWAP3 DUP4 MUL SWAP2 SWAP1 SWAP2 ADD DUP3 ADD MSTORE DUP8 ADD MLOAD DUP1 MLOAD PUSH1 0x1 SWAP1 DUP2 LT PUSH2 0xE1D JUMPI PUSH2 0xE1D PUSH2 0x1724 JUMP JUMPDEST PUSH1 0x20 MUL PUSH1 0x20 ADD ADD MLOAD DUP12 DUP12 DUP1 PUSH2 0xE31 SWAP1 PUSH2 0x1763 JUMP JUMPDEST SWAP13 POP DUP2 MLOAD DUP2 LT PUSH2 0xE43 JUMPI PUSH2 0xE43 PUSH2 0x1724 JUMP JUMPDEST PUSH1 0x1 PUSH1 0x1 PUSH1 0xF8 SHL SUB NOT SWAP1 SWAP3 AND PUSH1 0x20 SWAP3 DUP4 MUL SWAP2 SWAP1 SWAP2 ADD DUP3 ADD MSTORE DUP8 ADD MLOAD DUP1 MLOAD PUSH1 0x2 SWAP1 DUP2 LT PUSH2 0xE71 JUMPI PUSH2 0xE71 PUSH2 0x1724 JUMP JUMPDEST PUSH1 0x20 MUL PUSH1 0x20 ADD ADD MLOAD DUP12 DUP12 DUP1 PUSH2 0xE85 SWAP1 PUSH2 0x1763 JUMP JUMPDEST SWAP13 POP DUP2 MLOAD DUP2 LT PUSH2 0xE97 JUMPI PUSH2 0xE97 PUSH2 0x1724 JUMP JUMPDEST PUSH1 0x1 PUSH1 0x1 PUSH1 0xF8 SHL SUB NOT SWAP1 SWAP3 AND PUSH1 0x20 SWAP3 DUP4 MUL SWAP2 SWAP1 SWAP2 ADD SWAP1 SWAP2 ADD MSTORE PUSH1 0x40 DUP8 ADD MLOAD DUP1 MLOAD PUSH1 0x0 SWAP1 PUSH2 0xEC6 JUMPI PUSH2 0xEC6 PUSH2 0x1724 JUMP JUMPDEST PUSH1 0x20 MUL PUSH1 0x20 ADD ADD MLOAD DUP12 DUP12 DUP1 PUSH2 0xEDA SWAP1 PUSH2 0x1763 JUMP JUMPDEST SWAP13 POP DUP2 MLOAD DUP2 LT PUSH2 0xEEC JUMPI PUSH2 0xEEC PUSH2 0x1724 JUMP JUMPDEST PUSH1 0x1 PUSH1 0x1 PUSH1 0xF8 SHL SUB NOT SWAP1 SWAP3 AND PUSH1 0x20 SWAP3 DUP4 MUL SWAP2 SWAP1 SWAP2 ADD SWAP1 SWAP2 ADD MSTORE PUSH1 0x40 DUP8 ADD MLOAD DUP1 MLOAD PUSH1 0x1 SWAP1 DUP2 LT PUSH2 0xF1D JUMPI PUSH2 0xF1D PUSH2 0x1724 JUMP JUMPDEST PUSH1 0x20 MUL PUSH1 0x20 ADD ADD MLOAD DUP12 DUP12 DUP1 PUSH2 0xF31 SWAP1 PUSH2 0x1763 JUMP JUMPDEST SWAP13 POP DUP2 MLOAD DUP2 LT PUSH2 0xF43 JUMPI PUSH2 0xF43 PUSH2 0x1724 JUMP JUMPDEST PUSH1 0x1 PUSH1 0x1 PUSH1 0xF8 SHL SUB NOT SWAP1 SWAP3 AND PUSH1 0x20 SWAP3 DUP4 MUL SWAP2 SWAP1 SWAP2 ADD SWAP1 SWAP2 ADD MSTORE PUSH1 0x40 DUP8 ADD MLOAD DUP1 MLOAD PUSH1 0x2 SWAP1 DUP2 LT PUSH2 0xF74 JUMPI PUSH2 0xF74 PUSH2 0x1724 JUMP JUMPDEST PUSH1 0x20 MUL PUSH1 0x20 ADD ADD MLOAD DUP12 DUP12 DUP1 PUSH2 0xF88 SWAP1 PUSH2 0x1763 JUMP JUMPDEST SWAP13 POP DUP2 MLOAD DUP2 LT PUSH2 0xF9A JUMPI PUSH2 0xF9A PUSH2 0x1724 JUMP JUMPDEST PUSH1 0x1 PUSH1 0x1 PUSH1 0xF8 SHL SUB NOT SWAP1 SWAP3 AND PUSH1 0x20 SWAP3 DUP4 MUL SWAP2 SWAP1 SWAP2 ADD SWAP1 SWAP2 ADD MSTORE DUP10 PUSH2 0xFC0 DUP13 DUP3 DUP5 DUP2 PUSH2 0x13B3 JUMP JUMPDEST SWAP1 SWAP13 POP SWAP11 POP DUP11 PUSH2 0xFDC DUP14 DUP3 PUSH2 0xFD6 PUSH1 0x4 DUP10 PUSH2 0x180F JUMP JUMPDEST DUP5 PUSH2 0x12C2 JUMP JUMPDEST SWAP1 SWAP14 POP SWAP12 POP PUSH2 0xFF0 DUP14 DUP8 PUSH2 0xAB0 DUP9 DUP6 PUSH2 0x180F JUMP JUMPDEST SWAP1 SWAP14 POP SWAP6 POP PUSH2 0x1009 DUP14 DUP6 PUSH2 0x1004 DUP7 DUP7 PUSH2 0x180F JUMP JUMPDEST PUSH2 0x1486 JUMP JUMPDEST SWAP1 SWAP14 POP SWAP4 POP PUSH2 0x1029 DUP14 DUP6 PUSH2 0x101D DUP7 DUP7 PUSH2 0x180F JUMP JUMPDEST PUSH2 0x1004 SWAP1 PUSH2 0xFFFF PUSH2 0x180F JUMP JUMPDEST POP SWAP14 SWAP12 SWAP13 POP POP POP POP POP POP POP POP POP POP POP POP JUMP JUMPDEST PUSH1 0x60 PUSH1 0x0 PUSH2 0x104B DUP5 DUP5 PUSH1 0x0 PUSH2 0x11C1 JUMP JUMPDEST SWAP1 SWAP5 POP SWAP3 POP DUP3 PUSH1 0x49 PUSH1 0xF8 SHL DUP6 DUP3 PUSH2 0x1061 DUP2 PUSH2 0x1763 JUMP JUMPDEST SWAP7 POP DUP2 MLOAD DUP2 LT PUSH2 0x1073 JUMPI PUSH2 0x1073 PUSH2 0x1724 JUMP JUMPDEST PUSH1 0x1 PUSH1 0x1 PUSH1 0xF8 SHL SUB NOT SWAP1 SWAP3 AND PUSH1 0x20 SWAP3 DUP4 MUL SWAP2 SWAP1 SWAP2 ADD SWAP1 SWAP2 ADD MSTORE PUSH1 0x45 PUSH1 0xF8 SHL DUP6 DUP6 PUSH2 0x109C DUP2 PUSH2 0x1763 JUMP JUMPDEST SWAP7 POP DUP2 MLOAD DUP2 LT PUSH2 0x10AE JUMPI PUSH2 0x10AE PUSH2 0x1724 JUMP JUMPDEST PUSH1 0x1 PUSH1 0x1 PUSH1 0xF8 SHL SUB NOT SWAP1 SWAP3 AND PUSH1 0x20 SWAP3 DUP4 MUL SWAP2 SWAP1 SWAP2 ADD SWAP1 SWAP2 ADD MSTORE PUSH1 0x27 PUSH1 0xF9 SHL DUP6 DUP6 PUSH2 0x10D7 DUP2 PUSH2 0x1763 JUMP JUMPDEST SWAP7 POP DUP2 MLOAD DUP2 LT PUSH2 0x10E9 JUMPI PUSH2 0x10E9 PUSH2 0x1724 JUMP JUMPDEST PUSH1 0x1 PUSH1 0x1 PUSH1 0xF8 SHL SUB NOT SWAP1 SWAP3 AND PUSH1 0x20 SWAP3 DUP4 MUL SWAP2 SWAP1 SWAP2 ADD SWAP1 SWAP2 ADD MSTORE PUSH1 0x11 PUSH1 0xFA SHL DUP6 DUP6 PUSH2 0x1112 DUP2 PUSH2 0x1763 JUMP JUMPDEST SWAP7 POP DUP2 MLOAD DUP2 LT PUSH2 0x1124 JUMPI PUSH2 0x1124 PUSH2 0x1724 JUMP JUMPDEST PUSH1 0x1 PUSH1 0x1 PUSH1 0xF8 SHL SUB NOT SWAP1 SWAP3 AND PUSH1 0x20 SWAP3 DUP4 MUL SWAP2 SWAP1 SWAP2 ADD SWAP1 SWAP2 ADD MSTORE DUP4 PUSH2 0x114A DUP7 DUP3 DUP5 DUP2 PUSH2 0x12C2 JUMP JUMPDEST SWAP1 SWAP8 SWAP1 SWAP7 POP SWAP5 POP POP POP POP POP JUMP JUMPDEST PUSH1 0x0 DUP4 DUP2 JUMPDEST DUP4 DUP2 LT ISZERO PUSH2 0x11B8 JUMPI PUSH1 0x8 DUP3 SWAP1 SHR PUSH1 0x0 DUP7 DUP4 DUP2 MLOAD DUP2 LT PUSH2 0x117D JUMPI PUSH2 0x117D PUSH2 0x1724 JUMP JUMPDEST PUSH1 0x20 MUL PUSH1 0x20 ADD ADD MLOAD PUSH1 0xF8 SHR PUSH1 0xFF AND DUP5 XOR PUSH1 0xFF AND PUSH2 0x100 DUP2 LT PUSH2 0x11A1 JUMPI PUSH2 0x11A1 PUSH2 0x1724 JUMP JUMPDEST ADD SLOAD XOR SWAP2 POP DUP1 PUSH2 0x11B0 DUP2 PUSH2 0x1763 JUMP JUMPDEST SWAP2 POP POP PUSH2 0x115C JUMP JUMPDEST POP SWAP5 SWAP4 POP POP POP POP JUMP JUMPDEST PUSH1 0x60 PUSH1 0x0 PUSH1 0x1 PUSH1 0x1 PUSH1 0xF8 SHL SUB NOT PUSH1 0xE0 DUP5 SWAP1 SHL AND DUP6 DUP6 PUSH2 0x11DF DUP2 PUSH2 0x1763 JUMP JUMPDEST SWAP7 POP DUP2 MLOAD DUP2 LT PUSH2 0x11F1 JUMPI PUSH2 0x11F1 PUSH2 0x1724 JUMP JUMPDEST PUSH1 0x1 PUSH1 0x1 PUSH1 0xF8 SHL SUB NOT SWAP3 DUP4 AND PUSH1 0x20 SWAP2 DUP3 MUL SWAP3 SWAP1 SWAP3 ADD ADD MSTORE PUSH1 0xE8 DUP5 SWAP1 SHL AND DUP6 DUP6 PUSH2 0x1219 DUP2 PUSH2 0x1763 JUMP JUMPDEST SWAP7 POP DUP2 MLOAD DUP2 LT PUSH2 0x122B JUMPI PUSH2 0x122B PUSH2 0x1724 JUMP JUMPDEST PUSH1 0x1 PUSH1 0x1 PUSH1 0xF8 SHL SUB NOT SWAP3 DUP4 AND PUSH1 0x20 SWAP2 DUP3 MUL SWAP3 SWAP1 SWAP3 ADD ADD MSTORE PUSH1 0xF0 DUP5 SWAP1 SHL AND DUP6 DUP6 PUSH2 0x1253 DUP2 PUSH2 0x1763 JUMP JUMPDEST SWAP7 POP DUP2 MLOAD DUP2 LT PUSH2 0x1265 JUMPI PUSH2 0x1265 PUSH2 0x1724 JUMP JUMPDEST PUSH1 0x1 PUSH1 0x1 PUSH1 0xF8 SHL SUB NOT SWAP3 DUP4 AND PUSH1 0x20 SWAP2 DUP3 MUL SWAP3 SWAP1 SWAP3 ADD ADD MSTORE PUSH1 0xF8 DUP5 SWAP1 SHL AND DUP6 DUP6 PUSH2 0x128D DUP2 PUSH2 0x1763 JUMP JUMPDEST SWAP7 POP DUP2 MLOAD DUP2 LT PUSH2 0x129F JUMPI PUSH2 0x129F PUSH2 0x1724 JUMP JUMPDEST PUSH1 0x1 PUSH1 0x1 PUSH1 0xF8 SHL SUB NOT SWAP3 SWAP1 SWAP3 AND PUSH1 0x20 SWAP3 DUP4 MUL SWAP2 SWAP1 SWAP2 ADD SWAP1 SWAP2 ADD MSTORE POP SWAP3 SWAP4 SWAP2 SWAP3 POP POP JUMP JUMPDEST PUSH1 0x60 PUSH1 0x0 DUP1 PUSH2 0x12D1 DUP6 DUP6 PUSH2 0x180F JUMP JUMPDEST SWAP1 POP PUSH1 0x0 DUP1 DUP3 PUSH8 0xFFFFFFFFFFFFFFFF DUP2 GT ISZERO PUSH2 0x12EF JUMPI PUSH2 0x12EF PUSH2 0x14A4 JUMP JUMPDEST PUSH1 0x40 MLOAD SWAP1 DUP1 DUP3 MSTORE DUP1 PUSH1 0x20 MUL PUSH1 0x20 ADD DUP3 ADD PUSH1 0x40 MSTORE DUP1 ISZERO PUSH2 0x1318 JUMPI DUP2 PUSH1 0x20 ADD PUSH1 0x20 DUP3 MUL DUP1 CALLDATASIZE DUP4 CALLDATACOPY ADD SWAP1 POP JUMPDEST POP SWAP1 POP DUP7 JUMPDEST DUP7 DUP2 LT ISZERO PUSH2 0x1388 JUMPI DUP10 DUP2 DUP2 MLOAD DUP2 LT PUSH2 0x1337 JUMPI PUSH2 0x1337 PUSH2 0x1724 JUMP JUMPDEST PUSH1 0x20 MUL PUSH1 0x20 ADD ADD MLOAD DUP3 DUP5 DUP1 PUSH2 0x134B SWAP1 PUSH2 0x1763 JUMP JUMPDEST SWAP6 POP DUP2 MLOAD DUP2 LT PUSH2 0x135D JUMPI PUSH2 0x135D PUSH2 0x1724 JUMP JUMPDEST PUSH1 0x1 PUSH1 0x1 PUSH1 0xF8 SHL SUB NOT SWAP1 SWAP3 AND PUSH1 0x20 SWAP3 DUP4 MUL SWAP2 SWAP1 SWAP2 ADD SWAP1 SWAP2 ADD MSTORE DUP1 PUSH2 0x1380 DUP2 PUSH2 0x1763 JUMP JUMPDEST SWAP2 POP POP PUSH2 0x131D JUMP JUMPDEST POP PUSH1 0x0 PUSH2 0x1395 DUP3 DUP6 PUSH2 0x4FA JUMP JUMPDEST SWAP1 POP PUSH2 0x13A2 DUP11 DUP11 DUP4 PUSH2 0x11C1 JUMP JUMPDEST SWAP1 SWAP12 SWAP1 SWAP11 POP SWAP9 POP POP POP POP POP POP POP POP POP JUMP JUMPDEST PUSH1 0x60 PUSH1 0x0 DUP1 PUSH2 0x13C2 DUP6 DUP6 PUSH2 0x180F JUMP JUMPDEST SWAP1 POP PUSH1 0x0 DUP1 DUP3 PUSH8 0xFFFFFFFFFFFFFFFF DUP2 GT ISZERO PUSH2 0x13E0 JUMPI PUSH2 0x13E0 PUSH2 0x14A4 JUMP JUMPDEST PUSH1 0x40 MLOAD SWAP1 DUP1 DUP3 MSTORE DUP1 PUSH1 0x20 MUL PUSH1 0x20 ADD DUP3 ADD PUSH1 0x40 MSTORE DUP1 ISZERO PUSH2 0x1409 JUMPI DUP2 PUSH1 0x20 ADD PUSH1 0x20 DUP3 MUL DUP1 CALLDATASIZE DUP4 CALLDATACOPY ADD SWAP1 POP JUMPDEST POP SWAP1 POP DUP7 JUMPDEST DUP7 DUP2 LT ISZERO PUSH2 0x1479 JUMPI DUP10 DUP2 DUP2 MLOAD DUP2 LT PUSH2 0x1428 JUMPI PUSH2 0x1428 PUSH2 0x1724 JUMP JUMPDEST PUSH1 0x20 MUL PUSH1 0x20 ADD ADD MLOAD DUP3 DUP5 DUP1 PUSH2 0x143C SWAP1 PUSH2 0x1763 JUMP JUMPDEST SWAP6 POP DUP2 MLOAD DUP2 LT PUSH2 0x144E JUMPI PUSH2 0x144E PUSH2 0x1724 JUMP JUMPDEST PUSH1 0x1 PUSH1 0x1 PUSH1 0xF8 SHL SUB NOT SWAP1 SWAP3 AND PUSH1 0x20 SWAP3 DUP4 MUL SWAP2 SWAP1 SWAP2 ADD SWAP1 SWAP2 ADD MSTORE DUP1 PUSH2 0x1471 DUP2 PUSH2 0x1763 JUMP JUMPDEST SWAP2 POP POP PUSH2 0x140E JUMP JUMPDEST POP PUSH1 0x0 PUSH2 0x1395 DUP3 DUP6 PUSH2 0xB2 JUMP JUMPDEST PUSH1 0x60 PUSH1 0x0 PUSH1 0x1 PUSH1 0x1 PUSH1 0xF8 SHL SUB NOT PUSH1 0xF0 DUP5 SWAP1 SHL AND DUP6 DUP6 PUSH2 0x1253 DUP2 PUSH2 0x1763 JUMP JUMPDEST PUSH4 0x4E487B71 PUSH1 0xE0 SHL PUSH1 0x0 MSTORE PUSH1 0x41 PUSH1 0x4 MSTORE PUSH1 0x24 PUSH1 0x0 REVERT JUMPDEST PUSH1 0x40 MLOAD PUSH1 0x60 DUP2 ADD PUSH8 0xFFFFFFFFFFFFFFFF DUP2 GT DUP3 DUP3 LT OR ISZERO PUSH2 0x14DD JUMPI PUSH2 0x14DD PUSH2 0x14A4 JUMP JUMPDEST PUSH1 0x40 MSTORE SWAP1 JUMP JUMPDEST PUSH1 0x40 MLOAD PUSH1 0x1F DUP3 ADD PUSH1 0x1F NOT AND DUP2 ADD PUSH8 0xFFFFFFFFFFFFFFFF DUP2 GT DUP3 DUP3 LT OR ISZERO PUSH2 0x150C JUMPI PUSH2 0x150C PUSH2 0x14A4 JUMP JUMPDEST PUSH1 0x40 MSTORE SWAP2 SWAP1 POP JUMP JUMPDEST PUSH1 0x0 DUP3 PUSH1 0x1F DUP4 ADD SLT PUSH2 0x1525 JUMPI PUSH1 0x0 DUP1 REVERT JUMPDEST DUP2 CALLDATALOAD PUSH1 0x20 PUSH8 0xFFFFFFFFFFFFFFFF DUP3 GT ISZERO PUSH2 0x1541 JUMPI PUSH2 0x1541 PUSH2 0x14A4 JUMP JUMPDEST DUP2 PUSH1 0x5 SHL PUSH2 0x1550 DUP3 DUP3 ADD PUSH2 0x14E3 JUMP JUMPDEST SWAP3 DUP4 MSTORE DUP5 DUP2 ADD DUP3 ADD SWAP3 DUP3 DUP2 ADD SWAP1 DUP8 DUP6 GT ISZERO PUSH2 0x156A JUMPI PUSH1 0x0 DUP1 REVERT JUMPDEST DUP4 DUP8 ADD SWAP3 POP JUMPDEST DUP5 DUP4 LT ISZERO PUSH2 0x15A0 JUMPI DUP3 CALLDATALOAD PUSH1 0x1 PUSH1 0x1 PUSH1 0xF8 SHL SUB NOT DUP2 AND DUP2 EQ PUSH2 0x1591 JUMPI PUSH1 0x0 DUP1 DUP2 REVERT JUMPDEST DUP3 MSTORE SWAP2 DUP4 ADD SWAP2 SWAP1 DUP4 ADD SWAP1 PUSH2 0x1570 JUMP JUMPDEST SWAP8 SWAP7 POP POP POP POP POP POP POP JUMP JUMPDEST PUSH1 0x0 DUP1 PUSH1 0x40 DUP4 DUP6 SUB SLT ISZERO PUSH2 0x15BE JUMPI PUSH1 0x0 DUP1 REVERT JUMPDEST DUP3 CALLDATALOAD PUSH8 0xFFFFFFFFFFFFFFFF DUP2 GT ISZERO PUSH2 0x15D5 JUMPI PUSH1 0x0 DUP1 REVERT JUMPDEST PUSH2 0x15E1 DUP6 DUP3 DUP7 ADD PUSH2 0x1514 JUMP JUMPDEST SWAP6 PUSH1 0x20 SWAP5 SWAP1 SWAP5 ADD CALLDATALOAD SWAP5 POP POP POP POP JUMP JUMPDEST PUSH1 0x0 JUMPDEST DUP4 DUP2 LT ISZERO PUSH2 0x160B JUMPI DUP2 DUP2 ADD MLOAD DUP4 DUP3 ADD MSTORE PUSH1 0x20 ADD PUSH2 0x15F3 JUMP JUMPDEST POP POP PUSH1 0x0 SWAP2 ADD MSTORE JUMP JUMPDEST PUSH1 0x0 DUP2 MLOAD DUP1 DUP5 MSTORE PUSH2 0x162C DUP2 PUSH1 0x20 DUP7 ADD PUSH1 0x20 DUP7 ADD PUSH2 0x15F0 JUMP JUMPDEST PUSH1 0x1F ADD PUSH1 0x1F NOT AND SWAP3 SWAP1 SWAP3 ADD PUSH1 0x20 ADD SWAP3 SWAP2 POP POP JUMP JUMPDEST PUSH1 0x20 DUP2 MSTORE PUSH1 0x0 PUSH2 0x1653 PUSH1 0x20 DUP4 ADD DUP5 PUSH2 0x1614 JUMP JUMPDEST SWAP4 SWAP3 POP POP POP JUMP JUMPDEST PUSH1 0x0 DUP1 PUSH1 0x0 PUSH1 0x60 DUP5 DUP7 SUB SLT ISZERO PUSH2 0x166F JUMPI PUSH1 0x0 DUP1 REVERT JUMPDEST DUP4 CALLDATALOAD SWAP3 POP PUSH1 0x20 DUP5 ADD CALLDATALOAD SWAP2 POP PUSH1 0x40 DUP5 ADD CALLDATALOAD PUSH8 0xFFFFFFFFFFFFFFFF DUP1 DUP3 GT ISZERO PUSH2 0x1695 JUMPI PUSH1 0x0 DUP1 REVERT JUMPDEST SWAP1 DUP6 ADD SWAP1 PUSH1 0x60 DUP3 DUP9 SUB SLT ISZERO PUSH2 0x16A9 JUMPI PUSH1 0x0 DUP1 REVERT JUMPDEST PUSH2 0x16B1 PUSH2 0x14BA JUMP JUMPDEST DUP3 CALLDATALOAD DUP3 DUP2 GT ISZERO PUSH2 0x16C0 JUMPI PUSH1 0x0 DUP1 REVERT JUMPDEST PUSH2 0x16CC DUP10 DUP3 DUP7 ADD PUSH2 0x1514 JUMP JUMPDEST DUP3 MSTORE POP PUSH1 0x20 DUP4 ADD CALLDATALOAD DUP3 DUP2 GT ISZERO PUSH2 0x16E1 JUMPI PUSH1 0x0 DUP1 REVERT JUMPDEST PUSH2 0x16ED DUP10 DUP3 DUP7 ADD PUSH2 0x1514 JUMP JUMPDEST PUSH1 0x20 DUP4 ADD MSTORE POP PUSH1 0x40 DUP4 ADD CALLDATALOAD DUP3 DUP2 GT ISZERO PUSH2 0x1705 JUMPI PUSH1 0x0 DUP1 REVERT JUMPDEST PUSH2 0x1711 DUP10 DUP3 DUP7 ADD PUSH2 0x1514 JUMP JUMPDEST PUSH1 0x40 DUP4 ADD MSTORE POP DUP1 SWAP4 POP POP POP POP SWAP3 POP SWAP3 POP SWAP3 JUMP JUMPDEST PUSH4 0x4E487B71 PUSH1 0xE0 SHL PUSH1 0x0 MSTORE PUSH1 0x32 PUSH1 0x4 MSTORE PUSH1 0x24 PUSH1 0x0 REVERT JUMPDEST PUSH4 0x4E487B71 PUSH1 0xE0 SHL PUSH1 0x0 MSTORE PUSH1 0x11 PUSH1 0x4 MSTORE PUSH1 0x24 PUSH1 0x0 REVERT JUMPDEST DUP1 DUP3 ADD DUP1 DUP3 GT ISZERO PUSH2 0x12A JUMPI PUSH2 0x12A PUSH2 0x173A JUMP JUMPDEST PUSH1 0x0 PUSH1 0x1 DUP3 ADD PUSH2 0x1775 JUMPI PUSH2 0x1775 PUSH2 0x173A JUMP JUMPDEST POP PUSH1 0x1 ADD SWAP1 JUMP JUMPDEST DUP1 DUP3 MUL DUP2 ISZERO DUP3 DUP3 DIV DUP5 EQ OR PUSH2 0x12A JUMPI PUSH2 0x12A PUSH2 0x173A JUMP JUMPDEST PUSH1 0x0 DUP3 MLOAD PUSH2 0x17A5 DUP2 DUP5 PUSH1 0x20 DUP8 ADD PUSH2 0x15F0 JUMP JUMPDEST SWAP2 SWAP1 SWAP2 ADD SWAP3 SWAP2 POP POP JUMP JUMPDEST PUSH22 0x19185D184E9A5B5859D94BDC1B99CED8985CD94D8D0B PUSH1 0x52 SHL DUP2 MSTORE PUSH1 0x0 DUP3 MLOAD PUSH2 0x17E0 DUP2 PUSH1 0x16 DUP6 ADD PUSH1 0x20 DUP8 ADD PUSH2 0x15F0 JUMP JUMPDEST SWAP2 SWAP1 SWAP2 ADD PUSH1 0x16 ADD SWAP3 SWAP2 POP POP JUMP JUMPDEST PUSH1 0x0 DUP3 PUSH2 0x180A JUMPI PUSH4 0x4E487B71 PUSH1 0xE0 SHL PUSH1 0x0 MSTORE PUSH1 0x12 PUSH1 0x4 MSTORE PUSH1 0x24 PUSH1 0x0 REVERT JUMPDEST POP DIV SWAP1 JUMP JUMPDEST DUP2 DUP2 SUB DUP2 DUP2 GT ISZERO PUSH2 0x12A JUMPI PUSH2 0x12A PUSH2 0x173A JUMP INVALID COINBASE TIMESTAMP NUMBER PREVRANDAO GASLIMIT CHAINID SELFBALANCE BASEFEE 0x49 0x4A 0x4B 0x4C 0x4D 0x4E 0x4F POP MLOAD MSTORE MSTORE8 SLOAD SSTORE JUMP JUMPI PC MSIZE GAS PUSH2 0x6263 PUSH5 0x6566676869 PUSH11 0x6B6C6D6E6F707172737475 PUSH23 0x7778797A303132333435363738392B2FA2646970667358 0x22 SLT KECCAK256 0xE4 SMOD PUSH25 0xA29A0C47F87C119DD855AAC78077EDBD9C46C5A046B18AE28E 0x29 0xE1 0xE4 OR PUSH5 0x736F6C6343 STOP ADDMOD SLT STOP CALLER "
				},
				"gasEstimates": {
					"creation": {
						"codeDepositCost": "1259200",
						"executionCost": "infinite",
						"totalCost": "infinite"
					},
					"external": {
						"adler32(bytes1[],uint256)": "infinite",
						"crc(bytes1[],uint256)": "infinite",
						"createPNG(uint256,uint256,(bytes1[],bytes1[],bytes1[]))": "infinite",
						"createPNGString()": "infinite"
					},
					"internal": {
						"add2ByteValue(bytes1[] memory,uint256,uint256)": "infinite",
						"add4ByteValue(bytes1[] memory,uint256,uint256)": "infinite",
						"addADLER32(bytes1[] memory,uint256,uint256,uint256)": "infinite",
						"addCRC(bytes1[] memory,uint256,uint256,uint256)": "infinite",
						"addIDATChunck(bytes1[] memory,uint256,uint256,uint256,struct PixelPictasiaUtils.PNGData memory)": "infinite",
						"addIENDChunck(bytes1[] memory,uint256)": "infinite",
						"addIHDRChunck(bytes1[] memory,uint256,uint256,uint256)": "infinite",
						"addPNGSignature(bytes1[] memory,uint256)": "infinite",
						"createCRCTable()": "infinite",
						"update_crc(uint256,bytes1[] memory,uint256)": "infinite"
					}
				},
				"methodIdentifiers": {
					"adler32(bytes1[],uint256)": "19858b36",
					"crc(bytes1[],uint256)": "fe2a3649",
					"createPNG(uint256,uint256,(bytes1[],bytes1[],bytes1[]))": "f6d57f9e",
					"createPNGString()": "48b508b7"
				}
			},
			"storageLayout": {
				"storage": [
					{
						"astId": 460,
						"contract": "contracts/pixel_pictasia_utils.sol:PixelPictasiaUtils",
						"label": "CRC_TABLE",
						"offset": 0,
						"slot": "0",
						"type": "t_array(t_uint256)256_storage"
					}
				],
				"types": {
					"t_array(t_uint256)256_storage": {
						"base": "t_uint256",
						"encoding": "inplace",
						"label": "uint256[256]",
						"numberOfBytes": "8192"
					},
					"t_uint256": {
						"encoding": "inplace",
						"label": "uint256",
						"numberOfBytes": "32"
					}
				}
			},
			"userdoc": {
				"kind": "user",
				"methods": {},
				"version": 1
			}
		}
	}
}