{
	"contracts/pixel_pictasia_utils.sol": {
		"PixelPictasiaUtils": {
			"abi": [
				{
					"inputs": [],
					"stateMutability": "payable",
					"type": "constructor"
				},
				{
					"inputs": [
						{
							"internalType": "uint256",
							"name": "_width",
							"type": "uint256"
						},
						{
							"internalType": "uint256",
							"name": "_height",
							"type": "uint256"
						},
						{
							"components": [
								{
									"internalType": "bytes1[]",
									"name": "red",
									"type": "bytes1[]"
								},
								{
									"internalType": "bytes1[]",
									"name": "green",
									"type": "bytes1[]"
								},
								{
									"internalType": "bytes1[]",
									"name": "blue",
									"type": "bytes1[]"
								}
							],
							"internalType": "struct PNGData",
							"name": "pngData",
							"type": "tuple"
						}
					],
					"name": "createPNG",
					"outputs": [
						{
							"internalType": "bytes",
							"name": "",
							"type": "bytes"
						}
					],
					"stateMutability": "view",
					"type": "function"
				}
			],
			"devdoc": {
				"kind": "dev",
				"methods": {},
				"version": 1
			},
			"evm": {
				"assembly": "    /* \"contracts/pixel_pictasia_utils.sol\":721:10200  contract PixelPictasiaUtils {... */\n  mstore(0x40, 0x80)\n    /* \"contracts/pixel_pictasia_utils.sol\":828:844  createCRCTable() */\n  tag_3\n    /* \"contracts/pixel_pictasia_utils.sol\":828:842  createCRCTable */\n  tag_4\n    /* \"contracts/pixel_pictasia_utils.sol\":828:844  createCRCTable() */\n  jump\t// in\ntag_3:\n    /* \"contracts/pixel_pictasia_utils.sol\":721:10200  contract PixelPictasiaUtils {... */\n  jump(tag_22)\n    /* \"contracts/pixel_pictasia_utils.sol\":9502:9898  function createCRCTable() private {... */\ntag_4:\n    /* \"contracts/pixel_pictasia_utils.sol\":9551:9560  uint256 n */\n  0x00\n    /* \"contracts/pixel_pictasia_utils.sol\":9547:9891  for(uint256 n = 0; n < 256; n++) {... */\ntag_7:\n    /* \"contracts/pixel_pictasia_utils.sol\":9570:9573  256 */\n  0x0100\n    /* \"contracts/pixel_pictasia_utils.sol\":9566:9567  n */\n  dup2\n    /* \"contracts/pixel_pictasia_utils.sol\":9566:9573  n < 256 */\n  lt\n    /* \"contracts/pixel_pictasia_utils.sol\":9547:9891  for(uint256 n = 0; n < 256; n++) {... */\n  iszero\n  tag_8\n  jumpi\n    /* \"contracts/pixel_pictasia_utils.sol\":9607:9608  n */\n  dup1\n    /* \"contracts/pixel_pictasia_utils.sol\":9595:9604  uint256 c */\n  0x00\n    /* \"contracts/pixel_pictasia_utils.sol\":9625:9849  for(uint256 k = 0; k < 8; k++) {... */\ntag_10:\n    /* \"contracts/pixel_pictasia_utils.sol\":9648:9649  8 */\n  0x08\n    /* \"contracts/pixel_pictasia_utils.sol\":9644:9645  k */\n  dup2\n    /* \"contracts/pixel_pictasia_utils.sol\":9644:9649  k < 8 */\n  lt\n    /* \"contracts/pixel_pictasia_utils.sol\":9625:9849  for(uint256 k = 0; k < 8; k++) {... */\n  iszero\n  tag_11\n  jumpi\n    /* \"contracts/pixel_pictasia_utils.sol\":9678:9679  c */\n  dup2\n    /* \"contracts/pixel_pictasia_utils.sol\":9682:9683  1 */\n  0x01\n    /* \"contracts/pixel_pictasia_utils.sol\":9678:9683  c & 1 */\n  and\n    /* \"contracts/pixel_pictasia_utils.sol\":9687:9688  1 */\n  0x01\n    /* \"contracts/pixel_pictasia_utils.sol\":9678:9688  c & 1 == 1 */\n  sub\n    /* \"contracts/pixel_pictasia_utils.sol\":9675:9834  if(c & 1 == 1) {... */\n  tag_13\n  jumpi\n    /* \"contracts/pixel_pictasia_utils.sol\":9736:9737  1 */\n  0x01\n    /* \"contracts/pixel_pictasia_utils.sol\":9731:9732  c */\n  dup3\n    /* \"contracts/pixel_pictasia_utils.sol\":9731:9737  c >> 1 */\n  swap1\n  shr\n    /* \"contracts/pixel_pictasia_utils.sol\":9717:9727  3988292384 */\n  0xedb88320\n    /* \"contracts/pixel_pictasia_utils.sol\":9717:9738  3988292384 ^ (c >> 1) */\n  xor\n    /* \"contracts/pixel_pictasia_utils.sol\":9713:9738  c = 3988292384 ^ (c >> 1) */\n  swap2\n  pop\n    /* \"contracts/pixel_pictasia_utils.sol\":9675:9834  if(c & 1 == 1) {... */\n  jump(tag_14)\ntag_13:\n    /* \"contracts/pixel_pictasia_utils.sol\":9813:9814  1 */\n  0x01\n    /* \"contracts/pixel_pictasia_utils.sol\":9808:9809  c */\n  dup3\n    /* \"contracts/pixel_pictasia_utils.sol\":9808:9814  c >> 1 */\n  swap1\n  shr\n    /* \"contracts/pixel_pictasia_utils.sol\":9804:9814  c = c >> 1 */\n  swap2\n  pop\n    /* \"contracts/pixel_pictasia_utils.sol\":9675:9834  if(c & 1 == 1) {... */\ntag_14:\n    /* \"contracts/pixel_pictasia_utils.sol\":9651:9654  k++ */\n  dup1\n  tag_15\n  dup2\n  tag_16\n  jump\t// in\ntag_15:\n  swap2\n  pop\n  pop\n    /* \"contracts/pixel_pictasia_utils.sol\":9625:9849  for(uint256 k = 0; k < 8; k++) {... */\n  jump(tag_10)\ntag_11:\n  pop\n    /* \"contracts/pixel_pictasia_utils.sol\":9878:9879  c */\n  dup1\n    /* \"contracts/pixel_pictasia_utils.sol\":9863:9872  CRC_TABLE */\n  0x00\n    /* \"contracts/pixel_pictasia_utils.sol\":9873:9874  n */\n  dup4\n    /* \"contracts/pixel_pictasia_utils.sol\":9863:9875  CRC_TABLE[n] */\n  0x0100\n  dup2\n  lt\n  tag_18\n  jumpi\n  tag_18\n  tag_19\n  jump\t// in\ntag_18:\n  add\n    /* \"contracts/pixel_pictasia_utils.sol\":9863:9879  CRC_TABLE[n] = c */\n  sstore\n  pop\n    /* \"contracts/pixel_pictasia_utils.sol\":9575:9578  n++ */\n  dup1\n  tag_21\n  dup2\n  tag_16\n  jump\t// in\ntag_21:\n  swap2\n  pop\n  pop\n    /* \"contracts/pixel_pictasia_utils.sol\":9547:9891  for(uint256 n = 0; n < 256; n++) {... */\n  jump(tag_7)\ntag_8:\n  pop\n    /* \"contracts/pixel_pictasia_utils.sol\":9502:9898  function createCRCTable() private {... */\n  jump\t// out\n    /* \"#utility.yul\":14:246   */\ntag_16:\n    /* \"#utility.yul\":53:56   */\n  0x00\n    /* \"#utility.yul\":74:91   */\n  0x01\n  dup3\n  add\n    /* \"#utility.yul\":71:211   */\n  tag_24\n  jumpi\n    /* \"#utility.yul\":133:143   */\n  0x4e487b71\n    /* \"#utility.yul\":128:131   */\n  0xe0\n    /* \"#utility.yul\":124:144   */\n  shl\n    /* \"#utility.yul\":121:122   */\n  0x00\n    /* \"#utility.yul\":114:145   */\n  mstore\n    /* \"#utility.yul\":168:172   */\n  0x11\n    /* \"#utility.yul\":165:166   */\n  0x04\n    /* \"#utility.yul\":158:173   */\n  mstore\n    /* \"#utility.yul\":196:200   */\n  0x24\n    /* \"#utility.yul\":193:194   */\n  0x00\n    /* \"#utility.yul\":186:201   */\n  revert\n    /* \"#utility.yul\":71:211   */\ntag_24:\n  pop\n    /* \"#utility.yul\":238:239   */\n  0x01\n    /* \"#utility.yul\":227:240   */\n  add\n  swap1\n    /* \"#utility.yul\":14:246   */\n  jump\t// out\n    /* \"#utility.yul\":251:378   */\ntag_19:\n    /* \"#utility.yul\":312:322   */\n  0x4e487b71\n    /* \"#utility.yul\":307:310   */\n  0xe0\n    /* \"#utility.yul\":303:323   */\n  shl\n    /* \"#utility.yul\":300:301   */\n  0x00\n    /* \"#utility.yul\":293:324   */\n  mstore\n    /* \"#utility.yul\":343:347   */\n  0x32\n    /* \"#utility.yul\":340:341   */\n  0x04\n    /* \"#utility.yul\":333:348   */\n  mstore\n    /* \"#utility.yul\":367:371   */\n  0x24\n    /* \"#utility.yul\":364:365   */\n  0x00\n    /* \"#utility.yul\":357:372   */\n  revert\n    /* \"#utility.yul\":251:378   */\ntag_22:\n    /* \"contracts/pixel_pictasia_utils.sol\":721:10200  contract PixelPictasiaUtils {... */\n  dataSize(sub_0)\n  dup1\n  dataOffset(sub_0)\n  0x00\n  codecopy\n  0x00\n  return\nstop\n\nsub_0: assembly {\n        /* \"contracts/pixel_pictasia_utils.sol\":721:10200  contract PixelPictasiaUtils {... */\n      mstore(0x40, 0x80)\n      callvalue\n      dup1\n      iszero\n      tag_1\n      jumpi\n      0x00\n      dup1\n      revert\n    tag_1:\n      pop\n      jumpi(tag_2, lt(calldatasize, 0x04))\n      shr(0xe0, calldataload(0x00))\n      dup1\n      0xf6d57f9e\n      eq\n      tag_3\n      jumpi\n    tag_2:\n      0x00\n      dup1\n      revert\n        /* \"contracts/pixel_pictasia_utils.sol\":901:1594  function createPNG(uint256 _width, uint256 _height, PNGData memory pngData) public view returns (bytes memory) {... */\n    tag_3:\n      tag_4\n      tag_5\n      calldatasize\n      0x04\n      tag_6\n      jump\t// in\n    tag_5:\n      tag_7\n      jump\t// in\n    tag_4:\n      mload(0x40)\n      tag_8\n      swap2\n      swap1\n      tag_9\n      jump\t// in\n    tag_8:\n      mload(0x40)\n      dup1\n      swap2\n      sub\n      swap1\n      return\n    tag_7:\n        /* \"contracts/pixel_pictasia_utils.sol\":998:1010  bytes memory */\n      0x60\n        /* \"contracts/pixel_pictasia_utils.sol\":1023:1032  uint256 i */\n      0x00\n      dup1\n        /* \"contracts/pixel_pictasia_utils.sol\":1116:1123  _height */\n      dup5\n        /* \"contracts/pixel_pictasia_utils.sol\":1103:1113  3 * _width */\n      tag_11\n        /* \"contracts/pixel_pictasia_utils.sol\":1107:1113  _width */\n      dup8\n        /* \"contracts/pixel_pictasia_utils.sol\":1103:1104  3 */\n      0x03\n        /* \"contracts/pixel_pictasia_utils.sol\":1103:1113  3 * _width */\n      tag_12\n      jump\t// in\n    tag_11:\n        /* \"contracts/pixel_pictasia_utils.sol\":1103:1123  3 * _width * _height */\n      tag_13\n      swap2\n      swap1\n      tag_12\n      jump\t// in\n    tag_13:\n        /* \"contracts/pixel_pictasia_utils.sol\":1088:1100  80 + _height */\n      tag_14\n        /* \"contracts/pixel_pictasia_utils.sol\":1093:1100  _height */\n      dup7\n        /* \"contracts/pixel_pictasia_utils.sol\":1088:1090  80 */\n      0x50\n        /* \"contracts/pixel_pictasia_utils.sol\":1088:1100  80 + _height */\n      tag_15\n      jump\t// in\n    tag_14:\n        /* \"contracts/pixel_pictasia_utils.sol\":1088:1123  80 + _height + 3 * _width * _height */\n      tag_16\n      swap2\n      swap1\n      tag_15\n      jump\t// in\n    tag_16:\n        /* \"contracts/pixel_pictasia_utils.sol\":1075:1124  new bytes1[](80 + _height + 3 * _width * _height) */\n      0xffffffffffffffff\n      dup2\n      gt\n      iszero\n      tag_18\n      jumpi\n      tag_18\n      tag_19\n      jump\t// in\n    tag_18:\n      mload(0x40)\n      swap1\n      dup1\n      dup3\n      mstore\n      dup1\n      0x20\n      mul\n      0x20\n      add\n      dup3\n      add\n      0x40\n      mstore\n      dup1\n      iszero\n      tag_20\n      jumpi\n      dup2\n      0x20\n      add\n      0x20\n      dup3\n      mul\n      dup1\n      calldatasize\n      dup4\n      calldatacopy\n      add\n      swap1\n      pop\n    tag_20:\n      pop\n        /* \"contracts/pixel_pictasia_utils.sol\":1047:1124  bytes1[] memory imageData = new bytes1[](80 + _height + 3 * _width * _height) */\n      swap1\n      pop\n        /* \"contracts/pixel_pictasia_utils.sol\":1154:1183  addPNGSignature(imageData, i) */\n      tag_21\n        /* \"contracts/pixel_pictasia_utils.sol\":1170:1179  imageData */\n      dup2\n        /* \"contracts/pixel_pictasia_utils.sol\":1181:1182  i */\n      dup4\n        /* \"contracts/pixel_pictasia_utils.sol\":1154:1169  addPNGSignature */\n      tag_22\n        /* \"contracts/pixel_pictasia_utils.sol\":1154:1183  addPNGSignature(imageData, i) */\n      jump\t// in\n    tag_21:\n        /* \"contracts/pixel_pictasia_utils.sol\":1137:1183  (imageData, i) = addPNGSignature(imageData, i) */\n      swap3\n      pop\n      swap1\n      pop\n        /* \"contracts/pixel_pictasia_utils.sol\":1211:1255  addIHDRChunck(imageData, i, _width, _height) */\n      tag_23\n        /* \"contracts/pixel_pictasia_utils.sol\":1137:1183  (imageData, i) = addPNGSignature(imageData, i) */\n      dup2\n      dup4\n        /* \"contracts/pixel_pictasia_utils.sol\":1239:1245  _width */\n      dup9\n        /* \"contracts/pixel_pictasia_utils.sol\":1247:1254  _height */\n      dup9\n        /* \"contracts/pixel_pictasia_utils.sol\":1211:1224  addIHDRChunck */\n      tag_24\n        /* \"contracts/pixel_pictasia_utils.sol\":1211:1255  addIHDRChunck(imageData, i, _width, _height) */\n      jump\t// in\n    tag_23:\n        /* \"contracts/pixel_pictasia_utils.sol\":1194:1255  (imageData, i) = addIHDRChunck(imageData, i, _width, _height) */\n      swap3\n      pop\n      swap1\n      pop\n        /* \"contracts/pixel_pictasia_utils.sol\":1283:1336  addIDATChunck(imageData, i, _width, _height, pngData) */\n      tag_25\n        /* \"contracts/pixel_pictasia_utils.sol\":1194:1255  (imageData, i) = addIHDRChunck(imageData, i, _width, _height) */\n      dup2\n      dup4\n        /* \"contracts/pixel_pictasia_utils.sol\":1311:1317  _width */\n      dup9\n        /* \"contracts/pixel_pictasia_utils.sol\":1319:1326  _height */\n      dup9\n        /* \"contracts/pixel_pictasia_utils.sol\":1328:1335  pngData */\n      dup9\n        /* \"contracts/pixel_pictasia_utils.sol\":1283:1296  addIDATChunck */\n      tag_26\n        /* \"contracts/pixel_pictasia_utils.sol\":1283:1336  addIDATChunck(imageData, i, _width, _height, pngData) */\n      jump\t// in\n    tag_25:\n        /* \"contracts/pixel_pictasia_utils.sol\":1266:1336  (imageData, i) = addIDATChunck(imageData, i, _width, _height, pngData) */\n      swap3\n      pop\n      swap1\n      pop\n        /* \"contracts/pixel_pictasia_utils.sol\":1364:1391  addIENDChunck(imageData, i) */\n      tag_27\n        /* \"contracts/pixel_pictasia_utils.sol\":1266:1336  (imageData, i) = addIDATChunck(imageData, i, _width, _height, pngData) */\n      dup2\n      dup4\n        /* \"contracts/pixel_pictasia_utils.sol\":1364:1377  addIENDChunck */\n      tag_28\n        /* \"contracts/pixel_pictasia_utils.sol\":1364:1391  addIENDChunck(imageData, i) */\n      jump\t// in\n    tag_27:\n        /* \"contracts/pixel_pictasia_utils.sol\":1347:1391  (imageData, i) = addIENDChunck(imageData, i) */\n      swap3\n      pop\n      swap1\n      pop\n        /* \"contracts/pixel_pictasia_utils.sol\":1404:1433  bytes memory trimmedImageData */\n      0x00\n        /* \"contracts/pixel_pictasia_utils.sol\":1347:1391  (imageData, i) = addIENDChunck(imageData, i) */\n      dup3\n        /* \"contracts/pixel_pictasia_utils.sol\":1436:1448  new bytes(i) */\n      0xffffffffffffffff\n      dup2\n      gt\n      iszero\n      tag_30\n      jumpi\n      tag_30\n      tag_19\n      jump\t// in\n    tag_30:\n      mload(0x40)\n      swap1\n      dup1\n      dup3\n      mstore\n      dup1\n      0x1f\n      add\n      not(0x1f)\n      and\n      0x20\n      add\n      dup3\n      add\n      0x40\n      mstore\n      dup1\n      iszero\n      tag_31\n      jumpi\n      0x20\n      dup3\n      add\n      dup2\n      dup1\n      calldatasize\n      dup4\n      calldatacopy\n      add\n      swap1\n      pop\n    tag_31:\n      pop\n        /* \"contracts/pixel_pictasia_utils.sol\":1404:1448  bytes memory trimmedImageData = new bytes(i) */\n      swap1\n      pop\n        /* \"contracts/pixel_pictasia_utils.sol\":1463:1472  uint256 x */\n      0x00\n        /* \"contracts/pixel_pictasia_utils.sol\":1459:1551  for(uint256 x = 0; x < i; x++) {... */\n    tag_32:\n        /* \"contracts/pixel_pictasia_utils.sol\":1482:1483  i */\n      dup4\n        /* \"contracts/pixel_pictasia_utils.sol\":1478:1479  x */\n      dup2\n        /* \"contracts/pixel_pictasia_utils.sol\":1478:1483  x < i */\n      lt\n        /* \"contracts/pixel_pictasia_utils.sol\":1459:1551  for(uint256 x = 0; x < i; x++) {... */\n      iszero\n      tag_33\n      jumpi\n        /* \"contracts/pixel_pictasia_utils.sol\":1527:1536  imageData */\n      dup3\n        /* \"contracts/pixel_pictasia_utils.sol\":1537:1538  x */\n      dup2\n        /* \"contracts/pixel_pictasia_utils.sol\":1527:1539  imageData[x] */\n      dup2\n      mload\n      dup2\n      lt\n      tag_36\n      jumpi\n      tag_36\n      tag_37\n      jump\t// in\n    tag_36:\n      0x20\n      mul\n      0x20\n      add\n      add\n      mload\n        /* \"contracts/pixel_pictasia_utils.sol\":1505:1521  trimmedImageData */\n      dup3\n        /* \"contracts/pixel_pictasia_utils.sol\":1522:1523  x */\n      dup3\n        /* \"contracts/pixel_pictasia_utils.sol\":1505:1524  trimmedImageData[x] */\n      dup2\n      mload\n      dup2\n      lt\n      tag_39\n      jumpi\n      tag_39\n      tag_37\n      jump\t// in\n    tag_39:\n      0x20\n      add\n      add\n        /* \"contracts/pixel_pictasia_utils.sol\":1505:1539  trimmedImageData[x] = imageData[x] */\n      swap1\n      not(sub(shl(0xf8, 0x01), 0x01))\n      and\n      swap1\n      dup2\n      0x00\n      byte\n      swap1\n      mstore8\n      pop\n        /* \"contracts/pixel_pictasia_utils.sol\":1485:1488  x++ */\n      dup1\n      tag_40\n      dup2\n      tag_41\n      jump\t// in\n    tag_40:\n      swap2\n      pop\n      pop\n        /* \"contracts/pixel_pictasia_utils.sol\":1459:1551  for(uint256 x = 0; x < i; x++) {... */\n      jump(tag_32)\n    tag_33:\n      pop\n        /* \"contracts/pixel_pictasia_utils.sol\":1570:1586  trimmedImageData */\n      swap7\n        /* \"contracts/pixel_pictasia_utils.sol\":901:1594  function createPNG(uint256 _width, uint256 _height, PNGData memory pngData) public view returns (bytes memory) {... */\n      swap6\n      pop\n      pop\n      pop\n      pop\n      pop\n      pop\n      jump\t// out\n        /* \"contracts/pixel_pictasia_utils.sol\":1602:2055  function addPNGSignature(bytes1[] memory _imageData, uint256 _i) private pure returns (bytes1[] memory, uint256) {... */\n    tag_22:\n        /* \"contracts/pixel_pictasia_utils.sol\":1689:1704  bytes1[] memory */\n      0x60\n        /* \"contracts/pixel_pictasia_utils.sol\":1706:1713  uint256 */\n      0x00\n      shl(0xf8, 0x89)\n        /* \"contracts/pixel_pictasia_utils.sol\":1726:1736  _imageData */\n      dup5\n        /* \"contracts/pixel_pictasia_utils.sol\":1737:1741  _i++ */\n      dup5\n      tag_43\n      dup2\n      tag_41\n      jump\t// in\n    tag_43:\n      swap6\n      pop\n        /* \"contracts/pixel_pictasia_utils.sol\":1726:1742  _imageData[_i++] */\n      dup2\n      mload\n      dup2\n      lt\n      tag_45\n      jumpi\n      tag_45\n      tag_37\n      jump\t// in\n    tag_45:\n      not(sub(shl(0xf8, 0x01), 0x01))\n        /* \"contracts/pixel_pictasia_utils.sol\":1726:1752  _imageData[_i++] = hex\"89\" */\n      swap1\n      swap3\n      and\n        /* \"contracts/pixel_pictasia_utils.sol\":1726:1742  _imageData[_i++] */\n      0x20\n      swap3\n      dup4\n      mul\n      swap2\n      swap1\n      swap2\n      add\n      swap1\n      swap2\n      add\n        /* \"contracts/pixel_pictasia_utils.sol\":1726:1752  _imageData[_i++] = hex\"89\" */\n      mstore\n      shl(0xfc, 0x05)\n        /* \"contracts/pixel_pictasia_utils.sol\":1763:1773  _imageData */\n      dup5\n        /* \"contracts/pixel_pictasia_utils.sol\":1774:1778  _i++ */\n      dup5\n      tag_46\n      dup2\n      tag_41\n      jump\t// in\n    tag_46:\n      swap6\n      pop\n        /* \"contracts/pixel_pictasia_utils.sol\":1763:1779  _imageData[_i++] */\n      dup2\n      mload\n      dup2\n      lt\n      tag_48\n      jumpi\n      tag_48\n      tag_37\n      jump\t// in\n    tag_48:\n      not(sub(shl(0xf8, 0x01), 0x01))\n        /* \"contracts/pixel_pictasia_utils.sol\":1763:1789  _imageData[_i++] = hex\"50\" */\n      swap1\n      swap3\n      and\n        /* \"contracts/pixel_pictasia_utils.sol\":1763:1779  _imageData[_i++] */\n      0x20\n      swap3\n      dup4\n      mul\n      swap2\n      swap1\n      swap2\n      add\n      swap1\n      swap2\n      add\n        /* \"contracts/pixel_pictasia_utils.sol\":1763:1789  _imageData[_i++] = hex\"50\" */\n      mstore\n      shl(0xf9, 0x27)\n        /* \"contracts/pixel_pictasia_utils.sol\":1800:1810  _imageData */\n      dup5\n        /* \"contracts/pixel_pictasia_utils.sol\":1811:1815  _i++ */\n      dup5\n      tag_49\n      dup2\n      tag_41\n      jump\t// in\n    tag_49:\n      swap6\n      pop\n        /* \"contracts/pixel_pictasia_utils.sol\":1800:1816  _imageData[_i++] */\n      dup2\n      mload\n      dup2\n      lt\n      tag_51\n      jumpi\n      tag_51\n      tag_37\n      jump\t// in\n    tag_51:\n      not(sub(shl(0xf8, 0x01), 0x01))\n        /* \"contracts/pixel_pictasia_utils.sol\":1800:1826  _imageData[_i++] = hex\"4E\" */\n      swap1\n      swap3\n      and\n        /* \"contracts/pixel_pictasia_utils.sol\":1800:1816  _imageData[_i++] */\n      0x20\n      swap3\n      dup4\n      mul\n      swap2\n      swap1\n      swap2\n      add\n      swap1\n      swap2\n      add\n        /* \"contracts/pixel_pictasia_utils.sol\":1800:1826  _imageData[_i++] = hex\"4E\" */\n      mstore\n      shl(0xf8, 0x47)\n        /* \"contracts/pixel_pictasia_utils.sol\":1837:1847  _imageData */\n      dup5\n        /* \"contracts/pixel_pictasia_utils.sol\":1848:1852  _i++ */\n      dup5\n      tag_52\n      dup2\n      tag_41\n      jump\t// in\n    tag_52:\n      swap6\n      pop\n        /* \"contracts/pixel_pictasia_utils.sol\":1837:1853  _imageData[_i++] */\n      dup2\n      mload\n      dup2\n      lt\n      tag_54\n      jumpi\n      tag_54\n      tag_37\n      jump\t// in\n    tag_54:\n      not(sub(shl(0xf8, 0x01), 0x01))\n        /* \"contracts/pixel_pictasia_utils.sol\":1837:1863  _imageData[_i++] = hex\"47\" */\n      swap1\n      swap3\n      and\n        /* \"contracts/pixel_pictasia_utils.sol\":1837:1853  _imageData[_i++] */\n      0x20\n      swap3\n      dup4\n      mul\n      swap2\n      swap1\n      swap2\n      add\n      swap1\n      swap2\n      add\n        /* \"contracts/pixel_pictasia_utils.sol\":1837:1863  _imageData[_i++] = hex\"47\" */\n      mstore\n      shl(0xf8, 0x0d)\n        /* \"contracts/pixel_pictasia_utils.sol\":1874:1884  _imageData */\n      dup5\n        /* \"contracts/pixel_pictasia_utils.sol\":1885:1889  _i++ */\n      dup5\n      tag_55\n      dup2\n      tag_41\n      jump\t// in\n    tag_55:\n      swap6\n      pop\n        /* \"contracts/pixel_pictasia_utils.sol\":1874:1890  _imageData[_i++] */\n      dup2\n      mload\n      dup2\n      lt\n      tag_57\n      jumpi\n      tag_57\n      tag_37\n      jump\t// in\n    tag_57:\n      not(sub(shl(0xf8, 0x01), 0x01))\n        /* \"contracts/pixel_pictasia_utils.sol\":1874:1900  _imageData[_i++] = hex\"0D\" */\n      swap1\n      swap3\n      and\n        /* \"contracts/pixel_pictasia_utils.sol\":1874:1890  _imageData[_i++] */\n      0x20\n      swap3\n      dup4\n      mul\n      swap2\n      swap1\n      swap2\n      add\n      swap1\n      swap2\n      add\n        /* \"contracts/pixel_pictasia_utils.sol\":1874:1900  _imageData[_i++] = hex\"0D\" */\n      mstore\n      shl(0xf9, 0x05)\n        /* \"contracts/pixel_pictasia_utils.sol\":1911:1921  _imageData */\n      dup5\n        /* \"contracts/pixel_pictasia_utils.sol\":1922:1926  _i++ */\n      dup5\n      tag_58\n      dup2\n      tag_41\n      jump\t// in\n    tag_58:\n      swap6\n      pop\n        /* \"contracts/pixel_pictasia_utils.sol\":1911:1927  _imageData[_i++] */\n      dup2\n      mload\n      dup2\n      lt\n      tag_60\n      jumpi\n      tag_60\n      tag_37\n      jump\t// in\n    tag_60:\n      not(sub(shl(0xf8, 0x01), 0x01))\n        /* \"contracts/pixel_pictasia_utils.sol\":1911:1937  _imageData[_i++] = hex\"0A\" */\n      swap1\n      swap3\n      and\n        /* \"contracts/pixel_pictasia_utils.sol\":1911:1927  _imageData[_i++] */\n      0x20\n      swap3\n      dup4\n      mul\n      swap2\n      swap1\n      swap2\n      add\n      swap1\n      swap2\n      add\n        /* \"contracts/pixel_pictasia_utils.sol\":1911:1937  _imageData[_i++] = hex\"0A\" */\n      mstore\n      shl(0xf9, 0x0d)\n        /* \"contracts/pixel_pictasia_utils.sol\":1948:1958  _imageData */\n      dup5\n        /* \"contracts/pixel_pictasia_utils.sol\":1959:1963  _i++ */\n      dup5\n      tag_61\n      dup2\n      tag_41\n      jump\t// in\n    tag_61:\n      swap6\n      pop\n        /* \"contracts/pixel_pictasia_utils.sol\":1948:1964  _imageData[_i++] */\n      dup2\n      mload\n      dup2\n      lt\n      tag_63\n      jumpi\n      tag_63\n      tag_37\n      jump\t// in\n    tag_63:\n      not(sub(shl(0xf8, 0x01), 0x01))\n        /* \"contracts/pixel_pictasia_utils.sol\":1948:1974  _imageData[_i++] = hex\"1A\" */\n      swap1\n      swap3\n      and\n        /* \"contracts/pixel_pictasia_utils.sol\":1948:1964  _imageData[_i++] */\n      0x20\n      swap3\n      dup4\n      mul\n      swap2\n      swap1\n      swap2\n      add\n      swap1\n      swap2\n      add\n        /* \"contracts/pixel_pictasia_utils.sol\":1948:1974  _imageData[_i++] = hex\"1A\" */\n      mstore\n      shl(0xf9, 0x05)\n        /* \"contracts/pixel_pictasia_utils.sol\":1985:1995  _imageData */\n      dup5\n        /* \"contracts/pixel_pictasia_utils.sol\":1996:2000  _i++ */\n      dup5\n      tag_64\n      dup2\n      tag_41\n      jump\t// in\n    tag_64:\n      swap6\n      pop\n        /* \"contracts/pixel_pictasia_utils.sol\":1985:2001  _imageData[_i++] */\n      dup2\n      mload\n      dup2\n      lt\n      tag_66\n      jumpi\n      tag_66\n      tag_37\n      jump\t// in\n    tag_66:\n      not(sub(shl(0xf8, 0x01), 0x01))\n        /* \"contracts/pixel_pictasia_utils.sol\":1985:2011  _imageData[_i++] = hex\"0A\" */\n      swap3\n      swap1\n      swap3\n      and\n        /* \"contracts/pixel_pictasia_utils.sol\":1985:2001  _imageData[_i++] */\n      0x20\n      swap3\n      dup4\n      mul\n      swap2\n      swap1\n      swap2\n      add\n      swap1\n      swap2\n      add\n        /* \"contracts/pixel_pictasia_utils.sol\":1985:2011  _imageData[_i++] = hex\"0A\" */\n      mstore\n      pop\n        /* \"contracts/pixel_pictasia_utils.sol\":2032:2042  _imageData */\n      swap2\n      swap3\n        /* \"contracts/pixel_pictasia_utils.sol\":2044:2046  _i */\n      swap1\n      swap2\n      pop\n        /* \"contracts/pixel_pictasia_utils.sol\":1602:2055  function addPNGSignature(bytes1[] memory _imageData, uint256 _i) private pure returns (bytes1[] memory, uint256) {... */\n      jump\t// out\n        /* \"contracts/pixel_pictasia_utils.sol\":2063:3450  function addIHDRChunck(bytes1[] memory _imageData, uint256 _i, uint256 _width, uint256 _height) private view returns (bytes1[] memory, uint256) {... */\n    tag_24:\n        /* \"contracts/pixel_pictasia_utils.sol\":2181:2196  bytes1[] memory */\n      0x60\n        /* \"contracts/pixel_pictasia_utils.sol\":2198:2205  uint256 */\n      0x00\n        /* \"contracts/pixel_pictasia_utils.sol\":2273:2275  _i */\n      dup5\n        /* \"contracts/pixel_pictasia_utils.sol\":2286:2293  _i += 4 */\n      tag_68\n        /* \"contracts/pixel_pictasia_utils.sol\":2292:2293  4 */\n      0x04\n        /* \"contracts/pixel_pictasia_utils.sol\":2273:2275  _i */\n      dup3\n        /* \"contracts/pixel_pictasia_utils.sol\":2286:2293  _i += 4 */\n      tag_15\n      jump\t// in\n    tag_68:\n      swap6\n      pop\n      dup6\n      shl(0xf8, 0x49)\n        /* \"contracts/pixel_pictasia_utils.sol\":2365:2375  _imageData */\n      dup9\n        /* \"contracts/pixel_pictasia_utils.sol\":2286:2293  _i += 4 */\n      dup3\n        /* \"contracts/pixel_pictasia_utils.sol\":2376:2380  _i++ */\n      tag_69\n        /* \"contracts/pixel_pictasia_utils.sol\":2286:2293  _i += 4 */\n      dup2\n        /* \"contracts/pixel_pictasia_utils.sol\":2376:2380  _i++ */\n      tag_41\n      jump\t// in\n    tag_69:\n      swap10\n      pop\n        /* \"contracts/pixel_pictasia_utils.sol\":2365:2381  _imageData[_i++] */\n      dup2\n      mload\n      dup2\n      lt\n      tag_71\n      jumpi\n      tag_71\n      tag_37\n      jump\t// in\n    tag_71:\n      not(sub(shl(0xf8, 0x01), 0x01))\n        /* \"contracts/pixel_pictasia_utils.sol\":2365:2391  _imageData[_i++] = hex\"49\" */\n      swap1\n      swap3\n      and\n        /* \"contracts/pixel_pictasia_utils.sol\":2365:2381  _imageData[_i++] */\n      0x20\n      swap3\n      dup4\n      mul\n      swap2\n      swap1\n      swap2\n      add\n      swap1\n      swap2\n      add\n        /* \"contracts/pixel_pictasia_utils.sol\":2365:2391  _imageData[_i++] = hex\"49\" */\n      mstore\n      shl(0xfb, 0x09)\n        /* \"contracts/pixel_pictasia_utils.sol\":2402:2412  _imageData */\n      dup9\n        /* \"contracts/pixel_pictasia_utils.sol\":2413:2417  _i++ */\n      dup9\n      tag_72\n      dup2\n      tag_41\n      jump\t// in\n    tag_72:\n      swap10\n      pop\n        /* \"contracts/pixel_pictasia_utils.sol\":2402:2418  _imageData[_i++] */\n      dup2\n      mload\n      dup2\n      lt\n      tag_74\n      jumpi\n      tag_74\n      tag_37\n      jump\t// in\n    tag_74:\n      not(sub(shl(0xf8, 0x01), 0x01))\n        /* \"contracts/pixel_pictasia_utils.sol\":2402:2428  _imageData[_i++] = hex\"48\" */\n      swap1\n      swap3\n      and\n        /* \"contracts/pixel_pictasia_utils.sol\":2402:2418  _imageData[_i++] */\n      0x20\n      swap3\n      dup4\n      mul\n      swap2\n      swap1\n      swap2\n      add\n      swap1\n      swap2\n      add\n        /* \"contracts/pixel_pictasia_utils.sol\":2402:2428  _imageData[_i++] = hex\"48\" */\n      mstore\n      shl(0xfa, 0x11)\n        /* \"contracts/pixel_pictasia_utils.sol\":2439:2449  _imageData */\n      dup9\n        /* \"contracts/pixel_pictasia_utils.sol\":2450:2454  _i++ */\n      dup9\n      tag_75\n      dup2\n      tag_41\n      jump\t// in\n    tag_75:\n      swap10\n      pop\n        /* \"contracts/pixel_pictasia_utils.sol\":2439:2455  _imageData[_i++] */\n      dup2\n      mload\n      dup2\n      lt\n      tag_77\n      jumpi\n      tag_77\n      tag_37\n      jump\t// in\n    tag_77:\n      not(sub(shl(0xf8, 0x01), 0x01))\n        /* \"contracts/pixel_pictasia_utils.sol\":2439:2465  _imageData[_i++] = hex\"44\" */\n      swap1\n      swap3\n      and\n        /* \"contracts/pixel_pictasia_utils.sol\":2439:2455  _imageData[_i++] */\n      0x20\n      swap3\n      dup4\n      mul\n      swap2\n      swap1\n      swap2\n      add\n      swap1\n      swap2\n      add\n        /* \"contracts/pixel_pictasia_utils.sol\":2439:2465  _imageData[_i++] = hex\"44\" */\n      mstore\n      shl(0xf9, 0x29)\n        /* \"contracts/pixel_pictasia_utils.sol\":2476:2486  _imageData */\n      dup9\n        /* \"contracts/pixel_pictasia_utils.sol\":2487:2491  _i++ */\n      dup9\n      tag_78\n      dup2\n      tag_41\n      jump\t// in\n    tag_78:\n      swap10\n      pop\n        /* \"contracts/pixel_pictasia_utils.sol\":2476:2492  _imageData[_i++] */\n      dup2\n      mload\n      dup2\n      lt\n      tag_80\n      jumpi\n      tag_80\n      tag_37\n      jump\t// in\n    tag_80:\n      not(sub(shl(0xf8, 0x01), 0x01))\n        /* \"contracts/pixel_pictasia_utils.sol\":2476:2502  _imageData[_i++] = hex\"52\" */\n      swap1\n      swap3\n      and\n        /* \"contracts/pixel_pictasia_utils.sol\":2476:2492  _imageData[_i++] */\n      0x20\n      swap3\n      dup4\n      mul\n      swap2\n      swap1\n      swap2\n      add\n      swap1\n      swap2\n      add\n        /* \"contracts/pixel_pictasia_utils.sol\":2476:2502  _imageData[_i++] = hex\"52\" */\n      mstore\n        /* \"contracts/pixel_pictasia_utils.sol\":2555:2557  _i */\n      dup7\n        /* \"contracts/pixel_pictasia_utils.sol\":2607:2644  add4ByteValue(_imageData, _i, _width) */\n      tag_81\n        /* \"contracts/pixel_pictasia_utils.sol\":2621:2631  _imageData */\n      dup10\n        /* \"contracts/pixel_pictasia_utils.sol\":2555:2557  _i */\n      dup3\n        /* \"contracts/pixel_pictasia_utils.sol\":2637:2643  _width */\n      dup10\n        /* \"contracts/pixel_pictasia_utils.sol\":2607:2620  add4ByteValue */\n      tag_82\n        /* \"contracts/pixel_pictasia_utils.sol\":2607:2644  add4ByteValue(_imageData, _i, _width) */\n      jump\t// in\n    tag_81:\n        /* \"contracts/pixel_pictasia_utils.sol\":2588:2644  (_imageData, _i) = add4ByteValue(_imageData, _i, _width) */\n      swap1\n      swap10\n      pop\n      swap8\n      pop\n        /* \"contracts/pixel_pictasia_utils.sol\":2695:2733  add4ByteValue(_imageData, _i, _height) */\n      tag_83\n        /* \"contracts/pixel_pictasia_utils.sol\":2588:2644  (_imageData, _i) = add4ByteValue(_imageData, _i, _width) */\n      dup10\n      dup10\n        /* \"contracts/pixel_pictasia_utils.sol\":2725:2732  _height */\n      dup9\n        /* \"contracts/pixel_pictasia_utils.sol\":2695:2708  add4ByteValue */\n      tag_82\n        /* \"contracts/pixel_pictasia_utils.sol\":2695:2733  add4ByteValue(_imageData, _i, _height) */\n      jump\t// in\n    tag_83:\n        /* \"contracts/pixel_pictasia_utils.sol\":2676:2733  (_imageData, _i) = add4ByteValue(_imageData, _i, _height) */\n      swap1\n      swap10\n      pop\n      swap8\n      pop\n      shl(0xfb, 0x01)\n      dup10\n      dup10\n        /* \"contracts/pixel_pictasia_utils.sol\":2779:2783  _i++ */\n      tag_84\n        /* \"contracts/pixel_pictasia_utils.sol\":2676:2733  (_imageData, _i) = add4ByteValue(_imageData, _i, _height) */\n      dup2\n        /* \"contracts/pixel_pictasia_utils.sol\":2779:2783  _i++ */\n      tag_41\n      jump\t// in\n    tag_84:\n      swap11\n      pop\n        /* \"contracts/pixel_pictasia_utils.sol\":2768:2784  _imageData[_i++] */\n      dup2\n      mload\n      dup2\n      lt\n      tag_86\n      jumpi\n      tag_86\n      tag_37\n      jump\t// in\n    tag_86:\n      not(sub(shl(0xf8, 0x01), 0x01))\n        /* \"contracts/pixel_pictasia_utils.sol\":2768:2794  _imageData[_i++] = hex\"08\" */\n      swap1\n      swap3\n      and\n        /* \"contracts/pixel_pictasia_utils.sol\":2768:2784  _imageData[_i++] */\n      0x20\n      swap3\n      dup4\n      mul\n      swap2\n      swap1\n      swap2\n      add\n      swap1\n      swap2\n      add\n        /* \"contracts/pixel_pictasia_utils.sol\":2768:2794  _imageData[_i++] = hex\"08\" */\n      mstore\n      shl(0xf9, 0x01)\n        /* \"contracts/pixel_pictasia_utils.sol\":2831:2841  _imageData */\n      dup10\n        /* \"contracts/pixel_pictasia_utils.sol\":2842:2846  _i++ */\n      dup10\n      tag_87\n      dup2\n      tag_41\n      jump\t// in\n    tag_87:\n      swap11\n      pop\n        /* \"contracts/pixel_pictasia_utils.sol\":2831:2847  _imageData[_i++] */\n      dup2\n      mload\n      dup2\n      lt\n      tag_89\n      jumpi\n      tag_89\n      tag_37\n      jump\t// in\n    tag_89:\n      not(sub(shl(0xf8, 0x01), 0x01))\n        /* \"contracts/pixel_pictasia_utils.sol\":2831:2857  _imageData[_i++] = hex\"02\" */\n      swap1\n      swap3\n      and\n        /* \"contracts/pixel_pictasia_utils.sol\":2831:2847  _imageData[_i++] */\n      0x20\n      swap3\n      dup4\n      mul\n      swap2\n      swap1\n      swap2\n      add\n      swap1\n      swap2\n      add\n        /* \"contracts/pixel_pictasia_utils.sol\":2831:2857  _imageData[_i++] = hex\"02\" */\n      mstore\n        /* \"contracts/pixel_pictasia_utils.sol\":2901:2927  _imageData[_i++] = hex\"00\" */\n      0x00\n        /* \"contracts/pixel_pictasia_utils.sol\":2901:2911  _imageData */\n      dup10\n        /* \"contracts/pixel_pictasia_utils.sol\":2912:2916  _i++ */\n      dup10\n      tag_90\n      dup2\n      tag_41\n      jump\t// in\n    tag_90:\n      swap11\n      pop\n        /* \"contracts/pixel_pictasia_utils.sol\":2901:2917  _imageData[_i++] */\n      dup2\n      mload\n      dup2\n      lt\n      tag_92\n      jumpi\n      tag_92\n      tag_37\n      jump\t// in\n    tag_92:\n      not(sub(shl(0xf8, 0x01), 0x01))\n        /* \"contracts/pixel_pictasia_utils.sol\":2901:2927  _imageData[_i++] = hex\"00\" */\n      swap1\n      swap3\n      and\n        /* \"contracts/pixel_pictasia_utils.sol\":2901:2917  _imageData[_i++] */\n      0x20\n      swap3\n      dup4\n      mul\n      swap2\n      swap1\n      swap2\n      add\n      swap1\n      swap2\n      add\n        /* \"contracts/pixel_pictasia_utils.sol\":2901:2927  _imageData[_i++] = hex\"00\" */\n      mstore\n        /* \"contracts/pixel_pictasia_utils.sol\":2966:2992  _imageData[_i++] = hex\"00\" */\n      0x00\n        /* \"contracts/pixel_pictasia_utils.sol\":2966:2976  _imageData */\n      dup10\n        /* \"contracts/pixel_pictasia_utils.sol\":2977:2981  _i++ */\n      dup10\n      tag_93\n      dup2\n      tag_41\n      jump\t// in\n    tag_93:\n      swap11\n      pop\n        /* \"contracts/pixel_pictasia_utils.sol\":2966:2982  _imageData[_i++] */\n      dup2\n      mload\n      dup2\n      lt\n      tag_95\n      jumpi\n      tag_95\n      tag_37\n      jump\t// in\n    tag_95:\n      not(sub(shl(0xf8, 0x01), 0x01))\n        /* \"contracts/pixel_pictasia_utils.sol\":2966:2992  _imageData[_i++] = hex\"00\" */\n      swap1\n      swap3\n      and\n        /* \"contracts/pixel_pictasia_utils.sol\":2966:2982  _imageData[_i++] */\n      0x20\n      swap3\n      dup4\n      mul\n      swap2\n      swap1\n      swap2\n      add\n      swap1\n      swap2\n      add\n        /* \"contracts/pixel_pictasia_utils.sol\":2966:2992  _imageData[_i++] = hex\"00\" */\n      mstore\n        /* \"contracts/pixel_pictasia_utils.sol\":3034:3060  _imageData[_i++] = hex\"00\" */\n      0x00\n        /* \"contracts/pixel_pictasia_utils.sol\":3034:3044  _imageData */\n      dup10\n        /* \"contracts/pixel_pictasia_utils.sol\":3045:3049  _i++ */\n      dup10\n      tag_96\n      dup2\n      tag_41\n      jump\t// in\n    tag_96:\n      swap11\n      pop\n        /* \"contracts/pixel_pictasia_utils.sol\":3034:3050  _imageData[_i++] */\n      dup2\n      mload\n      dup2\n      lt\n      tag_98\n      jumpi\n      tag_98\n      tag_37\n      jump\t// in\n    tag_98:\n      not(sub(shl(0xf8, 0x01), 0x01))\n        /* \"contracts/pixel_pictasia_utils.sol\":3034:3060  _imageData[_i++] = hex\"00\" */\n      swap1\n      swap3\n      and\n        /* \"contracts/pixel_pictasia_utils.sol\":3034:3050  _imageData[_i++] */\n      0x20\n      swap3\n      dup4\n      mul\n      swap2\n      swap1\n      swap2\n      add\n      swap1\n      swap2\n      add\n        /* \"contracts/pixel_pictasia_utils.sol\":3034:3060  _imageData[_i++] = hex\"00\" */\n      mstore\n        /* \"contracts/pixel_pictasia_utils.sol\":3094:3096  _i */\n      dup8\n      dup1\n        /* \"contracts/pixel_pictasia_utils.sol\":3175:3217  addCRC(_imageData, _i, iCRCStart, iCRCEnd) */\n      tag_99\n        /* \"contracts/pixel_pictasia_utils.sol\":3182:3192  _imageData */\n      dup12\n        /* \"contracts/pixel_pictasia_utils.sol\":3094:3096  _i */\n      dup3\n        /* \"contracts/pixel_pictasia_utils.sol\":3198:3207  iCRCStart */\n      dup7\n        /* \"contracts/pixel_pictasia_utils.sol\":3094:3096  _i */\n      dup2\n        /* \"contracts/pixel_pictasia_utils.sol\":3175:3181  addCRC */\n      tag_100\n        /* \"contracts/pixel_pictasia_utils.sol\":3175:3217  addCRC(_imageData, _i, iCRCStart, iCRCEnd) */\n      jump\t// in\n    tag_99:\n        /* \"contracts/pixel_pictasia_utils.sol\":3156:3217  (_imageData, _i) = addCRC(_imageData, _i, iCRCStart, iCRCEnd) */\n      swap1\n      swap12\n      pop\n      swap10\n      pop\n        /* \"contracts/pixel_pictasia_utils.sol\":3342:3406  add4ByteValue(_imageData, iLengthIdx, iLengthEnd - iLengthStart) */\n      tag_101\n        /* \"contracts/pixel_pictasia_utils.sol\":3156:3217  (_imageData, _i) = addCRC(_imageData, _i, iCRCStart, iCRCEnd) */\n      dup12\n        /* \"contracts/pixel_pictasia_utils.sol\":3368:3378  iLengthIdx */\n      dup7\n        /* \"contracts/pixel_pictasia_utils.sol\":3380:3405  iLengthEnd - iLengthStart */\n      tag_102\n        /* \"contracts/pixel_pictasia_utils.sol\":3393:3405  iLengthStart */\n      dup7\n        /* \"contracts/pixel_pictasia_utils.sol\":3380:3390  iLengthEnd */\n      dup7\n        /* \"contracts/pixel_pictasia_utils.sol\":3380:3405  iLengthEnd - iLengthStart */\n      tag_103\n      jump\t// in\n    tag_102:\n        /* \"contracts/pixel_pictasia_utils.sol\":3342:3355  add4ByteValue */\n      tag_82\n        /* \"contracts/pixel_pictasia_utils.sol\":3342:3406  add4ByteValue(_imageData, iLengthIdx, iLengthEnd - iLengthStart) */\n      jump\t// in\n    tag_101:\n      pop\n        /* \"contracts/pixel_pictasia_utils.sol\":3315:3406  (_imageData, iLengthIdx) = add4ByteValue(_imageData, iLengthIdx, iLengthEnd - iLengthStart) */\n      swap12\n        /* \"contracts/pixel_pictasia_utils.sol\":3439:3441  _i */\n      swap10\n      swap11\n      pop\n      pop\n      pop\n      pop\n      pop\n      pop\n      pop\n      pop\n      pop\n      pop\n        /* \"contracts/pixel_pictasia_utils.sol\":2063:3450  function addIHDRChunck(bytes1[] memory _imageData, uint256 _i, uint256 _width, uint256 _height) private view returns (bytes1[] memory, uint256) {... */\n      jump\t// out\n        /* \"contracts/pixel_pictasia_utils.sol\":3886:6347  function addIDATChunck(bytes1[] memory _imageData, uint256 _i, uint256 _width, uint256 _height, PNGData memory pngData) private view returns (bytes1[] memory, uint256) {... */\n    tag_26:\n        /* \"contracts/pixel_pictasia_utils.sol\":4096:4136  IDATStruct(0, 0, 0, 0, 0, 0, 0, 0, 0, 0) */\n      0x40\n      dup1\n      mload\n      0x0140\n      dup2\n      add\n      dup3\n      mstore\n        /* \"contracts/pixel_pictasia_utils.sol\":4045:4052  uint256 */\n      0x00\n        /* \"contracts/pixel_pictasia_utils.sol\":4096:4136  IDATStruct(0, 0, 0, 0, 0, 0, 0, 0, 0, 0) */\n      0x20\n      dup3\n      add\n      dup2\n      swap1\n      mstore\n      swap2\n      dup2\n      add\n      dup3\n      swap1\n      mstore\n        /* \"contracts/pixel_pictasia_utils.sol\":4028:4043  bytes1[] memory */\n      0x60\n        /* \"contracts/pixel_pictasia_utils.sol\":4096:4136  IDATStruct(0, 0, 0, 0, 0, 0, 0, 0, 0, 0) */\n      dup2\n      dup2\n      add\n      dup4\n      swap1\n      mstore\n      0x80\n      dup3\n      add\n      dup4\n      swap1\n      mstore\n      0xa0\n      dup3\n      add\n      dup4\n      swap1\n      mstore\n      0xc0\n      dup3\n      add\n      dup4\n      swap1\n      mstore\n      0xe0\n      dup3\n      add\n      dup4\n      swap1\n      mstore\n      0x0100\n      dup3\n      add\n      dup4\n      swap1\n      mstore\n      0x0120\n      dup3\n      add\n      dup4\n      swap1\n      mstore\n        /* \"contracts/pixel_pictasia_utils.sol\":4181:4207  idatStruct.iLengthIdx = _i */\n      dup7\n      dup3\n      mstore\n        /* \"contracts/pixel_pictasia_utils.sol\":4028:4043  bytes1[] memory */\n      swap2\n        /* \"contracts/pixel_pictasia_utils.sol\":4045:4052  uint256 */\n      swap1\n        /* \"contracts/pixel_pictasia_utils.sol\":4218:4225  _i += 4 */\n      tag_105\n        /* \"contracts/pixel_pictasia_utils.sol\":4224:4225  4 */\n      0x04\n        /* \"contracts/pixel_pictasia_utils.sol\":4205:4207  _i */\n      dup9\n        /* \"contracts/pixel_pictasia_utils.sol\":4218:4225  _i += 4 */\n      tag_15\n      jump\t// in\n    tag_105:\n        /* \"contracts/pixel_pictasia_utils.sol\":4238:4258  idatStruct.iCRCStart */\n      0x0100\n      dup3\n      add\n        /* \"contracts/pixel_pictasia_utils.sol\":4238:4263  idatStruct.iCRCStart = _i */\n      dup2\n      swap1\n      mstore\n        /* \"contracts/pixel_pictasia_utils.sol\":4218:4225  _i += 4 */\n      swap7\n      pop\n      shl(0xf8, 0x49)\n        /* \"contracts/pixel_pictasia_utils.sol\":4300:4310  _imageData */\n      dup9\n        /* \"contracts/pixel_pictasia_utils.sol\":4218:4225  _i += 4 */\n      dup9\n        /* \"contracts/pixel_pictasia_utils.sol\":4311:4315  _i++ */\n      tag_106\n        /* \"contracts/pixel_pictasia_utils.sol\":4218:4225  _i += 4 */\n      dup2\n        /* \"contracts/pixel_pictasia_utils.sol\":4311:4315  _i++ */\n      tag_41\n      jump\t// in\n    tag_106:\n      swap10\n      pop\n        /* \"contracts/pixel_pictasia_utils.sol\":4300:4316  _imageData[_i++] */\n      dup2\n      mload\n      dup2\n      lt\n      tag_108\n      jumpi\n      tag_108\n      tag_37\n      jump\t// in\n    tag_108:\n      not(sub(shl(0xf8, 0x01), 0x01))\n        /* \"contracts/pixel_pictasia_utils.sol\":4300:4326  _imageData[_i++] = hex\"49\" */\n      swap1\n      swap3\n      and\n        /* \"contracts/pixel_pictasia_utils.sol\":4300:4316  _imageData[_i++] */\n      0x20\n      swap3\n      dup4\n      mul\n      swap2\n      swap1\n      swap2\n      add\n      swap1\n      swap2\n      add\n        /* \"contracts/pixel_pictasia_utils.sol\":4300:4326  _imageData[_i++] = hex\"49\" */\n      mstore\n      shl(0xfa, 0x11)\n        /* \"contracts/pixel_pictasia_utils.sol\":4337:4347  _imageData */\n      dup9\n        /* \"contracts/pixel_pictasia_utils.sol\":4348:4352  _i++ */\n      dup9\n      tag_109\n      dup2\n      tag_41\n      jump\t// in\n    tag_109:\n      swap10\n      pop\n        /* \"contracts/pixel_pictasia_utils.sol\":4337:4353  _imageData[_i++] */\n      dup2\n      mload\n      dup2\n      lt\n      tag_111\n      jumpi\n      tag_111\n      tag_37\n      jump\t// in\n    tag_111:\n      not(sub(shl(0xf8, 0x01), 0x01))\n        /* \"contracts/pixel_pictasia_utils.sol\":4337:4363  _imageData[_i++] = hex\"44\" */\n      swap1\n      swap3\n      and\n        /* \"contracts/pixel_pictasia_utils.sol\":4337:4353  _imageData[_i++] */\n      0x20\n      swap3\n      dup4\n      mul\n      swap2\n      swap1\n      swap2\n      add\n      swap1\n      swap2\n      add\n        /* \"contracts/pixel_pictasia_utils.sol\":4337:4363  _imageData[_i++] = hex\"44\" */\n      mstore\n      shl(0xf8, 0x41)\n        /* \"contracts/pixel_pictasia_utils.sol\":4374:4384  _imageData */\n      dup9\n        /* \"contracts/pixel_pictasia_utils.sol\":4385:4389  _i++ */\n      dup9\n      tag_112\n      dup2\n      tag_41\n      jump\t// in\n    tag_112:\n      swap10\n      pop\n        /* \"contracts/pixel_pictasia_utils.sol\":4374:4390  _imageData[_i++] */\n      dup2\n      mload\n      dup2\n      lt\n      tag_114\n      jumpi\n      tag_114\n      tag_37\n      jump\t// in\n    tag_114:\n      not(sub(shl(0xf8, 0x01), 0x01))\n        /* \"contracts/pixel_pictasia_utils.sol\":4374:4400  _imageData[_i++] = hex\"41\" */\n      swap1\n      swap3\n      and\n        /* \"contracts/pixel_pictasia_utils.sol\":4374:4390  _imageData[_i++] */\n      0x20\n      swap3\n      dup4\n      mul\n      swap2\n      swap1\n      swap2\n      add\n      swap1\n      swap2\n      add\n        /* \"contracts/pixel_pictasia_utils.sol\":4374:4400  _imageData[_i++] = hex\"41\" */\n      mstore\n      shl(0xfa, 0x15)\n        /* \"contracts/pixel_pictasia_utils.sol\":4411:4421  _imageData */\n      dup9\n        /* \"contracts/pixel_pictasia_utils.sol\":4422:4426  _i++ */\n      dup9\n      tag_115\n      dup2\n      tag_41\n      jump\t// in\n    tag_115:\n      swap10\n      pop\n        /* \"contracts/pixel_pictasia_utils.sol\":4411:4427  _imageData[_i++] */\n      dup2\n      mload\n      dup2\n      lt\n      tag_117\n      jumpi\n      tag_117\n      tag_37\n      jump\t// in\n    tag_117:\n      not(sub(shl(0xf8, 0x01), 0x01))\n        /* \"contracts/pixel_pictasia_utils.sol\":4411:4437  _imageData[_i++] = hex\"54\" */\n      swap1\n      swap3\n      and\n        /* \"contracts/pixel_pictasia_utils.sol\":4411:4427  _imageData[_i++] */\n      0x20\n      swap3\n      dup4\n      mul\n      swap2\n      swap1\n      swap2\n      add\n      dup3\n      add\n        /* \"contracts/pixel_pictasia_utils.sol\":4411:4437  _imageData[_i++] = hex\"54\" */\n      mstore\n        /* \"contracts/pixel_pictasia_utils.sol\":4467:4490  idatStruct.iLengthStart */\n      dup2\n      add\n        /* \"contracts/pixel_pictasia_utils.sol\":4467:4495  idatStruct.iLengthStart = _i */\n      dup8\n      swap1\n      mstore\n      shl(0xfb, 0x0f)\n        /* \"contracts/pixel_pictasia_utils.sol\":4532:4542  _imageData */\n      dup9\n        /* \"contracts/pixel_pictasia_utils.sol\":4493:4495  _i */\n      dup9\n        /* \"contracts/pixel_pictasia_utils.sol\":4543:4547  _i++ */\n      tag_118\n        /* \"contracts/pixel_pictasia_utils.sol\":4493:4495  _i */\n      dup2\n        /* \"contracts/pixel_pictasia_utils.sol\":4543:4547  _i++ */\n      tag_41\n      jump\t// in\n    tag_118:\n      swap10\n      pop\n        /* \"contracts/pixel_pictasia_utils.sol\":4532:4548  _imageData[_i++] */\n      dup2\n      mload\n      dup2\n      lt\n      tag_120\n      jumpi\n      tag_120\n      tag_37\n      jump\t// in\n    tag_120:\n      not(sub(shl(0xf8, 0x01), 0x01))\n        /* \"contracts/pixel_pictasia_utils.sol\":4532:4558  _imageData[_i++] = hex\"78\" */\n      swap1\n      swap3\n      and\n        /* \"contracts/pixel_pictasia_utils.sol\":4532:4548  _imageData[_i++] */\n      0x20\n      swap3\n      dup4\n      mul\n      swap2\n      swap1\n      swap2\n      add\n      swap1\n      swap2\n      add\n        /* \"contracts/pixel_pictasia_utils.sol\":4532:4558  _imageData[_i++] = hex\"78\" */\n      mstore\n      shl(0xf8, 0x01)\n        /* \"contracts/pixel_pictasia_utils.sol\":4569:4579  _imageData */\n      dup9\n        /* \"contracts/pixel_pictasia_utils.sol\":4580:4584  _i++ */\n      dup9\n      tag_121\n      dup2\n      tag_41\n      jump\t// in\n    tag_121:\n      swap10\n      pop\n        /* \"contracts/pixel_pictasia_utils.sol\":4569:4585  _imageData[_i++] */\n      dup2\n      mload\n      dup2\n      lt\n      tag_123\n      jumpi\n      tag_123\n      tag_37\n      jump\t// in\n    tag_123:\n      not(sub(shl(0xf8, 0x01), 0x01))\n        /* \"contracts/pixel_pictasia_utils.sol\":4569:4595  _imageData[_i++] = hex\"01\" */\n      swap1\n      swap3\n      and\n        /* \"contracts/pixel_pictasia_utils.sol\":4569:4585  _imageData[_i++] */\n      0x20\n      swap3\n      dup4\n      mul\n      swap2\n      swap1\n      swap2\n      add\n      swap1\n      swap2\n      add\n        /* \"contracts/pixel_pictasia_utils.sol\":4569:4595  _imageData[_i++] = hex\"01\" */\n      mstore\n      shl(0xf8, 0x01)\n        /* \"contracts/pixel_pictasia_utils.sol\":4637:4647  _imageData */\n      dup9\n        /* \"contracts/pixel_pictasia_utils.sol\":4648:4652  _i++ */\n      dup9\n      tag_124\n      dup2\n      tag_41\n      jump\t// in\n    tag_124:\n      swap10\n      pop\n        /* \"contracts/pixel_pictasia_utils.sol\":4637:4653  _imageData[_i++] */\n      dup2\n      mload\n      dup2\n      lt\n      tag_126\n      jumpi\n      tag_126\n      tag_37\n      jump\t// in\n    tag_126:\n      not(sub(shl(0xf8, 0x01), 0x01))\n        /* \"contracts/pixel_pictasia_utils.sol\":4637:4663  _imageData[_i++] = hex\"01\" */\n      swap1\n      swap3\n      and\n        /* \"contracts/pixel_pictasia_utils.sol\":4637:4653  _imageData[_i++] */\n      0x20\n      swap3\n      dup4\n      mul\n      swap2\n      swap1\n      swap2\n      add\n      swap1\n      swap2\n      add\n        /* \"contracts/pixel_pictasia_utils.sol\":4637:4663  _imageData[_i++] = hex\"01\" */\n      mstore\n        /* \"contracts/pixel_pictasia_utils.sol\":4735:4760  idatStruct.iZLIBLengthIdx */\n      0x60\n      dup2\n      add\n        /* \"contracts/pixel_pictasia_utils.sol\":4735:4765  idatStruct.iZLIBLengthIdx = _i */\n      dup8\n      swap1\n      mstore\n        /* \"contracts/pixel_pictasia_utils.sol\":4776:4783  _i += 4 */\n      tag_127\n        /* \"contracts/pixel_pictasia_utils.sol\":4782:4783  4 */\n      0x04\n        /* \"contracts/pixel_pictasia_utils.sol\":4763:4765  _i */\n      dup9\n        /* \"contracts/pixel_pictasia_utils.sol\":4776:4783  _i += 4 */\n      tag_15\n      jump\t// in\n    tag_127:\n        /* \"contracts/pixel_pictasia_utils.sol\":4796:4820  idatStruct.iADLER32Start */\n      0xc0\n      dup3\n      add\n        /* \"contracts/pixel_pictasia_utils.sol\":4796:4825  idatStruct.iADLER32Start = _i */\n      dup2\n      swap1\n      mstore\n        /* \"contracts/pixel_pictasia_utils.sol\":4836:4863  idatStruct.iZLIBLengthStart */\n      0x80\n      dup3\n      add\n        /* \"contracts/pixel_pictasia_utils.sol\":4836:4868  idatStruct.iZLIBLengthStart = _i */\n      dup2\n      swap1\n      mstore\n        /* \"contracts/pixel_pictasia_utils.sol\":4776:4783  _i += 4 */\n      swap7\n      pop\n      0x00\n      dup1\n        /* \"contracts/pixel_pictasia_utils.sol\":4937:5343  for(uint256 y = 0; y < _height; y++) {... */\n    tag_128:\n        /* \"contracts/pixel_pictasia_utils.sol\":4960:4967  _height */\n      dup7\n        /* \"contracts/pixel_pictasia_utils.sol\":4956:4957  y */\n      dup2\n        /* \"contracts/pixel_pictasia_utils.sol\":4956:4967  y < _height */\n      lt\n        /* \"contracts/pixel_pictasia_utils.sol\":4937:5343  for(uint256 y = 0; y < _height; y++) {... */\n      iszero\n      tag_129\n      jumpi\n        /* \"contracts/pixel_pictasia_utils.sol\":5056:5082  _imageData[_i++] = hex\"00\" */\n      0x00\n        /* \"contracts/pixel_pictasia_utils.sol\":5056:5066  _imageData */\n      dup11\n        /* \"contracts/pixel_pictasia_utils.sol\":5067:5071  _i++ */\n      dup11\n      tag_131\n      dup2\n      tag_41\n      jump\t// in\n    tag_131:\n      swap12\n      pop\n        /* \"contracts/pixel_pictasia_utils.sol\":5056:5072  _imageData[_i++] */\n      dup2\n      mload\n      dup2\n      lt\n      tag_133\n      jumpi\n      tag_133\n      tag_37\n      jump\t// in\n    tag_133:\n      not(sub(shl(0xf8, 0x01), 0x01))\n        /* \"contracts/pixel_pictasia_utils.sol\":5056:5082  _imageData[_i++] = hex\"00\" */\n      swap1\n      swap3\n      and\n        /* \"contracts/pixel_pictasia_utils.sol\":5056:5072  _imageData[_i++] */\n      0x20\n      swap3\n      dup4\n      mul\n      swap2\n      swap1\n      swap2\n      add\n      swap1\n      swap2\n      add\n        /* \"contracts/pixel_pictasia_utils.sol\":5056:5082  _imageData[_i++] = hex\"00\" */\n      mstore\n        /* \"contracts/pixel_pictasia_utils.sol\":5103:5112  uint256 x */\n      0x00\n        /* \"contracts/pixel_pictasia_utils.sol\":5099:5332  for(uint256 x = 0; x < _width; x++) {... */\n    tag_134:\n        /* \"contracts/pixel_pictasia_utils.sol\":5122:5128  _width */\n      dup9\n        /* \"contracts/pixel_pictasia_utils.sol\":5118:5119  x */\n      dup2\n        /* \"contracts/pixel_pictasia_utils.sol\":5118:5128  x < _width */\n      lt\n        /* \"contracts/pixel_pictasia_utils.sol\":5099:5332  for(uint256 x = 0; x < _width; x++) {... */\n      iszero\n      tag_135\n      jumpi\n        /* \"contracts/pixel_pictasia_utils.sol\":5173:5184  pngData.red */\n      dup7\n      mload\n        /* \"contracts/pixel_pictasia_utils.sol\":5173:5187  pngData.red[c] */\n      dup1\n      mload\n        /* \"contracts/pixel_pictasia_utils.sol\":5185:5186  c */\n      dup5\n      swap1\n        /* \"contracts/pixel_pictasia_utils.sol\":5173:5187  pngData.red[c] */\n      dup2\n      lt\n      tag_138\n      jumpi\n      tag_138\n      tag_37\n      jump\t// in\n    tag_138:\n      0x20\n      mul\n      0x20\n      add\n      add\n      mload\n        /* \"contracts/pixel_pictasia_utils.sol\":5154:5164  _imageData */\n      dup12\n        /* \"contracts/pixel_pictasia_utils.sol\":5165:5169  _i++ */\n      dup12\n      dup1\n      tag_139\n      swap1\n      tag_41\n      jump\t// in\n    tag_139:\n      swap13\n      pop\n        /* \"contracts/pixel_pictasia_utils.sol\":5154:5170  _imageData[_i++] */\n      dup2\n      mload\n      dup2\n      lt\n      tag_141\n      jumpi\n      tag_141\n      tag_37\n      jump\t// in\n    tag_141:\n      not(sub(shl(0xf8, 0x01), 0x01))\n        /* \"contracts/pixel_pictasia_utils.sol\":5154:5187  _imageData[_i++] = pngData.red[c] */\n      swap1\n      swap3\n      and\n        /* \"contracts/pixel_pictasia_utils.sol\":5154:5170  _imageData[_i++] */\n      0x20\n      swap3\n      dup4\n      mul\n      swap2\n      swap1\n      swap2\n      add\n      dup3\n      add\n        /* \"contracts/pixel_pictasia_utils.sol\":5154:5187  _imageData[_i++] = pngData.red[c] */\n      mstore\n        /* \"contracts/pixel_pictasia_utils.sol\":5225:5238  pngData.green */\n      dup8\n      add\n      mload\n        /* \"contracts/pixel_pictasia_utils.sol\":5225:5241  pngData.green[c] */\n      dup1\n      mload\n        /* \"contracts/pixel_pictasia_utils.sol\":5239:5240  c */\n      dup5\n      swap1\n        /* \"contracts/pixel_pictasia_utils.sol\":5225:5241  pngData.green[c] */\n      dup2\n      lt\n      tag_143\n      jumpi\n      tag_143\n      tag_37\n      jump\t// in\n    tag_143:\n      0x20\n      mul\n      0x20\n      add\n      add\n      mload\n        /* \"contracts/pixel_pictasia_utils.sol\":5206:5216  _imageData */\n      dup12\n        /* \"contracts/pixel_pictasia_utils.sol\":5217:5221  _i++ */\n      dup12\n      dup1\n      tag_144\n      swap1\n      tag_41\n      jump\t// in\n    tag_144:\n      swap13\n      pop\n        /* \"contracts/pixel_pictasia_utils.sol\":5206:5222  _imageData[_i++] */\n      dup2\n      mload\n      dup2\n      lt\n      tag_146\n      jumpi\n      tag_146\n      tag_37\n      jump\t// in\n    tag_146:\n      not(sub(shl(0xf8, 0x01), 0x01))\n        /* \"contracts/pixel_pictasia_utils.sol\":5206:5241  _imageData[_i++] = pngData.green[c] */\n      swap1\n      swap3\n      and\n        /* \"contracts/pixel_pictasia_utils.sol\":5206:5222  _imageData[_i++] */\n      0x20\n      swap3\n      dup4\n      mul\n      swap2\n      swap1\n      swap2\n      add\n      swap1\n      swap2\n      add\n        /* \"contracts/pixel_pictasia_utils.sol\":5206:5241  _imageData[_i++] = pngData.green[c] */\n      mstore\n        /* \"contracts/pixel_pictasia_utils.sol\":5279:5291  pngData.blue */\n      0x40\n      dup8\n      add\n      mload\n        /* \"contracts/pixel_pictasia_utils.sol\":5279:5294  pngData.blue[c] */\n      dup1\n      mload\n        /* \"contracts/pixel_pictasia_utils.sol\":5292:5293  c */\n      dup5\n      swap1\n        /* \"contracts/pixel_pictasia_utils.sol\":5279:5294  pngData.blue[c] */\n      dup2\n      lt\n      tag_148\n      jumpi\n      tag_148\n      tag_37\n      jump\t// in\n    tag_148:\n      0x20\n      mul\n      0x20\n      add\n      add\n      mload\n        /* \"contracts/pixel_pictasia_utils.sol\":5260:5270  _imageData */\n      dup12\n        /* \"contracts/pixel_pictasia_utils.sol\":5271:5275  _i++ */\n      dup12\n      dup1\n      tag_149\n      swap1\n      tag_41\n      jump\t// in\n    tag_149:\n      swap13\n      pop\n        /* \"contracts/pixel_pictasia_utils.sol\":5260:5276  _imageData[_i++] */\n      dup2\n      mload\n      dup2\n      lt\n      tag_151\n      jumpi\n      tag_151\n      tag_37\n      jump\t// in\n    tag_151:\n      not(sub(shl(0xf8, 0x01), 0x01))\n        /* \"contracts/pixel_pictasia_utils.sol\":5260:5294  _imageData[_i++] = pngData.blue[c] */\n      swap1\n      swap3\n      and\n        /* \"contracts/pixel_pictasia_utils.sol\":5260:5276  _imageData[_i++] */\n      0x20\n      swap3\n      dup4\n      mul\n      swap2\n      swap1\n      swap2\n      add\n      swap1\n      swap2\n      add\n        /* \"contracts/pixel_pictasia_utils.sol\":5260:5294  _imageData[_i++] = pngData.blue[c] */\n      mstore\n        /* \"contracts/pixel_pictasia_utils.sol\":5313:5316  c++ */\n      dup3\n      tag_152\n      dup2\n      tag_41\n      jump\t// in\n    tag_152:\n      swap4\n      pop\n      pop\n        /* \"contracts/pixel_pictasia_utils.sol\":5130:5133  x++ */\n      dup1\n      dup1\n      tag_153\n      swap1\n      tag_41\n      jump\t// in\n    tag_153:\n      swap2\n      pop\n      pop\n        /* \"contracts/pixel_pictasia_utils.sol\":5099:5332  for(uint256 x = 0; x < _width; x++) {... */\n      jump(tag_134)\n    tag_135:\n      pop\n        /* \"contracts/pixel_pictasia_utils.sol\":4969:4972  y++ */\n      dup1\n      tag_154\n      dup2\n      tag_41\n      jump\t// in\n    tag_154:\n      swap2\n      pop\n      pop\n        /* \"contracts/pixel_pictasia_utils.sol\":4937:5343  for(uint256 y = 0; y < _height; y++) {... */\n      jump(tag_128)\n    tag_129:\n      pop\n        /* \"contracts/pixel_pictasia_utils.sol\":5355:5377  idatStruct.iADLER32End */\n      0xe0\n      dup3\n      add\n        /* \"contracts/pixel_pictasia_utils.sol\":5355:5382  idatStruct.iADLER32End = _i */\n      dup9\n      swap1\n      mstore\n        /* \"contracts/pixel_pictasia_utils.sol\":5393:5418  idatStruct.iZLIBLengthEnd */\n      0xa0\n      dup3\n      add\n        /* \"contracts/pixel_pictasia_utils.sol\":5393:5423  idatStruct.iZLIBLengthEnd = _i */\n      dup9\n      swap1\n      mstore\n        /* \"contracts/pixel_pictasia_utils.sol\":5502:5526  idatStruct.iADLER32Start */\n      0xc0\n      dup3\n      add\n      mload\n        /* \"contracts/pixel_pictasia_utils.sol\":5475:5551  addADLER32(_imageData, _i, idatStruct.iADLER32Start, idatStruct.iADLER32End) */\n      tag_155\n      swap1\n        /* \"contracts/pixel_pictasia_utils.sol\":5486:5496  _imageData */\n      dup11\n      swap1\n        /* \"contracts/pixel_pictasia_utils.sol\":5380:5382  _i */\n      dup11\n      swap1\n      dup2\n        /* \"contracts/pixel_pictasia_utils.sol\":5475:5485  addADLER32 */\n      tag_156\n        /* \"contracts/pixel_pictasia_utils.sol\":5475:5551  addADLER32(_imageData, _i, idatStruct.iADLER32Start, idatStruct.iADLER32End) */\n      jump\t// in\n    tag_155:\n        /* \"contracts/pixel_pictasia_utils.sol\":5564:5585  idatStruct.iLengthEnd */\n      0x40\n      dup5\n      add\n        /* \"contracts/pixel_pictasia_utils.sol\":5564:5590  idatStruct.iLengthEnd = _i */\n      dup2\n      swap1\n      mstore\n        /* \"contracts/pixel_pictasia_utils.sol\":5601:5619  idatStruct.iCRCEnd */\n      0x0120\n      dup5\n      add\n        /* \"contracts/pixel_pictasia_utils.sol\":5601:5624  idatStruct.iCRCEnd = _i */\n      dup2\n      swap1\n      mstore\n        /* \"contracts/pixel_pictasia_utils.sol\":5695:5715  idatStruct.iCRCStart */\n      0x0100\n      dup5\n      add\n      mload\n        /* \"contracts/pixel_pictasia_utils.sol\":5456:5551  (_imageData, _i) = addADLER32(_imageData, _i, idatStruct.iADLER32Start, idatStruct.iADLER32End) */\n      swap2\n      swap11\n      pop\n      swap9\n      pop\n        /* \"contracts/pixel_pictasia_utils.sol\":5672:5736  addCRC(_imageData, _i, idatStruct.iCRCStart, idatStruct.iCRCEnd) */\n      tag_157\n      swap1\n        /* \"contracts/pixel_pictasia_utils.sol\":5456:5551  (_imageData, _i) = addADLER32(_imageData, _i, idatStruct.iADLER32Start, idatStruct.iADLER32End) */\n      dup11\n      swap1\n      dup11\n      swap1\n      dup2\n        /* \"contracts/pixel_pictasia_utils.sol\":5672:5678  addCRC */\n      tag_100\n        /* \"contracts/pixel_pictasia_utils.sol\":5672:5736  addCRC(_imageData, _i, idatStruct.iCRCStart, idatStruct.iCRCEnd) */\n      jump\t// in\n    tag_157:\n        /* \"contracts/pixel_pictasia_utils.sol\":5898:5919  idatStruct.iLengthIdx */\n      dup4\n      mload\n        /* \"contracts/pixel_pictasia_utils.sol\":5945:5968  idatStruct.iLengthStart */\n      0x20\n      dup6\n      add\n      mload\n        /* \"contracts/pixel_pictasia_utils.sol\":5921:5942  idatStruct.iLengthEnd */\n      0x40\n      dup7\n      add\n      mload\n        /* \"contracts/pixel_pictasia_utils.sol\":5653:5736  (_imageData, _i) = addCRC(_imageData, _i, idatStruct.iCRCStart, idatStruct.iCRCEnd) */\n      swap4\n      swap13\n      pop\n      swap2\n      swap11\n      pop\n        /* \"contracts/pixel_pictasia_utils.sol\":5872:5969  add4ByteValue(_imageData, idatStruct.iLengthIdx, idatStruct.iLengthEnd - idatStruct.iLengthStart) */\n      tag_158\n      swap3\n        /* \"contracts/pixel_pictasia_utils.sol\":5653:5736  (_imageData, _i) = addCRC(_imageData, _i, idatStruct.iCRCStart, idatStruct.iCRCEnd) */\n      dup13\n      swap3\n        /* \"contracts/pixel_pictasia_utils.sol\":5921:5968  idatStruct.iLengthEnd - idatStruct.iLengthStart */\n      tag_102\n      swap2\n      tag_103\n      jump\t// in\n        /* \"contracts/pixel_pictasia_utils.sol\":5872:5969  add4ByteValue(_imageData, idatStruct.iLengthIdx, idatStruct.iLengthEnd - idatStruct.iLengthStart) */\n    tag_158:\n        /* \"contracts/pixel_pictasia_utils.sol\":5834:5969  (_imageData, idatStruct.iLengthIdx) = add4ByteValue(_imageData, idatStruct.iLengthIdx, idatStruct.iLengthEnd - idatStruct.iLengthStart) */\n      dup4\n      mstore\n        /* \"contracts/pixel_pictasia_utils.sol\":6048:6073  idatStruct.iZLIBLengthIdx */\n      0x60\n      dup4\n      add\n      mload\n        /* \"contracts/pixel_pictasia_utils.sol\":6103:6130  idatStruct.iZLIBLengthStart */\n      0x80\n      dup5\n      add\n      mload\n        /* \"contracts/pixel_pictasia_utils.sol\":6075:6100  idatStruct.iZLIBLengthEnd */\n      0xa0\n      dup6\n      add\n      mload\n        /* \"contracts/pixel_pictasia_utils.sol\":5834:5969  (_imageData, idatStruct.iLengthIdx) = add4ByteValue(_imageData, idatStruct.iLengthIdx, idatStruct.iLengthEnd - idatStruct.iLengthStart) */\n      swap3\n      swap12\n      pop\n        /* \"contracts/pixel_pictasia_utils.sol\":6022:6131  add2ByteValue(_imageData, idatStruct.iZLIBLengthIdx, idatStruct.iZLIBLengthEnd - idatStruct.iZLIBLengthStart) */\n      tag_160\n      swap3\n        /* \"contracts/pixel_pictasia_utils.sol\":5834:5969  (_imageData, idatStruct.iLengthIdx) = add4ByteValue(_imageData, idatStruct.iLengthIdx, idatStruct.iLengthEnd - idatStruct.iLengthStart) */\n      dup13\n      swap3\n        /* \"contracts/pixel_pictasia_utils.sol\":6048:6073  idatStruct.iZLIBLengthIdx */\n      swap2\n        /* \"contracts/pixel_pictasia_utils.sol\":6075:6130  idatStruct.iZLIBLengthEnd - idatStruct.iZLIBLengthStart */\n      tag_161\n      swap2\n      tag_103\n      jump\t// in\n    tag_161:\n        /* \"contracts/pixel_pictasia_utils.sol\":6022:6035  add2ByteValue */\n      tag_162\n        /* \"contracts/pixel_pictasia_utils.sol\":6022:6131  add2ByteValue(_imageData, idatStruct.iZLIBLengthIdx, idatStruct.iZLIBLengthEnd - idatStruct.iZLIBLengthStart) */\n      jump\t// in\n    tag_160:\n        /* \"contracts/pixel_pictasia_utils.sol\":5993:6018  idatStruct.iZLIBLengthIdx */\n      0x60\n      dup5\n      add\n        /* \"contracts/pixel_pictasia_utils.sol\":5980:6131  (_imageData, idatStruct.iZLIBLengthIdx) = add2ByteValue(_imageData, idatStruct.iZLIBLengthIdx, idatStruct.iZLIBLengthEnd - idatStruct.iZLIBLengthStart) */\n      dup2\n      swap1\n      mstore\n        /* \"contracts/pixel_pictasia_utils.sol\":6274:6301  idatStruct.iZLIBLengthStart */\n      0x80\n      dup5\n      add\n      mload\n        /* \"contracts/pixel_pictasia_utils.sol\":6246:6271  idatStruct.iZLIBLengthEnd */\n      0xa0\n      dup6\n      add\n      mload\n        /* \"contracts/pixel_pictasia_utils.sol\":5980:6131  (_imageData, idatStruct.iZLIBLengthIdx) = add2ByteValue(_imageData, idatStruct.iZLIBLengthIdx, idatStruct.iZLIBLengthEnd - idatStruct.iZLIBLengthStart) */\n      swap3\n      swap12\n      pop\n        /* \"contracts/pixel_pictasia_utils.sol\":6184:6303  add2ByteValue(_imageData, idatStruct.iZLIBLengthIdx, 65535 - (idatStruct.iZLIBLengthEnd - idatStruct.iZLIBLengthStart)) */\n      tag_163\n      swap3\n        /* \"contracts/pixel_pictasia_utils.sol\":5980:6131  (_imageData, idatStruct.iZLIBLengthIdx) = add2ByteValue(_imageData, idatStruct.iZLIBLengthIdx, idatStruct.iZLIBLengthEnd - idatStruct.iZLIBLengthStart) */\n      dup13\n      swap3\n      swap2\n        /* \"contracts/pixel_pictasia_utils.sol\":6246:6301  idatStruct.iZLIBLengthEnd - idatStruct.iZLIBLengthStart */\n      tag_164\n      swap2\n      tag_103\n      jump\t// in\n    tag_164:\n        /* \"contracts/pixel_pictasia_utils.sol\":6237:6302  65535 - (idatStruct.iZLIBLengthEnd - idatStruct.iZLIBLengthStart) */\n      tag_161\n      swap1\n        /* \"contracts/pixel_pictasia_utils.sol\":6237:6242  65535 */\n      0xffff\n        /* \"contracts/pixel_pictasia_utils.sol\":6237:6302  65535 - (idatStruct.iZLIBLengthEnd - idatStruct.iZLIBLengthStart) */\n      tag_103\n      jump\t// in\n        /* \"contracts/pixel_pictasia_utils.sol\":6184:6303  add2ByteValue(_imageData, idatStruct.iZLIBLengthIdx, 65535 - (idatStruct.iZLIBLengthEnd - idatStruct.iZLIBLengthStart)) */\n    tag_163:\n        /* \"contracts/pixel_pictasia_utils.sol\":6155:6180  idatStruct.iZLIBLengthIdx */\n      0x60\n      swap4\n      swap1\n      swap4\n      add\n        /* \"contracts/pixel_pictasia_utils.sol\":6142:6303  (_imageData, idatStruct.iZLIBLengthIdx) = add2ByteValue(_imageData, idatStruct.iZLIBLengthIdx, 65535 - (idatStruct.iZLIBLengthEnd - idatStruct.iZLIBLengthStart)) */\n      swap3\n      swap1\n      swap3\n      mstore\n      pop\n      swap8\n        /* \"contracts/pixel_pictasia_utils.sol\":6336:6338  _i */\n      swap6\n      swap7\n      pop\n      pop\n      pop\n      pop\n      pop\n      pop\n        /* \"contracts/pixel_pictasia_utils.sol\":3886:6347  function addIDATChunck(bytes1[] memory _imageData, uint256 _i, uint256 _width, uint256 _height, PNGData memory pngData) private view returns (bytes1[] memory, uint256) {... */\n      jump\t// out\n        /* \"contracts/pixel_pictasia_utils.sol\":6355:6935  function addIENDChunck(bytes1[] memory _imageData, uint256 _i) private view returns (bytes1[] memory, uint256) {... */\n    tag_28:\n        /* \"contracts/pixel_pictasia_utils.sol\":6440:6455  bytes1[] memory */\n      0x60\n        /* \"contracts/pixel_pictasia_utils.sol\":6457:6464  uint256 */\n      0x00\n        /* \"contracts/pixel_pictasia_utils.sol\":6527:6559  add4ByteValue(_imageData, _i, 0) */\n      tag_167\n        /* \"contracts/pixel_pictasia_utils.sol\":6541:6551  _imageData */\n      dup5\n        /* \"contracts/pixel_pictasia_utils.sol\":6553:6555  _i */\n      dup5\n        /* \"contracts/pixel_pictasia_utils.sol\":6557:6558  0 */\n      0x00\n        /* \"contracts/pixel_pictasia_utils.sol\":6527:6540  add4ByteValue */\n      tag_82\n        /* \"contracts/pixel_pictasia_utils.sol\":6527:6559  add4ByteValue(_imageData, _i, 0) */\n      jump\t// in\n    tag_167:\n        /* \"contracts/pixel_pictasia_utils.sol\":6508:6559  (_imageData, _i) = add4ByteValue(_imageData, _i, 0) */\n      swap1\n      swap5\n      pop\n      swap3\n      pop\n      dup3\n      shl(0xf8, 0x49)\n      dup6\n      dup3\n        /* \"contracts/pixel_pictasia_utils.sol\":6642:6646  _i++ */\n      tag_168\n        /* \"contracts/pixel_pictasia_utils.sol\":6508:6559  (_imageData, _i) = add4ByteValue(_imageData, _i, 0) */\n      dup2\n        /* \"contracts/pixel_pictasia_utils.sol\":6642:6646  _i++ */\n      tag_41\n      jump\t// in\n    tag_168:\n      swap7\n      pop\n        /* \"contracts/pixel_pictasia_utils.sol\":6631:6647  _imageData[_i++] */\n      dup2\n      mload\n      dup2\n      lt\n      tag_170\n      jumpi\n      tag_170\n      tag_37\n      jump\t// in\n    tag_170:\n      not(sub(shl(0xf8, 0x01), 0x01))\n        /* \"contracts/pixel_pictasia_utils.sol\":6631:6657  _imageData[_i++] = hex\"49\" */\n      swap1\n      swap3\n      and\n        /* \"contracts/pixel_pictasia_utils.sol\":6631:6647  _imageData[_i++] */\n      0x20\n      swap3\n      dup4\n      mul\n      swap2\n      swap1\n      swap2\n      add\n      swap1\n      swap2\n      add\n        /* \"contracts/pixel_pictasia_utils.sol\":6631:6657  _imageData[_i++] = hex\"49\" */\n      mstore\n      shl(0xf8, 0x45)\n        /* \"contracts/pixel_pictasia_utils.sol\":6668:6678  _imageData */\n      dup6\n        /* \"contracts/pixel_pictasia_utils.sol\":6679:6683  _i++ */\n      dup6\n      tag_171\n      dup2\n      tag_41\n      jump\t// in\n    tag_171:\n      swap7\n      pop\n        /* \"contracts/pixel_pictasia_utils.sol\":6668:6684  _imageData[_i++] */\n      dup2\n      mload\n      dup2\n      lt\n      tag_173\n      jumpi\n      tag_173\n      tag_37\n      jump\t// in\n    tag_173:\n      not(sub(shl(0xf8, 0x01), 0x01))\n        /* \"contracts/pixel_pictasia_utils.sol\":6668:6694  _imageData[_i++] = hex\"45\" */\n      swap1\n      swap3\n      and\n        /* \"contracts/pixel_pictasia_utils.sol\":6668:6684  _imageData[_i++] */\n      0x20\n      swap3\n      dup4\n      mul\n      swap2\n      swap1\n      swap2\n      add\n      swap1\n      swap2\n      add\n        /* \"contracts/pixel_pictasia_utils.sol\":6668:6694  _imageData[_i++] = hex\"45\" */\n      mstore\n      shl(0xf9, 0x27)\n        /* \"contracts/pixel_pictasia_utils.sol\":6705:6715  _imageData */\n      dup6\n        /* \"contracts/pixel_pictasia_utils.sol\":6716:6720  _i++ */\n      dup6\n      tag_174\n      dup2\n      tag_41\n      jump\t// in\n    tag_174:\n      swap7\n      pop\n        /* \"contracts/pixel_pictasia_utils.sol\":6705:6721  _imageData[_i++] */\n      dup2\n      mload\n      dup2\n      lt\n      tag_176\n      jumpi\n      tag_176\n      tag_37\n      jump\t// in\n    tag_176:\n      not(sub(shl(0xf8, 0x01), 0x01))\n        /* \"contracts/pixel_pictasia_utils.sol\":6705:6731  _imageData[_i++] = hex\"4E\" */\n      swap1\n      swap3\n      and\n        /* \"contracts/pixel_pictasia_utils.sol\":6705:6721  _imageData[_i++] */\n      0x20\n      swap3\n      dup4\n      mul\n      swap2\n      swap1\n      swap2\n      add\n      swap1\n      swap2\n      add\n        /* \"contracts/pixel_pictasia_utils.sol\":6705:6731  _imageData[_i++] = hex\"4E\" */\n      mstore\n      shl(0xfa, 0x11)\n        /* \"contracts/pixel_pictasia_utils.sol\":6742:6752  _imageData */\n      dup6\n        /* \"contracts/pixel_pictasia_utils.sol\":6753:6757  _i++ */\n      dup6\n      tag_177\n      dup2\n      tag_41\n      jump\t// in\n    tag_177:\n      swap7\n      pop\n        /* \"contracts/pixel_pictasia_utils.sol\":6742:6758  _imageData[_i++] */\n      dup2\n      mload\n      dup2\n      lt\n      tag_179\n      jumpi\n      tag_179\n      tag_37\n      jump\t// in\n    tag_179:\n      not(sub(shl(0xf8, 0x01), 0x01))\n        /* \"contracts/pixel_pictasia_utils.sol\":6742:6768  _imageData[_i++] = hex\"44\" */\n      swap1\n      swap3\n      and\n        /* \"contracts/pixel_pictasia_utils.sol\":6742:6758  _imageData[_i++] */\n      0x20\n      swap3\n      dup4\n      mul\n      swap2\n      swap1\n      swap2\n      add\n      swap1\n      swap2\n      add\n        /* \"contracts/pixel_pictasia_utils.sol\":6742:6768  _imageData[_i++] = hex\"44\" */\n      mstore\n        /* \"contracts/pixel_pictasia_utils.sol\":6799:6801  _i */\n      dup4\n        /* \"contracts/pixel_pictasia_utils.sol\":6849:6891  addCRC(_imageData, _i, iCRCStart, iCRCEnd) */\n      tag_180\n        /* \"contracts/pixel_pictasia_utils.sol\":6856:6866  _imageData */\n      dup7\n        /* \"contracts/pixel_pictasia_utils.sol\":6799:6801  _i */\n      dup3\n        /* \"contracts/pixel_pictasia_utils.sol\":6872:6881  iCRCStart */\n      dup5\n        /* \"contracts/pixel_pictasia_utils.sol\":6799:6801  _i */\n      dup2\n        /* \"contracts/pixel_pictasia_utils.sol\":6849:6855  addCRC */\n      tag_100\n        /* \"contracts/pixel_pictasia_utils.sol\":6849:6891  addCRC(_imageData, _i, iCRCStart, iCRCEnd) */\n      jump\t// in\n    tag_180:\n        /* \"contracts/pixel_pictasia_utils.sol\":6830:6891  (_imageData, _i) = addCRC(_imageData, _i, iCRCStart, iCRCEnd) */\n      swap1\n      swap8\n      swap1\n      swap7\n      pop\n        /* \"contracts/pixel_pictasia_utils.sol\":6355:6935  function addIENDChunck(bytes1[] memory _imageData, uint256 _i) private view returns (bytes1[] memory, uint256) {... */\n      swap5\n      pop\n      pop\n      pop\n      pop\n      pop\n      jump\t// out\n        /* \"contracts/pixel_pictasia_utils.sol\":8441:8971  function add4ByteValue(bytes1[] memory _imageData, uint256 _i, uint256 _value) private pure returns (bytes1[] memory, uint256) {... */\n    tag_82:\n        /* \"contracts/pixel_pictasia_utils.sol\":8542:8557  bytes1[] memory */\n      0x60\n        /* \"contracts/pixel_pictasia_utils.sol\":8559:8566  uint256 */\n      0x00\n      not(sub(shl(0xf8, 0x01), 0x01))\n        /* \"contracts/pixel_pictasia_utils.sol\":8688:8730  bytes1(uint8((_value & 0xff000000) >> 24)) */\n      0xe0\n      dup5\n      swap1\n      shl\n      and\n        /* \"contracts/pixel_pictasia_utils.sol\":8669:8679  _imageData */\n      dup6\n        /* \"contracts/pixel_pictasia_utils.sol\":8680:8684  _i++ */\n      dup6\n      tag_182\n      dup2\n      tag_41\n      jump\t// in\n    tag_182:\n      swap7\n      pop\n        /* \"contracts/pixel_pictasia_utils.sol\":8669:8685  _imageData[_i++] */\n      dup2\n      mload\n      dup2\n      lt\n      tag_184\n      jumpi\n      tag_184\n      tag_37\n      jump\t// in\n    tag_184:\n      not(sub(shl(0xf8, 0x01), 0x01))\n        /* \"contracts/pixel_pictasia_utils.sol\":8669:8730  _imageData[_i++] = bytes1(uint8((_value & 0xff000000) >> 24)) */\n      swap3\n      dup4\n      and\n        /* \"contracts/pixel_pictasia_utils.sol\":8669:8685  _imageData[_i++] */\n      0x20\n      swap2\n      dup3\n      mul\n      swap3\n      swap1\n      swap3\n      add\n      add\n        /* \"contracts/pixel_pictasia_utils.sol\":8669:8730  _imageData[_i++] = bytes1(uint8((_value & 0xff000000) >> 24)) */\n      mstore\n        /* \"contracts/pixel_pictasia_utils.sol\":8760:8800  bytes1(uint8((_value & 0xff0000) >> 16)) */\n      0xe8\n      dup5\n      swap1\n      shl\n      and\n        /* \"contracts/pixel_pictasia_utils.sol\":8741:8751  _imageData */\n      dup6\n        /* \"contracts/pixel_pictasia_utils.sol\":8752:8756  _i++ */\n      dup6\n      tag_185\n      dup2\n      tag_41\n      jump\t// in\n    tag_185:\n      swap7\n      pop\n        /* \"contracts/pixel_pictasia_utils.sol\":8741:8757  _imageData[_i++] */\n      dup2\n      mload\n      dup2\n      lt\n      tag_187\n      jumpi\n      tag_187\n      tag_37\n      jump\t// in\n    tag_187:\n      not(sub(shl(0xf8, 0x01), 0x01))\n        /* \"contracts/pixel_pictasia_utils.sol\":8741:8800  _imageData[_i++] = bytes1(uint8((_value & 0xff0000) >> 16)) */\n      swap3\n      dup4\n      and\n        /* \"contracts/pixel_pictasia_utils.sol\":8741:8757  _imageData[_i++] */\n      0x20\n      swap2\n      dup3\n      mul\n      swap3\n      swap1\n      swap3\n      add\n      add\n        /* \"contracts/pixel_pictasia_utils.sol\":8741:8800  _imageData[_i++] = bytes1(uint8((_value & 0xff0000) >> 16)) */\n      mstore\n        /* \"contracts/pixel_pictasia_utils.sol\":8830:8867  bytes1(uint8((_value & 0xff00) >> 8)) */\n      0xf0\n      dup5\n      swap1\n      shl\n      and\n        /* \"contracts/pixel_pictasia_utils.sol\":8811:8821  _imageData */\n      dup6\n        /* \"contracts/pixel_pictasia_utils.sol\":8822:8826  _i++ */\n      dup6\n      tag_188\n      dup2\n      tag_41\n      jump\t// in\n    tag_188:\n      swap7\n      pop\n        /* \"contracts/pixel_pictasia_utils.sol\":8811:8827  _imageData[_i++] */\n      dup2\n      mload\n      dup2\n      lt\n      tag_190\n      jumpi\n      tag_190\n      tag_37\n      jump\t// in\n    tag_190:\n      not(sub(shl(0xf8, 0x01), 0x01))\n        /* \"contracts/pixel_pictasia_utils.sol\":8811:8867  _imageData[_i++] = bytes1(uint8((_value & 0xff00) >> 8)) */\n      swap3\n      dup4\n      and\n        /* \"contracts/pixel_pictasia_utils.sol\":8811:8827  _imageData[_i++] */\n      0x20\n      swap2\n      dup3\n      mul\n      swap3\n      swap1\n      swap3\n      add\n      add\n        /* \"contracts/pixel_pictasia_utils.sol\":8811:8867  _imageData[_i++] = bytes1(uint8((_value & 0xff00) >> 8)) */\n      mstore\n        /* \"contracts/pixel_pictasia_utils.sol\":8897:8927  bytes1(uint8((_value & 0xff))) */\n      0xf8\n      dup5\n      swap1\n      shl\n      and\n        /* \"contracts/pixel_pictasia_utils.sol\":8878:8888  _imageData */\n      dup6\n        /* \"contracts/pixel_pictasia_utils.sol\":8889:8893  _i++ */\n      dup6\n      tag_191\n      dup2\n      tag_41\n      jump\t// in\n    tag_191:\n      swap7\n      pop\n        /* \"contracts/pixel_pictasia_utils.sol\":8878:8894  _imageData[_i++] */\n      dup2\n      mload\n      dup2\n      lt\n      tag_193\n      jumpi\n      tag_193\n      tag_37\n      jump\t// in\n    tag_193:\n      not(sub(shl(0xf8, 0x01), 0x01))\n        /* \"contracts/pixel_pictasia_utils.sol\":8878:8927  _imageData[_i++] = bytes1(uint8((_value & 0xff))) */\n      swap3\n      swap1\n      swap3\n      and\n        /* \"contracts/pixel_pictasia_utils.sol\":8878:8894  _imageData[_i++] */\n      0x20\n      swap3\n      dup4\n      mul\n      swap2\n      swap1\n      swap2\n      add\n      swap1\n      swap2\n      add\n        /* \"contracts/pixel_pictasia_utils.sol\":8878:8927  _imageData[_i++] = bytes1(uint8((_value & 0xff))) */\n      mstore\n      pop\n        /* \"contracts/pixel_pictasia_utils.sol\":8948:8958  _imageData */\n      swap3\n      swap4\n        /* \"contracts/pixel_pictasia_utils.sol\":8960:8962  _i */\n      swap2\n      swap3\n      pop\n      pop\n        /* \"contracts/pixel_pictasia_utils.sol\":8441:8971  function add4ByteValue(bytes1[] memory _imageData, uint256 _i, uint256 _value) private pure returns (bytes1[] memory, uint256) {... */\n      jump\t// out\n        /* \"contracts/pixel_pictasia_utils.sol\":7517:8043  function addCRC(bytes1[] memory _imageData, uint256 _i, uint256 _iCRCStart, uint256 _iCRCEnd) private view returns (bytes1[] memory, uint256) {... */\n    tag_100:\n        /* \"contracts/pixel_pictasia_utils.sol\":7633:7648  bytes1[] memory */\n      0x60\n        /* \"contracts/pixel_pictasia_utils.sol\":7650:7657  uint256 */\n      0x00\n      dup1\n        /* \"contracts/pixel_pictasia_utils.sol\":7682:7703  _iCRCEnd - _iCRCStart */\n      tag_195\n        /* \"contracts/pixel_pictasia_utils.sol\":7693:7703  _iCRCStart */\n      dup6\n        /* \"contracts/pixel_pictasia_utils.sol\":7682:7690  _iCRCEnd */\n      dup6\n        /* \"contracts/pixel_pictasia_utils.sol\":7682:7703  _iCRCEnd - _iCRCStart */\n      tag_103\n      jump\t// in\n    tag_195:\n        /* \"contracts/pixel_pictasia_utils.sol\":7670:7703  uint256 L = _iCRCEnd - _iCRCStart */\n      swap1\n      pop\n        /* \"contracts/pixel_pictasia_utils.sol\":7716:7725  uint256 b */\n      0x00\n        /* \"contracts/pixel_pictasia_utils.sol\":7740:7759  bytes1[] memory buf */\n      dup1\n        /* \"contracts/pixel_pictasia_utils.sol\":7775:7776  L */\n      dup3\n        /* \"contracts/pixel_pictasia_utils.sol\":7762:7777  new bytes1[](L) */\n      0xffffffffffffffff\n      dup2\n      gt\n      iszero\n      tag_197\n      jumpi\n      tag_197\n      tag_19\n      jump\t// in\n    tag_197:\n      mload(0x40)\n      swap1\n      dup1\n      dup3\n      mstore\n      dup1\n      0x20\n      mul\n      0x20\n      add\n      dup3\n      add\n      0x40\n      mstore\n      dup1\n      iszero\n      tag_198\n      jumpi\n      dup2\n      0x20\n      add\n      0x20\n      dup3\n      mul\n      dup1\n      calldatasize\n      dup4\n      calldatacopy\n      add\n      swap1\n      pop\n    tag_198:\n      pop\n        /* \"contracts/pixel_pictasia_utils.sol\":7740:7777  bytes1[] memory buf = new bytes1[](L) */\n      swap1\n      pop\n        /* \"contracts/pixel_pictasia_utils.sol\":7806:7816  _iCRCStart */\n      dup7\n        /* \"contracts/pixel_pictasia_utils.sol\":7790:7888  for(uint256 x = _iCRCStart; x < _iCRCEnd; x++) {... */\n    tag_199:\n        /* \"contracts/pixel_pictasia_utils.sol\":7822:7830  _iCRCEnd */\n      dup7\n        /* \"contracts/pixel_pictasia_utils.sol\":7818:7819  x */\n      dup2\n        /* \"contracts/pixel_pictasia_utils.sol\":7818:7830  x < _iCRCEnd */\n      lt\n        /* \"contracts/pixel_pictasia_utils.sol\":7790:7888  for(uint256 x = _iCRCStart; x < _iCRCEnd; x++) {... */\n      iszero\n      tag_200\n      jumpi\n        /* \"contracts/pixel_pictasia_utils.sol\":7863:7873  _imageData */\n      dup10\n        /* \"contracts/pixel_pictasia_utils.sol\":7874:7875  x */\n      dup2\n        /* \"contracts/pixel_pictasia_utils.sol\":7863:7876  _imageData[x] */\n      dup2\n      mload\n      dup2\n      lt\n      tag_203\n      jumpi\n      tag_203\n      tag_37\n      jump\t// in\n    tag_203:\n      0x20\n      mul\n      0x20\n      add\n      add\n      mload\n        /* \"contracts/pixel_pictasia_utils.sol\":7852:7855  buf */\n      dup3\n        /* \"contracts/pixel_pictasia_utils.sol\":7856:7859  b++ */\n      dup5\n      dup1\n      tag_204\n      swap1\n      tag_41\n      jump\t// in\n    tag_204:\n      swap6\n      pop\n        /* \"contracts/pixel_pictasia_utils.sol\":7852:7860  buf[b++] */\n      dup2\n      mload\n      dup2\n      lt\n      tag_206\n      jumpi\n      tag_206\n      tag_37\n      jump\t// in\n    tag_206:\n      not(sub(shl(0xf8, 0x01), 0x01))\n        /* \"contracts/pixel_pictasia_utils.sol\":7852:7876  buf[b++] = _imageData[x] */\n      swap1\n      swap3\n      and\n        /* \"contracts/pixel_pictasia_utils.sol\":7852:7860  buf[b++] */\n      0x20\n      swap3\n      dup4\n      mul\n      swap2\n      swap1\n      swap2\n      add\n      swap1\n      swap2\n      add\n        /* \"contracts/pixel_pictasia_utils.sol\":7852:7876  buf[b++] = _imageData[x] */\n      mstore\n        /* \"contracts/pixel_pictasia_utils.sol\":7832:7835  x++ */\n      dup1\n      tag_207\n      dup2\n      tag_41\n      jump\t// in\n    tag_207:\n      swap2\n      pop\n      pop\n        /* \"contracts/pixel_pictasia_utils.sol\":7790:7888  for(uint256 x = _iCRCStart; x < _iCRCEnd; x++) {... */\n      jump(tag_199)\n    tag_200:\n      pop\n        /* \"contracts/pixel_pictasia_utils.sol\":7900:7916  uint256 crcValue */\n      0x00\n        /* \"contracts/pixel_pictasia_utils.sol\":7919:7930  crc(buf, L) */\n      tag_208\n        /* \"contracts/pixel_pictasia_utils.sol\":7923:7926  buf */\n      dup3\n        /* \"contracts/pixel_pictasia_utils.sol\":7928:7929  L */\n      dup6\n        /* \"contracts/pixel_pictasia_utils.sol\":7919:7922  crc */\n      tag_209\n        /* \"contracts/pixel_pictasia_utils.sol\":7919:7930  crc(buf, L) */\n      jump\t// in\n    tag_208:\n        /* \"contracts/pixel_pictasia_utils.sol\":7900:7930  uint256 crcValue = crc(buf, L) */\n      swap1\n      pop\n        /* \"contracts/pixel_pictasia_utils.sol\":7960:7999  add4ByteValue(_imageData, _i, crcValue) */\n      tag_210\n        /* \"contracts/pixel_pictasia_utils.sol\":7974:7984  _imageData */\n      dup11\n        /* \"contracts/pixel_pictasia_utils.sol\":7986:7988  _i */\n      dup11\n        /* \"contracts/pixel_pictasia_utils.sol\":7990:7998  crcValue */\n      dup4\n        /* \"contracts/pixel_pictasia_utils.sol\":7960:7973  add4ByteValue */\n      tag_82\n        /* \"contracts/pixel_pictasia_utils.sol\":7960:7999  add4ByteValue(_imageData, _i, crcValue) */\n      jump\t// in\n    tag_210:\n        /* \"contracts/pixel_pictasia_utils.sol\":7941:7999  (_imageData, _i) = add4ByteValue(_imageData, _i, crcValue) */\n      swap1\n      swap12\n      swap1\n      swap11\n      pop\n        /* \"contracts/pixel_pictasia_utils.sol\":7517:8043  function addCRC(bytes1[] memory _imageData, uint256 _i, uint256 _iCRCStart, uint256 _iCRCEnd) private view returns (bytes1[] memory, uint256) {... */\n      swap9\n      pop\n      pop\n      pop\n      pop\n      pop\n      pop\n      pop\n      pop\n      pop\n      jump\t// out\n        /* \"contracts/pixel_pictasia_utils.sol\":6943:7509  function addADLER32(bytes1[] memory _imageData, uint256 _i, uint256 _iADLER32Start, uint256 _iADLER32End) private pure returns (bytes1[] memory, uint256) {... */\n    tag_156:\n        /* \"contracts/pixel_pictasia_utils.sol\":7071:7086  bytes1[] memory */\n      0x60\n        /* \"contracts/pixel_pictasia_utils.sol\":7088:7095  uint256 */\n      0x00\n      dup1\n        /* \"contracts/pixel_pictasia_utils.sol\":7120:7149  _iADLER32End - _iADLER32Start */\n      tag_212\n        /* \"contracts/pixel_pictasia_utils.sol\":7135:7149  _iADLER32Start */\n      dup6\n        /* \"contracts/pixel_pictasia_utils.sol\":7120:7132  _iADLER32End */\n      dup6\n        /* \"contracts/pixel_pictasia_utils.sol\":7120:7149  _iADLER32End - _iADLER32Start */\n      tag_103\n      jump\t// in\n    tag_212:\n        /* \"contracts/pixel_pictasia_utils.sol\":7108:7149  uint256 L = _iADLER32End - _iADLER32Start */\n      swap1\n      pop\n        /* \"contracts/pixel_pictasia_utils.sol\":7162:7171  uint256 b */\n      0x00\n        /* \"contracts/pixel_pictasia_utils.sol\":7186:7205  bytes1[] memory buf */\n      dup1\n        /* \"contracts/pixel_pictasia_utils.sol\":7221:7222  L */\n      dup3\n        /* \"contracts/pixel_pictasia_utils.sol\":7208:7223  new bytes1[](L) */\n      0xffffffffffffffff\n      dup2\n      gt\n      iszero\n      tag_214\n      jumpi\n      tag_214\n      tag_19\n      jump\t// in\n    tag_214:\n      mload(0x40)\n      swap1\n      dup1\n      dup3\n      mstore\n      dup1\n      0x20\n      mul\n      0x20\n      add\n      dup3\n      add\n      0x40\n      mstore\n      dup1\n      iszero\n      tag_215\n      jumpi\n      dup2\n      0x20\n      add\n      0x20\n      dup3\n      mul\n      dup1\n      calldatasize\n      dup4\n      calldatacopy\n      add\n      swap1\n      pop\n    tag_215:\n      pop\n        /* \"contracts/pixel_pictasia_utils.sol\":7186:7223  bytes1[] memory buf = new bytes1[](L) */\n      swap1\n      pop\n        /* \"contracts/pixel_pictasia_utils.sol\":7252:7266  _iADLER32Start */\n      dup7\n        /* \"contracts/pixel_pictasia_utils.sol\":7236:7342  for(uint256 x = _iADLER32Start; x < _iADLER32End; x++) {... */\n    tag_216:\n        /* \"contracts/pixel_pictasia_utils.sol\":7272:7284  _iADLER32End */\n      dup7\n        /* \"contracts/pixel_pictasia_utils.sol\":7268:7269  x */\n      dup2\n        /* \"contracts/pixel_pictasia_utils.sol\":7268:7284  x < _iADLER32End */\n      lt\n        /* \"contracts/pixel_pictasia_utils.sol\":7236:7342  for(uint256 x = _iADLER32Start; x < _iADLER32End; x++) {... */\n      iszero\n      tag_217\n      jumpi\n        /* \"contracts/pixel_pictasia_utils.sol\":7317:7327  _imageData */\n      dup10\n        /* \"contracts/pixel_pictasia_utils.sol\":7328:7329  x */\n      dup2\n        /* \"contracts/pixel_pictasia_utils.sol\":7317:7330  _imageData[x] */\n      dup2\n      mload\n      dup2\n      lt\n      tag_220\n      jumpi\n      tag_220\n      tag_37\n      jump\t// in\n    tag_220:\n      0x20\n      mul\n      0x20\n      add\n      add\n      mload\n        /* \"contracts/pixel_pictasia_utils.sol\":7306:7309  buf */\n      dup3\n        /* \"contracts/pixel_pictasia_utils.sol\":7310:7313  b++ */\n      dup5\n      dup1\n      tag_221\n      swap1\n      tag_41\n      jump\t// in\n    tag_221:\n      swap6\n      pop\n        /* \"contracts/pixel_pictasia_utils.sol\":7306:7314  buf[b++] */\n      dup2\n      mload\n      dup2\n      lt\n      tag_223\n      jumpi\n      tag_223\n      tag_37\n      jump\t// in\n    tag_223:\n      not(sub(shl(0xf8, 0x01), 0x01))\n        /* \"contracts/pixel_pictasia_utils.sol\":7306:7330  buf[b++] = _imageData[x] */\n      swap1\n      swap3\n      and\n        /* \"contracts/pixel_pictasia_utils.sol\":7306:7314  buf[b++] */\n      0x20\n      swap3\n      dup4\n      mul\n      swap2\n      swap1\n      swap2\n      add\n      swap1\n      swap2\n      add\n        /* \"contracts/pixel_pictasia_utils.sol\":7306:7330  buf[b++] = _imageData[x] */\n      mstore\n        /* \"contracts/pixel_pictasia_utils.sol\":7286:7289  x++ */\n      dup1\n      tag_224\n      dup2\n      tag_41\n      jump\t// in\n    tag_224:\n      swap2\n      pop\n      pop\n        /* \"contracts/pixel_pictasia_utils.sol\":7236:7342  for(uint256 x = _iADLER32Start; x < _iADLER32End; x++) {... */\n      jump(tag_216)\n    tag_217:\n      pop\n        /* \"contracts/pixel_pictasia_utils.sol\":7354:7374  uint256 adler32Value */\n      0x00\n        /* \"contracts/pixel_pictasia_utils.sol\":7377:7392  adler32(buf, L) */\n      tag_208\n        /* \"contracts/pixel_pictasia_utils.sol\":7385:7388  buf */\n      dup3\n        /* \"contracts/pixel_pictasia_utils.sol\":7390:7391  L */\n      dup6\n        /* \"contracts/pixel_pictasia_utils.sol\":7377:7384  adler32 */\n      tag_226\n        /* \"contracts/pixel_pictasia_utils.sol\":7377:7392  adler32(buf, L) */\n      jump\t// in\n        /* \"contracts/pixel_pictasia_utils.sol\":8051:8433  function add2ByteValue(bytes1[] memory _imageData, uint256 _i, uint256 _value) private pure returns (bytes1[] memory, uint256) {... */\n    tag_162:\n        /* \"contracts/pixel_pictasia_utils.sol\":8152:8167  bytes1[] memory */\n      0x60\n        /* \"contracts/pixel_pictasia_utils.sol\":8169:8176  uint256 */\n      0x00\n      not(sub(shl(0xf8, 0x01), 0x01))\n        /* \"contracts/pixel_pictasia_utils.sol\":8292:8329  bytes1(uint8((_value & 0xff00) >> 8)) */\n      0xf0\n      dup5\n      swap1\n      shl\n      and\n        /* \"contracts/pixel_pictasia_utils.sol\":8273:8283  _imageData */\n      dup6\n        /* \"contracts/pixel_pictasia_utils.sol\":8284:8288  _i++ */\n      dup6\n      tag_188\n      dup2\n      tag_41\n      jump\t// in\n        /* \"contracts/pixel_pictasia_utils.sol\":9025:9178  function crc(bytes1[] memory _buf, uint256 _len) private view returns (uint256) {... */\n    tag_209:\n        /* \"contracts/pixel_pictasia_utils.sol\":9096:9103  uint256 */\n      0x00\n        /* \"contracts/pixel_pictasia_utils.sol\":9123:9157  update_crc(4294967295, _buf, _len) */\n      tag_236\n        /* \"contracts/pixel_pictasia_utils.sol\":9134:9144  4294967295 */\n      0xffffffff\n        /* \"contracts/pixel_pictasia_utils.sol\":9146:9150  _buf */\n      dup5\n        /* \"contracts/pixel_pictasia_utils.sol\":9152:9156  _len */\n      dup5\n        /* \"contracts/pixel_pictasia_utils.sol\":9123:9133  update_crc */\n      tag_237\n        /* \"contracts/pixel_pictasia_utils.sol\":9123:9157  update_crc(4294967295, _buf, _len) */\n      jump\t// in\n    tag_236:\n        /* \"contracts/pixel_pictasia_utils.sol\":9160:9170  4294967295 */\n      0xffffffff\n        /* \"contracts/pixel_pictasia_utils.sol\":9123:9170  update_crc(4294967295, _buf, _len) ^ 4294967295 */\n      xor\n        /* \"contracts/pixel_pictasia_utils.sol\":9116:9170  return update_crc(4294967295, _buf, _len) ^ 4294967295 */\n      swap1\n      pop\n        /* \"contracts/pixel_pictasia_utils.sol\":9025:9178  function crc(bytes1[] memory _buf, uint256 _len) private view returns (uint256) {... */\n    tag_235:\n      swap3\n      swap2\n      pop\n      pop\n      jump\t// out\n        /* \"contracts/pixel_pictasia_utils.sol\":9186:9494  function adler32(bytes1[] memory _buf, uint256 _len) private pure returns (uint256) {... */\n    tag_226:\n        /* \"contracts/pixel_pictasia_utils.sol\":9261:9268  uint256 */\n      0x00\n        /* \"contracts/pixel_pictasia_utils.sol\":9293:9294  1 */\n      0x01\n        /* \"contracts/pixel_pictasia_utils.sol\":9261:9268  uint256 */\n      dup2\n      dup1\n        /* \"contracts/pixel_pictasia_utils.sol\":9339:9446  for(uint256 i = 0; i < _len; i++) {... */\n    tag_239:\n        /* \"contracts/pixel_pictasia_utils.sol\":9362:9366  _len */\n      dup5\n        /* \"contracts/pixel_pictasia_utils.sol\":9358:9359  i */\n      dup2\n        /* \"contracts/pixel_pictasia_utils.sol\":9358:9366  i < _len */\n      lt\n        /* \"contracts/pixel_pictasia_utils.sol\":9339:9446  for(uint256 i = 0; i < _len; i++) {... */\n      iszero\n      tag_240\n      jumpi\n        /* \"contracts/pixel_pictasia_utils.sol\":9402:9406  _buf */\n      dup6\n        /* \"contracts/pixel_pictasia_utils.sol\":9407:9408  i */\n      dup2\n        /* \"contracts/pixel_pictasia_utils.sol\":9402:9409  _buf[i] */\n      dup2\n      mload\n      dup2\n      lt\n      tag_243\n      jumpi\n      tag_243\n      tag_37\n      jump\t// in\n    tag_243:\n      0x20\n      mul\n      0x20\n      add\n      add\n      mload\n        /* \"contracts/pixel_pictasia_utils.sol\":9396:9410  uint8(_buf[i]) */\n      0xf8\n      shr\n        /* \"contracts/pixel_pictasia_utils.sol\":9392:9410  A + uint8(_buf[i]) */\n      0xff\n      and\n        /* \"contracts/pixel_pictasia_utils.sol\":9392:9393  A */\n      dup4\n        /* \"contracts/pixel_pictasia_utils.sol\":9392:9410  A + uint8(_buf[i]) */\n      tag_244\n      swap2\n      swap1\n      tag_15\n      jump\t// in\n    tag_244:\n        /* \"contracts/pixel_pictasia_utils.sol\":9388:9410  A = A + uint8(_buf[i]) */\n      swap3\n      pop\n        /* \"contracts/pixel_pictasia_utils.sol\":9429:9434  B + A */\n      tag_245\n        /* \"contracts/pixel_pictasia_utils.sol\":9388:9410  A = A + uint8(_buf[i]) */\n      dup4\n        /* \"contracts/pixel_pictasia_utils.sol\":9429:9430  B */\n      dup4\n        /* \"contracts/pixel_pictasia_utils.sol\":9429:9434  B + A */\n      tag_15\n      jump\t// in\n    tag_245:\n        /* \"contracts/pixel_pictasia_utils.sol\":9425:9434  B = B + A */\n      swap2\n      pop\n        /* \"contracts/pixel_pictasia_utils.sol\":9368:9371  i++ */\n      dup1\n      tag_246\n      dup2\n      tag_41\n      jump\t// in\n    tag_246:\n      swap2\n      pop\n      pop\n        /* \"contracts/pixel_pictasia_utils.sol\":9339:9446  for(uint256 i = 0; i < _len; i++) {... */\n      jump(tag_239)\n    tag_240:\n      pop\n        /* \"contracts/pixel_pictasia_utils.sol\":9485:9486  A */\n      dup2\n        /* \"contracts/pixel_pictasia_utils.sol\":9473:9482  B * 65536 */\n      tag_247\n        /* \"contracts/pixel_pictasia_utils.sol\":9473:9474  B */\n      dup3\n        /* \"contracts/pixel_pictasia_utils.sol\":9477:9482  65536 */\n      0x010000\n        /* \"contracts/pixel_pictasia_utils.sol\":9473:9482  B * 65536 */\n      tag_12\n      jump\t// in\n    tag_247:\n        /* \"contracts/pixel_pictasia_utils.sol\":9473:9486  B * 65536 + A */\n      tag_248\n      swap2\n      swap1\n      tag_15\n      jump\t// in\n    tag_248:\n        /* \"contracts/pixel_pictasia_utils.sol\":9466:9486  return B * 65536 + A */\n      swap6\n        /* \"contracts/pixel_pictasia_utils.sol\":9186:9494  function adler32(bytes1[] memory _buf, uint256 _len) private pure returns (uint256) {... */\n      swap5\n      pop\n      pop\n      pop\n      pop\n      pop\n      jump\t// out\n        /* \"contracts/pixel_pictasia_utils.sol\":9906:10197  function update_crc(uint256 _crc, bytes1[] memory _buf, uint256 _len) private view returns (uint256) {... */\n    tag_237:\n        /* \"contracts/pixel_pictasia_utils.sol\":9998:10005  uint256 */\n      0x00\n        /* \"contracts/pixel_pictasia_utils.sol\":10030:10034  _crc */\n      dup4\n        /* \"contracts/pixel_pictasia_utils.sol\":9998:10005  uint256 */\n      dup2\n        /* \"contracts/pixel_pictasia_utils.sol\":10047:10161  for (uint256 n = 0; n < _len; n++) {... */\n    tag_250:\n        /* \"contracts/pixel_pictasia_utils.sol\":10071:10075  _len */\n      dup4\n        /* \"contracts/pixel_pictasia_utils.sol\":10067:10068  n */\n      dup2\n        /* \"contracts/pixel_pictasia_utils.sol\":10067:10075  n < _len */\n      lt\n        /* \"contracts/pixel_pictasia_utils.sol\":10047:10161  for (uint256 n = 0; n < _len; n++) {... */\n      iszero\n      tag_251\n      jumpi\n        /* \"contracts/pixel_pictasia_utils.sol\":10147:10148  8 */\n      0x08\n        /* \"contracts/pixel_pictasia_utils.sol\":10142:10143  c */\n      dup3\n        /* \"contracts/pixel_pictasia_utils.sol\":10142:10148  c >> 8 */\n      swap1\n      shr\n        /* \"contracts/pixel_pictasia_utils.sol\":10101:10110  CRC_TABLE */\n      0x00\n        /* \"contracts/pixel_pictasia_utils.sol\":10122:10126  _buf */\n      dup7\n        /* \"contracts/pixel_pictasia_utils.sol\":10127:10128  n */\n      dup4\n        /* \"contracts/pixel_pictasia_utils.sol\":10122:10129  _buf[n] */\n      dup2\n      mload\n      dup2\n      lt\n      tag_254\n      jumpi\n      tag_254\n      tag_37\n      jump\t// in\n    tag_254:\n      0x20\n      mul\n      0x20\n      add\n      add\n      mload\n        /* \"contracts/pixel_pictasia_utils.sol\":10116:10130  uint8(_buf[n]) */\n      0xf8\n      shr\n        /* \"contracts/pixel_pictasia_utils.sol\":10112:10130  c ^ uint8(_buf[n]) */\n      0xff\n      and\n        /* \"contracts/pixel_pictasia_utils.sol\":10112:10113  c */\n      dup5\n        /* \"contracts/pixel_pictasia_utils.sol\":10112:10130  c ^ uint8(_buf[n]) */\n      xor\n        /* \"contracts/pixel_pictasia_utils.sol\":10134:10137  255 */\n      0xff\n        /* \"contracts/pixel_pictasia_utils.sol\":10111:10137  (c ^ uint8(_buf[n])) & 255 */\n      and\n        /* \"contracts/pixel_pictasia_utils.sol\":10101:10138  CRC_TABLE[(c ^ uint8(_buf[n])) & 255] */\n      0x0100\n      dup2\n      lt\n      tag_256\n      jumpi\n      tag_256\n      tag_37\n      jump\t// in\n    tag_256:\n      add\n      sload\n        /* \"contracts/pixel_pictasia_utils.sol\":10101:10149  CRC_TABLE[(c ^ uint8(_buf[n])) & 255] ^ (c >> 8) */\n      xor\n      swap2\n      pop\n        /* \"contracts/pixel_pictasia_utils.sol\":10077:10080  n++ */\n      dup1\n      tag_258\n      dup2\n      tag_41\n      jump\t// in\n    tag_258:\n      swap2\n      pop\n      pop\n        /* \"contracts/pixel_pictasia_utils.sol\":10047:10161  for (uint256 n = 0; n < _len; n++) {... */\n      jump(tag_250)\n    tag_251:\n      pop\n        /* \"contracts/pixel_pictasia_utils.sol\":10188:10189  c */\n      swap5\n        /* \"contracts/pixel_pictasia_utils.sol\":9906:10197  function update_crc(uint256 _crc, bytes1[] memory _buf, uint256 _len) private view returns (uint256) {... */\n      swap4\n      pop\n      pop\n      pop\n      pop\n      jump\t// out\n        /* \"#utility.yul\":14:141   */\n    tag_19:\n        /* \"#utility.yul\":75:85   */\n      0x4e487b71\n        /* \"#utility.yul\":70:73   */\n      0xe0\n        /* \"#utility.yul\":66:86   */\n      shl\n        /* \"#utility.yul\":63:64   */\n      0x00\n        /* \"#utility.yul\":56:87   */\n      mstore\n        /* \"#utility.yul\":106:110   */\n      0x41\n        /* \"#utility.yul\":103:104   */\n      0x04\n        /* \"#utility.yul\":96:111   */\n      mstore\n        /* \"#utility.yul\":130:134   */\n      0x24\n        /* \"#utility.yul\":127:128   */\n      0x00\n        /* \"#utility.yul\":120:135   */\n      revert\n        /* \"#utility.yul\":146:396   */\n    tag_259:\n        /* \"#utility.yul\":217:219   */\n      0x40\n        /* \"#utility.yul\":211:220   */\n      mload\n        /* \"#utility.yul\":259:261   */\n      0x60\n        /* \"#utility.yul\":247:262   */\n      dup2\n      add\n        /* \"#utility.yul\":292:310   */\n      0xffffffffffffffff\n        /* \"#utility.yul\":277:311   */\n      dup2\n      gt\n        /* \"#utility.yul\":313:335   */\n      dup3\n      dup3\n      lt\n        /* \"#utility.yul\":274:336   */\n      or\n        /* \"#utility.yul\":271:359   */\n      iszero\n      tag_267\n      jumpi\n        /* \"#utility.yul\":339:357   */\n      tag_267\n      tag_19\n      jump\t// in\n    tag_267:\n        /* \"#utility.yul\":375:377   */\n      0x40\n        /* \"#utility.yul\":368:390   */\n      mstore\n        /* \"#utility.yul\":146:396   */\n      swap1\n      jump\t// out\n        /* \"#utility.yul\":401:676   */\n    tag_260:\n        /* \"#utility.yul\":472:474   */\n      0x40\n        /* \"#utility.yul\":466:475   */\n      mload\n        /* \"#utility.yul\":537:539   */\n      0x1f\n        /* \"#utility.yul\":518:531   */\n      dup3\n      add\n      not(0x1f)\n        /* \"#utility.yul\":514:541   */\n      and\n        /* \"#utility.yul\":502:542   */\n      dup2\n      add\n        /* \"#utility.yul\":572:590   */\n      0xffffffffffffffff\n        /* \"#utility.yul\":557:591   */\n      dup2\n      gt\n        /* \"#utility.yul\":593:615   */\n      dup3\n      dup3\n      lt\n        /* \"#utility.yul\":554:616   */\n      or\n        /* \"#utility.yul\":551:639   */\n      iszero\n      tag_270\n      jumpi\n        /* \"#utility.yul\":619:637   */\n      tag_270\n      tag_19\n      jump\t// in\n    tag_270:\n        /* \"#utility.yul\":655:657   */\n      0x40\n        /* \"#utility.yul\":648:670   */\n      mstore\n        /* \"#utility.yul\":401:676   */\n      swap2\n      swap1\n      pop\n      jump\t// out\n        /* \"#utility.yul\":681:1570   */\n    tag_261:\n        /* \"#utility.yul\":734:739   */\n      0x00\n        /* \"#utility.yul\":787:790   */\n      dup3\n        /* \"#utility.yul\":780:784   */\n      0x1f\n        /* \"#utility.yul\":772:778   */\n      dup4\n        /* \"#utility.yul\":768:785   */\n      add\n        /* \"#utility.yul\":764:791   */\n      slt\n        /* \"#utility.yul\":754:809   */\n      tag_272\n      jumpi\n        /* \"#utility.yul\":805:806   */\n      0x00\n        /* \"#utility.yul\":802:803   */\n      dup1\n        /* \"#utility.yul\":795:807   */\n      revert\n        /* \"#utility.yul\":754:809   */\n    tag_272:\n        /* \"#utility.yul\":841:847   */\n      dup2\n        /* \"#utility.yul\":828:848   */\n      calldataload\n        /* \"#utility.yul\":867:871   */\n      0x20\n        /* \"#utility.yul\":890:908   */\n      0xffffffffffffffff\n        /* \"#utility.yul\":886:888   */\n      dup3\n        /* \"#utility.yul\":883:909   */\n      gt\n        /* \"#utility.yul\":880:932   */\n      iszero\n      tag_274\n      jumpi\n        /* \"#utility.yul\":912:930   */\n      tag_274\n      tag_19\n      jump\t// in\n    tag_274:\n        /* \"#utility.yul\":958:960   */\n      dup2\n        /* \"#utility.yul\":955:956   */\n      0x05\n        /* \"#utility.yul\":951:961   */\n      shl\n        /* \"#utility.yul\":981:1009   */\n      tag_275\n        /* \"#utility.yul\":1005:1007   */\n      dup3\n        /* \"#utility.yul\":1001:1003   */\n      dup3\n        /* \"#utility.yul\":997:1008   */\n      add\n        /* \"#utility.yul\":981:1009   */\n      tag_260\n      jump\t// in\n    tag_275:\n        /* \"#utility.yul\":1043:1058   */\n      swap3\n      dup4\n      mstore\n        /* \"#utility.yul\":1113:1128   */\n      dup5\n      dup2\n      add\n        /* \"#utility.yul\":1109:1133   */\n      dup3\n      add\n      swap3\n        /* \"#utility.yul\":1074:1086   */\n      dup3\n      dup2\n      add\n      swap1\n        /* \"#utility.yul\":1145:1160   */\n      dup8\n      dup6\n      gt\n        /* \"#utility.yul\":1142:1177   */\n      iszero\n      tag_276\n      jumpi\n        /* \"#utility.yul\":1173:1174   */\n      0x00\n        /* \"#utility.yul\":1170:1171   */\n      dup1\n        /* \"#utility.yul\":1163:1175   */\n      revert\n        /* \"#utility.yul\":1142:1177   */\n    tag_276:\n        /* \"#utility.yul\":1209:1211   */\n      dup4\n        /* \"#utility.yul\":1201:1207   */\n      dup8\n        /* \"#utility.yul\":1197:1212   */\n      add\n        /* \"#utility.yul\":1186:1212   */\n      swap3\n      pop\n        /* \"#utility.yul\":1221:1541   */\n    tag_277:\n        /* \"#utility.yul\":1237:1243   */\n      dup5\n        /* \"#utility.yul\":1232:1235   */\n      dup4\n        /* \"#utility.yul\":1229:1244   */\n      lt\n        /* \"#utility.yul\":1221:1541   */\n      iszero\n      tag_279\n      jumpi\n        /* \"#utility.yul\":1304:1321   */\n      dup3\n      calldataload\n      not(sub(shl(0xf8, 0x01), 0x01))\n        /* \"#utility.yul\":1354:1379   */\n      dup2\n      and\n        /* \"#utility.yul\":1344:1380   */\n      dup2\n      eq\n        /* \"#utility.yul\":1334:1468   */\n      tag_280\n      jumpi\n        /* \"#utility.yul\":1422:1423   */\n      0x00\n        /* \"#utility.yul\":1451:1453   */\n      dup1\n        /* \"#utility.yul\":1447:1449   */\n      dup2\n        /* \"#utility.yul\":1440:1454   */\n      revert\n        /* \"#utility.yul\":1334:1468   */\n    tag_280:\n        /* \"#utility.yul\":1481:1499   */\n      dup3\n      mstore\n        /* \"#utility.yul\":1254:1266   */\n      swap2\n      dup4\n      add\n      swap2\n        /* \"#utility.yul\":1519:1531   */\n      swap1\n      dup4\n      add\n      swap1\n        /* \"#utility.yul\":1221:1541   */\n      jump(tag_277)\n    tag_279:\n        /* \"#utility.yul\":1559:1564   */\n      swap8\n        /* \"#utility.yul\":681:1570   */\n      swap7\n      pop\n      pop\n      pop\n      pop\n      pop\n      pop\n      pop\n      jump\t// out\n        /* \"#utility.yul\":1575:2691   */\n    tag_6:\n        /* \"#utility.yul\":1675:1681   */\n      0x00\n        /* \"#utility.yul\":1683:1689   */\n      dup1\n        /* \"#utility.yul\":1691:1697   */\n      0x00\n        /* \"#utility.yul\":1744:1746   */\n      0x60\n        /* \"#utility.yul\":1732:1741   */\n      dup5\n        /* \"#utility.yul\":1723:1730   */\n      dup7\n        /* \"#utility.yul\":1719:1742   */\n      sub\n        /* \"#utility.yul\":1715:1747   */\n      slt\n        /* \"#utility.yul\":1712:1764   */\n      iszero\n      tag_282\n      jumpi\n        /* \"#utility.yul\":1760:1761   */\n      0x00\n        /* \"#utility.yul\":1757:1758   */\n      dup1\n        /* \"#utility.yul\":1750:1762   */\n      revert\n        /* \"#utility.yul\":1712:1764   */\n    tag_282:\n        /* \"#utility.yul\":1796:1805   */\n      dup4\n        /* \"#utility.yul\":1783:1806   */\n      calldataload\n        /* \"#utility.yul\":1773:1806   */\n      swap3\n      pop\n        /* \"#utility.yul\":1853:1855   */\n      0x20\n        /* \"#utility.yul\":1842:1851   */\n      dup5\n        /* \"#utility.yul\":1838:1856   */\n      add\n        /* \"#utility.yul\":1825:1857   */\n      calldataload\n        /* \"#utility.yul\":1815:1857   */\n      swap2\n      pop\n        /* \"#utility.yul\":1908:1910   */\n      0x40\n        /* \"#utility.yul\":1897:1906   */\n      dup5\n        /* \"#utility.yul\":1893:1911   */\n      add\n        /* \"#utility.yul\":1880:1912   */\n      calldataload\n        /* \"#utility.yul\":1931:1949   */\n      0xffffffffffffffff\n        /* \"#utility.yul\":1972:1974   */\n      dup1\n        /* \"#utility.yul\":1964:1970   */\n      dup3\n        /* \"#utility.yul\":1961:1975   */\n      gt\n        /* \"#utility.yul\":1958:1992   */\n      iszero\n      tag_283\n      jumpi\n        /* \"#utility.yul\":1988:1989   */\n      0x00\n        /* \"#utility.yul\":1985:1986   */\n      dup1\n        /* \"#utility.yul\":1978:1990   */\n      revert\n        /* \"#utility.yul\":1958:1992   */\n    tag_283:\n        /* \"#utility.yul\":2011:2033   */\n      swap1\n      dup6\n      add\n      swap1\n        /* \"#utility.yul\":2067:2069   */\n      0x60\n        /* \"#utility.yul\":2049:2065   */\n      dup3\n      dup9\n      sub\n        /* \"#utility.yul\":2045:2070   */\n      slt\n        /* \"#utility.yul\":2042:2087   */\n      iszero\n      tag_284\n      jumpi\n        /* \"#utility.yul\":2083:2084   */\n      0x00\n        /* \"#utility.yul\":2080:2081   */\n      dup1\n        /* \"#utility.yul\":2073:2085   */\n      revert\n        /* \"#utility.yul\":2042:2087   */\n    tag_284:\n        /* \"#utility.yul\":2109:2130   */\n      tag_285\n      tag_259\n      jump\t// in\n    tag_285:\n        /* \"#utility.yul\":2168:2170   */\n      dup3\n        /* \"#utility.yul\":2155:2171   */\n      calldataload\n        /* \"#utility.yul\":2196:2198   */\n      dup3\n        /* \"#utility.yul\":2186:2194   */\n      dup2\n        /* \"#utility.yul\":2183:2199   */\n      gt\n        /* \"#utility.yul\":2180:2216   */\n      iszero\n      tag_286\n      jumpi\n        /* \"#utility.yul\":2212:2213   */\n      0x00\n        /* \"#utility.yul\":2209:2210   */\n      dup1\n        /* \"#utility.yul\":2202:2214   */\n      revert\n        /* \"#utility.yul\":2180:2216   */\n    tag_286:\n        /* \"#utility.yul\":2239:2294   */\n      tag_287\n        /* \"#utility.yul\":2286:2293   */\n      dup10\n        /* \"#utility.yul\":2275:2283   */\n      dup3\n        /* \"#utility.yul\":2271:2273   */\n      dup7\n        /* \"#utility.yul\":2267:2284   */\n      add\n        /* \"#utility.yul\":2239:2294   */\n      tag_261\n      jump\t// in\n    tag_287:\n        /* \"#utility.yul\":2232:2237   */\n      dup3\n        /* \"#utility.yul\":2225:2295   */\n      mstore\n      pop\n        /* \"#utility.yul\":2341:2343   */\n      0x20\n        /* \"#utility.yul\":2337:2339   */\n      dup4\n        /* \"#utility.yul\":2333:2344   */\n      add\n        /* \"#utility.yul\":2320:2345   */\n      calldataload\n        /* \"#utility.yul\":2370:2372   */\n      dup3\n        /* \"#utility.yul\":2360:2368   */\n      dup2\n        /* \"#utility.yul\":2357:2373   */\n      gt\n        /* \"#utility.yul\":2354:2390   */\n      iszero\n      tag_288\n      jumpi\n        /* \"#utility.yul\":2386:2387   */\n      0x00\n        /* \"#utility.yul\":2383:2384   */\n      dup1\n        /* \"#utility.yul\":2376:2388   */\n      revert\n        /* \"#utility.yul\":2354:2390   */\n    tag_288:\n        /* \"#utility.yul\":2422:2477   */\n      tag_289\n        /* \"#utility.yul\":2469:2476   */\n      dup10\n        /* \"#utility.yul\":2458:2466   */\n      dup3\n        /* \"#utility.yul\":2454:2456   */\n      dup7\n        /* \"#utility.yul\":2450:2467   */\n      add\n        /* \"#utility.yul\":2422:2477   */\n      tag_261\n      jump\t// in\n    tag_289:\n        /* \"#utility.yul\":2417:2419   */\n      0x20\n        /* \"#utility.yul\":2410:2415   */\n      dup4\n        /* \"#utility.yul\":2406:2420   */\n      add\n        /* \"#utility.yul\":2399:2478   */\n      mstore\n      pop\n        /* \"#utility.yul\":2524:2526   */\n      0x40\n        /* \"#utility.yul\":2520:2522   */\n      dup4\n        /* \"#utility.yul\":2516:2527   */\n      add\n        /* \"#utility.yul\":2503:2528   */\n      calldataload\n        /* \"#utility.yul\":2553:2555   */\n      dup3\n        /* \"#utility.yul\":2543:2551   */\n      dup2\n        /* \"#utility.yul\":2540:2556   */\n      gt\n        /* \"#utility.yul\":2537:2573   */\n      iszero\n      tag_290\n      jumpi\n        /* \"#utility.yul\":2569:2570   */\n      0x00\n        /* \"#utility.yul\":2566:2567   */\n      dup1\n        /* \"#utility.yul\":2559:2571   */\n      revert\n        /* \"#utility.yul\":2537:2573   */\n    tag_290:\n        /* \"#utility.yul\":2605:2660   */\n      tag_291\n        /* \"#utility.yul\":2652:2659   */\n      dup10\n        /* \"#utility.yul\":2641:2649   */\n      dup3\n        /* \"#utility.yul\":2637:2639   */\n      dup7\n        /* \"#utility.yul\":2633:2650   */\n      add\n        /* \"#utility.yul\":2605:2660   */\n      tag_261\n      jump\t// in\n    tag_291:\n        /* \"#utility.yul\":2600:2602   */\n      0x40\n        /* \"#utility.yul\":2593:2598   */\n      dup4\n        /* \"#utility.yul\":2589:2603   */\n      add\n        /* \"#utility.yul\":2582:2661   */\n      mstore\n      pop\n        /* \"#utility.yul\":2680:2685   */\n      dup1\n        /* \"#utility.yul\":2670:2685   */\n      swap4\n      pop\n      pop\n      pop\n      pop\n        /* \"#utility.yul\":1575:2691   */\n      swap3\n      pop\n      swap3\n      pop\n      swap3\n      jump\t// out\n        /* \"#utility.yul\":2696:3242   */\n    tag_9:\n        /* \"#utility.yul\":2806:2810   */\n      0x00\n        /* \"#utility.yul\":2835:2837   */\n      0x20\n        /* \"#utility.yul\":2864:2866   */\n      dup1\n        /* \"#utility.yul\":2853:2862   */\n      dup4\n        /* \"#utility.yul\":2846:2867   */\n      mstore\n        /* \"#utility.yul\":2896:2902   */\n      dup4\n        /* \"#utility.yul\":2890:2903   */\n      mload\n        /* \"#utility.yul\":2939:2945   */\n      dup1\n        /* \"#utility.yul\":2934:2936   */\n      dup3\n        /* \"#utility.yul\":2923:2932   */\n      dup6\n        /* \"#utility.yul\":2919:2937   */\n      add\n        /* \"#utility.yul\":2912:2946   */\n      mstore\n        /* \"#utility.yul\":2964:2965   */\n      0x00\n        /* \"#utility.yul\":2974:3114   */\n    tag_293:\n        /* \"#utility.yul\":2988:2994   */\n      dup2\n        /* \"#utility.yul\":2985:2986   */\n      dup2\n        /* \"#utility.yul\":2982:2995   */\n      lt\n        /* \"#utility.yul\":2974:3114   */\n      iszero\n      tag_295\n      jumpi\n        /* \"#utility.yul\":3083:3097   */\n      dup6\n      dup2\n      add\n        /* \"#utility.yul\":3079:3102   */\n      dup4\n      add\n        /* \"#utility.yul\":3073:3103   */\n      mload\n        /* \"#utility.yul\":3049:3066   */\n      dup6\n      dup3\n      add\n        /* \"#utility.yul\":3068:3070   */\n      0x40\n        /* \"#utility.yul\":3045:3071   */\n      add\n        /* \"#utility.yul\":3038:3104   */\n      mstore\n        /* \"#utility.yul\":3003:3013   */\n      dup3\n      add\n        /* \"#utility.yul\":2974:3114   */\n      jump(tag_293)\n    tag_295:\n        /* \"#utility.yul\":2978:2981   */\n      pop\n        /* \"#utility.yul\":3163:3164   */\n      0x00\n        /* \"#utility.yul\":3158:3160   */\n      0x40\n        /* \"#utility.yul\":3149:3155   */\n      dup3\n        /* \"#utility.yul\":3138:3147   */\n      dup7\n        /* \"#utility.yul\":3134:3156   */\n      add\n        /* \"#utility.yul\":3130:3161   */\n      add\n        /* \"#utility.yul\":3123:3165   */\n      mstore\n        /* \"#utility.yul\":3233:3235   */\n      0x40\n        /* \"#utility.yul\":3226:3228   */\n      0x1f\n        /* \"#utility.yul\":3222:3229   */\n      not\n        /* \"#utility.yul\":3217:3219   */\n      0x1f\n        /* \"#utility.yul\":3209:3215   */\n      dup4\n        /* \"#utility.yul\":3205:3220   */\n      add\n        /* \"#utility.yul\":3201:3230   */\n      and\n        /* \"#utility.yul\":3190:3199   */\n      dup6\n        /* \"#utility.yul\":3186:3231   */\n      add\n        /* \"#utility.yul\":3182:3236   */\n      add\n        /* \"#utility.yul\":3174:3236   */\n      swap3\n      pop\n      pop\n      pop\n        /* \"#utility.yul\":2696:3242   */\n      swap3\n      swap2\n      pop\n      pop\n      jump\t// out\n        /* \"#utility.yul\":3247:3374   */\n    tag_262:\n        /* \"#utility.yul\":3308:3318   */\n      0x4e487b71\n        /* \"#utility.yul\":3303:3306   */\n      0xe0\n        /* \"#utility.yul\":3299:3319   */\n      shl\n        /* \"#utility.yul\":3296:3297   */\n      0x00\n        /* \"#utility.yul\":3289:3320   */\n      mstore\n        /* \"#utility.yul\":3339:3343   */\n      0x11\n        /* \"#utility.yul\":3336:3337   */\n      0x04\n        /* \"#utility.yul\":3329:3344   */\n      mstore\n        /* \"#utility.yul\":3363:3367   */\n      0x24\n        /* \"#utility.yul\":3360:3361   */\n      0x00\n        /* \"#utility.yul\":3353:3368   */\n      revert\n        /* \"#utility.yul\":3379:3547   */\n    tag_12:\n        /* \"#utility.yul\":3452:3461   */\n      dup1\n      dup3\n      mul\n        /* \"#utility.yul\":3483:3492   */\n      dup2\n      iszero\n        /* \"#utility.yul\":3500:3515   */\n      dup3\n      dup3\n      div\n        /* \"#utility.yul\":3494:3516   */\n      dup5\n      eq\n        /* \"#utility.yul\":3480:3517   */\n      or\n        /* \"#utility.yul\":3470:3541   */\n      tag_235\n      jumpi\n        /* \"#utility.yul\":3521:3539   */\n      tag_235\n      tag_262\n      jump\t// in\n        /* \"#utility.yul\":3552:3677   */\n    tag_15:\n        /* \"#utility.yul\":3617:3626   */\n      dup1\n      dup3\n      add\n        /* \"#utility.yul\":3638:3648   */\n      dup1\n      dup3\n      gt\n        /* \"#utility.yul\":3635:3671   */\n      iszero\n      tag_235\n      jumpi\n        /* \"#utility.yul\":3651:3669   */\n      tag_235\n      tag_262\n      jump\t// in\n        /* \"#utility.yul\":3682:3809   */\n    tag_37:\n        /* \"#utility.yul\":3743:3753   */\n      0x4e487b71\n        /* \"#utility.yul\":3738:3741   */\n      0xe0\n        /* \"#utility.yul\":3734:3754   */\n      shl\n        /* \"#utility.yul\":3731:3732   */\n      0x00\n        /* \"#utility.yul\":3724:3755   */\n      mstore\n        /* \"#utility.yul\":3774:3778   */\n      0x32\n        /* \"#utility.yul\":3771:3772   */\n      0x04\n        /* \"#utility.yul\":3764:3779   */\n      mstore\n        /* \"#utility.yul\":3798:3802   */\n      0x24\n        /* \"#utility.yul\":3795:3796   */\n      0x00\n        /* \"#utility.yul\":3788:3803   */\n      revert\n        /* \"#utility.yul\":3814:3949   */\n    tag_41:\n        /* \"#utility.yul\":3853:3856   */\n      0x00\n        /* \"#utility.yul\":3874:3891   */\n      0x01\n      dup3\n      add\n        /* \"#utility.yul\":3871:3914   */\n      tag_306\n      jumpi\n        /* \"#utility.yul\":3894:3912   */\n      tag_306\n      tag_262\n      jump\t// in\n    tag_306:\n      pop\n        /* \"#utility.yul\":3941:3942   */\n      0x01\n        /* \"#utility.yul\":3930:3943   */\n      add\n      swap1\n        /* \"#utility.yul\":3814:3949   */\n      jump\t// out\n        /* \"#utility.yul\":3954:4082   */\n    tag_103:\n        /* \"#utility.yul\":4021:4030   */\n      dup2\n      dup2\n      sub\n        /* \"#utility.yul\":4042:4053   */\n      dup2\n      dup2\n      gt\n        /* \"#utility.yul\":4039:4076   */\n      iszero\n      tag_235\n      jumpi\n        /* \"#utility.yul\":4056:4074   */\n      tag_235\n      tag_262\n      jump\t// in\n\n    auxdata: 0xa26469706673582212207f9d5b65f77d30a52c347d515b9a798c2d5b00bb4e0a25d2c36a914fea46733c64736f6c63430008120033\n}\n",
				"bytecode": {
					"linkReferences": {},
					"object": "60806040526200000e62000014565b620000de565b60005b6101008110156200009d578060005b60088110156200006c57816001166001036200004f57600182901c63edb8832018915062000057565b600182901c91505b806200006381620000a0565b91505062000026565b50806000836101008110620000855762000085620000c8565b015550806200009481620000a0565b91505062000017565b50565b600060018201620000c157634e487b7160e01b600052601160045260246000fd5b5060010190565b634e487b7160e01b600052603260045260246000fd5b61127680620000ee6000396000f3fe608060405234801561001057600080fd5b506004361061002b5760003560e01c8063f6d57f9e14610030575b600080fd5b61004361003e3660046110a6565b610059565b6040516100509190611170565b60405180910390f35b60606000808461006a8760036111d4565b61007491906111d4565b61007f8660506111eb565b61008991906111eb565b67ffffffffffffffff8111156100a1576100a1610f9f565b6040519080825280602002602001820160405280156100ca578160200160208202803683370190505b5090506100d781836101bd565b925090506100e7818388886103a2565b925090506100f88183888888610617565b925090506101068183610a9a565b9250905060008267ffffffffffffffff81111561012557610125610f9f565b6040519080825280601f01601f19166020018201604052801561014f576020820181803683370190505b50905060005b838110156101b25782818151811061016f5761016f6111fe565b6020026020010151828281518110610189576101896111fe565b60200101906001600160f81b031916908160001a905350806101aa81611214565b915050610155565b509695505050505050565b60606000608960f81b84846101d181611214565b9550815181106101e3576101e36111fe565b6001600160f81b031990921660209283029190910190910152600560fc1b848461020c81611214565b95508151811061021e5761021e6111fe565b6001600160f81b031990921660209283029190910190910152602760f91b848461024781611214565b955081518110610259576102596111fe565b6001600160f81b031990921660209283029190910190910152604760f81b848461028281611214565b955081518110610294576102946111fe565b6001600160f81b031990921660209283029190910190910152600d60f81b84846102bd81611214565b9550815181106102cf576102cf6111fe565b6001600160f81b031990921660209283029190910190910152600560f91b84846102f881611214565b95508151811061030a5761030a6111fe565b6001600160f81b031990921660209283029190910190910152600d60f91b848461033381611214565b955081518110610345576103456111fe565b6001600160f81b031990921660209283029190910190910152600560f91b848461036e81611214565b955081518110610380576103806111fe565b6001600160f81b03199290921660209283029190910190910152509192909150565b60606000846103b26004826111eb565b955085604960f81b88826103c581611214565b9950815181106103d7576103d76111fe565b6001600160f81b031990921660209283029190910190910152600960fb1b888861040081611214565b995081518110610412576104126111fe565b6001600160f81b031990921660209283029190910190910152601160fa1b888861043b81611214565b99508151811061044d5761044d6111fe565b6001600160f81b031990921660209283029190910190910152602960f91b888861047681611214565b995081518110610488576104886111fe565b6001600160f81b031990921660209283029190910190910152866104ad898289610bb6565b90995097506104bd898988610bb6565b9099509750600160fb1b89896104d281611214565b9a50815181106104e4576104e46111fe565b6001600160f81b031990921660209283029190910190910152600160f91b898961050d81611214565b9a508151811061051f5761051f6111fe565b6001600160f81b0319909216602092830291909101909101526000898961054581611214565b9a5081518110610557576105576111fe565b6001600160f81b0319909216602092830291909101909101526000898961057d81611214565b9a508151811061058f5761058f6111fe565b6001600160f81b031990921660209283029190910190910152600089896105b581611214565b9a50815181106105c7576105c76111fe565b6001600160f81b03199092166020928302919091019091015287806105ee8b828681610cb7565b909b5099506106078b86610602868661122d565b610bb6565b509b999a50505050505050505050565b604080516101408101825260006020820181905291810182905260608181018390526080820183905260a0820183905260c0820183905260e082018390526101008201839052610120820183905286825291906106756004886111eb565b61010082018190529650604960f81b888861068f81611214565b9950815181106106a1576106a16111fe565b6001600160f81b031990921660209283029190910190910152601160fa1b88886106ca81611214565b9950815181106106dc576106dc6111fe565b6001600160f81b031990921660209283029190910190910152604160f81b888861070581611214565b995081518110610717576107176111fe565b6001600160f81b031990921660209283029190910190910152601560fa1b888861074081611214565b995081518110610752576107526111fe565b6001600160f81b03199092166020928302919091018201528101879052600f60fb1b888861077f81611214565b995081518110610791576107916111fe565b6001600160f81b031990921660209283029190910190910152600160f81b88886107ba81611214565b9950815181106107cc576107cc6111fe565b6001600160f81b031990921660209283029190910190910152600160f81b88886107f581611214565b995081518110610807576108076111fe565b6001600160f81b031990921660209283029190910190910152606081018790526108326004886111eb565b60c082018190526080820181905296506000805b868110156109c05760008a8a61085b81611214565b9b508151811061086d5761086d6111fe565b6001600160f81b03199092166020928302919091019091015260005b888110156109ad5786518051849081106108a5576108a56111fe565b60200260200101518b8b806108b990611214565b9c50815181106108cb576108cb6111fe565b6001600160f81b03199092166020928302919091018201528701518051849081106108f8576108f86111fe565b60200260200101518b8b8061090c90611214565b9c508151811061091e5761091e6111fe565b6001600160f81b031990921660209283029190910190910152604087015180518490811061094e5761094e6111fe565b60200260200101518b8b8061096290611214565b9c5081518110610974576109746111fe565b6001600160f81b0319909216602092830291909101909101528261099781611214565b93505080806109a590611214565b915050610889565b50806109b881611214565b915050610846565b5060e0820188905260a0820188905260c08201516109e2908a908a9081610da8565b604084018190526101208401819052610100840151919a509850610a0a908a908a9081610cb7565b835160208501516040860151939c50919a50610a2b928c926106029161122d565b83526060830151608084015160a0850151929b50610a54928c9291610a4f9161122d565b610e7b565b60608401819052608084015160a0850151929b50610a84928c9291610a789161122d565b610a4f9061ffff61122d565b6060939093019290925250979596505050505050565b60606000610aaa84846000610bb6565b909450925082604960f81b8582610ac081611214565b965081518110610ad257610ad26111fe565b6001600160f81b031990921660209283029190910190910152604560f81b8585610afb81611214565b965081518110610b0d57610b0d6111fe565b6001600160f81b031990921660209283029190910190910152602760f91b8585610b3681611214565b965081518110610b4857610b486111fe565b6001600160f81b031990921660209283029190910190910152601160fa1b8585610b7181611214565b965081518110610b8357610b836111fe565b6001600160f81b03199092166020928302919091019091015283610ba986828481610cb7565b9097909650945050505050565b606060006001600160f81b031960e084901b168585610bd481611214565b965081518110610be657610be66111fe565b6001600160f81b0319928316602091820292909201015260e884901b168585610c0e81611214565b965081518110610c2057610c206111fe565b6001600160f81b0319928316602091820292909201015260f084901b168585610c4881611214565b965081518110610c5a57610c5a6111fe565b6001600160f81b0319928316602091820292909201015260f884901b168585610c8281611214565b965081518110610c9457610c946111fe565b6001600160f81b0319929092166020928302919091019091015250929391925050565b6060600080610cc6858561122d565b90506000808267ffffffffffffffff811115610ce457610ce4610f9f565b604051908082528060200260200182016040528015610d0d578160200160208202803683370190505b509050865b86811015610d7d57898181518110610d2c57610d2c6111fe565b6020026020010151828480610d4090611214565b955081518110610d5257610d526111fe565b6001600160f81b03199092166020928302919091019091015280610d7581611214565b915050610d12565b506000610d8a8285610e99565b9050610d978a8a83610bb6565b909b909a5098505050505050505050565b6060600080610db7858561122d565b90506000808267ffffffffffffffff811115610dd557610dd5610f9f565b604051908082528060200260200182016040528015610dfe578160200160208202803683370190505b509050865b86811015610e6e57898181518110610e1d57610e1d6111fe565b6020026020010151828480610e3190611214565b955081518110610e4357610e436111fe565b6001600160f81b03199092166020928302919091019091015280610e6681611214565b915050610e03565b506000610d8a8285610eb9565b606060006001600160f81b031960f084901b168585610c4881611214565b6000610eaa63ffffffff8484610f35565b63ffffffff1890505b92915050565b6000600181805b84811015610f1357858181518110610eda57610eda6111fe565b602002602001015160f81c60ff1683610ef391906111eb565b9250610eff83836111eb565b915080610f0b81611214565b915050610ec0565b5081610f2282620100006111d4565b610f2c91906111eb565b95945050505050565b600083815b83811015610f9657600882901c6000868381518110610f5b57610f5b6111fe565b602002602001015160f81c60ff16841860ff166101008110610f7f57610f7f6111fe565b015418915080610f8e81611214565b915050610f3a565b50949350505050565b634e487b7160e01b600052604160045260246000fd5b6040516060810167ffffffffffffffff81118282101715610fd857610fd8610f9f565b60405290565b604051601f8201601f1916810167ffffffffffffffff8111828210171561100757611007610f9f565b604052919050565b600082601f83011261102057600080fd5b8135602067ffffffffffffffff82111561103c5761103c610f9f565b8160051b61104b828201610fde565b928352848101820192828101908785111561106557600080fd5b83870192505b8483101561109b5782356001600160f81b03198116811461108c5760008081fd5b8252918301919083019061106b565b979650505050505050565b6000806000606084860312156110bb57600080fd5b8335925060208401359150604084013567ffffffffffffffff808211156110e157600080fd5b90850190606082880312156110f557600080fd5b6110fd610fb5565b82358281111561110c57600080fd5b6111188982860161100f565b82525060208301358281111561112d57600080fd5b6111398982860161100f565b60208301525060408301358281111561115157600080fd5b61115d8982860161100f565b6040830152508093505050509250925092565b600060208083528351808285015260005b8181101561119d57858101830151858201604001528201611181565b506000604082860101526040601f19601f8301168501019250505092915050565b634e487b7160e01b600052601160045260246000fd5b8082028115828204841417610eb357610eb36111be565b80820180821115610eb357610eb36111be565b634e487b7160e01b600052603260045260246000fd5b600060018201611226576112266111be565b5060010190565b81810381811115610eb357610eb36111be56fea26469706673582212207f9d5b65f77d30a52c347d515b9a798c2d5b00bb4e0a25d2c36a914fea46733c64736f6c63430008120033",
					"opcodes": "PUSH1 0x80 PUSH1 0x40 MSTORE PUSH3 0xE PUSH3 0x14 JUMP JUMPDEST PUSH3 0xDE JUMP JUMPDEST PUSH1 0x0 JUMPDEST PUSH2 0x100 DUP2 LT ISZERO PUSH3 0x9D JUMPI DUP1 PUSH1 0x0 JUMPDEST PUSH1 0x8 DUP2 LT ISZERO PUSH3 0x6C JUMPI DUP2 PUSH1 0x1 AND PUSH1 0x1 SUB PUSH3 0x4F JUMPI PUSH1 0x1 DUP3 SWAP1 SHR PUSH4 0xEDB88320 XOR SWAP2 POP PUSH3 0x57 JUMP JUMPDEST PUSH1 0x1 DUP3 SWAP1 SHR SWAP2 POP JUMPDEST DUP1 PUSH3 0x63 DUP2 PUSH3 0xA0 JUMP JUMPDEST SWAP2 POP POP PUSH3 0x26 JUMP JUMPDEST POP DUP1 PUSH1 0x0 DUP4 PUSH2 0x100 DUP2 LT PUSH3 0x85 JUMPI PUSH3 0x85 PUSH3 0xC8 JUMP JUMPDEST ADD SSTORE POP DUP1 PUSH3 0x94 DUP2 PUSH3 0xA0 JUMP JUMPDEST SWAP2 POP POP PUSH3 0x17 JUMP JUMPDEST POP JUMP JUMPDEST PUSH1 0x0 PUSH1 0x1 DUP3 ADD PUSH3 0xC1 JUMPI PUSH4 0x4E487B71 PUSH1 0xE0 SHL PUSH1 0x0 MSTORE PUSH1 0x11 PUSH1 0x4 MSTORE PUSH1 0x24 PUSH1 0x0 REVERT JUMPDEST POP PUSH1 0x1 ADD SWAP1 JUMP JUMPDEST PUSH4 0x4E487B71 PUSH1 0xE0 SHL PUSH1 0x0 MSTORE PUSH1 0x32 PUSH1 0x4 MSTORE PUSH1 0x24 PUSH1 0x0 REVERT JUMPDEST PUSH2 0x1276 DUP1 PUSH3 0xEE PUSH1 0x0 CODECOPY PUSH1 0x0 RETURN INVALID PUSH1 0x80 PUSH1 0x40 MSTORE CALLVALUE DUP1 ISZERO PUSH2 0x10 JUMPI PUSH1 0x0 DUP1 REVERT JUMPDEST POP PUSH1 0x4 CALLDATASIZE LT PUSH2 0x2B JUMPI PUSH1 0x0 CALLDATALOAD PUSH1 0xE0 SHR DUP1 PUSH4 0xF6D57F9E EQ PUSH2 0x30 JUMPI JUMPDEST PUSH1 0x0 DUP1 REVERT JUMPDEST PUSH2 0x43 PUSH2 0x3E CALLDATASIZE PUSH1 0x4 PUSH2 0x10A6 JUMP JUMPDEST PUSH2 0x59 JUMP JUMPDEST PUSH1 0x40 MLOAD PUSH2 0x50 SWAP2 SWAP1 PUSH2 0x1170 JUMP JUMPDEST PUSH1 0x40 MLOAD DUP1 SWAP2 SUB SWAP1 RETURN JUMPDEST PUSH1 0x60 PUSH1 0x0 DUP1 DUP5 PUSH2 0x6A DUP8 PUSH1 0x3 PUSH2 0x11D4 JUMP JUMPDEST PUSH2 0x74 SWAP2 SWAP1 PUSH2 0x11D4 JUMP JUMPDEST PUSH2 0x7F DUP7 PUSH1 0x50 PUSH2 0x11EB JUMP JUMPDEST PUSH2 0x89 SWAP2 SWAP1 PUSH2 0x11EB JUMP JUMPDEST PUSH8 0xFFFFFFFFFFFFFFFF DUP2 GT ISZERO PUSH2 0xA1 JUMPI PUSH2 0xA1 PUSH2 0xF9F JUMP JUMPDEST PUSH1 0x40 MLOAD SWAP1 DUP1 DUP3 MSTORE DUP1 PUSH1 0x20 MUL PUSH1 0x20 ADD DUP3 ADD PUSH1 0x40 MSTORE DUP1 ISZERO PUSH2 0xCA JUMPI DUP2 PUSH1 0x20 ADD PUSH1 0x20 DUP3 MUL DUP1 CALLDATASIZE DUP4 CALLDATACOPY ADD SWAP1 POP JUMPDEST POP SWAP1 POP PUSH2 0xD7 DUP2 DUP4 PUSH2 0x1BD JUMP JUMPDEST SWAP3 POP SWAP1 POP PUSH2 0xE7 DUP2 DUP4 DUP9 DUP9 PUSH2 0x3A2 JUMP JUMPDEST SWAP3 POP SWAP1 POP PUSH2 0xF8 DUP2 DUP4 DUP9 DUP9 DUP9 PUSH2 0x617 JUMP JUMPDEST SWAP3 POP SWAP1 POP PUSH2 0x106 DUP2 DUP4 PUSH2 0xA9A JUMP JUMPDEST SWAP3 POP SWAP1 POP PUSH1 0x0 DUP3 PUSH8 0xFFFFFFFFFFFFFFFF DUP2 GT ISZERO PUSH2 0x125 JUMPI PUSH2 0x125 PUSH2 0xF9F JUMP JUMPDEST PUSH1 0x40 MLOAD SWAP1 DUP1 DUP3 MSTORE DUP1 PUSH1 0x1F ADD PUSH1 0x1F NOT AND PUSH1 0x20 ADD DUP3 ADD PUSH1 0x40 MSTORE DUP1 ISZERO PUSH2 0x14F JUMPI PUSH1 0x20 DUP3 ADD DUP2 DUP1 CALLDATASIZE DUP4 CALLDATACOPY ADD SWAP1 POP JUMPDEST POP SWAP1 POP PUSH1 0x0 JUMPDEST DUP4 DUP2 LT ISZERO PUSH2 0x1B2 JUMPI DUP3 DUP2 DUP2 MLOAD DUP2 LT PUSH2 0x16F JUMPI PUSH2 0x16F PUSH2 0x11FE JUMP JUMPDEST PUSH1 0x20 MUL PUSH1 0x20 ADD ADD MLOAD DUP3 DUP3 DUP2 MLOAD DUP2 LT PUSH2 0x189 JUMPI PUSH2 0x189 PUSH2 0x11FE JUMP JUMPDEST PUSH1 0x20 ADD ADD SWAP1 PUSH1 0x1 PUSH1 0x1 PUSH1 0xF8 SHL SUB NOT AND SWAP1 DUP2 PUSH1 0x0 BYTE SWAP1 MSTORE8 POP DUP1 PUSH2 0x1AA DUP2 PUSH2 0x1214 JUMP JUMPDEST SWAP2 POP POP PUSH2 0x155 JUMP JUMPDEST POP SWAP7 SWAP6 POP POP POP POP POP POP JUMP JUMPDEST PUSH1 0x60 PUSH1 0x0 PUSH1 0x89 PUSH1 0xF8 SHL DUP5 DUP5 PUSH2 0x1D1 DUP2 PUSH2 0x1214 JUMP JUMPDEST SWAP6 POP DUP2 MLOAD DUP2 LT PUSH2 0x1E3 JUMPI PUSH2 0x1E3 PUSH2 0x11FE JUMP JUMPDEST PUSH1 0x1 PUSH1 0x1 PUSH1 0xF8 SHL SUB NOT SWAP1 SWAP3 AND PUSH1 0x20 SWAP3 DUP4 MUL SWAP2 SWAP1 SWAP2 ADD SWAP1 SWAP2 ADD MSTORE PUSH1 0x5 PUSH1 0xFC SHL DUP5 DUP5 PUSH2 0x20C DUP2 PUSH2 0x1214 JUMP JUMPDEST SWAP6 POP DUP2 MLOAD DUP2 LT PUSH2 0x21E JUMPI PUSH2 0x21E PUSH2 0x11FE JUMP JUMPDEST PUSH1 0x1 PUSH1 0x1 PUSH1 0xF8 SHL SUB NOT SWAP1 SWAP3 AND PUSH1 0x20 SWAP3 DUP4 MUL SWAP2 SWAP1 SWAP2 ADD SWAP1 SWAP2 ADD MSTORE PUSH1 0x27 PUSH1 0xF9 SHL DUP5 DUP5 PUSH2 0x247 DUP2 PUSH2 0x1214 JUMP JUMPDEST SWAP6 POP DUP2 MLOAD DUP2 LT PUSH2 0x259 JUMPI PUSH2 0x259 PUSH2 0x11FE JUMP JUMPDEST PUSH1 0x1 PUSH1 0x1 PUSH1 0xF8 SHL SUB NOT SWAP1 SWAP3 AND PUSH1 0x20 SWAP3 DUP4 MUL SWAP2 SWAP1 SWAP2 ADD SWAP1 SWAP2 ADD MSTORE PUSH1 0x47 PUSH1 0xF8 SHL DUP5 DUP5 PUSH2 0x282 DUP2 PUSH2 0x1214 JUMP JUMPDEST SWAP6 POP DUP2 MLOAD DUP2 LT PUSH2 0x294 JUMPI PUSH2 0x294 PUSH2 0x11FE JUMP JUMPDEST PUSH1 0x1 PUSH1 0x1 PUSH1 0xF8 SHL SUB NOT SWAP1 SWAP3 AND PUSH1 0x20 SWAP3 DUP4 MUL SWAP2 SWAP1 SWAP2 ADD SWAP1 SWAP2 ADD MSTORE PUSH1 0xD PUSH1 0xF8 SHL DUP5 DUP5 PUSH2 0x2BD DUP2 PUSH2 0x1214 JUMP JUMPDEST SWAP6 POP DUP2 MLOAD DUP2 LT PUSH2 0x2CF JUMPI PUSH2 0x2CF PUSH2 0x11FE JUMP JUMPDEST PUSH1 0x1 PUSH1 0x1 PUSH1 0xF8 SHL SUB NOT SWAP1 SWAP3 AND PUSH1 0x20 SWAP3 DUP4 MUL SWAP2 SWAP1 SWAP2 ADD SWAP1 SWAP2 ADD MSTORE PUSH1 0x5 PUSH1 0xF9 SHL DUP5 DUP5 PUSH2 0x2F8 DUP2 PUSH2 0x1214 JUMP JUMPDEST SWAP6 POP DUP2 MLOAD DUP2 LT PUSH2 0x30A JUMPI PUSH2 0x30A PUSH2 0x11FE JUMP JUMPDEST PUSH1 0x1 PUSH1 0x1 PUSH1 0xF8 SHL SUB NOT SWAP1 SWAP3 AND PUSH1 0x20 SWAP3 DUP4 MUL SWAP2 SWAP1 SWAP2 ADD SWAP1 SWAP2 ADD MSTORE PUSH1 0xD PUSH1 0xF9 SHL DUP5 DUP5 PUSH2 0x333 DUP2 PUSH2 0x1214 JUMP JUMPDEST SWAP6 POP DUP2 MLOAD DUP2 LT PUSH2 0x345 JUMPI PUSH2 0x345 PUSH2 0x11FE JUMP JUMPDEST PUSH1 0x1 PUSH1 0x1 PUSH1 0xF8 SHL SUB NOT SWAP1 SWAP3 AND PUSH1 0x20 SWAP3 DUP4 MUL SWAP2 SWAP1 SWAP2 ADD SWAP1 SWAP2 ADD MSTORE PUSH1 0x5 PUSH1 0xF9 SHL DUP5 DUP5 PUSH2 0x36E DUP2 PUSH2 0x1214 JUMP JUMPDEST SWAP6 POP DUP2 MLOAD DUP2 LT PUSH2 0x380 JUMPI PUSH2 0x380 PUSH2 0x11FE JUMP JUMPDEST PUSH1 0x1 PUSH1 0x1 PUSH1 0xF8 SHL SUB NOT SWAP3 SWAP1 SWAP3 AND PUSH1 0x20 SWAP3 DUP4 MUL SWAP2 SWAP1 SWAP2 ADD SWAP1 SWAP2 ADD MSTORE POP SWAP2 SWAP3 SWAP1 SWAP2 POP JUMP JUMPDEST PUSH1 0x60 PUSH1 0x0 DUP5 PUSH2 0x3B2 PUSH1 0x4 DUP3 PUSH2 0x11EB JUMP JUMPDEST SWAP6 POP DUP6 PUSH1 0x49 PUSH1 0xF8 SHL DUP9 DUP3 PUSH2 0x3C5 DUP2 PUSH2 0x1214 JUMP JUMPDEST SWAP10 POP DUP2 MLOAD DUP2 LT PUSH2 0x3D7 JUMPI PUSH2 0x3D7 PUSH2 0x11FE JUMP JUMPDEST PUSH1 0x1 PUSH1 0x1 PUSH1 0xF8 SHL SUB NOT SWAP1 SWAP3 AND PUSH1 0x20 SWAP3 DUP4 MUL SWAP2 SWAP1 SWAP2 ADD SWAP1 SWAP2 ADD MSTORE PUSH1 0x9 PUSH1 0xFB SHL DUP9 DUP9 PUSH2 0x400 DUP2 PUSH2 0x1214 JUMP JUMPDEST SWAP10 POP DUP2 MLOAD DUP2 LT PUSH2 0x412 JUMPI PUSH2 0x412 PUSH2 0x11FE JUMP JUMPDEST PUSH1 0x1 PUSH1 0x1 PUSH1 0xF8 SHL SUB NOT SWAP1 SWAP3 AND PUSH1 0x20 SWAP3 DUP4 MUL SWAP2 SWAP1 SWAP2 ADD SWAP1 SWAP2 ADD MSTORE PUSH1 0x11 PUSH1 0xFA SHL DUP9 DUP9 PUSH2 0x43B DUP2 PUSH2 0x1214 JUMP JUMPDEST SWAP10 POP DUP2 MLOAD DUP2 LT PUSH2 0x44D JUMPI PUSH2 0x44D PUSH2 0x11FE JUMP JUMPDEST PUSH1 0x1 PUSH1 0x1 PUSH1 0xF8 SHL SUB NOT SWAP1 SWAP3 AND PUSH1 0x20 SWAP3 DUP4 MUL SWAP2 SWAP1 SWAP2 ADD SWAP1 SWAP2 ADD MSTORE PUSH1 0x29 PUSH1 0xF9 SHL DUP9 DUP9 PUSH2 0x476 DUP2 PUSH2 0x1214 JUMP JUMPDEST SWAP10 POP DUP2 MLOAD DUP2 LT PUSH2 0x488 JUMPI PUSH2 0x488 PUSH2 0x11FE JUMP JUMPDEST PUSH1 0x1 PUSH1 0x1 PUSH1 0xF8 SHL SUB NOT SWAP1 SWAP3 AND PUSH1 0x20 SWAP3 DUP4 MUL SWAP2 SWAP1 SWAP2 ADD SWAP1 SWAP2 ADD MSTORE DUP7 PUSH2 0x4AD DUP10 DUP3 DUP10 PUSH2 0xBB6 JUMP JUMPDEST SWAP1 SWAP10 POP SWAP8 POP PUSH2 0x4BD DUP10 DUP10 DUP9 PUSH2 0xBB6 JUMP JUMPDEST SWAP1 SWAP10 POP SWAP8 POP PUSH1 0x1 PUSH1 0xFB SHL DUP10 DUP10 PUSH2 0x4D2 DUP2 PUSH2 0x1214 JUMP JUMPDEST SWAP11 POP DUP2 MLOAD DUP2 LT PUSH2 0x4E4 JUMPI PUSH2 0x4E4 PUSH2 0x11FE JUMP JUMPDEST PUSH1 0x1 PUSH1 0x1 PUSH1 0xF8 SHL SUB NOT SWAP1 SWAP3 AND PUSH1 0x20 SWAP3 DUP4 MUL SWAP2 SWAP1 SWAP2 ADD SWAP1 SWAP2 ADD MSTORE PUSH1 0x1 PUSH1 0xF9 SHL DUP10 DUP10 PUSH2 0x50D DUP2 PUSH2 0x1214 JUMP JUMPDEST SWAP11 POP DUP2 MLOAD DUP2 LT PUSH2 0x51F JUMPI PUSH2 0x51F PUSH2 0x11FE JUMP JUMPDEST PUSH1 0x1 PUSH1 0x1 PUSH1 0xF8 SHL SUB NOT SWAP1 SWAP3 AND PUSH1 0x20 SWAP3 DUP4 MUL SWAP2 SWAP1 SWAP2 ADD SWAP1 SWAP2 ADD MSTORE PUSH1 0x0 DUP10 DUP10 PUSH2 0x545 DUP2 PUSH2 0x1214 JUMP JUMPDEST SWAP11 POP DUP2 MLOAD DUP2 LT PUSH2 0x557 JUMPI PUSH2 0x557 PUSH2 0x11FE JUMP JUMPDEST PUSH1 0x1 PUSH1 0x1 PUSH1 0xF8 SHL SUB NOT SWAP1 SWAP3 AND PUSH1 0x20 SWAP3 DUP4 MUL SWAP2 SWAP1 SWAP2 ADD SWAP1 SWAP2 ADD MSTORE PUSH1 0x0 DUP10 DUP10 PUSH2 0x57D DUP2 PUSH2 0x1214 JUMP JUMPDEST SWAP11 POP DUP2 MLOAD DUP2 LT PUSH2 0x58F JUMPI PUSH2 0x58F PUSH2 0x11FE JUMP JUMPDEST PUSH1 0x1 PUSH1 0x1 PUSH1 0xF8 SHL SUB NOT SWAP1 SWAP3 AND PUSH1 0x20 SWAP3 DUP4 MUL SWAP2 SWAP1 SWAP2 ADD SWAP1 SWAP2 ADD MSTORE PUSH1 0x0 DUP10 DUP10 PUSH2 0x5B5 DUP2 PUSH2 0x1214 JUMP JUMPDEST SWAP11 POP DUP2 MLOAD DUP2 LT PUSH2 0x5C7 JUMPI PUSH2 0x5C7 PUSH2 0x11FE JUMP JUMPDEST PUSH1 0x1 PUSH1 0x1 PUSH1 0xF8 SHL SUB NOT SWAP1 SWAP3 AND PUSH1 0x20 SWAP3 DUP4 MUL SWAP2 SWAP1 SWAP2 ADD SWAP1 SWAP2 ADD MSTORE DUP8 DUP1 PUSH2 0x5EE DUP12 DUP3 DUP7 DUP2 PUSH2 0xCB7 JUMP JUMPDEST SWAP1 SWAP12 POP SWAP10 POP PUSH2 0x607 DUP12 DUP7 PUSH2 0x602 DUP7 DUP7 PUSH2 0x122D JUMP JUMPDEST PUSH2 0xBB6 JUMP JUMPDEST POP SWAP12 SWAP10 SWAP11 POP POP POP POP POP POP POP POP POP POP JUMP JUMPDEST PUSH1 0x40 DUP1 MLOAD PUSH2 0x140 DUP2 ADD DUP3 MSTORE PUSH1 0x0 PUSH1 0x20 DUP3 ADD DUP2 SWAP1 MSTORE SWAP2 DUP2 ADD DUP3 SWAP1 MSTORE PUSH1 0x60 DUP2 DUP2 ADD DUP4 SWAP1 MSTORE PUSH1 0x80 DUP3 ADD DUP4 SWAP1 MSTORE PUSH1 0xA0 DUP3 ADD DUP4 SWAP1 MSTORE PUSH1 0xC0 DUP3 ADD DUP4 SWAP1 MSTORE PUSH1 0xE0 DUP3 ADD DUP4 SWAP1 MSTORE PUSH2 0x100 DUP3 ADD DUP4 SWAP1 MSTORE PUSH2 0x120 DUP3 ADD DUP4 SWAP1 MSTORE DUP7 DUP3 MSTORE SWAP2 SWAP1 PUSH2 0x675 PUSH1 0x4 DUP9 PUSH2 0x11EB JUMP JUMPDEST PUSH2 0x100 DUP3 ADD DUP2 SWAP1 MSTORE SWAP7 POP PUSH1 0x49 PUSH1 0xF8 SHL DUP9 DUP9 PUSH2 0x68F DUP2 PUSH2 0x1214 JUMP JUMPDEST SWAP10 POP DUP2 MLOAD DUP2 LT PUSH2 0x6A1 JUMPI PUSH2 0x6A1 PUSH2 0x11FE JUMP JUMPDEST PUSH1 0x1 PUSH1 0x1 PUSH1 0xF8 SHL SUB NOT SWAP1 SWAP3 AND PUSH1 0x20 SWAP3 DUP4 MUL SWAP2 SWAP1 SWAP2 ADD SWAP1 SWAP2 ADD MSTORE PUSH1 0x11 PUSH1 0xFA SHL DUP9 DUP9 PUSH2 0x6CA DUP2 PUSH2 0x1214 JUMP JUMPDEST SWAP10 POP DUP2 MLOAD DUP2 LT PUSH2 0x6DC JUMPI PUSH2 0x6DC PUSH2 0x11FE JUMP JUMPDEST PUSH1 0x1 PUSH1 0x1 PUSH1 0xF8 SHL SUB NOT SWAP1 SWAP3 AND PUSH1 0x20 SWAP3 DUP4 MUL SWAP2 SWAP1 SWAP2 ADD SWAP1 SWAP2 ADD MSTORE PUSH1 0x41 PUSH1 0xF8 SHL DUP9 DUP9 PUSH2 0x705 DUP2 PUSH2 0x1214 JUMP JUMPDEST SWAP10 POP DUP2 MLOAD DUP2 LT PUSH2 0x717 JUMPI PUSH2 0x717 PUSH2 0x11FE JUMP JUMPDEST PUSH1 0x1 PUSH1 0x1 PUSH1 0xF8 SHL SUB NOT SWAP1 SWAP3 AND PUSH1 0x20 SWAP3 DUP4 MUL SWAP2 SWAP1 SWAP2 ADD SWAP1 SWAP2 ADD MSTORE PUSH1 0x15 PUSH1 0xFA SHL DUP9 DUP9 PUSH2 0x740 DUP2 PUSH2 0x1214 JUMP JUMPDEST SWAP10 POP DUP2 MLOAD DUP2 LT PUSH2 0x752 JUMPI PUSH2 0x752 PUSH2 0x11FE JUMP JUMPDEST PUSH1 0x1 PUSH1 0x1 PUSH1 0xF8 SHL SUB NOT SWAP1 SWAP3 AND PUSH1 0x20 SWAP3 DUP4 MUL SWAP2 SWAP1 SWAP2 ADD DUP3 ADD MSTORE DUP2 ADD DUP8 SWAP1 MSTORE PUSH1 0xF PUSH1 0xFB SHL DUP9 DUP9 PUSH2 0x77F DUP2 PUSH2 0x1214 JUMP JUMPDEST SWAP10 POP DUP2 MLOAD DUP2 LT PUSH2 0x791 JUMPI PUSH2 0x791 PUSH2 0x11FE JUMP JUMPDEST PUSH1 0x1 PUSH1 0x1 PUSH1 0xF8 SHL SUB NOT SWAP1 SWAP3 AND PUSH1 0x20 SWAP3 DUP4 MUL SWAP2 SWAP1 SWAP2 ADD SWAP1 SWAP2 ADD MSTORE PUSH1 0x1 PUSH1 0xF8 SHL DUP9 DUP9 PUSH2 0x7BA DUP2 PUSH2 0x1214 JUMP JUMPDEST SWAP10 POP DUP2 MLOAD DUP2 LT PUSH2 0x7CC JUMPI PUSH2 0x7CC PUSH2 0x11FE JUMP JUMPDEST PUSH1 0x1 PUSH1 0x1 PUSH1 0xF8 SHL SUB NOT SWAP1 SWAP3 AND PUSH1 0x20 SWAP3 DUP4 MUL SWAP2 SWAP1 SWAP2 ADD SWAP1 SWAP2 ADD MSTORE PUSH1 0x1 PUSH1 0xF8 SHL DUP9 DUP9 PUSH2 0x7F5 DUP2 PUSH2 0x1214 JUMP JUMPDEST SWAP10 POP DUP2 MLOAD DUP2 LT PUSH2 0x807 JUMPI PUSH2 0x807 PUSH2 0x11FE JUMP JUMPDEST PUSH1 0x1 PUSH1 0x1 PUSH1 0xF8 SHL SUB NOT SWAP1 SWAP3 AND PUSH1 0x20 SWAP3 DUP4 MUL SWAP2 SWAP1 SWAP2 ADD SWAP1 SWAP2 ADD MSTORE PUSH1 0x60 DUP2 ADD DUP8 SWAP1 MSTORE PUSH2 0x832 PUSH1 0x4 DUP9 PUSH2 0x11EB JUMP JUMPDEST PUSH1 0xC0 DUP3 ADD DUP2 SWAP1 MSTORE PUSH1 0x80 DUP3 ADD DUP2 SWAP1 MSTORE SWAP7 POP PUSH1 0x0 DUP1 JUMPDEST DUP7 DUP2 LT ISZERO PUSH2 0x9C0 JUMPI PUSH1 0x0 DUP11 DUP11 PUSH2 0x85B DUP2 PUSH2 0x1214 JUMP JUMPDEST SWAP12 POP DUP2 MLOAD DUP2 LT PUSH2 0x86D JUMPI PUSH2 0x86D PUSH2 0x11FE JUMP JUMPDEST PUSH1 0x1 PUSH1 0x1 PUSH1 0xF8 SHL SUB NOT SWAP1 SWAP3 AND PUSH1 0x20 SWAP3 DUP4 MUL SWAP2 SWAP1 SWAP2 ADD SWAP1 SWAP2 ADD MSTORE PUSH1 0x0 JUMPDEST DUP9 DUP2 LT ISZERO PUSH2 0x9AD JUMPI DUP7 MLOAD DUP1 MLOAD DUP5 SWAP1 DUP2 LT PUSH2 0x8A5 JUMPI PUSH2 0x8A5 PUSH2 0x11FE JUMP JUMPDEST PUSH1 0x20 MUL PUSH1 0x20 ADD ADD MLOAD DUP12 DUP12 DUP1 PUSH2 0x8B9 SWAP1 PUSH2 0x1214 JUMP JUMPDEST SWAP13 POP DUP2 MLOAD DUP2 LT PUSH2 0x8CB JUMPI PUSH2 0x8CB PUSH2 0x11FE JUMP JUMPDEST PUSH1 0x1 PUSH1 0x1 PUSH1 0xF8 SHL SUB NOT SWAP1 SWAP3 AND PUSH1 0x20 SWAP3 DUP4 MUL SWAP2 SWAP1 SWAP2 ADD DUP3 ADD MSTORE DUP8 ADD MLOAD DUP1 MLOAD DUP5 SWAP1 DUP2 LT PUSH2 0x8F8 JUMPI PUSH2 0x8F8 PUSH2 0x11FE JUMP JUMPDEST PUSH1 0x20 MUL PUSH1 0x20 ADD ADD MLOAD DUP12 DUP12 DUP1 PUSH2 0x90C SWAP1 PUSH2 0x1214 JUMP JUMPDEST SWAP13 POP DUP2 MLOAD DUP2 LT PUSH2 0x91E JUMPI PUSH2 0x91E PUSH2 0x11FE JUMP JUMPDEST PUSH1 0x1 PUSH1 0x1 PUSH1 0xF8 SHL SUB NOT SWAP1 SWAP3 AND PUSH1 0x20 SWAP3 DUP4 MUL SWAP2 SWAP1 SWAP2 ADD SWAP1 SWAP2 ADD MSTORE PUSH1 0x40 DUP8 ADD MLOAD DUP1 MLOAD DUP5 SWAP1 DUP2 LT PUSH2 0x94E JUMPI PUSH2 0x94E PUSH2 0x11FE JUMP JUMPDEST PUSH1 0x20 MUL PUSH1 0x20 ADD ADD MLOAD DUP12 DUP12 DUP1 PUSH2 0x962 SWAP1 PUSH2 0x1214 JUMP JUMPDEST SWAP13 POP DUP2 MLOAD DUP2 LT PUSH2 0x974 JUMPI PUSH2 0x974 PUSH2 0x11FE JUMP JUMPDEST PUSH1 0x1 PUSH1 0x1 PUSH1 0xF8 SHL SUB NOT SWAP1 SWAP3 AND PUSH1 0x20 SWAP3 DUP4 MUL SWAP2 SWAP1 SWAP2 ADD SWAP1 SWAP2 ADD MSTORE DUP3 PUSH2 0x997 DUP2 PUSH2 0x1214 JUMP JUMPDEST SWAP4 POP POP DUP1 DUP1 PUSH2 0x9A5 SWAP1 PUSH2 0x1214 JUMP JUMPDEST SWAP2 POP POP PUSH2 0x889 JUMP JUMPDEST POP DUP1 PUSH2 0x9B8 DUP2 PUSH2 0x1214 JUMP JUMPDEST SWAP2 POP POP PUSH2 0x846 JUMP JUMPDEST POP PUSH1 0xE0 DUP3 ADD DUP9 SWAP1 MSTORE PUSH1 0xA0 DUP3 ADD DUP9 SWAP1 MSTORE PUSH1 0xC0 DUP3 ADD MLOAD PUSH2 0x9E2 SWAP1 DUP11 SWAP1 DUP11 SWAP1 DUP2 PUSH2 0xDA8 JUMP JUMPDEST PUSH1 0x40 DUP5 ADD DUP2 SWAP1 MSTORE PUSH2 0x120 DUP5 ADD DUP2 SWAP1 MSTORE PUSH2 0x100 DUP5 ADD MLOAD SWAP2 SWAP11 POP SWAP9 POP PUSH2 0xA0A SWAP1 DUP11 SWAP1 DUP11 SWAP1 DUP2 PUSH2 0xCB7 JUMP JUMPDEST DUP4 MLOAD PUSH1 0x20 DUP6 ADD MLOAD PUSH1 0x40 DUP7 ADD MLOAD SWAP4 SWAP13 POP SWAP2 SWAP11 POP PUSH2 0xA2B SWAP3 DUP13 SWAP3 PUSH2 0x602 SWAP2 PUSH2 0x122D JUMP JUMPDEST DUP4 MSTORE PUSH1 0x60 DUP4 ADD MLOAD PUSH1 0x80 DUP5 ADD MLOAD PUSH1 0xA0 DUP6 ADD MLOAD SWAP3 SWAP12 POP PUSH2 0xA54 SWAP3 DUP13 SWAP3 SWAP2 PUSH2 0xA4F SWAP2 PUSH2 0x122D JUMP JUMPDEST PUSH2 0xE7B JUMP JUMPDEST PUSH1 0x60 DUP5 ADD DUP2 SWAP1 MSTORE PUSH1 0x80 DUP5 ADD MLOAD PUSH1 0xA0 DUP6 ADD MLOAD SWAP3 SWAP12 POP PUSH2 0xA84 SWAP3 DUP13 SWAP3 SWAP2 PUSH2 0xA78 SWAP2 PUSH2 0x122D JUMP JUMPDEST PUSH2 0xA4F SWAP1 PUSH2 0xFFFF PUSH2 0x122D JUMP JUMPDEST PUSH1 0x60 SWAP4 SWAP1 SWAP4 ADD SWAP3 SWAP1 SWAP3 MSTORE POP SWAP8 SWAP6 SWAP7 POP POP POP POP POP POP JUMP JUMPDEST PUSH1 0x60 PUSH1 0x0 PUSH2 0xAAA DUP5 DUP5 PUSH1 0x0 PUSH2 0xBB6 JUMP JUMPDEST SWAP1 SWAP5 POP SWAP3 POP DUP3 PUSH1 0x49 PUSH1 0xF8 SHL DUP6 DUP3 PUSH2 0xAC0 DUP2 PUSH2 0x1214 JUMP JUMPDEST SWAP7 POP DUP2 MLOAD DUP2 LT PUSH2 0xAD2 JUMPI PUSH2 0xAD2 PUSH2 0x11FE JUMP JUMPDEST PUSH1 0x1 PUSH1 0x1 PUSH1 0xF8 SHL SUB NOT SWAP1 SWAP3 AND PUSH1 0x20 SWAP3 DUP4 MUL SWAP2 SWAP1 SWAP2 ADD SWAP1 SWAP2 ADD MSTORE PUSH1 0x45 PUSH1 0xF8 SHL DUP6 DUP6 PUSH2 0xAFB DUP2 PUSH2 0x1214 JUMP JUMPDEST SWAP7 POP DUP2 MLOAD DUP2 LT PUSH2 0xB0D JUMPI PUSH2 0xB0D PUSH2 0x11FE JUMP JUMPDEST PUSH1 0x1 PUSH1 0x1 PUSH1 0xF8 SHL SUB NOT SWAP1 SWAP3 AND PUSH1 0x20 SWAP3 DUP4 MUL SWAP2 SWAP1 SWAP2 ADD SWAP1 SWAP2 ADD MSTORE PUSH1 0x27 PUSH1 0xF9 SHL DUP6 DUP6 PUSH2 0xB36 DUP2 PUSH2 0x1214 JUMP JUMPDEST SWAP7 POP DUP2 MLOAD DUP2 LT PUSH2 0xB48 JUMPI PUSH2 0xB48 PUSH2 0x11FE JUMP JUMPDEST PUSH1 0x1 PUSH1 0x1 PUSH1 0xF8 SHL SUB NOT SWAP1 SWAP3 AND PUSH1 0x20 SWAP3 DUP4 MUL SWAP2 SWAP1 SWAP2 ADD SWAP1 SWAP2 ADD MSTORE PUSH1 0x11 PUSH1 0xFA SHL DUP6 DUP6 PUSH2 0xB71 DUP2 PUSH2 0x1214 JUMP JUMPDEST SWAP7 POP DUP2 MLOAD DUP2 LT PUSH2 0xB83 JUMPI PUSH2 0xB83 PUSH2 0x11FE JUMP JUMPDEST PUSH1 0x1 PUSH1 0x1 PUSH1 0xF8 SHL SUB NOT SWAP1 SWAP3 AND PUSH1 0x20 SWAP3 DUP4 MUL SWAP2 SWAP1 SWAP2 ADD SWAP1 SWAP2 ADD MSTORE DUP4 PUSH2 0xBA9 DUP7 DUP3 DUP5 DUP2 PUSH2 0xCB7 JUMP JUMPDEST SWAP1 SWAP8 SWAP1 SWAP7 POP SWAP5 POP POP POP POP POP JUMP JUMPDEST PUSH1 0x60 PUSH1 0x0 PUSH1 0x1 PUSH1 0x1 PUSH1 0xF8 SHL SUB NOT PUSH1 0xE0 DUP5 SWAP1 SHL AND DUP6 DUP6 PUSH2 0xBD4 DUP2 PUSH2 0x1214 JUMP JUMPDEST SWAP7 POP DUP2 MLOAD DUP2 LT PUSH2 0xBE6 JUMPI PUSH2 0xBE6 PUSH2 0x11FE JUMP JUMPDEST PUSH1 0x1 PUSH1 0x1 PUSH1 0xF8 SHL SUB NOT SWAP3 DUP4 AND PUSH1 0x20 SWAP2 DUP3 MUL SWAP3 SWAP1 SWAP3 ADD ADD MSTORE PUSH1 0xE8 DUP5 SWAP1 SHL AND DUP6 DUP6 PUSH2 0xC0E DUP2 PUSH2 0x1214 JUMP JUMPDEST SWAP7 POP DUP2 MLOAD DUP2 LT PUSH2 0xC20 JUMPI PUSH2 0xC20 PUSH2 0x11FE JUMP JUMPDEST PUSH1 0x1 PUSH1 0x1 PUSH1 0xF8 SHL SUB NOT SWAP3 DUP4 AND PUSH1 0x20 SWAP2 DUP3 MUL SWAP3 SWAP1 SWAP3 ADD ADD MSTORE PUSH1 0xF0 DUP5 SWAP1 SHL AND DUP6 DUP6 PUSH2 0xC48 DUP2 PUSH2 0x1214 JUMP JUMPDEST SWAP7 POP DUP2 MLOAD DUP2 LT PUSH2 0xC5A JUMPI PUSH2 0xC5A PUSH2 0x11FE JUMP JUMPDEST PUSH1 0x1 PUSH1 0x1 PUSH1 0xF8 SHL SUB NOT SWAP3 DUP4 AND PUSH1 0x20 SWAP2 DUP3 MUL SWAP3 SWAP1 SWAP3 ADD ADD MSTORE PUSH1 0xF8 DUP5 SWAP1 SHL AND DUP6 DUP6 PUSH2 0xC82 DUP2 PUSH2 0x1214 JUMP JUMPDEST SWAP7 POP DUP2 MLOAD DUP2 LT PUSH2 0xC94 JUMPI PUSH2 0xC94 PUSH2 0x11FE JUMP JUMPDEST PUSH1 0x1 PUSH1 0x1 PUSH1 0xF8 SHL SUB NOT SWAP3 SWAP1 SWAP3 AND PUSH1 0x20 SWAP3 DUP4 MUL SWAP2 SWAP1 SWAP2 ADD SWAP1 SWAP2 ADD MSTORE POP SWAP3 SWAP4 SWAP2 SWAP3 POP POP JUMP JUMPDEST PUSH1 0x60 PUSH1 0x0 DUP1 PUSH2 0xCC6 DUP6 DUP6 PUSH2 0x122D JUMP JUMPDEST SWAP1 POP PUSH1 0x0 DUP1 DUP3 PUSH8 0xFFFFFFFFFFFFFFFF DUP2 GT ISZERO PUSH2 0xCE4 JUMPI PUSH2 0xCE4 PUSH2 0xF9F JUMP JUMPDEST PUSH1 0x40 MLOAD SWAP1 DUP1 DUP3 MSTORE DUP1 PUSH1 0x20 MUL PUSH1 0x20 ADD DUP3 ADD PUSH1 0x40 MSTORE DUP1 ISZERO PUSH2 0xD0D JUMPI DUP2 PUSH1 0x20 ADD PUSH1 0x20 DUP3 MUL DUP1 CALLDATASIZE DUP4 CALLDATACOPY ADD SWAP1 POP JUMPDEST POP SWAP1 POP DUP7 JUMPDEST DUP7 DUP2 LT ISZERO PUSH2 0xD7D JUMPI DUP10 DUP2 DUP2 MLOAD DUP2 LT PUSH2 0xD2C JUMPI PUSH2 0xD2C PUSH2 0x11FE JUMP JUMPDEST PUSH1 0x20 MUL PUSH1 0x20 ADD ADD MLOAD DUP3 DUP5 DUP1 PUSH2 0xD40 SWAP1 PUSH2 0x1214 JUMP JUMPDEST SWAP6 POP DUP2 MLOAD DUP2 LT PUSH2 0xD52 JUMPI PUSH2 0xD52 PUSH2 0x11FE JUMP JUMPDEST PUSH1 0x1 PUSH1 0x1 PUSH1 0xF8 SHL SUB NOT SWAP1 SWAP3 AND PUSH1 0x20 SWAP3 DUP4 MUL SWAP2 SWAP1 SWAP2 ADD SWAP1 SWAP2 ADD MSTORE DUP1 PUSH2 0xD75 DUP2 PUSH2 0x1214 JUMP JUMPDEST SWAP2 POP POP PUSH2 0xD12 JUMP JUMPDEST POP PUSH1 0x0 PUSH2 0xD8A DUP3 DUP6 PUSH2 0xE99 JUMP JUMPDEST SWAP1 POP PUSH2 0xD97 DUP11 DUP11 DUP4 PUSH2 0xBB6 JUMP JUMPDEST SWAP1 SWAP12 SWAP1 SWAP11 POP SWAP9 POP POP POP POP POP POP POP POP POP JUMP JUMPDEST PUSH1 0x60 PUSH1 0x0 DUP1 PUSH2 0xDB7 DUP6 DUP6 PUSH2 0x122D JUMP JUMPDEST SWAP1 POP PUSH1 0x0 DUP1 DUP3 PUSH8 0xFFFFFFFFFFFFFFFF DUP2 GT ISZERO PUSH2 0xDD5 JUMPI PUSH2 0xDD5 PUSH2 0xF9F JUMP JUMPDEST PUSH1 0x40 MLOAD SWAP1 DUP1 DUP3 MSTORE DUP1 PUSH1 0x20 MUL PUSH1 0x20 ADD DUP3 ADD PUSH1 0x40 MSTORE DUP1 ISZERO PUSH2 0xDFE JUMPI DUP2 PUSH1 0x20 ADD PUSH1 0x20 DUP3 MUL DUP1 CALLDATASIZE DUP4 CALLDATACOPY ADD SWAP1 POP JUMPDEST POP SWAP1 POP DUP7 JUMPDEST DUP7 DUP2 LT ISZERO PUSH2 0xE6E JUMPI DUP10 DUP2 DUP2 MLOAD DUP2 LT PUSH2 0xE1D JUMPI PUSH2 0xE1D PUSH2 0x11FE JUMP JUMPDEST PUSH1 0x20 MUL PUSH1 0x20 ADD ADD MLOAD DUP3 DUP5 DUP1 PUSH2 0xE31 SWAP1 PUSH2 0x1214 JUMP JUMPDEST SWAP6 POP DUP2 MLOAD DUP2 LT PUSH2 0xE43 JUMPI PUSH2 0xE43 PUSH2 0x11FE JUMP JUMPDEST PUSH1 0x1 PUSH1 0x1 PUSH1 0xF8 SHL SUB NOT SWAP1 SWAP3 AND PUSH1 0x20 SWAP3 DUP4 MUL SWAP2 SWAP1 SWAP2 ADD SWAP1 SWAP2 ADD MSTORE DUP1 PUSH2 0xE66 DUP2 PUSH2 0x1214 JUMP JUMPDEST SWAP2 POP POP PUSH2 0xE03 JUMP JUMPDEST POP PUSH1 0x0 PUSH2 0xD8A DUP3 DUP6 PUSH2 0xEB9 JUMP JUMPDEST PUSH1 0x60 PUSH1 0x0 PUSH1 0x1 PUSH1 0x1 PUSH1 0xF8 SHL SUB NOT PUSH1 0xF0 DUP5 SWAP1 SHL AND DUP6 DUP6 PUSH2 0xC48 DUP2 PUSH2 0x1214 JUMP JUMPDEST PUSH1 0x0 PUSH2 0xEAA PUSH4 0xFFFFFFFF DUP5 DUP5 PUSH2 0xF35 JUMP JUMPDEST PUSH4 0xFFFFFFFF XOR SWAP1 POP JUMPDEST SWAP3 SWAP2 POP POP JUMP JUMPDEST PUSH1 0x0 PUSH1 0x1 DUP2 DUP1 JUMPDEST DUP5 DUP2 LT ISZERO PUSH2 0xF13 JUMPI DUP6 DUP2 DUP2 MLOAD DUP2 LT PUSH2 0xEDA JUMPI PUSH2 0xEDA PUSH2 0x11FE JUMP JUMPDEST PUSH1 0x20 MUL PUSH1 0x20 ADD ADD MLOAD PUSH1 0xF8 SHR PUSH1 0xFF AND DUP4 PUSH2 0xEF3 SWAP2 SWAP1 PUSH2 0x11EB JUMP JUMPDEST SWAP3 POP PUSH2 0xEFF DUP4 DUP4 PUSH2 0x11EB JUMP JUMPDEST SWAP2 POP DUP1 PUSH2 0xF0B DUP2 PUSH2 0x1214 JUMP JUMPDEST SWAP2 POP POP PUSH2 0xEC0 JUMP JUMPDEST POP DUP2 PUSH2 0xF22 DUP3 PUSH3 0x10000 PUSH2 0x11D4 JUMP JUMPDEST PUSH2 0xF2C SWAP2 SWAP1 PUSH2 0x11EB JUMP JUMPDEST SWAP6 SWAP5 POP POP POP POP POP JUMP JUMPDEST PUSH1 0x0 DUP4 DUP2 JUMPDEST DUP4 DUP2 LT ISZERO PUSH2 0xF96 JUMPI PUSH1 0x8 DUP3 SWAP1 SHR PUSH1 0x0 DUP7 DUP4 DUP2 MLOAD DUP2 LT PUSH2 0xF5B JUMPI PUSH2 0xF5B PUSH2 0x11FE JUMP JUMPDEST PUSH1 0x20 MUL PUSH1 0x20 ADD ADD MLOAD PUSH1 0xF8 SHR PUSH1 0xFF AND DUP5 XOR PUSH1 0xFF AND PUSH2 0x100 DUP2 LT PUSH2 0xF7F JUMPI PUSH2 0xF7F PUSH2 0x11FE JUMP JUMPDEST ADD SLOAD XOR SWAP2 POP DUP1 PUSH2 0xF8E DUP2 PUSH2 0x1214 JUMP JUMPDEST SWAP2 POP POP PUSH2 0xF3A JUMP JUMPDEST POP SWAP5 SWAP4 POP POP POP POP JUMP JUMPDEST PUSH4 0x4E487B71 PUSH1 0xE0 SHL PUSH1 0x0 MSTORE PUSH1 0x41 PUSH1 0x4 MSTORE PUSH1 0x24 PUSH1 0x0 REVERT JUMPDEST PUSH1 0x40 MLOAD PUSH1 0x60 DUP2 ADD PUSH8 0xFFFFFFFFFFFFFFFF DUP2 GT DUP3 DUP3 LT OR ISZERO PUSH2 0xFD8 JUMPI PUSH2 0xFD8 PUSH2 0xF9F JUMP JUMPDEST PUSH1 0x40 MSTORE SWAP1 JUMP JUMPDEST PUSH1 0x40 MLOAD PUSH1 0x1F DUP3 ADD PUSH1 0x1F NOT AND DUP2 ADD PUSH8 0xFFFFFFFFFFFFFFFF DUP2 GT DUP3 DUP3 LT OR ISZERO PUSH2 0x1007 JUMPI PUSH2 0x1007 PUSH2 0xF9F JUMP JUMPDEST PUSH1 0x40 MSTORE SWAP2 SWAP1 POP JUMP JUMPDEST PUSH1 0x0 DUP3 PUSH1 0x1F DUP4 ADD SLT PUSH2 0x1020 JUMPI PUSH1 0x0 DUP1 REVERT JUMPDEST DUP2 CALLDATALOAD PUSH1 0x20 PUSH8 0xFFFFFFFFFFFFFFFF DUP3 GT ISZERO PUSH2 0x103C JUMPI PUSH2 0x103C PUSH2 0xF9F JUMP JUMPDEST DUP2 PUSH1 0x5 SHL PUSH2 0x104B DUP3 DUP3 ADD PUSH2 0xFDE JUMP JUMPDEST SWAP3 DUP4 MSTORE DUP5 DUP2 ADD DUP3 ADD SWAP3 DUP3 DUP2 ADD SWAP1 DUP8 DUP6 GT ISZERO PUSH2 0x1065 JUMPI PUSH1 0x0 DUP1 REVERT JUMPDEST DUP4 DUP8 ADD SWAP3 POP JUMPDEST DUP5 DUP4 LT ISZERO PUSH2 0x109B JUMPI DUP3 CALLDATALOAD PUSH1 0x1 PUSH1 0x1 PUSH1 0xF8 SHL SUB NOT DUP2 AND DUP2 EQ PUSH2 0x108C JUMPI PUSH1 0x0 DUP1 DUP2 REVERT JUMPDEST DUP3 MSTORE SWAP2 DUP4 ADD SWAP2 SWAP1 DUP4 ADD SWAP1 PUSH2 0x106B JUMP JUMPDEST SWAP8 SWAP7 POP POP POP POP POP POP POP JUMP JUMPDEST PUSH1 0x0 DUP1 PUSH1 0x0 PUSH1 0x60 DUP5 DUP7 SUB SLT ISZERO PUSH2 0x10BB JUMPI PUSH1 0x0 DUP1 REVERT JUMPDEST DUP4 CALLDATALOAD SWAP3 POP PUSH1 0x20 DUP5 ADD CALLDATALOAD SWAP2 POP PUSH1 0x40 DUP5 ADD CALLDATALOAD PUSH8 0xFFFFFFFFFFFFFFFF DUP1 DUP3 GT ISZERO PUSH2 0x10E1 JUMPI PUSH1 0x0 DUP1 REVERT JUMPDEST SWAP1 DUP6 ADD SWAP1 PUSH1 0x60 DUP3 DUP9 SUB SLT ISZERO PUSH2 0x10F5 JUMPI PUSH1 0x0 DUP1 REVERT JUMPDEST PUSH2 0x10FD PUSH2 0xFB5 JUMP JUMPDEST DUP3 CALLDATALOAD DUP3 DUP2 GT ISZERO PUSH2 0x110C JUMPI PUSH1 0x0 DUP1 REVERT JUMPDEST PUSH2 0x1118 DUP10 DUP3 DUP7 ADD PUSH2 0x100F JUMP JUMPDEST DUP3 MSTORE POP PUSH1 0x20 DUP4 ADD CALLDATALOAD DUP3 DUP2 GT ISZERO PUSH2 0x112D JUMPI PUSH1 0x0 DUP1 REVERT JUMPDEST PUSH2 0x1139 DUP10 DUP3 DUP7 ADD PUSH2 0x100F JUMP JUMPDEST PUSH1 0x20 DUP4 ADD MSTORE POP PUSH1 0x40 DUP4 ADD CALLDATALOAD DUP3 DUP2 GT ISZERO PUSH2 0x1151 JUMPI PUSH1 0x0 DUP1 REVERT JUMPDEST PUSH2 0x115D DUP10 DUP3 DUP7 ADD PUSH2 0x100F JUMP JUMPDEST PUSH1 0x40 DUP4 ADD MSTORE POP DUP1 SWAP4 POP POP POP POP SWAP3 POP SWAP3 POP SWAP3 JUMP JUMPDEST PUSH1 0x0 PUSH1 0x20 DUP1 DUP4 MSTORE DUP4 MLOAD DUP1 DUP3 DUP6 ADD MSTORE PUSH1 0x0 JUMPDEST DUP2 DUP2 LT ISZERO PUSH2 0x119D JUMPI DUP6 DUP2 ADD DUP4 ADD MLOAD DUP6 DUP3 ADD PUSH1 0x40 ADD MSTORE DUP3 ADD PUSH2 0x1181 JUMP JUMPDEST POP PUSH1 0x0 PUSH1 0x40 DUP3 DUP7 ADD ADD MSTORE PUSH1 0x40 PUSH1 0x1F NOT PUSH1 0x1F DUP4 ADD AND DUP6 ADD ADD SWAP3 POP POP POP SWAP3 SWAP2 POP POP JUMP JUMPDEST PUSH4 0x4E487B71 PUSH1 0xE0 SHL PUSH1 0x0 MSTORE PUSH1 0x11 PUSH1 0x4 MSTORE PUSH1 0x24 PUSH1 0x0 REVERT JUMPDEST DUP1 DUP3 MUL DUP2 ISZERO DUP3 DUP3 DIV DUP5 EQ OR PUSH2 0xEB3 JUMPI PUSH2 0xEB3 PUSH2 0x11BE JUMP JUMPDEST DUP1 DUP3 ADD DUP1 DUP3 GT ISZERO PUSH2 0xEB3 JUMPI PUSH2 0xEB3 PUSH2 0x11BE JUMP JUMPDEST PUSH4 0x4E487B71 PUSH1 0xE0 SHL PUSH1 0x0 MSTORE PUSH1 0x32 PUSH1 0x4 MSTORE PUSH1 0x24 PUSH1 0x0 REVERT JUMPDEST PUSH1 0x0 PUSH1 0x1 DUP3 ADD PUSH2 0x1226 JUMPI PUSH2 0x1226 PUSH2 0x11BE JUMP JUMPDEST POP PUSH1 0x1 ADD SWAP1 JUMP JUMPDEST DUP2 DUP2 SUB DUP2 DUP2 GT ISZERO PUSH2 0xEB3 JUMPI PUSH2 0xEB3 PUSH2 0x11BE JUMP INVALID LOG2 PUSH5 0x6970667358 0x22 SLT KECCAK256 PUSH32 0x9D5B65F77D30A52C347D515B9A798C2D5B00BB4E0A25D2C36A914FEA46733C64 PUSH20 0x6F6C634300081200330000000000000000000000 "
				},
				"gasEstimates": {
					"creation": {
						"codeDepositCost": "945200",
						"executionCost": "infinite",
						"totalCost": "infinite"
					},
					"external": {
						"createPNG(uint256,uint256,(bytes1[],bytes1[],bytes1[]))": "infinite"
					},
					"internal": {
						"add2ByteValue(bytes1[] memory,uint256,uint256)": "infinite",
						"add4ByteValue(bytes1[] memory,uint256,uint256)": "infinite",
						"addADLER32(bytes1[] memory,uint256,uint256,uint256)": "infinite",
						"addCRC(bytes1[] memory,uint256,uint256,uint256)": "infinite",
						"addIDATChunck(bytes1[] memory,uint256,uint256,uint256,struct PNGData memory)": "infinite",
						"addIENDChunck(bytes1[] memory,uint256)": "infinite",
						"addIHDRChunck(bytes1[] memory,uint256,uint256,uint256)": "infinite",
						"addPNGSignature(bytes1[] memory,uint256)": "infinite",
						"adler32(bytes1[] memory,uint256)": "infinite",
						"crc(bytes1[] memory,uint256)": "infinite",
						"createCRCTable()": "infinite",
						"update_crc(uint256,bytes1[] memory,uint256)": "infinite"
					}
				},
				"methodIdentifiers": {
					"createPNG(uint256,uint256,(bytes1[],bytes1[],bytes1[]))": "f6d57f9e"
				}
			},
			"storageLayout": {
				"storage": [
					{
						"astId": 117,
						"contract": "contracts/pixel_pictasia_utils.sol:PixelPictasiaUtils",
						"label": "CRC_TABLE",
						"offset": 0,
						"slot": "0",
						"type": "t_array(t_uint256)256_storage"
					}
				],
				"types": {
					"t_array(t_uint256)256_storage": {
						"base": "t_uint256",
						"encoding": "inplace",
						"label": "uint256[256]",
						"numberOfBytes": "8192"
					},
					"t_uint256": {
						"encoding": "inplace",
						"label": "uint256",
						"numberOfBytes": "32"
					}
				}
			},
			"userdoc": {
				"kind": "user",
				"methods": {},
				"version": 1
			}
		}
	}
}