{
	"contracts/standard_contract.sol": {
		"StandardContract": {
			"abi": [
				{
					"inputs": [],
					"stateMutability": "payable",
					"type": "constructor"
				},
				{
					"inputs": [
						{
							"internalType": "address",
							"name": "_address",
							"type": "address"
						},
						{
							"internalType": "address",
							"name": "ownerAddress",
							"type": "address"
						}
					],
					"name": "NotOwnerError",
					"type": "error"
				},
				{
					"inputs": [
						{
							"internalType": "address",
							"name": "_address",
							"type": "address"
						},
						{
							"internalType": "address",
							"name": "ownerSuccessorAddress",
							"type": "address"
						}
					],
					"name": "NotOwnerSuccessorError",
					"type": "error"
				},
				{
					"anonymous": false,
					"inputs": [
						{
							"indexed": true,
							"internalType": "address",
							"name": "oldOwnerAddress",
							"type": "address"
						},
						{
							"indexed": true,
							"internalType": "address",
							"name": "newOwnerAddress",
							"type": "address"
						}
					],
					"name": "OwnerChanged",
					"type": "event"
				},
				{
					"inputs": [],
					"name": "action_claimOwnerRole",
					"outputs": [],
					"stateMutability": "nonpayable",
					"type": "function"
				},
				{
					"inputs": [
						{
							"internalType": "address",
							"name": "_address",
							"type": "address"
						}
					],
					"name": "action_offerOwnerRole",
					"outputs": [],
					"stateMutability": "nonpayable",
					"type": "function"
				},
				{
					"inputs": [
						{
							"internalType": "bytes32",
							"name": "interfaceHash",
							"type": "bytes32"
						},
						{
							"internalType": "address",
							"name": "account",
							"type": "address"
						}
					],
					"name": "canImplementInterfaceForAddress",
					"outputs": [
						{
							"internalType": "bytes32",
							"name": "",
							"type": "bytes32"
						}
					],
					"stateMutability": "view",
					"type": "function"
				},
				{
					"inputs": [],
					"name": "donate",
					"outputs": [],
					"stateMutability": "payable",
					"type": "function"
				},
				{
					"inputs": [],
					"name": "failsafe_unlock",
					"outputs": [],
					"stateMutability": "nonpayable",
					"type": "function"
				},
				{
					"inputs": [],
					"name": "get_ownerAddress",
					"outputs": [
						{
							"internalType": "address",
							"name": "",
							"type": "address"
						}
					],
					"stateMutability": "view",
					"type": "function"
				},
				{
					"inputs": [],
					"name": "get_ownerSuccessorAddress",
					"outputs": [
						{
							"internalType": "address",
							"name": "",
							"type": "address"
						}
					],
					"stateMutability": "view",
					"type": "function"
				},
				{
					"inputs": [
						{
							"internalType": "address",
							"name": "",
							"type": "address"
						},
						{
							"internalType": "address",
							"name": "",
							"type": "address"
						},
						{
							"internalType": "uint256[]",
							"name": "",
							"type": "uint256[]"
						},
						{
							"internalType": "uint256[]",
							"name": "",
							"type": "uint256[]"
						},
						{
							"internalType": "bytes",
							"name": "",
							"type": "bytes"
						}
					],
					"name": "onERC1155BatchReceived",
					"outputs": [
						{
							"internalType": "bytes4",
							"name": "",
							"type": "bytes4"
						}
					],
					"stateMutability": "pure",
					"type": "function"
				},
				{
					"inputs": [
						{
							"internalType": "address",
							"name": "",
							"type": "address"
						},
						{
							"internalType": "address",
							"name": "",
							"type": "address"
						},
						{
							"internalType": "uint256",
							"name": "",
							"type": "uint256"
						},
						{
							"internalType": "uint256",
							"name": "",
							"type": "uint256"
						},
						{
							"internalType": "bytes",
							"name": "",
							"type": "bytes"
						}
					],
					"name": "onERC1155Received",
					"outputs": [
						{
							"internalType": "bytes4",
							"name": "",
							"type": "bytes4"
						}
					],
					"stateMutability": "pure",
					"type": "function"
				},
				{
					"inputs": [
						{
							"internalType": "address",
							"name": "",
							"type": "address"
						},
						{
							"internalType": "address",
							"name": "",
							"type": "address"
						},
						{
							"internalType": "uint256",
							"name": "",
							"type": "uint256"
						},
						{
							"internalType": "bytes",
							"name": "",
							"type": "bytes"
						}
					],
					"name": "onERC721Received",
					"outputs": [
						{
							"internalType": "bytes4",
							"name": "",
							"type": "bytes4"
						}
					],
					"stateMutability": "nonpayable",
					"type": "function"
				},
				{
					"inputs": [],
					"name": "query_isLocked",
					"outputs": [
						{
							"internalType": "bool",
							"name": "",
							"type": "bool"
						}
					],
					"stateMutability": "view",
					"type": "function"
				},
				{
					"inputs": [
						{
							"internalType": "address",
							"name": "_address",
							"type": "address"
						}
					],
					"name": "query_isOwnerAddress",
					"outputs": [
						{
							"internalType": "bool",
							"name": "",
							"type": "bool"
						}
					],
					"stateMutability": "view",
					"type": "function"
				},
				{
					"inputs": [
						{
							"internalType": "address",
							"name": "_address",
							"type": "address"
						}
					],
					"name": "query_isOwnerSuccessorAddress",
					"outputs": [
						{
							"internalType": "bool",
							"name": "",
							"type": "bool"
						}
					],
					"stateMutability": "view",
					"type": "function"
				},
				{
					"inputs": [
						{
							"internalType": "bytes4",
							"name": "interfaceId",
							"type": "bytes4"
						}
					],
					"name": "supportsInterface",
					"outputs": [
						{
							"internalType": "bool",
							"name": "",
							"type": "bool"
						}
					],
					"stateMutability": "view",
					"type": "function"
				},
				{
					"inputs": [
						{
							"internalType": "address",
							"name": "operator",
							"type": "address"
						},
						{
							"internalType": "address",
							"name": "from",
							"type": "address"
						},
						{
							"internalType": "address",
							"name": "to",
							"type": "address"
						},
						{
							"internalType": "uint256",
							"name": "amount",
							"type": "uint256"
						},
						{
							"internalType": "bytes",
							"name": "userData",
							"type": "bytes"
						},
						{
							"internalType": "bytes",
							"name": "operatorData",
							"type": "bytes"
						}
					],
					"name": "tokensReceived",
					"outputs": [],
					"stateMutability": "nonpayable",
					"type": "function"
				},
				{
					"inputs": [
						{
							"internalType": "address",
							"name": "operator",
							"type": "address"
						},
						{
							"internalType": "address",
							"name": "from",
							"type": "address"
						},
						{
							"internalType": "address",
							"name": "to",
							"type": "address"
						},
						{
							"internalType": "uint256",
							"name": "amount",
							"type": "uint256"
						},
						{
							"internalType": "bytes",
							"name": "userData",
							"type": "bytes"
						},
						{
							"internalType": "bytes",
							"name": "operatorData",
							"type": "bytes"
						}
					],
					"name": "tokensToSend",
					"outputs": [],
					"stateMutability": "nonpayable",
					"type": "function"
				},
				{
					"inputs": [
						{
							"internalType": "uint256",
							"name": "_value",
							"type": "uint256"
						}
					],
					"name": "withdraw_coins",
					"outputs": [],
					"stateMutability": "nonpayable",
					"type": "function"
				},
				{
					"inputs": [
						{
							"internalType": "address",
							"name": "_tokenAddress",
							"type": "address"
						},
						{
							"internalType": "uint256",
							"name": "_id",
							"type": "uint256"
						},
						{
							"internalType": "uint256",
							"name": "_value",
							"type": "uint256"
						},
						{
							"internalType": "bytes",
							"name": "_data",
							"type": "bytes"
						}
					],
					"name": "withdraw_erc1155Tokens",
					"outputs": [],
					"stateMutability": "nonpayable",
					"type": "function"
				},
				{
					"inputs": [
						{
							"internalType": "address",
							"name": "_tokenAddress",
							"type": "address"
						},
						{
							"internalType": "uint256",
							"name": "_value",
							"type": "uint256"
						}
					],
					"name": "withdraw_erc20Tokens",
					"outputs": [],
					"stateMutability": "nonpayable",
					"type": "function"
				},
				{
					"inputs": [
						{
							"internalType": "address",
							"name": "_tokenAddress",
							"type": "address"
						},
						{
							"internalType": "uint256",
							"name": "_id",
							"type": "uint256"
						}
					],
					"name": "withdraw_erc721Tokens",
					"outputs": [],
					"stateMutability": "nonpayable",
					"type": "function"
				},
				{
					"inputs": [
						{
							"internalType": "address",
							"name": "_tokenAddress",
							"type": "address"
						},
						{
							"internalType": "uint256",
							"name": "_value",
							"type": "uint256"
						},
						{
							"internalType": "bytes",
							"name": "_data",
							"type": "bytes"
						}
					],
					"name": "withdraw_erc777Tokens",
					"outputs": [],
					"stateMutability": "nonpayable",
					"type": "function"
				}
			],
			"devdoc": {
				"kind": "dev",
				"methods": {
					"action_offerOwnerRole(address)": {
						"params": {
							"_address": "The owner successor address."
						}
					},
					"get_ownerAddress()": {
						"returns": {
							"_0": "The owner address."
						}
					},
					"get_ownerSuccessorAddress()": {
						"returns": {
							"_0": "The owner successor address."
						}
					},
					"query_isLocked()": {
						"returns": {
							"_0": "Whether the contract is currently locked."
						}
					},
					"query_isOwnerAddress(address)": {
						"params": {
							"_address": "The address that we are checking."
						},
						"returns": {
							"_0": "Whether the address is the owner address."
						}
					},
					"query_isOwnerSuccessorAddress(address)": {
						"params": {
							"_address": "The address that we are checking."
						},
						"returns": {
							"_0": "Whether the address is the owner successor address."
						}
					},
					"withdraw_coins(uint256)": {
						"params": {
							"_value": "The amount of coins to withdraw."
						}
					},
					"withdraw_erc1155Tokens(address,uint256,uint256,bytes)": {
						"params": {
							"_data": "Additional data with no specified format.",
							"_id": "The ID of the ERC1155 token.",
							"_tokenAddress": "The address where the ERC1155 token's contract lives.",
							"_value": "The amount of ERC1155 tokens to withdraw."
						}
					},
					"withdraw_erc20Tokens(address,uint256)": {
						"params": {
							"_tokenAddress": "The address where the ERC20 token's contract lives.",
							"_value": "The amount of ERC20 tokens to withdraw."
						}
					},
					"withdraw_erc721Tokens(address,uint256)": {
						"params": {
							"_id": "The ID of the ERC721 token.",
							"_tokenAddress": "The address where the ERC721 token's contract lives."
						}
					},
					"withdraw_erc777Tokens(address,uint256,bytes)": {
						"params": {
							"_data": "Additional data with no specified format.",
							"_tokenAddress": "The address where the ERC777 token's contract lives.",
							"_value": "The amount of ERC777 tokens to withdraw."
						}
					}
				},
				"version": 1
			},
			"evm": {
				"assembly": "    /* \"contracts/standard_contract.sol\":9060:29064  contract StandardContract is IERC721Receiver, IERC777Recipient, IERC777Sender, IERC1155Receiver, IERC1820Implementer {... */\n  mstore(0x40, 0x80)\n    /* \"contracts/standard_contract.sol\":10835:10862  setOwnerAddress(msg.sender) */\n  tag_3\n    /* \"contracts/standard_contract.sol\":10851:10861  msg.sender */\n  caller\n    /* \"contracts/standard_contract.sol\":10835:10850  setOwnerAddress */\n  tag_4\n    /* \"contracts/standard_contract.sol\":10835:10862  setOwnerAddress(msg.sender) */\n  jump\t// in\ntag_3:\n    /* \"contracts/standard_contract.sol\":18088:18109  ownerSuccessorAddress */\n  0x01\n    /* \"contracts/standard_contract.sol\":18088:18120  ownerSuccessorAddress = _address */\n  dup1\n  sload\n  not(sub(shl(0xa0, 0x01), 0x01))\n  and\n    /* \"contracts/standard_contract.sol\":10898:10908  msg.sender */\n  caller\n    /* \"contracts/standard_contract.sol\":18088:18120  ownerSuccessorAddress = _address */\n  or\n  swap1\n  sstore\n    /* \"contracts/standard_contract.sol\":9060:29064  contract StandardContract is IERC721Receiver, IERC777Recipient, IERC777Sender, IERC1155Receiver, IERC1820Implementer {... */\n  jump(tag_7)\n    /* \"contracts/standard_contract.sol\":17803:18008  function setOwnerAddress(address _address) internal {... */\ntag_4:\n    /* \"contracts/standard_contract.sol\":17881:17893  ownerAddress */\n  sload(0x00)\n  sub(shl(0xa0, 0x01), 0x01)\n    /* \"contracts/standard_contract.sol\":17869:17893  _address != ownerAddress */\n  dup3\n  dup2\n  and\n    /* \"contracts/standard_contract.sol\":17881:17893  ownerAddress */\n  swap2\n  and\n    /* \"contracts/standard_contract.sol\":17869:17893  _address != ownerAddress */\n  eq\n    /* \"contracts/standard_contract.sol\":17866:18001  if(_address != ownerAddress) {... */\n  tag_9\n  jumpi\n    /* \"contracts/standard_contract.sol\":17928:17940  ownerAddress */\n  0x00\n  dup1\n  sload\n    /* \"contracts/standard_contract.sol\":17915:17951  OwnerChanged(ownerAddress, _address) */\n  mload(0x40)\n  sub(shl(0xa0, 0x01), 0x01)\n  dup1\n  dup6\n  and\n  swap4\n    /* \"contracts/standard_contract.sol\":17928:17940  ownerAddress */\n  swap3\n  and\n  swap2\n    /* \"contracts/standard_contract.sol\":17915:17951  OwnerChanged(ownerAddress, _address) */\n  0xb532073b38c83145e3e5135377a08bf9aab55bc0fd7c1179cd4fb995d2a5159c\n  swap2\n  log3\n    /* \"contracts/standard_contract.sol\":17966:17978  ownerAddress */\n  0x00\n    /* \"contracts/standard_contract.sol\":17966:17989  ownerAddress = _address */\n  dup1\n  sload\n  not(sub(shl(0xa0, 0x01), 0x01))\n  and\n  sub(shl(0xa0, 0x01), 0x01)\n  dup4\n  and\n  or\n  swap1\n  sstore\n    /* \"contracts/standard_contract.sol\":17866:18001  if(_address != ownerAddress) {... */\ntag_9:\n    /* \"contracts/standard_contract.sol\":17803:18008  function setOwnerAddress(address _address) internal {... */\n  pop\n  jump\t// out\n    /* \"contracts/standard_contract.sol\":9060:29064  contract StandardContract is IERC721Receiver, IERC777Recipient, IERC777Sender, IERC1155Receiver, IERC1820Implementer {... */\ntag_7:\n  dataSize(sub_0)\n  dup1\n  dataOffset(sub_0)\n  0x00\n  codecopy\n  0x00\n  return\nstop\n\nsub_0: assembly {\n        /* \"contracts/standard_contract.sol\":9060:29064  contract StandardContract is IERC721Receiver, IERC777Recipient, IERC777Sender, IERC1155Receiver, IERC1820Implementer {... */\n      mstore(0x40, 0x80)\n      jumpi(tag_1, lt(calldatasize, 0x04))\n      shr(0xe0, calldataload(0x00))\n      dup1\n      0x91372456\n      gt\n      tag_23\n      jumpi\n      dup1\n      0xbc197c81\n      gt\n      tag_24\n      jumpi\n      dup1\n      0xbc197c81\n      eq\n      tag_17\n      jumpi\n      dup1\n      0xd319aa30\n      eq\n      tag_18\n      jumpi\n      dup1\n      0xdbd3cfcd\n      eq\n      tag_19\n      jumpi\n      dup1\n      0xed88c68e\n      eq\n      tag_27\n      jumpi\n      dup1\n      0xf23a6e61\n      eq\n      tag_21\n      jumpi\n      dup1\n      0xf5da96dc\n      eq\n      tag_22\n      jumpi\n      0x00\n      dup1\n      revert\n    tag_24:\n      dup1\n      0x91372456\n      eq\n      tag_12\n      jumpi\n      dup1\n      0x9cd6e666\n      eq\n      tag_13\n      jumpi\n      dup1\n      0xb2828496\n      eq\n      tag_14\n      jumpi\n      dup1\n      0xb4d9b973\n      eq\n      tag_15\n      jumpi\n      dup1\n      0xb76a10ca\n      eq\n      tag_16\n      jumpi\n      0x00\n      dup1\n      revert\n    tag_23:\n      dup1\n      0x2e66ccf5\n      gt\n      tag_25\n      jumpi\n      dup1\n      0x2e66ccf5\n      eq\n      tag_7\n      jumpi\n      dup1\n      0x41931a2f\n      eq\n      tag_8\n      jumpi\n      dup1\n      0x4f61b3ae\n      eq\n      tag_9\n      jumpi\n      dup1\n      0x503d7fe4\n      eq\n      tag_10\n      jumpi\n      dup1\n      0x75ab9782\n      eq\n      tag_2\n      jumpi\n      0x00\n      dup1\n      revert\n    tag_25:\n      dup1\n      0x23de29\n      eq\n      tag_2\n      jumpi\n      dup1\n      0x01ffc9a7\n      eq\n      tag_3\n      jumpi\n      dup1\n      0x150b7a02\n      eq\n      tag_4\n      jumpi\n      dup1\n      0x249cb3fa\n      eq\n      tag_5\n      jumpi\n      dup1\n      0x2aa4ada0\n      eq\n      tag_6\n      jumpi\n    tag_1:\n      0x00\n      dup1\n      revert\n        /* \"contracts/standard_contract.sol\":11744:11893  function tokensReceived(address operator, address from, address to, uint256 amount, bytes calldata userData, bytes calldata operatorData) external {} */\n    tag_2:\n      callvalue\n      dup1\n      iszero\n      tag_26\n      jumpi\n      0x00\n      dup1\n      revert\n    tag_26:\n      pop\n      tag_27\n      tag_28\n      calldatasize\n      0x04\n      tag_29\n      jump\t// in\n    tag_28:\n      pop\n      pop\n      pop\n      pop\n      pop\n      pop\n      pop\n      pop\n      jump\n    tag_27:\n      stop\n        /* \"contracts/standard_contract.sol\":11008:11494  function supportsInterface(bytes4 interfaceId) public view virtual override returns (bool) {... */\n    tag_3:\n      callvalue\n      dup1\n      iszero\n      tag_31\n      jumpi\n      0x00\n      dup1\n      revert\n    tag_31:\n      pop\n      tag_32\n      tag_33\n      calldatasize\n      0x04\n      tag_34\n      jump\t// in\n    tag_33:\n      tag_35\n      jump\t// in\n    tag_32:\n      mload(0x40)\n        /* \"#utility.yul\":2015:2029   */\n      swap1\n      iszero\n        /* \"#utility.yul\":2008:2030   */\n      iszero\n        /* \"#utility.yul\":1990:2031   */\n      dup2\n      mstore\n        /* \"#utility.yul\":1978:1980   */\n      0x20\n        /* \"#utility.yul\":1963:1981   */\n      add\n        /* \"contracts/standard_contract.sol\":11008:11494  function supportsInterface(bytes4 interfaceId) public view virtual override returns (bool) {... */\n    tag_36:\n      mload(0x40)\n      dup1\n      swap2\n      sub\n      swap1\n      return\n        /* \"contracts/standard_contract.sol\":11541:11696  function onERC721Received(address, address, uint256, bytes memory) public virtual returns (bytes4) {... */\n    tag_4:\n      callvalue\n      dup1\n      iszero\n      tag_38\n      jumpi\n      0x00\n      dup1\n      revert\n    tag_38:\n      pop\n      tag_39\n      tag_40\n      calldatasize\n      0x04\n      tag_41\n      jump\t// in\n    tag_40:\n      shl(0xe1, 0x0a85bd01)\n      swap5\n      swap4\n      pop\n      pop\n      pop\n      pop\n      jump\n    tag_39:\n      mload(0x40)\n      not(sub(shl(0xe0, 0x01), 0x01))\n        /* \"#utility.yul\":3693:3726   */\n      swap1\n      swap2\n      and\n        /* \"#utility.yul\":3675:3727   */\n      dup2\n      mstore\n        /* \"#utility.yul\":3663:3665   */\n      0x20\n        /* \"#utility.yul\":3648:3666   */\n      add\n        /* \"contracts/standard_contract.sol\":11541:11696  function onERC721Received(address, address, uint256, bytes memory) public virtual returns (bytes4) {... */\n      tag_36\n        /* \"#utility.yul\":3531:3733   */\n      jump\n        /* \"contracts/standard_contract.sol\":12550:12931  function canImplementInterfaceForAddress(bytes32 interfaceHash, address account) external view returns (bytes32) {... */\n    tag_5:\n      callvalue\n      dup1\n      iszero\n      tag_45\n      jumpi\n      0x00\n      dup1\n      revert\n    tag_45:\n      pop\n      tag_46\n      tag_47\n      calldatasize\n      0x04\n      tag_48\n      jump\t// in\n    tag_47:\n      tag_49\n      jump\t// in\n    tag_46:\n      mload(0x40)\n        /* \"#utility.yul\":4143:4168   */\n      swap1\n      dup2\n      mstore\n        /* \"#utility.yul\":4131:4133   */\n      0x20\n        /* \"#utility.yul\":4116:4134   */\n      add\n        /* \"contracts/standard_contract.sol\":12550:12931  function canImplementInterfaceForAddress(bytes32 interfaceHash, address account) external view returns (bytes32) {... */\n      tag_36\n        /* \"#utility.yul\":3997:4174   */\n      jump\n        /* \"contracts/standard_contract.sol\":25412:25647  function withdraw_erc20Tokens(address _tokenAddress, uint256 _value) external {... */\n    tag_6:\n      callvalue\n      dup1\n      iszero\n      tag_52\n      jumpi\n      0x00\n      dup1\n      revert\n    tag_52:\n      pop\n      tag_27\n      tag_54\n      calldatasize\n      0x04\n      tag_55\n      jump\t// in\n    tag_54:\n      tag_56\n      jump\t// in\n        /* \"contracts/standard_contract.sol\":24995:25180  function withdraw_coins(uint256 _value) external {... */\n    tag_7:\n      callvalue\n      dup1\n      iszero\n      tag_57\n      jumpi\n      0x00\n      dup1\n      revert\n    tag_57:\n      pop\n      tag_27\n      tag_59\n      calldatasize\n      0x04\n      tag_60\n      jump\t// in\n    tag_59:\n      tag_61\n      jump\t// in\n        /* \"contracts/standard_contract.sol\":24321:24501  function action_claimOwnerRole() external {... */\n    tag_8:\n      callvalue\n      dup1\n      iszero\n      tag_62\n      jumpi\n      0x00\n      dup1\n      revert\n    tag_62:\n      pop\n      tag_27\n      tag_64\n      jump\t// in\n        /* \"contracts/standard_contract.sol\":27449:27540  function query_isLocked() external view returns (bool) {... */\n    tag_9:\n      callvalue\n      dup1\n      iszero\n      tag_65\n      jumpi\n      0x00\n      dup1\n      revert\n    tag_65:\n      pop\n        /* \"contracts/standard_contract.sol\":16621:16629  lockFlag */\n      sload(0x01)\n      shl(0xa0, 0x01)\n      swap1\n      div\n      0xff\n      and\n        /* \"contracts/standard_contract.sol\":27449:27540  function query_isLocked() external view returns (bool) {... */\n      jump(tag_32)\n        /* \"contracts/standard_contract.sol\":28073:28218  function query_isOwnerSuccessorAddress(address _address) external view returns (bool) {... */\n    tag_10:\n      callvalue\n      dup1\n      iszero\n      tag_69\n      jumpi\n      0x00\n      dup1\n      revert\n    tag_69:\n      pop\n      tag_32\n      tag_71\n      calldatasize\n      0x04\n      tag_72\n      jump\t// in\n    tag_71:\n      tag_73\n      jump\t// in\n        /* \"contracts/standard_contract.sol\":28347:28450  function get_ownerAddress() external view returns (address) {... */\n    tag_12:\n      callvalue\n      dup1\n      iszero\n      tag_79\n      jumpi\n      0x00\n      dup1\n      revert\n    tag_79:\n      pop\n        /* \"contracts/standard_contract.sol\":28398:28405  address */\n      0x00\n        /* \"contracts/standard_contract.sol\":17516:17528  ownerAddress */\n      sload\n      sub(shl(0xa0, 0x01), 0x01)\n      and\n        /* \"contracts/standard_contract.sol\":28347:28450  function get_ownerAddress() external view returns (address) {... */\n    tag_80:\n      mload(0x40)\n      sub(shl(0xa0, 0x01), 0x01)\n        /* \"#utility.yul\":4978:5010   */\n      swap1\n      swap2\n      and\n        /* \"#utility.yul\":4960:5011   */\n      dup2\n      mstore\n        /* \"#utility.yul\":4948:4950   */\n      0x20\n        /* \"#utility.yul\":4933:4951   */\n      add\n        /* \"contracts/standard_contract.sol\":28347:28450  function get_ownerAddress() external view returns (address) {... */\n      tag_36\n        /* \"#utility.yul\":4814:5017   */\n      jump\n        /* \"contracts/standard_contract.sol\":27733:27860  function query_isOwnerAddress(address _address) external view returns (bool) {... */\n    tag_13:\n      callvalue\n      dup1\n      iszero\n      tag_84\n      jumpi\n      0x00\n      dup1\n      revert\n    tag_84:\n      pop\n      tag_32\n      tag_86\n      calldatasize\n      0x04\n      tag_72\n      jump\t// in\n    tag_86:\n      tag_87\n      jump\t// in\n        /* \"contracts/standard_contract.sol\":26373:26637  function withdraw_erc777Tokens(address _tokenAddress, uint256 _value, bytes memory _data) external {... */\n    tag_14:\n      callvalue\n      dup1\n      iszero\n      tag_89\n      jumpi\n      0x00\n      dup1\n      revert\n    tag_89:\n      pop\n      tag_27\n      tag_91\n      calldatasize\n      0x04\n      tag_92\n      jump\t// in\n    tag_91:\n      tag_93\n      jump\t// in\n        /* \"contracts/standard_contract.sol\":28786:28901  function failsafe_unlock() external {... */\n    tag_15:\n      callvalue\n      dup1\n      iszero\n      tag_94\n      jumpi\n      0x00\n      dup1\n      revert\n    tag_94:\n      pop\n      tag_27\n      tag_96\n      jump\t// in\n        /* \"contracts/standard_contract.sol\":25843:26074  function withdraw_erc721Tokens(address _tokenAddress, uint256 _id) external {... */\n    tag_16:\n      callvalue\n      dup1\n      iszero\n      tag_97\n      jumpi\n      0x00\n      dup1\n      revert\n    tag_97:\n      pop\n      tag_27\n      tag_99\n      calldatasize\n      0x04\n      tag_55\n      jump\t// in\n    tag_99:\n      tag_100\n      jump\t// in\n        /* \"contracts/standard_contract.sol\":12306:12499  function onERC1155BatchReceived(address, address, uint256[] memory, uint256[] memory, bytes memory) external pure returns (bytes4) {... */\n    tag_17:\n      callvalue\n      dup1\n      iszero\n      tag_101\n      jumpi\n      0x00\n      dup1\n      revert\n    tag_101:\n      pop\n      tag_39\n      tag_103\n      calldatasize\n      0x04\n      tag_104\n      jump\t// in\n    tag_103:\n      shl(0xe0, 0xbc197c81)\n      swap6\n      swap5\n      pop\n      pop\n      pop\n      pop\n      pop\n      jump\n        /* \"contracts/standard_contract.sol\":28558:28679  function get_ownerSuccessorAddress() external view returns (address) {... */\n    tag_18:\n      callvalue\n      dup1\n      iszero\n      tag_107\n      jumpi\n      0x00\n      dup1\n      revert\n    tag_107:\n      pop\n      tag_80\n      tag_109\n      jump\t// in\n        /* \"contracts/standard_contract.sol\":24639:24824  function action_offerOwnerRole(address _address) external {... */\n    tag_19:\n      callvalue\n      dup1\n      iszero\n      tag_111\n      jumpi\n      0x00\n      dup1\n      revert\n    tag_111:\n      pop\n      tag_27\n      tag_113\n      calldatasize\n      0x04\n      tag_72\n      jump\t// in\n    tag_113:\n      tag_114\n      jump\t// in\n        /* \"contracts/standard_contract.sol\":12133:12298  function onERC1155Received(address, address, uint256, uint256, bytes memory) external pure returns (bytes4) {... */\n    tag_21:\n      callvalue\n      dup1\n      iszero\n      tag_117\n      jumpi\n      0x00\n      dup1\n      revert\n    tag_117:\n      pop\n      tag_39\n      tag_119\n      calldatasize\n      0x04\n      tag_120\n      jump\t// in\n    tag_119:\n      shl(0xe0, 0xf23a6e61)\n      swap6\n      swap5\n      pop\n      pop\n      pop\n      pop\n      pop\n      jump\n        /* \"contracts/standard_contract.sol\":26988:27272  function withdraw_erc1155Tokens(address _tokenAddress, uint256 _id, uint256 _value, bytes memory _data) external {... */\n    tag_22:\n      callvalue\n      dup1\n      iszero\n      tag_123\n      jumpi\n      0x00\n      dup1\n      revert\n    tag_123:\n      pop\n      tag_27\n      tag_125\n      calldatasize\n      0x04\n      tag_126\n      jump\t// in\n    tag_125:\n      tag_127\n      jump\t// in\n        /* \"contracts/standard_contract.sol\":11008:11494  function supportsInterface(bytes4 interfaceId) public view virtual override returns (bool) {... */\n    tag_35:\n        /* \"contracts/standard_contract.sol\":11093:11097  bool */\n      0x00\n      not(sub(shl(0xe0, 0x01), 0x01))\n        /* \"contracts/standard_contract.sol\":11117:11157  interfaceId == type(IERC165).interfaceId */\n      dup3\n      and\n      shl(0xe0, 0x01ffc9a7)\n      eq\n      dup1\n        /* \"contracts/standard_contract.sol\":11117:11222  interfaceId == type(IERC165).interfaceId... */\n      tag_130\n      jumpi\n      pop\n      not(sub(shl(0xe0, 0x01), 0x01))\n        /* \"contracts/standard_contract.sol\":11174:11222  interfaceId == type(IERC721Receiver).interfaceId */\n      dup3\n      and\n      shl(0xe1, 0x0a85bd01)\n      eq\n        /* \"contracts/standard_contract.sol\":11117:11222  interfaceId == type(IERC165).interfaceId... */\n    tag_130:\n        /* \"contracts/standard_contract.sol\":11117:11288  interfaceId == type(IERC165).interfaceId... */\n      dup1\n      tag_131\n      jumpi\n      pop\n      not(sub(shl(0xe0, 0x01), 0x01))\n        /* \"contracts/standard_contract.sol\":11239:11288  interfaceId == type(IERC777Recipient).interfaceId */\n      dup3\n      and\n      shl(0xe0, 0x23de29)\n      eq\n        /* \"contracts/standard_contract.sol\":11117:11288  interfaceId == type(IERC165).interfaceId... */\n    tag_131:\n        /* \"contracts/standard_contract.sol\":11117:11351  interfaceId == type(IERC165).interfaceId... */\n      dup1\n      tag_132\n      jumpi\n      pop\n      not(sub(shl(0xe0, 0x01), 0x01))\n        /* \"contracts/standard_contract.sol\":11305:11351  interfaceId == type(IERC777Sender).interfaceId */\n      dup3\n      and\n      shl(0xe1, 0x3ad5cbc1)\n      eq\n        /* \"contracts/standard_contract.sol\":11117:11351  interfaceId == type(IERC165).interfaceId... */\n    tag_132:\n        /* \"contracts/standard_contract.sol\":11117:11417  interfaceId == type(IERC165).interfaceId... */\n      dup1\n      tag_133\n      jumpi\n      pop\n      not(sub(shl(0xe0, 0x01), 0x01))\n        /* \"contracts/standard_contract.sol\":11368:11417  interfaceId == type(IERC1155Receiver).interfaceId */\n      dup3\n      and\n      shl(0xe5, 0x02711897)\n      eq\n        /* \"contracts/standard_contract.sol\":11117:11417  interfaceId == type(IERC165).interfaceId... */\n    tag_133:\n        /* \"contracts/standard_contract.sol\":11117:11486  interfaceId == type(IERC165).interfaceId... */\n      dup1\n      tag_134\n      jumpi\n      pop\n      not(sub(shl(0xe0, 0x01), 0x01))\n        /* \"contracts/standard_contract.sol\":11434:11486  interfaceId == type(IERC1820Implementer).interfaceId */\n      dup3\n      and\n      shl(0xe1, 0x124e59fd)\n      eq\n        /* \"contracts/standard_contract.sol\":11117:11486  interfaceId == type(IERC165).interfaceId... */\n    tag_134:\n        /* \"contracts/standard_contract.sol\":11110:11486  return interfaceId == type(IERC165).interfaceId... */\n      swap3\n        /* \"contracts/standard_contract.sol\":11008:11494  function supportsInterface(bytes4 interfaceId) public view virtual override returns (bool) {... */\n      swap2\n      pop\n      pop\n      jump\t// out\n        /* \"contracts/standard_contract.sol\":12550:12931  function canImplementInterfaceForAddress(bytes32 interfaceHash, address account) external view returns (bytes32) {... */\n    tag_49:\n        /* \"contracts/standard_contract.sol\":12654:12661  bytes32 */\n      0x00\n      sub(shl(0xa0, 0x01), 0x01)\n        /* \"contracts/standard_contract.sol\":12677:12701  account == address(this) */\n      dup3\n      and\n        /* \"contracts/standard_contract.sol\":12696:12700  this */\n      address\n        /* \"contracts/standard_contract.sol\":12677:12701  account == address(this) */\n      eq\n        /* \"contracts/standard_contract.sol\":12677:12806  account == address(this) && (interfaceHash == _TOKENS_RECIPIENT_INTERFACE_HASH || interfaceHash == _TOKENS_SENDER_INTERFACE_HASH) */\n      dup1\n      iszero\n      tag_138\n      jumpi\n      pop\n        /* \"contracts/standard_contract.sol\":10074:10108  keccak256(\"ERC777TokensRecipient\") */\n      0xb281fc8c12954d22544db45de3159a39272895b169a852b314f9cc762e44c53b\n        /* \"contracts/standard_contract.sol\":12706:12719  interfaceHash */\n      dup4\n        /* \"contracts/standard_contract.sol\":12706:12755  interfaceHash == _TOKENS_RECIPIENT_INTERFACE_HASH */\n      eq\n        /* \"contracts/standard_contract.sol\":12706:12805  interfaceHash == _TOKENS_RECIPIENT_INTERFACE_HASH || interfaceHash == _TOKENS_SENDER_INTERFACE_HASH */\n      dup1\n      tag_138\n      jumpi\n      pop\n        /* \"contracts/standard_contract.sol\":10173:10204  keccak256(\"ERC777TokensSender\") */\n      0x29ddb589b1fb5fc7cf394961c1adf5f8c6454761adf795e67fe149f658abe895\n        /* \"contracts/standard_contract.sol\":12759:12772  interfaceHash */\n      dup4\n        /* \"contracts/standard_contract.sol\":12759:12805  interfaceHash == _TOKENS_SENDER_INTERFACE_HASH */\n      eq\n        /* \"contracts/standard_contract.sol\":12706:12805  interfaceHash == _TOKENS_RECIPIENT_INTERFACE_HASH || interfaceHash == _TOKENS_SENDER_INTERFACE_HASH */\n    tag_138:\n        /* \"contracts/standard_contract.sol\":12674:12924  if(account == address(this) && (interfaceHash == _TOKENS_RECIPIENT_INTERFACE_HASH || interfaceHash == _TOKENS_SENDER_INTERFACE_HASH)) {... */\n      iszero\n      tag_139\n      jumpi\n      pop\n        /* \"contracts/standard_contract.sol\":9973:10006  keccak256(\"ERC1820_ACCEPT_MAGIC\") */\n      0xa2ef4600d742022d532d4747cb3547474667d6f13804902513b2ec01c848f4b4\n        /* \"contracts/standard_contract.sol\":12823:12851  return _ERC1820_ACCEPT_MAGIC */\n      jump(tag_134)\n        /* \"contracts/standard_contract.sol\":12674:12924  if(account == address(this) && (interfaceHash == _TOKENS_RECIPIENT_INTERFACE_HASH || interfaceHash == _TOKENS_SENDER_INTERFACE_HASH)) {... */\n    tag_139:\n      pop\n        /* \"contracts/standard_contract.sol\":12908:12911  0x0 */\n      0x00\n        /* \"contracts/standard_contract.sol\":12550:12931  function canImplementInterfaceForAddress(bytes32 interfaceHash, address account) external view returns (bytes32) {... */\n      swap3\n      swap2\n      pop\n      pop\n      jump\t// out\n        /* \"contracts/standard_contract.sol\":25412:25647  function withdraw_erc20Tokens(address _tokenAddress, uint256 _value) external {... */\n    tag_56:\n        /* \"contracts/standard_contract.sol\":25501:25507  lock() */\n      tag_142\n        /* \"contracts/standard_contract.sol\":25501:25505  lock */\n      tag_143\n        /* \"contracts/standard_contract.sol\":25501:25507  lock() */\n      jump\t// in\n    tag_142:\n        /* \"contracts/standard_contract.sol\":25520:25551  requireOwnerAddress(msg.sender) */\n      tag_144\n        /* \"contracts/standard_contract.sol\":25540:25550  msg.sender */\n      caller\n        /* \"contracts/standard_contract.sol\":25520:25539  requireOwnerAddress */\n      tag_145\n        /* \"contracts/standard_contract.sol\":25520:25551  requireOwnerAddress(msg.sender) */\n      jump\t// in\n    tag_144:\n        /* \"contracts/standard_contract.sol\":25564:25618  withdrawERC20Tokens(_tokenAddress, msg.sender, _value) */\n      tag_146\n        /* \"contracts/standard_contract.sol\":25584:25597  _tokenAddress */\n      dup3\n        /* \"contracts/standard_contract.sol\":25599:25609  msg.sender */\n      caller\n        /* \"contracts/standard_contract.sol\":25611:25617  _value */\n      dup4\n        /* \"contracts/standard_contract.sol\":25564:25583  withdrawERC20Tokens */\n      tag_147\n        /* \"contracts/standard_contract.sol\":25564:25618  withdrawERC20Tokens(_tokenAddress, msg.sender, _value) */\n      jump\t// in\n    tag_146:\n        /* \"contracts/standard_contract.sol\":25631:25639  unlock() */\n      tag_148\n        /* \"contracts/standard_contract.sol\":25631:25637  unlock */\n      tag_183\n        /* \"contracts/standard_contract.sol\":25631:25639  unlock() */\n      jump\t// in\n    tag_148:\n        /* \"contracts/standard_contract.sol\":25412:25647  function withdraw_erc20Tokens(address _tokenAddress, uint256 _value) external {... */\n      pop\n      pop\n      jump\t// out\n        /* \"contracts/standard_contract.sol\":24995:25180  function withdraw_coins(uint256 _value) external {... */\n    tag_61:\n        /* \"contracts/standard_contract.sol\":25055:25061  lock() */\n      tag_151\n        /* \"contracts/standard_contract.sol\":25055:25059  lock */\n      tag_143\n        /* \"contracts/standard_contract.sol\":25055:25061  lock() */\n      jump\t// in\n    tag_151:\n        /* \"contracts/standard_contract.sol\":25074:25105  requireOwnerAddress(msg.sender) */\n      tag_152\n        /* \"contracts/standard_contract.sol\":25094:25104  msg.sender */\n      caller\n        /* \"contracts/standard_contract.sol\":25074:25093  requireOwnerAddress */\n      tag_145\n        /* \"contracts/standard_contract.sol\":25074:25105  requireOwnerAddress(msg.sender) */\n      jump\t// in\n    tag_152:\n        /* \"contracts/standard_contract.sol\":25118:25151  withdrawCoins(msg.sender, _value) */\n      tag_153\n        /* \"contracts/standard_contract.sol\":25132:25142  msg.sender */\n      caller\n        /* \"contracts/standard_contract.sol\":25144:25150  _value */\n      dup3\n        /* \"contracts/standard_contract.sol\":25118:25131  withdrawCoins */\n      tag_154\n        /* \"contracts/standard_contract.sol\":25118:25151  withdrawCoins(msg.sender, _value) */\n      jump\t// in\n    tag_153:\n        /* \"contracts/standard_contract.sol\":25164:25172  unlock() */\n      tag_155\n        /* \"contracts/standard_contract.sol\":25164:25170  unlock */\n      tag_183\n        /* \"contracts/standard_contract.sol\":25164:25172  unlock() */\n      jump\t// in\n    tag_155:\n        /* \"contracts/standard_contract.sol\":24995:25180  function withdraw_coins(uint256 _value) external {... */\n      pop\n      jump\t// out\n        /* \"contracts/standard_contract.sol\":24321:24501  function action_claimOwnerRole() external {... */\n    tag_64:\n        /* \"contracts/standard_contract.sol\":24374:24380  lock() */\n      tag_157\n        /* \"contracts/standard_contract.sol\":24374:24378  lock */\n      tag_143\n        /* \"contracts/standard_contract.sol\":24374:24380  lock() */\n      jump\t// in\n    tag_157:\n        /* \"contracts/standard_contract.sol\":24393:24433  requireOwnerSuccessorAddress(msg.sender) */\n      tag_158\n        /* \"contracts/standard_contract.sol\":24422:24432  msg.sender */\n      caller\n        /* \"contracts/standard_contract.sol\":24393:24421  requireOwnerSuccessorAddress */\n      tag_159\n        /* \"contracts/standard_contract.sol\":24393:24433  requireOwnerSuccessorAddress(msg.sender) */\n      jump\t// in\n    tag_158:\n        /* \"contracts/standard_contract.sol\":24446:24472  claimOwnerRole(msg.sender) */\n      tag_160\n        /* \"contracts/standard_contract.sol\":24461:24471  msg.sender */\n      caller\n        /* \"contracts/standard_contract.sol\":24446:24460  claimOwnerRole */\n      tag_161\n        /* \"contracts/standard_contract.sol\":24446:24472  claimOwnerRole(msg.sender) */\n      jump\t// in\n    tag_160:\n        /* \"contracts/standard_contract.sol\":24485:24493  unlock() */\n      tag_162\n        /* \"contracts/standard_contract.sol\":24485:24491  unlock */\n      tag_183\n        /* \"contracts/standard_contract.sol\":24485:24493  unlock() */\n      jump\t// in\n    tag_162:\n        /* \"contracts/standard_contract.sol\":24321:24501  function action_claimOwnerRole() external {... */\n      jump\t// out\n        /* \"contracts/standard_contract.sol\":27522:27532  isLocked() */\n    tag_164:\n        /* \"contracts/standard_contract.sol\":27515:27532  return isLocked() */\n      swap1\n      pop\n        /* \"contracts/standard_contract.sol\":27449:27540  function query_isLocked() external view returns (bool) {... */\n      swap1\n      jump\t// out\n        /* \"contracts/standard_contract.sol\":28073:28218  function query_isOwnerSuccessorAddress(address _address) external view returns (bool) {... */\n    tag_73:\n        /* \"contracts/standard_contract.sol\":28153:28157  bool */\n      0x00\n        /* \"contracts/standard_contract.sol\":28177:28210  isOwnerSuccessorAddress(_address) */\n      tag_134\n        /* \"contracts/standard_contract.sol\":28201:28209  _address */\n      dup3\n        /* \"contracts/standard_contract.sol\":28177:28200  isOwnerSuccessorAddress */\n      tag_168\n        /* \"contracts/standard_contract.sol\":28177:28210  isOwnerSuccessorAddress(_address) */\n      jump\t// in\n        /* \"contracts/standard_contract.sol\":27733:27860  function query_isOwnerAddress(address _address) external view returns (bool) {... */\n    tag_87:\n        /* \"contracts/standard_contract.sol\":27804:27808  bool */\n      0x00\n        /* \"contracts/standard_contract.sol\":27828:27852  isOwnerAddress(_address) */\n      tag_134\n        /* \"contracts/standard_contract.sol\":27843:27851  _address */\n      dup3\n        /* \"contracts/standard_contract.sol\":27828:27842  isOwnerAddress */\n      tag_175\n        /* \"contracts/standard_contract.sol\":27828:27852  isOwnerAddress(_address) */\n      jump\t// in\n        /* \"contracts/standard_contract.sol\":26373:26637  function withdraw_erc777Tokens(address _tokenAddress, uint256 _value, bytes memory _data) external {... */\n    tag_93:\n        /* \"contracts/standard_contract.sol\":26483:26489  lock() */\n      tag_177\n        /* \"contracts/standard_contract.sol\":26483:26487  lock */\n      tag_143\n        /* \"contracts/standard_contract.sol\":26483:26489  lock() */\n      jump\t// in\n    tag_177:\n        /* \"contracts/standard_contract.sol\":26502:26533  requireOwnerAddress(msg.sender) */\n      tag_178\n        /* \"contracts/standard_contract.sol\":26522:26532  msg.sender */\n      caller\n        /* \"contracts/standard_contract.sol\":26502:26521  requireOwnerAddress */\n      tag_145\n        /* \"contracts/standard_contract.sol\":26502:26533  requireOwnerAddress(msg.sender) */\n      jump\t// in\n    tag_178:\n        /* \"contracts/standard_contract.sol\":26546:26608  withdrawERC777Tokens(_tokenAddress, msg.sender, _value, _data) */\n      tag_179\n        /* \"contracts/standard_contract.sol\":26567:26580  _tokenAddress */\n      dup4\n        /* \"contracts/standard_contract.sol\":26582:26592  msg.sender */\n      caller\n        /* \"contracts/standard_contract.sol\":26594:26600  _value */\n      dup5\n        /* \"contracts/standard_contract.sol\":26602:26607  _data */\n      dup5\n        /* \"contracts/standard_contract.sol\":26546:26566  withdrawERC777Tokens */\n      tag_180\n        /* \"contracts/standard_contract.sol\":26546:26608  withdrawERC777Tokens(_tokenAddress, msg.sender, _value, _data) */\n      jump\t// in\n    tag_179:\n        /* \"contracts/standard_contract.sol\":26621:26629  unlock() */\n      tag_181\n        /* \"contracts/standard_contract.sol\":26621:26627  unlock */\n      tag_183\n        /* \"contracts/standard_contract.sol\":26621:26629  unlock() */\n      jump\t// in\n    tag_181:\n        /* \"contracts/standard_contract.sol\":26373:26637  function withdraw_erc777Tokens(address _tokenAddress, uint256 _value, bytes memory _data) external {... */\n      pop\n      pop\n      pop\n      jump\t// out\n        /* \"contracts/standard_contract.sol\":28786:28901  function failsafe_unlock() external {... */\n    tag_96:\n        /* \"contracts/standard_contract.sol\":28833:28864  requireOwnerAddress(msg.sender) */\n      tag_183\n        /* \"contracts/standard_contract.sol\":28853:28863  msg.sender */\n      caller\n        /* \"contracts/standard_contract.sol\":28833:28852  requireOwnerAddress */\n      tag_145\n        /* \"contracts/standard_contract.sol\":28833:28864  requireOwnerAddress(msg.sender) */\n      jump\t// in\n    tag_183:\n        /* \"contracts/standard_contract.sol\":28877:28893  setLocked(false) */\n      tag_162\n        /* \"contracts/standard_contract.sol\":28887:28892  false */\n      0x00\n        /* \"contracts/standard_contract.sol\":28877:28886  setLocked */\n      tag_185\n        /* \"contracts/standard_contract.sol\":28877:28893  setLocked(false) */\n      jump\t// in\n        /* \"contracts/standard_contract.sol\":25843:26074  function withdraw_erc721Tokens(address _tokenAddress, uint256 _id) external {... */\n    tag_100:\n        /* \"contracts/standard_contract.sol\":25930:25936  lock() */\n      tag_187\n        /* \"contracts/standard_contract.sol\":25930:25934  lock */\n      tag_143\n        /* \"contracts/standard_contract.sol\":25930:25936  lock() */\n      jump\t// in\n    tag_187:\n        /* \"contracts/standard_contract.sol\":25949:25980  requireOwnerAddress(msg.sender) */\n      tag_188\n        /* \"contracts/standard_contract.sol\":25969:25979  msg.sender */\n      caller\n        /* \"contracts/standard_contract.sol\":25949:25968  requireOwnerAddress */\n      tag_145\n        /* \"contracts/standard_contract.sol\":25949:25980  requireOwnerAddress(msg.sender) */\n      jump\t// in\n    tag_188:\n        /* \"contracts/standard_contract.sol\":25993:26045  withdrawERC721Tokens(_tokenAddress, _id, msg.sender) */\n      tag_146\n        /* \"contracts/standard_contract.sol\":26014:26027  _tokenAddress */\n      dup3\n        /* \"contracts/standard_contract.sol\":26029:26032  _id */\n      dup3\n        /* \"contracts/standard_contract.sol\":26034:26044  msg.sender */\n      caller\n        /* \"contracts/standard_contract.sol\":25993:26013  withdrawERC721Tokens */\n      tag_190\n        /* \"contracts/standard_contract.sol\":25993:26045  withdrawERC721Tokens(_tokenAddress, _id, msg.sender) */\n      jump\t// in\n        /* \"contracts/standard_contract.sol\":28558:28679  function get_ownerSuccessorAddress() external view returns (address) {... */\n    tag_109:\n        /* \"contracts/standard_contract.sol\":28618:28625  address */\n      0x00\n        /* \"contracts/standard_contract.sol\":28645:28671  getOwnerSuccessorAddress() */\n      tag_164\n        /* \"contracts/standard_contract.sol\":17630:17651  ownerSuccessorAddress */\n      and(sub(shl(0xa0, 0x01), 0x01), sload(0x01))\n      swap1\n        /* \"contracts/standard_contract.sol\":17544:17659  function getOwnerSuccessorAddress() internal view returns (address) {... */\n      jump\n        /* \"contracts/standard_contract.sol\":24639:24824  function action_offerOwnerRole(address _address) external {... */\n    tag_114:\n        /* \"contracts/standard_contract.sol\":24708:24714  lock() */\n      tag_197\n        /* \"contracts/standard_contract.sol\":24708:24712  lock */\n      tag_143\n        /* \"contracts/standard_contract.sol\":24708:24714  lock() */\n      jump\t// in\n    tag_197:\n        /* \"contracts/standard_contract.sol\":24727:24758  requireOwnerAddress(msg.sender) */\n      tag_198\n        /* \"contracts/standard_contract.sol\":24747:24757  msg.sender */\n      caller\n        /* \"contracts/standard_contract.sol\":24727:24746  requireOwnerAddress */\n      tag_145\n        /* \"contracts/standard_contract.sol\":24727:24758  requireOwnerAddress(msg.sender) */\n      jump\t// in\n    tag_198:\n        /* \"contracts/standard_contract.sol\":24771:24795  offerOwnerRole(_address) */\n      tag_153\n        /* \"contracts/standard_contract.sol\":24786:24794  _address */\n      dup2\n        /* \"contracts/standard_contract.sol\":18088:18109  ownerSuccessorAddress */\n      0x01\n        /* \"contracts/standard_contract.sol\":18088:18120  ownerSuccessorAddress = _address */\n      dup1\n      sload\n      not(sub(shl(0xa0, 0x01), 0x01))\n      and\n      sub(shl(0xa0, 0x01), 0x01)\n      dup4\n      and\n      or\n      swap1\n      sstore\n        /* \"contracts/standard_contract.sol\":24995:25180  function withdraw_coins(uint256 _value) external {... */\n      pop\n      jump\n        /* \"contracts/standard_contract.sol\":26988:27272  function withdraw_erc1155Tokens(address _tokenAddress, uint256 _id, uint256 _value, bytes memory _data) external {... */\n    tag_127:\n        /* \"contracts/standard_contract.sol\":27112:27118  lock() */\n      tag_205\n        /* \"contracts/standard_contract.sol\":27112:27116  lock */\n      tag_143\n        /* \"contracts/standard_contract.sol\":27112:27118  lock() */\n      jump\t// in\n    tag_205:\n        /* \"contracts/standard_contract.sol\":27131:27162  requireOwnerAddress(msg.sender) */\n      tag_206\n        /* \"contracts/standard_contract.sol\":27151:27161  msg.sender */\n      caller\n        /* \"contracts/standard_contract.sol\":27131:27150  requireOwnerAddress */\n      tag_145\n        /* \"contracts/standard_contract.sol\":27131:27162  requireOwnerAddress(msg.sender) */\n      jump\t// in\n    tag_206:\n        /* \"contracts/standard_contract.sol\":27175:27243  withdrawERC1155Tokens(_tokenAddress, _id, msg.sender, _value, _data) */\n      tag_207\n        /* \"contracts/standard_contract.sol\":27197:27210  _tokenAddress */\n      dup5\n        /* \"contracts/standard_contract.sol\":27212:27215  _id */\n      dup5\n        /* \"contracts/standard_contract.sol\":27217:27227  msg.sender */\n      caller\n        /* \"contracts/standard_contract.sol\":27229:27235  _value */\n      dup6\n        /* \"contracts/standard_contract.sol\":27237:27242  _data */\n      dup6\n        /* \"contracts/standard_contract.sol\":27175:27196  withdrawERC1155Tokens */\n      tag_208\n        /* \"contracts/standard_contract.sol\":27175:27243  withdrawERC1155Tokens(_tokenAddress, _id, msg.sender, _value, _data) */\n      jump\t// in\n    tag_207:\n        /* \"contracts/standard_contract.sol\":27256:27264  unlock() */\n      tag_209\n        /* \"contracts/standard_contract.sol\":27256:27262  unlock */\n      tag_183\n        /* \"contracts/standard_contract.sol\":27256:27264  unlock() */\n      jump\t// in\n    tag_209:\n        /* \"contracts/standard_contract.sol\":26988:27272  function withdraw_erc1155Tokens(address _tokenAddress, uint256 _id, uint256 _value, bytes memory _data) external {... */\n      pop\n      pop\n      pop\n      pop\n      jump\t// out\n        /* \"contracts/standard_contract.sol\":18184:18417  function lock() internal {... */\n    tag_143:\n        /* \"contracts/standard_contract.sol\":16621:16629  lockFlag */\n      sload(0x01)\n      shl(0xa0, 0x01)\n      swap1\n      div\n      0xff\n      and\n        /* \"contracts/standard_contract.sol\":18334:18384  if(isLocked()) {... */\n      iszero\n      tag_213\n      jumpi\n        /* \"contracts/standard_contract.sol\":18364:18372  punish() */\n      tag_213\n        /* \"contracts/standard_contract.sol\":19005:19014  invalid() */\n      invalid\n        /* \"contracts/standard_contract.sol\":18364:18372  punish() */\n    tag_213:\n        /* \"contracts/standard_contract.sol\":18394:18409  setLocked(true) */\n      tag_162\n        /* \"contracts/standard_contract.sol\":18404:18408  true */\n      0x01\n        /* \"contracts/standard_contract.sol\":18394:18403  setLocked */\n      tag_185\n        /* \"contracts/standard_contract.sol\":18394:18409  setLocked(true) */\n      jump\t// in\n        /* \"contracts/standard_contract.sol\":16976:17161  function requireOwnerAddress(address _address) internal view {... */\n    tag_145:\n        /* \"contracts/standard_contract.sol\":17052:17076  isOwnerAddress(_address) */\n      tag_217\n        /* \"contracts/standard_contract.sol\":17067:17075  _address */\n      dup2\n        /* \"contracts/standard_contract.sol\":17052:17066  isOwnerAddress */\n      tag_175\n        /* \"contracts/standard_contract.sol\":17052:17076  isOwnerAddress(_address) */\n      jump\t// in\n    tag_217:\n        /* \"contracts/standard_contract.sol\":17048:17154  if(!isOwnerAddress(_address)) {... */\n      tag_155\n      jumpi\n        /* \"contracts/standard_contract.sol\":17114:17122  _address */\n      dup1\n        /* \"contracts/standard_contract.sol\":17124:17141  getOwnerAddress() */\n      tag_219\n        /* \"contracts/standard_contract.sol\":17489:17496  address */\n      0x00\n        /* \"contracts/standard_contract.sol\":17516:17528  ownerAddress */\n      sload\n      sub(shl(0xa0, 0x01), 0x01)\n      and\n      swap1\n        /* \"contracts/standard_contract.sol\":17439:17536  function getOwnerAddress() internal view returns (address) {... */\n      jump\n        /* \"contracts/standard_contract.sol\":17124:17141  getOwnerAddress() */\n    tag_219:\n        /* \"contracts/standard_contract.sol\":17100:17142  NotOwnerError(_address, getOwnerAddress()) */\n      mload(0x40)\n      shl(0xe0, 0x0daa8083)\n      dup2\n      mstore\n      sub(shl(0xa0, 0x01), 0x01)\n        /* \"#utility.yul\":8531:8546   */\n      swap3\n      dup4\n      and\n        /* \"contracts/standard_contract.sol\":17100:17142  NotOwnerError(_address, getOwnerAddress()) */\n      0x04\n      dup3\n      add\n        /* \"#utility.yul\":8513:8547   */\n      mstore\n        /* \"#utility.yul\":8583:8598   */\n      swap2\n      and\n        /* \"#utility.yul\":8563:8581   */\n      0x24\n      dup3\n      add\n        /* \"#utility.yul\":8556:8599   */\n      mstore\n        /* \"#utility.yul\":8448:8466   */\n      0x44\n      add\n        /* \"contracts/standard_contract.sol\":17100:17142  NotOwnerError(_address, getOwnerAddress()) */\n    tag_220:\n      mload(0x40)\n      dup1\n      swap2\n      sub\n      swap1\n      revert\n        /* \"contracts/standard_contract.sol\":13371:14118  function withdrawERC20Tokens(address _tokenAddress, address _address, uint256 _value) internal {... */\n    tag_147:\n        /* \"contracts/standard_contract.sol\":13672:13685  _tokenAddress */\n      dup3\n      sub(shl(0xa0, 0x01), 0x01)\n        /* \"contracts/standard_contract.sol\":13672:13697  _tokenAddress.code.length */\n      and\n      extcodesize\n        /* \"contracts/standard_contract.sol\":13701:13702  0 */\n      0x00\n        /* \"contracts/standard_contract.sol\":13672:13702  _tokenAddress.code.length == 0 */\n      sub\n        /* \"contracts/standard_contract.sol\":13669:13764  if(_tokenAddress.code.length == 0) {... */\n      tag_223\n      jumpi\n        /* \"contracts/standard_contract.sol\":13719:13752  revert(\"ERC20TokenContractError\") */\n      mload(0x40)\n      shl(0xe5, 0x461bcd)\n      dup2\n      mstore\n        /* \"#utility.yul\":8812:8814   */\n      0x20\n        /* \"contracts/standard_contract.sol\":13719:13752  revert(\"ERC20TokenContractError\") */\n      0x04\n      dup3\n      add\n        /* \"#utility.yul\":8794:8815   */\n      mstore\n        /* \"#utility.yul\":8851:8853   */\n      0x17\n        /* \"#utility.yul\":8831:8849   */\n      0x24\n      dup3\n      add\n        /* \"#utility.yul\":8824:8854   */\n      mstore\n        /* \"#utility.yul\":8890:8915   */\n      0x4552433230546f6b656e436f6e74726163744572726f72000000000000000000\n        /* \"#utility.yul\":8870:8888   */\n      0x44\n      dup3\n      add\n        /* \"#utility.yul\":8863:8916   */\n      mstore\n        /* \"#utility.yul\":8933:8951   */\n      0x64\n      add\n        /* \"contracts/standard_contract.sol\":13719:13752  revert(\"ERC20TokenContractError\") */\n      tag_220\n        /* \"#utility.yul\":8610:8957   */\n      jump\n        /* \"contracts/standard_contract.sol\":13669:13764  if(_tokenAddress.code.length == 0) {... */\n    tag_223:\n        /* \"contracts/standard_contract.sol\":13800:13881  abi.encodeWithSelector(IERC20(_tokenAddress).transfer.selector, _address, _value) */\n      0x40\n      dup1\n      mload\n      sub(shl(0xa0, 0x01), 0x01)\n        /* \"#utility.yul\":9154:9186   */\n      dup5\n      dup2\n      and\n        /* \"contracts/standard_contract.sol\":13800:13881  abi.encodeWithSelector(IERC20(_tokenAddress).transfer.selector, _address, _value) */\n      0x24\n      dup4\n      add\n        /* \"#utility.yul\":9136:9187   */\n      mstore\n        /* \"#utility.yul\":9203:9221   */\n      0x44\n      dup1\n      dup4\n      add\n        /* \"#utility.yul\":9196:9230   */\n      dup6\n      swap1\n      mstore\n        /* \"contracts/standard_contract.sol\":13800:13881  abi.encodeWithSelector(IERC20(_tokenAddress).transfer.selector, _address, _value) */\n      dup4\n      mload\n      dup1\n      dup5\n      sub\n      swap1\n      swap2\n      add\n      dup2\n      mstore\n        /* \"#utility.yul\":9109:9127   */\n      0x64\n      swap1\n      swap3\n      add\n        /* \"contracts/standard_contract.sol\":13800:13881  abi.encodeWithSelector(IERC20(_tokenAddress).transfer.selector, _address, _value) */\n      dup4\n      mstore\n      0x20\n      dup3\n      add\n      dup1\n      mload\n      sub(shl(0xe0, 0x01), 0x01)\n      and\n      shl(0xe0, 0xa9059cbb)\n      or\n      swap1\n      mstore\n        /* \"contracts/standard_contract.sol\":13934:13962  _tokenAddress.call(callData) */\n      swap2\n      mload\n        /* \"contracts/standard_contract.sol\":13800:13881  abi.encodeWithSelector(IERC20(_tokenAddress).transfer.selector, _address, _value) */\n      swap1\n      swap2\n      0x00\n      swap2\n      dup3\n      swap2\n        /* \"contracts/standard_contract.sol\":13934:13952  _tokenAddress.call */\n      dup8\n      and\n      swap1\n        /* \"contracts/standard_contract.sol\":13934:13962  _tokenAddress.call(callData) */\n      tag_228\n      swap1\n        /* \"contracts/standard_contract.sol\":13800:13881  abi.encodeWithSelector(IERC20(_tokenAddress).transfer.selector, _address, _value) */\n      dup6\n      swap1\n        /* \"contracts/standard_contract.sol\":13934:13962  _tokenAddress.call(callData) */\n      tag_229\n      jump\t// in\n    tag_228:\n      0x00\n      mload(0x40)\n      dup1\n      dup4\n      sub\n      dup2\n      0x00\n      dup7\n      gas\n      call\n      swap2\n      pop\n      pop\n      returndatasize\n      dup1\n      0x00\n      dup2\n      eq\n      tag_232\n      jumpi\n      mload(0x40)\n      swap2\n      pop\n      and(add(returndatasize, 0x3f), not(0x1f))\n      dup3\n      add\n      0x40\n      mstore\n      returndatasize\n      dup3\n      mstore\n      returndatasize\n      0x00\n      0x20\n      dup5\n      add\n      returndatacopy\n      jump(tag_231)\n    tag_232:\n      0x60\n      swap2\n      pop\n    tag_231:\n      pop\n        /* \"contracts/standard_contract.sol\":13892:13962  (bool success, bytes memory returnData) = _tokenAddress.call(callData) */\n      swap2\n      pop\n      swap2\n      pop\n        /* \"contracts/standard_contract.sol\":13979:13986  success */\n      dup2\n        /* \"contracts/standard_contract.sol\":13978:13986  !success */\n      iszero\n        /* \"contracts/standard_contract.sol\":13978:14049  !success || (returnData.length != 0 && !abi.decode(returnData, (bool))) */\n      dup1\n      tag_234\n      jumpi\n      pop\n        /* \"contracts/standard_contract.sol\":13991:14008  returnData.length */\n      dup1\n      mload\n        /* \"contracts/standard_contract.sol\":13991:14013  returnData.length != 0 */\n      iszero\n      dup1\n      iszero\n      swap1\n        /* \"contracts/standard_contract.sol\":13991:14048  returnData.length != 0 && !abi.decode(returnData, (bool)) */\n      tag_234\n      jumpi\n      pop\n        /* \"contracts/standard_contract.sol\":14029:14039  returnData */\n      dup1\n        /* \"contracts/standard_contract.sol\":14018:14048  abi.decode(returnData, (bool)) */\n      dup1\n      0x20\n      add\n      swap1\n      mload\n      dup2\n      add\n      swap1\n      tag_235\n      swap2\n      swap1\n      tag_236\n      jump\t// in\n    tag_235:\n        /* \"contracts/standard_contract.sol\":14017:14048  !abi.decode(returnData, (bool)) */\n      iszero\n        /* \"contracts/standard_contract.sol\":13991:14048  returnData.length != 0 && !abi.decode(returnData, (bool)) */\n    tag_234:\n        /* \"contracts/standard_contract.sol\":13975:14111  if(!success || (returnData.length != 0 && !abi.decode(returnData, (bool)))) {... */\n      iszero\n      tag_237\n      jumpi\n        /* \"contracts/standard_contract.sol\":14066:14099  revert(\"ERC20TokenTransferError\") */\n      mload(0x40)\n      shl(0xe5, 0x461bcd)\n      dup2\n      mstore\n        /* \"#utility.yul\":10272:10274   */\n      0x20\n        /* \"contracts/standard_contract.sol\":14066:14099  revert(\"ERC20TokenTransferError\") */\n      0x04\n      dup3\n      add\n        /* \"#utility.yul\":10254:10275   */\n      mstore\n        /* \"#utility.yul\":10311:10313   */\n      0x17\n        /* \"#utility.yul\":10291:10309   */\n      0x24\n      dup3\n      add\n        /* \"#utility.yul\":10284:10314   */\n      mstore\n        /* \"#utility.yul\":10350:10375   */\n      0x4552433230546f6b656e5472616e736665724572726f72000000000000000000\n        /* \"#utility.yul\":10330:10348   */\n      0x44\n      dup3\n      add\n        /* \"#utility.yul\":10323:10376   */\n      mstore\n        /* \"#utility.yul\":10393:10411   */\n      0x64\n      add\n        /* \"contracts/standard_contract.sol\":14066:14099  revert(\"ERC20TokenTransferError\") */\n      tag_220\n        /* \"#utility.yul\":10070:10417   */\n      jump\n        /* \"contracts/standard_contract.sol\":13975:14111  if(!success || (returnData.length != 0 && !abi.decode(returnData, (bool)))) {... */\n    tag_237:\n        /* \"contracts/standard_contract.sol\":13466:14118  {... */\n      pop\n      pop\n      pop\n        /* \"contracts/standard_contract.sol\":13371:14118  function withdrawERC20Tokens(address _tokenAddress, address _address, uint256 _value) internal {... */\n      pop\n      pop\n      pop\n      jump\t// out\n        /* \"contracts/standard_contract.sol\":13244:13363  function withdrawCoins(address _address, uint256 _value) internal {... */\n    tag_154:\n        /* \"contracts/standard_contract.sol\":13321:13355  payable(_address).transfer(_value) */\n      mload(0x40)\n      sub(shl(0xa0, 0x01), 0x01)\n        /* \"contracts/standard_contract.sol\":13321:13347  payable(_address).transfer */\n      dup4\n      and\n      swap1\n        /* \"contracts/standard_contract.sol\":13321:13355  payable(_address).transfer(_value) */\n      dup3\n      iszero\n      0x08fc\n      mul\n      swap1\n        /* \"contracts/standard_contract.sol\":13348:13354  _value */\n      dup4\n      swap1\n        /* \"contracts/standard_contract.sol\":13321:13355  payable(_address).transfer(_value) */\n      0x00\n      dup2\n      dup2\n      dup2\n        /* \"contracts/standard_contract.sol\":13348:13354  _value */\n      dup6\n        /* \"contracts/standard_contract.sol\":13321:13347  payable(_address).transfer */\n      dup9\n        /* \"contracts/standard_contract.sol\":13321:13355  payable(_address).transfer(_value) */\n      dup9\n      call\n      swap4\n      pop\n      pop\n      pop\n      pop\n      iszero\n      dup1\n      iszero\n      tag_181\n      jumpi\n      returndatasize\n      0x00\n      dup1\n      returndatacopy\n      revert(0x00, returndatasize)\n        /* \"contracts/standard_contract.sol\":17169:17390  function requireOwnerSuccessorAddress(address _address) internal view {... */\n    tag_159:\n        /* \"contracts/standard_contract.sol\":17254:17287  isOwnerSuccessorAddress(_address) */\n      tag_246\n        /* \"contracts/standard_contract.sol\":17278:17286  _address */\n      dup2\n        /* \"contracts/standard_contract.sol\":17254:17277  isOwnerSuccessorAddress */\n      tag_168\n        /* \"contracts/standard_contract.sol\":17254:17287  isOwnerSuccessorAddress(_address) */\n      jump\t// in\n    tag_246:\n        /* \"contracts/standard_contract.sol\":17250:17383  if(!isOwnerSuccessorAddress(_address)) {... */\n      tag_155\n      jumpi\n        /* \"contracts/standard_contract.sol\":17334:17342  _address */\n      dup1\n        /* \"contracts/standard_contract.sol\":17344:17370  getOwnerSuccessorAddress() */\n      tag_248\n        /* \"contracts/standard_contract.sol\":17630:17651  ownerSuccessorAddress */\n      and(sub(shl(0xa0, 0x01), 0x01), sload(0x01))\n      swap1\n        /* \"contracts/standard_contract.sol\":17544:17659  function getOwnerSuccessorAddress() internal view returns (address) {... */\n      jump\n        /* \"contracts/standard_contract.sol\":17344:17370  getOwnerSuccessorAddress() */\n    tag_248:\n        /* \"contracts/standard_contract.sol\":17311:17371  NotOwnerSuccessorError(_address, getOwnerSuccessorAddress()) */\n      mload(0x40)\n      shl(0xe0, 0x549fbfe3)\n      dup2\n      mstore\n      sub(shl(0xa0, 0x01), 0x01)\n        /* \"#utility.yul\":8531:8546   */\n      swap3\n      dup4\n      and\n        /* \"contracts/standard_contract.sol\":17311:17371  NotOwnerSuccessorError(_address, getOwnerSuccessorAddress()) */\n      0x04\n      dup3\n      add\n        /* \"#utility.yul\":8513:8547   */\n      mstore\n        /* \"#utility.yul\":8583:8598   */\n      swap2\n      and\n        /* \"#utility.yul\":8563:8581   */\n      0x24\n      dup3\n      add\n        /* \"#utility.yul\":8556:8599   */\n      mstore\n        /* \"#utility.yul\":8448:8466   */\n      0x44\n      add\n        /* \"contracts/standard_contract.sol\":17311:17371  NotOwnerSuccessorError(_address, getOwnerSuccessorAddress()) */\n      tag_220\n        /* \"#utility.yul\":8301:8605   */\n      jump\n        /* \"contracts/standard_contract.sol\":12983:13078  function claimOwnerRole(address _address) internal {... */\n    tag_161:\n        /* \"contracts/standard_contract.sol\":13045:13070  setOwnerAddress(_address) */\n      tag_155\n        /* \"contracts/standard_contract.sol\":13061:13069  _address */\n      dup2\n        /* \"contracts/standard_contract.sol\":13045:13060  setOwnerAddress */\n      tag_252\n        /* \"contracts/standard_contract.sol\":13045:13070  setOwnerAddress(_address) */\n      jump\t// in\n        /* \"contracts/standard_contract.sol\":16779:16923  function isOwnerSuccessorAddress(address _address) internal view returns (bool) {... */\n    tag_168:\n        /* \"contracts/standard_contract.sol\":16853:16857  bool */\n      0x00\n        /* \"contracts/standard_contract.sol\":16889:16915  getOwnerSuccessorAddress() */\n      tag_255\n        /* \"contracts/standard_contract.sol\":17630:17651  ownerSuccessorAddress */\n      and(sub(shl(0xa0, 0x01), 0x01), sload(0x01))\n      swap1\n        /* \"contracts/standard_contract.sol\":17544:17659  function getOwnerSuccessorAddress() internal view returns (address) {... */\n      jump\n        /* \"contracts/standard_contract.sol\":16889:16915  getOwnerSuccessorAddress() */\n    tag_255:\n      sub(shl(0xa0, 0x01), 0x01)\n        /* \"contracts/standard_contract.sol\":16877:16915  _address == getOwnerSuccessorAddress() */\n      and\n        /* \"contracts/standard_contract.sol\":16877:16885  _address */\n      dup3\n      sub(shl(0xa0, 0x01), 0x01)\n        /* \"contracts/standard_contract.sol\":16877:16915  _address == getOwnerSuccessorAddress() */\n      and\n      eq\n        /* \"contracts/standard_contract.sol\":16870:16915  return _address == getOwnerSuccessorAddress() */\n      swap1\n      pop\n        /* \"contracts/standard_contract.sol\":16779:16923  function isOwnerSuccessorAddress(address _address) internal view returns (bool) {... */\n      swap2\n      swap1\n      pop\n      jump\t// out\n        /* \"contracts/standard_contract.sol\":16645:16771  function isOwnerAddress(address _address) internal view returns (bool) {... */\n    tag_175:\n        /* \"contracts/standard_contract.sol\":16710:16714  bool */\n      0x00\n        /* \"contracts/standard_contract.sol\":17516:17528  ownerAddress */\n      dup1\n      sload\n      sub(shl(0xa0, 0x01), 0x01)\n      and\n        /* \"contracts/standard_contract.sol\":16746:16763  getOwnerAddress() */\n      tag_255\n        /* \"contracts/standard_contract.sol\":17439:17536  function getOwnerAddress() internal view returns (address) {... */\n      jump\n        /* \"contracts/standard_contract.sol\":14898:15672  function withdrawERC777Tokens(address _tokenAddress, address _address, uint256 _value, bytes memory _data) internal {... */\n    tag_180:\n        /* \"contracts/standard_contract.sol\":15220:15233  _tokenAddress */\n      dup4\n      sub(shl(0xa0, 0x01), 0x01)\n        /* \"contracts/standard_contract.sol\":15220:15245  _tokenAddress.code.length */\n      and\n      extcodesize\n        /* \"contracts/standard_contract.sol\":15249:15250  0 */\n      0x00\n        /* \"contracts/standard_contract.sol\":15220:15250  _tokenAddress.code.length == 0 */\n      sub\n        /* \"contracts/standard_contract.sol\":15217:15313  if(_tokenAddress.code.length == 0) {... */\n      tag_260\n      jumpi\n        /* \"contracts/standard_contract.sol\":15267:15301  revert(\"ERC777TokenContractError\") */\n      mload(0x40)\n      shl(0xe5, 0x461bcd)\n      dup2\n      mstore\n        /* \"#utility.yul\":10624:10626   */\n      0x20\n        /* \"contracts/standard_contract.sol\":15267:15301  revert(\"ERC777TokenContractError\") */\n      0x04\n      dup3\n      add\n        /* \"#utility.yul\":10606:10627   */\n      mstore\n        /* \"#utility.yul\":10663:10665   */\n      0x18\n        /* \"#utility.yul\":10643:10661   */\n      0x24\n      dup3\n      add\n        /* \"#utility.yul\":10636:10666   */\n      mstore\n        /* \"#utility.yul\":10702:10728   */\n      0x455243373737546f6b656e436f6e74726163744572726f720000000000000000\n        /* \"#utility.yul\":10682:10700   */\n      0x44\n      dup3\n      add\n        /* \"#utility.yul\":10675:10729   */\n      mstore\n        /* \"#utility.yul\":10746:10764   */\n      0x64\n      add\n        /* \"contracts/standard_contract.sol\":15267:15301  revert(\"ERC777TokenContractError\") */\n      tag_220\n        /* \"#utility.yul\":10422:10770   */\n      jump\n        /* \"contracts/standard_contract.sol\":15217:15313  if(_tokenAddress.code.length == 0) {... */\n    tag_260:\n        /* \"contracts/standard_contract.sol\":15325:15346  bytes memory callData */\n      0x00\n        /* \"contracts/standard_contract.sol\":15372:15408  IERC777(_tokenAddress).send.selector */\n      shl(0xe0, 0x9bd9bbc6)\n        /* \"contracts/standard_contract.sol\":15410:15418  _address */\n      dup5\n        /* \"contracts/standard_contract.sol\":15420:15426  _value */\n      dup5\n        /* \"contracts/standard_contract.sol\":15428:15433  _data */\n      dup5\n        /* \"contracts/standard_contract.sol\":15349:15434  abi.encodeWithSelector(IERC777(_tokenAddress).send.selector, _address, _value, _data) */\n      add(0x24, mload(0x40))\n      tag_263\n      swap4\n      swap3\n      swap2\n      swap1\n      tag_264\n      jump\t// in\n    tag_263:\n      mload(0x40)\n      0x20\n      dup2\n      dup4\n      sub\n      sub\n      dup2\n      mstore\n      swap1\n      0x40\n      mstore\n      swap1\n      not(sub(shl(0xe0, 0x01), 0x01))\n      and\n      0x20\n      dup3\n      add\n      dup1\n      mload\n      sub(shl(0xe0, 0x01), 0x01)\n      dup4\n      dup2\n      dup4\n      and\n      or\n      dup4\n      mstore\n      pop\n      pop\n      pop\n      pop\n        /* \"contracts/standard_contract.sol\":15325:15434  bytes memory callData = abi.encodeWithSelector(IERC777(_tokenAddress).send.selector, _address, _value, _data) */\n      swap1\n      pop\n        /* \"contracts/standard_contract.sol\":15446:15458  bool success */\n      0x00\n        /* \"contracts/standard_contract.sol\":15460:15483  bytes memory returnData */\n      dup1\n        /* \"contracts/standard_contract.sol\":15487:15500  _tokenAddress */\n      dup7\n      sub(shl(0xa0, 0x01), 0x01)\n        /* \"contracts/standard_contract.sol\":15487:15505  _tokenAddress.call */\n      and\n        /* \"contracts/standard_contract.sol\":15506:15514  callData */\n      dup4\n        /* \"contracts/standard_contract.sol\":15487:15515  _tokenAddress.call(callData) */\n      mload(0x40)\n      tag_265\n      swap2\n      swap1\n      tag_229\n      jump\t// in\n    tag_265:\n      0x00\n      mload(0x40)\n      dup1\n      dup4\n      sub\n      dup2\n      0x00\n      dup7\n      gas\n      call\n      swap2\n      pop\n      pop\n      returndatasize\n      dup1\n      0x00\n      dup2\n      eq\n      tag_268\n      jumpi\n      mload(0x40)\n      swap2\n      pop\n      and(add(returndatasize, 0x3f), not(0x1f))\n      dup3\n      add\n      0x40\n      mstore\n      returndatasize\n      dup3\n      mstore\n      returndatasize\n      0x00\n      0x20\n      dup5\n      add\n      returndatacopy\n      jump(tag_267)\n    tag_268:\n      0x60\n      swap2\n      pop\n    tag_267:\n      pop\n        /* \"contracts/standard_contract.sol\":15445:15515  (bool success, bytes memory returnData) = _tokenAddress.call(callData) */\n      swap2\n      pop\n      swap2\n      pop\n        /* \"contracts/standard_contract.sol\":15532:15539  success */\n      dup2\n        /* \"contracts/standard_contract.sol\":15531:15539  !success */\n      iszero\n        /* \"contracts/standard_contract.sol\":15531:15602  !success || (returnData.length != 0 && !abi.decode(returnData, (bool))) */\n      dup1\n      tag_270\n      jumpi\n      pop\n        /* \"contracts/standard_contract.sol\":15544:15561  returnData.length */\n      dup1\n      mload\n        /* \"contracts/standard_contract.sol\":15544:15566  returnData.length != 0 */\n      iszero\n      dup1\n      iszero\n      swap1\n        /* \"contracts/standard_contract.sol\":15544:15601  returnData.length != 0 && !abi.decode(returnData, (bool)) */\n      tag_270\n      jumpi\n      pop\n        /* \"contracts/standard_contract.sol\":15582:15592  returnData */\n      dup1\n        /* \"contracts/standard_contract.sol\":15571:15601  abi.decode(returnData, (bool)) */\n      dup1\n      0x20\n      add\n      swap1\n      mload\n      dup2\n      add\n      swap1\n      tag_271\n      swap2\n      swap1\n      tag_236\n      jump\t// in\n    tag_271:\n        /* \"contracts/standard_contract.sol\":15570:15601  !abi.decode(returnData, (bool)) */\n      iszero\n        /* \"contracts/standard_contract.sol\":15544:15601  returnData.length != 0 && !abi.decode(returnData, (bool)) */\n    tag_270:\n        /* \"contracts/standard_contract.sol\":15528:15665  if(!success || (returnData.length != 0 && !abi.decode(returnData, (bool)))) {... */\n      iszero\n      tag_272\n      jumpi\n        /* \"contracts/standard_contract.sol\":15619:15653  revert(\"ERC777TokenTransferError\") */\n      mload(0x40)\n      shl(0xe5, 0x461bcd)\n      dup2\n      mstore\n        /* \"#utility.yul\":11642:11644   */\n      0x20\n        /* \"contracts/standard_contract.sol\":15619:15653  revert(\"ERC777TokenTransferError\") */\n      0x04\n      dup3\n      add\n        /* \"#utility.yul\":11624:11645   */\n      mstore\n        /* \"#utility.yul\":11681:11683   */\n      0x18\n        /* \"#utility.yul\":11661:11679   */\n      0x24\n      dup3\n      add\n        /* \"#utility.yul\":11654:11684   */\n      mstore\n        /* \"#utility.yul\":11720:11746   */\n      0x455243373737546f6b656e5472616e736665724572726f720000000000000000\n        /* \"#utility.yul\":11700:11718   */\n      0x44\n      dup3\n      add\n        /* \"#utility.yul\":11693:11747   */\n      mstore\n        /* \"#utility.yul\":11764:11782   */\n      0x64\n      add\n        /* \"contracts/standard_contract.sol\":15619:15653  revert(\"ERC777TokenTransferError\") */\n      tag_220\n        /* \"#utility.yul\":11440:11788   */\n      jump\n        /* \"contracts/standard_contract.sol\":15528:15665  if(!success || (returnData.length != 0 && !abi.decode(returnData, (bool)))) {... */\n    tag_272:\n        /* \"contracts/standard_contract.sol\":15014:15672  {... */\n      pop\n      pop\n      pop\n        /* \"contracts/standard_contract.sol\":14898:15672  function withdrawERC777Tokens(address _tokenAddress, address _address, uint256 _value, bytes memory _data) internal {... */\n      pop\n      pop\n      pop\n      pop\n      jump\t// out\n        /* \"contracts/standard_contract.sol\":17708:17791  function setLocked(bool _isLocked) internal {... */\n    tag_185:\n        /* \"contracts/standard_contract.sol\":17763:17771  lockFlag */\n      0x01\n        /* \"contracts/standard_contract.sol\":17763:17783  lockFlag = _isLocked */\n      dup1\n      sload\n      swap2\n      iszero\n      iszero\n      shl(0xa0, 0x01)\n      mul\n      not(shl(0xa0, 0xff))\n      swap1\n      swap3\n      and\n      swap2\n      swap1\n      swap2\n      or\n      swap1\n      sstore\n        /* \"contracts/standard_contract.sol\":17708:17791  function setLocked(bool _isLocked) internal {... */\n      jump\t// out\n        /* \"contracts/standard_contract.sol\":14126:14890  function withdrawERC721Tokens(address _tokenAddress, uint256 _id, address _address) internal {... */\n    tag_190:\n        /* \"contracts/standard_contract.sol\":14425:14438  _tokenAddress */\n      dup3\n      sub(shl(0xa0, 0x01), 0x01)\n        /* \"contracts/standard_contract.sol\":14425:14450  _tokenAddress.code.length */\n      and\n      extcodesize\n        /* \"contracts/standard_contract.sol\":14454:14455  0 */\n      0x00\n        /* \"contracts/standard_contract.sol\":14425:14455  _tokenAddress.code.length == 0 */\n      sub\n        /* \"contracts/standard_contract.sol\":14422:14518  if(_tokenAddress.code.length == 0) {... */\n      tag_277\n      jumpi\n        /* \"contracts/standard_contract.sol\":14472:14506  revert(\"ERC721TokenContractError\") */\n      mload(0x40)\n      shl(0xe5, 0x461bcd)\n      dup2\n      mstore\n        /* \"#utility.yul\":11995:11997   */\n      0x20\n        /* \"contracts/standard_contract.sol\":14472:14506  revert(\"ERC721TokenContractError\") */\n      0x04\n      dup3\n      add\n        /* \"#utility.yul\":11977:11998   */\n      mstore\n        /* \"#utility.yul\":12034:12036   */\n      0x18\n        /* \"#utility.yul\":12014:12032   */\n      0x24\n      dup3\n      add\n        /* \"#utility.yul\":12007:12037   */\n      mstore\n        /* \"#utility.yul\":12073:12099   */\n      0x455243373231546f6b656e436f6e74726163744572726f720000000000000000\n        /* \"#utility.yul\":12053:12071   */\n      0x44\n      dup3\n      add\n        /* \"#utility.yul\":12046:12100   */\n      mstore\n        /* \"#utility.yul\":12117:12135   */\n      0x64\n      add\n        /* \"contracts/standard_contract.sol\":14472:14506  revert(\"ERC721TokenContractError\") */\n      tag_220\n        /* \"#utility.yul\":11793:12141   */\n      jump\n        /* \"contracts/standard_contract.sol\":14422:14518  if(_tokenAddress.code.length == 0) {... */\n    tag_277:\n        /* \"contracts/standard_contract.sol\":14554:14652  abi.encodeWithSelector(IERC721(_tokenAddress).transferFrom.selector, address(this), _address, _id) */\n      0x40\n      dup1\n      mload\n        /* \"contracts/standard_contract.sol\":14631:14635  this */\n      address\n        /* \"contracts/standard_contract.sol\":14554:14652  abi.encodeWithSelector(IERC721(_tokenAddress).transferFrom.selector, address(this), _address, _id) */\n      0x24\n      dup3\n      add\n        /* \"#utility.yul\":12386:12420   */\n      mstore\n      sub(shl(0xa0, 0x01), 0x01)\n        /* \"#utility.yul\":12456:12471   */\n      dup4\n      dup2\n      and\n        /* \"#utility.yul\":12436:12454   */\n      0x44\n      dup4\n      add\n        /* \"#utility.yul\":12429:12472   */\n      mstore\n        /* \"#utility.yul\":12488:12506   */\n      0x64\n      dup1\n      dup4\n      add\n        /* \"#utility.yul\":12481:12515   */\n      dup7\n      swap1\n      mstore\n        /* \"contracts/standard_contract.sol\":14554:14652  abi.encodeWithSelector(IERC721(_tokenAddress).transferFrom.selector, address(this), _address, _id) */\n      dup4\n      mload\n      dup1\n      dup5\n      sub\n      swap1\n      swap2\n      add\n      dup2\n      mstore\n        /* \"#utility.yul\":12321:12339   */\n      0x84\n      swap1\n      swap3\n      add\n        /* \"contracts/standard_contract.sol\":14554:14652  abi.encodeWithSelector(IERC721(_tokenAddress).transferFrom.selector, address(this), _address, _id) */\n      dup4\n      mstore\n      0x20\n      dup3\n      add\n      dup1\n      mload\n      sub(shl(0xe0, 0x01), 0x01)\n      and\n      shl(0xe0, 0x23b872dd)\n      or\n      swap1\n      mstore\n        /* \"contracts/standard_contract.sol\":14705:14733  _tokenAddress.call(callData) */\n      swap2\n      mload\n        /* \"contracts/standard_contract.sol\":14554:14652  abi.encodeWithSelector(IERC721(_tokenAddress).transferFrom.selector, address(this), _address, _id) */\n      swap1\n      swap2\n      0x00\n      swap2\n      dup3\n      swap2\n        /* \"contracts/standard_contract.sol\":14705:14723  _tokenAddress.call */\n      dup8\n      and\n      swap1\n        /* \"contracts/standard_contract.sol\":14705:14733  _tokenAddress.call(callData) */\n      tag_282\n      swap1\n        /* \"contracts/standard_contract.sol\":14554:14652  abi.encodeWithSelector(IERC721(_tokenAddress).transferFrom.selector, address(this), _address, _id) */\n      dup6\n      swap1\n        /* \"contracts/standard_contract.sol\":14705:14733  _tokenAddress.call(callData) */\n      tag_229\n      jump\t// in\n    tag_282:\n      0x00\n      mload(0x40)\n      dup1\n      dup4\n      sub\n      dup2\n      0x00\n      dup7\n      gas\n      call\n      swap2\n      pop\n      pop\n      returndatasize\n      dup1\n      0x00\n      dup2\n      eq\n      tag_285\n      jumpi\n      mload(0x40)\n      swap2\n      pop\n      and(add(returndatasize, 0x3f), not(0x1f))\n      dup3\n      add\n      0x40\n      mstore\n      returndatasize\n      dup3\n      mstore\n      returndatasize\n      0x00\n      0x20\n      dup5\n      add\n      returndatacopy\n      jump(tag_284)\n    tag_285:\n      0x60\n      swap2\n      pop\n    tag_284:\n      pop\n        /* \"contracts/standard_contract.sol\":14663:14733  (bool success, bytes memory returnData) = _tokenAddress.call(callData) */\n      swap2\n      pop\n      swap2\n      pop\n        /* \"contracts/standard_contract.sol\":14750:14757  success */\n      dup2\n        /* \"contracts/standard_contract.sol\":14749:14757  !success */\n      iszero\n        /* \"contracts/standard_contract.sol\":14749:14820  !success || (returnData.length != 0 && !abi.decode(returnData, (bool))) */\n      dup1\n      tag_287\n      jumpi\n      pop\n        /* \"contracts/standard_contract.sol\":14762:14779  returnData.length */\n      dup1\n      mload\n        /* \"contracts/standard_contract.sol\":14762:14784  returnData.length != 0 */\n      iszero\n      dup1\n      iszero\n      swap1\n        /* \"contracts/standard_contract.sol\":14762:14819  returnData.length != 0 && !abi.decode(returnData, (bool)) */\n      tag_287\n      jumpi\n      pop\n        /* \"contracts/standard_contract.sol\":14800:14810  returnData */\n      dup1\n        /* \"contracts/standard_contract.sol\":14789:14819  abi.decode(returnData, (bool)) */\n      dup1\n      0x20\n      add\n      swap1\n      mload\n      dup2\n      add\n      swap1\n      tag_288\n      swap2\n      swap1\n      tag_236\n      jump\t// in\n    tag_288:\n        /* \"contracts/standard_contract.sol\":14788:14819  !abi.decode(returnData, (bool)) */\n      iszero\n        /* \"contracts/standard_contract.sol\":14762:14819  returnData.length != 0 && !abi.decode(returnData, (bool)) */\n    tag_287:\n        /* \"contracts/standard_contract.sol\":14746:14883  if(!success || (returnData.length != 0 && !abi.decode(returnData, (bool)))) {... */\n      iszero\n      tag_237\n      jumpi\n        /* \"contracts/standard_contract.sol\":14837:14871  revert(\"ERC721TokenTransferError\") */\n      mload(0x40)\n      shl(0xe5, 0x461bcd)\n      dup2\n      mstore\n        /* \"#utility.yul\":12728:12730   */\n      0x20\n        /* \"contracts/standard_contract.sol\":14837:14871  revert(\"ERC721TokenTransferError\") */\n      0x04\n      dup3\n      add\n        /* \"#utility.yul\":12710:12731   */\n      mstore\n        /* \"#utility.yul\":12767:12769   */\n      0x18\n        /* \"#utility.yul\":12747:12765   */\n      0x24\n      dup3\n      add\n        /* \"#utility.yul\":12740:12770   */\n      mstore\n        /* \"#utility.yul\":12806:12832   */\n      0x455243373231546f6b656e5472616e736665724572726f720000000000000000\n        /* \"#utility.yul\":12786:12804   */\n      0x44\n      dup3\n      add\n        /* \"#utility.yul\":12779:12833   */\n      mstore\n        /* \"#utility.yul\":12850:12868   */\n      0x64\n      add\n        /* \"contracts/standard_contract.sol\":14837:14871  revert(\"ERC721TokenTransferError\") */\n      tag_220\n        /* \"#utility.yul\":12526:12874   */\n      jump\n        /* \"contracts/standard_contract.sol\":15680:16503  function withdrawERC1155Tokens(address _tokenAddress, uint256 _id, address _address, uint256 _value, bytes memory _data) internal {... */\n    tag_208:\n        /* \"contracts/standard_contract.sol\":16016:16029  _tokenAddress */\n      dup5\n      sub(shl(0xa0, 0x01), 0x01)\n        /* \"contracts/standard_contract.sol\":16016:16041  _tokenAddress.code.length */\n      and\n      extcodesize\n        /* \"contracts/standard_contract.sol\":16045:16046  0 */\n      0x00\n        /* \"contracts/standard_contract.sol\":16016:16046  _tokenAddress.code.length == 0 */\n      sub\n        /* \"contracts/standard_contract.sol\":16013:16110  if(_tokenAddress.code.length == 0) {... */\n      tag_297\n      jumpi\n        /* \"contracts/standard_contract.sol\":16063:16098  revert(\"ERC1155TokenContractError\") */\n      mload(0x40)\n      shl(0xe5, 0x461bcd)\n      dup2\n      mstore\n        /* \"#utility.yul\":13081:13083   */\n      0x20\n        /* \"contracts/standard_contract.sol\":16063:16098  revert(\"ERC1155TokenContractError\") */\n      0x04\n      dup3\n      add\n        /* \"#utility.yul\":13063:13084   */\n      mstore\n        /* \"#utility.yul\":13120:13122   */\n      0x19\n        /* \"#utility.yul\":13100:13118   */\n      0x24\n      dup3\n      add\n        /* \"#utility.yul\":13093:13123   */\n      mstore\n        /* \"#utility.yul\":13159:13186   */\n      0x45524331313535546f6b656e436f6e74726163744572726f7200000000000000\n        /* \"#utility.yul\":13139:13157   */\n      0x44\n      dup3\n      add\n        /* \"#utility.yul\":13132:13187   */\n      mstore\n        /* \"#utility.yul\":13204:13222   */\n      0x64\n      add\n        /* \"contracts/standard_contract.sol\":16063:16098  revert(\"ERC1155TokenContractError\") */\n      tag_220\n        /* \"#utility.yul\":12879:13228   */\n      jump\n        /* \"contracts/standard_contract.sol\":16013:16110  if(_tokenAddress.code.length == 0) {... */\n    tag_297:\n        /* \"contracts/standard_contract.sol\":16122:16143  bytes memory callData */\n      0x00\n        /* \"contracts/standard_contract.sol\":16169:16218  IERC1155(_tokenAddress).safeTransferFrom.selector */\n      shl(0xe0, 0xf242432a)\n        /* \"contracts/standard_contract.sol\":16228:16232  this */\n      address\n        /* \"contracts/standard_contract.sol\":16235:16243  _address */\n      dup6\n        /* \"contracts/standard_contract.sol\":16245:16248  _id */\n      dup8\n        /* \"contracts/standard_contract.sol\":16250:16256  _value */\n      dup7\n        /* \"contracts/standard_contract.sol\":16258:16263  _data */\n      dup7\n        /* \"contracts/standard_contract.sol\":16146:16264  abi.encodeWithSelector(IERC1155(_tokenAddress).safeTransferFrom.selector, address(this), _address, _id, _value, _data) */\n      add(0x24, mload(0x40))\n      tag_300\n      swap6\n      swap5\n      swap4\n      swap3\n      swap2\n      swap1\n      tag_301\n      jump\t// in\n    tag_300:\n      mload(0x40)\n      0x20\n      dup2\n      dup4\n      sub\n      sub\n      dup2\n      mstore\n      swap1\n      0x40\n      mstore\n      swap1\n      not(sub(shl(0xe0, 0x01), 0x01))\n      and\n      0x20\n      dup3\n      add\n      dup1\n      mload\n      sub(shl(0xe0, 0x01), 0x01)\n      dup4\n      dup2\n      dup4\n      and\n      or\n      dup4\n      mstore\n      pop\n      pop\n      pop\n      pop\n        /* \"contracts/standard_contract.sol\":16122:16264  bytes memory callData = abi.encodeWithSelector(IERC1155(_tokenAddress).safeTransferFrom.selector, address(this), _address, _id, _value, _data) */\n      swap1\n      pop\n        /* \"contracts/standard_contract.sol\":16276:16288  bool success */\n      0x00\n        /* \"contracts/standard_contract.sol\":16290:16313  bytes memory returnData */\n      dup1\n        /* \"contracts/standard_contract.sol\":16317:16330  _tokenAddress */\n      dup8\n      sub(shl(0xa0, 0x01), 0x01)\n        /* \"contracts/standard_contract.sol\":16317:16335  _tokenAddress.call */\n      and\n        /* \"contracts/standard_contract.sol\":16336:16344  callData */\n      dup4\n        /* \"contracts/standard_contract.sol\":16317:16345  _tokenAddress.call(callData) */\n      mload(0x40)\n      tag_302\n      swap2\n      swap1\n      tag_229\n      jump\t// in\n    tag_302:\n      0x00\n      mload(0x40)\n      dup1\n      dup4\n      sub\n      dup2\n      0x00\n      dup7\n      gas\n      call\n      swap2\n      pop\n      pop\n      returndatasize\n      dup1\n      0x00\n      dup2\n      eq\n      tag_305\n      jumpi\n      mload(0x40)\n      swap2\n      pop\n      and(add(returndatasize, 0x3f), not(0x1f))\n      dup3\n      add\n      0x40\n      mstore\n      returndatasize\n      dup3\n      mstore\n      returndatasize\n      0x00\n      0x20\n      dup5\n      add\n      returndatacopy\n      jump(tag_304)\n    tag_305:\n      0x60\n      swap2\n      pop\n    tag_304:\n      pop\n        /* \"contracts/standard_contract.sol\":16275:16345  (bool success, bytes memory returnData) = _tokenAddress.call(callData) */\n      swap2\n      pop\n      swap2\n      pop\n        /* \"contracts/standard_contract.sol\":16362:16369  success */\n      dup2\n        /* \"contracts/standard_contract.sol\":16361:16369  !success */\n      iszero\n        /* \"contracts/standard_contract.sol\":16361:16432  !success || (returnData.length != 0 && !abi.decode(returnData, (bool))) */\n      dup1\n      tag_307\n      jumpi\n      pop\n        /* \"contracts/standard_contract.sol\":16374:16391  returnData.length */\n      dup1\n      mload\n        /* \"contracts/standard_contract.sol\":16374:16396  returnData.length != 0 */\n      iszero\n      dup1\n      iszero\n      swap1\n        /* \"contracts/standard_contract.sol\":16374:16431  returnData.length != 0 && !abi.decode(returnData, (bool)) */\n      tag_307\n      jumpi\n      pop\n        /* \"contracts/standard_contract.sol\":16412:16422  returnData */\n      dup1\n        /* \"contracts/standard_contract.sol\":16401:16431  abi.decode(returnData, (bool)) */\n      dup1\n      0x20\n      add\n      swap1\n      mload\n      dup2\n      add\n      swap1\n      tag_308\n      swap2\n      swap1\n      tag_236\n      jump\t// in\n    tag_308:\n        /* \"contracts/standard_contract.sol\":16400:16431  !abi.decode(returnData, (bool)) */\n      iszero\n        /* \"contracts/standard_contract.sol\":16374:16431  returnData.length != 0 && !abi.decode(returnData, (bool)) */\n    tag_307:\n        /* \"contracts/standard_contract.sol\":16358:16496  if(!success || (returnData.length != 0 && !abi.decode(returnData, (bool)))) {... */\n      iszero\n      tag_28\n      jumpi\n        /* \"contracts/standard_contract.sol\":16449:16484  revert(\"ERC1155TokenTransferError\") */\n      mload(0x40)\n      shl(0xe5, 0x461bcd)\n      dup2\n      mstore\n        /* \"#utility.yul\":14000:14002   */\n      0x20\n        /* \"contracts/standard_contract.sol\":16449:16484  revert(\"ERC1155TokenTransferError\") */\n      0x04\n      dup3\n      add\n        /* \"#utility.yul\":13982:14003   */\n      mstore\n        /* \"#utility.yul\":14039:14041   */\n      0x19\n        /* \"#utility.yul\":14019:14037   */\n      0x24\n      dup3\n      add\n        /* \"#utility.yul\":14012:14042   */\n      mstore\n        /* \"#utility.yul\":14078:14105   */\n      0x45524331313535546f6b656e5472616e736665724572726f7200000000000000\n        /* \"#utility.yul\":14058:14076   */\n      0x44\n      dup3\n      add\n        /* \"#utility.yul\":14051:14106   */\n      mstore\n        /* \"#utility.yul\":14123:14141   */\n      0x64\n      add\n        /* \"contracts/standard_contract.sol\":16449:16484  revert(\"ERC1155TokenTransferError\") */\n      tag_220\n        /* \"#utility.yul\":13798:14147   */\n      jump\n        /* \"contracts/standard_contract.sol\":17803:18008  function setOwnerAddress(address _address) internal {... */\n    tag_252:\n        /* \"contracts/standard_contract.sol\":17881:17893  ownerAddress */\n      sload(0x00)\n      sub(shl(0xa0, 0x01), 0x01)\n        /* \"contracts/standard_contract.sol\":17869:17893  _address != ownerAddress */\n      dup3\n      dup2\n      and\n        /* \"contracts/standard_contract.sol\":17881:17893  ownerAddress */\n      swap2\n      and\n        /* \"contracts/standard_contract.sol\":17869:17893  _address != ownerAddress */\n      eq\n        /* \"contracts/standard_contract.sol\":17866:18001  if(_address != ownerAddress) {... */\n      tag_155\n      jumpi\n        /* \"contracts/standard_contract.sol\":17928:17940  ownerAddress */\n      0x00\n      dup1\n      sload\n        /* \"contracts/standard_contract.sol\":17915:17951  OwnerChanged(ownerAddress, _address) */\n      mload(0x40)\n      sub(shl(0xa0, 0x01), 0x01)\n      dup1\n      dup6\n      and\n      swap4\n        /* \"contracts/standard_contract.sol\":17928:17940  ownerAddress */\n      swap3\n      and\n      swap2\n        /* \"contracts/standard_contract.sol\":17915:17951  OwnerChanged(ownerAddress, _address) */\n      0xb532073b38c83145e3e5135377a08bf9aab55bc0fd7c1179cd4fb995d2a5159c\n      swap2\n      log3\n        /* \"contracts/standard_contract.sol\":17966:17978  ownerAddress */\n      0x00\n        /* \"contracts/standard_contract.sol\":17966:17989  ownerAddress = _address */\n      dup1\n      sload\n      sub(shl(0xa0, 0x01), 0x01)\n      dup4\n      and\n      not(sub(shl(0xa0, 0x01), 0x01))\n      swap1\n      swap2\n      and\n      or\n      swap1\n      sstore\n        /* \"contracts/standard_contract.sol\":17803:18008  function setOwnerAddress(address _address) internal {... */\n      pop\n      jump\t// out\n        /* \"#utility.yul\":14:187   */\n    tag_316:\n        /* \"#utility.yul\":82:102   */\n      dup1\n      calldataload\n      sub(shl(0xa0, 0x01), 0x01)\n        /* \"#utility.yul\":131:162   */\n      dup2\n      and\n        /* \"#utility.yul\":121:163   */\n      dup2\n      eq\n        /* \"#utility.yul\":111:181   */\n      tag_326\n      jumpi\n        /* \"#utility.yul\":177:178   */\n      0x00\n        /* \"#utility.yul\":174:175   */\n      dup1\n        /* \"#utility.yul\":167:179   */\n      revert\n        /* \"#utility.yul\":111:181   */\n    tag_326:\n        /* \"#utility.yul\":14:187   */\n      swap2\n      swap1\n      pop\n      jump\t// out\n        /* \"#utility.yul\":192:539   */\n    tag_317:\n        /* \"#utility.yul\":243:251   */\n      0x00\n        /* \"#utility.yul\":253:259   */\n      dup1\n        /* \"#utility.yul\":307:310   */\n      dup4\n        /* \"#utility.yul\":300:304   */\n      0x1f\n        /* \"#utility.yul\":292:298   */\n      dup5\n        /* \"#utility.yul\":288:305   */\n      add\n        /* \"#utility.yul\":284:311   */\n      slt\n        /* \"#utility.yul\":274:329   */\n      tag_328\n      jumpi\n        /* \"#utility.yul\":325:326   */\n      0x00\n        /* \"#utility.yul\":322:323   */\n      dup1\n        /* \"#utility.yul\":315:327   */\n      revert\n        /* \"#utility.yul\":274:329   */\n    tag_328:\n      pop\n        /* \"#utility.yul\":348:368   */\n      dup2\n      calldataload\n        /* \"#utility.yul\":391:409   */\n      0xffffffffffffffff\n        /* \"#utility.yul\":380:410   */\n      dup2\n      gt\n        /* \"#utility.yul\":377:427   */\n      iszero\n      tag_329\n      jumpi\n        /* \"#utility.yul\":423:424   */\n      0x00\n        /* \"#utility.yul\":420:421   */\n      dup1\n        /* \"#utility.yul\":413:425   */\n      revert\n        /* \"#utility.yul\":377:427   */\n    tag_329:\n        /* \"#utility.yul\":460:464   */\n      0x20\n        /* \"#utility.yul\":452:458   */\n      dup4\n        /* \"#utility.yul\":448:465   */\n      add\n        /* \"#utility.yul\":436:465   */\n      swap2\n      pop\n        /* \"#utility.yul\":512:515   */\n      dup4\n        /* \"#utility.yul\":505:509   */\n      0x20\n        /* \"#utility.yul\":496:502   */\n      dup3\n        /* \"#utility.yul\":488:494   */\n      dup6\n        /* \"#utility.yul\":484:503   */\n      add\n        /* \"#utility.yul\":480:510   */\n      add\n        /* \"#utility.yul\":477:516   */\n      gt\n        /* \"#utility.yul\":474:533   */\n      iszero\n      tag_330\n      jumpi\n        /* \"#utility.yul\":529:530   */\n      0x00\n        /* \"#utility.yul\":526:527   */\n      dup1\n        /* \"#utility.yul\":519:531   */\n      revert\n        /* \"#utility.yul\":474:533   */\n    tag_330:\n        /* \"#utility.yul\":192:539   */\n      swap3\n      pop\n      swap3\n      swap1\n      pop\n      jump\t// out\n        /* \"#utility.yul\":544:1554   */\n    tag_29:\n        /* \"#utility.yul\":670:676   */\n      0x00\n        /* \"#utility.yul\":678:684   */\n      dup1\n        /* \"#utility.yul\":686:692   */\n      0x00\n        /* \"#utility.yul\":694:700   */\n      dup1\n        /* \"#utility.yul\":702:708   */\n      0x00\n        /* \"#utility.yul\":710:716   */\n      dup1\n        /* \"#utility.yul\":718:724   */\n      0x00\n        /* \"#utility.yul\":726:732   */\n      dup1\n        /* \"#utility.yul\":779:782   */\n      0xc0\n        /* \"#utility.yul\":767:776   */\n      dup10\n        /* \"#utility.yul\":758:765   */\n      dup12\n        /* \"#utility.yul\":754:777   */\n      sub\n        /* \"#utility.yul\":750:783   */\n      slt\n        /* \"#utility.yul\":747:800   */\n      iszero\n      tag_332\n      jumpi\n        /* \"#utility.yul\":796:797   */\n      0x00\n        /* \"#utility.yul\":793:794   */\n      dup1\n        /* \"#utility.yul\":786:798   */\n      revert\n        /* \"#utility.yul\":747:800   */\n    tag_332:\n        /* \"#utility.yul\":819:848   */\n      tag_333\n        /* \"#utility.yul\":838:847   */\n      dup10\n        /* \"#utility.yul\":819:848   */\n      tag_316\n      jump\t// in\n    tag_333:\n        /* \"#utility.yul\":809:848   */\n      swap8\n      pop\n        /* \"#utility.yul\":867:905   */\n      tag_334\n        /* \"#utility.yul\":901:903   */\n      0x20\n        /* \"#utility.yul\":890:899   */\n      dup11\n        /* \"#utility.yul\":886:904   */\n      add\n        /* \"#utility.yul\":867:905   */\n      tag_316\n      jump\t// in\n    tag_334:\n        /* \"#utility.yul\":857:905   */\n      swap7\n      pop\n        /* \"#utility.yul\":924:962   */\n      tag_335\n        /* \"#utility.yul\":958:960   */\n      0x40\n        /* \"#utility.yul\":947:956   */\n      dup11\n        /* \"#utility.yul\":943:961   */\n      add\n        /* \"#utility.yul\":924:962   */\n      tag_316\n      jump\t// in\n    tag_335:\n        /* \"#utility.yul\":914:962   */\n      swap6\n      pop\n        /* \"#utility.yul\":1009:1011   */\n      0x60\n        /* \"#utility.yul\":998:1007   */\n      dup10\n        /* \"#utility.yul\":994:1012   */\n      add\n        /* \"#utility.yul\":981:1013   */\n      calldataload\n        /* \"#utility.yul\":971:1013   */\n      swap5\n      pop\n        /* \"#utility.yul\":1064:1067   */\n      0x80\n        /* \"#utility.yul\":1053:1062   */\n      dup10\n        /* \"#utility.yul\":1049:1068   */\n      add\n        /* \"#utility.yul\":1036:1069   */\n      calldataload\n        /* \"#utility.yul\":1088:1106   */\n      0xffffffffffffffff\n        /* \"#utility.yul\":1129:1131   */\n      dup1\n        /* \"#utility.yul\":1121:1127   */\n      dup3\n        /* \"#utility.yul\":1118:1132   */\n      gt\n        /* \"#utility.yul\":1115:1149   */\n      iszero\n      tag_336\n      jumpi\n        /* \"#utility.yul\":1145:1146   */\n      0x00\n        /* \"#utility.yul\":1142:1143   */\n      dup1\n        /* \"#utility.yul\":1135:1147   */\n      revert\n        /* \"#utility.yul\":1115:1149   */\n    tag_336:\n        /* \"#utility.yul\":1184:1242   */\n      tag_337\n        /* \"#utility.yul\":1234:1241   */\n      dup13\n        /* \"#utility.yul\":1225:1231   */\n      dup4\n        /* \"#utility.yul\":1214:1223   */\n      dup14\n        /* \"#utility.yul\":1210:1232   */\n      add\n        /* \"#utility.yul\":1184:1242   */\n      tag_317\n      jump\t// in\n    tag_337:\n        /* \"#utility.yul\":1261:1269   */\n      swap1\n      swap7\n      pop\n        /* \"#utility.yul\":1158:1242   */\n      swap5\n      pop\n        /* \"#utility.yul\":1349:1352   */\n      0xa0\n        /* \"#utility.yul\":1334:1353   */\n      dup12\n      add\n        /* \"#utility.yul\":1321:1354   */\n      calldataload\n      swap2\n      pop\n        /* \"#utility.yul\":1366:1382   */\n      dup1\n      dup3\n      gt\n        /* \"#utility.yul\":1363:1399   */\n      iszero\n      tag_338\n      jumpi\n        /* \"#utility.yul\":1395:1396   */\n      0x00\n        /* \"#utility.yul\":1392:1393   */\n      dup1\n        /* \"#utility.yul\":1385:1397   */\n      revert\n        /* \"#utility.yul\":1363:1399   */\n    tag_338:\n      pop\n        /* \"#utility.yul\":1434:1494   */\n      tag_339\n        /* \"#utility.yul\":1486:1493   */\n      dup12\n        /* \"#utility.yul\":1475:1483   */\n      dup3\n        /* \"#utility.yul\":1464:1473   */\n      dup13\n        /* \"#utility.yul\":1460:1484   */\n      add\n        /* \"#utility.yul\":1434:1494   */\n      tag_317\n      jump\t// in\n    tag_339:\n        /* \"#utility.yul\":544:1554   */\n      swap10\n      swap13\n      swap9\n      swap12\n      pop\n      swap7\n      swap10\n      pop\n      swap5\n      swap8\n      swap4\n      swap7\n      swap3\n      swap6\n        /* \"#utility.yul\":1513:1521   */\n      swap5\n      pop\n      pop\n      pop\n        /* \"#utility.yul\":544:1554   */\n      jump\t// out\n        /* \"#utility.yul\":1559:1845   */\n    tag_34:\n        /* \"#utility.yul\":1617:1623   */\n      0x00\n        /* \"#utility.yul\":1670:1672   */\n      0x20\n        /* \"#utility.yul\":1658:1667   */\n      dup3\n        /* \"#utility.yul\":1649:1656   */\n      dup5\n        /* \"#utility.yul\":1645:1668   */\n      sub\n        /* \"#utility.yul\":1641:1673   */\n      slt\n        /* \"#utility.yul\":1638:1690   */\n      iszero\n      tag_341\n      jumpi\n        /* \"#utility.yul\":1686:1687   */\n      0x00\n        /* \"#utility.yul\":1683:1684   */\n      dup1\n        /* \"#utility.yul\":1676:1688   */\n      revert\n        /* \"#utility.yul\":1638:1690   */\n    tag_341:\n        /* \"#utility.yul\":1712:1735   */\n      dup2\n      calldataload\n      not(sub(shl(0xe0, 0x01), 0x01))\n        /* \"#utility.yul\":1764:1796   */\n      dup2\n      and\n        /* \"#utility.yul\":1754:1797   */\n      dup2\n      eq\n        /* \"#utility.yul\":1744:1815   */\n      tag_342\n      jumpi\n        /* \"#utility.yul\":1811:1812   */\n      0x00\n        /* \"#utility.yul\":1808:1809   */\n      dup1\n        /* \"#utility.yul\":1801:1813   */\n      revert\n        /* \"#utility.yul\":1744:1815   */\n    tag_342:\n        /* \"#utility.yul\":1834:1839   */\n      swap4\n        /* \"#utility.yul\":1559:1845   */\n      swap3\n      pop\n      pop\n      pop\n      jump\t// out\n        /* \"#utility.yul\":2042:2169   */\n    tag_318:\n        /* \"#utility.yul\":2103:2113   */\n      0x4e487b71\n        /* \"#utility.yul\":2098:2101   */\n      0xe0\n        /* \"#utility.yul\":2094:2114   */\n      shl\n        /* \"#utility.yul\":2091:2092   */\n      0x00\n        /* \"#utility.yul\":2084:2115   */\n      mstore\n        /* \"#utility.yul\":2134:2138   */\n      0x41\n        /* \"#utility.yul\":2131:2132   */\n      0x04\n        /* \"#utility.yul\":2124:2139   */\n      mstore\n        /* \"#utility.yul\":2158:2162   */\n      0x24\n        /* \"#utility.yul\":2155:2156   */\n      0x00\n        /* \"#utility.yul\":2148:2163   */\n      revert\n        /* \"#utility.yul\":2174:2449   */\n    tag_319:\n        /* \"#utility.yul\":2245:2247   */\n      0x40\n        /* \"#utility.yul\":2239:2248   */\n      mload\n        /* \"#utility.yul\":2310:2312   */\n      0x1f\n        /* \"#utility.yul\":2291:2304   */\n      dup3\n      add\n      not(0x1f)\n        /* \"#utility.yul\":2287:2314   */\n      and\n        /* \"#utility.yul\":2275:2315   */\n      dup2\n      add\n        /* \"#utility.yul\":2345:2363   */\n      0xffffffffffffffff\n        /* \"#utility.yul\":2330:2364   */\n      dup2\n      gt\n        /* \"#utility.yul\":2366:2388   */\n      dup3\n      dup3\n      lt\n        /* \"#utility.yul\":2327:2389   */\n      or\n        /* \"#utility.yul\":2324:2412   */\n      iszero\n      tag_347\n      jumpi\n        /* \"#utility.yul\":2392:2410   */\n      tag_347\n      tag_318\n      jump\t// in\n    tag_347:\n        /* \"#utility.yul\":2428:2430   */\n      0x40\n        /* \"#utility.yul\":2421:2443   */\n      mstore\n        /* \"#utility.yul\":2174:2449   */\n      swap2\n      swap1\n      pop\n      jump\t// out\n        /* \"#utility.yul\":2454:2984   */\n    tag_320:\n        /* \"#utility.yul\":2496:2501   */\n      0x00\n        /* \"#utility.yul\":2549:2552   */\n      dup3\n        /* \"#utility.yul\":2542:2546   */\n      0x1f\n        /* \"#utility.yul\":2534:2540   */\n      dup4\n        /* \"#utility.yul\":2530:2547   */\n      add\n        /* \"#utility.yul\":2526:2553   */\n      slt\n        /* \"#utility.yul\":2516:2571   */\n      tag_349\n      jumpi\n        /* \"#utility.yul\":2567:2568   */\n      0x00\n        /* \"#utility.yul\":2564:2565   */\n      dup1\n        /* \"#utility.yul\":2557:2569   */\n      revert\n        /* \"#utility.yul\":2516:2571   */\n    tag_349:\n        /* \"#utility.yul\":2603:2609   */\n      dup2\n        /* \"#utility.yul\":2590:2610   */\n      calldataload\n        /* \"#utility.yul\":2629:2647   */\n      0xffffffffffffffff\n        /* \"#utility.yul\":2625:2627   */\n      dup2\n        /* \"#utility.yul\":2622:2648   */\n      gt\n        /* \"#utility.yul\":2619:2671   */\n      iszero\n      tag_351\n      jumpi\n        /* \"#utility.yul\":2651:2669   */\n      tag_351\n      tag_318\n      jump\t// in\n    tag_351:\n        /* \"#utility.yul\":2695:2750   */\n      tag_352\n        /* \"#utility.yul\":2738:2740   */\n      0x1f\n        /* \"#utility.yul\":2719:2732   */\n      dup3\n      add\n      not(0x1f)\n        /* \"#utility.yul\":2715:2742   */\n      and\n        /* \"#utility.yul\":2744:2748   */\n      0x20\n        /* \"#utility.yul\":2711:2749   */\n      add\n        /* \"#utility.yul\":2695:2750   */\n      tag_319\n      jump\t// in\n    tag_352:\n        /* \"#utility.yul\":2775:2777   */\n      dup2\n        /* \"#utility.yul\":2766:2773   */\n      dup2\n        /* \"#utility.yul\":2759:2778   */\n      mstore\n        /* \"#utility.yul\":2821:2824   */\n      dup5\n        /* \"#utility.yul\":2814:2818   */\n      0x20\n        /* \"#utility.yul\":2809:2811   */\n      dup4\n        /* \"#utility.yul\":2801:2807   */\n      dup7\n        /* \"#utility.yul\":2797:2812   */\n      add\n        /* \"#utility.yul\":2793:2819   */\n      add\n        /* \"#utility.yul\":2790:2825   */\n      gt\n        /* \"#utility.yul\":2787:2842   */\n      iszero\n      tag_353\n      jumpi\n        /* \"#utility.yul\":2838:2839   */\n      0x00\n        /* \"#utility.yul\":2835:2836   */\n      dup1\n        /* \"#utility.yul\":2828:2840   */\n      revert\n        /* \"#utility.yul\":2787:2842   */\n    tag_353:\n        /* \"#utility.yul\":2903:2905   */\n      dup2\n        /* \"#utility.yul\":2896:2900   */\n      0x20\n        /* \"#utility.yul\":2888:2894   */\n      dup6\n        /* \"#utility.yul\":2884:2901   */\n      add\n        /* \"#utility.yul\":2877:2881   */\n      0x20\n        /* \"#utility.yul\":2868:2875   */\n      dup4\n        /* \"#utility.yul\":2864:2882   */\n      add\n        /* \"#utility.yul\":2851:2906   */\n      calldatacopy\n        /* \"#utility.yul\":2951:2952   */\n      0x00\n        /* \"#utility.yul\":2926:2942   */\n      swap2\n      dup2\n      add\n        /* \"#utility.yul\":2944:2948   */\n      0x20\n        /* \"#utility.yul\":2922:2949   */\n      add\n        /* \"#utility.yul\":2915:2953   */\n      swap2\n      swap1\n      swap2\n      mstore\n        /* \"#utility.yul\":2930:2937   */\n      swap4\n        /* \"#utility.yul\":2454:2984   */\n      swap3\n      pop\n      pop\n      pop\n      jump\t// out\n        /* \"#utility.yul\":2989:3526   */\n    tag_41:\n        /* \"#utility.yul\":3084:3090   */\n      0x00\n        /* \"#utility.yul\":3092:3098   */\n      dup1\n        /* \"#utility.yul\":3100:3106   */\n      0x00\n        /* \"#utility.yul\":3108:3114   */\n      dup1\n        /* \"#utility.yul\":3161:3164   */\n      0x80\n        /* \"#utility.yul\":3149:3158   */\n      dup6\n        /* \"#utility.yul\":3140:3147   */\n      dup8\n        /* \"#utility.yul\":3136:3159   */\n      sub\n        /* \"#utility.yul\":3132:3165   */\n      slt\n        /* \"#utility.yul\":3129:3182   */\n      iszero\n      tag_355\n      jumpi\n        /* \"#utility.yul\":3178:3179   */\n      0x00\n        /* \"#utility.yul\":3175:3176   */\n      dup1\n        /* \"#utility.yul\":3168:3180   */\n      revert\n        /* \"#utility.yul\":3129:3182   */\n    tag_355:\n        /* \"#utility.yul\":3201:3230   */\n      tag_356\n        /* \"#utility.yul\":3220:3229   */\n      dup6\n        /* \"#utility.yul\":3201:3230   */\n      tag_316\n      jump\t// in\n    tag_356:\n        /* \"#utility.yul\":3191:3230   */\n      swap4\n      pop\n        /* \"#utility.yul\":3249:3287   */\n      tag_357\n        /* \"#utility.yul\":3283:3285   */\n      0x20\n        /* \"#utility.yul\":3272:3281   */\n      dup7\n        /* \"#utility.yul\":3268:3286   */\n      add\n        /* \"#utility.yul\":3249:3287   */\n      tag_316\n      jump\t// in\n    tag_357:\n        /* \"#utility.yul\":3239:3287   */\n      swap3\n      pop\n        /* \"#utility.yul\":3334:3336   */\n      0x40\n        /* \"#utility.yul\":3323:3332   */\n      dup6\n        /* \"#utility.yul\":3319:3337   */\n      add\n        /* \"#utility.yul\":3306:3338   */\n      calldataload\n        /* \"#utility.yul\":3296:3338   */\n      swap2\n      pop\n        /* \"#utility.yul\":3389:3391   */\n      0x60\n        /* \"#utility.yul\":3378:3387   */\n      dup6\n        /* \"#utility.yul\":3374:3392   */\n      add\n        /* \"#utility.yul\":3361:3393   */\n      calldataload\n        /* \"#utility.yul\":3416:3434   */\n      0xffffffffffffffff\n        /* \"#utility.yul\":3408:3414   */\n      dup2\n        /* \"#utility.yul\":3405:3435   */\n      gt\n        /* \"#utility.yul\":3402:3452   */\n      iszero\n      tag_358\n      jumpi\n        /* \"#utility.yul\":3448:3449   */\n      0x00\n        /* \"#utility.yul\":3445:3446   */\n      dup1\n        /* \"#utility.yul\":3438:3450   */\n      revert\n        /* \"#utility.yul\":3402:3452   */\n    tag_358:\n        /* \"#utility.yul\":3471:3520   */\n      tag_359\n        /* \"#utility.yul\":3512:3519   */\n      dup8\n        /* \"#utility.yul\":3503:3509   */\n      dup3\n        /* \"#utility.yul\":3492:3501   */\n      dup9\n        /* \"#utility.yul\":3488:3510   */\n      add\n        /* \"#utility.yul\":3471:3520   */\n      tag_320\n      jump\t// in\n    tag_359:\n        /* \"#utility.yul\":3461:3520   */\n      swap2\n      pop\n      pop\n        /* \"#utility.yul\":2989:3526   */\n      swap3\n      swap6\n      swap2\n      swap5\n      pop\n      swap3\n      pop\n      jump\t// out\n        /* \"#utility.yul\":3738:3992   */\n    tag_48:\n        /* \"#utility.yul\":3806:3812   */\n      0x00\n        /* \"#utility.yul\":3814:3820   */\n      dup1\n        /* \"#utility.yul\":3867:3869   */\n      0x40\n        /* \"#utility.yul\":3855:3864   */\n      dup4\n        /* \"#utility.yul\":3846:3853   */\n      dup6\n        /* \"#utility.yul\":3842:3865   */\n      sub\n        /* \"#utility.yul\":3838:3870   */\n      slt\n        /* \"#utility.yul\":3835:3887   */\n      iszero\n      tag_362\n      jumpi\n        /* \"#utility.yul\":3883:3884   */\n      0x00\n        /* \"#utility.yul\":3880:3881   */\n      dup1\n        /* \"#utility.yul\":3873:3885   */\n      revert\n        /* \"#utility.yul\":3835:3887   */\n    tag_362:\n        /* \"#utility.yul\":3919:3928   */\n      dup3\n        /* \"#utility.yul\":3906:3929   */\n      calldataload\n        /* \"#utility.yul\":3896:3929   */\n      swap2\n      pop\n        /* \"#utility.yul\":3948:3986   */\n      tag_363\n        /* \"#utility.yul\":3982:3984   */\n      0x20\n        /* \"#utility.yul\":3971:3980   */\n      dup5\n        /* \"#utility.yul\":3967:3985   */\n      add\n        /* \"#utility.yul\":3948:3986   */\n      tag_316\n      jump\t// in\n    tag_363:\n        /* \"#utility.yul\":3938:3986   */\n      swap1\n      pop\n        /* \"#utility.yul\":3738:3992   */\n      swap3\n      pop\n      swap3\n      swap1\n      pop\n      jump\t// out\n        /* \"#utility.yul\":4179:4433   */\n    tag_55:\n        /* \"#utility.yul\":4247:4253   */\n      0x00\n        /* \"#utility.yul\":4255:4261   */\n      dup1\n        /* \"#utility.yul\":4308:4310   */\n      0x40\n        /* \"#utility.yul\":4296:4305   */\n      dup4\n        /* \"#utility.yul\":4287:4294   */\n      dup6\n        /* \"#utility.yul\":4283:4306   */\n      sub\n        /* \"#utility.yul\":4279:4311   */\n      slt\n        /* \"#utility.yul\":4276:4328   */\n      iszero\n      tag_366\n      jumpi\n        /* \"#utility.yul\":4324:4325   */\n      0x00\n        /* \"#utility.yul\":4321:4322   */\n      dup1\n        /* \"#utility.yul\":4314:4326   */\n      revert\n        /* \"#utility.yul\":4276:4328   */\n    tag_366:\n        /* \"#utility.yul\":4347:4376   */\n      tag_367\n        /* \"#utility.yul\":4366:4375   */\n      dup4\n        /* \"#utility.yul\":4347:4376   */\n      tag_316\n      jump\t// in\n    tag_367:\n        /* \"#utility.yul\":4337:4376   */\n      swap5\n        /* \"#utility.yul\":4423:4425   */\n      0x20\n        /* \"#utility.yul\":4408:4426   */\n      swap4\n      swap1\n      swap4\n      add\n        /* \"#utility.yul\":4395:4427   */\n      calldataload\n      swap4\n      pop\n      pop\n      pop\n        /* \"#utility.yul\":4179:4433   */\n      jump\t// out\n        /* \"#utility.yul\":4438:4618   */\n    tag_60:\n        /* \"#utility.yul\":4497:4503   */\n      0x00\n        /* \"#utility.yul\":4550:4552   */\n      0x20\n        /* \"#utility.yul\":4538:4547   */\n      dup3\n        /* \"#utility.yul\":4529:4536   */\n      dup5\n        /* \"#utility.yul\":4525:4548   */\n      sub\n        /* \"#utility.yul\":4521:4553   */\n      slt\n        /* \"#utility.yul\":4518:4570   */\n      iszero\n      tag_369\n      jumpi\n        /* \"#utility.yul\":4566:4567   */\n      0x00\n        /* \"#utility.yul\":4563:4564   */\n      dup1\n        /* \"#utility.yul\":4556:4568   */\n      revert\n        /* \"#utility.yul\":4518:4570   */\n    tag_369:\n      pop\n        /* \"#utility.yul\":4589:4612   */\n      calldataload\n      swap2\n        /* \"#utility.yul\":4438:4618   */\n      swap1\n      pop\n      jump\t// out\n        /* \"#utility.yul\":4623:4809   */\n    tag_72:\n        /* \"#utility.yul\":4682:4688   */\n      0x00\n        /* \"#utility.yul\":4735:4737   */\n      0x20\n        /* \"#utility.yul\":4723:4732   */\n      dup3\n        /* \"#utility.yul\":4714:4721   */\n      dup5\n        /* \"#utility.yul\":4710:4733   */\n      sub\n        /* \"#utility.yul\":4706:4738   */\n      slt\n        /* \"#utility.yul\":4703:4755   */\n      iszero\n      tag_371\n      jumpi\n        /* \"#utility.yul\":4751:4752   */\n      0x00\n        /* \"#utility.yul\":4748:4749   */\n      dup1\n        /* \"#utility.yul\":4741:4753   */\n      revert\n        /* \"#utility.yul\":4703:4755   */\n    tag_371:\n        /* \"#utility.yul\":4774:4803   */\n      tag_342\n        /* \"#utility.yul\":4793:4802   */\n      dup3\n        /* \"#utility.yul\":4774:4803   */\n      tag_316\n      jump\t// in\n        /* \"#utility.yul\":5022:5484   */\n    tag_92:\n        /* \"#utility.yul\":5108:5114   */\n      0x00\n        /* \"#utility.yul\":5116:5122   */\n      dup1\n        /* \"#utility.yul\":5124:5130   */\n      0x00\n        /* \"#utility.yul\":5177:5179   */\n      0x60\n        /* \"#utility.yul\":5165:5174   */\n      dup5\n        /* \"#utility.yul\":5156:5163   */\n      dup7\n        /* \"#utility.yul\":5152:5175   */\n      sub\n        /* \"#utility.yul\":5148:5180   */\n      slt\n        /* \"#utility.yul\":5145:5197   */\n      iszero\n      tag_375\n      jumpi\n        /* \"#utility.yul\":5193:5194   */\n      0x00\n        /* \"#utility.yul\":5190:5191   */\n      dup1\n        /* \"#utility.yul\":5183:5195   */\n      revert\n        /* \"#utility.yul\":5145:5197   */\n    tag_375:\n        /* \"#utility.yul\":5216:5245   */\n      tag_376\n        /* \"#utility.yul\":5235:5244   */\n      dup5\n        /* \"#utility.yul\":5216:5245   */\n      tag_316\n      jump\t// in\n    tag_376:\n        /* \"#utility.yul\":5206:5245   */\n      swap3\n      pop\n        /* \"#utility.yul\":5292:5294   */\n      0x20\n        /* \"#utility.yul\":5281:5290   */\n      dup5\n        /* \"#utility.yul\":5277:5295   */\n      add\n        /* \"#utility.yul\":5264:5296   */\n      calldataload\n        /* \"#utility.yul\":5254:5296   */\n      swap2\n      pop\n        /* \"#utility.yul\":5347:5349   */\n      0x40\n        /* \"#utility.yul\":5336:5345   */\n      dup5\n        /* \"#utility.yul\":5332:5350   */\n      add\n        /* \"#utility.yul\":5319:5351   */\n      calldataload\n        /* \"#utility.yul\":5374:5392   */\n      0xffffffffffffffff\n        /* \"#utility.yul\":5366:5372   */\n      dup2\n        /* \"#utility.yul\":5363:5393   */\n      gt\n        /* \"#utility.yul\":5360:5410   */\n      iszero\n      tag_377\n      jumpi\n        /* \"#utility.yul\":5406:5407   */\n      0x00\n        /* \"#utility.yul\":5403:5404   */\n      dup1\n        /* \"#utility.yul\":5396:5408   */\n      revert\n        /* \"#utility.yul\":5360:5410   */\n    tag_377:\n        /* \"#utility.yul\":5429:5478   */\n      tag_378\n        /* \"#utility.yul\":5470:5477   */\n      dup7\n        /* \"#utility.yul\":5461:5467   */\n      dup3\n        /* \"#utility.yul\":5450:5459   */\n      dup8\n        /* \"#utility.yul\":5446:5468   */\n      add\n        /* \"#utility.yul\":5429:5478   */\n      tag_320\n      jump\t// in\n    tag_378:\n        /* \"#utility.yul\":5419:5478   */\n      swap2\n      pop\n      pop\n        /* \"#utility.yul\":5022:5484   */\n      swap3\n      pop\n      swap3\n      pop\n      swap3\n      jump\t// out\n        /* \"#utility.yul\":5489:6201   */\n    tag_321:\n        /* \"#utility.yul\":5543:5548   */\n      0x00\n        /* \"#utility.yul\":5596:5599   */\n      dup3\n        /* \"#utility.yul\":5589:5593   */\n      0x1f\n        /* \"#utility.yul\":5581:5587   */\n      dup4\n        /* \"#utility.yul\":5577:5594   */\n      add\n        /* \"#utility.yul\":5573:5600   */\n      slt\n        /* \"#utility.yul\":5563:5618   */\n      tag_380\n      jumpi\n        /* \"#utility.yul\":5614:5615   */\n      0x00\n        /* \"#utility.yul\":5611:5612   */\n      dup1\n        /* \"#utility.yul\":5604:5616   */\n      revert\n        /* \"#utility.yul\":5563:5618   */\n    tag_380:\n        /* \"#utility.yul\":5650:5656   */\n      dup2\n        /* \"#utility.yul\":5637:5657   */\n      calldataload\n        /* \"#utility.yul\":5676:5680   */\n      0x20\n        /* \"#utility.yul\":5699:5717   */\n      0xffffffffffffffff\n        /* \"#utility.yul\":5695:5697   */\n      dup3\n        /* \"#utility.yul\":5692:5718   */\n      gt\n        /* \"#utility.yul\":5689:5741   */\n      iszero\n      tag_382\n      jumpi\n        /* \"#utility.yul\":5721:5739   */\n      tag_382\n      tag_318\n      jump\t// in\n    tag_382:\n        /* \"#utility.yul\":5767:5769   */\n      dup2\n        /* \"#utility.yul\":5764:5765   */\n      0x05\n        /* \"#utility.yul\":5760:5770   */\n      shl\n        /* \"#utility.yul\":5790:5818   */\n      tag_383\n        /* \"#utility.yul\":5814:5816   */\n      dup3\n        /* \"#utility.yul\":5810:5812   */\n      dup3\n        /* \"#utility.yul\":5806:5817   */\n      add\n        /* \"#utility.yul\":5790:5818   */\n      tag_319\n      jump\t// in\n    tag_383:\n        /* \"#utility.yul\":5852:5867   */\n      swap3\n      dup4\n      mstore\n        /* \"#utility.yul\":5922:5937   */\n      dup5\n      dup2\n      add\n        /* \"#utility.yul\":5918:5942   */\n      dup3\n      add\n      swap3\n        /* \"#utility.yul\":5883:5895   */\n      dup3\n      dup2\n      add\n      swap1\n        /* \"#utility.yul\":5954:5969   */\n      dup8\n      dup6\n      gt\n        /* \"#utility.yul\":5951:5986   */\n      iszero\n      tag_384\n      jumpi\n        /* \"#utility.yul\":5982:5983   */\n      0x00\n        /* \"#utility.yul\":5979:5980   */\n      dup1\n        /* \"#utility.yul\":5972:5984   */\n      revert\n        /* \"#utility.yul\":5951:5986   */\n    tag_384:\n        /* \"#utility.yul\":6018:6020   */\n      dup4\n        /* \"#utility.yul\":6010:6016   */\n      dup8\n        /* \"#utility.yul\":6006:6021   */\n      add\n        /* \"#utility.yul\":5995:6021   */\n      swap3\n      pop\n        /* \"#utility.yul\":6030:6172   */\n    tag_385:\n        /* \"#utility.yul\":6046:6052   */\n      dup5\n        /* \"#utility.yul\":6041:6044   */\n      dup4\n        /* \"#utility.yul\":6038:6053   */\n      lt\n        /* \"#utility.yul\":6030:6172   */\n      iszero\n      tag_387\n      jumpi\n        /* \"#utility.yul\":6112:6129   */\n      dup3\n      calldataload\n        /* \"#utility.yul\":6100:6130   */\n      dup3\n      mstore\n        /* \"#utility.yul\":6063:6075   */\n      swap2\n      dup4\n      add\n      swap2\n        /* \"#utility.yul\":6150:6162   */\n      swap1\n      dup4\n      add\n      swap1\n        /* \"#utility.yul\":6030:6172   */\n      jump(tag_385)\n    tag_387:\n        /* \"#utility.yul\":6190:6195   */\n      swap8\n        /* \"#utility.yul\":5489:6201   */\n      swap7\n      pop\n      pop\n      pop\n      pop\n      pop\n      pop\n      pop\n      jump\t// out\n        /* \"#utility.yul\":6206:7149   */\n    tag_104:\n        /* \"#utility.yul\":6360:6366   */\n      0x00\n        /* \"#utility.yul\":6368:6374   */\n      dup1\n        /* \"#utility.yul\":6376:6382   */\n      0x00\n        /* \"#utility.yul\":6384:6390   */\n      dup1\n        /* \"#utility.yul\":6392:6398   */\n      0x00\n        /* \"#utility.yul\":6445:6448   */\n      0xa0\n        /* \"#utility.yul\":6433:6442   */\n      dup7\n        /* \"#utility.yul\":6424:6431   */\n      dup9\n        /* \"#utility.yul\":6420:6443   */\n      sub\n        /* \"#utility.yul\":6416:6449   */\n      slt\n        /* \"#utility.yul\":6413:6466   */\n      iszero\n      tag_389\n      jumpi\n        /* \"#utility.yul\":6462:6463   */\n      0x00\n        /* \"#utility.yul\":6459:6460   */\n      dup1\n        /* \"#utility.yul\":6452:6464   */\n      revert\n        /* \"#utility.yul\":6413:6466   */\n    tag_389:\n        /* \"#utility.yul\":6485:6514   */\n      tag_390\n        /* \"#utility.yul\":6504:6513   */\n      dup7\n        /* \"#utility.yul\":6485:6514   */\n      tag_316\n      jump\t// in\n    tag_390:\n        /* \"#utility.yul\":6475:6514   */\n      swap5\n      pop\n        /* \"#utility.yul\":6533:6571   */\n      tag_391\n        /* \"#utility.yul\":6567:6569   */\n      0x20\n        /* \"#utility.yul\":6556:6565   */\n      dup8\n        /* \"#utility.yul\":6552:6570   */\n      add\n        /* \"#utility.yul\":6533:6571   */\n      tag_316\n      jump\t// in\n    tag_391:\n        /* \"#utility.yul\":6523:6571   */\n      swap4\n      pop\n        /* \"#utility.yul\":6622:6624   */\n      0x40\n        /* \"#utility.yul\":6611:6620   */\n      dup7\n        /* \"#utility.yul\":6607:6625   */\n      add\n        /* \"#utility.yul\":6594:6626   */\n      calldataload\n        /* \"#utility.yul\":6645:6663   */\n      0xffffffffffffffff\n        /* \"#utility.yul\":6686:6688   */\n      dup1\n        /* \"#utility.yul\":6678:6684   */\n      dup3\n        /* \"#utility.yul\":6675:6689   */\n      gt\n        /* \"#utility.yul\":6672:6706   */\n      iszero\n      tag_392\n      jumpi\n        /* \"#utility.yul\":6702:6703   */\n      0x00\n        /* \"#utility.yul\":6699:6700   */\n      dup1\n        /* \"#utility.yul\":6692:6704   */\n      revert\n        /* \"#utility.yul\":6672:6706   */\n    tag_392:\n        /* \"#utility.yul\":6725:6786   */\n      tag_393\n        /* \"#utility.yul\":6778:6785   */\n      dup10\n        /* \"#utility.yul\":6769:6775   */\n      dup4\n        /* \"#utility.yul\":6758:6767   */\n      dup11\n        /* \"#utility.yul\":6754:6776   */\n      add\n        /* \"#utility.yul\":6725:6786   */\n      tag_321\n      jump\t// in\n    tag_393:\n        /* \"#utility.yul\":6715:6786   */\n      swap5\n      pop\n        /* \"#utility.yul\":6839:6841   */\n      0x60\n        /* \"#utility.yul\":6828:6837   */\n      dup9\n        /* \"#utility.yul\":6824:6842   */\n      add\n        /* \"#utility.yul\":6811:6843   */\n      calldataload\n        /* \"#utility.yul\":6795:6843   */\n      swap2\n      pop\n        /* \"#utility.yul\":6868:6870   */\n      dup1\n        /* \"#utility.yul\":6858:6866   */\n      dup3\n        /* \"#utility.yul\":6855:6871   */\n      gt\n        /* \"#utility.yul\":6852:6888   */\n      iszero\n      tag_394\n      jumpi\n        /* \"#utility.yul\":6884:6885   */\n      0x00\n        /* \"#utility.yul\":6881:6882   */\n      dup1\n        /* \"#utility.yul\":6874:6886   */\n      revert\n        /* \"#utility.yul\":6852:6888   */\n    tag_394:\n        /* \"#utility.yul\":6907:6970   */\n      tag_395\n        /* \"#utility.yul\":6962:6969   */\n      dup10\n        /* \"#utility.yul\":6951:6959   */\n      dup4\n        /* \"#utility.yul\":6940:6949   */\n      dup11\n        /* \"#utility.yul\":6936:6960   */\n      add\n        /* \"#utility.yul\":6907:6970   */\n      tag_321\n      jump\t// in\n    tag_395:\n        /* \"#utility.yul\":6897:6970   */\n      swap4\n      pop\n        /* \"#utility.yul\":7023:7026   */\n      0x80\n        /* \"#utility.yul\":7012:7021   */\n      dup9\n        /* \"#utility.yul\":7008:7027   */\n      add\n        /* \"#utility.yul\":6995:7028   */\n      calldataload\n        /* \"#utility.yul\":6979:7028   */\n      swap2\n      pop\n        /* \"#utility.yul\":7053:7055   */\n      dup1\n        /* \"#utility.yul\":7043:7051   */\n      dup3\n        /* \"#utility.yul\":7040:7056   */\n      gt\n        /* \"#utility.yul\":7037:7073   */\n      iszero\n      tag_396\n      jumpi\n        /* \"#utility.yul\":7069:7070   */\n      0x00\n        /* \"#utility.yul\":7066:7067   */\n      dup1\n        /* \"#utility.yul\":7059:7071   */\n      revert\n        /* \"#utility.yul\":7037:7073   */\n    tag_396:\n      pop\n        /* \"#utility.yul\":7092:7143   */\n      tag_397\n        /* \"#utility.yul\":7135:7142   */\n      dup9\n        /* \"#utility.yul\":7124:7132   */\n      dup3\n        /* \"#utility.yul\":7113:7122   */\n      dup10\n        /* \"#utility.yul\":7109:7133   */\n      add\n        /* \"#utility.yul\":7092:7143   */\n      tag_320\n      jump\t// in\n    tag_397:\n        /* \"#utility.yul\":7082:7143   */\n      swap2\n      pop\n      pop\n        /* \"#utility.yul\":6206:7149   */\n      swap3\n      swap6\n      pop\n      swap3\n      swap6\n      swap1\n      swap4\n      pop\n      jump\t// out\n        /* \"#utility.yul\":7154:7760   */\n    tag_120:\n        /* \"#utility.yul\":7258:7264   */\n      0x00\n        /* \"#utility.yul\":7266:7272   */\n      dup1\n        /* \"#utility.yul\":7274:7280   */\n      0x00\n        /* \"#utility.yul\":7282:7288   */\n      dup1\n        /* \"#utility.yul\":7290:7296   */\n      0x00\n        /* \"#utility.yul\":7343:7346   */\n      0xa0\n        /* \"#utility.yul\":7331:7340   */\n      dup7\n        /* \"#utility.yul\":7322:7329   */\n      dup9\n        /* \"#utility.yul\":7318:7341   */\n      sub\n        /* \"#utility.yul\":7314:7347   */\n      slt\n        /* \"#utility.yul\":7311:7364   */\n      iszero\n      tag_399\n      jumpi\n        /* \"#utility.yul\":7360:7361   */\n      0x00\n        /* \"#utility.yul\":7357:7358   */\n      dup1\n        /* \"#utility.yul\":7350:7362   */\n      revert\n        /* \"#utility.yul\":7311:7364   */\n    tag_399:\n        /* \"#utility.yul\":7383:7412   */\n      tag_400\n        /* \"#utility.yul\":7402:7411   */\n      dup7\n        /* \"#utility.yul\":7383:7412   */\n      tag_316\n      jump\t// in\n    tag_400:\n        /* \"#utility.yul\":7373:7412   */\n      swap5\n      pop\n        /* \"#utility.yul\":7431:7469   */\n      tag_401\n        /* \"#utility.yul\":7465:7467   */\n      0x20\n        /* \"#utility.yul\":7454:7463   */\n      dup8\n        /* \"#utility.yul\":7450:7468   */\n      add\n        /* \"#utility.yul\":7431:7469   */\n      tag_316\n      jump\t// in\n    tag_401:\n        /* \"#utility.yul\":7421:7469   */\n      swap4\n      pop\n        /* \"#utility.yul\":7516:7518   */\n      0x40\n        /* \"#utility.yul\":7505:7514   */\n      dup7\n        /* \"#utility.yul\":7501:7519   */\n      add\n        /* \"#utility.yul\":7488:7520   */\n      calldataload\n        /* \"#utility.yul\":7478:7520   */\n      swap3\n      pop\n        /* \"#utility.yul\":7567:7569   */\n      0x60\n        /* \"#utility.yul\":7556:7565   */\n      dup7\n        /* \"#utility.yul\":7552:7570   */\n      add\n        /* \"#utility.yul\":7539:7571   */\n      calldataload\n        /* \"#utility.yul\":7529:7571   */\n      swap2\n      pop\n        /* \"#utility.yul\":7622:7625   */\n      0x80\n        /* \"#utility.yul\":7611:7620   */\n      dup7\n        /* \"#utility.yul\":7607:7626   */\n      add\n        /* \"#utility.yul\":7594:7627   */\n      calldataload\n        /* \"#utility.yul\":7650:7668   */\n      0xffffffffffffffff\n        /* \"#utility.yul\":7642:7648   */\n      dup2\n        /* \"#utility.yul\":7639:7669   */\n      gt\n        /* \"#utility.yul\":7636:7686   */\n      iszero\n      tag_402\n      jumpi\n        /* \"#utility.yul\":7682:7683   */\n      0x00\n        /* \"#utility.yul\":7679:7680   */\n      dup1\n        /* \"#utility.yul\":7672:7684   */\n      revert\n        /* \"#utility.yul\":7636:7686   */\n    tag_402:\n        /* \"#utility.yul\":7705:7754   */\n      tag_397\n        /* \"#utility.yul\":7746:7753   */\n      dup9\n        /* \"#utility.yul\":7737:7743   */\n      dup3\n        /* \"#utility.yul\":7726:7735   */\n      dup10\n        /* \"#utility.yul\":7722:7744   */\n      add\n        /* \"#utility.yul\":7705:7754   */\n      tag_320\n      jump\t// in\n        /* \"#utility.yul\":7765:8296   */\n    tag_126:\n        /* \"#utility.yul\":7860:7866   */\n      0x00\n        /* \"#utility.yul\":7868:7874   */\n      dup1\n        /* \"#utility.yul\":7876:7882   */\n      0x00\n        /* \"#utility.yul\":7884:7890   */\n      dup1\n        /* \"#utility.yul\":7937:7940   */\n      0x80\n        /* \"#utility.yul\":7925:7934   */\n      dup6\n        /* \"#utility.yul\":7916:7923   */\n      dup8\n        /* \"#utility.yul\":7912:7935   */\n      sub\n        /* \"#utility.yul\":7908:7941   */\n      slt\n        /* \"#utility.yul\":7905:7958   */\n      iszero\n      tag_405\n      jumpi\n        /* \"#utility.yul\":7954:7955   */\n      0x00\n        /* \"#utility.yul\":7951:7952   */\n      dup1\n        /* \"#utility.yul\":7944:7956   */\n      revert\n        /* \"#utility.yul\":7905:7958   */\n    tag_405:\n        /* \"#utility.yul\":7977:8006   */\n      tag_406\n        /* \"#utility.yul\":7996:8005   */\n      dup6\n        /* \"#utility.yul\":7977:8006   */\n      tag_316\n      jump\t// in\n    tag_406:\n        /* \"#utility.yul\":7967:8006   */\n      swap4\n      pop\n        /* \"#utility.yul\":8053:8055   */\n      0x20\n        /* \"#utility.yul\":8042:8051   */\n      dup6\n        /* \"#utility.yul\":8038:8056   */\n      add\n        /* \"#utility.yul\":8025:8057   */\n      calldataload\n        /* \"#utility.yul\":8015:8057   */\n      swap3\n      pop\n        /* \"#utility.yul\":8104:8106   */\n      0x40\n        /* \"#utility.yul\":8093:8102   */\n      dup6\n        /* \"#utility.yul\":8089:8107   */\n      add\n        /* \"#utility.yul\":8076:8108   */\n      calldataload\n        /* \"#utility.yul\":8066:8108   */\n      swap2\n      pop\n        /* \"#utility.yul\":8159:8161   */\n      0x60\n        /* \"#utility.yul\":8148:8157   */\n      dup6\n        /* \"#utility.yul\":8144:8162   */\n      add\n        /* \"#utility.yul\":8131:8163   */\n      calldataload\n        /* \"#utility.yul\":8186:8204   */\n      0xffffffffffffffff\n        /* \"#utility.yul\":8178:8184   */\n      dup2\n        /* \"#utility.yul\":8175:8205   */\n      gt\n        /* \"#utility.yul\":8172:8222   */\n      iszero\n      tag_358\n      jumpi\n        /* \"#utility.yul\":8218:8219   */\n      0x00\n        /* \"#utility.yul\":8215:8216   */\n      dup1\n        /* \"#utility.yul\":8208:8220   */\n      revert\n        /* \"#utility.yul\":9241:9491   */\n    tag_322:\n        /* \"#utility.yul\":9326:9327   */\n      0x00\n        /* \"#utility.yul\":9336:9449   */\n    tag_413:\n        /* \"#utility.yul\":9350:9356   */\n      dup4\n        /* \"#utility.yul\":9347:9348   */\n      dup2\n        /* \"#utility.yul\":9344:9357   */\n      lt\n        /* \"#utility.yul\":9336:9449   */\n      iszero\n      tag_415\n      jumpi\n        /* \"#utility.yul\":9426:9437   */\n      dup2\n      dup2\n      add\n        /* \"#utility.yul\":9420:9438   */\n      mload\n        /* \"#utility.yul\":9407:9418   */\n      dup4\n      dup3\n      add\n        /* \"#utility.yul\":9400:9439   */\n      mstore\n        /* \"#utility.yul\":9372:9374   */\n      0x20\n        /* \"#utility.yul\":9365:9375   */\n      add\n        /* \"#utility.yul\":9336:9449   */\n      jump(tag_413)\n    tag_415:\n      pop\n      pop\n        /* \"#utility.yul\":9483:9484   */\n      0x00\n        /* \"#utility.yul\":9465:9481   */\n      swap2\n      add\n        /* \"#utility.yul\":9458:9485   */\n      mstore\n        /* \"#utility.yul\":9241:9491   */\n      jump\t// out\n        /* \"#utility.yul\":9496:9783   */\n    tag_229:\n        /* \"#utility.yul\":9625:9628   */\n      0x00\n        /* \"#utility.yul\":9663:9669   */\n      dup3\n        /* \"#utility.yul\":9657:9670   */\n      mload\n        /* \"#utility.yul\":9679:9745   */\n      tag_417\n        /* \"#utility.yul\":9738:9744   */\n      dup2\n        /* \"#utility.yul\":9733:9736   */\n      dup5\n        /* \"#utility.yul\":9726:9730   */\n      0x20\n        /* \"#utility.yul\":9718:9724   */\n      dup8\n        /* \"#utility.yul\":9714:9731   */\n      add\n        /* \"#utility.yul\":9679:9745   */\n      tag_322\n      jump\t// in\n    tag_417:\n        /* \"#utility.yul\":9761:9777   */\n      swap2\n      swap1\n      swap2\n      add\n      swap3\n        /* \"#utility.yul\":9496:9783   */\n      swap2\n      pop\n      pop\n      jump\t// out\n        /* \"#utility.yul\":9788:10065   */\n    tag_236:\n        /* \"#utility.yul\":9855:9861   */\n      0x00\n        /* \"#utility.yul\":9908:9910   */\n      0x20\n        /* \"#utility.yul\":9896:9905   */\n      dup3\n        /* \"#utility.yul\":9887:9894   */\n      dup5\n        /* \"#utility.yul\":9883:9906   */\n      sub\n        /* \"#utility.yul\":9879:9911   */\n      slt\n        /* \"#utility.yul\":9876:9928   */\n      iszero\n      tag_419\n      jumpi\n        /* \"#utility.yul\":9924:9925   */\n      0x00\n        /* \"#utility.yul\":9921:9922   */\n      dup1\n        /* \"#utility.yul\":9914:9926   */\n      revert\n        /* \"#utility.yul\":9876:9928   */\n    tag_419:\n        /* \"#utility.yul\":9956:9965   */\n      dup2\n        /* \"#utility.yul\":9950:9966   */\n      mload\n        /* \"#utility.yul\":10009:10014   */\n      dup1\n        /* \"#utility.yul\":10002:10015   */\n      iszero\n        /* \"#utility.yul\":9995:10016   */\n      iszero\n        /* \"#utility.yul\":9988:9993   */\n      dup2\n        /* \"#utility.yul\":9985:10017   */\n      eq\n        /* \"#utility.yul\":9975:10035   */\n      tag_342\n      jumpi\n        /* \"#utility.yul\":10031:10032   */\n      0x00\n        /* \"#utility.yul\":10028:10029   */\n      dup1\n        /* \"#utility.yul\":10021:10033   */\n      revert\n        /* \"#utility.yul\":10775:11045   */\n    tag_323:\n        /* \"#utility.yul\":10816:10819   */\n      0x00\n        /* \"#utility.yul\":10854:10859   */\n      dup2\n        /* \"#utility.yul\":10848:10860   */\n      mload\n        /* \"#utility.yul\":10881:10887   */\n      dup1\n        /* \"#utility.yul\":10876:10879   */\n      dup5\n        /* \"#utility.yul\":10869:10888   */\n      mstore\n        /* \"#utility.yul\":10897:10973   */\n      tag_424\n        /* \"#utility.yul\":10966:10972   */\n      dup2\n        /* \"#utility.yul\":10959:10963   */\n      0x20\n        /* \"#utility.yul\":10954:10957   */\n      dup7\n        /* \"#utility.yul\":10950:10964   */\n      add\n        /* \"#utility.yul\":10943:10947   */\n      0x20\n        /* \"#utility.yul\":10936:10941   */\n      dup7\n        /* \"#utility.yul\":10932:10948   */\n      add\n        /* \"#utility.yul\":10897:10973   */\n      tag_322\n      jump\t// in\n    tag_424:\n        /* \"#utility.yul\":11027:11029   */\n      0x1f\n        /* \"#utility.yul\":11006:11021   */\n      add\n      not(0x1f)\n        /* \"#utility.yul\":11002:11031   */\n      and\n        /* \"#utility.yul\":10993:11032   */\n      swap3\n      swap1\n      swap3\n      add\n        /* \"#utility.yul\":11034:11038   */\n      0x20\n        /* \"#utility.yul\":10989:11039   */\n      add\n      swap3\n        /* \"#utility.yul\":10775:11045   */\n      swap2\n      pop\n      pop\n      jump\t// out\n        /* \"#utility.yul\":11050:11435   */\n    tag_264:\n        /* \"#utility.yul\":11282:11283   */\n      0x01\n        /* \"#utility.yul\":11278:11279   */\n      dup1\n        /* \"#utility.yul\":11273:11276   */\n      0xa0\n        /* \"#utility.yul\":11269:11280   */\n      shl\n        /* \"#utility.yul\":11265:11284   */\n      sub\n        /* \"#utility.yul\":11257:11263   */\n      dup5\n        /* \"#utility.yul\":11253:11285   */\n      and\n        /* \"#utility.yul\":11242:11251   */\n      dup2\n        /* \"#utility.yul\":11235:11286   */\n      mstore\n        /* \"#utility.yul\":11322:11328   */\n      dup3\n        /* \"#utility.yul\":11317:11319   */\n      0x20\n        /* \"#utility.yul\":11306:11315   */\n      dup3\n        /* \"#utility.yul\":11302:11320   */\n      add\n        /* \"#utility.yul\":11295:11329   */\n      mstore\n        /* \"#utility.yul\":11365:11367   */\n      0x60\n        /* \"#utility.yul\":11360:11362   */\n      0x40\n        /* \"#utility.yul\":11349:11358   */\n      dup3\n        /* \"#utility.yul\":11345:11363   */\n      add\n        /* \"#utility.yul\":11338:11368   */\n      mstore\n        /* \"#utility.yul\":11216:11220   */\n      0x00\n        /* \"#utility.yul\":11385:11429   */\n      tag_426\n        /* \"#utility.yul\":11425:11427   */\n      0x60\n        /* \"#utility.yul\":11414:11423   */\n      dup4\n        /* \"#utility.yul\":11410:11428   */\n      add\n        /* \"#utility.yul\":11402:11408   */\n      dup5\n        /* \"#utility.yul\":11385:11429   */\n      tag_323\n      jump\t// in\n    tag_426:\n        /* \"#utility.yul\":11377:11429   */\n      swap6\n        /* \"#utility.yul\":11050:11435   */\n      swap5\n      pop\n      pop\n      pop\n      pop\n      pop\n      jump\t// out\n        /* \"#utility.yul\":13233:13793   */\n    tag_301:\n      sub(shl(0xa0, 0x01), 0x01)\n        /* \"#utility.yul\":13530:13545   */\n      dup7\n      dup2\n      and\n        /* \"#utility.yul\":13512:13546   */\n      dup3\n      mstore\n        /* \"#utility.yul\":13582:13597   */\n      dup6\n      and\n        /* \"#utility.yul\":13577:13579   */\n      0x20\n        /* \"#utility.yul\":13562:13580   */\n      dup3\n      add\n        /* \"#utility.yul\":13555:13598   */\n      mstore\n        /* \"#utility.yul\":13629:13631   */\n      0x40\n        /* \"#utility.yul\":13614:13632   */\n      dup2\n      add\n        /* \"#utility.yul\":13607:13641   */\n      dup5\n      swap1\n      mstore\n        /* \"#utility.yul\":13672:13674   */\n      0x60\n        /* \"#utility.yul\":13657:13675   */\n      dup2\n      add\n        /* \"#utility.yul\":13650:13684   */\n      dup4\n      swap1\n      mstore\n        /* \"#utility.yul\":13492:13495   */\n      0xa0\n        /* \"#utility.yul\":13715:13718   */\n      0x80\n        /* \"#utility.yul\":13700:13719   */\n      dup3\n      add\n        /* \"#utility.yul\":13693:13725   */\n      dup2\n      swap1\n      mstore\n        /* \"#utility.yul\":13455:13459   */\n      0x00\n      swap1\n        /* \"#utility.yul\":13742:13787   */\n      tag_387\n      swap1\n        /* \"#utility.yul\":13767:13786   */\n      dup4\n      add\n        /* \"#utility.yul\":13759:13765   */\n      dup5\n        /* \"#utility.yul\":13742:13787   */\n      tag_323\n      jump\t// in\n\n    auxdata: 0xa2646970667358221220c021d10e5de2348fdc5ff971d657f2f29238d535051a5837d8922fd54058fce264736f6c63430008120033\n}\n",
				"bytecode": {
					"linkReferences": {},
					"object": "608060405261000d33610024565b600180546001600160a01b03191633179055610091565b6000546001600160a01b0382811691161461008e57600080546040516001600160a01b03808516939216917fb532073b38c83145e3e5135377a08bf9aab55bc0fd7c1179cd4fb995d2a5159c91a3600080546001600160a01b0319166001600160a01b0383161790555b50565b611498806100a06000396000f3fe6080604052600436106101295760003560e01c806391372456116100ab578063bc197c811161006f578063bc197c8114610337578063d319aa3014610363578063dbd3cfcd14610378578063ed88c68e14610153578063f23a6e6114610398578063f5da96dc146103c457600080fd5b806391372456146102905780639cd6e666146102c2578063b2828496146102e2578063b4d9b97314610302578063b76a10ca1461031757600080fd5b80632e66ccf5116100f25780632e66ccf51461021c57806341931a2f1461023c5780634f61b3ae14610251578063503d7fe41461027057806375ab97821461012e57600080fd5b806223de291461012e57806301ffc9a714610155578063150b7a021461018a578063249cb3fa146101ce5780632aa4ada0146101fc575b600080fd5b34801561013a57600080fd5b50610153610149366004610eb6565b5050505050505050565b005b34801561016157600080fd5b50610175610170366004610f61565b6103e4565b60405190151581526020015b60405180910390f35b34801561019657600080fd5b506101b56101a5366004611049565b630a85bd0160e11b949350505050565b6040516001600160e01b03199091168152602001610181565b3480156101da57600080fd5b506101ee6101e93660046110b1565b610486565b604051908152602001610181565b34801561020857600080fd5b506101536102173660046110dd565b61051d565b34801561022857600080fd5b50610153610237366004611107565b610545565b34801561024857600080fd5b5061015361056b565b34801561025d57600080fd5b50600154600160a01b900460ff16610175565b34801561027c57600080fd5b5061017561028b366004611120565b610594565b34801561029c57600080fd5b506000546001600160a01b03165b6040516001600160a01b039091168152602001610181565b3480156102ce57600080fd5b506101756102dd366004611120565b61059f565b3480156102ee57600080fd5b506101536102fd36600461113b565b6105aa565b34801561030e57600080fd5b506101536105d4565b34801561032357600080fd5b506101536103323660046110dd565b6105e7565b34801561034357600080fd5b506101b5610352366004611212565b63bc197c8160e01b95945050505050565b34801561036f57600080fd5b506102aa610603565b34801561038457600080fd5b50610153610393366004611120565b610617565b3480156103a457600080fd5b506101b56103b33660046112bc565b63f23a6e6160e01b95945050505050565b3480156103d057600080fd5b506101536103df366004611321565b61064a565b60006001600160e01b031982166301ffc9a760e01b148061041557506001600160e01b03198216630a85bd0160e11b145b8061042f57506001600160e01b031982166223de2960e01b145b8061044a57506001600160e01b03198216633ad5cbc160e11b145b8061046557506001600160e01b03198216630271189760e51b145b8061048057506001600160e01b0319821663124e59fd60e11b145b92915050565b60006001600160a01b038216301480156104e857507fb281fc8c12954d22544db45de3159a39272895b169a852b314f9cc762e44c53b8314806104e857507f29ddb589b1fb5fc7cf394961c1adf5f8c6454761adf795e67fe149f658abe89583145b1561051457507fa2ef4600d742022d532d4747cb3547474667d6f13804902513b2ec01c848f4b4610480565b50600092915050565b610525610676565b61052e33610697565b6105398233836106e8565b6105416105dd565b5050565b61054d610676565b61055633610697565b6105603382610865565b6105686105dd565b50565b610573610676565b61057c3361089b565b610585336108e7565b61058d6105dd565b565b905090565b6000610480826108f0565b60006104808261091f565b6105b2610676565b6105bb33610697565b6105c783338484610931565b6105cf6105dd565b505050565b6105dd33610697565b61058d6000610ac0565b6105ef610676565b6105f833610697565b610539828233610ade565b600061058f6001546001600160a01b031690565b61061f610676565b61062833610697565b61056081600180546001600160a01b0319166001600160a01b03831617905550565b610652610676565b61065b33610697565b6106688484338585610c59565b6106706105dd565b50505050565b600154600160a01b900460ff161561068d5761068dfe5b61058d6001610ac0565b6106a08161091f565b61056857806106b76000546001600160a01b031690565b604051630daa808360e01b81526001600160a01b039283166004820152911660248201526044015b60405180910390fd5b826001600160a01b03163b6000036107425760405162461bcd60e51b815260206004820152601760248201527f4552433230546f6b656e436f6e74726163744572726f7200000000000000000060448201526064016106df565b604080516001600160a01b038481166024830152604480830185905283518084039091018152606490920183526020820180516001600160e01b031663a9059cbb60e01b1790529151909160009182918716906107a090859061138e565b6000604051808303816000865af19150503d80600081146107dd576040519150601f19603f3d011682016040523d82523d6000602084013e6107e2565b606091505b5091509150811580610810575080511580159061081057508080602001905181019061080e91906113aa565b155b1561085d5760405162461bcd60e51b815260206004820152601760248201527f4552433230546f6b656e5472616e736665724572726f7200000000000000000060448201526064016106df565b505050505050565b6040516001600160a01b0383169082156108fc029083906000818181858888f193505050501580156105cf573d6000803e3d6000fd5b6108a4816108f0565b61056857806108bb6001546001600160a01b031690565b60405163549fbfe360e01b81526001600160a01b039283166004820152911660248201526044016106df565b61056881610de3565b60006109046001546001600160a01b031690565b6001600160a01b0316826001600160a01b0316149050919050565b600080546001600160a01b0316610904565b836001600160a01b03163b60000361098b5760405162461bcd60e51b815260206004820152601860248201527f455243373737546f6b656e436f6e74726163744572726f72000000000000000060448201526064016106df565b6000639bd9bbc660e01b8484846040516024016109aa939291906113f8565b604051602081830303815290604052906001600160e01b0319166020820180516001600160e01b0383818316178352505050509050600080866001600160a01b0316836040516109fa919061138e565b6000604051808303816000865af19150503d8060008114610a37576040519150601f19603f3d011682016040523d82523d6000602084013e610a3c565b606091505b5091509150811580610a6a5750805115801590610a6a575080806020019051810190610a6891906113aa565b155b15610ab75760405162461bcd60e51b815260206004820152601860248201527f455243373737546f6b656e5472616e736665724572726f72000000000000000060448201526064016106df565b50505050505050565b60018054911515600160a01b0260ff60a01b19909216919091179055565b826001600160a01b03163b600003610b385760405162461bcd60e51b815260206004820152601860248201527f455243373231546f6b656e436f6e74726163744572726f72000000000000000060448201526064016106df565b604080513060248201526001600160a01b038381166044830152606480830186905283518084039091018152608490920183526020820180516001600160e01b03166323b872dd60e01b179052915190916000918291871690610b9c90859061138e565b6000604051808303816000865af19150503d8060008114610bd9576040519150601f19603f3d011682016040523d82523d6000602084013e610bde565b606091505b5091509150811580610c0c5750805115801590610c0c575080806020019051810190610c0a91906113aa565b155b1561085d5760405162461bcd60e51b815260206004820152601860248201527f455243373231546f6b656e5472616e736665724572726f72000000000000000060448201526064016106df565b846001600160a01b03163b600003610cb35760405162461bcd60e51b815260206004820152601960248201527f45524331313535546f6b656e436f6e74726163744572726f720000000000000060448201526064016106df565b600063f242432a60e01b3085878686604051602401610cd6959493929190611428565b604051602081830303815290604052906001600160e01b0319166020820180516001600160e01b0383818316178352505050509050600080876001600160a01b031683604051610d26919061138e565b6000604051808303816000865af19150503d8060008114610d63576040519150601f19603f3d011682016040523d82523d6000602084013e610d68565b606091505b5091509150811580610d965750805115801590610d96575080806020019051810190610d9491906113aa565b155b156101495760405162461bcd60e51b815260206004820152601960248201527f45524331313535546f6b656e5472616e736665724572726f720000000000000060448201526064016106df565b6000546001600160a01b0382811691161461056857600080546040516001600160a01b03808516939216917fb532073b38c83145e3e5135377a08bf9aab55bc0fd7c1179cd4fb995d2a5159c91a3600080546001600160a01b0383166001600160a01b031990911617905550565b80356001600160a01b0381168114610e6857600080fd5b919050565b60008083601f840112610e7f57600080fd5b50813567ffffffffffffffff811115610e9757600080fd5b602083019150836020828501011115610eaf57600080fd5b9250929050565b60008060008060008060008060c0898b031215610ed257600080fd5b610edb89610e51565b9750610ee960208a01610e51565b9650610ef760408a01610e51565b955060608901359450608089013567ffffffffffffffff80821115610f1b57600080fd5b610f278c838d01610e6d565b909650945060a08b0135915080821115610f4057600080fd5b50610f4d8b828c01610e6d565b999c989b5096995094979396929594505050565b600060208284031215610f7357600080fd5b81356001600160e01b031981168114610f8b57600080fd5b9392505050565b634e487b7160e01b600052604160045260246000fd5b604051601f8201601f1916810167ffffffffffffffff81118282101715610fd157610fd1610f92565b604052919050565b600082601f830112610fea57600080fd5b813567ffffffffffffffff81111561100457611004610f92565b611017601f8201601f1916602001610fa8565b81815284602083860101111561102c57600080fd5b816020850160208301376000918101602001919091529392505050565b6000806000806080858703121561105f57600080fd5b61106885610e51565b935061107660208601610e51565b925060408501359150606085013567ffffffffffffffff81111561109957600080fd5b6110a587828801610fd9565b91505092959194509250565b600080604083850312156110c457600080fd5b823591506110d460208401610e51565b90509250929050565b600080604083850312156110f057600080fd5b6110f983610e51565b946020939093013593505050565b60006020828403121561111957600080fd5b5035919050565b60006020828403121561113257600080fd5b610f8b82610e51565b60008060006060848603121561115057600080fd5b61115984610e51565b925060208401359150604084013567ffffffffffffffff81111561117c57600080fd5b61118886828701610fd9565b9150509250925092565b600082601f8301126111a357600080fd5b8135602067ffffffffffffffff8211156111bf576111bf610f92565b8160051b6111ce828201610fa8565b92835284810182019282810190878511156111e857600080fd5b83870192505b84831015611207578235825291830191908301906111ee565b979650505050505050565b600080600080600060a0868803121561122a57600080fd5b61123386610e51565b945061124160208701610e51565b9350604086013567ffffffffffffffff8082111561125e57600080fd5b61126a89838a01611192565b9450606088013591508082111561128057600080fd5b61128c89838a01611192565b935060808801359150808211156112a257600080fd5b506112af88828901610fd9565b9150509295509295909350565b600080600080600060a086880312156112d457600080fd5b6112dd86610e51565b94506112eb60208701610e51565b93506040860135925060608601359150608086013567ffffffffffffffff81111561131557600080fd5b6112af88828901610fd9565b6000806000806080858703121561133757600080fd5b61134085610e51565b93506020850135925060408501359150606085013567ffffffffffffffff81111561109957600080fd5b60005b8381101561138557818101518382015260200161136d565b50506000910152565b600082516113a081846020870161136a565b9190910192915050565b6000602082840312156113bc57600080fd5b81518015158114610f8b57600080fd5b600081518084526113e481602086016020860161136a565b601f01601f19169290920160200192915050565b60018060a01b038416815282602082015260606040820152600061141f60608301846113cc565b95945050505050565b6001600160a01b03868116825285166020820152604081018490526060810183905260a060808201819052600090611207908301846113cc56fea2646970667358221220c021d10e5de2348fdc5ff971d657f2f29238d535051a5837d8922fd54058fce264736f6c63430008120033",
					"opcodes": "PUSH1 0x80 PUSH1 0x40 MSTORE PUSH2 0xD CALLER PUSH2 0x24 JUMP JUMPDEST PUSH1 0x1 DUP1 SLOAD PUSH1 0x1 PUSH1 0x1 PUSH1 0xA0 SHL SUB NOT AND CALLER OR SWAP1 SSTORE PUSH2 0x91 JUMP JUMPDEST PUSH1 0x0 SLOAD PUSH1 0x1 PUSH1 0x1 PUSH1 0xA0 SHL SUB DUP3 DUP2 AND SWAP2 AND EQ PUSH2 0x8E JUMPI PUSH1 0x0 DUP1 SLOAD PUSH1 0x40 MLOAD PUSH1 0x1 PUSH1 0x1 PUSH1 0xA0 SHL SUB DUP1 DUP6 AND SWAP4 SWAP3 AND SWAP2 PUSH32 0xB532073B38C83145E3E5135377A08BF9AAB55BC0FD7C1179CD4FB995D2A5159C SWAP2 LOG3 PUSH1 0x0 DUP1 SLOAD PUSH1 0x1 PUSH1 0x1 PUSH1 0xA0 SHL SUB NOT AND PUSH1 0x1 PUSH1 0x1 PUSH1 0xA0 SHL SUB DUP4 AND OR SWAP1 SSTORE JUMPDEST POP JUMP JUMPDEST PUSH2 0x1498 DUP1 PUSH2 0xA0 PUSH1 0x0 CODECOPY PUSH1 0x0 RETURN INVALID PUSH1 0x80 PUSH1 0x40 MSTORE PUSH1 0x4 CALLDATASIZE LT PUSH2 0x129 JUMPI PUSH1 0x0 CALLDATALOAD PUSH1 0xE0 SHR DUP1 PUSH4 0x91372456 GT PUSH2 0xAB JUMPI DUP1 PUSH4 0xBC197C81 GT PUSH2 0x6F JUMPI DUP1 PUSH4 0xBC197C81 EQ PUSH2 0x337 JUMPI DUP1 PUSH4 0xD319AA30 EQ PUSH2 0x363 JUMPI DUP1 PUSH4 0xDBD3CFCD EQ PUSH2 0x378 JUMPI DUP1 PUSH4 0xED88C68E EQ PUSH2 0x153 JUMPI DUP1 PUSH4 0xF23A6E61 EQ PUSH2 0x398 JUMPI DUP1 PUSH4 0xF5DA96DC EQ PUSH2 0x3C4 JUMPI PUSH1 0x0 DUP1 REVERT JUMPDEST DUP1 PUSH4 0x91372456 EQ PUSH2 0x290 JUMPI DUP1 PUSH4 0x9CD6E666 EQ PUSH2 0x2C2 JUMPI DUP1 PUSH4 0xB2828496 EQ PUSH2 0x2E2 JUMPI DUP1 PUSH4 0xB4D9B973 EQ PUSH2 0x302 JUMPI DUP1 PUSH4 0xB76A10CA EQ PUSH2 0x317 JUMPI PUSH1 0x0 DUP1 REVERT JUMPDEST DUP1 PUSH4 0x2E66CCF5 GT PUSH2 0xF2 JUMPI DUP1 PUSH4 0x2E66CCF5 EQ PUSH2 0x21C JUMPI DUP1 PUSH4 0x41931A2F EQ PUSH2 0x23C JUMPI DUP1 PUSH4 0x4F61B3AE EQ PUSH2 0x251 JUMPI DUP1 PUSH4 0x503D7FE4 EQ PUSH2 0x270 JUMPI DUP1 PUSH4 0x75AB9782 EQ PUSH2 0x12E JUMPI PUSH1 0x0 DUP1 REVERT JUMPDEST DUP1 PUSH3 0x23DE29 EQ PUSH2 0x12E JUMPI DUP1 PUSH4 0x1FFC9A7 EQ PUSH2 0x155 JUMPI DUP1 PUSH4 0x150B7A02 EQ PUSH2 0x18A JUMPI DUP1 PUSH4 0x249CB3FA EQ PUSH2 0x1CE JUMPI DUP1 PUSH4 0x2AA4ADA0 EQ PUSH2 0x1FC JUMPI JUMPDEST PUSH1 0x0 DUP1 REVERT JUMPDEST CALLVALUE DUP1 ISZERO PUSH2 0x13A JUMPI PUSH1 0x0 DUP1 REVERT JUMPDEST POP PUSH2 0x153 PUSH2 0x149 CALLDATASIZE PUSH1 0x4 PUSH2 0xEB6 JUMP JUMPDEST POP POP POP POP POP POP POP POP JUMP JUMPDEST STOP JUMPDEST CALLVALUE DUP1 ISZERO PUSH2 0x161 JUMPI PUSH1 0x0 DUP1 REVERT JUMPDEST POP PUSH2 0x175 PUSH2 0x170 CALLDATASIZE PUSH1 0x4 PUSH2 0xF61 JUMP JUMPDEST PUSH2 0x3E4 JUMP JUMPDEST PUSH1 0x40 MLOAD SWAP1 ISZERO ISZERO DUP2 MSTORE PUSH1 0x20 ADD JUMPDEST PUSH1 0x40 MLOAD DUP1 SWAP2 SUB SWAP1 RETURN JUMPDEST CALLVALUE DUP1 ISZERO PUSH2 0x196 JUMPI PUSH1 0x0 DUP1 REVERT JUMPDEST POP PUSH2 0x1B5 PUSH2 0x1A5 CALLDATASIZE PUSH1 0x4 PUSH2 0x1049 JUMP JUMPDEST PUSH4 0xA85BD01 PUSH1 0xE1 SHL SWAP5 SWAP4 POP POP POP POP JUMP JUMPDEST PUSH1 0x40 MLOAD PUSH1 0x1 PUSH1 0x1 PUSH1 0xE0 SHL SUB NOT SWAP1 SWAP2 AND DUP2 MSTORE PUSH1 0x20 ADD PUSH2 0x181 JUMP JUMPDEST CALLVALUE DUP1 ISZERO PUSH2 0x1DA JUMPI PUSH1 0x0 DUP1 REVERT JUMPDEST POP PUSH2 0x1EE PUSH2 0x1E9 CALLDATASIZE PUSH1 0x4 PUSH2 0x10B1 JUMP JUMPDEST PUSH2 0x486 JUMP JUMPDEST PUSH1 0x40 MLOAD SWAP1 DUP2 MSTORE PUSH1 0x20 ADD PUSH2 0x181 JUMP JUMPDEST CALLVALUE DUP1 ISZERO PUSH2 0x208 JUMPI PUSH1 0x0 DUP1 REVERT JUMPDEST POP PUSH2 0x153 PUSH2 0x217 CALLDATASIZE PUSH1 0x4 PUSH2 0x10DD JUMP JUMPDEST PUSH2 0x51D JUMP JUMPDEST CALLVALUE DUP1 ISZERO PUSH2 0x228 JUMPI PUSH1 0x0 DUP1 REVERT JUMPDEST POP PUSH2 0x153 PUSH2 0x237 CALLDATASIZE PUSH1 0x4 PUSH2 0x1107 JUMP JUMPDEST PUSH2 0x545 JUMP JUMPDEST CALLVALUE DUP1 ISZERO PUSH2 0x248 JUMPI PUSH1 0x0 DUP1 REVERT JUMPDEST POP PUSH2 0x153 PUSH2 0x56B JUMP JUMPDEST CALLVALUE DUP1 ISZERO PUSH2 0x25D JUMPI PUSH1 0x0 DUP1 REVERT JUMPDEST POP PUSH1 0x1 SLOAD PUSH1 0x1 PUSH1 0xA0 SHL SWAP1 DIV PUSH1 0xFF AND PUSH2 0x175 JUMP JUMPDEST CALLVALUE DUP1 ISZERO PUSH2 0x27C JUMPI PUSH1 0x0 DUP1 REVERT JUMPDEST POP PUSH2 0x175 PUSH2 0x28B CALLDATASIZE PUSH1 0x4 PUSH2 0x1120 JUMP JUMPDEST PUSH2 0x594 JUMP JUMPDEST CALLVALUE DUP1 ISZERO PUSH2 0x29C JUMPI PUSH1 0x0 DUP1 REVERT JUMPDEST POP PUSH1 0x0 SLOAD PUSH1 0x1 PUSH1 0x1 PUSH1 0xA0 SHL SUB AND JUMPDEST PUSH1 0x40 MLOAD PUSH1 0x1 PUSH1 0x1 PUSH1 0xA0 SHL SUB SWAP1 SWAP2 AND DUP2 MSTORE PUSH1 0x20 ADD PUSH2 0x181 JUMP JUMPDEST CALLVALUE DUP1 ISZERO PUSH2 0x2CE JUMPI PUSH1 0x0 DUP1 REVERT JUMPDEST POP PUSH2 0x175 PUSH2 0x2DD CALLDATASIZE PUSH1 0x4 PUSH2 0x1120 JUMP JUMPDEST PUSH2 0x59F JUMP JUMPDEST CALLVALUE DUP1 ISZERO PUSH2 0x2EE JUMPI PUSH1 0x0 DUP1 REVERT JUMPDEST POP PUSH2 0x153 PUSH2 0x2FD CALLDATASIZE PUSH1 0x4 PUSH2 0x113B JUMP JUMPDEST PUSH2 0x5AA JUMP JUMPDEST CALLVALUE DUP1 ISZERO PUSH2 0x30E JUMPI PUSH1 0x0 DUP1 REVERT JUMPDEST POP PUSH2 0x153 PUSH2 0x5D4 JUMP JUMPDEST CALLVALUE DUP1 ISZERO PUSH2 0x323 JUMPI PUSH1 0x0 DUP1 REVERT JUMPDEST POP PUSH2 0x153 PUSH2 0x332 CALLDATASIZE PUSH1 0x4 PUSH2 0x10DD JUMP JUMPDEST PUSH2 0x5E7 JUMP JUMPDEST CALLVALUE DUP1 ISZERO PUSH2 0x343 JUMPI PUSH1 0x0 DUP1 REVERT JUMPDEST POP PUSH2 0x1B5 PUSH2 0x352 CALLDATASIZE PUSH1 0x4 PUSH2 0x1212 JUMP JUMPDEST PUSH4 0xBC197C81 PUSH1 0xE0 SHL SWAP6 SWAP5 POP POP POP POP POP JUMP JUMPDEST CALLVALUE DUP1 ISZERO PUSH2 0x36F JUMPI PUSH1 0x0 DUP1 REVERT JUMPDEST POP PUSH2 0x2AA PUSH2 0x603 JUMP JUMPDEST CALLVALUE DUP1 ISZERO PUSH2 0x384 JUMPI PUSH1 0x0 DUP1 REVERT JUMPDEST POP PUSH2 0x153 PUSH2 0x393 CALLDATASIZE PUSH1 0x4 PUSH2 0x1120 JUMP JUMPDEST PUSH2 0x617 JUMP JUMPDEST CALLVALUE DUP1 ISZERO PUSH2 0x3A4 JUMPI PUSH1 0x0 DUP1 REVERT JUMPDEST POP PUSH2 0x1B5 PUSH2 0x3B3 CALLDATASIZE PUSH1 0x4 PUSH2 0x12BC JUMP JUMPDEST PUSH4 0xF23A6E61 PUSH1 0xE0 SHL SWAP6 SWAP5 POP POP POP POP POP JUMP JUMPDEST CALLVALUE DUP1 ISZERO PUSH2 0x3D0 JUMPI PUSH1 0x0 DUP1 REVERT JUMPDEST POP PUSH2 0x153 PUSH2 0x3DF CALLDATASIZE PUSH1 0x4 PUSH2 0x1321 JUMP JUMPDEST PUSH2 0x64A JUMP JUMPDEST PUSH1 0x0 PUSH1 0x1 PUSH1 0x1 PUSH1 0xE0 SHL SUB NOT DUP3 AND PUSH4 0x1FFC9A7 PUSH1 0xE0 SHL EQ DUP1 PUSH2 0x415 JUMPI POP PUSH1 0x1 PUSH1 0x1 PUSH1 0xE0 SHL SUB NOT DUP3 AND PUSH4 0xA85BD01 PUSH1 0xE1 SHL EQ JUMPDEST DUP1 PUSH2 0x42F JUMPI POP PUSH1 0x1 PUSH1 0x1 PUSH1 0xE0 SHL SUB NOT DUP3 AND PUSH3 0x23DE29 PUSH1 0xE0 SHL EQ JUMPDEST DUP1 PUSH2 0x44A JUMPI POP PUSH1 0x1 PUSH1 0x1 PUSH1 0xE0 SHL SUB NOT DUP3 AND PUSH4 0x3AD5CBC1 PUSH1 0xE1 SHL EQ JUMPDEST DUP1 PUSH2 0x465 JUMPI POP PUSH1 0x1 PUSH1 0x1 PUSH1 0xE0 SHL SUB NOT DUP3 AND PUSH4 0x2711897 PUSH1 0xE5 SHL EQ JUMPDEST DUP1 PUSH2 0x480 JUMPI POP PUSH1 0x1 PUSH1 0x1 PUSH1 0xE0 SHL SUB NOT DUP3 AND PUSH4 0x124E59FD PUSH1 0xE1 SHL EQ JUMPDEST SWAP3 SWAP2 POP POP JUMP JUMPDEST PUSH1 0x0 PUSH1 0x1 PUSH1 0x1 PUSH1 0xA0 SHL SUB DUP3 AND ADDRESS EQ DUP1 ISZERO PUSH2 0x4E8 JUMPI POP PUSH32 0xB281FC8C12954D22544DB45DE3159A39272895B169A852B314F9CC762E44C53B DUP4 EQ DUP1 PUSH2 0x4E8 JUMPI POP PUSH32 0x29DDB589B1FB5FC7CF394961C1ADF5F8C6454761ADF795E67FE149F658ABE895 DUP4 EQ JUMPDEST ISZERO PUSH2 0x514 JUMPI POP PUSH32 0xA2EF4600D742022D532D4747CB3547474667D6F13804902513B2EC01C848F4B4 PUSH2 0x480 JUMP JUMPDEST POP PUSH1 0x0 SWAP3 SWAP2 POP POP JUMP JUMPDEST PUSH2 0x525 PUSH2 0x676 JUMP JUMPDEST PUSH2 0x52E CALLER PUSH2 0x697 JUMP JUMPDEST PUSH2 0x539 DUP3 CALLER DUP4 PUSH2 0x6E8 JUMP JUMPDEST PUSH2 0x541 PUSH2 0x5DD JUMP JUMPDEST POP POP JUMP JUMPDEST PUSH2 0x54D PUSH2 0x676 JUMP JUMPDEST PUSH2 0x556 CALLER PUSH2 0x697 JUMP JUMPDEST PUSH2 0x560 CALLER DUP3 PUSH2 0x865 JUMP JUMPDEST PUSH2 0x568 PUSH2 0x5DD JUMP JUMPDEST POP JUMP JUMPDEST PUSH2 0x573 PUSH2 0x676 JUMP JUMPDEST PUSH2 0x57C CALLER PUSH2 0x89B JUMP JUMPDEST PUSH2 0x585 CALLER PUSH2 0x8E7 JUMP JUMPDEST PUSH2 0x58D PUSH2 0x5DD JUMP JUMPDEST JUMP JUMPDEST SWAP1 POP SWAP1 JUMP JUMPDEST PUSH1 0x0 PUSH2 0x480 DUP3 PUSH2 0x8F0 JUMP JUMPDEST PUSH1 0x0 PUSH2 0x480 DUP3 PUSH2 0x91F JUMP JUMPDEST PUSH2 0x5B2 PUSH2 0x676 JUMP JUMPDEST PUSH2 0x5BB CALLER PUSH2 0x697 JUMP JUMPDEST PUSH2 0x5C7 DUP4 CALLER DUP5 DUP5 PUSH2 0x931 JUMP JUMPDEST PUSH2 0x5CF PUSH2 0x5DD JUMP JUMPDEST POP POP POP JUMP JUMPDEST PUSH2 0x5DD CALLER PUSH2 0x697 JUMP JUMPDEST PUSH2 0x58D PUSH1 0x0 PUSH2 0xAC0 JUMP JUMPDEST PUSH2 0x5EF PUSH2 0x676 JUMP JUMPDEST PUSH2 0x5F8 CALLER PUSH2 0x697 JUMP JUMPDEST PUSH2 0x539 DUP3 DUP3 CALLER PUSH2 0xADE JUMP JUMPDEST PUSH1 0x0 PUSH2 0x58F PUSH1 0x1 SLOAD PUSH1 0x1 PUSH1 0x1 PUSH1 0xA0 SHL SUB AND SWAP1 JUMP JUMPDEST PUSH2 0x61F PUSH2 0x676 JUMP JUMPDEST PUSH2 0x628 CALLER PUSH2 0x697 JUMP JUMPDEST PUSH2 0x560 DUP2 PUSH1 0x1 DUP1 SLOAD PUSH1 0x1 PUSH1 0x1 PUSH1 0xA0 SHL SUB NOT AND PUSH1 0x1 PUSH1 0x1 PUSH1 0xA0 SHL SUB DUP4 AND OR SWAP1 SSTORE POP JUMP JUMPDEST PUSH2 0x652 PUSH2 0x676 JUMP JUMPDEST PUSH2 0x65B CALLER PUSH2 0x697 JUMP JUMPDEST PUSH2 0x668 DUP5 DUP5 CALLER DUP6 DUP6 PUSH2 0xC59 JUMP JUMPDEST PUSH2 0x670 PUSH2 0x5DD JUMP JUMPDEST POP POP POP POP JUMP JUMPDEST PUSH1 0x1 SLOAD PUSH1 0x1 PUSH1 0xA0 SHL SWAP1 DIV PUSH1 0xFF AND ISZERO PUSH2 0x68D JUMPI PUSH2 0x68D INVALID JUMPDEST PUSH2 0x58D PUSH1 0x1 PUSH2 0xAC0 JUMP JUMPDEST PUSH2 0x6A0 DUP2 PUSH2 0x91F JUMP JUMPDEST PUSH2 0x568 JUMPI DUP1 PUSH2 0x6B7 PUSH1 0x0 SLOAD PUSH1 0x1 PUSH1 0x1 PUSH1 0xA0 SHL SUB AND SWAP1 JUMP JUMPDEST PUSH1 0x40 MLOAD PUSH4 0xDAA8083 PUSH1 0xE0 SHL DUP2 MSTORE PUSH1 0x1 PUSH1 0x1 PUSH1 0xA0 SHL SUB SWAP3 DUP4 AND PUSH1 0x4 DUP3 ADD MSTORE SWAP2 AND PUSH1 0x24 DUP3 ADD MSTORE PUSH1 0x44 ADD JUMPDEST PUSH1 0x40 MLOAD DUP1 SWAP2 SUB SWAP1 REVERT JUMPDEST DUP3 PUSH1 0x1 PUSH1 0x1 PUSH1 0xA0 SHL SUB AND EXTCODESIZE PUSH1 0x0 SUB PUSH2 0x742 JUMPI PUSH1 0x40 MLOAD PUSH3 0x461BCD PUSH1 0xE5 SHL DUP2 MSTORE PUSH1 0x20 PUSH1 0x4 DUP3 ADD MSTORE PUSH1 0x17 PUSH1 0x24 DUP3 ADD MSTORE PUSH32 0x4552433230546F6B656E436F6E74726163744572726F72000000000000000000 PUSH1 0x44 DUP3 ADD MSTORE PUSH1 0x64 ADD PUSH2 0x6DF JUMP JUMPDEST PUSH1 0x40 DUP1 MLOAD PUSH1 0x1 PUSH1 0x1 PUSH1 0xA0 SHL SUB DUP5 DUP2 AND PUSH1 0x24 DUP4 ADD MSTORE PUSH1 0x44 DUP1 DUP4 ADD DUP6 SWAP1 MSTORE DUP4 MLOAD DUP1 DUP5 SUB SWAP1 SWAP2 ADD DUP2 MSTORE PUSH1 0x64 SWAP1 SWAP3 ADD DUP4 MSTORE PUSH1 0x20 DUP3 ADD DUP1 MLOAD PUSH1 0x1 PUSH1 0x1 PUSH1 0xE0 SHL SUB AND PUSH4 0xA9059CBB PUSH1 0xE0 SHL OR SWAP1 MSTORE SWAP2 MLOAD SWAP1 SWAP2 PUSH1 0x0 SWAP2 DUP3 SWAP2 DUP8 AND SWAP1 PUSH2 0x7A0 SWAP1 DUP6 SWAP1 PUSH2 0x138E JUMP JUMPDEST PUSH1 0x0 PUSH1 0x40 MLOAD DUP1 DUP4 SUB DUP2 PUSH1 0x0 DUP7 GAS CALL SWAP2 POP POP RETURNDATASIZE DUP1 PUSH1 0x0 DUP2 EQ PUSH2 0x7DD JUMPI PUSH1 0x40 MLOAD SWAP2 POP PUSH1 0x1F NOT PUSH1 0x3F RETURNDATASIZE ADD AND DUP3 ADD PUSH1 0x40 MSTORE RETURNDATASIZE DUP3 MSTORE RETURNDATASIZE PUSH1 0x0 PUSH1 0x20 DUP5 ADD RETURNDATACOPY PUSH2 0x7E2 JUMP JUMPDEST PUSH1 0x60 SWAP2 POP JUMPDEST POP SWAP2 POP SWAP2 POP DUP2 ISZERO DUP1 PUSH2 0x810 JUMPI POP DUP1 MLOAD ISZERO DUP1 ISZERO SWAP1 PUSH2 0x810 JUMPI POP DUP1 DUP1 PUSH1 0x20 ADD SWAP1 MLOAD DUP2 ADD SWAP1 PUSH2 0x80E SWAP2 SWAP1 PUSH2 0x13AA JUMP JUMPDEST ISZERO JUMPDEST ISZERO PUSH2 0x85D JUMPI PUSH1 0x40 MLOAD PUSH3 0x461BCD PUSH1 0xE5 SHL DUP2 MSTORE PUSH1 0x20 PUSH1 0x4 DUP3 ADD MSTORE PUSH1 0x17 PUSH1 0x24 DUP3 ADD MSTORE PUSH32 0x4552433230546F6B656E5472616E736665724572726F72000000000000000000 PUSH1 0x44 DUP3 ADD MSTORE PUSH1 0x64 ADD PUSH2 0x6DF JUMP JUMPDEST POP POP POP POP POP POP JUMP JUMPDEST PUSH1 0x40 MLOAD PUSH1 0x1 PUSH1 0x1 PUSH1 0xA0 SHL SUB DUP4 AND SWAP1 DUP3 ISZERO PUSH2 0x8FC MUL SWAP1 DUP4 SWAP1 PUSH1 0x0 DUP2 DUP2 DUP2 DUP6 DUP9 DUP9 CALL SWAP4 POP POP POP POP ISZERO DUP1 ISZERO PUSH2 0x5CF JUMPI RETURNDATASIZE PUSH1 0x0 DUP1 RETURNDATACOPY RETURNDATASIZE PUSH1 0x0 REVERT JUMPDEST PUSH2 0x8A4 DUP2 PUSH2 0x8F0 JUMP JUMPDEST PUSH2 0x568 JUMPI DUP1 PUSH2 0x8BB PUSH1 0x1 SLOAD PUSH1 0x1 PUSH1 0x1 PUSH1 0xA0 SHL SUB AND SWAP1 JUMP JUMPDEST PUSH1 0x40 MLOAD PUSH4 0x549FBFE3 PUSH1 0xE0 SHL DUP2 MSTORE PUSH1 0x1 PUSH1 0x1 PUSH1 0xA0 SHL SUB SWAP3 DUP4 AND PUSH1 0x4 DUP3 ADD MSTORE SWAP2 AND PUSH1 0x24 DUP3 ADD MSTORE PUSH1 0x44 ADD PUSH2 0x6DF JUMP JUMPDEST PUSH2 0x568 DUP2 PUSH2 0xDE3 JUMP JUMPDEST PUSH1 0x0 PUSH2 0x904 PUSH1 0x1 SLOAD PUSH1 0x1 PUSH1 0x1 PUSH1 0xA0 SHL SUB AND SWAP1 JUMP JUMPDEST PUSH1 0x1 PUSH1 0x1 PUSH1 0xA0 SHL SUB AND DUP3 PUSH1 0x1 PUSH1 0x1 PUSH1 0xA0 SHL SUB AND EQ SWAP1 POP SWAP2 SWAP1 POP JUMP JUMPDEST PUSH1 0x0 DUP1 SLOAD PUSH1 0x1 PUSH1 0x1 PUSH1 0xA0 SHL SUB AND PUSH2 0x904 JUMP JUMPDEST DUP4 PUSH1 0x1 PUSH1 0x1 PUSH1 0xA0 SHL SUB AND EXTCODESIZE PUSH1 0x0 SUB PUSH2 0x98B JUMPI PUSH1 0x40 MLOAD PUSH3 0x461BCD PUSH1 0xE5 SHL DUP2 MSTORE PUSH1 0x20 PUSH1 0x4 DUP3 ADD MSTORE PUSH1 0x18 PUSH1 0x24 DUP3 ADD MSTORE PUSH32 0x455243373737546F6B656E436F6E74726163744572726F720000000000000000 PUSH1 0x44 DUP3 ADD MSTORE PUSH1 0x64 ADD PUSH2 0x6DF JUMP JUMPDEST PUSH1 0x0 PUSH4 0x9BD9BBC6 PUSH1 0xE0 SHL DUP5 DUP5 DUP5 PUSH1 0x40 MLOAD PUSH1 0x24 ADD PUSH2 0x9AA SWAP4 SWAP3 SWAP2 SWAP1 PUSH2 0x13F8 JUMP JUMPDEST PUSH1 0x40 MLOAD PUSH1 0x20 DUP2 DUP4 SUB SUB DUP2 MSTORE SWAP1 PUSH1 0x40 MSTORE SWAP1 PUSH1 0x1 PUSH1 0x1 PUSH1 0xE0 SHL SUB NOT AND PUSH1 0x20 DUP3 ADD DUP1 MLOAD PUSH1 0x1 PUSH1 0x1 PUSH1 0xE0 SHL SUB DUP4 DUP2 DUP4 AND OR DUP4 MSTORE POP POP POP POP SWAP1 POP PUSH1 0x0 DUP1 DUP7 PUSH1 0x1 PUSH1 0x1 PUSH1 0xA0 SHL SUB AND DUP4 PUSH1 0x40 MLOAD PUSH2 0x9FA SWAP2 SWAP1 PUSH2 0x138E JUMP JUMPDEST PUSH1 0x0 PUSH1 0x40 MLOAD DUP1 DUP4 SUB DUP2 PUSH1 0x0 DUP7 GAS CALL SWAP2 POP POP RETURNDATASIZE DUP1 PUSH1 0x0 DUP2 EQ PUSH2 0xA37 JUMPI PUSH1 0x40 MLOAD SWAP2 POP PUSH1 0x1F NOT PUSH1 0x3F RETURNDATASIZE ADD AND DUP3 ADD PUSH1 0x40 MSTORE RETURNDATASIZE DUP3 MSTORE RETURNDATASIZE PUSH1 0x0 PUSH1 0x20 DUP5 ADD RETURNDATACOPY PUSH2 0xA3C JUMP JUMPDEST PUSH1 0x60 SWAP2 POP JUMPDEST POP SWAP2 POP SWAP2 POP DUP2 ISZERO DUP1 PUSH2 0xA6A JUMPI POP DUP1 MLOAD ISZERO DUP1 ISZERO SWAP1 PUSH2 0xA6A JUMPI POP DUP1 DUP1 PUSH1 0x20 ADD SWAP1 MLOAD DUP2 ADD SWAP1 PUSH2 0xA68 SWAP2 SWAP1 PUSH2 0x13AA JUMP JUMPDEST ISZERO JUMPDEST ISZERO PUSH2 0xAB7 JUMPI PUSH1 0x40 MLOAD PUSH3 0x461BCD PUSH1 0xE5 SHL DUP2 MSTORE PUSH1 0x20 PUSH1 0x4 DUP3 ADD MSTORE PUSH1 0x18 PUSH1 0x24 DUP3 ADD MSTORE PUSH32 0x455243373737546F6B656E5472616E736665724572726F720000000000000000 PUSH1 0x44 DUP3 ADD MSTORE PUSH1 0x64 ADD PUSH2 0x6DF JUMP JUMPDEST POP POP POP POP POP POP POP JUMP JUMPDEST PUSH1 0x1 DUP1 SLOAD SWAP2 ISZERO ISZERO PUSH1 0x1 PUSH1 0xA0 SHL MUL PUSH1 0xFF PUSH1 0xA0 SHL NOT SWAP1 SWAP3 AND SWAP2 SWAP1 SWAP2 OR SWAP1 SSTORE JUMP JUMPDEST DUP3 PUSH1 0x1 PUSH1 0x1 PUSH1 0xA0 SHL SUB AND EXTCODESIZE PUSH1 0x0 SUB PUSH2 0xB38 JUMPI PUSH1 0x40 MLOAD PUSH3 0x461BCD PUSH1 0xE5 SHL DUP2 MSTORE PUSH1 0x20 PUSH1 0x4 DUP3 ADD MSTORE PUSH1 0x18 PUSH1 0x24 DUP3 ADD MSTORE PUSH32 0x455243373231546F6B656E436F6E74726163744572726F720000000000000000 PUSH1 0x44 DUP3 ADD MSTORE PUSH1 0x64 ADD PUSH2 0x6DF JUMP JUMPDEST PUSH1 0x40 DUP1 MLOAD ADDRESS PUSH1 0x24 DUP3 ADD MSTORE PUSH1 0x1 PUSH1 0x1 PUSH1 0xA0 SHL SUB DUP4 DUP2 AND PUSH1 0x44 DUP4 ADD MSTORE PUSH1 0x64 DUP1 DUP4 ADD DUP7 SWAP1 MSTORE DUP4 MLOAD DUP1 DUP5 SUB SWAP1 SWAP2 ADD DUP2 MSTORE PUSH1 0x84 SWAP1 SWAP3 ADD DUP4 MSTORE PUSH1 0x20 DUP3 ADD DUP1 MLOAD PUSH1 0x1 PUSH1 0x1 PUSH1 0xE0 SHL SUB AND PUSH4 0x23B872DD PUSH1 0xE0 SHL OR SWAP1 MSTORE SWAP2 MLOAD SWAP1 SWAP2 PUSH1 0x0 SWAP2 DUP3 SWAP2 DUP8 AND SWAP1 PUSH2 0xB9C SWAP1 DUP6 SWAP1 PUSH2 0x138E JUMP JUMPDEST PUSH1 0x0 PUSH1 0x40 MLOAD DUP1 DUP4 SUB DUP2 PUSH1 0x0 DUP7 GAS CALL SWAP2 POP POP RETURNDATASIZE DUP1 PUSH1 0x0 DUP2 EQ PUSH2 0xBD9 JUMPI PUSH1 0x40 MLOAD SWAP2 POP PUSH1 0x1F NOT PUSH1 0x3F RETURNDATASIZE ADD AND DUP3 ADD PUSH1 0x40 MSTORE RETURNDATASIZE DUP3 MSTORE RETURNDATASIZE PUSH1 0x0 PUSH1 0x20 DUP5 ADD RETURNDATACOPY PUSH2 0xBDE JUMP JUMPDEST PUSH1 0x60 SWAP2 POP JUMPDEST POP SWAP2 POP SWAP2 POP DUP2 ISZERO DUP1 PUSH2 0xC0C JUMPI POP DUP1 MLOAD ISZERO DUP1 ISZERO SWAP1 PUSH2 0xC0C JUMPI POP DUP1 DUP1 PUSH1 0x20 ADD SWAP1 MLOAD DUP2 ADD SWAP1 PUSH2 0xC0A SWAP2 SWAP1 PUSH2 0x13AA JUMP JUMPDEST ISZERO JUMPDEST ISZERO PUSH2 0x85D JUMPI PUSH1 0x40 MLOAD PUSH3 0x461BCD PUSH1 0xE5 SHL DUP2 MSTORE PUSH1 0x20 PUSH1 0x4 DUP3 ADD MSTORE PUSH1 0x18 PUSH1 0x24 DUP3 ADD MSTORE PUSH32 0x455243373231546F6B656E5472616E736665724572726F720000000000000000 PUSH1 0x44 DUP3 ADD MSTORE PUSH1 0x64 ADD PUSH2 0x6DF JUMP JUMPDEST DUP5 PUSH1 0x1 PUSH1 0x1 PUSH1 0xA0 SHL SUB AND EXTCODESIZE PUSH1 0x0 SUB PUSH2 0xCB3 JUMPI PUSH1 0x40 MLOAD PUSH3 0x461BCD PUSH1 0xE5 SHL DUP2 MSTORE PUSH1 0x20 PUSH1 0x4 DUP3 ADD MSTORE PUSH1 0x19 PUSH1 0x24 DUP3 ADD MSTORE PUSH32 0x45524331313535546F6B656E436F6E74726163744572726F7200000000000000 PUSH1 0x44 DUP3 ADD MSTORE PUSH1 0x64 ADD PUSH2 0x6DF JUMP JUMPDEST PUSH1 0x0 PUSH4 0xF242432A PUSH1 0xE0 SHL ADDRESS DUP6 DUP8 DUP7 DUP7 PUSH1 0x40 MLOAD PUSH1 0x24 ADD PUSH2 0xCD6 SWAP6 SWAP5 SWAP4 SWAP3 SWAP2 SWAP1 PUSH2 0x1428 JUMP JUMPDEST PUSH1 0x40 MLOAD PUSH1 0x20 DUP2 DUP4 SUB SUB DUP2 MSTORE SWAP1 PUSH1 0x40 MSTORE SWAP1 PUSH1 0x1 PUSH1 0x1 PUSH1 0xE0 SHL SUB NOT AND PUSH1 0x20 DUP3 ADD DUP1 MLOAD PUSH1 0x1 PUSH1 0x1 PUSH1 0xE0 SHL SUB DUP4 DUP2 DUP4 AND OR DUP4 MSTORE POP POP POP POP SWAP1 POP PUSH1 0x0 DUP1 DUP8 PUSH1 0x1 PUSH1 0x1 PUSH1 0xA0 SHL SUB AND DUP4 PUSH1 0x40 MLOAD PUSH2 0xD26 SWAP2 SWAP1 PUSH2 0x138E JUMP JUMPDEST PUSH1 0x0 PUSH1 0x40 MLOAD DUP1 DUP4 SUB DUP2 PUSH1 0x0 DUP7 GAS CALL SWAP2 POP POP RETURNDATASIZE DUP1 PUSH1 0x0 DUP2 EQ PUSH2 0xD63 JUMPI PUSH1 0x40 MLOAD SWAP2 POP PUSH1 0x1F NOT PUSH1 0x3F RETURNDATASIZE ADD AND DUP3 ADD PUSH1 0x40 MSTORE RETURNDATASIZE DUP3 MSTORE RETURNDATASIZE PUSH1 0x0 PUSH1 0x20 DUP5 ADD RETURNDATACOPY PUSH2 0xD68 JUMP JUMPDEST PUSH1 0x60 SWAP2 POP JUMPDEST POP SWAP2 POP SWAP2 POP DUP2 ISZERO DUP1 PUSH2 0xD96 JUMPI POP DUP1 MLOAD ISZERO DUP1 ISZERO SWAP1 PUSH2 0xD96 JUMPI POP DUP1 DUP1 PUSH1 0x20 ADD SWAP1 MLOAD DUP2 ADD SWAP1 PUSH2 0xD94 SWAP2 SWAP1 PUSH2 0x13AA JUMP JUMPDEST ISZERO JUMPDEST ISZERO PUSH2 0x149 JUMPI PUSH1 0x40 MLOAD PUSH3 0x461BCD PUSH1 0xE5 SHL DUP2 MSTORE PUSH1 0x20 PUSH1 0x4 DUP3 ADD MSTORE PUSH1 0x19 PUSH1 0x24 DUP3 ADD MSTORE PUSH32 0x45524331313535546F6B656E5472616E736665724572726F7200000000000000 PUSH1 0x44 DUP3 ADD MSTORE PUSH1 0x64 ADD PUSH2 0x6DF JUMP JUMPDEST PUSH1 0x0 SLOAD PUSH1 0x1 PUSH1 0x1 PUSH1 0xA0 SHL SUB DUP3 DUP2 AND SWAP2 AND EQ PUSH2 0x568 JUMPI PUSH1 0x0 DUP1 SLOAD PUSH1 0x40 MLOAD PUSH1 0x1 PUSH1 0x1 PUSH1 0xA0 SHL SUB DUP1 DUP6 AND SWAP4 SWAP3 AND SWAP2 PUSH32 0xB532073B38C83145E3E5135377A08BF9AAB55BC0FD7C1179CD4FB995D2A5159C SWAP2 LOG3 PUSH1 0x0 DUP1 SLOAD PUSH1 0x1 PUSH1 0x1 PUSH1 0xA0 SHL SUB DUP4 AND PUSH1 0x1 PUSH1 0x1 PUSH1 0xA0 SHL SUB NOT SWAP1 SWAP2 AND OR SWAP1 SSTORE POP JUMP JUMPDEST DUP1 CALLDATALOAD PUSH1 0x1 PUSH1 0x1 PUSH1 0xA0 SHL SUB DUP2 AND DUP2 EQ PUSH2 0xE68 JUMPI PUSH1 0x0 DUP1 REVERT JUMPDEST SWAP2 SWAP1 POP JUMP JUMPDEST PUSH1 0x0 DUP1 DUP4 PUSH1 0x1F DUP5 ADD SLT PUSH2 0xE7F JUMPI PUSH1 0x0 DUP1 REVERT JUMPDEST POP DUP2 CALLDATALOAD PUSH8 0xFFFFFFFFFFFFFFFF DUP2 GT ISZERO PUSH2 0xE97 JUMPI PUSH1 0x0 DUP1 REVERT JUMPDEST PUSH1 0x20 DUP4 ADD SWAP2 POP DUP4 PUSH1 0x20 DUP3 DUP6 ADD ADD GT ISZERO PUSH2 0xEAF JUMPI PUSH1 0x0 DUP1 REVERT JUMPDEST SWAP3 POP SWAP3 SWAP1 POP JUMP JUMPDEST PUSH1 0x0 DUP1 PUSH1 0x0 DUP1 PUSH1 0x0 DUP1 PUSH1 0x0 DUP1 PUSH1 0xC0 DUP10 DUP12 SUB SLT ISZERO PUSH2 0xED2 JUMPI PUSH1 0x0 DUP1 REVERT JUMPDEST PUSH2 0xEDB DUP10 PUSH2 0xE51 JUMP JUMPDEST SWAP8 POP PUSH2 0xEE9 PUSH1 0x20 DUP11 ADD PUSH2 0xE51 JUMP JUMPDEST SWAP7 POP PUSH2 0xEF7 PUSH1 0x40 DUP11 ADD PUSH2 0xE51 JUMP JUMPDEST SWAP6 POP PUSH1 0x60 DUP10 ADD CALLDATALOAD SWAP5 POP PUSH1 0x80 DUP10 ADD CALLDATALOAD PUSH8 0xFFFFFFFFFFFFFFFF DUP1 DUP3 GT ISZERO PUSH2 0xF1B JUMPI PUSH1 0x0 DUP1 REVERT JUMPDEST PUSH2 0xF27 DUP13 DUP4 DUP14 ADD PUSH2 0xE6D JUMP JUMPDEST SWAP1 SWAP7 POP SWAP5 POP PUSH1 0xA0 DUP12 ADD CALLDATALOAD SWAP2 POP DUP1 DUP3 GT ISZERO PUSH2 0xF40 JUMPI PUSH1 0x0 DUP1 REVERT JUMPDEST POP PUSH2 0xF4D DUP12 DUP3 DUP13 ADD PUSH2 0xE6D JUMP JUMPDEST SWAP10 SWAP13 SWAP9 SWAP12 POP SWAP7 SWAP10 POP SWAP5 SWAP8 SWAP4 SWAP7 SWAP3 SWAP6 SWAP5 POP POP POP JUMP JUMPDEST PUSH1 0x0 PUSH1 0x20 DUP3 DUP5 SUB SLT ISZERO PUSH2 0xF73 JUMPI PUSH1 0x0 DUP1 REVERT JUMPDEST DUP2 CALLDATALOAD PUSH1 0x1 PUSH1 0x1 PUSH1 0xE0 SHL SUB NOT DUP2 AND DUP2 EQ PUSH2 0xF8B JUMPI PUSH1 0x0 DUP1 REVERT JUMPDEST SWAP4 SWAP3 POP POP POP JUMP JUMPDEST PUSH4 0x4E487B71 PUSH1 0xE0 SHL PUSH1 0x0 MSTORE PUSH1 0x41 PUSH1 0x4 MSTORE PUSH1 0x24 PUSH1 0x0 REVERT JUMPDEST PUSH1 0x40 MLOAD PUSH1 0x1F DUP3 ADD PUSH1 0x1F NOT AND DUP2 ADD PUSH8 0xFFFFFFFFFFFFFFFF DUP2 GT DUP3 DUP3 LT OR ISZERO PUSH2 0xFD1 JUMPI PUSH2 0xFD1 PUSH2 0xF92 JUMP JUMPDEST PUSH1 0x40 MSTORE SWAP2 SWAP1 POP JUMP JUMPDEST PUSH1 0x0 DUP3 PUSH1 0x1F DUP4 ADD SLT PUSH2 0xFEA JUMPI PUSH1 0x0 DUP1 REVERT JUMPDEST DUP2 CALLDATALOAD PUSH8 0xFFFFFFFFFFFFFFFF DUP2 GT ISZERO PUSH2 0x1004 JUMPI PUSH2 0x1004 PUSH2 0xF92 JUMP JUMPDEST PUSH2 0x1017 PUSH1 0x1F DUP3 ADD PUSH1 0x1F NOT AND PUSH1 0x20 ADD PUSH2 0xFA8 JUMP JUMPDEST DUP2 DUP2 MSTORE DUP5 PUSH1 0x20 DUP4 DUP7 ADD ADD GT ISZERO PUSH2 0x102C JUMPI PUSH1 0x0 DUP1 REVERT JUMPDEST DUP2 PUSH1 0x20 DUP6 ADD PUSH1 0x20 DUP4 ADD CALLDATACOPY PUSH1 0x0 SWAP2 DUP2 ADD PUSH1 0x20 ADD SWAP2 SWAP1 SWAP2 MSTORE SWAP4 SWAP3 POP POP POP JUMP JUMPDEST PUSH1 0x0 DUP1 PUSH1 0x0 DUP1 PUSH1 0x80 DUP6 DUP8 SUB SLT ISZERO PUSH2 0x105F JUMPI PUSH1 0x0 DUP1 REVERT JUMPDEST PUSH2 0x1068 DUP6 PUSH2 0xE51 JUMP JUMPDEST SWAP4 POP PUSH2 0x1076 PUSH1 0x20 DUP7 ADD PUSH2 0xE51 JUMP JUMPDEST SWAP3 POP PUSH1 0x40 DUP6 ADD CALLDATALOAD SWAP2 POP PUSH1 0x60 DUP6 ADD CALLDATALOAD PUSH8 0xFFFFFFFFFFFFFFFF DUP2 GT ISZERO PUSH2 0x1099 JUMPI PUSH1 0x0 DUP1 REVERT JUMPDEST PUSH2 0x10A5 DUP8 DUP3 DUP9 ADD PUSH2 0xFD9 JUMP JUMPDEST SWAP2 POP POP SWAP3 SWAP6 SWAP2 SWAP5 POP SWAP3 POP JUMP JUMPDEST PUSH1 0x0 DUP1 PUSH1 0x40 DUP4 DUP6 SUB SLT ISZERO PUSH2 0x10C4 JUMPI PUSH1 0x0 DUP1 REVERT JUMPDEST DUP3 CALLDATALOAD SWAP2 POP PUSH2 0x10D4 PUSH1 0x20 DUP5 ADD PUSH2 0xE51 JUMP JUMPDEST SWAP1 POP SWAP3 POP SWAP3 SWAP1 POP JUMP JUMPDEST PUSH1 0x0 DUP1 PUSH1 0x40 DUP4 DUP6 SUB SLT ISZERO PUSH2 0x10F0 JUMPI PUSH1 0x0 DUP1 REVERT JUMPDEST PUSH2 0x10F9 DUP4 PUSH2 0xE51 JUMP JUMPDEST SWAP5 PUSH1 0x20 SWAP4 SWAP1 SWAP4 ADD CALLDATALOAD SWAP4 POP POP POP JUMP JUMPDEST PUSH1 0x0 PUSH1 0x20 DUP3 DUP5 SUB SLT ISZERO PUSH2 0x1119 JUMPI PUSH1 0x0 DUP1 REVERT JUMPDEST POP CALLDATALOAD SWAP2 SWAP1 POP JUMP JUMPDEST PUSH1 0x0 PUSH1 0x20 DUP3 DUP5 SUB SLT ISZERO PUSH2 0x1132 JUMPI PUSH1 0x0 DUP1 REVERT JUMPDEST PUSH2 0xF8B DUP3 PUSH2 0xE51 JUMP JUMPDEST PUSH1 0x0 DUP1 PUSH1 0x0 PUSH1 0x60 DUP5 DUP7 SUB SLT ISZERO PUSH2 0x1150 JUMPI PUSH1 0x0 DUP1 REVERT JUMPDEST PUSH2 0x1159 DUP5 PUSH2 0xE51 JUMP JUMPDEST SWAP3 POP PUSH1 0x20 DUP5 ADD CALLDATALOAD SWAP2 POP PUSH1 0x40 DUP5 ADD CALLDATALOAD PUSH8 0xFFFFFFFFFFFFFFFF DUP2 GT ISZERO PUSH2 0x117C JUMPI PUSH1 0x0 DUP1 REVERT JUMPDEST PUSH2 0x1188 DUP7 DUP3 DUP8 ADD PUSH2 0xFD9 JUMP JUMPDEST SWAP2 POP POP SWAP3 POP SWAP3 POP SWAP3 JUMP JUMPDEST PUSH1 0x0 DUP3 PUSH1 0x1F DUP4 ADD SLT PUSH2 0x11A3 JUMPI PUSH1 0x0 DUP1 REVERT JUMPDEST DUP2 CALLDATALOAD PUSH1 0x20 PUSH8 0xFFFFFFFFFFFFFFFF DUP3 GT ISZERO PUSH2 0x11BF JUMPI PUSH2 0x11BF PUSH2 0xF92 JUMP JUMPDEST DUP2 PUSH1 0x5 SHL PUSH2 0x11CE DUP3 DUP3 ADD PUSH2 0xFA8 JUMP JUMPDEST SWAP3 DUP4 MSTORE DUP5 DUP2 ADD DUP3 ADD SWAP3 DUP3 DUP2 ADD SWAP1 DUP8 DUP6 GT ISZERO PUSH2 0x11E8 JUMPI PUSH1 0x0 DUP1 REVERT JUMPDEST DUP4 DUP8 ADD SWAP3 POP JUMPDEST DUP5 DUP4 LT ISZERO PUSH2 0x1207 JUMPI DUP3 CALLDATALOAD DUP3 MSTORE SWAP2 DUP4 ADD SWAP2 SWAP1 DUP4 ADD SWAP1 PUSH2 0x11EE JUMP JUMPDEST SWAP8 SWAP7 POP POP POP POP POP POP POP JUMP JUMPDEST PUSH1 0x0 DUP1 PUSH1 0x0 DUP1 PUSH1 0x0 PUSH1 0xA0 DUP7 DUP9 SUB SLT ISZERO PUSH2 0x122A JUMPI PUSH1 0x0 DUP1 REVERT JUMPDEST PUSH2 0x1233 DUP7 PUSH2 0xE51 JUMP JUMPDEST SWAP5 POP PUSH2 0x1241 PUSH1 0x20 DUP8 ADD PUSH2 0xE51 JUMP JUMPDEST SWAP4 POP PUSH1 0x40 DUP7 ADD CALLDATALOAD PUSH8 0xFFFFFFFFFFFFFFFF DUP1 DUP3 GT ISZERO PUSH2 0x125E JUMPI PUSH1 0x0 DUP1 REVERT JUMPDEST PUSH2 0x126A DUP10 DUP4 DUP11 ADD PUSH2 0x1192 JUMP JUMPDEST SWAP5 POP PUSH1 0x60 DUP9 ADD CALLDATALOAD SWAP2 POP DUP1 DUP3 GT ISZERO PUSH2 0x1280 JUMPI PUSH1 0x0 DUP1 REVERT JUMPDEST PUSH2 0x128C DUP10 DUP4 DUP11 ADD PUSH2 0x1192 JUMP JUMPDEST SWAP4 POP PUSH1 0x80 DUP9 ADD CALLDATALOAD SWAP2 POP DUP1 DUP3 GT ISZERO PUSH2 0x12A2 JUMPI PUSH1 0x0 DUP1 REVERT JUMPDEST POP PUSH2 0x12AF DUP9 DUP3 DUP10 ADD PUSH2 0xFD9 JUMP JUMPDEST SWAP2 POP POP SWAP3 SWAP6 POP SWAP3 SWAP6 SWAP1 SWAP4 POP JUMP JUMPDEST PUSH1 0x0 DUP1 PUSH1 0x0 DUP1 PUSH1 0x0 PUSH1 0xA0 DUP7 DUP9 SUB SLT ISZERO PUSH2 0x12D4 JUMPI PUSH1 0x0 DUP1 REVERT JUMPDEST PUSH2 0x12DD DUP7 PUSH2 0xE51 JUMP JUMPDEST SWAP5 POP PUSH2 0x12EB PUSH1 0x20 DUP8 ADD PUSH2 0xE51 JUMP JUMPDEST SWAP4 POP PUSH1 0x40 DUP7 ADD CALLDATALOAD SWAP3 POP PUSH1 0x60 DUP7 ADD CALLDATALOAD SWAP2 POP PUSH1 0x80 DUP7 ADD CALLDATALOAD PUSH8 0xFFFFFFFFFFFFFFFF DUP2 GT ISZERO PUSH2 0x1315 JUMPI PUSH1 0x0 DUP1 REVERT JUMPDEST PUSH2 0x12AF DUP9 DUP3 DUP10 ADD PUSH2 0xFD9 JUMP JUMPDEST PUSH1 0x0 DUP1 PUSH1 0x0 DUP1 PUSH1 0x80 DUP6 DUP8 SUB SLT ISZERO PUSH2 0x1337 JUMPI PUSH1 0x0 DUP1 REVERT JUMPDEST PUSH2 0x1340 DUP6 PUSH2 0xE51 JUMP JUMPDEST SWAP4 POP PUSH1 0x20 DUP6 ADD CALLDATALOAD SWAP3 POP PUSH1 0x40 DUP6 ADD CALLDATALOAD SWAP2 POP PUSH1 0x60 DUP6 ADD CALLDATALOAD PUSH8 0xFFFFFFFFFFFFFFFF DUP2 GT ISZERO PUSH2 0x1099 JUMPI PUSH1 0x0 DUP1 REVERT JUMPDEST PUSH1 0x0 JUMPDEST DUP4 DUP2 LT ISZERO PUSH2 0x1385 JUMPI DUP2 DUP2 ADD MLOAD DUP4 DUP3 ADD MSTORE PUSH1 0x20 ADD PUSH2 0x136D JUMP JUMPDEST POP POP PUSH1 0x0 SWAP2 ADD MSTORE JUMP JUMPDEST PUSH1 0x0 DUP3 MLOAD PUSH2 0x13A0 DUP2 DUP5 PUSH1 0x20 DUP8 ADD PUSH2 0x136A JUMP JUMPDEST SWAP2 SWAP1 SWAP2 ADD SWAP3 SWAP2 POP POP JUMP JUMPDEST PUSH1 0x0 PUSH1 0x20 DUP3 DUP5 SUB SLT ISZERO PUSH2 0x13BC JUMPI PUSH1 0x0 DUP1 REVERT JUMPDEST DUP2 MLOAD DUP1 ISZERO ISZERO DUP2 EQ PUSH2 0xF8B JUMPI PUSH1 0x0 DUP1 REVERT JUMPDEST PUSH1 0x0 DUP2 MLOAD DUP1 DUP5 MSTORE PUSH2 0x13E4 DUP2 PUSH1 0x20 DUP7 ADD PUSH1 0x20 DUP7 ADD PUSH2 0x136A JUMP JUMPDEST PUSH1 0x1F ADD PUSH1 0x1F NOT AND SWAP3 SWAP1 SWAP3 ADD PUSH1 0x20 ADD SWAP3 SWAP2 POP POP JUMP JUMPDEST PUSH1 0x1 DUP1 PUSH1 0xA0 SHL SUB DUP5 AND DUP2 MSTORE DUP3 PUSH1 0x20 DUP3 ADD MSTORE PUSH1 0x60 PUSH1 0x40 DUP3 ADD MSTORE PUSH1 0x0 PUSH2 0x141F PUSH1 0x60 DUP4 ADD DUP5 PUSH2 0x13CC JUMP JUMPDEST SWAP6 SWAP5 POP POP POP POP POP JUMP JUMPDEST PUSH1 0x1 PUSH1 0x1 PUSH1 0xA0 SHL SUB DUP7 DUP2 AND DUP3 MSTORE DUP6 AND PUSH1 0x20 DUP3 ADD MSTORE PUSH1 0x40 DUP2 ADD DUP5 SWAP1 MSTORE PUSH1 0x60 DUP2 ADD DUP4 SWAP1 MSTORE PUSH1 0xA0 PUSH1 0x80 DUP3 ADD DUP2 SWAP1 MSTORE PUSH1 0x0 SWAP1 PUSH2 0x1207 SWAP1 DUP4 ADD DUP5 PUSH2 0x13CC JUMP INVALID LOG2 PUSH5 0x6970667358 0x22 SLT KECCAK256 0xC0 0x21 0xD1 0xE 0x5D 0xE2 CALLVALUE DUP16 0xDC 0x5F 0xF9 PUSH18 0xD657F2F29238D535051A5837D8922FD54058 0xFC 0xE2 PUSH5 0x736F6C6343 STOP ADDMOD SLT STOP CALLER "
				},
				"gasEstimates": {
					"creation": {
						"codeDepositCost": "1054400",
						"executionCost": "55403",
						"totalCost": "1109803"
					},
					"external": {
						"action_claimOwnerRole()": "infinite",
						"action_offerOwnerRole(address)": "infinite",
						"canImplementInterfaceForAddress(bytes32,address)": "605",
						"donate()": "184",
						"failsafe_unlock()": "26785",
						"get_ownerAddress()": "2343",
						"get_ownerSuccessorAddress()": "2413",
						"onERC1155BatchReceived(address,address,uint256[],uint256[],bytes)": "infinite",
						"onERC1155Received(address,address,uint256,uint256,bytes)": "infinite",
						"onERC721Received(address,address,uint256,bytes)": "infinite",
						"query_isLocked()": "2377",
						"query_isOwnerAddress(address)": "2630",
						"query_isOwnerSuccessorAddress(address)": "2677",
						"supportsInterface(bytes4)": "692",
						"tokensReceived(address,address,address,uint256,bytes,bytes)": "infinite",
						"tokensToSend(address,address,address,uint256,bytes,bytes)": "infinite",
						"withdraw_coins(uint256)": "infinite",
						"withdraw_erc1155Tokens(address,uint256,uint256,bytes)": "infinite",
						"withdraw_erc20Tokens(address,uint256)": "infinite",
						"withdraw_erc721Tokens(address,uint256)": "infinite",
						"withdraw_erc777Tokens(address,uint256,bytes)": "infinite"
					},
					"internal": {
						"_getAsciiOffset(uint8,bool)": "infinite",
						"_toAsciiString(bytes20)": "infinite",
						"_toChecksumCapsFlags(address)": "infinite",
						"_toChecksumString(address)": "infinite",
						"addressToString(address)": "infinite",
						"claimOwnerRole(address)": "30112",
						"getChecksum(address)": "infinite",
						"getOwnerAddress()": "infinite",
						"getOwnerSuccessorAddress()": "infinite",
						"isLocked()": "infinite",
						"isOwnerAddress(address)": "2200",
						"isOwnerSuccessorAddress(address)": "2203",
						"lock()": "26444",
						"offerOwnerRole(address)": "infinite",
						"punish()": "infinite",
						"requireOwnerAddress(address)": "infinite",
						"requireOwnerSuccessorAddress(address)": "infinite",
						"setLocked(bool)": "24274",
						"setOwnerAddress(address)": "30083",
						"setOwnerSuccessorAddress(address)": "infinite",
						"uint256ToString(uint256)": "infinite",
						"unlock()": "infinite",
						"withdrawCoins(address,uint256)": "infinite",
						"withdrawERC1155Tokens(address,uint256,address,uint256,bytes memory)": "infinite",
						"withdrawERC20Tokens(address,address,uint256)": "infinite",
						"withdrawERC721Tokens(address,uint256,address)": "infinite",
						"withdrawERC777Tokens(address,address,uint256,bytes memory)": "infinite"
					}
				},
				"methodIdentifiers": {
					"action_claimOwnerRole()": "41931a2f",
					"action_offerOwnerRole(address)": "dbd3cfcd",
					"canImplementInterfaceForAddress(bytes32,address)": "249cb3fa",
					"donate()": "ed88c68e",
					"failsafe_unlock()": "b4d9b973",
					"get_ownerAddress()": "91372456",
					"get_ownerSuccessorAddress()": "d319aa30",
					"onERC1155BatchReceived(address,address,uint256[],uint256[],bytes)": "bc197c81",
					"onERC1155Received(address,address,uint256,uint256,bytes)": "f23a6e61",
					"onERC721Received(address,address,uint256,bytes)": "150b7a02",
					"query_isLocked()": "4f61b3ae",
					"query_isOwnerAddress(address)": "9cd6e666",
					"query_isOwnerSuccessorAddress(address)": "503d7fe4",
					"supportsInterface(bytes4)": "01ffc9a7",
					"tokensReceived(address,address,address,uint256,bytes,bytes)": "0023de29",
					"tokensToSend(address,address,address,uint256,bytes,bytes)": "75ab9782",
					"withdraw_coins(uint256)": "2e66ccf5",
					"withdraw_erc1155Tokens(address,uint256,uint256,bytes)": "f5da96dc",
					"withdraw_erc20Tokens(address,uint256)": "2aa4ada0",
					"withdraw_erc721Tokens(address,uint256)": "b76a10ca",
					"withdraw_erc777Tokens(address,uint256,bytes)": "b2828496"
				}
			},
			"storageLayout": {
				"storage": [
					{
						"astId": 687,
						"contract": "contracts/standard_contract.sol:StandardContract",
						"label": "ownerAddress",
						"offset": 0,
						"slot": "0",
						"type": "t_address"
					},
					{
						"astId": 689,
						"contract": "contracts/standard_contract.sol:StandardContract",
						"label": "ownerSuccessorAddress",
						"offset": 0,
						"slot": "1",
						"type": "t_address"
					},
					{
						"astId": 691,
						"contract": "contracts/standard_contract.sol:StandardContract",
						"label": "lockFlag",
						"offset": 20,
						"slot": "1",
						"type": "t_bool"
					}
				],
				"types": {
					"t_address": {
						"encoding": "inplace",
						"label": "address",
						"numberOfBytes": "20"
					},
					"t_bool": {
						"encoding": "inplace",
						"label": "bool",
						"numberOfBytes": "1"
					}
				}
			},
			"userdoc": {
				"errors": {
					"NotOwnerError(address,address)": [
						{
							"notice": "The calling address is not the owner."
						}
					],
					"NotOwnerSuccessorError(address,address)": [
						{
							"notice": "The calling address is not the owner successor."
						}
					]
				},
				"events": {
					"OwnerChanged(address,address)": {
						"notice": "A record of the owner address changing."
					}
				},
				"kind": "user",
				"methods": {
					"action_claimOwnerRole()": {
						"notice": "The owner successor can claim the owner role."
					},
					"action_offerOwnerRole(address)": {
						"notice": "The owner can offer the owner role to a successor address."
					},
					"donate()": {
						"notice": "Anyone can call this to donate funds to the contract."
					},
					"failsafe_unlock()": {
						"notice": "The owner can unlock the contract."
					},
					"get_ownerAddress()": {
						"notice": "Returns the owner address."
					},
					"get_ownerSuccessorAddress()": {
						"notice": "Returns the owner successor address."
					},
					"query_isLocked()": {
						"notice": "Returns whether the contract is currently locked."
					},
					"query_isOwnerAddress(address)": {
						"notice": "Returns whether the address is the owner address."
					},
					"query_isOwnerSuccessorAddress(address)": {
						"notice": "Returns whether the address is the owner successor address."
					},
					"withdraw_coins(uint256)": {
						"notice": "The owner can withdraw any amount of coins."
					},
					"withdraw_erc1155Tokens(address,uint256,uint256,bytes)": {
						"notice": "The owner can withdraw any amount of one kind of ERC1155 token."
					},
					"withdraw_erc20Tokens(address,uint256)": {
						"notice": "The owner can withdraw any amount of one kind of ERC20 token."
					},
					"withdraw_erc721Tokens(address,uint256)": {
						"notice": "The owner can withdraw an ERC721 token."
					},
					"withdraw_erc777Tokens(address,uint256,bytes)": {
						"notice": "The owner can withdraw any amount of one kind of ERC777 token."
					}
				},
				"version": 1
			}
		}
	}
}