{
	"contracts/standard_contract.sol": {
		"StandardContract": {
			"abi": [
				{
					"inputs": [],
					"stateMutability": "payable",
					"type": "constructor"
				},
				{
					"inputs": [
						{
							"internalType": "address",
							"name": "_address",
							"type": "address"
						},
						{
							"internalType": "address",
							"name": "ownerAddress",
							"type": "address"
						}
					],
					"name": "NotOwnerError",
					"type": "error"
				},
				{
					"inputs": [
						{
							"internalType": "address",
							"name": "_address",
							"type": "address"
						},
						{
							"internalType": "address",
							"name": "ownerSuccessorAddress",
							"type": "address"
						}
					],
					"name": "NotOwnerSuccessorError",
					"type": "error"
				},
				{
					"anonymous": false,
					"inputs": [
						{
							"indexed": true,
							"internalType": "address",
							"name": "oldOwnerAddress",
							"type": "address"
						},
						{
							"indexed": true,
							"internalType": "address",
							"name": "newOwnerAddress",
							"type": "address"
						}
					],
					"name": "OwnerChanged",
					"type": "event"
				},
				{
					"inputs": [],
					"name": "action_claimOwnerRole",
					"outputs": [],
					"stateMutability": "nonpayable",
					"type": "function"
				},
				{
					"inputs": [
						{
							"internalType": "address",
							"name": "_address",
							"type": "address"
						}
					],
					"name": "action_offerOwnerRole",
					"outputs": [],
					"stateMutability": "nonpayable",
					"type": "function"
				},
				{
					"inputs": [
						{
							"internalType": "bytes32",
							"name": "interfaceHash",
							"type": "bytes32"
						},
						{
							"internalType": "address",
							"name": "account",
							"type": "address"
						}
					],
					"name": "canImplementInterfaceForAddress",
					"outputs": [
						{
							"internalType": "bytes32",
							"name": "",
							"type": "bytes32"
						}
					],
					"stateMutability": "view",
					"type": "function"
				},
				{
					"inputs": [],
					"name": "donate",
					"outputs": [],
					"stateMutability": "payable",
					"type": "function"
				},
				{
					"inputs": [],
					"name": "failsafe_unlock",
					"outputs": [],
					"stateMutability": "nonpayable",
					"type": "function"
				},
				{
					"inputs": [],
					"name": "get_ownerAddress",
					"outputs": [
						{
							"internalType": "address",
							"name": "",
							"type": "address"
						}
					],
					"stateMutability": "view",
					"type": "function"
				},
				{
					"inputs": [],
					"name": "get_ownerSuccessorAddress",
					"outputs": [
						{
							"internalType": "address",
							"name": "",
							"type": "address"
						}
					],
					"stateMutability": "view",
					"type": "function"
				},
				{
					"inputs": [
						{
							"internalType": "address",
							"name": "",
							"type": "address"
						},
						{
							"internalType": "address",
							"name": "",
							"type": "address"
						},
						{
							"internalType": "uint256[]",
							"name": "",
							"type": "uint256[]"
						},
						{
							"internalType": "uint256[]",
							"name": "",
							"type": "uint256[]"
						},
						{
							"internalType": "bytes",
							"name": "",
							"type": "bytes"
						}
					],
					"name": "onERC1155BatchReceived",
					"outputs": [
						{
							"internalType": "bytes4",
							"name": "",
							"type": "bytes4"
						}
					],
					"stateMutability": "pure",
					"type": "function"
				},
				{
					"inputs": [
						{
							"internalType": "address",
							"name": "",
							"type": "address"
						},
						{
							"internalType": "address",
							"name": "",
							"type": "address"
						},
						{
							"internalType": "uint256",
							"name": "",
							"type": "uint256"
						},
						{
							"internalType": "uint256",
							"name": "",
							"type": "uint256"
						},
						{
							"internalType": "bytes",
							"name": "",
							"type": "bytes"
						}
					],
					"name": "onERC1155Received",
					"outputs": [
						{
							"internalType": "bytes4",
							"name": "",
							"type": "bytes4"
						}
					],
					"stateMutability": "pure",
					"type": "function"
				},
				{
					"inputs": [
						{
							"internalType": "address",
							"name": "",
							"type": "address"
						},
						{
							"internalType": "address",
							"name": "",
							"type": "address"
						},
						{
							"internalType": "uint256",
							"name": "",
							"type": "uint256"
						},
						{
							"internalType": "bytes",
							"name": "",
							"type": "bytes"
						}
					],
					"name": "onERC721Received",
					"outputs": [
						{
							"internalType": "bytes4",
							"name": "",
							"type": "bytes4"
						}
					],
					"stateMutability": "nonpayable",
					"type": "function"
				},
				{
					"inputs": [],
					"name": "query_isLocked",
					"outputs": [
						{
							"internalType": "bool",
							"name": "",
							"type": "bool"
						}
					],
					"stateMutability": "view",
					"type": "function"
				},
				{
					"inputs": [
						{
							"internalType": "address",
							"name": "_address",
							"type": "address"
						}
					],
					"name": "query_isOwnerAddress",
					"outputs": [
						{
							"internalType": "bool",
							"name": "",
							"type": "bool"
						}
					],
					"stateMutability": "view",
					"type": "function"
				},
				{
					"inputs": [
						{
							"internalType": "address",
							"name": "_address",
							"type": "address"
						}
					],
					"name": "query_isOwnerSuccessorAddress",
					"outputs": [
						{
							"internalType": "bool",
							"name": "",
							"type": "bool"
						}
					],
					"stateMutability": "view",
					"type": "function"
				},
				{
					"inputs": [
						{
							"internalType": "bytes4",
							"name": "interfaceId",
							"type": "bytes4"
						}
					],
					"name": "supportsInterface",
					"outputs": [
						{
							"internalType": "bool",
							"name": "",
							"type": "bool"
						}
					],
					"stateMutability": "view",
					"type": "function"
				},
				{
					"inputs": [
						{
							"internalType": "address",
							"name": "operator",
							"type": "address"
						},
						{
							"internalType": "address",
							"name": "from",
							"type": "address"
						},
						{
							"internalType": "address",
							"name": "to",
							"type": "address"
						},
						{
							"internalType": "uint256",
							"name": "amount",
							"type": "uint256"
						},
						{
							"internalType": "bytes",
							"name": "userData",
							"type": "bytes"
						},
						{
							"internalType": "bytes",
							"name": "operatorData",
							"type": "bytes"
						}
					],
					"name": "tokensReceived",
					"outputs": [],
					"stateMutability": "nonpayable",
					"type": "function"
				},
				{
					"inputs": [
						{
							"internalType": "address",
							"name": "operator",
							"type": "address"
						},
						{
							"internalType": "address",
							"name": "from",
							"type": "address"
						},
						{
							"internalType": "address",
							"name": "to",
							"type": "address"
						},
						{
							"internalType": "uint256",
							"name": "amount",
							"type": "uint256"
						},
						{
							"internalType": "bytes",
							"name": "userData",
							"type": "bytes"
						},
						{
							"internalType": "bytes",
							"name": "operatorData",
							"type": "bytes"
						}
					],
					"name": "tokensToSend",
					"outputs": [],
					"stateMutability": "nonpayable",
					"type": "function"
				},
				{
					"inputs": [
						{
							"internalType": "uint256",
							"name": "_value",
							"type": "uint256"
						}
					],
					"name": "withdraw_coins",
					"outputs": [],
					"stateMutability": "nonpayable",
					"type": "function"
				},
				{
					"inputs": [
						{
							"internalType": "address",
							"name": "_tokenAddress",
							"type": "address"
						},
						{
							"internalType": "uint256",
							"name": "_id",
							"type": "uint256"
						},
						{
							"internalType": "uint256",
							"name": "_value",
							"type": "uint256"
						},
						{
							"internalType": "bytes",
							"name": "_data",
							"type": "bytes"
						}
					],
					"name": "withdraw_erc1155Tokens",
					"outputs": [],
					"stateMutability": "nonpayable",
					"type": "function"
				},
				{
					"inputs": [
						{
							"internalType": "address",
							"name": "_tokenAddress",
							"type": "address"
						},
						{
							"internalType": "uint256",
							"name": "_value",
							"type": "uint256"
						}
					],
					"name": "withdraw_erc20Tokens",
					"outputs": [],
					"stateMutability": "nonpayable",
					"type": "function"
				},
				{
					"inputs": [
						{
							"internalType": "address",
							"name": "_tokenAddress",
							"type": "address"
						},
						{
							"internalType": "uint256",
							"name": "_id",
							"type": "uint256"
						}
					],
					"name": "withdraw_erc721Tokens",
					"outputs": [],
					"stateMutability": "nonpayable",
					"type": "function"
				},
				{
					"inputs": [
						{
							"internalType": "address",
							"name": "_tokenAddress",
							"type": "address"
						},
						{
							"internalType": "uint256",
							"name": "_value",
							"type": "uint256"
						},
						{
							"internalType": "bytes",
							"name": "_data",
							"type": "bytes"
						}
					],
					"name": "withdraw_erc777Tokens",
					"outputs": [],
					"stateMutability": "nonpayable",
					"type": "function"
				}
			],
			"devdoc": {
				"kind": "dev",
				"methods": {
					"action_offerOwnerRole(address)": {
						"params": {
							"_address": "The owner successor address."
						}
					},
					"get_ownerAddress()": {
						"returns": {
							"_0": "The owner address."
						}
					},
					"get_ownerSuccessorAddress()": {
						"returns": {
							"_0": "The owner successor address."
						}
					},
					"query_isLocked()": {
						"returns": {
							"_0": "Whether the contract is currently locked."
						}
					},
					"query_isOwnerAddress(address)": {
						"params": {
							"_address": "The address that we are checking."
						},
						"returns": {
							"_0": "Whether the address is the owner address."
						}
					},
					"query_isOwnerSuccessorAddress(address)": {
						"params": {
							"_address": "The address that we are checking."
						},
						"returns": {
							"_0": "Whether the address is the owner successor address."
						}
					},
					"withdraw_coins(uint256)": {
						"params": {
							"_value": "The amount of coins to withdraw."
						}
					},
					"withdraw_erc1155Tokens(address,uint256,uint256,bytes)": {
						"params": {
							"_data": "Additional data with no specified format.",
							"_id": "The ID of the ERC1155 token.",
							"_tokenAddress": "The address where the ERC1155 token's contract lives.",
							"_value": "The amount of ERC1155 tokens to withdraw."
						}
					},
					"withdraw_erc20Tokens(address,uint256)": {
						"params": {
							"_tokenAddress": "The address where the ERC20 token's contract lives.",
							"_value": "The amount of ERC20 tokens to withdraw."
						}
					},
					"withdraw_erc721Tokens(address,uint256)": {
						"params": {
							"_id": "The ID of the ERC721 token.",
							"_tokenAddress": "The address where the ERC721 token's contract lives."
						}
					},
					"withdraw_erc777Tokens(address,uint256,bytes)": {
						"params": {
							"_data": "Additional data with no specified format.",
							"_tokenAddress": "The address where the ERC777 token's contract lives.",
							"_value": "The amount of ERC777 tokens to withdraw."
						}
					}
				},
				"version": 1
			},
			"evm": {
				"assembly": "    /* \"contracts/standard_contract.sol\":9060:29058  contract StandardContract is IERC721Receiver, IERC777Recipient, IERC777Sender, IERC1155Receiver, IERC1820Implementer {... */\n  mstore(0x40, 0x80)\n    /* \"contracts/standard_contract.sol\":9869:9911  0x1820a4B7618BdE71Dce8cdc73aAB6C95905faD24 */\n  0x1820a4b7618bde71dce8cdc73aab6c95905fad24\n    /* \"contracts/standard_contract.sol\":10598:10639  _ERC1820_REGISTRY.setInterfaceImplementer */\n  0xffffffffffffffffffffffffffffffffffffffff\n  and\n  0x29965a1d\n    /* \"contracts/standard_contract.sol\":10648:10652  this */\n  address\n    /* \"contracts/standard_contract.sol\":10072:10106  keccak256(\"ERC777TokensRecipient\") */\n  0xb281fc8c12954d22544db45de3159a39272895b169a852b314f9cc762e44c53b\n    /* \"contracts/standard_contract.sol\":10697:10701  this */\n  address\n    /* \"contracts/standard_contract.sol\":10598:10703  _ERC1820_REGISTRY.setInterfaceImplementer(address(this), _TOKENS_RECIPIENT_INTERFACE_HASH, address(this)) */\n  mload(0x40)\n  dup5\n  0xffffffff\n  and\n  0xe0\n  shl\n  dup2\n  mstore\n  0x04\n  add\n  tag_3\n  swap4\n  swap3\n  swap2\n  swap1\n  tag_4\n  jump\t// in\ntag_3:\n  0x00\n  mload(0x40)\n  dup1\n  dup4\n  sub\n  dup2\n  0x00\n  dup8\n  dup1\n  extcodesize\n  iszero\n  dup1\n  iszero\n  tag_5\n  jumpi\n  0x00\n  dup1\n  revert\ntag_5:\n  pop\n  gas\n  call\n  iszero\n  dup1\n  iszero\n  tag_7\n  jumpi\n  returndatasize\n  0x00\n  dup1\n  returndatacopy\n  revert(0x00, returndatasize)\ntag_7:\n  pop\n  pop\n  pop\n  pop\n    /* \"contracts/standard_contract.sol\":9869:9911  0x1820a4B7618BdE71Dce8cdc73aAB6C95905faD24 */\n  0x1820a4b7618bde71dce8cdc73aab6c95905fad24\n    /* \"contracts/standard_contract.sol\":10714:10755  _ERC1820_REGISTRY.setInterfaceImplementer */\n  0xffffffffffffffffffffffffffffffffffffffff\n  and\n  0x29965a1d\n    /* \"contracts/standard_contract.sol\":10764:10768  this */\n  address\n    /* \"contracts/standard_contract.sol\":10171:10202  keccak256(\"ERC777TokensSender\") */\n  0x29ddb589b1fb5fc7cf394961c1adf5f8c6454761adf795e67fe149f658abe895\n    /* \"contracts/standard_contract.sol\":10810:10814  this */\n  address\n    /* \"contracts/standard_contract.sol\":10714:10816  _ERC1820_REGISTRY.setInterfaceImplementer(address(this), _TOKENS_SENDER_INTERFACE_HASH, address(this)) */\n  mload(0x40)\n  dup5\n  0xffffffff\n  and\n  0xe0\n  shl\n  dup2\n  mstore\n  0x04\n  add\n  tag_8\n  swap4\n  swap3\n  swap2\n  swap1\n  tag_4\n  jump\t// in\ntag_8:\n  0x00\n  mload(0x40)\n  dup1\n  dup4\n  sub\n  dup2\n  0x00\n  dup8\n  dup1\n  extcodesize\n  iszero\n  dup1\n  iszero\n  tag_9\n  jumpi\n  0x00\n  dup1\n  revert\ntag_9:\n  pop\n  gas\n  call\n  iszero\n  dup1\n  iszero\n  tag_11\n  jumpi\n  returndatasize\n  0x00\n  dup1\n  returndatacopy\n  revert(0x00, returndatasize)\ntag_11:\n  pop\n  pop\n  pop\n  pop\n    /* \"contracts/standard_contract.sol\":10829:10856  setOwnerAddress(msg.sender) */\n  tag_12\n    /* \"contracts/standard_contract.sol\":10845:10855  msg.sender */\n  caller\n    /* \"contracts/standard_contract.sol\":10829:10844  setOwnerAddress */\n  shl(0x20, tag_13)\n    /* \"contracts/standard_contract.sol\":10829:10856  setOwnerAddress(msg.sender) */\n  0x20\n  shr\n  jump\t// in\ntag_12:\n    /* \"contracts/standard_contract.sol\":10867:10903  setOwnerSuccessorAddress(msg.sender) */\n  tag_14\n    /* \"contracts/standard_contract.sol\":10892:10902  msg.sender */\n  caller\n    /* \"contracts/standard_contract.sol\":10867:10891  setOwnerSuccessorAddress */\n  shl(0x20, tag_15)\n    /* \"contracts/standard_contract.sol\":10867:10903  setOwnerSuccessorAddress(msg.sender) */\n  0x20\n  shr\n  jump\t// in\ntag_14:\n    /* \"contracts/standard_contract.sol\":9060:29058  contract StandardContract is IERC721Receiver, IERC777Recipient, IERC777Sender, IERC1155Receiver, IERC1820Implementer {... */\n  jump(tag_16)\n    /* \"contracts/standard_contract.sol\":17797:18002  function setOwnerAddress(address _address) internal {... */\ntag_13:\n    /* \"contracts/standard_contract.sol\":17875:17887  ownerAddress */\n  0x00\n  dup1\n  sload\n  swap1\n  0x0100\n  exp\n  swap1\n  div\n  0xffffffffffffffffffffffffffffffffffffffff\n  and\n    /* \"contracts/standard_contract.sol\":17863:17887  _address != ownerAddress */\n  0xffffffffffffffffffffffffffffffffffffffff\n  and\n    /* \"contracts/standard_contract.sol\":17863:17871  _address */\n  dup2\n    /* \"contracts/standard_contract.sol\":17863:17887  _address != ownerAddress */\n  0xffffffffffffffffffffffffffffffffffffffff\n  and\n  eq\n    /* \"contracts/standard_contract.sol\":17860:17995  if(_address != ownerAddress) {... */\n  tag_18\n  jumpi\n    /* \"contracts/standard_contract.sol\":17936:17944  _address */\n  dup1\n    /* \"contracts/standard_contract.sol\":17909:17945  OwnerChanged(ownerAddress, _address) */\n  0xffffffffffffffffffffffffffffffffffffffff\n  and\n    /* \"contracts/standard_contract.sol\":17922:17934  ownerAddress */\n  0x00\n  dup1\n  sload\n  swap1\n  0x0100\n  exp\n  swap1\n  div\n  0xffffffffffffffffffffffffffffffffffffffff\n  and\n    /* \"contracts/standard_contract.sol\":17909:17945  OwnerChanged(ownerAddress, _address) */\n  0xffffffffffffffffffffffffffffffffffffffff\n  and\n  0xb532073b38c83145e3e5135377a08bf9aab55bc0fd7c1179cd4fb995d2a5159c\n  mload(0x40)\n  mload(0x40)\n  dup1\n  swap2\n  sub\n  swap1\n  log3\n    /* \"contracts/standard_contract.sol\":17975:17983  _address */\n  dup1\n    /* \"contracts/standard_contract.sol\":17960:17972  ownerAddress */\n  0x00\n  dup1\n    /* \"contracts/standard_contract.sol\":17960:17983  ownerAddress = _address */\n  0x0100\n  exp\n  dup2\n  sload\n  dup2\n  0xffffffffffffffffffffffffffffffffffffffff\n  mul\n  not\n  and\n  swap1\n  dup4\n  0xffffffffffffffffffffffffffffffffffffffff\n  and\n  mul\n  or\n  swap1\n  sstore\n  pop\n    /* \"contracts/standard_contract.sol\":17860:17995  if(_address != ownerAddress) {... */\ntag_18:\n    /* \"contracts/standard_contract.sol\":17797:18002  function setOwnerAddress(address _address) internal {... */\n  pop\n  jump\t// out\n    /* \"contracts/standard_contract.sol\":18010:18122  function setOwnerSuccessorAddress(address _address) internal {... */\ntag_15:\n    /* \"contracts/standard_contract.sol\":18106:18114  _address */\n  dup1\n    /* \"contracts/standard_contract.sol\":18082:18103  ownerSuccessorAddress */\n  0x01\n  0x00\n    /* \"contracts/standard_contract.sol\":18082:18114  ownerSuccessorAddress = _address */\n  0x0100\n  exp\n  dup2\n  sload\n  dup2\n  0xffffffffffffffffffffffffffffffffffffffff\n  mul\n  not\n  and\n  swap1\n  dup4\n  0xffffffffffffffffffffffffffffffffffffffff\n  and\n  mul\n  or\n  swap1\n  sstore\n  pop\n    /* \"contracts/standard_contract.sol\":18010:18122  function setOwnerSuccessorAddress(address _address) internal {... */\n  pop\n  jump\t// out\n    /* \"#utility.yul\":7:133   */\ntag_20:\n    /* \"#utility.yul\":44:51   */\n  0x00\n    /* \"#utility.yul\":84:126   */\n  0xffffffffffffffffffffffffffffffffffffffff\n    /* \"#utility.yul\":77:82   */\n  dup3\n    /* \"#utility.yul\":73:127   */\n  and\n    /* \"#utility.yul\":62:127   */\n  swap1\n  pop\n    /* \"#utility.yul\":7:133   */\n  swap2\n  swap1\n  pop\n  jump\t// out\n    /* \"#utility.yul\":139:235   */\ntag_21:\n    /* \"#utility.yul\":176:183   */\n  0x00\n    /* \"#utility.yul\":205:229   */\n  tag_28\n    /* \"#utility.yul\":223:228   */\n  dup3\n    /* \"#utility.yul\":205:229   */\n  tag_20\n  jump\t// in\ntag_28:\n    /* \"#utility.yul\":194:229   */\n  swap1\n  pop\n    /* \"#utility.yul\":139:235   */\n  swap2\n  swap1\n  pop\n  jump\t// out\n    /* \"#utility.yul\":241:359   */\ntag_22:\n    /* \"#utility.yul\":328:352   */\n  tag_30\n    /* \"#utility.yul\":346:351   */\n  dup2\n    /* \"#utility.yul\":328:352   */\n  tag_21\n  jump\t// in\ntag_30:\n    /* \"#utility.yul\":323:326   */\n  dup3\n    /* \"#utility.yul\":316:353   */\n  mstore\n    /* \"#utility.yul\":241:359   */\n  pop\n  pop\n  jump\t// out\n    /* \"#utility.yul\":365:442   */\ntag_23:\n    /* \"#utility.yul\":402:409   */\n  0x00\n    /* \"#utility.yul\":431:436   */\n  dup2\n    /* \"#utility.yul\":420:436   */\n  swap1\n  pop\n    /* \"#utility.yul\":365:442   */\n  swap2\n  swap1\n  pop\n  jump\t// out\n    /* \"#utility.yul\":448:566   */\ntag_24:\n    /* \"#utility.yul\":535:559   */\n  tag_33\n    /* \"#utility.yul\":553:558   */\n  dup2\n    /* \"#utility.yul\":535:559   */\n  tag_23\n  jump\t// in\ntag_33:\n    /* \"#utility.yul\":530:533   */\n  dup3\n    /* \"#utility.yul\":523:560   */\n  mstore\n    /* \"#utility.yul\":448:566   */\n  pop\n  pop\n  jump\t// out\n    /* \"#utility.yul\":572:1014   */\ntag_4:\n    /* \"#utility.yul\":721:725   */\n  0x00\n    /* \"#utility.yul\":759:761   */\n  0x60\n    /* \"#utility.yul\":748:757   */\n  dup3\n    /* \"#utility.yul\":744:762   */\n  add\n    /* \"#utility.yul\":736:762   */\n  swap1\n  pop\n    /* \"#utility.yul\":772:843   */\n  tag_35\n    /* \"#utility.yul\":840:841   */\n  0x00\n    /* \"#utility.yul\":829:838   */\n  dup4\n    /* \"#utility.yul\":825:842   */\n  add\n    /* \"#utility.yul\":816:822   */\n  dup7\n    /* \"#utility.yul\":772:843   */\n  tag_22\n  jump\t// in\ntag_35:\n    /* \"#utility.yul\":853:925   */\n  tag_36\n    /* \"#utility.yul\":921:923   */\n  0x20\n    /* \"#utility.yul\":910:919   */\n  dup4\n    /* \"#utility.yul\":906:924   */\n  add\n    /* \"#utility.yul\":897:903   */\n  dup6\n    /* \"#utility.yul\":853:925   */\n  tag_24\n  jump\t// in\ntag_36:\n    /* \"#utility.yul\":935:1007   */\n  tag_37\n    /* \"#utility.yul\":1003:1005   */\n  0x40\n    /* \"#utility.yul\":992:1001   */\n  dup4\n    /* \"#utility.yul\":988:1006   */\n  add\n    /* \"#utility.yul\":979:985   */\n  dup5\n    /* \"#utility.yul\":935:1007   */\n  tag_22\n  jump\t// in\ntag_37:\n    /* \"#utility.yul\":572:1014   */\n  swap5\n  swap4\n  pop\n  pop\n  pop\n  pop\n  jump\t// out\n    /* \"contracts/standard_contract.sol\":9060:29058  contract StandardContract is IERC721Receiver, IERC777Recipient, IERC777Sender, IERC1155Receiver, IERC1820Implementer {... */\ntag_16:\n  dataSize(sub_0)\n  dup1\n  dataOffset(sub_0)\n  0x00\n  codecopy\n  0x00\n  return\nstop\n\nsub_0: assembly {\n        /* \"contracts/standard_contract.sol\":9060:29058  contract StandardContract is IERC721Receiver, IERC777Recipient, IERC777Sender, IERC1155Receiver, IERC1820Implementer {... */\n      mstore(0x40, 0x80)\n      jumpi(tag_1, lt(calldatasize, 0x04))\n      shr(0xe0, calldataload(0x00))\n      dup1\n      0x91372456\n      gt\n      tag_23\n      jumpi\n      dup1\n      0xbc197c81\n      gt\n      tag_24\n      jumpi\n      dup1\n      0xbc197c81\n      eq\n      tag_17\n      jumpi\n      dup1\n      0xd319aa30\n      eq\n      tag_18\n      jumpi\n      dup1\n      0xdbd3cfcd\n      eq\n      tag_19\n      jumpi\n      dup1\n      0xed88c68e\n      eq\n      tag_20\n      jumpi\n      dup1\n      0xf23a6e61\n      eq\n      tag_21\n      jumpi\n      dup1\n      0xf5da96dc\n      eq\n      tag_22\n      jumpi\n      jump(tag_1)\n    tag_24:\n      dup1\n      0x91372456\n      eq\n      tag_12\n      jumpi\n      dup1\n      0x9cd6e666\n      eq\n      tag_13\n      jumpi\n      dup1\n      0xb2828496\n      eq\n      tag_14\n      jumpi\n      dup1\n      0xb4d9b973\n      eq\n      tag_15\n      jumpi\n      dup1\n      0xb76a10ca\n      eq\n      tag_16\n      jumpi\n      jump(tag_1)\n    tag_23:\n      dup1\n      0x2e66ccf5\n      gt\n      tag_25\n      jumpi\n      dup1\n      0x2e66ccf5\n      eq\n      tag_7\n      jumpi\n      dup1\n      0x41931a2f\n      eq\n      tag_8\n      jumpi\n      dup1\n      0x4f61b3ae\n      eq\n      tag_9\n      jumpi\n      dup1\n      0x503d7fe4\n      eq\n      tag_10\n      jumpi\n      dup1\n      0x75ab9782\n      eq\n      tag_11\n      jumpi\n      jump(tag_1)\n    tag_25:\n      dup1\n      0x23de29\n      eq\n      tag_2\n      jumpi\n      dup1\n      0x01ffc9a7\n      eq\n      tag_3\n      jumpi\n      dup1\n      0x150b7a02\n      eq\n      tag_4\n      jumpi\n      dup1\n      0x249cb3fa\n      eq\n      tag_5\n      jumpi\n      dup1\n      0x2aa4ada0\n      eq\n      tag_6\n      jumpi\n    tag_1:\n      0x00\n      dup1\n      revert\n        /* \"contracts/standard_contract.sol\":11738:11887  function tokensReceived(address operator, address from, address to, uint256 amount, bytes calldata userData, bytes calldata operatorData) external {} */\n    tag_2:\n      callvalue\n      dup1\n      iszero\n      tag_26\n      jumpi\n      0x00\n      dup1\n      revert\n    tag_26:\n      pop\n      tag_27\n      0x04\n      dup1\n      calldatasize\n      sub\n      dup2\n      add\n      swap1\n      tag_28\n      swap2\n      swap1\n      tag_29\n      jump\t// in\n    tag_28:\n      tag_30\n      jump\t// in\n    tag_27:\n      stop\n        /* \"contracts/standard_contract.sol\":11002:11488  function supportsInterface(bytes4 interfaceId) public view virtual override returns (bool) {... */\n    tag_3:\n      callvalue\n      dup1\n      iszero\n      tag_31\n      jumpi\n      0x00\n      dup1\n      revert\n    tag_31:\n      pop\n      tag_32\n      0x04\n      dup1\n      calldatasize\n      sub\n      dup2\n      add\n      swap1\n      tag_33\n      swap2\n      swap1\n      tag_34\n      jump\t// in\n    tag_33:\n      tag_35\n      jump\t// in\n    tag_32:\n      mload(0x40)\n      tag_36\n      swap2\n      swap1\n      tag_37\n      jump\t// in\n    tag_36:\n      mload(0x40)\n      dup1\n      swap2\n      sub\n      swap1\n      return\n        /* \"contracts/standard_contract.sol\":11535:11690  function onERC721Received(address, address, uint256, bytes memory) public virtual returns (bytes4) {... */\n    tag_4:\n      callvalue\n      dup1\n      iszero\n      tag_38\n      jumpi\n      0x00\n      dup1\n      revert\n    tag_38:\n      pop\n      tag_39\n      0x04\n      dup1\n      calldatasize\n      sub\n      dup2\n      add\n      swap1\n      tag_40\n      swap2\n      swap1\n      tag_41\n      jump\t// in\n    tag_40:\n      tag_42\n      jump\t// in\n    tag_39:\n      mload(0x40)\n      tag_43\n      swap2\n      swap1\n      tag_44\n      jump\t// in\n    tag_43:\n      mload(0x40)\n      dup1\n      swap2\n      sub\n      swap1\n      return\n        /* \"contracts/standard_contract.sol\":12544:12925  function canImplementInterfaceForAddress(bytes32 interfaceHash, address account) external view returns (bytes32) {... */\n    tag_5:\n      callvalue\n      dup1\n      iszero\n      tag_45\n      jumpi\n      0x00\n      dup1\n      revert\n    tag_45:\n      pop\n      tag_46\n      0x04\n      dup1\n      calldatasize\n      sub\n      dup2\n      add\n      swap1\n      tag_47\n      swap2\n      swap1\n      tag_48\n      jump\t// in\n    tag_47:\n      tag_49\n      jump\t// in\n    tag_46:\n      mload(0x40)\n      tag_50\n      swap2\n      swap1\n      tag_51\n      jump\t// in\n    tag_50:\n      mload(0x40)\n      dup1\n      swap2\n      sub\n      swap1\n      return\n        /* \"contracts/standard_contract.sol\":25406:25641  function withdraw_erc20Tokens(address _tokenAddress, uint256 _value) external {... */\n    tag_6:\n      callvalue\n      dup1\n      iszero\n      tag_52\n      jumpi\n      0x00\n      dup1\n      revert\n    tag_52:\n      pop\n      tag_53\n      0x04\n      dup1\n      calldatasize\n      sub\n      dup2\n      add\n      swap1\n      tag_54\n      swap2\n      swap1\n      tag_55\n      jump\t// in\n    tag_54:\n      tag_56\n      jump\t// in\n    tag_53:\n      stop\n        /* \"contracts/standard_contract.sol\":24989:25174  function withdraw_coins(uint256 _value) external {... */\n    tag_7:\n      callvalue\n      dup1\n      iszero\n      tag_57\n      jumpi\n      0x00\n      dup1\n      revert\n    tag_57:\n      pop\n      tag_58\n      0x04\n      dup1\n      calldatasize\n      sub\n      dup2\n      add\n      swap1\n      tag_59\n      swap2\n      swap1\n      tag_60\n      jump\t// in\n    tag_59:\n      tag_61\n      jump\t// in\n    tag_58:\n      stop\n        /* \"contracts/standard_contract.sol\":24315:24495  function action_claimOwnerRole() external {... */\n    tag_8:\n      callvalue\n      dup1\n      iszero\n      tag_62\n      jumpi\n      0x00\n      dup1\n      revert\n    tag_62:\n      pop\n      tag_63\n      tag_64\n      jump\t// in\n    tag_63:\n      stop\n        /* \"contracts/standard_contract.sol\":27443:27534  function query_isLocked() external view returns (bool) {... */\n    tag_9:\n      callvalue\n      dup1\n      iszero\n      tag_65\n      jumpi\n      0x00\n      dup1\n      revert\n    tag_65:\n      pop\n      tag_66\n      tag_67\n      jump\t// in\n    tag_66:\n      mload(0x40)\n      tag_68\n      swap2\n      swap1\n      tag_37\n      jump\t// in\n    tag_68:\n      mload(0x40)\n      dup1\n      swap2\n      sub\n      swap1\n      return\n        /* \"contracts/standard_contract.sol\":28067:28212  function query_isOwnerSuccessorAddress(address _address) external view returns (bool) {... */\n    tag_10:\n      callvalue\n      dup1\n      iszero\n      tag_69\n      jumpi\n      0x00\n      dup1\n      revert\n    tag_69:\n      pop\n      tag_70\n      0x04\n      dup1\n      calldatasize\n      sub\n      dup2\n      add\n      swap1\n      tag_71\n      swap2\n      swap1\n      tag_72\n      jump\t// in\n    tag_71:\n      tag_73\n      jump\t// in\n    tag_70:\n      mload(0x40)\n      tag_74\n      swap2\n      swap1\n      tag_37\n      jump\t// in\n    tag_74:\n      mload(0x40)\n      dup1\n      swap2\n      sub\n      swap1\n      return\n        /* \"contracts/standard_contract.sol\":11932:12079  function tokensToSend(address operator, address from, address to, uint256 amount, bytes calldata userData, bytes calldata operatorData) external {} */\n    tag_11:\n      callvalue\n      dup1\n      iszero\n      tag_75\n      jumpi\n      0x00\n      dup1\n      revert\n    tag_75:\n      pop\n      tag_76\n      0x04\n      dup1\n      calldatasize\n      sub\n      dup2\n      add\n      swap1\n      tag_77\n      swap2\n      swap1\n      tag_29\n      jump\t// in\n    tag_77:\n      tag_78\n      jump\t// in\n    tag_76:\n      stop\n        /* \"contracts/standard_contract.sol\":28341:28444  function get_ownerAddress() external view returns (address) {... */\n    tag_12:\n      callvalue\n      dup1\n      iszero\n      tag_79\n      jumpi\n      0x00\n      dup1\n      revert\n    tag_79:\n      pop\n      tag_80\n      tag_81\n      jump\t// in\n    tag_80:\n      mload(0x40)\n      tag_82\n      swap2\n      swap1\n      tag_83\n      jump\t// in\n    tag_82:\n      mload(0x40)\n      dup1\n      swap2\n      sub\n      swap1\n      return\n        /* \"contracts/standard_contract.sol\":27727:27854  function query_isOwnerAddress(address _address) external view returns (bool) {... */\n    tag_13:\n      callvalue\n      dup1\n      iszero\n      tag_84\n      jumpi\n      0x00\n      dup1\n      revert\n    tag_84:\n      pop\n      tag_85\n      0x04\n      dup1\n      calldatasize\n      sub\n      dup2\n      add\n      swap1\n      tag_86\n      swap2\n      swap1\n      tag_72\n      jump\t// in\n    tag_86:\n      tag_87\n      jump\t// in\n    tag_85:\n      mload(0x40)\n      tag_88\n      swap2\n      swap1\n      tag_37\n      jump\t// in\n    tag_88:\n      mload(0x40)\n      dup1\n      swap2\n      sub\n      swap1\n      return\n        /* \"contracts/standard_contract.sol\":26367:26631  function withdraw_erc777Tokens(address _tokenAddress, uint256 _value, bytes memory _data) external {... */\n    tag_14:\n      callvalue\n      dup1\n      iszero\n      tag_89\n      jumpi\n      0x00\n      dup1\n      revert\n    tag_89:\n      pop\n      tag_90\n      0x04\n      dup1\n      calldatasize\n      sub\n      dup2\n      add\n      swap1\n      tag_91\n      swap2\n      swap1\n      tag_92\n      jump\t// in\n    tag_91:\n      tag_93\n      jump\t// in\n    tag_90:\n      stop\n        /* \"contracts/standard_contract.sol\":28780:28895  function failsafe_unlock() external {... */\n    tag_15:\n      callvalue\n      dup1\n      iszero\n      tag_94\n      jumpi\n      0x00\n      dup1\n      revert\n    tag_94:\n      pop\n      tag_95\n      tag_96\n      jump\t// in\n    tag_95:\n      stop\n        /* \"contracts/standard_contract.sol\":25837:26068  function withdraw_erc721Tokens(address _tokenAddress, uint256 _id) external {... */\n    tag_16:\n      callvalue\n      dup1\n      iszero\n      tag_97\n      jumpi\n      0x00\n      dup1\n      revert\n    tag_97:\n      pop\n      tag_98\n      0x04\n      dup1\n      calldatasize\n      sub\n      dup2\n      add\n      swap1\n      tag_99\n      swap2\n      swap1\n      tag_55\n      jump\t// in\n    tag_99:\n      tag_100\n      jump\t// in\n    tag_98:\n      stop\n        /* \"contracts/standard_contract.sol\":12300:12493  function onERC1155BatchReceived(address, address, uint256[] memory, uint256[] memory, bytes memory) external pure returns (bytes4) {... */\n    tag_17:\n      callvalue\n      dup1\n      iszero\n      tag_101\n      jumpi\n      0x00\n      dup1\n      revert\n    tag_101:\n      pop\n      tag_102\n      0x04\n      dup1\n      calldatasize\n      sub\n      dup2\n      add\n      swap1\n      tag_103\n      swap2\n      swap1\n      tag_104\n      jump\t// in\n    tag_103:\n      tag_105\n      jump\t// in\n    tag_102:\n      mload(0x40)\n      tag_106\n      swap2\n      swap1\n      tag_44\n      jump\t// in\n    tag_106:\n      mload(0x40)\n      dup1\n      swap2\n      sub\n      swap1\n      return\n        /* \"contracts/standard_contract.sol\":28552:28673  function get_ownerSuccessorAddress() external view returns (address) {... */\n    tag_18:\n      callvalue\n      dup1\n      iszero\n      tag_107\n      jumpi\n      0x00\n      dup1\n      revert\n    tag_107:\n      pop\n      tag_108\n      tag_109\n      jump\t// in\n    tag_108:\n      mload(0x40)\n      tag_110\n      swap2\n      swap1\n      tag_83\n      jump\t// in\n    tag_110:\n      mload(0x40)\n      dup1\n      swap2\n      sub\n      swap1\n      return\n        /* \"contracts/standard_contract.sol\":24633:24818  function action_offerOwnerRole(address _address) external {... */\n    tag_19:\n      callvalue\n      dup1\n      iszero\n      tag_111\n      jumpi\n      0x00\n      dup1\n      revert\n    tag_111:\n      pop\n      tag_112\n      0x04\n      dup1\n      calldatasize\n      sub\n      dup2\n      add\n      swap1\n      tag_113\n      swap2\n      swap1\n      tag_72\n      jump\t// in\n    tag_113:\n      tag_114\n      jump\t// in\n    tag_112:\n      stop\n        /* \"contracts/standard_contract.sol\":29018:29055  function donate() external payable {} */\n    tag_20:\n      tag_115\n      tag_116\n      jump\t// in\n    tag_115:\n      stop\n        /* \"contracts/standard_contract.sol\":12127:12292  function onERC1155Received(address, address, uint256, uint256, bytes memory) external pure returns (bytes4) {... */\n    tag_21:\n      callvalue\n      dup1\n      iszero\n      tag_117\n      jumpi\n      0x00\n      dup1\n      revert\n    tag_117:\n      pop\n      tag_118\n      0x04\n      dup1\n      calldatasize\n      sub\n      dup2\n      add\n      swap1\n      tag_119\n      swap2\n      swap1\n      tag_120\n      jump\t// in\n    tag_119:\n      tag_121\n      jump\t// in\n    tag_118:\n      mload(0x40)\n      tag_122\n      swap2\n      swap1\n      tag_44\n      jump\t// in\n    tag_122:\n      mload(0x40)\n      dup1\n      swap2\n      sub\n      swap1\n      return\n        /* \"contracts/standard_contract.sol\":26982:27266  function withdraw_erc1155Tokens(address _tokenAddress, uint256 _id, uint256 _value, bytes memory _data) external {... */\n    tag_22:\n      callvalue\n      dup1\n      iszero\n      tag_123\n      jumpi\n      0x00\n      dup1\n      revert\n    tag_123:\n      pop\n      tag_124\n      0x04\n      dup1\n      calldatasize\n      sub\n      dup2\n      add\n      swap1\n      tag_125\n      swap2\n      swap1\n      tag_126\n      jump\t// in\n    tag_125:\n      tag_127\n      jump\t// in\n    tag_124:\n      stop\n        /* \"contracts/standard_contract.sol\":11738:11887  function tokensReceived(address operator, address from, address to, uint256 amount, bytes calldata userData, bytes calldata operatorData) external {} */\n    tag_30:\n      pop\n      pop\n      pop\n      pop\n      pop\n      pop\n      pop\n      pop\n      jump\t// out\n        /* \"contracts/standard_contract.sol\":11002:11488  function supportsInterface(bytes4 interfaceId) public view virtual override returns (bool) {... */\n    tag_35:\n        /* \"contracts/standard_contract.sol\":11087:11091  bool */\n      0x00\n        /* \"contracts/standard_contract.sol\":11126:11151  type(IERC165).interfaceId */\n      0x01ffc9a700000000000000000000000000000000000000000000000000000000\n        /* \"contracts/standard_contract.sol\":11111:11151  interfaceId == type(IERC165).interfaceId */\n      not(0xffffffffffffffffffffffffffffffffffffffffffffffffffffffff)\n      and\n        /* \"contracts/standard_contract.sol\":11111:11122  interfaceId */\n      dup3\n        /* \"contracts/standard_contract.sol\":11111:11151  interfaceId == type(IERC165).interfaceId */\n      not(0xffffffffffffffffffffffffffffffffffffffffffffffffffffffff)\n      and\n      eq\n        /* \"contracts/standard_contract.sol\":11111:11216  interfaceId == type(IERC165).interfaceId... */\n      dup1\n      tag_130\n      jumpi\n      pop\n        /* \"contracts/standard_contract.sol\":11183:11216  type(IERC721Receiver).interfaceId */\n      0x150b7a0200000000000000000000000000000000000000000000000000000000\n        /* \"contracts/standard_contract.sol\":11168:11216  interfaceId == type(IERC721Receiver).interfaceId */\n      not(0xffffffffffffffffffffffffffffffffffffffffffffffffffffffff)\n      and\n        /* \"contracts/standard_contract.sol\":11168:11179  interfaceId */\n      dup3\n        /* \"contracts/standard_contract.sol\":11168:11216  interfaceId == type(IERC721Receiver).interfaceId */\n      not(0xffffffffffffffffffffffffffffffffffffffffffffffffffffffff)\n      and\n      eq\n        /* \"contracts/standard_contract.sol\":11111:11216  interfaceId == type(IERC165).interfaceId... */\n    tag_130:\n        /* \"contracts/standard_contract.sol\":11111:11282  interfaceId == type(IERC165).interfaceId... */\n      dup1\n      tag_131\n      jumpi\n      pop\n        /* \"contracts/standard_contract.sol\":11248:11282  type(IERC777Recipient).interfaceId */\n      0x23de2900000000000000000000000000000000000000000000000000000000\n        /* \"contracts/standard_contract.sol\":11233:11282  interfaceId == type(IERC777Recipient).interfaceId */\n      not(0xffffffffffffffffffffffffffffffffffffffffffffffffffffffff)\n      and\n        /* \"contracts/standard_contract.sol\":11233:11244  interfaceId */\n      dup3\n        /* \"contracts/standard_contract.sol\":11233:11282  interfaceId == type(IERC777Recipient).interfaceId */\n      not(0xffffffffffffffffffffffffffffffffffffffffffffffffffffffff)\n      and\n      eq\n        /* \"contracts/standard_contract.sol\":11111:11282  interfaceId == type(IERC165).interfaceId... */\n    tag_131:\n        /* \"contracts/standard_contract.sol\":11111:11345  interfaceId == type(IERC165).interfaceId... */\n      dup1\n      tag_132\n      jumpi\n      pop\n        /* \"contracts/standard_contract.sol\":11314:11345  type(IERC777Sender).interfaceId */\n      0x75ab978200000000000000000000000000000000000000000000000000000000\n        /* \"contracts/standard_contract.sol\":11299:11345  interfaceId == type(IERC777Sender).interfaceId */\n      not(0xffffffffffffffffffffffffffffffffffffffffffffffffffffffff)\n      and\n        /* \"contracts/standard_contract.sol\":11299:11310  interfaceId */\n      dup3\n        /* \"contracts/standard_contract.sol\":11299:11345  interfaceId == type(IERC777Sender).interfaceId */\n      not(0xffffffffffffffffffffffffffffffffffffffffffffffffffffffff)\n      and\n      eq\n        /* \"contracts/standard_contract.sol\":11111:11345  interfaceId == type(IERC165).interfaceId... */\n    tag_132:\n        /* \"contracts/standard_contract.sol\":11111:11411  interfaceId == type(IERC165).interfaceId... */\n      dup1\n      tag_133\n      jumpi\n      pop\n        /* \"contracts/standard_contract.sol\":11377:11411  type(IERC1155Receiver).interfaceId */\n      0x4e2312e000000000000000000000000000000000000000000000000000000000\n        /* \"contracts/standard_contract.sol\":11362:11411  interfaceId == type(IERC1155Receiver).interfaceId */\n      not(0xffffffffffffffffffffffffffffffffffffffffffffffffffffffff)\n      and\n        /* \"contracts/standard_contract.sol\":11362:11373  interfaceId */\n      dup3\n        /* \"contracts/standard_contract.sol\":11362:11411  interfaceId == type(IERC1155Receiver).interfaceId */\n      not(0xffffffffffffffffffffffffffffffffffffffffffffffffffffffff)\n      and\n      eq\n        /* \"contracts/standard_contract.sol\":11111:11411  interfaceId == type(IERC165).interfaceId... */\n    tag_133:\n        /* \"contracts/standard_contract.sol\":11111:11480  interfaceId == type(IERC165).interfaceId... */\n      dup1\n      tag_134\n      jumpi\n      pop\n        /* \"contracts/standard_contract.sol\":11443:11480  type(IERC1820Implementer).interfaceId */\n      0x249cb3fa00000000000000000000000000000000000000000000000000000000\n        /* \"contracts/standard_contract.sol\":11428:11480  interfaceId == type(IERC1820Implementer).interfaceId */\n      not(0xffffffffffffffffffffffffffffffffffffffffffffffffffffffff)\n      and\n        /* \"contracts/standard_contract.sol\":11428:11439  interfaceId */\n      dup3\n        /* \"contracts/standard_contract.sol\":11428:11480  interfaceId == type(IERC1820Implementer).interfaceId */\n      not(0xffffffffffffffffffffffffffffffffffffffffffffffffffffffff)\n      and\n      eq\n        /* \"contracts/standard_contract.sol\":11111:11480  interfaceId == type(IERC165).interfaceId... */\n    tag_134:\n        /* \"contracts/standard_contract.sol\":11104:11480  return interfaceId == type(IERC165).interfaceId... */\n      swap1\n      pop\n        /* \"contracts/standard_contract.sol\":11002:11488  function supportsInterface(bytes4 interfaceId) public view virtual override returns (bool) {... */\n      swap2\n      swap1\n      pop\n      jump\t// out\n        /* \"contracts/standard_contract.sol\":11535:11690  function onERC721Received(address, address, uint256, bytes memory) public virtual returns (bytes4) {... */\n    tag_42:\n        /* \"contracts/standard_contract.sol\":11626:11632  bytes4 */\n      0x00\n        /* \"contracts/standard_contract.sol\":11652:11682  this.onERC721Received.selector */\n      shl(0xe0, 0x150b7a02)\n        /* \"contracts/standard_contract.sol\":11645:11682  return this.onERC721Received.selector */\n      swap1\n      pop\n        /* \"contracts/standard_contract.sol\":11535:11690  function onERC721Received(address, address, uint256, bytes memory) public virtual returns (bytes4) {... */\n      swap5\n      swap4\n      pop\n      pop\n      pop\n      pop\n      jump\t// out\n        /* \"contracts/standard_contract.sol\":12544:12925  function canImplementInterfaceForAddress(bytes32 interfaceHash, address account) external view returns (bytes32) {... */\n    tag_49:\n        /* \"contracts/standard_contract.sol\":12648:12655  bytes32 */\n      0x00\n        /* \"contracts/standard_contract.sol\":12690:12694  this */\n      address\n        /* \"contracts/standard_contract.sol\":12671:12695  account == address(this) */\n      0xffffffffffffffffffffffffffffffffffffffff\n      and\n        /* \"contracts/standard_contract.sol\":12671:12678  account */\n      dup3\n        /* \"contracts/standard_contract.sol\":12671:12695  account == address(this) */\n      0xffffffffffffffffffffffffffffffffffffffff\n      and\n      eq\n        /* \"contracts/standard_contract.sol\":12671:12800  account == address(this) && (interfaceHash == _TOKENS_RECIPIENT_INTERFACE_HASH || interfaceHash == _TOKENS_SENDER_INTERFACE_HASH) */\n      dup1\n      iszero\n      tag_137\n      jumpi\n      pop\n        /* \"contracts/standard_contract.sol\":10072:10106  keccak256(\"ERC777TokensRecipient\") */\n      0xb281fc8c12954d22544db45de3159a39272895b169a852b314f9cc762e44c53b\n        /* \"contracts/standard_contract.sol\":12700:12713  interfaceHash */\n      dup4\n        /* \"contracts/standard_contract.sol\":12700:12749  interfaceHash == _TOKENS_RECIPIENT_INTERFACE_HASH */\n      eq\n        /* \"contracts/standard_contract.sol\":12700:12799  interfaceHash == _TOKENS_RECIPIENT_INTERFACE_HASH || interfaceHash == _TOKENS_SENDER_INTERFACE_HASH */\n      dup1\n      tag_138\n      jumpi\n      pop\n        /* \"contracts/standard_contract.sol\":10171:10202  keccak256(\"ERC777TokensSender\") */\n      0x29ddb589b1fb5fc7cf394961c1adf5f8c6454761adf795e67fe149f658abe895\n        /* \"contracts/standard_contract.sol\":12753:12766  interfaceHash */\n      dup4\n        /* \"contracts/standard_contract.sol\":12753:12799  interfaceHash == _TOKENS_SENDER_INTERFACE_HASH */\n      eq\n        /* \"contracts/standard_contract.sol\":12700:12799  interfaceHash == _TOKENS_RECIPIENT_INTERFACE_HASH || interfaceHash == _TOKENS_SENDER_INTERFACE_HASH */\n    tag_138:\n        /* \"contracts/standard_contract.sol\":12671:12800  account == address(this) && (interfaceHash == _TOKENS_RECIPIENT_INTERFACE_HASH || interfaceHash == _TOKENS_SENDER_INTERFACE_HASH) */\n    tag_137:\n        /* \"contracts/standard_contract.sol\":12668:12918  if(account == address(this) && (interfaceHash == _TOKENS_RECIPIENT_INTERFACE_HASH || interfaceHash == _TOKENS_SENDER_INTERFACE_HASH)) {... */\n      iszero\n      tag_139\n      jumpi\n        /* \"contracts/standard_contract.sol\":9971:10004  keccak256(\"ERC1820_ACCEPT_MAGIC\") */\n      0xa2ef4600d742022d532d4747cb3547474667d6f13804902513b2ec01c848f4b4\n        /* \"contracts/standard_contract.sol\":12817:12845  return _ERC1820_ACCEPT_MAGIC */\n      swap1\n      pop\n      jump(tag_136)\n        /* \"contracts/standard_contract.sol\":12668:12918  if(account == address(this) && (interfaceHash == _TOKENS_RECIPIENT_INTERFACE_HASH || interfaceHash == _TOKENS_SENDER_INTERFACE_HASH)) {... */\n    tag_139:\n        /* \"contracts/standard_contract.sol\":12902:12905  0x0 */\n      0x00\n        /* \"contracts/standard_contract.sol\":12894:12906  bytes32(0x0) */\n      dup1\n      shl\n        /* \"contracts/standard_contract.sol\":12887:12906  return bytes32(0x0) */\n      swap1\n      pop\n        /* \"contracts/standard_contract.sol\":12544:12925  function canImplementInterfaceForAddress(bytes32 interfaceHash, address account) external view returns (bytes32) {... */\n    tag_136:\n      swap3\n      swap2\n      pop\n      pop\n      jump\t// out\n        /* \"contracts/standard_contract.sol\":25406:25641  function withdraw_erc20Tokens(address _tokenAddress, uint256 _value) external {... */\n    tag_56:\n        /* \"contracts/standard_contract.sol\":25495:25501  lock() */\n      tag_142\n        /* \"contracts/standard_contract.sol\":25495:25499  lock */\n      tag_143\n        /* \"contracts/standard_contract.sol\":25495:25501  lock() */\n      jump\t// in\n    tag_142:\n        /* \"contracts/standard_contract.sol\":25514:25545  requireOwnerAddress(msg.sender) */\n      tag_144\n        /* \"contracts/standard_contract.sol\":25534:25544  msg.sender */\n      caller\n        /* \"contracts/standard_contract.sol\":25514:25533  requireOwnerAddress */\n      tag_145\n        /* \"contracts/standard_contract.sol\":25514:25545  requireOwnerAddress(msg.sender) */\n      jump\t// in\n    tag_144:\n        /* \"contracts/standard_contract.sol\":25558:25612  withdrawERC20Tokens(_tokenAddress, msg.sender, _value) */\n      tag_146\n        /* \"contracts/standard_contract.sol\":25578:25591  _tokenAddress */\n      dup3\n        /* \"contracts/standard_contract.sol\":25593:25603  msg.sender */\n      caller\n        /* \"contracts/standard_contract.sol\":25605:25611  _value */\n      dup4\n        /* \"contracts/standard_contract.sol\":25558:25577  withdrawERC20Tokens */\n      tag_147\n        /* \"contracts/standard_contract.sol\":25558:25612  withdrawERC20Tokens(_tokenAddress, msg.sender, _value) */\n      jump\t// in\n    tag_146:\n        /* \"contracts/standard_contract.sol\":25625:25633  unlock() */\n      tag_148\n        /* \"contracts/standard_contract.sol\":25625:25631  unlock */\n      tag_149\n        /* \"contracts/standard_contract.sol\":25625:25633  unlock() */\n      jump\t// in\n    tag_148:\n        /* \"contracts/standard_contract.sol\":25406:25641  function withdraw_erc20Tokens(address _tokenAddress, uint256 _value) external {... */\n      pop\n      pop\n      jump\t// out\n        /* \"contracts/standard_contract.sol\":24989:25174  function withdraw_coins(uint256 _value) external {... */\n    tag_61:\n        /* \"contracts/standard_contract.sol\":25049:25055  lock() */\n      tag_151\n        /* \"contracts/standard_contract.sol\":25049:25053  lock */\n      tag_143\n        /* \"contracts/standard_contract.sol\":25049:25055  lock() */\n      jump\t// in\n    tag_151:\n        /* \"contracts/standard_contract.sol\":25068:25099  requireOwnerAddress(msg.sender) */\n      tag_152\n        /* \"contracts/standard_contract.sol\":25088:25098  msg.sender */\n      caller\n        /* \"contracts/standard_contract.sol\":25068:25087  requireOwnerAddress */\n      tag_145\n        /* \"contracts/standard_contract.sol\":25068:25099  requireOwnerAddress(msg.sender) */\n      jump\t// in\n    tag_152:\n        /* \"contracts/standard_contract.sol\":25112:25145  withdrawCoins(msg.sender, _value) */\n      tag_153\n        /* \"contracts/standard_contract.sol\":25126:25136  msg.sender */\n      caller\n        /* \"contracts/standard_contract.sol\":25138:25144  _value */\n      dup3\n        /* \"contracts/standard_contract.sol\":25112:25125  withdrawCoins */\n      tag_154\n        /* \"contracts/standard_contract.sol\":25112:25145  withdrawCoins(msg.sender, _value) */\n      jump\t// in\n    tag_153:\n        /* \"contracts/standard_contract.sol\":25158:25166  unlock() */\n      tag_155\n        /* \"contracts/standard_contract.sol\":25158:25164  unlock */\n      tag_149\n        /* \"contracts/standard_contract.sol\":25158:25166  unlock() */\n      jump\t// in\n    tag_155:\n        /* \"contracts/standard_contract.sol\":24989:25174  function withdraw_coins(uint256 _value) external {... */\n      pop\n      jump\t// out\n        /* \"contracts/standard_contract.sol\":24315:24495  function action_claimOwnerRole() external {... */\n    tag_64:\n        /* \"contracts/standard_contract.sol\":24368:24374  lock() */\n      tag_157\n        /* \"contracts/standard_contract.sol\":24368:24372  lock */\n      tag_143\n        /* \"contracts/standard_contract.sol\":24368:24374  lock() */\n      jump\t// in\n    tag_157:\n        /* \"contracts/standard_contract.sol\":24387:24427  requireOwnerSuccessorAddress(msg.sender) */\n      tag_158\n        /* \"contracts/standard_contract.sol\":24416:24426  msg.sender */\n      caller\n        /* \"contracts/standard_contract.sol\":24387:24415  requireOwnerSuccessorAddress */\n      tag_159\n        /* \"contracts/standard_contract.sol\":24387:24427  requireOwnerSuccessorAddress(msg.sender) */\n      jump\t// in\n    tag_158:\n        /* \"contracts/standard_contract.sol\":24440:24466  claimOwnerRole(msg.sender) */\n      tag_160\n        /* \"contracts/standard_contract.sol\":24455:24465  msg.sender */\n      caller\n        /* \"contracts/standard_contract.sol\":24440:24454  claimOwnerRole */\n      tag_161\n        /* \"contracts/standard_contract.sol\":24440:24466  claimOwnerRole(msg.sender) */\n      jump\t// in\n    tag_160:\n        /* \"contracts/standard_contract.sol\":24479:24487  unlock() */\n      tag_162\n        /* \"contracts/standard_contract.sol\":24479:24485  unlock */\n      tag_149\n        /* \"contracts/standard_contract.sol\":24479:24487  unlock() */\n      jump\t// in\n    tag_162:\n        /* \"contracts/standard_contract.sol\":24315:24495  function action_claimOwnerRole() external {... */\n      jump\t// out\n        /* \"contracts/standard_contract.sol\":27443:27534  function query_isLocked() external view returns (bool) {... */\n    tag_67:\n        /* \"contracts/standard_contract.sol\":27492:27496  bool */\n      0x00\n        /* \"contracts/standard_contract.sol\":27516:27526  isLocked() */\n      tag_164\n        /* \"contracts/standard_contract.sol\":27516:27524  isLocked */\n      tag_165\n        /* \"contracts/standard_contract.sol\":27516:27526  isLocked() */\n      jump\t// in\n    tag_164:\n        /* \"contracts/standard_contract.sol\":27509:27526  return isLocked() */\n      swap1\n      pop\n        /* \"contracts/standard_contract.sol\":27443:27534  function query_isLocked() external view returns (bool) {... */\n      swap1\n      jump\t// out\n        /* \"contracts/standard_contract.sol\":28067:28212  function query_isOwnerSuccessorAddress(address _address) external view returns (bool) {... */\n    tag_73:\n        /* \"contracts/standard_contract.sol\":28147:28151  bool */\n      0x00\n        /* \"contracts/standard_contract.sol\":28171:28204  isOwnerSuccessorAddress(_address) */\n      tag_167\n        /* \"contracts/standard_contract.sol\":28195:28203  _address */\n      dup3\n        /* \"contracts/standard_contract.sol\":28171:28194  isOwnerSuccessorAddress */\n      tag_168\n        /* \"contracts/standard_contract.sol\":28171:28204  isOwnerSuccessorAddress(_address) */\n      jump\t// in\n    tag_167:\n        /* \"contracts/standard_contract.sol\":28164:28204  return isOwnerSuccessorAddress(_address) */\n      swap1\n      pop\n        /* \"contracts/standard_contract.sol\":28067:28212  function query_isOwnerSuccessorAddress(address _address) external view returns (bool) {... */\n      swap2\n      swap1\n      pop\n      jump\t// out\n        /* \"contracts/standard_contract.sol\":11932:12079  function tokensToSend(address operator, address from, address to, uint256 amount, bytes calldata userData, bytes calldata operatorData) external {} */\n    tag_78:\n      pop\n      pop\n      pop\n      pop\n      pop\n      pop\n      pop\n      pop\n      jump\t// out\n        /* \"contracts/standard_contract.sol\":28341:28444  function get_ownerAddress() external view returns (address) {... */\n    tag_81:\n        /* \"contracts/standard_contract.sol\":28392:28399  address */\n      0x00\n        /* \"contracts/standard_contract.sol\":28419:28436  getOwnerAddress() */\n      tag_171\n        /* \"contracts/standard_contract.sol\":28419:28434  getOwnerAddress */\n      tag_172\n        /* \"contracts/standard_contract.sol\":28419:28436  getOwnerAddress() */\n      jump\t// in\n    tag_171:\n        /* \"contracts/standard_contract.sol\":28412:28436  return getOwnerAddress() */\n      swap1\n      pop\n        /* \"contracts/standard_contract.sol\":28341:28444  function get_ownerAddress() external view returns (address) {... */\n      swap1\n      jump\t// out\n        /* \"contracts/standard_contract.sol\":27727:27854  function query_isOwnerAddress(address _address) external view returns (bool) {... */\n    tag_87:\n        /* \"contracts/standard_contract.sol\":27798:27802  bool */\n      0x00\n        /* \"contracts/standard_contract.sol\":27822:27846  isOwnerAddress(_address) */\n      tag_174\n        /* \"contracts/standard_contract.sol\":27837:27845  _address */\n      dup3\n        /* \"contracts/standard_contract.sol\":27822:27836  isOwnerAddress */\n      tag_175\n        /* \"contracts/standard_contract.sol\":27822:27846  isOwnerAddress(_address) */\n      jump\t// in\n    tag_174:\n        /* \"contracts/standard_contract.sol\":27815:27846  return isOwnerAddress(_address) */\n      swap1\n      pop\n        /* \"contracts/standard_contract.sol\":27727:27854  function query_isOwnerAddress(address _address) external view returns (bool) {... */\n      swap2\n      swap1\n      pop\n      jump\t// out\n        /* \"contracts/standard_contract.sol\":26367:26631  function withdraw_erc777Tokens(address _tokenAddress, uint256 _value, bytes memory _data) external {... */\n    tag_93:\n        /* \"contracts/standard_contract.sol\":26477:26483  lock() */\n      tag_177\n        /* \"contracts/standard_contract.sol\":26477:26481  lock */\n      tag_143\n        /* \"contracts/standard_contract.sol\":26477:26483  lock() */\n      jump\t// in\n    tag_177:\n        /* \"contracts/standard_contract.sol\":26496:26527  requireOwnerAddress(msg.sender) */\n      tag_178\n        /* \"contracts/standard_contract.sol\":26516:26526  msg.sender */\n      caller\n        /* \"contracts/standard_contract.sol\":26496:26515  requireOwnerAddress */\n      tag_145\n        /* \"contracts/standard_contract.sol\":26496:26527  requireOwnerAddress(msg.sender) */\n      jump\t// in\n    tag_178:\n        /* \"contracts/standard_contract.sol\":26540:26602  withdrawERC777Tokens(_tokenAddress, msg.sender, _value, _data) */\n      tag_179\n        /* \"contracts/standard_contract.sol\":26561:26574  _tokenAddress */\n      dup4\n        /* \"contracts/standard_contract.sol\":26576:26586  msg.sender */\n      caller\n        /* \"contracts/standard_contract.sol\":26588:26594  _value */\n      dup5\n        /* \"contracts/standard_contract.sol\":26596:26601  _data */\n      dup5\n        /* \"contracts/standard_contract.sol\":26540:26560  withdrawERC777Tokens */\n      tag_180\n        /* \"contracts/standard_contract.sol\":26540:26602  withdrawERC777Tokens(_tokenAddress, msg.sender, _value, _data) */\n      jump\t// in\n    tag_179:\n        /* \"contracts/standard_contract.sol\":26615:26623  unlock() */\n      tag_181\n        /* \"contracts/standard_contract.sol\":26615:26621  unlock */\n      tag_149\n        /* \"contracts/standard_contract.sol\":26615:26623  unlock() */\n      jump\t// in\n    tag_181:\n        /* \"contracts/standard_contract.sol\":26367:26631  function withdraw_erc777Tokens(address _tokenAddress, uint256 _value, bytes memory _data) external {... */\n      pop\n      pop\n      pop\n      jump\t// out\n        /* \"contracts/standard_contract.sol\":28780:28895  function failsafe_unlock() external {... */\n    tag_96:\n        /* \"contracts/standard_contract.sol\":28827:28858  requireOwnerAddress(msg.sender) */\n      tag_183\n        /* \"contracts/standard_contract.sol\":28847:28857  msg.sender */\n      caller\n        /* \"contracts/standard_contract.sol\":28827:28846  requireOwnerAddress */\n      tag_145\n        /* \"contracts/standard_contract.sol\":28827:28858  requireOwnerAddress(msg.sender) */\n      jump\t// in\n    tag_183:\n        /* \"contracts/standard_contract.sol\":28871:28887  setLocked(false) */\n      tag_184\n        /* \"contracts/standard_contract.sol\":28881:28886  false */\n      0x00\n        /* \"contracts/standard_contract.sol\":28871:28880  setLocked */\n      tag_185\n        /* \"contracts/standard_contract.sol\":28871:28887  setLocked(false) */\n      jump\t// in\n    tag_184:\n        /* \"contracts/standard_contract.sol\":28780:28895  function failsafe_unlock() external {... */\n      jump\t// out\n        /* \"contracts/standard_contract.sol\":25837:26068  function withdraw_erc721Tokens(address _tokenAddress, uint256 _id) external {... */\n    tag_100:\n        /* \"contracts/standard_contract.sol\":25924:25930  lock() */\n      tag_187\n        /* \"contracts/standard_contract.sol\":25924:25928  lock */\n      tag_143\n        /* \"contracts/standard_contract.sol\":25924:25930  lock() */\n      jump\t// in\n    tag_187:\n        /* \"contracts/standard_contract.sol\":25943:25974  requireOwnerAddress(msg.sender) */\n      tag_188\n        /* \"contracts/standard_contract.sol\":25963:25973  msg.sender */\n      caller\n        /* \"contracts/standard_contract.sol\":25943:25962  requireOwnerAddress */\n      tag_145\n        /* \"contracts/standard_contract.sol\":25943:25974  requireOwnerAddress(msg.sender) */\n      jump\t// in\n    tag_188:\n        /* \"contracts/standard_contract.sol\":25987:26039  withdrawERC721Tokens(_tokenAddress, _id, msg.sender) */\n      tag_189\n        /* \"contracts/standard_contract.sol\":26008:26021  _tokenAddress */\n      dup3\n        /* \"contracts/standard_contract.sol\":26023:26026  _id */\n      dup3\n        /* \"contracts/standard_contract.sol\":26028:26038  msg.sender */\n      caller\n        /* \"contracts/standard_contract.sol\":25987:26007  withdrawERC721Tokens */\n      tag_190\n        /* \"contracts/standard_contract.sol\":25987:26039  withdrawERC721Tokens(_tokenAddress, _id, msg.sender) */\n      jump\t// in\n    tag_189:\n        /* \"contracts/standard_contract.sol\":26052:26060  unlock() */\n      tag_191\n        /* \"contracts/standard_contract.sol\":26052:26058  unlock */\n      tag_149\n        /* \"contracts/standard_contract.sol\":26052:26060  unlock() */\n      jump\t// in\n    tag_191:\n        /* \"contracts/standard_contract.sol\":25837:26068  function withdraw_erc721Tokens(address _tokenAddress, uint256 _id) external {... */\n      pop\n      pop\n      jump\t// out\n        /* \"contracts/standard_contract.sol\":12300:12493  function onERC1155BatchReceived(address, address, uint256[] memory, uint256[] memory, bytes memory) external pure returns (bytes4) {... */\n    tag_105:\n        /* \"contracts/standard_contract.sol\":12423:12429  bytes4 */\n      0x00\n        /* \"contracts/standard_contract.sol\":12449:12485  this.onERC1155BatchReceived.selector */\n      shl(0xe0, 0xbc197c81)\n        /* \"contracts/standard_contract.sol\":12442:12485  return this.onERC1155BatchReceived.selector */\n      swap1\n      pop\n        /* \"contracts/standard_contract.sol\":12300:12493  function onERC1155BatchReceived(address, address, uint256[] memory, uint256[] memory, bytes memory) external pure returns (bytes4) {... */\n      swap6\n      swap5\n      pop\n      pop\n      pop\n      pop\n      pop\n      jump\t// out\n        /* \"contracts/standard_contract.sol\":28552:28673  function get_ownerSuccessorAddress() external view returns (address) {... */\n    tag_109:\n        /* \"contracts/standard_contract.sol\":28612:28619  address */\n      0x00\n        /* \"contracts/standard_contract.sol\":28639:28665  getOwnerSuccessorAddress() */\n      tag_194\n        /* \"contracts/standard_contract.sol\":28639:28663  getOwnerSuccessorAddress */\n      tag_195\n        /* \"contracts/standard_contract.sol\":28639:28665  getOwnerSuccessorAddress() */\n      jump\t// in\n    tag_194:\n        /* \"contracts/standard_contract.sol\":28632:28665  return getOwnerSuccessorAddress() */\n      swap1\n      pop\n        /* \"contracts/standard_contract.sol\":28552:28673  function get_ownerSuccessorAddress() external view returns (address) {... */\n      swap1\n      jump\t// out\n        /* \"contracts/standard_contract.sol\":24633:24818  function action_offerOwnerRole(address _address) external {... */\n    tag_114:\n        /* \"contracts/standard_contract.sol\":24702:24708  lock() */\n      tag_197\n        /* \"contracts/standard_contract.sol\":24702:24706  lock */\n      tag_143\n        /* \"contracts/standard_contract.sol\":24702:24708  lock() */\n      jump\t// in\n    tag_197:\n        /* \"contracts/standard_contract.sol\":24721:24752  requireOwnerAddress(msg.sender) */\n      tag_198\n        /* \"contracts/standard_contract.sol\":24741:24751  msg.sender */\n      caller\n        /* \"contracts/standard_contract.sol\":24721:24740  requireOwnerAddress */\n      tag_145\n        /* \"contracts/standard_contract.sol\":24721:24752  requireOwnerAddress(msg.sender) */\n      jump\t// in\n    tag_198:\n        /* \"contracts/standard_contract.sol\":24765:24789  offerOwnerRole(_address) */\n      tag_199\n        /* \"contracts/standard_contract.sol\":24780:24788  _address */\n      dup2\n        /* \"contracts/standard_contract.sol\":24765:24779  offerOwnerRole */\n      tag_200\n        /* \"contracts/standard_contract.sol\":24765:24789  offerOwnerRole(_address) */\n      jump\t// in\n    tag_199:\n        /* \"contracts/standard_contract.sol\":24802:24810  unlock() */\n      tag_201\n        /* \"contracts/standard_contract.sol\":24802:24808  unlock */\n      tag_149\n        /* \"contracts/standard_contract.sol\":24802:24810  unlock() */\n      jump\t// in\n    tag_201:\n        /* \"contracts/standard_contract.sol\":24633:24818  function action_offerOwnerRole(address _address) external {... */\n      pop\n      jump\t// out\n        /* \"contracts/standard_contract.sol\":29018:29055  function donate() external payable {} */\n    tag_116:\n      jump\t// out\n        /* \"contracts/standard_contract.sol\":12127:12292  function onERC1155Received(address, address, uint256, uint256, bytes memory) external pure returns (bytes4) {... */\n    tag_121:\n        /* \"contracts/standard_contract.sol\":12227:12233  bytes4 */\n      0x00\n        /* \"contracts/standard_contract.sol\":12253:12284  this.onERC1155Received.selector */\n      shl(0xe0, 0xf23a6e61)\n        /* \"contracts/standard_contract.sol\":12246:12284  return this.onERC1155Received.selector */\n      swap1\n      pop\n        /* \"contracts/standard_contract.sol\":12127:12292  function onERC1155Received(address, address, uint256, uint256, bytes memory) external pure returns (bytes4) {... */\n      swap6\n      swap5\n      pop\n      pop\n      pop\n      pop\n      pop\n      jump\t// out\n        /* \"contracts/standard_contract.sol\":26982:27266  function withdraw_erc1155Tokens(address _tokenAddress, uint256 _id, uint256 _value, bytes memory _data) external {... */\n    tag_127:\n        /* \"contracts/standard_contract.sol\":27106:27112  lock() */\n      tag_205\n        /* \"contracts/standard_contract.sol\":27106:27110  lock */\n      tag_143\n        /* \"contracts/standard_contract.sol\":27106:27112  lock() */\n      jump\t// in\n    tag_205:\n        /* \"contracts/standard_contract.sol\":27125:27156  requireOwnerAddress(msg.sender) */\n      tag_206\n        /* \"contracts/standard_contract.sol\":27145:27155  msg.sender */\n      caller\n        /* \"contracts/standard_contract.sol\":27125:27144  requireOwnerAddress */\n      tag_145\n        /* \"contracts/standard_contract.sol\":27125:27156  requireOwnerAddress(msg.sender) */\n      jump\t// in\n    tag_206:\n        /* \"contracts/standard_contract.sol\":27169:27237  withdrawERC1155Tokens(_tokenAddress, _id, msg.sender, _value, _data) */\n      tag_207\n        /* \"contracts/standard_contract.sol\":27191:27204  _tokenAddress */\n      dup5\n        /* \"contracts/standard_contract.sol\":27206:27209  _id */\n      dup5\n        /* \"contracts/standard_contract.sol\":27211:27221  msg.sender */\n      caller\n        /* \"contracts/standard_contract.sol\":27223:27229  _value */\n      dup6\n        /* \"contracts/standard_contract.sol\":27231:27236  _data */\n      dup6\n        /* \"contracts/standard_contract.sol\":27169:27190  withdrawERC1155Tokens */\n      tag_208\n        /* \"contracts/standard_contract.sol\":27169:27237  withdrawERC1155Tokens(_tokenAddress, _id, msg.sender, _value, _data) */\n      jump\t// in\n    tag_207:\n        /* \"contracts/standard_contract.sol\":27250:27258  unlock() */\n      tag_209\n        /* \"contracts/standard_contract.sol\":27250:27256  unlock */\n      tag_149\n        /* \"contracts/standard_contract.sol\":27250:27258  unlock() */\n      jump\t// in\n    tag_209:\n        /* \"contracts/standard_contract.sol\":26982:27266  function withdraw_erc1155Tokens(address _tokenAddress, uint256 _id, uint256 _value, bytes memory _data) external {... */\n      pop\n      pop\n      pop\n      pop\n      jump\t// out\n        /* \"contracts/standard_contract.sol\":18178:18411  function lock() internal {... */\n    tag_143:\n        /* \"contracts/standard_contract.sol\":18331:18341  isLocked() */\n      tag_211\n        /* \"contracts/standard_contract.sol\":18331:18339  isLocked */\n      tag_165\n        /* \"contracts/standard_contract.sol\":18331:18341  isLocked() */\n      jump\t// in\n    tag_211:\n        /* \"contracts/standard_contract.sol\":18328:18378  if(isLocked()) {... */\n      iszero\n      tag_212\n      jumpi\n        /* \"contracts/standard_contract.sol\":18358:18366  punish() */\n      tag_213\n        /* \"contracts/standard_contract.sol\":18358:18364  punish */\n      tag_214\n        /* \"contracts/standard_contract.sol\":18358:18366  punish() */\n      jump\t// in\n    tag_213:\n        /* \"contracts/standard_contract.sol\":18328:18378  if(isLocked()) {... */\n    tag_212:\n        /* \"contracts/standard_contract.sol\":18388:18403  setLocked(true) */\n      tag_215\n        /* \"contracts/standard_contract.sol\":18398:18402  true */\n      0x01\n        /* \"contracts/standard_contract.sol\":18388:18397  setLocked */\n      tag_185\n        /* \"contracts/standard_contract.sol\":18388:18403  setLocked(true) */\n      jump\t// in\n    tag_215:\n        /* \"contracts/standard_contract.sol\":18178:18411  function lock() internal {... */\n      jump\t// out\n        /* \"contracts/standard_contract.sol\":16970:17155  function requireOwnerAddress(address _address) internal view {... */\n    tag_145:\n        /* \"contracts/standard_contract.sol\":17046:17070  isOwnerAddress(_address) */\n      tag_217\n        /* \"contracts/standard_contract.sol\":17061:17069  _address */\n      dup2\n        /* \"contracts/standard_contract.sol\":17046:17060  isOwnerAddress */\n      tag_175\n        /* \"contracts/standard_contract.sol\":17046:17070  isOwnerAddress(_address) */\n      jump\t// in\n    tag_217:\n        /* \"contracts/standard_contract.sol\":17042:17148  if(!isOwnerAddress(_address)) {... */\n      tag_218\n      jumpi\n        /* \"contracts/standard_contract.sol\":17108:17116  _address */\n      dup1\n        /* \"contracts/standard_contract.sol\":17118:17135  getOwnerAddress() */\n      tag_219\n        /* \"contracts/standard_contract.sol\":17118:17133  getOwnerAddress */\n      tag_172\n        /* \"contracts/standard_contract.sol\":17118:17135  getOwnerAddress() */\n      jump\t// in\n    tag_219:\n        /* \"contracts/standard_contract.sol\":17094:17136  NotOwnerError(_address, getOwnerAddress()) */\n      mload(0x40)\n      0x0daa808300000000000000000000000000000000000000000000000000000000\n      dup2\n      mstore\n      0x04\n      add\n      tag_220\n      swap3\n      swap2\n      swap1\n      tag_221\n      jump\t// in\n    tag_220:\n      mload(0x40)\n      dup1\n      swap2\n      sub\n      swap1\n      revert\n        /* \"contracts/standard_contract.sol\":17042:17148  if(!isOwnerAddress(_address)) {... */\n    tag_218:\n        /* \"contracts/standard_contract.sol\":16970:17155  function requireOwnerAddress(address _address) internal view {... */\n      pop\n      jump\t// out\n        /* \"contracts/standard_contract.sol\":13365:14112  function withdrawERC20Tokens(address _tokenAddress, address _address, uint256 _value) internal {... */\n    tag_147:\n        /* \"contracts/standard_contract.sol\":13695:13696  0 */\n      0x00\n        /* \"contracts/standard_contract.sol\":13666:13679  _tokenAddress */\n      dup4\n        /* \"contracts/standard_contract.sol\":13666:13691  _tokenAddress.code.length */\n      0xffffffffffffffffffffffffffffffffffffffff\n      and\n      extcodesize\n        /* \"contracts/standard_contract.sol\":13666:13696  _tokenAddress.code.length == 0 */\n      sub\n        /* \"contracts/standard_contract.sol\":13663:13758  if(_tokenAddress.code.length == 0) {... */\n      tag_223\n      jumpi\n        /* \"contracts/standard_contract.sol\":13713:13746  revert(\"ERC20TokenContractError\") */\n      mload(0x40)\n      0x08c379a000000000000000000000000000000000000000000000000000000000\n      dup2\n      mstore\n      0x04\n      add\n      tag_224\n      swap1\n      tag_225\n      jump\t// in\n    tag_224:\n      mload(0x40)\n      dup1\n      swap2\n      sub\n      swap1\n      revert\n        /* \"contracts/standard_contract.sol\":13663:13758  if(_tokenAddress.code.length == 0) {... */\n    tag_223:\n        /* \"contracts/standard_contract.sol\":13770:13791  bytes memory callData */\n      0x00\n        /* \"contracts/standard_contract.sol\":13817:13856  IERC20(_tokenAddress).transfer.selector */\n      shl(0xe0, 0xa9059cbb)\n        /* \"contracts/standard_contract.sol\":13858:13866  _address */\n      dup4\n        /* \"contracts/standard_contract.sol\":13868:13874  _value */\n      dup4\n        /* \"contracts/standard_contract.sol\":13794:13875  abi.encodeWithSelector(IERC20(_tokenAddress).transfer.selector, _address, _value) */\n      add(0x24, mload(0x40))\n      tag_226\n      swap3\n      swap2\n      swap1\n      tag_227\n      jump\t// in\n    tag_226:\n      mload(0x40)\n      0x20\n      dup2\n      dup4\n      sub\n      sub\n      dup2\n      mstore\n      swap1\n      0x40\n      mstore\n      swap1\n      not(0xffffffffffffffffffffffffffffffffffffffffffffffffffffffff)\n      and\n      0x20\n      dup3\n      add\n      dup1\n      mload\n      0xffffffffffffffffffffffffffffffffffffffffffffffffffffffff\n      dup4\n      dup2\n      dup4\n      and\n      or\n      dup4\n      mstore\n      pop\n      pop\n      pop\n      pop\n        /* \"contracts/standard_contract.sol\":13770:13875  bytes memory callData = abi.encodeWithSelector(IERC20(_tokenAddress).transfer.selector, _address, _value) */\n      swap1\n      pop\n        /* \"contracts/standard_contract.sol\":13887:13899  bool success */\n      0x00\n        /* \"contracts/standard_contract.sol\":13901:13924  bytes memory returnData */\n      dup1\n        /* \"contracts/standard_contract.sol\":13928:13941  _tokenAddress */\n      dup6\n        /* \"contracts/standard_contract.sol\":13928:13946  _tokenAddress.call */\n      0xffffffffffffffffffffffffffffffffffffffff\n      and\n        /* \"contracts/standard_contract.sol\":13947:13955  callData */\n      dup4\n        /* \"contracts/standard_contract.sol\":13928:13956  _tokenAddress.call(callData) */\n      mload(0x40)\n      tag_228\n      swap2\n      swap1\n      tag_229\n      jump\t// in\n    tag_228:\n      0x00\n      mload(0x40)\n      dup1\n      dup4\n      sub\n      dup2\n      0x00\n      dup7\n      gas\n      call\n      swap2\n      pop\n      pop\n      returndatasize\n      dup1\n      0x00\n      dup2\n      eq\n      tag_232\n      jumpi\n      mload(0x40)\n      swap2\n      pop\n      and(add(returndatasize, 0x3f), not(0x1f))\n      dup3\n      add\n      0x40\n      mstore\n      returndatasize\n      dup3\n      mstore\n      returndatasize\n      0x00\n      0x20\n      dup5\n      add\n      returndatacopy\n      jump(tag_231)\n    tag_232:\n      0x60\n      swap2\n      pop\n    tag_231:\n      pop\n        /* \"contracts/standard_contract.sol\":13886:13956  (bool success, bytes memory returnData) = _tokenAddress.call(callData) */\n      swap2\n      pop\n      swap2\n      pop\n        /* \"contracts/standard_contract.sol\":13973:13980  success */\n      dup2\n        /* \"contracts/standard_contract.sol\":13972:13980  !success */\n      iszero\n        /* \"contracts/standard_contract.sol\":13972:14043  !success || (returnData.length != 0 && !abi.decode(returnData, (bool))) */\n      dup1\n      tag_233\n      jumpi\n      pop\n        /* \"contracts/standard_contract.sol\":14006:14007  0 */\n      0x00\n        /* \"contracts/standard_contract.sol\":13985:13995  returnData */\n      dup2\n        /* \"contracts/standard_contract.sol\":13985:14002  returnData.length */\n      mload\n        /* \"contracts/standard_contract.sol\":13985:14007  returnData.length != 0 */\n      eq\n      iszero\n        /* \"contracts/standard_contract.sol\":13985:14042  returnData.length != 0 && !abi.decode(returnData, (bool)) */\n      dup1\n      iszero\n      tag_234\n      jumpi\n      pop\n        /* \"contracts/standard_contract.sol\":14023:14033  returnData */\n      dup1\n        /* \"contracts/standard_contract.sol\":14012:14042  abi.decode(returnData, (bool)) */\n      dup1\n      0x20\n      add\n      swap1\n      mload\n      dup2\n      add\n      swap1\n      tag_235\n      swap2\n      swap1\n      tag_236\n      jump\t// in\n    tag_235:\n        /* \"contracts/standard_contract.sol\":14011:14042  !abi.decode(returnData, (bool)) */\n      iszero\n        /* \"contracts/standard_contract.sol\":13985:14042  returnData.length != 0 && !abi.decode(returnData, (bool)) */\n    tag_234:\n        /* \"contracts/standard_contract.sol\":13972:14043  !success || (returnData.length != 0 && !abi.decode(returnData, (bool))) */\n    tag_233:\n        /* \"contracts/standard_contract.sol\":13969:14105  if(!success || (returnData.length != 0 && !abi.decode(returnData, (bool)))) {... */\n      iszero\n      tag_237\n      jumpi\n        /* \"contracts/standard_contract.sol\":14060:14093  revert(\"ERC20TokenTransferError\") */\n      mload(0x40)\n      0x08c379a000000000000000000000000000000000000000000000000000000000\n      dup2\n      mstore\n      0x04\n      add\n      tag_238\n      swap1\n      tag_239\n      jump\t// in\n    tag_238:\n      mload(0x40)\n      dup1\n      swap2\n      sub\n      swap1\n      revert\n        /* \"contracts/standard_contract.sol\":13969:14105  if(!success || (returnData.length != 0 && !abi.decode(returnData, (bool)))) {... */\n    tag_237:\n        /* \"contracts/standard_contract.sol\":13460:14112  {... */\n      pop\n      pop\n      pop\n        /* \"contracts/standard_contract.sol\":13365:14112  function withdrawERC20Tokens(address _tokenAddress, address _address, uint256 _value) internal {... */\n      pop\n      pop\n      pop\n      jump\t// out\n        /* \"contracts/standard_contract.sol\":18419:18541  function unlock() internal {... */\n    tag_149:\n        /* \"contracts/standard_contract.sol\":18517:18533  setLocked(false) */\n      tag_241\n        /* \"contracts/standard_contract.sol\":18527:18532  false */\n      0x00\n        /* \"contracts/standard_contract.sol\":18517:18526  setLocked */\n      tag_185\n        /* \"contracts/standard_contract.sol\":18517:18533  setLocked(false) */\n      jump\t// in\n    tag_241:\n        /* \"contracts/standard_contract.sol\":18419:18541  function unlock() internal {... */\n      jump\t// out\n        /* \"contracts/standard_contract.sol\":13238:13357  function withdrawCoins(address _address, uint256 _value) internal {... */\n    tag_154:\n        /* \"contracts/standard_contract.sol\":13323:13331  _address */\n      dup2\n        /* \"contracts/standard_contract.sol\":13315:13341  payable(_address).transfer */\n      0xffffffffffffffffffffffffffffffffffffffff\n      and\n        /* \"contracts/standard_contract.sol\":13315:13349  payable(_address).transfer(_value) */\n      0x08fc\n        /* \"contracts/standard_contract.sol\":13342:13348  _value */\n      dup3\n        /* \"contracts/standard_contract.sol\":13315:13349  payable(_address).transfer(_value) */\n      swap1\n      dup2\n      iszero\n      mul\n      swap1\n      mload(0x40)\n      0x00\n      mload(0x40)\n      dup1\n      dup4\n      sub\n      dup2\n      dup6\n      dup9\n      dup9\n      call\n      swap4\n      pop\n      pop\n      pop\n      pop\n      iszero\n      dup1\n      iszero\n      tag_244\n      jumpi\n      returndatasize\n      0x00\n      dup1\n      returndatacopy\n      revert(0x00, returndatasize)\n    tag_244:\n      pop\n        /* \"contracts/standard_contract.sol\":13238:13357  function withdrawCoins(address _address, uint256 _value) internal {... */\n      pop\n      pop\n      jump\t// out\n        /* \"contracts/standard_contract.sol\":17163:17384  function requireOwnerSuccessorAddress(address _address) internal view {... */\n    tag_159:\n        /* \"contracts/standard_contract.sol\":17248:17281  isOwnerSuccessorAddress(_address) */\n      tag_246\n        /* \"contracts/standard_contract.sol\":17272:17280  _address */\n      dup2\n        /* \"contracts/standard_contract.sol\":17248:17271  isOwnerSuccessorAddress */\n      tag_168\n        /* \"contracts/standard_contract.sol\":17248:17281  isOwnerSuccessorAddress(_address) */\n      jump\t// in\n    tag_246:\n        /* \"contracts/standard_contract.sol\":17244:17377  if(!isOwnerSuccessorAddress(_address)) {... */\n      tag_247\n      jumpi\n        /* \"contracts/standard_contract.sol\":17328:17336  _address */\n      dup1\n        /* \"contracts/standard_contract.sol\":17338:17364  getOwnerSuccessorAddress() */\n      tag_248\n        /* \"contracts/standard_contract.sol\":17338:17362  getOwnerSuccessorAddress */\n      tag_195\n        /* \"contracts/standard_contract.sol\":17338:17364  getOwnerSuccessorAddress() */\n      jump\t// in\n    tag_248:\n        /* \"contracts/standard_contract.sol\":17305:17365  NotOwnerSuccessorError(_address, getOwnerSuccessorAddress()) */\n      mload(0x40)\n      0x549fbfe300000000000000000000000000000000000000000000000000000000\n      dup2\n      mstore\n      0x04\n      add\n      tag_249\n      swap3\n      swap2\n      swap1\n      tag_221\n      jump\t// in\n    tag_249:\n      mload(0x40)\n      dup1\n      swap2\n      sub\n      swap1\n      revert\n        /* \"contracts/standard_contract.sol\":17244:17377  if(!isOwnerSuccessorAddress(_address)) {... */\n    tag_247:\n        /* \"contracts/standard_contract.sol\":17163:17384  function requireOwnerSuccessorAddress(address _address) internal view {... */\n      pop\n      jump\t// out\n        /* \"contracts/standard_contract.sol\":12977:13072  function claimOwnerRole(address _address) internal {... */\n    tag_161:\n        /* \"contracts/standard_contract.sol\":13039:13064  setOwnerAddress(_address) */\n      tag_251\n        /* \"contracts/standard_contract.sol\":13055:13063  _address */\n      dup2\n        /* \"contracts/standard_contract.sol\":13039:13054  setOwnerAddress */\n      tag_252\n        /* \"contracts/standard_contract.sol\":13039:13064  setOwnerAddress(_address) */\n      jump\t// in\n    tag_251:\n        /* \"contracts/standard_contract.sol\":12977:13072  function claimOwnerRole(address _address) internal {... */\n      pop\n      jump\t// out\n        /* \"contracts/standard_contract.sol\":16548:16631  function isLocked() internal view returns (bool) {... */\n    tag_165:\n        /* \"contracts/standard_contract.sol\":16591:16595  bool */\n      0x00\n        /* \"contracts/standard_contract.sol\":16615:16623  lockFlag */\n      0x01\n      0x14\n      swap1\n      sload\n      swap1\n      0x0100\n      exp\n      swap1\n      div\n      0xff\n      and\n        /* \"contracts/standard_contract.sol\":16608:16623  return lockFlag */\n      swap1\n      pop\n        /* \"contracts/standard_contract.sol\":16548:16631  function isLocked() internal view returns (bool) {... */\n      swap1\n      jump\t// out\n        /* \"contracts/standard_contract.sol\":16773:16917  function isOwnerSuccessorAddress(address _address) internal view returns (bool) {... */\n    tag_168:\n        /* \"contracts/standard_contract.sol\":16847:16851  bool */\n      0x00\n        /* \"contracts/standard_contract.sol\":16883:16909  getOwnerSuccessorAddress() */\n      tag_255\n        /* \"contracts/standard_contract.sol\":16883:16907  getOwnerSuccessorAddress */\n      tag_195\n        /* \"contracts/standard_contract.sol\":16883:16909  getOwnerSuccessorAddress() */\n      jump\t// in\n    tag_255:\n        /* \"contracts/standard_contract.sol\":16871:16909  _address == getOwnerSuccessorAddress() */\n      0xffffffffffffffffffffffffffffffffffffffff\n      and\n        /* \"contracts/standard_contract.sol\":16871:16879  _address */\n      dup3\n        /* \"contracts/standard_contract.sol\":16871:16909  _address == getOwnerSuccessorAddress() */\n      0xffffffffffffffffffffffffffffffffffffffff\n      and\n      eq\n        /* \"contracts/standard_contract.sol\":16864:16909  return _address == getOwnerSuccessorAddress() */\n      swap1\n      pop\n        /* \"contracts/standard_contract.sol\":16773:16917  function isOwnerSuccessorAddress(address _address) internal view returns (bool) {... */\n      swap2\n      swap1\n      pop\n      jump\t// out\n        /* \"contracts/standard_contract.sol\":17433:17530  function getOwnerAddress() internal view returns (address) {... */\n    tag_172:\n        /* \"contracts/standard_contract.sol\":17483:17490  address */\n      0x00\n        /* \"contracts/standard_contract.sol\":17510:17522  ownerAddress */\n      dup1\n      0x00\n      swap1\n      sload\n      swap1\n      0x0100\n      exp\n      swap1\n      div\n      0xffffffffffffffffffffffffffffffffffffffff\n      and\n        /* \"contracts/standard_contract.sol\":17503:17522  return ownerAddress */\n      swap1\n      pop\n        /* \"contracts/standard_contract.sol\":17433:17530  function getOwnerAddress() internal view returns (address) {... */\n      swap1\n      jump\t// out\n        /* \"contracts/standard_contract.sol\":16639:16765  function isOwnerAddress(address _address) internal view returns (bool) {... */\n    tag_175:\n        /* \"contracts/standard_contract.sol\":16704:16708  bool */\n      0x00\n        /* \"contracts/standard_contract.sol\":16740:16757  getOwnerAddress() */\n      tag_258\n        /* \"contracts/standard_contract.sol\":16740:16755  getOwnerAddress */\n      tag_172\n        /* \"contracts/standard_contract.sol\":16740:16757  getOwnerAddress() */\n      jump\t// in\n    tag_258:\n        /* \"contracts/standard_contract.sol\":16728:16757  _address == getOwnerAddress() */\n      0xffffffffffffffffffffffffffffffffffffffff\n      and\n        /* \"contracts/standard_contract.sol\":16728:16736  _address */\n      dup3\n        /* \"contracts/standard_contract.sol\":16728:16757  _address == getOwnerAddress() */\n      0xffffffffffffffffffffffffffffffffffffffff\n      and\n      eq\n        /* \"contracts/standard_contract.sol\":16721:16757  return _address == getOwnerAddress() */\n      swap1\n      pop\n        /* \"contracts/standard_contract.sol\":16639:16765  function isOwnerAddress(address _address) internal view returns (bool) {... */\n      swap2\n      swap1\n      pop\n      jump\t// out\n        /* \"contracts/standard_contract.sol\":14892:15666  function withdrawERC777Tokens(address _tokenAddress, address _address, uint256 _value, bytes memory _data) internal {... */\n    tag_180:\n        /* \"contracts/standard_contract.sol\":15243:15244  0 */\n      0x00\n        /* \"contracts/standard_contract.sol\":15214:15227  _tokenAddress */\n      dup5\n        /* \"contracts/standard_contract.sol\":15214:15239  _tokenAddress.code.length */\n      0xffffffffffffffffffffffffffffffffffffffff\n      and\n      extcodesize\n        /* \"contracts/standard_contract.sol\":15214:15244  _tokenAddress.code.length == 0 */\n      sub\n        /* \"contracts/standard_contract.sol\":15211:15307  if(_tokenAddress.code.length == 0) {... */\n      tag_260\n      jumpi\n        /* \"contracts/standard_contract.sol\":15261:15295  revert(\"ERC777TokenContractError\") */\n      mload(0x40)\n      0x08c379a000000000000000000000000000000000000000000000000000000000\n      dup2\n      mstore\n      0x04\n      add\n      tag_261\n      swap1\n      tag_262\n      jump\t// in\n    tag_261:\n      mload(0x40)\n      dup1\n      swap2\n      sub\n      swap1\n      revert\n        /* \"contracts/standard_contract.sol\":15211:15307  if(_tokenAddress.code.length == 0) {... */\n    tag_260:\n        /* \"contracts/standard_contract.sol\":15319:15340  bytes memory callData */\n      0x00\n        /* \"contracts/standard_contract.sol\":15366:15402  IERC777(_tokenAddress).send.selector */\n      shl(0xe0, 0x9bd9bbc6)\n        /* \"contracts/standard_contract.sol\":15404:15412  _address */\n      dup5\n        /* \"contracts/standard_contract.sol\":15414:15420  _value */\n      dup5\n        /* \"contracts/standard_contract.sol\":15422:15427  _data */\n      dup5\n        /* \"contracts/standard_contract.sol\":15343:15428  abi.encodeWithSelector(IERC777(_tokenAddress).send.selector, _address, _value, _data) */\n      add(0x24, mload(0x40))\n      tag_263\n      swap4\n      swap3\n      swap2\n      swap1\n      tag_264\n      jump\t// in\n    tag_263:\n      mload(0x40)\n      0x20\n      dup2\n      dup4\n      sub\n      sub\n      dup2\n      mstore\n      swap1\n      0x40\n      mstore\n      swap1\n      not(0xffffffffffffffffffffffffffffffffffffffffffffffffffffffff)\n      and\n      0x20\n      dup3\n      add\n      dup1\n      mload\n      0xffffffffffffffffffffffffffffffffffffffffffffffffffffffff\n      dup4\n      dup2\n      dup4\n      and\n      or\n      dup4\n      mstore\n      pop\n      pop\n      pop\n      pop\n        /* \"contracts/standard_contract.sol\":15319:15428  bytes memory callData = abi.encodeWithSelector(IERC777(_tokenAddress).send.selector, _address, _value, _data) */\n      swap1\n      pop\n        /* \"contracts/standard_contract.sol\":15440:15452  bool success */\n      0x00\n        /* \"contracts/standard_contract.sol\":15454:15477  bytes memory returnData */\n      dup1\n        /* \"contracts/standard_contract.sol\":15481:15494  _tokenAddress */\n      dup7\n        /* \"contracts/standard_contract.sol\":15481:15499  _tokenAddress.call */\n      0xffffffffffffffffffffffffffffffffffffffff\n      and\n        /* \"contracts/standard_contract.sol\":15500:15508  callData */\n      dup4\n        /* \"contracts/standard_contract.sol\":15481:15509  _tokenAddress.call(callData) */\n      mload(0x40)\n      tag_265\n      swap2\n      swap1\n      tag_229\n      jump\t// in\n    tag_265:\n      0x00\n      mload(0x40)\n      dup1\n      dup4\n      sub\n      dup2\n      0x00\n      dup7\n      gas\n      call\n      swap2\n      pop\n      pop\n      returndatasize\n      dup1\n      0x00\n      dup2\n      eq\n      tag_268\n      jumpi\n      mload(0x40)\n      swap2\n      pop\n      and(add(returndatasize, 0x3f), not(0x1f))\n      dup3\n      add\n      0x40\n      mstore\n      returndatasize\n      dup3\n      mstore\n      returndatasize\n      0x00\n      0x20\n      dup5\n      add\n      returndatacopy\n      jump(tag_267)\n    tag_268:\n      0x60\n      swap2\n      pop\n    tag_267:\n      pop\n        /* \"contracts/standard_contract.sol\":15439:15509  (bool success, bytes memory returnData) = _tokenAddress.call(callData) */\n      swap2\n      pop\n      swap2\n      pop\n        /* \"contracts/standard_contract.sol\":15526:15533  success */\n      dup2\n        /* \"contracts/standard_contract.sol\":15525:15533  !success */\n      iszero\n        /* \"contracts/standard_contract.sol\":15525:15596  !success || (returnData.length != 0 && !abi.decode(returnData, (bool))) */\n      dup1\n      tag_269\n      jumpi\n      pop\n        /* \"contracts/standard_contract.sol\":15559:15560  0 */\n      0x00\n        /* \"contracts/standard_contract.sol\":15538:15548  returnData */\n      dup2\n        /* \"contracts/standard_contract.sol\":15538:15555  returnData.length */\n      mload\n        /* \"contracts/standard_contract.sol\":15538:15560  returnData.length != 0 */\n      eq\n      iszero\n        /* \"contracts/standard_contract.sol\":15538:15595  returnData.length != 0 && !abi.decode(returnData, (bool)) */\n      dup1\n      iszero\n      tag_270\n      jumpi\n      pop\n        /* \"contracts/standard_contract.sol\":15576:15586  returnData */\n      dup1\n        /* \"contracts/standard_contract.sol\":15565:15595  abi.decode(returnData, (bool)) */\n      dup1\n      0x20\n      add\n      swap1\n      mload\n      dup2\n      add\n      swap1\n      tag_271\n      swap2\n      swap1\n      tag_236\n      jump\t// in\n    tag_271:\n        /* \"contracts/standard_contract.sol\":15564:15595  !abi.decode(returnData, (bool)) */\n      iszero\n        /* \"contracts/standard_contract.sol\":15538:15595  returnData.length != 0 && !abi.decode(returnData, (bool)) */\n    tag_270:\n        /* \"contracts/standard_contract.sol\":15525:15596  !success || (returnData.length != 0 && !abi.decode(returnData, (bool))) */\n    tag_269:\n        /* \"contracts/standard_contract.sol\":15522:15659  if(!success || (returnData.length != 0 && !abi.decode(returnData, (bool)))) {... */\n      iszero\n      tag_272\n      jumpi\n        /* \"contracts/standard_contract.sol\":15613:15647  revert(\"ERC777TokenTransferError\") */\n      mload(0x40)\n      0x08c379a000000000000000000000000000000000000000000000000000000000\n      dup2\n      mstore\n      0x04\n      add\n      tag_273\n      swap1\n      tag_274\n      jump\t// in\n    tag_273:\n      mload(0x40)\n      dup1\n      swap2\n      sub\n      swap1\n      revert\n        /* \"contracts/standard_contract.sol\":15522:15659  if(!success || (returnData.length != 0 && !abi.decode(returnData, (bool)))) {... */\n    tag_272:\n        /* \"contracts/standard_contract.sol\":15008:15666  {... */\n      pop\n      pop\n      pop\n        /* \"contracts/standard_contract.sol\":14892:15666  function withdrawERC777Tokens(address _tokenAddress, address _address, uint256 _value, bytes memory _data) internal {... */\n      pop\n      pop\n      pop\n      pop\n      jump\t// out\n        /* \"contracts/standard_contract.sol\":17702:17785  function setLocked(bool _isLocked) internal {... */\n    tag_185:\n        /* \"contracts/standard_contract.sol\":17768:17777  _isLocked */\n      dup1\n        /* \"contracts/standard_contract.sol\":17757:17765  lockFlag */\n      0x01\n      0x14\n        /* \"contracts/standard_contract.sol\":17757:17777  lockFlag = _isLocked */\n      0x0100\n      exp\n      dup2\n      sload\n      dup2\n      0xff\n      mul\n      not\n      and\n      swap1\n      dup4\n      iszero\n      iszero\n      mul\n      or\n      swap1\n      sstore\n      pop\n        /* \"contracts/standard_contract.sol\":17702:17785  function setLocked(bool _isLocked) internal {... */\n      pop\n      jump\t// out\n        /* \"contracts/standard_contract.sol\":14120:14884  function withdrawERC721Tokens(address _tokenAddress, uint256 _id, address _address) internal {... */\n    tag_190:\n        /* \"contracts/standard_contract.sol\":14448:14449  0 */\n      0x00\n        /* \"contracts/standard_contract.sol\":14419:14432  _tokenAddress */\n      dup4\n        /* \"contracts/standard_contract.sol\":14419:14444  _tokenAddress.code.length */\n      0xffffffffffffffffffffffffffffffffffffffff\n      and\n      extcodesize\n        /* \"contracts/standard_contract.sol\":14419:14449  _tokenAddress.code.length == 0 */\n      sub\n        /* \"contracts/standard_contract.sol\":14416:14512  if(_tokenAddress.code.length == 0) {... */\n      tag_277\n      jumpi\n        /* \"contracts/standard_contract.sol\":14466:14500  revert(\"ERC721TokenContractError\") */\n      mload(0x40)\n      0x08c379a000000000000000000000000000000000000000000000000000000000\n      dup2\n      mstore\n      0x04\n      add\n      tag_278\n      swap1\n      tag_279\n      jump\t// in\n    tag_278:\n      mload(0x40)\n      dup1\n      swap2\n      sub\n      swap1\n      revert\n        /* \"contracts/standard_contract.sol\":14416:14512  if(_tokenAddress.code.length == 0) {... */\n    tag_277:\n        /* \"contracts/standard_contract.sol\":14524:14545  bytes memory callData */\n      0x00\n        /* \"contracts/standard_contract.sol\":14571:14615  IERC721(_tokenAddress).transferFrom.selector */\n      shl(0xe0, 0x23b872dd)\n        /* \"contracts/standard_contract.sol\":14625:14629  this */\n      address\n        /* \"contracts/standard_contract.sol\":14632:14640  _address */\n      dup4\n        /* \"contracts/standard_contract.sol\":14642:14645  _id */\n      dup6\n        /* \"contracts/standard_contract.sol\":14548:14646  abi.encodeWithSelector(IERC721(_tokenAddress).transferFrom.selector, address(this), _address, _id) */\n      add(0x24, mload(0x40))\n      tag_280\n      swap4\n      swap3\n      swap2\n      swap1\n      tag_281\n      jump\t// in\n    tag_280:\n      mload(0x40)\n      0x20\n      dup2\n      dup4\n      sub\n      sub\n      dup2\n      mstore\n      swap1\n      0x40\n      mstore\n      swap1\n      not(0xffffffffffffffffffffffffffffffffffffffffffffffffffffffff)\n      and\n      0x20\n      dup3\n      add\n      dup1\n      mload\n      0xffffffffffffffffffffffffffffffffffffffffffffffffffffffff\n      dup4\n      dup2\n      dup4\n      and\n      or\n      dup4\n      mstore\n      pop\n      pop\n      pop\n      pop\n        /* \"contracts/standard_contract.sol\":14524:14646  bytes memory callData = abi.encodeWithSelector(IERC721(_tokenAddress).transferFrom.selector, address(this), _address, _id) */\n      swap1\n      pop\n        /* \"contracts/standard_contract.sol\":14658:14670  bool success */\n      0x00\n        /* \"contracts/standard_contract.sol\":14672:14695  bytes memory returnData */\n      dup1\n        /* \"contracts/standard_contract.sol\":14699:14712  _tokenAddress */\n      dup6\n        /* \"contracts/standard_contract.sol\":14699:14717  _tokenAddress.call */\n      0xffffffffffffffffffffffffffffffffffffffff\n      and\n        /* \"contracts/standard_contract.sol\":14718:14726  callData */\n      dup4\n        /* \"contracts/standard_contract.sol\":14699:14727  _tokenAddress.call(callData) */\n      mload(0x40)\n      tag_282\n      swap2\n      swap1\n      tag_229\n      jump\t// in\n    tag_282:\n      0x00\n      mload(0x40)\n      dup1\n      dup4\n      sub\n      dup2\n      0x00\n      dup7\n      gas\n      call\n      swap2\n      pop\n      pop\n      returndatasize\n      dup1\n      0x00\n      dup2\n      eq\n      tag_285\n      jumpi\n      mload(0x40)\n      swap2\n      pop\n      and(add(returndatasize, 0x3f), not(0x1f))\n      dup3\n      add\n      0x40\n      mstore\n      returndatasize\n      dup3\n      mstore\n      returndatasize\n      0x00\n      0x20\n      dup5\n      add\n      returndatacopy\n      jump(tag_284)\n    tag_285:\n      0x60\n      swap2\n      pop\n    tag_284:\n      pop\n        /* \"contracts/standard_contract.sol\":14657:14727  (bool success, bytes memory returnData) = _tokenAddress.call(callData) */\n      swap2\n      pop\n      swap2\n      pop\n        /* \"contracts/standard_contract.sol\":14744:14751  success */\n      dup2\n        /* \"contracts/standard_contract.sol\":14743:14751  !success */\n      iszero\n        /* \"contracts/standard_contract.sol\":14743:14814  !success || (returnData.length != 0 && !abi.decode(returnData, (bool))) */\n      dup1\n      tag_286\n      jumpi\n      pop\n        /* \"contracts/standard_contract.sol\":14777:14778  0 */\n      0x00\n        /* \"contracts/standard_contract.sol\":14756:14766  returnData */\n      dup2\n        /* \"contracts/standard_contract.sol\":14756:14773  returnData.length */\n      mload\n        /* \"contracts/standard_contract.sol\":14756:14778  returnData.length != 0 */\n      eq\n      iszero\n        /* \"contracts/standard_contract.sol\":14756:14813  returnData.length != 0 && !abi.decode(returnData, (bool)) */\n      dup1\n      iszero\n      tag_287\n      jumpi\n      pop\n        /* \"contracts/standard_contract.sol\":14794:14804  returnData */\n      dup1\n        /* \"contracts/standard_contract.sol\":14783:14813  abi.decode(returnData, (bool)) */\n      dup1\n      0x20\n      add\n      swap1\n      mload\n      dup2\n      add\n      swap1\n      tag_288\n      swap2\n      swap1\n      tag_236\n      jump\t// in\n    tag_288:\n        /* \"contracts/standard_contract.sol\":14782:14813  !abi.decode(returnData, (bool)) */\n      iszero\n        /* \"contracts/standard_contract.sol\":14756:14813  returnData.length != 0 && !abi.decode(returnData, (bool)) */\n    tag_287:\n        /* \"contracts/standard_contract.sol\":14743:14814  !success || (returnData.length != 0 && !abi.decode(returnData, (bool))) */\n    tag_286:\n        /* \"contracts/standard_contract.sol\":14740:14877  if(!success || (returnData.length != 0 && !abi.decode(returnData, (bool)))) {... */\n      iszero\n      tag_289\n      jumpi\n        /* \"contracts/standard_contract.sol\":14831:14865  revert(\"ERC721TokenTransferError\") */\n      mload(0x40)\n      0x08c379a000000000000000000000000000000000000000000000000000000000\n      dup2\n      mstore\n      0x04\n      add\n      tag_290\n      swap1\n      tag_291\n      jump\t// in\n    tag_290:\n      mload(0x40)\n      dup1\n      swap2\n      sub\n      swap1\n      revert\n        /* \"contracts/standard_contract.sol\":14740:14877  if(!success || (returnData.length != 0 && !abi.decode(returnData, (bool)))) {... */\n    tag_289:\n        /* \"contracts/standard_contract.sol\":14213:14884  {... */\n      pop\n      pop\n      pop\n        /* \"contracts/standard_contract.sol\":14120:14884  function withdrawERC721Tokens(address _tokenAddress, uint256 _id, address _address) internal {... */\n      pop\n      pop\n      pop\n      jump\t// out\n        /* \"contracts/standard_contract.sol\":17538:17653  function getOwnerSuccessorAddress() internal view returns (address) {... */\n    tag_195:\n        /* \"contracts/standard_contract.sol\":17597:17604  address */\n      0x00\n        /* \"contracts/standard_contract.sol\":17624:17645  ownerSuccessorAddress */\n      0x01\n      0x00\n      swap1\n      sload\n      swap1\n      0x0100\n      exp\n      swap1\n      div\n      0xffffffffffffffffffffffffffffffffffffffff\n      and\n        /* \"contracts/standard_contract.sol\":17617:17645  return ownerSuccessorAddress */\n      swap1\n      pop\n        /* \"contracts/standard_contract.sol\":17538:17653  function getOwnerSuccessorAddress() internal view returns (address) {... */\n      swap1\n      jump\t// out\n        /* \"contracts/standard_contract.sol\":13080:13184  function offerOwnerRole(address _address) internal {... */\n    tag_200:\n        /* \"contracts/standard_contract.sol\":13142:13176  setOwnerSuccessorAddress(_address) */\n      tag_294\n        /* \"contracts/standard_contract.sol\":13167:13175  _address */\n      dup2\n        /* \"contracts/standard_contract.sol\":13142:13166  setOwnerSuccessorAddress */\n      tag_295\n        /* \"contracts/standard_contract.sol\":13142:13176  setOwnerSuccessorAddress(_address) */\n      jump\t// in\n    tag_294:\n        /* \"contracts/standard_contract.sol\":13080:13184  function offerOwnerRole(address _address) internal {... */\n      pop\n      jump\t// out\n        /* \"contracts/standard_contract.sol\":15674:16497  function withdrawERC1155Tokens(address _tokenAddress, uint256 _id, address _address, uint256 _value, bytes memory _data) internal {... */\n    tag_208:\n        /* \"contracts/standard_contract.sol\":16039:16040  0 */\n      0x00\n        /* \"contracts/standard_contract.sol\":16010:16023  _tokenAddress */\n      dup6\n        /* \"contracts/standard_contract.sol\":16010:16035  _tokenAddress.code.length */\n      0xffffffffffffffffffffffffffffffffffffffff\n      and\n      extcodesize\n        /* \"contracts/standard_contract.sol\":16010:16040  _tokenAddress.code.length == 0 */\n      sub\n        /* \"contracts/standard_contract.sol\":16007:16104  if(_tokenAddress.code.length == 0) {... */\n      tag_297\n      jumpi\n        /* \"contracts/standard_contract.sol\":16057:16092  revert(\"ERC1155TokenContractError\") */\n      mload(0x40)\n      0x08c379a000000000000000000000000000000000000000000000000000000000\n      dup2\n      mstore\n      0x04\n      add\n      tag_298\n      swap1\n      tag_299\n      jump\t// in\n    tag_298:\n      mload(0x40)\n      dup1\n      swap2\n      sub\n      swap1\n      revert\n        /* \"contracts/standard_contract.sol\":16007:16104  if(_tokenAddress.code.length == 0) {... */\n    tag_297:\n        /* \"contracts/standard_contract.sol\":16116:16137  bytes memory callData */\n      0x00\n        /* \"contracts/standard_contract.sol\":16163:16212  IERC1155(_tokenAddress).safeTransferFrom.selector */\n      shl(0xe0, 0xf242432a)\n        /* \"contracts/standard_contract.sol\":16222:16226  this */\n      address\n        /* \"contracts/standard_contract.sol\":16229:16237  _address */\n      dup6\n        /* \"contracts/standard_contract.sol\":16239:16242  _id */\n      dup8\n        /* \"contracts/standard_contract.sol\":16244:16250  _value */\n      dup7\n        /* \"contracts/standard_contract.sol\":16252:16257  _data */\n      dup7\n        /* \"contracts/standard_contract.sol\":16140:16258  abi.encodeWithSelector(IERC1155(_tokenAddress).safeTransferFrom.selector, address(this), _address, _id, _value, _data) */\n      add(0x24, mload(0x40))\n      tag_300\n      swap6\n      swap5\n      swap4\n      swap3\n      swap2\n      swap1\n      tag_301\n      jump\t// in\n    tag_300:\n      mload(0x40)\n      0x20\n      dup2\n      dup4\n      sub\n      sub\n      dup2\n      mstore\n      swap1\n      0x40\n      mstore\n      swap1\n      not(0xffffffffffffffffffffffffffffffffffffffffffffffffffffffff)\n      and\n      0x20\n      dup3\n      add\n      dup1\n      mload\n      0xffffffffffffffffffffffffffffffffffffffffffffffffffffffff\n      dup4\n      dup2\n      dup4\n      and\n      or\n      dup4\n      mstore\n      pop\n      pop\n      pop\n      pop\n        /* \"contracts/standard_contract.sol\":16116:16258  bytes memory callData = abi.encodeWithSelector(IERC1155(_tokenAddress).safeTransferFrom.selector, address(this), _address, _id, _value, _data) */\n      swap1\n      pop\n        /* \"contracts/standard_contract.sol\":16270:16282  bool success */\n      0x00\n        /* \"contracts/standard_contract.sol\":16284:16307  bytes memory returnData */\n      dup1\n        /* \"contracts/standard_contract.sol\":16311:16324  _tokenAddress */\n      dup8\n        /* \"contracts/standard_contract.sol\":16311:16329  _tokenAddress.call */\n      0xffffffffffffffffffffffffffffffffffffffff\n      and\n        /* \"contracts/standard_contract.sol\":16330:16338  callData */\n      dup4\n        /* \"contracts/standard_contract.sol\":16311:16339  _tokenAddress.call(callData) */\n      mload(0x40)\n      tag_302\n      swap2\n      swap1\n      tag_229\n      jump\t// in\n    tag_302:\n      0x00\n      mload(0x40)\n      dup1\n      dup4\n      sub\n      dup2\n      0x00\n      dup7\n      gas\n      call\n      swap2\n      pop\n      pop\n      returndatasize\n      dup1\n      0x00\n      dup2\n      eq\n      tag_305\n      jumpi\n      mload(0x40)\n      swap2\n      pop\n      and(add(returndatasize, 0x3f), not(0x1f))\n      dup3\n      add\n      0x40\n      mstore\n      returndatasize\n      dup3\n      mstore\n      returndatasize\n      0x00\n      0x20\n      dup5\n      add\n      returndatacopy\n      jump(tag_304)\n    tag_305:\n      0x60\n      swap2\n      pop\n    tag_304:\n      pop\n        /* \"contracts/standard_contract.sol\":16269:16339  (bool success, bytes memory returnData) = _tokenAddress.call(callData) */\n      swap2\n      pop\n      swap2\n      pop\n        /* \"contracts/standard_contract.sol\":16356:16363  success */\n      dup2\n        /* \"contracts/standard_contract.sol\":16355:16363  !success */\n      iszero\n        /* \"contracts/standard_contract.sol\":16355:16426  !success || (returnData.length != 0 && !abi.decode(returnData, (bool))) */\n      dup1\n      tag_306\n      jumpi\n      pop\n        /* \"contracts/standard_contract.sol\":16389:16390  0 */\n      0x00\n        /* \"contracts/standard_contract.sol\":16368:16378  returnData */\n      dup2\n        /* \"contracts/standard_contract.sol\":16368:16385  returnData.length */\n      mload\n        /* \"contracts/standard_contract.sol\":16368:16390  returnData.length != 0 */\n      eq\n      iszero\n        /* \"contracts/standard_contract.sol\":16368:16425  returnData.length != 0 && !abi.decode(returnData, (bool)) */\n      dup1\n      iszero\n      tag_307\n      jumpi\n      pop\n        /* \"contracts/standard_contract.sol\":16406:16416  returnData */\n      dup1\n        /* \"contracts/standard_contract.sol\":16395:16425  abi.decode(returnData, (bool)) */\n      dup1\n      0x20\n      add\n      swap1\n      mload\n      dup2\n      add\n      swap1\n      tag_308\n      swap2\n      swap1\n      tag_236\n      jump\t// in\n    tag_308:\n        /* \"contracts/standard_contract.sol\":16394:16425  !abi.decode(returnData, (bool)) */\n      iszero\n        /* \"contracts/standard_contract.sol\":16368:16425  returnData.length != 0 && !abi.decode(returnData, (bool)) */\n    tag_307:\n        /* \"contracts/standard_contract.sol\":16355:16426  !success || (returnData.length != 0 && !abi.decode(returnData, (bool))) */\n    tag_306:\n        /* \"contracts/standard_contract.sol\":16352:16490  if(!success || (returnData.length != 0 && !abi.decode(returnData, (bool)))) {... */\n      iszero\n      tag_309\n      jumpi\n        /* \"contracts/standard_contract.sol\":16443:16478  revert(\"ERC1155TokenTransferError\") */\n      mload(0x40)\n      0x08c379a000000000000000000000000000000000000000000000000000000000\n      dup2\n      mstore\n      0x04\n      add\n      tag_310\n      swap1\n      tag_311\n      jump\t// in\n    tag_310:\n      mload(0x40)\n      dup1\n      swap2\n      sub\n      swap1\n      revert\n        /* \"contracts/standard_contract.sol\":16352:16490  if(!success || (returnData.length != 0 && !abi.decode(returnData, (bool)))) {... */\n    tag_309:\n        /* \"contracts/standard_contract.sol\":15804:16497  {... */\n      pop\n      pop\n      pop\n        /* \"contracts/standard_contract.sol\":15674:16497  function withdrawERC1155Tokens(address _tokenAddress, uint256 _id, address _address, uint256 _value, bytes memory _data) internal {... */\n      pop\n      pop\n      pop\n      pop\n      pop\n      jump\t// out\n        /* \"contracts/standard_contract.sol\":18791:19017  function punish() internal pure {... */\n    tag_214:\n        /* \"contracts/standard_contract.sol\":18999:19008  invalid() */\n      invalid\n        /* \"contracts/standard_contract.sol\":17797:18002  function setOwnerAddress(address _address) internal {... */\n    tag_252:\n        /* \"contracts/standard_contract.sol\":17875:17887  ownerAddress */\n      0x00\n      dup1\n      sload\n      swap1\n      0x0100\n      exp\n      swap1\n      div\n      0xffffffffffffffffffffffffffffffffffffffff\n      and\n        /* \"contracts/standard_contract.sol\":17863:17887  _address != ownerAddress */\n      0xffffffffffffffffffffffffffffffffffffffff\n      and\n        /* \"contracts/standard_contract.sol\":17863:17871  _address */\n      dup2\n        /* \"contracts/standard_contract.sol\":17863:17887  _address != ownerAddress */\n      0xffffffffffffffffffffffffffffffffffffffff\n      and\n      eq\n        /* \"contracts/standard_contract.sol\":17860:17995  if(_address != ownerAddress) {... */\n      tag_314\n      jumpi\n        /* \"contracts/standard_contract.sol\":17936:17944  _address */\n      dup1\n        /* \"contracts/standard_contract.sol\":17909:17945  OwnerChanged(ownerAddress, _address) */\n      0xffffffffffffffffffffffffffffffffffffffff\n      and\n        /* \"contracts/standard_contract.sol\":17922:17934  ownerAddress */\n      0x00\n      dup1\n      sload\n      swap1\n      0x0100\n      exp\n      swap1\n      div\n      0xffffffffffffffffffffffffffffffffffffffff\n      and\n        /* \"contracts/standard_contract.sol\":17909:17945  OwnerChanged(ownerAddress, _address) */\n      0xffffffffffffffffffffffffffffffffffffffff\n      and\n      0xb532073b38c83145e3e5135377a08bf9aab55bc0fd7c1179cd4fb995d2a5159c\n      mload(0x40)\n      mload(0x40)\n      dup1\n      swap2\n      sub\n      swap1\n      log3\n        /* \"contracts/standard_contract.sol\":17975:17983  _address */\n      dup1\n        /* \"contracts/standard_contract.sol\":17960:17972  ownerAddress */\n      0x00\n      dup1\n        /* \"contracts/standard_contract.sol\":17960:17983  ownerAddress = _address */\n      0x0100\n      exp\n      dup2\n      sload\n      dup2\n      0xffffffffffffffffffffffffffffffffffffffff\n      mul\n      not\n      and\n      swap1\n      dup4\n      0xffffffffffffffffffffffffffffffffffffffff\n      and\n      mul\n      or\n      swap1\n      sstore\n      pop\n        /* \"contracts/standard_contract.sol\":17860:17995  if(_address != ownerAddress) {... */\n    tag_314:\n        /* \"contracts/standard_contract.sol\":17797:18002  function setOwnerAddress(address _address) internal {... */\n      pop\n      jump\t// out\n        /* \"contracts/standard_contract.sol\":18010:18122  function setOwnerSuccessorAddress(address _address) internal {... */\n    tag_295:\n        /* \"contracts/standard_contract.sol\":18106:18114  _address */\n      dup1\n        /* \"contracts/standard_contract.sol\":18082:18103  ownerSuccessorAddress */\n      0x01\n      0x00\n        /* \"contracts/standard_contract.sol\":18082:18114  ownerSuccessorAddress = _address */\n      0x0100\n      exp\n      dup2\n      sload\n      dup2\n      0xffffffffffffffffffffffffffffffffffffffff\n      mul\n      not\n      and\n      swap1\n      dup4\n      0xffffffffffffffffffffffffffffffffffffffff\n      and\n      mul\n      or\n      swap1\n      sstore\n      pop\n        /* \"contracts/standard_contract.sol\":18010:18122  function setOwnerSuccessorAddress(address _address) internal {... */\n      pop\n      jump\t// out\n        /* \"#utility.yul\":7:82   */\n    tag_316:\n        /* \"#utility.yul\":40:46   */\n      0x00\n        /* \"#utility.yul\":73:75   */\n      0x40\n        /* \"#utility.yul\":67:76   */\n      mload\n        /* \"#utility.yul\":57:76   */\n      swap1\n      pop\n        /* \"#utility.yul\":7:82   */\n      swap1\n      jump\t// out\n        /* \"#utility.yul\":88:205   */\n    tag_317:\n        /* \"#utility.yul\":197:198   */\n      0x00\n        /* \"#utility.yul\":194:195   */\n      dup1\n        /* \"#utility.yul\":187:199   */\n      revert\n        /* \"#utility.yul\":211:328   */\n    tag_318:\n        /* \"#utility.yul\":320:321   */\n      0x00\n        /* \"#utility.yul\":317:318   */\n      dup1\n        /* \"#utility.yul\":310:322   */\n      revert\n        /* \"#utility.yul\":334:460   */\n    tag_319:\n        /* \"#utility.yul\":371:378   */\n      0x00\n        /* \"#utility.yul\":411:453   */\n      0xffffffffffffffffffffffffffffffffffffffff\n        /* \"#utility.yul\":404:409   */\n      dup3\n        /* \"#utility.yul\":400:454   */\n      and\n        /* \"#utility.yul\":389:454   */\n      swap1\n      pop\n        /* \"#utility.yul\":334:460   */\n      swap2\n      swap1\n      pop\n      jump\t// out\n        /* \"#utility.yul\":466:562   */\n    tag_320:\n        /* \"#utility.yul\":503:510   */\n      0x00\n        /* \"#utility.yul\":532:556   */\n      tag_385\n        /* \"#utility.yul\":550:555   */\n      dup3\n        /* \"#utility.yul\":532:556   */\n      tag_319\n      jump\t// in\n    tag_385:\n        /* \"#utility.yul\":521:556   */\n      swap1\n      pop\n        /* \"#utility.yul\":466:562   */\n      swap2\n      swap1\n      pop\n      jump\t// out\n        /* \"#utility.yul\":568:690   */\n    tag_321:\n        /* \"#utility.yul\":641:665   */\n      tag_387\n        /* \"#utility.yul\":659:664   */\n      dup2\n        /* \"#utility.yul\":641:665   */\n      tag_320\n      jump\t// in\n    tag_387:\n        /* \"#utility.yul\":634:639   */\n      dup2\n        /* \"#utility.yul\":631:666   */\n      eq\n        /* \"#utility.yul\":621:684   */\n      tag_388\n      jumpi\n        /* \"#utility.yul\":680:681   */\n      0x00\n        /* \"#utility.yul\":677:678   */\n      dup1\n        /* \"#utility.yul\":670:682   */\n      revert\n        /* \"#utility.yul\":621:684   */\n    tag_388:\n        /* \"#utility.yul\":568:690   */\n      pop\n      jump\t// out\n        /* \"#utility.yul\":696:835   */\n    tag_322:\n        /* \"#utility.yul\":742:747   */\n      0x00\n        /* \"#utility.yul\":780:786   */\n      dup2\n        /* \"#utility.yul\":767:787   */\n      calldataload\n        /* \"#utility.yul\":758:787   */\n      swap1\n      pop\n        /* \"#utility.yul\":796:829   */\n      tag_390\n        /* \"#utility.yul\":823:828   */\n      dup2\n        /* \"#utility.yul\":796:829   */\n      tag_321\n      jump\t// in\n    tag_390:\n        /* \"#utility.yul\":696:835   */\n      swap3\n      swap2\n      pop\n      pop\n      jump\t// out\n        /* \"#utility.yul\":841:918   */\n    tag_323:\n        /* \"#utility.yul\":878:885   */\n      0x00\n        /* \"#utility.yul\":907:912   */\n      dup2\n        /* \"#utility.yul\":896:912   */\n      swap1\n      pop\n        /* \"#utility.yul\":841:918   */\n      swap2\n      swap1\n      pop\n      jump\t// out\n        /* \"#utility.yul\":924:1046   */\n    tag_324:\n        /* \"#utility.yul\":997:1021   */\n      tag_393\n        /* \"#utility.yul\":1015:1020   */\n      dup2\n        /* \"#utility.yul\":997:1021   */\n      tag_323\n      jump\t// in\n    tag_393:\n        /* \"#utility.yul\":990:995   */\n      dup2\n        /* \"#utility.yul\":987:1022   */\n      eq\n        /* \"#utility.yul\":977:1040   */\n      tag_394\n      jumpi\n        /* \"#utility.yul\":1036:1037   */\n      0x00\n        /* \"#utility.yul\":1033:1034   */\n      dup1\n        /* \"#utility.yul\":1026:1038   */\n      revert\n        /* \"#utility.yul\":977:1040   */\n    tag_394:\n        /* \"#utility.yul\":924:1046   */\n      pop\n      jump\t// out\n        /* \"#utility.yul\":1052:1191   */\n    tag_325:\n        /* \"#utility.yul\":1098:1103   */\n      0x00\n        /* \"#utility.yul\":1136:1142   */\n      dup2\n        /* \"#utility.yul\":1123:1143   */\n      calldataload\n        /* \"#utility.yul\":1114:1143   */\n      swap1\n      pop\n        /* \"#utility.yul\":1152:1185   */\n      tag_396\n        /* \"#utility.yul\":1179:1184   */\n      dup2\n        /* \"#utility.yul\":1152:1185   */\n      tag_324\n      jump\t// in\n    tag_396:\n        /* \"#utility.yul\":1052:1191   */\n      swap3\n      swap2\n      pop\n      pop\n      jump\t// out\n        /* \"#utility.yul\":1197:1314   */\n    tag_326:\n        /* \"#utility.yul\":1306:1307   */\n      0x00\n        /* \"#utility.yul\":1303:1304   */\n      dup1\n        /* \"#utility.yul\":1296:1308   */\n      revert\n        /* \"#utility.yul\":1320:1437   */\n    tag_327:\n        /* \"#utility.yul\":1429:1430   */\n      0x00\n        /* \"#utility.yul\":1426:1427   */\n      dup1\n        /* \"#utility.yul\":1419:1431   */\n      revert\n        /* \"#utility.yul\":1443:1560   */\n    tag_328:\n        /* \"#utility.yul\":1552:1553   */\n      0x00\n        /* \"#utility.yul\":1549:1550   */\n      dup1\n        /* \"#utility.yul\":1542:1554   */\n      revert\n        /* \"#utility.yul\":1579:2131   */\n    tag_329:\n        /* \"#utility.yul\":1636:1644   */\n      0x00\n        /* \"#utility.yul\":1646:1652   */\n      dup1\n        /* \"#utility.yul\":1696:1699   */\n      dup4\n        /* \"#utility.yul\":1689:1693   */\n      0x1f\n        /* \"#utility.yul\":1681:1687   */\n      dup5\n        /* \"#utility.yul\":1677:1694   */\n      add\n        /* \"#utility.yul\":1673:1700   */\n      slt\n        /* \"#utility.yul\":1663:1785   */\n      tag_401\n      jumpi\n        /* \"#utility.yul\":1704:1783   */\n      tag_402\n      tag_326\n      jump\t// in\n    tag_402:\n        /* \"#utility.yul\":1663:1785   */\n    tag_401:\n        /* \"#utility.yul\":1817:1823   */\n      dup3\n        /* \"#utility.yul\":1804:1824   */\n      calldataload\n        /* \"#utility.yul\":1794:1824   */\n      swap1\n      pop\n        /* \"#utility.yul\":1847:1865   */\n      0xffffffffffffffff\n        /* \"#utility.yul\":1839:1845   */\n      dup2\n        /* \"#utility.yul\":1836:1866   */\n      gt\n        /* \"#utility.yul\":1833:1950   */\n      iszero\n      tag_403\n      jumpi\n        /* \"#utility.yul\":1869:1948   */\n      tag_404\n      tag_327\n      jump\t// in\n    tag_404:\n        /* \"#utility.yul\":1833:1950   */\n    tag_403:\n        /* \"#utility.yul\":1983:1987   */\n      0x20\n        /* \"#utility.yul\":1975:1981   */\n      dup4\n        /* \"#utility.yul\":1971:1988   */\n      add\n        /* \"#utility.yul\":1959:1988   */\n      swap2\n      pop\n        /* \"#utility.yul\":2037:2040   */\n      dup4\n        /* \"#utility.yul\":2029:2033   */\n      0x01\n        /* \"#utility.yul\":2021:2027   */\n      dup3\n        /* \"#utility.yul\":2017:2034   */\n      mul\n        /* \"#utility.yul\":2007:2015   */\n      dup4\n        /* \"#utility.yul\":2003:2035   */\n      add\n        /* \"#utility.yul\":2000:2041   */\n      gt\n        /* \"#utility.yul\":1997:2125   */\n      iszero\n      tag_405\n      jumpi\n        /* \"#utility.yul\":2044:2123   */\n      tag_406\n      tag_328\n      jump\t// in\n    tag_406:\n        /* \"#utility.yul\":1997:2125   */\n    tag_405:\n        /* \"#utility.yul\":1579:2131   */\n      swap3\n      pop\n      swap3\n      swap1\n      pop\n      jump\t// out\n        /* \"#utility.yul\":2137:3590   */\n    tag_29:\n        /* \"#utility.yul\":2263:2269   */\n      0x00\n        /* \"#utility.yul\":2271:2277   */\n      dup1\n        /* \"#utility.yul\":2279:2285   */\n      0x00\n        /* \"#utility.yul\":2287:2293   */\n      dup1\n        /* \"#utility.yul\":2295:2301   */\n      0x00\n        /* \"#utility.yul\":2303:2309   */\n      dup1\n        /* \"#utility.yul\":2311:2317   */\n      0x00\n        /* \"#utility.yul\":2319:2325   */\n      dup1\n        /* \"#utility.yul\":2368:2371   */\n      0xc0\n        /* \"#utility.yul\":2356:2365   */\n      dup10\n        /* \"#utility.yul\":2347:2354   */\n      dup12\n        /* \"#utility.yul\":2343:2366   */\n      sub\n        /* \"#utility.yul\":2339:2372   */\n      slt\n        /* \"#utility.yul\":2336:2456   */\n      iszero\n      tag_408\n      jumpi\n        /* \"#utility.yul\":2375:2454   */\n      tag_409\n      tag_317\n      jump\t// in\n    tag_409:\n        /* \"#utility.yul\":2336:2456   */\n    tag_408:\n        /* \"#utility.yul\":2495:2496   */\n      0x00\n        /* \"#utility.yul\":2520:2573   */\n      tag_410\n        /* \"#utility.yul\":2565:2572   */\n      dup12\n        /* \"#utility.yul\":2556:2562   */\n      dup3\n        /* \"#utility.yul\":2545:2554   */\n      dup13\n        /* \"#utility.yul\":2541:2563   */\n      add\n        /* \"#utility.yul\":2520:2573   */\n      tag_322\n      jump\t// in\n    tag_410:\n        /* \"#utility.yul\":2510:2573   */\n      swap9\n      pop\n        /* \"#utility.yul\":2466:2583   */\n      pop\n        /* \"#utility.yul\":2622:2624   */\n      0x20\n        /* \"#utility.yul\":2648:2701   */\n      tag_411\n        /* \"#utility.yul\":2693:2700   */\n      dup12\n        /* \"#utility.yul\":2684:2690   */\n      dup3\n        /* \"#utility.yul\":2673:2682   */\n      dup13\n        /* \"#utility.yul\":2669:2691   */\n      add\n        /* \"#utility.yul\":2648:2701   */\n      tag_322\n      jump\t// in\n    tag_411:\n        /* \"#utility.yul\":2638:2701   */\n      swap8\n      pop\n        /* \"#utility.yul\":2593:2711   */\n      pop\n        /* \"#utility.yul\":2750:2752   */\n      0x40\n        /* \"#utility.yul\":2776:2829   */\n      tag_412\n        /* \"#utility.yul\":2821:2828   */\n      dup12\n        /* \"#utility.yul\":2812:2818   */\n      dup3\n        /* \"#utility.yul\":2801:2810   */\n      dup13\n        /* \"#utility.yul\":2797:2819   */\n      add\n        /* \"#utility.yul\":2776:2829   */\n      tag_322\n      jump\t// in\n    tag_412:\n        /* \"#utility.yul\":2766:2829   */\n      swap7\n      pop\n        /* \"#utility.yul\":2721:2839   */\n      pop\n        /* \"#utility.yul\":2878:2880   */\n      0x60\n        /* \"#utility.yul\":2904:2957   */\n      tag_413\n        /* \"#utility.yul\":2949:2956   */\n      dup12\n        /* \"#utility.yul\":2940:2946   */\n      dup3\n        /* \"#utility.yul\":2929:2938   */\n      dup13\n        /* \"#utility.yul\":2925:2947   */\n      add\n        /* \"#utility.yul\":2904:2957   */\n      tag_325\n      jump\t// in\n    tag_413:\n        /* \"#utility.yul\":2894:2957   */\n      swap6\n      pop\n        /* \"#utility.yul\":2849:2967   */\n      pop\n        /* \"#utility.yul\":3034:3037   */\n      0x80\n        /* \"#utility.yul\":3023:3032   */\n      dup10\n        /* \"#utility.yul\":3019:3038   */\n      add\n        /* \"#utility.yul\":3006:3039   */\n      calldataload\n        /* \"#utility.yul\":3066:3084   */\n      0xffffffffffffffff\n        /* \"#utility.yul\":3058:3064   */\n      dup2\n        /* \"#utility.yul\":3055:3085   */\n      gt\n        /* \"#utility.yul\":3052:3169   */\n      iszero\n      tag_414\n      jumpi\n        /* \"#utility.yul\":3088:3167   */\n      tag_415\n      tag_318\n      jump\t// in\n    tag_415:\n        /* \"#utility.yul\":3052:3169   */\n    tag_414:\n        /* \"#utility.yul\":3201:3265   */\n      tag_416\n        /* \"#utility.yul\":3257:3264   */\n      dup12\n        /* \"#utility.yul\":3248:3254   */\n      dup3\n        /* \"#utility.yul\":3237:3246   */\n      dup13\n        /* \"#utility.yul\":3233:3255   */\n      add\n        /* \"#utility.yul\":3201:3265   */\n      tag_329\n      jump\t// in\n    tag_416:\n        /* \"#utility.yul\":3183:3265   */\n      swap5\n      pop\n      swap5\n      pop\n        /* \"#utility.yul\":2977:3275   */\n      pop\n        /* \"#utility.yul\":3342:3345   */\n      0xa0\n        /* \"#utility.yul\":3331:3340   */\n      dup10\n        /* \"#utility.yul\":3327:3346   */\n      add\n        /* \"#utility.yul\":3314:3347   */\n      calldataload\n        /* \"#utility.yul\":3374:3392   */\n      0xffffffffffffffff\n        /* \"#utility.yul\":3366:3372   */\n      dup2\n        /* \"#utility.yul\":3363:3393   */\n      gt\n        /* \"#utility.yul\":3360:3477   */\n      iszero\n      tag_417\n      jumpi\n        /* \"#utility.yul\":3396:3475   */\n      tag_418\n      tag_318\n      jump\t// in\n    tag_418:\n        /* \"#utility.yul\":3360:3477   */\n    tag_417:\n        /* \"#utility.yul\":3509:3573   */\n      tag_419\n        /* \"#utility.yul\":3565:3572   */\n      dup12\n        /* \"#utility.yul\":3556:3562   */\n      dup3\n        /* \"#utility.yul\":3545:3554   */\n      dup13\n        /* \"#utility.yul\":3541:3563   */\n      add\n        /* \"#utility.yul\":3509:3573   */\n      tag_329\n      jump\t// in\n    tag_419:\n        /* \"#utility.yul\":3491:3573   */\n      swap3\n      pop\n      swap3\n      pop\n        /* \"#utility.yul\":3285:3583   */\n      pop\n        /* \"#utility.yul\":2137:3590   */\n      swap3\n      swap6\n      swap9\n      pop\n      swap3\n      swap6\n      swap9\n      swap1\n      swap4\n      swap7\n      pop\n      jump\t// out\n        /* \"#utility.yul\":3596:3745   */\n    tag_330:\n        /* \"#utility.yul\":3632:3639   */\n      0x00\n        /* \"#utility.yul\":3672:3738   */\n      0xffffffff00000000000000000000000000000000000000000000000000000000\n        /* \"#utility.yul\":3665:3670   */\n      dup3\n        /* \"#utility.yul\":3661:3739   */\n      and\n        /* \"#utility.yul\":3650:3739   */\n      swap1\n      pop\n        /* \"#utility.yul\":3596:3745   */\n      swap2\n      swap1\n      pop\n      jump\t// out\n        /* \"#utility.yul\":3751:3871   */\n    tag_331:\n        /* \"#utility.yul\":3823:3846   */\n      tag_422\n        /* \"#utility.yul\":3840:3845   */\n      dup2\n        /* \"#utility.yul\":3823:3846   */\n      tag_330\n      jump\t// in\n    tag_422:\n        /* \"#utility.yul\":3816:3821   */\n      dup2\n        /* \"#utility.yul\":3813:3847   */\n      eq\n        /* \"#utility.yul\":3803:3865   */\n      tag_423\n      jumpi\n        /* \"#utility.yul\":3861:3862   */\n      0x00\n        /* \"#utility.yul\":3858:3859   */\n      dup1\n        /* \"#utility.yul\":3851:3863   */\n      revert\n        /* \"#utility.yul\":3803:3865   */\n    tag_423:\n        /* \"#utility.yul\":3751:3871   */\n      pop\n      jump\t// out\n        /* \"#utility.yul\":3877:4014   */\n    tag_332:\n        /* \"#utility.yul\":3922:3927   */\n      0x00\n        /* \"#utility.yul\":3960:3966   */\n      dup2\n        /* \"#utility.yul\":3947:3967   */\n      calldataload\n        /* \"#utility.yul\":3938:3967   */\n      swap1\n      pop\n        /* \"#utility.yul\":3976:4008   */\n      tag_425\n        /* \"#utility.yul\":4002:4007   */\n      dup2\n        /* \"#utility.yul\":3976:4008   */\n      tag_331\n      jump\t// in\n    tag_425:\n        /* \"#utility.yul\":3877:4014   */\n      swap3\n      swap2\n      pop\n      pop\n      jump\t// out\n        /* \"#utility.yul\":4020:4347   */\n    tag_34:\n        /* \"#utility.yul\":4078:4084   */\n      0x00\n        /* \"#utility.yul\":4127:4129   */\n      0x20\n        /* \"#utility.yul\":4115:4124   */\n      dup3\n        /* \"#utility.yul\":4106:4113   */\n      dup5\n        /* \"#utility.yul\":4102:4125   */\n      sub\n        /* \"#utility.yul\":4098:4130   */\n      slt\n        /* \"#utility.yul\":4095:4214   */\n      iszero\n      tag_427\n      jumpi\n        /* \"#utility.yul\":4133:4212   */\n      tag_428\n      tag_317\n      jump\t// in\n    tag_428:\n        /* \"#utility.yul\":4095:4214   */\n    tag_427:\n        /* \"#utility.yul\":4253:4254   */\n      0x00\n        /* \"#utility.yul\":4278:4330   */\n      tag_429\n        /* \"#utility.yul\":4322:4329   */\n      dup5\n        /* \"#utility.yul\":4313:4319   */\n      dup3\n        /* \"#utility.yul\":4302:4311   */\n      dup6\n        /* \"#utility.yul\":4298:4320   */\n      add\n        /* \"#utility.yul\":4278:4330   */\n      tag_332\n      jump\t// in\n    tag_429:\n        /* \"#utility.yul\":4268:4330   */\n      swap2\n      pop\n        /* \"#utility.yul\":4224:4340   */\n      pop\n        /* \"#utility.yul\":4020:4347   */\n      swap3\n      swap2\n      pop\n      pop\n      jump\t// out\n        /* \"#utility.yul\":4353:4443   */\n    tag_333:\n        /* \"#utility.yul\":4387:4394   */\n      0x00\n        /* \"#utility.yul\":4430:4435   */\n      dup2\n        /* \"#utility.yul\":4423:4436   */\n      iszero\n        /* \"#utility.yul\":4416:4437   */\n      iszero\n        /* \"#utility.yul\":4405:4437   */\n      swap1\n      pop\n        /* \"#utility.yul\":4353:4443   */\n      swap2\n      swap1\n      pop\n      jump\t// out\n        /* \"#utility.yul\":4449:4558   */\n    tag_334:\n        /* \"#utility.yul\":4530:4551   */\n      tag_432\n        /* \"#utility.yul\":4545:4550   */\n      dup2\n        /* \"#utility.yul\":4530:4551   */\n      tag_333\n      jump\t// in\n    tag_432:\n        /* \"#utility.yul\":4525:4528   */\n      dup3\n        /* \"#utility.yul\":4518:4552   */\n      mstore\n        /* \"#utility.yul\":4449:4558   */\n      pop\n      pop\n      jump\t// out\n        /* \"#utility.yul\":4564:4774   */\n    tag_37:\n        /* \"#utility.yul\":4651:4655   */\n      0x00\n        /* \"#utility.yul\":4689:4691   */\n      0x20\n        /* \"#utility.yul\":4678:4687   */\n      dup3\n        /* \"#utility.yul\":4674:4692   */\n      add\n        /* \"#utility.yul\":4666:4692   */\n      swap1\n      pop\n        /* \"#utility.yul\":4702:4767   */\n      tag_434\n        /* \"#utility.yul\":4764:4765   */\n      0x00\n        /* \"#utility.yul\":4753:4762   */\n      dup4\n        /* \"#utility.yul\":4749:4766   */\n      add\n        /* \"#utility.yul\":4740:4746   */\n      dup5\n        /* \"#utility.yul\":4702:4767   */\n      tag_334\n      jump\t// in\n    tag_434:\n        /* \"#utility.yul\":4564:4774   */\n      swap3\n      swap2\n      pop\n      pop\n      jump\t// out\n        /* \"#utility.yul\":4780:4897   */\n    tag_335:\n        /* \"#utility.yul\":4889:4890   */\n      0x00\n        /* \"#utility.yul\":4886:4887   */\n      dup1\n        /* \"#utility.yul\":4879:4891   */\n      revert\n        /* \"#utility.yul\":4903:5005   */\n    tag_336:\n        /* \"#utility.yul\":4944:4950   */\n      0x00\n        /* \"#utility.yul\":4995:4997   */\n      0x1f\n        /* \"#utility.yul\":4991:4998   */\n      not\n        /* \"#utility.yul\":4986:4988   */\n      0x1f\n        /* \"#utility.yul\":4979:4984   */\n      dup4\n        /* \"#utility.yul\":4975:4989   */\n      add\n        /* \"#utility.yul\":4971:4999   */\n      and\n        /* \"#utility.yul\":4961:4999   */\n      swap1\n      pop\n        /* \"#utility.yul\":4903:5005   */\n      swap2\n      swap1\n      pop\n      jump\t// out\n        /* \"#utility.yul\":5011:5191   */\n    tag_337:\n        /* \"#utility.yul\":5059:5136   */\n      0x4e487b7100000000000000000000000000000000000000000000000000000000\n        /* \"#utility.yul\":5056:5057   */\n      0x00\n        /* \"#utility.yul\":5049:5137   */\n      mstore\n        /* \"#utility.yul\":5156:5160   */\n      0x41\n        /* \"#utility.yul\":5153:5154   */\n      0x04\n        /* \"#utility.yul\":5146:5161   */\n      mstore\n        /* \"#utility.yul\":5180:5184   */\n      0x24\n        /* \"#utility.yul\":5177:5178   */\n      0x00\n        /* \"#utility.yul\":5170:5185   */\n      revert\n        /* \"#utility.yul\":5197:5478   */\n    tag_338:\n        /* \"#utility.yul\":5280:5307   */\n      tag_439\n        /* \"#utility.yul\":5302:5306   */\n      dup3\n        /* \"#utility.yul\":5280:5307   */\n      tag_336\n      jump\t// in\n    tag_439:\n        /* \"#utility.yul\":5272:5278   */\n      dup2\n        /* \"#utility.yul\":5268:5308   */\n      add\n        /* \"#utility.yul\":5410:5416   */\n      dup2\n        /* \"#utility.yul\":5398:5408   */\n      dup2\n        /* \"#utility.yul\":5395:5417   */\n      lt\n        /* \"#utility.yul\":5374:5392   */\n      0xffffffffffffffff\n        /* \"#utility.yul\":5362:5372   */\n      dup3\n        /* \"#utility.yul\":5359:5393   */\n      gt\n        /* \"#utility.yul\":5356:5418   */\n      or\n        /* \"#utility.yul\":5353:5441   */\n      iszero\n      tag_440\n      jumpi\n        /* \"#utility.yul\":5421:5439   */\n      tag_441\n      tag_337\n      jump\t// in\n    tag_441:\n        /* \"#utility.yul\":5353:5441   */\n    tag_440:\n        /* \"#utility.yul\":5461:5471   */\n      dup1\n        /* \"#utility.yul\":5457:5459   */\n      0x40\n        /* \"#utility.yul\":5450:5472   */\n      mstore\n        /* \"#utility.yul\":5240:5478   */\n      pop\n        /* \"#utility.yul\":5197:5478   */\n      pop\n      pop\n      jump\t// out\n        /* \"#utility.yul\":5484:5613   */\n    tag_339:\n        /* \"#utility.yul\":5518:5524   */\n      0x00\n        /* \"#utility.yul\":5545:5565   */\n      tag_443\n      tag_316\n      jump\t// in\n    tag_443:\n        /* \"#utility.yul\":5535:5565   */\n      swap1\n      pop\n        /* \"#utility.yul\":5574:5607   */\n      tag_444\n        /* \"#utility.yul\":5602:5606   */\n      dup3\n        /* \"#utility.yul\":5594:5600   */\n      dup3\n        /* \"#utility.yul\":5574:5607   */\n      tag_338\n      jump\t// in\n    tag_444:\n        /* \"#utility.yul\":5484:5613   */\n      swap2\n      swap1\n      pop\n      jump\t// out\n        /* \"#utility.yul\":5619:5926   */\n    tag_340:\n        /* \"#utility.yul\":5680:5684   */\n      0x00\n        /* \"#utility.yul\":5770:5788   */\n      0xffffffffffffffff\n        /* \"#utility.yul\":5762:5768   */\n      dup3\n        /* \"#utility.yul\":5759:5789   */\n      gt\n        /* \"#utility.yul\":5756:5812   */\n      iszero\n      tag_446\n      jumpi\n        /* \"#utility.yul\":5792:5810   */\n      tag_447\n      tag_337\n      jump\t// in\n    tag_447:\n        /* \"#utility.yul\":5756:5812   */\n    tag_446:\n        /* \"#utility.yul\":5830:5859   */\n      tag_448\n        /* \"#utility.yul\":5852:5858   */\n      dup3\n        /* \"#utility.yul\":5830:5859   */\n      tag_336\n      jump\t// in\n    tag_448:\n        /* \"#utility.yul\":5822:5859   */\n      swap1\n      pop\n        /* \"#utility.yul\":5914:5918   */\n      0x20\n        /* \"#utility.yul\":5908:5912   */\n      dup2\n        /* \"#utility.yul\":5904:5919   */\n      add\n        /* \"#utility.yul\":5896:5919   */\n      swap1\n      pop\n        /* \"#utility.yul\":5619:5926   */\n      swap2\n      swap1\n      pop\n      jump\t// out\n        /* \"#utility.yul\":5932:6078   */\n    tag_341:\n        /* \"#utility.yul\":6029:6035   */\n      dup3\n        /* \"#utility.yul\":6024:6027   */\n      dup2\n        /* \"#utility.yul\":6019:6022   */\n      dup4\n        /* \"#utility.yul\":6006:6036   */\n      calldatacopy\n        /* \"#utility.yul\":6070:6071   */\n      0x00\n        /* \"#utility.yul\":6061:6067   */\n      dup4\n        /* \"#utility.yul\":6056:6059   */\n      dup4\n        /* \"#utility.yul\":6052:6068   */\n      add\n        /* \"#utility.yul\":6045:6072   */\n      mstore\n        /* \"#utility.yul\":5932:6078   */\n      pop\n      pop\n      pop\n      jump\t// out\n        /* \"#utility.yul\":6084:6507   */\n    tag_342:\n        /* \"#utility.yul\":6161:6166   */\n      0x00\n        /* \"#utility.yul\":6186:6251   */\n      tag_451\n        /* \"#utility.yul\":6202:6250   */\n      tag_452\n        /* \"#utility.yul\":6243:6249   */\n      dup5\n        /* \"#utility.yul\":6202:6250   */\n      tag_340\n      jump\t// in\n    tag_452:\n        /* \"#utility.yul\":6186:6251   */\n      tag_339\n      jump\t// in\n    tag_451:\n        /* \"#utility.yul\":6177:6251   */\n      swap1\n      pop\n        /* \"#utility.yul\":6274:6280   */\n      dup3\n        /* \"#utility.yul\":6267:6272   */\n      dup2\n        /* \"#utility.yul\":6260:6281   */\n      mstore\n        /* \"#utility.yul\":6312:6316   */\n      0x20\n        /* \"#utility.yul\":6305:6310   */\n      dup2\n        /* \"#utility.yul\":6301:6317   */\n      add\n        /* \"#utility.yul\":6350:6353   */\n      dup5\n        /* \"#utility.yul\":6341:6347   */\n      dup5\n        /* \"#utility.yul\":6336:6339   */\n      dup5\n        /* \"#utility.yul\":6332:6348   */\n      add\n        /* \"#utility.yul\":6329:6354   */\n      gt\n        /* \"#utility.yul\":6326:6438   */\n      iszero\n      tag_453\n      jumpi\n        /* \"#utility.yul\":6357:6436   */\n      tag_454\n      tag_335\n      jump\t// in\n    tag_454:\n        /* \"#utility.yul\":6326:6438   */\n    tag_453:\n        /* \"#utility.yul\":6447:6501   */\n      tag_455\n        /* \"#utility.yul\":6494:6500   */\n      dup5\n        /* \"#utility.yul\":6489:6492   */\n      dup3\n        /* \"#utility.yul\":6484:6487   */\n      dup6\n        /* \"#utility.yul\":6447:6501   */\n      tag_341\n      jump\t// in\n    tag_455:\n        /* \"#utility.yul\":6167:6507   */\n      pop\n        /* \"#utility.yul\":6084:6507   */\n      swap4\n      swap3\n      pop\n      pop\n      pop\n      jump\t// out\n        /* \"#utility.yul\":6526:6864   */\n    tag_343:\n        /* \"#utility.yul\":6581:6586   */\n      0x00\n        /* \"#utility.yul\":6630:6633   */\n      dup3\n        /* \"#utility.yul\":6623:6627   */\n      0x1f\n        /* \"#utility.yul\":6615:6621   */\n      dup4\n        /* \"#utility.yul\":6611:6628   */\n      add\n        /* \"#utility.yul\":6607:6634   */\n      slt\n        /* \"#utility.yul\":6597:6719   */\n      tag_457\n      jumpi\n        /* \"#utility.yul\":6638:6717   */\n      tag_458\n      tag_326\n      jump\t// in\n    tag_458:\n        /* \"#utility.yul\":6597:6719   */\n    tag_457:\n        /* \"#utility.yul\":6755:6761   */\n      dup2\n        /* \"#utility.yul\":6742:6762   */\n      calldataload\n        /* \"#utility.yul\":6780:6858   */\n      tag_459\n        /* \"#utility.yul\":6854:6857   */\n      dup5\n        /* \"#utility.yul\":6846:6852   */\n      dup3\n        /* \"#utility.yul\":6839:6843   */\n      0x20\n        /* \"#utility.yul\":6831:6837   */\n      dup7\n        /* \"#utility.yul\":6827:6844   */\n      add\n        /* \"#utility.yul\":6780:6858   */\n      tag_342\n      jump\t// in\n    tag_459:\n        /* \"#utility.yul\":6771:6858   */\n      swap2\n      pop\n        /* \"#utility.yul\":6587:6864   */\n      pop\n        /* \"#utility.yul\":6526:6864   */\n      swap3\n      swap2\n      pop\n      pop\n      jump\t// out\n        /* \"#utility.yul\":6870:7813   */\n    tag_41:\n        /* \"#utility.yul\":6965:6971   */\n      0x00\n        /* \"#utility.yul\":6973:6979   */\n      dup1\n        /* \"#utility.yul\":6981:6987   */\n      0x00\n        /* \"#utility.yul\":6989:6995   */\n      dup1\n        /* \"#utility.yul\":7038:7041   */\n      0x80\n        /* \"#utility.yul\":7026:7035   */\n      dup6\n        /* \"#utility.yul\":7017:7024   */\n      dup8\n        /* \"#utility.yul\":7013:7036   */\n      sub\n        /* \"#utility.yul\":7009:7042   */\n      slt\n        /* \"#utility.yul\":7006:7126   */\n      iszero\n      tag_461\n      jumpi\n        /* \"#utility.yul\":7045:7124   */\n      tag_462\n      tag_317\n      jump\t// in\n    tag_462:\n        /* \"#utility.yul\":7006:7126   */\n    tag_461:\n        /* \"#utility.yul\":7165:7166   */\n      0x00\n        /* \"#utility.yul\":7190:7243   */\n      tag_463\n        /* \"#utility.yul\":7235:7242   */\n      dup8\n        /* \"#utility.yul\":7226:7232   */\n      dup3\n        /* \"#utility.yul\":7215:7224   */\n      dup9\n        /* \"#utility.yul\":7211:7233   */\n      add\n        /* \"#utility.yul\":7190:7243   */\n      tag_322\n      jump\t// in\n    tag_463:\n        /* \"#utility.yul\":7180:7243   */\n      swap5\n      pop\n        /* \"#utility.yul\":7136:7253   */\n      pop\n        /* \"#utility.yul\":7292:7294   */\n      0x20\n        /* \"#utility.yul\":7318:7371   */\n      tag_464\n        /* \"#utility.yul\":7363:7370   */\n      dup8\n        /* \"#utility.yul\":7354:7360   */\n      dup3\n        /* \"#utility.yul\":7343:7352   */\n      dup9\n        /* \"#utility.yul\":7339:7361   */\n      add\n        /* \"#utility.yul\":7318:7371   */\n      tag_322\n      jump\t// in\n    tag_464:\n        /* \"#utility.yul\":7308:7371   */\n      swap4\n      pop\n        /* \"#utility.yul\":7263:7381   */\n      pop\n        /* \"#utility.yul\":7420:7422   */\n      0x40\n        /* \"#utility.yul\":7446:7499   */\n      tag_465\n        /* \"#utility.yul\":7491:7498   */\n      dup8\n        /* \"#utility.yul\":7482:7488   */\n      dup3\n        /* \"#utility.yul\":7471:7480   */\n      dup9\n        /* \"#utility.yul\":7467:7489   */\n      add\n        /* \"#utility.yul\":7446:7499   */\n      tag_325\n      jump\t// in\n    tag_465:\n        /* \"#utility.yul\":7436:7499   */\n      swap3\n      pop\n        /* \"#utility.yul\":7391:7509   */\n      pop\n        /* \"#utility.yul\":7576:7578   */\n      0x60\n        /* \"#utility.yul\":7565:7574   */\n      dup6\n        /* \"#utility.yul\":7561:7579   */\n      add\n        /* \"#utility.yul\":7548:7580   */\n      calldataload\n        /* \"#utility.yul\":7607:7625   */\n      0xffffffffffffffff\n        /* \"#utility.yul\":7599:7605   */\n      dup2\n        /* \"#utility.yul\":7596:7626   */\n      gt\n        /* \"#utility.yul\":7593:7710   */\n      iszero\n      tag_466\n      jumpi\n        /* \"#utility.yul\":7629:7708   */\n      tag_467\n      tag_318\n      jump\t// in\n    tag_467:\n        /* \"#utility.yul\":7593:7710   */\n    tag_466:\n        /* \"#utility.yul\":7734:7796   */\n      tag_468\n        /* \"#utility.yul\":7788:7795   */\n      dup8\n        /* \"#utility.yul\":7779:7785   */\n      dup3\n        /* \"#utility.yul\":7768:7777   */\n      dup9\n        /* \"#utility.yul\":7764:7786   */\n      add\n        /* \"#utility.yul\":7734:7796   */\n      tag_343\n      jump\t// in\n    tag_468:\n        /* \"#utility.yul\":7724:7796   */\n      swap2\n      pop\n        /* \"#utility.yul\":7519:7806   */\n      pop\n        /* \"#utility.yul\":6870:7813   */\n      swap3\n      swap6\n      swap2\n      swap5\n      pop\n      swap3\n      pop\n      jump\t// out\n        /* \"#utility.yul\":7819:7934   */\n    tag_344:\n        /* \"#utility.yul\":7904:7927   */\n      tag_470\n        /* \"#utility.yul\":7921:7926   */\n      dup2\n        /* \"#utility.yul\":7904:7927   */\n      tag_330\n      jump\t// in\n    tag_470:\n        /* \"#utility.yul\":7899:7902   */\n      dup3\n        /* \"#utility.yul\":7892:7928   */\n      mstore\n        /* \"#utility.yul\":7819:7934   */\n      pop\n      pop\n      jump\t// out\n        /* \"#utility.yul\":7940:8158   */\n    tag_44:\n        /* \"#utility.yul\":8031:8035   */\n      0x00\n        /* \"#utility.yul\":8069:8071   */\n      0x20\n        /* \"#utility.yul\":8058:8067   */\n      dup3\n        /* \"#utility.yul\":8054:8072   */\n      add\n        /* \"#utility.yul\":8046:8072   */\n      swap1\n      pop\n        /* \"#utility.yul\":8082:8151   */\n      tag_472\n        /* \"#utility.yul\":8148:8149   */\n      0x00\n        /* \"#utility.yul\":8137:8146   */\n      dup4\n        /* \"#utility.yul\":8133:8150   */\n      add\n        /* \"#utility.yul\":8124:8130   */\n      dup5\n        /* \"#utility.yul\":8082:8151   */\n      tag_344\n      jump\t// in\n    tag_472:\n        /* \"#utility.yul\":7940:8158   */\n      swap3\n      swap2\n      pop\n      pop\n      jump\t// out\n        /* \"#utility.yul\":8164:8241   */\n    tag_345:\n        /* \"#utility.yul\":8201:8208   */\n      0x00\n        /* \"#utility.yul\":8230:8235   */\n      dup2\n        /* \"#utility.yul\":8219:8235   */\n      swap1\n      pop\n        /* \"#utility.yul\":8164:8241   */\n      swap2\n      swap1\n      pop\n      jump\t// out\n        /* \"#utility.yul\":8247:8369   */\n    tag_346:\n        /* \"#utility.yul\":8320:8344   */\n      tag_475\n        /* \"#utility.yul\":8338:8343   */\n      dup2\n        /* \"#utility.yul\":8320:8344   */\n      tag_345\n      jump\t// in\n    tag_475:\n        /* \"#utility.yul\":8313:8318   */\n      dup2\n        /* \"#utility.yul\":8310:8345   */\n      eq\n        /* \"#utility.yul\":8300:8363   */\n      tag_476\n      jumpi\n        /* \"#utility.yul\":8359:8360   */\n      0x00\n        /* \"#utility.yul\":8356:8357   */\n      dup1\n        /* \"#utility.yul\":8349:8361   */\n      revert\n        /* \"#utility.yul\":8300:8363   */\n    tag_476:\n        /* \"#utility.yul\":8247:8369   */\n      pop\n      jump\t// out\n        /* \"#utility.yul\":8375:8514   */\n    tag_347:\n        /* \"#utility.yul\":8421:8426   */\n      0x00\n        /* \"#utility.yul\":8459:8465   */\n      dup2\n        /* \"#utility.yul\":8446:8466   */\n      calldataload\n        /* \"#utility.yul\":8437:8466   */\n      swap1\n      pop\n        /* \"#utility.yul\":8475:8508   */\n      tag_478\n        /* \"#utility.yul\":8502:8507   */\n      dup2\n        /* \"#utility.yul\":8475:8508   */\n      tag_346\n      jump\t// in\n    tag_478:\n        /* \"#utility.yul\":8375:8514   */\n      swap3\n      swap2\n      pop\n      pop\n      jump\t// out\n        /* \"#utility.yul\":8520:8994   */\n    tag_48:\n        /* \"#utility.yul\":8588:8594   */\n      0x00\n        /* \"#utility.yul\":8596:8602   */\n      dup1\n        /* \"#utility.yul\":8645:8647   */\n      0x40\n        /* \"#utility.yul\":8633:8642   */\n      dup4\n        /* \"#utility.yul\":8624:8631   */\n      dup6\n        /* \"#utility.yul\":8620:8643   */\n      sub\n        /* \"#utility.yul\":8616:8648   */\n      slt\n        /* \"#utility.yul\":8613:8732   */\n      iszero\n      tag_480\n      jumpi\n        /* \"#utility.yul\":8651:8730   */\n      tag_481\n      tag_317\n      jump\t// in\n    tag_481:\n        /* \"#utility.yul\":8613:8732   */\n    tag_480:\n        /* \"#utility.yul\":8771:8772   */\n      0x00\n        /* \"#utility.yul\":8796:8849   */\n      tag_482\n        /* \"#utility.yul\":8841:8848   */\n      dup6\n        /* \"#utility.yul\":8832:8838   */\n      dup3\n        /* \"#utility.yul\":8821:8830   */\n      dup7\n        /* \"#utility.yul\":8817:8839   */\n      add\n        /* \"#utility.yul\":8796:8849   */\n      tag_347\n      jump\t// in\n    tag_482:\n        /* \"#utility.yul\":8786:8849   */\n      swap3\n      pop\n        /* \"#utility.yul\":8742:8859   */\n      pop\n        /* \"#utility.yul\":8898:8900   */\n      0x20\n        /* \"#utility.yul\":8924:8977   */\n      tag_483\n        /* \"#utility.yul\":8969:8976   */\n      dup6\n        /* \"#utility.yul\":8960:8966   */\n      dup3\n        /* \"#utility.yul\":8949:8958   */\n      dup7\n        /* \"#utility.yul\":8945:8967   */\n      add\n        /* \"#utility.yul\":8924:8977   */\n      tag_322\n      jump\t// in\n    tag_483:\n        /* \"#utility.yul\":8914:8977   */\n      swap2\n      pop\n        /* \"#utility.yul\":8869:8987   */\n      pop\n        /* \"#utility.yul\":8520:8994   */\n      swap3\n      pop\n      swap3\n      swap1\n      pop\n      jump\t// out\n        /* \"#utility.yul\":9000:9118   */\n    tag_348:\n        /* \"#utility.yul\":9087:9111   */\n      tag_485\n        /* \"#utility.yul\":9105:9110   */\n      dup2\n        /* \"#utility.yul\":9087:9111   */\n      tag_345\n      jump\t// in\n    tag_485:\n        /* \"#utility.yul\":9082:9085   */\n      dup3\n        /* \"#utility.yul\":9075:9112   */\n      mstore\n        /* \"#utility.yul\":9000:9118   */\n      pop\n      pop\n      jump\t// out\n        /* \"#utility.yul\":9124:9346   */\n    tag_51:\n        /* \"#utility.yul\":9217:9221   */\n      0x00\n        /* \"#utility.yul\":9255:9257   */\n      0x20\n        /* \"#utility.yul\":9244:9253   */\n      dup3\n        /* \"#utility.yul\":9240:9258   */\n      add\n        /* \"#utility.yul\":9232:9258   */\n      swap1\n      pop\n        /* \"#utility.yul\":9268:9339   */\n      tag_487\n        /* \"#utility.yul\":9336:9337   */\n      0x00\n        /* \"#utility.yul\":9325:9334   */\n      dup4\n        /* \"#utility.yul\":9321:9338   */\n      add\n        /* \"#utility.yul\":9312:9318   */\n      dup5\n        /* \"#utility.yul\":9268:9339   */\n      tag_348\n      jump\t// in\n    tag_487:\n        /* \"#utility.yul\":9124:9346   */\n      swap3\n      swap2\n      pop\n      pop\n      jump\t// out\n        /* \"#utility.yul\":9352:9826   */\n    tag_55:\n        /* \"#utility.yul\":9420:9426   */\n      0x00\n        /* \"#utility.yul\":9428:9434   */\n      dup1\n        /* \"#utility.yul\":9477:9479   */\n      0x40\n        /* \"#utility.yul\":9465:9474   */\n      dup4\n        /* \"#utility.yul\":9456:9463   */\n      dup6\n        /* \"#utility.yul\":9452:9475   */\n      sub\n        /* \"#utility.yul\":9448:9480   */\n      slt\n        /* \"#utility.yul\":9445:9564   */\n      iszero\n      tag_489\n      jumpi\n        /* \"#utility.yul\":9483:9562   */\n      tag_490\n      tag_317\n      jump\t// in\n    tag_490:\n        /* \"#utility.yul\":9445:9564   */\n    tag_489:\n        /* \"#utility.yul\":9603:9604   */\n      0x00\n        /* \"#utility.yul\":9628:9681   */\n      tag_491\n        /* \"#utility.yul\":9673:9680   */\n      dup6\n        /* \"#utility.yul\":9664:9670   */\n      dup3\n        /* \"#utility.yul\":9653:9662   */\n      dup7\n        /* \"#utility.yul\":9649:9671   */\n      add\n        /* \"#utility.yul\":9628:9681   */\n      tag_322\n      jump\t// in\n    tag_491:\n        /* \"#utility.yul\":9618:9681   */\n      swap3\n      pop\n        /* \"#utility.yul\":9574:9691   */\n      pop\n        /* \"#utility.yul\":9730:9732   */\n      0x20\n        /* \"#utility.yul\":9756:9809   */\n      tag_492\n        /* \"#utility.yul\":9801:9808   */\n      dup6\n        /* \"#utility.yul\":9792:9798   */\n      dup3\n        /* \"#utility.yul\":9781:9790   */\n      dup7\n        /* \"#utility.yul\":9777:9799   */\n      add\n        /* \"#utility.yul\":9756:9809   */\n      tag_325\n      jump\t// in\n    tag_492:\n        /* \"#utility.yul\":9746:9809   */\n      swap2\n      pop\n        /* \"#utility.yul\":9701:9819   */\n      pop\n        /* \"#utility.yul\":9352:9826   */\n      swap3\n      pop\n      swap3\n      swap1\n      pop\n      jump\t// out\n        /* \"#utility.yul\":9832:10161   */\n    tag_60:\n        /* \"#utility.yul\":9891:9897   */\n      0x00\n        /* \"#utility.yul\":9940:9942   */\n      0x20\n        /* \"#utility.yul\":9928:9937   */\n      dup3\n        /* \"#utility.yul\":9919:9926   */\n      dup5\n        /* \"#utility.yul\":9915:9938   */\n      sub\n        /* \"#utility.yul\":9911:9943   */\n      slt\n        /* \"#utility.yul\":9908:10027   */\n      iszero\n      tag_494\n      jumpi\n        /* \"#utility.yul\":9946:10025   */\n      tag_495\n      tag_317\n      jump\t// in\n    tag_495:\n        /* \"#utility.yul\":9908:10027   */\n    tag_494:\n        /* \"#utility.yul\":10066:10067   */\n      0x00\n        /* \"#utility.yul\":10091:10144   */\n      tag_496\n        /* \"#utility.yul\":10136:10143   */\n      dup5\n        /* \"#utility.yul\":10127:10133   */\n      dup3\n        /* \"#utility.yul\":10116:10125   */\n      dup6\n        /* \"#utility.yul\":10112:10134   */\n      add\n        /* \"#utility.yul\":10091:10144   */\n      tag_325\n      jump\t// in\n    tag_496:\n        /* \"#utility.yul\":10081:10144   */\n      swap2\n      pop\n        /* \"#utility.yul\":10037:10154   */\n      pop\n        /* \"#utility.yul\":9832:10161   */\n      swap3\n      swap2\n      pop\n      pop\n      jump\t// out\n        /* \"#utility.yul\":10167:10496   */\n    tag_72:\n        /* \"#utility.yul\":10226:10232   */\n      0x00\n        /* \"#utility.yul\":10275:10277   */\n      0x20\n        /* \"#utility.yul\":10263:10272   */\n      dup3\n        /* \"#utility.yul\":10254:10261   */\n      dup5\n        /* \"#utility.yul\":10250:10273   */\n      sub\n        /* \"#utility.yul\":10246:10278   */\n      slt\n        /* \"#utility.yul\":10243:10362   */\n      iszero\n      tag_498\n      jumpi\n        /* \"#utility.yul\":10281:10360   */\n      tag_499\n      tag_317\n      jump\t// in\n    tag_499:\n        /* \"#utility.yul\":10243:10362   */\n    tag_498:\n        /* \"#utility.yul\":10401:10402   */\n      0x00\n        /* \"#utility.yul\":10426:10479   */\n      tag_500\n        /* \"#utility.yul\":10471:10478   */\n      dup5\n        /* \"#utility.yul\":10462:10468   */\n      dup3\n        /* \"#utility.yul\":10451:10460   */\n      dup6\n        /* \"#utility.yul\":10447:10469   */\n      add\n        /* \"#utility.yul\":10426:10479   */\n      tag_322\n      jump\t// in\n    tag_500:\n        /* \"#utility.yul\":10416:10479   */\n      swap2\n      pop\n        /* \"#utility.yul\":10372:10489   */\n      pop\n        /* \"#utility.yul\":10167:10496   */\n      swap3\n      swap2\n      pop\n      pop\n      jump\t// out\n        /* \"#utility.yul\":10502:10620   */\n    tag_349:\n        /* \"#utility.yul\":10589:10613   */\n      tag_502\n        /* \"#utility.yul\":10607:10612   */\n      dup2\n        /* \"#utility.yul\":10589:10613   */\n      tag_320\n      jump\t// in\n    tag_502:\n        /* \"#utility.yul\":10584:10587   */\n      dup3\n        /* \"#utility.yul\":10577:10614   */\n      mstore\n        /* \"#utility.yul\":10502:10620   */\n      pop\n      pop\n      jump\t// out\n        /* \"#utility.yul\":10626:10848   */\n    tag_83:\n        /* \"#utility.yul\":10719:10723   */\n      0x00\n        /* \"#utility.yul\":10757:10759   */\n      0x20\n        /* \"#utility.yul\":10746:10755   */\n      dup3\n        /* \"#utility.yul\":10742:10760   */\n      add\n        /* \"#utility.yul\":10734:10760   */\n      swap1\n      pop\n        /* \"#utility.yul\":10770:10841   */\n      tag_504\n        /* \"#utility.yul\":10838:10839   */\n      0x00\n        /* \"#utility.yul\":10827:10836   */\n      dup4\n        /* \"#utility.yul\":10823:10840   */\n      add\n        /* \"#utility.yul\":10814:10820   */\n      dup5\n        /* \"#utility.yul\":10770:10841   */\n      tag_349\n      jump\t// in\n    tag_504:\n        /* \"#utility.yul\":10626:10848   */\n      swap3\n      swap2\n      pop\n      pop\n      jump\t// out\n        /* \"#utility.yul\":10854:11651   */\n    tag_92:\n        /* \"#utility.yul\":10940:10946   */\n      0x00\n        /* \"#utility.yul\":10948:10954   */\n      dup1\n        /* \"#utility.yul\":10956:10962   */\n      0x00\n        /* \"#utility.yul\":11005:11007   */\n      0x60\n        /* \"#utility.yul\":10993:11002   */\n      dup5\n        /* \"#utility.yul\":10984:10991   */\n      dup7\n        /* \"#utility.yul\":10980:11003   */\n      sub\n        /* \"#utility.yul\":10976:11008   */\n      slt\n        /* \"#utility.yul\":10973:11092   */\n      iszero\n      tag_506\n      jumpi\n        /* \"#utility.yul\":11011:11090   */\n      tag_507\n      tag_317\n      jump\t// in\n    tag_507:\n        /* \"#utility.yul\":10973:11092   */\n    tag_506:\n        /* \"#utility.yul\":11131:11132   */\n      0x00\n        /* \"#utility.yul\":11156:11209   */\n      tag_508\n        /* \"#utility.yul\":11201:11208   */\n      dup7\n        /* \"#utility.yul\":11192:11198   */\n      dup3\n        /* \"#utility.yul\":11181:11190   */\n      dup8\n        /* \"#utility.yul\":11177:11199   */\n      add\n        /* \"#utility.yul\":11156:11209   */\n      tag_322\n      jump\t// in\n    tag_508:\n        /* \"#utility.yul\":11146:11209   */\n      swap4\n      pop\n        /* \"#utility.yul\":11102:11219   */\n      pop\n        /* \"#utility.yul\":11258:11260   */\n      0x20\n        /* \"#utility.yul\":11284:11337   */\n      tag_509\n        /* \"#utility.yul\":11329:11336   */\n      dup7\n        /* \"#utility.yul\":11320:11326   */\n      dup3\n        /* \"#utility.yul\":11309:11318   */\n      dup8\n        /* \"#utility.yul\":11305:11327   */\n      add\n        /* \"#utility.yul\":11284:11337   */\n      tag_325\n      jump\t// in\n    tag_509:\n        /* \"#utility.yul\":11274:11337   */\n      swap3\n      pop\n        /* \"#utility.yul\":11229:11347   */\n      pop\n        /* \"#utility.yul\":11414:11416   */\n      0x40\n        /* \"#utility.yul\":11403:11412   */\n      dup5\n        /* \"#utility.yul\":11399:11417   */\n      add\n        /* \"#utility.yul\":11386:11418   */\n      calldataload\n        /* \"#utility.yul\":11445:11463   */\n      0xffffffffffffffff\n        /* \"#utility.yul\":11437:11443   */\n      dup2\n        /* \"#utility.yul\":11434:11464   */\n      gt\n        /* \"#utility.yul\":11431:11548   */\n      iszero\n      tag_510\n      jumpi\n        /* \"#utility.yul\":11467:11546   */\n      tag_511\n      tag_318\n      jump\t// in\n    tag_511:\n        /* \"#utility.yul\":11431:11548   */\n    tag_510:\n        /* \"#utility.yul\":11572:11634   */\n      tag_512\n        /* \"#utility.yul\":11626:11633   */\n      dup7\n        /* \"#utility.yul\":11617:11623   */\n      dup3\n        /* \"#utility.yul\":11606:11615   */\n      dup8\n        /* \"#utility.yul\":11602:11624   */\n      add\n        /* \"#utility.yul\":11572:11634   */\n      tag_343\n      jump\t// in\n    tag_512:\n        /* \"#utility.yul\":11562:11634   */\n      swap2\n      pop\n        /* \"#utility.yul\":11357:11644   */\n      pop\n        /* \"#utility.yul\":10854:11651   */\n      swap3\n      pop\n      swap3\n      pop\n      swap3\n      jump\t// out\n        /* \"#utility.yul\":11657:11968   */\n    tag_350:\n        /* \"#utility.yul\":11734:11738   */\n      0x00\n        /* \"#utility.yul\":11824:11842   */\n      0xffffffffffffffff\n        /* \"#utility.yul\":11816:11822   */\n      dup3\n        /* \"#utility.yul\":11813:11843   */\n      gt\n        /* \"#utility.yul\":11810:11866   */\n      iszero\n      tag_514\n      jumpi\n        /* \"#utility.yul\":11846:11864   */\n      tag_515\n      tag_337\n      jump\t// in\n    tag_515:\n        /* \"#utility.yul\":11810:11866   */\n    tag_514:\n        /* \"#utility.yul\":11896:11900   */\n      0x20\n        /* \"#utility.yul\":11888:11894   */\n      dup3\n        /* \"#utility.yul\":11884:11901   */\n      mul\n        /* \"#utility.yul\":11876:11901   */\n      swap1\n      pop\n        /* \"#utility.yul\":11956:11960   */\n      0x20\n        /* \"#utility.yul\":11950:11954   */\n      dup2\n        /* \"#utility.yul\":11946:11961   */\n      add\n        /* \"#utility.yul\":11938:11961   */\n      swap1\n      pop\n        /* \"#utility.yul\":11657:11968   */\n      swap2\n      swap1\n      pop\n      jump\t// out\n        /* \"#utility.yul\":11991:12701   */\n    tag_351:\n        /* \"#utility.yul\":12087:12092   */\n      0x00\n        /* \"#utility.yul\":12112:12193   */\n      tag_517\n        /* \"#utility.yul\":12128:12192   */\n      tag_518\n        /* \"#utility.yul\":12185:12191   */\n      dup5\n        /* \"#utility.yul\":12128:12192   */\n      tag_350\n      jump\t// in\n    tag_518:\n        /* \"#utility.yul\":12112:12193   */\n      tag_339\n      jump\t// in\n    tag_517:\n        /* \"#utility.yul\":12103:12193   */\n      swap1\n      pop\n        /* \"#utility.yul\":12213:12218   */\n      dup1\n        /* \"#utility.yul\":12242:12248   */\n      dup4\n        /* \"#utility.yul\":12235:12240   */\n      dup3\n        /* \"#utility.yul\":12228:12249   */\n      mstore\n        /* \"#utility.yul\":12276:12280   */\n      0x20\n        /* \"#utility.yul\":12269:12274   */\n      dup3\n        /* \"#utility.yul\":12265:12281   */\n      add\n        /* \"#utility.yul\":12258:12281   */\n      swap1\n      pop\n        /* \"#utility.yul\":12329:12333   */\n      0x20\n        /* \"#utility.yul\":12321:12327   */\n      dup5\n        /* \"#utility.yul\":12317:12334   */\n      mul\n        /* \"#utility.yul\":12309:12315   */\n      dup4\n        /* \"#utility.yul\":12305:12335   */\n      add\n        /* \"#utility.yul\":12358:12361   */\n      dup6\n        /* \"#utility.yul\":12350:12356   */\n      dup2\n        /* \"#utility.yul\":12347:12362   */\n      gt\n        /* \"#utility.yul\":12344:12466   */\n      iszero\n      tag_519\n      jumpi\n        /* \"#utility.yul\":12377:12456   */\n      tag_520\n      tag_328\n      jump\t// in\n    tag_520:\n        /* \"#utility.yul\":12344:12466   */\n    tag_519:\n        /* \"#utility.yul\":12492:12498   */\n      dup4\n        /* \"#utility.yul\":12475:12695   */\n    tag_521:\n        /* \"#utility.yul\":12509:12515   */\n      dup2\n        /* \"#utility.yul\":12504:12507   */\n      dup2\n        /* \"#utility.yul\":12501:12516   */\n      lt\n        /* \"#utility.yul\":12475:12695   */\n      iszero\n      tag_523\n      jumpi\n        /* \"#utility.yul\":12584:12587   */\n      dup1\n        /* \"#utility.yul\":12613:12650   */\n      tag_524\n        /* \"#utility.yul\":12646:12649   */\n      dup9\n        /* \"#utility.yul\":12634:12644   */\n      dup3\n        /* \"#utility.yul\":12613:12650   */\n      tag_325\n      jump\t// in\n    tag_524:\n        /* \"#utility.yul\":12608:12611   */\n      dup5\n        /* \"#utility.yul\":12601:12651   */\n      mstore\n        /* \"#utility.yul\":12680:12684   */\n      0x20\n        /* \"#utility.yul\":12675:12678   */\n      dup5\n        /* \"#utility.yul\":12671:12685   */\n      add\n        /* \"#utility.yul\":12664:12685   */\n      swap4\n      pop\n        /* \"#utility.yul\":12551:12695   */\n      pop\n        /* \"#utility.yul\":12535:12539   */\n      0x20\n        /* \"#utility.yul\":12530:12533   */\n      dup2\n        /* \"#utility.yul\":12526:12540   */\n      add\n        /* \"#utility.yul\":12519:12540   */\n      swap1\n      pop\n        /* \"#utility.yul\":12475:12695   */\n      jump(tag_521)\n    tag_523:\n        /* \"#utility.yul\":12479:12500   */\n      pop\n        /* \"#utility.yul\":12093:12701   */\n      pop\n      pop\n        /* \"#utility.yul\":11991:12701   */\n      swap4\n      swap3\n      pop\n      pop\n      pop\n      jump\t// out\n        /* \"#utility.yul\":12724:13094   */\n    tag_352:\n        /* \"#utility.yul\":12795:12800   */\n      0x00\n        /* \"#utility.yul\":12844:12847   */\n      dup3\n        /* \"#utility.yul\":12837:12841   */\n      0x1f\n        /* \"#utility.yul\":12829:12835   */\n      dup4\n        /* \"#utility.yul\":12825:12842   */\n      add\n        /* \"#utility.yul\":12821:12848   */\n      slt\n        /* \"#utility.yul\":12811:12933   */\n      tag_526\n      jumpi\n        /* \"#utility.yul\":12852:12931   */\n      tag_527\n      tag_326\n      jump\t// in\n    tag_527:\n        /* \"#utility.yul\":12811:12933   */\n    tag_526:\n        /* \"#utility.yul\":12969:12975   */\n      dup2\n        /* \"#utility.yul\":12956:12976   */\n      calldataload\n        /* \"#utility.yul\":12994:13088   */\n      tag_528\n        /* \"#utility.yul\":13084:13087   */\n      dup5\n        /* \"#utility.yul\":13076:13082   */\n      dup3\n        /* \"#utility.yul\":13069:13073   */\n      0x20\n        /* \"#utility.yul\":13061:13067   */\n      dup7\n        /* \"#utility.yul\":13057:13074   */\n      add\n        /* \"#utility.yul\":12994:13088   */\n      tag_351\n      jump\t// in\n    tag_528:\n        /* \"#utility.yul\":12985:13088   */\n      swap2\n      pop\n        /* \"#utility.yul\":12801:13094   */\n      pop\n        /* \"#utility.yul\":12724:13094   */\n      swap3\n      swap2\n      pop\n      pop\n      jump\t// out\n        /* \"#utility.yul\":13100:14609   */\n    tag_104:\n        /* \"#utility.yul\":13254:13260   */\n      0x00\n        /* \"#utility.yul\":13262:13268   */\n      dup1\n        /* \"#utility.yul\":13270:13276   */\n      0x00\n        /* \"#utility.yul\":13278:13284   */\n      dup1\n        /* \"#utility.yul\":13286:13292   */\n      0x00\n        /* \"#utility.yul\":13335:13338   */\n      0xa0\n        /* \"#utility.yul\":13323:13332   */\n      dup7\n        /* \"#utility.yul\":13314:13321   */\n      dup9\n        /* \"#utility.yul\":13310:13333   */\n      sub\n        /* \"#utility.yul\":13306:13339   */\n      slt\n        /* \"#utility.yul\":13303:13423   */\n      iszero\n      tag_530\n      jumpi\n        /* \"#utility.yul\":13342:13421   */\n      tag_531\n      tag_317\n      jump\t// in\n    tag_531:\n        /* \"#utility.yul\":13303:13423   */\n    tag_530:\n        /* \"#utility.yul\":13462:13463   */\n      0x00\n        /* \"#utility.yul\":13487:13540   */\n      tag_532\n        /* \"#utility.yul\":13532:13539   */\n      dup9\n        /* \"#utility.yul\":13523:13529   */\n      dup3\n        /* \"#utility.yul\":13512:13521   */\n      dup10\n        /* \"#utility.yul\":13508:13530   */\n      add\n        /* \"#utility.yul\":13487:13540   */\n      tag_322\n      jump\t// in\n    tag_532:\n        /* \"#utility.yul\":13477:13540   */\n      swap6\n      pop\n        /* \"#utility.yul\":13433:13550   */\n      pop\n        /* \"#utility.yul\":13589:13591   */\n      0x20\n        /* \"#utility.yul\":13615:13668   */\n      tag_533\n        /* \"#utility.yul\":13660:13667   */\n      dup9\n        /* \"#utility.yul\":13651:13657   */\n      dup3\n        /* \"#utility.yul\":13640:13649   */\n      dup10\n        /* \"#utility.yul\":13636:13658   */\n      add\n        /* \"#utility.yul\":13615:13668   */\n      tag_322\n      jump\t// in\n    tag_533:\n        /* \"#utility.yul\":13605:13668   */\n      swap5\n      pop\n        /* \"#utility.yul\":13560:13678   */\n      pop\n        /* \"#utility.yul\":13745:13747   */\n      0x40\n        /* \"#utility.yul\":13734:13743   */\n      dup7\n        /* \"#utility.yul\":13730:13748   */\n      add\n        /* \"#utility.yul\":13717:13749   */\n      calldataload\n        /* \"#utility.yul\":13776:13794   */\n      0xffffffffffffffff\n        /* \"#utility.yul\":13768:13774   */\n      dup2\n        /* \"#utility.yul\":13765:13795   */\n      gt\n        /* \"#utility.yul\":13762:13879   */\n      iszero\n      tag_534\n      jumpi\n        /* \"#utility.yul\":13798:13877   */\n      tag_535\n      tag_318\n      jump\t// in\n    tag_535:\n        /* \"#utility.yul\":13762:13879   */\n    tag_534:\n        /* \"#utility.yul\":13903:13981   */\n      tag_536\n        /* \"#utility.yul\":13973:13980   */\n      dup9\n        /* \"#utility.yul\":13964:13970   */\n      dup3\n        /* \"#utility.yul\":13953:13962   */\n      dup10\n        /* \"#utility.yul\":13949:13971   */\n      add\n        /* \"#utility.yul\":13903:13981   */\n      tag_352\n      jump\t// in\n    tag_536:\n        /* \"#utility.yul\":13893:13981   */\n      swap4\n      pop\n        /* \"#utility.yul\":13688:13991   */\n      pop\n        /* \"#utility.yul\":14058:14060   */\n      0x60\n        /* \"#utility.yul\":14047:14056   */\n      dup7\n        /* \"#utility.yul\":14043:14061   */\n      add\n        /* \"#utility.yul\":14030:14062   */\n      calldataload\n        /* \"#utility.yul\":14089:14107   */\n      0xffffffffffffffff\n        /* \"#utility.yul\":14081:14087   */\n      dup2\n        /* \"#utility.yul\":14078:14108   */\n      gt\n        /* \"#utility.yul\":14075:14192   */\n      iszero\n      tag_537\n      jumpi\n        /* \"#utility.yul\":14111:14190   */\n      tag_538\n      tag_318\n      jump\t// in\n    tag_538:\n        /* \"#utility.yul\":14075:14192   */\n    tag_537:\n        /* \"#utility.yul\":14216:14294   */\n      tag_539\n        /* \"#utility.yul\":14286:14293   */\n      dup9\n        /* \"#utility.yul\":14277:14283   */\n      dup3\n        /* \"#utility.yul\":14266:14275   */\n      dup10\n        /* \"#utility.yul\":14262:14284   */\n      add\n        /* \"#utility.yul\":14216:14294   */\n      tag_352\n      jump\t// in\n    tag_539:\n        /* \"#utility.yul\":14206:14294   */\n      swap3\n      pop\n        /* \"#utility.yul\":14001:14304   */\n      pop\n        /* \"#utility.yul\":14371:14374   */\n      0x80\n        /* \"#utility.yul\":14360:14369   */\n      dup7\n        /* \"#utility.yul\":14356:14375   */\n      add\n        /* \"#utility.yul\":14343:14376   */\n      calldataload\n        /* \"#utility.yul\":14403:14421   */\n      0xffffffffffffffff\n        /* \"#utility.yul\":14395:14401   */\n      dup2\n        /* \"#utility.yul\":14392:14422   */\n      gt\n        /* \"#utility.yul\":14389:14506   */\n      iszero\n      tag_540\n      jumpi\n        /* \"#utility.yul\":14425:14504   */\n      tag_541\n      tag_318\n      jump\t// in\n    tag_541:\n        /* \"#utility.yul\":14389:14506   */\n    tag_540:\n        /* \"#utility.yul\":14530:14592   */\n      tag_542\n        /* \"#utility.yul\":14584:14591   */\n      dup9\n        /* \"#utility.yul\":14575:14581   */\n      dup3\n        /* \"#utility.yul\":14564:14573   */\n      dup10\n        /* \"#utility.yul\":14560:14582   */\n      add\n        /* \"#utility.yul\":14530:14592   */\n      tag_343\n      jump\t// in\n    tag_542:\n        /* \"#utility.yul\":14520:14592   */\n      swap2\n      pop\n        /* \"#utility.yul\":14314:14602   */\n      pop\n        /* \"#utility.yul\":13100:14609   */\n      swap3\n      swap6\n      pop\n      swap3\n      swap6\n      swap1\n      swap4\n      pop\n      jump\t// out\n        /* \"#utility.yul\":14615:15704   */\n    tag_120:\n        /* \"#utility.yul\":14719:14725   */\n      0x00\n        /* \"#utility.yul\":14727:14733   */\n      dup1\n        /* \"#utility.yul\":14735:14741   */\n      0x00\n        /* \"#utility.yul\":14743:14749   */\n      dup1\n        /* \"#utility.yul\":14751:14757   */\n      0x00\n        /* \"#utility.yul\":14800:14803   */\n      0xa0\n        /* \"#utility.yul\":14788:14797   */\n      dup7\n        /* \"#utility.yul\":14779:14786   */\n      dup9\n        /* \"#utility.yul\":14775:14798   */\n      sub\n        /* \"#utility.yul\":14771:14804   */\n      slt\n        /* \"#utility.yul\":14768:14888   */\n      iszero\n      tag_544\n      jumpi\n        /* \"#utility.yul\":14807:14886   */\n      tag_545\n      tag_317\n      jump\t// in\n    tag_545:\n        /* \"#utility.yul\":14768:14888   */\n    tag_544:\n        /* \"#utility.yul\":14927:14928   */\n      0x00\n        /* \"#utility.yul\":14952:15005   */\n      tag_546\n        /* \"#utility.yul\":14997:15004   */\n      dup9\n        /* \"#utility.yul\":14988:14994   */\n      dup3\n        /* \"#utility.yul\":14977:14986   */\n      dup10\n        /* \"#utility.yul\":14973:14995   */\n      add\n        /* \"#utility.yul\":14952:15005   */\n      tag_322\n      jump\t// in\n    tag_546:\n        /* \"#utility.yul\":14942:15005   */\n      swap6\n      pop\n        /* \"#utility.yul\":14898:15015   */\n      pop\n        /* \"#utility.yul\":15054:15056   */\n      0x20\n        /* \"#utility.yul\":15080:15133   */\n      tag_547\n        /* \"#utility.yul\":15125:15132   */\n      dup9\n        /* \"#utility.yul\":15116:15122   */\n      dup3\n        /* \"#utility.yul\":15105:15114   */\n      dup10\n        /* \"#utility.yul\":15101:15123   */\n      add\n        /* \"#utility.yul\":15080:15133   */\n      tag_322\n      jump\t// in\n    tag_547:\n        /* \"#utility.yul\":15070:15133   */\n      swap5\n      pop\n        /* \"#utility.yul\":15025:15143   */\n      pop\n        /* \"#utility.yul\":15182:15184   */\n      0x40\n        /* \"#utility.yul\":15208:15261   */\n      tag_548\n        /* \"#utility.yul\":15253:15260   */\n      dup9\n        /* \"#utility.yul\":15244:15250   */\n      dup3\n        /* \"#utility.yul\":15233:15242   */\n      dup10\n        /* \"#utility.yul\":15229:15251   */\n      add\n        /* \"#utility.yul\":15208:15261   */\n      tag_325\n      jump\t// in\n    tag_548:\n        /* \"#utility.yul\":15198:15261   */\n      swap4\n      pop\n        /* \"#utility.yul\":15153:15271   */\n      pop\n        /* \"#utility.yul\":15310:15312   */\n      0x60\n        /* \"#utility.yul\":15336:15389   */\n      tag_549\n        /* \"#utility.yul\":15381:15388   */\n      dup9\n        /* \"#utility.yul\":15372:15378   */\n      dup3\n        /* \"#utility.yul\":15361:15370   */\n      dup10\n        /* \"#utility.yul\":15357:15379   */\n      add\n        /* \"#utility.yul\":15336:15389   */\n      tag_325\n      jump\t// in\n    tag_549:\n        /* \"#utility.yul\":15326:15389   */\n      swap3\n      pop\n        /* \"#utility.yul\":15281:15399   */\n      pop\n        /* \"#utility.yul\":15466:15469   */\n      0x80\n        /* \"#utility.yul\":15455:15464   */\n      dup7\n        /* \"#utility.yul\":15451:15470   */\n      add\n        /* \"#utility.yul\":15438:15471   */\n      calldataload\n        /* \"#utility.yul\":15498:15516   */\n      0xffffffffffffffff\n        /* \"#utility.yul\":15490:15496   */\n      dup2\n        /* \"#utility.yul\":15487:15517   */\n      gt\n        /* \"#utility.yul\":15484:15601   */\n      iszero\n      tag_550\n      jumpi\n        /* \"#utility.yul\":15520:15599   */\n      tag_551\n      tag_318\n      jump\t// in\n    tag_551:\n        /* \"#utility.yul\":15484:15601   */\n    tag_550:\n        /* \"#utility.yul\":15625:15687   */\n      tag_552\n        /* \"#utility.yul\":15679:15686   */\n      dup9\n        /* \"#utility.yul\":15670:15676   */\n      dup3\n        /* \"#utility.yul\":15659:15668   */\n      dup10\n        /* \"#utility.yul\":15655:15677   */\n      add\n        /* \"#utility.yul\":15625:15687   */\n      tag_343\n      jump\t// in\n    tag_552:\n        /* \"#utility.yul\":15615:15687   */\n      swap2\n      pop\n        /* \"#utility.yul\":15409:15697   */\n      pop\n        /* \"#utility.yul\":14615:15704   */\n      swap3\n      swap6\n      pop\n      swap3\n      swap6\n      swap1\n      swap4\n      pop\n      jump\t// out\n        /* \"#utility.yul\":15710:16653   */\n    tag_126:\n        /* \"#utility.yul\":15805:15811   */\n      0x00\n        /* \"#utility.yul\":15813:15819   */\n      dup1\n        /* \"#utility.yul\":15821:15827   */\n      0x00\n        /* \"#utility.yul\":15829:15835   */\n      dup1\n        /* \"#utility.yul\":15878:15881   */\n      0x80\n        /* \"#utility.yul\":15866:15875   */\n      dup6\n        /* \"#utility.yul\":15857:15864   */\n      dup8\n        /* \"#utility.yul\":15853:15876   */\n      sub\n        /* \"#utility.yul\":15849:15882   */\n      slt\n        /* \"#utility.yul\":15846:15966   */\n      iszero\n      tag_554\n      jumpi\n        /* \"#utility.yul\":15885:15964   */\n      tag_555\n      tag_317\n      jump\t// in\n    tag_555:\n        /* \"#utility.yul\":15846:15966   */\n    tag_554:\n        /* \"#utility.yul\":16005:16006   */\n      0x00\n        /* \"#utility.yul\":16030:16083   */\n      tag_556\n        /* \"#utility.yul\":16075:16082   */\n      dup8\n        /* \"#utility.yul\":16066:16072   */\n      dup3\n        /* \"#utility.yul\":16055:16064   */\n      dup9\n        /* \"#utility.yul\":16051:16073   */\n      add\n        /* \"#utility.yul\":16030:16083   */\n      tag_322\n      jump\t// in\n    tag_556:\n        /* \"#utility.yul\":16020:16083   */\n      swap5\n      pop\n        /* \"#utility.yul\":15976:16093   */\n      pop\n        /* \"#utility.yul\":16132:16134   */\n      0x20\n        /* \"#utility.yul\":16158:16211   */\n      tag_557\n        /* \"#utility.yul\":16203:16210   */\n      dup8\n        /* \"#utility.yul\":16194:16200   */\n      dup3\n        /* \"#utility.yul\":16183:16192   */\n      dup9\n        /* \"#utility.yul\":16179:16201   */\n      add\n        /* \"#utility.yul\":16158:16211   */\n      tag_325\n      jump\t// in\n    tag_557:\n        /* \"#utility.yul\":16148:16211   */\n      swap4\n      pop\n        /* \"#utility.yul\":16103:16221   */\n      pop\n        /* \"#utility.yul\":16260:16262   */\n      0x40\n        /* \"#utility.yul\":16286:16339   */\n      tag_558\n        /* \"#utility.yul\":16331:16338   */\n      dup8\n        /* \"#utility.yul\":16322:16328   */\n      dup3\n        /* \"#utility.yul\":16311:16320   */\n      dup9\n        /* \"#utility.yul\":16307:16329   */\n      add\n        /* \"#utility.yul\":16286:16339   */\n      tag_325\n      jump\t// in\n    tag_558:\n        /* \"#utility.yul\":16276:16339   */\n      swap3\n      pop\n        /* \"#utility.yul\":16231:16349   */\n      pop\n        /* \"#utility.yul\":16416:16418   */\n      0x60\n        /* \"#utility.yul\":16405:16414   */\n      dup6\n        /* \"#utility.yul\":16401:16419   */\n      add\n        /* \"#utility.yul\":16388:16420   */\n      calldataload\n        /* \"#utility.yul\":16447:16465   */\n      0xffffffffffffffff\n        /* \"#utility.yul\":16439:16445   */\n      dup2\n        /* \"#utility.yul\":16436:16466   */\n      gt\n        /* \"#utility.yul\":16433:16550   */\n      iszero\n      tag_559\n      jumpi\n        /* \"#utility.yul\":16469:16548   */\n      tag_560\n      tag_318\n      jump\t// in\n    tag_560:\n        /* \"#utility.yul\":16433:16550   */\n    tag_559:\n        /* \"#utility.yul\":16574:16636   */\n      tag_561\n        /* \"#utility.yul\":16628:16635   */\n      dup8\n        /* \"#utility.yul\":16619:16625   */\n      dup3\n        /* \"#utility.yul\":16608:16617   */\n      dup9\n        /* \"#utility.yul\":16604:16626   */\n      add\n        /* \"#utility.yul\":16574:16636   */\n      tag_343\n      jump\t// in\n    tag_561:\n        /* \"#utility.yul\":16564:16636   */\n      swap2\n      pop\n        /* \"#utility.yul\":16359:16646   */\n      pop\n        /* \"#utility.yul\":15710:16653   */\n      swap3\n      swap6\n      swap2\n      swap5\n      pop\n      swap3\n      pop\n      jump\t// out\n        /* \"#utility.yul\":16659:16991   */\n    tag_221:\n        /* \"#utility.yul\":16780:16784   */\n      0x00\n        /* \"#utility.yul\":16818:16820   */\n      0x40\n        /* \"#utility.yul\":16807:16816   */\n      dup3\n        /* \"#utility.yul\":16803:16821   */\n      add\n        /* \"#utility.yul\":16795:16821   */\n      swap1\n      pop\n        /* \"#utility.yul\":16831:16902   */\n      tag_563\n        /* \"#utility.yul\":16899:16900   */\n      0x00\n        /* \"#utility.yul\":16888:16897   */\n      dup4\n        /* \"#utility.yul\":16884:16901   */\n      add\n        /* \"#utility.yul\":16875:16881   */\n      dup6\n        /* \"#utility.yul\":16831:16902   */\n      tag_349\n      jump\t// in\n    tag_563:\n        /* \"#utility.yul\":16912:16984   */\n      tag_564\n        /* \"#utility.yul\":16980:16982   */\n      0x20\n        /* \"#utility.yul\":16969:16978   */\n      dup4\n        /* \"#utility.yul\":16965:16983   */\n      add\n        /* \"#utility.yul\":16956:16962   */\n      dup5\n        /* \"#utility.yul\":16912:16984   */\n      tag_349\n      jump\t// in\n    tag_564:\n        /* \"#utility.yul\":16659:16991   */\n      swap4\n      swap3\n      pop\n      pop\n      pop\n      jump\t// out\n        /* \"#utility.yul\":16997:17166   */\n    tag_353:\n        /* \"#utility.yul\":17081:17092   */\n      0x00\n        /* \"#utility.yul\":17115:17121   */\n      dup3\n        /* \"#utility.yul\":17110:17113   */\n      dup3\n        /* \"#utility.yul\":17103:17122   */\n      mstore\n        /* \"#utility.yul\":17155:17159   */\n      0x20\n        /* \"#utility.yul\":17150:17153   */\n      dup3\n        /* \"#utility.yul\":17146:17160   */\n      add\n        /* \"#utility.yul\":17131:17160   */\n      swap1\n      pop\n        /* \"#utility.yul\":16997:17166   */\n      swap3\n      swap2\n      pop\n      pop\n      jump\t// out\n        /* \"#utility.yul\":17172:17345   */\n    tag_354:\n        /* \"#utility.yul\":17312:17337   */\n      0x4552433230546f6b656e436f6e74726163744572726f72000000000000000000\n        /* \"#utility.yul\":17308:17309   */\n      0x00\n        /* \"#utility.yul\":17300:17306   */\n      dup3\n        /* \"#utility.yul\":17296:17310   */\n      add\n        /* \"#utility.yul\":17289:17338   */\n      mstore\n        /* \"#utility.yul\":17172:17345   */\n      pop\n      jump\t// out\n        /* \"#utility.yul\":17351:17717   */\n    tag_355:\n        /* \"#utility.yul\":17493:17496   */\n      0x00\n        /* \"#utility.yul\":17514:17581   */\n      tag_568\n        /* \"#utility.yul\":17578:17580   */\n      0x17\n        /* \"#utility.yul\":17573:17576   */\n      dup4\n        /* \"#utility.yul\":17514:17581   */\n      tag_353\n      jump\t// in\n    tag_568:\n        /* \"#utility.yul\":17507:17581   */\n      swap2\n      pop\n        /* \"#utility.yul\":17590:17683   */\n      tag_569\n        /* \"#utility.yul\":17679:17682   */\n      dup3\n        /* \"#utility.yul\":17590:17683   */\n      tag_354\n      jump\t// in\n    tag_569:\n        /* \"#utility.yul\":17708:17710   */\n      0x20\n        /* \"#utility.yul\":17703:17706   */\n      dup3\n        /* \"#utility.yul\":17699:17711   */\n      add\n        /* \"#utility.yul\":17692:17711   */\n      swap1\n      pop\n        /* \"#utility.yul\":17351:17717   */\n      swap2\n      swap1\n      pop\n      jump\t// out\n        /* \"#utility.yul\":17723:18142   */\n    tag_225:\n        /* \"#utility.yul\":17889:17893   */\n      0x00\n        /* \"#utility.yul\":17927:17929   */\n      0x20\n        /* \"#utility.yul\":17916:17925   */\n      dup3\n        /* \"#utility.yul\":17912:17930   */\n      add\n        /* \"#utility.yul\":17904:17930   */\n      swap1\n      pop\n        /* \"#utility.yul\":17976:17985   */\n      dup2\n        /* \"#utility.yul\":17970:17974   */\n      dup2\n        /* \"#utility.yul\":17966:17986   */\n      sub\n        /* \"#utility.yul\":17962:17963   */\n      0x00\n        /* \"#utility.yul\":17951:17960   */\n      dup4\n        /* \"#utility.yul\":17947:17964   */\n      add\n        /* \"#utility.yul\":17940:17987   */\n      mstore\n        /* \"#utility.yul\":18004:18135   */\n      tag_571\n        /* \"#utility.yul\":18130:18134   */\n      dup2\n        /* \"#utility.yul\":18004:18135   */\n      tag_355\n      jump\t// in\n    tag_571:\n        /* \"#utility.yul\":17996:18135   */\n      swap1\n      pop\n        /* \"#utility.yul\":17723:18142   */\n      swap2\n      swap1\n      pop\n      jump\t// out\n        /* \"#utility.yul\":18148:18266   */\n    tag_356:\n        /* \"#utility.yul\":18235:18259   */\n      tag_573\n        /* \"#utility.yul\":18253:18258   */\n      dup2\n        /* \"#utility.yul\":18235:18259   */\n      tag_323\n      jump\t// in\n    tag_573:\n        /* \"#utility.yul\":18230:18233   */\n      dup3\n        /* \"#utility.yul\":18223:18260   */\n      mstore\n        /* \"#utility.yul\":18148:18266   */\n      pop\n      pop\n      jump\t// out\n        /* \"#utility.yul\":18272:18604   */\n    tag_227:\n        /* \"#utility.yul\":18393:18397   */\n      0x00\n        /* \"#utility.yul\":18431:18433   */\n      0x40\n        /* \"#utility.yul\":18420:18429   */\n      dup3\n        /* \"#utility.yul\":18416:18434   */\n      add\n        /* \"#utility.yul\":18408:18434   */\n      swap1\n      pop\n        /* \"#utility.yul\":18444:18515   */\n      tag_575\n        /* \"#utility.yul\":18512:18513   */\n      0x00\n        /* \"#utility.yul\":18501:18510   */\n      dup4\n        /* \"#utility.yul\":18497:18514   */\n      add\n        /* \"#utility.yul\":18488:18494   */\n      dup6\n        /* \"#utility.yul\":18444:18515   */\n      tag_349\n      jump\t// in\n    tag_575:\n        /* \"#utility.yul\":18525:18597   */\n      tag_576\n        /* \"#utility.yul\":18593:18595   */\n      0x20\n        /* \"#utility.yul\":18582:18591   */\n      dup4\n        /* \"#utility.yul\":18578:18596   */\n      add\n        /* \"#utility.yul\":18569:18575   */\n      dup5\n        /* \"#utility.yul\":18525:18597   */\n      tag_356\n      jump\t// in\n    tag_576:\n        /* \"#utility.yul\":18272:18604   */\n      swap4\n      swap3\n      pop\n      pop\n      pop\n      jump\t// out\n        /* \"#utility.yul\":18610:18708   */\n    tag_357:\n        /* \"#utility.yul\":18661:18667   */\n      0x00\n        /* \"#utility.yul\":18695:18700   */\n      dup2\n        /* \"#utility.yul\":18689:18701   */\n      mload\n        /* \"#utility.yul\":18679:18701   */\n      swap1\n      pop\n        /* \"#utility.yul\":18610:18708   */\n      swap2\n      swap1\n      pop\n      jump\t// out\n        /* \"#utility.yul\":18714:18861   */\n    tag_358:\n        /* \"#utility.yul\":18815:18826   */\n      0x00\n        /* \"#utility.yul\":18852:18855   */\n      dup2\n        /* \"#utility.yul\":18837:18855   */\n      swap1\n      pop\n        /* \"#utility.yul\":18714:18861   */\n      swap3\n      swap2\n      pop\n      pop\n      jump\t// out\n        /* \"#utility.yul\":18867:19113   */\n    tag_359:\n        /* \"#utility.yul\":18948:18949   */\n      0x00\n        /* \"#utility.yul\":18958:19071   */\n    tag_580:\n        /* \"#utility.yul\":18972:18978   */\n      dup4\n        /* \"#utility.yul\":18969:18970   */\n      dup2\n        /* \"#utility.yul\":18966:18979   */\n      lt\n        /* \"#utility.yul\":18958:19071   */\n      iszero\n      tag_582\n      jumpi\n        /* \"#utility.yul\":19057:19058   */\n      dup1\n        /* \"#utility.yul\":19052:19055   */\n      dup3\n        /* \"#utility.yul\":19048:19059   */\n      add\n        /* \"#utility.yul\":19042:19060   */\n      mload\n        /* \"#utility.yul\":19038:19039   */\n      dup2\n        /* \"#utility.yul\":19033:19036   */\n      dup5\n        /* \"#utility.yul\":19029:19040   */\n      add\n        /* \"#utility.yul\":19022:19061   */\n      mstore\n        /* \"#utility.yul\":18994:18996   */\n      0x20\n        /* \"#utility.yul\":18991:18992   */\n      dup2\n        /* \"#utility.yul\":18987:18997   */\n      add\n        /* \"#utility.yul\":18982:18997   */\n      swap1\n      pop\n        /* \"#utility.yul\":18958:19071   */\n      jump(tag_580)\n    tag_582:\n        /* \"#utility.yul\":19105:19106   */\n      0x00\n        /* \"#utility.yul\":19096:19102   */\n      dup5\n        /* \"#utility.yul\":19091:19094   */\n      dup5\n        /* \"#utility.yul\":19087:19103   */\n      add\n        /* \"#utility.yul\":19080:19107   */\n      mstore\n        /* \"#utility.yul\":18929:19113   */\n      pop\n        /* \"#utility.yul\":18867:19113   */\n      pop\n      pop\n      pop\n      jump\t// out\n        /* \"#utility.yul\":19119:19505   */\n    tag_360:\n        /* \"#utility.yul\":19223:19226   */\n      0x00\n        /* \"#utility.yul\":19251:19289   */\n      tag_584\n        /* \"#utility.yul\":19283:19288   */\n      dup3\n        /* \"#utility.yul\":19251:19289   */\n      tag_357\n      jump\t// in\n    tag_584:\n        /* \"#utility.yul\":19305:19393   */\n      tag_585\n        /* \"#utility.yul\":19386:19392   */\n      dup2\n        /* \"#utility.yul\":19381:19384   */\n      dup6\n        /* \"#utility.yul\":19305:19393   */\n      tag_358\n      jump\t// in\n    tag_585:\n        /* \"#utility.yul\":19298:19393   */\n      swap4\n      pop\n        /* \"#utility.yul\":19402:19467   */\n      tag_586\n        /* \"#utility.yul\":19460:19466   */\n      dup2\n        /* \"#utility.yul\":19455:19458   */\n      dup6\n        /* \"#utility.yul\":19448:19452   */\n      0x20\n        /* \"#utility.yul\":19441:19446   */\n      dup7\n        /* \"#utility.yul\":19437:19453   */\n      add\n        /* \"#utility.yul\":19402:19467   */\n      tag_359\n      jump\t// in\n    tag_586:\n        /* \"#utility.yul\":19492:19498   */\n      dup1\n        /* \"#utility.yul\":19487:19490   */\n      dup5\n        /* \"#utility.yul\":19483:19499   */\n      add\n        /* \"#utility.yul\":19476:19499   */\n      swap2\n      pop\n        /* \"#utility.yul\":19227:19505   */\n      pop\n        /* \"#utility.yul\":19119:19505   */\n      swap3\n      swap2\n      pop\n      pop\n      jump\t// out\n        /* \"#utility.yul\":19511:19782   */\n    tag_229:\n        /* \"#utility.yul\":19641:19644   */\n      0x00\n        /* \"#utility.yul\":19663:19756   */\n      tag_588\n        /* \"#utility.yul\":19752:19755   */\n      dup3\n        /* \"#utility.yul\":19743:19749   */\n      dup5\n        /* \"#utility.yul\":19663:19756   */\n      tag_360\n      jump\t// in\n    tag_588:\n        /* \"#utility.yul\":19656:19756   */\n      swap2\n      pop\n        /* \"#utility.yul\":19773:19776   */\n      dup2\n        /* \"#utility.yul\":19766:19776   */\n      swap1\n      pop\n        /* \"#utility.yul\":19511:19782   */\n      swap3\n      swap2\n      pop\n      pop\n      jump\t// out\n        /* \"#utility.yul\":19788:19904   */\n    tag_361:\n        /* \"#utility.yul\":19858:19879   */\n      tag_590\n        /* \"#utility.yul\":19873:19878   */\n      dup2\n        /* \"#utility.yul\":19858:19879   */\n      tag_333\n      jump\t// in\n    tag_590:\n        /* \"#utility.yul\":19851:19856   */\n      dup2\n        /* \"#utility.yul\":19848:19880   */\n      eq\n        /* \"#utility.yul\":19838:19898   */\n      tag_591\n      jumpi\n        /* \"#utility.yul\":19894:19895   */\n      0x00\n        /* \"#utility.yul\":19891:19892   */\n      dup1\n        /* \"#utility.yul\":19884:19896   */\n      revert\n        /* \"#utility.yul\":19838:19898   */\n    tag_591:\n        /* \"#utility.yul\":19788:19904   */\n      pop\n      jump\t// out\n        /* \"#utility.yul\":19910:20047   */\n    tag_362:\n        /* \"#utility.yul\":19964:19969   */\n      0x00\n        /* \"#utility.yul\":19995:20001   */\n      dup2\n        /* \"#utility.yul\":19989:20002   */\n      mload\n        /* \"#utility.yul\":19980:20002   */\n      swap1\n      pop\n        /* \"#utility.yul\":20011:20041   */\n      tag_593\n        /* \"#utility.yul\":20035:20040   */\n      dup2\n        /* \"#utility.yul\":20011:20041   */\n      tag_361\n      jump\t// in\n    tag_593:\n        /* \"#utility.yul\":19910:20047   */\n      swap3\n      swap2\n      pop\n      pop\n      jump\t// out\n        /* \"#utility.yul\":20053:20398   */\n    tag_236:\n        /* \"#utility.yul\":20120:20126   */\n      0x00\n        /* \"#utility.yul\":20169:20171   */\n      0x20\n        /* \"#utility.yul\":20157:20166   */\n      dup3\n        /* \"#utility.yul\":20148:20155   */\n      dup5\n        /* \"#utility.yul\":20144:20167   */\n      sub\n        /* \"#utility.yul\":20140:20172   */\n      slt\n        /* \"#utility.yul\":20137:20256   */\n      iszero\n      tag_595\n      jumpi\n        /* \"#utility.yul\":20175:20254   */\n      tag_596\n      tag_317\n      jump\t// in\n    tag_596:\n        /* \"#utility.yul\":20137:20256   */\n    tag_595:\n        /* \"#utility.yul\":20295:20296   */\n      0x00\n        /* \"#utility.yul\":20320:20381   */\n      tag_597\n        /* \"#utility.yul\":20373:20380   */\n      dup5\n        /* \"#utility.yul\":20364:20370   */\n      dup3\n        /* \"#utility.yul\":20353:20362   */\n      dup6\n        /* \"#utility.yul\":20349:20371   */\n      add\n        /* \"#utility.yul\":20320:20381   */\n      tag_362\n      jump\t// in\n    tag_597:\n        /* \"#utility.yul\":20310:20381   */\n      swap2\n      pop\n        /* \"#utility.yul\":20266:20391   */\n      pop\n        /* \"#utility.yul\":20053:20398   */\n      swap3\n      swap2\n      pop\n      pop\n      jump\t// out\n        /* \"#utility.yul\":20404:20577   */\n    tag_363:\n        /* \"#utility.yul\":20544:20569   */\n      0x4552433230546f6b656e5472616e736665724572726f72000000000000000000\n        /* \"#utility.yul\":20540:20541   */\n      0x00\n        /* \"#utility.yul\":20532:20538   */\n      dup3\n        /* \"#utility.yul\":20528:20542   */\n      add\n        /* \"#utility.yul\":20521:20570   */\n      mstore\n        /* \"#utility.yul\":20404:20577   */\n      pop\n      jump\t// out\n        /* \"#utility.yul\":20583:20949   */\n    tag_364:\n        /* \"#utility.yul\":20725:20728   */\n      0x00\n        /* \"#utility.yul\":20746:20813   */\n      tag_600\n        /* \"#utility.yul\":20810:20812   */\n      0x17\n        /* \"#utility.yul\":20805:20808   */\n      dup4\n        /* \"#utility.yul\":20746:20813   */\n      tag_353\n      jump\t// in\n    tag_600:\n        /* \"#utility.yul\":20739:20813   */\n      swap2\n      pop\n        /* \"#utility.yul\":20822:20915   */\n      tag_601\n        /* \"#utility.yul\":20911:20914   */\n      dup3\n        /* \"#utility.yul\":20822:20915   */\n      tag_363\n      jump\t// in\n    tag_601:\n        /* \"#utility.yul\":20940:20942   */\n      0x20\n        /* \"#utility.yul\":20935:20938   */\n      dup3\n        /* \"#utility.yul\":20931:20943   */\n      add\n        /* \"#utility.yul\":20924:20943   */\n      swap1\n      pop\n        /* \"#utility.yul\":20583:20949   */\n      swap2\n      swap1\n      pop\n      jump\t// out\n        /* \"#utility.yul\":20955:21374   */\n    tag_239:\n        /* \"#utility.yul\":21121:21125   */\n      0x00\n        /* \"#utility.yul\":21159:21161   */\n      0x20\n        /* \"#utility.yul\":21148:21157   */\n      dup3\n        /* \"#utility.yul\":21144:21162   */\n      add\n        /* \"#utility.yul\":21136:21162   */\n      swap1\n      pop\n        /* \"#utility.yul\":21208:21217   */\n      dup2\n        /* \"#utility.yul\":21202:21206   */\n      dup2\n        /* \"#utility.yul\":21198:21218   */\n      sub\n        /* \"#utility.yul\":21194:21195   */\n      0x00\n        /* \"#utility.yul\":21183:21192   */\n      dup4\n        /* \"#utility.yul\":21179:21196   */\n      add\n        /* \"#utility.yul\":21172:21219   */\n      mstore\n        /* \"#utility.yul\":21236:21367   */\n      tag_603\n        /* \"#utility.yul\":21362:21366   */\n      dup2\n        /* \"#utility.yul\":21236:21367   */\n      tag_364\n      jump\t// in\n    tag_603:\n        /* \"#utility.yul\":21228:21367   */\n      swap1\n      pop\n        /* \"#utility.yul\":20955:21374   */\n      swap2\n      swap1\n      pop\n      jump\t// out\n        /* \"#utility.yul\":21380:21554   */\n    tag_365:\n        /* \"#utility.yul\":21520:21546   */\n      0x455243373737546f6b656e436f6e74726163744572726f720000000000000000\n        /* \"#utility.yul\":21516:21517   */\n      0x00\n        /* \"#utility.yul\":21508:21514   */\n      dup3\n        /* \"#utility.yul\":21504:21518   */\n      add\n        /* \"#utility.yul\":21497:21547   */\n      mstore\n        /* \"#utility.yul\":21380:21554   */\n      pop\n      jump\t// out\n        /* \"#utility.yul\":21560:21926   */\n    tag_366:\n        /* \"#utility.yul\":21702:21705   */\n      0x00\n        /* \"#utility.yul\":21723:21790   */\n      tag_606\n        /* \"#utility.yul\":21787:21789   */\n      0x18\n        /* \"#utility.yul\":21782:21785   */\n      dup4\n        /* \"#utility.yul\":21723:21790   */\n      tag_353\n      jump\t// in\n    tag_606:\n        /* \"#utility.yul\":21716:21790   */\n      swap2\n      pop\n        /* \"#utility.yul\":21799:21892   */\n      tag_607\n        /* \"#utility.yul\":21888:21891   */\n      dup3\n        /* \"#utility.yul\":21799:21892   */\n      tag_365\n      jump\t// in\n    tag_607:\n        /* \"#utility.yul\":21917:21919   */\n      0x20\n        /* \"#utility.yul\":21912:21915   */\n      dup3\n        /* \"#utility.yul\":21908:21920   */\n      add\n        /* \"#utility.yul\":21901:21920   */\n      swap1\n      pop\n        /* \"#utility.yul\":21560:21926   */\n      swap2\n      swap1\n      pop\n      jump\t// out\n        /* \"#utility.yul\":21932:22351   */\n    tag_262:\n        /* \"#utility.yul\":22098:22102   */\n      0x00\n        /* \"#utility.yul\":22136:22138   */\n      0x20\n        /* \"#utility.yul\":22125:22134   */\n      dup3\n        /* \"#utility.yul\":22121:22139   */\n      add\n        /* \"#utility.yul\":22113:22139   */\n      swap1\n      pop\n        /* \"#utility.yul\":22185:22194   */\n      dup2\n        /* \"#utility.yul\":22179:22183   */\n      dup2\n        /* \"#utility.yul\":22175:22195   */\n      sub\n        /* \"#utility.yul\":22171:22172   */\n      0x00\n        /* \"#utility.yul\":22160:22169   */\n      dup4\n        /* \"#utility.yul\":22156:22173   */\n      add\n        /* \"#utility.yul\":22149:22196   */\n      mstore\n        /* \"#utility.yul\":22213:22344   */\n      tag_609\n        /* \"#utility.yul\":22339:22343   */\n      dup2\n        /* \"#utility.yul\":22213:22344   */\n      tag_366\n      jump\t// in\n    tag_609:\n        /* \"#utility.yul\":22205:22344   */\n      swap1\n      pop\n        /* \"#utility.yul\":21932:22351   */\n      swap2\n      swap1\n      pop\n      jump\t// out\n        /* \"#utility.yul\":22357:22525   */\n    tag_367:\n        /* \"#utility.yul\":22440:22451   */\n      0x00\n        /* \"#utility.yul\":22474:22480   */\n      dup3\n        /* \"#utility.yul\":22469:22472   */\n      dup3\n        /* \"#utility.yul\":22462:22481   */\n      mstore\n        /* \"#utility.yul\":22514:22518   */\n      0x20\n        /* \"#utility.yul\":22509:22512   */\n      dup3\n        /* \"#utility.yul\":22505:22519   */\n      add\n        /* \"#utility.yul\":22490:22519   */\n      swap1\n      pop\n        /* \"#utility.yul\":22357:22525   */\n      swap3\n      swap2\n      pop\n      pop\n      jump\t// out\n        /* \"#utility.yul\":22531:22904   */\n    tag_368:\n        /* \"#utility.yul\":22617:22620   */\n      0x00\n        /* \"#utility.yul\":22645:22683   */\n      tag_612\n        /* \"#utility.yul\":22677:22682   */\n      dup3\n        /* \"#utility.yul\":22645:22683   */\n      tag_357\n      jump\t// in\n    tag_612:\n        /* \"#utility.yul\":22699:22769   */\n      tag_613\n        /* \"#utility.yul\":22762:22768   */\n      dup2\n        /* \"#utility.yul\":22757:22760   */\n      dup6\n        /* \"#utility.yul\":22699:22769   */\n      tag_367\n      jump\t// in\n    tag_613:\n        /* \"#utility.yul\":22692:22769   */\n      swap4\n      pop\n        /* \"#utility.yul\":22778:22843   */\n      tag_614\n        /* \"#utility.yul\":22836:22842   */\n      dup2\n        /* \"#utility.yul\":22831:22834   */\n      dup6\n        /* \"#utility.yul\":22824:22828   */\n      0x20\n        /* \"#utility.yul\":22817:22822   */\n      dup7\n        /* \"#utility.yul\":22813:22829   */\n      add\n        /* \"#utility.yul\":22778:22843   */\n      tag_359\n      jump\t// in\n    tag_614:\n        /* \"#utility.yul\":22868:22897   */\n      tag_615\n        /* \"#utility.yul\":22890:22896   */\n      dup2\n        /* \"#utility.yul\":22868:22897   */\n      tag_336\n      jump\t// in\n    tag_615:\n        /* \"#utility.yul\":22863:22866   */\n      dup5\n        /* \"#utility.yul\":22859:22898   */\n      add\n        /* \"#utility.yul\":22852:22898   */\n      swap2\n      pop\n        /* \"#utility.yul\":22621:22904   */\n      pop\n        /* \"#utility.yul\":22531:22904   */\n      swap3\n      swap2\n      pop\n      pop\n      jump\t// out\n        /* \"#utility.yul\":22910:23439   */\n    tag_264:\n        /* \"#utility.yul\":23077:23081   */\n      0x00\n        /* \"#utility.yul\":23115:23117   */\n      0x60\n        /* \"#utility.yul\":23104:23113   */\n      dup3\n        /* \"#utility.yul\":23100:23118   */\n      add\n        /* \"#utility.yul\":23092:23118   */\n      swap1\n      pop\n        /* \"#utility.yul\":23128:23199   */\n      tag_617\n        /* \"#utility.yul\":23196:23197   */\n      0x00\n        /* \"#utility.yul\":23185:23194   */\n      dup4\n        /* \"#utility.yul\":23181:23198   */\n      add\n        /* \"#utility.yul\":23172:23178   */\n      dup7\n        /* \"#utility.yul\":23128:23199   */\n      tag_349\n      jump\t// in\n    tag_617:\n        /* \"#utility.yul\":23209:23281   */\n      tag_618\n        /* \"#utility.yul\":23277:23279   */\n      0x20\n        /* \"#utility.yul\":23266:23275   */\n      dup4\n        /* \"#utility.yul\":23262:23280   */\n      add\n        /* \"#utility.yul\":23253:23259   */\n      dup6\n        /* \"#utility.yul\":23209:23281   */\n      tag_356\n      jump\t// in\n    tag_618:\n        /* \"#utility.yul\":23328:23337   */\n      dup2\n        /* \"#utility.yul\":23322:23326   */\n      dup2\n        /* \"#utility.yul\":23318:23338   */\n      sub\n        /* \"#utility.yul\":23313:23315   */\n      0x40\n        /* \"#utility.yul\":23302:23311   */\n      dup4\n        /* \"#utility.yul\":23298:23316   */\n      add\n        /* \"#utility.yul\":23291:23339   */\n      mstore\n        /* \"#utility.yul\":23356:23432   */\n      tag_619\n        /* \"#utility.yul\":23427:23431   */\n      dup2\n        /* \"#utility.yul\":23418:23424   */\n      dup5\n        /* \"#utility.yul\":23356:23432   */\n      tag_368\n      jump\t// in\n    tag_619:\n        /* \"#utility.yul\":23348:23432   */\n      swap1\n      pop\n        /* \"#utility.yul\":22910:23439   */\n      swap5\n      swap4\n      pop\n      pop\n      pop\n      pop\n      jump\t// out\n        /* \"#utility.yul\":23445:23619   */\n    tag_369:\n        /* \"#utility.yul\":23585:23611   */\n      0x455243373737546f6b656e5472616e736665724572726f720000000000000000\n        /* \"#utility.yul\":23581:23582   */\n      0x00\n        /* \"#utility.yul\":23573:23579   */\n      dup3\n        /* \"#utility.yul\":23569:23583   */\n      add\n        /* \"#utility.yul\":23562:23612   */\n      mstore\n        /* \"#utility.yul\":23445:23619   */\n      pop\n      jump\t// out\n        /* \"#utility.yul\":23625:23991   */\n    tag_370:\n        /* \"#utility.yul\":23767:23770   */\n      0x00\n        /* \"#utility.yul\":23788:23855   */\n      tag_622\n        /* \"#utility.yul\":23852:23854   */\n      0x18\n        /* \"#utility.yul\":23847:23850   */\n      dup4\n        /* \"#utility.yul\":23788:23855   */\n      tag_353\n      jump\t// in\n    tag_622:\n        /* \"#utility.yul\":23781:23855   */\n      swap2\n      pop\n        /* \"#utility.yul\":23864:23957   */\n      tag_623\n        /* \"#utility.yul\":23953:23956   */\n      dup3\n        /* \"#utility.yul\":23864:23957   */\n      tag_369\n      jump\t// in\n    tag_623:\n        /* \"#utility.yul\":23982:23984   */\n      0x20\n        /* \"#utility.yul\":23977:23980   */\n      dup3\n        /* \"#utility.yul\":23973:23985   */\n      add\n        /* \"#utility.yul\":23966:23985   */\n      swap1\n      pop\n        /* \"#utility.yul\":23625:23991   */\n      swap2\n      swap1\n      pop\n      jump\t// out\n        /* \"#utility.yul\":23997:24416   */\n    tag_274:\n        /* \"#utility.yul\":24163:24167   */\n      0x00\n        /* \"#utility.yul\":24201:24203   */\n      0x20\n        /* \"#utility.yul\":24190:24199   */\n      dup3\n        /* \"#utility.yul\":24186:24204   */\n      add\n        /* \"#utility.yul\":24178:24204   */\n      swap1\n      pop\n        /* \"#utility.yul\":24250:24259   */\n      dup2\n        /* \"#utility.yul\":24244:24248   */\n      dup2\n        /* \"#utility.yul\":24240:24260   */\n      sub\n        /* \"#utility.yul\":24236:24237   */\n      0x00\n        /* \"#utility.yul\":24225:24234   */\n      dup4\n        /* \"#utility.yul\":24221:24238   */\n      add\n        /* \"#utility.yul\":24214:24261   */\n      mstore\n        /* \"#utility.yul\":24278:24409   */\n      tag_625\n        /* \"#utility.yul\":24404:24408   */\n      dup2\n        /* \"#utility.yul\":24278:24409   */\n      tag_370\n      jump\t// in\n    tag_625:\n        /* \"#utility.yul\":24270:24409   */\n      swap1\n      pop\n        /* \"#utility.yul\":23997:24416   */\n      swap2\n      swap1\n      pop\n      jump\t// out\n        /* \"#utility.yul\":24422:24596   */\n    tag_371:\n        /* \"#utility.yul\":24562:24588   */\n      0x455243373231546f6b656e436f6e74726163744572726f720000000000000000\n        /* \"#utility.yul\":24558:24559   */\n      0x00\n        /* \"#utility.yul\":24550:24556   */\n      dup3\n        /* \"#utility.yul\":24546:24560   */\n      add\n        /* \"#utility.yul\":24539:24589   */\n      mstore\n        /* \"#utility.yul\":24422:24596   */\n      pop\n      jump\t// out\n        /* \"#utility.yul\":24602:24968   */\n    tag_372:\n        /* \"#utility.yul\":24744:24747   */\n      0x00\n        /* \"#utility.yul\":24765:24832   */\n      tag_628\n        /* \"#utility.yul\":24829:24831   */\n      0x18\n        /* \"#utility.yul\":24824:24827   */\n      dup4\n        /* \"#utility.yul\":24765:24832   */\n      tag_353\n      jump\t// in\n    tag_628:\n        /* \"#utility.yul\":24758:24832   */\n      swap2\n      pop\n        /* \"#utility.yul\":24841:24934   */\n      tag_629\n        /* \"#utility.yul\":24930:24933   */\n      dup3\n        /* \"#utility.yul\":24841:24934   */\n      tag_371\n      jump\t// in\n    tag_629:\n        /* \"#utility.yul\":24959:24961   */\n      0x20\n        /* \"#utility.yul\":24954:24957   */\n      dup3\n        /* \"#utility.yul\":24950:24962   */\n      add\n        /* \"#utility.yul\":24943:24962   */\n      swap1\n      pop\n        /* \"#utility.yul\":24602:24968   */\n      swap2\n      swap1\n      pop\n      jump\t// out\n        /* \"#utility.yul\":24974:25393   */\n    tag_279:\n        /* \"#utility.yul\":25140:25144   */\n      0x00\n        /* \"#utility.yul\":25178:25180   */\n      0x20\n        /* \"#utility.yul\":25167:25176   */\n      dup3\n        /* \"#utility.yul\":25163:25181   */\n      add\n        /* \"#utility.yul\":25155:25181   */\n      swap1\n      pop\n        /* \"#utility.yul\":25227:25236   */\n      dup2\n        /* \"#utility.yul\":25221:25225   */\n      dup2\n        /* \"#utility.yul\":25217:25237   */\n      sub\n        /* \"#utility.yul\":25213:25214   */\n      0x00\n        /* \"#utility.yul\":25202:25211   */\n      dup4\n        /* \"#utility.yul\":25198:25215   */\n      add\n        /* \"#utility.yul\":25191:25238   */\n      mstore\n        /* \"#utility.yul\":25255:25386   */\n      tag_631\n        /* \"#utility.yul\":25381:25385   */\n      dup2\n        /* \"#utility.yul\":25255:25386   */\n      tag_372\n      jump\t// in\n    tag_631:\n        /* \"#utility.yul\":25247:25386   */\n      swap1\n      pop\n        /* \"#utility.yul\":24974:25393   */\n      swap2\n      swap1\n      pop\n      jump\t// out\n        /* \"#utility.yul\":25399:25841   */\n    tag_281:\n        /* \"#utility.yul\":25548:25552   */\n      0x00\n        /* \"#utility.yul\":25586:25588   */\n      0x60\n        /* \"#utility.yul\":25575:25584   */\n      dup3\n        /* \"#utility.yul\":25571:25589   */\n      add\n        /* \"#utility.yul\":25563:25589   */\n      swap1\n      pop\n        /* \"#utility.yul\":25599:25670   */\n      tag_633\n        /* \"#utility.yul\":25667:25668   */\n      0x00\n        /* \"#utility.yul\":25656:25665   */\n      dup4\n        /* \"#utility.yul\":25652:25669   */\n      add\n        /* \"#utility.yul\":25643:25649   */\n      dup7\n        /* \"#utility.yul\":25599:25670   */\n      tag_349\n      jump\t// in\n    tag_633:\n        /* \"#utility.yul\":25680:25752   */\n      tag_634\n        /* \"#utility.yul\":25748:25750   */\n      0x20\n        /* \"#utility.yul\":25737:25746   */\n      dup4\n        /* \"#utility.yul\":25733:25751   */\n      add\n        /* \"#utility.yul\":25724:25730   */\n      dup6\n        /* \"#utility.yul\":25680:25752   */\n      tag_349\n      jump\t// in\n    tag_634:\n        /* \"#utility.yul\":25762:25834   */\n      tag_635\n        /* \"#utility.yul\":25830:25832   */\n      0x40\n        /* \"#utility.yul\":25819:25828   */\n      dup4\n        /* \"#utility.yul\":25815:25833   */\n      add\n        /* \"#utility.yul\":25806:25812   */\n      dup5\n        /* \"#utility.yul\":25762:25834   */\n      tag_356\n      jump\t// in\n    tag_635:\n        /* \"#utility.yul\":25399:25841   */\n      swap5\n      swap4\n      pop\n      pop\n      pop\n      pop\n      jump\t// out\n        /* \"#utility.yul\":25847:26021   */\n    tag_373:\n        /* \"#utility.yul\":25987:26013   */\n      0x455243373231546f6b656e5472616e736665724572726f720000000000000000\n        /* \"#utility.yul\":25983:25984   */\n      0x00\n        /* \"#utility.yul\":25975:25981   */\n      dup3\n        /* \"#utility.yul\":25971:25985   */\n      add\n        /* \"#utility.yul\":25964:26014   */\n      mstore\n        /* \"#utility.yul\":25847:26021   */\n      pop\n      jump\t// out\n        /* \"#utility.yul\":26027:26393   */\n    tag_374:\n        /* \"#utility.yul\":26169:26172   */\n      0x00\n        /* \"#utility.yul\":26190:26257   */\n      tag_638\n        /* \"#utility.yul\":26254:26256   */\n      0x18\n        /* \"#utility.yul\":26249:26252   */\n      dup4\n        /* \"#utility.yul\":26190:26257   */\n      tag_353\n      jump\t// in\n    tag_638:\n        /* \"#utility.yul\":26183:26257   */\n      swap2\n      pop\n        /* \"#utility.yul\":26266:26359   */\n      tag_639\n        /* \"#utility.yul\":26355:26358   */\n      dup3\n        /* \"#utility.yul\":26266:26359   */\n      tag_373\n      jump\t// in\n    tag_639:\n        /* \"#utility.yul\":26384:26386   */\n      0x20\n        /* \"#utility.yul\":26379:26382   */\n      dup3\n        /* \"#utility.yul\":26375:26387   */\n      add\n        /* \"#utility.yul\":26368:26387   */\n      swap1\n      pop\n        /* \"#utility.yul\":26027:26393   */\n      swap2\n      swap1\n      pop\n      jump\t// out\n        /* \"#utility.yul\":26399:26818   */\n    tag_291:\n        /* \"#utility.yul\":26565:26569   */\n      0x00\n        /* \"#utility.yul\":26603:26605   */\n      0x20\n        /* \"#utility.yul\":26592:26601   */\n      dup3\n        /* \"#utility.yul\":26588:26606   */\n      add\n        /* \"#utility.yul\":26580:26606   */\n      swap1\n      pop\n        /* \"#utility.yul\":26652:26661   */\n      dup2\n        /* \"#utility.yul\":26646:26650   */\n      dup2\n        /* \"#utility.yul\":26642:26662   */\n      sub\n        /* \"#utility.yul\":26638:26639   */\n      0x00\n        /* \"#utility.yul\":26627:26636   */\n      dup4\n        /* \"#utility.yul\":26623:26640   */\n      add\n        /* \"#utility.yul\":26616:26663   */\n      mstore\n        /* \"#utility.yul\":26680:26811   */\n      tag_641\n        /* \"#utility.yul\":26806:26810   */\n      dup2\n        /* \"#utility.yul\":26680:26811   */\n      tag_374\n      jump\t// in\n    tag_641:\n        /* \"#utility.yul\":26672:26811   */\n      swap1\n      pop\n        /* \"#utility.yul\":26399:26818   */\n      swap2\n      swap1\n      pop\n      jump\t// out\n        /* \"#utility.yul\":26824:26999   */\n    tag_375:\n        /* \"#utility.yul\":26964:26991   */\n      0x45524331313535546f6b656e436f6e74726163744572726f7200000000000000\n        /* \"#utility.yul\":26960:26961   */\n      0x00\n        /* \"#utility.yul\":26952:26958   */\n      dup3\n        /* \"#utility.yul\":26948:26962   */\n      add\n        /* \"#utility.yul\":26941:26992   */\n      mstore\n        /* \"#utility.yul\":26824:26999   */\n      pop\n      jump\t// out\n        /* \"#utility.yul\":27005:27371   */\n    tag_376:\n        /* \"#utility.yul\":27147:27150   */\n      0x00\n        /* \"#utility.yul\":27168:27235   */\n      tag_644\n        /* \"#utility.yul\":27232:27234   */\n      0x19\n        /* \"#utility.yul\":27227:27230   */\n      dup4\n        /* \"#utility.yul\":27168:27235   */\n      tag_353\n      jump\t// in\n    tag_644:\n        /* \"#utility.yul\":27161:27235   */\n      swap2\n      pop\n        /* \"#utility.yul\":27244:27337   */\n      tag_645\n        /* \"#utility.yul\":27333:27336   */\n      dup3\n        /* \"#utility.yul\":27244:27337   */\n      tag_375\n      jump\t// in\n    tag_645:\n        /* \"#utility.yul\":27362:27364   */\n      0x20\n        /* \"#utility.yul\":27357:27360   */\n      dup3\n        /* \"#utility.yul\":27353:27365   */\n      add\n        /* \"#utility.yul\":27346:27365   */\n      swap1\n      pop\n        /* \"#utility.yul\":27005:27371   */\n      swap2\n      swap1\n      pop\n      jump\t// out\n        /* \"#utility.yul\":27377:27796   */\n    tag_299:\n        /* \"#utility.yul\":27543:27547   */\n      0x00\n        /* \"#utility.yul\":27581:27583   */\n      0x20\n        /* \"#utility.yul\":27570:27579   */\n      dup3\n        /* \"#utility.yul\":27566:27584   */\n      add\n        /* \"#utility.yul\":27558:27584   */\n      swap1\n      pop\n        /* \"#utility.yul\":27630:27639   */\n      dup2\n        /* \"#utility.yul\":27624:27628   */\n      dup2\n        /* \"#utility.yul\":27620:27640   */\n      sub\n        /* \"#utility.yul\":27616:27617   */\n      0x00\n        /* \"#utility.yul\":27605:27614   */\n      dup4\n        /* \"#utility.yul\":27601:27618   */\n      add\n        /* \"#utility.yul\":27594:27641   */\n      mstore\n        /* \"#utility.yul\":27658:27789   */\n      tag_647\n        /* \"#utility.yul\":27784:27788   */\n      dup2\n        /* \"#utility.yul\":27658:27789   */\n      tag_376\n      jump\t// in\n    tag_647:\n        /* \"#utility.yul\":27650:27789   */\n      swap1\n      pop\n        /* \"#utility.yul\":27377:27796   */\n      swap2\n      swap1\n      pop\n      jump\t// out\n        /* \"#utility.yul\":27802:28553   */\n    tag_301:\n        /* \"#utility.yul\":28025:28029   */\n      0x00\n        /* \"#utility.yul\":28063:28066   */\n      0xa0\n        /* \"#utility.yul\":28052:28061   */\n      dup3\n        /* \"#utility.yul\":28048:28067   */\n      add\n        /* \"#utility.yul\":28040:28067   */\n      swap1\n      pop\n        /* \"#utility.yul\":28077:28148   */\n      tag_649\n        /* \"#utility.yul\":28145:28146   */\n      0x00\n        /* \"#utility.yul\":28134:28143   */\n      dup4\n        /* \"#utility.yul\":28130:28147   */\n      add\n        /* \"#utility.yul\":28121:28127   */\n      dup9\n        /* \"#utility.yul\":28077:28148   */\n      tag_349\n      jump\t// in\n    tag_649:\n        /* \"#utility.yul\":28158:28230   */\n      tag_650\n        /* \"#utility.yul\":28226:28228   */\n      0x20\n        /* \"#utility.yul\":28215:28224   */\n      dup4\n        /* \"#utility.yul\":28211:28229   */\n      add\n        /* \"#utility.yul\":28202:28208   */\n      dup8\n        /* \"#utility.yul\":28158:28230   */\n      tag_349\n      jump\t// in\n    tag_650:\n        /* \"#utility.yul\":28240:28312   */\n      tag_651\n        /* \"#utility.yul\":28308:28310   */\n      0x40\n        /* \"#utility.yul\":28297:28306   */\n      dup4\n        /* \"#utility.yul\":28293:28311   */\n      add\n        /* \"#utility.yul\":28284:28290   */\n      dup7\n        /* \"#utility.yul\":28240:28312   */\n      tag_356\n      jump\t// in\n    tag_651:\n        /* \"#utility.yul\":28322:28394   */\n      tag_652\n        /* \"#utility.yul\":28390:28392   */\n      0x60\n        /* \"#utility.yul\":28379:28388   */\n      dup4\n        /* \"#utility.yul\":28375:28393   */\n      add\n        /* \"#utility.yul\":28366:28372   */\n      dup6\n        /* \"#utility.yul\":28322:28394   */\n      tag_356\n      jump\t// in\n    tag_652:\n        /* \"#utility.yul\":28442:28451   */\n      dup2\n        /* \"#utility.yul\":28436:28440   */\n      dup2\n        /* \"#utility.yul\":28432:28452   */\n      sub\n        /* \"#utility.yul\":28426:28429   */\n      0x80\n        /* \"#utility.yul\":28415:28424   */\n      dup4\n        /* \"#utility.yul\":28411:28430   */\n      add\n        /* \"#utility.yul\":28404:28453   */\n      mstore\n        /* \"#utility.yul\":28470:28546   */\n      tag_653\n        /* \"#utility.yul\":28541:28545   */\n      dup2\n        /* \"#utility.yul\":28532:28538   */\n      dup5\n        /* \"#utility.yul\":28470:28546   */\n      tag_368\n      jump\t// in\n    tag_653:\n        /* \"#utility.yul\":28462:28546   */\n      swap1\n      pop\n        /* \"#utility.yul\":27802:28553   */\n      swap7\n      swap6\n      pop\n      pop\n      pop\n      pop\n      pop\n      pop\n      jump\t// out\n        /* \"#utility.yul\":28559:28734   */\n    tag_377:\n        /* \"#utility.yul\":28699:28726   */\n      0x45524331313535546f6b656e5472616e736665724572726f7200000000000000\n        /* \"#utility.yul\":28695:28696   */\n      0x00\n        /* \"#utility.yul\":28687:28693   */\n      dup3\n        /* \"#utility.yul\":28683:28697   */\n      add\n        /* \"#utility.yul\":28676:28727   */\n      mstore\n        /* \"#utility.yul\":28559:28734   */\n      pop\n      jump\t// out\n        /* \"#utility.yul\":28740:29106   */\n    tag_378:\n        /* \"#utility.yul\":28882:28885   */\n      0x00\n        /* \"#utility.yul\":28903:28970   */\n      tag_656\n        /* \"#utility.yul\":28967:28969   */\n      0x19\n        /* \"#utility.yul\":28962:28965   */\n      dup4\n        /* \"#utility.yul\":28903:28970   */\n      tag_353\n      jump\t// in\n    tag_656:\n        /* \"#utility.yul\":28896:28970   */\n      swap2\n      pop\n        /* \"#utility.yul\":28979:29072   */\n      tag_657\n        /* \"#utility.yul\":29068:29071   */\n      dup3\n        /* \"#utility.yul\":28979:29072   */\n      tag_377\n      jump\t// in\n    tag_657:\n        /* \"#utility.yul\":29097:29099   */\n      0x20\n        /* \"#utility.yul\":29092:29095   */\n      dup3\n        /* \"#utility.yul\":29088:29100   */\n      add\n        /* \"#utility.yul\":29081:29100   */\n      swap1\n      pop\n        /* \"#utility.yul\":28740:29106   */\n      swap2\n      swap1\n      pop\n      jump\t// out\n        /* \"#utility.yul\":29112:29531   */\n    tag_311:\n        /* \"#utility.yul\":29278:29282   */\n      0x00\n        /* \"#utility.yul\":29316:29318   */\n      0x20\n        /* \"#utility.yul\":29305:29314   */\n      dup3\n        /* \"#utility.yul\":29301:29319   */\n      add\n        /* \"#utility.yul\":29293:29319   */\n      swap1\n      pop\n        /* \"#utility.yul\":29365:29374   */\n      dup2\n        /* \"#utility.yul\":29359:29363   */\n      dup2\n        /* \"#utility.yul\":29355:29375   */\n      sub\n        /* \"#utility.yul\":29351:29352   */\n      0x00\n        /* \"#utility.yul\":29340:29349   */\n      dup4\n        /* \"#utility.yul\":29336:29353   */\n      add\n        /* \"#utility.yul\":29329:29376   */\n      mstore\n        /* \"#utility.yul\":29393:29524   */\n      tag_659\n        /* \"#utility.yul\":29519:29523   */\n      dup2\n        /* \"#utility.yul\":29393:29524   */\n      tag_378\n      jump\t// in\n    tag_659:\n        /* \"#utility.yul\":29385:29524   */\n      swap1\n      pop\n        /* \"#utility.yul\":29112:29531   */\n      swap2\n      swap1\n      pop\n      jump\t// out\n\n    auxdata: 0xa2646970667358221220f68e140dc740fa75ff85d75c8e1fa5c59d6b4ae4914cbcc7b88a52eeebad552064736f6c63430008120033\n}\n",
				"bytecode": {
					"linkReferences": {},
					"object": "6080604052731820a4b7618bde71dce8cdc73aab6c95905fad2473ffffffffffffffffffffffffffffffffffffffff166329965a1d307fb281fc8c12954d22544db45de3159a39272895b169a852b314f9cc762e44c53b306040518463ffffffff1660e01b8152600401620000779392919062000330565b600060405180830381600087803b1580156200009257600080fd5b505af1158015620000a7573d6000803e3d6000fd5b50505050731820a4b7618bde71dce8cdc73aab6c95905fad2473ffffffffffffffffffffffffffffffffffffffff166329965a1d307f29ddb589b1fb5fc7cf394961c1adf5f8c6454761adf795e67fe149f658abe895306040518463ffffffff1660e01b81526004016200011e9392919062000330565b600060405180830381600087803b1580156200013957600080fd5b505af11580156200014e573d6000803e3d6000fd5b5050505062000163336200017a60201b60201c565b62000174336200028c60201b60201c565b6200036d565b60008054906101000a900473ffffffffffffffffffffffffffffffffffffffff1673ffffffffffffffffffffffffffffffffffffffff168173ffffffffffffffffffffffffffffffffffffffff161462000289578073ffffffffffffffffffffffffffffffffffffffff1660008054906101000a900473ffffffffffffffffffffffffffffffffffffffff1673ffffffffffffffffffffffffffffffffffffffff167fb532073b38c83145e3e5135377a08bf9aab55bc0fd7c1179cd4fb995d2a5159c60405160405180910390a3806000806101000a81548173ffffffffffffffffffffffffffffffffffffffff021916908373ffffffffffffffffffffffffffffffffffffffff1602179055505b50565b80600160006101000a81548173ffffffffffffffffffffffffffffffffffffffff021916908373ffffffffffffffffffffffffffffffffffffffff16021790555050565b600073ffffffffffffffffffffffffffffffffffffffff82169050919050565b6000620002fd82620002d0565b9050919050565b6200030f81620002f0565b82525050565b6000819050919050565b6200032a8162000315565b82525050565b600060608201905062000347600083018662000304565b6200035660208301856200031f565b62000365604083018462000304565b949350505050565b61236a806200037d6000396000f3fe6080604052600436106101295760003560e01c806391372456116100ab578063bc197c811161006f578063bc197c81146103d9578063d319aa3014610416578063dbd3cfcd14610441578063ed88c68e1461046a578063f23a6e6114610474578063f5da96dc146104b157610129565b806391372456146103085780639cd6e66614610333578063b282849614610370578063b4d9b97314610399578063b76a10ca146103b057610129565b80632e66ccf5116100f25780632e66ccf51461023757806341931a2f146102605780634f61b3ae14610277578063503d7fe4146102a257806375ab9782146102df57610129565b806223de291461012e57806301ffc9a714610157578063150b7a0214610194578063249cb3fa146101d15780632aa4ada01461020e575b600080fd5b34801561013a57600080fd5b5061015560048036038101906101509190611571565b6104da565b005b34801561016357600080fd5b5061017e60048036038101906101799190611698565b6104e4565b60405161018b91906116e0565b60405180910390f35b3480156101a057600080fd5b506101bb60048036038101906101b6919061183c565b610755565b6040516101c891906118ce565b60405180910390f35b3480156101dd57600080fd5b506101f860048036038101906101f3919061191f565b610769565b604051610205919061196e565b60405180910390f35b34801561021a57600080fd5b5061023560048036038101906102309190611989565b610829565b005b34801561024357600080fd5b5061025e600480360381019061025991906119c9565b610851565b005b34801561026c57600080fd5b50610275610877565b005b34801561028357600080fd5b5061028c61089b565b60405161029991906116e0565b60405180910390f35b3480156102ae57600080fd5b506102c960048036038101906102c491906119f6565b6108aa565b6040516102d691906116e0565b60405180910390f35b3480156102eb57600080fd5b5061030660048036038101906103019190611571565b6108bc565b005b34801561031457600080fd5b5061031d6108c6565b60405161032a9190611a32565b60405180910390f35b34801561033f57600080fd5b5061035a600480360381019061035591906119f6565b6108d5565b60405161036791906116e0565b60405180910390f35b34801561037c57600080fd5b5061039760048036038101906103929190611a4d565b6108e7565b005b3480156103a557600080fd5b506103ae610911565b005b3480156103bc57600080fd5b506103d760048036038101906103d29190611989565b610926565b005b3480156103e557600080fd5b5061040060048036038101906103fb9190611b7f565b61094e565b60405161040d91906118ce565b60405180910390f35b34801561042257600080fd5b5061042b610963565b6040516104389190611a32565b60405180910390f35b34801561044d57600080fd5b50610468600480360381019061046391906119f6565b610972565b005b610472610997565b005b34801561048057600080fd5b5061049b60048036038101906104969190611c4e565b610999565b6040516104a891906118ce565b60405180910390f35b3480156104bd57600080fd5b506104d860048036038101906104d39190611ce5565b6109ae565b005b5050505050505050565b60007f01ffc9a7000000000000000000000000000000000000000000000000000000007bffffffffffffffffffffffffffffffffffffffffffffffffffffffff1916827bffffffffffffffffffffffffffffffffffffffffffffffffffffffff191614806105af57507f150b7a02000000000000000000000000000000000000000000000000000000007bffffffffffffffffffffffffffffffffffffffffffffffffffffffff1916827bffffffffffffffffffffffffffffffffffffffffffffffffffffffff1916145b8061061657507e23de29000000000000000000000000000000000000000000000000000000007bffffffffffffffffffffffffffffffffffffffffffffffffffffffff1916827bffffffffffffffffffffffffffffffffffffffffffffffffffffffff1916145b8061067e57507f75ab9782000000000000000000000000000000000000000000000000000000007bffffffffffffffffffffffffffffffffffffffffffffffffffffffff1916827bffffffffffffffffffffffffffffffffffffffffffffffffffffffff1916145b806106e657507f4e2312e0000000000000000000000000000000000000000000000000000000007bffffffffffffffffffffffffffffffffffffffffffffffffffffffff1916827bffffffffffffffffffffffffffffffffffffffffffffffffffffffff1916145b8061074e57507f249cb3fa000000000000000000000000000000000000000000000000000000007bffffffffffffffffffffffffffffffffffffffffffffffffffffffff1916827bffffffffffffffffffffffffffffffffffffffffffffffffffffffff1916145b9050919050565b600063150b7a0260e01b9050949350505050565b60003073ffffffffffffffffffffffffffffffffffffffff168273ffffffffffffffffffffffffffffffffffffffff161480156107ef57507fb281fc8c12954d22544db45de3159a39272895b169a852b314f9cc762e44c53b8314806107ee57507f29ddb589b1fb5fc7cf394961c1adf5f8c6454761adf795e67fe149f658abe89583145b5b1561081c577fa2ef4600d742022d532d4747cb3547474667d6f13804902513b2ec01c848f4b49050610823565b6000801b90505b92915050565b6108316109da565b61083a336109fc565b610845823383610a52565b61084d610c0b565b5050565b6108596109da565b610862336109fc565b61086c3382610c17565b610874610c0b565b50565b61087f6109da565b61088833610c62565b61089133610cb8565b610899610c0b565b565b60006108a5610cc4565b905090565b60006108b582610cdb565b9050919050565b5050505050505050565b60006108d0610d1a565b905090565b60006108e082610d43565b9050919050565b6108ef6109da565b6108f8336109fc565b61090483338484610d82565b61090c610c0b565b505050565b61091a336109fc565b6109246000610f3e565b565b61092e6109da565b610937336109fc565b610942828233610f5b565b61094a610c0b565b5050565b600063bc197c8160e01b905095945050505050565b600061096d611116565b905090565b61097a6109da565b610983336109fc565b61098c81611140565b610994610c0b565b50565b565b600063f23a6e6160e01b905095945050505050565b6109b66109da565b6109bf336109fc565b6109cc848433858561114c565b6109d4610c0b565b50505050565b6109e2610cc4565b156109f0576109ef61130d565b5b6109fa6001610f3e565b565b610a0581610d43565b610a4f5780610a12610d1a565b6040517f0daa8083000000000000000000000000000000000000000000000000000000008152600401610a46929190611d68565b60405180910390fd5b50565b60008373ffffffffffffffffffffffffffffffffffffffff163b03610aac576040517f08c379a0000000000000000000000000000000000000000000000000000000008152600401610aa390611dee565b60405180910390fd5b600063a9059cbb60e01b8383604051602401610ac9929190611e1d565b604051602081830303815290604052907bffffffffffffffffffffffffffffffffffffffffffffffffffffffff19166020820180517bffffffffffffffffffffffffffffffffffffffffffffffffffffffff838183161783525050505090506000808573ffffffffffffffffffffffffffffffffffffffff1683604051610b509190611eb7565b6000604051808303816000865af19150503d8060008114610b8d576040519150601f19603f3d011682016040523d82523d6000602084013e610b92565b606091505b5091509150811580610bc357506000815114158015610bc2575080806020019051810190610bc09190611efa565b155b5b15610c03576040517f08c379a0000000000000000000000000000000000000000000000000000000008152600401610bfa90611f73565b60405180910390fd5b505050505050565b610c156000610f3e565b565b8173ffffffffffffffffffffffffffffffffffffffff166108fc829081150290604051600060405180830381858888f19350505050158015610c5d573d6000803e3d6000fd5b505050565b610c6b81610cdb565b610cb55780610c78611116565b6040517f549fbfe3000000000000000000000000000000000000000000000000000000008152600401610cac929190611d68565b60405180910390fd5b50565b610cc18161130f565b50565b6000600160149054906101000a900460ff16905090565b6000610ce5611116565b73ffffffffffffffffffffffffffffffffffffffff168273ffffffffffffffffffffffffffffffffffffffff16149050919050565b60008060009054906101000a900473ffffffffffffffffffffffffffffffffffffffff16905090565b6000610d4d610d1a565b73ffffffffffffffffffffffffffffffffffffffff168273ffffffffffffffffffffffffffffffffffffffff16149050919050565b60008473ffffffffffffffffffffffffffffffffffffffff163b03610ddc576040517f08c379a0000000000000000000000000000000000000000000000000000000008152600401610dd390611fdf565b60405180910390fd5b6000639bd9bbc660e01b848484604051602401610dfb93929190612049565b604051602081830303815290604052907bffffffffffffffffffffffffffffffffffffffffffffffffffffffff19166020820180517bffffffffffffffffffffffffffffffffffffffffffffffffffffffff838183161783525050505090506000808673ffffffffffffffffffffffffffffffffffffffff1683604051610e829190611eb7565b6000604051808303816000865af19150503d8060008114610ebf576040519150601f19603f3d011682016040523d82523d6000602084013e610ec4565b606091505b5091509150811580610ef557506000815114158015610ef4575080806020019051810190610ef29190611efa565b155b5b15610f35576040517f08c379a0000000000000000000000000000000000000000000000000000000008152600401610f2c906120d3565b60405180910390fd5b50505050505050565b80600160146101000a81548160ff02191690831515021790555050565b60008373ffffffffffffffffffffffffffffffffffffffff163b03610fb5576040517f08c379a0000000000000000000000000000000000000000000000000000000008152600401610fac9061213f565b60405180910390fd5b60006323b872dd60e01b308385604051602401610fd49392919061215f565b604051602081830303815290604052907bffffffffffffffffffffffffffffffffffffffffffffffffffffffff19166020820180517bffffffffffffffffffffffffffffffffffffffffffffffffffffffff838183161783525050505090506000808573ffffffffffffffffffffffffffffffffffffffff168360405161105b9190611eb7565b6000604051808303816000865af19150503d8060008114611098576040519150601f19603f3d011682016040523d82523d6000602084013e61109d565b606091505b50915091508115806110ce575060008151141580156110cd5750808060200190518101906110cb9190611efa565b155b5b1561110e576040517f08c379a0000000000000000000000000000000000000000000000000000000008152600401611105906121e2565b60405180910390fd5b505050505050565b6000600160009054906101000a900473ffffffffffffffffffffffffffffffffffffffff16905090565b61114981611420565b50565b60008573ffffffffffffffffffffffffffffffffffffffff163b036111a6576040517f08c379a000000000000000000000000000000000000000000000000000000000815260040161119d9061224e565b60405180910390fd5b600063f242432a60e01b30858786866040516024016111c995949392919061226e565b604051602081830303815290604052907bffffffffffffffffffffffffffffffffffffffffffffffffffffffff19166020820180517bffffffffffffffffffffffffffffffffffffffffffffffffffffffff838183161783525050505090506000808773ffffffffffffffffffffffffffffffffffffffff16836040516112509190611eb7565b6000604051808303816000865af19150503d806000811461128d576040519150601f19603f3d011682016040523d82523d6000602084013e611292565b606091505b50915091508115806112c3575060008151141580156112c25750808060200190518101906112c09190611efa565b155b5b15611303576040517f08c379a00000000000000000000000000000000000000000000000000000000081526004016112fa90612314565b60405180910390fd5b5050505050505050565bfe5b60008054906101000a900473ffffffffffffffffffffffffffffffffffffffff1673ffffffffffffffffffffffffffffffffffffffff168173ffffffffffffffffffffffffffffffffffffffff161461141d578073ffffffffffffffffffffffffffffffffffffffff1660008054906101000a900473ffffffffffffffffffffffffffffffffffffffff1673ffffffffffffffffffffffffffffffffffffffff167fb532073b38c83145e3e5135377a08bf9aab55bc0fd7c1179cd4fb995d2a5159c60405160405180910390a3806000806101000a81548173ffffffffffffffffffffffffffffffffffffffff021916908373ffffffffffffffffffffffffffffffffffffffff1602179055505b50565b80600160006101000a81548173ffffffffffffffffffffffffffffffffffffffff021916908373ffffffffffffffffffffffffffffffffffffffff16021790555050565b6000604051905090565b600080fd5b600080fd5b600073ffffffffffffffffffffffffffffffffffffffff82169050919050565b60006114a382611478565b9050919050565b6114b381611498565b81146114be57600080fd5b50565b6000813590506114d0816114aa565b92915050565b6000819050919050565b6114e9816114d6565b81146114f457600080fd5b50565b600081359050611506816114e0565b92915050565b600080fd5b600080fd5b600080fd5b60008083601f8401126115315761153061150c565b5b8235905067ffffffffffffffff81111561154e5761154d611511565b5b60208301915083600182028301111561156a57611569611516565b5b9250929050565b60008060008060008060008060c0898b0312156115915761159061146e565b5b600061159f8b828c016114c1565b98505060206115b08b828c016114c1565b97505060406115c18b828c016114c1565b96505060606115d28b828c016114f7565b955050608089013567ffffffffffffffff8111156115f3576115f2611473565b5b6115ff8b828c0161151b565b945094505060a089013567ffffffffffffffff81111561162257611621611473565b5b61162e8b828c0161151b565b92509250509295985092959890939650565b60007fffffffff0000000000000000000000000000000000000000000000000000000082169050919050565b61167581611640565b811461168057600080fd5b50565b6000813590506116928161166c565b92915050565b6000602082840312156116ae576116ad61146e565b5b60006116bc84828501611683565b91505092915050565b60008115159050919050565b6116da816116c5565b82525050565b60006020820190506116f560008301846116d1565b92915050565b600080fd5b6000601f19601f8301169050919050565b7f4e487b7100000000000000000000000000000000000000000000000000000000600052604160045260246000fd5b61174982611700565b810181811067ffffffffffffffff8211171561176857611767611711565b5b80604052505050565b600061177b611464565b90506117878282611740565b919050565b600067ffffffffffffffff8211156117a7576117a6611711565b5b6117b082611700565b9050602081019050919050565b82818337600083830152505050565b60006117df6117da8461178c565b611771565b9050828152602081018484840111156117fb576117fa6116fb565b5b6118068482856117bd565b509392505050565b600082601f8301126118235761182261150c565b5b81356118338482602086016117cc565b91505092915050565b600080600080608085870312156118565761185561146e565b5b6000611864878288016114c1565b9450506020611875878288016114c1565b9350506040611886878288016114f7565b925050606085013567ffffffffffffffff8111156118a7576118a6611473565b5b6118b38782880161180e565b91505092959194509250565b6118c881611640565b82525050565b60006020820190506118e360008301846118bf565b92915050565b6000819050919050565b6118fc816118e9565b811461190757600080fd5b50565b600081359050611919816118f3565b92915050565b600080604083850312156119365761193561146e565b5b60006119448582860161190a565b9250506020611955858286016114c1565b9150509250929050565b611968816118e9565b82525050565b6000602082019050611983600083018461195f565b92915050565b600080604083850312156119a05761199f61146e565b5b60006119ae858286016114c1565b92505060206119bf858286016114f7565b9150509250929050565b6000602082840312156119df576119de61146e565b5b60006119ed848285016114f7565b91505092915050565b600060208284031215611a0c57611a0b61146e565b5b6000611a1a848285016114c1565b91505092915050565b611a2c81611498565b82525050565b6000602082019050611a476000830184611a23565b92915050565b600080600060608486031215611a6657611a6561146e565b5b6000611a74868287016114c1565b9350506020611a85868287016114f7565b925050604084013567ffffffffffffffff811115611aa657611aa5611473565b5b611ab28682870161180e565b9150509250925092565b600067ffffffffffffffff821115611ad757611ad6611711565b5b602082029050602081019050919050565b6000611afb611af684611abc565b611771565b90508083825260208201905060208402830185811115611b1e57611b1d611516565b5b835b81811015611b475780611b3388826114f7565b845260208401935050602081019050611b20565b5050509392505050565b600082601f830112611b6657611b6561150c565b5b8135611b76848260208601611ae8565b91505092915050565b600080600080600060a08688031215611b9b57611b9a61146e565b5b6000611ba9888289016114c1565b9550506020611bba888289016114c1565b945050604086013567ffffffffffffffff811115611bdb57611bda611473565b5b611be788828901611b51565b935050606086013567ffffffffffffffff811115611c0857611c07611473565b5b611c1488828901611b51565b925050608086013567ffffffffffffffff811115611c3557611c34611473565b5b611c418882890161180e565b9150509295509295909350565b600080600080600060a08688031215611c6a57611c6961146e565b5b6000611c78888289016114c1565b9550506020611c89888289016114c1565b9450506040611c9a888289016114f7565b9350506060611cab888289016114f7565b925050608086013567ffffffffffffffff811115611ccc57611ccb611473565b5b611cd88882890161180e565b9150509295509295909350565b60008060008060808587031215611cff57611cfe61146e565b5b6000611d0d878288016114c1565b9450506020611d1e878288016114f7565b9350506040611d2f878288016114f7565b925050606085013567ffffffffffffffff811115611d5057611d4f611473565b5b611d5c8782880161180e565b91505092959194509250565b6000604082019050611d7d6000830185611a23565b611d8a6020830184611a23565b9392505050565b600082825260208201905092915050565b7f4552433230546f6b656e436f6e74726163744572726f72000000000000000000600082015250565b6000611dd8601783611d91565b9150611de382611da2565b602082019050919050565b60006020820190508181036000830152611e0781611dcb565b9050919050565b611e17816114d6565b82525050565b6000604082019050611e326000830185611a23565b611e3f6020830184611e0e565b9392505050565b600081519050919050565b600081905092915050565b60005b83811015611e7a578082015181840152602081019050611e5f565b60008484015250505050565b6000611e9182611e46565b611e9b8185611e51565b9350611eab818560208601611e5c565b80840191505092915050565b6000611ec38284611e86565b915081905092915050565b611ed7816116c5565b8114611ee257600080fd5b50565b600081519050611ef481611ece565b92915050565b600060208284031215611f1057611f0f61146e565b5b6000611f1e84828501611ee5565b91505092915050565b7f4552433230546f6b656e5472616e736665724572726f72000000000000000000600082015250565b6000611f5d601783611d91565b9150611f6882611f27565b602082019050919050565b60006020820190508181036000830152611f8c81611f50565b9050919050565b7f455243373737546f6b656e436f6e74726163744572726f720000000000000000600082015250565b6000611fc9601883611d91565b9150611fd482611f93565b602082019050919050565b60006020820190508181036000830152611ff881611fbc565b9050919050565b600082825260208201905092915050565b600061201b82611e46565b6120258185611fff565b9350612035818560208601611e5c565b61203e81611700565b840191505092915050565b600060608201905061205e6000830186611a23565b61206b6020830185611e0e565b818103604083015261207d8184612010565b9050949350505050565b7f455243373737546f6b656e5472616e736665724572726f720000000000000000600082015250565b60006120bd601883611d91565b91506120c882612087565b602082019050919050565b600060208201905081810360008301526120ec816120b0565b9050919050565b7f455243373231546f6b656e436f6e74726163744572726f720000000000000000600082015250565b6000612129601883611d91565b9150612134826120f3565b602082019050919050565b600060208201905081810360008301526121588161211c565b9050919050565b60006060820190506121746000830186611a23565b6121816020830185611a23565b61218e6040830184611e0e565b949350505050565b7f455243373231546f6b656e5472616e736665724572726f720000000000000000600082015250565b60006121cc601883611d91565b91506121d782612196565b602082019050919050565b600060208201905081810360008301526121fb816121bf565b9050919050565b7f45524331313535546f6b656e436f6e74726163744572726f7200000000000000600082015250565b6000612238601983611d91565b915061224382612202565b602082019050919050565b600060208201905081810360008301526122678161222b565b9050919050565b600060a0820190506122836000830188611a23565b6122906020830187611a23565b61229d6040830186611e0e565b6122aa6060830185611e0e565b81810360808301526122bc8184612010565b90509695505050505050565b7f45524331313535546f6b656e5472616e736665724572726f7200000000000000600082015250565b60006122fe601983611d91565b9150612309826122c8565b602082019050919050565b6000602082019050818103600083015261232d816122f1565b905091905056fea2646970667358221220f68e140dc740fa75ff85d75c8e1fa5c59d6b4ae4914cbcc7b88a52eeebad552064736f6c63430008120033",
					"opcodes": "PUSH1 0x80 PUSH1 0x40 MSTORE PUSH20 0x1820A4B7618BDE71DCE8CDC73AAB6C95905FAD24 PUSH20 0xFFFFFFFFFFFFFFFFFFFFFFFFFFFFFFFFFFFFFFFF AND PUSH4 0x29965A1D ADDRESS PUSH32 0xB281FC8C12954D22544DB45DE3159A39272895B169A852B314F9CC762E44C53B ADDRESS PUSH1 0x40 MLOAD DUP5 PUSH4 0xFFFFFFFF AND PUSH1 0xE0 SHL DUP2 MSTORE PUSH1 0x4 ADD PUSH3 0x77 SWAP4 SWAP3 SWAP2 SWAP1 PUSH3 0x330 JUMP JUMPDEST PUSH1 0x0 PUSH1 0x40 MLOAD DUP1 DUP4 SUB DUP2 PUSH1 0x0 DUP8 DUP1 EXTCODESIZE ISZERO DUP1 ISZERO PUSH3 0x92 JUMPI PUSH1 0x0 DUP1 REVERT JUMPDEST POP GAS CALL ISZERO DUP1 ISZERO PUSH3 0xA7 JUMPI RETURNDATASIZE PUSH1 0x0 DUP1 RETURNDATACOPY RETURNDATASIZE PUSH1 0x0 REVERT JUMPDEST POP POP POP POP PUSH20 0x1820A4B7618BDE71DCE8CDC73AAB6C95905FAD24 PUSH20 0xFFFFFFFFFFFFFFFFFFFFFFFFFFFFFFFFFFFFFFFF AND PUSH4 0x29965A1D ADDRESS PUSH32 0x29DDB589B1FB5FC7CF394961C1ADF5F8C6454761ADF795E67FE149F658ABE895 ADDRESS PUSH1 0x40 MLOAD DUP5 PUSH4 0xFFFFFFFF AND PUSH1 0xE0 SHL DUP2 MSTORE PUSH1 0x4 ADD PUSH3 0x11E SWAP4 SWAP3 SWAP2 SWAP1 PUSH3 0x330 JUMP JUMPDEST PUSH1 0x0 PUSH1 0x40 MLOAD DUP1 DUP4 SUB DUP2 PUSH1 0x0 DUP8 DUP1 EXTCODESIZE ISZERO DUP1 ISZERO PUSH3 0x139 JUMPI PUSH1 0x0 DUP1 REVERT JUMPDEST POP GAS CALL ISZERO DUP1 ISZERO PUSH3 0x14E JUMPI RETURNDATASIZE PUSH1 0x0 DUP1 RETURNDATACOPY RETURNDATASIZE PUSH1 0x0 REVERT JUMPDEST POP POP POP POP PUSH3 0x163 CALLER PUSH3 0x17A PUSH1 0x20 SHL PUSH1 0x20 SHR JUMP JUMPDEST PUSH3 0x174 CALLER PUSH3 0x28C PUSH1 0x20 SHL PUSH1 0x20 SHR JUMP JUMPDEST PUSH3 0x36D JUMP JUMPDEST PUSH1 0x0 DUP1 SLOAD SWAP1 PUSH2 0x100 EXP SWAP1 DIV PUSH20 0xFFFFFFFFFFFFFFFFFFFFFFFFFFFFFFFFFFFFFFFF AND PUSH20 0xFFFFFFFFFFFFFFFFFFFFFFFFFFFFFFFFFFFFFFFF AND DUP2 PUSH20 0xFFFFFFFFFFFFFFFFFFFFFFFFFFFFFFFFFFFFFFFF AND EQ PUSH3 0x289 JUMPI DUP1 PUSH20 0xFFFFFFFFFFFFFFFFFFFFFFFFFFFFFFFFFFFFFFFF AND PUSH1 0x0 DUP1 SLOAD SWAP1 PUSH2 0x100 EXP SWAP1 DIV PUSH20 0xFFFFFFFFFFFFFFFFFFFFFFFFFFFFFFFFFFFFFFFF AND PUSH20 0xFFFFFFFFFFFFFFFFFFFFFFFFFFFFFFFFFFFFFFFF AND PUSH32 0xB532073B38C83145E3E5135377A08BF9AAB55BC0FD7C1179CD4FB995D2A5159C PUSH1 0x40 MLOAD PUSH1 0x40 MLOAD DUP1 SWAP2 SUB SWAP1 LOG3 DUP1 PUSH1 0x0 DUP1 PUSH2 0x100 EXP DUP2 SLOAD DUP2 PUSH20 0xFFFFFFFFFFFFFFFFFFFFFFFFFFFFFFFFFFFFFFFF MUL NOT AND SWAP1 DUP4 PUSH20 0xFFFFFFFFFFFFFFFFFFFFFFFFFFFFFFFFFFFFFFFF AND MUL OR SWAP1 SSTORE POP JUMPDEST POP JUMP JUMPDEST DUP1 PUSH1 0x1 PUSH1 0x0 PUSH2 0x100 EXP DUP2 SLOAD DUP2 PUSH20 0xFFFFFFFFFFFFFFFFFFFFFFFFFFFFFFFFFFFFFFFF MUL NOT AND SWAP1 DUP4 PUSH20 0xFFFFFFFFFFFFFFFFFFFFFFFFFFFFFFFFFFFFFFFF AND MUL OR SWAP1 SSTORE POP POP JUMP JUMPDEST PUSH1 0x0 PUSH20 0xFFFFFFFFFFFFFFFFFFFFFFFFFFFFFFFFFFFFFFFF DUP3 AND SWAP1 POP SWAP2 SWAP1 POP JUMP JUMPDEST PUSH1 0x0 PUSH3 0x2FD DUP3 PUSH3 0x2D0 JUMP JUMPDEST SWAP1 POP SWAP2 SWAP1 POP JUMP JUMPDEST PUSH3 0x30F DUP2 PUSH3 0x2F0 JUMP JUMPDEST DUP3 MSTORE POP POP JUMP JUMPDEST PUSH1 0x0 DUP2 SWAP1 POP SWAP2 SWAP1 POP JUMP JUMPDEST PUSH3 0x32A DUP2 PUSH3 0x315 JUMP JUMPDEST DUP3 MSTORE POP POP JUMP JUMPDEST PUSH1 0x0 PUSH1 0x60 DUP3 ADD SWAP1 POP PUSH3 0x347 PUSH1 0x0 DUP4 ADD DUP7 PUSH3 0x304 JUMP JUMPDEST PUSH3 0x356 PUSH1 0x20 DUP4 ADD DUP6 PUSH3 0x31F JUMP JUMPDEST PUSH3 0x365 PUSH1 0x40 DUP4 ADD DUP5 PUSH3 0x304 JUMP JUMPDEST SWAP5 SWAP4 POP POP POP POP JUMP JUMPDEST PUSH2 0x236A DUP1 PUSH3 0x37D PUSH1 0x0 CODECOPY PUSH1 0x0 RETURN INVALID PUSH1 0x80 PUSH1 0x40 MSTORE PUSH1 0x4 CALLDATASIZE LT PUSH2 0x129 JUMPI PUSH1 0x0 CALLDATALOAD PUSH1 0xE0 SHR DUP1 PUSH4 0x91372456 GT PUSH2 0xAB JUMPI DUP1 PUSH4 0xBC197C81 GT PUSH2 0x6F JUMPI DUP1 PUSH4 0xBC197C81 EQ PUSH2 0x3D9 JUMPI DUP1 PUSH4 0xD319AA30 EQ PUSH2 0x416 JUMPI DUP1 PUSH4 0xDBD3CFCD EQ PUSH2 0x441 JUMPI DUP1 PUSH4 0xED88C68E EQ PUSH2 0x46A JUMPI DUP1 PUSH4 0xF23A6E61 EQ PUSH2 0x474 JUMPI DUP1 PUSH4 0xF5DA96DC EQ PUSH2 0x4B1 JUMPI PUSH2 0x129 JUMP JUMPDEST DUP1 PUSH4 0x91372456 EQ PUSH2 0x308 JUMPI DUP1 PUSH4 0x9CD6E666 EQ PUSH2 0x333 JUMPI DUP1 PUSH4 0xB2828496 EQ PUSH2 0x370 JUMPI DUP1 PUSH4 0xB4D9B973 EQ PUSH2 0x399 JUMPI DUP1 PUSH4 0xB76A10CA EQ PUSH2 0x3B0 JUMPI PUSH2 0x129 JUMP JUMPDEST DUP1 PUSH4 0x2E66CCF5 GT PUSH2 0xF2 JUMPI DUP1 PUSH4 0x2E66CCF5 EQ PUSH2 0x237 JUMPI DUP1 PUSH4 0x41931A2F EQ PUSH2 0x260 JUMPI DUP1 PUSH4 0x4F61B3AE EQ PUSH2 0x277 JUMPI DUP1 PUSH4 0x503D7FE4 EQ PUSH2 0x2A2 JUMPI DUP1 PUSH4 0x75AB9782 EQ PUSH2 0x2DF JUMPI PUSH2 0x129 JUMP JUMPDEST DUP1 PUSH3 0x23DE29 EQ PUSH2 0x12E JUMPI DUP1 PUSH4 0x1FFC9A7 EQ PUSH2 0x157 JUMPI DUP1 PUSH4 0x150B7A02 EQ PUSH2 0x194 JUMPI DUP1 PUSH4 0x249CB3FA EQ PUSH2 0x1D1 JUMPI DUP1 PUSH4 0x2AA4ADA0 EQ PUSH2 0x20E JUMPI JUMPDEST PUSH1 0x0 DUP1 REVERT JUMPDEST CALLVALUE DUP1 ISZERO PUSH2 0x13A JUMPI PUSH1 0x0 DUP1 REVERT JUMPDEST POP PUSH2 0x155 PUSH1 0x4 DUP1 CALLDATASIZE SUB DUP2 ADD SWAP1 PUSH2 0x150 SWAP2 SWAP1 PUSH2 0x1571 JUMP JUMPDEST PUSH2 0x4DA JUMP JUMPDEST STOP JUMPDEST CALLVALUE DUP1 ISZERO PUSH2 0x163 JUMPI PUSH1 0x0 DUP1 REVERT JUMPDEST POP PUSH2 0x17E PUSH1 0x4 DUP1 CALLDATASIZE SUB DUP2 ADD SWAP1 PUSH2 0x179 SWAP2 SWAP1 PUSH2 0x1698 JUMP JUMPDEST PUSH2 0x4E4 JUMP JUMPDEST PUSH1 0x40 MLOAD PUSH2 0x18B SWAP2 SWAP1 PUSH2 0x16E0 JUMP JUMPDEST PUSH1 0x40 MLOAD DUP1 SWAP2 SUB SWAP1 RETURN JUMPDEST CALLVALUE DUP1 ISZERO PUSH2 0x1A0 JUMPI PUSH1 0x0 DUP1 REVERT JUMPDEST POP PUSH2 0x1BB PUSH1 0x4 DUP1 CALLDATASIZE SUB DUP2 ADD SWAP1 PUSH2 0x1B6 SWAP2 SWAP1 PUSH2 0x183C JUMP JUMPDEST PUSH2 0x755 JUMP JUMPDEST PUSH1 0x40 MLOAD PUSH2 0x1C8 SWAP2 SWAP1 PUSH2 0x18CE JUMP JUMPDEST PUSH1 0x40 MLOAD DUP1 SWAP2 SUB SWAP1 RETURN JUMPDEST CALLVALUE DUP1 ISZERO PUSH2 0x1DD JUMPI PUSH1 0x0 DUP1 REVERT JUMPDEST POP PUSH2 0x1F8 PUSH1 0x4 DUP1 CALLDATASIZE SUB DUP2 ADD SWAP1 PUSH2 0x1F3 SWAP2 SWAP1 PUSH2 0x191F JUMP JUMPDEST PUSH2 0x769 JUMP JUMPDEST PUSH1 0x40 MLOAD PUSH2 0x205 SWAP2 SWAP1 PUSH2 0x196E JUMP JUMPDEST PUSH1 0x40 MLOAD DUP1 SWAP2 SUB SWAP1 RETURN JUMPDEST CALLVALUE DUP1 ISZERO PUSH2 0x21A JUMPI PUSH1 0x0 DUP1 REVERT JUMPDEST POP PUSH2 0x235 PUSH1 0x4 DUP1 CALLDATASIZE SUB DUP2 ADD SWAP1 PUSH2 0x230 SWAP2 SWAP1 PUSH2 0x1989 JUMP JUMPDEST PUSH2 0x829 JUMP JUMPDEST STOP JUMPDEST CALLVALUE DUP1 ISZERO PUSH2 0x243 JUMPI PUSH1 0x0 DUP1 REVERT JUMPDEST POP PUSH2 0x25E PUSH1 0x4 DUP1 CALLDATASIZE SUB DUP2 ADD SWAP1 PUSH2 0x259 SWAP2 SWAP1 PUSH2 0x19C9 JUMP JUMPDEST PUSH2 0x851 JUMP JUMPDEST STOP JUMPDEST CALLVALUE DUP1 ISZERO PUSH2 0x26C JUMPI PUSH1 0x0 DUP1 REVERT JUMPDEST POP PUSH2 0x275 PUSH2 0x877 JUMP JUMPDEST STOP JUMPDEST CALLVALUE DUP1 ISZERO PUSH2 0x283 JUMPI PUSH1 0x0 DUP1 REVERT JUMPDEST POP PUSH2 0x28C PUSH2 0x89B JUMP JUMPDEST PUSH1 0x40 MLOAD PUSH2 0x299 SWAP2 SWAP1 PUSH2 0x16E0 JUMP JUMPDEST PUSH1 0x40 MLOAD DUP1 SWAP2 SUB SWAP1 RETURN JUMPDEST CALLVALUE DUP1 ISZERO PUSH2 0x2AE JUMPI PUSH1 0x0 DUP1 REVERT JUMPDEST POP PUSH2 0x2C9 PUSH1 0x4 DUP1 CALLDATASIZE SUB DUP2 ADD SWAP1 PUSH2 0x2C4 SWAP2 SWAP1 PUSH2 0x19F6 JUMP JUMPDEST PUSH2 0x8AA JUMP JUMPDEST PUSH1 0x40 MLOAD PUSH2 0x2D6 SWAP2 SWAP1 PUSH2 0x16E0 JUMP JUMPDEST PUSH1 0x40 MLOAD DUP1 SWAP2 SUB SWAP1 RETURN JUMPDEST CALLVALUE DUP1 ISZERO PUSH2 0x2EB JUMPI PUSH1 0x0 DUP1 REVERT JUMPDEST POP PUSH2 0x306 PUSH1 0x4 DUP1 CALLDATASIZE SUB DUP2 ADD SWAP1 PUSH2 0x301 SWAP2 SWAP1 PUSH2 0x1571 JUMP JUMPDEST PUSH2 0x8BC JUMP JUMPDEST STOP JUMPDEST CALLVALUE DUP1 ISZERO PUSH2 0x314 JUMPI PUSH1 0x0 DUP1 REVERT JUMPDEST POP PUSH2 0x31D PUSH2 0x8C6 JUMP JUMPDEST PUSH1 0x40 MLOAD PUSH2 0x32A SWAP2 SWAP1 PUSH2 0x1A32 JUMP JUMPDEST PUSH1 0x40 MLOAD DUP1 SWAP2 SUB SWAP1 RETURN JUMPDEST CALLVALUE DUP1 ISZERO PUSH2 0x33F JUMPI PUSH1 0x0 DUP1 REVERT JUMPDEST POP PUSH2 0x35A PUSH1 0x4 DUP1 CALLDATASIZE SUB DUP2 ADD SWAP1 PUSH2 0x355 SWAP2 SWAP1 PUSH2 0x19F6 JUMP JUMPDEST PUSH2 0x8D5 JUMP JUMPDEST PUSH1 0x40 MLOAD PUSH2 0x367 SWAP2 SWAP1 PUSH2 0x16E0 JUMP JUMPDEST PUSH1 0x40 MLOAD DUP1 SWAP2 SUB SWAP1 RETURN JUMPDEST CALLVALUE DUP1 ISZERO PUSH2 0x37C JUMPI PUSH1 0x0 DUP1 REVERT JUMPDEST POP PUSH2 0x397 PUSH1 0x4 DUP1 CALLDATASIZE SUB DUP2 ADD SWAP1 PUSH2 0x392 SWAP2 SWAP1 PUSH2 0x1A4D JUMP JUMPDEST PUSH2 0x8E7 JUMP JUMPDEST STOP JUMPDEST CALLVALUE DUP1 ISZERO PUSH2 0x3A5 JUMPI PUSH1 0x0 DUP1 REVERT JUMPDEST POP PUSH2 0x3AE PUSH2 0x911 JUMP JUMPDEST STOP JUMPDEST CALLVALUE DUP1 ISZERO PUSH2 0x3BC JUMPI PUSH1 0x0 DUP1 REVERT JUMPDEST POP PUSH2 0x3D7 PUSH1 0x4 DUP1 CALLDATASIZE SUB DUP2 ADD SWAP1 PUSH2 0x3D2 SWAP2 SWAP1 PUSH2 0x1989 JUMP JUMPDEST PUSH2 0x926 JUMP JUMPDEST STOP JUMPDEST CALLVALUE DUP1 ISZERO PUSH2 0x3E5 JUMPI PUSH1 0x0 DUP1 REVERT JUMPDEST POP PUSH2 0x400 PUSH1 0x4 DUP1 CALLDATASIZE SUB DUP2 ADD SWAP1 PUSH2 0x3FB SWAP2 SWAP1 PUSH2 0x1B7F JUMP JUMPDEST PUSH2 0x94E JUMP JUMPDEST PUSH1 0x40 MLOAD PUSH2 0x40D SWAP2 SWAP1 PUSH2 0x18CE JUMP JUMPDEST PUSH1 0x40 MLOAD DUP1 SWAP2 SUB SWAP1 RETURN JUMPDEST CALLVALUE DUP1 ISZERO PUSH2 0x422 JUMPI PUSH1 0x0 DUP1 REVERT JUMPDEST POP PUSH2 0x42B PUSH2 0x963 JUMP JUMPDEST PUSH1 0x40 MLOAD PUSH2 0x438 SWAP2 SWAP1 PUSH2 0x1A32 JUMP JUMPDEST PUSH1 0x40 MLOAD DUP1 SWAP2 SUB SWAP1 RETURN JUMPDEST CALLVALUE DUP1 ISZERO PUSH2 0x44D JUMPI PUSH1 0x0 DUP1 REVERT JUMPDEST POP PUSH2 0x468 PUSH1 0x4 DUP1 CALLDATASIZE SUB DUP2 ADD SWAP1 PUSH2 0x463 SWAP2 SWAP1 PUSH2 0x19F6 JUMP JUMPDEST PUSH2 0x972 JUMP JUMPDEST STOP JUMPDEST PUSH2 0x472 PUSH2 0x997 JUMP JUMPDEST STOP JUMPDEST CALLVALUE DUP1 ISZERO PUSH2 0x480 JUMPI PUSH1 0x0 DUP1 REVERT JUMPDEST POP PUSH2 0x49B PUSH1 0x4 DUP1 CALLDATASIZE SUB DUP2 ADD SWAP1 PUSH2 0x496 SWAP2 SWAP1 PUSH2 0x1C4E JUMP JUMPDEST PUSH2 0x999 JUMP JUMPDEST PUSH1 0x40 MLOAD PUSH2 0x4A8 SWAP2 SWAP1 PUSH2 0x18CE JUMP JUMPDEST PUSH1 0x40 MLOAD DUP1 SWAP2 SUB SWAP1 RETURN JUMPDEST CALLVALUE DUP1 ISZERO PUSH2 0x4BD JUMPI PUSH1 0x0 DUP1 REVERT JUMPDEST POP PUSH2 0x4D8 PUSH1 0x4 DUP1 CALLDATASIZE SUB DUP2 ADD SWAP1 PUSH2 0x4D3 SWAP2 SWAP1 PUSH2 0x1CE5 JUMP JUMPDEST PUSH2 0x9AE JUMP JUMPDEST STOP JUMPDEST POP POP POP POP POP POP POP POP JUMP JUMPDEST PUSH1 0x0 PUSH32 0x1FFC9A700000000000000000000000000000000000000000000000000000000 PUSH28 0xFFFFFFFFFFFFFFFFFFFFFFFFFFFFFFFFFFFFFFFFFFFFFFFFFFFFFFFF NOT AND DUP3 PUSH28 0xFFFFFFFFFFFFFFFFFFFFFFFFFFFFFFFFFFFFFFFFFFFFFFFFFFFFFFFF NOT AND EQ DUP1 PUSH2 0x5AF JUMPI POP PUSH32 0x150B7A0200000000000000000000000000000000000000000000000000000000 PUSH28 0xFFFFFFFFFFFFFFFFFFFFFFFFFFFFFFFFFFFFFFFFFFFFFFFFFFFFFFFF NOT AND DUP3 PUSH28 0xFFFFFFFFFFFFFFFFFFFFFFFFFFFFFFFFFFFFFFFFFFFFFFFFFFFFFFFF NOT AND EQ JUMPDEST DUP1 PUSH2 0x616 JUMPI POP PUSH31 0x23DE2900000000000000000000000000000000000000000000000000000000 PUSH28 0xFFFFFFFFFFFFFFFFFFFFFFFFFFFFFFFFFFFFFFFFFFFFFFFFFFFFFFFF NOT AND DUP3 PUSH28 0xFFFFFFFFFFFFFFFFFFFFFFFFFFFFFFFFFFFFFFFFFFFFFFFFFFFFFFFF NOT AND EQ JUMPDEST DUP1 PUSH2 0x67E JUMPI POP PUSH32 0x75AB978200000000000000000000000000000000000000000000000000000000 PUSH28 0xFFFFFFFFFFFFFFFFFFFFFFFFFFFFFFFFFFFFFFFFFFFFFFFFFFFFFFFF NOT AND DUP3 PUSH28 0xFFFFFFFFFFFFFFFFFFFFFFFFFFFFFFFFFFFFFFFFFFFFFFFFFFFFFFFF NOT AND EQ JUMPDEST DUP1 PUSH2 0x6E6 JUMPI POP PUSH32 0x4E2312E000000000000000000000000000000000000000000000000000000000 PUSH28 0xFFFFFFFFFFFFFFFFFFFFFFFFFFFFFFFFFFFFFFFFFFFFFFFFFFFFFFFF NOT AND DUP3 PUSH28 0xFFFFFFFFFFFFFFFFFFFFFFFFFFFFFFFFFFFFFFFFFFFFFFFFFFFFFFFF NOT AND EQ JUMPDEST DUP1 PUSH2 0x74E JUMPI POP PUSH32 0x249CB3FA00000000000000000000000000000000000000000000000000000000 PUSH28 0xFFFFFFFFFFFFFFFFFFFFFFFFFFFFFFFFFFFFFFFFFFFFFFFFFFFFFFFF NOT AND DUP3 PUSH28 0xFFFFFFFFFFFFFFFFFFFFFFFFFFFFFFFFFFFFFFFFFFFFFFFFFFFFFFFF NOT AND EQ JUMPDEST SWAP1 POP SWAP2 SWAP1 POP JUMP JUMPDEST PUSH1 0x0 PUSH4 0x150B7A02 PUSH1 0xE0 SHL SWAP1 POP SWAP5 SWAP4 POP POP POP POP JUMP JUMPDEST PUSH1 0x0 ADDRESS PUSH20 0xFFFFFFFFFFFFFFFFFFFFFFFFFFFFFFFFFFFFFFFF AND DUP3 PUSH20 0xFFFFFFFFFFFFFFFFFFFFFFFFFFFFFFFFFFFFFFFF AND EQ DUP1 ISZERO PUSH2 0x7EF JUMPI POP PUSH32 0xB281FC8C12954D22544DB45DE3159A39272895B169A852B314F9CC762E44C53B DUP4 EQ DUP1 PUSH2 0x7EE JUMPI POP PUSH32 0x29DDB589B1FB5FC7CF394961C1ADF5F8C6454761ADF795E67FE149F658ABE895 DUP4 EQ JUMPDEST JUMPDEST ISZERO PUSH2 0x81C JUMPI PUSH32 0xA2EF4600D742022D532D4747CB3547474667D6F13804902513B2EC01C848F4B4 SWAP1 POP PUSH2 0x823 JUMP JUMPDEST PUSH1 0x0 DUP1 SHL SWAP1 POP JUMPDEST SWAP3 SWAP2 POP POP JUMP JUMPDEST PUSH2 0x831 PUSH2 0x9DA JUMP JUMPDEST PUSH2 0x83A CALLER PUSH2 0x9FC JUMP JUMPDEST PUSH2 0x845 DUP3 CALLER DUP4 PUSH2 0xA52 JUMP JUMPDEST PUSH2 0x84D PUSH2 0xC0B JUMP JUMPDEST POP POP JUMP JUMPDEST PUSH2 0x859 PUSH2 0x9DA JUMP JUMPDEST PUSH2 0x862 CALLER PUSH2 0x9FC JUMP JUMPDEST PUSH2 0x86C CALLER DUP3 PUSH2 0xC17 JUMP JUMPDEST PUSH2 0x874 PUSH2 0xC0B JUMP JUMPDEST POP JUMP JUMPDEST PUSH2 0x87F PUSH2 0x9DA JUMP JUMPDEST PUSH2 0x888 CALLER PUSH2 0xC62 JUMP JUMPDEST PUSH2 0x891 CALLER PUSH2 0xCB8 JUMP JUMPDEST PUSH2 0x899 PUSH2 0xC0B JUMP JUMPDEST JUMP JUMPDEST PUSH1 0x0 PUSH2 0x8A5 PUSH2 0xCC4 JUMP JUMPDEST SWAP1 POP SWAP1 JUMP JUMPDEST PUSH1 0x0 PUSH2 0x8B5 DUP3 PUSH2 0xCDB JUMP JUMPDEST SWAP1 POP SWAP2 SWAP1 POP JUMP JUMPDEST POP POP POP POP POP POP POP POP JUMP JUMPDEST PUSH1 0x0 PUSH2 0x8D0 PUSH2 0xD1A JUMP JUMPDEST SWAP1 POP SWAP1 JUMP JUMPDEST PUSH1 0x0 PUSH2 0x8E0 DUP3 PUSH2 0xD43 JUMP JUMPDEST SWAP1 POP SWAP2 SWAP1 POP JUMP JUMPDEST PUSH2 0x8EF PUSH2 0x9DA JUMP JUMPDEST PUSH2 0x8F8 CALLER PUSH2 0x9FC JUMP JUMPDEST PUSH2 0x904 DUP4 CALLER DUP5 DUP5 PUSH2 0xD82 JUMP JUMPDEST PUSH2 0x90C PUSH2 0xC0B JUMP JUMPDEST POP POP POP JUMP JUMPDEST PUSH2 0x91A CALLER PUSH2 0x9FC JUMP JUMPDEST PUSH2 0x924 PUSH1 0x0 PUSH2 0xF3E JUMP JUMPDEST JUMP JUMPDEST PUSH2 0x92E PUSH2 0x9DA JUMP JUMPDEST PUSH2 0x937 CALLER PUSH2 0x9FC JUMP JUMPDEST PUSH2 0x942 DUP3 DUP3 CALLER PUSH2 0xF5B JUMP JUMPDEST PUSH2 0x94A PUSH2 0xC0B JUMP JUMPDEST POP POP JUMP JUMPDEST PUSH1 0x0 PUSH4 0xBC197C81 PUSH1 0xE0 SHL SWAP1 POP SWAP6 SWAP5 POP POP POP POP POP JUMP JUMPDEST PUSH1 0x0 PUSH2 0x96D PUSH2 0x1116 JUMP JUMPDEST SWAP1 POP SWAP1 JUMP JUMPDEST PUSH2 0x97A PUSH2 0x9DA JUMP JUMPDEST PUSH2 0x983 CALLER PUSH2 0x9FC JUMP JUMPDEST PUSH2 0x98C DUP2 PUSH2 0x1140 JUMP JUMPDEST PUSH2 0x994 PUSH2 0xC0B JUMP JUMPDEST POP JUMP JUMPDEST JUMP JUMPDEST PUSH1 0x0 PUSH4 0xF23A6E61 PUSH1 0xE0 SHL SWAP1 POP SWAP6 SWAP5 POP POP POP POP POP JUMP JUMPDEST PUSH2 0x9B6 PUSH2 0x9DA JUMP JUMPDEST PUSH2 0x9BF CALLER PUSH2 0x9FC JUMP JUMPDEST PUSH2 0x9CC DUP5 DUP5 CALLER DUP6 DUP6 PUSH2 0x114C JUMP JUMPDEST PUSH2 0x9D4 PUSH2 0xC0B JUMP JUMPDEST POP POP POP POP JUMP JUMPDEST PUSH2 0x9E2 PUSH2 0xCC4 JUMP JUMPDEST ISZERO PUSH2 0x9F0 JUMPI PUSH2 0x9EF PUSH2 0x130D JUMP JUMPDEST JUMPDEST PUSH2 0x9FA PUSH1 0x1 PUSH2 0xF3E JUMP JUMPDEST JUMP JUMPDEST PUSH2 0xA05 DUP2 PUSH2 0xD43 JUMP JUMPDEST PUSH2 0xA4F JUMPI DUP1 PUSH2 0xA12 PUSH2 0xD1A JUMP JUMPDEST PUSH1 0x40 MLOAD PUSH32 0xDAA808300000000000000000000000000000000000000000000000000000000 DUP2 MSTORE PUSH1 0x4 ADD PUSH2 0xA46 SWAP3 SWAP2 SWAP1 PUSH2 0x1D68 JUMP JUMPDEST PUSH1 0x40 MLOAD DUP1 SWAP2 SUB SWAP1 REVERT JUMPDEST POP JUMP JUMPDEST PUSH1 0x0 DUP4 PUSH20 0xFFFFFFFFFFFFFFFFFFFFFFFFFFFFFFFFFFFFFFFF AND EXTCODESIZE SUB PUSH2 0xAAC JUMPI PUSH1 0x40 MLOAD PUSH32 0x8C379A000000000000000000000000000000000000000000000000000000000 DUP2 MSTORE PUSH1 0x4 ADD PUSH2 0xAA3 SWAP1 PUSH2 0x1DEE JUMP JUMPDEST PUSH1 0x40 MLOAD DUP1 SWAP2 SUB SWAP1 REVERT JUMPDEST PUSH1 0x0 PUSH4 0xA9059CBB PUSH1 0xE0 SHL DUP4 DUP4 PUSH1 0x40 MLOAD PUSH1 0x24 ADD PUSH2 0xAC9 SWAP3 SWAP2 SWAP1 PUSH2 0x1E1D JUMP JUMPDEST PUSH1 0x40 MLOAD PUSH1 0x20 DUP2 DUP4 SUB SUB DUP2 MSTORE SWAP1 PUSH1 0x40 MSTORE SWAP1 PUSH28 0xFFFFFFFFFFFFFFFFFFFFFFFFFFFFFFFFFFFFFFFFFFFFFFFFFFFFFFFF NOT AND PUSH1 0x20 DUP3 ADD DUP1 MLOAD PUSH28 0xFFFFFFFFFFFFFFFFFFFFFFFFFFFFFFFFFFFFFFFFFFFFFFFFFFFFFFFF DUP4 DUP2 DUP4 AND OR DUP4 MSTORE POP POP POP POP SWAP1 POP PUSH1 0x0 DUP1 DUP6 PUSH20 0xFFFFFFFFFFFFFFFFFFFFFFFFFFFFFFFFFFFFFFFF AND DUP4 PUSH1 0x40 MLOAD PUSH2 0xB50 SWAP2 SWAP1 PUSH2 0x1EB7 JUMP JUMPDEST PUSH1 0x0 PUSH1 0x40 MLOAD DUP1 DUP4 SUB DUP2 PUSH1 0x0 DUP7 GAS CALL SWAP2 POP POP RETURNDATASIZE DUP1 PUSH1 0x0 DUP2 EQ PUSH2 0xB8D JUMPI PUSH1 0x40 MLOAD SWAP2 POP PUSH1 0x1F NOT PUSH1 0x3F RETURNDATASIZE ADD AND DUP3 ADD PUSH1 0x40 MSTORE RETURNDATASIZE DUP3 MSTORE RETURNDATASIZE PUSH1 0x0 PUSH1 0x20 DUP5 ADD RETURNDATACOPY PUSH2 0xB92 JUMP JUMPDEST PUSH1 0x60 SWAP2 POP JUMPDEST POP SWAP2 POP SWAP2 POP DUP2 ISZERO DUP1 PUSH2 0xBC3 JUMPI POP PUSH1 0x0 DUP2 MLOAD EQ ISZERO DUP1 ISZERO PUSH2 0xBC2 JUMPI POP DUP1 DUP1 PUSH1 0x20 ADD SWAP1 MLOAD DUP2 ADD SWAP1 PUSH2 0xBC0 SWAP2 SWAP1 PUSH2 0x1EFA JUMP JUMPDEST ISZERO JUMPDEST JUMPDEST ISZERO PUSH2 0xC03 JUMPI PUSH1 0x40 MLOAD PUSH32 0x8C379A000000000000000000000000000000000000000000000000000000000 DUP2 MSTORE PUSH1 0x4 ADD PUSH2 0xBFA SWAP1 PUSH2 0x1F73 JUMP JUMPDEST PUSH1 0x40 MLOAD DUP1 SWAP2 SUB SWAP1 REVERT JUMPDEST POP POP POP POP POP POP JUMP JUMPDEST PUSH2 0xC15 PUSH1 0x0 PUSH2 0xF3E JUMP JUMPDEST JUMP JUMPDEST DUP2 PUSH20 0xFFFFFFFFFFFFFFFFFFFFFFFFFFFFFFFFFFFFFFFF AND PUSH2 0x8FC DUP3 SWAP1 DUP2 ISZERO MUL SWAP1 PUSH1 0x40 MLOAD PUSH1 0x0 PUSH1 0x40 MLOAD DUP1 DUP4 SUB DUP2 DUP6 DUP9 DUP9 CALL SWAP4 POP POP POP POP ISZERO DUP1 ISZERO PUSH2 0xC5D JUMPI RETURNDATASIZE PUSH1 0x0 DUP1 RETURNDATACOPY RETURNDATASIZE PUSH1 0x0 REVERT JUMPDEST POP POP POP JUMP JUMPDEST PUSH2 0xC6B DUP2 PUSH2 0xCDB JUMP JUMPDEST PUSH2 0xCB5 JUMPI DUP1 PUSH2 0xC78 PUSH2 0x1116 JUMP JUMPDEST PUSH1 0x40 MLOAD PUSH32 0x549FBFE300000000000000000000000000000000000000000000000000000000 DUP2 MSTORE PUSH1 0x4 ADD PUSH2 0xCAC SWAP3 SWAP2 SWAP1 PUSH2 0x1D68 JUMP JUMPDEST PUSH1 0x40 MLOAD DUP1 SWAP2 SUB SWAP1 REVERT JUMPDEST POP JUMP JUMPDEST PUSH2 0xCC1 DUP2 PUSH2 0x130F JUMP JUMPDEST POP JUMP JUMPDEST PUSH1 0x0 PUSH1 0x1 PUSH1 0x14 SWAP1 SLOAD SWAP1 PUSH2 0x100 EXP SWAP1 DIV PUSH1 0xFF AND SWAP1 POP SWAP1 JUMP JUMPDEST PUSH1 0x0 PUSH2 0xCE5 PUSH2 0x1116 JUMP JUMPDEST PUSH20 0xFFFFFFFFFFFFFFFFFFFFFFFFFFFFFFFFFFFFFFFF AND DUP3 PUSH20 0xFFFFFFFFFFFFFFFFFFFFFFFFFFFFFFFFFFFFFFFF AND EQ SWAP1 POP SWAP2 SWAP1 POP JUMP JUMPDEST PUSH1 0x0 DUP1 PUSH1 0x0 SWAP1 SLOAD SWAP1 PUSH2 0x100 EXP SWAP1 DIV PUSH20 0xFFFFFFFFFFFFFFFFFFFFFFFFFFFFFFFFFFFFFFFF AND SWAP1 POP SWAP1 JUMP JUMPDEST PUSH1 0x0 PUSH2 0xD4D PUSH2 0xD1A JUMP JUMPDEST PUSH20 0xFFFFFFFFFFFFFFFFFFFFFFFFFFFFFFFFFFFFFFFF AND DUP3 PUSH20 0xFFFFFFFFFFFFFFFFFFFFFFFFFFFFFFFFFFFFFFFF AND EQ SWAP1 POP SWAP2 SWAP1 POP JUMP JUMPDEST PUSH1 0x0 DUP5 PUSH20 0xFFFFFFFFFFFFFFFFFFFFFFFFFFFFFFFFFFFFFFFF AND EXTCODESIZE SUB PUSH2 0xDDC JUMPI PUSH1 0x40 MLOAD PUSH32 0x8C379A000000000000000000000000000000000000000000000000000000000 DUP2 MSTORE PUSH1 0x4 ADD PUSH2 0xDD3 SWAP1 PUSH2 0x1FDF JUMP JUMPDEST PUSH1 0x40 MLOAD DUP1 SWAP2 SUB SWAP1 REVERT JUMPDEST PUSH1 0x0 PUSH4 0x9BD9BBC6 PUSH1 0xE0 SHL DUP5 DUP5 DUP5 PUSH1 0x40 MLOAD PUSH1 0x24 ADD PUSH2 0xDFB SWAP4 SWAP3 SWAP2 SWAP1 PUSH2 0x2049 JUMP JUMPDEST PUSH1 0x40 MLOAD PUSH1 0x20 DUP2 DUP4 SUB SUB DUP2 MSTORE SWAP1 PUSH1 0x40 MSTORE SWAP1 PUSH28 0xFFFFFFFFFFFFFFFFFFFFFFFFFFFFFFFFFFFFFFFFFFFFFFFFFFFFFFFF NOT AND PUSH1 0x20 DUP3 ADD DUP1 MLOAD PUSH28 0xFFFFFFFFFFFFFFFFFFFFFFFFFFFFFFFFFFFFFFFFFFFFFFFFFFFFFFFF DUP4 DUP2 DUP4 AND OR DUP4 MSTORE POP POP POP POP SWAP1 POP PUSH1 0x0 DUP1 DUP7 PUSH20 0xFFFFFFFFFFFFFFFFFFFFFFFFFFFFFFFFFFFFFFFF AND DUP4 PUSH1 0x40 MLOAD PUSH2 0xE82 SWAP2 SWAP1 PUSH2 0x1EB7 JUMP JUMPDEST PUSH1 0x0 PUSH1 0x40 MLOAD DUP1 DUP4 SUB DUP2 PUSH1 0x0 DUP7 GAS CALL SWAP2 POP POP RETURNDATASIZE DUP1 PUSH1 0x0 DUP2 EQ PUSH2 0xEBF JUMPI PUSH1 0x40 MLOAD SWAP2 POP PUSH1 0x1F NOT PUSH1 0x3F RETURNDATASIZE ADD AND DUP3 ADD PUSH1 0x40 MSTORE RETURNDATASIZE DUP3 MSTORE RETURNDATASIZE PUSH1 0x0 PUSH1 0x20 DUP5 ADD RETURNDATACOPY PUSH2 0xEC4 JUMP JUMPDEST PUSH1 0x60 SWAP2 POP JUMPDEST POP SWAP2 POP SWAP2 POP DUP2 ISZERO DUP1 PUSH2 0xEF5 JUMPI POP PUSH1 0x0 DUP2 MLOAD EQ ISZERO DUP1 ISZERO PUSH2 0xEF4 JUMPI POP DUP1 DUP1 PUSH1 0x20 ADD SWAP1 MLOAD DUP2 ADD SWAP1 PUSH2 0xEF2 SWAP2 SWAP1 PUSH2 0x1EFA JUMP JUMPDEST ISZERO JUMPDEST JUMPDEST ISZERO PUSH2 0xF35 JUMPI PUSH1 0x40 MLOAD PUSH32 0x8C379A000000000000000000000000000000000000000000000000000000000 DUP2 MSTORE PUSH1 0x4 ADD PUSH2 0xF2C SWAP1 PUSH2 0x20D3 JUMP JUMPDEST PUSH1 0x40 MLOAD DUP1 SWAP2 SUB SWAP1 REVERT JUMPDEST POP POP POP POP POP POP POP JUMP JUMPDEST DUP1 PUSH1 0x1 PUSH1 0x14 PUSH2 0x100 EXP DUP2 SLOAD DUP2 PUSH1 0xFF MUL NOT AND SWAP1 DUP4 ISZERO ISZERO MUL OR SWAP1 SSTORE POP POP JUMP JUMPDEST PUSH1 0x0 DUP4 PUSH20 0xFFFFFFFFFFFFFFFFFFFFFFFFFFFFFFFFFFFFFFFF AND EXTCODESIZE SUB PUSH2 0xFB5 JUMPI PUSH1 0x40 MLOAD PUSH32 0x8C379A000000000000000000000000000000000000000000000000000000000 DUP2 MSTORE PUSH1 0x4 ADD PUSH2 0xFAC SWAP1 PUSH2 0x213F JUMP JUMPDEST PUSH1 0x40 MLOAD DUP1 SWAP2 SUB SWAP1 REVERT JUMPDEST PUSH1 0x0 PUSH4 0x23B872DD PUSH1 0xE0 SHL ADDRESS DUP4 DUP6 PUSH1 0x40 MLOAD PUSH1 0x24 ADD PUSH2 0xFD4 SWAP4 SWAP3 SWAP2 SWAP1 PUSH2 0x215F JUMP JUMPDEST PUSH1 0x40 MLOAD PUSH1 0x20 DUP2 DUP4 SUB SUB DUP2 MSTORE SWAP1 PUSH1 0x40 MSTORE SWAP1 PUSH28 0xFFFFFFFFFFFFFFFFFFFFFFFFFFFFFFFFFFFFFFFFFFFFFFFFFFFFFFFF NOT AND PUSH1 0x20 DUP3 ADD DUP1 MLOAD PUSH28 0xFFFFFFFFFFFFFFFFFFFFFFFFFFFFFFFFFFFFFFFFFFFFFFFFFFFFFFFF DUP4 DUP2 DUP4 AND OR DUP4 MSTORE POP POP POP POP SWAP1 POP PUSH1 0x0 DUP1 DUP6 PUSH20 0xFFFFFFFFFFFFFFFFFFFFFFFFFFFFFFFFFFFFFFFF AND DUP4 PUSH1 0x40 MLOAD PUSH2 0x105B SWAP2 SWAP1 PUSH2 0x1EB7 JUMP JUMPDEST PUSH1 0x0 PUSH1 0x40 MLOAD DUP1 DUP4 SUB DUP2 PUSH1 0x0 DUP7 GAS CALL SWAP2 POP POP RETURNDATASIZE DUP1 PUSH1 0x0 DUP2 EQ PUSH2 0x1098 JUMPI PUSH1 0x40 MLOAD SWAP2 POP PUSH1 0x1F NOT PUSH1 0x3F RETURNDATASIZE ADD AND DUP3 ADD PUSH1 0x40 MSTORE RETURNDATASIZE DUP3 MSTORE RETURNDATASIZE PUSH1 0x0 PUSH1 0x20 DUP5 ADD RETURNDATACOPY PUSH2 0x109D JUMP JUMPDEST PUSH1 0x60 SWAP2 POP JUMPDEST POP SWAP2 POP SWAP2 POP DUP2 ISZERO DUP1 PUSH2 0x10CE JUMPI POP PUSH1 0x0 DUP2 MLOAD EQ ISZERO DUP1 ISZERO PUSH2 0x10CD JUMPI POP DUP1 DUP1 PUSH1 0x20 ADD SWAP1 MLOAD DUP2 ADD SWAP1 PUSH2 0x10CB SWAP2 SWAP1 PUSH2 0x1EFA JUMP JUMPDEST ISZERO JUMPDEST JUMPDEST ISZERO PUSH2 0x110E JUMPI PUSH1 0x40 MLOAD PUSH32 0x8C379A000000000000000000000000000000000000000000000000000000000 DUP2 MSTORE PUSH1 0x4 ADD PUSH2 0x1105 SWAP1 PUSH2 0x21E2 JUMP JUMPDEST PUSH1 0x40 MLOAD DUP1 SWAP2 SUB SWAP1 REVERT JUMPDEST POP POP POP POP POP POP JUMP JUMPDEST PUSH1 0x0 PUSH1 0x1 PUSH1 0x0 SWAP1 SLOAD SWAP1 PUSH2 0x100 EXP SWAP1 DIV PUSH20 0xFFFFFFFFFFFFFFFFFFFFFFFFFFFFFFFFFFFFFFFF AND SWAP1 POP SWAP1 JUMP JUMPDEST PUSH2 0x1149 DUP2 PUSH2 0x1420 JUMP JUMPDEST POP JUMP JUMPDEST PUSH1 0x0 DUP6 PUSH20 0xFFFFFFFFFFFFFFFFFFFFFFFFFFFFFFFFFFFFFFFF AND EXTCODESIZE SUB PUSH2 0x11A6 JUMPI PUSH1 0x40 MLOAD PUSH32 0x8C379A000000000000000000000000000000000000000000000000000000000 DUP2 MSTORE PUSH1 0x4 ADD PUSH2 0x119D SWAP1 PUSH2 0x224E JUMP JUMPDEST PUSH1 0x40 MLOAD DUP1 SWAP2 SUB SWAP1 REVERT JUMPDEST PUSH1 0x0 PUSH4 0xF242432A PUSH1 0xE0 SHL ADDRESS DUP6 DUP8 DUP7 DUP7 PUSH1 0x40 MLOAD PUSH1 0x24 ADD PUSH2 0x11C9 SWAP6 SWAP5 SWAP4 SWAP3 SWAP2 SWAP1 PUSH2 0x226E JUMP JUMPDEST PUSH1 0x40 MLOAD PUSH1 0x20 DUP2 DUP4 SUB SUB DUP2 MSTORE SWAP1 PUSH1 0x40 MSTORE SWAP1 PUSH28 0xFFFFFFFFFFFFFFFFFFFFFFFFFFFFFFFFFFFFFFFFFFFFFFFFFFFFFFFF NOT AND PUSH1 0x20 DUP3 ADD DUP1 MLOAD PUSH28 0xFFFFFFFFFFFFFFFFFFFFFFFFFFFFFFFFFFFFFFFFFFFFFFFFFFFFFFFF DUP4 DUP2 DUP4 AND OR DUP4 MSTORE POP POP POP POP SWAP1 POP PUSH1 0x0 DUP1 DUP8 PUSH20 0xFFFFFFFFFFFFFFFFFFFFFFFFFFFFFFFFFFFFFFFF AND DUP4 PUSH1 0x40 MLOAD PUSH2 0x1250 SWAP2 SWAP1 PUSH2 0x1EB7 JUMP JUMPDEST PUSH1 0x0 PUSH1 0x40 MLOAD DUP1 DUP4 SUB DUP2 PUSH1 0x0 DUP7 GAS CALL SWAP2 POP POP RETURNDATASIZE DUP1 PUSH1 0x0 DUP2 EQ PUSH2 0x128D JUMPI PUSH1 0x40 MLOAD SWAP2 POP PUSH1 0x1F NOT PUSH1 0x3F RETURNDATASIZE ADD AND DUP3 ADD PUSH1 0x40 MSTORE RETURNDATASIZE DUP3 MSTORE RETURNDATASIZE PUSH1 0x0 PUSH1 0x20 DUP5 ADD RETURNDATACOPY PUSH2 0x1292 JUMP JUMPDEST PUSH1 0x60 SWAP2 POP JUMPDEST POP SWAP2 POP SWAP2 POP DUP2 ISZERO DUP1 PUSH2 0x12C3 JUMPI POP PUSH1 0x0 DUP2 MLOAD EQ ISZERO DUP1 ISZERO PUSH2 0x12C2 JUMPI POP DUP1 DUP1 PUSH1 0x20 ADD SWAP1 MLOAD DUP2 ADD SWAP1 PUSH2 0x12C0 SWAP2 SWAP1 PUSH2 0x1EFA JUMP JUMPDEST ISZERO JUMPDEST JUMPDEST ISZERO PUSH2 0x1303 JUMPI PUSH1 0x40 MLOAD PUSH32 0x8C379A000000000000000000000000000000000000000000000000000000000 DUP2 MSTORE PUSH1 0x4 ADD PUSH2 0x12FA SWAP1 PUSH2 0x2314 JUMP JUMPDEST PUSH1 0x40 MLOAD DUP1 SWAP2 SUB SWAP1 REVERT JUMPDEST POP POP POP POP POP POP POP POP JUMP JUMPDEST INVALID JUMPDEST PUSH1 0x0 DUP1 SLOAD SWAP1 PUSH2 0x100 EXP SWAP1 DIV PUSH20 0xFFFFFFFFFFFFFFFFFFFFFFFFFFFFFFFFFFFFFFFF AND PUSH20 0xFFFFFFFFFFFFFFFFFFFFFFFFFFFFFFFFFFFFFFFF AND DUP2 PUSH20 0xFFFFFFFFFFFFFFFFFFFFFFFFFFFFFFFFFFFFFFFF AND EQ PUSH2 0x141D JUMPI DUP1 PUSH20 0xFFFFFFFFFFFFFFFFFFFFFFFFFFFFFFFFFFFFFFFF AND PUSH1 0x0 DUP1 SLOAD SWAP1 PUSH2 0x100 EXP SWAP1 DIV PUSH20 0xFFFFFFFFFFFFFFFFFFFFFFFFFFFFFFFFFFFFFFFF AND PUSH20 0xFFFFFFFFFFFFFFFFFFFFFFFFFFFFFFFFFFFFFFFF AND PUSH32 0xB532073B38C83145E3E5135377A08BF9AAB55BC0FD7C1179CD4FB995D2A5159C PUSH1 0x40 MLOAD PUSH1 0x40 MLOAD DUP1 SWAP2 SUB SWAP1 LOG3 DUP1 PUSH1 0x0 DUP1 PUSH2 0x100 EXP DUP2 SLOAD DUP2 PUSH20 0xFFFFFFFFFFFFFFFFFFFFFFFFFFFFFFFFFFFFFFFF MUL NOT AND SWAP1 DUP4 PUSH20 0xFFFFFFFFFFFFFFFFFFFFFFFFFFFFFFFFFFFFFFFF AND MUL OR SWAP1 SSTORE POP JUMPDEST POP JUMP JUMPDEST DUP1 PUSH1 0x1 PUSH1 0x0 PUSH2 0x100 EXP DUP2 SLOAD DUP2 PUSH20 0xFFFFFFFFFFFFFFFFFFFFFFFFFFFFFFFFFFFFFFFF MUL NOT AND SWAP1 DUP4 PUSH20 0xFFFFFFFFFFFFFFFFFFFFFFFFFFFFFFFFFFFFFFFF AND MUL OR SWAP1 SSTORE POP POP JUMP JUMPDEST PUSH1 0x0 PUSH1 0x40 MLOAD SWAP1 POP SWAP1 JUMP JUMPDEST PUSH1 0x0 DUP1 REVERT JUMPDEST PUSH1 0x0 DUP1 REVERT JUMPDEST PUSH1 0x0 PUSH20 0xFFFFFFFFFFFFFFFFFFFFFFFFFFFFFFFFFFFFFFFF DUP3 AND SWAP1 POP SWAP2 SWAP1 POP JUMP JUMPDEST PUSH1 0x0 PUSH2 0x14A3 DUP3 PUSH2 0x1478 JUMP JUMPDEST SWAP1 POP SWAP2 SWAP1 POP JUMP JUMPDEST PUSH2 0x14B3 DUP2 PUSH2 0x1498 JUMP JUMPDEST DUP2 EQ PUSH2 0x14BE JUMPI PUSH1 0x0 DUP1 REVERT JUMPDEST POP JUMP JUMPDEST PUSH1 0x0 DUP2 CALLDATALOAD SWAP1 POP PUSH2 0x14D0 DUP2 PUSH2 0x14AA JUMP JUMPDEST SWAP3 SWAP2 POP POP JUMP JUMPDEST PUSH1 0x0 DUP2 SWAP1 POP SWAP2 SWAP1 POP JUMP JUMPDEST PUSH2 0x14E9 DUP2 PUSH2 0x14D6 JUMP JUMPDEST DUP2 EQ PUSH2 0x14F4 JUMPI PUSH1 0x0 DUP1 REVERT JUMPDEST POP JUMP JUMPDEST PUSH1 0x0 DUP2 CALLDATALOAD SWAP1 POP PUSH2 0x1506 DUP2 PUSH2 0x14E0 JUMP JUMPDEST SWAP3 SWAP2 POP POP JUMP JUMPDEST PUSH1 0x0 DUP1 REVERT JUMPDEST PUSH1 0x0 DUP1 REVERT JUMPDEST PUSH1 0x0 DUP1 REVERT JUMPDEST PUSH1 0x0 DUP1 DUP4 PUSH1 0x1F DUP5 ADD SLT PUSH2 0x1531 JUMPI PUSH2 0x1530 PUSH2 0x150C JUMP JUMPDEST JUMPDEST DUP3 CALLDATALOAD SWAP1 POP PUSH8 0xFFFFFFFFFFFFFFFF DUP2 GT ISZERO PUSH2 0x154E JUMPI PUSH2 0x154D PUSH2 0x1511 JUMP JUMPDEST JUMPDEST PUSH1 0x20 DUP4 ADD SWAP2 POP DUP4 PUSH1 0x1 DUP3 MUL DUP4 ADD GT ISZERO PUSH2 0x156A JUMPI PUSH2 0x1569 PUSH2 0x1516 JUMP JUMPDEST JUMPDEST SWAP3 POP SWAP3 SWAP1 POP JUMP JUMPDEST PUSH1 0x0 DUP1 PUSH1 0x0 DUP1 PUSH1 0x0 DUP1 PUSH1 0x0 DUP1 PUSH1 0xC0 DUP10 DUP12 SUB SLT ISZERO PUSH2 0x1591 JUMPI PUSH2 0x1590 PUSH2 0x146E JUMP JUMPDEST JUMPDEST PUSH1 0x0 PUSH2 0x159F DUP12 DUP3 DUP13 ADD PUSH2 0x14C1 JUMP JUMPDEST SWAP9 POP POP PUSH1 0x20 PUSH2 0x15B0 DUP12 DUP3 DUP13 ADD PUSH2 0x14C1 JUMP JUMPDEST SWAP8 POP POP PUSH1 0x40 PUSH2 0x15C1 DUP12 DUP3 DUP13 ADD PUSH2 0x14C1 JUMP JUMPDEST SWAP7 POP POP PUSH1 0x60 PUSH2 0x15D2 DUP12 DUP3 DUP13 ADD PUSH2 0x14F7 JUMP JUMPDEST SWAP6 POP POP PUSH1 0x80 DUP10 ADD CALLDATALOAD PUSH8 0xFFFFFFFFFFFFFFFF DUP2 GT ISZERO PUSH2 0x15F3 JUMPI PUSH2 0x15F2 PUSH2 0x1473 JUMP JUMPDEST JUMPDEST PUSH2 0x15FF DUP12 DUP3 DUP13 ADD PUSH2 0x151B JUMP JUMPDEST SWAP5 POP SWAP5 POP POP PUSH1 0xA0 DUP10 ADD CALLDATALOAD PUSH8 0xFFFFFFFFFFFFFFFF DUP2 GT ISZERO PUSH2 0x1622 JUMPI PUSH2 0x1621 PUSH2 0x1473 JUMP JUMPDEST JUMPDEST PUSH2 0x162E DUP12 DUP3 DUP13 ADD PUSH2 0x151B JUMP JUMPDEST SWAP3 POP SWAP3 POP POP SWAP3 SWAP6 SWAP9 POP SWAP3 SWAP6 SWAP9 SWAP1 SWAP4 SWAP7 POP JUMP JUMPDEST PUSH1 0x0 PUSH32 0xFFFFFFFF00000000000000000000000000000000000000000000000000000000 DUP3 AND SWAP1 POP SWAP2 SWAP1 POP JUMP JUMPDEST PUSH2 0x1675 DUP2 PUSH2 0x1640 JUMP JUMPDEST DUP2 EQ PUSH2 0x1680 JUMPI PUSH1 0x0 DUP1 REVERT JUMPDEST POP JUMP JUMPDEST PUSH1 0x0 DUP2 CALLDATALOAD SWAP1 POP PUSH2 0x1692 DUP2 PUSH2 0x166C JUMP JUMPDEST SWAP3 SWAP2 POP POP JUMP JUMPDEST PUSH1 0x0 PUSH1 0x20 DUP3 DUP5 SUB SLT ISZERO PUSH2 0x16AE JUMPI PUSH2 0x16AD PUSH2 0x146E JUMP JUMPDEST JUMPDEST PUSH1 0x0 PUSH2 0x16BC DUP5 DUP3 DUP6 ADD PUSH2 0x1683 JUMP JUMPDEST SWAP2 POP POP SWAP3 SWAP2 POP POP JUMP JUMPDEST PUSH1 0x0 DUP2 ISZERO ISZERO SWAP1 POP SWAP2 SWAP1 POP JUMP JUMPDEST PUSH2 0x16DA DUP2 PUSH2 0x16C5 JUMP JUMPDEST DUP3 MSTORE POP POP JUMP JUMPDEST PUSH1 0x0 PUSH1 0x20 DUP3 ADD SWAP1 POP PUSH2 0x16F5 PUSH1 0x0 DUP4 ADD DUP5 PUSH2 0x16D1 JUMP JUMPDEST SWAP3 SWAP2 POP POP JUMP JUMPDEST PUSH1 0x0 DUP1 REVERT JUMPDEST PUSH1 0x0 PUSH1 0x1F NOT PUSH1 0x1F DUP4 ADD AND SWAP1 POP SWAP2 SWAP1 POP JUMP JUMPDEST PUSH32 0x4E487B7100000000000000000000000000000000000000000000000000000000 PUSH1 0x0 MSTORE PUSH1 0x41 PUSH1 0x4 MSTORE PUSH1 0x24 PUSH1 0x0 REVERT JUMPDEST PUSH2 0x1749 DUP3 PUSH2 0x1700 JUMP JUMPDEST DUP2 ADD DUP2 DUP2 LT PUSH8 0xFFFFFFFFFFFFFFFF DUP3 GT OR ISZERO PUSH2 0x1768 JUMPI PUSH2 0x1767 PUSH2 0x1711 JUMP JUMPDEST JUMPDEST DUP1 PUSH1 0x40 MSTORE POP POP POP JUMP JUMPDEST PUSH1 0x0 PUSH2 0x177B PUSH2 0x1464 JUMP JUMPDEST SWAP1 POP PUSH2 0x1787 DUP3 DUP3 PUSH2 0x1740 JUMP JUMPDEST SWAP2 SWAP1 POP JUMP JUMPDEST PUSH1 0x0 PUSH8 0xFFFFFFFFFFFFFFFF DUP3 GT ISZERO PUSH2 0x17A7 JUMPI PUSH2 0x17A6 PUSH2 0x1711 JUMP JUMPDEST JUMPDEST PUSH2 0x17B0 DUP3 PUSH2 0x1700 JUMP JUMPDEST SWAP1 POP PUSH1 0x20 DUP2 ADD SWAP1 POP SWAP2 SWAP1 POP JUMP JUMPDEST DUP3 DUP2 DUP4 CALLDATACOPY PUSH1 0x0 DUP4 DUP4 ADD MSTORE POP POP POP JUMP JUMPDEST PUSH1 0x0 PUSH2 0x17DF PUSH2 0x17DA DUP5 PUSH2 0x178C JUMP JUMPDEST PUSH2 0x1771 JUMP JUMPDEST SWAP1 POP DUP3 DUP2 MSTORE PUSH1 0x20 DUP2 ADD DUP5 DUP5 DUP5 ADD GT ISZERO PUSH2 0x17FB JUMPI PUSH2 0x17FA PUSH2 0x16FB JUMP JUMPDEST JUMPDEST PUSH2 0x1806 DUP5 DUP3 DUP6 PUSH2 0x17BD JUMP JUMPDEST POP SWAP4 SWAP3 POP POP POP JUMP JUMPDEST PUSH1 0x0 DUP3 PUSH1 0x1F DUP4 ADD SLT PUSH2 0x1823 JUMPI PUSH2 0x1822 PUSH2 0x150C JUMP JUMPDEST JUMPDEST DUP2 CALLDATALOAD PUSH2 0x1833 DUP5 DUP3 PUSH1 0x20 DUP7 ADD PUSH2 0x17CC JUMP JUMPDEST SWAP2 POP POP SWAP3 SWAP2 POP POP JUMP JUMPDEST PUSH1 0x0 DUP1 PUSH1 0x0 DUP1 PUSH1 0x80 DUP6 DUP8 SUB SLT ISZERO PUSH2 0x1856 JUMPI PUSH2 0x1855 PUSH2 0x146E JUMP JUMPDEST JUMPDEST PUSH1 0x0 PUSH2 0x1864 DUP8 DUP3 DUP9 ADD PUSH2 0x14C1 JUMP JUMPDEST SWAP5 POP POP PUSH1 0x20 PUSH2 0x1875 DUP8 DUP3 DUP9 ADD PUSH2 0x14C1 JUMP JUMPDEST SWAP4 POP POP PUSH1 0x40 PUSH2 0x1886 DUP8 DUP3 DUP9 ADD PUSH2 0x14F7 JUMP JUMPDEST SWAP3 POP POP PUSH1 0x60 DUP6 ADD CALLDATALOAD PUSH8 0xFFFFFFFFFFFFFFFF DUP2 GT ISZERO PUSH2 0x18A7 JUMPI PUSH2 0x18A6 PUSH2 0x1473 JUMP JUMPDEST JUMPDEST PUSH2 0x18B3 DUP8 DUP3 DUP9 ADD PUSH2 0x180E JUMP JUMPDEST SWAP2 POP POP SWAP3 SWAP6 SWAP2 SWAP5 POP SWAP3 POP JUMP JUMPDEST PUSH2 0x18C8 DUP2 PUSH2 0x1640 JUMP JUMPDEST DUP3 MSTORE POP POP JUMP JUMPDEST PUSH1 0x0 PUSH1 0x20 DUP3 ADD SWAP1 POP PUSH2 0x18E3 PUSH1 0x0 DUP4 ADD DUP5 PUSH2 0x18BF JUMP JUMPDEST SWAP3 SWAP2 POP POP JUMP JUMPDEST PUSH1 0x0 DUP2 SWAP1 POP SWAP2 SWAP1 POP JUMP JUMPDEST PUSH2 0x18FC DUP2 PUSH2 0x18E9 JUMP JUMPDEST DUP2 EQ PUSH2 0x1907 JUMPI PUSH1 0x0 DUP1 REVERT JUMPDEST POP JUMP JUMPDEST PUSH1 0x0 DUP2 CALLDATALOAD SWAP1 POP PUSH2 0x1919 DUP2 PUSH2 0x18F3 JUMP JUMPDEST SWAP3 SWAP2 POP POP JUMP JUMPDEST PUSH1 0x0 DUP1 PUSH1 0x40 DUP4 DUP6 SUB SLT ISZERO PUSH2 0x1936 JUMPI PUSH2 0x1935 PUSH2 0x146E JUMP JUMPDEST JUMPDEST PUSH1 0x0 PUSH2 0x1944 DUP6 DUP3 DUP7 ADD PUSH2 0x190A JUMP JUMPDEST SWAP3 POP POP PUSH1 0x20 PUSH2 0x1955 DUP6 DUP3 DUP7 ADD PUSH2 0x14C1 JUMP JUMPDEST SWAP2 POP POP SWAP3 POP SWAP3 SWAP1 POP JUMP JUMPDEST PUSH2 0x1968 DUP2 PUSH2 0x18E9 JUMP JUMPDEST DUP3 MSTORE POP POP JUMP JUMPDEST PUSH1 0x0 PUSH1 0x20 DUP3 ADD SWAP1 POP PUSH2 0x1983 PUSH1 0x0 DUP4 ADD DUP5 PUSH2 0x195F JUMP JUMPDEST SWAP3 SWAP2 POP POP JUMP JUMPDEST PUSH1 0x0 DUP1 PUSH1 0x40 DUP4 DUP6 SUB SLT ISZERO PUSH2 0x19A0 JUMPI PUSH2 0x199F PUSH2 0x146E JUMP JUMPDEST JUMPDEST PUSH1 0x0 PUSH2 0x19AE DUP6 DUP3 DUP7 ADD PUSH2 0x14C1 JUMP JUMPDEST SWAP3 POP POP PUSH1 0x20 PUSH2 0x19BF DUP6 DUP3 DUP7 ADD PUSH2 0x14F7 JUMP JUMPDEST SWAP2 POP POP SWAP3 POP SWAP3 SWAP1 POP JUMP JUMPDEST PUSH1 0x0 PUSH1 0x20 DUP3 DUP5 SUB SLT ISZERO PUSH2 0x19DF JUMPI PUSH2 0x19DE PUSH2 0x146E JUMP JUMPDEST JUMPDEST PUSH1 0x0 PUSH2 0x19ED DUP5 DUP3 DUP6 ADD PUSH2 0x14F7 JUMP JUMPDEST SWAP2 POP POP SWAP3 SWAP2 POP POP JUMP JUMPDEST PUSH1 0x0 PUSH1 0x20 DUP3 DUP5 SUB SLT ISZERO PUSH2 0x1A0C JUMPI PUSH2 0x1A0B PUSH2 0x146E JUMP JUMPDEST JUMPDEST PUSH1 0x0 PUSH2 0x1A1A DUP5 DUP3 DUP6 ADD PUSH2 0x14C1 JUMP JUMPDEST SWAP2 POP POP SWAP3 SWAP2 POP POP JUMP JUMPDEST PUSH2 0x1A2C DUP2 PUSH2 0x1498 JUMP JUMPDEST DUP3 MSTORE POP POP JUMP JUMPDEST PUSH1 0x0 PUSH1 0x20 DUP3 ADD SWAP1 POP PUSH2 0x1A47 PUSH1 0x0 DUP4 ADD DUP5 PUSH2 0x1A23 JUMP JUMPDEST SWAP3 SWAP2 POP POP JUMP JUMPDEST PUSH1 0x0 DUP1 PUSH1 0x0 PUSH1 0x60 DUP5 DUP7 SUB SLT ISZERO PUSH2 0x1A66 JUMPI PUSH2 0x1A65 PUSH2 0x146E JUMP JUMPDEST JUMPDEST PUSH1 0x0 PUSH2 0x1A74 DUP7 DUP3 DUP8 ADD PUSH2 0x14C1 JUMP JUMPDEST SWAP4 POP POP PUSH1 0x20 PUSH2 0x1A85 DUP7 DUP3 DUP8 ADD PUSH2 0x14F7 JUMP JUMPDEST SWAP3 POP POP PUSH1 0x40 DUP5 ADD CALLDATALOAD PUSH8 0xFFFFFFFFFFFFFFFF DUP2 GT ISZERO PUSH2 0x1AA6 JUMPI PUSH2 0x1AA5 PUSH2 0x1473 JUMP JUMPDEST JUMPDEST PUSH2 0x1AB2 DUP7 DUP3 DUP8 ADD PUSH2 0x180E JUMP JUMPDEST SWAP2 POP POP SWAP3 POP SWAP3 POP SWAP3 JUMP JUMPDEST PUSH1 0x0 PUSH8 0xFFFFFFFFFFFFFFFF DUP3 GT ISZERO PUSH2 0x1AD7 JUMPI PUSH2 0x1AD6 PUSH2 0x1711 JUMP JUMPDEST JUMPDEST PUSH1 0x20 DUP3 MUL SWAP1 POP PUSH1 0x20 DUP2 ADD SWAP1 POP SWAP2 SWAP1 POP JUMP JUMPDEST PUSH1 0x0 PUSH2 0x1AFB PUSH2 0x1AF6 DUP5 PUSH2 0x1ABC JUMP JUMPDEST PUSH2 0x1771 JUMP JUMPDEST SWAP1 POP DUP1 DUP4 DUP3 MSTORE PUSH1 0x20 DUP3 ADD SWAP1 POP PUSH1 0x20 DUP5 MUL DUP4 ADD DUP6 DUP2 GT ISZERO PUSH2 0x1B1E JUMPI PUSH2 0x1B1D PUSH2 0x1516 JUMP JUMPDEST JUMPDEST DUP4 JUMPDEST DUP2 DUP2 LT ISZERO PUSH2 0x1B47 JUMPI DUP1 PUSH2 0x1B33 DUP9 DUP3 PUSH2 0x14F7 JUMP JUMPDEST DUP5 MSTORE PUSH1 0x20 DUP5 ADD SWAP4 POP POP PUSH1 0x20 DUP2 ADD SWAP1 POP PUSH2 0x1B20 JUMP JUMPDEST POP POP POP SWAP4 SWAP3 POP POP POP JUMP JUMPDEST PUSH1 0x0 DUP3 PUSH1 0x1F DUP4 ADD SLT PUSH2 0x1B66 JUMPI PUSH2 0x1B65 PUSH2 0x150C JUMP JUMPDEST JUMPDEST DUP2 CALLDATALOAD PUSH2 0x1B76 DUP5 DUP3 PUSH1 0x20 DUP7 ADD PUSH2 0x1AE8 JUMP JUMPDEST SWAP2 POP POP SWAP3 SWAP2 POP POP JUMP JUMPDEST PUSH1 0x0 DUP1 PUSH1 0x0 DUP1 PUSH1 0x0 PUSH1 0xA0 DUP7 DUP9 SUB SLT ISZERO PUSH2 0x1B9B JUMPI PUSH2 0x1B9A PUSH2 0x146E JUMP JUMPDEST JUMPDEST PUSH1 0x0 PUSH2 0x1BA9 DUP9 DUP3 DUP10 ADD PUSH2 0x14C1 JUMP JUMPDEST SWAP6 POP POP PUSH1 0x20 PUSH2 0x1BBA DUP9 DUP3 DUP10 ADD PUSH2 0x14C1 JUMP JUMPDEST SWAP5 POP POP PUSH1 0x40 DUP7 ADD CALLDATALOAD PUSH8 0xFFFFFFFFFFFFFFFF DUP2 GT ISZERO PUSH2 0x1BDB JUMPI PUSH2 0x1BDA PUSH2 0x1473 JUMP JUMPDEST JUMPDEST PUSH2 0x1BE7 DUP9 DUP3 DUP10 ADD PUSH2 0x1B51 JUMP JUMPDEST SWAP4 POP POP PUSH1 0x60 DUP7 ADD CALLDATALOAD PUSH8 0xFFFFFFFFFFFFFFFF DUP2 GT ISZERO PUSH2 0x1C08 JUMPI PUSH2 0x1C07 PUSH2 0x1473 JUMP JUMPDEST JUMPDEST PUSH2 0x1C14 DUP9 DUP3 DUP10 ADD PUSH2 0x1B51 JUMP JUMPDEST SWAP3 POP POP PUSH1 0x80 DUP7 ADD CALLDATALOAD PUSH8 0xFFFFFFFFFFFFFFFF DUP2 GT ISZERO PUSH2 0x1C35 JUMPI PUSH2 0x1C34 PUSH2 0x1473 JUMP JUMPDEST JUMPDEST PUSH2 0x1C41 DUP9 DUP3 DUP10 ADD PUSH2 0x180E JUMP JUMPDEST SWAP2 POP POP SWAP3 SWAP6 POP SWAP3 SWAP6 SWAP1 SWAP4 POP JUMP JUMPDEST PUSH1 0x0 DUP1 PUSH1 0x0 DUP1 PUSH1 0x0 PUSH1 0xA0 DUP7 DUP9 SUB SLT ISZERO PUSH2 0x1C6A JUMPI PUSH2 0x1C69 PUSH2 0x146E JUMP JUMPDEST JUMPDEST PUSH1 0x0 PUSH2 0x1C78 DUP9 DUP3 DUP10 ADD PUSH2 0x14C1 JUMP JUMPDEST SWAP6 POP POP PUSH1 0x20 PUSH2 0x1C89 DUP9 DUP3 DUP10 ADD PUSH2 0x14C1 JUMP JUMPDEST SWAP5 POP POP PUSH1 0x40 PUSH2 0x1C9A DUP9 DUP3 DUP10 ADD PUSH2 0x14F7 JUMP JUMPDEST SWAP4 POP POP PUSH1 0x60 PUSH2 0x1CAB DUP9 DUP3 DUP10 ADD PUSH2 0x14F7 JUMP JUMPDEST SWAP3 POP POP PUSH1 0x80 DUP7 ADD CALLDATALOAD PUSH8 0xFFFFFFFFFFFFFFFF DUP2 GT ISZERO PUSH2 0x1CCC JUMPI PUSH2 0x1CCB PUSH2 0x1473 JUMP JUMPDEST JUMPDEST PUSH2 0x1CD8 DUP9 DUP3 DUP10 ADD PUSH2 0x180E JUMP JUMPDEST SWAP2 POP POP SWAP3 SWAP6 POP SWAP3 SWAP6 SWAP1 SWAP4 POP JUMP JUMPDEST PUSH1 0x0 DUP1 PUSH1 0x0 DUP1 PUSH1 0x80 DUP6 DUP8 SUB SLT ISZERO PUSH2 0x1CFF JUMPI PUSH2 0x1CFE PUSH2 0x146E JUMP JUMPDEST JUMPDEST PUSH1 0x0 PUSH2 0x1D0D DUP8 DUP3 DUP9 ADD PUSH2 0x14C1 JUMP JUMPDEST SWAP5 POP POP PUSH1 0x20 PUSH2 0x1D1E DUP8 DUP3 DUP9 ADD PUSH2 0x14F7 JUMP JUMPDEST SWAP4 POP POP PUSH1 0x40 PUSH2 0x1D2F DUP8 DUP3 DUP9 ADD PUSH2 0x14F7 JUMP JUMPDEST SWAP3 POP POP PUSH1 0x60 DUP6 ADD CALLDATALOAD PUSH8 0xFFFFFFFFFFFFFFFF DUP2 GT ISZERO PUSH2 0x1D50 JUMPI PUSH2 0x1D4F PUSH2 0x1473 JUMP JUMPDEST JUMPDEST PUSH2 0x1D5C DUP8 DUP3 DUP9 ADD PUSH2 0x180E JUMP JUMPDEST SWAP2 POP POP SWAP3 SWAP6 SWAP2 SWAP5 POP SWAP3 POP JUMP JUMPDEST PUSH1 0x0 PUSH1 0x40 DUP3 ADD SWAP1 POP PUSH2 0x1D7D PUSH1 0x0 DUP4 ADD DUP6 PUSH2 0x1A23 JUMP JUMPDEST PUSH2 0x1D8A PUSH1 0x20 DUP4 ADD DUP5 PUSH2 0x1A23 JUMP JUMPDEST SWAP4 SWAP3 POP POP POP JUMP JUMPDEST PUSH1 0x0 DUP3 DUP3 MSTORE PUSH1 0x20 DUP3 ADD SWAP1 POP SWAP3 SWAP2 POP POP JUMP JUMPDEST PUSH32 0x4552433230546F6B656E436F6E74726163744572726F72000000000000000000 PUSH1 0x0 DUP3 ADD MSTORE POP JUMP JUMPDEST PUSH1 0x0 PUSH2 0x1DD8 PUSH1 0x17 DUP4 PUSH2 0x1D91 JUMP JUMPDEST SWAP2 POP PUSH2 0x1DE3 DUP3 PUSH2 0x1DA2 JUMP JUMPDEST PUSH1 0x20 DUP3 ADD SWAP1 POP SWAP2 SWAP1 POP JUMP JUMPDEST PUSH1 0x0 PUSH1 0x20 DUP3 ADD SWAP1 POP DUP2 DUP2 SUB PUSH1 0x0 DUP4 ADD MSTORE PUSH2 0x1E07 DUP2 PUSH2 0x1DCB JUMP JUMPDEST SWAP1 POP SWAP2 SWAP1 POP JUMP JUMPDEST PUSH2 0x1E17 DUP2 PUSH2 0x14D6 JUMP JUMPDEST DUP3 MSTORE POP POP JUMP JUMPDEST PUSH1 0x0 PUSH1 0x40 DUP3 ADD SWAP1 POP PUSH2 0x1E32 PUSH1 0x0 DUP4 ADD DUP6 PUSH2 0x1A23 JUMP JUMPDEST PUSH2 0x1E3F PUSH1 0x20 DUP4 ADD DUP5 PUSH2 0x1E0E JUMP JUMPDEST SWAP4 SWAP3 POP POP POP JUMP JUMPDEST PUSH1 0x0 DUP2 MLOAD SWAP1 POP SWAP2 SWAP1 POP JUMP JUMPDEST PUSH1 0x0 DUP2 SWAP1 POP SWAP3 SWAP2 POP POP JUMP JUMPDEST PUSH1 0x0 JUMPDEST DUP4 DUP2 LT ISZERO PUSH2 0x1E7A JUMPI DUP1 DUP3 ADD MLOAD DUP2 DUP5 ADD MSTORE PUSH1 0x20 DUP2 ADD SWAP1 POP PUSH2 0x1E5F JUMP JUMPDEST PUSH1 0x0 DUP5 DUP5 ADD MSTORE POP POP POP POP JUMP JUMPDEST PUSH1 0x0 PUSH2 0x1E91 DUP3 PUSH2 0x1E46 JUMP JUMPDEST PUSH2 0x1E9B DUP2 DUP6 PUSH2 0x1E51 JUMP JUMPDEST SWAP4 POP PUSH2 0x1EAB DUP2 DUP6 PUSH1 0x20 DUP7 ADD PUSH2 0x1E5C JUMP JUMPDEST DUP1 DUP5 ADD SWAP2 POP POP SWAP3 SWAP2 POP POP JUMP JUMPDEST PUSH1 0x0 PUSH2 0x1EC3 DUP3 DUP5 PUSH2 0x1E86 JUMP JUMPDEST SWAP2 POP DUP2 SWAP1 POP SWAP3 SWAP2 POP POP JUMP JUMPDEST PUSH2 0x1ED7 DUP2 PUSH2 0x16C5 JUMP JUMPDEST DUP2 EQ PUSH2 0x1EE2 JUMPI PUSH1 0x0 DUP1 REVERT JUMPDEST POP JUMP JUMPDEST PUSH1 0x0 DUP2 MLOAD SWAP1 POP PUSH2 0x1EF4 DUP2 PUSH2 0x1ECE JUMP JUMPDEST SWAP3 SWAP2 POP POP JUMP JUMPDEST PUSH1 0x0 PUSH1 0x20 DUP3 DUP5 SUB SLT ISZERO PUSH2 0x1F10 JUMPI PUSH2 0x1F0F PUSH2 0x146E JUMP JUMPDEST JUMPDEST PUSH1 0x0 PUSH2 0x1F1E DUP5 DUP3 DUP6 ADD PUSH2 0x1EE5 JUMP JUMPDEST SWAP2 POP POP SWAP3 SWAP2 POP POP JUMP JUMPDEST PUSH32 0x4552433230546F6B656E5472616E736665724572726F72000000000000000000 PUSH1 0x0 DUP3 ADD MSTORE POP JUMP JUMPDEST PUSH1 0x0 PUSH2 0x1F5D PUSH1 0x17 DUP4 PUSH2 0x1D91 JUMP JUMPDEST SWAP2 POP PUSH2 0x1F68 DUP3 PUSH2 0x1F27 JUMP JUMPDEST PUSH1 0x20 DUP3 ADD SWAP1 POP SWAP2 SWAP1 POP JUMP JUMPDEST PUSH1 0x0 PUSH1 0x20 DUP3 ADD SWAP1 POP DUP2 DUP2 SUB PUSH1 0x0 DUP4 ADD MSTORE PUSH2 0x1F8C DUP2 PUSH2 0x1F50 JUMP JUMPDEST SWAP1 POP SWAP2 SWAP1 POP JUMP JUMPDEST PUSH32 0x455243373737546F6B656E436F6E74726163744572726F720000000000000000 PUSH1 0x0 DUP3 ADD MSTORE POP JUMP JUMPDEST PUSH1 0x0 PUSH2 0x1FC9 PUSH1 0x18 DUP4 PUSH2 0x1D91 JUMP JUMPDEST SWAP2 POP PUSH2 0x1FD4 DUP3 PUSH2 0x1F93 JUMP JUMPDEST PUSH1 0x20 DUP3 ADD SWAP1 POP SWAP2 SWAP1 POP JUMP JUMPDEST PUSH1 0x0 PUSH1 0x20 DUP3 ADD SWAP1 POP DUP2 DUP2 SUB PUSH1 0x0 DUP4 ADD MSTORE PUSH2 0x1FF8 DUP2 PUSH2 0x1FBC JUMP JUMPDEST SWAP1 POP SWAP2 SWAP1 POP JUMP JUMPDEST PUSH1 0x0 DUP3 DUP3 MSTORE PUSH1 0x20 DUP3 ADD SWAP1 POP SWAP3 SWAP2 POP POP JUMP JUMPDEST PUSH1 0x0 PUSH2 0x201B DUP3 PUSH2 0x1E46 JUMP JUMPDEST PUSH2 0x2025 DUP2 DUP6 PUSH2 0x1FFF JUMP JUMPDEST SWAP4 POP PUSH2 0x2035 DUP2 DUP6 PUSH1 0x20 DUP7 ADD PUSH2 0x1E5C JUMP JUMPDEST PUSH2 0x203E DUP2 PUSH2 0x1700 JUMP JUMPDEST DUP5 ADD SWAP2 POP POP SWAP3 SWAP2 POP POP JUMP JUMPDEST PUSH1 0x0 PUSH1 0x60 DUP3 ADD SWAP1 POP PUSH2 0x205E PUSH1 0x0 DUP4 ADD DUP7 PUSH2 0x1A23 JUMP JUMPDEST PUSH2 0x206B PUSH1 0x20 DUP4 ADD DUP6 PUSH2 0x1E0E JUMP JUMPDEST DUP2 DUP2 SUB PUSH1 0x40 DUP4 ADD MSTORE PUSH2 0x207D DUP2 DUP5 PUSH2 0x2010 JUMP JUMPDEST SWAP1 POP SWAP5 SWAP4 POP POP POP POP JUMP JUMPDEST PUSH32 0x455243373737546F6B656E5472616E736665724572726F720000000000000000 PUSH1 0x0 DUP3 ADD MSTORE POP JUMP JUMPDEST PUSH1 0x0 PUSH2 0x20BD PUSH1 0x18 DUP4 PUSH2 0x1D91 JUMP JUMPDEST SWAP2 POP PUSH2 0x20C8 DUP3 PUSH2 0x2087 JUMP JUMPDEST PUSH1 0x20 DUP3 ADD SWAP1 POP SWAP2 SWAP1 POP JUMP JUMPDEST PUSH1 0x0 PUSH1 0x20 DUP3 ADD SWAP1 POP DUP2 DUP2 SUB PUSH1 0x0 DUP4 ADD MSTORE PUSH2 0x20EC DUP2 PUSH2 0x20B0 JUMP JUMPDEST SWAP1 POP SWAP2 SWAP1 POP JUMP JUMPDEST PUSH32 0x455243373231546F6B656E436F6E74726163744572726F720000000000000000 PUSH1 0x0 DUP3 ADD MSTORE POP JUMP JUMPDEST PUSH1 0x0 PUSH2 0x2129 PUSH1 0x18 DUP4 PUSH2 0x1D91 JUMP JUMPDEST SWAP2 POP PUSH2 0x2134 DUP3 PUSH2 0x20F3 JUMP JUMPDEST PUSH1 0x20 DUP3 ADD SWAP1 POP SWAP2 SWAP1 POP JUMP JUMPDEST PUSH1 0x0 PUSH1 0x20 DUP3 ADD SWAP1 POP DUP2 DUP2 SUB PUSH1 0x0 DUP4 ADD MSTORE PUSH2 0x2158 DUP2 PUSH2 0x211C JUMP JUMPDEST SWAP1 POP SWAP2 SWAP1 POP JUMP JUMPDEST PUSH1 0x0 PUSH1 0x60 DUP3 ADD SWAP1 POP PUSH2 0x2174 PUSH1 0x0 DUP4 ADD DUP7 PUSH2 0x1A23 JUMP JUMPDEST PUSH2 0x2181 PUSH1 0x20 DUP4 ADD DUP6 PUSH2 0x1A23 JUMP JUMPDEST PUSH2 0x218E PUSH1 0x40 DUP4 ADD DUP5 PUSH2 0x1E0E JUMP JUMPDEST SWAP5 SWAP4 POP POP POP POP JUMP JUMPDEST PUSH32 0x455243373231546F6B656E5472616E736665724572726F720000000000000000 PUSH1 0x0 DUP3 ADD MSTORE POP JUMP JUMPDEST PUSH1 0x0 PUSH2 0x21CC PUSH1 0x18 DUP4 PUSH2 0x1D91 JUMP JUMPDEST SWAP2 POP PUSH2 0x21D7 DUP3 PUSH2 0x2196 JUMP JUMPDEST PUSH1 0x20 DUP3 ADD SWAP1 POP SWAP2 SWAP1 POP JUMP JUMPDEST PUSH1 0x0 PUSH1 0x20 DUP3 ADD SWAP1 POP DUP2 DUP2 SUB PUSH1 0x0 DUP4 ADD MSTORE PUSH2 0x21FB DUP2 PUSH2 0x21BF JUMP JUMPDEST SWAP1 POP SWAP2 SWAP1 POP JUMP JUMPDEST PUSH32 0x45524331313535546F6B656E436F6E74726163744572726F7200000000000000 PUSH1 0x0 DUP3 ADD MSTORE POP JUMP JUMPDEST PUSH1 0x0 PUSH2 0x2238 PUSH1 0x19 DUP4 PUSH2 0x1D91 JUMP JUMPDEST SWAP2 POP PUSH2 0x2243 DUP3 PUSH2 0x2202 JUMP JUMPDEST PUSH1 0x20 DUP3 ADD SWAP1 POP SWAP2 SWAP1 POP JUMP JUMPDEST PUSH1 0x0 PUSH1 0x20 DUP3 ADD SWAP1 POP DUP2 DUP2 SUB PUSH1 0x0 DUP4 ADD MSTORE PUSH2 0x2267 DUP2 PUSH2 0x222B JUMP JUMPDEST SWAP1 POP SWAP2 SWAP1 POP JUMP JUMPDEST PUSH1 0x0 PUSH1 0xA0 DUP3 ADD SWAP1 POP PUSH2 0x2283 PUSH1 0x0 DUP4 ADD DUP9 PUSH2 0x1A23 JUMP JUMPDEST PUSH2 0x2290 PUSH1 0x20 DUP4 ADD DUP8 PUSH2 0x1A23 JUMP JUMPDEST PUSH2 0x229D PUSH1 0x40 DUP4 ADD DUP7 PUSH2 0x1E0E JUMP JUMPDEST PUSH2 0x22AA PUSH1 0x60 DUP4 ADD DUP6 PUSH2 0x1E0E JUMP JUMPDEST DUP2 DUP2 SUB PUSH1 0x80 DUP4 ADD MSTORE PUSH2 0x22BC DUP2 DUP5 PUSH2 0x2010 JUMP JUMPDEST SWAP1 POP SWAP7 SWAP6 POP POP POP POP POP POP JUMP JUMPDEST PUSH32 0x45524331313535546F6B656E5472616E736665724572726F7200000000000000 PUSH1 0x0 DUP3 ADD MSTORE POP JUMP JUMPDEST PUSH1 0x0 PUSH2 0x22FE PUSH1 0x19 DUP4 PUSH2 0x1D91 JUMP JUMPDEST SWAP2 POP PUSH2 0x2309 DUP3 PUSH2 0x22C8 JUMP JUMPDEST PUSH1 0x20 DUP3 ADD SWAP1 POP SWAP2 SWAP1 POP JUMP JUMPDEST PUSH1 0x0 PUSH1 0x20 DUP3 ADD SWAP1 POP DUP2 DUP2 SUB PUSH1 0x0 DUP4 ADD MSTORE PUSH2 0x232D DUP2 PUSH2 0x22F1 JUMP JUMPDEST SWAP1 POP SWAP2 SWAP1 POP JUMP INVALID LOG2 PUSH5 0x6970667358 0x22 SLT KECCAK256 0xF6 DUP15 EQ 0xD 0xC7 BLOCKHASH STATICCALL PUSH22 0xFF85D75C8E1FA5C59D6B4AE4914CBCC7B88A52EEEBAD SSTORE KECCAK256 PUSH5 0x736F6C6343 STOP ADDMOD SLT STOP CALLER "
				},
				"gasEstimates": {
					"creation": {
						"codeDepositCost": "1813200",
						"executionCost": "infinite",
						"totalCost": "infinite"
					},
					"external": {
						"action_claimOwnerRole()": "infinite",
						"action_offerOwnerRole(address)": "infinite",
						"canImplementInterfaceForAddress(bytes32,address)": "infinite",
						"donate()": "208",
						"failsafe_unlock()": "infinite",
						"get_ownerAddress()": "2580",
						"get_ownerSuccessorAddress()": "2601",
						"onERC1155BatchReceived(address,address,uint256[],uint256[],bytes)": "infinite",
						"onERC1155Received(address,address,uint256,uint256,bytes)": "infinite",
						"onERC721Received(address,address,uint256,bytes)": "infinite",
						"query_isLocked()": "2631",
						"query_isOwnerAddress(address)": "2934",
						"query_isOwnerSuccessorAddress(address)": "2978",
						"supportsInterface(bytes4)": "914",
						"tokensReceived(address,address,address,uint256,bytes,bytes)": "infinite",
						"tokensToSend(address,address,address,uint256,bytes,bytes)": "infinite",
						"withdraw_coins(uint256)": "infinite",
						"withdraw_erc1155Tokens(address,uint256,uint256,bytes)": "infinite",
						"withdraw_erc20Tokens(address,uint256)": "infinite",
						"withdraw_erc721Tokens(address,uint256)": "infinite",
						"withdraw_erc777Tokens(address,uint256,bytes)": "infinite"
					},
					"internal": {
						"_getAsciiOffset(uint8,bool)": "infinite",
						"_toAsciiString(bytes20)": "infinite",
						"_toChecksumCapsFlags(address)": "infinite",
						"_toChecksumString(address)": "infinite",
						"addressToString(address)": "infinite",
						"claimOwnerRole(address)": "30162",
						"getChecksum(address)": "infinite",
						"getOwnerAddress()": "2159",
						"getOwnerSuccessorAddress()": "2159",
						"isLocked()": "2209",
						"isOwnerAddress(address)": "2217",
						"isOwnerSuccessorAddress(address)": "2217",
						"lock()": "26596",
						"offerOwnerRole(address)": "24307",
						"punish()": "1",
						"requireOwnerAddress(address)": "infinite",
						"requireOwnerSuccessorAddress(address)": "infinite",
						"setLocked(bool)": "24328",
						"setOwnerAddress(address)": "30133",
						"setOwnerSuccessorAddress(address)": "24278",
						"uint256ToString(uint256)": "infinite",
						"unlock()": "24355",
						"withdrawCoins(address,uint256)": "infinite",
						"withdrawERC1155Tokens(address,uint256,address,uint256,bytes memory)": "infinite",
						"withdrawERC20Tokens(address,address,uint256)": "infinite",
						"withdrawERC721Tokens(address,uint256,address)": "infinite",
						"withdrawERC777Tokens(address,address,uint256,bytes memory)": "infinite"
					}
				},
				"methodIdentifiers": {
					"action_claimOwnerRole()": "41931a2f",
					"action_offerOwnerRole(address)": "dbd3cfcd",
					"canImplementInterfaceForAddress(bytes32,address)": "249cb3fa",
					"donate()": "ed88c68e",
					"failsafe_unlock()": "b4d9b973",
					"get_ownerAddress()": "91372456",
					"get_ownerSuccessorAddress()": "d319aa30",
					"onERC1155BatchReceived(address,address,uint256[],uint256[],bytes)": "bc197c81",
					"onERC1155Received(address,address,uint256,uint256,bytes)": "f23a6e61",
					"onERC721Received(address,address,uint256,bytes)": "150b7a02",
					"query_isLocked()": "4f61b3ae",
					"query_isOwnerAddress(address)": "9cd6e666",
					"query_isOwnerSuccessorAddress(address)": "503d7fe4",
					"supportsInterface(bytes4)": "01ffc9a7",
					"tokensReceived(address,address,address,uint256,bytes,bytes)": "0023de29",
					"tokensToSend(address,address,address,uint256,bytes,bytes)": "75ab9782",
					"withdraw_coins(uint256)": "2e66ccf5",
					"withdraw_erc1155Tokens(address,uint256,uint256,bytes)": "f5da96dc",
					"withdraw_erc20Tokens(address,uint256)": "2aa4ada0",
					"withdraw_erc721Tokens(address,uint256)": "b76a10ca",
					"withdraw_erc777Tokens(address,uint256,bytes)": "b2828496"
				}
			},
			"storageLayout": {
				"storage": [
					{
						"astId": 693,
						"contract": "contracts/standard_contract.sol:StandardContract",
						"label": "ownerAddress",
						"offset": 0,
						"slot": "0",
						"type": "t_address"
					},
					{
						"astId": 695,
						"contract": "contracts/standard_contract.sol:StandardContract",
						"label": "ownerSuccessorAddress",
						"offset": 0,
						"slot": "1",
						"type": "t_address"
					},
					{
						"astId": 697,
						"contract": "contracts/standard_contract.sol:StandardContract",
						"label": "lockFlag",
						"offset": 20,
						"slot": "1",
						"type": "t_bool"
					}
				],
				"types": {
					"t_address": {
						"encoding": "inplace",
						"label": "address",
						"numberOfBytes": "20"
					},
					"t_bool": {
						"encoding": "inplace",
						"label": "bool",
						"numberOfBytes": "1"
					}
				}
			},
			"userdoc": {
				"errors": {
					"NotOwnerError(address,address)": [
						{
							"notice": "The calling address is not the owner."
						}
					],
					"NotOwnerSuccessorError(address,address)": [
						{
							"notice": "The calling address is not the owner successor."
						}
					]
				},
				"events": {
					"OwnerChanged(address,address)": {
						"notice": "A record of the owner address changing."
					}
				},
				"kind": "user",
				"methods": {
					"action_claimOwnerRole()": {
						"notice": "The owner successor can claim the owner role."
					},
					"action_offerOwnerRole(address)": {
						"notice": "The owner can offer the owner role to a successor address."
					},
					"donate()": {
						"notice": "Anyone can call this to donate funds to the contract."
					},
					"failsafe_unlock()": {
						"notice": "The owner can unlock the contract."
					},
					"get_ownerAddress()": {
						"notice": "Returns the owner address."
					},
					"get_ownerSuccessorAddress()": {
						"notice": "Returns the owner successor address."
					},
					"query_isLocked()": {
						"notice": "Returns whether the contract is currently locked."
					},
					"query_isOwnerAddress(address)": {
						"notice": "Returns whether the address is the owner address."
					},
					"query_isOwnerSuccessorAddress(address)": {
						"notice": "Returns whether the address is the owner successor address."
					},
					"withdraw_coins(uint256)": {
						"notice": "The owner can withdraw any amount of coins."
					},
					"withdraw_erc1155Tokens(address,uint256,uint256,bytes)": {
						"notice": "The owner can withdraw any amount of one kind of ERC1155 token."
					},
					"withdraw_erc20Tokens(address,uint256)": {
						"notice": "The owner can withdraw any amount of one kind of ERC20 token."
					},
					"withdraw_erc721Tokens(address,uint256)": {
						"notice": "The owner can withdraw an ERC721 token."
					},
					"withdraw_erc777Tokens(address,uint256,bytes)": {
						"notice": "The owner can withdraw any amount of one kind of ERC777 token."
					}
				},
				"version": 1
			}
		}
	}
}