{
	"contracts/pixel_pictasia_utils.sol": {
		"PixelPictasiaUtils": {
			"abi": [
				{
					"inputs": [],
					"stateMutability": "payable",
					"type": "constructor"
				},
				{
					"inputs": [
						{
							"internalType": "bytes1[]",
							"name": "_buf",
							"type": "bytes1[]"
						},
						{
							"internalType": "uint256",
							"name": "_len",
							"type": "uint256"
						}
					],
					"name": "adler32",
					"outputs": [
						{
							"internalType": "uint256",
							"name": "",
							"type": "uint256"
						}
					],
					"stateMutability": "pure",
					"type": "function"
				},
				{
					"inputs": [
						{
							"internalType": "bytes1[]",
							"name": "_buf",
							"type": "bytes1[]"
						},
						{
							"internalType": "uint256",
							"name": "_len",
							"type": "uint256"
						}
					],
					"name": "crc",
					"outputs": [
						{
							"internalType": "uint256",
							"name": "",
							"type": "uint256"
						}
					],
					"stateMutability": "view",
					"type": "function"
				},
				{
					"inputs": [],
					"name": "createPNG",
					"outputs": [
						{
							"internalType": "bytes",
							"name": "",
							"type": "bytes"
						}
					],
					"stateMutability": "view",
					"type": "function"
				},
				{
					"inputs": [],
					"name": "createPNGString",
					"outputs": [
						{
							"internalType": "string",
							"name": "",
							"type": "string"
						}
					],
					"stateMutability": "view",
					"type": "function"
				}
			],
			"devdoc": {
				"kind": "dev",
				"methods": {},
				"version": 1
			},
			"evm": {
				"assembly": "    /* \"contracts/pixel_pictasia_utils.sol\":4602:13358  contract PixelPictasiaUtils {... */\n  mstore(0x40, 0x80)\n    /* \"contracts/pixel_pictasia_utils.sol\":4709:4725  createCRCTable() */\n  tag_3\n    /* \"contracts/pixel_pictasia_utils.sol\":4709:4723  createCRCTable */\n  tag_4\n    /* \"contracts/pixel_pictasia_utils.sol\":4709:4725  createCRCTable() */\n  jump\t// in\ntag_3:\n    /* \"contracts/pixel_pictasia_utils.sol\":4602:13358  contract PixelPictasiaUtils {... */\n  jump(tag_22)\n    /* \"contracts/pixel_pictasia_utils.sol\":5216:5612  function createCRCTable() private {... */\ntag_4:\n    /* \"contracts/pixel_pictasia_utils.sol\":5265:5274  uint256 n */\n  0x00\n    /* \"contracts/pixel_pictasia_utils.sol\":5261:5605  for(uint256 n = 0; n < 256; n++) {... */\ntag_7:\n    /* \"contracts/pixel_pictasia_utils.sol\":5284:5287  256 */\n  0x0100\n    /* \"contracts/pixel_pictasia_utils.sol\":5280:5281  n */\n  dup2\n    /* \"contracts/pixel_pictasia_utils.sol\":5280:5287  n < 256 */\n  lt\n    /* \"contracts/pixel_pictasia_utils.sol\":5261:5605  for(uint256 n = 0; n < 256; n++) {... */\n  iszero\n  tag_8\n  jumpi\n    /* \"contracts/pixel_pictasia_utils.sol\":5321:5322  n */\n  dup1\n    /* \"contracts/pixel_pictasia_utils.sol\":5309:5318  uint256 c */\n  0x00\n    /* \"contracts/pixel_pictasia_utils.sol\":5339:5563  for(uint256 k = 0; k < 8; k++) {... */\ntag_10:\n    /* \"contracts/pixel_pictasia_utils.sol\":5362:5363  8 */\n  0x08\n    /* \"contracts/pixel_pictasia_utils.sol\":5358:5359  k */\n  dup2\n    /* \"contracts/pixel_pictasia_utils.sol\":5358:5363  k < 8 */\n  lt\n    /* \"contracts/pixel_pictasia_utils.sol\":5339:5563  for(uint256 k = 0; k < 8; k++) {... */\n  iszero\n  tag_11\n  jumpi\n    /* \"contracts/pixel_pictasia_utils.sol\":5392:5393  c */\n  dup2\n    /* \"contracts/pixel_pictasia_utils.sol\":5396:5397  1 */\n  0x01\n    /* \"contracts/pixel_pictasia_utils.sol\":5392:5397  c & 1 */\n  and\n    /* \"contracts/pixel_pictasia_utils.sol\":5401:5402  1 */\n  0x01\n    /* \"contracts/pixel_pictasia_utils.sol\":5392:5402  c & 1 == 1 */\n  sub\n    /* \"contracts/pixel_pictasia_utils.sol\":5389:5548  if(c & 1 == 1) {... */\n  tag_13\n  jumpi\n    /* \"contracts/pixel_pictasia_utils.sol\":5450:5451  1 */\n  0x01\n    /* \"contracts/pixel_pictasia_utils.sol\":5445:5446  c */\n  dup3\n    /* \"contracts/pixel_pictasia_utils.sol\":5445:5451  c >> 1 */\n  swap1\n  shr\n    /* \"contracts/pixel_pictasia_utils.sol\":5431:5441  3988292384 */\n  0xedb88320\n    /* \"contracts/pixel_pictasia_utils.sol\":5431:5452  3988292384 ^ (c >> 1) */\n  xor\n    /* \"contracts/pixel_pictasia_utils.sol\":5427:5452  c = 3988292384 ^ (c >> 1) */\n  swap2\n  pop\n    /* \"contracts/pixel_pictasia_utils.sol\":5389:5548  if(c & 1 == 1) {... */\n  jump(tag_14)\ntag_13:\n    /* \"contracts/pixel_pictasia_utils.sol\":5527:5528  1 */\n  0x01\n    /* \"contracts/pixel_pictasia_utils.sol\":5522:5523  c */\n  dup3\n    /* \"contracts/pixel_pictasia_utils.sol\":5522:5528  c >> 1 */\n  swap1\n  shr\n    /* \"contracts/pixel_pictasia_utils.sol\":5518:5528  c = c >> 1 */\n  swap2\n  pop\n    /* \"contracts/pixel_pictasia_utils.sol\":5389:5548  if(c & 1 == 1) {... */\ntag_14:\n    /* \"contracts/pixel_pictasia_utils.sol\":5365:5368  k++ */\n  dup1\n  tag_15\n  dup2\n  tag_16\n  jump\t// in\ntag_15:\n  swap2\n  pop\n  pop\n    /* \"contracts/pixel_pictasia_utils.sol\":5339:5563  for(uint256 k = 0; k < 8; k++) {... */\n  jump(tag_10)\ntag_11:\n  pop\n    /* \"contracts/pixel_pictasia_utils.sol\":5592:5593  c */\n  dup1\n    /* \"contracts/pixel_pictasia_utils.sol\":5577:5586  CRC_TABLE */\n  0x00\n    /* \"contracts/pixel_pictasia_utils.sol\":5587:5588  n */\n  dup4\n    /* \"contracts/pixel_pictasia_utils.sol\":5577:5589  CRC_TABLE[n] */\n  0x0100\n  dup2\n  lt\n  tag_18\n  jumpi\n  tag_18\n  tag_19\n  jump\t// in\ntag_18:\n  add\n    /* \"contracts/pixel_pictasia_utils.sol\":5577:5593  CRC_TABLE[n] = c */\n  sstore\n  pop\n    /* \"contracts/pixel_pictasia_utils.sol\":5289:5292  n++ */\n  dup1\n  tag_21\n  dup2\n  tag_16\n  jump\t// in\ntag_21:\n  swap2\n  pop\n  pop\n    /* \"contracts/pixel_pictasia_utils.sol\":5261:5605  for(uint256 n = 0; n < 256; n++) {... */\n  jump(tag_7)\ntag_8:\n  pop\n    /* \"contracts/pixel_pictasia_utils.sol\":5216:5612  function createCRCTable() private {... */\n  jump\t// out\n    /* \"#utility.yul\":14:246   */\ntag_16:\n    /* \"#utility.yul\":53:56   */\n  0x00\n    /* \"#utility.yul\":74:91   */\n  0x01\n  dup3\n  add\n    /* \"#utility.yul\":71:211   */\n  tag_24\n  jumpi\n    /* \"#utility.yul\":133:143   */\n  0x4e487b71\n    /* \"#utility.yul\":128:131   */\n  0xe0\n    /* \"#utility.yul\":124:144   */\n  shl\n    /* \"#utility.yul\":121:122   */\n  0x00\n    /* \"#utility.yul\":114:145   */\n  mstore\n    /* \"#utility.yul\":168:172   */\n  0x11\n    /* \"#utility.yul\":165:166   */\n  0x04\n    /* \"#utility.yul\":158:173   */\n  mstore\n    /* \"#utility.yul\":196:200   */\n  0x24\n    /* \"#utility.yul\":193:194   */\n  0x00\n    /* \"#utility.yul\":186:201   */\n  revert\n    /* \"#utility.yul\":71:211   */\ntag_24:\n  pop\n    /* \"#utility.yul\":238:239   */\n  0x01\n    /* \"#utility.yul\":227:240   */\n  add\n  swap1\n    /* \"#utility.yul\":14:246   */\n  jump\t// out\n    /* \"#utility.yul\":251:378   */\ntag_19:\n    /* \"#utility.yul\":312:322   */\n  0x4e487b71\n    /* \"#utility.yul\":307:310   */\n  0xe0\n    /* \"#utility.yul\":303:323   */\n  shl\n    /* \"#utility.yul\":300:301   */\n  0x00\n    /* \"#utility.yul\":293:324   */\n  mstore\n    /* \"#utility.yul\":343:347   */\n  0x32\n    /* \"#utility.yul\":340:341   */\n  0x04\n    /* \"#utility.yul\":333:348   */\n  mstore\n    /* \"#utility.yul\":367:371   */\n  0x24\n    /* \"#utility.yul\":364:365   */\n  0x00\n    /* \"#utility.yul\":357:372   */\n  revert\n    /* \"#utility.yul\":251:378   */\ntag_22:\n    /* \"contracts/pixel_pictasia_utils.sol\":4602:13358  contract PixelPictasiaUtils {... */\n  dataSize(sub_0)\n  dup1\n  dataOffset(sub_0)\n  0x00\n  codecopy\n  0x00\n  return\nstop\n\nsub_0: assembly {\n        /* \"contracts/pixel_pictasia_utils.sol\":4602:13358  contract PixelPictasiaUtils {... */\n      mstore(0x40, 0x80)\n      callvalue\n      dup1\n      iszero\n      tag_1\n      jumpi\n      0x00\n      dup1\n      revert\n    tag_1:\n      pop\n      jumpi(tag_2, lt(calldatasize, 0x04))\n      shr(0xe0, calldataload(0x00))\n      dup1\n      0x19858b36\n      eq\n      tag_3\n      jumpi\n      dup1\n      0x48b508b7\n      eq\n      tag_4\n      jumpi\n      dup1\n      0xd0c8331c\n      eq\n      tag_5\n      jumpi\n      dup1\n      0xfe2a3649\n      eq\n      tag_6\n      jumpi\n    tag_2:\n      0x00\n      dup1\n      revert\n        /* \"contracts/pixel_pictasia_utils.sol\":4901:5208  function adler32(bytes1[] memory _buf, uint256 _len) public pure returns (uint256) {... */\n    tag_3:\n      tag_7\n      tag_8\n      calldatasize\n      0x04\n      tag_9\n      jump\t// in\n    tag_8:\n      tag_10\n      jump\t// in\n    tag_7:\n      mload(0x40)\n        /* \"#utility.yul\":1657:1682   */\n      swap1\n      dup2\n      mstore\n        /* \"#utility.yul\":1645:1647   */\n      0x20\n        /* \"#utility.yul\":1630:1648   */\n      add\n        /* \"contracts/pixel_pictasia_utils.sol\":4901:5208  function adler32(bytes1[] memory _buf, uint256 _len) public pure returns (uint256) {... */\n    tag_11:\n      mload(0x40)\n      dup1\n      swap2\n      sub\n      swap1\n      return\n        /* \"contracts/pixel_pictasia_utils.sol\":5919:6217  function createPNGString() public view returns (string memory) {... */\n    tag_4:\n      tag_13\n      tag_14\n      jump\t// in\n    tag_13:\n      mload(0x40)\n      tag_11\n      swap2\n      swap1\n      tag_16\n      jump\t// in\n        /* \"contracts/pixel_pictasia_utils.sol\":6225:6794  function createPNG() public view returns (bytes memory) {... */\n    tag_5:\n      tag_13\n      tag_18\n      jump\t// in\n        /* \"contracts/pixel_pictasia_utils.sol\":4741:4893  function crc(bytes1[] memory _buf, uint256 _len) public view returns (uint256) {... */\n    tag_6:\n      tag_7\n      tag_22\n      calldatasize\n      0x04\n      tag_9\n      jump\t// in\n    tag_22:\n      tag_23\n      jump\t// in\n        /* \"contracts/pixel_pictasia_utils.sol\":4901:5208  function adler32(bytes1[] memory _buf, uint256 _len) public pure returns (uint256) {... */\n    tag_10:\n        /* \"contracts/pixel_pictasia_utils.sol\":4975:4982  uint256 */\n      0x00\n        /* \"contracts/pixel_pictasia_utils.sol\":5007:5008  1 */\n      0x01\n        /* \"contracts/pixel_pictasia_utils.sol\":4975:4982  uint256 */\n      dup2\n      dup1\n        /* \"contracts/pixel_pictasia_utils.sol\":5053:5160  for(uint256 i = 0; i < _len; i++) {... */\n    tag_26:\n        /* \"contracts/pixel_pictasia_utils.sol\":5076:5080  _len */\n      dup5\n        /* \"contracts/pixel_pictasia_utils.sol\":5072:5073  i */\n      dup2\n        /* \"contracts/pixel_pictasia_utils.sol\":5072:5080  i < _len */\n      lt\n        /* \"contracts/pixel_pictasia_utils.sol\":5053:5160  for(uint256 i = 0; i < _len; i++) {... */\n      iszero\n      tag_27\n      jumpi\n        /* \"contracts/pixel_pictasia_utils.sol\":5116:5120  _buf */\n      dup6\n        /* \"contracts/pixel_pictasia_utils.sol\":5121:5122  i */\n      dup2\n        /* \"contracts/pixel_pictasia_utils.sol\":5116:5123  _buf[i] */\n      dup2\n      mload\n      dup2\n      lt\n      tag_30\n      jumpi\n      tag_30\n      tag_31\n      jump\t// in\n    tag_30:\n      0x20\n      mul\n      0x20\n      add\n      add\n      mload\n        /* \"contracts/pixel_pictasia_utils.sol\":5110:5124  uint8(_buf[i]) */\n      0xf8\n      shr\n        /* \"contracts/pixel_pictasia_utils.sol\":5106:5124  A + uint8(_buf[i]) */\n      0xff\n      and\n        /* \"contracts/pixel_pictasia_utils.sol\":5106:5107  A */\n      dup4\n        /* \"contracts/pixel_pictasia_utils.sol\":5106:5124  A + uint8(_buf[i]) */\n      tag_32\n      swap2\n      swap1\n      tag_33\n      jump\t// in\n    tag_32:\n        /* \"contracts/pixel_pictasia_utils.sol\":5102:5124  A = A + uint8(_buf[i]) */\n      swap3\n      pop\n        /* \"contracts/pixel_pictasia_utils.sol\":5143:5148  B + A */\n      tag_34\n        /* \"contracts/pixel_pictasia_utils.sol\":5102:5124  A = A + uint8(_buf[i]) */\n      dup4\n        /* \"contracts/pixel_pictasia_utils.sol\":5143:5144  B */\n      dup4\n        /* \"contracts/pixel_pictasia_utils.sol\":5143:5148  B + A */\n      tag_33\n      jump\t// in\n    tag_34:\n        /* \"contracts/pixel_pictasia_utils.sol\":5139:5148  B = B + A */\n      swap2\n      pop\n        /* \"contracts/pixel_pictasia_utils.sol\":5082:5085  i++ */\n      dup1\n      tag_35\n      dup2\n      tag_36\n      jump\t// in\n    tag_35:\n      swap2\n      pop\n      pop\n        /* \"contracts/pixel_pictasia_utils.sol\":5053:5160  for(uint256 i = 0; i < _len; i++) {... */\n      jump(tag_26)\n    tag_27:\n      pop\n        /* \"contracts/pixel_pictasia_utils.sol\":5199:5200  A */\n      dup2\n        /* \"contracts/pixel_pictasia_utils.sol\":5187:5196  B * 65536 */\n      tag_37\n        /* \"contracts/pixel_pictasia_utils.sol\":5187:5188  B */\n      dup3\n        /* \"contracts/pixel_pictasia_utils.sol\":5191:5196  65536 */\n      0x010000\n        /* \"contracts/pixel_pictasia_utils.sol\":5187:5196  B * 65536 */\n      tag_38\n      jump\t// in\n    tag_37:\n        /* \"contracts/pixel_pictasia_utils.sol\":5187:5200  B * 65536 + A */\n      tag_39\n      swap2\n      swap1\n      tag_33\n      jump\t// in\n    tag_39:\n        /* \"contracts/pixel_pictasia_utils.sol\":5180:5200  return B * 65536 + A */\n      swap3\n      pop\n      pop\n      pop\n        /* \"contracts/pixel_pictasia_utils.sol\":4901:5208  function adler32(bytes1[] memory _buf, uint256 _len) public pure returns (uint256) {... */\n    tag_25:\n      swap3\n      swap2\n      pop\n      pop\n      jump\t// out\n        /* \"contracts/pixel_pictasia_utils.sol\":5919:6217  function createPNGString() public view returns (string memory) {... */\n    tag_14:\n        /* \"contracts/pixel_pictasia_utils.sol\":5967:5980  string memory */\n      0x60\n        /* \"contracts/pixel_pictasia_utils.sol\":5993:6015  bytes memory imageData */\n      0x00\n        /* \"contracts/pixel_pictasia_utils.sol\":6018:6029  createPNG() */\n      tag_41\n        /* \"contracts/pixel_pictasia_utils.sol\":6018:6027  createPNG */\n      tag_18\n        /* \"contracts/pixel_pictasia_utils.sol\":6018:6029  createPNG() */\n      jump\t// in\n    tag_41:\n        /* \"contracts/pixel_pictasia_utils.sol\":5993:6029  bytes memory imageData = createPNG() */\n      swap1\n      pop\n        /* \"contracts/pixel_pictasia_utils.sol\":6040:6069  string memory imageDataString */\n      0x00\n        /* \"contracts/pixel_pictasia_utils.sol\":6079:6088  imageData */\n      dup2\n        /* \"contracts/pixel_pictasia_utils.sol\":6040:6089  string memory imageDataString = string(imageData) */\n      swap1\n      pop\n        /* \"contracts/pixel_pictasia_utils.sol\":6159:6207  Base64.encode(abi.encodePacked(imageDataString)) */\n      tag_42\n        /* \"contracts/pixel_pictasia_utils.sol\":6190:6205  imageDataString */\n      dup2\n        /* \"contracts/pixel_pictasia_utils.sol\":6173:6206  abi.encodePacked(imageDataString) */\n      add(0x20, mload(0x40))\n      tag_43\n      swap2\n      swap1\n      tag_44\n      jump\t// in\n    tag_43:\n      mload(0x40)\n      0x20\n      dup2\n      dup4\n      sub\n      sub\n      dup2\n      mstore\n      swap1\n      0x40\n      mstore\n        /* \"contracts/pixel_pictasia_utils.sol\":6159:6172  Base64.encode */\n      tag_45\n        /* \"contracts/pixel_pictasia_utils.sol\":6159:6207  Base64.encode(abi.encodePacked(imageDataString)) */\n      jump\t// in\n    tag_42:\n        /* \"contracts/pixel_pictasia_utils.sol\":6116:6208  abi.encodePacked(\"data:image/png;base64,\", Base64.encode(abi.encodePacked(imageDataString))) */\n      add(0x20, mload(0x40))\n      tag_46\n      swap2\n      swap1\n      tag_47\n      jump\t// in\n    tag_46:\n      mload(0x40)\n      0x20\n      dup2\n      dup4\n      sub\n      sub\n      dup2\n      mstore\n      swap1\n      0x40\n      mstore\n        /* \"contracts/pixel_pictasia_utils.sol\":6102:6209  return string(abi.encodePacked(\"data:image/png;base64,\", Base64.encode(abi.encodePacked(imageDataString)))) */\n      swap3\n      pop\n      pop\n      pop\n        /* \"contracts/pixel_pictasia_utils.sol\":5919:6217  function createPNGString() public view returns (string memory) {... */\n      swap1\n      jump\t// out\n        /* \"contracts/pixel_pictasia_utils.sol\":6225:6794  function createPNG() public view returns (bytes memory) {... */\n    tag_18:\n        /* \"contracts/pixel_pictasia_utils.sol\":6344:6361  new bytes1[](100) */\n      0x40\n      dup1\n      mload\n        /* \"contracts/pixel_pictasia_utils.sol\":6357:6360  100 */\n      0x64\n        /* \"contracts/pixel_pictasia_utils.sol\":6344:6361  new bytes1[](100) */\n      dup1\n      dup3\n      mstore\n      0x0ca0\n      dup3\n      add\n      swap1\n      swap3\n      mstore\n        /* \"contracts/pixel_pictasia_utils.sol\":6267:6279  bytes memory */\n      0x60\n      swap2\n        /* \"contracts/pixel_pictasia_utils.sol\":6292:6301  uint256 i */\n      0x00\n      swap2\n      dup3\n      swap2\n        /* \"contracts/pixel_pictasia_utils.sol\":6344:6361  new bytes1[](100) */\n      0x20\n      dup3\n      add\n      0x0c80\n      dup1\n      calldatasize\n      dup4\n      calldatacopy\n      add\n      swap1\n      pop\n      pop\n        /* \"contracts/pixel_pictasia_utils.sol\":6316:6361  bytes1[] memory imageData = new bytes1[](100) */\n      swap1\n      pop\n        /* \"contracts/pixel_pictasia_utils.sol\":6391:6420  addPNGSignature(imageData, i) */\n      tag_53\n        /* \"contracts/pixel_pictasia_utils.sol\":6407:6416  imageData */\n      dup2\n        /* \"contracts/pixel_pictasia_utils.sol\":6418:6419  i */\n      dup4\n        /* \"contracts/pixel_pictasia_utils.sol\":6391:6406  addPNGSignature */\n      tag_54\n        /* \"contracts/pixel_pictasia_utils.sol\":6391:6420  addPNGSignature(imageData, i) */\n      jump\t// in\n    tag_53:\n        /* \"contracts/pixel_pictasia_utils.sol\":6374:6420  (imageData, i) = addPNGSignature(imageData, i) */\n      swap3\n      pop\n      swap1\n      pop\n        /* \"contracts/pixel_pictasia_utils.sol\":6448:6481  addIHDRChunck(imageData, i, 3, 1) */\n      tag_55\n        /* \"contracts/pixel_pictasia_utils.sol\":6374:6420  (imageData, i) = addPNGSignature(imageData, i) */\n      dup2\n      dup4\n        /* \"contracts/pixel_pictasia_utils.sol\":6476:6477  3 */\n      0x03\n        /* \"contracts/pixel_pictasia_utils.sol\":6479:6480  1 */\n      0x01\n        /* \"contracts/pixel_pictasia_utils.sol\":6448:6461  addIHDRChunck */\n      tag_56\n        /* \"contracts/pixel_pictasia_utils.sol\":6448:6481  addIHDRChunck(imageData, i, 3, 1) */\n      jump\t// in\n    tag_55:\n        /* \"contracts/pixel_pictasia_utils.sol\":6431:6481  (imageData, i) = addIHDRChunck(imageData, i, 3, 1) */\n      swap3\n      pop\n      swap1\n      pop\n        /* \"contracts/pixel_pictasia_utils.sol\":6509:6536  addIDATChunck(imageData, i) */\n      tag_57\n        /* \"contracts/pixel_pictasia_utils.sol\":6431:6481  (imageData, i) = addIHDRChunck(imageData, i, 3, 1) */\n      dup2\n      dup4\n        /* \"contracts/pixel_pictasia_utils.sol\":6509:6522  addIDATChunck */\n      tag_58\n        /* \"contracts/pixel_pictasia_utils.sol\":6509:6536  addIDATChunck(imageData, i) */\n      jump\t// in\n    tag_57:\n        /* \"contracts/pixel_pictasia_utils.sol\":6492:6536  (imageData, i) = addIDATChunck(imageData, i) */\n      swap3\n      pop\n      swap1\n      pop\n        /* \"contracts/pixel_pictasia_utils.sol\":6564:6591  addIENDChunck(imageData, i) */\n      tag_59\n        /* \"contracts/pixel_pictasia_utils.sol\":6492:6536  (imageData, i) = addIDATChunck(imageData, i) */\n      dup2\n      dup4\n        /* \"contracts/pixel_pictasia_utils.sol\":6564:6577  addIENDChunck */\n      tag_60\n        /* \"contracts/pixel_pictasia_utils.sol\":6564:6591  addIENDChunck(imageData, i) */\n      jump\t// in\n    tag_59:\n        /* \"contracts/pixel_pictasia_utils.sol\":6547:6591  (imageData, i) = addIENDChunck(imageData, i) */\n      swap3\n      pop\n      swap1\n      pop\n        /* \"contracts/pixel_pictasia_utils.sol\":6604:6633  bytes memory trimmedImageData */\n      0x00\n        /* \"contracts/pixel_pictasia_utils.sol\":6547:6591  (imageData, i) = addIENDChunck(imageData, i) */\n      dup3\n        /* \"contracts/pixel_pictasia_utils.sol\":6636:6648  new bytes(i) */\n      0xffffffffffffffff\n      dup2\n      gt\n      iszero\n      tag_62\n      jumpi\n      tag_62\n      tag_51\n      jump\t// in\n    tag_62:\n      mload(0x40)\n      swap1\n      dup1\n      dup3\n      mstore\n      dup1\n      0x1f\n      add\n      not(0x1f)\n      and\n      0x20\n      add\n      dup3\n      add\n      0x40\n      mstore\n      dup1\n      iszero\n      tag_63\n      jumpi\n      0x20\n      dup3\n      add\n      dup2\n      dup1\n      calldatasize\n      dup4\n      calldatacopy\n      add\n      swap1\n      pop\n    tag_63:\n      pop\n        /* \"contracts/pixel_pictasia_utils.sol\":6604:6648  bytes memory trimmedImageData = new bytes(i) */\n      swap1\n      pop\n        /* \"contracts/pixel_pictasia_utils.sol\":6663:6672  uint256 x */\n      0x00\n        /* \"contracts/pixel_pictasia_utils.sol\":6659:6751  for(uint256 x = 0; x < i; x++) {... */\n    tag_64:\n        /* \"contracts/pixel_pictasia_utils.sol\":6682:6683  i */\n      dup4\n        /* \"contracts/pixel_pictasia_utils.sol\":6678:6679  x */\n      dup2\n        /* \"contracts/pixel_pictasia_utils.sol\":6678:6683  x < i */\n      lt\n        /* \"contracts/pixel_pictasia_utils.sol\":6659:6751  for(uint256 x = 0; x < i; x++) {... */\n      iszero\n      tag_65\n      jumpi\n        /* \"contracts/pixel_pictasia_utils.sol\":6727:6736  imageData */\n      dup3\n        /* \"contracts/pixel_pictasia_utils.sol\":6737:6738  x */\n      dup2\n        /* \"contracts/pixel_pictasia_utils.sol\":6727:6739  imageData[x] */\n      dup2\n      mload\n      dup2\n      lt\n      tag_68\n      jumpi\n      tag_68\n      tag_31\n      jump\t// in\n    tag_68:\n      0x20\n      mul\n      0x20\n      add\n      add\n      mload\n        /* \"contracts/pixel_pictasia_utils.sol\":6705:6721  trimmedImageData */\n      dup3\n        /* \"contracts/pixel_pictasia_utils.sol\":6722:6723  x */\n      dup3\n        /* \"contracts/pixel_pictasia_utils.sol\":6705:6724  trimmedImageData[x] */\n      dup2\n      mload\n      dup2\n      lt\n      tag_70\n      jumpi\n      tag_70\n      tag_31\n      jump\t// in\n    tag_70:\n      0x20\n      add\n      add\n        /* \"contracts/pixel_pictasia_utils.sol\":6705:6739  trimmedImageData[x] = imageData[x] */\n      swap1\n      not(sub(shl(0xf8, 0x01), 0x01))\n      and\n      swap1\n      dup2\n      0x00\n      byte\n      swap1\n      mstore8\n      pop\n        /* \"contracts/pixel_pictasia_utils.sol\":6685:6688  x++ */\n      dup1\n      tag_71\n      dup2\n      tag_36\n      jump\t// in\n    tag_71:\n      swap2\n      pop\n      pop\n        /* \"contracts/pixel_pictasia_utils.sol\":6659:6751  for(uint256 x = 0; x < i; x++) {... */\n      jump(tag_64)\n    tag_65:\n      pop\n        /* \"contracts/pixel_pictasia_utils.sol\":6770:6786  trimmedImageData */\n      swap4\n        /* \"contracts/pixel_pictasia_utils.sol\":6225:6794  function createPNG() public view returns (bytes memory) {... */\n      swap3\n      pop\n      pop\n      pop\n      jump\t// out\n        /* \"contracts/pixel_pictasia_utils.sol\":4741:4893  function crc(bytes1[] memory _buf, uint256 _len) public view returns (uint256) {... */\n    tag_23:\n        /* \"contracts/pixel_pictasia_utils.sol\":4811:4818  uint256 */\n      0x00\n        /* \"contracts/pixel_pictasia_utils.sol\":4838:4872  update_crc(4294967295, _buf, _len) */\n      tag_73\n        /* \"contracts/pixel_pictasia_utils.sol\":4849:4859  4294967295 */\n      0xffffffff\n        /* \"contracts/pixel_pictasia_utils.sol\":4861:4865  _buf */\n      dup5\n        /* \"contracts/pixel_pictasia_utils.sol\":4867:4871  _len */\n      dup5\n        /* \"contracts/pixel_pictasia_utils.sol\":4838:4848  update_crc */\n      tag_74\n        /* \"contracts/pixel_pictasia_utils.sol\":4838:4872  update_crc(4294967295, _buf, _len) */\n      jump\t// in\n    tag_73:\n        /* \"contracts/pixel_pictasia_utils.sol\":4875:4885  4294967295 */\n      0xffffffff\n        /* \"contracts/pixel_pictasia_utils.sol\":4838:4885  update_crc(4294967295, _buf, _len) ^ 4294967295 */\n      xor\n      swap4\n        /* \"contracts/pixel_pictasia_utils.sol\":4741:4893  function crc(bytes1[] memory _buf, uint256 _len) public view returns (uint256) {... */\n      swap3\n      pop\n      pop\n      pop\n      jump\t// out\n        /* \"contracts/pixel_pictasia_utils.sol\":253:1765  function encode(bytes memory data) internal pure returns (string memory) {... */\n    tag_45:\n        /* \"contracts/pixel_pictasia_utils.sol\":311:324  string memory */\n      0x60\n        /* \"contracts/pixel_pictasia_utils.sol\":340:344  data */\n      dup2\n        /* \"contracts/pixel_pictasia_utils.sol\":340:351  data.length */\n      mload\n        /* \"contracts/pixel_pictasia_utils.sol\":355:356  0 */\n      0x00\n        /* \"contracts/pixel_pictasia_utils.sol\":340:356  data.length == 0 */\n      sub\n        /* \"contracts/pixel_pictasia_utils.sol\":337:367  if(data.length == 0) return \"\" */\n      tag_76\n      jumpi\n      pop\n      pop\n        /* \"contracts/pixel_pictasia_utils.sol\":358:367  return \"\" */\n      0x40\n      dup1\n      mload\n      0x20\n      dup2\n      add\n      swap1\n      swap2\n      mstore\n      0x00\n      dup2\n      mstore\n      swap1\n        /* \"contracts/pixel_pictasia_utils.sol\":253:1765  function encode(bytes memory data) internal pure returns (string memory) {... */\n      jump\t// out\n        /* \"contracts/pixel_pictasia_utils.sol\":337:367  if(data.length == 0) return \"\" */\n    tag_76:\n        /* \"contracts/pixel_pictasia_utils.sol\":378:397  string memory table */\n      0x00\n        /* \"contracts/pixel_pictasia_utils.sol\":400:406  _TABLE */\n      mload(0x40)\n      dup1\n      0x60\n      add\n      0x40\n      mstore\n      dup1\n      0x40\n      dup2\n      mstore\n      0x20\n      add\n      data_84d8a590de33e00cbdc16e1f28c3506f5ec15c599fab9a6a4bcd575cc2f110ce\n      0x40\n      swap2\n      codecopy\n        /* \"contracts/pixel_pictasia_utils.sol\":378:406  string memory table = _TABLE */\n      swap1\n      pop\n        /* \"contracts/pixel_pictasia_utils.sol\":417:437  string memory result */\n      0x00\n        /* \"contracts/pixel_pictasia_utils.sol\":476:477  3 */\n      0x03\n        /* \"contracts/pixel_pictasia_utils.sol\":457:461  data */\n      dup5\n        /* \"contracts/pixel_pictasia_utils.sol\":457:468  data.length */\n      mload\n        /* \"contracts/pixel_pictasia_utils.sol\":471:472  2 */\n      0x02\n        /* \"contracts/pixel_pictasia_utils.sol\":457:472  data.length + 2 */\n      tag_77\n      swap2\n      swap1\n      tag_33\n      jump\t// in\n    tag_77:\n        /* \"contracts/pixel_pictasia_utils.sol\":456:477  (data.length + 2) / 3 */\n      tag_78\n      swap2\n      swap1\n      tag_79\n      jump\t// in\n    tag_78:\n        /* \"contracts/pixel_pictasia_utils.sol\":451:478  4 * ((data.length + 2) / 3) */\n      tag_80\n      swap1\n        /* \"contracts/pixel_pictasia_utils.sol\":451:452  4 */\n      0x04\n        /* \"contracts/pixel_pictasia_utils.sol\":451:478  4 * ((data.length + 2) / 3) */\n      tag_38\n      jump\t// in\n    tag_80:\n        /* \"contracts/pixel_pictasia_utils.sol\":440:479  new string(4 * ((data.length + 2) / 3)) */\n      0xffffffffffffffff\n      dup2\n      gt\n      iszero\n      tag_82\n      jumpi\n      tag_82\n      tag_51\n      jump\t// in\n    tag_82:\n      mload(0x40)\n      swap1\n      dup1\n      dup3\n      mstore\n      dup1\n      0x1f\n      add\n      not(0x1f)\n      and\n      0x20\n      add\n      dup3\n      add\n      0x40\n      mstore\n      dup1\n      iszero\n      tag_83\n      jumpi\n      0x20\n      dup3\n      add\n      dup2\n      dup1\n      calldatasize\n      dup4\n      calldatacopy\n      add\n      swap1\n      pop\n    tag_83:\n      pop\n        /* \"contracts/pixel_pictasia_utils.sol\":417:479  string memory result = new string(4 * ((data.length + 2) / 3)) */\n      swap1\n      pop\n        /* \"contracts/pixel_pictasia_utils.sol\":541:542  1 */\n      0x01\n        /* \"contracts/pixel_pictasia_utils.sol\":534:539  table */\n      dup3\n        /* \"contracts/pixel_pictasia_utils.sol\":530:543  add(table, 1) */\n      add\n        /* \"contracts/pixel_pictasia_utils.sol\":586:588  32 */\n      0x20\n        /* \"contracts/pixel_pictasia_utils.sol\":578:584  result */\n      dup3\n        /* \"contracts/pixel_pictasia_utils.sol\":574:589  add(result, 32) */\n      add\n        /* \"contracts/pixel_pictasia_utils.sol\":641:645  data */\n      dup6\n        /* \"contracts/pixel_pictasia_utils.sol\":693:697  data */\n      dup7\n        /* \"contracts/pixel_pictasia_utils.sol\":687:698  mload(data) */\n      mload\n        /* \"contracts/pixel_pictasia_utils.sol\":681:685  data */\n      dup8\n        /* \"contracts/pixel_pictasia_utils.sol\":677:699  add(data, mload(data)) */\n      add\n        /* \"contracts/pixel_pictasia_utils.sol\":603:1459  for {... */\n    tag_84:\n        /* \"contracts/pixel_pictasia_utils.sol\":727:733  endPtr */\n      dup1\n        /* \"contracts/pixel_pictasia_utils.sol\":718:725  dataPtr */\n      dup3\n        /* \"contracts/pixel_pictasia_utils.sol\":715:734  lt(dataPtr, endPtr) */\n      lt\n        /* \"contracts/pixel_pictasia_utils.sol\":603:1459  for {... */\n      iszero\n      tag_86\n      jumpi\n        /* \"contracts/pixel_pictasia_utils.sol\":831:832  3 */\n      0x03\n        /* \"contracts/pixel_pictasia_utils.sol\":822:829  dataPtr */\n      dup3\n        /* \"contracts/pixel_pictasia_utils.sol\":818:833  add(dataPtr, 3) */\n      add\n        /* \"contracts/pixel_pictasia_utils.sol\":807:833  dataPtr := add(dataPtr, 3) */\n      swap2\n      pop\n        /* \"contracts/pixel_pictasia_utils.sol\":870:877  dataPtr */\n      dup2\n        /* \"contracts/pixel_pictasia_utils.sol\":864:878  mload(dataPtr) */\n      mload\n        /* \"contracts/pixel_pictasia_utils.sol\":955:959  0x3F */\n      0x3f\n        /* \"contracts/pixel_pictasia_utils.sol\":947:952  input */\n      dup2\n        /* \"contracts/pixel_pictasia_utils.sol\":943:945  18 */\n      0x12\n        /* \"contracts/pixel_pictasia_utils.sol\":939:953  shr(18, input) */\n      shr\n        /* \"contracts/pixel_pictasia_utils.sol\":935:960  and(shr(18, input), 0x3F) */\n      and\n        /* \"contracts/pixel_pictasia_utils.sol\":925:933  tablePtr */\n      dup6\n        /* \"contracts/pixel_pictasia_utils.sol\":921:961  add(tablePtr, and(shr(18, input), 0x3F)) */\n      add\n        /* \"contracts/pixel_pictasia_utils.sol\":915:962  mload(add(tablePtr, and(shr(18, input), 0x3F))) */\n      mload\n        /* \"contracts/pixel_pictasia_utils.sol\":904:913  resultPtr */\n      dup5\n        /* \"contracts/pixel_pictasia_utils.sol\":896:963  mstore8(resultPtr, mload(add(tablePtr, and(shr(18, input), 0x3F)))) */\n      mstore8\n        /* \"contracts/pixel_pictasia_utils.sol\":1009:1010  1 */\n      0x01\n        /* \"contracts/pixel_pictasia_utils.sol\":998:1007  resultPtr */\n      dup5\n        /* \"contracts/pixel_pictasia_utils.sol\":994:1011  add(resultPtr, 1) */\n      add\n        /* \"contracts/pixel_pictasia_utils.sol\":981:1011  resultPtr := add(resultPtr, 1) */\n      swap4\n      pop\n        /* \"contracts/pixel_pictasia_utils.sol\":1099:1103  0x3F */\n      0x3f\n        /* \"contracts/pixel_pictasia_utils.sol\":1091:1096  input */\n      dup2\n        /* \"contracts/pixel_pictasia_utils.sol\":1087:1089  12 */\n      0x0c\n        /* \"contracts/pixel_pictasia_utils.sol\":1083:1097  shr(12, input) */\n      shr\n        /* \"contracts/pixel_pictasia_utils.sol\":1079:1104  and(shr(12, input), 0x3F) */\n      and\n        /* \"contracts/pixel_pictasia_utils.sol\":1069:1077  tablePtr */\n      dup6\n        /* \"contracts/pixel_pictasia_utils.sol\":1065:1105  add(tablePtr, and(shr(12, input), 0x3F)) */\n      add\n        /* \"contracts/pixel_pictasia_utils.sol\":1059:1106  mload(add(tablePtr, and(shr(12, input), 0x3F))) */\n      mload\n        /* \"contracts/pixel_pictasia_utils.sol\":1048:1057  resultPtr */\n      dup5\n        /* \"contracts/pixel_pictasia_utils.sol\":1040:1107  mstore8(resultPtr, mload(add(tablePtr, and(shr(12, input), 0x3F)))) */\n      mstore8\n        /* \"contracts/pixel_pictasia_utils.sol\":1153:1154  1 */\n      0x01\n        /* \"contracts/pixel_pictasia_utils.sol\":1142:1151  resultPtr */\n      dup5\n        /* \"contracts/pixel_pictasia_utils.sol\":1138:1155  add(resultPtr, 1) */\n      add\n        /* \"contracts/pixel_pictasia_utils.sol\":1125:1155  resultPtr := add(resultPtr, 1) */\n      swap4\n      pop\n        /* \"contracts/pixel_pictasia_utils.sol\":1242:1246  0x3F */\n      0x3f\n        /* \"contracts/pixel_pictasia_utils.sol\":1234:1239  input */\n      dup2\n        /* \"contracts/pixel_pictasia_utils.sol\":1231:1232  6 */\n      0x06\n        /* \"contracts/pixel_pictasia_utils.sol\":1227:1240  shr(6, input) */\n      shr\n        /* \"contracts/pixel_pictasia_utils.sol\":1223:1247  and(shr(6, input), 0x3F) */\n      and\n        /* \"contracts/pixel_pictasia_utils.sol\":1213:1221  tablePtr */\n      dup6\n        /* \"contracts/pixel_pictasia_utils.sol\":1209:1248  add(tablePtr, and(shr(6, input), 0x3F)) */\n      add\n        /* \"contracts/pixel_pictasia_utils.sol\":1203:1249  mload(add(tablePtr, and(shr(6, input), 0x3F))) */\n      mload\n        /* \"contracts/pixel_pictasia_utils.sol\":1192:1201  resultPtr */\n      dup5\n        /* \"contracts/pixel_pictasia_utils.sol\":1184:1250  mstore8(resultPtr, mload(add(tablePtr, and(shr(6, input), 0x3F)))) */\n      mstore8\n        /* \"contracts/pixel_pictasia_utils.sol\":1296:1297  1 */\n      0x01\n        /* \"contracts/pixel_pictasia_utils.sol\":1285:1294  resultPtr */\n      dup5\n        /* \"contracts/pixel_pictasia_utils.sol\":1281:1298  add(resultPtr, 1) */\n      add\n        /* \"contracts/pixel_pictasia_utils.sol\":1268:1298  resultPtr := add(resultPtr, 1) */\n      swap4\n      pop\n        /* \"contracts/pixel_pictasia_utils.sol\":1377:1381  0x3F */\n      0x3f\n        /* \"contracts/pixel_pictasia_utils.sol\":1370:1375  input */\n      dup2\n        /* \"contracts/pixel_pictasia_utils.sol\":1366:1382  and(input, 0x3F) */\n      and\n        /* \"contracts/pixel_pictasia_utils.sol\":1356:1364  tablePtr */\n      dup6\n        /* \"contracts/pixel_pictasia_utils.sol\":1352:1383  add(tablePtr, and(input, 0x3F)) */\n      add\n        /* \"contracts/pixel_pictasia_utils.sol\":1346:1384  mload(add(tablePtr, and(input, 0x3F))) */\n      mload\n        /* \"contracts/pixel_pictasia_utils.sol\":1335:1344  resultPtr */\n      dup5\n        /* \"contracts/pixel_pictasia_utils.sol\":1327:1385  mstore8(resultPtr, mload(add(tablePtr, and(input, 0x3F)))) */\n      mstore8\n      pop\n        /* \"contracts/pixel_pictasia_utils.sol\":1431:1432  1 */\n      0x01\n        /* \"contracts/pixel_pictasia_utils.sol\":1420:1429  resultPtr */\n      dup4\n        /* \"contracts/pixel_pictasia_utils.sol\":1416:1433  add(resultPtr, 1) */\n      add\n        /* \"contracts/pixel_pictasia_utils.sol\":1403:1433  resultPtr := add(resultPtr, 1) */\n      swap3\n      pop\n        /* \"contracts/pixel_pictasia_utils.sol\":603:1459  for {... */\n      jump(tag_84)\n    tag_86:\n        /* \"contracts/pixel_pictasia_utils.sol\":607:714  {... */\n      pop\n      pop\n        /* \"contracts/pixel_pictasia_utils.sol\":1497:1498  3 */\n      0x03\n        /* \"contracts/pixel_pictasia_utils.sol\":1490:1494  data */\n      dup7\n        /* \"contracts/pixel_pictasia_utils.sol\":1484:1495  mload(data) */\n      mload\n        /* \"contracts/pixel_pictasia_utils.sol\":1480:1499  mod(mload(data), 3) */\n      mod\n        /* \"contracts/pixel_pictasia_utils.sol\":1518:1519  1 */\n      0x01\n        /* \"contracts/pixel_pictasia_utils.sol\":1513:1636  case 1 {... */\n      dup2\n      eq\n      tag_88\n      jumpi\n        /* \"contracts/pixel_pictasia_utils.sol\":1655:1656  2 */\n      0x02\n        /* \"contracts/pixel_pictasia_utils.sol\":1650:1723  case 2 {... */\n      dup2\n      eq\n      tag_89\n      jumpi\n        /* \"contracts/pixel_pictasia_utils.sol\":1473:1723  switch mod(mload(data), 3)... */\n      jump(tag_87)\n        /* \"contracts/pixel_pictasia_utils.sol\":1513:1636  case 1 {... */\n    tag_88:\n        /* \"contracts/pixel_pictasia_utils.sol\":1566:1570  0x3d */\n      0x3d\n        /* \"contracts/pixel_pictasia_utils.sol\":1562:1563  1 */\n      0x01\n        /* \"contracts/pixel_pictasia_utils.sol\":1551:1560  resultPtr */\n      dup4\n        /* \"contracts/pixel_pictasia_utils.sol\":1547:1564  sub(resultPtr, 1) */\n      sub\n        /* \"contracts/pixel_pictasia_utils.sol\":1539:1571  mstore8(sub(resultPtr, 1), 0x3d) */\n      mstore8\n        /* \"contracts/pixel_pictasia_utils.sol\":1616:1620  0x3d */\n      0x3d\n        /* \"contracts/pixel_pictasia_utils.sol\":1612:1613  2 */\n      0x02\n        /* \"contracts/pixel_pictasia_utils.sol\":1601:1610  resultPtr */\n      dup4\n        /* \"contracts/pixel_pictasia_utils.sol\":1597:1614  sub(resultPtr, 2) */\n      sub\n        /* \"contracts/pixel_pictasia_utils.sol\":1589:1621  mstore8(sub(resultPtr, 2), 0x3d) */\n      mstore8\n        /* \"contracts/pixel_pictasia_utils.sol\":1513:1636  case 1 {... */\n      jump(tag_87)\n        /* \"contracts/pixel_pictasia_utils.sol\":1650:1723  case 2 {... */\n    tag_89:\n        /* \"contracts/pixel_pictasia_utils.sol\":1703:1707  0x3d */\n      0x3d\n        /* \"contracts/pixel_pictasia_utils.sol\":1699:1700  1 */\n      0x01\n        /* \"contracts/pixel_pictasia_utils.sol\":1688:1697  resultPtr */\n      dup4\n        /* \"contracts/pixel_pictasia_utils.sol\":1684:1701  sub(resultPtr, 1) */\n      sub\n        /* \"contracts/pixel_pictasia_utils.sol\":1676:1708  mstore8(sub(resultPtr, 1), 0x3d) */\n      mstore8\n        /* \"contracts/pixel_pictasia_utils.sol\":1473:1723  switch mod(mload(data), 3)... */\n    tag_87:\n      pop\n        /* \"contracts/pixel_pictasia_utils.sol\":1751:1757  result */\n      swap2\n      swap6\n        /* \"contracts/pixel_pictasia_utils.sol\":253:1765  function encode(bytes memory data) internal pure returns (string memory) {... */\n      swap5\n      pop\n      pop\n      pop\n      pop\n      pop\n      jump\t// out\n        /* \"contracts/pixel_pictasia_utils.sol\":6802:7255  function addPNGSignature(bytes1[] memory _imageData, uint256 _i) private pure returns (bytes1[] memory, uint256) {... */\n    tag_54:\n        /* \"contracts/pixel_pictasia_utils.sol\":6889:6904  bytes1[] memory */\n      0x60\n        /* \"contracts/pixel_pictasia_utils.sol\":6906:6913  uint256 */\n      0x00\n      shl(0xf8, 0x89)\n        /* \"contracts/pixel_pictasia_utils.sol\":6926:6936  _imageData */\n      dup5\n        /* \"contracts/pixel_pictasia_utils.sol\":6937:6941  _i++ */\n      dup5\n      tag_91\n      dup2\n      tag_36\n      jump\t// in\n    tag_91:\n      swap6\n      pop\n        /* \"contracts/pixel_pictasia_utils.sol\":6926:6942  _imageData[_i++] */\n      dup2\n      mload\n      dup2\n      lt\n      tag_93\n      jumpi\n      tag_93\n      tag_31\n      jump\t// in\n    tag_93:\n      not(sub(shl(0xf8, 0x01), 0x01))\n        /* \"contracts/pixel_pictasia_utils.sol\":6926:6952  _imageData[_i++] = hex\"89\" */\n      swap1\n      swap3\n      and\n        /* \"contracts/pixel_pictasia_utils.sol\":6926:6942  _imageData[_i++] */\n      0x20\n      swap3\n      dup4\n      mul\n      swap2\n      swap1\n      swap2\n      add\n      swap1\n      swap2\n      add\n        /* \"contracts/pixel_pictasia_utils.sol\":6926:6952  _imageData[_i++] = hex\"89\" */\n      mstore\n      shl(0xfc, 0x05)\n        /* \"contracts/pixel_pictasia_utils.sol\":6963:6973  _imageData */\n      dup5\n        /* \"contracts/pixel_pictasia_utils.sol\":6974:6978  _i++ */\n      dup5\n      tag_94\n      dup2\n      tag_36\n      jump\t// in\n    tag_94:\n      swap6\n      pop\n        /* \"contracts/pixel_pictasia_utils.sol\":6963:6979  _imageData[_i++] */\n      dup2\n      mload\n      dup2\n      lt\n      tag_96\n      jumpi\n      tag_96\n      tag_31\n      jump\t// in\n    tag_96:\n      not(sub(shl(0xf8, 0x01), 0x01))\n        /* \"contracts/pixel_pictasia_utils.sol\":6963:6989  _imageData[_i++] = hex\"50\" */\n      swap1\n      swap3\n      and\n        /* \"contracts/pixel_pictasia_utils.sol\":6963:6979  _imageData[_i++] */\n      0x20\n      swap3\n      dup4\n      mul\n      swap2\n      swap1\n      swap2\n      add\n      swap1\n      swap2\n      add\n        /* \"contracts/pixel_pictasia_utils.sol\":6963:6989  _imageData[_i++] = hex\"50\" */\n      mstore\n      shl(0xf9, 0x27)\n        /* \"contracts/pixel_pictasia_utils.sol\":7000:7010  _imageData */\n      dup5\n        /* \"contracts/pixel_pictasia_utils.sol\":7011:7015  _i++ */\n      dup5\n      tag_97\n      dup2\n      tag_36\n      jump\t// in\n    tag_97:\n      swap6\n      pop\n        /* \"contracts/pixel_pictasia_utils.sol\":7000:7016  _imageData[_i++] */\n      dup2\n      mload\n      dup2\n      lt\n      tag_99\n      jumpi\n      tag_99\n      tag_31\n      jump\t// in\n    tag_99:\n      not(sub(shl(0xf8, 0x01), 0x01))\n        /* \"contracts/pixel_pictasia_utils.sol\":7000:7026  _imageData[_i++] = hex\"4E\" */\n      swap1\n      swap3\n      and\n        /* \"contracts/pixel_pictasia_utils.sol\":7000:7016  _imageData[_i++] */\n      0x20\n      swap3\n      dup4\n      mul\n      swap2\n      swap1\n      swap2\n      add\n      swap1\n      swap2\n      add\n        /* \"contracts/pixel_pictasia_utils.sol\":7000:7026  _imageData[_i++] = hex\"4E\" */\n      mstore\n      shl(0xf8, 0x47)\n        /* \"contracts/pixel_pictasia_utils.sol\":7037:7047  _imageData */\n      dup5\n        /* \"contracts/pixel_pictasia_utils.sol\":7048:7052  _i++ */\n      dup5\n      tag_100\n      dup2\n      tag_36\n      jump\t// in\n    tag_100:\n      swap6\n      pop\n        /* \"contracts/pixel_pictasia_utils.sol\":7037:7053  _imageData[_i++] */\n      dup2\n      mload\n      dup2\n      lt\n      tag_102\n      jumpi\n      tag_102\n      tag_31\n      jump\t// in\n    tag_102:\n      not(sub(shl(0xf8, 0x01), 0x01))\n        /* \"contracts/pixel_pictasia_utils.sol\":7037:7063  _imageData[_i++] = hex\"47\" */\n      swap1\n      swap3\n      and\n        /* \"contracts/pixel_pictasia_utils.sol\":7037:7053  _imageData[_i++] */\n      0x20\n      swap3\n      dup4\n      mul\n      swap2\n      swap1\n      swap2\n      add\n      swap1\n      swap2\n      add\n        /* \"contracts/pixel_pictasia_utils.sol\":7037:7063  _imageData[_i++] = hex\"47\" */\n      mstore\n      shl(0xf8, 0x0d)\n        /* \"contracts/pixel_pictasia_utils.sol\":7074:7084  _imageData */\n      dup5\n        /* \"contracts/pixel_pictasia_utils.sol\":7085:7089  _i++ */\n      dup5\n      tag_103\n      dup2\n      tag_36\n      jump\t// in\n    tag_103:\n      swap6\n      pop\n        /* \"contracts/pixel_pictasia_utils.sol\":7074:7090  _imageData[_i++] */\n      dup2\n      mload\n      dup2\n      lt\n      tag_105\n      jumpi\n      tag_105\n      tag_31\n      jump\t// in\n    tag_105:\n      not(sub(shl(0xf8, 0x01), 0x01))\n        /* \"contracts/pixel_pictasia_utils.sol\":7074:7100  _imageData[_i++] = hex\"0D\" */\n      swap1\n      swap3\n      and\n        /* \"contracts/pixel_pictasia_utils.sol\":7074:7090  _imageData[_i++] */\n      0x20\n      swap3\n      dup4\n      mul\n      swap2\n      swap1\n      swap2\n      add\n      swap1\n      swap2\n      add\n        /* \"contracts/pixel_pictasia_utils.sol\":7074:7100  _imageData[_i++] = hex\"0D\" */\n      mstore\n      shl(0xf9, 0x05)\n        /* \"contracts/pixel_pictasia_utils.sol\":7111:7121  _imageData */\n      dup5\n        /* \"contracts/pixel_pictasia_utils.sol\":7122:7126  _i++ */\n      dup5\n      tag_106\n      dup2\n      tag_36\n      jump\t// in\n    tag_106:\n      swap6\n      pop\n        /* \"contracts/pixel_pictasia_utils.sol\":7111:7127  _imageData[_i++] */\n      dup2\n      mload\n      dup2\n      lt\n      tag_108\n      jumpi\n      tag_108\n      tag_31\n      jump\t// in\n    tag_108:\n      not(sub(shl(0xf8, 0x01), 0x01))\n        /* \"contracts/pixel_pictasia_utils.sol\":7111:7137  _imageData[_i++] = hex\"0A\" */\n      swap1\n      swap3\n      and\n        /* \"contracts/pixel_pictasia_utils.sol\":7111:7127  _imageData[_i++] */\n      0x20\n      swap3\n      dup4\n      mul\n      swap2\n      swap1\n      swap2\n      add\n      swap1\n      swap2\n      add\n        /* \"contracts/pixel_pictasia_utils.sol\":7111:7137  _imageData[_i++] = hex\"0A\" */\n      mstore\n      shl(0xf9, 0x0d)\n        /* \"contracts/pixel_pictasia_utils.sol\":7148:7158  _imageData */\n      dup5\n        /* \"contracts/pixel_pictasia_utils.sol\":7159:7163  _i++ */\n      dup5\n      tag_109\n      dup2\n      tag_36\n      jump\t// in\n    tag_109:\n      swap6\n      pop\n        /* \"contracts/pixel_pictasia_utils.sol\":7148:7164  _imageData[_i++] */\n      dup2\n      mload\n      dup2\n      lt\n      tag_111\n      jumpi\n      tag_111\n      tag_31\n      jump\t// in\n    tag_111:\n      not(sub(shl(0xf8, 0x01), 0x01))\n        /* \"contracts/pixel_pictasia_utils.sol\":7148:7174  _imageData[_i++] = hex\"1A\" */\n      swap1\n      swap3\n      and\n        /* \"contracts/pixel_pictasia_utils.sol\":7148:7164  _imageData[_i++] */\n      0x20\n      swap3\n      dup4\n      mul\n      swap2\n      swap1\n      swap2\n      add\n      swap1\n      swap2\n      add\n        /* \"contracts/pixel_pictasia_utils.sol\":7148:7174  _imageData[_i++] = hex\"1A\" */\n      mstore\n      shl(0xf9, 0x05)\n        /* \"contracts/pixel_pictasia_utils.sol\":7185:7195  _imageData */\n      dup5\n        /* \"contracts/pixel_pictasia_utils.sol\":7196:7200  _i++ */\n      dup5\n      tag_112\n      dup2\n      tag_36\n      jump\t// in\n    tag_112:\n      swap6\n      pop\n        /* \"contracts/pixel_pictasia_utils.sol\":7185:7201  _imageData[_i++] */\n      dup2\n      mload\n      dup2\n      lt\n      tag_114\n      jumpi\n      tag_114\n      tag_31\n      jump\t// in\n    tag_114:\n      not(sub(shl(0xf8, 0x01), 0x01))\n        /* \"contracts/pixel_pictasia_utils.sol\":7185:7211  _imageData[_i++] = hex\"0A\" */\n      swap3\n      swap1\n      swap3\n      and\n        /* \"contracts/pixel_pictasia_utils.sol\":7185:7201  _imageData[_i++] */\n      0x20\n      swap3\n      dup4\n      mul\n      swap2\n      swap1\n      swap2\n      add\n      swap1\n      swap2\n      add\n        /* \"contracts/pixel_pictasia_utils.sol\":7185:7211  _imageData[_i++] = hex\"0A\" */\n      mstore\n      pop\n        /* \"contracts/pixel_pictasia_utils.sol\":7232:7242  _imageData */\n      swap2\n      swap3\n        /* \"contracts/pixel_pictasia_utils.sol\":7244:7246  _i */\n      swap1\n      swap2\n      pop\n        /* \"contracts/pixel_pictasia_utils.sol\":6802:7255  function addPNGSignature(bytes1[] memory _imageData, uint256 _i) private pure returns (bytes1[] memory, uint256) {... */\n      jump\t// out\n        /* \"contracts/pixel_pictasia_utils.sol\":7263:8654  function addIHDRChunck(bytes1[] memory _imageData, uint256 _i, uint256 _width, uint256 _height) private view returns (bytes1[] memory, uint256) {... */\n    tag_56:\n        /* \"contracts/pixel_pictasia_utils.sol\":7381:7396  bytes1[] memory */\n      0x60\n        /* \"contracts/pixel_pictasia_utils.sol\":7398:7405  uint256 */\n      0x00\n        /* \"contracts/pixel_pictasia_utils.sol\":7473:7475  _i */\n      dup5\n        /* \"contracts/pixel_pictasia_utils.sol\":7488:7495  _i += 4 */\n      tag_116\n        /* \"contracts/pixel_pictasia_utils.sol\":7494:7495  4 */\n      0x04\n        /* \"contracts/pixel_pictasia_utils.sol\":7473:7475  _i */\n      dup3\n        /* \"contracts/pixel_pictasia_utils.sol\":7488:7495  _i += 4 */\n      tag_33\n      jump\t// in\n    tag_116:\n      swap6\n      pop\n      dup6\n      shl(0xf8, 0x49)\n        /* \"contracts/pixel_pictasia_utils.sol\":7567:7577  _imageData */\n      dup9\n        /* \"contracts/pixel_pictasia_utils.sol\":7488:7495  _i += 4 */\n      dup3\n        /* \"contracts/pixel_pictasia_utils.sol\":7578:7582  _i++ */\n      tag_117\n        /* \"contracts/pixel_pictasia_utils.sol\":7488:7495  _i += 4 */\n      dup2\n        /* \"contracts/pixel_pictasia_utils.sol\":7578:7582  _i++ */\n      tag_36\n      jump\t// in\n    tag_117:\n      swap10\n      pop\n        /* \"contracts/pixel_pictasia_utils.sol\":7567:7583  _imageData[_i++] */\n      dup2\n      mload\n      dup2\n      lt\n      tag_119\n      jumpi\n      tag_119\n      tag_31\n      jump\t// in\n    tag_119:\n      not(sub(shl(0xf8, 0x01), 0x01))\n        /* \"contracts/pixel_pictasia_utils.sol\":7567:7593  _imageData[_i++] = hex\"49\" */\n      swap1\n      swap3\n      and\n        /* \"contracts/pixel_pictasia_utils.sol\":7567:7583  _imageData[_i++] */\n      0x20\n      swap3\n      dup4\n      mul\n      swap2\n      swap1\n      swap2\n      add\n      swap1\n      swap2\n      add\n        /* \"contracts/pixel_pictasia_utils.sol\":7567:7593  _imageData[_i++] = hex\"49\" */\n      mstore\n      shl(0xfb, 0x09)\n        /* \"contracts/pixel_pictasia_utils.sol\":7604:7614  _imageData */\n      dup9\n        /* \"contracts/pixel_pictasia_utils.sol\":7615:7619  _i++ */\n      dup9\n      tag_120\n      dup2\n      tag_36\n      jump\t// in\n    tag_120:\n      swap10\n      pop\n        /* \"contracts/pixel_pictasia_utils.sol\":7604:7620  _imageData[_i++] */\n      dup2\n      mload\n      dup2\n      lt\n      tag_122\n      jumpi\n      tag_122\n      tag_31\n      jump\t// in\n    tag_122:\n      not(sub(shl(0xf8, 0x01), 0x01))\n        /* \"contracts/pixel_pictasia_utils.sol\":7604:7630  _imageData[_i++] = hex\"48\" */\n      swap1\n      swap3\n      and\n        /* \"contracts/pixel_pictasia_utils.sol\":7604:7620  _imageData[_i++] */\n      0x20\n      swap3\n      dup4\n      mul\n      swap2\n      swap1\n      swap2\n      add\n      swap1\n      swap2\n      add\n        /* \"contracts/pixel_pictasia_utils.sol\":7604:7630  _imageData[_i++] = hex\"48\" */\n      mstore\n      shl(0xfa, 0x11)\n        /* \"contracts/pixel_pictasia_utils.sol\":7641:7651  _imageData */\n      dup9\n        /* \"contracts/pixel_pictasia_utils.sol\":7652:7656  _i++ */\n      dup9\n      tag_123\n      dup2\n      tag_36\n      jump\t// in\n    tag_123:\n      swap10\n      pop\n        /* \"contracts/pixel_pictasia_utils.sol\":7641:7657  _imageData[_i++] */\n      dup2\n      mload\n      dup2\n      lt\n      tag_125\n      jumpi\n      tag_125\n      tag_31\n      jump\t// in\n    tag_125:\n      not(sub(shl(0xf8, 0x01), 0x01))\n        /* \"contracts/pixel_pictasia_utils.sol\":7641:7667  _imageData[_i++] = hex\"44\" */\n      swap1\n      swap3\n      and\n        /* \"contracts/pixel_pictasia_utils.sol\":7641:7657  _imageData[_i++] */\n      0x20\n      swap3\n      dup4\n      mul\n      swap2\n      swap1\n      swap2\n      add\n      swap1\n      swap2\n      add\n        /* \"contracts/pixel_pictasia_utils.sol\":7641:7667  _imageData[_i++] = hex\"44\" */\n      mstore\n      shl(0xf9, 0x29)\n        /* \"contracts/pixel_pictasia_utils.sol\":7678:7688  _imageData */\n      dup9\n        /* \"contracts/pixel_pictasia_utils.sol\":7689:7693  _i++ */\n      dup9\n      tag_126\n      dup2\n      tag_36\n      jump\t// in\n    tag_126:\n      swap10\n      pop\n        /* \"contracts/pixel_pictasia_utils.sol\":7678:7694  _imageData[_i++] */\n      dup2\n      mload\n      dup2\n      lt\n      tag_128\n      jumpi\n      tag_128\n      tag_31\n      jump\t// in\n    tag_128:\n      not(sub(shl(0xf8, 0x01), 0x01))\n        /* \"contracts/pixel_pictasia_utils.sol\":7678:7704  _imageData[_i++] = hex\"52\" */\n      swap1\n      swap3\n      and\n        /* \"contracts/pixel_pictasia_utils.sol\":7678:7694  _imageData[_i++] */\n      0x20\n      swap3\n      dup4\n      mul\n      swap2\n      swap1\n      swap2\n      add\n      swap1\n      swap2\n      add\n        /* \"contracts/pixel_pictasia_utils.sol\":7678:7704  _imageData[_i++] = hex\"52\" */\n      mstore\n        /* \"contracts/pixel_pictasia_utils.sol\":7759:7761  _i */\n      dup7\n        /* \"contracts/pixel_pictasia_utils.sol\":7811:7848  add4ByteValue(_imageData, _i, _width) */\n      tag_129\n        /* \"contracts/pixel_pictasia_utils.sol\":7825:7835  _imageData */\n      dup10\n        /* \"contracts/pixel_pictasia_utils.sol\":7759:7761  _i */\n      dup3\n        /* \"contracts/pixel_pictasia_utils.sol\":7841:7847  _width */\n      dup10\n        /* \"contracts/pixel_pictasia_utils.sol\":7811:7824  add4ByteValue */\n      tag_130\n        /* \"contracts/pixel_pictasia_utils.sol\":7811:7848  add4ByteValue(_imageData, _i, _width) */\n      jump\t// in\n    tag_129:\n        /* \"contracts/pixel_pictasia_utils.sol\":7792:7848  (_imageData, _i) = add4ByteValue(_imageData, _i, _width) */\n      swap1\n      swap10\n      pop\n      swap8\n      pop\n        /* \"contracts/pixel_pictasia_utils.sol\":7899:7937  add4ByteValue(_imageData, _i, _height) */\n      tag_131\n        /* \"contracts/pixel_pictasia_utils.sol\":7792:7848  (_imageData, _i) = add4ByteValue(_imageData, _i, _width) */\n      dup10\n      dup10\n        /* \"contracts/pixel_pictasia_utils.sol\":7929:7936  _height */\n      dup9\n        /* \"contracts/pixel_pictasia_utils.sol\":7899:7912  add4ByteValue */\n      tag_130\n        /* \"contracts/pixel_pictasia_utils.sol\":7899:7937  add4ByteValue(_imageData, _i, _height) */\n      jump\t// in\n    tag_131:\n        /* \"contracts/pixel_pictasia_utils.sol\":7880:7937  (_imageData, _i) = add4ByteValue(_imageData, _i, _height) */\n      swap1\n      swap10\n      pop\n      swap8\n      pop\n      shl(0xfb, 0x01)\n      dup10\n      dup10\n        /* \"contracts/pixel_pictasia_utils.sol\":7983:7987  _i++ */\n      tag_132\n        /* \"contracts/pixel_pictasia_utils.sol\":7880:7937  (_imageData, _i) = add4ByteValue(_imageData, _i, _height) */\n      dup2\n        /* \"contracts/pixel_pictasia_utils.sol\":7983:7987  _i++ */\n      tag_36\n      jump\t// in\n    tag_132:\n      swap11\n      pop\n        /* \"contracts/pixel_pictasia_utils.sol\":7972:7988  _imageData[_i++] */\n      dup2\n      mload\n      dup2\n      lt\n      tag_134\n      jumpi\n      tag_134\n      tag_31\n      jump\t// in\n    tag_134:\n      not(sub(shl(0xf8, 0x01), 0x01))\n        /* \"contracts/pixel_pictasia_utils.sol\":7972:7998  _imageData[_i++] = hex\"08\" */\n      swap1\n      swap3\n      and\n        /* \"contracts/pixel_pictasia_utils.sol\":7972:7988  _imageData[_i++] */\n      0x20\n      swap3\n      dup4\n      mul\n      swap2\n      swap1\n      swap2\n      add\n      swap1\n      swap2\n      add\n        /* \"contracts/pixel_pictasia_utils.sol\":7972:7998  _imageData[_i++] = hex\"08\" */\n      mstore\n      shl(0xf9, 0x01)\n        /* \"contracts/pixel_pictasia_utils.sol\":8035:8045  _imageData */\n      dup10\n        /* \"contracts/pixel_pictasia_utils.sol\":8046:8050  _i++ */\n      dup10\n      tag_135\n      dup2\n      tag_36\n      jump\t// in\n    tag_135:\n      swap11\n      pop\n        /* \"contracts/pixel_pictasia_utils.sol\":8035:8051  _imageData[_i++] */\n      dup2\n      mload\n      dup2\n      lt\n      tag_137\n      jumpi\n      tag_137\n      tag_31\n      jump\t// in\n    tag_137:\n      not(sub(shl(0xf8, 0x01), 0x01))\n        /* \"contracts/pixel_pictasia_utils.sol\":8035:8061  _imageData[_i++] = hex\"02\" */\n      swap1\n      swap3\n      and\n        /* \"contracts/pixel_pictasia_utils.sol\":8035:8051  _imageData[_i++] */\n      0x20\n      swap3\n      dup4\n      mul\n      swap2\n      swap1\n      swap2\n      add\n      swap1\n      swap2\n      add\n        /* \"contracts/pixel_pictasia_utils.sol\":8035:8061  _imageData[_i++] = hex\"02\" */\n      mstore\n        /* \"contracts/pixel_pictasia_utils.sol\":8105:8131  _imageData[_i++] = hex\"00\" */\n      0x00\n        /* \"contracts/pixel_pictasia_utils.sol\":8105:8115  _imageData */\n      dup10\n        /* \"contracts/pixel_pictasia_utils.sol\":8116:8120  _i++ */\n      dup10\n      tag_138\n      dup2\n      tag_36\n      jump\t// in\n    tag_138:\n      swap11\n      pop\n        /* \"contracts/pixel_pictasia_utils.sol\":8105:8121  _imageData[_i++] */\n      dup2\n      mload\n      dup2\n      lt\n      tag_140\n      jumpi\n      tag_140\n      tag_31\n      jump\t// in\n    tag_140:\n      not(sub(shl(0xf8, 0x01), 0x01))\n        /* \"contracts/pixel_pictasia_utils.sol\":8105:8131  _imageData[_i++] = hex\"00\" */\n      swap1\n      swap3\n      and\n        /* \"contracts/pixel_pictasia_utils.sol\":8105:8121  _imageData[_i++] */\n      0x20\n      swap3\n      dup4\n      mul\n      swap2\n      swap1\n      swap2\n      add\n      swap1\n      swap2\n      add\n        /* \"contracts/pixel_pictasia_utils.sol\":8105:8131  _imageData[_i++] = hex\"00\" */\n      mstore\n        /* \"contracts/pixel_pictasia_utils.sol\":8170:8196  _imageData[_i++] = hex\"00\" */\n      0x00\n        /* \"contracts/pixel_pictasia_utils.sol\":8170:8180  _imageData */\n      dup10\n        /* \"contracts/pixel_pictasia_utils.sol\":8181:8185  _i++ */\n      dup10\n      tag_141\n      dup2\n      tag_36\n      jump\t// in\n    tag_141:\n      swap11\n      pop\n        /* \"contracts/pixel_pictasia_utils.sol\":8170:8186  _imageData[_i++] */\n      dup2\n      mload\n      dup2\n      lt\n      tag_143\n      jumpi\n      tag_143\n      tag_31\n      jump\t// in\n    tag_143:\n      not(sub(shl(0xf8, 0x01), 0x01))\n        /* \"contracts/pixel_pictasia_utils.sol\":8170:8196  _imageData[_i++] = hex\"00\" */\n      swap1\n      swap3\n      and\n        /* \"contracts/pixel_pictasia_utils.sol\":8170:8186  _imageData[_i++] */\n      0x20\n      swap3\n      dup4\n      mul\n      swap2\n      swap1\n      swap2\n      add\n      swap1\n      swap2\n      add\n        /* \"contracts/pixel_pictasia_utils.sol\":8170:8196  _imageData[_i++] = hex\"00\" */\n      mstore\n        /* \"contracts/pixel_pictasia_utils.sol\":8238:8264  _imageData[_i++] = hex\"00\" */\n      0x00\n        /* \"contracts/pixel_pictasia_utils.sol\":8238:8248  _imageData */\n      dup10\n        /* \"contracts/pixel_pictasia_utils.sol\":8249:8253  _i++ */\n      dup10\n      tag_144\n      dup2\n      tag_36\n      jump\t// in\n    tag_144:\n      swap11\n      pop\n        /* \"contracts/pixel_pictasia_utils.sol\":8238:8254  _imageData[_i++] */\n      dup2\n      mload\n      dup2\n      lt\n      tag_146\n      jumpi\n      tag_146\n      tag_31\n      jump\t// in\n    tag_146:\n      not(sub(shl(0xf8, 0x01), 0x01))\n        /* \"contracts/pixel_pictasia_utils.sol\":8238:8264  _imageData[_i++] = hex\"00\" */\n      swap1\n      swap3\n      and\n        /* \"contracts/pixel_pictasia_utils.sol\":8238:8254  _imageData[_i++] */\n      0x20\n      swap3\n      dup4\n      mul\n      swap2\n      swap1\n      swap2\n      add\n      swap1\n      swap2\n      add\n        /* \"contracts/pixel_pictasia_utils.sol\":8238:8264  _imageData[_i++] = hex\"00\" */\n      mstore\n        /* \"contracts/pixel_pictasia_utils.sol\":8298:8300  _i */\n      dup8\n      dup1\n        /* \"contracts/pixel_pictasia_utils.sol\":8379:8421  addCRC(_imageData, _i, iCRCStart, iCRCEnd) */\n      tag_147\n        /* \"contracts/pixel_pictasia_utils.sol\":8386:8396  _imageData */\n      dup12\n        /* \"contracts/pixel_pictasia_utils.sol\":8298:8300  _i */\n      dup3\n        /* \"contracts/pixel_pictasia_utils.sol\":8402:8411  iCRCStart */\n      dup7\n        /* \"contracts/pixel_pictasia_utils.sol\":8298:8300  _i */\n      dup2\n        /* \"contracts/pixel_pictasia_utils.sol\":8379:8385  addCRC */\n      tag_148\n        /* \"contracts/pixel_pictasia_utils.sol\":8379:8421  addCRC(_imageData, _i, iCRCStart, iCRCEnd) */\n      jump\t// in\n    tag_147:\n        /* \"contracts/pixel_pictasia_utils.sol\":8360:8421  (_imageData, _i) = addCRC(_imageData, _i, iCRCStart, iCRCEnd) */\n      swap1\n      swap12\n      pop\n      swap10\n      pop\n        /* \"contracts/pixel_pictasia_utils.sol\":8546:8610  add4ByteValue(_imageData, iLengthIdx, iLengthEnd - iLengthStart) */\n      tag_149\n        /* \"contracts/pixel_pictasia_utils.sol\":8360:8421  (_imageData, _i) = addCRC(_imageData, _i, iCRCStart, iCRCEnd) */\n      dup12\n        /* \"contracts/pixel_pictasia_utils.sol\":8572:8582  iLengthIdx */\n      dup7\n        /* \"contracts/pixel_pictasia_utils.sol\":8584:8609  iLengthEnd - iLengthStart */\n      tag_150\n        /* \"contracts/pixel_pictasia_utils.sol\":8597:8609  iLengthStart */\n      dup7\n        /* \"contracts/pixel_pictasia_utils.sol\":8584:8594  iLengthEnd */\n      dup7\n        /* \"contracts/pixel_pictasia_utils.sol\":8584:8609  iLengthEnd - iLengthStart */\n      tag_151\n      jump\t// in\n    tag_150:\n        /* \"contracts/pixel_pictasia_utils.sol\":8546:8559  add4ByteValue */\n      tag_130\n        /* \"contracts/pixel_pictasia_utils.sol\":8546:8610  add4ByteValue(_imageData, iLengthIdx, iLengthEnd - iLengthStart) */\n      jump\t// in\n    tag_149:\n      pop\n        /* \"contracts/pixel_pictasia_utils.sol\":8519:8610  (_imageData, iLengthIdx) = add4ByteValue(_imageData, iLengthIdx, iLengthEnd - iLengthStart) */\n      swap12\n        /* \"contracts/pixel_pictasia_utils.sol\":8643:8645  _i */\n      swap10\n      swap11\n      pop\n      pop\n      pop\n      pop\n      pop\n      pop\n      pop\n      pop\n      pop\n      pop\n        /* \"contracts/pixel_pictasia_utils.sol\":7263:8654  function addIHDRChunck(bytes1[] memory _imageData, uint256 _i, uint256 _width, uint256 _height) private view returns (bytes1[] memory, uint256) {... */\n      jump\t// out\n        /* \"contracts/pixel_pictasia_utils.sol\":8662:10731  function addIDATChunck(bytes1[] memory _imageData, uint256 _i) private view returns (bytes1[] memory, uint256) {... */\n    tag_58:\n        /* \"contracts/pixel_pictasia_utils.sol\":8747:8762  bytes1[] memory */\n      0x60\n        /* \"contracts/pixel_pictasia_utils.sol\":8764:8771  uint256 */\n      0x00\n        /* \"contracts/pixel_pictasia_utils.sol\":8839:8841  _i */\n      dup3\n        /* \"contracts/pixel_pictasia_utils.sol\":8854:8861  _i += 4 */\n      tag_153\n        /* \"contracts/pixel_pictasia_utils.sol\":8860:8861  4 */\n      0x04\n        /* \"contracts/pixel_pictasia_utils.sol\":8839:8841  _i */\n      dup3\n        /* \"contracts/pixel_pictasia_utils.sol\":8854:8861  _i += 4 */\n      tag_33\n      jump\t// in\n    tag_153:\n      swap4\n      pop\n      dup4\n      shl(0xf8, 0x49)\n        /* \"contracts/pixel_pictasia_utils.sol\":8933:8943  _imageData */\n      dup7\n        /* \"contracts/pixel_pictasia_utils.sol\":8854:8861  _i += 4 */\n      dup3\n        /* \"contracts/pixel_pictasia_utils.sol\":8944:8948  _i++ */\n      tag_154\n        /* \"contracts/pixel_pictasia_utils.sol\":8854:8861  _i += 4 */\n      dup2\n        /* \"contracts/pixel_pictasia_utils.sol\":8944:8948  _i++ */\n      tag_36\n      jump\t// in\n    tag_154:\n      swap8\n      pop\n        /* \"contracts/pixel_pictasia_utils.sol\":8933:8949  _imageData[_i++] */\n      dup2\n      mload\n      dup2\n      lt\n      tag_156\n      jumpi\n      tag_156\n      tag_31\n      jump\t// in\n    tag_156:\n      not(sub(shl(0xf8, 0x01), 0x01))\n        /* \"contracts/pixel_pictasia_utils.sol\":8933:8959  _imageData[_i++] = hex\"49\" */\n      swap1\n      swap3\n      and\n        /* \"contracts/pixel_pictasia_utils.sol\":8933:8949  _imageData[_i++] */\n      0x20\n      swap3\n      dup4\n      mul\n      swap2\n      swap1\n      swap2\n      add\n      swap1\n      swap2\n      add\n        /* \"contracts/pixel_pictasia_utils.sol\":8933:8959  _imageData[_i++] = hex\"49\" */\n      mstore\n      shl(0xfa, 0x11)\n        /* \"contracts/pixel_pictasia_utils.sol\":8970:8980  _imageData */\n      dup7\n        /* \"contracts/pixel_pictasia_utils.sol\":8981:8985  _i++ */\n      dup7\n      tag_157\n      dup2\n      tag_36\n      jump\t// in\n    tag_157:\n      swap8\n      pop\n        /* \"contracts/pixel_pictasia_utils.sol\":8970:8986  _imageData[_i++] */\n      dup2\n      mload\n      dup2\n      lt\n      tag_159\n      jumpi\n      tag_159\n      tag_31\n      jump\t// in\n    tag_159:\n      not(sub(shl(0xf8, 0x01), 0x01))\n        /* \"contracts/pixel_pictasia_utils.sol\":8970:8996  _imageData[_i++] = hex\"44\" */\n      swap1\n      swap3\n      and\n        /* \"contracts/pixel_pictasia_utils.sol\":8970:8986  _imageData[_i++] */\n      0x20\n      swap3\n      dup4\n      mul\n      swap2\n      swap1\n      swap2\n      add\n      swap1\n      swap2\n      add\n        /* \"contracts/pixel_pictasia_utils.sol\":8970:8996  _imageData[_i++] = hex\"44\" */\n      mstore\n      shl(0xf8, 0x41)\n        /* \"contracts/pixel_pictasia_utils.sol\":9007:9017  _imageData */\n      dup7\n        /* \"contracts/pixel_pictasia_utils.sol\":9018:9022  _i++ */\n      dup7\n      tag_160\n      dup2\n      tag_36\n      jump\t// in\n    tag_160:\n      swap8\n      pop\n        /* \"contracts/pixel_pictasia_utils.sol\":9007:9023  _imageData[_i++] */\n      dup2\n      mload\n      dup2\n      lt\n      tag_162\n      jumpi\n      tag_162\n      tag_31\n      jump\t// in\n    tag_162:\n      not(sub(shl(0xf8, 0x01), 0x01))\n        /* \"contracts/pixel_pictasia_utils.sol\":9007:9033  _imageData[_i++] = hex\"41\" */\n      swap1\n      swap3\n      and\n        /* \"contracts/pixel_pictasia_utils.sol\":9007:9023  _imageData[_i++] */\n      0x20\n      swap3\n      dup4\n      mul\n      swap2\n      swap1\n      swap2\n      add\n      swap1\n      swap2\n      add\n        /* \"contracts/pixel_pictasia_utils.sol\":9007:9033  _imageData[_i++] = hex\"41\" */\n      mstore\n      shl(0xfa, 0x15)\n        /* \"contracts/pixel_pictasia_utils.sol\":9044:9054  _imageData */\n      dup7\n        /* \"contracts/pixel_pictasia_utils.sol\":9055:9059  _i++ */\n      dup7\n      tag_163\n      dup2\n      tag_36\n      jump\t// in\n    tag_163:\n      swap8\n      pop\n        /* \"contracts/pixel_pictasia_utils.sol\":9044:9060  _imageData[_i++] */\n      dup2\n      mload\n      dup2\n      lt\n      tag_165\n      jumpi\n      tag_165\n      tag_31\n      jump\t// in\n    tag_165:\n      not(sub(shl(0xf8, 0x01), 0x01))\n        /* \"contracts/pixel_pictasia_utils.sol\":9044:9070  _imageData[_i++] = hex\"54\" */\n      swap1\n      swap3\n      and\n        /* \"contracts/pixel_pictasia_utils.sol\":9044:9060  _imageData[_i++] */\n      0x20\n      swap3\n      dup4\n      mul\n      swap2\n      swap1\n      swap2\n      add\n      swap1\n      swap2\n      add\n        /* \"contracts/pixel_pictasia_utils.sol\":9044:9070  _imageData[_i++] = hex\"54\" */\n      mstore\n        /* \"contracts/pixel_pictasia_utils.sol\":9125:9127  _i */\n      dup5\n      shl(0xfb, 0x0f)\n        /* \"contracts/pixel_pictasia_utils.sol\":9164:9174  _imageData */\n      dup8\n        /* \"contracts/pixel_pictasia_utils.sol\":9125:9127  _i */\n      dup3\n        /* \"contracts/pixel_pictasia_utils.sol\":9175:9179  _i++ */\n      tag_166\n        /* \"contracts/pixel_pictasia_utils.sol\":9125:9127  _i */\n      dup2\n        /* \"contracts/pixel_pictasia_utils.sol\":9175:9179  _i++ */\n      tag_36\n      jump\t// in\n    tag_166:\n      swap9\n      pop\n        /* \"contracts/pixel_pictasia_utils.sol\":9164:9180  _imageData[_i++] */\n      dup2\n      mload\n      dup2\n      lt\n      tag_168\n      jumpi\n      tag_168\n      tag_31\n      jump\t// in\n    tag_168:\n      not(sub(shl(0xf8, 0x01), 0x01))\n        /* \"contracts/pixel_pictasia_utils.sol\":9164:9190  _imageData[_i++] = hex\"78\" */\n      swap1\n      swap3\n      and\n        /* \"contracts/pixel_pictasia_utils.sol\":9164:9180  _imageData[_i++] */\n      0x20\n      swap3\n      dup4\n      mul\n      swap2\n      swap1\n      swap2\n      add\n      swap1\n      swap2\n      add\n        /* \"contracts/pixel_pictasia_utils.sol\":9164:9190  _imageData[_i++] = hex\"78\" */\n      mstore\n      shl(0xf8, 0x01)\n        /* \"contracts/pixel_pictasia_utils.sol\":9201:9211  _imageData */\n      dup8\n        /* \"contracts/pixel_pictasia_utils.sol\":9212:9216  _i++ */\n      dup8\n      tag_169\n      dup2\n      tag_36\n      jump\t// in\n    tag_169:\n      swap9\n      pop\n        /* \"contracts/pixel_pictasia_utils.sol\":9201:9217  _imageData[_i++] */\n      dup2\n      mload\n      dup2\n      lt\n      tag_171\n      jumpi\n      tag_171\n      tag_31\n      jump\t// in\n    tag_171:\n      not(sub(shl(0xf8, 0x01), 0x01))\n        /* \"contracts/pixel_pictasia_utils.sol\":9201:9227  _imageData[_i++] = hex\"01\" */\n      swap1\n      swap3\n      and\n        /* \"contracts/pixel_pictasia_utils.sol\":9201:9217  _imageData[_i++] */\n      0x20\n      swap3\n      dup4\n      mul\n      swap2\n      swap1\n      swap2\n      add\n      swap1\n      swap2\n      add\n        /* \"contracts/pixel_pictasia_utils.sol\":9201:9227  _imageData[_i++] = hex\"01\" */\n      mstore\n      shl(0xf8, 0x01)\n        /* \"contracts/pixel_pictasia_utils.sol\":9269:9279  _imageData */\n      dup8\n        /* \"contracts/pixel_pictasia_utils.sol\":9280:9284  _i++ */\n      dup8\n      tag_172\n      dup2\n      tag_36\n      jump\t// in\n    tag_172:\n      swap9\n      pop\n        /* \"contracts/pixel_pictasia_utils.sol\":9269:9285  _imageData[_i++] */\n      dup2\n      mload\n      dup2\n      lt\n      tag_174\n      jumpi\n      tag_174\n      tag_31\n      jump\t// in\n    tag_174:\n      not(sub(shl(0xf8, 0x01), 0x01))\n        /* \"contracts/pixel_pictasia_utils.sol\":9269:9295  _imageData[_i++] = hex\"01\" */\n      swap1\n      swap3\n      and\n        /* \"contracts/pixel_pictasia_utils.sol\":9269:9285  _imageData[_i++] */\n      0x20\n      swap3\n      dup4\n      mul\n      swap2\n      swap1\n      swap2\n      add\n      swap1\n      swap2\n      add\n        /* \"contracts/pixel_pictasia_utils.sol\":9269:9295  _imageData[_i++] = hex\"01\" */\n      mstore\n        /* \"contracts/pixel_pictasia_utils.sol\":9392:9394  _i */\n      dup6\n        /* \"contracts/pixel_pictasia_utils.sol\":9407:9414  _i += 4 */\n      tag_175\n        /* \"contracts/pixel_pictasia_utils.sol\":9413:9414  4 */\n      0x04\n        /* \"contracts/pixel_pictasia_utils.sol\":9392:9394  _i */\n      dup3\n        /* \"contracts/pixel_pictasia_utils.sol\":9407:9414  _i += 4 */\n      tag_33\n      jump\t// in\n    tag_175:\n      swap7\n      pop\n      dup7\n      dup1\n        /* \"contracts/pixel_pictasia_utils.sol\":9427:9448  uint256 iADLER32Start */\n      0x00\n        /* \"contracts/pixel_pictasia_utils.sol\":9539:9549  _imageData */\n      dup11\n        /* \"contracts/pixel_pictasia_utils.sol\":9407:9414  _i += 4 */\n      dup3\n        /* \"contracts/pixel_pictasia_utils.sol\":9550:9554  _i++ */\n      tag_176\n        /* \"contracts/pixel_pictasia_utils.sol\":9407:9414  _i += 4 */\n      dup2\n        /* \"contracts/pixel_pictasia_utils.sol\":9550:9554  _i++ */\n      tag_36\n      jump\t// in\n    tag_176:\n      swap12\n      pop\n        /* \"contracts/pixel_pictasia_utils.sol\":9539:9555  _imageData[_i++] */\n      dup2\n      mload\n      dup2\n      lt\n      tag_178\n      jumpi\n      tag_178\n      tag_31\n      jump\t// in\n    tag_178:\n      not(sub(shl(0xf8, 0x01), 0x01))\n        /* \"contracts/pixel_pictasia_utils.sol\":9539:9565  _imageData[_i++] = hex\"00\" */\n      swap3\n      dup4\n      and\n        /* \"contracts/pixel_pictasia_utils.sol\":9539:9555  _imageData[_i++] */\n      0x20\n      swap2\n      dup3\n      mul\n      swap3\n      swap1\n      swap3\n      add\n      add\n        /* \"contracts/pixel_pictasia_utils.sol\":9539:9565  _imageData[_i++] = hex\"00\" */\n      mstore\n        /* \"contracts/pixel_pictasia_utils.sol\":9588:9598  _imageData */\n      dup11\n        /* \"contracts/pixel_pictasia_utils.sol\":9599:9603  _i++ */\n      dup11\n      tag_179\n      dup2\n      tag_36\n      jump\t// in\n    tag_179:\n      swap12\n      pop\n        /* \"contracts/pixel_pictasia_utils.sol\":9588:9604  _imageData[_i++] */\n      dup2\n      mload\n      dup2\n      lt\n      tag_181\n      jumpi\n      tag_181\n      tag_31\n      jump\t// in\n    tag_181:\n      not(sub(shl(0xf8, 0x01), 0x01))\n        /* \"contracts/pixel_pictasia_utils.sol\":9588:9614  _imageData[_i++] = hex\"FF\" */\n      swap1\n      swap3\n      and\n        /* \"contracts/pixel_pictasia_utils.sol\":9588:9604  _imageData[_i++] */\n      0x20\n      swap3\n      dup4\n      mul\n      swap2\n      swap1\n      swap2\n      add\n      swap1\n      swap2\n      add\n        /* \"contracts/pixel_pictasia_utils.sol\":9588:9614  _imageData[_i++] = hex\"FF\" */\n      mstore\n        /* \"contracts/pixel_pictasia_utils.sol\":9625:9651  _imageData[_i++] = hex\"00\" */\n      0x00\n        /* \"contracts/pixel_pictasia_utils.sol\":9625:9635  _imageData */\n      dup11\n        /* \"contracts/pixel_pictasia_utils.sol\":9636:9640  _i++ */\n      dup11\n      tag_182\n      dup2\n      tag_36\n      jump\t// in\n    tag_182:\n      swap12\n      pop\n        /* \"contracts/pixel_pictasia_utils.sol\":9625:9641  _imageData[_i++] */\n      dup2\n      mload\n      dup2\n      lt\n      tag_184\n      jumpi\n      tag_184\n      tag_31\n      jump\t// in\n    tag_184:\n      not(sub(shl(0xf8, 0x01), 0x01))\n        /* \"contracts/pixel_pictasia_utils.sol\":9625:9651  _imageData[_i++] = hex\"00\" */\n      swap1\n      swap3\n      and\n        /* \"contracts/pixel_pictasia_utils.sol\":9625:9641  _imageData[_i++] */\n      0x20\n      swap3\n      dup4\n      mul\n      swap2\n      swap1\n      swap2\n      add\n      swap1\n      swap2\n      add\n        /* \"contracts/pixel_pictasia_utils.sol\":9625:9651  _imageData[_i++] = hex\"00\" */\n      mstore\n        /* \"contracts/pixel_pictasia_utils.sol\":9662:9688  _imageData[_i++] = hex\"00\" */\n      0x00\n        /* \"contracts/pixel_pictasia_utils.sol\":9662:9672  _imageData */\n      dup11\n        /* \"contracts/pixel_pictasia_utils.sol\":9673:9677  _i++ */\n      dup11\n      tag_185\n      dup2\n      tag_36\n      jump\t// in\n    tag_185:\n      swap12\n      pop\n        /* \"contracts/pixel_pictasia_utils.sol\":9662:9678  _imageData[_i++] */\n      dup2\n      mload\n      dup2\n      lt\n      tag_187\n      jumpi\n      tag_187\n      tag_31\n      jump\t// in\n    tag_187:\n      not(sub(shl(0xf8, 0x01), 0x01))\n        /* \"contracts/pixel_pictasia_utils.sol\":9662:9688  _imageData[_i++] = hex\"00\" */\n      swap1\n      swap3\n      and\n        /* \"contracts/pixel_pictasia_utils.sol\":9662:9678  _imageData[_i++] */\n      0x20\n      swap3\n      dup4\n      mul\n      swap2\n      swap1\n      swap2\n      add\n      swap1\n      swap2\n      add\n        /* \"contracts/pixel_pictasia_utils.sol\":9662:9688  _imageData[_i++] = hex\"00\" */\n      mstore\n        /* \"contracts/pixel_pictasia_utils.sol\":9701:9727  _imageData[_i++] = hex\"00\" */\n      0x00\n        /* \"contracts/pixel_pictasia_utils.sol\":9701:9711  _imageData */\n      dup11\n        /* \"contracts/pixel_pictasia_utils.sol\":9712:9716  _i++ */\n      dup11\n      tag_188\n      dup2\n      tag_36\n      jump\t// in\n    tag_188:\n      swap12\n      pop\n        /* \"contracts/pixel_pictasia_utils.sol\":9701:9717  _imageData[_i++] */\n      dup2\n      mload\n      dup2\n      lt\n      tag_190\n      jumpi\n      tag_190\n      tag_31\n      jump\t// in\n    tag_190:\n      not(sub(shl(0xf8, 0x01), 0x01))\n        /* \"contracts/pixel_pictasia_utils.sol\":9701:9727  _imageData[_i++] = hex\"00\" */\n      swap3\n      dup4\n      and\n        /* \"contracts/pixel_pictasia_utils.sol\":9701:9717  _imageData[_i++] */\n      0x20\n      swap2\n      dup3\n      mul\n      swap3\n      swap1\n      swap3\n      add\n      add\n        /* \"contracts/pixel_pictasia_utils.sol\":9701:9727  _imageData[_i++] = hex\"00\" */\n      mstore\n        /* \"contracts/pixel_pictasia_utils.sol\":9738:9748  _imageData */\n      dup11\n        /* \"contracts/pixel_pictasia_utils.sol\":9749:9753  _i++ */\n      dup11\n      tag_191\n      dup2\n      tag_36\n      jump\t// in\n    tag_191:\n      swap12\n      pop\n        /* \"contracts/pixel_pictasia_utils.sol\":9738:9754  _imageData[_i++] */\n      dup2\n      mload\n      dup2\n      lt\n      tag_193\n      jumpi\n      tag_193\n      tag_31\n      jump\t// in\n    tag_193:\n      not(sub(shl(0xf8, 0x01), 0x01))\n        /* \"contracts/pixel_pictasia_utils.sol\":9738:9764  _imageData[_i++] = hex\"FF\" */\n      swap1\n      swap3\n      and\n        /* \"contracts/pixel_pictasia_utils.sol\":9738:9754  _imageData[_i++] */\n      0x20\n      swap3\n      dup4\n      mul\n      swap2\n      swap1\n      swap2\n      add\n      swap1\n      swap2\n      add\n        /* \"contracts/pixel_pictasia_utils.sol\":9738:9764  _imageData[_i++] = hex\"FF\" */\n      mstore\n        /* \"contracts/pixel_pictasia_utils.sol\":9775:9801  _imageData[_i++] = hex\"00\" */\n      0x00\n        /* \"contracts/pixel_pictasia_utils.sol\":9775:9785  _imageData */\n      dup11\n        /* \"contracts/pixel_pictasia_utils.sol\":9786:9790  _i++ */\n      dup11\n      tag_194\n      dup2\n      tag_36\n      jump\t// in\n    tag_194:\n      swap12\n      pop\n        /* \"contracts/pixel_pictasia_utils.sol\":9775:9791  _imageData[_i++] */\n      dup2\n      mload\n      dup2\n      lt\n      tag_196\n      jumpi\n      tag_196\n      tag_31\n      jump\t// in\n    tag_196:\n      not(sub(shl(0xf8, 0x01), 0x01))\n        /* \"contracts/pixel_pictasia_utils.sol\":9775:9801  _imageData[_i++] = hex\"00\" */\n      swap1\n      swap3\n      and\n        /* \"contracts/pixel_pictasia_utils.sol\":9775:9791  _imageData[_i++] */\n      0x20\n      swap3\n      dup4\n      mul\n      swap2\n      swap1\n      swap2\n      add\n      swap1\n      swap2\n      add\n        /* \"contracts/pixel_pictasia_utils.sol\":9775:9801  _imageData[_i++] = hex\"00\" */\n      mstore\n        /* \"contracts/pixel_pictasia_utils.sol\":9814:9840  _imageData[_i++] = hex\"00\" */\n      0x00\n        /* \"contracts/pixel_pictasia_utils.sol\":9814:9824  _imageData */\n      dup11\n        /* \"contracts/pixel_pictasia_utils.sol\":9825:9829  _i++ */\n      dup11\n      tag_197\n      dup2\n      tag_36\n      jump\t// in\n    tag_197:\n      swap12\n      pop\n        /* \"contracts/pixel_pictasia_utils.sol\":9814:9830  _imageData[_i++] */\n      dup2\n      mload\n      dup2\n      lt\n      tag_199\n      jumpi\n      tag_199\n      tag_31\n      jump\t// in\n    tag_199:\n      not(sub(shl(0xf8, 0x01), 0x01))\n        /* \"contracts/pixel_pictasia_utils.sol\":9814:9840  _imageData[_i++] = hex\"00\" */\n      swap1\n      swap3\n      and\n        /* \"contracts/pixel_pictasia_utils.sol\":9814:9830  _imageData[_i++] */\n      0x20\n      swap3\n      dup4\n      mul\n      swap2\n      swap1\n      swap2\n      add\n      swap1\n      swap2\n      add\n        /* \"contracts/pixel_pictasia_utils.sol\":9814:9840  _imageData[_i++] = hex\"00\" */\n      mstore\n        /* \"contracts/pixel_pictasia_utils.sol\":9851:9877  _imageData[_i++] = hex\"00\" */\n      0x00\n        /* \"contracts/pixel_pictasia_utils.sol\":9851:9861  _imageData */\n      dup11\n        /* \"contracts/pixel_pictasia_utils.sol\":9862:9866  _i++ */\n      dup11\n      tag_200\n      dup2\n      tag_36\n      jump\t// in\n    tag_200:\n      swap12\n      pop\n        /* \"contracts/pixel_pictasia_utils.sol\":9851:9867  _imageData[_i++] */\n      dup2\n      mload\n      dup2\n      lt\n      tag_202\n      jumpi\n      tag_202\n      tag_31\n      jump\t// in\n    tag_202:\n      not(sub(shl(0xf8, 0x01), 0x01))\n        /* \"contracts/pixel_pictasia_utils.sol\":9851:9877  _imageData[_i++] = hex\"00\" */\n      swap3\n      dup4\n      and\n        /* \"contracts/pixel_pictasia_utils.sol\":9851:9867  _imageData[_i++] */\n      0x20\n      swap2\n      dup3\n      mul\n      swap3\n      swap1\n      swap3\n      add\n      add\n        /* \"contracts/pixel_pictasia_utils.sol\":9851:9877  _imageData[_i++] = hex\"00\" */\n      mstore\n        /* \"contracts/pixel_pictasia_utils.sol\":9888:9898  _imageData */\n      dup11\n        /* \"contracts/pixel_pictasia_utils.sol\":9899:9903  _i++ */\n      dup11\n      tag_203\n      dup2\n      tag_36\n      jump\t// in\n    tag_203:\n      swap12\n      pop\n        /* \"contracts/pixel_pictasia_utils.sol\":9888:9904  _imageData[_i++] */\n      dup2\n      mload\n      dup2\n      lt\n      tag_205\n      jumpi\n      tag_205\n      tag_31\n      jump\t// in\n    tag_205:\n      not(sub(shl(0xf8, 0x01), 0x01))\n        /* \"contracts/pixel_pictasia_utils.sol\":9888:9914  _imageData[_i++] = hex\"FF\" */\n      swap1\n      swap3\n      and\n        /* \"contracts/pixel_pictasia_utils.sol\":9888:9904  _imageData[_i++] */\n      0x20\n      swap3\n      dup4\n      mul\n      swap2\n      swap1\n      swap2\n      add\n      swap1\n      swap2\n      add\n        /* \"contracts/pixel_pictasia_utils.sol\":9888:9914  _imageData[_i++] = hex\"FF\" */\n      mstore\n        /* \"contracts/pixel_pictasia_utils.sol\":9949:9951  _i */\n      dup9\n      dup1\n        /* \"contracts/pixel_pictasia_utils.sol\":10041:10095  addADLER32(_imageData, _i, iADLER32Start, iADLER32End) */\n      tag_206\n        /* \"contracts/pixel_pictasia_utils.sol\":10052:10062  _imageData */\n      dup13\n        /* \"contracts/pixel_pictasia_utils.sol\":9949:9951  _i */\n      dup3\n        /* \"contracts/pixel_pictasia_utils.sol\":10068:10081  iADLER32Start */\n      dup7\n        /* \"contracts/pixel_pictasia_utils.sol\":9949:9951  _i */\n      dup2\n        /* \"contracts/pixel_pictasia_utils.sol\":10041:10051  addADLER32 */\n      tag_207\n        /* \"contracts/pixel_pictasia_utils.sol\":10041:10095  addADLER32(_imageData, _i, iADLER32Start, iADLER32End) */\n      jump\t// in\n    tag_206:\n        /* \"contracts/pixel_pictasia_utils.sol\":10022:10095  (_imageData, _i) = addADLER32(_imageData, _i, iADLER32Start, iADLER32End) */\n      swap1\n      swap13\n      pop\n      swap11\n      pop\n      dup11\n      dup1\n        /* \"contracts/pixel_pictasia_utils.sol\":10210:10252  addCRC(_imageData, _i, iCRCStart, iCRCEnd) */\n      tag_208\n        /* \"contracts/pixel_pictasia_utils.sol\":10022:10095  (_imageData, _i) = addADLER32(_imageData, _i, iADLER32Start, iADLER32End) */\n      dup15\n      dup3\n        /* \"contracts/pixel_pictasia_utils.sol\":10233:10242  iCRCStart */\n      dup12\n        /* \"contracts/pixel_pictasia_utils.sol\":10022:10095  (_imageData, _i) = addADLER32(_imageData, _i, iADLER32Start, iADLER32End) */\n      dup2\n        /* \"contracts/pixel_pictasia_utils.sol\":10210:10216  addCRC */\n      tag_148\n        /* \"contracts/pixel_pictasia_utils.sol\":10210:10252  addCRC(_imageData, _i, iCRCStart, iCRCEnd) */\n      jump\t// in\n    tag_208:\n        /* \"contracts/pixel_pictasia_utils.sol\":10191:10252  (_imageData, _i) = addCRC(_imageData, _i, iCRCStart, iCRCEnd) */\n      swap1\n      swap15\n      pop\n      swap13\n      pop\n        /* \"contracts/pixel_pictasia_utils.sol\":10377:10441  add4ByteValue(_imageData, iLengthIdx, iLengthEnd - iLengthStart) */\n      tag_209\n        /* \"contracts/pixel_pictasia_utils.sol\":10191:10252  (_imageData, _i) = addCRC(_imageData, _i, iCRCStart, iCRCEnd) */\n      dup15\n        /* \"contracts/pixel_pictasia_utils.sol\":10403:10413  iLengthIdx */\n      dup12\n        /* \"contracts/pixel_pictasia_utils.sol\":10415:10440  iLengthEnd - iLengthStart */\n      tag_150\n        /* \"contracts/pixel_pictasia_utils.sol\":10428:10440  iLengthStart */\n      dup12\n        /* \"contracts/pixel_pictasia_utils.sol\":10415:10425  iLengthEnd */\n      dup7\n        /* \"contracts/pixel_pictasia_utils.sol\":10415:10440  iLengthEnd - iLengthStart */\n      tag_151\n      jump\t// in\n        /* \"contracts/pixel_pictasia_utils.sol\":10377:10441  add4ByteValue(_imageData, iLengthIdx, iLengthEnd - iLengthStart) */\n    tag_209:\n        /* \"contracts/pixel_pictasia_utils.sol\":10350:10441  (_imageData, iLengthIdx) = add4ByteValue(_imageData, iLengthIdx, iLengthEnd - iLengthStart) */\n      swap1\n      swap15\n      pop\n      swap10\n      pop\n        /* \"contracts/pixel_pictasia_utils.sol\":10483:10559  add2ByteValue(_imageData, iZLIBLengthIdx, iZLIBLengthEnd - iZLIBLengthStart) */\n      tag_211\n        /* \"contracts/pixel_pictasia_utils.sol\":10350:10441  (_imageData, iLengthIdx) = add4ByteValue(_imageData, iLengthIdx, iLengthEnd - iLengthStart) */\n      dup15\n        /* \"contracts/pixel_pictasia_utils.sol\":10509:10523  iZLIBLengthIdx */\n      dup9\n        /* \"contracts/pixel_pictasia_utils.sol\":10525:10558  iZLIBLengthEnd - iZLIBLengthStart */\n      tag_212\n        /* \"contracts/pixel_pictasia_utils.sol\":10542:10558  iZLIBLengthStart */\n      dup9\n        /* \"contracts/pixel_pictasia_utils.sol\":10525:10539  iZLIBLengthEnd */\n      dup8\n        /* \"contracts/pixel_pictasia_utils.sol\":10525:10558  iZLIBLengthEnd - iZLIBLengthStart */\n      tag_151\n      jump\t// in\n    tag_212:\n        /* \"contracts/pixel_pictasia_utils.sol\":10483:10496  add2ByteValue */\n      tag_213\n        /* \"contracts/pixel_pictasia_utils.sol\":10483:10559  add2ByteValue(_imageData, iZLIBLengthIdx, iZLIBLengthEnd - iZLIBLengthStart) */\n      jump\t// in\n    tag_211:\n        /* \"contracts/pixel_pictasia_utils.sol\":10452:10559  (_imageData, iZLIBLengthIdx) = add2ByteValue(_imageData, iZLIBLengthIdx, iZLIBLengthEnd - iZLIBLengthStart) */\n      swap1\n      swap15\n      pop\n      swap7\n      pop\n        /* \"contracts/pixel_pictasia_utils.sol\":10601:10687  add2ByteValue(_imageData, iZLIBLengthIdx, 65535 - (iZLIBLengthEnd - iZLIBLengthStart)) */\n      tag_214\n        /* \"contracts/pixel_pictasia_utils.sol\":10452:10559  (_imageData, iZLIBLengthIdx) = add2ByteValue(_imageData, iZLIBLengthIdx, iZLIBLengthEnd - iZLIBLengthStart) */\n      dup15\n      dup9\n        /* \"contracts/pixel_pictasia_utils.sol\":10652:10685  iZLIBLengthEnd - iZLIBLengthStart */\n      tag_215\n        /* \"contracts/pixel_pictasia_utils.sol\":10669:10685  iZLIBLengthStart */\n      dup9\n        /* \"contracts/pixel_pictasia_utils.sol\":10652:10666  iZLIBLengthEnd */\n      dup8\n        /* \"contracts/pixel_pictasia_utils.sol\":10652:10685  iZLIBLengthEnd - iZLIBLengthStart */\n      tag_151\n      jump\t// in\n    tag_215:\n        /* \"contracts/pixel_pictasia_utils.sol\":10643:10686  65535 - (iZLIBLengthEnd - iZLIBLengthStart) */\n      tag_212\n      swap1\n        /* \"contracts/pixel_pictasia_utils.sol\":10643:10648  65535 */\n      0xffff\n        /* \"contracts/pixel_pictasia_utils.sol\":10643:10686  65535 - (iZLIBLengthEnd - iZLIBLengthStart) */\n      tag_151\n      jump\t// in\n        /* \"contracts/pixel_pictasia_utils.sol\":10601:10687  add2ByteValue(_imageData, iZLIBLengthIdx, 65535 - (iZLIBLengthEnd - iZLIBLengthStart)) */\n    tag_214:\n      pop\n        /* \"contracts/pixel_pictasia_utils.sol\":10570:10687  (_imageData, iZLIBLengthIdx) = add2ByteValue(_imageData, iZLIBLengthIdx, 65535 - (iZLIBLengthEnd - iZLIBLengthStart)) */\n      swap15\n        /* \"contracts/pixel_pictasia_utils.sol\":10720:10722  _i */\n      swap13\n      swap14\n      pop\n      pop\n      pop\n      pop\n      pop\n      pop\n      pop\n      pop\n      pop\n      pop\n      pop\n      pop\n      pop\n        /* \"contracts/pixel_pictasia_utils.sol\":8662:10731  function addIDATChunck(bytes1[] memory _imageData, uint256 _i) private view returns (bytes1[] memory, uint256) {... */\n      jump\t// out\n        /* \"contracts/pixel_pictasia_utils.sol\":10739:11319  function addIENDChunck(bytes1[] memory _imageData, uint256 _i) private view returns (bytes1[] memory, uint256) {... */\n    tag_60:\n        /* \"contracts/pixel_pictasia_utils.sol\":10824:10839  bytes1[] memory */\n      0x60\n        /* \"contracts/pixel_pictasia_utils.sol\":10841:10848  uint256 */\n      0x00\n        /* \"contracts/pixel_pictasia_utils.sol\":10911:10943  add4ByteValue(_imageData, _i, 0) */\n      tag_218\n        /* \"contracts/pixel_pictasia_utils.sol\":10925:10935  _imageData */\n      dup5\n        /* \"contracts/pixel_pictasia_utils.sol\":10937:10939  _i */\n      dup5\n        /* \"contracts/pixel_pictasia_utils.sol\":10941:10942  0 */\n      0x00\n        /* \"contracts/pixel_pictasia_utils.sol\":10911:10924  add4ByteValue */\n      tag_130\n        /* \"contracts/pixel_pictasia_utils.sol\":10911:10943  add4ByteValue(_imageData, _i, 0) */\n      jump\t// in\n    tag_218:\n        /* \"contracts/pixel_pictasia_utils.sol\":10892:10943  (_imageData, _i) = add4ByteValue(_imageData, _i, 0) */\n      swap1\n      swap5\n      pop\n      swap3\n      pop\n      dup3\n      shl(0xf8, 0x49)\n      dup6\n      dup3\n        /* \"contracts/pixel_pictasia_utils.sol\":11026:11030  _i++ */\n      tag_219\n        /* \"contracts/pixel_pictasia_utils.sol\":10892:10943  (_imageData, _i) = add4ByteValue(_imageData, _i, 0) */\n      dup2\n        /* \"contracts/pixel_pictasia_utils.sol\":11026:11030  _i++ */\n      tag_36\n      jump\t// in\n    tag_219:\n      swap7\n      pop\n        /* \"contracts/pixel_pictasia_utils.sol\":11015:11031  _imageData[_i++] */\n      dup2\n      mload\n      dup2\n      lt\n      tag_221\n      jumpi\n      tag_221\n      tag_31\n      jump\t// in\n    tag_221:\n      not(sub(shl(0xf8, 0x01), 0x01))\n        /* \"contracts/pixel_pictasia_utils.sol\":11015:11041  _imageData[_i++] = hex\"49\" */\n      swap1\n      swap3\n      and\n        /* \"contracts/pixel_pictasia_utils.sol\":11015:11031  _imageData[_i++] */\n      0x20\n      swap3\n      dup4\n      mul\n      swap2\n      swap1\n      swap2\n      add\n      swap1\n      swap2\n      add\n        /* \"contracts/pixel_pictasia_utils.sol\":11015:11041  _imageData[_i++] = hex\"49\" */\n      mstore\n      shl(0xf8, 0x45)\n        /* \"contracts/pixel_pictasia_utils.sol\":11052:11062  _imageData */\n      dup6\n        /* \"contracts/pixel_pictasia_utils.sol\":11063:11067  _i++ */\n      dup6\n      tag_222\n      dup2\n      tag_36\n      jump\t// in\n    tag_222:\n      swap7\n      pop\n        /* \"contracts/pixel_pictasia_utils.sol\":11052:11068  _imageData[_i++] */\n      dup2\n      mload\n      dup2\n      lt\n      tag_224\n      jumpi\n      tag_224\n      tag_31\n      jump\t// in\n    tag_224:\n      not(sub(shl(0xf8, 0x01), 0x01))\n        /* \"contracts/pixel_pictasia_utils.sol\":11052:11078  _imageData[_i++] = hex\"45\" */\n      swap1\n      swap3\n      and\n        /* \"contracts/pixel_pictasia_utils.sol\":11052:11068  _imageData[_i++] */\n      0x20\n      swap3\n      dup4\n      mul\n      swap2\n      swap1\n      swap2\n      add\n      swap1\n      swap2\n      add\n        /* \"contracts/pixel_pictasia_utils.sol\":11052:11078  _imageData[_i++] = hex\"45\" */\n      mstore\n      shl(0xf9, 0x27)\n        /* \"contracts/pixel_pictasia_utils.sol\":11089:11099  _imageData */\n      dup6\n        /* \"contracts/pixel_pictasia_utils.sol\":11100:11104  _i++ */\n      dup6\n      tag_225\n      dup2\n      tag_36\n      jump\t// in\n    tag_225:\n      swap7\n      pop\n        /* \"contracts/pixel_pictasia_utils.sol\":11089:11105  _imageData[_i++] */\n      dup2\n      mload\n      dup2\n      lt\n      tag_227\n      jumpi\n      tag_227\n      tag_31\n      jump\t// in\n    tag_227:\n      not(sub(shl(0xf8, 0x01), 0x01))\n        /* \"contracts/pixel_pictasia_utils.sol\":11089:11115  _imageData[_i++] = hex\"4E\" */\n      swap1\n      swap3\n      and\n        /* \"contracts/pixel_pictasia_utils.sol\":11089:11105  _imageData[_i++] */\n      0x20\n      swap3\n      dup4\n      mul\n      swap2\n      swap1\n      swap2\n      add\n      swap1\n      swap2\n      add\n        /* \"contracts/pixel_pictasia_utils.sol\":11089:11115  _imageData[_i++] = hex\"4E\" */\n      mstore\n      shl(0xfa, 0x11)\n        /* \"contracts/pixel_pictasia_utils.sol\":11126:11136  _imageData */\n      dup6\n        /* \"contracts/pixel_pictasia_utils.sol\":11137:11141  _i++ */\n      dup6\n      tag_228\n      dup2\n      tag_36\n      jump\t// in\n    tag_228:\n      swap7\n      pop\n        /* \"contracts/pixel_pictasia_utils.sol\":11126:11142  _imageData[_i++] */\n      dup2\n      mload\n      dup2\n      lt\n      tag_230\n      jumpi\n      tag_230\n      tag_31\n      jump\t// in\n    tag_230:\n      not(sub(shl(0xf8, 0x01), 0x01))\n        /* \"contracts/pixel_pictasia_utils.sol\":11126:11152  _imageData[_i++] = hex\"44\" */\n      swap1\n      swap3\n      and\n        /* \"contracts/pixel_pictasia_utils.sol\":11126:11142  _imageData[_i++] */\n      0x20\n      swap3\n      dup4\n      mul\n      swap2\n      swap1\n      swap2\n      add\n      swap1\n      swap2\n      add\n        /* \"contracts/pixel_pictasia_utils.sol\":11126:11152  _imageData[_i++] = hex\"44\" */\n      mstore\n        /* \"contracts/pixel_pictasia_utils.sol\":11183:11185  _i */\n      dup4\n        /* \"contracts/pixel_pictasia_utils.sol\":11233:11275  addCRC(_imageData, _i, iCRCStart, iCRCEnd) */\n      tag_231\n        /* \"contracts/pixel_pictasia_utils.sol\":11240:11250  _imageData */\n      dup7\n        /* \"contracts/pixel_pictasia_utils.sol\":11183:11185  _i */\n      dup3\n        /* \"contracts/pixel_pictasia_utils.sol\":11256:11265  iCRCStart */\n      dup5\n        /* \"contracts/pixel_pictasia_utils.sol\":11183:11185  _i */\n      dup2\n        /* \"contracts/pixel_pictasia_utils.sol\":11233:11239  addCRC */\n      tag_148\n        /* \"contracts/pixel_pictasia_utils.sol\":11233:11275  addCRC(_imageData, _i, iCRCStart, iCRCEnd) */\n      jump\t// in\n    tag_231:\n        /* \"contracts/pixel_pictasia_utils.sol\":11214:11275  (_imageData, _i) = addCRC(_imageData, _i, iCRCStart, iCRCEnd) */\n      swap1\n      swap8\n      swap1\n      swap7\n      pop\n        /* \"contracts/pixel_pictasia_utils.sol\":10739:11319  function addIENDChunck(bytes1[] memory _imageData, uint256 _i) private view returns (bytes1[] memory, uint256) {... */\n      swap5\n      pop\n      pop\n      pop\n      pop\n      pop\n      jump\t// out\n        /* \"contracts/pixel_pictasia_utils.sol\":5620:5911  function update_crc(uint256 _crc, bytes1[] memory _buf, uint256 _len) private view returns (uint256) {... */\n    tag_74:\n        /* \"contracts/pixel_pictasia_utils.sol\":5712:5719  uint256 */\n      0x00\n        /* \"contracts/pixel_pictasia_utils.sol\":5744:5748  _crc */\n      dup4\n        /* \"contracts/pixel_pictasia_utils.sol\":5712:5719  uint256 */\n      dup2\n        /* \"contracts/pixel_pictasia_utils.sol\":5761:5875  for (uint256 n = 0; n < _len; n++) {... */\n    tag_233:\n        /* \"contracts/pixel_pictasia_utils.sol\":5785:5789  _len */\n      dup4\n        /* \"contracts/pixel_pictasia_utils.sol\":5781:5782  n */\n      dup2\n        /* \"contracts/pixel_pictasia_utils.sol\":5781:5789  n < _len */\n      lt\n        /* \"contracts/pixel_pictasia_utils.sol\":5761:5875  for (uint256 n = 0; n < _len; n++) {... */\n      iszero\n      tag_234\n      jumpi\n        /* \"contracts/pixel_pictasia_utils.sol\":5861:5862  8 */\n      0x08\n        /* \"contracts/pixel_pictasia_utils.sol\":5856:5857  c */\n      dup3\n        /* \"contracts/pixel_pictasia_utils.sol\":5856:5862  c >> 8 */\n      swap1\n      shr\n        /* \"contracts/pixel_pictasia_utils.sol\":5815:5824  CRC_TABLE */\n      0x00\n        /* \"contracts/pixel_pictasia_utils.sol\":5836:5840  _buf */\n      dup7\n        /* \"contracts/pixel_pictasia_utils.sol\":5841:5842  n */\n      dup4\n        /* \"contracts/pixel_pictasia_utils.sol\":5836:5843  _buf[n] */\n      dup2\n      mload\n      dup2\n      lt\n      tag_237\n      jumpi\n      tag_237\n      tag_31\n      jump\t// in\n    tag_237:\n      0x20\n      mul\n      0x20\n      add\n      add\n      mload\n        /* \"contracts/pixel_pictasia_utils.sol\":5830:5844  uint8(_buf[n]) */\n      0xf8\n      shr\n        /* \"contracts/pixel_pictasia_utils.sol\":5826:5844  c ^ uint8(_buf[n]) */\n      0xff\n      and\n        /* \"contracts/pixel_pictasia_utils.sol\":5826:5827  c */\n      dup5\n        /* \"contracts/pixel_pictasia_utils.sol\":5826:5844  c ^ uint8(_buf[n]) */\n      xor\n        /* \"contracts/pixel_pictasia_utils.sol\":5848:5851  255 */\n      0xff\n        /* \"contracts/pixel_pictasia_utils.sol\":5825:5851  (c ^ uint8(_buf[n])) & 255 */\n      and\n        /* \"contracts/pixel_pictasia_utils.sol\":5815:5852  CRC_TABLE[(c ^ uint8(_buf[n])) & 255] */\n      0x0100\n      dup2\n      lt\n      tag_239\n      jumpi\n      tag_239\n      tag_31\n      jump\t// in\n    tag_239:\n      add\n      sload\n        /* \"contracts/pixel_pictasia_utils.sol\":5815:5863  CRC_TABLE[(c ^ uint8(_buf[n])) & 255] ^ (c >> 8) */\n      xor\n      swap2\n      pop\n        /* \"contracts/pixel_pictasia_utils.sol\":5791:5794  n++ */\n      dup1\n      tag_241\n      dup2\n      tag_36\n      jump\t// in\n    tag_241:\n      swap2\n      pop\n      pop\n        /* \"contracts/pixel_pictasia_utils.sol\":5761:5875  for (uint256 n = 0; n < _len; n++) {... */\n      jump(tag_233)\n    tag_234:\n      pop\n        /* \"contracts/pixel_pictasia_utils.sol\":5902:5903  c */\n      swap5\n        /* \"contracts/pixel_pictasia_utils.sol\":5620:5911  function update_crc(uint256 _crc, bytes1[] memory _buf, uint256 _len) private view returns (uint256) {... */\n      swap4\n      pop\n      pop\n      pop\n      pop\n      jump\t// out\n        /* \"contracts/pixel_pictasia_utils.sol\":12825:13355  function add4ByteValue(bytes1[] memory _imageData, uint256 _i, uint256 _value) private pure returns (bytes1[] memory, uint256) {... */\n    tag_130:\n        /* \"contracts/pixel_pictasia_utils.sol\":12926:12941  bytes1[] memory */\n      0x60\n        /* \"contracts/pixel_pictasia_utils.sol\":12943:12950  uint256 */\n      0x00\n      not(sub(shl(0xf8, 0x01), 0x01))\n        /* \"contracts/pixel_pictasia_utils.sol\":13072:13114  bytes1(uint8((_value & 0xff000000) >> 24)) */\n      0xe0\n      dup5\n      swap1\n      shl\n      and\n        /* \"contracts/pixel_pictasia_utils.sol\":13053:13063  _imageData */\n      dup6\n        /* \"contracts/pixel_pictasia_utils.sol\":13064:13068  _i++ */\n      dup6\n      tag_243\n      dup2\n      tag_36\n      jump\t// in\n    tag_243:\n      swap7\n      pop\n        /* \"contracts/pixel_pictasia_utils.sol\":13053:13069  _imageData[_i++] */\n      dup2\n      mload\n      dup2\n      lt\n      tag_245\n      jumpi\n      tag_245\n      tag_31\n      jump\t// in\n    tag_245:\n      not(sub(shl(0xf8, 0x01), 0x01))\n        /* \"contracts/pixel_pictasia_utils.sol\":13053:13114  _imageData[_i++] = bytes1(uint8((_value & 0xff000000) >> 24)) */\n      swap3\n      dup4\n      and\n        /* \"contracts/pixel_pictasia_utils.sol\":13053:13069  _imageData[_i++] */\n      0x20\n      swap2\n      dup3\n      mul\n      swap3\n      swap1\n      swap3\n      add\n      add\n        /* \"contracts/pixel_pictasia_utils.sol\":13053:13114  _imageData[_i++] = bytes1(uint8((_value & 0xff000000) >> 24)) */\n      mstore\n        /* \"contracts/pixel_pictasia_utils.sol\":13144:13184  bytes1(uint8((_value & 0xff0000) >> 16)) */\n      0xe8\n      dup5\n      swap1\n      shl\n      and\n        /* \"contracts/pixel_pictasia_utils.sol\":13125:13135  _imageData */\n      dup6\n        /* \"contracts/pixel_pictasia_utils.sol\":13136:13140  _i++ */\n      dup6\n      tag_246\n      dup2\n      tag_36\n      jump\t// in\n    tag_246:\n      swap7\n      pop\n        /* \"contracts/pixel_pictasia_utils.sol\":13125:13141  _imageData[_i++] */\n      dup2\n      mload\n      dup2\n      lt\n      tag_248\n      jumpi\n      tag_248\n      tag_31\n      jump\t// in\n    tag_248:\n      not(sub(shl(0xf8, 0x01), 0x01))\n        /* \"contracts/pixel_pictasia_utils.sol\":13125:13184  _imageData[_i++] = bytes1(uint8((_value & 0xff0000) >> 16)) */\n      swap3\n      dup4\n      and\n        /* \"contracts/pixel_pictasia_utils.sol\":13125:13141  _imageData[_i++] */\n      0x20\n      swap2\n      dup3\n      mul\n      swap3\n      swap1\n      swap3\n      add\n      add\n        /* \"contracts/pixel_pictasia_utils.sol\":13125:13184  _imageData[_i++] = bytes1(uint8((_value & 0xff0000) >> 16)) */\n      mstore\n        /* \"contracts/pixel_pictasia_utils.sol\":13214:13251  bytes1(uint8((_value & 0xff00) >> 8)) */\n      0xf0\n      dup5\n      swap1\n      shl\n      and\n        /* \"contracts/pixel_pictasia_utils.sol\":13195:13205  _imageData */\n      dup6\n        /* \"contracts/pixel_pictasia_utils.sol\":13206:13210  _i++ */\n      dup6\n      tag_249\n      dup2\n      tag_36\n      jump\t// in\n    tag_249:\n      swap7\n      pop\n        /* \"contracts/pixel_pictasia_utils.sol\":13195:13211  _imageData[_i++] */\n      dup2\n      mload\n      dup2\n      lt\n      tag_251\n      jumpi\n      tag_251\n      tag_31\n      jump\t// in\n    tag_251:\n      not(sub(shl(0xf8, 0x01), 0x01))\n        /* \"contracts/pixel_pictasia_utils.sol\":13195:13251  _imageData[_i++] = bytes1(uint8((_value & 0xff00) >> 8)) */\n      swap3\n      dup4\n      and\n        /* \"contracts/pixel_pictasia_utils.sol\":13195:13211  _imageData[_i++] */\n      0x20\n      swap2\n      dup3\n      mul\n      swap3\n      swap1\n      swap3\n      add\n      add\n        /* \"contracts/pixel_pictasia_utils.sol\":13195:13251  _imageData[_i++] = bytes1(uint8((_value & 0xff00) >> 8)) */\n      mstore\n        /* \"contracts/pixel_pictasia_utils.sol\":13281:13311  bytes1(uint8((_value & 0xff))) */\n      0xf8\n      dup5\n      swap1\n      shl\n      and\n        /* \"contracts/pixel_pictasia_utils.sol\":13262:13272  _imageData */\n      dup6\n        /* \"contracts/pixel_pictasia_utils.sol\":13273:13277  _i++ */\n      dup6\n      tag_252\n      dup2\n      tag_36\n      jump\t// in\n    tag_252:\n      swap7\n      pop\n        /* \"contracts/pixel_pictasia_utils.sol\":13262:13278  _imageData[_i++] */\n      dup2\n      mload\n      dup2\n      lt\n      tag_254\n      jumpi\n      tag_254\n      tag_31\n      jump\t// in\n    tag_254:\n      not(sub(shl(0xf8, 0x01), 0x01))\n        /* \"contracts/pixel_pictasia_utils.sol\":13262:13311  _imageData[_i++] = bytes1(uint8((_value & 0xff))) */\n      swap3\n      swap1\n      swap3\n      and\n        /* \"contracts/pixel_pictasia_utils.sol\":13262:13278  _imageData[_i++] */\n      0x20\n      swap3\n      dup4\n      mul\n      swap2\n      swap1\n      swap2\n      add\n      swap1\n      swap2\n      add\n        /* \"contracts/pixel_pictasia_utils.sol\":13262:13311  _imageData[_i++] = bytes1(uint8((_value & 0xff))) */\n      mstore\n      pop\n        /* \"contracts/pixel_pictasia_utils.sol\":13332:13342  _imageData */\n      swap3\n      swap4\n        /* \"contracts/pixel_pictasia_utils.sol\":13344:13346  _i */\n      swap2\n      swap3\n      pop\n      pop\n        /* \"contracts/pixel_pictasia_utils.sol\":12825:13355  function add4ByteValue(bytes1[] memory _imageData, uint256 _i, uint256 _value) private pure returns (bytes1[] memory, uint256) {... */\n      jump\t// out\n        /* \"contracts/pixel_pictasia_utils.sol\":11901:12427  function addCRC(bytes1[] memory _imageData, uint256 _i, uint256 _iCRCStart, uint256 _iCRCEnd) private view returns (bytes1[] memory, uint256) {... */\n    tag_148:\n        /* \"contracts/pixel_pictasia_utils.sol\":12017:12032  bytes1[] memory */\n      0x60\n        /* \"contracts/pixel_pictasia_utils.sol\":12034:12041  uint256 */\n      0x00\n      dup1\n        /* \"contracts/pixel_pictasia_utils.sol\":12066:12087  _iCRCEnd - _iCRCStart */\n      tag_256\n        /* \"contracts/pixel_pictasia_utils.sol\":12077:12087  _iCRCStart */\n      dup6\n        /* \"contracts/pixel_pictasia_utils.sol\":12066:12074  _iCRCEnd */\n      dup6\n        /* \"contracts/pixel_pictasia_utils.sol\":12066:12087  _iCRCEnd - _iCRCStart */\n      tag_151\n      jump\t// in\n    tag_256:\n        /* \"contracts/pixel_pictasia_utils.sol\":12054:12087  uint256 L = _iCRCEnd - _iCRCStart */\n      swap1\n      pop\n        /* \"contracts/pixel_pictasia_utils.sol\":12100:12109  uint256 b */\n      0x00\n        /* \"contracts/pixel_pictasia_utils.sol\":12124:12143  bytes1[] memory buf */\n      dup1\n        /* \"contracts/pixel_pictasia_utils.sol\":12159:12160  L */\n      dup3\n        /* \"contracts/pixel_pictasia_utils.sol\":12146:12161  new bytes1[](L) */\n      0xffffffffffffffff\n      dup2\n      gt\n      iszero\n      tag_258\n      jumpi\n      tag_258\n      tag_51\n      jump\t// in\n    tag_258:\n      mload(0x40)\n      swap1\n      dup1\n      dup3\n      mstore\n      dup1\n      0x20\n      mul\n      0x20\n      add\n      dup3\n      add\n      0x40\n      mstore\n      dup1\n      iszero\n      tag_259\n      jumpi\n      dup2\n      0x20\n      add\n      0x20\n      dup3\n      mul\n      dup1\n      calldatasize\n      dup4\n      calldatacopy\n      add\n      swap1\n      pop\n    tag_259:\n      pop\n        /* \"contracts/pixel_pictasia_utils.sol\":12124:12161  bytes1[] memory buf = new bytes1[](L) */\n      swap1\n      pop\n        /* \"contracts/pixel_pictasia_utils.sol\":12190:12200  _iCRCStart */\n      dup7\n        /* \"contracts/pixel_pictasia_utils.sol\":12174:12272  for(uint256 x = _iCRCStart; x < _iCRCEnd; x++) {... */\n    tag_260:\n        /* \"contracts/pixel_pictasia_utils.sol\":12206:12214  _iCRCEnd */\n      dup7\n        /* \"contracts/pixel_pictasia_utils.sol\":12202:12203  x */\n      dup2\n        /* \"contracts/pixel_pictasia_utils.sol\":12202:12214  x < _iCRCEnd */\n      lt\n        /* \"contracts/pixel_pictasia_utils.sol\":12174:12272  for(uint256 x = _iCRCStart; x < _iCRCEnd; x++) {... */\n      iszero\n      tag_261\n      jumpi\n        /* \"contracts/pixel_pictasia_utils.sol\":12247:12257  _imageData */\n      dup10\n        /* \"contracts/pixel_pictasia_utils.sol\":12258:12259  x */\n      dup2\n        /* \"contracts/pixel_pictasia_utils.sol\":12247:12260  _imageData[x] */\n      dup2\n      mload\n      dup2\n      lt\n      tag_264\n      jumpi\n      tag_264\n      tag_31\n      jump\t// in\n    tag_264:\n      0x20\n      mul\n      0x20\n      add\n      add\n      mload\n        /* \"contracts/pixel_pictasia_utils.sol\":12236:12239  buf */\n      dup3\n        /* \"contracts/pixel_pictasia_utils.sol\":12240:12243  b++ */\n      dup5\n      dup1\n      tag_265\n      swap1\n      tag_36\n      jump\t// in\n    tag_265:\n      swap6\n      pop\n        /* \"contracts/pixel_pictasia_utils.sol\":12236:12244  buf[b++] */\n      dup2\n      mload\n      dup2\n      lt\n      tag_267\n      jumpi\n      tag_267\n      tag_31\n      jump\t// in\n    tag_267:\n      not(sub(shl(0xf8, 0x01), 0x01))\n        /* \"contracts/pixel_pictasia_utils.sol\":12236:12260  buf[b++] = _imageData[x] */\n      swap1\n      swap3\n      and\n        /* \"contracts/pixel_pictasia_utils.sol\":12236:12244  buf[b++] */\n      0x20\n      swap3\n      dup4\n      mul\n      swap2\n      swap1\n      swap2\n      add\n      swap1\n      swap2\n      add\n        /* \"contracts/pixel_pictasia_utils.sol\":12236:12260  buf[b++] = _imageData[x] */\n      mstore\n        /* \"contracts/pixel_pictasia_utils.sol\":12216:12219  x++ */\n      dup1\n      tag_268\n      dup2\n      tag_36\n      jump\t// in\n    tag_268:\n      swap2\n      pop\n      pop\n        /* \"contracts/pixel_pictasia_utils.sol\":12174:12272  for(uint256 x = _iCRCStart; x < _iCRCEnd; x++) {... */\n      jump(tag_260)\n    tag_261:\n      pop\n        /* \"contracts/pixel_pictasia_utils.sol\":12284:12300  uint256 crcValue */\n      0x00\n        /* \"contracts/pixel_pictasia_utils.sol\":12303:12314  crc(buf, L) */\n      tag_269\n        /* \"contracts/pixel_pictasia_utils.sol\":12307:12310  buf */\n      dup3\n        /* \"contracts/pixel_pictasia_utils.sol\":12312:12313  L */\n      dup6\n        /* \"contracts/pixel_pictasia_utils.sol\":12303:12306  crc */\n      tag_23\n        /* \"contracts/pixel_pictasia_utils.sol\":12303:12314  crc(buf, L) */\n      jump\t// in\n    tag_269:\n        /* \"contracts/pixel_pictasia_utils.sol\":12284:12314  uint256 crcValue = crc(buf, L) */\n      swap1\n      pop\n        /* \"contracts/pixel_pictasia_utils.sol\":12344:12383  add4ByteValue(_imageData, _i, crcValue) */\n      tag_270\n        /* \"contracts/pixel_pictasia_utils.sol\":12358:12368  _imageData */\n      dup11\n        /* \"contracts/pixel_pictasia_utils.sol\":12370:12372  _i */\n      dup11\n        /* \"contracts/pixel_pictasia_utils.sol\":12374:12382  crcValue */\n      dup4\n        /* \"contracts/pixel_pictasia_utils.sol\":12344:12357  add4ByteValue */\n      tag_130\n        /* \"contracts/pixel_pictasia_utils.sol\":12344:12383  add4ByteValue(_imageData, _i, crcValue) */\n      jump\t// in\n    tag_270:\n        /* \"contracts/pixel_pictasia_utils.sol\":12325:12383  (_imageData, _i) = add4ByteValue(_imageData, _i, crcValue) */\n      swap1\n      swap12\n      swap1\n      swap11\n      pop\n        /* \"contracts/pixel_pictasia_utils.sol\":11901:12427  function addCRC(bytes1[] memory _imageData, uint256 _i, uint256 _iCRCStart, uint256 _iCRCEnd) private view returns (bytes1[] memory, uint256) {... */\n      swap9\n      pop\n      pop\n      pop\n      pop\n      pop\n      pop\n      pop\n      pop\n      pop\n      jump\t// out\n        /* \"contracts/pixel_pictasia_utils.sol\":11327:11893  function addADLER32(bytes1[] memory _imageData, uint256 _i, uint256 _iADLER32Start, uint256 _iADLER32End) private pure returns (bytes1[] memory, uint256) {... */\n    tag_207:\n        /* \"contracts/pixel_pictasia_utils.sol\":11455:11470  bytes1[] memory */\n      0x60\n        /* \"contracts/pixel_pictasia_utils.sol\":11472:11479  uint256 */\n      0x00\n      dup1\n        /* \"contracts/pixel_pictasia_utils.sol\":11504:11533  _iADLER32End - _iADLER32Start */\n      tag_272\n        /* \"contracts/pixel_pictasia_utils.sol\":11519:11533  _iADLER32Start */\n      dup6\n        /* \"contracts/pixel_pictasia_utils.sol\":11504:11516  _iADLER32End */\n      dup6\n        /* \"contracts/pixel_pictasia_utils.sol\":11504:11533  _iADLER32End - _iADLER32Start */\n      tag_151\n      jump\t// in\n    tag_272:\n        /* \"contracts/pixel_pictasia_utils.sol\":11492:11533  uint256 L = _iADLER32End - _iADLER32Start */\n      swap1\n      pop\n        /* \"contracts/pixel_pictasia_utils.sol\":11546:11555  uint256 b */\n      0x00\n        /* \"contracts/pixel_pictasia_utils.sol\":11570:11589  bytes1[] memory buf */\n      dup1\n        /* \"contracts/pixel_pictasia_utils.sol\":11605:11606  L */\n      dup3\n        /* \"contracts/pixel_pictasia_utils.sol\":11592:11607  new bytes1[](L) */\n      0xffffffffffffffff\n      dup2\n      gt\n      iszero\n      tag_274\n      jumpi\n      tag_274\n      tag_51\n      jump\t// in\n    tag_274:\n      mload(0x40)\n      swap1\n      dup1\n      dup3\n      mstore\n      dup1\n      0x20\n      mul\n      0x20\n      add\n      dup3\n      add\n      0x40\n      mstore\n      dup1\n      iszero\n      tag_275\n      jumpi\n      dup2\n      0x20\n      add\n      0x20\n      dup3\n      mul\n      dup1\n      calldatasize\n      dup4\n      calldatacopy\n      add\n      swap1\n      pop\n    tag_275:\n      pop\n        /* \"contracts/pixel_pictasia_utils.sol\":11570:11607  bytes1[] memory buf = new bytes1[](L) */\n      swap1\n      pop\n        /* \"contracts/pixel_pictasia_utils.sol\":11636:11650  _iADLER32Start */\n      dup7\n        /* \"contracts/pixel_pictasia_utils.sol\":11620:11726  for(uint256 x = _iADLER32Start; x < _iADLER32End; x++) {... */\n    tag_276:\n        /* \"contracts/pixel_pictasia_utils.sol\":11656:11668  _iADLER32End */\n      dup7\n        /* \"contracts/pixel_pictasia_utils.sol\":11652:11653  x */\n      dup2\n        /* \"contracts/pixel_pictasia_utils.sol\":11652:11668  x < _iADLER32End */\n      lt\n        /* \"contracts/pixel_pictasia_utils.sol\":11620:11726  for(uint256 x = _iADLER32Start; x < _iADLER32End; x++) {... */\n      iszero\n      tag_277\n      jumpi\n        /* \"contracts/pixel_pictasia_utils.sol\":11701:11711  _imageData */\n      dup10\n        /* \"contracts/pixel_pictasia_utils.sol\":11712:11713  x */\n      dup2\n        /* \"contracts/pixel_pictasia_utils.sol\":11701:11714  _imageData[x] */\n      dup2\n      mload\n      dup2\n      lt\n      tag_280\n      jumpi\n      tag_280\n      tag_31\n      jump\t// in\n    tag_280:\n      0x20\n      mul\n      0x20\n      add\n      add\n      mload\n        /* \"contracts/pixel_pictasia_utils.sol\":11690:11693  buf */\n      dup3\n        /* \"contracts/pixel_pictasia_utils.sol\":11694:11697  b++ */\n      dup5\n      dup1\n      tag_281\n      swap1\n      tag_36\n      jump\t// in\n    tag_281:\n      swap6\n      pop\n        /* \"contracts/pixel_pictasia_utils.sol\":11690:11698  buf[b++] */\n      dup2\n      mload\n      dup2\n      lt\n      tag_283\n      jumpi\n      tag_283\n      tag_31\n      jump\t// in\n    tag_283:\n      not(sub(shl(0xf8, 0x01), 0x01))\n        /* \"contracts/pixel_pictasia_utils.sol\":11690:11714  buf[b++] = _imageData[x] */\n      swap1\n      swap3\n      and\n        /* \"contracts/pixel_pictasia_utils.sol\":11690:11698  buf[b++] */\n      0x20\n      swap3\n      dup4\n      mul\n      swap2\n      swap1\n      swap2\n      add\n      swap1\n      swap2\n      add\n        /* \"contracts/pixel_pictasia_utils.sol\":11690:11714  buf[b++] = _imageData[x] */\n      mstore\n        /* \"contracts/pixel_pictasia_utils.sol\":11670:11673  x++ */\n      dup1\n      tag_284\n      dup2\n      tag_36\n      jump\t// in\n    tag_284:\n      swap2\n      pop\n      pop\n        /* \"contracts/pixel_pictasia_utils.sol\":11620:11726  for(uint256 x = _iADLER32Start; x < _iADLER32End; x++) {... */\n      jump(tag_276)\n    tag_277:\n      pop\n        /* \"contracts/pixel_pictasia_utils.sol\":11738:11758  uint256 adler32Value */\n      0x00\n        /* \"contracts/pixel_pictasia_utils.sol\":11761:11776  adler32(buf, L) */\n      tag_269\n        /* \"contracts/pixel_pictasia_utils.sol\":11769:11772  buf */\n      dup3\n        /* \"contracts/pixel_pictasia_utils.sol\":11774:11775  L */\n      dup6\n        /* \"contracts/pixel_pictasia_utils.sol\":11761:11768  adler32 */\n      tag_10\n        /* \"contracts/pixel_pictasia_utils.sol\":11761:11776  adler32(buf, L) */\n      jump\t// in\n        /* \"contracts/pixel_pictasia_utils.sol\":12435:12817  function add2ByteValue(bytes1[] memory _imageData, uint256 _i, uint256 _value) private pure returns (bytes1[] memory, uint256) {... */\n    tag_213:\n        /* \"contracts/pixel_pictasia_utils.sol\":12536:12551  bytes1[] memory */\n      0x60\n        /* \"contracts/pixel_pictasia_utils.sol\":12553:12560  uint256 */\n      0x00\n      not(sub(shl(0xf8, 0x01), 0x01))\n        /* \"contracts/pixel_pictasia_utils.sol\":12676:12713  bytes1(uint8((_value & 0xff00) >> 8)) */\n      0xf0\n      dup5\n      swap1\n      shl\n      and\n        /* \"contracts/pixel_pictasia_utils.sol\":12657:12667  _imageData */\n      dup6\n        /* \"contracts/pixel_pictasia_utils.sol\":12668:12672  _i++ */\n      dup6\n      tag_249\n      dup2\n      tag_36\n      jump\t// in\n        /* \"#utility.yul\":14:141   */\n    tag_51:\n        /* \"#utility.yul\":75:85   */\n      0x4e487b71\n        /* \"#utility.yul\":70:73   */\n      0xe0\n        /* \"#utility.yul\":66:86   */\n      shl\n        /* \"#utility.yul\":63:64   */\n      0x00\n        /* \"#utility.yul\":56:87   */\n      mstore\n        /* \"#utility.yul\":106:110   */\n      0x41\n        /* \"#utility.yul\":103:104   */\n      0x04\n        /* \"#utility.yul\":96:111   */\n      mstore\n        /* \"#utility.yul\":130:134   */\n      0x24\n        /* \"#utility.yul\":127:128   */\n      0x00\n        /* \"#utility.yul\":120:135   */\n      revert\n        /* \"#utility.yul\":146:312   */\n    tag_294:\n        /* \"#utility.yul\":213:233   */\n      dup1\n      calldataload\n      not(sub(shl(0xf8, 0x01), 0x01))\n        /* \"#utility.yul\":262:287   */\n      dup2\n      and\n        /* \"#utility.yul\":252:288   */\n      dup2\n      eq\n        /* \"#utility.yul\":242:306   */\n      tag_301\n      jumpi\n        /* \"#utility.yul\":302:303   */\n      0x00\n        /* \"#utility.yul\":299:300   */\n      dup1\n        /* \"#utility.yul\":292:304   */\n      revert\n        /* \"#utility.yul\":242:306   */\n    tag_301:\n        /* \"#utility.yul\":146:312   */\n      swap2\n      swap1\n      pop\n      jump\t// out\n        /* \"#utility.yul\":317:1506   */\n    tag_9:\n        /* \"#utility.yul\":409:415   */\n      0x00\n        /* \"#utility.yul\":417:423   */\n      dup1\n        /* \"#utility.yul\":470:472   */\n      0x40\n        /* \"#utility.yul\":458:467   */\n      dup4\n        /* \"#utility.yul\":449:456   */\n      dup6\n        /* \"#utility.yul\":445:468   */\n      sub\n        /* \"#utility.yul\":441:473   */\n      slt\n        /* \"#utility.yul\":438:490   */\n      iszero\n      tag_303\n      jumpi\n        /* \"#utility.yul\":486:487   */\n      0x00\n        /* \"#utility.yul\":483:484   */\n      dup1\n        /* \"#utility.yul\":476:488   */\n      revert\n        /* \"#utility.yul\":438:490   */\n    tag_303:\n        /* \"#utility.yul\":526:535   */\n      dup3\n        /* \"#utility.yul\":513:536   */\n      calldataload\n        /* \"#utility.yul\":555:573   */\n      0xffffffffffffffff\n        /* \"#utility.yul\":596:598   */\n      dup1\n        /* \"#utility.yul\":588:594   */\n      dup3\n        /* \"#utility.yul\":585:599   */\n      gt\n        /* \"#utility.yul\":582:616   */\n      iszero\n      tag_304\n      jumpi\n        /* \"#utility.yul\":612:613   */\n      0x00\n        /* \"#utility.yul\":609:610   */\n      dup1\n        /* \"#utility.yul\":602:614   */\n      revert\n        /* \"#utility.yul\":582:616   */\n    tag_304:\n        /* \"#utility.yul\":650:656   */\n      dup2\n        /* \"#utility.yul\":639:648   */\n      dup6\n        /* \"#utility.yul\":635:657   */\n      add\n        /* \"#utility.yul\":625:657   */\n      swap2\n      pop\n        /* \"#utility.yul\":695:702   */\n      dup6\n        /* \"#utility.yul\":688:692   */\n      0x1f\n        /* \"#utility.yul\":684:686   */\n      dup4\n        /* \"#utility.yul\":680:693   */\n      add\n        /* \"#utility.yul\":676:703   */\n      slt\n        /* \"#utility.yul\":666:721   */\n      tag_305\n      jumpi\n        /* \"#utility.yul\":717:718   */\n      0x00\n        /* \"#utility.yul\":714:715   */\n      dup1\n        /* \"#utility.yul\":707:719   */\n      revert\n        /* \"#utility.yul\":666:721   */\n    tag_305:\n        /* \"#utility.yul\":753:755   */\n      dup2\n        /* \"#utility.yul\":740:756   */\n      calldataload\n        /* \"#utility.yul\":775:779   */\n      0x20\n        /* \"#utility.yul\":798:800   */\n      dup3\n        /* \"#utility.yul\":794:796   */\n      dup3\n        /* \"#utility.yul\":791:801   */\n      gt\n        /* \"#utility.yul\":788:824   */\n      iszero\n      tag_307\n      jumpi\n        /* \"#utility.yul\":804:822   */\n      tag_307\n      tag_51\n      jump\t// in\n    tag_307:\n        /* \"#utility.yul\":850:852   */\n      dup2\n        /* \"#utility.yul\":847:848   */\n      0x05\n        /* \"#utility.yul\":843:853   */\n      shl\n        /* \"#utility.yul\":882:884   */\n      0x40\n        /* \"#utility.yul\":876:885   */\n      mload\n        /* \"#utility.yul\":945:947   */\n      0x1f\n        /* \"#utility.yul\":941:948   */\n      not\n        /* \"#utility.yul\":936:938   */\n      0x3f\n        /* \"#utility.yul\":932:934   */\n      dup4\n        /* \"#utility.yul\":928:939   */\n      add\n        /* \"#utility.yul\":924:949   */\n      and\n        /* \"#utility.yul\":916:922   */\n      dup2\n        /* \"#utility.yul\":912:950   */\n      add\n        /* \"#utility.yul\":1000:1006   */\n      dup2\n        /* \"#utility.yul\":988:998   */\n      dup2\n        /* \"#utility.yul\":985:1007   */\n      lt\n        /* \"#utility.yul\":980:982   */\n      dup7\n        /* \"#utility.yul\":968:978   */\n      dup3\n        /* \"#utility.yul\":965:983   */\n      gt\n        /* \"#utility.yul\":962:1008   */\n      or\n        /* \"#utility.yul\":959:1031   */\n      iszero\n      tag_309\n      jumpi\n        /* \"#utility.yul\":1011:1029   */\n      tag_309\n      tag_51\n      jump\t// in\n    tag_309:\n        /* \"#utility.yul\":1047:1049   */\n      0x40\n        /* \"#utility.yul\":1040:1062   */\n      mstore\n        /* \"#utility.yul\":1097:1115   */\n      swap3\n      dup4\n      mstore\n        /* \"#utility.yul\":1131:1146   */\n      dup2\n      dup4\n      add\n      swap4\n      pop\n        /* \"#utility.yul\":1173:1184   */\n      dup5\n      dup2\n      add\n        /* \"#utility.yul\":1169:1189   */\n      dup3\n      add\n      swap3\n        /* \"#utility.yul\":1201:1220   */\n      dup10\n      dup5\n      gt\n        /* \"#utility.yul\":1198:1237   */\n      iszero\n      tag_310\n      jumpi\n        /* \"#utility.yul\":1233:1234   */\n      0x00\n        /* \"#utility.yul\":1230:1231   */\n      dup1\n        /* \"#utility.yul\":1223:1235   */\n      revert\n        /* \"#utility.yul\":1198:1237   */\n    tag_310:\n        /* \"#utility.yul\":1257:1268   */\n      swap5\n      dup3\n      add\n      swap5\n        /* \"#utility.yul\":1277:1424   */\n    tag_311:\n        /* \"#utility.yul\":1293:1299   */\n      dup4\n        /* \"#utility.yul\":1288:1291   */\n      dup7\n        /* \"#utility.yul\":1285:1300   */\n      lt\n        /* \"#utility.yul\":1277:1424   */\n      iszero\n      tag_313\n      jumpi\n        /* \"#utility.yul\":1359:1381   */\n      tag_314\n        /* \"#utility.yul\":1377:1380   */\n      dup7\n        /* \"#utility.yul\":1359:1381   */\n      tag_294\n      jump\t// in\n    tag_314:\n        /* \"#utility.yul\":1347:1382   */\n      dup6\n      mstore\n        /* \"#utility.yul\":1310:1322   */\n      swap5\n      dup3\n      add\n      swap5\n        /* \"#utility.yul\":1402:1414   */\n      swap4\n      dup3\n      add\n      swap4\n        /* \"#utility.yul\":1277:1424   */\n      jump(tag_311)\n    tag_313:\n        /* \"#utility.yul\":1443:1449   */\n      swap10\n        /* \"#utility.yul\":1481:1499   */\n      swap8\n      swap1\n      swap2\n      add\n        /* \"#utility.yul\":1468:1500   */\n      calldataload\n      swap8\n      pop\n      pop\n      pop\n      pop\n      pop\n      pop\n      pop\n        /* \"#utility.yul\":317:1506   */\n      jump\t// out\n        /* \"#utility.yul\":1693:1943   */\n    tag_295:\n        /* \"#utility.yul\":1778:1779   */\n      0x00\n        /* \"#utility.yul\":1788:1901   */\n    tag_317:\n        /* \"#utility.yul\":1802:1808   */\n      dup4\n        /* \"#utility.yul\":1799:1800   */\n      dup2\n        /* \"#utility.yul\":1796:1809   */\n      lt\n        /* \"#utility.yul\":1788:1901   */\n      iszero\n      tag_319\n      jumpi\n        /* \"#utility.yul\":1878:1889   */\n      dup2\n      dup2\n      add\n        /* \"#utility.yul\":1872:1890   */\n      mload\n        /* \"#utility.yul\":1859:1870   */\n      dup4\n      dup3\n      add\n        /* \"#utility.yul\":1852:1891   */\n      mstore\n        /* \"#utility.yul\":1824:1826   */\n      0x20\n        /* \"#utility.yul\":1817:1827   */\n      add\n        /* \"#utility.yul\":1788:1901   */\n      jump(tag_317)\n    tag_319:\n      pop\n      pop\n        /* \"#utility.yul\":1935:1936   */\n      0x00\n        /* \"#utility.yul\":1917:1933   */\n      swap2\n      add\n        /* \"#utility.yul\":1910:1937   */\n      mstore\n        /* \"#utility.yul\":1693:1943   */\n      jump\t// out\n        /* \"#utility.yul\":1948:2219   */\n    tag_296:\n        /* \"#utility.yul\":1990:1993   */\n      0x00\n        /* \"#utility.yul\":2028:2033   */\n      dup2\n        /* \"#utility.yul\":2022:2034   */\n      mload\n        /* \"#utility.yul\":2055:2061   */\n      dup1\n        /* \"#utility.yul\":2050:2053   */\n      dup5\n        /* \"#utility.yul\":2043:2062   */\n      mstore\n        /* \"#utility.yul\":2071:2147   */\n      tag_321\n        /* \"#utility.yul\":2140:2146   */\n      dup2\n        /* \"#utility.yul\":2133:2137   */\n      0x20\n        /* \"#utility.yul\":2128:2131   */\n      dup7\n        /* \"#utility.yul\":2124:2138   */\n      add\n        /* \"#utility.yul\":2117:2121   */\n      0x20\n        /* \"#utility.yul\":2110:2115   */\n      dup7\n        /* \"#utility.yul\":2106:2122   */\n      add\n        /* \"#utility.yul\":2071:2147   */\n      tag_295\n      jump\t// in\n    tag_321:\n        /* \"#utility.yul\":2201:2203   */\n      0x1f\n        /* \"#utility.yul\":2180:2195   */\n      add\n      not(0x1f)\n        /* \"#utility.yul\":2176:2205   */\n      and\n        /* \"#utility.yul\":2167:2206   */\n      swap3\n      swap1\n      swap3\n      add\n        /* \"#utility.yul\":2208:2212   */\n      0x20\n        /* \"#utility.yul\":2163:2213   */\n      add\n      swap3\n        /* \"#utility.yul\":1948:2219   */\n      swap2\n      pop\n      pop\n      jump\t// out\n        /* \"#utility.yul\":2224:2444   */\n    tag_16:\n        /* \"#utility.yul\":2373:2375   */\n      0x20\n        /* \"#utility.yul\":2362:2371   */\n      dup2\n        /* \"#utility.yul\":2355:2376   */\n      mstore\n        /* \"#utility.yul\":2336:2340   */\n      0x00\n        /* \"#utility.yul\":2393:2438   */\n      tag_323\n        /* \"#utility.yul\":2434:2436   */\n      0x20\n        /* \"#utility.yul\":2423:2432   */\n      dup4\n        /* \"#utility.yul\":2419:2437   */\n      add\n        /* \"#utility.yul\":2411:2417   */\n      dup5\n        /* \"#utility.yul\":2393:2438   */\n      tag_296\n      jump\t// in\n    tag_323:\n        /* \"#utility.yul\":2385:2438   */\n      swap4\n        /* \"#utility.yul\":2224:2444   */\n      swap3\n      pop\n      pop\n      pop\n      jump\t// out\n        /* \"#utility.yul\":2672:2799   */\n    tag_31:\n        /* \"#utility.yul\":2733:2743   */\n      0x4e487b71\n        /* \"#utility.yul\":2728:2731   */\n      0xe0\n        /* \"#utility.yul\":2724:2744   */\n      shl\n        /* \"#utility.yul\":2721:2722   */\n      0x00\n        /* \"#utility.yul\":2714:2745   */\n      mstore\n        /* \"#utility.yul\":2764:2768   */\n      0x32\n        /* \"#utility.yul\":2761:2762   */\n      0x04\n        /* \"#utility.yul\":2754:2769   */\n      mstore\n        /* \"#utility.yul\":2788:2792   */\n      0x24\n        /* \"#utility.yul\":2785:2786   */\n      0x00\n        /* \"#utility.yul\":2778:2793   */\n      revert\n        /* \"#utility.yul\":2804:2931   */\n    tag_297:\n        /* \"#utility.yul\":2865:2875   */\n      0x4e487b71\n        /* \"#utility.yul\":2860:2863   */\n      0xe0\n        /* \"#utility.yul\":2856:2876   */\n      shl\n        /* \"#utility.yul\":2853:2854   */\n      0x00\n        /* \"#utility.yul\":2846:2877   */\n      mstore\n        /* \"#utility.yul\":2896:2900   */\n      0x11\n        /* \"#utility.yul\":2893:2894   */\n      0x04\n        /* \"#utility.yul\":2886:2901   */\n      mstore\n        /* \"#utility.yul\":2920:2924   */\n      0x24\n        /* \"#utility.yul\":2917:2918   */\n      0x00\n        /* \"#utility.yul\":2910:2925   */\n      revert\n        /* \"#utility.yul\":2936:3061   */\n    tag_33:\n        /* \"#utility.yul\":3001:3010   */\n      dup1\n      dup3\n      add\n        /* \"#utility.yul\":3022:3032   */\n      dup1\n      dup3\n      gt\n        /* \"#utility.yul\":3019:3055   */\n      iszero\n      tag_25\n      jumpi\n        /* \"#utility.yul\":3035:3053   */\n      tag_25\n      tag_297\n      jump\t// in\n        /* \"#utility.yul\":3066:3201   */\n    tag_36:\n        /* \"#utility.yul\":3105:3108   */\n      0x00\n        /* \"#utility.yul\":3126:3143   */\n      0x01\n      dup3\n      add\n        /* \"#utility.yul\":3123:3166   */\n      tag_333\n      jumpi\n        /* \"#utility.yul\":3146:3164   */\n      tag_333\n      tag_297\n      jump\t// in\n    tag_333:\n      pop\n        /* \"#utility.yul\":3193:3194   */\n      0x01\n        /* \"#utility.yul\":3182:3195   */\n      add\n      swap1\n        /* \"#utility.yul\":3066:3201   */\n      jump\t// out\n        /* \"#utility.yul\":3206:3374   */\n    tag_38:\n        /* \"#utility.yul\":3279:3288   */\n      dup1\n      dup3\n      mul\n        /* \"#utility.yul\":3310:3319   */\n      dup2\n      iszero\n        /* \"#utility.yul\":3327:3342   */\n      dup3\n      dup3\n      div\n        /* \"#utility.yul\":3321:3343   */\n      dup5\n      eq\n        /* \"#utility.yul\":3307:3344   */\n      or\n        /* \"#utility.yul\":3297:3368   */\n      tag_25\n      jumpi\n        /* \"#utility.yul\":3348:3366   */\n      tag_25\n      tag_297\n      jump\t// in\n        /* \"#utility.yul\":3379:3668   */\n    tag_44:\n        /* \"#utility.yul\":3510:3513   */\n      0x00\n        /* \"#utility.yul\":3548:3554   */\n      dup3\n        /* \"#utility.yul\":3542:3555   */\n      mload\n        /* \"#utility.yul\":3564:3630   */\n      tag_338\n        /* \"#utility.yul\":3623:3629   */\n      dup2\n        /* \"#utility.yul\":3618:3621   */\n      dup5\n        /* \"#utility.yul\":3611:3615   */\n      0x20\n        /* \"#utility.yul\":3603:3609   */\n      dup8\n        /* \"#utility.yul\":3599:3616   */\n      add\n        /* \"#utility.yul\":3564:3630   */\n      tag_295\n      jump\t// in\n    tag_338:\n        /* \"#utility.yul\":3646:3662   */\n      swap2\n      swap1\n      swap2\n      add\n      swap3\n        /* \"#utility.yul\":3379:3668   */\n      swap2\n      pop\n      pop\n      jump\t// out\n        /* \"#utility.yul\":3673:4127   */\n    tag_47:\n      shl(0x52, 0x19185d184e9a5b5859d94bdc1b99ced8985cd94d8d0b)\n        /* \"#utility.yul\":3930:3933   */\n      dup2\n        /* \"#utility.yul\":3923:3960   */\n      mstore\n        /* \"#utility.yul\":3905:3908   */\n      0x00\n        /* \"#utility.yul\":3989:3995   */\n      dup3\n        /* \"#utility.yul\":3983:3996   */\n      mload\n        /* \"#utility.yul\":4005:4080   */\n      tag_340\n        /* \"#utility.yul\":4073:4079   */\n      dup2\n        /* \"#utility.yul\":4068:4070   */\n      0x16\n        /* \"#utility.yul\":4063:4066   */\n      dup6\n        /* \"#utility.yul\":4059:4071   */\n      add\n        /* \"#utility.yul\":4052:4056   */\n      0x20\n        /* \"#utility.yul\":4044:4050   */\n      dup8\n        /* \"#utility.yul\":4040:4057   */\n      add\n        /* \"#utility.yul\":4005:4080   */\n      tag_295\n      jump\t// in\n    tag_340:\n        /* \"#utility.yul\":4100:4116   */\n      swap2\n      swap1\n      swap2\n      add\n        /* \"#utility.yul\":4118:4120   */\n      0x16\n        /* \"#utility.yul\":4096:4121   */\n      add\n      swap3\n        /* \"#utility.yul\":3673:4127   */\n      swap2\n      pop\n      pop\n      jump\t// out\n        /* \"#utility.yul\":4132:4349   */\n    tag_79:\n        /* \"#utility.yul\":4172:4173   */\n      0x00\n        /* \"#utility.yul\":4198:4199   */\n      dup3\n        /* \"#utility.yul\":4188:4320   */\n      tag_342\n      jumpi\n        /* \"#utility.yul\":4242:4252   */\n      0x4e487b71\n        /* \"#utility.yul\":4237:4240   */\n      0xe0\n        /* \"#utility.yul\":4233:4253   */\n      shl\n        /* \"#utility.yul\":4230:4231   */\n      0x00\n        /* \"#utility.yul\":4223:4254   */\n      mstore\n        /* \"#utility.yul\":4277:4281   */\n      0x12\n        /* \"#utility.yul\":4274:4275   */\n      0x04\n        /* \"#utility.yul\":4267:4282   */\n      mstore\n        /* \"#utility.yul\":4305:4309   */\n      0x24\n        /* \"#utility.yul\":4302:4303   */\n      0x00\n        /* \"#utility.yul\":4295:4310   */\n      revert\n        /* \"#utility.yul\":4188:4320   */\n    tag_342:\n      pop\n        /* \"#utility.yul\":4334:4343   */\n      div\n      swap1\n        /* \"#utility.yul\":4132:4349   */\n      jump\t// out\n        /* \"#utility.yul\":4354:4482   */\n    tag_151:\n        /* \"#utility.yul\":4421:4430   */\n      dup2\n      dup2\n      sub\n        /* \"#utility.yul\":4442:4453   */\n      dup2\n      dup2\n      gt\n        /* \"#utility.yul\":4439:4476   */\n      iszero\n      tag_25\n      jumpi\n        /* \"#utility.yul\":4456:4474   */\n      tag_25\n      tag_297\n      jump\t// in\n    stop\n    data_84d8a590de33e00cbdc16e1f28c3506f5ec15c599fab9a6a4bcd575cc2f110ce 4142434445464748494a4b4c4d4e4f505152535455565758595a6162636465666768696a6b6c6d6e6f707172737475767778797a303132333435363738392b2f\n\n    auxdata: 0xa2646970667358221220bcfb8351a31361c792d2303ab67bc20b192ba81036ea10fb42b078b3bdd0fd8264736f6c63430008120033\n}\n",
				"bytecode": {
					"linkReferences": {},
					"object": "60806040526200000e62000014565b620000de565b60005b6101008110156200009d578060005b60088110156200006c57816001166001036200004f57600182901c63edb8832018915062000057565b600182901c91505b806200006381620000a0565b91505062000026565b50806000836101008110620000855762000085620000c8565b015550806200009481620000a0565b91505062000017565b50565b600060018201620000c157634e487b7160e01b600052601160045260246000fd5b5060010190565b634e487b7160e01b600052603260045260246000fd5b61141280620000ee6000396000f3fe608060405234801561001057600080fd5b506004361061004c5760003560e01c806319858b361461005157806348b508b714610077578063d0c8331c1461008c578063fe2a364914610094575b600080fd5b61006461005f366004611169565b6100a7565b6040519081526020015b60405180910390f35b61007f610125565b60405161006e9190611284565b61007f610186565b6100646100a2366004611169565b61029c565b6000600181805b84811015610101578581815181106100c8576100c861129e565b602002602001015160f81c60ff16836100e191906112ca565b92506100ed83836112ca565b9150806100f9816112dd565b9150506100ae565b508161011082620100006112f6565b61011a91906112ca565b925050505b92915050565b60606000610131610186565b905060008190506101608160405160200161014c919061130d565b6040516020818303038152906040526102ba565b6040516020016101709190611329565b6040516020818303038152906040529250505090565b604080516064808252610ca08201909252606091600091829160208201610c80803683370190505090506101ba818361040d565b925090506101cc8183600360016105f2565b925090506101da8183610867565b925090506101e88183610ccd565b9250905060008267ffffffffffffffff81111561020757610207611136565b6040519080825280601f01601f191660200182016040528015610231576020820181803683370190505b50905060005b83811015610294578281815181106102515761025161129e565b602002602001015182828151811061026b5761026b61129e565b60200101906001600160f81b031916908160001a9053508061028c816112dd565b915050610237565b509392505050565b60006102ad63ffffffff8484610de9565b63ffffffff189392505050565b606081516000036102d957505060408051602081019091526000815290565b600060405180606001604052806040815260200161139d604091399050600060038451600261030891906112ca565b6103129190611367565b61031d9060046112f6565b67ffffffffffffffff81111561033557610335611136565b6040519080825280601f01601f19166020018201604052801561035f576020820181803683370190505b509050600182016020820185865187015b808210156103cb576003820191508151603f8160121c168501518453600184019350603f81600c1c168501518453600184019350603f8160061c168501518453600184019350603f8116850151845350600183019250610370565b50506003865106600181146103e757600281146103fa57610402565b603d6001830353603d6002830353610402565b603d60018303535b509195945050505050565b60606000608960f81b8484610421816112dd565b9550815181106104335761043361129e565b6001600160f81b031990921660209283029190910190910152600560fc1b848461045c816112dd565b95508151811061046e5761046e61129e565b6001600160f81b031990921660209283029190910190910152602760f91b8484610497816112dd565b9550815181106104a9576104a961129e565b6001600160f81b031990921660209283029190910190910152604760f81b84846104d2816112dd565b9550815181106104e4576104e461129e565b6001600160f81b031990921660209283029190910190910152600d60f81b848461050d816112dd565b95508151811061051f5761051f61129e565b6001600160f81b031990921660209283029190910190910152600560f91b8484610548816112dd565b95508151811061055a5761055a61129e565b6001600160f81b031990921660209283029190910190910152600d60f91b8484610583816112dd565b9550815181106105955761059561129e565b6001600160f81b031990921660209283029190910190910152600560f91b84846105be816112dd565b9550815181106105d0576105d061129e565b6001600160f81b03199290921660209283029190910190910152509192909150565b60606000846106026004826112ca565b955085604960f81b8882610615816112dd565b9950815181106106275761062761129e565b6001600160f81b031990921660209283029190910190910152600960fb1b8888610650816112dd565b9950815181106106625761066261129e565b6001600160f81b031990921660209283029190910190910152601160fa1b888861068b816112dd565b99508151811061069d5761069d61129e565b6001600160f81b031990921660209283029190910190910152602960f91b88886106c6816112dd565b9950815181106106d8576106d861129e565b6001600160f81b031990921660209283029190910190910152866106fd898289610e53565b909950975061070d898988610e53565b9099509750600160fb1b8989610722816112dd565b9a50815181106107345761073461129e565b6001600160f81b031990921660209283029190910190910152600160f91b898961075d816112dd565b9a508151811061076f5761076f61129e565b6001600160f81b03199092166020928302919091019091015260008989610795816112dd565b9a50815181106107a7576107a761129e565b6001600160f81b031990921660209283029190910190910152600089896107cd816112dd565b9a50815181106107df576107df61129e565b6001600160f81b03199092166020928302919091019091015260008989610805816112dd565b9a50815181106108175761081761129e565b6001600160f81b031990921660209283029190910190910152878061083e8b828681610f54565b909b5099506108578b866108528686611389565b610e53565b509b999a50505050505050505050565b60606000826108776004826112ca565b935083604960f81b868261088a816112dd565b97508151811061089c5761089c61129e565b6001600160f81b031990921660209283029190910190910152601160fa1b86866108c5816112dd565b9750815181106108d7576108d761129e565b6001600160f81b031990921660209283029190910190910152604160f81b8686610900816112dd565b9750815181106109125761091261129e565b6001600160f81b031990921660209283029190910190910152601560fa1b868661093b816112dd565b97508151811061094d5761094d61129e565b6001600160f81b03199092166020928302919091019091015284600f60fb1b8782610977816112dd565b9850815181106109895761098961129e565b6001600160f81b031990921660209283029190910190910152600160f81b87876109b2816112dd565b9850815181106109c4576109c461129e565b6001600160f81b031990921660209283029190910190910152600160f81b87876109ed816112dd565b9850815181106109ff576109ff61129e565b6001600160f81b03199092166020928302919091019091015285610a246004826112ca565b9650868060008a82610a35816112dd565b9b5081518110610a4757610a4761129e565b6001600160f81b031992831660209182029290920101528a8a610a69816112dd565b9b5081518110610a7b57610a7b61129e565b6001600160f81b03199092166020928302919091019091015260008a8a610aa1816112dd565b9b5081518110610ab357610ab361129e565b6001600160f81b03199092166020928302919091019091015260008a8a610ad9816112dd565b9b5081518110610aeb57610aeb61129e565b6001600160f81b03199092166020928302919091019091015260008a8a610b11816112dd565b9b5081518110610b2357610b2361129e565b6001600160f81b031992831660209182029290920101528a8a610b45816112dd565b9b5081518110610b5757610b5761129e565b6001600160f81b03199092166020928302919091019091015260008a8a610b7d816112dd565b9b5081518110610b8f57610b8f61129e565b6001600160f81b03199092166020928302919091019091015260008a8a610bb5816112dd565b9b5081518110610bc757610bc761129e565b6001600160f81b03199092166020928302919091019091015260008a8a610bed816112dd565b9b5081518110610bff57610bff61129e565b6001600160f81b031992831660209182029290920101528a8a610c21816112dd565b9b5081518110610c3357610c3361129e565b6001600160f81b0319909216602092830291909101909101528880610c5a8c828681611045565b909c509a508a80610c6d8e828b81610f54565b909e509c50610c818e8b6108528b86611389565b909e509950610c9a8e88610c958887611389565b611118565b909e509650610cba8e88610cae8887611389565b610c959061ffff611389565b509e9c9d50505050505050505050505050565b60606000610cdd84846000610e53565b909450925082604960f81b8582610cf3816112dd565b965081518110610d0557610d0561129e565b6001600160f81b031990921660209283029190910190910152604560f81b8585610d2e816112dd565b965081518110610d4057610d4061129e565b6001600160f81b031990921660209283029190910190910152602760f91b8585610d69816112dd565b965081518110610d7b57610d7b61129e565b6001600160f81b031990921660209283029190910190910152601160fa1b8585610da4816112dd565b965081518110610db657610db661129e565b6001600160f81b03199092166020928302919091019091015283610ddc86828481610f54565b9097909650945050505050565b600083815b83811015610e4a57600882901c6000868381518110610e0f57610e0f61129e565b602002602001015160f81c60ff16841860ff166101008110610e3357610e3361129e565b015418915080610e42816112dd565b915050610dee565b50949350505050565b606060006001600160f81b031960e084901b168585610e71816112dd565b965081518110610e8357610e8361129e565b6001600160f81b0319928316602091820292909201015260e884901b168585610eab816112dd565b965081518110610ebd57610ebd61129e565b6001600160f81b0319928316602091820292909201015260f084901b168585610ee5816112dd565b965081518110610ef757610ef761129e565b6001600160f81b0319928316602091820292909201015260f884901b168585610f1f816112dd565b965081518110610f3157610f3161129e565b6001600160f81b0319929092166020928302919091019091015250929391925050565b6060600080610f638585611389565b90506000808267ffffffffffffffff811115610f8157610f81611136565b604051908082528060200260200182016040528015610faa578160200160208202803683370190505b509050865b8681101561101a57898181518110610fc957610fc961129e565b6020026020010151828480610fdd906112dd565b955081518110610fef57610fef61129e565b6001600160f81b03199092166020928302919091019091015280611012816112dd565b915050610faf565b506000611027828561029c565b90506110348a8a83610e53565b909b909a5098505050505050505050565b60606000806110548585611389565b90506000808267ffffffffffffffff81111561107257611072611136565b60405190808252806020026020018201604052801561109b578160200160208202803683370190505b509050865b8681101561110b578981815181106110ba576110ba61129e565b60200260200101518284806110ce906112dd565b9550815181106110e0576110e061129e565b6001600160f81b03199092166020928302919091019091015280611103816112dd565b9150506110a0565b50600061102782856100a7565b606060006001600160f81b031960f084901b168585610ee5816112dd565b634e487b7160e01b600052604160045260246000fd5b80356001600160f81b03198116811461116457600080fd5b919050565b6000806040838503121561117c57600080fd5b823567ffffffffffffffff8082111561119457600080fd5b818501915085601f8301126111a857600080fd5b81356020828211156111bc576111bc611136565b8160051b604051601f19603f830116810181811086821117156111e1576111e1611136565b6040529283528183019350848101820192898411156111ff57600080fd5b948201945b83861015611224576112158661114c565b85529482019493820193611204565b9997909101359750505050505050565b60005b8381101561124f578181015183820152602001611237565b50506000910152565b60008151808452611270816020860160208601611234565b601f01601f19169290920160200192915050565b6020815260006112976020830184611258565b9392505050565b634e487b7160e01b600052603260045260246000fd5b634e487b7160e01b600052601160045260246000fd5b8082018082111561011f5761011f6112b4565b6000600182016112ef576112ef6112b4565b5060010190565b808202811582820484141761011f5761011f6112b4565b6000825161131f818460208701611234565b9190910192915050565b7519185d184e9a5b5859d94bdc1b99ced8985cd94d8d0b60521b81526000825161135a816016850160208701611234565b9190910160160192915050565b60008261138457634e487b7160e01b600052601260045260246000fd5b500490565b8181038181111561011f5761011f6112b456fe4142434445464748494a4b4c4d4e4f505152535455565758595a6162636465666768696a6b6c6d6e6f707172737475767778797a303132333435363738392b2fa2646970667358221220bcfb8351a31361c792d2303ab67bc20b192ba81036ea10fb42b078b3bdd0fd8264736f6c63430008120033",
					"opcodes": "PUSH1 0x80 PUSH1 0x40 MSTORE PUSH3 0xE PUSH3 0x14 JUMP JUMPDEST PUSH3 0xDE JUMP JUMPDEST PUSH1 0x0 JUMPDEST PUSH2 0x100 DUP2 LT ISZERO PUSH3 0x9D JUMPI DUP1 PUSH1 0x0 JUMPDEST PUSH1 0x8 DUP2 LT ISZERO PUSH3 0x6C JUMPI DUP2 PUSH1 0x1 AND PUSH1 0x1 SUB PUSH3 0x4F JUMPI PUSH1 0x1 DUP3 SWAP1 SHR PUSH4 0xEDB88320 XOR SWAP2 POP PUSH3 0x57 JUMP JUMPDEST PUSH1 0x1 DUP3 SWAP1 SHR SWAP2 POP JUMPDEST DUP1 PUSH3 0x63 DUP2 PUSH3 0xA0 JUMP JUMPDEST SWAP2 POP POP PUSH3 0x26 JUMP JUMPDEST POP DUP1 PUSH1 0x0 DUP4 PUSH2 0x100 DUP2 LT PUSH3 0x85 JUMPI PUSH3 0x85 PUSH3 0xC8 JUMP JUMPDEST ADD SSTORE POP DUP1 PUSH3 0x94 DUP2 PUSH3 0xA0 JUMP JUMPDEST SWAP2 POP POP PUSH3 0x17 JUMP JUMPDEST POP JUMP JUMPDEST PUSH1 0x0 PUSH1 0x1 DUP3 ADD PUSH3 0xC1 JUMPI PUSH4 0x4E487B71 PUSH1 0xE0 SHL PUSH1 0x0 MSTORE PUSH1 0x11 PUSH1 0x4 MSTORE PUSH1 0x24 PUSH1 0x0 REVERT JUMPDEST POP PUSH1 0x1 ADD SWAP1 JUMP JUMPDEST PUSH4 0x4E487B71 PUSH1 0xE0 SHL PUSH1 0x0 MSTORE PUSH1 0x32 PUSH1 0x4 MSTORE PUSH1 0x24 PUSH1 0x0 REVERT JUMPDEST PUSH2 0x1412 DUP1 PUSH3 0xEE PUSH1 0x0 CODECOPY PUSH1 0x0 RETURN INVALID PUSH1 0x80 PUSH1 0x40 MSTORE CALLVALUE DUP1 ISZERO PUSH2 0x10 JUMPI PUSH1 0x0 DUP1 REVERT JUMPDEST POP PUSH1 0x4 CALLDATASIZE LT PUSH2 0x4C JUMPI PUSH1 0x0 CALLDATALOAD PUSH1 0xE0 SHR DUP1 PUSH4 0x19858B36 EQ PUSH2 0x51 JUMPI DUP1 PUSH4 0x48B508B7 EQ PUSH2 0x77 JUMPI DUP1 PUSH4 0xD0C8331C EQ PUSH2 0x8C JUMPI DUP1 PUSH4 0xFE2A3649 EQ PUSH2 0x94 JUMPI JUMPDEST PUSH1 0x0 DUP1 REVERT JUMPDEST PUSH2 0x64 PUSH2 0x5F CALLDATASIZE PUSH1 0x4 PUSH2 0x1169 JUMP JUMPDEST PUSH2 0xA7 JUMP JUMPDEST PUSH1 0x40 MLOAD SWAP1 DUP2 MSTORE PUSH1 0x20 ADD JUMPDEST PUSH1 0x40 MLOAD DUP1 SWAP2 SUB SWAP1 RETURN JUMPDEST PUSH2 0x7F PUSH2 0x125 JUMP JUMPDEST PUSH1 0x40 MLOAD PUSH2 0x6E SWAP2 SWAP1 PUSH2 0x1284 JUMP JUMPDEST PUSH2 0x7F PUSH2 0x186 JUMP JUMPDEST PUSH2 0x64 PUSH2 0xA2 CALLDATASIZE PUSH1 0x4 PUSH2 0x1169 JUMP JUMPDEST PUSH2 0x29C JUMP JUMPDEST PUSH1 0x0 PUSH1 0x1 DUP2 DUP1 JUMPDEST DUP5 DUP2 LT ISZERO PUSH2 0x101 JUMPI DUP6 DUP2 DUP2 MLOAD DUP2 LT PUSH2 0xC8 JUMPI PUSH2 0xC8 PUSH2 0x129E JUMP JUMPDEST PUSH1 0x20 MUL PUSH1 0x20 ADD ADD MLOAD PUSH1 0xF8 SHR PUSH1 0xFF AND DUP4 PUSH2 0xE1 SWAP2 SWAP1 PUSH2 0x12CA JUMP JUMPDEST SWAP3 POP PUSH2 0xED DUP4 DUP4 PUSH2 0x12CA JUMP JUMPDEST SWAP2 POP DUP1 PUSH2 0xF9 DUP2 PUSH2 0x12DD JUMP JUMPDEST SWAP2 POP POP PUSH2 0xAE JUMP JUMPDEST POP DUP2 PUSH2 0x110 DUP3 PUSH3 0x10000 PUSH2 0x12F6 JUMP JUMPDEST PUSH2 0x11A SWAP2 SWAP1 PUSH2 0x12CA JUMP JUMPDEST SWAP3 POP POP POP JUMPDEST SWAP3 SWAP2 POP POP JUMP JUMPDEST PUSH1 0x60 PUSH1 0x0 PUSH2 0x131 PUSH2 0x186 JUMP JUMPDEST SWAP1 POP PUSH1 0x0 DUP2 SWAP1 POP PUSH2 0x160 DUP2 PUSH1 0x40 MLOAD PUSH1 0x20 ADD PUSH2 0x14C SWAP2 SWAP1 PUSH2 0x130D JUMP JUMPDEST PUSH1 0x40 MLOAD PUSH1 0x20 DUP2 DUP4 SUB SUB DUP2 MSTORE SWAP1 PUSH1 0x40 MSTORE PUSH2 0x2BA JUMP JUMPDEST PUSH1 0x40 MLOAD PUSH1 0x20 ADD PUSH2 0x170 SWAP2 SWAP1 PUSH2 0x1329 JUMP JUMPDEST PUSH1 0x40 MLOAD PUSH1 0x20 DUP2 DUP4 SUB SUB DUP2 MSTORE SWAP1 PUSH1 0x40 MSTORE SWAP3 POP POP POP SWAP1 JUMP JUMPDEST PUSH1 0x40 DUP1 MLOAD PUSH1 0x64 DUP1 DUP3 MSTORE PUSH2 0xCA0 DUP3 ADD SWAP1 SWAP3 MSTORE PUSH1 0x60 SWAP2 PUSH1 0x0 SWAP2 DUP3 SWAP2 PUSH1 0x20 DUP3 ADD PUSH2 0xC80 DUP1 CALLDATASIZE DUP4 CALLDATACOPY ADD SWAP1 POP POP SWAP1 POP PUSH2 0x1BA DUP2 DUP4 PUSH2 0x40D JUMP JUMPDEST SWAP3 POP SWAP1 POP PUSH2 0x1CC DUP2 DUP4 PUSH1 0x3 PUSH1 0x1 PUSH2 0x5F2 JUMP JUMPDEST SWAP3 POP SWAP1 POP PUSH2 0x1DA DUP2 DUP4 PUSH2 0x867 JUMP JUMPDEST SWAP3 POP SWAP1 POP PUSH2 0x1E8 DUP2 DUP4 PUSH2 0xCCD JUMP JUMPDEST SWAP3 POP SWAP1 POP PUSH1 0x0 DUP3 PUSH8 0xFFFFFFFFFFFFFFFF DUP2 GT ISZERO PUSH2 0x207 JUMPI PUSH2 0x207 PUSH2 0x1136 JUMP JUMPDEST PUSH1 0x40 MLOAD SWAP1 DUP1 DUP3 MSTORE DUP1 PUSH1 0x1F ADD PUSH1 0x1F NOT AND PUSH1 0x20 ADD DUP3 ADD PUSH1 0x40 MSTORE DUP1 ISZERO PUSH2 0x231 JUMPI PUSH1 0x20 DUP3 ADD DUP2 DUP1 CALLDATASIZE DUP4 CALLDATACOPY ADD SWAP1 POP JUMPDEST POP SWAP1 POP PUSH1 0x0 JUMPDEST DUP4 DUP2 LT ISZERO PUSH2 0x294 JUMPI DUP3 DUP2 DUP2 MLOAD DUP2 LT PUSH2 0x251 JUMPI PUSH2 0x251 PUSH2 0x129E JUMP JUMPDEST PUSH1 0x20 MUL PUSH1 0x20 ADD ADD MLOAD DUP3 DUP3 DUP2 MLOAD DUP2 LT PUSH2 0x26B JUMPI PUSH2 0x26B PUSH2 0x129E JUMP JUMPDEST PUSH1 0x20 ADD ADD SWAP1 PUSH1 0x1 PUSH1 0x1 PUSH1 0xF8 SHL SUB NOT AND SWAP1 DUP2 PUSH1 0x0 BYTE SWAP1 MSTORE8 POP DUP1 PUSH2 0x28C DUP2 PUSH2 0x12DD JUMP JUMPDEST SWAP2 POP POP PUSH2 0x237 JUMP JUMPDEST POP SWAP4 SWAP3 POP POP POP JUMP JUMPDEST PUSH1 0x0 PUSH2 0x2AD PUSH4 0xFFFFFFFF DUP5 DUP5 PUSH2 0xDE9 JUMP JUMPDEST PUSH4 0xFFFFFFFF XOR SWAP4 SWAP3 POP POP POP JUMP JUMPDEST PUSH1 0x60 DUP2 MLOAD PUSH1 0x0 SUB PUSH2 0x2D9 JUMPI POP POP PUSH1 0x40 DUP1 MLOAD PUSH1 0x20 DUP2 ADD SWAP1 SWAP2 MSTORE PUSH1 0x0 DUP2 MSTORE SWAP1 JUMP JUMPDEST PUSH1 0x0 PUSH1 0x40 MLOAD DUP1 PUSH1 0x60 ADD PUSH1 0x40 MSTORE DUP1 PUSH1 0x40 DUP2 MSTORE PUSH1 0x20 ADD PUSH2 0x139D PUSH1 0x40 SWAP2 CODECOPY SWAP1 POP PUSH1 0x0 PUSH1 0x3 DUP5 MLOAD PUSH1 0x2 PUSH2 0x308 SWAP2 SWAP1 PUSH2 0x12CA JUMP JUMPDEST PUSH2 0x312 SWAP2 SWAP1 PUSH2 0x1367 JUMP JUMPDEST PUSH2 0x31D SWAP1 PUSH1 0x4 PUSH2 0x12F6 JUMP JUMPDEST PUSH8 0xFFFFFFFFFFFFFFFF DUP2 GT ISZERO PUSH2 0x335 JUMPI PUSH2 0x335 PUSH2 0x1136 JUMP JUMPDEST PUSH1 0x40 MLOAD SWAP1 DUP1 DUP3 MSTORE DUP1 PUSH1 0x1F ADD PUSH1 0x1F NOT AND PUSH1 0x20 ADD DUP3 ADD PUSH1 0x40 MSTORE DUP1 ISZERO PUSH2 0x35F JUMPI PUSH1 0x20 DUP3 ADD DUP2 DUP1 CALLDATASIZE DUP4 CALLDATACOPY ADD SWAP1 POP JUMPDEST POP SWAP1 POP PUSH1 0x1 DUP3 ADD PUSH1 0x20 DUP3 ADD DUP6 DUP7 MLOAD DUP8 ADD JUMPDEST DUP1 DUP3 LT ISZERO PUSH2 0x3CB JUMPI PUSH1 0x3 DUP3 ADD SWAP2 POP DUP2 MLOAD PUSH1 0x3F DUP2 PUSH1 0x12 SHR AND DUP6 ADD MLOAD DUP5 MSTORE8 PUSH1 0x1 DUP5 ADD SWAP4 POP PUSH1 0x3F DUP2 PUSH1 0xC SHR AND DUP6 ADD MLOAD DUP5 MSTORE8 PUSH1 0x1 DUP5 ADD SWAP4 POP PUSH1 0x3F DUP2 PUSH1 0x6 SHR AND DUP6 ADD MLOAD DUP5 MSTORE8 PUSH1 0x1 DUP5 ADD SWAP4 POP PUSH1 0x3F DUP2 AND DUP6 ADD MLOAD DUP5 MSTORE8 POP PUSH1 0x1 DUP4 ADD SWAP3 POP PUSH2 0x370 JUMP JUMPDEST POP POP PUSH1 0x3 DUP7 MLOAD MOD PUSH1 0x1 DUP2 EQ PUSH2 0x3E7 JUMPI PUSH1 0x2 DUP2 EQ PUSH2 0x3FA JUMPI PUSH2 0x402 JUMP JUMPDEST PUSH1 0x3D PUSH1 0x1 DUP4 SUB MSTORE8 PUSH1 0x3D PUSH1 0x2 DUP4 SUB MSTORE8 PUSH2 0x402 JUMP JUMPDEST PUSH1 0x3D PUSH1 0x1 DUP4 SUB MSTORE8 JUMPDEST POP SWAP2 SWAP6 SWAP5 POP POP POP POP POP JUMP JUMPDEST PUSH1 0x60 PUSH1 0x0 PUSH1 0x89 PUSH1 0xF8 SHL DUP5 DUP5 PUSH2 0x421 DUP2 PUSH2 0x12DD JUMP JUMPDEST SWAP6 POP DUP2 MLOAD DUP2 LT PUSH2 0x433 JUMPI PUSH2 0x433 PUSH2 0x129E JUMP JUMPDEST PUSH1 0x1 PUSH1 0x1 PUSH1 0xF8 SHL SUB NOT SWAP1 SWAP3 AND PUSH1 0x20 SWAP3 DUP4 MUL SWAP2 SWAP1 SWAP2 ADD SWAP1 SWAP2 ADD MSTORE PUSH1 0x5 PUSH1 0xFC SHL DUP5 DUP5 PUSH2 0x45C DUP2 PUSH2 0x12DD JUMP JUMPDEST SWAP6 POP DUP2 MLOAD DUP2 LT PUSH2 0x46E JUMPI PUSH2 0x46E PUSH2 0x129E JUMP JUMPDEST PUSH1 0x1 PUSH1 0x1 PUSH1 0xF8 SHL SUB NOT SWAP1 SWAP3 AND PUSH1 0x20 SWAP3 DUP4 MUL SWAP2 SWAP1 SWAP2 ADD SWAP1 SWAP2 ADD MSTORE PUSH1 0x27 PUSH1 0xF9 SHL DUP5 DUP5 PUSH2 0x497 DUP2 PUSH2 0x12DD JUMP JUMPDEST SWAP6 POP DUP2 MLOAD DUP2 LT PUSH2 0x4A9 JUMPI PUSH2 0x4A9 PUSH2 0x129E JUMP JUMPDEST PUSH1 0x1 PUSH1 0x1 PUSH1 0xF8 SHL SUB NOT SWAP1 SWAP3 AND PUSH1 0x20 SWAP3 DUP4 MUL SWAP2 SWAP1 SWAP2 ADD SWAP1 SWAP2 ADD MSTORE PUSH1 0x47 PUSH1 0xF8 SHL DUP5 DUP5 PUSH2 0x4D2 DUP2 PUSH2 0x12DD JUMP JUMPDEST SWAP6 POP DUP2 MLOAD DUP2 LT PUSH2 0x4E4 JUMPI PUSH2 0x4E4 PUSH2 0x129E JUMP JUMPDEST PUSH1 0x1 PUSH1 0x1 PUSH1 0xF8 SHL SUB NOT SWAP1 SWAP3 AND PUSH1 0x20 SWAP3 DUP4 MUL SWAP2 SWAP1 SWAP2 ADD SWAP1 SWAP2 ADD MSTORE PUSH1 0xD PUSH1 0xF8 SHL DUP5 DUP5 PUSH2 0x50D DUP2 PUSH2 0x12DD JUMP JUMPDEST SWAP6 POP DUP2 MLOAD DUP2 LT PUSH2 0x51F JUMPI PUSH2 0x51F PUSH2 0x129E JUMP JUMPDEST PUSH1 0x1 PUSH1 0x1 PUSH1 0xF8 SHL SUB NOT SWAP1 SWAP3 AND PUSH1 0x20 SWAP3 DUP4 MUL SWAP2 SWAP1 SWAP2 ADD SWAP1 SWAP2 ADD MSTORE PUSH1 0x5 PUSH1 0xF9 SHL DUP5 DUP5 PUSH2 0x548 DUP2 PUSH2 0x12DD JUMP JUMPDEST SWAP6 POP DUP2 MLOAD DUP2 LT PUSH2 0x55A JUMPI PUSH2 0x55A PUSH2 0x129E JUMP JUMPDEST PUSH1 0x1 PUSH1 0x1 PUSH1 0xF8 SHL SUB NOT SWAP1 SWAP3 AND PUSH1 0x20 SWAP3 DUP4 MUL SWAP2 SWAP1 SWAP2 ADD SWAP1 SWAP2 ADD MSTORE PUSH1 0xD PUSH1 0xF9 SHL DUP5 DUP5 PUSH2 0x583 DUP2 PUSH2 0x12DD JUMP JUMPDEST SWAP6 POP DUP2 MLOAD DUP2 LT PUSH2 0x595 JUMPI PUSH2 0x595 PUSH2 0x129E JUMP JUMPDEST PUSH1 0x1 PUSH1 0x1 PUSH1 0xF8 SHL SUB NOT SWAP1 SWAP3 AND PUSH1 0x20 SWAP3 DUP4 MUL SWAP2 SWAP1 SWAP2 ADD SWAP1 SWAP2 ADD MSTORE PUSH1 0x5 PUSH1 0xF9 SHL DUP5 DUP5 PUSH2 0x5BE DUP2 PUSH2 0x12DD JUMP JUMPDEST SWAP6 POP DUP2 MLOAD DUP2 LT PUSH2 0x5D0 JUMPI PUSH2 0x5D0 PUSH2 0x129E JUMP JUMPDEST PUSH1 0x1 PUSH1 0x1 PUSH1 0xF8 SHL SUB NOT SWAP3 SWAP1 SWAP3 AND PUSH1 0x20 SWAP3 DUP4 MUL SWAP2 SWAP1 SWAP2 ADD SWAP1 SWAP2 ADD MSTORE POP SWAP2 SWAP3 SWAP1 SWAP2 POP JUMP JUMPDEST PUSH1 0x60 PUSH1 0x0 DUP5 PUSH2 0x602 PUSH1 0x4 DUP3 PUSH2 0x12CA JUMP JUMPDEST SWAP6 POP DUP6 PUSH1 0x49 PUSH1 0xF8 SHL DUP9 DUP3 PUSH2 0x615 DUP2 PUSH2 0x12DD JUMP JUMPDEST SWAP10 POP DUP2 MLOAD DUP2 LT PUSH2 0x627 JUMPI PUSH2 0x627 PUSH2 0x129E JUMP JUMPDEST PUSH1 0x1 PUSH1 0x1 PUSH1 0xF8 SHL SUB NOT SWAP1 SWAP3 AND PUSH1 0x20 SWAP3 DUP4 MUL SWAP2 SWAP1 SWAP2 ADD SWAP1 SWAP2 ADD MSTORE PUSH1 0x9 PUSH1 0xFB SHL DUP9 DUP9 PUSH2 0x650 DUP2 PUSH2 0x12DD JUMP JUMPDEST SWAP10 POP DUP2 MLOAD DUP2 LT PUSH2 0x662 JUMPI PUSH2 0x662 PUSH2 0x129E JUMP JUMPDEST PUSH1 0x1 PUSH1 0x1 PUSH1 0xF8 SHL SUB NOT SWAP1 SWAP3 AND PUSH1 0x20 SWAP3 DUP4 MUL SWAP2 SWAP1 SWAP2 ADD SWAP1 SWAP2 ADD MSTORE PUSH1 0x11 PUSH1 0xFA SHL DUP9 DUP9 PUSH2 0x68B DUP2 PUSH2 0x12DD JUMP JUMPDEST SWAP10 POP DUP2 MLOAD DUP2 LT PUSH2 0x69D JUMPI PUSH2 0x69D PUSH2 0x129E JUMP JUMPDEST PUSH1 0x1 PUSH1 0x1 PUSH1 0xF8 SHL SUB NOT SWAP1 SWAP3 AND PUSH1 0x20 SWAP3 DUP4 MUL SWAP2 SWAP1 SWAP2 ADD SWAP1 SWAP2 ADD MSTORE PUSH1 0x29 PUSH1 0xF9 SHL DUP9 DUP9 PUSH2 0x6C6 DUP2 PUSH2 0x12DD JUMP JUMPDEST SWAP10 POP DUP2 MLOAD DUP2 LT PUSH2 0x6D8 JUMPI PUSH2 0x6D8 PUSH2 0x129E JUMP JUMPDEST PUSH1 0x1 PUSH1 0x1 PUSH1 0xF8 SHL SUB NOT SWAP1 SWAP3 AND PUSH1 0x20 SWAP3 DUP4 MUL SWAP2 SWAP1 SWAP2 ADD SWAP1 SWAP2 ADD MSTORE DUP7 PUSH2 0x6FD DUP10 DUP3 DUP10 PUSH2 0xE53 JUMP JUMPDEST SWAP1 SWAP10 POP SWAP8 POP PUSH2 0x70D DUP10 DUP10 DUP9 PUSH2 0xE53 JUMP JUMPDEST SWAP1 SWAP10 POP SWAP8 POP PUSH1 0x1 PUSH1 0xFB SHL DUP10 DUP10 PUSH2 0x722 DUP2 PUSH2 0x12DD JUMP JUMPDEST SWAP11 POP DUP2 MLOAD DUP2 LT PUSH2 0x734 JUMPI PUSH2 0x734 PUSH2 0x129E JUMP JUMPDEST PUSH1 0x1 PUSH1 0x1 PUSH1 0xF8 SHL SUB NOT SWAP1 SWAP3 AND PUSH1 0x20 SWAP3 DUP4 MUL SWAP2 SWAP1 SWAP2 ADD SWAP1 SWAP2 ADD MSTORE PUSH1 0x1 PUSH1 0xF9 SHL DUP10 DUP10 PUSH2 0x75D DUP2 PUSH2 0x12DD JUMP JUMPDEST SWAP11 POP DUP2 MLOAD DUP2 LT PUSH2 0x76F JUMPI PUSH2 0x76F PUSH2 0x129E JUMP JUMPDEST PUSH1 0x1 PUSH1 0x1 PUSH1 0xF8 SHL SUB NOT SWAP1 SWAP3 AND PUSH1 0x20 SWAP3 DUP4 MUL SWAP2 SWAP1 SWAP2 ADD SWAP1 SWAP2 ADD MSTORE PUSH1 0x0 DUP10 DUP10 PUSH2 0x795 DUP2 PUSH2 0x12DD JUMP JUMPDEST SWAP11 POP DUP2 MLOAD DUP2 LT PUSH2 0x7A7 JUMPI PUSH2 0x7A7 PUSH2 0x129E JUMP JUMPDEST PUSH1 0x1 PUSH1 0x1 PUSH1 0xF8 SHL SUB NOT SWAP1 SWAP3 AND PUSH1 0x20 SWAP3 DUP4 MUL SWAP2 SWAP1 SWAP2 ADD SWAP1 SWAP2 ADD MSTORE PUSH1 0x0 DUP10 DUP10 PUSH2 0x7CD DUP2 PUSH2 0x12DD JUMP JUMPDEST SWAP11 POP DUP2 MLOAD DUP2 LT PUSH2 0x7DF JUMPI PUSH2 0x7DF PUSH2 0x129E JUMP JUMPDEST PUSH1 0x1 PUSH1 0x1 PUSH1 0xF8 SHL SUB NOT SWAP1 SWAP3 AND PUSH1 0x20 SWAP3 DUP4 MUL SWAP2 SWAP1 SWAP2 ADD SWAP1 SWAP2 ADD MSTORE PUSH1 0x0 DUP10 DUP10 PUSH2 0x805 DUP2 PUSH2 0x12DD JUMP JUMPDEST SWAP11 POP DUP2 MLOAD DUP2 LT PUSH2 0x817 JUMPI PUSH2 0x817 PUSH2 0x129E JUMP JUMPDEST PUSH1 0x1 PUSH1 0x1 PUSH1 0xF8 SHL SUB NOT SWAP1 SWAP3 AND PUSH1 0x20 SWAP3 DUP4 MUL SWAP2 SWAP1 SWAP2 ADD SWAP1 SWAP2 ADD MSTORE DUP8 DUP1 PUSH2 0x83E DUP12 DUP3 DUP7 DUP2 PUSH2 0xF54 JUMP JUMPDEST SWAP1 SWAP12 POP SWAP10 POP PUSH2 0x857 DUP12 DUP7 PUSH2 0x852 DUP7 DUP7 PUSH2 0x1389 JUMP JUMPDEST PUSH2 0xE53 JUMP JUMPDEST POP SWAP12 SWAP10 SWAP11 POP POP POP POP POP POP POP POP POP POP JUMP JUMPDEST PUSH1 0x60 PUSH1 0x0 DUP3 PUSH2 0x877 PUSH1 0x4 DUP3 PUSH2 0x12CA JUMP JUMPDEST SWAP4 POP DUP4 PUSH1 0x49 PUSH1 0xF8 SHL DUP7 DUP3 PUSH2 0x88A DUP2 PUSH2 0x12DD JUMP JUMPDEST SWAP8 POP DUP2 MLOAD DUP2 LT PUSH2 0x89C JUMPI PUSH2 0x89C PUSH2 0x129E JUMP JUMPDEST PUSH1 0x1 PUSH1 0x1 PUSH1 0xF8 SHL SUB NOT SWAP1 SWAP3 AND PUSH1 0x20 SWAP3 DUP4 MUL SWAP2 SWAP1 SWAP2 ADD SWAP1 SWAP2 ADD MSTORE PUSH1 0x11 PUSH1 0xFA SHL DUP7 DUP7 PUSH2 0x8C5 DUP2 PUSH2 0x12DD JUMP JUMPDEST SWAP8 POP DUP2 MLOAD DUP2 LT PUSH2 0x8D7 JUMPI PUSH2 0x8D7 PUSH2 0x129E JUMP JUMPDEST PUSH1 0x1 PUSH1 0x1 PUSH1 0xF8 SHL SUB NOT SWAP1 SWAP3 AND PUSH1 0x20 SWAP3 DUP4 MUL SWAP2 SWAP1 SWAP2 ADD SWAP1 SWAP2 ADD MSTORE PUSH1 0x41 PUSH1 0xF8 SHL DUP7 DUP7 PUSH2 0x900 DUP2 PUSH2 0x12DD JUMP JUMPDEST SWAP8 POP DUP2 MLOAD DUP2 LT PUSH2 0x912 JUMPI PUSH2 0x912 PUSH2 0x129E JUMP JUMPDEST PUSH1 0x1 PUSH1 0x1 PUSH1 0xF8 SHL SUB NOT SWAP1 SWAP3 AND PUSH1 0x20 SWAP3 DUP4 MUL SWAP2 SWAP1 SWAP2 ADD SWAP1 SWAP2 ADD MSTORE PUSH1 0x15 PUSH1 0xFA SHL DUP7 DUP7 PUSH2 0x93B DUP2 PUSH2 0x12DD JUMP JUMPDEST SWAP8 POP DUP2 MLOAD DUP2 LT PUSH2 0x94D JUMPI PUSH2 0x94D PUSH2 0x129E JUMP JUMPDEST PUSH1 0x1 PUSH1 0x1 PUSH1 0xF8 SHL SUB NOT SWAP1 SWAP3 AND PUSH1 0x20 SWAP3 DUP4 MUL SWAP2 SWAP1 SWAP2 ADD SWAP1 SWAP2 ADD MSTORE DUP5 PUSH1 0xF PUSH1 0xFB SHL DUP8 DUP3 PUSH2 0x977 DUP2 PUSH2 0x12DD JUMP JUMPDEST SWAP9 POP DUP2 MLOAD DUP2 LT PUSH2 0x989 JUMPI PUSH2 0x989 PUSH2 0x129E JUMP JUMPDEST PUSH1 0x1 PUSH1 0x1 PUSH1 0xF8 SHL SUB NOT SWAP1 SWAP3 AND PUSH1 0x20 SWAP3 DUP4 MUL SWAP2 SWAP1 SWAP2 ADD SWAP1 SWAP2 ADD MSTORE PUSH1 0x1 PUSH1 0xF8 SHL DUP8 DUP8 PUSH2 0x9B2 DUP2 PUSH2 0x12DD JUMP JUMPDEST SWAP9 POP DUP2 MLOAD DUP2 LT PUSH2 0x9C4 JUMPI PUSH2 0x9C4 PUSH2 0x129E JUMP JUMPDEST PUSH1 0x1 PUSH1 0x1 PUSH1 0xF8 SHL SUB NOT SWAP1 SWAP3 AND PUSH1 0x20 SWAP3 DUP4 MUL SWAP2 SWAP1 SWAP2 ADD SWAP1 SWAP2 ADD MSTORE PUSH1 0x1 PUSH1 0xF8 SHL DUP8 DUP8 PUSH2 0x9ED DUP2 PUSH2 0x12DD JUMP JUMPDEST SWAP9 POP DUP2 MLOAD DUP2 LT PUSH2 0x9FF JUMPI PUSH2 0x9FF PUSH2 0x129E JUMP JUMPDEST PUSH1 0x1 PUSH1 0x1 PUSH1 0xF8 SHL SUB NOT SWAP1 SWAP3 AND PUSH1 0x20 SWAP3 DUP4 MUL SWAP2 SWAP1 SWAP2 ADD SWAP1 SWAP2 ADD MSTORE DUP6 PUSH2 0xA24 PUSH1 0x4 DUP3 PUSH2 0x12CA JUMP JUMPDEST SWAP7 POP DUP7 DUP1 PUSH1 0x0 DUP11 DUP3 PUSH2 0xA35 DUP2 PUSH2 0x12DD JUMP JUMPDEST SWAP12 POP DUP2 MLOAD DUP2 LT PUSH2 0xA47 JUMPI PUSH2 0xA47 PUSH2 0x129E JUMP JUMPDEST PUSH1 0x1 PUSH1 0x1 PUSH1 0xF8 SHL SUB NOT SWAP3 DUP4 AND PUSH1 0x20 SWAP2 DUP3 MUL SWAP3 SWAP1 SWAP3 ADD ADD MSTORE DUP11 DUP11 PUSH2 0xA69 DUP2 PUSH2 0x12DD JUMP JUMPDEST SWAP12 POP DUP2 MLOAD DUP2 LT PUSH2 0xA7B JUMPI PUSH2 0xA7B PUSH2 0x129E JUMP JUMPDEST PUSH1 0x1 PUSH1 0x1 PUSH1 0xF8 SHL SUB NOT SWAP1 SWAP3 AND PUSH1 0x20 SWAP3 DUP4 MUL SWAP2 SWAP1 SWAP2 ADD SWAP1 SWAP2 ADD MSTORE PUSH1 0x0 DUP11 DUP11 PUSH2 0xAA1 DUP2 PUSH2 0x12DD JUMP JUMPDEST SWAP12 POP DUP2 MLOAD DUP2 LT PUSH2 0xAB3 JUMPI PUSH2 0xAB3 PUSH2 0x129E JUMP JUMPDEST PUSH1 0x1 PUSH1 0x1 PUSH1 0xF8 SHL SUB NOT SWAP1 SWAP3 AND PUSH1 0x20 SWAP3 DUP4 MUL SWAP2 SWAP1 SWAP2 ADD SWAP1 SWAP2 ADD MSTORE PUSH1 0x0 DUP11 DUP11 PUSH2 0xAD9 DUP2 PUSH2 0x12DD JUMP JUMPDEST SWAP12 POP DUP2 MLOAD DUP2 LT PUSH2 0xAEB JUMPI PUSH2 0xAEB PUSH2 0x129E JUMP JUMPDEST PUSH1 0x1 PUSH1 0x1 PUSH1 0xF8 SHL SUB NOT SWAP1 SWAP3 AND PUSH1 0x20 SWAP3 DUP4 MUL SWAP2 SWAP1 SWAP2 ADD SWAP1 SWAP2 ADD MSTORE PUSH1 0x0 DUP11 DUP11 PUSH2 0xB11 DUP2 PUSH2 0x12DD JUMP JUMPDEST SWAP12 POP DUP2 MLOAD DUP2 LT PUSH2 0xB23 JUMPI PUSH2 0xB23 PUSH2 0x129E JUMP JUMPDEST PUSH1 0x1 PUSH1 0x1 PUSH1 0xF8 SHL SUB NOT SWAP3 DUP4 AND PUSH1 0x20 SWAP2 DUP3 MUL SWAP3 SWAP1 SWAP3 ADD ADD MSTORE DUP11 DUP11 PUSH2 0xB45 DUP2 PUSH2 0x12DD JUMP JUMPDEST SWAP12 POP DUP2 MLOAD DUP2 LT PUSH2 0xB57 JUMPI PUSH2 0xB57 PUSH2 0x129E JUMP JUMPDEST PUSH1 0x1 PUSH1 0x1 PUSH1 0xF8 SHL SUB NOT SWAP1 SWAP3 AND PUSH1 0x20 SWAP3 DUP4 MUL SWAP2 SWAP1 SWAP2 ADD SWAP1 SWAP2 ADD MSTORE PUSH1 0x0 DUP11 DUP11 PUSH2 0xB7D DUP2 PUSH2 0x12DD JUMP JUMPDEST SWAP12 POP DUP2 MLOAD DUP2 LT PUSH2 0xB8F JUMPI PUSH2 0xB8F PUSH2 0x129E JUMP JUMPDEST PUSH1 0x1 PUSH1 0x1 PUSH1 0xF8 SHL SUB NOT SWAP1 SWAP3 AND PUSH1 0x20 SWAP3 DUP4 MUL SWAP2 SWAP1 SWAP2 ADD SWAP1 SWAP2 ADD MSTORE PUSH1 0x0 DUP11 DUP11 PUSH2 0xBB5 DUP2 PUSH2 0x12DD JUMP JUMPDEST SWAP12 POP DUP2 MLOAD DUP2 LT PUSH2 0xBC7 JUMPI PUSH2 0xBC7 PUSH2 0x129E JUMP JUMPDEST PUSH1 0x1 PUSH1 0x1 PUSH1 0xF8 SHL SUB NOT SWAP1 SWAP3 AND PUSH1 0x20 SWAP3 DUP4 MUL SWAP2 SWAP1 SWAP2 ADD SWAP1 SWAP2 ADD MSTORE PUSH1 0x0 DUP11 DUP11 PUSH2 0xBED DUP2 PUSH2 0x12DD JUMP JUMPDEST SWAP12 POP DUP2 MLOAD DUP2 LT PUSH2 0xBFF JUMPI PUSH2 0xBFF PUSH2 0x129E JUMP JUMPDEST PUSH1 0x1 PUSH1 0x1 PUSH1 0xF8 SHL SUB NOT SWAP3 DUP4 AND PUSH1 0x20 SWAP2 DUP3 MUL SWAP3 SWAP1 SWAP3 ADD ADD MSTORE DUP11 DUP11 PUSH2 0xC21 DUP2 PUSH2 0x12DD JUMP JUMPDEST SWAP12 POP DUP2 MLOAD DUP2 LT PUSH2 0xC33 JUMPI PUSH2 0xC33 PUSH2 0x129E JUMP JUMPDEST PUSH1 0x1 PUSH1 0x1 PUSH1 0xF8 SHL SUB NOT SWAP1 SWAP3 AND PUSH1 0x20 SWAP3 DUP4 MUL SWAP2 SWAP1 SWAP2 ADD SWAP1 SWAP2 ADD MSTORE DUP9 DUP1 PUSH2 0xC5A DUP13 DUP3 DUP7 DUP2 PUSH2 0x1045 JUMP JUMPDEST SWAP1 SWAP13 POP SWAP11 POP DUP11 DUP1 PUSH2 0xC6D DUP15 DUP3 DUP12 DUP2 PUSH2 0xF54 JUMP JUMPDEST SWAP1 SWAP15 POP SWAP13 POP PUSH2 0xC81 DUP15 DUP12 PUSH2 0x852 DUP12 DUP7 PUSH2 0x1389 JUMP JUMPDEST SWAP1 SWAP15 POP SWAP10 POP PUSH2 0xC9A DUP15 DUP9 PUSH2 0xC95 DUP9 DUP8 PUSH2 0x1389 JUMP JUMPDEST PUSH2 0x1118 JUMP JUMPDEST SWAP1 SWAP15 POP SWAP7 POP PUSH2 0xCBA DUP15 DUP9 PUSH2 0xCAE DUP9 DUP8 PUSH2 0x1389 JUMP JUMPDEST PUSH2 0xC95 SWAP1 PUSH2 0xFFFF PUSH2 0x1389 JUMP JUMPDEST POP SWAP15 SWAP13 SWAP14 POP POP POP POP POP POP POP POP POP POP POP POP POP JUMP JUMPDEST PUSH1 0x60 PUSH1 0x0 PUSH2 0xCDD DUP5 DUP5 PUSH1 0x0 PUSH2 0xE53 JUMP JUMPDEST SWAP1 SWAP5 POP SWAP3 POP DUP3 PUSH1 0x49 PUSH1 0xF8 SHL DUP6 DUP3 PUSH2 0xCF3 DUP2 PUSH2 0x12DD JUMP JUMPDEST SWAP7 POP DUP2 MLOAD DUP2 LT PUSH2 0xD05 JUMPI PUSH2 0xD05 PUSH2 0x129E JUMP JUMPDEST PUSH1 0x1 PUSH1 0x1 PUSH1 0xF8 SHL SUB NOT SWAP1 SWAP3 AND PUSH1 0x20 SWAP3 DUP4 MUL SWAP2 SWAP1 SWAP2 ADD SWAP1 SWAP2 ADD MSTORE PUSH1 0x45 PUSH1 0xF8 SHL DUP6 DUP6 PUSH2 0xD2E DUP2 PUSH2 0x12DD JUMP JUMPDEST SWAP7 POP DUP2 MLOAD DUP2 LT PUSH2 0xD40 JUMPI PUSH2 0xD40 PUSH2 0x129E JUMP JUMPDEST PUSH1 0x1 PUSH1 0x1 PUSH1 0xF8 SHL SUB NOT SWAP1 SWAP3 AND PUSH1 0x20 SWAP3 DUP4 MUL SWAP2 SWAP1 SWAP2 ADD SWAP1 SWAP2 ADD MSTORE PUSH1 0x27 PUSH1 0xF9 SHL DUP6 DUP6 PUSH2 0xD69 DUP2 PUSH2 0x12DD JUMP JUMPDEST SWAP7 POP DUP2 MLOAD DUP2 LT PUSH2 0xD7B JUMPI PUSH2 0xD7B PUSH2 0x129E JUMP JUMPDEST PUSH1 0x1 PUSH1 0x1 PUSH1 0xF8 SHL SUB NOT SWAP1 SWAP3 AND PUSH1 0x20 SWAP3 DUP4 MUL SWAP2 SWAP1 SWAP2 ADD SWAP1 SWAP2 ADD MSTORE PUSH1 0x11 PUSH1 0xFA SHL DUP6 DUP6 PUSH2 0xDA4 DUP2 PUSH2 0x12DD JUMP JUMPDEST SWAP7 POP DUP2 MLOAD DUP2 LT PUSH2 0xDB6 JUMPI PUSH2 0xDB6 PUSH2 0x129E JUMP JUMPDEST PUSH1 0x1 PUSH1 0x1 PUSH1 0xF8 SHL SUB NOT SWAP1 SWAP3 AND PUSH1 0x20 SWAP3 DUP4 MUL SWAP2 SWAP1 SWAP2 ADD SWAP1 SWAP2 ADD MSTORE DUP4 PUSH2 0xDDC DUP7 DUP3 DUP5 DUP2 PUSH2 0xF54 JUMP JUMPDEST SWAP1 SWAP8 SWAP1 SWAP7 POP SWAP5 POP POP POP POP POP JUMP JUMPDEST PUSH1 0x0 DUP4 DUP2 JUMPDEST DUP4 DUP2 LT ISZERO PUSH2 0xE4A JUMPI PUSH1 0x8 DUP3 SWAP1 SHR PUSH1 0x0 DUP7 DUP4 DUP2 MLOAD DUP2 LT PUSH2 0xE0F JUMPI PUSH2 0xE0F PUSH2 0x129E JUMP JUMPDEST PUSH1 0x20 MUL PUSH1 0x20 ADD ADD MLOAD PUSH1 0xF8 SHR PUSH1 0xFF AND DUP5 XOR PUSH1 0xFF AND PUSH2 0x100 DUP2 LT PUSH2 0xE33 JUMPI PUSH2 0xE33 PUSH2 0x129E JUMP JUMPDEST ADD SLOAD XOR SWAP2 POP DUP1 PUSH2 0xE42 DUP2 PUSH2 0x12DD JUMP JUMPDEST SWAP2 POP POP PUSH2 0xDEE JUMP JUMPDEST POP SWAP5 SWAP4 POP POP POP POP JUMP JUMPDEST PUSH1 0x60 PUSH1 0x0 PUSH1 0x1 PUSH1 0x1 PUSH1 0xF8 SHL SUB NOT PUSH1 0xE0 DUP5 SWAP1 SHL AND DUP6 DUP6 PUSH2 0xE71 DUP2 PUSH2 0x12DD JUMP JUMPDEST SWAP7 POP DUP2 MLOAD DUP2 LT PUSH2 0xE83 JUMPI PUSH2 0xE83 PUSH2 0x129E JUMP JUMPDEST PUSH1 0x1 PUSH1 0x1 PUSH1 0xF8 SHL SUB NOT SWAP3 DUP4 AND PUSH1 0x20 SWAP2 DUP3 MUL SWAP3 SWAP1 SWAP3 ADD ADD MSTORE PUSH1 0xE8 DUP5 SWAP1 SHL AND DUP6 DUP6 PUSH2 0xEAB DUP2 PUSH2 0x12DD JUMP JUMPDEST SWAP7 POP DUP2 MLOAD DUP2 LT PUSH2 0xEBD JUMPI PUSH2 0xEBD PUSH2 0x129E JUMP JUMPDEST PUSH1 0x1 PUSH1 0x1 PUSH1 0xF8 SHL SUB NOT SWAP3 DUP4 AND PUSH1 0x20 SWAP2 DUP3 MUL SWAP3 SWAP1 SWAP3 ADD ADD MSTORE PUSH1 0xF0 DUP5 SWAP1 SHL AND DUP6 DUP6 PUSH2 0xEE5 DUP2 PUSH2 0x12DD JUMP JUMPDEST SWAP7 POP DUP2 MLOAD DUP2 LT PUSH2 0xEF7 JUMPI PUSH2 0xEF7 PUSH2 0x129E JUMP JUMPDEST PUSH1 0x1 PUSH1 0x1 PUSH1 0xF8 SHL SUB NOT SWAP3 DUP4 AND PUSH1 0x20 SWAP2 DUP3 MUL SWAP3 SWAP1 SWAP3 ADD ADD MSTORE PUSH1 0xF8 DUP5 SWAP1 SHL AND DUP6 DUP6 PUSH2 0xF1F DUP2 PUSH2 0x12DD JUMP JUMPDEST SWAP7 POP DUP2 MLOAD DUP2 LT PUSH2 0xF31 JUMPI PUSH2 0xF31 PUSH2 0x129E JUMP JUMPDEST PUSH1 0x1 PUSH1 0x1 PUSH1 0xF8 SHL SUB NOT SWAP3 SWAP1 SWAP3 AND PUSH1 0x20 SWAP3 DUP4 MUL SWAP2 SWAP1 SWAP2 ADD SWAP1 SWAP2 ADD MSTORE POP SWAP3 SWAP4 SWAP2 SWAP3 POP POP JUMP JUMPDEST PUSH1 0x60 PUSH1 0x0 DUP1 PUSH2 0xF63 DUP6 DUP6 PUSH2 0x1389 JUMP JUMPDEST SWAP1 POP PUSH1 0x0 DUP1 DUP3 PUSH8 0xFFFFFFFFFFFFFFFF DUP2 GT ISZERO PUSH2 0xF81 JUMPI PUSH2 0xF81 PUSH2 0x1136 JUMP JUMPDEST PUSH1 0x40 MLOAD SWAP1 DUP1 DUP3 MSTORE DUP1 PUSH1 0x20 MUL PUSH1 0x20 ADD DUP3 ADD PUSH1 0x40 MSTORE DUP1 ISZERO PUSH2 0xFAA JUMPI DUP2 PUSH1 0x20 ADD PUSH1 0x20 DUP3 MUL DUP1 CALLDATASIZE DUP4 CALLDATACOPY ADD SWAP1 POP JUMPDEST POP SWAP1 POP DUP7 JUMPDEST DUP7 DUP2 LT ISZERO PUSH2 0x101A JUMPI DUP10 DUP2 DUP2 MLOAD DUP2 LT PUSH2 0xFC9 JUMPI PUSH2 0xFC9 PUSH2 0x129E JUMP JUMPDEST PUSH1 0x20 MUL PUSH1 0x20 ADD ADD MLOAD DUP3 DUP5 DUP1 PUSH2 0xFDD SWAP1 PUSH2 0x12DD JUMP JUMPDEST SWAP6 POP DUP2 MLOAD DUP2 LT PUSH2 0xFEF JUMPI PUSH2 0xFEF PUSH2 0x129E JUMP JUMPDEST PUSH1 0x1 PUSH1 0x1 PUSH1 0xF8 SHL SUB NOT SWAP1 SWAP3 AND PUSH1 0x20 SWAP3 DUP4 MUL SWAP2 SWAP1 SWAP2 ADD SWAP1 SWAP2 ADD MSTORE DUP1 PUSH2 0x1012 DUP2 PUSH2 0x12DD JUMP JUMPDEST SWAP2 POP POP PUSH2 0xFAF JUMP JUMPDEST POP PUSH1 0x0 PUSH2 0x1027 DUP3 DUP6 PUSH2 0x29C JUMP JUMPDEST SWAP1 POP PUSH2 0x1034 DUP11 DUP11 DUP4 PUSH2 0xE53 JUMP JUMPDEST SWAP1 SWAP12 SWAP1 SWAP11 POP SWAP9 POP POP POP POP POP POP POP POP POP JUMP JUMPDEST PUSH1 0x60 PUSH1 0x0 DUP1 PUSH2 0x1054 DUP6 DUP6 PUSH2 0x1389 JUMP JUMPDEST SWAP1 POP PUSH1 0x0 DUP1 DUP3 PUSH8 0xFFFFFFFFFFFFFFFF DUP2 GT ISZERO PUSH2 0x1072 JUMPI PUSH2 0x1072 PUSH2 0x1136 JUMP JUMPDEST PUSH1 0x40 MLOAD SWAP1 DUP1 DUP3 MSTORE DUP1 PUSH1 0x20 MUL PUSH1 0x20 ADD DUP3 ADD PUSH1 0x40 MSTORE DUP1 ISZERO PUSH2 0x109B JUMPI DUP2 PUSH1 0x20 ADD PUSH1 0x20 DUP3 MUL DUP1 CALLDATASIZE DUP4 CALLDATACOPY ADD SWAP1 POP JUMPDEST POP SWAP1 POP DUP7 JUMPDEST DUP7 DUP2 LT ISZERO PUSH2 0x110B JUMPI DUP10 DUP2 DUP2 MLOAD DUP2 LT PUSH2 0x10BA JUMPI PUSH2 0x10BA PUSH2 0x129E JUMP JUMPDEST PUSH1 0x20 MUL PUSH1 0x20 ADD ADD MLOAD DUP3 DUP5 DUP1 PUSH2 0x10CE SWAP1 PUSH2 0x12DD JUMP JUMPDEST SWAP6 POP DUP2 MLOAD DUP2 LT PUSH2 0x10E0 JUMPI PUSH2 0x10E0 PUSH2 0x129E JUMP JUMPDEST PUSH1 0x1 PUSH1 0x1 PUSH1 0xF8 SHL SUB NOT SWAP1 SWAP3 AND PUSH1 0x20 SWAP3 DUP4 MUL SWAP2 SWAP1 SWAP2 ADD SWAP1 SWAP2 ADD MSTORE DUP1 PUSH2 0x1103 DUP2 PUSH2 0x12DD JUMP JUMPDEST SWAP2 POP POP PUSH2 0x10A0 JUMP JUMPDEST POP PUSH1 0x0 PUSH2 0x1027 DUP3 DUP6 PUSH2 0xA7 JUMP JUMPDEST PUSH1 0x60 PUSH1 0x0 PUSH1 0x1 PUSH1 0x1 PUSH1 0xF8 SHL SUB NOT PUSH1 0xF0 DUP5 SWAP1 SHL AND DUP6 DUP6 PUSH2 0xEE5 DUP2 PUSH2 0x12DD JUMP JUMPDEST PUSH4 0x4E487B71 PUSH1 0xE0 SHL PUSH1 0x0 MSTORE PUSH1 0x41 PUSH1 0x4 MSTORE PUSH1 0x24 PUSH1 0x0 REVERT JUMPDEST DUP1 CALLDATALOAD PUSH1 0x1 PUSH1 0x1 PUSH1 0xF8 SHL SUB NOT DUP2 AND DUP2 EQ PUSH2 0x1164 JUMPI PUSH1 0x0 DUP1 REVERT JUMPDEST SWAP2 SWAP1 POP JUMP JUMPDEST PUSH1 0x0 DUP1 PUSH1 0x40 DUP4 DUP6 SUB SLT ISZERO PUSH2 0x117C JUMPI PUSH1 0x0 DUP1 REVERT JUMPDEST DUP3 CALLDATALOAD PUSH8 0xFFFFFFFFFFFFFFFF DUP1 DUP3 GT ISZERO PUSH2 0x1194 JUMPI PUSH1 0x0 DUP1 REVERT JUMPDEST DUP2 DUP6 ADD SWAP2 POP DUP6 PUSH1 0x1F DUP4 ADD SLT PUSH2 0x11A8 JUMPI PUSH1 0x0 DUP1 REVERT JUMPDEST DUP2 CALLDATALOAD PUSH1 0x20 DUP3 DUP3 GT ISZERO PUSH2 0x11BC JUMPI PUSH2 0x11BC PUSH2 0x1136 JUMP JUMPDEST DUP2 PUSH1 0x5 SHL PUSH1 0x40 MLOAD PUSH1 0x1F NOT PUSH1 0x3F DUP4 ADD AND DUP2 ADD DUP2 DUP2 LT DUP7 DUP3 GT OR ISZERO PUSH2 0x11E1 JUMPI PUSH2 0x11E1 PUSH2 0x1136 JUMP JUMPDEST PUSH1 0x40 MSTORE SWAP3 DUP4 MSTORE DUP2 DUP4 ADD SWAP4 POP DUP5 DUP2 ADD DUP3 ADD SWAP3 DUP10 DUP5 GT ISZERO PUSH2 0x11FF JUMPI PUSH1 0x0 DUP1 REVERT JUMPDEST SWAP5 DUP3 ADD SWAP5 JUMPDEST DUP4 DUP7 LT ISZERO PUSH2 0x1224 JUMPI PUSH2 0x1215 DUP7 PUSH2 0x114C JUMP JUMPDEST DUP6 MSTORE SWAP5 DUP3 ADD SWAP5 SWAP4 DUP3 ADD SWAP4 PUSH2 0x1204 JUMP JUMPDEST SWAP10 SWAP8 SWAP1 SWAP2 ADD CALLDATALOAD SWAP8 POP POP POP POP POP POP POP JUMP JUMPDEST PUSH1 0x0 JUMPDEST DUP4 DUP2 LT ISZERO PUSH2 0x124F JUMPI DUP2 DUP2 ADD MLOAD DUP4 DUP3 ADD MSTORE PUSH1 0x20 ADD PUSH2 0x1237 JUMP JUMPDEST POP POP PUSH1 0x0 SWAP2 ADD MSTORE JUMP JUMPDEST PUSH1 0x0 DUP2 MLOAD DUP1 DUP5 MSTORE PUSH2 0x1270 DUP2 PUSH1 0x20 DUP7 ADD PUSH1 0x20 DUP7 ADD PUSH2 0x1234 JUMP JUMPDEST PUSH1 0x1F ADD PUSH1 0x1F NOT AND SWAP3 SWAP1 SWAP3 ADD PUSH1 0x20 ADD SWAP3 SWAP2 POP POP JUMP JUMPDEST PUSH1 0x20 DUP2 MSTORE PUSH1 0x0 PUSH2 0x1297 PUSH1 0x20 DUP4 ADD DUP5 PUSH2 0x1258 JUMP JUMPDEST SWAP4 SWAP3 POP POP POP JUMP JUMPDEST PUSH4 0x4E487B71 PUSH1 0xE0 SHL PUSH1 0x0 MSTORE PUSH1 0x32 PUSH1 0x4 MSTORE PUSH1 0x24 PUSH1 0x0 REVERT JUMPDEST PUSH4 0x4E487B71 PUSH1 0xE0 SHL PUSH1 0x0 MSTORE PUSH1 0x11 PUSH1 0x4 MSTORE PUSH1 0x24 PUSH1 0x0 REVERT JUMPDEST DUP1 DUP3 ADD DUP1 DUP3 GT ISZERO PUSH2 0x11F JUMPI PUSH2 0x11F PUSH2 0x12B4 JUMP JUMPDEST PUSH1 0x0 PUSH1 0x1 DUP3 ADD PUSH2 0x12EF JUMPI PUSH2 0x12EF PUSH2 0x12B4 JUMP JUMPDEST POP PUSH1 0x1 ADD SWAP1 JUMP JUMPDEST DUP1 DUP3 MUL DUP2 ISZERO DUP3 DUP3 DIV DUP5 EQ OR PUSH2 0x11F JUMPI PUSH2 0x11F PUSH2 0x12B4 JUMP JUMPDEST PUSH1 0x0 DUP3 MLOAD PUSH2 0x131F DUP2 DUP5 PUSH1 0x20 DUP8 ADD PUSH2 0x1234 JUMP JUMPDEST SWAP2 SWAP1 SWAP2 ADD SWAP3 SWAP2 POP POP JUMP JUMPDEST PUSH22 0x19185D184E9A5B5859D94BDC1B99CED8985CD94D8D0B PUSH1 0x52 SHL DUP2 MSTORE PUSH1 0x0 DUP3 MLOAD PUSH2 0x135A DUP2 PUSH1 0x16 DUP6 ADD PUSH1 0x20 DUP8 ADD PUSH2 0x1234 JUMP JUMPDEST SWAP2 SWAP1 SWAP2 ADD PUSH1 0x16 ADD SWAP3 SWAP2 POP POP JUMP JUMPDEST PUSH1 0x0 DUP3 PUSH2 0x1384 JUMPI PUSH4 0x4E487B71 PUSH1 0xE0 SHL PUSH1 0x0 MSTORE PUSH1 0x12 PUSH1 0x4 MSTORE PUSH1 0x24 PUSH1 0x0 REVERT JUMPDEST POP DIV SWAP1 JUMP JUMPDEST DUP2 DUP2 SUB DUP2 DUP2 GT ISZERO PUSH2 0x11F JUMPI PUSH2 0x11F PUSH2 0x12B4 JUMP INVALID COINBASE TIMESTAMP NUMBER PREVRANDAO GASLIMIT CHAINID SELFBALANCE BASEFEE 0x49 0x4A 0x4B 0x4C 0x4D 0x4E 0x4F POP MLOAD MSTORE MSTORE8 SLOAD SSTORE JUMP JUMPI PC MSIZE GAS PUSH2 0x6263 PUSH5 0x6566676869 PUSH11 0x6B6C6D6E6F707172737475 PUSH23 0x7778797A303132333435363738392B2FA2646970667358 0x22 SLT KECCAK256 0xBC 0xFB DUP4 MLOAD LOG3 SGT PUSH2 0xC792 0xD2 ADDRESS GASPRICE 0xB6 PUSH28 0xC20B192BA81036EA10FB42B078B3BDD0FD8264736F6C634300081200 CALLER "
				},
				"gasEstimates": {
					"creation": {
						"codeDepositCost": "1027600",
						"executionCost": "infinite",
						"totalCost": "infinite"
					},
					"external": {
						"adler32(bytes1[],uint256)": "infinite",
						"crc(bytes1[],uint256)": "infinite",
						"createPNG()": "infinite",
						"createPNGString()": "infinite"
					},
					"internal": {
						"add2ByteValue(bytes1[] memory,uint256,uint256)": "infinite",
						"add4ByteValue(bytes1[] memory,uint256,uint256)": "infinite",
						"addADLER32(bytes1[] memory,uint256,uint256,uint256)": "infinite",
						"addCRC(bytes1[] memory,uint256,uint256,uint256)": "infinite",
						"addIDATChunck(bytes1[] memory,uint256)": "infinite",
						"addIENDChunck(bytes1[] memory,uint256)": "infinite",
						"addIHDRChunck(bytes1[] memory,uint256,uint256,uint256)": "infinite",
						"addPNGSignature(bytes1[] memory,uint256)": "infinite",
						"createCRCTable()": "infinite",
						"update_crc(uint256,bytes1[] memory,uint256)": "infinite"
					}
				},
				"methodIdentifiers": {
					"adler32(bytes1[],uint256)": "19858b36",
					"crc(bytes1[],uint256)": "fe2a3649",
					"createPNG()": "d0c8331c",
					"createPNGString()": "48b508b7"
				}
			},
			"storageLayout": {
				"storage": [
					{
						"astId": 460,
						"contract": "contracts/pixel_pictasia_utils.sol:PixelPictasiaUtils",
						"label": "CRC_TABLE",
						"offset": 0,
						"slot": "0",
						"type": "t_array(t_uint256)256_storage"
					}
				],
				"types": {
					"t_array(t_uint256)256_storage": {
						"base": "t_uint256",
						"encoding": "inplace",
						"label": "uint256[256]",
						"numberOfBytes": "8192"
					},
					"t_uint256": {
						"encoding": "inplace",
						"label": "uint256",
						"numberOfBytes": "32"
					}
				}
			},
			"userdoc": {
				"kind": "user",
				"methods": {},
				"version": 1
			}
		}
	}
}