{
	"data": {
		"bytecode": {
			"linkReferences": {},
			"object": "60a06040523480156200001157600080fd5b5065ffffffffffff6405deece66d6001436200002e91906200007a565b4060001c181660808181525050620000b5565b6000819050919050565b7f4e487b7100000000000000000000000000000000000000000000000000000000600052601160045260246000fd5b6000620000878262000041565b9150620000948362000041565b9250828203905081811115620000af57620000ae6200004b565b5b92915050565b60805161168e620000d160003960006107a5015261168e6000f3fe608060405234801561001057600080fd5b50600436106101005760003560e01c8063a920c0ae11610097578063e79fdacb11610066578063e79fdacb1461033d578063f8006f3b1461036e578063fcfe40e01461039e578063ff08cbe7146103cf57610100565b8063a920c0ae14610279578063ca8666e0146102aa578063dee0a5bb146102db578063e184526a1461030c57610100565b80634d424a32116100d35780634d424a32146101c85780634da4d590146101f957806377b31f881461022a578063791478501461025b57610100565b80630a609c3b146101055780631336e0da146101365780633708f98c14610167578063414163c114610198575b600080fd5b61011f600480360381019061011a9190611051565b610400565b60405161012d9291906111a8565b60405180910390f35b610150600480360381019061014b9190611051565b610431565b60405161015e9291906111a8565b60405180910390f35b610181600480360381019061017c9190611051565b610462565b60405161018f9291906111a8565b60405180910390f35b6101b260048036038101906101ad91906111d8565b610572565b6040516101bf9190611227565b60405180910390f35b6101e260048036038101906101dd919061129a565b610625565b6040516101f09291906111a8565b60405180910390f35b610213600480360381019061020e9190611051565b61073f565b6040516102219291906111a8565b60405180910390f35b610244600480360381019061023f9190611051565b610770565b6040516102529291906111a8565b60405180910390f35b6102636107a1565b6040516102709190611227565b60405180910390f35b610293600480360381019061028e9190611051565b6107c9565b6040516102a19291906111a8565b60405180910390f35b6102c460048036038101906102bf9190611051565b6108d9565b6040516102d29291906111a8565b60405180910390f35b6102f560048036038101906102f09190611051565b61091b565b6040516103039291906111a8565b60405180910390f35b61032660048036038101906103219190611051565b61094d565b6040516103349291906111a8565b60405180910390f35b61035760048036038101906103529190611051565b61097d565b6040516103659291906111a8565b60405180910390f35b610388600480360381019061038391906111d8565b6109ae565b6040516103959190611227565b60405180910390f35b6103b860048036038101906103b39190611051565b610a5d565b6040516103c69291906111a8565b60405180910390f35b6103e960048036038101906103e49190611051565b610a9f565b6040516103f79291906111a8565b60405180910390f35b606061040a610e9e565b600061041861010085610572565b905061042681600083610ae1565b849250925050915091565b606061043b610e9e565b600061044961010085610572565b905061045760008083610ae1565b849250925050915091565b606061046c610e9e565b600060809050600061047f6006866109ae565b905060606000820361049e5761049783600080610ae1565b9050610564565b600182036104ba576104b36000846000610ae1565b9050610563565b600282036104d5576104ce60008085610ae1565b9050610562565b600382036104f0576104e960008485610ae1565b9050610561565b6004820361050b5761050483846000610ae1565b9050610560565b600582036105265761051f83600085610ae1565b905061055f565b6040518060400160405280600181526020017f3f0000000000000000000000000000000000000000000000000000000000000081525090505b5b5b5b5b5b808694509450505050915091565b600065ffffffffffff8260016002811061058f5761058e6112da565b5b6020020151600b6405deece66d856000600281106105b0576105af6112da565b5b60200201516105bf9190611338565b6105c9919061137a565b6105d3919061137a565b16826000600281106105e8576105e76112da565b5b602002018181525050601f601183600060028110610609576106086112da565b5b6020020151901c8461061b9190611338565b901c905092915050565b606061062f610e9e565b6000848460405160240161064391906113ae565b604051602081830303815290604052907bffffffffffffffffffffffffffffffffffffffffffffffffffffffff19166020820180517bffffffffffffffffffffffffffffffffffffffffffffffffffffffff838183161783525050505090506000803073ffffffffffffffffffffffffffffffffffffffff16836040516106ca9190611410565b600060405180830381855afa9150503d8060008114610705576040519150601f19603f3d011682016040523d82523d6000602084013e61070a565b606091505b50915091508161071d5761071c611427565b5b80806020019051810190610731919061159c565b945094505050509250929050565b6060610749610e9e565b600061075761010085610572565b905061076581600080610ae1565b849250925050915091565b606061077a610e9e565b600061078861010085610572565b905061079681826000610ae1565b849250925050915091565b60007f0000000000000000000000000000000000000000000000000000000000000000905090565b60606107d3610e9e565b600060ff905060006107e66006866109ae565b9050606060008203610805576107fe83600080610ae1565b90506108cb565b600182036108215761081a6000846000610ae1565b90506108ca565b6002820361083c5761083560008085610ae1565b90506108c9565b600382036108575761085060008485610ae1565b90506108c8565b600482036108725761086b83846000610ae1565b90506108c7565b6005820361088d5761088683600085610ae1565b90506108c6565b6040518060400160405280600181526020017f3f0000000000000000000000000000000000000000000000000000000000000081525090505b5b5b5b5b5b808694509450505050915091565b60606108e3610e9e565b60006108f161010085610572565b9050600061090161010086610572565b905061090f82600083610ae1565b85935093505050915091565b6060610925610e9e565b600061093361010085610572565b90506109426000826000610ae1565b849250925050915091565b6060610957610e9e565b600061096561010085610572565b9050610972818283610ae1565b849250925050915091565b6060610987610e9e565b600061099561010085610572565b90506109a360008283610ae1565b849250925050915091565b600065ffffffffffff826001600281106109cb576109ca6112da565b5b6020020151600b6405deece66d856000600281106109ec576109eb6112da565b5b60200201516109fb9190611338565b610a05919061137a565b610a0f919061137a565b1682600060028110610a2457610a236112da565b5b60200201818152505082601183600060028110610a4457610a436112da565b5b6020020151901c610a559190611627565b905092915050565b6060610a67610e9e565b6000610a7561010085610572565b90506000610a8561010086610572565b9050610a9360008383610ae1565b85935093505050915091565b6060610aa9610e9e565b6000610ab761010085610572565b90506000610ac761010086610572565b9050610ad582826000610ae1565b85935093505050915091565b60606000600767ffffffffffffffff811115610b0057610aff610eea565b5b6040519080825280601f01601f191660200182016040528015610b325781602001600182028036833780820191505090505b5090507f230000000000000000000000000000000000000000000000000000000000000081600081518110610b6a57610b696112da565b5b60200101907effffffffffffffffffffffffffffffffffffffffffffffffffffffffffffff1916908160001a9053507f3031323334353637383941424344454600000000000000000000000000000000600460f08716901c60108110610bd357610bd26112da565b5b1a60f81b81600181518110610beb57610bea6112da565b5b60200101907effffffffffffffffffffffffffffffffffffffffffffffffffffffffffffff1916908160001a9053507f3031323334353637383941424344454600000000000000000000000000000000600f861660108110610c5057610c4f6112da565b5b1a60f81b81600281518110610c6857610c676112da565b5b60200101907effffffffffffffffffffffffffffffffffffffffffffffffffffffffffffff1916908160001a9053507f3031323334353637383941424344454600000000000000000000000000000000600460f08616901c60108110610cd157610cd06112da565b5b1a60f81b81600381518110610ce957610ce86112da565b5b60200101907effffffffffffffffffffffffffffffffffffffffffffffffffffffffffffff1916908160001a9053507f3031323334353637383941424344454600000000000000000000000000000000600f851660108110610d4e57610d4d6112da565b5b1a60f81b81600481518110610d6657610d656112da565b5b60200101907effffffffffffffffffffffffffffffffffffffffffffffffffffffffffffff1916908160001a9053507f3031323334353637383941424344454600000000000000000000000000000000600460f08516901c60108110610dcf57610dce6112da565b5b1a60f81b81600581518110610de757610de66112da565b5b60200101907effffffffffffffffffffffffffffffffffffffffffffffffffffffffffffff1916908160001a9053507f3031323334353637383941424344454600000000000000000000000000000000600f841660108110610e4c57610e4b6112da565b5b1a60f81b81600681518110610e6457610e636112da565b5b60200101907effffffffffffffffffffffffffffffffffffffffffffffffffffffffffffff1916908160001a905350809150509392505050565b6040518060400160405280600290602082028036833780820191505090505090565b6000604051905090565b600080fd5b600080fd5b600080fd5b6000601f19601f8301169050919050565b7f4e487b7100000000000000000000000000000000000000000000000000000000600052604160045260246000fd5b610f2282610ed9565b810181811067ffffffffffffffff82111715610f4157610f40610eea565b5b80604052505050565b6000610f54610ec0565b9050610f608282610f19565b919050565b600067ffffffffffffffff821115610f8057610f7f610eea565b5b602082029050919050565b600080fd5b6000819050919050565b610fa381610f90565b8114610fae57600080fd5b50565b600081359050610fc081610f9a565b92915050565b6000610fd9610fd484610f65565b610f4a565b90508060208402830185811115610ff357610ff2610f8b565b5b835b8181101561101c57806110088882610fb1565b845260208401935050602081019050610ff5565b5050509392505050565b600082601f83011261103b5761103a610ed4565b5b6002611048848285610fc6565b91505092915050565b60006040828403121561106757611066610eca565b5b600061107584828501611026565b91505092915050565b600081519050919050565b600082825260208201905092915050565b60005b838110156110b857808201518184015260208101905061109d565b60008484015250505050565b60006110cf8261107e565b6110d98185611089565b93506110e981856020860161109a565b6110f281610ed9565b840191505092915050565b600060029050919050565b600081905092915050565b6000819050919050565b61112681610f90565b82525050565b6000611138838361111d565b60208301905092915050565b6000602082019050919050565b61115a816110fd565b6111648184611108565b925061116f82611113565b8060005b838110156111a0578151611187878261112c565b965061119283611144565b925050600181019050611173565b505050505050565b600060608201905081810360008301526111c281856110c4565b90506111d16020830184611151565b9392505050565b600080606083850312156111ef576111ee610eca565b5b60006111fd85828601610fb1565b925050602061120e85828601611026565b9150509250929050565b61122181610f90565b82525050565b600060208201905061123c6000830184611218565b92915050565b60007fffffffff0000000000000000000000000000000000000000000000000000000082169050919050565b61127781611242565b811461128257600080fd5b50565b6000813590506112948161126e565b92915050565b600080606083850312156112b1576112b0610eca565b5b60006112bf85828601611285565b92505060206112d085828601611026565b9150509250929050565b7f4e487b7100000000000000000000000000000000000000000000000000000000600052603260045260246000fd5b7f4e487b7100000000000000000000000000000000000000000000000000000000600052601160045260246000fd5b600061134382610f90565b915061134e83610f90565b925082820261135c81610f90565b9150828204841483151761137357611372611309565b5b5092915050565b600061138582610f90565b915061139083610f90565b92508282019050808211156113a8576113a7611309565b5b92915050565b60006040820190506113c36000830184611151565b92915050565b600081519050919050565b600081905092915050565b60006113ea826113c9565b6113f481856113d4565b935061140481856020860161109a565b80840191505092915050565b600061141c82846113df565b915081905092915050565b7f4e487b7100000000000000000000000000000000000000000000000000000000600052600160045260246000fd5b600080fd5b600067ffffffffffffffff82111561147657611475610eea565b5b61147f82610ed9565b9050602081019050919050565b600061149f61149a8461145b565b610f4a565b9050828152602081018484840111156114bb576114ba611456565b5b6114c684828561109a565b509392505050565b600082601f8301126114e3576114e2610ed4565b5b81516114f384826020860161148c565b91505092915050565b60008151905061150b81610f9a565b92915050565b600061152461151f84610f65565b610f4a565b9050806020840283018581111561153e5761153d610f8b565b5b835b81811015611567578061155388826114fc565b845260208401935050602081019050611540565b5050509392505050565b600082601f83011261158657611585610ed4565b5b6002611593848285611511565b91505092915050565b600080606083850312156115b3576115b2610eca565b5b600083015167ffffffffffffffff8111156115d1576115d0610ecf565b5b6115dd858286016114ce565b92505060206115ee85828601611571565b9150509250929050565b7f4e487b7100000000000000000000000000000000000000000000000000000000600052601260045260246000fd5b600061163282610f90565b915061163d83610f90565b92508261164d5761164c6115f8565b5b82820690509291505056fea2646970667358221220def8e18cfe0241ca9eeb6bf67d809107c37df959455e6df608e5ae3442d7a4ac64736f6c63430008120033",
			"opcodes": "PUSH1 0xA0 PUSH1 0x40 MSTORE CALLVALUE DUP1 ISZERO PUSH3 0x11 JUMPI PUSH1 0x0 DUP1 REVERT JUMPDEST POP PUSH6 0xFFFFFFFFFFFF PUSH5 0x5DEECE66D PUSH1 0x1 NUMBER PUSH3 0x2E SWAP2 SWAP1 PUSH3 0x7A JUMP JUMPDEST BLOCKHASH PUSH1 0x0 SHR XOR AND PUSH1 0x80 DUP2 DUP2 MSTORE POP POP PUSH3 0xB5 JUMP JUMPDEST PUSH1 0x0 DUP2 SWAP1 POP SWAP2 SWAP1 POP JUMP JUMPDEST PUSH32 0x4E487B7100000000000000000000000000000000000000000000000000000000 PUSH1 0x0 MSTORE PUSH1 0x11 PUSH1 0x4 MSTORE PUSH1 0x24 PUSH1 0x0 REVERT JUMPDEST PUSH1 0x0 PUSH3 0x87 DUP3 PUSH3 0x41 JUMP JUMPDEST SWAP2 POP PUSH3 0x94 DUP4 PUSH3 0x41 JUMP JUMPDEST SWAP3 POP DUP3 DUP3 SUB SWAP1 POP DUP2 DUP2 GT ISZERO PUSH3 0xAF JUMPI PUSH3 0xAE PUSH3 0x4B JUMP JUMPDEST JUMPDEST SWAP3 SWAP2 POP POP JUMP JUMPDEST PUSH1 0x80 MLOAD PUSH2 0x168E PUSH3 0xD1 PUSH1 0x0 CODECOPY PUSH1 0x0 PUSH2 0x7A5 ADD MSTORE PUSH2 0x168E PUSH1 0x0 RETURN INVALID PUSH1 0x80 PUSH1 0x40 MSTORE CALLVALUE DUP1 ISZERO PUSH2 0x10 JUMPI PUSH1 0x0 DUP1 REVERT JUMPDEST POP PUSH1 0x4 CALLDATASIZE LT PUSH2 0x100 JUMPI PUSH1 0x0 CALLDATALOAD PUSH1 0xE0 SHR DUP1 PUSH4 0xA920C0AE GT PUSH2 0x97 JUMPI DUP1 PUSH4 0xE79FDACB GT PUSH2 0x66 JUMPI DUP1 PUSH4 0xE79FDACB EQ PUSH2 0x33D JUMPI DUP1 PUSH4 0xF8006F3B EQ PUSH2 0x36E JUMPI DUP1 PUSH4 0xFCFE40E0 EQ PUSH2 0x39E JUMPI DUP1 PUSH4 0xFF08CBE7 EQ PUSH2 0x3CF JUMPI PUSH2 0x100 JUMP JUMPDEST DUP1 PUSH4 0xA920C0AE EQ PUSH2 0x279 JUMPI DUP1 PUSH4 0xCA8666E0 EQ PUSH2 0x2AA JUMPI DUP1 PUSH4 0xDEE0A5BB EQ PUSH2 0x2DB JUMPI DUP1 PUSH4 0xE184526A EQ PUSH2 0x30C JUMPI PUSH2 0x100 JUMP JUMPDEST DUP1 PUSH4 0x4D424A32 GT PUSH2 0xD3 JUMPI DUP1 PUSH4 0x4D424A32 EQ PUSH2 0x1C8 JUMPI DUP1 PUSH4 0x4DA4D590 EQ PUSH2 0x1F9 JUMPI DUP1 PUSH4 0x77B31F88 EQ PUSH2 0x22A JUMPI DUP1 PUSH4 0x79147850 EQ PUSH2 0x25B JUMPI PUSH2 0x100 JUMP JUMPDEST DUP1 PUSH4 0xA609C3B EQ PUSH2 0x105 JUMPI DUP1 PUSH4 0x1336E0DA EQ PUSH2 0x136 JUMPI DUP1 PUSH4 0x3708F98C EQ PUSH2 0x167 JUMPI DUP1 PUSH4 0x414163C1 EQ PUSH2 0x198 JUMPI JUMPDEST PUSH1 0x0 DUP1 REVERT JUMPDEST PUSH2 0x11F PUSH1 0x4 DUP1 CALLDATASIZE SUB DUP2 ADD SWAP1 PUSH2 0x11A SWAP2 SWAP1 PUSH2 0x1051 JUMP JUMPDEST PUSH2 0x400 JUMP JUMPDEST PUSH1 0x40 MLOAD PUSH2 0x12D SWAP3 SWAP2 SWAP1 PUSH2 0x11A8 JUMP JUMPDEST PUSH1 0x40 MLOAD DUP1 SWAP2 SUB SWAP1 RETURN JUMPDEST PUSH2 0x150 PUSH1 0x4 DUP1 CALLDATASIZE SUB DUP2 ADD SWAP1 PUSH2 0x14B SWAP2 SWAP1 PUSH2 0x1051 JUMP JUMPDEST PUSH2 0x431 JUMP JUMPDEST PUSH1 0x40 MLOAD PUSH2 0x15E SWAP3 SWAP2 SWAP1 PUSH2 0x11A8 JUMP JUMPDEST PUSH1 0x40 MLOAD DUP1 SWAP2 SUB SWAP1 RETURN JUMPDEST PUSH2 0x181 PUSH1 0x4 DUP1 CALLDATASIZE SUB DUP2 ADD SWAP1 PUSH2 0x17C SWAP2 SWAP1 PUSH2 0x1051 JUMP JUMPDEST PUSH2 0x462 JUMP JUMPDEST PUSH1 0x40 MLOAD PUSH2 0x18F SWAP3 SWAP2 SWAP1 PUSH2 0x11A8 JUMP JUMPDEST PUSH1 0x40 MLOAD DUP1 SWAP2 SUB SWAP1 RETURN JUMPDEST PUSH2 0x1B2 PUSH1 0x4 DUP1 CALLDATASIZE SUB DUP2 ADD SWAP1 PUSH2 0x1AD SWAP2 SWAP1 PUSH2 0x11D8 JUMP JUMPDEST PUSH2 0x572 JUMP JUMPDEST PUSH1 0x40 MLOAD PUSH2 0x1BF SWAP2 SWAP1 PUSH2 0x1227 JUMP JUMPDEST PUSH1 0x40 MLOAD DUP1 SWAP2 SUB SWAP1 RETURN JUMPDEST PUSH2 0x1E2 PUSH1 0x4 DUP1 CALLDATASIZE SUB DUP2 ADD SWAP1 PUSH2 0x1DD SWAP2 SWAP1 PUSH2 0x129A JUMP JUMPDEST PUSH2 0x625 JUMP JUMPDEST PUSH1 0x40 MLOAD PUSH2 0x1F0 SWAP3 SWAP2 SWAP1 PUSH2 0x11A8 JUMP JUMPDEST PUSH1 0x40 MLOAD DUP1 SWAP2 SUB SWAP1 RETURN JUMPDEST PUSH2 0x213 PUSH1 0x4 DUP1 CALLDATASIZE SUB DUP2 ADD SWAP1 PUSH2 0x20E SWAP2 SWAP1 PUSH2 0x1051 JUMP JUMPDEST PUSH2 0x73F JUMP JUMPDEST PUSH1 0x40 MLOAD PUSH2 0x221 SWAP3 SWAP2 SWAP1 PUSH2 0x11A8 JUMP JUMPDEST PUSH1 0x40 MLOAD DUP1 SWAP2 SUB SWAP1 RETURN JUMPDEST PUSH2 0x244 PUSH1 0x4 DUP1 CALLDATASIZE SUB DUP2 ADD SWAP1 PUSH2 0x23F SWAP2 SWAP1 PUSH2 0x1051 JUMP JUMPDEST PUSH2 0x770 JUMP JUMPDEST PUSH1 0x40 MLOAD PUSH2 0x252 SWAP3 SWAP2 SWAP1 PUSH2 0x11A8 JUMP JUMPDEST PUSH1 0x40 MLOAD DUP1 SWAP2 SUB SWAP1 RETURN JUMPDEST PUSH2 0x263 PUSH2 0x7A1 JUMP JUMPDEST PUSH1 0x40 MLOAD PUSH2 0x270 SWAP2 SWAP1 PUSH2 0x1227 JUMP JUMPDEST PUSH1 0x40 MLOAD DUP1 SWAP2 SUB SWAP1 RETURN JUMPDEST PUSH2 0x293 PUSH1 0x4 DUP1 CALLDATASIZE SUB DUP2 ADD SWAP1 PUSH2 0x28E SWAP2 SWAP1 PUSH2 0x1051 JUMP JUMPDEST PUSH2 0x7C9 JUMP JUMPDEST PUSH1 0x40 MLOAD PUSH2 0x2A1 SWAP3 SWAP2 SWAP1 PUSH2 0x11A8 JUMP JUMPDEST PUSH1 0x40 MLOAD DUP1 SWAP2 SUB SWAP1 RETURN JUMPDEST PUSH2 0x2C4 PUSH1 0x4 DUP1 CALLDATASIZE SUB DUP2 ADD SWAP1 PUSH2 0x2BF SWAP2 SWAP1 PUSH2 0x1051 JUMP JUMPDEST PUSH2 0x8D9 JUMP JUMPDEST PUSH1 0x40 MLOAD PUSH2 0x2D2 SWAP3 SWAP2 SWAP1 PUSH2 0x11A8 JUMP JUMPDEST PUSH1 0x40 MLOAD DUP1 SWAP2 SUB SWAP1 RETURN JUMPDEST PUSH2 0x2F5 PUSH1 0x4 DUP1 CALLDATASIZE SUB DUP2 ADD SWAP1 PUSH2 0x2F0 SWAP2 SWAP1 PUSH2 0x1051 JUMP JUMPDEST PUSH2 0x91B JUMP JUMPDEST PUSH1 0x40 MLOAD PUSH2 0x303 SWAP3 SWAP2 SWAP1 PUSH2 0x11A8 JUMP JUMPDEST PUSH1 0x40 MLOAD DUP1 SWAP2 SUB SWAP1 RETURN JUMPDEST PUSH2 0x326 PUSH1 0x4 DUP1 CALLDATASIZE SUB DUP2 ADD SWAP1 PUSH2 0x321 SWAP2 SWAP1 PUSH2 0x1051 JUMP JUMPDEST PUSH2 0x94D JUMP JUMPDEST PUSH1 0x40 MLOAD PUSH2 0x334 SWAP3 SWAP2 SWAP1 PUSH2 0x11A8 JUMP JUMPDEST PUSH1 0x40 MLOAD DUP1 SWAP2 SUB SWAP1 RETURN JUMPDEST PUSH2 0x357 PUSH1 0x4 DUP1 CALLDATASIZE SUB DUP2 ADD SWAP1 PUSH2 0x352 SWAP2 SWAP1 PUSH2 0x1051 JUMP JUMPDEST PUSH2 0x97D JUMP JUMPDEST PUSH1 0x40 MLOAD PUSH2 0x365 SWAP3 SWAP2 SWAP1 PUSH2 0x11A8 JUMP JUMPDEST PUSH1 0x40 MLOAD DUP1 SWAP2 SUB SWAP1 RETURN JUMPDEST PUSH2 0x388 PUSH1 0x4 DUP1 CALLDATASIZE SUB DUP2 ADD SWAP1 PUSH2 0x383 SWAP2 SWAP1 PUSH2 0x11D8 JUMP JUMPDEST PUSH2 0x9AE JUMP JUMPDEST PUSH1 0x40 MLOAD PUSH2 0x395 SWAP2 SWAP1 PUSH2 0x1227 JUMP JUMPDEST PUSH1 0x40 MLOAD DUP1 SWAP2 SUB SWAP1 RETURN JUMPDEST PUSH2 0x3B8 PUSH1 0x4 DUP1 CALLDATASIZE SUB DUP2 ADD SWAP1 PUSH2 0x3B3 SWAP2 SWAP1 PUSH2 0x1051 JUMP JUMPDEST PUSH2 0xA5D JUMP JUMPDEST PUSH1 0x40 MLOAD PUSH2 0x3C6 SWAP3 SWAP2 SWAP1 PUSH2 0x11A8 JUMP JUMPDEST PUSH1 0x40 MLOAD DUP1 SWAP2 SUB SWAP1 RETURN JUMPDEST PUSH2 0x3E9 PUSH1 0x4 DUP1 CALLDATASIZE SUB DUP2 ADD SWAP1 PUSH2 0x3E4 SWAP2 SWAP1 PUSH2 0x1051 JUMP JUMPDEST PUSH2 0xA9F JUMP JUMPDEST PUSH1 0x40 MLOAD PUSH2 0x3F7 SWAP3 SWAP2 SWAP1 PUSH2 0x11A8 JUMP JUMPDEST PUSH1 0x40 MLOAD DUP1 SWAP2 SUB SWAP1 RETURN JUMPDEST PUSH1 0x60 PUSH2 0x40A PUSH2 0xE9E JUMP JUMPDEST PUSH1 0x0 PUSH2 0x418 PUSH2 0x100 DUP6 PUSH2 0x572 JUMP JUMPDEST SWAP1 POP PUSH2 0x426 DUP2 PUSH1 0x0 DUP4 PUSH2 0xAE1 JUMP JUMPDEST DUP5 SWAP3 POP SWAP3 POP POP SWAP2 POP SWAP2 JUMP JUMPDEST PUSH1 0x60 PUSH2 0x43B PUSH2 0xE9E JUMP JUMPDEST PUSH1 0x0 PUSH2 0x449 PUSH2 0x100 DUP6 PUSH2 0x572 JUMP JUMPDEST SWAP1 POP PUSH2 0x457 PUSH1 0x0 DUP1 DUP4 PUSH2 0xAE1 JUMP JUMPDEST DUP5 SWAP3 POP SWAP3 POP POP SWAP2 POP SWAP2 JUMP JUMPDEST PUSH1 0x60 PUSH2 0x46C PUSH2 0xE9E JUMP JUMPDEST PUSH1 0x0 PUSH1 0x80 SWAP1 POP PUSH1 0x0 PUSH2 0x47F PUSH1 0x6 DUP7 PUSH2 0x9AE JUMP JUMPDEST SWAP1 POP PUSH1 0x60 PUSH1 0x0 DUP3 SUB PUSH2 0x49E JUMPI PUSH2 0x497 DUP4 PUSH1 0x0 DUP1 PUSH2 0xAE1 JUMP JUMPDEST SWAP1 POP PUSH2 0x564 JUMP JUMPDEST PUSH1 0x1 DUP3 SUB PUSH2 0x4BA JUMPI PUSH2 0x4B3 PUSH1 0x0 DUP5 PUSH1 0x0 PUSH2 0xAE1 JUMP JUMPDEST SWAP1 POP PUSH2 0x563 JUMP JUMPDEST PUSH1 0x2 DUP3 SUB PUSH2 0x4D5 JUMPI PUSH2 0x4CE PUSH1 0x0 DUP1 DUP6 PUSH2 0xAE1 JUMP JUMPDEST SWAP1 POP PUSH2 0x562 JUMP JUMPDEST PUSH1 0x3 DUP3 SUB PUSH2 0x4F0 JUMPI PUSH2 0x4E9 PUSH1 0x0 DUP5 DUP6 PUSH2 0xAE1 JUMP JUMPDEST SWAP1 POP PUSH2 0x561 JUMP JUMPDEST PUSH1 0x4 DUP3 SUB PUSH2 0x50B JUMPI PUSH2 0x504 DUP4 DUP5 PUSH1 0x0 PUSH2 0xAE1 JUMP JUMPDEST SWAP1 POP PUSH2 0x560 JUMP JUMPDEST PUSH1 0x5 DUP3 SUB PUSH2 0x526 JUMPI PUSH2 0x51F DUP4 PUSH1 0x0 DUP6 PUSH2 0xAE1 JUMP JUMPDEST SWAP1 POP PUSH2 0x55F JUMP JUMPDEST PUSH1 0x40 MLOAD DUP1 PUSH1 0x40 ADD PUSH1 0x40 MSTORE DUP1 PUSH1 0x1 DUP2 MSTORE PUSH1 0x20 ADD PUSH32 0x3F00000000000000000000000000000000000000000000000000000000000000 DUP2 MSTORE POP SWAP1 POP JUMPDEST JUMPDEST JUMPDEST JUMPDEST JUMPDEST JUMPDEST DUP1 DUP7 SWAP5 POP SWAP5 POP POP POP POP SWAP2 POP SWAP2 JUMP JUMPDEST PUSH1 0x0 PUSH6 0xFFFFFFFFFFFF DUP3 PUSH1 0x1 PUSH1 0x2 DUP2 LT PUSH2 0x58F JUMPI PUSH2 0x58E PUSH2 0x12DA JUMP JUMPDEST JUMPDEST PUSH1 0x20 MUL ADD MLOAD PUSH1 0xB PUSH5 0x5DEECE66D DUP6 PUSH1 0x0 PUSH1 0x2 DUP2 LT PUSH2 0x5B0 JUMPI PUSH2 0x5AF PUSH2 0x12DA JUMP JUMPDEST JUMPDEST PUSH1 0x20 MUL ADD MLOAD PUSH2 0x5BF SWAP2 SWAP1 PUSH2 0x1338 JUMP JUMPDEST PUSH2 0x5C9 SWAP2 SWAP1 PUSH2 0x137A JUMP JUMPDEST PUSH2 0x5D3 SWAP2 SWAP1 PUSH2 0x137A JUMP JUMPDEST AND DUP3 PUSH1 0x0 PUSH1 0x2 DUP2 LT PUSH2 0x5E8 JUMPI PUSH2 0x5E7 PUSH2 0x12DA JUMP JUMPDEST JUMPDEST PUSH1 0x20 MUL ADD DUP2 DUP2 MSTORE POP POP PUSH1 0x1F PUSH1 0x11 DUP4 PUSH1 0x0 PUSH1 0x2 DUP2 LT PUSH2 0x609 JUMPI PUSH2 0x608 PUSH2 0x12DA JUMP JUMPDEST JUMPDEST PUSH1 0x20 MUL ADD MLOAD SWAP1 SHR DUP5 PUSH2 0x61B SWAP2 SWAP1 PUSH2 0x1338 JUMP JUMPDEST SWAP1 SHR SWAP1 POP SWAP3 SWAP2 POP POP JUMP JUMPDEST PUSH1 0x60 PUSH2 0x62F PUSH2 0xE9E JUMP JUMPDEST PUSH1 0x0 DUP5 DUP5 PUSH1 0x40 MLOAD PUSH1 0x24 ADD PUSH2 0x643 SWAP2 SWAP1 PUSH2 0x13AE JUMP JUMPDEST PUSH1 0x40 MLOAD PUSH1 0x20 DUP2 DUP4 SUB SUB DUP2 MSTORE SWAP1 PUSH1 0x40 MSTORE SWAP1 PUSH28 0xFFFFFFFFFFFFFFFFFFFFFFFFFFFFFFFFFFFFFFFFFFFFFFFFFFFFFFFF NOT AND PUSH1 0x20 DUP3 ADD DUP1 MLOAD PUSH28 0xFFFFFFFFFFFFFFFFFFFFFFFFFFFFFFFFFFFFFFFFFFFFFFFFFFFFFFFF DUP4 DUP2 DUP4 AND OR DUP4 MSTORE POP POP POP POP SWAP1 POP PUSH1 0x0 DUP1 ADDRESS PUSH20 0xFFFFFFFFFFFFFFFFFFFFFFFFFFFFFFFFFFFFFFFF AND DUP4 PUSH1 0x40 MLOAD PUSH2 0x6CA SWAP2 SWAP1 PUSH2 0x1410 JUMP JUMPDEST PUSH1 0x0 PUSH1 0x40 MLOAD DUP1 DUP4 SUB DUP2 DUP6 GAS STATICCALL SWAP2 POP POP RETURNDATASIZE DUP1 PUSH1 0x0 DUP2 EQ PUSH2 0x705 JUMPI PUSH1 0x40 MLOAD SWAP2 POP PUSH1 0x1F NOT PUSH1 0x3F RETURNDATASIZE ADD AND DUP3 ADD PUSH1 0x40 MSTORE RETURNDATASIZE DUP3 MSTORE RETURNDATASIZE PUSH1 0x0 PUSH1 0x20 DUP5 ADD RETURNDATACOPY PUSH2 0x70A JUMP JUMPDEST PUSH1 0x60 SWAP2 POP JUMPDEST POP SWAP2 POP SWAP2 POP DUP2 PUSH2 0x71D JUMPI PUSH2 0x71C PUSH2 0x1427 JUMP JUMPDEST JUMPDEST DUP1 DUP1 PUSH1 0x20 ADD SWAP1 MLOAD DUP2 ADD SWAP1 PUSH2 0x731 SWAP2 SWAP1 PUSH2 0x159C JUMP JUMPDEST SWAP5 POP SWAP5 POP POP POP POP SWAP3 POP SWAP3 SWAP1 POP JUMP JUMPDEST PUSH1 0x60 PUSH2 0x749 PUSH2 0xE9E JUMP JUMPDEST PUSH1 0x0 PUSH2 0x757 PUSH2 0x100 DUP6 PUSH2 0x572 JUMP JUMPDEST SWAP1 POP PUSH2 0x765 DUP2 PUSH1 0x0 DUP1 PUSH2 0xAE1 JUMP JUMPDEST DUP5 SWAP3 POP SWAP3 POP POP SWAP2 POP SWAP2 JUMP JUMPDEST PUSH1 0x60 PUSH2 0x77A PUSH2 0xE9E JUMP JUMPDEST PUSH1 0x0 PUSH2 0x788 PUSH2 0x100 DUP6 PUSH2 0x572 JUMP JUMPDEST SWAP1 POP PUSH2 0x796 DUP2 DUP3 PUSH1 0x0 PUSH2 0xAE1 JUMP JUMPDEST DUP5 SWAP3 POP SWAP3 POP POP SWAP2 POP SWAP2 JUMP JUMPDEST PUSH1 0x0 PUSH32 0x0 SWAP1 POP SWAP1 JUMP JUMPDEST PUSH1 0x60 PUSH2 0x7D3 PUSH2 0xE9E JUMP JUMPDEST PUSH1 0x0 PUSH1 0xFF SWAP1 POP PUSH1 0x0 PUSH2 0x7E6 PUSH1 0x6 DUP7 PUSH2 0x9AE JUMP JUMPDEST SWAP1 POP PUSH1 0x60 PUSH1 0x0 DUP3 SUB PUSH2 0x805 JUMPI PUSH2 0x7FE DUP4 PUSH1 0x0 DUP1 PUSH2 0xAE1 JUMP JUMPDEST SWAP1 POP PUSH2 0x8CB JUMP JUMPDEST PUSH1 0x1 DUP3 SUB PUSH2 0x821 JUMPI PUSH2 0x81A PUSH1 0x0 DUP5 PUSH1 0x0 PUSH2 0xAE1 JUMP JUMPDEST SWAP1 POP PUSH2 0x8CA JUMP JUMPDEST PUSH1 0x2 DUP3 SUB PUSH2 0x83C JUMPI PUSH2 0x835 PUSH1 0x0 DUP1 DUP6 PUSH2 0xAE1 JUMP JUMPDEST SWAP1 POP PUSH2 0x8C9 JUMP JUMPDEST PUSH1 0x3 DUP3 SUB PUSH2 0x857 JUMPI PUSH2 0x850 PUSH1 0x0 DUP5 DUP6 PUSH2 0xAE1 JUMP JUMPDEST SWAP1 POP PUSH2 0x8C8 JUMP JUMPDEST PUSH1 0x4 DUP3 SUB PUSH2 0x872 JUMPI PUSH2 0x86B DUP4 DUP5 PUSH1 0x0 PUSH2 0xAE1 JUMP JUMPDEST SWAP1 POP PUSH2 0x8C7 JUMP JUMPDEST PUSH1 0x5 DUP3 SUB PUSH2 0x88D JUMPI PUSH2 0x886 DUP4 PUSH1 0x0 DUP6 PUSH2 0xAE1 JUMP JUMPDEST SWAP1 POP PUSH2 0x8C6 JUMP JUMPDEST PUSH1 0x40 MLOAD DUP1 PUSH1 0x40 ADD PUSH1 0x40 MSTORE DUP1 PUSH1 0x1 DUP2 MSTORE PUSH1 0x20 ADD PUSH32 0x3F00000000000000000000000000000000000000000000000000000000000000 DUP2 MSTORE POP SWAP1 POP JUMPDEST JUMPDEST JUMPDEST JUMPDEST JUMPDEST JUMPDEST DUP1 DUP7 SWAP5 POP SWAP5 POP POP POP POP SWAP2 POP SWAP2 JUMP JUMPDEST PUSH1 0x60 PUSH2 0x8E3 PUSH2 0xE9E JUMP JUMPDEST PUSH1 0x0 PUSH2 0x8F1 PUSH2 0x100 DUP6 PUSH2 0x572 JUMP JUMPDEST SWAP1 POP PUSH1 0x0 PUSH2 0x901 PUSH2 0x100 DUP7 PUSH2 0x572 JUMP JUMPDEST SWAP1 POP PUSH2 0x90F DUP3 PUSH1 0x0 DUP4 PUSH2 0xAE1 JUMP JUMPDEST DUP6 SWAP4 POP SWAP4 POP POP POP SWAP2 POP SWAP2 JUMP JUMPDEST PUSH1 0x60 PUSH2 0x925 PUSH2 0xE9E JUMP JUMPDEST PUSH1 0x0 PUSH2 0x933 PUSH2 0x100 DUP6 PUSH2 0x572 JUMP JUMPDEST SWAP1 POP PUSH2 0x942 PUSH1 0x0 DUP3 PUSH1 0x0 PUSH2 0xAE1 JUMP JUMPDEST DUP5 SWAP3 POP SWAP3 POP POP SWAP2 POP SWAP2 JUMP JUMPDEST PUSH1 0x60 PUSH2 0x957 PUSH2 0xE9E JUMP JUMPDEST PUSH1 0x0 PUSH2 0x965 PUSH2 0x100 DUP6 PUSH2 0x572 JUMP JUMPDEST SWAP1 POP PUSH2 0x972 DUP2 DUP3 DUP4 PUSH2 0xAE1 JUMP JUMPDEST DUP5 SWAP3 POP SWAP3 POP POP SWAP2 POP SWAP2 JUMP JUMPDEST PUSH1 0x60 PUSH2 0x987 PUSH2 0xE9E JUMP JUMPDEST PUSH1 0x0 PUSH2 0x995 PUSH2 0x100 DUP6 PUSH2 0x572 JUMP JUMPDEST SWAP1 POP PUSH2 0x9A3 PUSH1 0x0 DUP3 DUP4 PUSH2 0xAE1 JUMP JUMPDEST DUP5 SWAP3 POP SWAP3 POP POP SWAP2 POP SWAP2 JUMP JUMPDEST PUSH1 0x0 PUSH6 0xFFFFFFFFFFFF DUP3 PUSH1 0x1 PUSH1 0x2 DUP2 LT PUSH2 0x9CB JUMPI PUSH2 0x9CA PUSH2 0x12DA JUMP JUMPDEST JUMPDEST PUSH1 0x20 MUL ADD MLOAD PUSH1 0xB PUSH5 0x5DEECE66D DUP6 PUSH1 0x0 PUSH1 0x2 DUP2 LT PUSH2 0x9EC JUMPI PUSH2 0x9EB PUSH2 0x12DA JUMP JUMPDEST JUMPDEST PUSH1 0x20 MUL ADD MLOAD PUSH2 0x9FB SWAP2 SWAP1 PUSH2 0x1338 JUMP JUMPDEST PUSH2 0xA05 SWAP2 SWAP1 PUSH2 0x137A JUMP JUMPDEST PUSH2 0xA0F SWAP2 SWAP1 PUSH2 0x137A JUMP JUMPDEST AND DUP3 PUSH1 0x0 PUSH1 0x2 DUP2 LT PUSH2 0xA24 JUMPI PUSH2 0xA23 PUSH2 0x12DA JUMP JUMPDEST JUMPDEST PUSH1 0x20 MUL ADD DUP2 DUP2 MSTORE POP POP DUP3 PUSH1 0x11 DUP4 PUSH1 0x0 PUSH1 0x2 DUP2 LT PUSH2 0xA44 JUMPI PUSH2 0xA43 PUSH2 0x12DA JUMP JUMPDEST JUMPDEST PUSH1 0x20 MUL ADD MLOAD SWAP1 SHR PUSH2 0xA55 SWAP2 SWAP1 PUSH2 0x1627 JUMP JUMPDEST SWAP1 POP SWAP3 SWAP2 POP POP JUMP JUMPDEST PUSH1 0x60 PUSH2 0xA67 PUSH2 0xE9E JUMP JUMPDEST PUSH1 0x0 PUSH2 0xA75 PUSH2 0x100 DUP6 PUSH2 0x572 JUMP JUMPDEST SWAP1 POP PUSH1 0x0 PUSH2 0xA85 PUSH2 0x100 DUP7 PUSH2 0x572 JUMP JUMPDEST SWAP1 POP PUSH2 0xA93 PUSH1 0x0 DUP4 DUP4 PUSH2 0xAE1 JUMP JUMPDEST DUP6 SWAP4 POP SWAP4 POP POP POP SWAP2 POP SWAP2 JUMP JUMPDEST PUSH1 0x60 PUSH2 0xAA9 PUSH2 0xE9E JUMP JUMPDEST PUSH1 0x0 PUSH2 0xAB7 PUSH2 0x100 DUP6 PUSH2 0x572 JUMP JUMPDEST SWAP1 POP PUSH1 0x0 PUSH2 0xAC7 PUSH2 0x100 DUP7 PUSH2 0x572 JUMP JUMPDEST SWAP1 POP PUSH2 0xAD5 DUP3 DUP3 PUSH1 0x0 PUSH2 0xAE1 JUMP JUMPDEST DUP6 SWAP4 POP SWAP4 POP POP POP SWAP2 POP SWAP2 JUMP JUMPDEST PUSH1 0x60 PUSH1 0x0 PUSH1 0x7 PUSH8 0xFFFFFFFFFFFFFFFF DUP2 GT ISZERO PUSH2 0xB00 JUMPI PUSH2 0xAFF PUSH2 0xEEA JUMP JUMPDEST JUMPDEST PUSH1 0x40 MLOAD SWAP1 DUP1 DUP3 MSTORE DUP1 PUSH1 0x1F ADD PUSH1 0x1F NOT AND PUSH1 0x20 ADD DUP3 ADD PUSH1 0x40 MSTORE DUP1 ISZERO PUSH2 0xB32 JUMPI DUP2 PUSH1 0x20 ADD PUSH1 0x1 DUP3 MUL DUP1 CALLDATASIZE DUP4 CALLDATACOPY DUP1 DUP3 ADD SWAP2 POP POP SWAP1 POP JUMPDEST POP SWAP1 POP PUSH32 0x2300000000000000000000000000000000000000000000000000000000000000 DUP2 PUSH1 0x0 DUP2 MLOAD DUP2 LT PUSH2 0xB6A JUMPI PUSH2 0xB69 PUSH2 0x12DA JUMP JUMPDEST JUMPDEST PUSH1 0x20 ADD ADD SWAP1 PUSH31 0xFFFFFFFFFFFFFFFFFFFFFFFFFFFFFFFFFFFFFFFFFFFFFFFFFFFFFFFFFFFFFF NOT AND SWAP1 DUP2 PUSH1 0x0 BYTE SWAP1 MSTORE8 POP PUSH32 0x3031323334353637383941424344454600000000000000000000000000000000 PUSH1 0x4 PUSH1 0xF0 DUP8 AND SWAP1 SHR PUSH1 0x10 DUP2 LT PUSH2 0xBD3 JUMPI PUSH2 0xBD2 PUSH2 0x12DA JUMP JUMPDEST JUMPDEST BYTE PUSH1 0xF8 SHL DUP2 PUSH1 0x1 DUP2 MLOAD DUP2 LT PUSH2 0xBEB JUMPI PUSH2 0xBEA PUSH2 0x12DA JUMP JUMPDEST JUMPDEST PUSH1 0x20 ADD ADD SWAP1 PUSH31 0xFFFFFFFFFFFFFFFFFFFFFFFFFFFFFFFFFFFFFFFFFFFFFFFFFFFFFFFFFFFFFF NOT AND SWAP1 DUP2 PUSH1 0x0 BYTE SWAP1 MSTORE8 POP PUSH32 0x3031323334353637383941424344454600000000000000000000000000000000 PUSH1 0xF DUP7 AND PUSH1 0x10 DUP2 LT PUSH2 0xC50 JUMPI PUSH2 0xC4F PUSH2 0x12DA JUMP JUMPDEST JUMPDEST BYTE PUSH1 0xF8 SHL DUP2 PUSH1 0x2 DUP2 MLOAD DUP2 LT PUSH2 0xC68 JUMPI PUSH2 0xC67 PUSH2 0x12DA JUMP JUMPDEST JUMPDEST PUSH1 0x20 ADD ADD SWAP1 PUSH31 0xFFFFFFFFFFFFFFFFFFFFFFFFFFFFFFFFFFFFFFFFFFFFFFFFFFFFFFFFFFFFFF NOT AND SWAP1 DUP2 PUSH1 0x0 BYTE SWAP1 MSTORE8 POP PUSH32 0x3031323334353637383941424344454600000000000000000000000000000000 PUSH1 0x4 PUSH1 0xF0 DUP7 AND SWAP1 SHR PUSH1 0x10 DUP2 LT PUSH2 0xCD1 JUMPI PUSH2 0xCD0 PUSH2 0x12DA JUMP JUMPDEST JUMPDEST BYTE PUSH1 0xF8 SHL DUP2 PUSH1 0x3 DUP2 MLOAD DUP2 LT PUSH2 0xCE9 JUMPI PUSH2 0xCE8 PUSH2 0x12DA JUMP JUMPDEST JUMPDEST PUSH1 0x20 ADD ADD SWAP1 PUSH31 0xFFFFFFFFFFFFFFFFFFFFFFFFFFFFFFFFFFFFFFFFFFFFFFFFFFFFFFFFFFFFFF NOT AND SWAP1 DUP2 PUSH1 0x0 BYTE SWAP1 MSTORE8 POP PUSH32 0x3031323334353637383941424344454600000000000000000000000000000000 PUSH1 0xF DUP6 AND PUSH1 0x10 DUP2 LT PUSH2 0xD4E JUMPI PUSH2 0xD4D PUSH2 0x12DA JUMP JUMPDEST JUMPDEST BYTE PUSH1 0xF8 SHL DUP2 PUSH1 0x4 DUP2 MLOAD DUP2 LT PUSH2 0xD66 JUMPI PUSH2 0xD65 PUSH2 0x12DA JUMP JUMPDEST JUMPDEST PUSH1 0x20 ADD ADD SWAP1 PUSH31 0xFFFFFFFFFFFFFFFFFFFFFFFFFFFFFFFFFFFFFFFFFFFFFFFFFFFFFFFFFFFFFF NOT AND SWAP1 DUP2 PUSH1 0x0 BYTE SWAP1 MSTORE8 POP PUSH32 0x3031323334353637383941424344454600000000000000000000000000000000 PUSH1 0x4 PUSH1 0xF0 DUP6 AND SWAP1 SHR PUSH1 0x10 DUP2 LT PUSH2 0xDCF JUMPI PUSH2 0xDCE PUSH2 0x12DA JUMP JUMPDEST JUMPDEST BYTE PUSH1 0xF8 SHL DUP2 PUSH1 0x5 DUP2 MLOAD DUP2 LT PUSH2 0xDE7 JUMPI PUSH2 0xDE6 PUSH2 0x12DA JUMP JUMPDEST JUMPDEST PUSH1 0x20 ADD ADD SWAP1 PUSH31 0xFFFFFFFFFFFFFFFFFFFFFFFFFFFFFFFFFFFFFFFFFFFFFFFFFFFFFFFFFFFFFF NOT AND SWAP1 DUP2 PUSH1 0x0 BYTE SWAP1 MSTORE8 POP PUSH32 0x3031323334353637383941424344454600000000000000000000000000000000 PUSH1 0xF DUP5 AND PUSH1 0x10 DUP2 LT PUSH2 0xE4C JUMPI PUSH2 0xE4B PUSH2 0x12DA JUMP JUMPDEST JUMPDEST BYTE PUSH1 0xF8 SHL DUP2 PUSH1 0x6 DUP2 MLOAD DUP2 LT PUSH2 0xE64 JUMPI PUSH2 0xE63 PUSH2 0x12DA JUMP JUMPDEST JUMPDEST PUSH1 0x20 ADD ADD SWAP1 PUSH31 0xFFFFFFFFFFFFFFFFFFFFFFFFFFFFFFFFFFFFFFFFFFFFFFFFFFFFFFFFFFFFFF NOT AND SWAP1 DUP2 PUSH1 0x0 BYTE SWAP1 MSTORE8 POP DUP1 SWAP2 POP POP SWAP4 SWAP3 POP POP POP JUMP JUMPDEST PUSH1 0x40 MLOAD DUP1 PUSH1 0x40 ADD PUSH1 0x40 MSTORE DUP1 PUSH1 0x2 SWAP1 PUSH1 0x20 DUP3 MUL DUP1 CALLDATASIZE DUP4 CALLDATACOPY DUP1 DUP3 ADD SWAP2 POP POP SWAP1 POP POP SWAP1 JUMP JUMPDEST PUSH1 0x0 PUSH1 0x40 MLOAD SWAP1 POP SWAP1 JUMP JUMPDEST PUSH1 0x0 DUP1 REVERT JUMPDEST PUSH1 0x0 DUP1 REVERT JUMPDEST PUSH1 0x0 DUP1 REVERT JUMPDEST PUSH1 0x0 PUSH1 0x1F NOT PUSH1 0x1F DUP4 ADD AND SWAP1 POP SWAP2 SWAP1 POP JUMP JUMPDEST PUSH32 0x4E487B7100000000000000000000000000000000000000000000000000000000 PUSH1 0x0 MSTORE PUSH1 0x41 PUSH1 0x4 MSTORE PUSH1 0x24 PUSH1 0x0 REVERT JUMPDEST PUSH2 0xF22 DUP3 PUSH2 0xED9 JUMP JUMPDEST DUP2 ADD DUP2 DUP2 LT PUSH8 0xFFFFFFFFFFFFFFFF DUP3 GT OR ISZERO PUSH2 0xF41 JUMPI PUSH2 0xF40 PUSH2 0xEEA JUMP JUMPDEST JUMPDEST DUP1 PUSH1 0x40 MSTORE POP POP POP JUMP JUMPDEST PUSH1 0x0 PUSH2 0xF54 PUSH2 0xEC0 JUMP JUMPDEST SWAP1 POP PUSH2 0xF60 DUP3 DUP3 PUSH2 0xF19 JUMP JUMPDEST SWAP2 SWAP1 POP JUMP JUMPDEST PUSH1 0x0 PUSH8 0xFFFFFFFFFFFFFFFF DUP3 GT ISZERO PUSH2 0xF80 JUMPI PUSH2 0xF7F PUSH2 0xEEA JUMP JUMPDEST JUMPDEST PUSH1 0x20 DUP3 MUL SWAP1 POP SWAP2 SWAP1 POP JUMP JUMPDEST PUSH1 0x0 DUP1 REVERT JUMPDEST PUSH1 0x0 DUP2 SWAP1 POP SWAP2 SWAP1 POP JUMP JUMPDEST PUSH2 0xFA3 DUP2 PUSH2 0xF90 JUMP JUMPDEST DUP2 EQ PUSH2 0xFAE JUMPI PUSH1 0x0 DUP1 REVERT JUMPDEST POP JUMP JUMPDEST PUSH1 0x0 DUP2 CALLDATALOAD SWAP1 POP PUSH2 0xFC0 DUP2 PUSH2 0xF9A JUMP JUMPDEST SWAP3 SWAP2 POP POP JUMP JUMPDEST PUSH1 0x0 PUSH2 0xFD9 PUSH2 0xFD4 DUP5 PUSH2 0xF65 JUMP JUMPDEST PUSH2 0xF4A JUMP JUMPDEST SWAP1 POP DUP1 PUSH1 0x20 DUP5 MUL DUP4 ADD DUP6 DUP2 GT ISZERO PUSH2 0xFF3 JUMPI PUSH2 0xFF2 PUSH2 0xF8B JUMP JUMPDEST JUMPDEST DUP4 JUMPDEST DUP2 DUP2 LT ISZERO PUSH2 0x101C JUMPI DUP1 PUSH2 0x1008 DUP9 DUP3 PUSH2 0xFB1 JUMP JUMPDEST DUP5 MSTORE PUSH1 0x20 DUP5 ADD SWAP4 POP POP PUSH1 0x20 DUP2 ADD SWAP1 POP PUSH2 0xFF5 JUMP JUMPDEST POP POP POP SWAP4 SWAP3 POP POP POP JUMP JUMPDEST PUSH1 0x0 DUP3 PUSH1 0x1F DUP4 ADD SLT PUSH2 0x103B JUMPI PUSH2 0x103A PUSH2 0xED4 JUMP JUMPDEST JUMPDEST PUSH1 0x2 PUSH2 0x1048 DUP5 DUP3 DUP6 PUSH2 0xFC6 JUMP JUMPDEST SWAP2 POP POP SWAP3 SWAP2 POP POP JUMP JUMPDEST PUSH1 0x0 PUSH1 0x40 DUP3 DUP5 SUB SLT ISZERO PUSH2 0x1067 JUMPI PUSH2 0x1066 PUSH2 0xECA JUMP JUMPDEST JUMPDEST PUSH1 0x0 PUSH2 0x1075 DUP5 DUP3 DUP6 ADD PUSH2 0x1026 JUMP JUMPDEST SWAP2 POP POP SWAP3 SWAP2 POP POP JUMP JUMPDEST PUSH1 0x0 DUP2 MLOAD SWAP1 POP SWAP2 SWAP1 POP JUMP JUMPDEST PUSH1 0x0 DUP3 DUP3 MSTORE PUSH1 0x20 DUP3 ADD SWAP1 POP SWAP3 SWAP2 POP POP JUMP JUMPDEST PUSH1 0x0 JUMPDEST DUP4 DUP2 LT ISZERO PUSH2 0x10B8 JUMPI DUP1 DUP3 ADD MLOAD DUP2 DUP5 ADD MSTORE PUSH1 0x20 DUP2 ADD SWAP1 POP PUSH2 0x109D JUMP JUMPDEST PUSH1 0x0 DUP5 DUP5 ADD MSTORE POP POP POP POP JUMP JUMPDEST PUSH1 0x0 PUSH2 0x10CF DUP3 PUSH2 0x107E JUMP JUMPDEST PUSH2 0x10D9 DUP2 DUP6 PUSH2 0x1089 JUMP JUMPDEST SWAP4 POP PUSH2 0x10E9 DUP2 DUP6 PUSH1 0x20 DUP7 ADD PUSH2 0x109A JUMP JUMPDEST PUSH2 0x10F2 DUP2 PUSH2 0xED9 JUMP JUMPDEST DUP5 ADD SWAP2 POP POP SWAP3 SWAP2 POP POP JUMP JUMPDEST PUSH1 0x0 PUSH1 0x2 SWAP1 POP SWAP2 SWAP1 POP JUMP JUMPDEST PUSH1 0x0 DUP2 SWAP1 POP SWAP3 SWAP2 POP POP JUMP JUMPDEST PUSH1 0x0 DUP2 SWAP1 POP SWAP2 SWAP1 POP JUMP JUMPDEST PUSH2 0x1126 DUP2 PUSH2 0xF90 JUMP JUMPDEST DUP3 MSTORE POP POP JUMP JUMPDEST PUSH1 0x0 PUSH2 0x1138 DUP4 DUP4 PUSH2 0x111D JUMP JUMPDEST PUSH1 0x20 DUP4 ADD SWAP1 POP SWAP3 SWAP2 POP POP JUMP JUMPDEST PUSH1 0x0 PUSH1 0x20 DUP3 ADD SWAP1 POP SWAP2 SWAP1 POP JUMP JUMPDEST PUSH2 0x115A DUP2 PUSH2 0x10FD JUMP JUMPDEST PUSH2 0x1164 DUP2 DUP5 PUSH2 0x1108 JUMP JUMPDEST SWAP3 POP PUSH2 0x116F DUP3 PUSH2 0x1113 JUMP JUMPDEST DUP1 PUSH1 0x0 JUMPDEST DUP4 DUP2 LT ISZERO PUSH2 0x11A0 JUMPI DUP2 MLOAD PUSH2 0x1187 DUP8 DUP3 PUSH2 0x112C JUMP JUMPDEST SWAP7 POP PUSH2 0x1192 DUP4 PUSH2 0x1144 JUMP JUMPDEST SWAP3 POP POP PUSH1 0x1 DUP2 ADD SWAP1 POP PUSH2 0x1173 JUMP JUMPDEST POP POP POP POP POP POP JUMP JUMPDEST PUSH1 0x0 PUSH1 0x60 DUP3 ADD SWAP1 POP DUP2 DUP2 SUB PUSH1 0x0 DUP4 ADD MSTORE PUSH2 0x11C2 DUP2 DUP6 PUSH2 0x10C4 JUMP JUMPDEST SWAP1 POP PUSH2 0x11D1 PUSH1 0x20 DUP4 ADD DUP5 PUSH2 0x1151 JUMP JUMPDEST SWAP4 SWAP3 POP POP POP JUMP JUMPDEST PUSH1 0x0 DUP1 PUSH1 0x60 DUP4 DUP6 SUB SLT ISZERO PUSH2 0x11EF JUMPI PUSH2 0x11EE PUSH2 0xECA JUMP JUMPDEST JUMPDEST PUSH1 0x0 PUSH2 0x11FD DUP6 DUP3 DUP7 ADD PUSH2 0xFB1 JUMP JUMPDEST SWAP3 POP POP PUSH1 0x20 PUSH2 0x120E DUP6 DUP3 DUP7 ADD PUSH2 0x1026 JUMP JUMPDEST SWAP2 POP POP SWAP3 POP SWAP3 SWAP1 POP JUMP JUMPDEST PUSH2 0x1221 DUP2 PUSH2 0xF90 JUMP JUMPDEST DUP3 MSTORE POP POP JUMP JUMPDEST PUSH1 0x0 PUSH1 0x20 DUP3 ADD SWAP1 POP PUSH2 0x123C PUSH1 0x0 DUP4 ADD DUP5 PUSH2 0x1218 JUMP JUMPDEST SWAP3 SWAP2 POP POP JUMP JUMPDEST PUSH1 0x0 PUSH32 0xFFFFFFFF00000000000000000000000000000000000000000000000000000000 DUP3 AND SWAP1 POP SWAP2 SWAP1 POP JUMP JUMPDEST PUSH2 0x1277 DUP2 PUSH2 0x1242 JUMP JUMPDEST DUP2 EQ PUSH2 0x1282 JUMPI PUSH1 0x0 DUP1 REVERT JUMPDEST POP JUMP JUMPDEST PUSH1 0x0 DUP2 CALLDATALOAD SWAP1 POP PUSH2 0x1294 DUP2 PUSH2 0x126E JUMP JUMPDEST SWAP3 SWAP2 POP POP JUMP JUMPDEST PUSH1 0x0 DUP1 PUSH1 0x60 DUP4 DUP6 SUB SLT ISZERO PUSH2 0x12B1 JUMPI PUSH2 0x12B0 PUSH2 0xECA JUMP JUMPDEST JUMPDEST PUSH1 0x0 PUSH2 0x12BF DUP6 DUP3 DUP7 ADD PUSH2 0x1285 JUMP JUMPDEST SWAP3 POP POP PUSH1 0x20 PUSH2 0x12D0 DUP6 DUP3 DUP7 ADD PUSH2 0x1026 JUMP JUMPDEST SWAP2 POP POP SWAP3 POP SWAP3 SWAP1 POP JUMP JUMPDEST PUSH32 0x4E487B7100000000000000000000000000000000000000000000000000000000 PUSH1 0x0 MSTORE PUSH1 0x32 PUSH1 0x4 MSTORE PUSH1 0x24 PUSH1 0x0 REVERT JUMPDEST PUSH32 0x4E487B7100000000000000000000000000000000000000000000000000000000 PUSH1 0x0 MSTORE PUSH1 0x11 PUSH1 0x4 MSTORE PUSH1 0x24 PUSH1 0x0 REVERT JUMPDEST PUSH1 0x0 PUSH2 0x1343 DUP3 PUSH2 0xF90 JUMP JUMPDEST SWAP2 POP PUSH2 0x134E DUP4 PUSH2 0xF90 JUMP JUMPDEST SWAP3 POP DUP3 DUP3 MUL PUSH2 0x135C DUP2 PUSH2 0xF90 JUMP JUMPDEST SWAP2 POP DUP3 DUP3 DIV DUP5 EQ DUP4 ISZERO OR PUSH2 0x1373 JUMPI PUSH2 0x1372 PUSH2 0x1309 JUMP JUMPDEST JUMPDEST POP SWAP3 SWAP2 POP POP JUMP JUMPDEST PUSH1 0x0 PUSH2 0x1385 DUP3 PUSH2 0xF90 JUMP JUMPDEST SWAP2 POP PUSH2 0x1390 DUP4 PUSH2 0xF90 JUMP JUMPDEST SWAP3 POP DUP3 DUP3 ADD SWAP1 POP DUP1 DUP3 GT ISZERO PUSH2 0x13A8 JUMPI PUSH2 0x13A7 PUSH2 0x1309 JUMP JUMPDEST JUMPDEST SWAP3 SWAP2 POP POP JUMP JUMPDEST PUSH1 0x0 PUSH1 0x40 DUP3 ADD SWAP1 POP PUSH2 0x13C3 PUSH1 0x0 DUP4 ADD DUP5 PUSH2 0x1151 JUMP JUMPDEST SWAP3 SWAP2 POP POP JUMP JUMPDEST PUSH1 0x0 DUP2 MLOAD SWAP1 POP SWAP2 SWAP1 POP JUMP JUMPDEST PUSH1 0x0 DUP2 SWAP1 POP SWAP3 SWAP2 POP POP JUMP JUMPDEST PUSH1 0x0 PUSH2 0x13EA DUP3 PUSH2 0x13C9 JUMP JUMPDEST PUSH2 0x13F4 DUP2 DUP6 PUSH2 0x13D4 JUMP JUMPDEST SWAP4 POP PUSH2 0x1404 DUP2 DUP6 PUSH1 0x20 DUP7 ADD PUSH2 0x109A JUMP JUMPDEST DUP1 DUP5 ADD SWAP2 POP POP SWAP3 SWAP2 POP POP JUMP JUMPDEST PUSH1 0x0 PUSH2 0x141C DUP3 DUP5 PUSH2 0x13DF JUMP JUMPDEST SWAP2 POP DUP2 SWAP1 POP SWAP3 SWAP2 POP POP JUMP JUMPDEST PUSH32 0x4E487B7100000000000000000000000000000000000000000000000000000000 PUSH1 0x0 MSTORE PUSH1 0x1 PUSH1 0x4 MSTORE PUSH1 0x24 PUSH1 0x0 REVERT JUMPDEST PUSH1 0x0 DUP1 REVERT JUMPDEST PUSH1 0x0 PUSH8 0xFFFFFFFFFFFFFFFF DUP3 GT ISZERO PUSH2 0x1476 JUMPI PUSH2 0x1475 PUSH2 0xEEA JUMP JUMPDEST JUMPDEST PUSH2 0x147F DUP3 PUSH2 0xED9 JUMP JUMPDEST SWAP1 POP PUSH1 0x20 DUP2 ADD SWAP1 POP SWAP2 SWAP1 POP JUMP JUMPDEST PUSH1 0x0 PUSH2 0x149F PUSH2 0x149A DUP5 PUSH2 0x145B JUMP JUMPDEST PUSH2 0xF4A JUMP JUMPDEST SWAP1 POP DUP3 DUP2 MSTORE PUSH1 0x20 DUP2 ADD DUP5 DUP5 DUP5 ADD GT ISZERO PUSH2 0x14BB JUMPI PUSH2 0x14BA PUSH2 0x1456 JUMP JUMPDEST JUMPDEST PUSH2 0x14C6 DUP5 DUP3 DUP6 PUSH2 0x109A JUMP JUMPDEST POP SWAP4 SWAP3 POP POP POP JUMP JUMPDEST PUSH1 0x0 DUP3 PUSH1 0x1F DUP4 ADD SLT PUSH2 0x14E3 JUMPI PUSH2 0x14E2 PUSH2 0xED4 JUMP JUMPDEST JUMPDEST DUP2 MLOAD PUSH2 0x14F3 DUP5 DUP3 PUSH1 0x20 DUP7 ADD PUSH2 0x148C JUMP JUMPDEST SWAP2 POP POP SWAP3 SWAP2 POP POP JUMP JUMPDEST PUSH1 0x0 DUP2 MLOAD SWAP1 POP PUSH2 0x150B DUP2 PUSH2 0xF9A JUMP JUMPDEST SWAP3 SWAP2 POP POP JUMP JUMPDEST PUSH1 0x0 PUSH2 0x1524 PUSH2 0x151F DUP5 PUSH2 0xF65 JUMP JUMPDEST PUSH2 0xF4A JUMP JUMPDEST SWAP1 POP DUP1 PUSH1 0x20 DUP5 MUL DUP4 ADD DUP6 DUP2 GT ISZERO PUSH2 0x153E JUMPI PUSH2 0x153D PUSH2 0xF8B JUMP JUMPDEST JUMPDEST DUP4 JUMPDEST DUP2 DUP2 LT ISZERO PUSH2 0x1567 JUMPI DUP1 PUSH2 0x1553 DUP9 DUP3 PUSH2 0x14FC JUMP JUMPDEST DUP5 MSTORE PUSH1 0x20 DUP5 ADD SWAP4 POP POP PUSH1 0x20 DUP2 ADD SWAP1 POP PUSH2 0x1540 JUMP JUMPDEST POP POP POP SWAP4 SWAP3 POP POP POP JUMP JUMPDEST PUSH1 0x0 DUP3 PUSH1 0x1F DUP4 ADD SLT PUSH2 0x1586 JUMPI PUSH2 0x1585 PUSH2 0xED4 JUMP JUMPDEST JUMPDEST PUSH1 0x2 PUSH2 0x1593 DUP5 DUP3 DUP6 PUSH2 0x1511 JUMP JUMPDEST SWAP2 POP POP SWAP3 SWAP2 POP POP JUMP JUMPDEST PUSH1 0x0 DUP1 PUSH1 0x60 DUP4 DUP6 SUB SLT ISZERO PUSH2 0x15B3 JUMPI PUSH2 0x15B2 PUSH2 0xECA JUMP JUMPDEST JUMPDEST PUSH1 0x0 DUP4 ADD MLOAD PUSH8 0xFFFFFFFFFFFFFFFF DUP2 GT ISZERO PUSH2 0x15D1 JUMPI PUSH2 0x15D0 PUSH2 0xECF JUMP JUMPDEST JUMPDEST PUSH2 0x15DD DUP6 DUP3 DUP7 ADD PUSH2 0x14CE JUMP JUMPDEST SWAP3 POP POP PUSH1 0x20 PUSH2 0x15EE DUP6 DUP3 DUP7 ADD PUSH2 0x1571 JUMP JUMPDEST SWAP2 POP POP SWAP3 POP SWAP3 SWAP1 POP JUMP JUMPDEST PUSH32 0x4E487B7100000000000000000000000000000000000000000000000000000000 PUSH1 0x0 MSTORE PUSH1 0x12 PUSH1 0x4 MSTORE PUSH1 0x24 PUSH1 0x0 REVERT JUMPDEST PUSH1 0x0 PUSH2 0x1632 DUP3 PUSH2 0xF90 JUMP JUMPDEST SWAP2 POP PUSH2 0x163D DUP4 PUSH2 0xF90 JUMP JUMPDEST SWAP3 POP DUP3 PUSH2 0x164D JUMPI PUSH2 0x164C PUSH2 0x15F8 JUMP JUMPDEST JUMPDEST DUP3 DUP3 MOD SWAP1 POP SWAP3 SWAP2 POP POP JUMP INVALID LOG2 PUSH5 0x6970667358 0x22 SLT KECCAK256 0xDE 0xF8 0xE1 DUP13 INVALID MUL COINBASE 0xCA SWAP15 0xEB PUSH12 0xF67D809107C37DF959455E6D 0xF6 ADDMOD 0xE5 0xAE CALLVALUE TIMESTAMP 0xD7 LOG4 0xAC PUSH5 0x736F6C6343 STOP ADDMOD SLT STOP CALLER "
		},
		"gasEstimates": {
			"creation": {
				"codeDepositCost": "1154800",
				"executionCost": "infinite",
				"totalCost": "infinite"
			},
			"external": {
				"getBlueColorString(uint256[2])": "infinite",
				"getColorString(bytes4,uint256[2])": "infinite",
				"getCyanColorString(uint256[2])": "infinite",
				"getGreenBlueColorString(uint256[2])": "infinite",
				"getGreenColorString(uint256[2])": "infinite",
				"getInitialSeed()": "infinite",
				"getMagentaColorString(uint256[2])": "infinite",
				"getMonochromeColorString(uint256[2])": "infinite",
				"getRainbowDarkColorString(uint256[2])": "infinite",
				"getRainbowLightColorString(uint256[2])": "infinite",
				"getRedBlueColorString(uint256[2])": "infinite",
				"getRedColorString(uint256[2])": "infinite",
				"getRedGreenColorString(uint256[2])": "infinite",
				"getYellowColorString(uint256[2])": "infinite",
				"nextInt(uint256,uint256[2])": "infinite",
				"nextInt2P(uint256,uint256[2])": "infinite"
			}
		},
		"methodIdentifiers": {
			"getBlueColorString(uint256[2])": "1336e0da",
			"getColorString(bytes4,uint256[2])": "4d424a32",
			"getCyanColorString(uint256[2])": "e79fdacb",
			"getGreenBlueColorString(uint256[2])": "fcfe40e0",
			"getGreenColorString(uint256[2])": "dee0a5bb",
			"getInitialSeed()": "79147850",
			"getMagentaColorString(uint256[2])": "0a609c3b",
			"getMonochromeColorString(uint256[2])": "e184526a",
			"getRainbowDarkColorString(uint256[2])": "3708f98c",
			"getRainbowLightColorString(uint256[2])": "a920c0ae",
			"getRedBlueColorString(uint256[2])": "ca8666e0",
			"getRedColorString(uint256[2])": "4da4d590",
			"getRedGreenColorString(uint256[2])": "ff08cbe7",
			"getYellowColorString(uint256[2])": "77b31f88",
			"nextInt(uint256,uint256[2])": "f8006f3b",
			"nextInt2P(uint256,uint256[2])": "414163c1"
		}
	},
	"abi": [
		{
			"inputs": [],
			"stateMutability": "nonpayable",
			"type": "constructor"
		},
		{
			"inputs": [
				{
					"internalType": "uint256[2]",
					"name": "RND",
					"type": "uint256[2]"
				}
			],
			"name": "getBlueColorString",
			"outputs": [
				{
					"internalType": "string",
					"name": "",
					"type": "string"
				},
				{
					"internalType": "uint256[2]",
					"name": "",
					"type": "uint256[2]"
				}
			],
			"stateMutability": "pure",
			"type": "function"
		},
		{
			"inputs": [
				{
					"internalType": "bytes4",
					"name": "_selector",
					"type": "bytes4"
				},
				{
					"internalType": "uint256[2]",
					"name": "RND",
					"type": "uint256[2]"
				}
			],
			"name": "getColorString",
			"outputs": [
				{
					"internalType": "string",
					"name": "",
					"type": "string"
				},
				{
					"internalType": "uint256[2]",
					"name": "",
					"type": "uint256[2]"
				}
			],
			"stateMutability": "view",
			"type": "function"
		},
		{
			"inputs": [
				{
					"internalType": "uint256[2]",
					"name": "RND",
					"type": "uint256[2]"
				}
			],
			"name": "getCyanColorString",
			"outputs": [
				{
					"internalType": "string",
					"name": "",
					"type": "string"
				},
				{
					"internalType": "uint256[2]",
					"name": "",
					"type": "uint256[2]"
				}
			],
			"stateMutability": "pure",
			"type": "function"
		},
		{
			"inputs": [
				{
					"internalType": "uint256[2]",
					"name": "RND",
					"type": "uint256[2]"
				}
			],
			"name": "getGreenBlueColorString",
			"outputs": [
				{
					"internalType": "string",
					"name": "",
					"type": "string"
				},
				{
					"internalType": "uint256[2]",
					"name": "",
					"type": "uint256[2]"
				}
			],
			"stateMutability": "pure",
			"type": "function"
		},
		{
			"inputs": [
				{
					"internalType": "uint256[2]",
					"name": "RND",
					"type": "uint256[2]"
				}
			],
			"name": "getGreenColorString",
			"outputs": [
				{
					"internalType": "string",
					"name": "",
					"type": "string"
				},
				{
					"internalType": "uint256[2]",
					"name": "",
					"type": "uint256[2]"
				}
			],
			"stateMutability": "pure",
			"type": "function"
		},
		{
			"inputs": [],
			"name": "getInitialSeed",
			"outputs": [
				{
					"internalType": "uint256",
					"name": "",
					"type": "uint256"
				}
			],
			"stateMutability": "view",
			"type": "function"
		},
		{
			"inputs": [
				{
					"internalType": "uint256[2]",
					"name": "RND",
					"type": "uint256[2]"
				}
			],
			"name": "getMagentaColorString",
			"outputs": [
				{
					"internalType": "string",
					"name": "",
					"type": "string"
				},
				{
					"internalType": "uint256[2]",
					"name": "",
					"type": "uint256[2]"
				}
			],
			"stateMutability": "pure",
			"type": "function"
		},
		{
			"inputs": [
				{
					"internalType": "uint256[2]",
					"name": "RND",
					"type": "uint256[2]"
				}
			],
			"name": "getMonochromeColorString",
			"outputs": [
				{
					"internalType": "string",
					"name": "",
					"type": "string"
				},
				{
					"internalType": "uint256[2]",
					"name": "",
					"type": "uint256[2]"
				}
			],
			"stateMutability": "pure",
			"type": "function"
		},
		{
			"inputs": [
				{
					"internalType": "uint256[2]",
					"name": "RND",
					"type": "uint256[2]"
				}
			],
			"name": "getRainbowDarkColorString",
			"outputs": [
				{
					"internalType": "string",
					"name": "",
					"type": "string"
				},
				{
					"internalType": "uint256[2]",
					"name": "",
					"type": "uint256[2]"
				}
			],
			"stateMutability": "pure",
			"type": "function"
		},
		{
			"inputs": [
				{
					"internalType": "uint256[2]",
					"name": "RND",
					"type": "uint256[2]"
				}
			],
			"name": "getRainbowLightColorString",
			"outputs": [
				{
					"internalType": "string",
					"name": "",
					"type": "string"
				},
				{
					"internalType": "uint256[2]",
					"name": "",
					"type": "uint256[2]"
				}
			],
			"stateMutability": "pure",
			"type": "function"
		},
		{
			"inputs": [
				{
					"internalType": "uint256[2]",
					"name": "RND",
					"type": "uint256[2]"
				}
			],
			"name": "getRedBlueColorString",
			"outputs": [
				{
					"internalType": "string",
					"name": "",
					"type": "string"
				},
				{
					"internalType": "uint256[2]",
					"name": "",
					"type": "uint256[2]"
				}
			],
			"stateMutability": "pure",
			"type": "function"
		},
		{
			"inputs": [
				{
					"internalType": "uint256[2]",
					"name": "RND",
					"type": "uint256[2]"
				}
			],
			"name": "getRedColorString",
			"outputs": [
				{
					"internalType": "string",
					"name": "",
					"type": "string"
				},
				{
					"internalType": "uint256[2]",
					"name": "",
					"type": "uint256[2]"
				}
			],
			"stateMutability": "pure",
			"type": "function"
		},
		{
			"inputs": [
				{
					"internalType": "uint256[2]",
					"name": "RND",
					"type": "uint256[2]"
				}
			],
			"name": "getRedGreenColorString",
			"outputs": [
				{
					"internalType": "string",
					"name": "",
					"type": "string"
				},
				{
					"internalType": "uint256[2]",
					"name": "",
					"type": "uint256[2]"
				}
			],
			"stateMutability": "pure",
			"type": "function"
		},
		{
			"inputs": [
				{
					"internalType": "uint256[2]",
					"name": "RND",
					"type": "uint256[2]"
				}
			],
			"name": "getYellowColorString",
			"outputs": [
				{
					"internalType": "string",
					"name": "",
					"type": "string"
				},
				{
					"internalType": "uint256[2]",
					"name": "",
					"type": "uint256[2]"
				}
			],
			"stateMutability": "pure",
			"type": "function"
		},
		{
			"inputs": [
				{
					"internalType": "uint256",
					"name": "n",
					"type": "uint256"
				},
				{
					"internalType": "uint256[2]",
					"name": "RND",
					"type": "uint256[2]"
				}
			],
			"name": "nextInt",
			"outputs": [
				{
					"internalType": "uint256",
					"name": "",
					"type": "uint256"
				}
			],
			"stateMutability": "pure",
			"type": "function"
		},
		{
			"inputs": [
				{
					"internalType": "uint256",
					"name": "n",
					"type": "uint256"
				},
				{
					"internalType": "uint256[2]",
					"name": "RND",
					"type": "uint256[2]"
				}
			],
			"name": "nextInt2P",
			"outputs": [
				{
					"internalType": "uint256",
					"name": "",
					"type": "uint256"
				}
			],
			"stateMutability": "pure",
			"type": "function"
		}
	]
}