{
	"data": {
		"bytecode": {
			"linkReferences": {},
			"object": "608060405260405162004e0838038062004e08833981016040819052620000269162000858565b6040516329965a1d60e01b815230600482018190527fb281fc8c12954d22544db45de3159a39272895b169a852b314f9cc762e44c53b60248301526044820152731820a4b7618bde71dce8cdc73aab6c95905fad24906329965a1d90606401600060405180830381600087803b158015620000a057600080fd5b505af1158015620000b5573d6000803e3d6000fd5b50506040516329965a1d60e01b815230600482018190527f29ddb589b1fb5fc7cf394961c1adf5f8c6454761adf795e67fe149f658abe89560248301526044820152731820a4b7618bde71dce8cdc73aab6c95905fad2492506329965a1d9150606401600060405180830381600087803b1580156200013357600080fd5b505af115801562000148573d6000803e3d6000fd5b505050506200015d336200026e60201b60201c565b600180546001600160a01b03191633179055600280546001600160a01b031916301790556200018d61012c600355565b620001ef6040518060400160405280601b81526020017f42696e616e636520536d61727420436861696e20546573746e65740000000000815250604051602001620001d99190620008fa565b60408051601f19818403018152919052620002dc565b620002136040518060c001604052806093815260200162004d1f60939139620002ee565b6200023760405180608001604052806056815260200162004db260569139620002fc565b6200025b60405180606001604052806032815260200162004ced603291396200030a565b62000267338262000318565b5062000cd6565b6000546001600160a01b03828116911614620002d957600080546040516001600160a01b03808516939216917fb532073b38c83145e3e5135377a08bf9aab55bc0fd7c1179cd4fb995d2a5159c91a3600080546001600160a01b0319166001600160a01b0383161790555b50565b6007620002ea8282620009d7565b5050565b6004620002ea8282620009d7565b6006620002ea8282620009d7565b6005620002ea8282620009d7565b60408051610191808252613240820190925260009160208201613220803683375050604080516101918082526132408201909252929350600092915060208201613220803683370190505090506000808382815181106200037d576200037d62000aa3565b6020026020010181815250506001828281518110620003a057620003a062000aa3565b6020908102919091018101919091526000828152600b825260408082206001600160a01b038916808452908452818320600190558483526009909352902080546001600160a01b03191690911790556040805160a08101825261270f808252602080830191825260008385018181526060850182815260808601838152888452600890945295822094518555925160018501559151600290930180549451915160ff908116620100000262ff0000199382166101000261ffff1990971695909116949094179490941716919091179091555b6014811015620005c65760005b6014811015620005b05782620004958162000ab9565b93505082858481518110620004ae57620004ae62000aa3565b6020026020010181815250506001848481518110620004d157620004d162000aa3565b6020908102919091018101919091526000848152600b825260408082206001600160a01b038b16808452908452818320600190558683526009909352902080546001600160a01b03191690911790556040805160a0810182528281526020808201858152600083850181815260608501828152608086018381528a8452600890955295909120935184559051600184015551600290920180549351915160ff908116620100000262ff0000199382166101000261ffff199096169490911693909317939093171617905580620005a78162000ab9565b9150506200047f565b5080620005bd8162000ab9565b91505062000472565b50604051339060009082907f4a39dc06d4c0dbc64b70af90fd698a233a518aa5d07e595d983b8c0526c8f7fb9062000602908890889062000b1e565b60405180910390a46200061b3360008186868962000622565b5050505050565b6001600160a01b0384163b15620007e55760405163bc197c8160e01b81526001600160a01b0385169063bc197c819062000669908990899088908890889060040162000b7e565b6020604051808303816000875af1925050508015620006a7575060408051601f3d908101601f19168201909252620006a49181019062000be2565b60015b6200077057620006b662000c15565b806308c379a003620006ff5750620006cd62000c32565b80620006da575062000701565b8060405162461bcd60e51b8152600401620006f6919062000cc1565b60405180910390fd5b505b60405162461bcd60e51b815260206004820152603460248201527f455243313135353a207472616e7366657220746f206e6f6e2d4552433131353560448201527f526563656976657220696d706c656d656e7465720000000000000000000000006064820152608401620006f6565b6001600160e01b0319811663bc197c8160e01b14620007e35760405162461bcd60e51b815260206004820152602860248201527f455243313135353a204552433131353552656365697665722072656a656374656044820152676420746f6b656e7360c01b6064820152608401620006f6565b505b505050505050565b634e487b7160e01b600052604160045260246000fd5b601f8201601f191681016001600160401b03811182821017156200082b576200082b620007ed565b6040525050565b60005b838110156200084f57818101518382015260200162000835565b50506000910152565b6000602082840312156200086b57600080fd5b81516001600160401b03808211156200088357600080fd5b818401915084601f8301126200089857600080fd5b815181811115620008ad57620008ad620007ed565b6040519150620008c8601f8201601f19166020018362000803565b808252856020828501011115620008de57600080fd5b620008f181602084016020860162000832565b50949350505050565b7f506978656c205069637461736961204e465420436f6c6c656374696f6e2028008152600082516200093481601f85016020870162000832565b602960f81b601f939091019283015250602001919050565b600181811c908216806200096157607f821691505b6020821081036200098257634e487b7160e01b600052602260045260246000fd5b50919050565b601f821115620009d257600081815260208120601f850160051c81016020861015620009b15750805b601f850160051c820191505b81811015620007e557828155600101620009bd565b505050565b81516001600160401b03811115620009f357620009f3620007ed565b62000a0b8162000a0484546200094c565b8462000988565b602080601f83116001811462000a43576000841562000a2a5750858301515b600019600386901b1c1916600185901b178555620007e5565b600085815260208120601f198616915b8281101562000a745788860151825594840194600190910190840162000a53565b508582101562000a935787850151600019600388901b60f8161c191681555b5050505050600190811b01905550565b634e487b7160e01b600052603260045260246000fd5b60006001820162000ada57634e487b7160e01b600052601160045260246000fd5b5060010190565b600081518084526020808501945080840160005b8381101562000b135781518752958201959082019060010162000af5565b509495945050505050565b60408152600062000b33604083018562000ae1565b828103602084015262000b47818562000ae1565b95945050505050565b6000815180845262000b6a81602086016020860162000832565b601f01601f19169290920160200192915050565b6001600160a01b0386811682528516602082015260a06040820181905260009062000bac9083018662000ae1565b828103606084015262000bc0818662000ae1565b9050828103608084015262000bd6818562000b50565b98975050505050505050565b60006020828403121562000bf557600080fd5b81516001600160e01b03198116811462000c0e57600080fd5b9392505050565b600060033d111562000c2f5760046000803e5060005160e01c5b90565b600060443d101562000c415790565b6040516003193d81016004833e81513d6001600160401b03808311602484018310171562000c7157505050505090565b828501915081518181111562000c8a5750505050505090565b843d870101602082850101111562000ca55750505050505090565b62000cb66020828601018762000803565b509095945050505050565b60208152600062000c0e602083018462000b50565b6140078062000ce66000396000f3fe6080604052600436106102695760003560e01c806375ab978211610144578063b7bf7070116100b6578063e8a3d4851161007a578063e8a3d4851461077b578063e985e9c514610790578063ed88c68e14610275578063f23a6e61146107b0578063f242432a146107dc578063f5da96dc146107fc57610275fe5b8063b7bf7070146106da578063bc197c81146106fa578063c4e8d5ed14610726578063d319aa3014610746578063dbd3cfcd1461075b57610275fe5b80639cd6e666116101085780639cd6e66614610625578063a22cb46514610645578063affe639f14610665578063b282849614610685578063b4d9b973146106a5578063b76a10ca146106ba57610275fe5b806375ab9782146102775780637a1e26ee146105a75780637f0f543c146105c7578063811d678e146105e7578063913724561461060757610275fe5b80632eb2c2d6116101dd5780634f61b3ae116101a15780634f61b3ae146104e6578063503d7fe41461050557806358f026f0146105255780636315aa451461053a57806363dd5ee51461055a57806364e847f91461058757610275fe5b80632eb2c2d61461044f57806341931a2f1461046f57806343f22eda14610484578063453a2dbf146104a45780634e1273f4146104b957610275fe5b8063150b7a021161022f578063150b7a021461034c57806320a025d414610390578063249cb3fa146103b05780632a55205a146103d05780632aa4ada01461040f5780632e66ccf51461042f57610275fe5b806223de2914610277578062fdd58e1461029c57806301ffc9a7146102cf57806309f003b4146102ff5780630e89341c1461031f57610275fe5b3661027057005b610275fe5b005b34801561028357600080fd5b50610275610292366004612dff565b5050505050505050565b3480156102a857600080fd5b506102bc6102b7366004612ea9565b61081c565b6040519081526020015b60405180910390f35b3480156102db57600080fd5b506102ef6102ea366004612ee9565b6108b7565b60405190151581526020016102c6565b34801561030b57600080fd5b5061027561031a366004612f06565b61092d565b34801561032b57600080fd5b5061033f61033a366004612f06565b610952565b6040516102c69190612f6f565b34801561035857600080fd5b50610377610367366004613041565b630a85bd0160e11b949350505050565b6040516001600160e01b031990911681526020016102c6565b34801561039c57600080fd5b506102756103ab3660046130a8565b6109f5565b3480156103bc57600080fd5b506102bc6103cb3660046130f8565b610a0f565b3480156103dc57600080fd5b506103f06103eb36600461311b565b610aa5565b604080516001600160a01b0390931683526020830191909152016102c6565b34801561041b57600080fd5b5061027561042a366004612ea9565b610adb565b34801561043b57600080fd5b5061027561044a366004612f06565b610b03565b34801561045b57600080fd5b5061027561046a3660046131d1565b610b1e565b34801561047b57600080fd5b50610275610d46565b34801561049057600080fd5b5061033f61049f366004612f06565b610d6a565b3480156104b057600080fd5b5061033f610d75565b3480156104c557600080fd5b506104d96104d436600461327a565b610d84565b6040516102c6919061337f565b3480156104f257600080fd5b50600154600160a01b900460ff166102ef565b34801561051157600080fd5b506102ef610520366004613392565b610ead565b34801561053157600080fd5b506102bc610eb8565b34801561054657600080fd5b506102756105553660046130a8565b610ec3565b34801561056657600080fd5b5061056f610edd565b6040516001600160a01b0390911681526020016102c6565b34801561059357600080fd5b506102756105a23660046130a8565b610ef1565b3480156105b357600080fd5b506102756105c2366004613392565b610f0b565b3480156105d357600080fd5b5061033f6105e2366004612f06565b610f3c565b3480156105f357600080fd5b506102756106023660046130a8565b610f47565b34801561061357600080fd5b506000546001600160a01b031661056f565b34801561063157600080fd5b506102ef610640366004613392565b610f61565b34801561065157600080fd5b506102756106603660046133bb565b610f6c565b34801561067157600080fd5b5061033f610680366004612f06565b611042565b34801561069157600080fd5b506102756106a03660046133f2565b61104d565b3480156106b157600080fd5b50610275611077565b3480156106c657600080fd5b506102756106d5366004612ea9565b61108a565b3480156106e657600080fd5b506102ef6106f53660046130f8565b6110a6565b34801561070657600080fd5b506103776107153660046131d1565b63bc197c8160e01b95945050505050565b34801561073257600080fd5b5061056f610741366004612f06565b6110cb565b34801561075257600080fd5b5061056f6110e8565b34801561076757600080fd5b50610275610776366004613392565b6110fc565b34801561078757600080fd5b5061033f61112f565b34801561079c57600080fd5b506102ef6107ab366004613448565b6111ba565b3480156107bc57600080fd5b506103776107cb366004613472565b63f23a6e6160e01b95945050505050565b3480156107e857600080fd5b506102756107f7366004613472565b6111e8565b34801561080857600080fd5b506102756108173660046134d6565b611342565b60006001600160a01b03831661088c5760405162461bcd60e51b815260206004820152602a60248201527f455243313135353a2061646472657373207a65726f206973206e6f742061207660448201526930b634b21037bbb732b960b11b60648201526084015b60405180910390fd5b506000818152600b602090815260408083206001600160a01b03861684529091529020545b92915050565b60006001600160e01b031982166301ffc9a760e01b14806108e857506001600160e01b03198216636cdb3d1360e11b145b8061090357506001600160e01b031982166303a24d0760e21b145b8061091e57506001600160e01b0319821663152a902d60e11b145b806108b157506108b18261136e565b61093561140f565b61093e33611430565b61094781600355565b61094f611080565b50565b6060600061095f8361147c565b9050600061096c846114ad565b90506000610979856115cc565b905060008383836040516020016109929392919061351e565b60405160208183030381529060405290506109cb816040516020016109b791906135be565b60405160208183030381529060405261171b565b6040516020016109db91906135da565b604051602081830303815290604052945050505050919050565b6109fd61140f565b610a0633611430565b6109478161186d565b60006001600160a01b03821630148015610a7157507fb281fc8c12954d22544db45de3159a39272895b169a852b314f9cc762e44c53b831480610a7157507f29ddb589b1fb5fc7cf394961c1adf5f8c6454761adf795e67fe149f658abe89583145b15610a9d57507fa2ef4600d742022d532d4747cb3547474667d6f13804902513b2ec01c848f4b46108b1565b5060006108b1565b6002546003546001600160a01b039091169060009061271090610ac89085613635565b610ad29190613662565b90509250929050565b610ae361140f565b610aec33611430565b610af7823383611879565b610aff611080565b5050565b610b0b61140f565b610b1433611430565b61094733826119ee565b6001600160a01b038416610b445760405162461bcd60e51b815260040161088390613676565b6001600160a01b038516331480610b605750610b6085336111ba565b610b7c5760405162461bcd60e51b8152600401610883906136bb565b8151835114610bde5760405162461bcd60e51b815260206004820152602860248201527f455243313135353a2069647320616e6420616d6f756e7473206c656e677468206044820152670dad2e6dac2e8c6d60c31b6064820152608401610883565b60005b8351811015610cd9576000848281518110610bfe57610bfe613709565b602002602001015190506000848381518110610c1c57610c1c613709565b6020908102919091018101516000848152600b835260408082206001600160a01b038d168352909352919091205490915081811015610c6d5760405162461bcd60e51b81526004016108839061371f565b610c778282613769565b6000848152600b602090815260408083206001600160a01b038e811685529252808320939093558a1681529081208054849290610cb590849061377c565b90915550610cc590508389611a24565b50505080610cd29061378f565b9050610be1565b50836001600160a01b0316856001600160a01b0316336001600160a01b03167f4a39dc06d4c0dbc64b70af90fd698a233a518aa5d07e595d983b8c0526c8f7fb8686604051610d299291906137a8565b60405180910390a4610d3f338686868686611a52565b5050505050565b610d4e61140f565b610d5733611bb6565b610d6033611c02565b610d68611080565b565b60606108b182611c0b565b6060610d7f611c16565b905090565b60608151835114610de95760405162461bcd60e51b815260206004820152602960248201527f455243313135353a206163636f756e747320616e6420696473206c656e677468604482015268040dad2e6dac2e8c6d60bb1b6064820152608401610883565b600083516001600160401b03811115610e0457610e04612f82565b604051908082528060200260200182016040528015610e2d578160200160208202803683370190505b50905060005b8451811015610ea557610e78858281518110610e5157610e51613709565b6020026020010151858381518110610e6b57610e6b613709565b602002602001015161081c565b828281518110610e8a57610e8a613709565b6020908102919091010152610e9e8161378f565b9050610e33565b509392505050565b60006108b182611c20565b6000610d7f60035490565b610ecb61140f565b610ed433611430565b61094781611c4f565b6000610d7f6002546001600160a01b031690565b610ef961140f565b610f0233611430565b61094781611c5b565b610f1361140f565b610f1c33611430565b600280546001600160a01b0319166001600160a01b038316179055610947565b60606108b182611c67565b610f4f61140f565b610f5833611430565b61094781611c72565b60006108b182611c7e565b6001600160a01b0382163303610fd65760405162461bcd60e51b815260206004820152602960248201527f455243313135353a2073657474696e6720617070726f76616c20737461747573604482015268103337b91039b2b63360b91b6064820152608401610883565b336000818152600a602090815260408083206001600160a01b03871680855290835292819020805460ff191686151590811790915590519081529192917f17307eab39ab6107e8899845ad3d59bd9653f200f220920489ca2b5937696c31910160405180910390a35050565b60606108b182611c90565b61105561140f565b61105e33611430565b61106a83338484611c9b565b611072611080565b505050565b61108033611430565b610d686000611e21565b61109261140f565b61109b33611430565b610af7828233611e3f565b6000828152600960205260408120546001600160a01b038381169116145b9392505050565b6000818152600960205260408120546001600160a01b03166108b1565b6000610d7f6001546001600160a01b031690565b61110461140f565b61110d33611430565b61094781600180546001600160a01b0319166001600160a01b03831617905550565b606060006007600460066005611146600354611fba565b60025461115b906001600160a01b03166120e5565b60405160200161117096959493929190613883565b6040516020818303038152906040529050611195816040516020016109b791906135be565b6040516020016111a591906135da565b60405160208183030381529060405291505090565b6001600160a01b039182166000908152600a6020908152604080832093909416825291909152205460ff1690565b6001600160a01b03841661120e5760405162461bcd60e51b815260040161088390613676565b6001600160a01b03851633148061122a575061122a85336111ba565b6112465760405162461bcd60e51b8152600401610883906136bb565b6000838152600b602090815260408083206001600160a01b0389168452909152902054828110156112895760405162461bcd60e51b81526004016108839061371f565b6112938382613769565b6000858152600b602090815260408083206001600160a01b038b811685529252808320939093558716815290812080548592906112d190849061377c565b909155506112e190508486611a24565b60408051858152602081018590526001600160a01b03808816929089169133917fc3d58168c5ae7397731d063d5bbf3d657854427343f4c083240f7aacaa2d0f62910160405180910390a461133a3387878787876120f0565b505050505050565b61134a61140f565b61135333611430565b61136084843385856121ab565b611368611080565b50505050565b60006001600160e01b031982166301ffc9a760e01b148061139f57506001600160e01b03198216630a85bd0160e11b145b806113b957506001600160e01b031982166223de2960e01b145b806113d457506001600160e01b03198216633ad5cbc160e11b145b806113ef57506001600160e01b03198216630271189760e51b145b806108b157506001600160e01b0319821663124e59fd60e11b1492915050565b600154600160a01b900460ff161561142657611426fe5b610d686001611e21565b61143981611c7e565b61094f57806114506000546001600160a01b031690565b604051630daa808360e01b81526001600160a01b03928316600482015291166024820152604401610883565b606061148782611fba565b604051602001611497919061399b565b6040516020818303038152906040529050919050565b6060816000036114e55750506040805180820190915260128152712a34329031bab93932b73a1034b6b0b3b29760711b602082015290565b600182101580156114f857506101908211155b156115a1576000828152600860209081526040808320815160a081018352815480825260018301549482019490945260029091015460ff808216938301939093526101008104831660608301526201000090049091166080820152919061155e90612335565b9050600061156f8360200151612335565b9050600061158a8460400151856060015186608001516125b1565b90508282826040516020016109db939291906139d7565b505060408051808201909152600a81526928556e6d696e7465642960b01b602082015290565b919050565b60606101908211156115ec57505060408051602081019091526000815290565b6000828152600860209081526040808320815160a0810183528154815260018201548185015260029091015460ff8082168385015261010082048116606084015262010000909104166080820152815161270f8082526204e20082019093529093601493849391928392909182016204e1e080368337019050509050601160f81b81836116788161378f565b94508151811061168a5761168a613709565b6001600160c01b031990921660209283029190910190910152601160f81b81836116b38161378f565b9450815181106116c5576116c5613709565b6001600160c01b03199092166020928302919091018201526040516116f0916109b791849101613a56565b6040516020016117009190613a96565b60405160208183030381529060405295505050505050919050565b6060815160000361173a57505060408051602081019091526000815290565b6000604051806060016040528060408152602001613f926040913990506000600384516002611769919061377c565b6117739190613662565b61177e906004613635565b6001600160401b0381111561179557611795612f82565b6040519080825280601f01601f1916602001820160405280156117bf576020820181803683370190505b509050600182016020820185865187015b8082101561182b576003820191508151603f8160121c168501518453600184019350603f81600c1c168501518453600184019350603f8160061c168501518453600184019350603f81168501518453506001830192506117d0565b5050600386510660018114611847576002811461185a57611862565b603d6001830353603d6002830353611862565b603d60018303535b509195945050505050565b6006610aff8282613b1a565b826001600160a01b03163b6000036118d35760405162461bcd60e51b815260206004820152601760248201527f4552433230546f6b656e436f6e74726163744572726f720000000000000000006044820152606401610883565b604080516001600160a01b038481166024830152604480830185905283518084039091018152606490920183526020820180516001600160e01b031663a9059cbb60e01b1790529151909160009182918716906119319085906135be565b6000604051808303816000865af19150503d806000811461196e576040519150601f19603f3d011682016040523d82523d6000602084013e611973565b606091505b50915091508115806119a157508051158015906119a157508080602001905181019061199f9190613bd9565b155b1561133a5760405162461bcd60e51b815260206004820152601760248201527f4552433230546f6b656e5472616e736665724572726f720000000000000000006044820152606401610883565b6040516001600160a01b0383169082156108fc029083906000818181858888f19350505050158015611072573d6000803e3d6000fd5b60009182526009602052604090912080546001600160a01b0319166001600160a01b03909216919091179055565b6001600160a01b0384163b1561133a5760405163bc197c8160e01b81526001600160a01b0385169063bc197c8190611a969089908990889088908890600401613bf6565b6020604051808303816000875af1925050508015611ad1575060408051601f3d908101601f19168201909252611ace91810190613c54565b60015b611b7d57611add613c71565b806308c379a003611b165750611af1613c8d565b80611afc5750611b18565b8060405162461bcd60e51b81526004016108839190612f6f565b505b60405162461bcd60e51b815260206004820152603460248201527f455243313135353a207472616e7366657220746f206e6f6e2d455243313135356044820152732932b1b2b4bb32b91034b6b83632b6b2b73a32b960611b6064820152608401610883565b6001600160e01b0319811663bc197c8160e01b14611bad5760405162461bcd60e51b815260040161088390613d16565b50505050505050565b611bbf81611c20565b61094f5780611bd66001546001600160a01b031690565b60405163549fbfe360e01b81526001600160a01b03928316600482015291166024820152604401610883565b61094f8161281d565b60606108b1826115cc565b6060610d7f61112f565b6000611c346001546001600160a01b031690565b6001600160a01b0316826001600160a01b0316149050919050565b6004610aff8282613b1a565b6007610aff8282613b1a565b60606108b18261147c565b6005610aff8282613b1a565b600080546001600160a01b0316611c34565b60606108b1826114ad565b836001600160a01b03163b600003611cf55760405162461bcd60e51b815260206004820152601860248201527f455243373737546f6b656e436f6e74726163744572726f7200000000000000006044820152606401610883565b6000639bd9bbc660e01b848484604051602401611d1493929190613d5e565b604051602081830303815290604052906001600160e01b0319166020820180516001600160e01b0383818316178352505050509050600080866001600160a01b031683604051611d6491906135be565b6000604051808303816000865af19150503d8060008114611da1576040519150601f19603f3d011682016040523d82523d6000602084013e611da6565b606091505b5091509150811580611dd45750805115801590611dd4575080806020019051810190611dd29190613bd9565b155b15611bad5760405162461bcd60e51b815260206004820152601860248201527f455243373737546f6b656e5472616e736665724572726f7200000000000000006044820152606401610883565b60018054911515600160a01b0260ff60a01b19909216919091179055565b826001600160a01b03163b600003611e995760405162461bcd60e51b815260206004820152601860248201527f455243373231546f6b656e436f6e74726163744572726f7200000000000000006044820152606401610883565b604080513060248201526001600160a01b038381166044830152606480830186905283518084039091018152608490920183526020820180516001600160e01b03166323b872dd60e01b179052915190916000918291871690611efd9085906135be565b6000604051808303816000865af19150503d8060008114611f3a576040519150601f19603f3d011682016040523d82523d6000602084013e611f3f565b606091505b5091509150811580611f6d5750805115801590611f6d575080806020019051810190611f6b9190613bd9565b155b1561133a5760405162461bcd60e51b815260206004820152601860248201527f455243373231546f6b656e5472616e736665724572726f7200000000000000006044820152606401610883565b606081600003611fe15750506040805180820190915260018152600360fc1b602082015290565b8160005b811561200b5780611ff58161378f565b91506120049050600a83613662565b9150611fe5565b6000816001600160401b0381111561202557612025612f82565b6040519080825280601f01601f19166020018201604052801561204f576020820181803683370190505b509050815b85156120dc57612065600182613769565b90506000612074600a88613662565b61207f90600a613635565b6120899088613769565b612094906030613d85565b905060008160f81b9050808484815181106120b1576120b1613709565b60200101906001600160f81b031916908160001a9053506120d3600a89613662565b97505050612054565b50949350505050565b60606108b18261288b565b6001600160a01b0384163b1561133a5760405163f23a6e6160e01b81526001600160a01b0385169063f23a6e61906121349089908990889088908890600401613d9e565b6020604051808303816000875af192505050801561216f575060408051601f3d908101601f1916820190925261216c91810190613c54565b60015b61217b57611add613c71565b6001600160e01b0319811663f23a6e6160e01b14611bad5760405162461bcd60e51b815260040161088390613d16565b846001600160a01b03163b6000036122055760405162461bcd60e51b815260206004820152601960248201527f45524331313535546f6b656e436f6e74726163744572726f72000000000000006044820152606401610883565b600063f242432a60e01b3085878686604051602401612228959493929190613d9e565b604051602081830303815290604052906001600160e01b0319166020820180516001600160e01b0383818316178352505050509050600080876001600160a01b03168360405161227891906135be565b6000604051808303816000865af19150503d80600081146122b5576040519150601f19603f3d011682016040523d82523d6000602084013e6122ba565b606091505b50915091508115806122e857508051158015906122e85750808060200190518101906122e69190613bd9565b155b156102925760405162461bcd60e51b815260206004820152601960248201527f45524331313535546f6b656e5472616e736665724572726f72000000000000006044820152606401610883565b606080600a8310156123b25760408051600180825281830190925290602082018180368337019050509050693031323334353637383960b01b836010811061237f5761237f613709565b1a60f81b8160008151811061239657612396613709565b60200101906001600160f81b031916908160001a9053506108b1565b60648310156124715760408051600280825281830190925290602082018180368337019050509050693031323334353637383960b01b6123f3600a85613662565b6010811061240357612403613709565b1a60f81b8160008151811061241a5761241a613709565b60200101906001600160f81b031916908160001a905350693031323334353637383960b01b61244a600a85613de3565b6010811061245a5761245a613709565b1a60f81b8160018151811061239657612396613709565b60408051600380825281830190925290602082018180368337019050509050693031323334353637383960b01b600a6124aa8186613662565b6124b49190613662565b601081106124c4576124c4613709565b1a60f81b816000815181106124db576124db613709565b60200101906001600160f81b031916908160001a905350693031323334353637383960b01b600a61250c8186613662565b6125169190613de3565b6010811061252657612526613709565b1a60f81b8160018151811061253d5761253d613709565b60200101906001600160f81b031916908160001a905350693031323334353637383960b01b61256d600a85613de3565b6010811061257d5761257d613709565b1a60f81b8160028151811061259457612594613709565b60200101906001600160f81b031916908160001a90535092915050565b60408051600780825281830190925260609160009190602082018180368337019050509050602360f81b816000815181106125ee576125ee613709565b60200101906001600160f81b031916908160001a9053506f181899199a1a9b1b9c1ca0a121a222a360811b600f600487901c166010811061263157612631613709565b1a60f81b8160018151811061264857612648613709565b60200101906001600160f81b031916908160001a9053506f181899199a1a9b1b9c1ca0a121a222a360811b600f86166010811061268757612687613709565b1a60f81b8160028151811061269e5761269e613709565b60200101906001600160f81b031916908160001a9053506f181899199a1a9b1b9c1ca0a121a222a360811b600f600486901c16601081106126e1576126e1613709565b1a60f81b816003815181106126f8576126f8613709565b60200101906001600160f81b031916908160001a9053506f181899199a1a9b1b9c1ca0a121a222a360811b600f85166010811061273757612737613709565b1a60f81b8160048151811061274e5761274e613709565b60200101906001600160f81b031916908160001a9053506f181899199a1a9b1b9c1ca0a121a222a360811b600f600485901c166010811061279157612791613709565b1a60f81b816005815181106127a8576127a8613709565b60200101906001600160f81b031916908160001a9053506f181899199a1a9b1b9c1ca0a121a222a360811b600f8416601081106127e7576127e7613709565b1a60f81b816006815181106127fe576127fe613709565b60200101906001600160f81b031916908160001a905350949350505050565b6000546001600160a01b0382811691161461094f57600080546040516001600160a01b03808516939216917fb532073b38c83145e3e5135377a08bf9aab55bc0fd7c1179cd4fb995d2a5159c91a3600080546001600160a01b0383166001600160a01b031990911617905550565b60408051602880825260608281019093526108b1918491849183831b916000919060208201818036833701905050905060008060008060008060006128cf8b612a69565b905060005b6014811015612a38576128e8816013613769565b6128f3906008613635565b6128fe906002613edb565b61290c9060608c901c613662565b9750612919601089613ee7565b9650612926876010613f09565b6129309089613f2c565b95508161293e826002613635565b6028811061294e5761294e613709565b6020020151945081612961826002613635565b61296c90600161377c565b6028811061297c5761297c613709565b6020020151935061298d8786612bfa565b92506129998388613d85565b60f81b896129a8836002613635565b815181106129b8576129b8613709565b60200101906001600160f81b031916908160001a9053506129d98685612bfa565b92506129e58387613d85565b60f81b896129f4836002613635565b6129ff90600161377c565b81518110612a0f57612a0f613709565b60200101906001600160f81b031916908160001a90535080612a308161378f565b9150506128d4565b5087604051602001612a4a9190613f45565b6040516020818303038152906040529950505050505050505050919050565b612a71612d81565b606082901b6000612a8182612c27565b604051602001612a9191906135be565b60405160208183030381529060405280519060200120905060008060008060005b6014811015612bee576010878260148110612acf57612acf613709565b612adb9291901a613f6f565b9350601084888360148110612af257612af2613709565b612afe9291901a613f2c565b612b089190613ee7565b94506010868260208110612b1e57612b1e613709565b612b2a9291901a613f6f565b9150601082878360208110612b4157612b41613709565b612b4d9291901a613f2c565b612b579190613ee7565b925060098560ff16118015612b6f575060078360ff16115b88612b7b836002613635565b60288110612b8b57612b8b613709565b91151560209092020152600960ff8516118015612bab575060078260ff16115b88612bb7836002613635565b612bc290600161377c565b60288110612bd257612bd2613709565b9115156020909202015280612be68161378f565b915050612ab2565b50505050505050919050565b6000600a8360ff161015612c10575060306108b1565b8115612c1e575060376108b1565b50605792915050565b60408051602880825260608281019093526000919060208201818036833701905050905060008080805b6014811015612d7657612c65816013613769565b612c70906008613635565b612c7b906002613edb565b612c8990606089901c613662565b9350612c96601085613ee7565b9250612ca3836010613f09565b612cad9085613f2c565b9150600a8360ff1610612cc1576057612cc4565b60305b612cce9084613d85565b60f81b85612cdd836002613635565b81518110612ced57612ced613709565b60200101906001600160f81b031916908160001a905350600a8260ff1610612d16576057612d19565b60305b612d239083613d85565b60f81b85612d32836002613635565b612d3d90600161377c565b81518110612d4d57612d4d613709565b60200101906001600160f81b031916908160001a90535080612d6e8161378f565b915050612c51565b509295945050505050565b6040518061050001604052806028906020820280368337509192915050565b80356001600160a01b03811681146115c757600080fd5b60008083601f840112612dc957600080fd5b5081356001600160401b03811115612de057600080fd5b602083019150836020828501011115612df857600080fd5b9250929050565b60008060008060008060008060c0898b031215612e1b57600080fd5b612e2489612da0565b9750612e3260208a01612da0565b9650612e4060408a01612da0565b95506060890135945060808901356001600160401b0380821115612e6357600080fd5b612e6f8c838d01612db7565b909650945060a08b0135915080821115612e8857600080fd5b50612e958b828c01612db7565b999c989b5096995094979396929594505050565b60008060408385031215612ebc57600080fd5b612ec583612da0565b946020939093013593505050565b6001600160e01b03198116811461094f57600080fd5b600060208284031215612efb57600080fd5b81356110c481612ed3565b600060208284031215612f1857600080fd5b5035919050565b60005b83811015612f3a578181015183820152602001612f22565b50506000910152565b60008151808452612f5b816020860160208601612f1f565b601f01601f19169290920160200192915050565b6020815260006110c46020830184612f43565b634e487b7160e01b600052604160045260246000fd5b601f8201601f191681016001600160401b0381118282101715612fbd57612fbd612f82565b6040525050565b60006001600160401b03831115612fdd57612fdd612f82565b604051612ff4601f8501601f191660200182612f98565b80915083815284848401111561300957600080fd5b83836020830137600060208583010152509392505050565b600082601f83011261303257600080fd5b6110c483833560208501612fc4565b6000806000806080858703121561305757600080fd5b61306085612da0565b935061306e60208601612da0565b92506040850135915060608501356001600160401b0381111561309057600080fd5b61309c87828801613021565b91505092959194509250565b6000602082840312156130ba57600080fd5b81356001600160401b038111156130d057600080fd5b8201601f810184136130e157600080fd5b6130f084823560208401612fc4565b949350505050565b6000806040838503121561310b57600080fd5b82359150610ad260208401612da0565b6000806040838503121561312e57600080fd5b50508035926020909101359150565b60006001600160401b0382111561315657613156612f82565b5060051b60200190565b600082601f83011261317157600080fd5b8135602061317e8261313d565b60405161318b8282612f98565b83815260059390931b85018201928281019150868411156131ab57600080fd5b8286015b848110156131c657803583529183019183016131af565b509695505050505050565b600080600080600060a086880312156131e957600080fd5b6131f286612da0565b945061320060208701612da0565b935060408601356001600160401b038082111561321c57600080fd5b61322889838a01613160565b9450606088013591508082111561323e57600080fd5b61324a89838a01613160565b9350608088013591508082111561326057600080fd5b5061326d88828901613021565b9150509295509295909350565b6000806040838503121561328d57600080fd5b82356001600160401b03808211156132a457600080fd5b818501915085601f8301126132b857600080fd5b813560206132c58261313d565b6040516132d28282612f98565b83815260059390931b85018201928281019150898411156132f257600080fd5b948201945b838610156133175761330886612da0565b825294820194908201906132f7565b9650508601359250508082111561332d57600080fd5b5061333a85828601613160565b9150509250929050565b600081518084526020808501945080840160005b8381101561337457815187529582019590820190600101613358565b509495945050505050565b6020815260006110c46020830184613344565b6000602082840312156133a457600080fd5b6110c482612da0565b801515811461094f57600080fd5b600080604083850312156133ce57600080fd5b6133d783612da0565b915060208301356133e7816133ad565b809150509250929050565b60008060006060848603121561340757600080fd5b61341084612da0565b92506020840135915060408401356001600160401b0381111561343257600080fd5b61343e86828701613021565b9150509250925092565b6000806040838503121561345b57600080fd5b61346483612da0565b9150610ad260208401612da0565b600080600080600060a0868803121561348a57600080fd5b61349386612da0565b94506134a160208701612da0565b9350604086013592506060860135915060808601356001600160401b038111156134ca57600080fd5b61326d88828901613021565b600080600080608085870312156134ec57600080fd5b6134f585612da0565b9350602085013592506040850135915060608501356001600160401b0381111561309057600080fd5b683d913730b6b2911d1160b91b81528351600090613543816009850160208901612f1f565b71111610113232b9b1b934b83a34b7b7111d1160711b600991840191820152845161357581601b840160208901612f1f565b6b1116101134b6b0b3b2911d1160a11b601b929091019182015283516135a2816027840160208801612f1f565b61227d60f01b6027929091019182015260290195945050505050565b600082516135d0818460208701612f1f565b9190910192915050565b7f646174613a6170706c69636174696f6e2f6a736f6e3b6261736536342c00000081526000825161361281601d850160208701612f1f565b91909101601d0192915050565b634e487b7160e01b600052601160045260246000fd5b80820281158282048414176108b1576108b161361f565b634e487b7160e01b600052601260045260246000fd5b6000826136715761367161364c565b500490565b60208082526025908201527f455243313135353a207472616e7366657220746f20746865207a65726f206164604082015264647265737360d81b606082015260800190565b6020808252602e908201527f455243313135353a2063616c6c6572206973206e6f7420746f6b656e206f776e60408201526d195c881bdc88185c1c1c9bdd995960921b606082015260800190565b634e487b7160e01b600052603260045260246000fd5b6020808252602a908201527f455243313135353a20696e73756666696369656e742062616c616e636520666f60408201526939103a3930b739b332b960b11b606082015260800190565b818103818111156108b1576108b161361f565b808201808211156108b1576108b161361f565b6000600182016137a1576137a161361f565b5060010190565b6040815260006137bb6040830185613344565b82810360208401526137cd8185613344565b95945050505050565b600181811c908216806137ea57607f821691505b60208210810361380a57634e487b7160e01b600052602260045260246000fd5b50919050565b6000815461381d816137d6565b60018281168015613835576001811461384a57613879565b60ff1984168752821515830287019450613879565b8560005260208060002060005b858110156138705781548a820152908401908201613857565b50505082870194505b5050505092915050565b683d913730b6b2911d1160b91b815260006138a16009830189613810565b71111610113232b9b1b934b83a34b7b7111d1160711b81526138c66012820189613810565b6b1116101134b6b0b3b2911d1160a11b815290506138e7600c820188613810565b731116101132bc3a32b93730b62fb634b735911d1160611b815290506139106014820187613810565b90507f222c202273656c6c65725f6665655f62617369735f706f696e7473223a0000008152845161394881601d840160208901612f1f565b721610113332b2afb932b1b4b834b2b73a111d1160691b601d9290910191820152835161397c816030840160208801612f1f565b61227d60f01b6030929091019182015260320198975050505050505050565b73506978656c205069637461736961204e4654202360601b8152600082516139ca816014850160208701612f1f565b9190910160140192915050565b680a0ded2dce8407a40560bb1b8152600084516139fb816009850160208901612f1f565b600b60fa1b6009918401918201528451613a1c81600a840160208901612f1f565b6b01490169696902923a1101e960a51b600a92909101918201528351613a49816016840160208801612f1f565b0160160195945050505050565b815160009082906020808601845b83811015613a8a5781516001600160c01b03191685529382019390820190600101613a64565b50929695505050505050565b7519185d184e9a5b5859d94bdc1b99ced8985cd94d8d0b60521b815260008251613ac7816016850160208701612f1f565b9190910160160192915050565b601f82111561107257600081815260208120601f850160051c81016020861015613afb5750805b601f850160051c820191505b8181101561133a57828155600101613b07565b81516001600160401b03811115613b3357613b33612f82565b613b4781613b4184546137d6565b84613ad4565b602080601f831160018114613b7c5760008415613b645750858301515b600019600386901b1c1916600185901b17855561133a565b600085815260208120601f198616915b82811015613bab57888601518255948401946001909101908401613b8c565b5085821015613bc95787850151600019600388901b60f8161c191681555b5050505050600190811b01905550565b600060208284031215613beb57600080fd5b81516110c4816133ad565b6001600160a01b0386811682528516602082015260a060408201819052600090613c2290830186613344565b8281036060840152613c348186613344565b90508281036080840152613c488185612f43565b98975050505050505050565b600060208284031215613c6657600080fd5b81516110c481612ed3565b600060033d1115613c8a5760046000803e5060005160e01c5b90565b600060443d1015613c9b5790565b6040516003193d81016004833e81513d6001600160401b038160248401118184111715613cca57505050505090565b8285019150815181811115613ce25750505050505090565b843d8701016020828501011115613cfc5750505050505090565b613d0b60208286010187612f98565b509095945050505050565b60208082526028908201527f455243313135353a204552433131353552656365697665722072656a656374656040820152676420746f6b656e7360c01b606082015260800190565b60018060a01b03841681528260208201526060604082015260006137cd6060830184612f43565b60ff81811683821601908111156108b1576108b161361f565b6001600160a01b03868116825285166020820152604081018490526060810183905260a060808201819052600090613dd890830184612f43565b979650505050505050565b600082613df257613df261364c565b500690565b600181815b80851115613e32578160001904821115613e1857613e1861361f565b80851615613e2557918102915b93841c9390800290613dfc565b509250929050565b600082613e49575060016108b1565b81613e56575060006108b1565b8160018114613e6c5760028114613e7657613e92565b60019150506108b1565b60ff841115613e8757613e8761361f565b50506001821b6108b1565b5060208310610133831016604e8410600b8410161715613eb5575081810a6108b1565b613ebf8383613df7565b8060001904821115613ed357613ed361361f565b029392505050565b60006110c48383613e3a565b600060ff831680613efa57613efa61364c565b8060ff84160491505092915050565b60ff8181168382160290811690818114613f2557613f2561361f565b5092915050565b60ff82811682821603908111156108b1576108b161361f565b61060f60f31b815260008251613f62816002850160208701612f1f565b9190910160020192915050565b600060ff831680613f8257613f8261364c565b8060ff8416069150509291505056fe4142434445464748494a4b4c4d4e4f505152535455565758595a6162636465666768696a6b6c6d6e6f707172737475767778797a303132333435363738392b2fa264697066735822122027ff520049499331fc4a50da055848e2e970264f65732677c9bf17017a12138a64736f6c6343000812003368747470733a2f2f6d75736963736c617965722e6769746875622e696f2f706978656c5f70696374617369615f646170702f4120636f6c6c656374696f6e206f6620636f6e666967757261626c65204e465420746f6b656e7320666561747572696e6720616e696d6174656420706978656c206172742c206361707065642061742031303020706572206e6574776f726b2e2068747470733a2f2f6d75736963736c617965722e6769746875622e696f2f706978656c5f70696374617369615f646170702f68747470733a2f2f7261772e67697468756275736572636f6e74656e742e636f6d2f6d75736963736c617965722f706978656c5f70696374617369615f646170702f6d61696e2f73746f72655f696d6167652e706e67",
			"opcodes": "PUSH1 0x80 PUSH1 0x40 MSTORE PUSH1 0x40 MLOAD PUSH3 0x4E08 CODESIZE SUB DUP1 PUSH3 0x4E08 DUP4 CODECOPY DUP2 ADD PUSH1 0x40 DUP2 SWAP1 MSTORE PUSH3 0x26 SWAP2 PUSH3 0x858 JUMP JUMPDEST PUSH1 0x40 MLOAD PUSH4 0x29965A1D PUSH1 0xE0 SHL DUP2 MSTORE ADDRESS PUSH1 0x4 DUP3 ADD DUP2 SWAP1 MSTORE PUSH32 0xB281FC8C12954D22544DB45DE3159A39272895B169A852B314F9CC762E44C53B PUSH1 0x24 DUP4 ADD MSTORE PUSH1 0x44 DUP3 ADD MSTORE PUSH20 0x1820A4B7618BDE71DCE8CDC73AAB6C95905FAD24 SWAP1 PUSH4 0x29965A1D SWAP1 PUSH1 0x64 ADD PUSH1 0x0 PUSH1 0x40 MLOAD DUP1 DUP4 SUB DUP2 PUSH1 0x0 DUP8 DUP1 EXTCODESIZE ISZERO DUP1 ISZERO PUSH3 0xA0 JUMPI PUSH1 0x0 DUP1 REVERT JUMPDEST POP GAS CALL ISZERO DUP1 ISZERO PUSH3 0xB5 JUMPI RETURNDATASIZE PUSH1 0x0 DUP1 RETURNDATACOPY RETURNDATASIZE PUSH1 0x0 REVERT JUMPDEST POP POP PUSH1 0x40 MLOAD PUSH4 0x29965A1D PUSH1 0xE0 SHL DUP2 MSTORE ADDRESS PUSH1 0x4 DUP3 ADD DUP2 SWAP1 MSTORE PUSH32 0x29DDB589B1FB5FC7CF394961C1ADF5F8C6454761ADF795E67FE149F658ABE895 PUSH1 0x24 DUP4 ADD MSTORE PUSH1 0x44 DUP3 ADD MSTORE PUSH20 0x1820A4B7618BDE71DCE8CDC73AAB6C95905FAD24 SWAP3 POP PUSH4 0x29965A1D SWAP2 POP PUSH1 0x64 ADD PUSH1 0x0 PUSH1 0x40 MLOAD DUP1 DUP4 SUB DUP2 PUSH1 0x0 DUP8 DUP1 EXTCODESIZE ISZERO DUP1 ISZERO PUSH3 0x133 JUMPI PUSH1 0x0 DUP1 REVERT JUMPDEST POP GAS CALL ISZERO DUP1 ISZERO PUSH3 0x148 JUMPI RETURNDATASIZE PUSH1 0x0 DUP1 RETURNDATACOPY RETURNDATASIZE PUSH1 0x0 REVERT JUMPDEST POP POP POP POP PUSH3 0x15D CALLER PUSH3 0x26E PUSH1 0x20 SHL PUSH1 0x20 SHR JUMP JUMPDEST PUSH1 0x1 DUP1 SLOAD PUSH1 0x1 PUSH1 0x1 PUSH1 0xA0 SHL SUB NOT AND CALLER OR SWAP1 SSTORE PUSH1 0x2 DUP1 SLOAD PUSH1 0x1 PUSH1 0x1 PUSH1 0xA0 SHL SUB NOT AND ADDRESS OR SWAP1 SSTORE PUSH3 0x18D PUSH2 0x12C PUSH1 0x3 SSTORE JUMP JUMPDEST PUSH3 0x1EF PUSH1 0x40 MLOAD DUP1 PUSH1 0x40 ADD PUSH1 0x40 MSTORE DUP1 PUSH1 0x1B DUP2 MSTORE PUSH1 0x20 ADD PUSH32 0x42696E616E636520536D61727420436861696E20546573746E65740000000000 DUP2 MSTORE POP PUSH1 0x40 MLOAD PUSH1 0x20 ADD PUSH3 0x1D9 SWAP2 SWAP1 PUSH3 0x8FA JUMP JUMPDEST PUSH1 0x40 DUP1 MLOAD PUSH1 0x1F NOT DUP2 DUP5 SUB ADD DUP2 MSTORE SWAP2 SWAP1 MSTORE PUSH3 0x2DC JUMP JUMPDEST PUSH3 0x213 PUSH1 0x40 MLOAD DUP1 PUSH1 0xC0 ADD PUSH1 0x40 MSTORE DUP1 PUSH1 0x93 DUP2 MSTORE PUSH1 0x20 ADD PUSH3 0x4D1F PUSH1 0x93 SWAP2 CODECOPY PUSH3 0x2EE JUMP JUMPDEST PUSH3 0x237 PUSH1 0x40 MLOAD DUP1 PUSH1 0x80 ADD PUSH1 0x40 MSTORE DUP1 PUSH1 0x56 DUP2 MSTORE PUSH1 0x20 ADD PUSH3 0x4DB2 PUSH1 0x56 SWAP2 CODECOPY PUSH3 0x2FC JUMP JUMPDEST PUSH3 0x25B PUSH1 0x40 MLOAD DUP1 PUSH1 0x60 ADD PUSH1 0x40 MSTORE DUP1 PUSH1 0x32 DUP2 MSTORE PUSH1 0x20 ADD PUSH3 0x4CED PUSH1 0x32 SWAP2 CODECOPY PUSH3 0x30A JUMP JUMPDEST PUSH3 0x267 CALLER DUP3 PUSH3 0x318 JUMP JUMPDEST POP PUSH3 0xCD6 JUMP JUMPDEST PUSH1 0x0 SLOAD PUSH1 0x1 PUSH1 0x1 PUSH1 0xA0 SHL SUB DUP3 DUP2 AND SWAP2 AND EQ PUSH3 0x2D9 JUMPI PUSH1 0x0 DUP1 SLOAD PUSH1 0x40 MLOAD PUSH1 0x1 PUSH1 0x1 PUSH1 0xA0 SHL SUB DUP1 DUP6 AND SWAP4 SWAP3 AND SWAP2 PUSH32 0xB532073B38C83145E3E5135377A08BF9AAB55BC0FD7C1179CD4FB995D2A5159C SWAP2 LOG3 PUSH1 0x0 DUP1 SLOAD PUSH1 0x1 PUSH1 0x1 PUSH1 0xA0 SHL SUB NOT AND PUSH1 0x1 PUSH1 0x1 PUSH1 0xA0 SHL SUB DUP4 AND OR SWAP1 SSTORE JUMPDEST POP JUMP JUMPDEST PUSH1 0x7 PUSH3 0x2EA DUP3 DUP3 PUSH3 0x9D7 JUMP JUMPDEST POP POP JUMP JUMPDEST PUSH1 0x4 PUSH3 0x2EA DUP3 DUP3 PUSH3 0x9D7 JUMP JUMPDEST PUSH1 0x6 PUSH3 0x2EA DUP3 DUP3 PUSH3 0x9D7 JUMP JUMPDEST PUSH1 0x5 PUSH3 0x2EA DUP3 DUP3 PUSH3 0x9D7 JUMP JUMPDEST PUSH1 0x40 DUP1 MLOAD PUSH2 0x191 DUP1 DUP3 MSTORE PUSH2 0x3240 DUP3 ADD SWAP1 SWAP3 MSTORE PUSH1 0x0 SWAP2 PUSH1 0x20 DUP3 ADD PUSH2 0x3220 DUP1 CALLDATASIZE DUP4 CALLDATACOPY POP POP PUSH1 0x40 DUP1 MLOAD PUSH2 0x191 DUP1 DUP3 MSTORE PUSH2 0x3240 DUP3 ADD SWAP1 SWAP3 MSTORE SWAP3 SWAP4 POP PUSH1 0x0 SWAP3 SWAP2 POP PUSH1 0x20 DUP3 ADD PUSH2 0x3220 DUP1 CALLDATASIZE DUP4 CALLDATACOPY ADD SWAP1 POP POP SWAP1 POP PUSH1 0x0 DUP1 DUP4 DUP3 DUP2 MLOAD DUP2 LT PUSH3 0x37D JUMPI PUSH3 0x37D PUSH3 0xAA3 JUMP JUMPDEST PUSH1 0x20 MUL PUSH1 0x20 ADD ADD DUP2 DUP2 MSTORE POP POP PUSH1 0x1 DUP3 DUP3 DUP2 MLOAD DUP2 LT PUSH3 0x3A0 JUMPI PUSH3 0x3A0 PUSH3 0xAA3 JUMP JUMPDEST PUSH1 0x20 SWAP1 DUP2 MUL SWAP2 SWAP1 SWAP2 ADD DUP2 ADD SWAP2 SWAP1 SWAP2 MSTORE PUSH1 0x0 DUP3 DUP2 MSTORE PUSH1 0xB DUP3 MSTORE PUSH1 0x40 DUP1 DUP3 KECCAK256 PUSH1 0x1 PUSH1 0x1 PUSH1 0xA0 SHL SUB DUP10 AND DUP1 DUP5 MSTORE SWAP1 DUP5 MSTORE DUP2 DUP4 KECCAK256 PUSH1 0x1 SWAP1 SSTORE DUP5 DUP4 MSTORE PUSH1 0x9 SWAP1 SWAP4 MSTORE SWAP1 KECCAK256 DUP1 SLOAD PUSH1 0x1 PUSH1 0x1 PUSH1 0xA0 SHL SUB NOT AND SWAP1 SWAP2 OR SWAP1 SSTORE PUSH1 0x40 DUP1 MLOAD PUSH1 0xA0 DUP2 ADD DUP3 MSTORE PUSH2 0x270F DUP1 DUP3 MSTORE PUSH1 0x20 DUP1 DUP4 ADD SWAP2 DUP3 MSTORE PUSH1 0x0 DUP4 DUP6 ADD DUP2 DUP2 MSTORE PUSH1 0x60 DUP6 ADD DUP3 DUP2 MSTORE PUSH1 0x80 DUP7 ADD DUP4 DUP2 MSTORE DUP9 DUP5 MSTORE PUSH1 0x8 SWAP1 SWAP5 MSTORE SWAP6 DUP3 KECCAK256 SWAP5 MLOAD DUP6 SSTORE SWAP3 MLOAD PUSH1 0x1 DUP6 ADD SSTORE SWAP2 MLOAD PUSH1 0x2 SWAP1 SWAP4 ADD DUP1 SLOAD SWAP5 MLOAD SWAP2 MLOAD PUSH1 0xFF SWAP1 DUP2 AND PUSH3 0x10000 MUL PUSH3 0xFF0000 NOT SWAP4 DUP3 AND PUSH2 0x100 MUL PUSH2 0xFFFF NOT SWAP1 SWAP8 AND SWAP6 SWAP1 SWAP2 AND SWAP5 SWAP1 SWAP5 OR SWAP5 SWAP1 SWAP5 OR AND SWAP2 SWAP1 SWAP2 OR SWAP1 SWAP2 SSTORE JUMPDEST PUSH1 0x14 DUP2 LT ISZERO PUSH3 0x5C6 JUMPI PUSH1 0x0 JUMPDEST PUSH1 0x14 DUP2 LT ISZERO PUSH3 0x5B0 JUMPI DUP3 PUSH3 0x495 DUP2 PUSH3 0xAB9 JUMP JUMPDEST SWAP4 POP POP DUP3 DUP6 DUP5 DUP2 MLOAD DUP2 LT PUSH3 0x4AE JUMPI PUSH3 0x4AE PUSH3 0xAA3 JUMP JUMPDEST PUSH1 0x20 MUL PUSH1 0x20 ADD ADD DUP2 DUP2 MSTORE POP POP PUSH1 0x1 DUP5 DUP5 DUP2 MLOAD DUP2 LT PUSH3 0x4D1 JUMPI PUSH3 0x4D1 PUSH3 0xAA3 JUMP JUMPDEST PUSH1 0x20 SWAP1 DUP2 MUL SWAP2 SWAP1 SWAP2 ADD DUP2 ADD SWAP2 SWAP1 SWAP2 MSTORE PUSH1 0x0 DUP5 DUP2 MSTORE PUSH1 0xB DUP3 MSTORE PUSH1 0x40 DUP1 DUP3 KECCAK256 PUSH1 0x1 PUSH1 0x1 PUSH1 0xA0 SHL SUB DUP12 AND DUP1 DUP5 MSTORE SWAP1 DUP5 MSTORE DUP2 DUP4 KECCAK256 PUSH1 0x1 SWAP1 SSTORE DUP7 DUP4 MSTORE PUSH1 0x9 SWAP1 SWAP4 MSTORE SWAP1 KECCAK256 DUP1 SLOAD PUSH1 0x1 PUSH1 0x1 PUSH1 0xA0 SHL SUB NOT AND SWAP1 SWAP2 OR SWAP1 SSTORE PUSH1 0x40 DUP1 MLOAD PUSH1 0xA0 DUP2 ADD DUP3 MSTORE DUP3 DUP2 MSTORE PUSH1 0x20 DUP1 DUP3 ADD DUP6 DUP2 MSTORE PUSH1 0x0 DUP4 DUP6 ADD DUP2 DUP2 MSTORE PUSH1 0x60 DUP6 ADD DUP3 DUP2 MSTORE PUSH1 0x80 DUP7 ADD DUP4 DUP2 MSTORE DUP11 DUP5 MSTORE PUSH1 0x8 SWAP1 SWAP6 MSTORE SWAP6 SWAP1 SWAP2 KECCAK256 SWAP4 MLOAD DUP5 SSTORE SWAP1 MLOAD PUSH1 0x1 DUP5 ADD SSTORE MLOAD PUSH1 0x2 SWAP1 SWAP3 ADD DUP1 SLOAD SWAP4 MLOAD SWAP2 MLOAD PUSH1 0xFF SWAP1 DUP2 AND PUSH3 0x10000 MUL PUSH3 0xFF0000 NOT SWAP4 DUP3 AND PUSH2 0x100 MUL PUSH2 0xFFFF NOT SWAP1 SWAP7 AND SWAP5 SWAP1 SWAP2 AND SWAP4 SWAP1 SWAP4 OR SWAP4 SWAP1 SWAP4 OR AND OR SWAP1 SSTORE DUP1 PUSH3 0x5A7 DUP2 PUSH3 0xAB9 JUMP JUMPDEST SWAP2 POP POP PUSH3 0x47F JUMP JUMPDEST POP DUP1 PUSH3 0x5BD DUP2 PUSH3 0xAB9 JUMP JUMPDEST SWAP2 POP POP PUSH3 0x472 JUMP JUMPDEST POP PUSH1 0x40 MLOAD CALLER SWAP1 PUSH1 0x0 SWAP1 DUP3 SWAP1 PUSH32 0x4A39DC06D4C0DBC64B70AF90FD698A233A518AA5D07E595D983B8C0526C8F7FB SWAP1 PUSH3 0x602 SWAP1 DUP9 SWAP1 DUP9 SWAP1 PUSH3 0xB1E JUMP JUMPDEST PUSH1 0x40 MLOAD DUP1 SWAP2 SUB SWAP1 LOG4 PUSH3 0x61B CALLER PUSH1 0x0 DUP2 DUP7 DUP7 DUP10 PUSH3 0x622 JUMP JUMPDEST POP POP POP POP POP JUMP JUMPDEST PUSH1 0x1 PUSH1 0x1 PUSH1 0xA0 SHL SUB DUP5 AND EXTCODESIZE ISZERO PUSH3 0x7E5 JUMPI PUSH1 0x40 MLOAD PUSH4 0xBC197C81 PUSH1 0xE0 SHL DUP2 MSTORE PUSH1 0x1 PUSH1 0x1 PUSH1 0xA0 SHL SUB DUP6 AND SWAP1 PUSH4 0xBC197C81 SWAP1 PUSH3 0x669 SWAP1 DUP10 SWAP1 DUP10 SWAP1 DUP9 SWAP1 DUP9 SWAP1 DUP9 SWAP1 PUSH1 0x4 ADD PUSH3 0xB7E JUMP JUMPDEST PUSH1 0x20 PUSH1 0x40 MLOAD DUP1 DUP4 SUB DUP2 PUSH1 0x0 DUP8 GAS CALL SWAP3 POP POP POP DUP1 ISZERO PUSH3 0x6A7 JUMPI POP PUSH1 0x40 DUP1 MLOAD PUSH1 0x1F RETURNDATASIZE SWAP1 DUP2 ADD PUSH1 0x1F NOT AND DUP3 ADD SWAP1 SWAP3 MSTORE PUSH3 0x6A4 SWAP2 DUP2 ADD SWAP1 PUSH3 0xBE2 JUMP JUMPDEST PUSH1 0x1 JUMPDEST PUSH3 0x770 JUMPI PUSH3 0x6B6 PUSH3 0xC15 JUMP JUMPDEST DUP1 PUSH4 0x8C379A0 SUB PUSH3 0x6FF JUMPI POP PUSH3 0x6CD PUSH3 0xC32 JUMP JUMPDEST DUP1 PUSH3 0x6DA JUMPI POP PUSH3 0x701 JUMP JUMPDEST DUP1 PUSH1 0x40 MLOAD PUSH3 0x461BCD PUSH1 0xE5 SHL DUP2 MSTORE PUSH1 0x4 ADD PUSH3 0x6F6 SWAP2 SWAP1 PUSH3 0xCC1 JUMP JUMPDEST PUSH1 0x40 MLOAD DUP1 SWAP2 SUB SWAP1 REVERT JUMPDEST POP JUMPDEST PUSH1 0x40 MLOAD PUSH3 0x461BCD PUSH1 0xE5 SHL DUP2 MSTORE PUSH1 0x20 PUSH1 0x4 DUP3 ADD MSTORE PUSH1 0x34 PUSH1 0x24 DUP3 ADD MSTORE PUSH32 0x455243313135353A207472616E7366657220746F206E6F6E2D45524331313535 PUSH1 0x44 DUP3 ADD MSTORE PUSH32 0x526563656976657220696D706C656D656E746572000000000000000000000000 PUSH1 0x64 DUP3 ADD MSTORE PUSH1 0x84 ADD PUSH3 0x6F6 JUMP JUMPDEST PUSH1 0x1 PUSH1 0x1 PUSH1 0xE0 SHL SUB NOT DUP2 AND PUSH4 0xBC197C81 PUSH1 0xE0 SHL EQ PUSH3 0x7E3 JUMPI PUSH1 0x40 MLOAD PUSH3 0x461BCD PUSH1 0xE5 SHL DUP2 MSTORE PUSH1 0x20 PUSH1 0x4 DUP3 ADD MSTORE PUSH1 0x28 PUSH1 0x24 DUP3 ADD MSTORE PUSH32 0x455243313135353A204552433131353552656365697665722072656A65637465 PUSH1 0x44 DUP3 ADD MSTORE PUSH8 0x6420746F6B656E73 PUSH1 0xC0 SHL PUSH1 0x64 DUP3 ADD MSTORE PUSH1 0x84 ADD PUSH3 0x6F6 JUMP JUMPDEST POP JUMPDEST POP POP POP POP POP POP JUMP JUMPDEST PUSH4 0x4E487B71 PUSH1 0xE0 SHL PUSH1 0x0 MSTORE PUSH1 0x41 PUSH1 0x4 MSTORE PUSH1 0x24 PUSH1 0x0 REVERT JUMPDEST PUSH1 0x1F DUP3 ADD PUSH1 0x1F NOT AND DUP2 ADD PUSH1 0x1 PUSH1 0x1 PUSH1 0x40 SHL SUB DUP2 GT DUP3 DUP3 LT OR ISZERO PUSH3 0x82B JUMPI PUSH3 0x82B PUSH3 0x7ED JUMP JUMPDEST PUSH1 0x40 MSTORE POP POP JUMP JUMPDEST PUSH1 0x0 JUMPDEST DUP4 DUP2 LT ISZERO PUSH3 0x84F JUMPI DUP2 DUP2 ADD MLOAD DUP4 DUP3 ADD MSTORE PUSH1 0x20 ADD PUSH3 0x835 JUMP JUMPDEST POP POP PUSH1 0x0 SWAP2 ADD MSTORE JUMP JUMPDEST PUSH1 0x0 PUSH1 0x20 DUP3 DUP5 SUB SLT ISZERO PUSH3 0x86B JUMPI PUSH1 0x0 DUP1 REVERT JUMPDEST DUP2 MLOAD PUSH1 0x1 PUSH1 0x1 PUSH1 0x40 SHL SUB DUP1 DUP3 GT ISZERO PUSH3 0x883 JUMPI PUSH1 0x0 DUP1 REVERT JUMPDEST DUP2 DUP5 ADD SWAP2 POP DUP5 PUSH1 0x1F DUP4 ADD SLT PUSH3 0x898 JUMPI PUSH1 0x0 DUP1 REVERT JUMPDEST DUP2 MLOAD DUP2 DUP2 GT ISZERO PUSH3 0x8AD JUMPI PUSH3 0x8AD PUSH3 0x7ED JUMP JUMPDEST PUSH1 0x40 MLOAD SWAP2 POP PUSH3 0x8C8 PUSH1 0x1F DUP3 ADD PUSH1 0x1F NOT AND PUSH1 0x20 ADD DUP4 PUSH3 0x803 JUMP JUMPDEST DUP1 DUP3 MSTORE DUP6 PUSH1 0x20 DUP3 DUP6 ADD ADD GT ISZERO PUSH3 0x8DE JUMPI PUSH1 0x0 DUP1 REVERT JUMPDEST PUSH3 0x8F1 DUP2 PUSH1 0x20 DUP5 ADD PUSH1 0x20 DUP7 ADD PUSH3 0x832 JUMP JUMPDEST POP SWAP5 SWAP4 POP POP POP POP JUMP JUMPDEST PUSH32 0x506978656C205069637461736961204E465420436F6C6C656374696F6E202800 DUP2 MSTORE PUSH1 0x0 DUP3 MLOAD PUSH3 0x934 DUP2 PUSH1 0x1F DUP6 ADD PUSH1 0x20 DUP8 ADD PUSH3 0x832 JUMP JUMPDEST PUSH1 0x29 PUSH1 0xF8 SHL PUSH1 0x1F SWAP4 SWAP1 SWAP2 ADD SWAP3 DUP4 ADD MSTORE POP PUSH1 0x20 ADD SWAP2 SWAP1 POP JUMP JUMPDEST PUSH1 0x1 DUP2 DUP2 SHR SWAP1 DUP3 AND DUP1 PUSH3 0x961 JUMPI PUSH1 0x7F DUP3 AND SWAP2 POP JUMPDEST PUSH1 0x20 DUP3 LT DUP2 SUB PUSH3 0x982 JUMPI PUSH4 0x4E487B71 PUSH1 0xE0 SHL PUSH1 0x0 MSTORE PUSH1 0x22 PUSH1 0x4 MSTORE PUSH1 0x24 PUSH1 0x0 REVERT JUMPDEST POP SWAP2 SWAP1 POP JUMP JUMPDEST PUSH1 0x1F DUP3 GT ISZERO PUSH3 0x9D2 JUMPI PUSH1 0x0 DUP2 DUP2 MSTORE PUSH1 0x20 DUP2 KECCAK256 PUSH1 0x1F DUP6 ADD PUSH1 0x5 SHR DUP2 ADD PUSH1 0x20 DUP7 LT ISZERO PUSH3 0x9B1 JUMPI POP DUP1 JUMPDEST PUSH1 0x1F DUP6 ADD PUSH1 0x5 SHR DUP3 ADD SWAP2 POP JUMPDEST DUP2 DUP2 LT ISZERO PUSH3 0x7E5 JUMPI DUP3 DUP2 SSTORE PUSH1 0x1 ADD PUSH3 0x9BD JUMP JUMPDEST POP POP POP JUMP JUMPDEST DUP2 MLOAD PUSH1 0x1 PUSH1 0x1 PUSH1 0x40 SHL SUB DUP2 GT ISZERO PUSH3 0x9F3 JUMPI PUSH3 0x9F3 PUSH3 0x7ED JUMP JUMPDEST PUSH3 0xA0B DUP2 PUSH3 0xA04 DUP5 SLOAD PUSH3 0x94C JUMP JUMPDEST DUP5 PUSH3 0x988 JUMP JUMPDEST PUSH1 0x20 DUP1 PUSH1 0x1F DUP4 GT PUSH1 0x1 DUP2 EQ PUSH3 0xA43 JUMPI PUSH1 0x0 DUP5 ISZERO PUSH3 0xA2A JUMPI POP DUP6 DUP4 ADD MLOAD JUMPDEST PUSH1 0x0 NOT PUSH1 0x3 DUP7 SWAP1 SHL SHR NOT AND PUSH1 0x1 DUP6 SWAP1 SHL OR DUP6 SSTORE PUSH3 0x7E5 JUMP JUMPDEST PUSH1 0x0 DUP6 DUP2 MSTORE PUSH1 0x20 DUP2 KECCAK256 PUSH1 0x1F NOT DUP7 AND SWAP2 JUMPDEST DUP3 DUP2 LT ISZERO PUSH3 0xA74 JUMPI DUP9 DUP7 ADD MLOAD DUP3 SSTORE SWAP5 DUP5 ADD SWAP5 PUSH1 0x1 SWAP1 SWAP2 ADD SWAP1 DUP5 ADD PUSH3 0xA53 JUMP JUMPDEST POP DUP6 DUP3 LT ISZERO PUSH3 0xA93 JUMPI DUP8 DUP6 ADD MLOAD PUSH1 0x0 NOT PUSH1 0x3 DUP9 SWAP1 SHL PUSH1 0xF8 AND SHR NOT AND DUP2 SSTORE JUMPDEST POP POP POP POP POP PUSH1 0x1 SWAP1 DUP2 SHL ADD SWAP1 SSTORE POP JUMP JUMPDEST PUSH4 0x4E487B71 PUSH1 0xE0 SHL PUSH1 0x0 MSTORE PUSH1 0x32 PUSH1 0x4 MSTORE PUSH1 0x24 PUSH1 0x0 REVERT JUMPDEST PUSH1 0x0 PUSH1 0x1 DUP3 ADD PUSH3 0xADA JUMPI PUSH4 0x4E487B71 PUSH1 0xE0 SHL PUSH1 0x0 MSTORE PUSH1 0x11 PUSH1 0x4 MSTORE PUSH1 0x24 PUSH1 0x0 REVERT JUMPDEST POP PUSH1 0x1 ADD SWAP1 JUMP JUMPDEST PUSH1 0x0 DUP2 MLOAD DUP1 DUP5 MSTORE PUSH1 0x20 DUP1 DUP6 ADD SWAP5 POP DUP1 DUP5 ADD PUSH1 0x0 JUMPDEST DUP4 DUP2 LT ISZERO PUSH3 0xB13 JUMPI DUP2 MLOAD DUP8 MSTORE SWAP6 DUP3 ADD SWAP6 SWAP1 DUP3 ADD SWAP1 PUSH1 0x1 ADD PUSH3 0xAF5 JUMP JUMPDEST POP SWAP5 SWAP6 SWAP5 POP POP POP POP POP JUMP JUMPDEST PUSH1 0x40 DUP2 MSTORE PUSH1 0x0 PUSH3 0xB33 PUSH1 0x40 DUP4 ADD DUP6 PUSH3 0xAE1 JUMP JUMPDEST DUP3 DUP2 SUB PUSH1 0x20 DUP5 ADD MSTORE PUSH3 0xB47 DUP2 DUP6 PUSH3 0xAE1 JUMP JUMPDEST SWAP6 SWAP5 POP POP POP POP POP JUMP JUMPDEST PUSH1 0x0 DUP2 MLOAD DUP1 DUP5 MSTORE PUSH3 0xB6A DUP2 PUSH1 0x20 DUP7 ADD PUSH1 0x20 DUP7 ADD PUSH3 0x832 JUMP JUMPDEST PUSH1 0x1F ADD PUSH1 0x1F NOT AND SWAP3 SWAP1 SWAP3 ADD PUSH1 0x20 ADD SWAP3 SWAP2 POP POP JUMP JUMPDEST PUSH1 0x1 PUSH1 0x1 PUSH1 0xA0 SHL SUB DUP7 DUP2 AND DUP3 MSTORE DUP6 AND PUSH1 0x20 DUP3 ADD MSTORE PUSH1 0xA0 PUSH1 0x40 DUP3 ADD DUP2 SWAP1 MSTORE PUSH1 0x0 SWAP1 PUSH3 0xBAC SWAP1 DUP4 ADD DUP7 PUSH3 0xAE1 JUMP JUMPDEST DUP3 DUP2 SUB PUSH1 0x60 DUP5 ADD MSTORE PUSH3 0xBC0 DUP2 DUP7 PUSH3 0xAE1 JUMP JUMPDEST SWAP1 POP DUP3 DUP2 SUB PUSH1 0x80 DUP5 ADD MSTORE PUSH3 0xBD6 DUP2 DUP6 PUSH3 0xB50 JUMP JUMPDEST SWAP9 SWAP8 POP POP POP POP POP POP POP POP JUMP JUMPDEST PUSH1 0x0 PUSH1 0x20 DUP3 DUP5 SUB SLT ISZERO PUSH3 0xBF5 JUMPI PUSH1 0x0 DUP1 REVERT JUMPDEST DUP2 MLOAD PUSH1 0x1 PUSH1 0x1 PUSH1 0xE0 SHL SUB NOT DUP2 AND DUP2 EQ PUSH3 0xC0E JUMPI PUSH1 0x0 DUP1 REVERT JUMPDEST SWAP4 SWAP3 POP POP POP JUMP JUMPDEST PUSH1 0x0 PUSH1 0x3 RETURNDATASIZE GT ISZERO PUSH3 0xC2F JUMPI PUSH1 0x4 PUSH1 0x0 DUP1 RETURNDATACOPY POP PUSH1 0x0 MLOAD PUSH1 0xE0 SHR JUMPDEST SWAP1 JUMP JUMPDEST PUSH1 0x0 PUSH1 0x44 RETURNDATASIZE LT ISZERO PUSH3 0xC41 JUMPI SWAP1 JUMP JUMPDEST PUSH1 0x40 MLOAD PUSH1 0x3 NOT RETURNDATASIZE DUP2 ADD PUSH1 0x4 DUP4 RETURNDATACOPY DUP2 MLOAD RETURNDATASIZE PUSH1 0x1 PUSH1 0x1 PUSH1 0x40 SHL SUB DUP1 DUP4 GT PUSH1 0x24 DUP5 ADD DUP4 LT OR ISZERO PUSH3 0xC71 JUMPI POP POP POP POP POP SWAP1 JUMP JUMPDEST DUP3 DUP6 ADD SWAP2 POP DUP2 MLOAD DUP2 DUP2 GT ISZERO PUSH3 0xC8A JUMPI POP POP POP POP POP POP SWAP1 JUMP JUMPDEST DUP5 RETURNDATASIZE DUP8 ADD ADD PUSH1 0x20 DUP3 DUP6 ADD ADD GT ISZERO PUSH3 0xCA5 JUMPI POP POP POP POP POP POP SWAP1 JUMP JUMPDEST PUSH3 0xCB6 PUSH1 0x20 DUP3 DUP7 ADD ADD DUP8 PUSH3 0x803 JUMP JUMPDEST POP SWAP1 SWAP6 SWAP5 POP POP POP POP POP JUMP JUMPDEST PUSH1 0x20 DUP2 MSTORE PUSH1 0x0 PUSH3 0xC0E PUSH1 0x20 DUP4 ADD DUP5 PUSH3 0xB50 JUMP JUMPDEST PUSH2 0x4007 DUP1 PUSH3 0xCE6 PUSH1 0x0 CODECOPY PUSH1 0x0 RETURN INVALID PUSH1 0x80 PUSH1 0x40 MSTORE PUSH1 0x4 CALLDATASIZE LT PUSH2 0x269 JUMPI PUSH1 0x0 CALLDATALOAD PUSH1 0xE0 SHR DUP1 PUSH4 0x75AB9782 GT PUSH2 0x144 JUMPI DUP1 PUSH4 0xB7BF7070 GT PUSH2 0xB6 JUMPI DUP1 PUSH4 0xE8A3D485 GT PUSH2 0x7A JUMPI DUP1 PUSH4 0xE8A3D485 EQ PUSH2 0x77B JUMPI DUP1 PUSH4 0xE985E9C5 EQ PUSH2 0x790 JUMPI DUP1 PUSH4 0xED88C68E EQ PUSH2 0x275 JUMPI DUP1 PUSH4 0xF23A6E61 EQ PUSH2 0x7B0 JUMPI DUP1 PUSH4 0xF242432A EQ PUSH2 0x7DC JUMPI DUP1 PUSH4 0xF5DA96DC EQ PUSH2 0x7FC JUMPI PUSH2 0x275 INVALID JUMPDEST DUP1 PUSH4 0xB7BF7070 EQ PUSH2 0x6DA JUMPI DUP1 PUSH4 0xBC197C81 EQ PUSH2 0x6FA JUMPI DUP1 PUSH4 0xC4E8D5ED EQ PUSH2 0x726 JUMPI DUP1 PUSH4 0xD319AA30 EQ PUSH2 0x746 JUMPI DUP1 PUSH4 0xDBD3CFCD EQ PUSH2 0x75B JUMPI PUSH2 0x275 INVALID JUMPDEST DUP1 PUSH4 0x9CD6E666 GT PUSH2 0x108 JUMPI DUP1 PUSH4 0x9CD6E666 EQ PUSH2 0x625 JUMPI DUP1 PUSH4 0xA22CB465 EQ PUSH2 0x645 JUMPI DUP1 PUSH4 0xAFFE639F EQ PUSH2 0x665 JUMPI DUP1 PUSH4 0xB2828496 EQ PUSH2 0x685 JUMPI DUP1 PUSH4 0xB4D9B973 EQ PUSH2 0x6A5 JUMPI DUP1 PUSH4 0xB76A10CA EQ PUSH2 0x6BA JUMPI PUSH2 0x275 INVALID JUMPDEST DUP1 PUSH4 0x75AB9782 EQ PUSH2 0x277 JUMPI DUP1 PUSH4 0x7A1E26EE EQ PUSH2 0x5A7 JUMPI DUP1 PUSH4 0x7F0F543C EQ PUSH2 0x5C7 JUMPI DUP1 PUSH4 0x811D678E EQ PUSH2 0x5E7 JUMPI DUP1 PUSH4 0x91372456 EQ PUSH2 0x607 JUMPI PUSH2 0x275 INVALID JUMPDEST DUP1 PUSH4 0x2EB2C2D6 GT PUSH2 0x1DD JUMPI DUP1 PUSH4 0x4F61B3AE GT PUSH2 0x1A1 JUMPI DUP1 PUSH4 0x4F61B3AE EQ PUSH2 0x4E6 JUMPI DUP1 PUSH4 0x503D7FE4 EQ PUSH2 0x505 JUMPI DUP1 PUSH4 0x58F026F0 EQ PUSH2 0x525 JUMPI DUP1 PUSH4 0x6315AA45 EQ PUSH2 0x53A JUMPI DUP1 PUSH4 0x63DD5EE5 EQ PUSH2 0x55A JUMPI DUP1 PUSH4 0x64E847F9 EQ PUSH2 0x587 JUMPI PUSH2 0x275 INVALID JUMPDEST DUP1 PUSH4 0x2EB2C2D6 EQ PUSH2 0x44F JUMPI DUP1 PUSH4 0x41931A2F EQ PUSH2 0x46F JUMPI DUP1 PUSH4 0x43F22EDA EQ PUSH2 0x484 JUMPI DUP1 PUSH4 0x453A2DBF EQ PUSH2 0x4A4 JUMPI DUP1 PUSH4 0x4E1273F4 EQ PUSH2 0x4B9 JUMPI PUSH2 0x275 INVALID JUMPDEST DUP1 PUSH4 0x150B7A02 GT PUSH2 0x22F JUMPI DUP1 PUSH4 0x150B7A02 EQ PUSH2 0x34C JUMPI DUP1 PUSH4 0x20A025D4 EQ PUSH2 0x390 JUMPI DUP1 PUSH4 0x249CB3FA EQ PUSH2 0x3B0 JUMPI DUP1 PUSH4 0x2A55205A EQ PUSH2 0x3D0 JUMPI DUP1 PUSH4 0x2AA4ADA0 EQ PUSH2 0x40F JUMPI DUP1 PUSH4 0x2E66CCF5 EQ PUSH2 0x42F JUMPI PUSH2 0x275 INVALID JUMPDEST DUP1 PUSH3 0x23DE29 EQ PUSH2 0x277 JUMPI DUP1 PUSH3 0xFDD58E EQ PUSH2 0x29C JUMPI DUP1 PUSH4 0x1FFC9A7 EQ PUSH2 0x2CF JUMPI DUP1 PUSH4 0x9F003B4 EQ PUSH2 0x2FF JUMPI DUP1 PUSH4 0xE89341C EQ PUSH2 0x31F JUMPI PUSH2 0x275 INVALID JUMPDEST CALLDATASIZE PUSH2 0x270 JUMPI STOP JUMPDEST PUSH2 0x275 INVALID JUMPDEST STOP JUMPDEST CALLVALUE DUP1 ISZERO PUSH2 0x283 JUMPI PUSH1 0x0 DUP1 REVERT JUMPDEST POP PUSH2 0x275 PUSH2 0x292 CALLDATASIZE PUSH1 0x4 PUSH2 0x2DFF JUMP JUMPDEST POP POP POP POP POP POP POP POP JUMP JUMPDEST CALLVALUE DUP1 ISZERO PUSH2 0x2A8 JUMPI PUSH1 0x0 DUP1 REVERT JUMPDEST POP PUSH2 0x2BC PUSH2 0x2B7 CALLDATASIZE PUSH1 0x4 PUSH2 0x2EA9 JUMP JUMPDEST PUSH2 0x81C JUMP JUMPDEST PUSH1 0x40 MLOAD SWAP1 DUP2 MSTORE PUSH1 0x20 ADD JUMPDEST PUSH1 0x40 MLOAD DUP1 SWAP2 SUB SWAP1 RETURN JUMPDEST CALLVALUE DUP1 ISZERO PUSH2 0x2DB JUMPI PUSH1 0x0 DUP1 REVERT JUMPDEST POP PUSH2 0x2EF PUSH2 0x2EA CALLDATASIZE PUSH1 0x4 PUSH2 0x2EE9 JUMP JUMPDEST PUSH2 0x8B7 JUMP JUMPDEST PUSH1 0x40 MLOAD SWAP1 ISZERO ISZERO DUP2 MSTORE PUSH1 0x20 ADD PUSH2 0x2C6 JUMP JUMPDEST CALLVALUE DUP1 ISZERO PUSH2 0x30B JUMPI PUSH1 0x0 DUP1 REVERT JUMPDEST POP PUSH2 0x275 PUSH2 0x31A CALLDATASIZE PUSH1 0x4 PUSH2 0x2F06 JUMP JUMPDEST PUSH2 0x92D JUMP JUMPDEST CALLVALUE DUP1 ISZERO PUSH2 0x32B JUMPI PUSH1 0x0 DUP1 REVERT JUMPDEST POP PUSH2 0x33F PUSH2 0x33A CALLDATASIZE PUSH1 0x4 PUSH2 0x2F06 JUMP JUMPDEST PUSH2 0x952 JUMP JUMPDEST PUSH1 0x40 MLOAD PUSH2 0x2C6 SWAP2 SWAP1 PUSH2 0x2F6F JUMP JUMPDEST CALLVALUE DUP1 ISZERO PUSH2 0x358 JUMPI PUSH1 0x0 DUP1 REVERT JUMPDEST POP PUSH2 0x377 PUSH2 0x367 CALLDATASIZE PUSH1 0x4 PUSH2 0x3041 JUMP JUMPDEST PUSH4 0xA85BD01 PUSH1 0xE1 SHL SWAP5 SWAP4 POP POP POP POP JUMP JUMPDEST PUSH1 0x40 MLOAD PUSH1 0x1 PUSH1 0x1 PUSH1 0xE0 SHL SUB NOT SWAP1 SWAP2 AND DUP2 MSTORE PUSH1 0x20 ADD PUSH2 0x2C6 JUMP JUMPDEST CALLVALUE DUP1 ISZERO PUSH2 0x39C JUMPI PUSH1 0x0 DUP1 REVERT JUMPDEST POP PUSH2 0x275 PUSH2 0x3AB CALLDATASIZE PUSH1 0x4 PUSH2 0x30A8 JUMP JUMPDEST PUSH2 0x9F5 JUMP JUMPDEST CALLVALUE DUP1 ISZERO PUSH2 0x3BC JUMPI PUSH1 0x0 DUP1 REVERT JUMPDEST POP PUSH2 0x2BC PUSH2 0x3CB CALLDATASIZE PUSH1 0x4 PUSH2 0x30F8 JUMP JUMPDEST PUSH2 0xA0F JUMP JUMPDEST CALLVALUE DUP1 ISZERO PUSH2 0x3DC JUMPI PUSH1 0x0 DUP1 REVERT JUMPDEST POP PUSH2 0x3F0 PUSH2 0x3EB CALLDATASIZE PUSH1 0x4 PUSH2 0x311B JUMP JUMPDEST PUSH2 0xAA5 JUMP JUMPDEST PUSH1 0x40 DUP1 MLOAD PUSH1 0x1 PUSH1 0x1 PUSH1 0xA0 SHL SUB SWAP1 SWAP4 AND DUP4 MSTORE PUSH1 0x20 DUP4 ADD SWAP2 SWAP1 SWAP2 MSTORE ADD PUSH2 0x2C6 JUMP JUMPDEST CALLVALUE DUP1 ISZERO PUSH2 0x41B JUMPI PUSH1 0x0 DUP1 REVERT JUMPDEST POP PUSH2 0x275 PUSH2 0x42A CALLDATASIZE PUSH1 0x4 PUSH2 0x2EA9 JUMP JUMPDEST PUSH2 0xADB JUMP JUMPDEST CALLVALUE DUP1 ISZERO PUSH2 0x43B JUMPI PUSH1 0x0 DUP1 REVERT JUMPDEST POP PUSH2 0x275 PUSH2 0x44A CALLDATASIZE PUSH1 0x4 PUSH2 0x2F06 JUMP JUMPDEST PUSH2 0xB03 JUMP JUMPDEST CALLVALUE DUP1 ISZERO PUSH2 0x45B JUMPI PUSH1 0x0 DUP1 REVERT JUMPDEST POP PUSH2 0x275 PUSH2 0x46A CALLDATASIZE PUSH1 0x4 PUSH2 0x31D1 JUMP JUMPDEST PUSH2 0xB1E JUMP JUMPDEST CALLVALUE DUP1 ISZERO PUSH2 0x47B JUMPI PUSH1 0x0 DUP1 REVERT JUMPDEST POP PUSH2 0x275 PUSH2 0xD46 JUMP JUMPDEST CALLVALUE DUP1 ISZERO PUSH2 0x490 JUMPI PUSH1 0x0 DUP1 REVERT JUMPDEST POP PUSH2 0x33F PUSH2 0x49F CALLDATASIZE PUSH1 0x4 PUSH2 0x2F06 JUMP JUMPDEST PUSH2 0xD6A JUMP JUMPDEST CALLVALUE DUP1 ISZERO PUSH2 0x4B0 JUMPI PUSH1 0x0 DUP1 REVERT JUMPDEST POP PUSH2 0x33F PUSH2 0xD75 JUMP JUMPDEST CALLVALUE DUP1 ISZERO PUSH2 0x4C5 JUMPI PUSH1 0x0 DUP1 REVERT JUMPDEST POP PUSH2 0x4D9 PUSH2 0x4D4 CALLDATASIZE PUSH1 0x4 PUSH2 0x327A JUMP JUMPDEST PUSH2 0xD84 JUMP JUMPDEST PUSH1 0x40 MLOAD PUSH2 0x2C6 SWAP2 SWAP1 PUSH2 0x337F JUMP JUMPDEST CALLVALUE DUP1 ISZERO PUSH2 0x4F2 JUMPI PUSH1 0x0 DUP1 REVERT JUMPDEST POP PUSH1 0x1 SLOAD PUSH1 0x1 PUSH1 0xA0 SHL SWAP1 DIV PUSH1 0xFF AND PUSH2 0x2EF JUMP JUMPDEST CALLVALUE DUP1 ISZERO PUSH2 0x511 JUMPI PUSH1 0x0 DUP1 REVERT JUMPDEST POP PUSH2 0x2EF PUSH2 0x520 CALLDATASIZE PUSH1 0x4 PUSH2 0x3392 JUMP JUMPDEST PUSH2 0xEAD JUMP JUMPDEST CALLVALUE DUP1 ISZERO PUSH2 0x531 JUMPI PUSH1 0x0 DUP1 REVERT JUMPDEST POP PUSH2 0x2BC PUSH2 0xEB8 JUMP JUMPDEST CALLVALUE DUP1 ISZERO PUSH2 0x546 JUMPI PUSH1 0x0 DUP1 REVERT JUMPDEST POP PUSH2 0x275 PUSH2 0x555 CALLDATASIZE PUSH1 0x4 PUSH2 0x30A8 JUMP JUMPDEST PUSH2 0xEC3 JUMP JUMPDEST CALLVALUE DUP1 ISZERO PUSH2 0x566 JUMPI PUSH1 0x0 DUP1 REVERT JUMPDEST POP PUSH2 0x56F PUSH2 0xEDD JUMP JUMPDEST PUSH1 0x40 MLOAD PUSH1 0x1 PUSH1 0x1 PUSH1 0xA0 SHL SUB SWAP1 SWAP2 AND DUP2 MSTORE PUSH1 0x20 ADD PUSH2 0x2C6 JUMP JUMPDEST CALLVALUE DUP1 ISZERO PUSH2 0x593 JUMPI PUSH1 0x0 DUP1 REVERT JUMPDEST POP PUSH2 0x275 PUSH2 0x5A2 CALLDATASIZE PUSH1 0x4 PUSH2 0x30A8 JUMP JUMPDEST PUSH2 0xEF1 JUMP JUMPDEST CALLVALUE DUP1 ISZERO PUSH2 0x5B3 JUMPI PUSH1 0x0 DUP1 REVERT JUMPDEST POP PUSH2 0x275 PUSH2 0x5C2 CALLDATASIZE PUSH1 0x4 PUSH2 0x3392 JUMP JUMPDEST PUSH2 0xF0B JUMP JUMPDEST CALLVALUE DUP1 ISZERO PUSH2 0x5D3 JUMPI PUSH1 0x0 DUP1 REVERT JUMPDEST POP PUSH2 0x33F PUSH2 0x5E2 CALLDATASIZE PUSH1 0x4 PUSH2 0x2F06 JUMP JUMPDEST PUSH2 0xF3C JUMP JUMPDEST CALLVALUE DUP1 ISZERO PUSH2 0x5F3 JUMPI PUSH1 0x0 DUP1 REVERT JUMPDEST POP PUSH2 0x275 PUSH2 0x602 CALLDATASIZE PUSH1 0x4 PUSH2 0x30A8 JUMP JUMPDEST PUSH2 0xF47 JUMP JUMPDEST CALLVALUE DUP1 ISZERO PUSH2 0x613 JUMPI PUSH1 0x0 DUP1 REVERT JUMPDEST POP PUSH1 0x0 SLOAD PUSH1 0x1 PUSH1 0x1 PUSH1 0xA0 SHL SUB AND PUSH2 0x56F JUMP JUMPDEST CALLVALUE DUP1 ISZERO PUSH2 0x631 JUMPI PUSH1 0x0 DUP1 REVERT JUMPDEST POP PUSH2 0x2EF PUSH2 0x640 CALLDATASIZE PUSH1 0x4 PUSH2 0x3392 JUMP JUMPDEST PUSH2 0xF61 JUMP JUMPDEST CALLVALUE DUP1 ISZERO PUSH2 0x651 JUMPI PUSH1 0x0 DUP1 REVERT JUMPDEST POP PUSH2 0x275 PUSH2 0x660 CALLDATASIZE PUSH1 0x4 PUSH2 0x33BB JUMP JUMPDEST PUSH2 0xF6C JUMP JUMPDEST CALLVALUE DUP1 ISZERO PUSH2 0x671 JUMPI PUSH1 0x0 DUP1 REVERT JUMPDEST POP PUSH2 0x33F PUSH2 0x680 CALLDATASIZE PUSH1 0x4 PUSH2 0x2F06 JUMP JUMPDEST PUSH2 0x1042 JUMP JUMPDEST CALLVALUE DUP1 ISZERO PUSH2 0x691 JUMPI PUSH1 0x0 DUP1 REVERT JUMPDEST POP PUSH2 0x275 PUSH2 0x6A0 CALLDATASIZE PUSH1 0x4 PUSH2 0x33F2 JUMP JUMPDEST PUSH2 0x104D JUMP JUMPDEST CALLVALUE DUP1 ISZERO PUSH2 0x6B1 JUMPI PUSH1 0x0 DUP1 REVERT JUMPDEST POP PUSH2 0x275 PUSH2 0x1077 JUMP JUMPDEST CALLVALUE DUP1 ISZERO PUSH2 0x6C6 JUMPI PUSH1 0x0 DUP1 REVERT JUMPDEST POP PUSH2 0x275 PUSH2 0x6D5 CALLDATASIZE PUSH1 0x4 PUSH2 0x2EA9 JUMP JUMPDEST PUSH2 0x108A JUMP JUMPDEST CALLVALUE DUP1 ISZERO PUSH2 0x6E6 JUMPI PUSH1 0x0 DUP1 REVERT JUMPDEST POP PUSH2 0x2EF PUSH2 0x6F5 CALLDATASIZE PUSH1 0x4 PUSH2 0x30F8 JUMP JUMPDEST PUSH2 0x10A6 JUMP JUMPDEST CALLVALUE DUP1 ISZERO PUSH2 0x706 JUMPI PUSH1 0x0 DUP1 REVERT JUMPDEST POP PUSH2 0x377 PUSH2 0x715 CALLDATASIZE PUSH1 0x4 PUSH2 0x31D1 JUMP JUMPDEST PUSH4 0xBC197C81 PUSH1 0xE0 SHL SWAP6 SWAP5 POP POP POP POP POP JUMP JUMPDEST CALLVALUE DUP1 ISZERO PUSH2 0x732 JUMPI PUSH1 0x0 DUP1 REVERT JUMPDEST POP PUSH2 0x56F PUSH2 0x741 CALLDATASIZE PUSH1 0x4 PUSH2 0x2F06 JUMP JUMPDEST PUSH2 0x10CB JUMP JUMPDEST CALLVALUE DUP1 ISZERO PUSH2 0x752 JUMPI PUSH1 0x0 DUP1 REVERT JUMPDEST POP PUSH2 0x56F PUSH2 0x10E8 JUMP JUMPDEST CALLVALUE DUP1 ISZERO PUSH2 0x767 JUMPI PUSH1 0x0 DUP1 REVERT JUMPDEST POP PUSH2 0x275 PUSH2 0x776 CALLDATASIZE PUSH1 0x4 PUSH2 0x3392 JUMP JUMPDEST PUSH2 0x10FC JUMP JUMPDEST CALLVALUE DUP1 ISZERO PUSH2 0x787 JUMPI PUSH1 0x0 DUP1 REVERT JUMPDEST POP PUSH2 0x33F PUSH2 0x112F JUMP JUMPDEST CALLVALUE DUP1 ISZERO PUSH2 0x79C JUMPI PUSH1 0x0 DUP1 REVERT JUMPDEST POP PUSH2 0x2EF PUSH2 0x7AB CALLDATASIZE PUSH1 0x4 PUSH2 0x3448 JUMP JUMPDEST PUSH2 0x11BA JUMP JUMPDEST CALLVALUE DUP1 ISZERO PUSH2 0x7BC JUMPI PUSH1 0x0 DUP1 REVERT JUMPDEST POP PUSH2 0x377 PUSH2 0x7CB CALLDATASIZE PUSH1 0x4 PUSH2 0x3472 JUMP JUMPDEST PUSH4 0xF23A6E61 PUSH1 0xE0 SHL SWAP6 SWAP5 POP POP POP POP POP JUMP JUMPDEST CALLVALUE DUP1 ISZERO PUSH2 0x7E8 JUMPI PUSH1 0x0 DUP1 REVERT JUMPDEST POP PUSH2 0x275 PUSH2 0x7F7 CALLDATASIZE PUSH1 0x4 PUSH2 0x3472 JUMP JUMPDEST PUSH2 0x11E8 JUMP JUMPDEST CALLVALUE DUP1 ISZERO PUSH2 0x808 JUMPI PUSH1 0x0 DUP1 REVERT JUMPDEST POP PUSH2 0x275 PUSH2 0x817 CALLDATASIZE PUSH1 0x4 PUSH2 0x34D6 JUMP JUMPDEST PUSH2 0x1342 JUMP JUMPDEST PUSH1 0x0 PUSH1 0x1 PUSH1 0x1 PUSH1 0xA0 SHL SUB DUP4 AND PUSH2 0x88C JUMPI PUSH1 0x40 MLOAD PUSH3 0x461BCD PUSH1 0xE5 SHL DUP2 MSTORE PUSH1 0x20 PUSH1 0x4 DUP3 ADD MSTORE PUSH1 0x2A PUSH1 0x24 DUP3 ADD MSTORE PUSH32 0x455243313135353A2061646472657373207A65726F206973206E6F7420612076 PUSH1 0x44 DUP3 ADD MSTORE PUSH10 0x30B634B21037BBB732B9 PUSH1 0xB1 SHL PUSH1 0x64 DUP3 ADD MSTORE PUSH1 0x84 ADD JUMPDEST PUSH1 0x40 MLOAD DUP1 SWAP2 SUB SWAP1 REVERT JUMPDEST POP PUSH1 0x0 DUP2 DUP2 MSTORE PUSH1 0xB PUSH1 0x20 SWAP1 DUP2 MSTORE PUSH1 0x40 DUP1 DUP4 KECCAK256 PUSH1 0x1 PUSH1 0x1 PUSH1 0xA0 SHL SUB DUP7 AND DUP5 MSTORE SWAP1 SWAP2 MSTORE SWAP1 KECCAK256 SLOAD JUMPDEST SWAP3 SWAP2 POP POP JUMP JUMPDEST PUSH1 0x0 PUSH1 0x1 PUSH1 0x1 PUSH1 0xE0 SHL SUB NOT DUP3 AND PUSH4 0x1FFC9A7 PUSH1 0xE0 SHL EQ DUP1 PUSH2 0x8E8 JUMPI POP PUSH1 0x1 PUSH1 0x1 PUSH1 0xE0 SHL SUB NOT DUP3 AND PUSH4 0x6CDB3D13 PUSH1 0xE1 SHL EQ JUMPDEST DUP1 PUSH2 0x903 JUMPI POP PUSH1 0x1 PUSH1 0x1 PUSH1 0xE0 SHL SUB NOT DUP3 AND PUSH4 0x3A24D07 PUSH1 0xE2 SHL EQ JUMPDEST DUP1 PUSH2 0x91E JUMPI POP PUSH1 0x1 PUSH1 0x1 PUSH1 0xE0 SHL SUB NOT DUP3 AND PUSH4 0x152A902D PUSH1 0xE1 SHL EQ JUMPDEST DUP1 PUSH2 0x8B1 JUMPI POP PUSH2 0x8B1 DUP3 PUSH2 0x136E JUMP JUMPDEST PUSH2 0x935 PUSH2 0x140F JUMP JUMPDEST PUSH2 0x93E CALLER PUSH2 0x1430 JUMP JUMPDEST PUSH2 0x947 DUP2 PUSH1 0x3 SSTORE JUMP JUMPDEST PUSH2 0x94F PUSH2 0x1080 JUMP JUMPDEST POP JUMP JUMPDEST PUSH1 0x60 PUSH1 0x0 PUSH2 0x95F DUP4 PUSH2 0x147C JUMP JUMPDEST SWAP1 POP PUSH1 0x0 PUSH2 0x96C DUP5 PUSH2 0x14AD JUMP JUMPDEST SWAP1 POP PUSH1 0x0 PUSH2 0x979 DUP6 PUSH2 0x15CC JUMP JUMPDEST SWAP1 POP PUSH1 0x0 DUP4 DUP4 DUP4 PUSH1 0x40 MLOAD PUSH1 0x20 ADD PUSH2 0x992 SWAP4 SWAP3 SWAP2 SWAP1 PUSH2 0x351E JUMP JUMPDEST PUSH1 0x40 MLOAD PUSH1 0x20 DUP2 DUP4 SUB SUB DUP2 MSTORE SWAP1 PUSH1 0x40 MSTORE SWAP1 POP PUSH2 0x9CB DUP2 PUSH1 0x40 MLOAD PUSH1 0x20 ADD PUSH2 0x9B7 SWAP2 SWAP1 PUSH2 0x35BE JUMP JUMPDEST PUSH1 0x40 MLOAD PUSH1 0x20 DUP2 DUP4 SUB SUB DUP2 MSTORE SWAP1 PUSH1 0x40 MSTORE PUSH2 0x171B JUMP JUMPDEST PUSH1 0x40 MLOAD PUSH1 0x20 ADD PUSH2 0x9DB SWAP2 SWAP1 PUSH2 0x35DA JUMP JUMPDEST PUSH1 0x40 MLOAD PUSH1 0x20 DUP2 DUP4 SUB SUB DUP2 MSTORE SWAP1 PUSH1 0x40 MSTORE SWAP5 POP POP POP POP POP SWAP2 SWAP1 POP JUMP JUMPDEST PUSH2 0x9FD PUSH2 0x140F JUMP JUMPDEST PUSH2 0xA06 CALLER PUSH2 0x1430 JUMP JUMPDEST PUSH2 0x947 DUP2 PUSH2 0x186D JUMP JUMPDEST PUSH1 0x0 PUSH1 0x1 PUSH1 0x1 PUSH1 0xA0 SHL SUB DUP3 AND ADDRESS EQ DUP1 ISZERO PUSH2 0xA71 JUMPI POP PUSH32 0xB281FC8C12954D22544DB45DE3159A39272895B169A852B314F9CC762E44C53B DUP4 EQ DUP1 PUSH2 0xA71 JUMPI POP PUSH32 0x29DDB589B1FB5FC7CF394961C1ADF5F8C6454761ADF795E67FE149F658ABE895 DUP4 EQ JUMPDEST ISZERO PUSH2 0xA9D JUMPI POP PUSH32 0xA2EF4600D742022D532D4747CB3547474667D6F13804902513B2EC01C848F4B4 PUSH2 0x8B1 JUMP JUMPDEST POP PUSH1 0x0 PUSH2 0x8B1 JUMP JUMPDEST PUSH1 0x2 SLOAD PUSH1 0x3 SLOAD PUSH1 0x1 PUSH1 0x1 PUSH1 0xA0 SHL SUB SWAP1 SWAP2 AND SWAP1 PUSH1 0x0 SWAP1 PUSH2 0x2710 SWAP1 PUSH2 0xAC8 SWAP1 DUP6 PUSH2 0x3635 JUMP JUMPDEST PUSH2 0xAD2 SWAP2 SWAP1 PUSH2 0x3662 JUMP JUMPDEST SWAP1 POP SWAP3 POP SWAP3 SWAP1 POP JUMP JUMPDEST PUSH2 0xAE3 PUSH2 0x140F JUMP JUMPDEST PUSH2 0xAEC CALLER PUSH2 0x1430 JUMP JUMPDEST PUSH2 0xAF7 DUP3 CALLER DUP4 PUSH2 0x1879 JUMP JUMPDEST PUSH2 0xAFF PUSH2 0x1080 JUMP JUMPDEST POP POP JUMP JUMPDEST PUSH2 0xB0B PUSH2 0x140F JUMP JUMPDEST PUSH2 0xB14 CALLER PUSH2 0x1430 JUMP JUMPDEST PUSH2 0x947 CALLER DUP3 PUSH2 0x19EE JUMP JUMPDEST PUSH1 0x1 PUSH1 0x1 PUSH1 0xA0 SHL SUB DUP5 AND PUSH2 0xB44 JUMPI PUSH1 0x40 MLOAD PUSH3 0x461BCD PUSH1 0xE5 SHL DUP2 MSTORE PUSH1 0x4 ADD PUSH2 0x883 SWAP1 PUSH2 0x3676 JUMP JUMPDEST PUSH1 0x1 PUSH1 0x1 PUSH1 0xA0 SHL SUB DUP6 AND CALLER EQ DUP1 PUSH2 0xB60 JUMPI POP PUSH2 0xB60 DUP6 CALLER PUSH2 0x11BA JUMP JUMPDEST PUSH2 0xB7C JUMPI PUSH1 0x40 MLOAD PUSH3 0x461BCD PUSH1 0xE5 SHL DUP2 MSTORE PUSH1 0x4 ADD PUSH2 0x883 SWAP1 PUSH2 0x36BB JUMP JUMPDEST DUP2 MLOAD DUP4 MLOAD EQ PUSH2 0xBDE JUMPI PUSH1 0x40 MLOAD PUSH3 0x461BCD PUSH1 0xE5 SHL DUP2 MSTORE PUSH1 0x20 PUSH1 0x4 DUP3 ADD MSTORE PUSH1 0x28 PUSH1 0x24 DUP3 ADD MSTORE PUSH32 0x455243313135353A2069647320616E6420616D6F756E7473206C656E67746820 PUSH1 0x44 DUP3 ADD MSTORE PUSH8 0xDAD2E6DAC2E8C6D PUSH1 0xC3 SHL PUSH1 0x64 DUP3 ADD MSTORE PUSH1 0x84 ADD PUSH2 0x883 JUMP JUMPDEST PUSH1 0x0 JUMPDEST DUP4 MLOAD DUP2 LT ISZERO PUSH2 0xCD9 JUMPI PUSH1 0x0 DUP5 DUP3 DUP2 MLOAD DUP2 LT PUSH2 0xBFE JUMPI PUSH2 0xBFE PUSH2 0x3709 JUMP JUMPDEST PUSH1 0x20 MUL PUSH1 0x20 ADD ADD MLOAD SWAP1 POP PUSH1 0x0 DUP5 DUP4 DUP2 MLOAD DUP2 LT PUSH2 0xC1C JUMPI PUSH2 0xC1C PUSH2 0x3709 JUMP JUMPDEST PUSH1 0x20 SWAP1 DUP2 MUL SWAP2 SWAP1 SWAP2 ADD DUP2 ADD MLOAD PUSH1 0x0 DUP5 DUP2 MSTORE PUSH1 0xB DUP4 MSTORE PUSH1 0x40 DUP1 DUP3 KECCAK256 PUSH1 0x1 PUSH1 0x1 PUSH1 0xA0 SHL SUB DUP14 AND DUP4 MSTORE SWAP1 SWAP4 MSTORE SWAP2 SWAP1 SWAP2 KECCAK256 SLOAD SWAP1 SWAP2 POP DUP2 DUP2 LT ISZERO PUSH2 0xC6D JUMPI PUSH1 0x40 MLOAD PUSH3 0x461BCD PUSH1 0xE5 SHL DUP2 MSTORE PUSH1 0x4 ADD PUSH2 0x883 SWAP1 PUSH2 0x371F JUMP JUMPDEST PUSH2 0xC77 DUP3 DUP3 PUSH2 0x3769 JUMP JUMPDEST PUSH1 0x0 DUP5 DUP2 MSTORE PUSH1 0xB PUSH1 0x20 SWAP1 DUP2 MSTORE PUSH1 0x40 DUP1 DUP4 KECCAK256 PUSH1 0x1 PUSH1 0x1 PUSH1 0xA0 SHL SUB DUP15 DUP2 AND DUP6 MSTORE SWAP3 MSTORE DUP1 DUP4 KECCAK256 SWAP4 SWAP1 SWAP4 SSTORE DUP11 AND DUP2 MSTORE SWAP1 DUP2 KECCAK256 DUP1 SLOAD DUP5 SWAP3 SWAP1 PUSH2 0xCB5 SWAP1 DUP5 SWAP1 PUSH2 0x377C JUMP JUMPDEST SWAP1 SWAP2 SSTORE POP PUSH2 0xCC5 SWAP1 POP DUP4 DUP10 PUSH2 0x1A24 JUMP JUMPDEST POP POP POP DUP1 PUSH2 0xCD2 SWAP1 PUSH2 0x378F JUMP JUMPDEST SWAP1 POP PUSH2 0xBE1 JUMP JUMPDEST POP DUP4 PUSH1 0x1 PUSH1 0x1 PUSH1 0xA0 SHL SUB AND DUP6 PUSH1 0x1 PUSH1 0x1 PUSH1 0xA0 SHL SUB AND CALLER PUSH1 0x1 PUSH1 0x1 PUSH1 0xA0 SHL SUB AND PUSH32 0x4A39DC06D4C0DBC64B70AF90FD698A233A518AA5D07E595D983B8C0526C8F7FB DUP7 DUP7 PUSH1 0x40 MLOAD PUSH2 0xD29 SWAP3 SWAP2 SWAP1 PUSH2 0x37A8 JUMP JUMPDEST PUSH1 0x40 MLOAD DUP1 SWAP2 SUB SWAP1 LOG4 PUSH2 0xD3F CALLER DUP7 DUP7 DUP7 DUP7 DUP7 PUSH2 0x1A52 JUMP JUMPDEST POP POP POP POP POP JUMP JUMPDEST PUSH2 0xD4E PUSH2 0x140F JUMP JUMPDEST PUSH2 0xD57 CALLER PUSH2 0x1BB6 JUMP JUMPDEST PUSH2 0xD60 CALLER PUSH2 0x1C02 JUMP JUMPDEST PUSH2 0xD68 PUSH2 0x1080 JUMP JUMPDEST JUMP JUMPDEST PUSH1 0x60 PUSH2 0x8B1 DUP3 PUSH2 0x1C0B JUMP JUMPDEST PUSH1 0x60 PUSH2 0xD7F PUSH2 0x1C16 JUMP JUMPDEST SWAP1 POP SWAP1 JUMP JUMPDEST PUSH1 0x60 DUP2 MLOAD DUP4 MLOAD EQ PUSH2 0xDE9 JUMPI PUSH1 0x40 MLOAD PUSH3 0x461BCD PUSH1 0xE5 SHL DUP2 MSTORE PUSH1 0x20 PUSH1 0x4 DUP3 ADD MSTORE PUSH1 0x29 PUSH1 0x24 DUP3 ADD MSTORE PUSH32 0x455243313135353A206163636F756E747320616E6420696473206C656E677468 PUSH1 0x44 DUP3 ADD MSTORE PUSH9 0x40DAD2E6DAC2E8C6D PUSH1 0xBB SHL PUSH1 0x64 DUP3 ADD MSTORE PUSH1 0x84 ADD PUSH2 0x883 JUMP JUMPDEST PUSH1 0x0 DUP4 MLOAD PUSH1 0x1 PUSH1 0x1 PUSH1 0x40 SHL SUB DUP2 GT ISZERO PUSH2 0xE04 JUMPI PUSH2 0xE04 PUSH2 0x2F82 JUMP JUMPDEST PUSH1 0x40 MLOAD SWAP1 DUP1 DUP3 MSTORE DUP1 PUSH1 0x20 MUL PUSH1 0x20 ADD DUP3 ADD PUSH1 0x40 MSTORE DUP1 ISZERO PUSH2 0xE2D JUMPI DUP2 PUSH1 0x20 ADD PUSH1 0x20 DUP3 MUL DUP1 CALLDATASIZE DUP4 CALLDATACOPY ADD SWAP1 POP JUMPDEST POP SWAP1 POP PUSH1 0x0 JUMPDEST DUP5 MLOAD DUP2 LT ISZERO PUSH2 0xEA5 JUMPI PUSH2 0xE78 DUP6 DUP3 DUP2 MLOAD DUP2 LT PUSH2 0xE51 JUMPI PUSH2 0xE51 PUSH2 0x3709 JUMP JUMPDEST PUSH1 0x20 MUL PUSH1 0x20 ADD ADD MLOAD DUP6 DUP4 DUP2 MLOAD DUP2 LT PUSH2 0xE6B JUMPI PUSH2 0xE6B PUSH2 0x3709 JUMP JUMPDEST PUSH1 0x20 MUL PUSH1 0x20 ADD ADD MLOAD PUSH2 0x81C JUMP JUMPDEST DUP3 DUP3 DUP2 MLOAD DUP2 LT PUSH2 0xE8A JUMPI PUSH2 0xE8A PUSH2 0x3709 JUMP JUMPDEST PUSH1 0x20 SWAP1 DUP2 MUL SWAP2 SWAP1 SWAP2 ADD ADD MSTORE PUSH2 0xE9E DUP2 PUSH2 0x378F JUMP JUMPDEST SWAP1 POP PUSH2 0xE33 JUMP JUMPDEST POP SWAP4 SWAP3 POP POP POP JUMP JUMPDEST PUSH1 0x0 PUSH2 0x8B1 DUP3 PUSH2 0x1C20 JUMP JUMPDEST PUSH1 0x0 PUSH2 0xD7F PUSH1 0x3 SLOAD SWAP1 JUMP JUMPDEST PUSH2 0xECB PUSH2 0x140F JUMP JUMPDEST PUSH2 0xED4 CALLER PUSH2 0x1430 JUMP JUMPDEST PUSH2 0x947 DUP2 PUSH2 0x1C4F JUMP JUMPDEST PUSH1 0x0 PUSH2 0xD7F PUSH1 0x2 SLOAD PUSH1 0x1 PUSH1 0x1 PUSH1 0xA0 SHL SUB AND SWAP1 JUMP JUMPDEST PUSH2 0xEF9 PUSH2 0x140F JUMP JUMPDEST PUSH2 0xF02 CALLER PUSH2 0x1430 JUMP JUMPDEST PUSH2 0x947 DUP2 PUSH2 0x1C5B JUMP JUMPDEST PUSH2 0xF13 PUSH2 0x140F JUMP JUMPDEST PUSH2 0xF1C CALLER PUSH2 0x1430 JUMP JUMPDEST PUSH1 0x2 DUP1 SLOAD PUSH1 0x1 PUSH1 0x1 PUSH1 0xA0 SHL SUB NOT AND PUSH1 0x1 PUSH1 0x1 PUSH1 0xA0 SHL SUB DUP4 AND OR SWAP1 SSTORE PUSH2 0x947 JUMP JUMPDEST PUSH1 0x60 PUSH2 0x8B1 DUP3 PUSH2 0x1C67 JUMP JUMPDEST PUSH2 0xF4F PUSH2 0x140F JUMP JUMPDEST PUSH2 0xF58 CALLER PUSH2 0x1430 JUMP JUMPDEST PUSH2 0x947 DUP2 PUSH2 0x1C72 JUMP JUMPDEST PUSH1 0x0 PUSH2 0x8B1 DUP3 PUSH2 0x1C7E JUMP JUMPDEST PUSH1 0x1 PUSH1 0x1 PUSH1 0xA0 SHL SUB DUP3 AND CALLER SUB PUSH2 0xFD6 JUMPI PUSH1 0x40 MLOAD PUSH3 0x461BCD PUSH1 0xE5 SHL DUP2 MSTORE PUSH1 0x20 PUSH1 0x4 DUP3 ADD MSTORE PUSH1 0x29 PUSH1 0x24 DUP3 ADD MSTORE PUSH32 0x455243313135353A2073657474696E6720617070726F76616C20737461747573 PUSH1 0x44 DUP3 ADD MSTORE PUSH9 0x103337B91039B2B633 PUSH1 0xB9 SHL PUSH1 0x64 DUP3 ADD MSTORE PUSH1 0x84 ADD PUSH2 0x883 JUMP JUMPDEST CALLER PUSH1 0x0 DUP2 DUP2 MSTORE PUSH1 0xA PUSH1 0x20 SWAP1 DUP2 MSTORE PUSH1 0x40 DUP1 DUP4 KECCAK256 PUSH1 0x1 PUSH1 0x1 PUSH1 0xA0 SHL SUB DUP8 AND DUP1 DUP6 MSTORE SWAP1 DUP4 MSTORE SWAP3 DUP2 SWAP1 KECCAK256 DUP1 SLOAD PUSH1 0xFF NOT AND DUP7 ISZERO ISZERO SWAP1 DUP2 OR SWAP1 SWAP2 SSTORE SWAP1 MLOAD SWAP1 DUP2 MSTORE SWAP2 SWAP3 SWAP2 PUSH32 0x17307EAB39AB6107E8899845AD3D59BD9653F200F220920489CA2B5937696C31 SWAP2 ADD PUSH1 0x40 MLOAD DUP1 SWAP2 SUB SWAP1 LOG3 POP POP JUMP JUMPDEST PUSH1 0x60 PUSH2 0x8B1 DUP3 PUSH2 0x1C90 JUMP JUMPDEST PUSH2 0x1055 PUSH2 0x140F JUMP JUMPDEST PUSH2 0x105E CALLER PUSH2 0x1430 JUMP JUMPDEST PUSH2 0x106A DUP4 CALLER DUP5 DUP5 PUSH2 0x1C9B JUMP JUMPDEST PUSH2 0x1072 PUSH2 0x1080 JUMP JUMPDEST POP POP POP JUMP JUMPDEST PUSH2 0x1080 CALLER PUSH2 0x1430 JUMP JUMPDEST PUSH2 0xD68 PUSH1 0x0 PUSH2 0x1E21 JUMP JUMPDEST PUSH2 0x1092 PUSH2 0x140F JUMP JUMPDEST PUSH2 0x109B CALLER PUSH2 0x1430 JUMP JUMPDEST PUSH2 0xAF7 DUP3 DUP3 CALLER PUSH2 0x1E3F JUMP JUMPDEST PUSH1 0x0 DUP3 DUP2 MSTORE PUSH1 0x9 PUSH1 0x20 MSTORE PUSH1 0x40 DUP2 KECCAK256 SLOAD PUSH1 0x1 PUSH1 0x1 PUSH1 0xA0 SHL SUB DUP4 DUP2 AND SWAP2 AND EQ JUMPDEST SWAP4 SWAP3 POP POP POP JUMP JUMPDEST PUSH1 0x0 DUP2 DUP2 MSTORE PUSH1 0x9 PUSH1 0x20 MSTORE PUSH1 0x40 DUP2 KECCAK256 SLOAD PUSH1 0x1 PUSH1 0x1 PUSH1 0xA0 SHL SUB AND PUSH2 0x8B1 JUMP JUMPDEST PUSH1 0x0 PUSH2 0xD7F PUSH1 0x1 SLOAD PUSH1 0x1 PUSH1 0x1 PUSH1 0xA0 SHL SUB AND SWAP1 JUMP JUMPDEST PUSH2 0x1104 PUSH2 0x140F JUMP JUMPDEST PUSH2 0x110D CALLER PUSH2 0x1430 JUMP JUMPDEST PUSH2 0x947 DUP2 PUSH1 0x1 DUP1 SLOAD PUSH1 0x1 PUSH1 0x1 PUSH1 0xA0 SHL SUB NOT AND PUSH1 0x1 PUSH1 0x1 PUSH1 0xA0 SHL SUB DUP4 AND OR SWAP1 SSTORE POP JUMP JUMPDEST PUSH1 0x60 PUSH1 0x0 PUSH1 0x7 PUSH1 0x4 PUSH1 0x6 PUSH1 0x5 PUSH2 0x1146 PUSH1 0x3 SLOAD PUSH2 0x1FBA JUMP JUMPDEST PUSH1 0x2 SLOAD PUSH2 0x115B SWAP1 PUSH1 0x1 PUSH1 0x1 PUSH1 0xA0 SHL SUB AND PUSH2 0x20E5 JUMP JUMPDEST PUSH1 0x40 MLOAD PUSH1 0x20 ADD PUSH2 0x1170 SWAP7 SWAP6 SWAP5 SWAP4 SWAP3 SWAP2 SWAP1 PUSH2 0x3883 JUMP JUMPDEST PUSH1 0x40 MLOAD PUSH1 0x20 DUP2 DUP4 SUB SUB DUP2 MSTORE SWAP1 PUSH1 0x40 MSTORE SWAP1 POP PUSH2 0x1195 DUP2 PUSH1 0x40 MLOAD PUSH1 0x20 ADD PUSH2 0x9B7 SWAP2 SWAP1 PUSH2 0x35BE JUMP JUMPDEST PUSH1 0x40 MLOAD PUSH1 0x20 ADD PUSH2 0x11A5 SWAP2 SWAP1 PUSH2 0x35DA JUMP JUMPDEST PUSH1 0x40 MLOAD PUSH1 0x20 DUP2 DUP4 SUB SUB DUP2 MSTORE SWAP1 PUSH1 0x40 MSTORE SWAP2 POP POP SWAP1 JUMP JUMPDEST PUSH1 0x1 PUSH1 0x1 PUSH1 0xA0 SHL SUB SWAP2 DUP3 AND PUSH1 0x0 SWAP1 DUP2 MSTORE PUSH1 0xA PUSH1 0x20 SWAP1 DUP2 MSTORE PUSH1 0x40 DUP1 DUP4 KECCAK256 SWAP4 SWAP1 SWAP5 AND DUP3 MSTORE SWAP2 SWAP1 SWAP2 MSTORE KECCAK256 SLOAD PUSH1 0xFF AND SWAP1 JUMP JUMPDEST PUSH1 0x1 PUSH1 0x1 PUSH1 0xA0 SHL SUB DUP5 AND PUSH2 0x120E JUMPI PUSH1 0x40 MLOAD PUSH3 0x461BCD PUSH1 0xE5 SHL DUP2 MSTORE PUSH1 0x4 ADD PUSH2 0x883 SWAP1 PUSH2 0x3676 JUMP JUMPDEST PUSH1 0x1 PUSH1 0x1 PUSH1 0xA0 SHL SUB DUP6 AND CALLER EQ DUP1 PUSH2 0x122A JUMPI POP PUSH2 0x122A DUP6 CALLER PUSH2 0x11BA JUMP JUMPDEST PUSH2 0x1246 JUMPI PUSH1 0x40 MLOAD PUSH3 0x461BCD PUSH1 0xE5 SHL DUP2 MSTORE PUSH1 0x4 ADD PUSH2 0x883 SWAP1 PUSH2 0x36BB JUMP JUMPDEST PUSH1 0x0 DUP4 DUP2 MSTORE PUSH1 0xB PUSH1 0x20 SWAP1 DUP2 MSTORE PUSH1 0x40 DUP1 DUP4 KECCAK256 PUSH1 0x1 PUSH1 0x1 PUSH1 0xA0 SHL SUB DUP10 AND DUP5 MSTORE SWAP1 SWAP2 MSTORE SWAP1 KECCAK256 SLOAD DUP3 DUP2 LT ISZERO PUSH2 0x1289 JUMPI PUSH1 0x40 MLOAD PUSH3 0x461BCD PUSH1 0xE5 SHL DUP2 MSTORE PUSH1 0x4 ADD PUSH2 0x883 SWAP1 PUSH2 0x371F JUMP JUMPDEST PUSH2 0x1293 DUP4 DUP3 PUSH2 0x3769 JUMP JUMPDEST PUSH1 0x0 DUP6 DUP2 MSTORE PUSH1 0xB PUSH1 0x20 SWAP1 DUP2 MSTORE PUSH1 0x40 DUP1 DUP4 KECCAK256 PUSH1 0x1 PUSH1 0x1 PUSH1 0xA0 SHL SUB DUP12 DUP2 AND DUP6 MSTORE SWAP3 MSTORE DUP1 DUP4 KECCAK256 SWAP4 SWAP1 SWAP4 SSTORE DUP8 AND DUP2 MSTORE SWAP1 DUP2 KECCAK256 DUP1 SLOAD DUP6 SWAP3 SWAP1 PUSH2 0x12D1 SWAP1 DUP5 SWAP1 PUSH2 0x377C JUMP JUMPDEST SWAP1 SWAP2 SSTORE POP PUSH2 0x12E1 SWAP1 POP DUP5 DUP7 PUSH2 0x1A24 JUMP JUMPDEST PUSH1 0x40 DUP1 MLOAD DUP6 DUP2 MSTORE PUSH1 0x20 DUP2 ADD DUP6 SWAP1 MSTORE PUSH1 0x1 PUSH1 0x1 PUSH1 0xA0 SHL SUB DUP1 DUP9 AND SWAP3 SWAP1 DUP10 AND SWAP2 CALLER SWAP2 PUSH32 0xC3D58168C5AE7397731D063D5BBF3D657854427343F4C083240F7AACAA2D0F62 SWAP2 ADD PUSH1 0x40 MLOAD DUP1 SWAP2 SUB SWAP1 LOG4 PUSH2 0x133A CALLER DUP8 DUP8 DUP8 DUP8 DUP8 PUSH2 0x20F0 JUMP JUMPDEST POP POP POP POP POP POP JUMP JUMPDEST PUSH2 0x134A PUSH2 0x140F JUMP JUMPDEST PUSH2 0x1353 CALLER PUSH2 0x1430 JUMP JUMPDEST PUSH2 0x1360 DUP5 DUP5 CALLER DUP6 DUP6 PUSH2 0x21AB JUMP JUMPDEST PUSH2 0x1368 PUSH2 0x1080 JUMP JUMPDEST POP POP POP POP JUMP JUMPDEST PUSH1 0x0 PUSH1 0x1 PUSH1 0x1 PUSH1 0xE0 SHL SUB NOT DUP3 AND PUSH4 0x1FFC9A7 PUSH1 0xE0 SHL EQ DUP1 PUSH2 0x139F JUMPI POP PUSH1 0x1 PUSH1 0x1 PUSH1 0xE0 SHL SUB NOT DUP3 AND PUSH4 0xA85BD01 PUSH1 0xE1 SHL EQ JUMPDEST DUP1 PUSH2 0x13B9 JUMPI POP PUSH1 0x1 PUSH1 0x1 PUSH1 0xE0 SHL SUB NOT DUP3 AND PUSH3 0x23DE29 PUSH1 0xE0 SHL EQ JUMPDEST DUP1 PUSH2 0x13D4 JUMPI POP PUSH1 0x1 PUSH1 0x1 PUSH1 0xE0 SHL SUB NOT DUP3 AND PUSH4 0x3AD5CBC1 PUSH1 0xE1 SHL EQ JUMPDEST DUP1 PUSH2 0x13EF JUMPI POP PUSH1 0x1 PUSH1 0x1 PUSH1 0xE0 SHL SUB NOT DUP3 AND PUSH4 0x2711897 PUSH1 0xE5 SHL EQ JUMPDEST DUP1 PUSH2 0x8B1 JUMPI POP PUSH1 0x1 PUSH1 0x1 PUSH1 0xE0 SHL SUB NOT DUP3 AND PUSH4 0x124E59FD PUSH1 0xE1 SHL EQ SWAP3 SWAP2 POP POP JUMP JUMPDEST PUSH1 0x1 SLOAD PUSH1 0x1 PUSH1 0xA0 SHL SWAP1 DIV PUSH1 0xFF AND ISZERO PUSH2 0x1426 JUMPI PUSH2 0x1426 INVALID JUMPDEST PUSH2 0xD68 PUSH1 0x1 PUSH2 0x1E21 JUMP JUMPDEST PUSH2 0x1439 DUP2 PUSH2 0x1C7E JUMP JUMPDEST PUSH2 0x94F JUMPI DUP1 PUSH2 0x1450 PUSH1 0x0 SLOAD PUSH1 0x1 PUSH1 0x1 PUSH1 0xA0 SHL SUB AND SWAP1 JUMP JUMPDEST PUSH1 0x40 MLOAD PUSH4 0xDAA8083 PUSH1 0xE0 SHL DUP2 MSTORE PUSH1 0x1 PUSH1 0x1 PUSH1 0xA0 SHL SUB SWAP3 DUP4 AND PUSH1 0x4 DUP3 ADD MSTORE SWAP2 AND PUSH1 0x24 DUP3 ADD MSTORE PUSH1 0x44 ADD PUSH2 0x883 JUMP JUMPDEST PUSH1 0x60 PUSH2 0x1487 DUP3 PUSH2 0x1FBA JUMP JUMPDEST PUSH1 0x40 MLOAD PUSH1 0x20 ADD PUSH2 0x1497 SWAP2 SWAP1 PUSH2 0x399B JUMP JUMPDEST PUSH1 0x40 MLOAD PUSH1 0x20 DUP2 DUP4 SUB SUB DUP2 MSTORE SWAP1 PUSH1 0x40 MSTORE SWAP1 POP SWAP2 SWAP1 POP JUMP JUMPDEST PUSH1 0x60 DUP2 PUSH1 0x0 SUB PUSH2 0x14E5 JUMPI POP POP PUSH1 0x40 DUP1 MLOAD DUP1 DUP3 ADD SWAP1 SWAP2 MSTORE PUSH1 0x12 DUP2 MSTORE PUSH18 0x2A34329031BAB93932B73A1034B6B0B3B297 PUSH1 0x71 SHL PUSH1 0x20 DUP3 ADD MSTORE SWAP1 JUMP JUMPDEST PUSH1 0x1 DUP3 LT ISZERO DUP1 ISZERO PUSH2 0x14F8 JUMPI POP PUSH2 0x190 DUP3 GT ISZERO JUMPDEST ISZERO PUSH2 0x15A1 JUMPI PUSH1 0x0 DUP3 DUP2 MSTORE PUSH1 0x8 PUSH1 0x20 SWAP1 DUP2 MSTORE PUSH1 0x40 DUP1 DUP4 KECCAK256 DUP2 MLOAD PUSH1 0xA0 DUP2 ADD DUP4 MSTORE DUP2 SLOAD DUP1 DUP3 MSTORE PUSH1 0x1 DUP4 ADD SLOAD SWAP5 DUP3 ADD SWAP5 SWAP1 SWAP5 MSTORE PUSH1 0x2 SWAP1 SWAP2 ADD SLOAD PUSH1 0xFF DUP1 DUP3 AND SWAP4 DUP4 ADD SWAP4 SWAP1 SWAP4 MSTORE PUSH2 0x100 DUP2 DIV DUP4 AND PUSH1 0x60 DUP4 ADD MSTORE PUSH3 0x10000 SWAP1 DIV SWAP1 SWAP2 AND PUSH1 0x80 DUP3 ADD MSTORE SWAP2 SWAP1 PUSH2 0x155E SWAP1 PUSH2 0x2335 JUMP JUMPDEST SWAP1 POP PUSH1 0x0 PUSH2 0x156F DUP4 PUSH1 0x20 ADD MLOAD PUSH2 0x2335 JUMP JUMPDEST SWAP1 POP PUSH1 0x0 PUSH2 0x158A DUP5 PUSH1 0x40 ADD MLOAD DUP6 PUSH1 0x60 ADD MLOAD DUP7 PUSH1 0x80 ADD MLOAD PUSH2 0x25B1 JUMP JUMPDEST SWAP1 POP DUP3 DUP3 DUP3 PUSH1 0x40 MLOAD PUSH1 0x20 ADD PUSH2 0x9DB SWAP4 SWAP3 SWAP2 SWAP1 PUSH2 0x39D7 JUMP JUMPDEST POP POP PUSH1 0x40 DUP1 MLOAD DUP1 DUP3 ADD SWAP1 SWAP2 MSTORE PUSH1 0xA DUP2 MSTORE PUSH10 0x28556E6D696E74656429 PUSH1 0xB0 SHL PUSH1 0x20 DUP3 ADD MSTORE SWAP1 JUMP JUMPDEST SWAP2 SWAP1 POP JUMP JUMPDEST PUSH1 0x60 PUSH2 0x190 DUP3 GT ISZERO PUSH2 0x15EC JUMPI POP POP PUSH1 0x40 DUP1 MLOAD PUSH1 0x20 DUP2 ADD SWAP1 SWAP2 MSTORE PUSH1 0x0 DUP2 MSTORE SWAP1 JUMP JUMPDEST PUSH1 0x0 DUP3 DUP2 MSTORE PUSH1 0x8 PUSH1 0x20 SWAP1 DUP2 MSTORE PUSH1 0x40 DUP1 DUP4 KECCAK256 DUP2 MLOAD PUSH1 0xA0 DUP2 ADD DUP4 MSTORE DUP2 SLOAD DUP2 MSTORE PUSH1 0x1 DUP3 ADD SLOAD DUP2 DUP6 ADD MSTORE PUSH1 0x2 SWAP1 SWAP2 ADD SLOAD PUSH1 0xFF DUP1 DUP3 AND DUP4 DUP6 ADD MSTORE PUSH2 0x100 DUP3 DIV DUP2 AND PUSH1 0x60 DUP5 ADD MSTORE PUSH3 0x10000 SWAP1 SWAP2 DIV AND PUSH1 0x80 DUP3 ADD MSTORE DUP2 MLOAD PUSH2 0x270F DUP1 DUP3 MSTORE PUSH3 0x4E200 DUP3 ADD SWAP1 SWAP4 MSTORE SWAP1 SWAP4 PUSH1 0x14 SWAP4 DUP5 SWAP4 SWAP2 SWAP3 DUP4 SWAP3 SWAP1 SWAP2 DUP3 ADD PUSH3 0x4E1E0 DUP1 CALLDATASIZE DUP4 CALLDATACOPY ADD SWAP1 POP POP SWAP1 POP PUSH1 0x11 PUSH1 0xF8 SHL DUP2 DUP4 PUSH2 0x1678 DUP2 PUSH2 0x378F JUMP JUMPDEST SWAP5 POP DUP2 MLOAD DUP2 LT PUSH2 0x168A JUMPI PUSH2 0x168A PUSH2 0x3709 JUMP JUMPDEST PUSH1 0x1 PUSH1 0x1 PUSH1 0xC0 SHL SUB NOT SWAP1 SWAP3 AND PUSH1 0x20 SWAP3 DUP4 MUL SWAP2 SWAP1 SWAP2 ADD SWAP1 SWAP2 ADD MSTORE PUSH1 0x11 PUSH1 0xF8 SHL DUP2 DUP4 PUSH2 0x16B3 DUP2 PUSH2 0x378F JUMP JUMPDEST SWAP5 POP DUP2 MLOAD DUP2 LT PUSH2 0x16C5 JUMPI PUSH2 0x16C5 PUSH2 0x3709 JUMP JUMPDEST PUSH1 0x1 PUSH1 0x1 PUSH1 0xC0 SHL SUB NOT SWAP1 SWAP3 AND PUSH1 0x20 SWAP3 DUP4 MUL SWAP2 SWAP1 SWAP2 ADD DUP3 ADD MSTORE PUSH1 0x40 MLOAD PUSH2 0x16F0 SWAP2 PUSH2 0x9B7 SWAP2 DUP5 SWAP2 ADD PUSH2 0x3A56 JUMP JUMPDEST PUSH1 0x40 MLOAD PUSH1 0x20 ADD PUSH2 0x1700 SWAP2 SWAP1 PUSH2 0x3A96 JUMP JUMPDEST PUSH1 0x40 MLOAD PUSH1 0x20 DUP2 DUP4 SUB SUB DUP2 MSTORE SWAP1 PUSH1 0x40 MSTORE SWAP6 POP POP POP POP POP POP SWAP2 SWAP1 POP JUMP JUMPDEST PUSH1 0x60 DUP2 MLOAD PUSH1 0x0 SUB PUSH2 0x173A JUMPI POP POP PUSH1 0x40 DUP1 MLOAD PUSH1 0x20 DUP2 ADD SWAP1 SWAP2 MSTORE PUSH1 0x0 DUP2 MSTORE SWAP1 JUMP JUMPDEST PUSH1 0x0 PUSH1 0x40 MLOAD DUP1 PUSH1 0x60 ADD PUSH1 0x40 MSTORE DUP1 PUSH1 0x40 DUP2 MSTORE PUSH1 0x20 ADD PUSH2 0x3F92 PUSH1 0x40 SWAP2 CODECOPY SWAP1 POP PUSH1 0x0 PUSH1 0x3 DUP5 MLOAD PUSH1 0x2 PUSH2 0x1769 SWAP2 SWAP1 PUSH2 0x377C JUMP JUMPDEST PUSH2 0x1773 SWAP2 SWAP1 PUSH2 0x3662 JUMP JUMPDEST PUSH2 0x177E SWAP1 PUSH1 0x4 PUSH2 0x3635 JUMP JUMPDEST PUSH1 0x1 PUSH1 0x1 PUSH1 0x40 SHL SUB DUP2 GT ISZERO PUSH2 0x1795 JUMPI PUSH2 0x1795 PUSH2 0x2F82 JUMP JUMPDEST PUSH1 0x40 MLOAD SWAP1 DUP1 DUP3 MSTORE DUP1 PUSH1 0x1F ADD PUSH1 0x1F NOT AND PUSH1 0x20 ADD DUP3 ADD PUSH1 0x40 MSTORE DUP1 ISZERO PUSH2 0x17BF JUMPI PUSH1 0x20 DUP3 ADD DUP2 DUP1 CALLDATASIZE DUP4 CALLDATACOPY ADD SWAP1 POP JUMPDEST POP SWAP1 POP PUSH1 0x1 DUP3 ADD PUSH1 0x20 DUP3 ADD DUP6 DUP7 MLOAD DUP8 ADD JUMPDEST DUP1 DUP3 LT ISZERO PUSH2 0x182B JUMPI PUSH1 0x3 DUP3 ADD SWAP2 POP DUP2 MLOAD PUSH1 0x3F DUP2 PUSH1 0x12 SHR AND DUP6 ADD MLOAD DUP5 MSTORE8 PUSH1 0x1 DUP5 ADD SWAP4 POP PUSH1 0x3F DUP2 PUSH1 0xC SHR AND DUP6 ADD MLOAD DUP5 MSTORE8 PUSH1 0x1 DUP5 ADD SWAP4 POP PUSH1 0x3F DUP2 PUSH1 0x6 SHR AND DUP6 ADD MLOAD DUP5 MSTORE8 PUSH1 0x1 DUP5 ADD SWAP4 POP PUSH1 0x3F DUP2 AND DUP6 ADD MLOAD DUP5 MSTORE8 POP PUSH1 0x1 DUP4 ADD SWAP3 POP PUSH2 0x17D0 JUMP JUMPDEST POP POP PUSH1 0x3 DUP7 MLOAD MOD PUSH1 0x1 DUP2 EQ PUSH2 0x1847 JUMPI PUSH1 0x2 DUP2 EQ PUSH2 0x185A JUMPI PUSH2 0x1862 JUMP JUMPDEST PUSH1 0x3D PUSH1 0x1 DUP4 SUB MSTORE8 PUSH1 0x3D PUSH1 0x2 DUP4 SUB MSTORE8 PUSH2 0x1862 JUMP JUMPDEST PUSH1 0x3D PUSH1 0x1 DUP4 SUB MSTORE8 JUMPDEST POP SWAP2 SWAP6 SWAP5 POP POP POP POP POP JUMP JUMPDEST PUSH1 0x6 PUSH2 0xAFF DUP3 DUP3 PUSH2 0x3B1A JUMP JUMPDEST DUP3 PUSH1 0x1 PUSH1 0x1 PUSH1 0xA0 SHL SUB AND EXTCODESIZE PUSH1 0x0 SUB PUSH2 0x18D3 JUMPI PUSH1 0x40 MLOAD PUSH3 0x461BCD PUSH1 0xE5 SHL DUP2 MSTORE PUSH1 0x20 PUSH1 0x4 DUP3 ADD MSTORE PUSH1 0x17 PUSH1 0x24 DUP3 ADD MSTORE PUSH32 0x4552433230546F6B656E436F6E74726163744572726F72000000000000000000 PUSH1 0x44 DUP3 ADD MSTORE PUSH1 0x64 ADD PUSH2 0x883 JUMP JUMPDEST PUSH1 0x40 DUP1 MLOAD PUSH1 0x1 PUSH1 0x1 PUSH1 0xA0 SHL SUB DUP5 DUP2 AND PUSH1 0x24 DUP4 ADD MSTORE PUSH1 0x44 DUP1 DUP4 ADD DUP6 SWAP1 MSTORE DUP4 MLOAD DUP1 DUP5 SUB SWAP1 SWAP2 ADD DUP2 MSTORE PUSH1 0x64 SWAP1 SWAP3 ADD DUP4 MSTORE PUSH1 0x20 DUP3 ADD DUP1 MLOAD PUSH1 0x1 PUSH1 0x1 PUSH1 0xE0 SHL SUB AND PUSH4 0xA9059CBB PUSH1 0xE0 SHL OR SWAP1 MSTORE SWAP2 MLOAD SWAP1 SWAP2 PUSH1 0x0 SWAP2 DUP3 SWAP2 DUP8 AND SWAP1 PUSH2 0x1931 SWAP1 DUP6 SWAP1 PUSH2 0x35BE JUMP JUMPDEST PUSH1 0x0 PUSH1 0x40 MLOAD DUP1 DUP4 SUB DUP2 PUSH1 0x0 DUP7 GAS CALL SWAP2 POP POP RETURNDATASIZE DUP1 PUSH1 0x0 DUP2 EQ PUSH2 0x196E JUMPI PUSH1 0x40 MLOAD SWAP2 POP PUSH1 0x1F NOT PUSH1 0x3F RETURNDATASIZE ADD AND DUP3 ADD PUSH1 0x40 MSTORE RETURNDATASIZE DUP3 MSTORE RETURNDATASIZE PUSH1 0x0 PUSH1 0x20 DUP5 ADD RETURNDATACOPY PUSH2 0x1973 JUMP JUMPDEST PUSH1 0x60 SWAP2 POP JUMPDEST POP SWAP2 POP SWAP2 POP DUP2 ISZERO DUP1 PUSH2 0x19A1 JUMPI POP DUP1 MLOAD ISZERO DUP1 ISZERO SWAP1 PUSH2 0x19A1 JUMPI POP DUP1 DUP1 PUSH1 0x20 ADD SWAP1 MLOAD DUP2 ADD SWAP1 PUSH2 0x199F SWAP2 SWAP1 PUSH2 0x3BD9 JUMP JUMPDEST ISZERO JUMPDEST ISZERO PUSH2 0x133A JUMPI PUSH1 0x40 MLOAD PUSH3 0x461BCD PUSH1 0xE5 SHL DUP2 MSTORE PUSH1 0x20 PUSH1 0x4 DUP3 ADD MSTORE PUSH1 0x17 PUSH1 0x24 DUP3 ADD MSTORE PUSH32 0x4552433230546F6B656E5472616E736665724572726F72000000000000000000 PUSH1 0x44 DUP3 ADD MSTORE PUSH1 0x64 ADD PUSH2 0x883 JUMP JUMPDEST PUSH1 0x40 MLOAD PUSH1 0x1 PUSH1 0x1 PUSH1 0xA0 SHL SUB DUP4 AND SWAP1 DUP3 ISZERO PUSH2 0x8FC MUL SWAP1 DUP4 SWAP1 PUSH1 0x0 DUP2 DUP2 DUP2 DUP6 DUP9 DUP9 CALL SWAP4 POP POP POP POP ISZERO DUP1 ISZERO PUSH2 0x1072 JUMPI RETURNDATASIZE PUSH1 0x0 DUP1 RETURNDATACOPY RETURNDATASIZE PUSH1 0x0 REVERT JUMPDEST PUSH1 0x0 SWAP2 DUP3 MSTORE PUSH1 0x9 PUSH1 0x20 MSTORE PUSH1 0x40 SWAP1 SWAP2 KECCAK256 DUP1 SLOAD PUSH1 0x1 PUSH1 0x1 PUSH1 0xA0 SHL SUB NOT AND PUSH1 0x1 PUSH1 0x1 PUSH1 0xA0 SHL SUB SWAP1 SWAP3 AND SWAP2 SWAP1 SWAP2 OR SWAP1 SSTORE JUMP JUMPDEST PUSH1 0x1 PUSH1 0x1 PUSH1 0xA0 SHL SUB DUP5 AND EXTCODESIZE ISZERO PUSH2 0x133A JUMPI PUSH1 0x40 MLOAD PUSH4 0xBC197C81 PUSH1 0xE0 SHL DUP2 MSTORE PUSH1 0x1 PUSH1 0x1 PUSH1 0xA0 SHL SUB DUP6 AND SWAP1 PUSH4 0xBC197C81 SWAP1 PUSH2 0x1A96 SWAP1 DUP10 SWAP1 DUP10 SWAP1 DUP9 SWAP1 DUP9 SWAP1 DUP9 SWAP1 PUSH1 0x4 ADD PUSH2 0x3BF6 JUMP JUMPDEST PUSH1 0x20 PUSH1 0x40 MLOAD DUP1 DUP4 SUB DUP2 PUSH1 0x0 DUP8 GAS CALL SWAP3 POP POP POP DUP1 ISZERO PUSH2 0x1AD1 JUMPI POP PUSH1 0x40 DUP1 MLOAD PUSH1 0x1F RETURNDATASIZE SWAP1 DUP2 ADD PUSH1 0x1F NOT AND DUP3 ADD SWAP1 SWAP3 MSTORE PUSH2 0x1ACE SWAP2 DUP2 ADD SWAP1 PUSH2 0x3C54 JUMP JUMPDEST PUSH1 0x1 JUMPDEST PUSH2 0x1B7D JUMPI PUSH2 0x1ADD PUSH2 0x3C71 JUMP JUMPDEST DUP1 PUSH4 0x8C379A0 SUB PUSH2 0x1B16 JUMPI POP PUSH2 0x1AF1 PUSH2 0x3C8D JUMP JUMPDEST DUP1 PUSH2 0x1AFC JUMPI POP PUSH2 0x1B18 JUMP JUMPDEST DUP1 PUSH1 0x40 MLOAD PUSH3 0x461BCD PUSH1 0xE5 SHL DUP2 MSTORE PUSH1 0x4 ADD PUSH2 0x883 SWAP2 SWAP1 PUSH2 0x2F6F JUMP JUMPDEST POP JUMPDEST PUSH1 0x40 MLOAD PUSH3 0x461BCD PUSH1 0xE5 SHL DUP2 MSTORE PUSH1 0x20 PUSH1 0x4 DUP3 ADD MSTORE PUSH1 0x34 PUSH1 0x24 DUP3 ADD MSTORE PUSH32 0x455243313135353A207472616E7366657220746F206E6F6E2D45524331313535 PUSH1 0x44 DUP3 ADD MSTORE PUSH20 0x2932B1B2B4BB32B91034B6B83632B6B2B73A32B9 PUSH1 0x61 SHL PUSH1 0x64 DUP3 ADD MSTORE PUSH1 0x84 ADD PUSH2 0x883 JUMP JUMPDEST PUSH1 0x1 PUSH1 0x1 PUSH1 0xE0 SHL SUB NOT DUP2 AND PUSH4 0xBC197C81 PUSH1 0xE0 SHL EQ PUSH2 0x1BAD JUMPI PUSH1 0x40 MLOAD PUSH3 0x461BCD PUSH1 0xE5 SHL DUP2 MSTORE PUSH1 0x4 ADD PUSH2 0x883 SWAP1 PUSH2 0x3D16 JUMP JUMPDEST POP POP POP POP POP POP POP JUMP JUMPDEST PUSH2 0x1BBF DUP2 PUSH2 0x1C20 JUMP JUMPDEST PUSH2 0x94F JUMPI DUP1 PUSH2 0x1BD6 PUSH1 0x1 SLOAD PUSH1 0x1 PUSH1 0x1 PUSH1 0xA0 SHL SUB AND SWAP1 JUMP JUMPDEST PUSH1 0x40 MLOAD PUSH4 0x549FBFE3 PUSH1 0xE0 SHL DUP2 MSTORE PUSH1 0x1 PUSH1 0x1 PUSH1 0xA0 SHL SUB SWAP3 DUP4 AND PUSH1 0x4 DUP3 ADD MSTORE SWAP2 AND PUSH1 0x24 DUP3 ADD MSTORE PUSH1 0x44 ADD PUSH2 0x883 JUMP JUMPDEST PUSH2 0x94F DUP2 PUSH2 0x281D JUMP JUMPDEST PUSH1 0x60 PUSH2 0x8B1 DUP3 PUSH2 0x15CC JUMP JUMPDEST PUSH1 0x60 PUSH2 0xD7F PUSH2 0x112F JUMP JUMPDEST PUSH1 0x0 PUSH2 0x1C34 PUSH1 0x1 SLOAD PUSH1 0x1 PUSH1 0x1 PUSH1 0xA0 SHL SUB AND SWAP1 JUMP JUMPDEST PUSH1 0x1 PUSH1 0x1 PUSH1 0xA0 SHL SUB AND DUP3 PUSH1 0x1 PUSH1 0x1 PUSH1 0xA0 SHL SUB AND EQ SWAP1 POP SWAP2 SWAP1 POP JUMP JUMPDEST PUSH1 0x4 PUSH2 0xAFF DUP3 DUP3 PUSH2 0x3B1A JUMP JUMPDEST PUSH1 0x7 PUSH2 0xAFF DUP3 DUP3 PUSH2 0x3B1A JUMP JUMPDEST PUSH1 0x60 PUSH2 0x8B1 DUP3 PUSH2 0x147C JUMP JUMPDEST PUSH1 0x5 PUSH2 0xAFF DUP3 DUP3 PUSH2 0x3B1A JUMP JUMPDEST PUSH1 0x0 DUP1 SLOAD PUSH1 0x1 PUSH1 0x1 PUSH1 0xA0 SHL SUB AND PUSH2 0x1C34 JUMP JUMPDEST PUSH1 0x60 PUSH2 0x8B1 DUP3 PUSH2 0x14AD JUMP JUMPDEST DUP4 PUSH1 0x1 PUSH1 0x1 PUSH1 0xA0 SHL SUB AND EXTCODESIZE PUSH1 0x0 SUB PUSH2 0x1CF5 JUMPI PUSH1 0x40 MLOAD PUSH3 0x461BCD PUSH1 0xE5 SHL DUP2 MSTORE PUSH1 0x20 PUSH1 0x4 DUP3 ADD MSTORE PUSH1 0x18 PUSH1 0x24 DUP3 ADD MSTORE PUSH32 0x455243373737546F6B656E436F6E74726163744572726F720000000000000000 PUSH1 0x44 DUP3 ADD MSTORE PUSH1 0x64 ADD PUSH2 0x883 JUMP JUMPDEST PUSH1 0x0 PUSH4 0x9BD9BBC6 PUSH1 0xE0 SHL DUP5 DUP5 DUP5 PUSH1 0x40 MLOAD PUSH1 0x24 ADD PUSH2 0x1D14 SWAP4 SWAP3 SWAP2 SWAP1 PUSH2 0x3D5E JUMP JUMPDEST PUSH1 0x40 MLOAD PUSH1 0x20 DUP2 DUP4 SUB SUB DUP2 MSTORE SWAP1 PUSH1 0x40 MSTORE SWAP1 PUSH1 0x1 PUSH1 0x1 PUSH1 0xE0 SHL SUB NOT AND PUSH1 0x20 DUP3 ADD DUP1 MLOAD PUSH1 0x1 PUSH1 0x1 PUSH1 0xE0 SHL SUB DUP4 DUP2 DUP4 AND OR DUP4 MSTORE POP POP POP POP SWAP1 POP PUSH1 0x0 DUP1 DUP7 PUSH1 0x1 PUSH1 0x1 PUSH1 0xA0 SHL SUB AND DUP4 PUSH1 0x40 MLOAD PUSH2 0x1D64 SWAP2 SWAP1 PUSH2 0x35BE JUMP JUMPDEST PUSH1 0x0 PUSH1 0x40 MLOAD DUP1 DUP4 SUB DUP2 PUSH1 0x0 DUP7 GAS CALL SWAP2 POP POP RETURNDATASIZE DUP1 PUSH1 0x0 DUP2 EQ PUSH2 0x1DA1 JUMPI PUSH1 0x40 MLOAD SWAP2 POP PUSH1 0x1F NOT PUSH1 0x3F RETURNDATASIZE ADD AND DUP3 ADD PUSH1 0x40 MSTORE RETURNDATASIZE DUP3 MSTORE RETURNDATASIZE PUSH1 0x0 PUSH1 0x20 DUP5 ADD RETURNDATACOPY PUSH2 0x1DA6 JUMP JUMPDEST PUSH1 0x60 SWAP2 POP JUMPDEST POP SWAP2 POP SWAP2 POP DUP2 ISZERO DUP1 PUSH2 0x1DD4 JUMPI POP DUP1 MLOAD ISZERO DUP1 ISZERO SWAP1 PUSH2 0x1DD4 JUMPI POP DUP1 DUP1 PUSH1 0x20 ADD SWAP1 MLOAD DUP2 ADD SWAP1 PUSH2 0x1DD2 SWAP2 SWAP1 PUSH2 0x3BD9 JUMP JUMPDEST ISZERO JUMPDEST ISZERO PUSH2 0x1BAD JUMPI PUSH1 0x40 MLOAD PUSH3 0x461BCD PUSH1 0xE5 SHL DUP2 MSTORE PUSH1 0x20 PUSH1 0x4 DUP3 ADD MSTORE PUSH1 0x18 PUSH1 0x24 DUP3 ADD MSTORE PUSH32 0x455243373737546F6B656E5472616E736665724572726F720000000000000000 PUSH1 0x44 DUP3 ADD MSTORE PUSH1 0x64 ADD PUSH2 0x883 JUMP JUMPDEST PUSH1 0x1 DUP1 SLOAD SWAP2 ISZERO ISZERO PUSH1 0x1 PUSH1 0xA0 SHL MUL PUSH1 0xFF PUSH1 0xA0 SHL NOT SWAP1 SWAP3 AND SWAP2 SWAP1 SWAP2 OR SWAP1 SSTORE JUMP JUMPDEST DUP3 PUSH1 0x1 PUSH1 0x1 PUSH1 0xA0 SHL SUB AND EXTCODESIZE PUSH1 0x0 SUB PUSH2 0x1E99 JUMPI PUSH1 0x40 MLOAD PUSH3 0x461BCD PUSH1 0xE5 SHL DUP2 MSTORE PUSH1 0x20 PUSH1 0x4 DUP3 ADD MSTORE PUSH1 0x18 PUSH1 0x24 DUP3 ADD MSTORE PUSH32 0x455243373231546F6B656E436F6E74726163744572726F720000000000000000 PUSH1 0x44 DUP3 ADD MSTORE PUSH1 0x64 ADD PUSH2 0x883 JUMP JUMPDEST PUSH1 0x40 DUP1 MLOAD ADDRESS PUSH1 0x24 DUP3 ADD MSTORE PUSH1 0x1 PUSH1 0x1 PUSH1 0xA0 SHL SUB DUP4 DUP2 AND PUSH1 0x44 DUP4 ADD MSTORE PUSH1 0x64 DUP1 DUP4 ADD DUP7 SWAP1 MSTORE DUP4 MLOAD DUP1 DUP5 SUB SWAP1 SWAP2 ADD DUP2 MSTORE PUSH1 0x84 SWAP1 SWAP3 ADD DUP4 MSTORE PUSH1 0x20 DUP3 ADD DUP1 MLOAD PUSH1 0x1 PUSH1 0x1 PUSH1 0xE0 SHL SUB AND PUSH4 0x23B872DD PUSH1 0xE0 SHL OR SWAP1 MSTORE SWAP2 MLOAD SWAP1 SWAP2 PUSH1 0x0 SWAP2 DUP3 SWAP2 DUP8 AND SWAP1 PUSH2 0x1EFD SWAP1 DUP6 SWAP1 PUSH2 0x35BE JUMP JUMPDEST PUSH1 0x0 PUSH1 0x40 MLOAD DUP1 DUP4 SUB DUP2 PUSH1 0x0 DUP7 GAS CALL SWAP2 POP POP RETURNDATASIZE DUP1 PUSH1 0x0 DUP2 EQ PUSH2 0x1F3A JUMPI PUSH1 0x40 MLOAD SWAP2 POP PUSH1 0x1F NOT PUSH1 0x3F RETURNDATASIZE ADD AND DUP3 ADD PUSH1 0x40 MSTORE RETURNDATASIZE DUP3 MSTORE RETURNDATASIZE PUSH1 0x0 PUSH1 0x20 DUP5 ADD RETURNDATACOPY PUSH2 0x1F3F JUMP JUMPDEST PUSH1 0x60 SWAP2 POP JUMPDEST POP SWAP2 POP SWAP2 POP DUP2 ISZERO DUP1 PUSH2 0x1F6D JUMPI POP DUP1 MLOAD ISZERO DUP1 ISZERO SWAP1 PUSH2 0x1F6D JUMPI POP DUP1 DUP1 PUSH1 0x20 ADD SWAP1 MLOAD DUP2 ADD SWAP1 PUSH2 0x1F6B SWAP2 SWAP1 PUSH2 0x3BD9 JUMP JUMPDEST ISZERO JUMPDEST ISZERO PUSH2 0x133A JUMPI PUSH1 0x40 MLOAD PUSH3 0x461BCD PUSH1 0xE5 SHL DUP2 MSTORE PUSH1 0x20 PUSH1 0x4 DUP3 ADD MSTORE PUSH1 0x18 PUSH1 0x24 DUP3 ADD MSTORE PUSH32 0x455243373231546F6B656E5472616E736665724572726F720000000000000000 PUSH1 0x44 DUP3 ADD MSTORE PUSH1 0x64 ADD PUSH2 0x883 JUMP JUMPDEST PUSH1 0x60 DUP2 PUSH1 0x0 SUB PUSH2 0x1FE1 JUMPI POP POP PUSH1 0x40 DUP1 MLOAD DUP1 DUP3 ADD SWAP1 SWAP2 MSTORE PUSH1 0x1 DUP2 MSTORE PUSH1 0x3 PUSH1 0xFC SHL PUSH1 0x20 DUP3 ADD MSTORE SWAP1 JUMP JUMPDEST DUP2 PUSH1 0x0 JUMPDEST DUP2 ISZERO PUSH2 0x200B JUMPI DUP1 PUSH2 0x1FF5 DUP2 PUSH2 0x378F JUMP JUMPDEST SWAP2 POP PUSH2 0x2004 SWAP1 POP PUSH1 0xA DUP4 PUSH2 0x3662 JUMP JUMPDEST SWAP2 POP PUSH2 0x1FE5 JUMP JUMPDEST PUSH1 0x0 DUP2 PUSH1 0x1 PUSH1 0x1 PUSH1 0x40 SHL SUB DUP2 GT ISZERO PUSH2 0x2025 JUMPI PUSH2 0x2025 PUSH2 0x2F82 JUMP JUMPDEST PUSH1 0x40 MLOAD SWAP1 DUP1 DUP3 MSTORE DUP1 PUSH1 0x1F ADD PUSH1 0x1F NOT AND PUSH1 0x20 ADD DUP3 ADD PUSH1 0x40 MSTORE DUP1 ISZERO PUSH2 0x204F JUMPI PUSH1 0x20 DUP3 ADD DUP2 DUP1 CALLDATASIZE DUP4 CALLDATACOPY ADD SWAP1 POP JUMPDEST POP SWAP1 POP DUP2 JUMPDEST DUP6 ISZERO PUSH2 0x20DC JUMPI PUSH2 0x2065 PUSH1 0x1 DUP3 PUSH2 0x3769 JUMP JUMPDEST SWAP1 POP PUSH1 0x0 PUSH2 0x2074 PUSH1 0xA DUP9 PUSH2 0x3662 JUMP JUMPDEST PUSH2 0x207F SWAP1 PUSH1 0xA PUSH2 0x3635 JUMP JUMPDEST PUSH2 0x2089 SWAP1 DUP9 PUSH2 0x3769 JUMP JUMPDEST PUSH2 0x2094 SWAP1 PUSH1 0x30 PUSH2 0x3D85 JUMP JUMPDEST SWAP1 POP PUSH1 0x0 DUP2 PUSH1 0xF8 SHL SWAP1 POP DUP1 DUP5 DUP5 DUP2 MLOAD DUP2 LT PUSH2 0x20B1 JUMPI PUSH2 0x20B1 PUSH2 0x3709 JUMP JUMPDEST PUSH1 0x20 ADD ADD SWAP1 PUSH1 0x1 PUSH1 0x1 PUSH1 0xF8 SHL SUB NOT AND SWAP1 DUP2 PUSH1 0x0 BYTE SWAP1 MSTORE8 POP PUSH2 0x20D3 PUSH1 0xA DUP10 PUSH2 0x3662 JUMP JUMPDEST SWAP8 POP POP POP PUSH2 0x2054 JUMP JUMPDEST POP SWAP5 SWAP4 POP POP POP POP JUMP JUMPDEST PUSH1 0x60 PUSH2 0x8B1 DUP3 PUSH2 0x288B JUMP JUMPDEST PUSH1 0x1 PUSH1 0x1 PUSH1 0xA0 SHL SUB DUP5 AND EXTCODESIZE ISZERO PUSH2 0x133A JUMPI PUSH1 0x40 MLOAD PUSH4 0xF23A6E61 PUSH1 0xE0 SHL DUP2 MSTORE PUSH1 0x1 PUSH1 0x1 PUSH1 0xA0 SHL SUB DUP6 AND SWAP1 PUSH4 0xF23A6E61 SWAP1 PUSH2 0x2134 SWAP1 DUP10 SWAP1 DUP10 SWAP1 DUP9 SWAP1 DUP9 SWAP1 DUP9 SWAP1 PUSH1 0x4 ADD PUSH2 0x3D9E JUMP JUMPDEST PUSH1 0x20 PUSH1 0x40 MLOAD DUP1 DUP4 SUB DUP2 PUSH1 0x0 DUP8 GAS CALL SWAP3 POP POP POP DUP1 ISZERO PUSH2 0x216F JUMPI POP PUSH1 0x40 DUP1 MLOAD PUSH1 0x1F RETURNDATASIZE SWAP1 DUP2 ADD PUSH1 0x1F NOT AND DUP3 ADD SWAP1 SWAP3 MSTORE PUSH2 0x216C SWAP2 DUP2 ADD SWAP1 PUSH2 0x3C54 JUMP JUMPDEST PUSH1 0x1 JUMPDEST PUSH2 0x217B JUMPI PUSH2 0x1ADD PUSH2 0x3C71 JUMP JUMPDEST PUSH1 0x1 PUSH1 0x1 PUSH1 0xE0 SHL SUB NOT DUP2 AND PUSH4 0xF23A6E61 PUSH1 0xE0 SHL EQ PUSH2 0x1BAD JUMPI PUSH1 0x40 MLOAD PUSH3 0x461BCD PUSH1 0xE5 SHL DUP2 MSTORE PUSH1 0x4 ADD PUSH2 0x883 SWAP1 PUSH2 0x3D16 JUMP JUMPDEST DUP5 PUSH1 0x1 PUSH1 0x1 PUSH1 0xA0 SHL SUB AND EXTCODESIZE PUSH1 0x0 SUB PUSH2 0x2205 JUMPI PUSH1 0x40 MLOAD PUSH3 0x461BCD PUSH1 0xE5 SHL DUP2 MSTORE PUSH1 0x20 PUSH1 0x4 DUP3 ADD MSTORE PUSH1 0x19 PUSH1 0x24 DUP3 ADD MSTORE PUSH32 0x45524331313535546F6B656E436F6E74726163744572726F7200000000000000 PUSH1 0x44 DUP3 ADD MSTORE PUSH1 0x64 ADD PUSH2 0x883 JUMP JUMPDEST PUSH1 0x0 PUSH4 0xF242432A PUSH1 0xE0 SHL ADDRESS DUP6 DUP8 DUP7 DUP7 PUSH1 0x40 MLOAD PUSH1 0x24 ADD PUSH2 0x2228 SWAP6 SWAP5 SWAP4 SWAP3 SWAP2 SWAP1 PUSH2 0x3D9E JUMP JUMPDEST PUSH1 0x40 MLOAD PUSH1 0x20 DUP2 DUP4 SUB SUB DUP2 MSTORE SWAP1 PUSH1 0x40 MSTORE SWAP1 PUSH1 0x1 PUSH1 0x1 PUSH1 0xE0 SHL SUB NOT AND PUSH1 0x20 DUP3 ADD DUP1 MLOAD PUSH1 0x1 PUSH1 0x1 PUSH1 0xE0 SHL SUB DUP4 DUP2 DUP4 AND OR DUP4 MSTORE POP POP POP POP SWAP1 POP PUSH1 0x0 DUP1 DUP8 PUSH1 0x1 PUSH1 0x1 PUSH1 0xA0 SHL SUB AND DUP4 PUSH1 0x40 MLOAD PUSH2 0x2278 SWAP2 SWAP1 PUSH2 0x35BE JUMP JUMPDEST PUSH1 0x0 PUSH1 0x40 MLOAD DUP1 DUP4 SUB DUP2 PUSH1 0x0 DUP7 GAS CALL SWAP2 POP POP RETURNDATASIZE DUP1 PUSH1 0x0 DUP2 EQ PUSH2 0x22B5 JUMPI PUSH1 0x40 MLOAD SWAP2 POP PUSH1 0x1F NOT PUSH1 0x3F RETURNDATASIZE ADD AND DUP3 ADD PUSH1 0x40 MSTORE RETURNDATASIZE DUP3 MSTORE RETURNDATASIZE PUSH1 0x0 PUSH1 0x20 DUP5 ADD RETURNDATACOPY PUSH2 0x22BA JUMP JUMPDEST PUSH1 0x60 SWAP2 POP JUMPDEST POP SWAP2 POP SWAP2 POP DUP2 ISZERO DUP1 PUSH2 0x22E8 JUMPI POP DUP1 MLOAD ISZERO DUP1 ISZERO SWAP1 PUSH2 0x22E8 JUMPI POP DUP1 DUP1 PUSH1 0x20 ADD SWAP1 MLOAD DUP2 ADD SWAP1 PUSH2 0x22E6 SWAP2 SWAP1 PUSH2 0x3BD9 JUMP JUMPDEST ISZERO JUMPDEST ISZERO PUSH2 0x292 JUMPI PUSH1 0x40 MLOAD PUSH3 0x461BCD PUSH1 0xE5 SHL DUP2 MSTORE PUSH1 0x20 PUSH1 0x4 DUP3 ADD MSTORE PUSH1 0x19 PUSH1 0x24 DUP3 ADD MSTORE PUSH32 0x45524331313535546F6B656E5472616E736665724572726F7200000000000000 PUSH1 0x44 DUP3 ADD MSTORE PUSH1 0x64 ADD PUSH2 0x883 JUMP JUMPDEST PUSH1 0x60 DUP1 PUSH1 0xA DUP4 LT ISZERO PUSH2 0x23B2 JUMPI PUSH1 0x40 DUP1 MLOAD PUSH1 0x1 DUP1 DUP3 MSTORE DUP2 DUP4 ADD SWAP1 SWAP3 MSTORE SWAP1 PUSH1 0x20 DUP3 ADD DUP2 DUP1 CALLDATASIZE DUP4 CALLDATACOPY ADD SWAP1 POP POP SWAP1 POP PUSH10 0x30313233343536373839 PUSH1 0xB0 SHL DUP4 PUSH1 0x10 DUP2 LT PUSH2 0x237F JUMPI PUSH2 0x237F PUSH2 0x3709 JUMP JUMPDEST BYTE PUSH1 0xF8 SHL DUP2 PUSH1 0x0 DUP2 MLOAD DUP2 LT PUSH2 0x2396 JUMPI PUSH2 0x2396 PUSH2 0x3709 JUMP JUMPDEST PUSH1 0x20 ADD ADD SWAP1 PUSH1 0x1 PUSH1 0x1 PUSH1 0xF8 SHL SUB NOT AND SWAP1 DUP2 PUSH1 0x0 BYTE SWAP1 MSTORE8 POP PUSH2 0x8B1 JUMP JUMPDEST PUSH1 0x64 DUP4 LT ISZERO PUSH2 0x2471 JUMPI PUSH1 0x40 DUP1 MLOAD PUSH1 0x2 DUP1 DUP3 MSTORE DUP2 DUP4 ADD SWAP1 SWAP3 MSTORE SWAP1 PUSH1 0x20 DUP3 ADD DUP2 DUP1 CALLDATASIZE DUP4 CALLDATACOPY ADD SWAP1 POP POP SWAP1 POP PUSH10 0x30313233343536373839 PUSH1 0xB0 SHL PUSH2 0x23F3 PUSH1 0xA DUP6 PUSH2 0x3662 JUMP JUMPDEST PUSH1 0x10 DUP2 LT PUSH2 0x2403 JUMPI PUSH2 0x2403 PUSH2 0x3709 JUMP JUMPDEST BYTE PUSH1 0xF8 SHL DUP2 PUSH1 0x0 DUP2 MLOAD DUP2 LT PUSH2 0x241A JUMPI PUSH2 0x241A PUSH2 0x3709 JUMP JUMPDEST PUSH1 0x20 ADD ADD SWAP1 PUSH1 0x1 PUSH1 0x1 PUSH1 0xF8 SHL SUB NOT AND SWAP1 DUP2 PUSH1 0x0 BYTE SWAP1 MSTORE8 POP PUSH10 0x30313233343536373839 PUSH1 0xB0 SHL PUSH2 0x244A PUSH1 0xA DUP6 PUSH2 0x3DE3 JUMP JUMPDEST PUSH1 0x10 DUP2 LT PUSH2 0x245A JUMPI PUSH2 0x245A PUSH2 0x3709 JUMP JUMPDEST BYTE PUSH1 0xF8 SHL DUP2 PUSH1 0x1 DUP2 MLOAD DUP2 LT PUSH2 0x2396 JUMPI PUSH2 0x2396 PUSH2 0x3709 JUMP JUMPDEST PUSH1 0x40 DUP1 MLOAD PUSH1 0x3 DUP1 DUP3 MSTORE DUP2 DUP4 ADD SWAP1 SWAP3 MSTORE SWAP1 PUSH1 0x20 DUP3 ADD DUP2 DUP1 CALLDATASIZE DUP4 CALLDATACOPY ADD SWAP1 POP POP SWAP1 POP PUSH10 0x30313233343536373839 PUSH1 0xB0 SHL PUSH1 0xA PUSH2 0x24AA DUP2 DUP7 PUSH2 0x3662 JUMP JUMPDEST PUSH2 0x24B4 SWAP2 SWAP1 PUSH2 0x3662 JUMP JUMPDEST PUSH1 0x10 DUP2 LT PUSH2 0x24C4 JUMPI PUSH2 0x24C4 PUSH2 0x3709 JUMP JUMPDEST BYTE PUSH1 0xF8 SHL DUP2 PUSH1 0x0 DUP2 MLOAD DUP2 LT PUSH2 0x24DB JUMPI PUSH2 0x24DB PUSH2 0x3709 JUMP JUMPDEST PUSH1 0x20 ADD ADD SWAP1 PUSH1 0x1 PUSH1 0x1 PUSH1 0xF8 SHL SUB NOT AND SWAP1 DUP2 PUSH1 0x0 BYTE SWAP1 MSTORE8 POP PUSH10 0x30313233343536373839 PUSH1 0xB0 SHL PUSH1 0xA PUSH2 0x250C DUP2 DUP7 PUSH2 0x3662 JUMP JUMPDEST PUSH2 0x2516 SWAP2 SWAP1 PUSH2 0x3DE3 JUMP JUMPDEST PUSH1 0x10 DUP2 LT PUSH2 0x2526 JUMPI PUSH2 0x2526 PUSH2 0x3709 JUMP JUMPDEST BYTE PUSH1 0xF8 SHL DUP2 PUSH1 0x1 DUP2 MLOAD DUP2 LT PUSH2 0x253D JUMPI PUSH2 0x253D PUSH2 0x3709 JUMP JUMPDEST PUSH1 0x20 ADD ADD SWAP1 PUSH1 0x1 PUSH1 0x1 PUSH1 0xF8 SHL SUB NOT AND SWAP1 DUP2 PUSH1 0x0 BYTE SWAP1 MSTORE8 POP PUSH10 0x30313233343536373839 PUSH1 0xB0 SHL PUSH2 0x256D PUSH1 0xA DUP6 PUSH2 0x3DE3 JUMP JUMPDEST PUSH1 0x10 DUP2 LT PUSH2 0x257D JUMPI PUSH2 0x257D PUSH2 0x3709 JUMP JUMPDEST BYTE PUSH1 0xF8 SHL DUP2 PUSH1 0x2 DUP2 MLOAD DUP2 LT PUSH2 0x2594 JUMPI PUSH2 0x2594 PUSH2 0x3709 JUMP JUMPDEST PUSH1 0x20 ADD ADD SWAP1 PUSH1 0x1 PUSH1 0x1 PUSH1 0xF8 SHL SUB NOT AND SWAP1 DUP2 PUSH1 0x0 BYTE SWAP1 MSTORE8 POP SWAP3 SWAP2 POP POP JUMP JUMPDEST PUSH1 0x40 DUP1 MLOAD PUSH1 0x7 DUP1 DUP3 MSTORE DUP2 DUP4 ADD SWAP1 SWAP3 MSTORE PUSH1 0x60 SWAP2 PUSH1 0x0 SWAP2 SWAP1 PUSH1 0x20 DUP3 ADD DUP2 DUP1 CALLDATASIZE DUP4 CALLDATACOPY ADD SWAP1 POP POP SWAP1 POP PUSH1 0x23 PUSH1 0xF8 SHL DUP2 PUSH1 0x0 DUP2 MLOAD DUP2 LT PUSH2 0x25EE JUMPI PUSH2 0x25EE PUSH2 0x3709 JUMP JUMPDEST PUSH1 0x20 ADD ADD SWAP1 PUSH1 0x1 PUSH1 0x1 PUSH1 0xF8 SHL SUB NOT AND SWAP1 DUP2 PUSH1 0x0 BYTE SWAP1 MSTORE8 POP PUSH16 0x181899199A1A9B1B9C1CA0A121A222A3 PUSH1 0x81 SHL PUSH1 0xF PUSH1 0x4 DUP8 SWAP1 SHR AND PUSH1 0x10 DUP2 LT PUSH2 0x2631 JUMPI PUSH2 0x2631 PUSH2 0x3709 JUMP JUMPDEST BYTE PUSH1 0xF8 SHL DUP2 PUSH1 0x1 DUP2 MLOAD DUP2 LT PUSH2 0x2648 JUMPI PUSH2 0x2648 PUSH2 0x3709 JUMP JUMPDEST PUSH1 0x20 ADD ADD SWAP1 PUSH1 0x1 PUSH1 0x1 PUSH1 0xF8 SHL SUB NOT AND SWAP1 DUP2 PUSH1 0x0 BYTE SWAP1 MSTORE8 POP PUSH16 0x181899199A1A9B1B9C1CA0A121A222A3 PUSH1 0x81 SHL PUSH1 0xF DUP7 AND PUSH1 0x10 DUP2 LT PUSH2 0x2687 JUMPI PUSH2 0x2687 PUSH2 0x3709 JUMP JUMPDEST BYTE PUSH1 0xF8 SHL DUP2 PUSH1 0x2 DUP2 MLOAD DUP2 LT PUSH2 0x269E JUMPI PUSH2 0x269E PUSH2 0x3709 JUMP JUMPDEST PUSH1 0x20 ADD ADD SWAP1 PUSH1 0x1 PUSH1 0x1 PUSH1 0xF8 SHL SUB NOT AND SWAP1 DUP2 PUSH1 0x0 BYTE SWAP1 MSTORE8 POP PUSH16 0x181899199A1A9B1B9C1CA0A121A222A3 PUSH1 0x81 SHL PUSH1 0xF PUSH1 0x4 DUP7 SWAP1 SHR AND PUSH1 0x10 DUP2 LT PUSH2 0x26E1 JUMPI PUSH2 0x26E1 PUSH2 0x3709 JUMP JUMPDEST BYTE PUSH1 0xF8 SHL DUP2 PUSH1 0x3 DUP2 MLOAD DUP2 LT PUSH2 0x26F8 JUMPI PUSH2 0x26F8 PUSH2 0x3709 JUMP JUMPDEST PUSH1 0x20 ADD ADD SWAP1 PUSH1 0x1 PUSH1 0x1 PUSH1 0xF8 SHL SUB NOT AND SWAP1 DUP2 PUSH1 0x0 BYTE SWAP1 MSTORE8 POP PUSH16 0x181899199A1A9B1B9C1CA0A121A222A3 PUSH1 0x81 SHL PUSH1 0xF DUP6 AND PUSH1 0x10 DUP2 LT PUSH2 0x2737 JUMPI PUSH2 0x2737 PUSH2 0x3709 JUMP JUMPDEST BYTE PUSH1 0xF8 SHL DUP2 PUSH1 0x4 DUP2 MLOAD DUP2 LT PUSH2 0x274E JUMPI PUSH2 0x274E PUSH2 0x3709 JUMP JUMPDEST PUSH1 0x20 ADD ADD SWAP1 PUSH1 0x1 PUSH1 0x1 PUSH1 0xF8 SHL SUB NOT AND SWAP1 DUP2 PUSH1 0x0 BYTE SWAP1 MSTORE8 POP PUSH16 0x181899199A1A9B1B9C1CA0A121A222A3 PUSH1 0x81 SHL PUSH1 0xF PUSH1 0x4 DUP6 SWAP1 SHR AND PUSH1 0x10 DUP2 LT PUSH2 0x2791 JUMPI PUSH2 0x2791 PUSH2 0x3709 JUMP JUMPDEST BYTE PUSH1 0xF8 SHL DUP2 PUSH1 0x5 DUP2 MLOAD DUP2 LT PUSH2 0x27A8 JUMPI PUSH2 0x27A8 PUSH2 0x3709 JUMP JUMPDEST PUSH1 0x20 ADD ADD SWAP1 PUSH1 0x1 PUSH1 0x1 PUSH1 0xF8 SHL SUB NOT AND SWAP1 DUP2 PUSH1 0x0 BYTE SWAP1 MSTORE8 POP PUSH16 0x181899199A1A9B1B9C1CA0A121A222A3 PUSH1 0x81 SHL PUSH1 0xF DUP5 AND PUSH1 0x10 DUP2 LT PUSH2 0x27E7 JUMPI PUSH2 0x27E7 PUSH2 0x3709 JUMP JUMPDEST BYTE PUSH1 0xF8 SHL DUP2 PUSH1 0x6 DUP2 MLOAD DUP2 LT PUSH2 0x27FE JUMPI PUSH2 0x27FE PUSH2 0x3709 JUMP JUMPDEST PUSH1 0x20 ADD ADD SWAP1 PUSH1 0x1 PUSH1 0x1 PUSH1 0xF8 SHL SUB NOT AND SWAP1 DUP2 PUSH1 0x0 BYTE SWAP1 MSTORE8 POP SWAP5 SWAP4 POP POP POP POP JUMP JUMPDEST PUSH1 0x0 SLOAD PUSH1 0x1 PUSH1 0x1 PUSH1 0xA0 SHL SUB DUP3 DUP2 AND SWAP2 AND EQ PUSH2 0x94F JUMPI PUSH1 0x0 DUP1 SLOAD PUSH1 0x40 MLOAD PUSH1 0x1 PUSH1 0x1 PUSH1 0xA0 SHL SUB DUP1 DUP6 AND SWAP4 SWAP3 AND SWAP2 PUSH32 0xB532073B38C83145E3E5135377A08BF9AAB55BC0FD7C1179CD4FB995D2A5159C SWAP2 LOG3 PUSH1 0x0 DUP1 SLOAD PUSH1 0x1 PUSH1 0x1 PUSH1 0xA0 SHL SUB DUP4 AND PUSH1 0x1 PUSH1 0x1 PUSH1 0xA0 SHL SUB NOT SWAP1 SWAP2 AND OR SWAP1 SSTORE POP JUMP JUMPDEST PUSH1 0x40 DUP1 MLOAD PUSH1 0x28 DUP1 DUP3 MSTORE PUSH1 0x60 DUP3 DUP2 ADD SWAP1 SWAP4 MSTORE PUSH2 0x8B1 SWAP2 DUP5 SWAP2 DUP5 SWAP2 DUP4 DUP4 SHL SWAP2 PUSH1 0x0 SWAP2 SWAP1 PUSH1 0x20 DUP3 ADD DUP2 DUP1 CALLDATASIZE DUP4 CALLDATACOPY ADD SWAP1 POP POP SWAP1 POP PUSH1 0x0 DUP1 PUSH1 0x0 DUP1 PUSH1 0x0 DUP1 PUSH1 0x0 PUSH2 0x28CF DUP12 PUSH2 0x2A69 JUMP JUMPDEST SWAP1 POP PUSH1 0x0 JUMPDEST PUSH1 0x14 DUP2 LT ISZERO PUSH2 0x2A38 JUMPI PUSH2 0x28E8 DUP2 PUSH1 0x13 PUSH2 0x3769 JUMP JUMPDEST PUSH2 0x28F3 SWAP1 PUSH1 0x8 PUSH2 0x3635 JUMP JUMPDEST PUSH2 0x28FE SWAP1 PUSH1 0x2 PUSH2 0x3EDB JUMP JUMPDEST PUSH2 0x290C SWAP1 PUSH1 0x60 DUP13 SWAP1 SHR PUSH2 0x3662 JUMP JUMPDEST SWAP8 POP PUSH2 0x2919 PUSH1 0x10 DUP10 PUSH2 0x3EE7 JUMP JUMPDEST SWAP7 POP PUSH2 0x2926 DUP8 PUSH1 0x10 PUSH2 0x3F09 JUMP JUMPDEST PUSH2 0x2930 SWAP1 DUP10 PUSH2 0x3F2C JUMP JUMPDEST SWAP6 POP DUP2 PUSH2 0x293E DUP3 PUSH1 0x2 PUSH2 0x3635 JUMP JUMPDEST PUSH1 0x28 DUP2 LT PUSH2 0x294E JUMPI PUSH2 0x294E PUSH2 0x3709 JUMP JUMPDEST PUSH1 0x20 MUL ADD MLOAD SWAP5 POP DUP2 PUSH2 0x2961 DUP3 PUSH1 0x2 PUSH2 0x3635 JUMP JUMPDEST PUSH2 0x296C SWAP1 PUSH1 0x1 PUSH2 0x377C JUMP JUMPDEST PUSH1 0x28 DUP2 LT PUSH2 0x297C JUMPI PUSH2 0x297C PUSH2 0x3709 JUMP JUMPDEST PUSH1 0x20 MUL ADD MLOAD SWAP4 POP PUSH2 0x298D DUP8 DUP7 PUSH2 0x2BFA JUMP JUMPDEST SWAP3 POP PUSH2 0x2999 DUP4 DUP9 PUSH2 0x3D85 JUMP JUMPDEST PUSH1 0xF8 SHL DUP10 PUSH2 0x29A8 DUP4 PUSH1 0x2 PUSH2 0x3635 JUMP JUMPDEST DUP2 MLOAD DUP2 LT PUSH2 0x29B8 JUMPI PUSH2 0x29B8 PUSH2 0x3709 JUMP JUMPDEST PUSH1 0x20 ADD ADD SWAP1 PUSH1 0x1 PUSH1 0x1 PUSH1 0xF8 SHL SUB NOT AND SWAP1 DUP2 PUSH1 0x0 BYTE SWAP1 MSTORE8 POP PUSH2 0x29D9 DUP7 DUP6 PUSH2 0x2BFA JUMP JUMPDEST SWAP3 POP PUSH2 0x29E5 DUP4 DUP8 PUSH2 0x3D85 JUMP JUMPDEST PUSH1 0xF8 SHL DUP10 PUSH2 0x29F4 DUP4 PUSH1 0x2 PUSH2 0x3635 JUMP JUMPDEST PUSH2 0x29FF SWAP1 PUSH1 0x1 PUSH2 0x377C JUMP JUMPDEST DUP2 MLOAD DUP2 LT PUSH2 0x2A0F JUMPI PUSH2 0x2A0F PUSH2 0x3709 JUMP JUMPDEST PUSH1 0x20 ADD ADD SWAP1 PUSH1 0x1 PUSH1 0x1 PUSH1 0xF8 SHL SUB NOT AND SWAP1 DUP2 PUSH1 0x0 BYTE SWAP1 MSTORE8 POP DUP1 PUSH2 0x2A30 DUP2 PUSH2 0x378F JUMP JUMPDEST SWAP2 POP POP PUSH2 0x28D4 JUMP JUMPDEST POP DUP8 PUSH1 0x40 MLOAD PUSH1 0x20 ADD PUSH2 0x2A4A SWAP2 SWAP1 PUSH2 0x3F45 JUMP JUMPDEST PUSH1 0x40 MLOAD PUSH1 0x20 DUP2 DUP4 SUB SUB DUP2 MSTORE SWAP1 PUSH1 0x40 MSTORE SWAP10 POP POP POP POP POP POP POP POP POP POP SWAP2 SWAP1 POP JUMP JUMPDEST PUSH2 0x2A71 PUSH2 0x2D81 JUMP JUMPDEST PUSH1 0x60 DUP3 SWAP1 SHL PUSH1 0x0 PUSH2 0x2A81 DUP3 PUSH2 0x2C27 JUMP JUMPDEST PUSH1 0x40 MLOAD PUSH1 0x20 ADD PUSH2 0x2A91 SWAP2 SWAP1 PUSH2 0x35BE JUMP JUMPDEST PUSH1 0x40 MLOAD PUSH1 0x20 DUP2 DUP4 SUB SUB DUP2 MSTORE SWAP1 PUSH1 0x40 MSTORE DUP1 MLOAD SWAP1 PUSH1 0x20 ADD KECCAK256 SWAP1 POP PUSH1 0x0 DUP1 PUSH1 0x0 DUP1 PUSH1 0x0 JUMPDEST PUSH1 0x14 DUP2 LT ISZERO PUSH2 0x2BEE JUMPI PUSH1 0x10 DUP8 DUP3 PUSH1 0x14 DUP2 LT PUSH2 0x2ACF JUMPI PUSH2 0x2ACF PUSH2 0x3709 JUMP JUMPDEST PUSH2 0x2ADB SWAP3 SWAP2 SWAP1 BYTE PUSH2 0x3F6F JUMP JUMPDEST SWAP4 POP PUSH1 0x10 DUP5 DUP9 DUP4 PUSH1 0x14 DUP2 LT PUSH2 0x2AF2 JUMPI PUSH2 0x2AF2 PUSH2 0x3709 JUMP JUMPDEST PUSH2 0x2AFE SWAP3 SWAP2 SWAP1 BYTE PUSH2 0x3F2C JUMP JUMPDEST PUSH2 0x2B08 SWAP2 SWAP1 PUSH2 0x3EE7 JUMP JUMPDEST SWAP5 POP PUSH1 0x10 DUP7 DUP3 PUSH1 0x20 DUP2 LT PUSH2 0x2B1E JUMPI PUSH2 0x2B1E PUSH2 0x3709 JUMP JUMPDEST PUSH2 0x2B2A SWAP3 SWAP2 SWAP1 BYTE PUSH2 0x3F6F JUMP JUMPDEST SWAP2 POP PUSH1 0x10 DUP3 DUP8 DUP4 PUSH1 0x20 DUP2 LT PUSH2 0x2B41 JUMPI PUSH2 0x2B41 PUSH2 0x3709 JUMP JUMPDEST PUSH2 0x2B4D SWAP3 SWAP2 SWAP1 BYTE PUSH2 0x3F2C JUMP JUMPDEST PUSH2 0x2B57 SWAP2 SWAP1 PUSH2 0x3EE7 JUMP JUMPDEST SWAP3 POP PUSH1 0x9 DUP6 PUSH1 0xFF AND GT DUP1 ISZERO PUSH2 0x2B6F JUMPI POP PUSH1 0x7 DUP4 PUSH1 0xFF AND GT JUMPDEST DUP9 PUSH2 0x2B7B DUP4 PUSH1 0x2 PUSH2 0x3635 JUMP JUMPDEST PUSH1 0x28 DUP2 LT PUSH2 0x2B8B JUMPI PUSH2 0x2B8B PUSH2 0x3709 JUMP JUMPDEST SWAP2 ISZERO ISZERO PUSH1 0x20 SWAP1 SWAP3 MUL ADD MSTORE PUSH1 0x9 PUSH1 0xFF DUP6 AND GT DUP1 ISZERO PUSH2 0x2BAB JUMPI POP PUSH1 0x7 DUP3 PUSH1 0xFF AND GT JUMPDEST DUP9 PUSH2 0x2BB7 DUP4 PUSH1 0x2 PUSH2 0x3635 JUMP JUMPDEST PUSH2 0x2BC2 SWAP1 PUSH1 0x1 PUSH2 0x377C JUMP JUMPDEST PUSH1 0x28 DUP2 LT PUSH2 0x2BD2 JUMPI PUSH2 0x2BD2 PUSH2 0x3709 JUMP JUMPDEST SWAP2 ISZERO ISZERO PUSH1 0x20 SWAP1 SWAP3 MUL ADD MSTORE DUP1 PUSH2 0x2BE6 DUP2 PUSH2 0x378F JUMP JUMPDEST SWAP2 POP POP PUSH2 0x2AB2 JUMP JUMPDEST POP POP POP POP POP POP POP SWAP2 SWAP1 POP JUMP JUMPDEST PUSH1 0x0 PUSH1 0xA DUP4 PUSH1 0xFF AND LT ISZERO PUSH2 0x2C10 JUMPI POP PUSH1 0x30 PUSH2 0x8B1 JUMP JUMPDEST DUP2 ISZERO PUSH2 0x2C1E JUMPI POP PUSH1 0x37 PUSH2 0x8B1 JUMP JUMPDEST POP PUSH1 0x57 SWAP3 SWAP2 POP POP JUMP JUMPDEST PUSH1 0x40 DUP1 MLOAD PUSH1 0x28 DUP1 DUP3 MSTORE PUSH1 0x60 DUP3 DUP2 ADD SWAP1 SWAP4 MSTORE PUSH1 0x0 SWAP2 SWAP1 PUSH1 0x20 DUP3 ADD DUP2 DUP1 CALLDATASIZE DUP4 CALLDATACOPY ADD SWAP1 POP POP SWAP1 POP PUSH1 0x0 DUP1 DUP1 DUP1 JUMPDEST PUSH1 0x14 DUP2 LT ISZERO PUSH2 0x2D76 JUMPI PUSH2 0x2C65 DUP2 PUSH1 0x13 PUSH2 0x3769 JUMP JUMPDEST PUSH2 0x2C70 SWAP1 PUSH1 0x8 PUSH2 0x3635 JUMP JUMPDEST PUSH2 0x2C7B SWAP1 PUSH1 0x2 PUSH2 0x3EDB JUMP JUMPDEST PUSH2 0x2C89 SWAP1 PUSH1 0x60 DUP10 SWAP1 SHR PUSH2 0x3662 JUMP JUMPDEST SWAP4 POP PUSH2 0x2C96 PUSH1 0x10 DUP6 PUSH2 0x3EE7 JUMP JUMPDEST SWAP3 POP PUSH2 0x2CA3 DUP4 PUSH1 0x10 PUSH2 0x3F09 JUMP JUMPDEST PUSH2 0x2CAD SWAP1 DUP6 PUSH2 0x3F2C JUMP JUMPDEST SWAP2 POP PUSH1 0xA DUP4 PUSH1 0xFF AND LT PUSH2 0x2CC1 JUMPI PUSH1 0x57 PUSH2 0x2CC4 JUMP JUMPDEST PUSH1 0x30 JUMPDEST PUSH2 0x2CCE SWAP1 DUP5 PUSH2 0x3D85 JUMP JUMPDEST PUSH1 0xF8 SHL DUP6 PUSH2 0x2CDD DUP4 PUSH1 0x2 PUSH2 0x3635 JUMP JUMPDEST DUP2 MLOAD DUP2 LT PUSH2 0x2CED JUMPI PUSH2 0x2CED PUSH2 0x3709 JUMP JUMPDEST PUSH1 0x20 ADD ADD SWAP1 PUSH1 0x1 PUSH1 0x1 PUSH1 0xF8 SHL SUB NOT AND SWAP1 DUP2 PUSH1 0x0 BYTE SWAP1 MSTORE8 POP PUSH1 0xA DUP3 PUSH1 0xFF AND LT PUSH2 0x2D16 JUMPI PUSH1 0x57 PUSH2 0x2D19 JUMP JUMPDEST PUSH1 0x30 JUMPDEST PUSH2 0x2D23 SWAP1 DUP4 PUSH2 0x3D85 JUMP JUMPDEST PUSH1 0xF8 SHL DUP6 PUSH2 0x2D32 DUP4 PUSH1 0x2 PUSH2 0x3635 JUMP JUMPDEST PUSH2 0x2D3D SWAP1 PUSH1 0x1 PUSH2 0x377C JUMP JUMPDEST DUP2 MLOAD DUP2 LT PUSH2 0x2D4D JUMPI PUSH2 0x2D4D PUSH2 0x3709 JUMP JUMPDEST PUSH1 0x20 ADD ADD SWAP1 PUSH1 0x1 PUSH1 0x1 PUSH1 0xF8 SHL SUB NOT AND SWAP1 DUP2 PUSH1 0x0 BYTE SWAP1 MSTORE8 POP DUP1 PUSH2 0x2D6E DUP2 PUSH2 0x378F JUMP JUMPDEST SWAP2 POP POP PUSH2 0x2C51 JUMP JUMPDEST POP SWAP3 SWAP6 SWAP5 POP POP POP POP POP JUMP JUMPDEST PUSH1 0x40 MLOAD DUP1 PUSH2 0x500 ADD PUSH1 0x40 MSTORE DUP1 PUSH1 0x28 SWAP1 PUSH1 0x20 DUP3 MUL DUP1 CALLDATASIZE DUP4 CALLDATACOPY POP SWAP2 SWAP3 SWAP2 POP POP JUMP JUMPDEST DUP1 CALLDATALOAD PUSH1 0x1 PUSH1 0x1 PUSH1 0xA0 SHL SUB DUP2 AND DUP2 EQ PUSH2 0x15C7 JUMPI PUSH1 0x0 DUP1 REVERT JUMPDEST PUSH1 0x0 DUP1 DUP4 PUSH1 0x1F DUP5 ADD SLT PUSH2 0x2DC9 JUMPI PUSH1 0x0 DUP1 REVERT JUMPDEST POP DUP2 CALLDATALOAD PUSH1 0x1 PUSH1 0x1 PUSH1 0x40 SHL SUB DUP2 GT ISZERO PUSH2 0x2DE0 JUMPI PUSH1 0x0 DUP1 REVERT JUMPDEST PUSH1 0x20 DUP4 ADD SWAP2 POP DUP4 PUSH1 0x20 DUP3 DUP6 ADD ADD GT ISZERO PUSH2 0x2DF8 JUMPI PUSH1 0x0 DUP1 REVERT JUMPDEST SWAP3 POP SWAP3 SWAP1 POP JUMP JUMPDEST PUSH1 0x0 DUP1 PUSH1 0x0 DUP1 PUSH1 0x0 DUP1 PUSH1 0x0 DUP1 PUSH1 0xC0 DUP10 DUP12 SUB SLT ISZERO PUSH2 0x2E1B JUMPI PUSH1 0x0 DUP1 REVERT JUMPDEST PUSH2 0x2E24 DUP10 PUSH2 0x2DA0 JUMP JUMPDEST SWAP8 POP PUSH2 0x2E32 PUSH1 0x20 DUP11 ADD PUSH2 0x2DA0 JUMP JUMPDEST SWAP7 POP PUSH2 0x2E40 PUSH1 0x40 DUP11 ADD PUSH2 0x2DA0 JUMP JUMPDEST SWAP6 POP PUSH1 0x60 DUP10 ADD CALLDATALOAD SWAP5 POP PUSH1 0x80 DUP10 ADD CALLDATALOAD PUSH1 0x1 PUSH1 0x1 PUSH1 0x40 SHL SUB DUP1 DUP3 GT ISZERO PUSH2 0x2E63 JUMPI PUSH1 0x0 DUP1 REVERT JUMPDEST PUSH2 0x2E6F DUP13 DUP4 DUP14 ADD PUSH2 0x2DB7 JUMP JUMPDEST SWAP1 SWAP7 POP SWAP5 POP PUSH1 0xA0 DUP12 ADD CALLDATALOAD SWAP2 POP DUP1 DUP3 GT ISZERO PUSH2 0x2E88 JUMPI PUSH1 0x0 DUP1 REVERT JUMPDEST POP PUSH2 0x2E95 DUP12 DUP3 DUP13 ADD PUSH2 0x2DB7 JUMP JUMPDEST SWAP10 SWAP13 SWAP9 SWAP12 POP SWAP7 SWAP10 POP SWAP5 SWAP8 SWAP4 SWAP7 SWAP3 SWAP6 SWAP5 POP POP POP JUMP JUMPDEST PUSH1 0x0 DUP1 PUSH1 0x40 DUP4 DUP6 SUB SLT ISZERO PUSH2 0x2EBC JUMPI PUSH1 0x0 DUP1 REVERT JUMPDEST PUSH2 0x2EC5 DUP4 PUSH2 0x2DA0 JUMP JUMPDEST SWAP5 PUSH1 0x20 SWAP4 SWAP1 SWAP4 ADD CALLDATALOAD SWAP4 POP POP POP JUMP JUMPDEST PUSH1 0x1 PUSH1 0x1 PUSH1 0xE0 SHL SUB NOT DUP2 AND DUP2 EQ PUSH2 0x94F JUMPI PUSH1 0x0 DUP1 REVERT JUMPDEST PUSH1 0x0 PUSH1 0x20 DUP3 DUP5 SUB SLT ISZERO PUSH2 0x2EFB JUMPI PUSH1 0x0 DUP1 REVERT JUMPDEST DUP2 CALLDATALOAD PUSH2 0x10C4 DUP2 PUSH2 0x2ED3 JUMP JUMPDEST PUSH1 0x0 PUSH1 0x20 DUP3 DUP5 SUB SLT ISZERO PUSH2 0x2F18 JUMPI PUSH1 0x0 DUP1 REVERT JUMPDEST POP CALLDATALOAD SWAP2 SWAP1 POP JUMP JUMPDEST PUSH1 0x0 JUMPDEST DUP4 DUP2 LT ISZERO PUSH2 0x2F3A JUMPI DUP2 DUP2 ADD MLOAD DUP4 DUP3 ADD MSTORE PUSH1 0x20 ADD PUSH2 0x2F22 JUMP JUMPDEST POP POP PUSH1 0x0 SWAP2 ADD MSTORE JUMP JUMPDEST PUSH1 0x0 DUP2 MLOAD DUP1 DUP5 MSTORE PUSH2 0x2F5B DUP2 PUSH1 0x20 DUP7 ADD PUSH1 0x20 DUP7 ADD PUSH2 0x2F1F JUMP JUMPDEST PUSH1 0x1F ADD PUSH1 0x1F NOT AND SWAP3 SWAP1 SWAP3 ADD PUSH1 0x20 ADD SWAP3 SWAP2 POP POP JUMP JUMPDEST PUSH1 0x20 DUP2 MSTORE PUSH1 0x0 PUSH2 0x10C4 PUSH1 0x20 DUP4 ADD DUP5 PUSH2 0x2F43 JUMP JUMPDEST PUSH4 0x4E487B71 PUSH1 0xE0 SHL PUSH1 0x0 MSTORE PUSH1 0x41 PUSH1 0x4 MSTORE PUSH1 0x24 PUSH1 0x0 REVERT JUMPDEST PUSH1 0x1F DUP3 ADD PUSH1 0x1F NOT AND DUP2 ADD PUSH1 0x1 PUSH1 0x1 PUSH1 0x40 SHL SUB DUP2 GT DUP3 DUP3 LT OR ISZERO PUSH2 0x2FBD JUMPI PUSH2 0x2FBD PUSH2 0x2F82 JUMP JUMPDEST PUSH1 0x40 MSTORE POP POP JUMP JUMPDEST PUSH1 0x0 PUSH1 0x1 PUSH1 0x1 PUSH1 0x40 SHL SUB DUP4 GT ISZERO PUSH2 0x2FDD JUMPI PUSH2 0x2FDD PUSH2 0x2F82 JUMP JUMPDEST PUSH1 0x40 MLOAD PUSH2 0x2FF4 PUSH1 0x1F DUP6 ADD PUSH1 0x1F NOT AND PUSH1 0x20 ADD DUP3 PUSH2 0x2F98 JUMP JUMPDEST DUP1 SWAP2 POP DUP4 DUP2 MSTORE DUP5 DUP5 DUP5 ADD GT ISZERO PUSH2 0x3009 JUMPI PUSH1 0x0 DUP1 REVERT JUMPDEST DUP4 DUP4 PUSH1 0x20 DUP4 ADD CALLDATACOPY PUSH1 0x0 PUSH1 0x20 DUP6 DUP4 ADD ADD MSTORE POP SWAP4 SWAP3 POP POP POP JUMP JUMPDEST PUSH1 0x0 DUP3 PUSH1 0x1F DUP4 ADD SLT PUSH2 0x3032 JUMPI PUSH1 0x0 DUP1 REVERT JUMPDEST PUSH2 0x10C4 DUP4 DUP4 CALLDATALOAD PUSH1 0x20 DUP6 ADD PUSH2 0x2FC4 JUMP JUMPDEST PUSH1 0x0 DUP1 PUSH1 0x0 DUP1 PUSH1 0x80 DUP6 DUP8 SUB SLT ISZERO PUSH2 0x3057 JUMPI PUSH1 0x0 DUP1 REVERT JUMPDEST PUSH2 0x3060 DUP6 PUSH2 0x2DA0 JUMP JUMPDEST SWAP4 POP PUSH2 0x306E PUSH1 0x20 DUP7 ADD PUSH2 0x2DA0 JUMP JUMPDEST SWAP3 POP PUSH1 0x40 DUP6 ADD CALLDATALOAD SWAP2 POP PUSH1 0x60 DUP6 ADD CALLDATALOAD PUSH1 0x1 PUSH1 0x1 PUSH1 0x40 SHL SUB DUP2 GT ISZERO PUSH2 0x3090 JUMPI PUSH1 0x0 DUP1 REVERT JUMPDEST PUSH2 0x309C DUP8 DUP3 DUP9 ADD PUSH2 0x3021 JUMP JUMPDEST SWAP2 POP POP SWAP3 SWAP6 SWAP2 SWAP5 POP SWAP3 POP JUMP JUMPDEST PUSH1 0x0 PUSH1 0x20 DUP3 DUP5 SUB SLT ISZERO PUSH2 0x30BA JUMPI PUSH1 0x0 DUP1 REVERT JUMPDEST DUP2 CALLDATALOAD PUSH1 0x1 PUSH1 0x1 PUSH1 0x40 SHL SUB DUP2 GT ISZERO PUSH2 0x30D0 JUMPI PUSH1 0x0 DUP1 REVERT JUMPDEST DUP3 ADD PUSH1 0x1F DUP2 ADD DUP5 SGT PUSH2 0x30E1 JUMPI PUSH1 0x0 DUP1 REVERT JUMPDEST PUSH2 0x30F0 DUP5 DUP3 CALLDATALOAD PUSH1 0x20 DUP5 ADD PUSH2 0x2FC4 JUMP JUMPDEST SWAP5 SWAP4 POP POP POP POP JUMP JUMPDEST PUSH1 0x0 DUP1 PUSH1 0x40 DUP4 DUP6 SUB SLT ISZERO PUSH2 0x310B JUMPI PUSH1 0x0 DUP1 REVERT JUMPDEST DUP3 CALLDATALOAD SWAP2 POP PUSH2 0xAD2 PUSH1 0x20 DUP5 ADD PUSH2 0x2DA0 JUMP JUMPDEST PUSH1 0x0 DUP1 PUSH1 0x40 DUP4 DUP6 SUB SLT ISZERO PUSH2 0x312E JUMPI PUSH1 0x0 DUP1 REVERT JUMPDEST POP POP DUP1 CALLDATALOAD SWAP3 PUSH1 0x20 SWAP1 SWAP2 ADD CALLDATALOAD SWAP2 POP JUMP JUMPDEST PUSH1 0x0 PUSH1 0x1 PUSH1 0x1 PUSH1 0x40 SHL SUB DUP3 GT ISZERO PUSH2 0x3156 JUMPI PUSH2 0x3156 PUSH2 0x2F82 JUMP JUMPDEST POP PUSH1 0x5 SHL PUSH1 0x20 ADD SWAP1 JUMP JUMPDEST PUSH1 0x0 DUP3 PUSH1 0x1F DUP4 ADD SLT PUSH2 0x3171 JUMPI PUSH1 0x0 DUP1 REVERT JUMPDEST DUP2 CALLDATALOAD PUSH1 0x20 PUSH2 0x317E DUP3 PUSH2 0x313D JUMP JUMPDEST PUSH1 0x40 MLOAD PUSH2 0x318B DUP3 DUP3 PUSH2 0x2F98 JUMP JUMPDEST DUP4 DUP2 MSTORE PUSH1 0x5 SWAP4 SWAP1 SWAP4 SHL DUP6 ADD DUP3 ADD SWAP3 DUP3 DUP2 ADD SWAP2 POP DUP7 DUP5 GT ISZERO PUSH2 0x31AB JUMPI PUSH1 0x0 DUP1 REVERT JUMPDEST DUP3 DUP7 ADD JUMPDEST DUP5 DUP2 LT ISZERO PUSH2 0x31C6 JUMPI DUP1 CALLDATALOAD DUP4 MSTORE SWAP2 DUP4 ADD SWAP2 DUP4 ADD PUSH2 0x31AF JUMP JUMPDEST POP SWAP7 SWAP6 POP POP POP POP POP POP JUMP JUMPDEST PUSH1 0x0 DUP1 PUSH1 0x0 DUP1 PUSH1 0x0 PUSH1 0xA0 DUP7 DUP9 SUB SLT ISZERO PUSH2 0x31E9 JUMPI PUSH1 0x0 DUP1 REVERT JUMPDEST PUSH2 0x31F2 DUP7 PUSH2 0x2DA0 JUMP JUMPDEST SWAP5 POP PUSH2 0x3200 PUSH1 0x20 DUP8 ADD PUSH2 0x2DA0 JUMP JUMPDEST SWAP4 POP PUSH1 0x40 DUP7 ADD CALLDATALOAD PUSH1 0x1 PUSH1 0x1 PUSH1 0x40 SHL SUB DUP1 DUP3 GT ISZERO PUSH2 0x321C JUMPI PUSH1 0x0 DUP1 REVERT JUMPDEST PUSH2 0x3228 DUP10 DUP4 DUP11 ADD PUSH2 0x3160 JUMP JUMPDEST SWAP5 POP PUSH1 0x60 DUP9 ADD CALLDATALOAD SWAP2 POP DUP1 DUP3 GT ISZERO PUSH2 0x323E JUMPI PUSH1 0x0 DUP1 REVERT JUMPDEST PUSH2 0x324A DUP10 DUP4 DUP11 ADD PUSH2 0x3160 JUMP JUMPDEST SWAP4 POP PUSH1 0x80 DUP9 ADD CALLDATALOAD SWAP2 POP DUP1 DUP3 GT ISZERO PUSH2 0x3260 JUMPI PUSH1 0x0 DUP1 REVERT JUMPDEST POP PUSH2 0x326D DUP9 DUP3 DUP10 ADD PUSH2 0x3021 JUMP JUMPDEST SWAP2 POP POP SWAP3 SWAP6 POP SWAP3 SWAP6 SWAP1 SWAP4 POP JUMP JUMPDEST PUSH1 0x0 DUP1 PUSH1 0x40 DUP4 DUP6 SUB SLT ISZERO PUSH2 0x328D JUMPI PUSH1 0x0 DUP1 REVERT JUMPDEST DUP3 CALLDATALOAD PUSH1 0x1 PUSH1 0x1 PUSH1 0x40 SHL SUB DUP1 DUP3 GT ISZERO PUSH2 0x32A4 JUMPI PUSH1 0x0 DUP1 REVERT JUMPDEST DUP2 DUP6 ADD SWAP2 POP DUP6 PUSH1 0x1F DUP4 ADD SLT PUSH2 0x32B8 JUMPI PUSH1 0x0 DUP1 REVERT JUMPDEST DUP2 CALLDATALOAD PUSH1 0x20 PUSH2 0x32C5 DUP3 PUSH2 0x313D JUMP JUMPDEST PUSH1 0x40 MLOAD PUSH2 0x32D2 DUP3 DUP3 PUSH2 0x2F98 JUMP JUMPDEST DUP4 DUP2 MSTORE PUSH1 0x5 SWAP4 SWAP1 SWAP4 SHL DUP6 ADD DUP3 ADD SWAP3 DUP3 DUP2 ADD SWAP2 POP DUP10 DUP5 GT ISZERO PUSH2 0x32F2 JUMPI PUSH1 0x0 DUP1 REVERT JUMPDEST SWAP5 DUP3 ADD SWAP5 JUMPDEST DUP4 DUP7 LT ISZERO PUSH2 0x3317 JUMPI PUSH2 0x3308 DUP7 PUSH2 0x2DA0 JUMP JUMPDEST DUP3 MSTORE SWAP5 DUP3 ADD SWAP5 SWAP1 DUP3 ADD SWAP1 PUSH2 0x32F7 JUMP JUMPDEST SWAP7 POP POP DUP7 ADD CALLDATALOAD SWAP3 POP POP DUP1 DUP3 GT ISZERO PUSH2 0x332D JUMPI PUSH1 0x0 DUP1 REVERT JUMPDEST POP PUSH2 0x333A DUP6 DUP3 DUP7 ADD PUSH2 0x3160 JUMP JUMPDEST SWAP2 POP POP SWAP3 POP SWAP3 SWAP1 POP JUMP JUMPDEST PUSH1 0x0 DUP2 MLOAD DUP1 DUP5 MSTORE PUSH1 0x20 DUP1 DUP6 ADD SWAP5 POP DUP1 DUP5 ADD PUSH1 0x0 JUMPDEST DUP4 DUP2 LT ISZERO PUSH2 0x3374 JUMPI DUP2 MLOAD DUP8 MSTORE SWAP6 DUP3 ADD SWAP6 SWAP1 DUP3 ADD SWAP1 PUSH1 0x1 ADD PUSH2 0x3358 JUMP JUMPDEST POP SWAP5 SWAP6 SWAP5 POP POP POP POP POP JUMP JUMPDEST PUSH1 0x20 DUP2 MSTORE PUSH1 0x0 PUSH2 0x10C4 PUSH1 0x20 DUP4 ADD DUP5 PUSH2 0x3344 JUMP JUMPDEST PUSH1 0x0 PUSH1 0x20 DUP3 DUP5 SUB SLT ISZERO PUSH2 0x33A4 JUMPI PUSH1 0x0 DUP1 REVERT JUMPDEST PUSH2 0x10C4 DUP3 PUSH2 0x2DA0 JUMP JUMPDEST DUP1 ISZERO ISZERO DUP2 EQ PUSH2 0x94F JUMPI PUSH1 0x0 DUP1 REVERT JUMPDEST PUSH1 0x0 DUP1 PUSH1 0x40 DUP4 DUP6 SUB SLT ISZERO PUSH2 0x33CE JUMPI PUSH1 0x0 DUP1 REVERT JUMPDEST PUSH2 0x33D7 DUP4 PUSH2 0x2DA0 JUMP JUMPDEST SWAP2 POP PUSH1 0x20 DUP4 ADD CALLDATALOAD PUSH2 0x33E7 DUP2 PUSH2 0x33AD JUMP JUMPDEST DUP1 SWAP2 POP POP SWAP3 POP SWAP3 SWAP1 POP JUMP JUMPDEST PUSH1 0x0 DUP1 PUSH1 0x0 PUSH1 0x60 DUP5 DUP7 SUB SLT ISZERO PUSH2 0x3407 JUMPI PUSH1 0x0 DUP1 REVERT JUMPDEST PUSH2 0x3410 DUP5 PUSH2 0x2DA0 JUMP JUMPDEST SWAP3 POP PUSH1 0x20 DUP5 ADD CALLDATALOAD SWAP2 POP PUSH1 0x40 DUP5 ADD CALLDATALOAD PUSH1 0x1 PUSH1 0x1 PUSH1 0x40 SHL SUB DUP2 GT ISZERO PUSH2 0x3432 JUMPI PUSH1 0x0 DUP1 REVERT JUMPDEST PUSH2 0x343E DUP7 DUP3 DUP8 ADD PUSH2 0x3021 JUMP JUMPDEST SWAP2 POP POP SWAP3 POP SWAP3 POP SWAP3 JUMP JUMPDEST PUSH1 0x0 DUP1 PUSH1 0x40 DUP4 DUP6 SUB SLT ISZERO PUSH2 0x345B JUMPI PUSH1 0x0 DUP1 REVERT JUMPDEST PUSH2 0x3464 DUP4 PUSH2 0x2DA0 JUMP JUMPDEST SWAP2 POP PUSH2 0xAD2 PUSH1 0x20 DUP5 ADD PUSH2 0x2DA0 JUMP JUMPDEST PUSH1 0x0 DUP1 PUSH1 0x0 DUP1 PUSH1 0x0 PUSH1 0xA0 DUP7 DUP9 SUB SLT ISZERO PUSH2 0x348A JUMPI PUSH1 0x0 DUP1 REVERT JUMPDEST PUSH2 0x3493 DUP7 PUSH2 0x2DA0 JUMP JUMPDEST SWAP5 POP PUSH2 0x34A1 PUSH1 0x20 DUP8 ADD PUSH2 0x2DA0 JUMP JUMPDEST SWAP4 POP PUSH1 0x40 DUP7 ADD CALLDATALOAD SWAP3 POP PUSH1 0x60 DUP7 ADD CALLDATALOAD SWAP2 POP PUSH1 0x80 DUP7 ADD CALLDATALOAD PUSH1 0x1 PUSH1 0x1 PUSH1 0x40 SHL SUB DUP2 GT ISZERO PUSH2 0x34CA JUMPI PUSH1 0x0 DUP1 REVERT JUMPDEST PUSH2 0x326D DUP9 DUP3 DUP10 ADD PUSH2 0x3021 JUMP JUMPDEST PUSH1 0x0 DUP1 PUSH1 0x0 DUP1 PUSH1 0x80 DUP6 DUP8 SUB SLT ISZERO PUSH2 0x34EC JUMPI PUSH1 0x0 DUP1 REVERT JUMPDEST PUSH2 0x34F5 DUP6 PUSH2 0x2DA0 JUMP JUMPDEST SWAP4 POP PUSH1 0x20 DUP6 ADD CALLDATALOAD SWAP3 POP PUSH1 0x40 DUP6 ADD CALLDATALOAD SWAP2 POP PUSH1 0x60 DUP6 ADD CALLDATALOAD PUSH1 0x1 PUSH1 0x1 PUSH1 0x40 SHL SUB DUP2 GT ISZERO PUSH2 0x3090 JUMPI PUSH1 0x0 DUP1 REVERT JUMPDEST PUSH9 0x3D913730B6B2911D11 PUSH1 0xB9 SHL DUP2 MSTORE DUP4 MLOAD PUSH1 0x0 SWAP1 PUSH2 0x3543 DUP2 PUSH1 0x9 DUP6 ADD PUSH1 0x20 DUP10 ADD PUSH2 0x2F1F JUMP JUMPDEST PUSH18 0x111610113232B9B1B934B83A34B7B7111D11 PUSH1 0x71 SHL PUSH1 0x9 SWAP2 DUP5 ADD SWAP2 DUP3 ADD MSTORE DUP5 MLOAD PUSH2 0x3575 DUP2 PUSH1 0x1B DUP5 ADD PUSH1 0x20 DUP10 ADD PUSH2 0x2F1F JUMP JUMPDEST PUSH12 0x1116101134B6B0B3B2911D11 PUSH1 0xA1 SHL PUSH1 0x1B SWAP3 SWAP1 SWAP2 ADD SWAP2 DUP3 ADD MSTORE DUP4 MLOAD PUSH2 0x35A2 DUP2 PUSH1 0x27 DUP5 ADD PUSH1 0x20 DUP9 ADD PUSH2 0x2F1F JUMP JUMPDEST PUSH2 0x227D PUSH1 0xF0 SHL PUSH1 0x27 SWAP3 SWAP1 SWAP2 ADD SWAP2 DUP3 ADD MSTORE PUSH1 0x29 ADD SWAP6 SWAP5 POP POP POP POP POP JUMP JUMPDEST PUSH1 0x0 DUP3 MLOAD PUSH2 0x35D0 DUP2 DUP5 PUSH1 0x20 DUP8 ADD PUSH2 0x2F1F JUMP JUMPDEST SWAP2 SWAP1 SWAP2 ADD SWAP3 SWAP2 POP POP JUMP JUMPDEST PUSH32 0x646174613A6170706C69636174696F6E2F6A736F6E3B6261736536342C000000 DUP2 MSTORE PUSH1 0x0 DUP3 MLOAD PUSH2 0x3612 DUP2 PUSH1 0x1D DUP6 ADD PUSH1 0x20 DUP8 ADD PUSH2 0x2F1F JUMP JUMPDEST SWAP2 SWAP1 SWAP2 ADD PUSH1 0x1D ADD SWAP3 SWAP2 POP POP JUMP JUMPDEST PUSH4 0x4E487B71 PUSH1 0xE0 SHL PUSH1 0x0 MSTORE PUSH1 0x11 PUSH1 0x4 MSTORE PUSH1 0x24 PUSH1 0x0 REVERT JUMPDEST DUP1 DUP3 MUL DUP2 ISZERO DUP3 DUP3 DIV DUP5 EQ OR PUSH2 0x8B1 JUMPI PUSH2 0x8B1 PUSH2 0x361F JUMP JUMPDEST PUSH4 0x4E487B71 PUSH1 0xE0 SHL PUSH1 0x0 MSTORE PUSH1 0x12 PUSH1 0x4 MSTORE PUSH1 0x24 PUSH1 0x0 REVERT JUMPDEST PUSH1 0x0 DUP3 PUSH2 0x3671 JUMPI PUSH2 0x3671 PUSH2 0x364C JUMP JUMPDEST POP DIV SWAP1 JUMP JUMPDEST PUSH1 0x20 DUP1 DUP3 MSTORE PUSH1 0x25 SWAP1 DUP3 ADD MSTORE PUSH32 0x455243313135353A207472616E7366657220746F20746865207A65726F206164 PUSH1 0x40 DUP3 ADD MSTORE PUSH5 0x6472657373 PUSH1 0xD8 SHL PUSH1 0x60 DUP3 ADD MSTORE PUSH1 0x80 ADD SWAP1 JUMP JUMPDEST PUSH1 0x20 DUP1 DUP3 MSTORE PUSH1 0x2E SWAP1 DUP3 ADD MSTORE PUSH32 0x455243313135353A2063616C6C6572206973206E6F7420746F6B656E206F776E PUSH1 0x40 DUP3 ADD MSTORE PUSH14 0x195C881BDC88185C1C1C9BDD9959 PUSH1 0x92 SHL PUSH1 0x60 DUP3 ADD MSTORE PUSH1 0x80 ADD SWAP1 JUMP JUMPDEST PUSH4 0x4E487B71 PUSH1 0xE0 SHL PUSH1 0x0 MSTORE PUSH1 0x32 PUSH1 0x4 MSTORE PUSH1 0x24 PUSH1 0x0 REVERT JUMPDEST PUSH1 0x20 DUP1 DUP3 MSTORE PUSH1 0x2A SWAP1 DUP3 ADD MSTORE PUSH32 0x455243313135353A20696E73756666696369656E742062616C616E636520666F PUSH1 0x40 DUP3 ADD MSTORE PUSH10 0x39103A3930B739B332B9 PUSH1 0xB1 SHL PUSH1 0x60 DUP3 ADD MSTORE PUSH1 0x80 ADD SWAP1 JUMP JUMPDEST DUP2 DUP2 SUB DUP2 DUP2 GT ISZERO PUSH2 0x8B1 JUMPI PUSH2 0x8B1 PUSH2 0x361F JUMP JUMPDEST DUP1 DUP3 ADD DUP1 DUP3 GT ISZERO PUSH2 0x8B1 JUMPI PUSH2 0x8B1 PUSH2 0x361F JUMP JUMPDEST PUSH1 0x0 PUSH1 0x1 DUP3 ADD PUSH2 0x37A1 JUMPI PUSH2 0x37A1 PUSH2 0x361F JUMP JUMPDEST POP PUSH1 0x1 ADD SWAP1 JUMP JUMPDEST PUSH1 0x40 DUP2 MSTORE PUSH1 0x0 PUSH2 0x37BB PUSH1 0x40 DUP4 ADD DUP6 PUSH2 0x3344 JUMP JUMPDEST DUP3 DUP2 SUB PUSH1 0x20 DUP5 ADD MSTORE PUSH2 0x37CD DUP2 DUP6 PUSH2 0x3344 JUMP JUMPDEST SWAP6 SWAP5 POP POP POP POP POP JUMP JUMPDEST PUSH1 0x1 DUP2 DUP2 SHR SWAP1 DUP3 AND DUP1 PUSH2 0x37EA JUMPI PUSH1 0x7F DUP3 AND SWAP2 POP JUMPDEST PUSH1 0x20 DUP3 LT DUP2 SUB PUSH2 0x380A JUMPI PUSH4 0x4E487B71 PUSH1 0xE0 SHL PUSH1 0x0 MSTORE PUSH1 0x22 PUSH1 0x4 MSTORE PUSH1 0x24 PUSH1 0x0 REVERT JUMPDEST POP SWAP2 SWAP1 POP JUMP JUMPDEST PUSH1 0x0 DUP2 SLOAD PUSH2 0x381D DUP2 PUSH2 0x37D6 JUMP JUMPDEST PUSH1 0x1 DUP3 DUP2 AND DUP1 ISZERO PUSH2 0x3835 JUMPI PUSH1 0x1 DUP2 EQ PUSH2 0x384A JUMPI PUSH2 0x3879 JUMP JUMPDEST PUSH1 0xFF NOT DUP5 AND DUP8 MSTORE DUP3 ISZERO ISZERO DUP4 MUL DUP8 ADD SWAP5 POP PUSH2 0x3879 JUMP JUMPDEST DUP6 PUSH1 0x0 MSTORE PUSH1 0x20 DUP1 PUSH1 0x0 KECCAK256 PUSH1 0x0 JUMPDEST DUP6 DUP2 LT ISZERO PUSH2 0x3870 JUMPI DUP2 SLOAD DUP11 DUP3 ADD MSTORE SWAP1 DUP5 ADD SWAP1 DUP3 ADD PUSH2 0x3857 JUMP JUMPDEST POP POP POP DUP3 DUP8 ADD SWAP5 POP JUMPDEST POP POP POP POP SWAP3 SWAP2 POP POP JUMP JUMPDEST PUSH9 0x3D913730B6B2911D11 PUSH1 0xB9 SHL DUP2 MSTORE PUSH1 0x0 PUSH2 0x38A1 PUSH1 0x9 DUP4 ADD DUP10 PUSH2 0x3810 JUMP JUMPDEST PUSH18 0x111610113232B9B1B934B83A34B7B7111D11 PUSH1 0x71 SHL DUP2 MSTORE PUSH2 0x38C6 PUSH1 0x12 DUP3 ADD DUP10 PUSH2 0x3810 JUMP JUMPDEST PUSH12 0x1116101134B6B0B3B2911D11 PUSH1 0xA1 SHL DUP2 MSTORE SWAP1 POP PUSH2 0x38E7 PUSH1 0xC DUP3 ADD DUP9 PUSH2 0x3810 JUMP JUMPDEST PUSH20 0x1116101132BC3A32B93730B62FB634B735911D11 PUSH1 0x61 SHL DUP2 MSTORE SWAP1 POP PUSH2 0x3910 PUSH1 0x14 DUP3 ADD DUP8 PUSH2 0x3810 JUMP JUMPDEST SWAP1 POP PUSH32 0x222C202273656C6C65725F6665655F62617369735F706F696E7473223A000000 DUP2 MSTORE DUP5 MLOAD PUSH2 0x3948 DUP2 PUSH1 0x1D DUP5 ADD PUSH1 0x20 DUP10 ADD PUSH2 0x2F1F JUMP JUMPDEST PUSH19 0x1610113332B2AFB932B1B4B834B2B73A111D11 PUSH1 0x69 SHL PUSH1 0x1D SWAP3 SWAP1 SWAP2 ADD SWAP2 DUP3 ADD MSTORE DUP4 MLOAD PUSH2 0x397C DUP2 PUSH1 0x30 DUP5 ADD PUSH1 0x20 DUP9 ADD PUSH2 0x2F1F JUMP JUMPDEST PUSH2 0x227D PUSH1 0xF0 SHL PUSH1 0x30 SWAP3 SWAP1 SWAP2 ADD SWAP2 DUP3 ADD MSTORE PUSH1 0x32 ADD SWAP9 SWAP8 POP POP POP POP POP POP POP POP JUMP JUMPDEST PUSH20 0x506978656C205069637461736961204E46542023 PUSH1 0x60 SHL DUP2 MSTORE PUSH1 0x0 DUP3 MLOAD PUSH2 0x39CA DUP2 PUSH1 0x14 DUP6 ADD PUSH1 0x20 DUP8 ADD PUSH2 0x2F1F JUMP JUMPDEST SWAP2 SWAP1 SWAP2 ADD PUSH1 0x14 ADD SWAP3 SWAP2 POP POP JUMP JUMPDEST PUSH9 0xA0DED2DCE8407A405 PUSH1 0xBB SHL DUP2 MSTORE PUSH1 0x0 DUP5 MLOAD PUSH2 0x39FB DUP2 PUSH1 0x9 DUP6 ADD PUSH1 0x20 DUP10 ADD PUSH2 0x2F1F JUMP JUMPDEST PUSH1 0xB PUSH1 0xFA SHL PUSH1 0x9 SWAP2 DUP5 ADD SWAP2 DUP3 ADD MSTORE DUP5 MLOAD PUSH2 0x3A1C DUP2 PUSH1 0xA DUP5 ADD PUSH1 0x20 DUP10 ADD PUSH2 0x2F1F JUMP JUMPDEST PUSH12 0x1490169696902923A1101E9 PUSH1 0xA5 SHL PUSH1 0xA SWAP3 SWAP1 SWAP2 ADD SWAP2 DUP3 ADD MSTORE DUP4 MLOAD PUSH2 0x3A49 DUP2 PUSH1 0x16 DUP5 ADD PUSH1 0x20 DUP9 ADD PUSH2 0x2F1F JUMP JUMPDEST ADD PUSH1 0x16 ADD SWAP6 SWAP5 POP POP POP POP POP JUMP JUMPDEST DUP2 MLOAD PUSH1 0x0 SWAP1 DUP3 SWAP1 PUSH1 0x20 DUP1 DUP7 ADD DUP5 JUMPDEST DUP4 DUP2 LT ISZERO PUSH2 0x3A8A JUMPI DUP2 MLOAD PUSH1 0x1 PUSH1 0x1 PUSH1 0xC0 SHL SUB NOT AND DUP6 MSTORE SWAP4 DUP3 ADD SWAP4 SWAP1 DUP3 ADD SWAP1 PUSH1 0x1 ADD PUSH2 0x3A64 JUMP JUMPDEST POP SWAP3 SWAP7 SWAP6 POP POP POP POP POP POP JUMP JUMPDEST PUSH22 0x19185D184E9A5B5859D94BDC1B99CED8985CD94D8D0B PUSH1 0x52 SHL DUP2 MSTORE PUSH1 0x0 DUP3 MLOAD PUSH2 0x3AC7 DUP2 PUSH1 0x16 DUP6 ADD PUSH1 0x20 DUP8 ADD PUSH2 0x2F1F JUMP JUMPDEST SWAP2 SWAP1 SWAP2 ADD PUSH1 0x16 ADD SWAP3 SWAP2 POP POP JUMP JUMPDEST PUSH1 0x1F DUP3 GT ISZERO PUSH2 0x1072 JUMPI PUSH1 0x0 DUP2 DUP2 MSTORE PUSH1 0x20 DUP2 KECCAK256 PUSH1 0x1F DUP6 ADD PUSH1 0x5 SHR DUP2 ADD PUSH1 0x20 DUP7 LT ISZERO PUSH2 0x3AFB JUMPI POP DUP1 JUMPDEST PUSH1 0x1F DUP6 ADD PUSH1 0x5 SHR DUP3 ADD SWAP2 POP JUMPDEST DUP2 DUP2 LT ISZERO PUSH2 0x133A JUMPI DUP3 DUP2 SSTORE PUSH1 0x1 ADD PUSH2 0x3B07 JUMP JUMPDEST DUP2 MLOAD PUSH1 0x1 PUSH1 0x1 PUSH1 0x40 SHL SUB DUP2 GT ISZERO PUSH2 0x3B33 JUMPI PUSH2 0x3B33 PUSH2 0x2F82 JUMP JUMPDEST PUSH2 0x3B47 DUP2 PUSH2 0x3B41 DUP5 SLOAD PUSH2 0x37D6 JUMP JUMPDEST DUP5 PUSH2 0x3AD4 JUMP JUMPDEST PUSH1 0x20 DUP1 PUSH1 0x1F DUP4 GT PUSH1 0x1 DUP2 EQ PUSH2 0x3B7C JUMPI PUSH1 0x0 DUP5 ISZERO PUSH2 0x3B64 JUMPI POP DUP6 DUP4 ADD MLOAD JUMPDEST PUSH1 0x0 NOT PUSH1 0x3 DUP7 SWAP1 SHL SHR NOT AND PUSH1 0x1 DUP6 SWAP1 SHL OR DUP6 SSTORE PUSH2 0x133A JUMP JUMPDEST PUSH1 0x0 DUP6 DUP2 MSTORE PUSH1 0x20 DUP2 KECCAK256 PUSH1 0x1F NOT DUP7 AND SWAP2 JUMPDEST DUP3 DUP2 LT ISZERO PUSH2 0x3BAB JUMPI DUP9 DUP7 ADD MLOAD DUP3 SSTORE SWAP5 DUP5 ADD SWAP5 PUSH1 0x1 SWAP1 SWAP2 ADD SWAP1 DUP5 ADD PUSH2 0x3B8C JUMP JUMPDEST POP DUP6 DUP3 LT ISZERO PUSH2 0x3BC9 JUMPI DUP8 DUP6 ADD MLOAD PUSH1 0x0 NOT PUSH1 0x3 DUP9 SWAP1 SHL PUSH1 0xF8 AND SHR NOT AND DUP2 SSTORE JUMPDEST POP POP POP POP POP PUSH1 0x1 SWAP1 DUP2 SHL ADD SWAP1 SSTORE POP JUMP JUMPDEST PUSH1 0x0 PUSH1 0x20 DUP3 DUP5 SUB SLT ISZERO PUSH2 0x3BEB JUMPI PUSH1 0x0 DUP1 REVERT JUMPDEST DUP2 MLOAD PUSH2 0x10C4 DUP2 PUSH2 0x33AD JUMP JUMPDEST PUSH1 0x1 PUSH1 0x1 PUSH1 0xA0 SHL SUB DUP7 DUP2 AND DUP3 MSTORE DUP6 AND PUSH1 0x20 DUP3 ADD MSTORE PUSH1 0xA0 PUSH1 0x40 DUP3 ADD DUP2 SWAP1 MSTORE PUSH1 0x0 SWAP1 PUSH2 0x3C22 SWAP1 DUP4 ADD DUP7 PUSH2 0x3344 JUMP JUMPDEST DUP3 DUP2 SUB PUSH1 0x60 DUP5 ADD MSTORE PUSH2 0x3C34 DUP2 DUP7 PUSH2 0x3344 JUMP JUMPDEST SWAP1 POP DUP3 DUP2 SUB PUSH1 0x80 DUP5 ADD MSTORE PUSH2 0x3C48 DUP2 DUP6 PUSH2 0x2F43 JUMP JUMPDEST SWAP9 SWAP8 POP POP POP POP POP POP POP POP JUMP JUMPDEST PUSH1 0x0 PUSH1 0x20 DUP3 DUP5 SUB SLT ISZERO PUSH2 0x3C66 JUMPI PUSH1 0x0 DUP1 REVERT JUMPDEST DUP2 MLOAD PUSH2 0x10C4 DUP2 PUSH2 0x2ED3 JUMP JUMPDEST PUSH1 0x0 PUSH1 0x3 RETURNDATASIZE GT ISZERO PUSH2 0x3C8A JUMPI PUSH1 0x4 PUSH1 0x0 DUP1 RETURNDATACOPY POP PUSH1 0x0 MLOAD PUSH1 0xE0 SHR JUMPDEST SWAP1 JUMP JUMPDEST PUSH1 0x0 PUSH1 0x44 RETURNDATASIZE LT ISZERO PUSH2 0x3C9B JUMPI SWAP1 JUMP JUMPDEST PUSH1 0x40 MLOAD PUSH1 0x3 NOT RETURNDATASIZE DUP2 ADD PUSH1 0x4 DUP4 RETURNDATACOPY DUP2 MLOAD RETURNDATASIZE PUSH1 0x1 PUSH1 0x1 PUSH1 0x40 SHL SUB DUP2 PUSH1 0x24 DUP5 ADD GT DUP2 DUP5 GT OR ISZERO PUSH2 0x3CCA JUMPI POP POP POP POP POP SWAP1 JUMP JUMPDEST DUP3 DUP6 ADD SWAP2 POP DUP2 MLOAD DUP2 DUP2 GT ISZERO PUSH2 0x3CE2 JUMPI POP POP POP POP POP POP SWAP1 JUMP JUMPDEST DUP5 RETURNDATASIZE DUP8 ADD ADD PUSH1 0x20 DUP3 DUP6 ADD ADD GT ISZERO PUSH2 0x3CFC JUMPI POP POP POP POP POP POP SWAP1 JUMP JUMPDEST PUSH2 0x3D0B PUSH1 0x20 DUP3 DUP7 ADD ADD DUP8 PUSH2 0x2F98 JUMP JUMPDEST POP SWAP1 SWAP6 SWAP5 POP POP POP POP POP JUMP JUMPDEST PUSH1 0x20 DUP1 DUP3 MSTORE PUSH1 0x28 SWAP1 DUP3 ADD MSTORE PUSH32 0x455243313135353A204552433131353552656365697665722072656A65637465 PUSH1 0x40 DUP3 ADD MSTORE PUSH8 0x6420746F6B656E73 PUSH1 0xC0 SHL PUSH1 0x60 DUP3 ADD MSTORE PUSH1 0x80 ADD SWAP1 JUMP JUMPDEST PUSH1 0x1 DUP1 PUSH1 0xA0 SHL SUB DUP5 AND DUP2 MSTORE DUP3 PUSH1 0x20 DUP3 ADD MSTORE PUSH1 0x60 PUSH1 0x40 DUP3 ADD MSTORE PUSH1 0x0 PUSH2 0x37CD PUSH1 0x60 DUP4 ADD DUP5 PUSH2 0x2F43 JUMP JUMPDEST PUSH1 0xFF DUP2 DUP2 AND DUP4 DUP3 AND ADD SWAP1 DUP2 GT ISZERO PUSH2 0x8B1 JUMPI PUSH2 0x8B1 PUSH2 0x361F JUMP JUMPDEST PUSH1 0x1 PUSH1 0x1 PUSH1 0xA0 SHL SUB DUP7 DUP2 AND DUP3 MSTORE DUP6 AND PUSH1 0x20 DUP3 ADD MSTORE PUSH1 0x40 DUP2 ADD DUP5 SWAP1 MSTORE PUSH1 0x60 DUP2 ADD DUP4 SWAP1 MSTORE PUSH1 0xA0 PUSH1 0x80 DUP3 ADD DUP2 SWAP1 MSTORE PUSH1 0x0 SWAP1 PUSH2 0x3DD8 SWAP1 DUP4 ADD DUP5 PUSH2 0x2F43 JUMP JUMPDEST SWAP8 SWAP7 POP POP POP POP POP POP POP JUMP JUMPDEST PUSH1 0x0 DUP3 PUSH2 0x3DF2 JUMPI PUSH2 0x3DF2 PUSH2 0x364C JUMP JUMPDEST POP MOD SWAP1 JUMP JUMPDEST PUSH1 0x1 DUP2 DUP2 JUMPDEST DUP1 DUP6 GT ISZERO PUSH2 0x3E32 JUMPI DUP2 PUSH1 0x0 NOT DIV DUP3 GT ISZERO PUSH2 0x3E18 JUMPI PUSH2 0x3E18 PUSH2 0x361F JUMP JUMPDEST DUP1 DUP6 AND ISZERO PUSH2 0x3E25 JUMPI SWAP2 DUP2 MUL SWAP2 JUMPDEST SWAP4 DUP5 SHR SWAP4 SWAP1 DUP1 MUL SWAP1 PUSH2 0x3DFC JUMP JUMPDEST POP SWAP3 POP SWAP3 SWAP1 POP JUMP JUMPDEST PUSH1 0x0 DUP3 PUSH2 0x3E49 JUMPI POP PUSH1 0x1 PUSH2 0x8B1 JUMP JUMPDEST DUP2 PUSH2 0x3E56 JUMPI POP PUSH1 0x0 PUSH2 0x8B1 JUMP JUMPDEST DUP2 PUSH1 0x1 DUP2 EQ PUSH2 0x3E6C JUMPI PUSH1 0x2 DUP2 EQ PUSH2 0x3E76 JUMPI PUSH2 0x3E92 JUMP JUMPDEST PUSH1 0x1 SWAP2 POP POP PUSH2 0x8B1 JUMP JUMPDEST PUSH1 0xFF DUP5 GT ISZERO PUSH2 0x3E87 JUMPI PUSH2 0x3E87 PUSH2 0x361F JUMP JUMPDEST POP POP PUSH1 0x1 DUP3 SHL PUSH2 0x8B1 JUMP JUMPDEST POP PUSH1 0x20 DUP4 LT PUSH2 0x133 DUP4 LT AND PUSH1 0x4E DUP5 LT PUSH1 0xB DUP5 LT AND OR ISZERO PUSH2 0x3EB5 JUMPI POP DUP2 DUP2 EXP PUSH2 0x8B1 JUMP JUMPDEST PUSH2 0x3EBF DUP4 DUP4 PUSH2 0x3DF7 JUMP JUMPDEST DUP1 PUSH1 0x0 NOT DIV DUP3 GT ISZERO PUSH2 0x3ED3 JUMPI PUSH2 0x3ED3 PUSH2 0x361F JUMP JUMPDEST MUL SWAP4 SWAP3 POP POP POP JUMP JUMPDEST PUSH1 0x0 PUSH2 0x10C4 DUP4 DUP4 PUSH2 0x3E3A JUMP JUMPDEST PUSH1 0x0 PUSH1 0xFF DUP4 AND DUP1 PUSH2 0x3EFA JUMPI PUSH2 0x3EFA PUSH2 0x364C JUMP JUMPDEST DUP1 PUSH1 0xFF DUP5 AND DIV SWAP2 POP POP SWAP3 SWAP2 POP POP JUMP JUMPDEST PUSH1 0xFF DUP2 DUP2 AND DUP4 DUP3 AND MUL SWAP1 DUP2 AND SWAP1 DUP2 DUP2 EQ PUSH2 0x3F25 JUMPI PUSH2 0x3F25 PUSH2 0x361F JUMP JUMPDEST POP SWAP3 SWAP2 POP POP JUMP JUMPDEST PUSH1 0xFF DUP3 DUP2 AND DUP3 DUP3 AND SUB SWAP1 DUP2 GT ISZERO PUSH2 0x8B1 JUMPI PUSH2 0x8B1 PUSH2 0x361F JUMP JUMPDEST PUSH2 0x60F PUSH1 0xF3 SHL DUP2 MSTORE PUSH1 0x0 DUP3 MLOAD PUSH2 0x3F62 DUP2 PUSH1 0x2 DUP6 ADD PUSH1 0x20 DUP8 ADD PUSH2 0x2F1F JUMP JUMPDEST SWAP2 SWAP1 SWAP2 ADD PUSH1 0x2 ADD SWAP3 SWAP2 POP POP JUMP JUMPDEST PUSH1 0x0 PUSH1 0xFF DUP4 AND DUP1 PUSH2 0x3F82 JUMPI PUSH2 0x3F82 PUSH2 0x364C JUMP JUMPDEST DUP1 PUSH1 0xFF DUP5 AND MOD SWAP2 POP POP SWAP3 SWAP2 POP POP JUMP INVALID COINBASE TIMESTAMP NUMBER PREVRANDAO GASLIMIT CHAINID SELFBALANCE BASEFEE 0x49 0x4A 0x4B 0x4C 0x4D 0x4E 0x4F POP MLOAD MSTORE MSTORE8 SLOAD SSTORE JUMP JUMPI PC MSIZE GAS PUSH2 0x6263 PUSH5 0x6566676869 PUSH11 0x6B6C6D6E6F707172737475 PUSH23 0x7778797A303132333435363738392B2FA2646970667358 0x22 SLT KECCAK256 0x27 SELFDESTRUCT MSTORE STOP 0x49 0x49 SWAP4 BALANCE 0xFC 0x4A POP 0xDA SDIV PC BASEFEE 0xE2 0xE9 PUSH17 0x264F65732677C9BF17017A12138A64736F PUSH13 0x6343000812003368747470733A 0x2F 0x2F PUSH14 0x75736963736C617965722E676974 PUSH9 0x75622E696F2F706978 PUSH6 0x6C5F70696374 PUSH2 0x7369 PUSH2 0x5F64 PUSH2 0x7070 0x2F COINBASE KECCAK256 PUSH4 0x6F6C6C65 PUSH4 0x74696F6E KECCAK256 PUSH16 0x6620636F6E666967757261626C65204E CHAINID SLOAD KECCAK256 PUSH21 0x6F6B656E7320666561747572696E6720616E696D61 PUSH21 0x656420706978656C206172742C2063617070656420 PUSH2 0x7420 BALANCE ADDRESS ADDRESS KECCAK256 PUSH17 0x6572206E6574776F726B2E206874747073 GASPRICE 0x2F 0x2F PUSH14 0x75736963736C617965722E676974 PUSH9 0x75622E696F2F706978 PUSH6 0x6C5F70696374 PUSH2 0x7369 PUSH2 0x5F64 PUSH2 0x7070 0x2F PUSH9 0x747470733A2F2F7261 PUSH24 0x2E67697468756275736572636F6E74656E742E636F6D2F6D PUSH22 0x736963736C617965722F706978656C5F706963746173 PUSH10 0x615F646170702F6D6169 PUSH15 0x2F73746F72655F696D6167652E706E PUSH8 0x0 "
		},
		"gasEstimates": {
			"creation": {
				"codeDepositCost": "3278200",
				"executionCost": "infinite",
				"totalCost": "infinite"
			},
			"external": {
				"": "233",
				"action_claimOwnerRole()": "infinite",
				"action_offerOwnerRole(address)": "infinite",
				"balanceOf(address,uint256)": "2748",
				"balanceOfBatch(address[],uint256[])": "infinite",
				"canImplementInterfaceForAddress(bytes32,address)": "595",
				"contractURI()": "infinite",
				"donate()": "184",
				"failsafe_unlock()": "26829",
				"get_description(uint256)": "infinite",
				"get_imageURI(uint256)": "infinite",
				"get_name(uint256)": "infinite",
				"get_nftOwner(uint256)": "2597",
				"get_openSeaData()": "infinite",
				"get_ownerAddress()": "2465",
				"get_ownerSuccessorAddress()": "2480",
				"get_royaltyAddress()": "2502",
				"get_royaltyBasisPoints()": "2408",
				"isApprovedForAll(address,address)": "infinite",
				"onERC1155BatchReceived(address,address,uint256[],uint256[],bytes)": "infinite",
				"onERC1155Received(address,address,uint256,uint256,bytes)": "infinite",
				"onERC721Received(address,address,uint256,bytes)": "infinite",
				"query_isLocked()": "2366",
				"query_isNFTOwner(uint256,address)": "2651",
				"query_isOwnerAddress(address)": "2641",
				"query_isOwnerSuccessorAddress(address)": "2666",
				"royaltyInfo(uint256,uint256)": "4872",
				"safeBatchTransferFrom(address,address,uint256[],uint256[],bytes)": "infinite",
				"safeTransferFrom(address,address,uint256,uint256,bytes)": "infinite",
				"setApprovalForAll(address,bool)": "26721",
				"set_royaltyAddress(address)": "infinite",
				"set_royaltyBasisPoints(uint256)": "infinite",
				"set_storeDescription(string)": "infinite",
				"set_storeExternalLinkURI(string)": "infinite",
				"set_storeImageURI(string)": "infinite",
				"set_storeName(string)": "infinite",
				"supportsInterface(bytes4)": "1035",
				"tokensReceived(address,address,address,uint256,bytes,bytes)": "infinite",
				"tokensToSend(address,address,address,uint256,bytes,bytes)": "infinite",
				"uri(uint256)": "infinite",
				"withdraw_coins(uint256)": "infinite",
				"withdraw_erc1155Tokens(address,uint256,uint256,bytes)": "infinite",
				"withdraw_erc20Tokens(address,uint256)": "infinite",
				"withdraw_erc721Tokens(address,uint256)": "infinite",
				"withdraw_erc777Tokens(address,uint256,bytes)": "infinite"
			},
			"internal": {
				"_doSafeBatchTransferAcceptanceCheck(address,address,address,uint256[] memory,uint256[] memory,bytes memory)": "infinite",
				"_doSafeTransferAcceptanceCheck(address,address,address,uint256,uint256,bytes memory)": "infinite",
				"applyConfig(uint256,uint8,uint8,uint8)": "infinite",
				"createDescription(uint256)": "infinite",
				"createImageURI(uint256)": "infinite",
				"createName(uint256)": "infinite",
				"getDescription(uint256)": "infinite",
				"getImageURI(uint256)": "infinite",
				"getNFTOwner(uint256)": "infinite",
				"getName(uint256)": "infinite",
				"getOpenSeaData()": "infinite",
				"getRoyaltyAddress()": "infinite",
				"getRoyaltyBasisPoints()": "infinite",
				"isNFTOwner(uint256,address)": "infinite",
				"mintAll(address,bytes memory)": "infinite",
				"requireNFTOwner(uint256,address)": "infinite",
				"setColors(uint256,uint8,uint8,uint8)": "infinite",
				"setNFTOwner(uint256,address)": "24350",
				"setRoyaltyAddress(address)": "infinite",
				"setRoyaltyBasisPoints(uint256)": "infinite",
				"setStoreDescription(string memory)": "infinite",
				"setStoreExternalLinkURI(string memory)": "infinite",
				"setStoreImageURI(string memory)": "infinite",
				"setStoreName(string memory)": "infinite"
			}
		},
		"methodIdentifiers": {
			"action_claimOwnerRole()": "41931a2f",
			"action_offerOwnerRole(address)": "dbd3cfcd",
			"balanceOf(address,uint256)": "00fdd58e",
			"balanceOfBatch(address[],uint256[])": "4e1273f4",
			"canImplementInterfaceForAddress(bytes32,address)": "249cb3fa",
			"contractURI()": "e8a3d485",
			"donate()": "ed88c68e",
			"failsafe_unlock()": "b4d9b973",
			"get_description(uint256)": "affe639f",
			"get_imageURI(uint256)": "43f22eda",
			"get_name(uint256)": "7f0f543c",
			"get_nftOwner(uint256)": "c4e8d5ed",
			"get_openSeaData()": "453a2dbf",
			"get_ownerAddress()": "91372456",
			"get_ownerSuccessorAddress()": "d319aa30",
			"get_royaltyAddress()": "63dd5ee5",
			"get_royaltyBasisPoints()": "58f026f0",
			"isApprovedForAll(address,address)": "e985e9c5",
			"onERC1155BatchReceived(address,address,uint256[],uint256[],bytes)": "bc197c81",
			"onERC1155Received(address,address,uint256,uint256,bytes)": "f23a6e61",
			"onERC721Received(address,address,uint256,bytes)": "150b7a02",
			"query_isLocked()": "4f61b3ae",
			"query_isNFTOwner(uint256,address)": "b7bf7070",
			"query_isOwnerAddress(address)": "9cd6e666",
			"query_isOwnerSuccessorAddress(address)": "503d7fe4",
			"royaltyInfo(uint256,uint256)": "2a55205a",
			"safeBatchTransferFrom(address,address,uint256[],uint256[],bytes)": "2eb2c2d6",
			"safeTransferFrom(address,address,uint256,uint256,bytes)": "f242432a",
			"setApprovalForAll(address,bool)": "a22cb465",
			"set_royaltyAddress(address)": "7a1e26ee",
			"set_royaltyBasisPoints(uint256)": "09f003b4",
			"set_storeDescription(string)": "6315aa45",
			"set_storeExternalLinkURI(string)": "811d678e",
			"set_storeImageURI(string)": "20a025d4",
			"set_storeName(string)": "64e847f9",
			"supportsInterface(bytes4)": "01ffc9a7",
			"tokensReceived(address,address,address,uint256,bytes,bytes)": "0023de29",
			"tokensToSend(address,address,address,uint256,bytes,bytes)": "75ab9782",
			"uri(uint256)": "0e89341c",
			"withdraw_coins(uint256)": "2e66ccf5",
			"withdraw_erc1155Tokens(address,uint256,uint256,bytes)": "f5da96dc",
			"withdraw_erc20Tokens(address,uint256)": "2aa4ada0",
			"withdraw_erc721Tokens(address,uint256)": "b76a10ca",
			"withdraw_erc777Tokens(address,uint256,bytes)": "b2828496"
		}
	},
	"abi": [
		{
			"inputs": [
				{
					"internalType": "bytes",
					"name": "_data",
					"type": "bytes"
				}
			],
			"stateMutability": "payable",
			"type": "constructor"
		},
		{
			"inputs": [
				{
					"internalType": "uint256",
					"name": "value",
					"type": "uint256"
				},
				{
					"internalType": "uint256",
					"name": "mintFee",
					"type": "uint256"
				}
			],
			"name": "MintFeeError",
			"type": "error"
		},
		{
			"inputs": [],
			"name": "NoRemainingMintsError",
			"type": "error"
		},
		{
			"inputs": [
				{
					"internalType": "uint256",
					"name": "id",
					"type": "uint256"
				},
				{
					"internalType": "address",
					"name": "_address",
					"type": "address"
				},
				{
					"internalType": "address",
					"name": "nftOwner",
					"type": "address"
				}
			],
			"name": "NotNFTOwnerError",
			"type": "error"
		},
		{
			"inputs": [
				{
					"internalType": "address",
					"name": "_address",
					"type": "address"
				},
				{
					"internalType": "address",
					"name": "ownerAddress",
					"type": "address"
				}
			],
			"name": "NotOwnerError",
			"type": "error"
		},
		{
			"inputs": [
				{
					"internalType": "address",
					"name": "_address",
					"type": "address"
				},
				{
					"internalType": "address",
					"name": "ownerSuccessorAddress",
					"type": "address"
				}
			],
			"name": "NotOwnerSuccessorError",
			"type": "error"
		},
		{
			"anonymous": false,
			"inputs": [
				{
					"indexed": true,
					"internalType": "address",
					"name": "account",
					"type": "address"
				},
				{
					"indexed": true,
					"internalType": "address",
					"name": "operator",
					"type": "address"
				},
				{
					"indexed": false,
					"internalType": "bool",
					"name": "approved",
					"type": "bool"
				}
			],
			"name": "ApprovalForAll",
			"type": "event"
		},
		{
			"anonymous": false,
			"inputs": [
				{
					"indexed": true,
					"internalType": "address",
					"name": "oldOwnerAddress",
					"type": "address"
				},
				{
					"indexed": true,
					"internalType": "address",
					"name": "newOwnerAddress",
					"type": "address"
				}
			],
			"name": "OwnerChanged",
			"type": "event"
		},
		{
			"anonymous": false,
			"inputs": [
				{
					"indexed": true,
					"internalType": "address",
					"name": "operator",
					"type": "address"
				},
				{
					"indexed": true,
					"internalType": "address",
					"name": "from",
					"type": "address"
				},
				{
					"indexed": true,
					"internalType": "address",
					"name": "to",
					"type": "address"
				},
				{
					"indexed": false,
					"internalType": "uint256[]",
					"name": "ids",
					"type": "uint256[]"
				},
				{
					"indexed": false,
					"internalType": "uint256[]",
					"name": "values",
					"type": "uint256[]"
				}
			],
			"name": "TransferBatch",
			"type": "event"
		},
		{
			"anonymous": false,
			"inputs": [
				{
					"indexed": true,
					"internalType": "address",
					"name": "operator",
					"type": "address"
				},
				{
					"indexed": true,
					"internalType": "address",
					"name": "from",
					"type": "address"
				},
				{
					"indexed": true,
					"internalType": "address",
					"name": "to",
					"type": "address"
				},
				{
					"indexed": false,
					"internalType": "uint256",
					"name": "id",
					"type": "uint256"
				},
				{
					"indexed": false,
					"internalType": "uint256",
					"name": "value",
					"type": "uint256"
				}
			],
			"name": "TransferSingle",
			"type": "event"
		},
		{
			"anonymous": false,
			"inputs": [
				{
					"indexed": false,
					"internalType": "string",
					"name": "value",
					"type": "string"
				},
				{
					"indexed": true,
					"internalType": "uint256",
					"name": "id",
					"type": "uint256"
				}
			],
			"name": "URI",
			"type": "event"
		},
		{
			"stateMutability": "payable",
			"type": "fallback"
		},
		{
			"inputs": [],
			"name": "action_claimOwnerRole",
			"outputs": [],
			"stateMutability": "nonpayable",
			"type": "function"
		},
		{
			"inputs": [
				{
					"internalType": "address",
					"name": "_address",
					"type": "address"
				}
			],
			"name": "action_offerOwnerRole",
			"outputs": [],
			"stateMutability": "nonpayable",
			"type": "function"
		},
		{
			"inputs": [
				{
					"internalType": "address",
					"name": "account",
					"type": "address"
				},
				{
					"internalType": "uint256",
					"name": "id",
					"type": "uint256"
				}
			],
			"name": "balanceOf",
			"outputs": [
				{
					"internalType": "uint256",
					"name": "",
					"type": "uint256"
				}
			],
			"stateMutability": "view",
			"type": "function"
		},
		{
			"inputs": [
				{
					"internalType": "address[]",
					"name": "accounts",
					"type": "address[]"
				},
				{
					"internalType": "uint256[]",
					"name": "ids",
					"type": "uint256[]"
				}
			],
			"name": "balanceOfBatch",
			"outputs": [
				{
					"internalType": "uint256[]",
					"name": "",
					"type": "uint256[]"
				}
			],
			"stateMutability": "view",
			"type": "function"
		},
		{
			"inputs": [
				{
					"internalType": "bytes32",
					"name": "interfaceHash",
					"type": "bytes32"
				},
				{
					"internalType": "address",
					"name": "account",
					"type": "address"
				}
			],
			"name": "canImplementInterfaceForAddress",
			"outputs": [
				{
					"internalType": "bytes32",
					"name": "",
					"type": "bytes32"
				}
			],
			"stateMutability": "view",
			"type": "function"
		},
		{
			"inputs": [],
			"name": "contractURI",
			"outputs": [
				{
					"internalType": "string",
					"name": "",
					"type": "string"
				}
			],
			"stateMutability": "view",
			"type": "function"
		},
		{
			"inputs": [],
			"name": "donate",
			"outputs": [],
			"stateMutability": "payable",
			"type": "function"
		},
		{
			"inputs": [],
			"name": "failsafe_unlock",
			"outputs": [],
			"stateMutability": "nonpayable",
			"type": "function"
		},
		{
			"inputs": [
				{
					"internalType": "uint256",
					"name": "_id",
					"type": "uint256"
				}
			],
			"name": "get_description",
			"outputs": [
				{
					"internalType": "string",
					"name": "",
					"type": "string"
				}
			],
			"stateMutability": "view",
			"type": "function"
		},
		{
			"inputs": [
				{
					"internalType": "uint256",
					"name": "_id",
					"type": "uint256"
				}
			],
			"name": "get_imageURI",
			"outputs": [
				{
					"internalType": "string",
					"name": "",
					"type": "string"
				}
			],
			"stateMutability": "view",
			"type": "function"
		},
		{
			"inputs": [
				{
					"internalType": "uint256",
					"name": "_id",
					"type": "uint256"
				}
			],
			"name": "get_name",
			"outputs": [
				{
					"internalType": "string",
					"name": "",
					"type": "string"
				}
			],
			"stateMutability": "pure",
			"type": "function"
		},
		{
			"inputs": [
				{
					"internalType": "uint256",
					"name": "_id",
					"type": "uint256"
				}
			],
			"name": "get_nftOwner",
			"outputs": [
				{
					"internalType": "address",
					"name": "",
					"type": "address"
				}
			],
			"stateMutability": "view",
			"type": "function"
		},
		{
			"inputs": [],
			"name": "get_openSeaData",
			"outputs": [
				{
					"internalType": "string",
					"name": "",
					"type": "string"
				}
			],
			"stateMutability": "view",
			"type": "function"
		},
		{
			"inputs": [],
			"name": "get_ownerAddress",
			"outputs": [
				{
					"internalType": "address",
					"name": "",
					"type": "address"
				}
			],
			"stateMutability": "view",
			"type": "function"
		},
		{
			"inputs": [],
			"name": "get_ownerSuccessorAddress",
			"outputs": [
				{
					"internalType": "address",
					"name": "",
					"type": "address"
				}
			],
			"stateMutability": "view",
			"type": "function"
		},
		{
			"inputs": [],
			"name": "get_royaltyAddress",
			"outputs": [
				{
					"internalType": "address",
					"name": "",
					"type": "address"
				}
			],
			"stateMutability": "view",
			"type": "function"
		},
		{
			"inputs": [],
			"name": "get_royaltyBasisPoints",
			"outputs": [
				{
					"internalType": "uint256",
					"name": "",
					"type": "uint256"
				}
			],
			"stateMutability": "view",
			"type": "function"
		},
		{
			"inputs": [
				{
					"internalType": "address",
					"name": "account",
					"type": "address"
				},
				{
					"internalType": "address",
					"name": "operator",
					"type": "address"
				}
			],
			"name": "isApprovedForAll",
			"outputs": [
				{
					"internalType": "bool",
					"name": "",
					"type": "bool"
				}
			],
			"stateMutability": "view",
			"type": "function"
		},
		{
			"inputs": [
				{
					"internalType": "address",
					"name": "",
					"type": "address"
				},
				{
					"internalType": "address",
					"name": "",
					"type": "address"
				},
				{
					"internalType": "uint256[]",
					"name": "",
					"type": "uint256[]"
				},
				{
					"internalType": "uint256[]",
					"name": "",
					"type": "uint256[]"
				},
				{
					"internalType": "bytes",
					"name": "",
					"type": "bytes"
				}
			],
			"name": "onERC1155BatchReceived",
			"outputs": [
				{
					"internalType": "bytes4",
					"name": "",
					"type": "bytes4"
				}
			],
			"stateMutability": "pure",
			"type": "function"
		},
		{
			"inputs": [
				{
					"internalType": "address",
					"name": "",
					"type": "address"
				},
				{
					"internalType": "address",
					"name": "",
					"type": "address"
				},
				{
					"internalType": "uint256",
					"name": "",
					"type": "uint256"
				},
				{
					"internalType": "uint256",
					"name": "",
					"type": "uint256"
				},
				{
					"internalType": "bytes",
					"name": "",
					"type": "bytes"
				}
			],
			"name": "onERC1155Received",
			"outputs": [
				{
					"internalType": "bytes4",
					"name": "",
					"type": "bytes4"
				}
			],
			"stateMutability": "pure",
			"type": "function"
		},
		{
			"inputs": [
				{
					"internalType": "address",
					"name": "",
					"type": "address"
				},
				{
					"internalType": "address",
					"name": "",
					"type": "address"
				},
				{
					"internalType": "uint256",
					"name": "",
					"type": "uint256"
				},
				{
					"internalType": "bytes",
					"name": "",
					"type": "bytes"
				}
			],
			"name": "onERC721Received",
			"outputs": [
				{
					"internalType": "bytes4",
					"name": "",
					"type": "bytes4"
				}
			],
			"stateMutability": "nonpayable",
			"type": "function"
		},
		{
			"inputs": [],
			"name": "query_isLocked",
			"outputs": [
				{
					"internalType": "bool",
					"name": "",
					"type": "bool"
				}
			],
			"stateMutability": "view",
			"type": "function"
		},
		{
			"inputs": [
				{
					"internalType": "uint256",
					"name": "_id",
					"type": "uint256"
				},
				{
					"internalType": "address",
					"name": "_address",
					"type": "address"
				}
			],
			"name": "query_isNFTOwner",
			"outputs": [
				{
					"internalType": "bool",
					"name": "",
					"type": "bool"
				}
			],
			"stateMutability": "view",
			"type": "function"
		},
		{
			"inputs": [
				{
					"internalType": "address",
					"name": "_address",
					"type": "address"
				}
			],
			"name": "query_isOwnerAddress",
			"outputs": [
				{
					"internalType": "bool",
					"name": "",
					"type": "bool"
				}
			],
			"stateMutability": "view",
			"type": "function"
		},
		{
			"inputs": [
				{
					"internalType": "address",
					"name": "_address",
					"type": "address"
				}
			],
			"name": "query_isOwnerSuccessorAddress",
			"outputs": [
				{
					"internalType": "bool",
					"name": "",
					"type": "bool"
				}
			],
			"stateMutability": "view",
			"type": "function"
		},
		{
			"inputs": [
				{
					"internalType": "uint256",
					"name": "",
					"type": "uint256"
				},
				{
					"internalType": "uint256",
					"name": "salePrice",
					"type": "uint256"
				}
			],
			"name": "royaltyInfo",
			"outputs": [
				{
					"internalType": "address",
					"name": "receiver",
					"type": "address"
				},
				{
					"internalType": "uint256",
					"name": "royaltyAmount",
					"type": "uint256"
				}
			],
			"stateMutability": "view",
			"type": "function"
		},
		{
			"inputs": [
				{
					"internalType": "address",
					"name": "from",
					"type": "address"
				},
				{
					"internalType": "address",
					"name": "to",
					"type": "address"
				},
				{
					"internalType": "uint256[]",
					"name": "ids",
					"type": "uint256[]"
				},
				{
					"internalType": "uint256[]",
					"name": "amounts",
					"type": "uint256[]"
				},
				{
					"internalType": "bytes",
					"name": "data",
					"type": "bytes"
				}
			],
			"name": "safeBatchTransferFrom",
			"outputs": [],
			"stateMutability": "nonpayable",
			"type": "function"
		},
		{
			"inputs": [
				{
					"internalType": "address",
					"name": "from",
					"type": "address"
				},
				{
					"internalType": "address",
					"name": "to",
					"type": "address"
				},
				{
					"internalType": "uint256",
					"name": "id",
					"type": "uint256"
				},
				{
					"internalType": "uint256",
					"name": "amount",
					"type": "uint256"
				},
				{
					"internalType": "bytes",
					"name": "data",
					"type": "bytes"
				}
			],
			"name": "safeTransferFrom",
			"outputs": [],
			"stateMutability": "nonpayable",
			"type": "function"
		},
		{
			"inputs": [
				{
					"internalType": "address",
					"name": "operator",
					"type": "address"
				},
				{
					"internalType": "bool",
					"name": "approved",
					"type": "bool"
				}
			],
			"name": "setApprovalForAll",
			"outputs": [],
			"stateMutability": "nonpayable",
			"type": "function"
		},
		{
			"inputs": [
				{
					"internalType": "address",
					"name": "_royaltyAddress",
					"type": "address"
				}
			],
			"name": "set_royaltyAddress",
			"outputs": [],
			"stateMutability": "nonpayable",
			"type": "function"
		},
		{
			"inputs": [
				{
					"internalType": "uint256",
					"name": "_royaltyBasisPoints",
					"type": "uint256"
				}
			],
			"name": "set_royaltyBasisPoints",
			"outputs": [],
			"stateMutability": "nonpayable",
			"type": "function"
		},
		{
			"inputs": [
				{
					"internalType": "string",
					"name": "_storeDescription",
					"type": "string"
				}
			],
			"name": "set_storeDescription",
			"outputs": [],
			"stateMutability": "nonpayable",
			"type": "function"
		},
		{
			"inputs": [
				{
					"internalType": "string",
					"name": "_storeExternalLinkURI",
					"type": "string"
				}
			],
			"name": "set_storeExternalLinkURI",
			"outputs": [],
			"stateMutability": "nonpayable",
			"type": "function"
		},
		{
			"inputs": [
				{
					"internalType": "string",
					"name": "_storeImageURI",
					"type": "string"
				}
			],
			"name": "set_storeImageURI",
			"outputs": [],
			"stateMutability": "nonpayable",
			"type": "function"
		},
		{
			"inputs": [
				{
					"internalType": "string",
					"name": "_storeName",
					"type": "string"
				}
			],
			"name": "set_storeName",
			"outputs": [],
			"stateMutability": "nonpayable",
			"type": "function"
		},
		{
			"inputs": [
				{
					"internalType": "bytes4",
					"name": "interfaceId",
					"type": "bytes4"
				}
			],
			"name": "supportsInterface",
			"outputs": [
				{
					"internalType": "bool",
					"name": "",
					"type": "bool"
				}
			],
			"stateMutability": "view",
			"type": "function"
		},
		{
			"inputs": [
				{
					"internalType": "address",
					"name": "operator",
					"type": "address"
				},
				{
					"internalType": "address",
					"name": "from",
					"type": "address"
				},
				{
					"internalType": "address",
					"name": "to",
					"type": "address"
				},
				{
					"internalType": "uint256",
					"name": "amount",
					"type": "uint256"
				},
				{
					"internalType": "bytes",
					"name": "userData",
					"type": "bytes"
				},
				{
					"internalType": "bytes",
					"name": "operatorData",
					"type": "bytes"
				}
			],
			"name": "tokensReceived",
			"outputs": [],
			"stateMutability": "nonpayable",
			"type": "function"
		},
		{
			"inputs": [
				{
					"internalType": "address",
					"name": "operator",
					"type": "address"
				},
				{
					"internalType": "address",
					"name": "from",
					"type": "address"
				},
				{
					"internalType": "address",
					"name": "to",
					"type": "address"
				},
				{
					"internalType": "uint256",
					"name": "amount",
					"type": "uint256"
				},
				{
					"internalType": "bytes",
					"name": "userData",
					"type": "bytes"
				},
				{
					"internalType": "bytes",
					"name": "operatorData",
					"type": "bytes"
				}
			],
			"name": "tokensToSend",
			"outputs": [],
			"stateMutability": "nonpayable",
			"type": "function"
		},
		{
			"inputs": [
				{
					"internalType": "uint256",
					"name": "id",
					"type": "uint256"
				}
			],
			"name": "uri",
			"outputs": [
				{
					"internalType": "string",
					"name": "",
					"type": "string"
				}
			],
			"stateMutability": "view",
			"type": "function"
		},
		{
			"inputs": [
				{
					"internalType": "uint256",
					"name": "_value",
					"type": "uint256"
				}
			],
			"name": "withdraw_coins",
			"outputs": [],
			"stateMutability": "nonpayable",
			"type": "function"
		},
		{
			"inputs": [
				{
					"internalType": "address",
					"name": "_tokenAddress",
					"type": "address"
				},
				{
					"internalType": "uint256",
					"name": "_id",
					"type": "uint256"
				},
				{
					"internalType": "uint256",
					"name": "_value",
					"type": "uint256"
				},
				{
					"internalType": "bytes",
					"name": "_data",
					"type": "bytes"
				}
			],
			"name": "withdraw_erc1155Tokens",
			"outputs": [],
			"stateMutability": "nonpayable",
			"type": "function"
		},
		{
			"inputs": [
				{
					"internalType": "address",
					"name": "_tokenAddress",
					"type": "address"
				},
				{
					"internalType": "uint256",
					"name": "_value",
					"type": "uint256"
				}
			],
			"name": "withdraw_erc20Tokens",
			"outputs": [],
			"stateMutability": "nonpayable",
			"type": "function"
		},
		{
			"inputs": [
				{
					"internalType": "address",
					"name": "_tokenAddress",
					"type": "address"
				},
				{
					"internalType": "uint256",
					"name": "_id",
					"type": "uint256"
				}
			],
			"name": "withdraw_erc721Tokens",
			"outputs": [],
			"stateMutability": "nonpayable",
			"type": "function"
		},
		{
			"inputs": [
				{
					"internalType": "address",
					"name": "_tokenAddress",
					"type": "address"
				},
				{
					"internalType": "uint256",
					"name": "_value",
					"type": "uint256"
				},
				{
					"internalType": "bytes",
					"name": "_data",
					"type": "bytes"
				}
			],
			"name": "withdraw_erc777Tokens",
			"outputs": [],
			"stateMutability": "nonpayable",
			"type": "function"
		},
		{
			"stateMutability": "payable",
			"type": "receive"
		}
	]
}