{
	"data": {
		"bytecode": {
			"linkReferences": {},
			"object": "60806040526200000f336200012f565b600180546001600160a01b03191633179055600280546001600160a01b031916301790556200003f61012c600355565b620000a16040518060400160405280601b81526020017f42696e616e636520536d61727420436861696e20546573746e657400000000008152506040516020016200008b91906200074d565b60408051601f198184030181529190526200019d565b620000c56040518060600160405280603781526020016200517c60379139620001af565b620000e9604051806080016040528060568152602001620051b360569139620001bd565b6200010d6040518060600160405280603281526020016200514a60329139620001cb565b604080516000815260208101909152620001283382620001d9565b5062000bae565b6000546001600160a01b038281169116146200019a57600080546040516001600160a01b03808516939216917fb532073b38c83145e3e5135377a08bf9aab55bc0fd7c1179cd4fb995d2a5159c91a3600080546001600160a01b0319166001600160a01b0383161790555b50565b6007620001ab828262000840565b5050565b6004620001ab828262000840565b6006620001ab828262000840565b6005620001ab828262000840565b6000620001e860038062000922565b620001f590600162000942565b6001600160401b038111156200020f576200020f6200079f565b60405190808252806020026020018201604052801562000239578160200160208202803683370190505b50905060006200024b60038062000922565b6200025890600162000942565b6001600160401b038111156200027257620002726200079f565b6040519080825280602002602001820160405280156200029c578160200160208202803683370190505b509050600080838281518110620002b757620002b762000958565b6020026020010181815250506001828281518110620002da57620002da62000958565b6020908102919091018101919091526000828152600b825260408082206001600160a01b038916808452908452818320600190558483526009909352902080546001600160a01b03191690911790556040805160a08101825261270f808252602080830191825260008385018181526060850182815260808601838152888452600890945295822094518555925160018501559151600290930180549451915160ff908116620100000262ff0000199382166101000261ffff1990971695909116949094179490941716919091179091555b6003811015620005005760005b6003811015620004ea5782620003cf816200096e565b93505082858481518110620003e857620003e862000958565b60200260200101818152505060018484815181106200040b576200040b62000958565b6020908102919091018101919091526000848152600b825260408082206001600160a01b038b16808452908452818320600190558683526009909352902080546001600160a01b03191690911790556040805160a0810182528281526020808201858152600083850181815260608501828152608086018381528a8452600890955295909120935184559051600184015551600290920180549351915160ff908116620100000262ff0000199382166101000261ffff199096169490911693909317939093171617905580620004e1816200096e565b915050620003b9565b5080620004f7816200096e565b915050620003ac565b50604051339060009082907f4a39dc06d4c0dbc64b70af90fd698a233a518aa5d07e595d983b8c0526c8f7fb906200053c9088908890620009c7565b60405180910390a462000555336000818686896200055c565b5050505050565b6001600160a01b0384163b156200071f5760405163bc197c8160e01b81526001600160a01b0385169063bc197c8190620005a3908990899088908890889060040162000a27565b6020604051808303816000875af1925050508015620005e1575060408051601f3d908101601f19168201909252620005de9181019062000a8b565b60015b620006aa57620005f062000abe565b806308c379a0036200063957506200060762000b0a565b806200061457506200063b565b8060405162461bcd60e51b815260040162000630919062000b99565b60405180910390fd5b505b60405162461bcd60e51b815260206004820152603460248201527f455243313135353a207472616e7366657220746f206e6f6e2d4552433131353560448201527f526563656976657220696d706c656d656e746572000000000000000000000000606482015260840162000630565b6001600160e01b0319811663bc197c8160e01b146200071d5760405162461bcd60e51b815260206004820152602860248201527f455243313135353a204552433131353552656365697665722072656a656374656044820152676420746f6b656e7360c01b606482015260840162000630565b505b505050505050565b60005b83811015620007445781810151838201526020016200072a565b50506000910152565b7f506978656c205069637461736961204e465420436f6c6c656374696f6e2028008152600082516200078781601f85016020870162000727565b602960f81b601f939091019283015250602001919050565b634e487b7160e01b600052604160045260246000fd5b600181811c90821680620007ca57607f821691505b602082108103620007eb57634e487b7160e01b600052602260045260246000fd5b50919050565b601f8211156200083b57600081815260208120601f850160051c810160208610156200081a5750805b601f850160051c820191505b818110156200071f5782815560010162000826565b505050565b81516001600160401b038111156200085c576200085c6200079f565b62000874816200086d8454620007b5565b84620007f1565b602080601f831160018114620008ac5760008415620008935750858301515b600019600386901b1c1916600185901b1785556200071f565b600085815260208120601f198616915b82811015620008dd57888601518255948401946001909101908401620008bc565b5085821015620008fc5787850151600019600388901b60f8161c191681555b5050505050600190811b01905550565b634e487b7160e01b600052601160045260246000fd5b80820281158282048414176200093c576200093c6200090c565b92915050565b808201808211156200093c576200093c6200090c565b634e487b7160e01b600052603260045260246000fd5b6000600182016200098357620009836200090c565b5060010190565b600081518084526020808501945080840160005b83811015620009bc578151875295820195908201906001016200099e565b509495945050505050565b604081526000620009dc60408301856200098a565b8281036020840152620009f081856200098a565b95945050505050565b6000815180845262000a1381602086016020860162000727565b601f01601f19169290920160200192915050565b6001600160a01b0386811682528516602082015260a06040820181905260009062000a55908301866200098a565b828103606084015262000a6981866200098a565b9050828103608084015262000a7f8185620009f9565b98975050505050505050565b60006020828403121562000a9e57600080fd5b81516001600160e01b03198116811462000ab757600080fd5b9392505050565b600060033d111562000ad85760046000803e5060005160e01c5b90565b601f8201601f191681016001600160401b038111828210171562000b035762000b036200079f565b6040525050565b600060443d101562000b195790565b6040516003193d81016004833e81513d6001600160401b03808311602484018310171562000b4957505050505090565b828501915081518181111562000b625750505050505090565b843d870101602082850101111562000b7d5750505050505090565b62000b8e6020828601018762000adb565b509095945050505050565b60208152600062000ab76020830184620009f9565b61458c8062000bbe6000396000f3fe6080604052600436106102745760003560e01c806370dbf9111161014f578063b76a10ca116100c1578063e8a3d4851161007a578063e8a3d485146107a6578063e985e9c5146107bb578063ed88c68e14610280578063f23a6e61146107db578063f242432a14610807578063f5da96dc1461082757610280fe5b8063b76a10ca146106e5578063b7bf707014610705578063bc197c8114610725578063c4e8d5ed14610751578063d319aa3014610771578063dbd3cfcd1461078657610280fe5b8063913724561161011357806391372456146106325780639cd6e66614610650578063a22cb46514610670578063affe639f14610690578063b2828496146106b0578063b4d9b973146106d057610280fe5b806370dbf911146105b257806375ab9782146102825780637a1e26ee146105d25780637f0f543c146105f2578063811d678e1461061257610280fe5b80632eb2c2d6116101e85780634f61b3ae116101ac5780634f61b3ae146104f1578063503d7fe41461051057806358f026f0146105305780636315aa451461054557806363dd5ee51461056557806364e847f91461059257610280fe5b80632eb2c2d61461045a57806341931a2f1461047a57806343f22eda1461048f578063453a2dbf146104af5780634e1273f4146104c457610280fe5b8063150b7a021161023a578063150b7a021461035757806320a025d41461039b578063249cb3fa146103bb5780632a55205a146103db5780632aa4ada01461041a5780632e66ccf51461043a57610280fe5b806223de2914610282578062fdd58e146102a757806301ffc9a7146102da57806309f003b41461030a5780630e89341c1461032a57610280fe5b3661027b57005b610280fe5b005b34801561028e57600080fd5b5061028061029d366004613238565b5050505050505050565b3480156102b357600080fd5b506102c76102c23660046132e2565b610847565b6040519081526020015b60405180910390f35b3480156102e657600080fd5b506102fa6102f5366004613322565b6108e2565b60405190151581526020016102d1565b34801561031657600080fd5b5061028061032536600461333f565b610958565b34801561033657600080fd5b5061034a61034536600461333f565b61097d565b6040516102d191906133a8565b34801561036357600080fd5b5061038261037236600461348a565b630a85bd0160e11b949350505050565b6040516001600160e01b031990911681526020016102d1565b3480156103a757600080fd5b506102806103b63660046134f1565b610a20565b3480156103c757600080fd5b506102c76103d6366004613541565b610a3a565b3480156103e757600080fd5b506103fb6103f6366004613564565b610ad0565b604080516001600160a01b0390931683526020830191909152016102d1565b34801561042657600080fd5b506102806104353660046132e2565b610b06565b34801561044657600080fd5b5061028061045536600461333f565b610b2e565b34801561046657600080fd5b5061028061047536600461361a565b610b49565b34801561048657600080fd5b50610280610d71565b34801561049b57600080fd5b5061034a6104aa36600461333f565b610d95565b3480156104bb57600080fd5b5061034a610da0565b3480156104d057600080fd5b506104e46104df3660046136c3565b610daf565b6040516102d191906137c8565b3480156104fd57600080fd5b50600154600160a01b900460ff166102fa565b34801561051c57600080fd5b506102fa61052b3660046137db565b610ed8565b34801561053c57600080fd5b506102c7610ee3565b34801561055157600080fd5b506102806105603660046134f1565b610eee565b34801561057157600080fd5b5061057a610f08565b6040516001600160a01b0390911681526020016102d1565b34801561059e57600080fd5b506102806105ad3660046134f1565b610f1c565b3480156105be57600080fd5b506102806105cd366004613807565b610f36565b3480156105de57600080fd5b506102806105ed3660046137db565b610f62565b3480156105fe57600080fd5b5061034a61060d36600461333f565b610f93565b34801561061e57600080fd5b5061028061062d3660046134f1565b610f9e565b34801561063e57600080fd5b506000546001600160a01b031661057a565b34801561065c57600080fd5b506102fa61066b3660046137db565b610fb8565b34801561067c57600080fd5b5061028061068b366004613862565b610fc3565b34801561069c57600080fd5b5061034a6106ab36600461333f565b611099565b3480156106bc57600080fd5b506102806106cb366004613899565b6110a4565b3480156106dc57600080fd5b506102806110ce565b3480156106f157600080fd5b506102806107003660046132e2565b6110e1565b34801561071157600080fd5b506102fa610720366004613541565b6110fd565b34801561073157600080fd5b5061038261074036600461361a565b63bc197c8160e01b95945050505050565b34801561075d57600080fd5b5061057a61076c36600461333f565b611122565b34801561077d57600080fd5b5061057a61113f565b34801561079257600080fd5b506102806107a13660046137db565b611153565b3480156107b257600080fd5b5061034a611186565b3480156107c757600080fd5b506102fa6107d63660046138ef565b611211565b3480156107e757600080fd5b506103826107f6366004613919565b63f23a6e6160e01b95945050505050565b34801561081357600080fd5b50610280610822366004613919565b61123f565b34801561083357600080fd5b5061028061084236600461397d565b611399565b60006001600160a01b0383166108b75760405162461bcd60e51b815260206004820152602a60248201527f455243313135353a2061646472657373207a65726f206973206e6f742061207660448201526930b634b21037bbb732b960b11b60648201526084015b60405180910390fd5b506000818152600b602090815260408083206001600160a01b03861684529091529020545b92915050565b60006001600160e01b031982166301ffc9a760e01b148061091357506001600160e01b03198216636cdb3d1360e11b145b8061092e57506001600160e01b031982166303a24d0760e21b145b8061094957506001600160e01b0319821663152a902d60e11b145b806108dc57506108dc826113b7565b610960611458565b61096933611479565b61097281600355565b61097a6110d7565b50565b6060600061098a836114c5565b90506000610997846114f6565b905060006109a485611626565b905060008383836040516020016109bd939291906139c5565b60405160208183030381529060405290506109f6816040516020016109e29190613a65565b604051602081830303815290604052611666565b604051602001610a069190613a81565b604051602081830303815290604052945050505050919050565b610a28611458565b610a3133611479565b610972816117b8565b60006001600160a01b03821630148015610a9c57507fb281fc8c12954d22544db45de3159a39272895b169a852b314f9cc762e44c53b831480610a9c57507f29ddb589b1fb5fc7cf394961c1adf5f8c6454761adf795e67fe149f658abe89583145b15610ac857507fa2ef4600d742022d532d4747cb3547474667d6f13804902513b2ec01c848f4b46108dc565b5060006108dc565b6002546003546001600160a01b039091169060009061271090610af39085613adc565b610afd9190613b09565b90509250929050565b610b0e611458565b610b1733611479565b610b228233836117c4565b610b2a6110d7565b5050565b610b36611458565b610b3f33611479565b6109723382611939565b6001600160a01b038416610b6f5760405162461bcd60e51b81526004016108ae90613b1d565b6001600160a01b038516331480610b8b5750610b8b8533611211565b610ba75760405162461bcd60e51b81526004016108ae90613b62565b8151835114610c095760405162461bcd60e51b815260206004820152602860248201527f455243313135353a2069647320616e6420616d6f756e7473206c656e677468206044820152670dad2e6dac2e8c6d60c31b60648201526084016108ae565b60005b8351811015610d04576000848281518110610c2957610c29613bb0565b602002602001015190506000848381518110610c4757610c47613bb0565b6020908102919091018101516000848152600b835260408082206001600160a01b038d168352909352919091205490915081811015610c985760405162461bcd60e51b81526004016108ae90613bc6565b610ca28282613c10565b6000848152600b602090815260408083206001600160a01b038e811685529252808320939093558a1681529081208054849290610ce0908490613c23565b90915550610cf09050838961196f565b50505080610cfd90613c36565b9050610c0c565b50836001600160a01b0316856001600160a01b0316336001600160a01b03167f4a39dc06d4c0dbc64b70af90fd698a233a518aa5d07e595d983b8c0526c8f7fb8686604051610d54929190613c4f565b60405180910390a4610d6a33868686868661199d565b5050505050565b610d79611458565b610d8233611b01565b610d8b33611b4d565b610d936110d7565b565b60606108dc82611b56565b6060610daa611b61565b905090565b60608151835114610e145760405162461bcd60e51b815260206004820152602960248201527f455243313135353a206163636f756e747320616e6420696473206c656e677468604482015268040dad2e6dac2e8c6d60bb1b60648201526084016108ae565b600083516001600160401b03811115610e2f57610e2f6133bb565b604051908082528060200260200182016040528015610e58578160200160208202803683370190505b50905060005b8451811015610ed057610ea3858281518110610e7c57610e7c613bb0565b6020026020010151858381518110610e9657610e96613bb0565b6020026020010151610847565b828281518110610eb557610eb5613bb0565b6020908102919091010152610ec981613c36565b9050610e5e565b509392505050565b60006108dc82611b6b565b6000610daa60035490565b610ef6611458565b610eff33611479565b61097281611b9a565b6000610daa6002546001600160a01b031690565b610f24611458565b610f2d33611479565b61097281611ba6565b610f3e611458565b610f488433611bb2565b610f5484848484611c27565b610f5c6110d7565b50505050565b610f6a611458565b610f7333611479565b600280546001600160a01b0319166001600160a01b038316179055610972565b60606108dc82611c6b565b610fa6611458565b610faf33611479565b61097281611c76565b60006108dc82611c82565b6001600160a01b038216330361102d5760405162461bcd60e51b815260206004820152602960248201527f455243313135353a2073657474696e6720617070726f76616c20737461747573604482015268103337b91039b2b63360b91b60648201526084016108ae565b336000818152600a602090815260408083206001600160a01b03871680855290835292819020805460ff191686151590811790915590519081529192917f17307eab39ab6107e8899845ad3d59bd9653f200f220920489ca2b5937696c31910160405180910390a35050565b60606108dc82611c94565b6110ac611458565b6110b533611479565b6110c183338484611c9f565b6110c96110d7565b505050565b6110d733611479565b610d936000611e25565b6110e9611458565b6110f233611479565b610b22828233611e43565b6000828152600960205260408120546001600160a01b038381169116145b9392505050565b6000818152600960205260408120546001600160a01b03166108dc565b6000610daa6001546001600160a01b031690565b61115b611458565b61116433611479565b61097281600180546001600160a01b0319166001600160a01b03831617905550565b60606000600760046006600561119d600354611fbe565b6002546111b2906001600160a01b03166120e9565b6040516020016111c796959493929190613d2a565b60405160208183030381529060405290506111ec816040516020016109e29190613a65565b6040516020016111fc9190613a81565b60405160208183030381529060405291505090565b6001600160a01b039182166000908152600a6020908152604080832093909416825291909152205460ff1690565b6001600160a01b0384166112655760405162461bcd60e51b81526004016108ae90613b1d565b6001600160a01b03851633148061128157506112818533611211565b61129d5760405162461bcd60e51b81526004016108ae90613b62565b6000838152600b602090815260408083206001600160a01b0389168452909152902054828110156112e05760405162461bcd60e51b81526004016108ae90613bc6565b6112ea8382613c10565b6000858152600b602090815260408083206001600160a01b038b81168552925280832093909355871681529081208054859290611328908490613c23565b909155506113389050848661196f565b60408051858152602081018590526001600160a01b03808816929089169133917fc3d58168c5ae7397731d063d5bbf3d657854427343f4c083240f7aacaa2d0f62910160405180910390a46113913387878787876120f4565b505050505050565b6113a1611458565b6113aa33611479565b610f5484843385856121af565b60006001600160e01b031982166301ffc9a760e01b14806113e857506001600160e01b03198216630a85bd0160e11b145b8061140257506001600160e01b031982166223de2960e01b145b8061141d57506001600160e01b03198216633ad5cbc160e11b145b8061143857506001600160e01b03198216630271189760e51b145b806108dc57506001600160e01b0319821663124e59fd60e11b1492915050565b600154600160a01b900460ff161561146f5761146ffe5b610d936001611e25565b61148281611c82565b61097a57806114996000546001600160a01b031690565b604051630daa808360e01b81526001600160a01b039283166004820152911660248201526044016108ae565b60606114d082611fbe565b6040516020016114e09190613e42565b6040516020818303038152906040529050919050565b60608160000361152e5750506040805180820190915260128152712a34329031bab93932b73a1034b6b0b3b29760711b602082015290565b600182101580156115495750611545600380613adc565b8211155b156115fb576000828152600860209081526040808320815160a081018352815480825260018301549482019490945260029091015460ff80821693830193909352610100810483166060830152620100009004909116608082015291906115af90611fbe565b905060006115c08360200151611fbe565b905060006115e4846040015160ff16856060015160ff16866080015160ff16612339565b9050828282604051602001610a0693929190613e7e565b505060408051808201909152600a81526928556e6d696e7465642960b01b602082015290565b919050565b606081600003611638576108dc6125a5565b611643600380613adc565b8211611652576108dc82612998565b505060408051602081019091526000815290565b6060815160000361168557505060408051602081019091526000815290565b600060405180606001604052806040815260200161451760409139905060006003845160026116b49190613c23565b6116be9190613b09565b6116c9906004613adc565b6001600160401b038111156116e0576116e06133bb565b6040519080825280601f01601f19166020018201604052801561170a576020820181803683370190505b509050600182016020820185865187015b80821015611776576003820191508151603f8160121c168501518453600184019350603f81600c1c168501518453600184019350603f8160061c168501518453600184019350603f811685015184535060018301925061171b565b505060038651066001811461179257600281146117a5576117ad565b603d6001830353603d60028303536117ad565b603d60018303535b509195945050505050565b6006610b2a8282613f43565b826001600160a01b03163b60000361181e5760405162461bcd60e51b815260206004820152601760248201527f4552433230546f6b656e436f6e74726163744572726f7200000000000000000060448201526064016108ae565b604080516001600160a01b038481166024830152604480830185905283518084039091018152606490920183526020820180516001600160e01b031663a9059cbb60e01b17905291519091600091829187169061187c908590613a65565b6000604051808303816000865af19150503d80600081146118b9576040519150601f19603f3d011682016040523d82523d6000602084013e6118be565b606091505b50915091508115806118ec57508051158015906118ec5750808060200190518101906118ea9190614002565b155b156113915760405162461bcd60e51b815260206004820152601760248201527f4552433230546f6b656e5472616e736665724572726f7200000000000000000060448201526064016108ae565b6040516001600160a01b0383169082156108fc029083906000818181858888f193505050501580156110c9573d6000803e3d6000fd5b60009182526009602052604090912080546001600160a01b0319166001600160a01b03909216919091179055565b6001600160a01b0384163b156113915760405163bc197c8160e01b81526001600160a01b0385169063bc197c81906119e1908990899088908890889060040161401f565b6020604051808303816000875af1925050508015611a1c575060408051601f3d908101601f19168201909252611a199181019061407d565b60015b611ac857611a2861409a565b806308c379a003611a615750611a3c6140b6565b80611a475750611a63565b8060405162461bcd60e51b81526004016108ae91906133a8565b505b60405162461bcd60e51b815260206004820152603460248201527f455243313135353a207472616e7366657220746f206e6f6e2d455243313135356044820152732932b1b2b4bb32b91034b6b83632b6b2b73a32b960611b60648201526084016108ae565b6001600160e01b0319811663bc197c8160e01b14611af85760405162461bcd60e51b81526004016108ae9061413f565b50505050505050565b611b0a81611b6b565b61097a5780611b216001546001600160a01b031690565b60405163549fbfe360e01b81526001600160a01b039283166004820152911660248201526044016108ae565b61097a81612c56565b60606108dc82611626565b6060610daa611186565b6000611b7f6001546001600160a01b031690565b6001600160a01b0316826001600160a01b0316149050919050565b6004610b2a8282613f43565b6007610b2a8282613f43565b6000828152600960205260409020546001600160a01b03828116911614610b2a578181611bf4846000908152600960205260409020546001600160a01b031690565b60405163b81a31ab60e01b815260048101939093526001600160a01b0391821660248401521660448201526064016108ae565b6000848152600860205260409020600201805460ff80861661ffff1990921691909117610100828616021762ff000019166201000091841691909102179055610f5c565b60606108dc826114c5565b6005610b2a8282613f43565b600080546001600160a01b0316611b7f565b60606108dc826114f6565b836001600160a01b03163b600003611cf95760405162461bcd60e51b815260206004820152601860248201527f455243373737546f6b656e436f6e74726163744572726f72000000000000000060448201526064016108ae565b6000639bd9bbc660e01b848484604051602401611d1893929190614187565b604051602081830303815290604052906001600160e01b0319166020820180516001600160e01b0383818316178352505050509050600080866001600160a01b031683604051611d689190613a65565b6000604051808303816000865af19150503d8060008114611da5576040519150601f19603f3d011682016040523d82523d6000602084013e611daa565b606091505b5091509150811580611dd85750805115801590611dd8575080806020019051810190611dd69190614002565b155b15611af85760405162461bcd60e51b815260206004820152601860248201527f455243373737546f6b656e5472616e736665724572726f72000000000000000060448201526064016108ae565b60018054911515600160a01b0260ff60a01b19909216919091179055565b826001600160a01b03163b600003611e9d5760405162461bcd60e51b815260206004820152601860248201527f455243373231546f6b656e436f6e74726163744572726f72000000000000000060448201526064016108ae565b604080513060248201526001600160a01b038381166044830152606480830186905283518084039091018152608490920183526020820180516001600160e01b03166323b872dd60e01b179052915190916000918291871690611f01908590613a65565b6000604051808303816000865af19150503d8060008114611f3e576040519150601f19603f3d011682016040523d82523d6000602084013e611f43565b606091505b5091509150811580611f715750805115801590611f71575080806020019051810190611f6f9190614002565b155b156113915760405162461bcd60e51b815260206004820152601860248201527f455243373231546f6b656e5472616e736665724572726f72000000000000000060448201526064016108ae565b606081600003611fe55750506040805180820190915260018152600360fc1b602082015290565b8160005b811561200f5780611ff981613c36565b91506120089050600a83613b09565b9150611fe9565b6000816001600160401b03811115612029576120296133bb565b6040519080825280601f01601f191660200182016040528015612053576020820181803683370190505b509050815b85156120e057612069600182613c10565b90506000612078600a88613b09565b61208390600a613adc565b61208d9088613c10565b6120989060306141ae565b905060008160f81b9050808484815181106120b5576120b5613bb0565b60200101906001600160f81b031916908160001a9053506120d7600a89613b09565b97505050612058565b50949350505050565b60606108dc82612cc4565b6001600160a01b0384163b156113915760405163f23a6e6160e01b81526001600160a01b0385169063f23a6e619061213890899089908890889088906004016141c7565b6020604051808303816000875af1925050508015612173575060408051601f3d908101601f191682019092526121709181019061407d565b60015b61217f57611a2861409a565b6001600160e01b0319811663f23a6e6160e01b14611af85760405162461bcd60e51b81526004016108ae9061413f565b846001600160a01b03163b6000036122095760405162461bcd60e51b815260206004820152601960248201527f45524331313535546f6b656e436f6e74726163744572726f720000000000000060448201526064016108ae565b600063f242432a60e01b308587868660405160240161222c9594939291906141c7565b604051602081830303815290604052906001600160e01b0319166020820180516001600160e01b0383818316178352505050509050600080876001600160a01b03168360405161227c9190613a65565b6000604051808303816000865af19150503d80600081146122b9576040519150601f19603f3d011682016040523d82523d6000602084013e6122be565b606091505b50915091508115806122ec57508051158015906122ec5750808060200190518101906122ea9190614002565b155b1561029d5760405162461bcd60e51b815260206004820152601960248201527f45524331313535546f6b656e5472616e736665724572726f720000000000000060448201526064016108ae565b60408051600780825281830190925260609160009190602082018180368337019050509050602360f81b8160008151811061237657612376613bb0565b60200101906001600160f81b031916908160001a9053506f181899199a1a9b1b9c1ca0a121a222a360811b60048660f016901c601081106123b9576123b9613bb0565b1a60f81b816001815181106123d0576123d0613bb0565b60200101906001600160f81b031916908160001a9053506f181899199a1a9b1b9c1ca0a121a222a360811b85600f166010811061240f5761240f613bb0565b1a60f81b8160028151811061242657612426613bb0565b60200101906001600160f81b031916908160001a9053506f181899199a1a9b1b9c1ca0a121a222a360811b60048560f016901c6010811061246957612469613bb0565b1a60f81b8160038151811061248057612480613bb0565b60200101906001600160f81b031916908160001a9053506f181899199a1a9b1b9c1ca0a121a222a360811b84600f16601081106124bf576124bf613bb0565b1a60f81b816004815181106124d6576124d6613bb0565b60200101906001600160f81b031916908160001a9053506f181899199a1a9b1b9c1ca0a121a222a360811b60048460f016901c6010811061251957612519613bb0565b1a60f81b8160058151811061253057612530613bb0565b60200101906001600160f81b031916908160001a9053506f181899199a1a9b1b9c1ca0a121a222a360811b83600f166010811061256f5761256f613bb0565b1a60f81b8160068151811061258657612586613bb0565b60200101906001600160f81b031916908160001a905350949350505050565b606060006003806125b68180613adc565b6125c09190613adc565b6125ca9190613adc565b905060006040518060600160405280836001600160401b038111156125f1576125f16133bb565b60405190808252806020026020018201604052801561261a578160200160208202803683370190505b508152602001836001600160401b03811115612638576126386133bb565b604051908082528060200260200182016040528015612661578160200160208202803683370190505b508152602001836001600160401b0381111561267f5761267f6133bb565b6040519080825280602002602001820160405280156126a8578160200160208202803683370190505b509052905060005b6126bb600380613adc565b8110156128c45760006008816126d2846001613c23565b815260208082019290925260409081016000908120825160a081018452815481526001820154948101949094526002015460ff808216938501939093526101008104831660608501526201000090049091166080830152909150612737600384613b09565b9050600061274660038561420c565b90506000612755600383613adc565b6003806127628187613adc565b61276c9190613adc565b6127769190613adc565b6127809190613c23565b905060005b60038110156128ac576000600361279c8184613adc565b6127a69190613adc565b905060005b6003811015612897576000816127c18487613c23565b6127cb9190613c23565b9050876040015160f81b8a6000015182815181106127eb576127eb613bb0565b60200260200101906001600160f81b03191690816001600160f81b03191681525050876060015160f81b8a60200151828151811061282b5761282b613bb0565b60200260200101906001600160f81b03191690816001600160f81b03191681525050876080015160f81b8a60400151828151811061286b5761286b613bb0565b6001600160f81b031990921660209283029190910190910152508061288f81613c36565b9150506127ab565b505080806128a490613c36565b915050612785565b505050505080806128bc90613c36565b9150506126b0565b50600073d9145cce52d386f254917e481eb44e9943f3913863f6d57f9e6128ec600380613adc565b6128f7600380613adc565b856040518463ffffffff1660e01b81526004016129169392919061425a565b600060405180830381865afa158015612933573d6000803e3d6000fd5b505050506040513d6000823e601f3d908101601f1916820160405261295b91908101906142bd565b9050612971816040516020016109e29190613a65565b604051602001612981919061433e565b604051602081830303815290604052935050505090565b606060006129a7600380613adc565b905060006040518060600160405280836001600160401b038111156129ce576129ce6133bb565b6040519080825280602002602001820160405280156129f7578160200160208202803683370190505b508152602001836001600160401b03811115612a1557612a156133bb565b604051908082528060200260200182016040528015612a3e578160200160208202803683370190505b508152602001836001600160401b03811115612a5c57612a5c6133bb565b604051908082528060200260200182016040528015612a85578160200160208202803683370190505b5090526000858152600860209081526040808320815160a081018352815481526001820154938101939093526002015460ff808216928401929092526101008104821660608401526201000090041660808201529192505b83811015612bae57816040015160f81b83600001518281518110612b0357612b03613bb0565b60200260200101906001600160f81b03191690816001600160f81b03191681525050816060015160f81b83602001518281518110612b4357612b43613bb0565b60200260200101906001600160f81b03191690816001600160f81b03191681525050816080015160f81b83604001518281518110612b8357612b83613bb0565b6001600160f81b03199092166020928302919091019091015280612ba681613c36565b915050612add565b50604051637b6abfcf60e11b815260009073d9145cce52d386f254917e481eb44e9943f391389063f6d57f9e90612bee906003908190889060040161425a565b600060405180830381865afa158015612c0b573d6000803e3d6000fd5b505050506040513d6000823e601f3d908101601f19168201604052612c3391908101906142bd565b50506040805180820190915260018152604160f81b602082015295945050505050565b6000546001600160a01b0382811691161461097a57600080546040516001600160a01b03808516939216917fb532073b38c83145e3e5135377a08bf9aab55bc0fd7c1179cd4fb995d2a5159c91a3600080546001600160a01b0383166001600160a01b031990911617905550565b60408051602880825260608281019093526108dc918491849183831b91600091906020820181803683370190505090506000806000806000806000612d088b612ea2565b905060005b6014811015612e7157612d21816013613c10565b612d2c906008613adc565b612d37906002614460565b612d459060608c901c613b09565b9750612d5260108961446c565b9650612d5f87601061448e565b612d6990896144b1565b955081612d77826002613adc565b60288110612d8757612d87613bb0565b6020020151945081612d9a826002613adc565b612da5906001613c23565b60288110612db557612db5613bb0565b60200201519350612dc68786613033565b9250612dd283886141ae565b60f81b89612de1836002613adc565b81518110612df157612df1613bb0565b60200101906001600160f81b031916908160001a905350612e128685613033565b9250612e1e83876141ae565b60f81b89612e2d836002613adc565b612e38906001613c23565b81518110612e4857612e48613bb0565b60200101906001600160f81b031916908160001a90535080612e6981613c36565b915050612d0d565b5087604051602001612e8391906144ca565b6040516020818303038152906040529950505050505050505050919050565b612eaa6131ba565b606082901b6000612eba82613060565b604051602001612eca9190613a65565b60405160208183030381529060405280519060200120905060008060008060005b6014811015613027576010878260148110612f0857612f08613bb0565b612f149291901a6144f4565b9350601084888360148110612f2b57612f2b613bb0565b612f379291901a6144b1565b612f41919061446c565b94506010868260208110612f5757612f57613bb0565b612f639291901a6144f4565b9150601082878360208110612f7a57612f7a613bb0565b612f869291901a6144b1565b612f90919061446c565b925060098560ff16118015612fa8575060078360ff16115b88612fb4836002613adc565b60288110612fc457612fc4613bb0565b91151560209092020152600960ff8516118015612fe4575060078260ff16115b88612ff0836002613adc565b612ffb906001613c23565b6028811061300b5761300b613bb0565b911515602090920201528061301f81613c36565b915050612eeb565b50505050505050919050565b6000600a8360ff161015613049575060306108dc565b8115613057575060376108dc565b50605792915050565b60408051602880825260608281019093526000919060208201818036833701905050905060008080805b60148110156131af5761309e816013613c10565b6130a9906008613adc565b6130b4906002614460565b6130c290606089901c613b09565b93506130cf60108561446c565b92506130dc83601061448e565b6130e690856144b1565b9150600a8360ff16106130fa5760576130fd565b60305b61310790846141ae565b60f81b85613116836002613adc565b8151811061312657613126613bb0565b60200101906001600160f81b031916908160001a905350600a8260ff161061314f576057613152565b60305b61315c90836141ae565b60f81b8561316b836002613adc565b613176906001613c23565b8151811061318657613186613bb0565b60200101906001600160f81b031916908160001a905350806131a781613c36565b91505061308a565b509295945050505050565b6040518061050001604052806028906020820280368337509192915050565b80356001600160a01b038116811461162157600080fd5b60008083601f84011261320257600080fd5b5081356001600160401b0381111561321957600080fd5b60208301915083602082850101111561323157600080fd5b9250929050565b60008060008060008060008060c0898b03121561325457600080fd5b61325d896131d9565b975061326b60208a016131d9565b965061327960408a016131d9565b95506060890135945060808901356001600160401b038082111561329c57600080fd5b6132a88c838d016131f0565b909650945060a08b01359150808211156132c157600080fd5b506132ce8b828c016131f0565b999c989b5096995094979396929594505050565b600080604083850312156132f557600080fd5b6132fe836131d9565b946020939093013593505050565b6001600160e01b03198116811461097a57600080fd5b60006020828403121561333457600080fd5b813561111b8161330c565b60006020828403121561335157600080fd5b5035919050565b60005b8381101561337357818101518382015260200161335b565b50506000910152565b60008151808452613394816020860160208601613358565b601f01601f19169290920160200192915050565b60208152600061111b602083018461337c565b634e487b7160e01b600052604160045260246000fd5b601f8201601f191681016001600160401b03811182821017156133f6576133f66133bb565b6040525050565b60006001600160401b03821115613416576134166133bb565b50601f01601f191660200190565b600061342f836133fd565b60405161343c82826133d1565b80925084815285858501111561345157600080fd5b8484602083013760006020868301015250509392505050565b600082601f83011261347b57600080fd5b61111b83833560208501613424565b600080600080608085870312156134a057600080fd5b6134a9856131d9565b93506134b7602086016131d9565b92506040850135915060608501356001600160401b038111156134d957600080fd5b6134e58782880161346a565b91505092959194509250565b60006020828403121561350357600080fd5b81356001600160401b0381111561351957600080fd5b8201601f8101841361352a57600080fd5b61353984823560208401613424565b949350505050565b6000806040838503121561355457600080fd5b82359150610afd602084016131d9565b6000806040838503121561357757600080fd5b50508035926020909101359150565b60006001600160401b0382111561359f5761359f6133bb565b5060051b60200190565b600082601f8301126135ba57600080fd5b813560206135c782613586565b6040516135d482826133d1565b83815260059390931b85018201928281019150868411156135f457600080fd5b8286015b8481101561360f57803583529183019183016135f8565b509695505050505050565b600080600080600060a0868803121561363257600080fd5b61363b866131d9565b9450613649602087016131d9565b935060408601356001600160401b038082111561366557600080fd5b61367189838a016135a9565b9450606088013591508082111561368757600080fd5b61369389838a016135a9565b935060808801359150808211156136a957600080fd5b506136b68882890161346a565b9150509295509295909350565b600080604083850312156136d657600080fd5b82356001600160401b03808211156136ed57600080fd5b818501915085601f83011261370157600080fd5b8135602061370e82613586565b60405161371b82826133d1565b83815260059390931b850182019282810191508984111561373b57600080fd5b948201945b8386101561376057613751866131d9565b82529482019490820190613740565b9650508601359250508082111561377657600080fd5b50613783858286016135a9565b9150509250929050565b600081518084526020808501945080840160005b838110156137bd578151875295820195908201906001016137a1565b509495945050505050565b60208152600061111b602083018461378d565b6000602082840312156137ed57600080fd5b61111b826131d9565b803560ff8116811461162157600080fd5b6000806000806080858703121561381d57600080fd5b8435935061382d602086016137f6565b925061383b604086016137f6565b9150613849606086016137f6565b905092959194509250565b801515811461097a57600080fd5b6000806040838503121561387557600080fd5b61387e836131d9565b9150602083013561388e81613854565b809150509250929050565b6000806000606084860312156138ae57600080fd5b6138b7846131d9565b92506020840135915060408401356001600160401b038111156138d957600080fd5b6138e58682870161346a565b9150509250925092565b6000806040838503121561390257600080fd5b61390b836131d9565b9150610afd602084016131d9565b600080600080600060a0868803121561393157600080fd5b61393a866131d9565b9450613948602087016131d9565b9350604086013592506060860135915060808601356001600160401b0381111561397157600080fd5b6136b68882890161346a565b6000806000806080858703121561399357600080fd5b61399c856131d9565b9350602085013592506040850135915060608501356001600160401b038111156134d957600080fd5b683d913730b6b2911d1160b91b815283516000906139ea816009850160208901613358565b71111610113232b9b1b934b83a34b7b7111d1160711b6009918401918201528451613a1c81601b840160208901613358565b6b1116101134b6b0b3b2911d1160a11b601b92909101918201528351613a49816027840160208801613358565b61227d60f01b6027929091019182015260290195945050505050565b60008251613a77818460208701613358565b9190910192915050565b7f646174613a6170706c69636174696f6e2f6a736f6e3b6261736536342c000000815260008251613ab981601d850160208701613358565b91909101601d0192915050565b634e487b7160e01b600052601160045260246000fd5b80820281158282048414176108dc576108dc613ac6565b634e487b7160e01b600052601260045260246000fd5b600082613b1857613b18613af3565b500490565b60208082526025908201527f455243313135353a207472616e7366657220746f20746865207a65726f206164604082015264647265737360d81b606082015260800190565b6020808252602e908201527f455243313135353a2063616c6c6572206973206e6f7420746f6b656e206f776e60408201526d195c881bdc88185c1c1c9bdd995960921b606082015260800190565b634e487b7160e01b600052603260045260246000fd5b6020808252602a908201527f455243313135353a20696e73756666696369656e742062616c616e636520666f60408201526939103a3930b739b332b960b11b606082015260800190565b818103818111156108dc576108dc613ac6565b808201808211156108dc576108dc613ac6565b600060018201613c4857613c48613ac6565b5060010190565b604081526000613c62604083018561378d565b8281036020840152613c74818561378d565b95945050505050565b600181811c90821680613c9157607f821691505b602082108103613cb157634e487b7160e01b600052602260045260246000fd5b50919050565b60008154613cc481613c7d565b60018281168015613cdc5760018114613cf157613d20565b60ff1984168752821515830287019450613d20565b8560005260208060002060005b85811015613d175781548a820152908401908201613cfe565b50505082870194505b5050505092915050565b683d913730b6b2911d1160b91b81526000613d486009830189613cb7565b71111610113232b9b1b934b83a34b7b7111d1160711b8152613d6d6012820189613cb7565b6b1116101134b6b0b3b2911d1160a11b81529050613d8e600c820188613cb7565b731116101132bc3a32b93730b62fb634b735911d1160611b81529050613db76014820187613cb7565b90507f222c202273656c6c65725f6665655f62617369735f706f696e7473223a00000081528451613def81601d840160208901613358565b721610113332b2afb932b1b4b834b2b73a111d1160691b601d92909101918201528351613e23816030840160208801613358565b61227d60f01b6030929091019182015260320198975050505050505050565b73506978656c205069637461736961204e4654202360601b815260008251613e71816014850160208701613358565b9190910160140192915050565b680a0ded2dce8407a40560bb1b815260008451613ea2816009850160208901613358565b600b60fa1b6009918401918201528451613ec381600a840160208901613358565b6b01490169696902923a1101e960a51b600a92909101918201528351613ef0816016840160208801613358565b0160160195945050505050565b601f8211156110c957600081815260208120601f850160051c81016020861015613f245750805b601f850160051c820191505b8181101561139157828155600101613f30565b81516001600160401b03811115613f5c57613f5c6133bb565b613f7081613f6a8454613c7d565b84613efd565b602080601f831160018114613fa55760008415613f8d5750858301515b600019600386901b1c1916600185901b178555611391565b600085815260208120601f198616915b82811015613fd457888601518255948401946001909101908401613fb5565b5085821015613ff25787850151600019600388901b60f8161c191681555b5050505050600190811b01905550565b60006020828403121561401457600080fd5b815161111b81613854565b6001600160a01b0386811682528516602082015260a06040820181905260009061404b9083018661378d565b828103606084015261405d818661378d565b90508281036080840152614071818561337c565b98975050505050505050565b60006020828403121561408f57600080fd5b815161111b8161330c565b600060033d11156140b35760046000803e5060005160e01c5b90565b600060443d10156140c45790565b6040516003193d81016004833e81513d6001600160401b0381602484011181841117156140f357505050505090565b828501915081518181111561410b5750505050505090565b843d87010160208285010111156141255750505050505090565b614134602082860101876133d1565b509095945050505050565b60208082526028908201527f455243313135353a204552433131353552656365697665722072656a656374656040820152676420746f6b656e7360c01b606082015260800190565b60018060a01b0384168152826020820152606060408201526000613c74606083018461337c565b60ff81811683821601908111156108dc576108dc613ac6565b6001600160a01b03868116825285166020820152604081018490526060810183905260a0608082018190526000906142019083018461337c565b979650505050505050565b60008261421b5761421b613af3565b500690565b600081518084526020808501945080840160005b838110156137bd5781516001600160f81b03191687529582019590820190600101614234565b838152826020820152606060408201526000825160608084015261428160c0840182614220565b90506020840151605f198085840301608086015261429f8383614220565b925060408601519150808584030160a0860152506142018282614220565b6000602082840312156142cf57600080fd5b81516001600160401b038111156142e557600080fd5b8201601f810184136142f657600080fd5b8051614301816133fd565b60405161430e82826133d1565b82815286602084860101111561432357600080fd5b614334836020830160208701613358565b9695505050505050565b7519185d184e9a5b5859d94bdc1b99ced8985cd94d8d0b60521b81526000825161436f816016850160208701613358565b9190910160160192915050565b600181815b808511156143b757816000190482111561439d5761439d613ac6565b808516156143aa57918102915b93841c9390800290614381565b509250929050565b6000826143ce575060016108dc565b816143db575060006108dc565b81600181146143f157600281146143fb57614417565b60019150506108dc565b60ff84111561440c5761440c613ac6565b50506001821b6108dc565b5060208310610133831016604e8410600b841016171561443a575081810a6108dc565b614444838361437c565b806000190482111561445857614458613ac6565b029392505050565b600061111b83836143bf565b600060ff83168061447f5761447f613af3565b8060ff84160491505092915050565b60ff81811683821602908116908181146144aa576144aa613ac6565b5092915050565b60ff82811682821603908111156108dc576108dc613ac6565b61060f60f31b8152600082516144e7816002850160208701613358565b9190910160020192915050565b600060ff83168061450757614507613af3565b8060ff8416069150509291505056fe4142434445464748494a4b4c4d4e4f505152535455565758595a6162636465666768696a6b6c6d6e6f707172737475767778797a303132333435363738392b2fa26469706673582212200bbe4ed61d7146aa6c863d61aa0543c8c8f6c480897e42bea78dbf7670784fb064736f6c6343000812003368747470733a2f2f6d75736963736c617965722e6769746875622e696f2f706978656c5f70696374617369615f646170702f58595a2e2068747470733a2f2f6d75736963736c617965722e6769746875622e696f2f706978656c5f70696374617369615f646170702f68747470733a2f2f7261772e67697468756275736572636f6e74656e742e636f6d2f6d75736963736c617965722f706978656c5f70696374617369615f646170702f6d61696e2f73746f72655f696d6167652e706e67",
			"opcodes": "PUSH1 0x80 PUSH1 0x40 MSTORE PUSH3 0xF CALLER PUSH3 0x12F JUMP JUMPDEST PUSH1 0x1 DUP1 SLOAD PUSH1 0x1 PUSH1 0x1 PUSH1 0xA0 SHL SUB NOT AND CALLER OR SWAP1 SSTORE PUSH1 0x2 DUP1 SLOAD PUSH1 0x1 PUSH1 0x1 PUSH1 0xA0 SHL SUB NOT AND ADDRESS OR SWAP1 SSTORE PUSH3 0x3F PUSH2 0x12C PUSH1 0x3 SSTORE JUMP JUMPDEST PUSH3 0xA1 PUSH1 0x40 MLOAD DUP1 PUSH1 0x40 ADD PUSH1 0x40 MSTORE DUP1 PUSH1 0x1B DUP2 MSTORE PUSH1 0x20 ADD PUSH32 0x42696E616E636520536D61727420436861696E20546573746E65740000000000 DUP2 MSTORE POP PUSH1 0x40 MLOAD PUSH1 0x20 ADD PUSH3 0x8B SWAP2 SWAP1 PUSH3 0x74D JUMP JUMPDEST PUSH1 0x40 DUP1 MLOAD PUSH1 0x1F NOT DUP2 DUP5 SUB ADD DUP2 MSTORE SWAP2 SWAP1 MSTORE PUSH3 0x19D JUMP JUMPDEST PUSH3 0xC5 PUSH1 0x40 MLOAD DUP1 PUSH1 0x60 ADD PUSH1 0x40 MSTORE DUP1 PUSH1 0x37 DUP2 MSTORE PUSH1 0x20 ADD PUSH3 0x517C PUSH1 0x37 SWAP2 CODECOPY PUSH3 0x1AF JUMP JUMPDEST PUSH3 0xE9 PUSH1 0x40 MLOAD DUP1 PUSH1 0x80 ADD PUSH1 0x40 MSTORE DUP1 PUSH1 0x56 DUP2 MSTORE PUSH1 0x20 ADD PUSH3 0x51B3 PUSH1 0x56 SWAP2 CODECOPY PUSH3 0x1BD JUMP JUMPDEST PUSH3 0x10D PUSH1 0x40 MLOAD DUP1 PUSH1 0x60 ADD PUSH1 0x40 MSTORE DUP1 PUSH1 0x32 DUP2 MSTORE PUSH1 0x20 ADD PUSH3 0x514A PUSH1 0x32 SWAP2 CODECOPY PUSH3 0x1CB JUMP JUMPDEST PUSH1 0x40 DUP1 MLOAD PUSH1 0x0 DUP2 MSTORE PUSH1 0x20 DUP2 ADD SWAP1 SWAP2 MSTORE PUSH3 0x128 CALLER DUP3 PUSH3 0x1D9 JUMP JUMPDEST POP PUSH3 0xBAE JUMP JUMPDEST PUSH1 0x0 SLOAD PUSH1 0x1 PUSH1 0x1 PUSH1 0xA0 SHL SUB DUP3 DUP2 AND SWAP2 AND EQ PUSH3 0x19A JUMPI PUSH1 0x0 DUP1 SLOAD PUSH1 0x40 MLOAD PUSH1 0x1 PUSH1 0x1 PUSH1 0xA0 SHL SUB DUP1 DUP6 AND SWAP4 SWAP3 AND SWAP2 PUSH32 0xB532073B38C83145E3E5135377A08BF9AAB55BC0FD7C1179CD4FB995D2A5159C SWAP2 LOG3 PUSH1 0x0 DUP1 SLOAD PUSH1 0x1 PUSH1 0x1 PUSH1 0xA0 SHL SUB NOT AND PUSH1 0x1 PUSH1 0x1 PUSH1 0xA0 SHL SUB DUP4 AND OR SWAP1 SSTORE JUMPDEST POP JUMP JUMPDEST PUSH1 0x7 PUSH3 0x1AB DUP3 DUP3 PUSH3 0x840 JUMP JUMPDEST POP POP JUMP JUMPDEST PUSH1 0x4 PUSH3 0x1AB DUP3 DUP3 PUSH3 0x840 JUMP JUMPDEST PUSH1 0x6 PUSH3 0x1AB DUP3 DUP3 PUSH3 0x840 JUMP JUMPDEST PUSH1 0x5 PUSH3 0x1AB DUP3 DUP3 PUSH3 0x840 JUMP JUMPDEST PUSH1 0x0 PUSH3 0x1E8 PUSH1 0x3 DUP1 PUSH3 0x922 JUMP JUMPDEST PUSH3 0x1F5 SWAP1 PUSH1 0x1 PUSH3 0x942 JUMP JUMPDEST PUSH1 0x1 PUSH1 0x1 PUSH1 0x40 SHL SUB DUP2 GT ISZERO PUSH3 0x20F JUMPI PUSH3 0x20F PUSH3 0x79F JUMP JUMPDEST PUSH1 0x40 MLOAD SWAP1 DUP1 DUP3 MSTORE DUP1 PUSH1 0x20 MUL PUSH1 0x20 ADD DUP3 ADD PUSH1 0x40 MSTORE DUP1 ISZERO PUSH3 0x239 JUMPI DUP2 PUSH1 0x20 ADD PUSH1 0x20 DUP3 MUL DUP1 CALLDATASIZE DUP4 CALLDATACOPY ADD SWAP1 POP JUMPDEST POP SWAP1 POP PUSH1 0x0 PUSH3 0x24B PUSH1 0x3 DUP1 PUSH3 0x922 JUMP JUMPDEST PUSH3 0x258 SWAP1 PUSH1 0x1 PUSH3 0x942 JUMP JUMPDEST PUSH1 0x1 PUSH1 0x1 PUSH1 0x40 SHL SUB DUP2 GT ISZERO PUSH3 0x272 JUMPI PUSH3 0x272 PUSH3 0x79F JUMP JUMPDEST PUSH1 0x40 MLOAD SWAP1 DUP1 DUP3 MSTORE DUP1 PUSH1 0x20 MUL PUSH1 0x20 ADD DUP3 ADD PUSH1 0x40 MSTORE DUP1 ISZERO PUSH3 0x29C JUMPI DUP2 PUSH1 0x20 ADD PUSH1 0x20 DUP3 MUL DUP1 CALLDATASIZE DUP4 CALLDATACOPY ADD SWAP1 POP JUMPDEST POP SWAP1 POP PUSH1 0x0 DUP1 DUP4 DUP3 DUP2 MLOAD DUP2 LT PUSH3 0x2B7 JUMPI PUSH3 0x2B7 PUSH3 0x958 JUMP JUMPDEST PUSH1 0x20 MUL PUSH1 0x20 ADD ADD DUP2 DUP2 MSTORE POP POP PUSH1 0x1 DUP3 DUP3 DUP2 MLOAD DUP2 LT PUSH3 0x2DA JUMPI PUSH3 0x2DA PUSH3 0x958 JUMP JUMPDEST PUSH1 0x20 SWAP1 DUP2 MUL SWAP2 SWAP1 SWAP2 ADD DUP2 ADD SWAP2 SWAP1 SWAP2 MSTORE PUSH1 0x0 DUP3 DUP2 MSTORE PUSH1 0xB DUP3 MSTORE PUSH1 0x40 DUP1 DUP3 KECCAK256 PUSH1 0x1 PUSH1 0x1 PUSH1 0xA0 SHL SUB DUP10 AND DUP1 DUP5 MSTORE SWAP1 DUP5 MSTORE DUP2 DUP4 KECCAK256 PUSH1 0x1 SWAP1 SSTORE DUP5 DUP4 MSTORE PUSH1 0x9 SWAP1 SWAP4 MSTORE SWAP1 KECCAK256 DUP1 SLOAD PUSH1 0x1 PUSH1 0x1 PUSH1 0xA0 SHL SUB NOT AND SWAP1 SWAP2 OR SWAP1 SSTORE PUSH1 0x40 DUP1 MLOAD PUSH1 0xA0 DUP2 ADD DUP3 MSTORE PUSH2 0x270F DUP1 DUP3 MSTORE PUSH1 0x20 DUP1 DUP4 ADD SWAP2 DUP3 MSTORE PUSH1 0x0 DUP4 DUP6 ADD DUP2 DUP2 MSTORE PUSH1 0x60 DUP6 ADD DUP3 DUP2 MSTORE PUSH1 0x80 DUP7 ADD DUP4 DUP2 MSTORE DUP9 DUP5 MSTORE PUSH1 0x8 SWAP1 SWAP5 MSTORE SWAP6 DUP3 KECCAK256 SWAP5 MLOAD DUP6 SSTORE SWAP3 MLOAD PUSH1 0x1 DUP6 ADD SSTORE SWAP2 MLOAD PUSH1 0x2 SWAP1 SWAP4 ADD DUP1 SLOAD SWAP5 MLOAD SWAP2 MLOAD PUSH1 0xFF SWAP1 DUP2 AND PUSH3 0x10000 MUL PUSH3 0xFF0000 NOT SWAP4 DUP3 AND PUSH2 0x100 MUL PUSH2 0xFFFF NOT SWAP1 SWAP8 AND SWAP6 SWAP1 SWAP2 AND SWAP5 SWAP1 SWAP5 OR SWAP5 SWAP1 SWAP5 OR AND SWAP2 SWAP1 SWAP2 OR SWAP1 SWAP2 SSTORE JUMPDEST PUSH1 0x3 DUP2 LT ISZERO PUSH3 0x500 JUMPI PUSH1 0x0 JUMPDEST PUSH1 0x3 DUP2 LT ISZERO PUSH3 0x4EA JUMPI DUP3 PUSH3 0x3CF DUP2 PUSH3 0x96E JUMP JUMPDEST SWAP4 POP POP DUP3 DUP6 DUP5 DUP2 MLOAD DUP2 LT PUSH3 0x3E8 JUMPI PUSH3 0x3E8 PUSH3 0x958 JUMP JUMPDEST PUSH1 0x20 MUL PUSH1 0x20 ADD ADD DUP2 DUP2 MSTORE POP POP PUSH1 0x1 DUP5 DUP5 DUP2 MLOAD DUP2 LT PUSH3 0x40B JUMPI PUSH3 0x40B PUSH3 0x958 JUMP JUMPDEST PUSH1 0x20 SWAP1 DUP2 MUL SWAP2 SWAP1 SWAP2 ADD DUP2 ADD SWAP2 SWAP1 SWAP2 MSTORE PUSH1 0x0 DUP5 DUP2 MSTORE PUSH1 0xB DUP3 MSTORE PUSH1 0x40 DUP1 DUP3 KECCAK256 PUSH1 0x1 PUSH1 0x1 PUSH1 0xA0 SHL SUB DUP12 AND DUP1 DUP5 MSTORE SWAP1 DUP5 MSTORE DUP2 DUP4 KECCAK256 PUSH1 0x1 SWAP1 SSTORE DUP7 DUP4 MSTORE PUSH1 0x9 SWAP1 SWAP4 MSTORE SWAP1 KECCAK256 DUP1 SLOAD PUSH1 0x1 PUSH1 0x1 PUSH1 0xA0 SHL SUB NOT AND SWAP1 SWAP2 OR SWAP1 SSTORE PUSH1 0x40 DUP1 MLOAD PUSH1 0xA0 DUP2 ADD DUP3 MSTORE DUP3 DUP2 MSTORE PUSH1 0x20 DUP1 DUP3 ADD DUP6 DUP2 MSTORE PUSH1 0x0 DUP4 DUP6 ADD DUP2 DUP2 MSTORE PUSH1 0x60 DUP6 ADD DUP3 DUP2 MSTORE PUSH1 0x80 DUP7 ADD DUP4 DUP2 MSTORE DUP11 DUP5 MSTORE PUSH1 0x8 SWAP1 SWAP6 MSTORE SWAP6 SWAP1 SWAP2 KECCAK256 SWAP4 MLOAD DUP5 SSTORE SWAP1 MLOAD PUSH1 0x1 DUP5 ADD SSTORE MLOAD PUSH1 0x2 SWAP1 SWAP3 ADD DUP1 SLOAD SWAP4 MLOAD SWAP2 MLOAD PUSH1 0xFF SWAP1 DUP2 AND PUSH3 0x10000 MUL PUSH3 0xFF0000 NOT SWAP4 DUP3 AND PUSH2 0x100 MUL PUSH2 0xFFFF NOT SWAP1 SWAP7 AND SWAP5 SWAP1 SWAP2 AND SWAP4 SWAP1 SWAP4 OR SWAP4 SWAP1 SWAP4 OR AND OR SWAP1 SSTORE DUP1 PUSH3 0x4E1 DUP2 PUSH3 0x96E JUMP JUMPDEST SWAP2 POP POP PUSH3 0x3B9 JUMP JUMPDEST POP DUP1 PUSH3 0x4F7 DUP2 PUSH3 0x96E JUMP JUMPDEST SWAP2 POP POP PUSH3 0x3AC JUMP JUMPDEST POP PUSH1 0x40 MLOAD CALLER SWAP1 PUSH1 0x0 SWAP1 DUP3 SWAP1 PUSH32 0x4A39DC06D4C0DBC64B70AF90FD698A233A518AA5D07E595D983B8C0526C8F7FB SWAP1 PUSH3 0x53C SWAP1 DUP9 SWAP1 DUP9 SWAP1 PUSH3 0x9C7 JUMP JUMPDEST PUSH1 0x40 MLOAD DUP1 SWAP2 SUB SWAP1 LOG4 PUSH3 0x555 CALLER PUSH1 0x0 DUP2 DUP7 DUP7 DUP10 PUSH3 0x55C JUMP JUMPDEST POP POP POP POP POP JUMP JUMPDEST PUSH1 0x1 PUSH1 0x1 PUSH1 0xA0 SHL SUB DUP5 AND EXTCODESIZE ISZERO PUSH3 0x71F JUMPI PUSH1 0x40 MLOAD PUSH4 0xBC197C81 PUSH1 0xE0 SHL DUP2 MSTORE PUSH1 0x1 PUSH1 0x1 PUSH1 0xA0 SHL SUB DUP6 AND SWAP1 PUSH4 0xBC197C81 SWAP1 PUSH3 0x5A3 SWAP1 DUP10 SWAP1 DUP10 SWAP1 DUP9 SWAP1 DUP9 SWAP1 DUP9 SWAP1 PUSH1 0x4 ADD PUSH3 0xA27 JUMP JUMPDEST PUSH1 0x20 PUSH1 0x40 MLOAD DUP1 DUP4 SUB DUP2 PUSH1 0x0 DUP8 GAS CALL SWAP3 POP POP POP DUP1 ISZERO PUSH3 0x5E1 JUMPI POP PUSH1 0x40 DUP1 MLOAD PUSH1 0x1F RETURNDATASIZE SWAP1 DUP2 ADD PUSH1 0x1F NOT AND DUP3 ADD SWAP1 SWAP3 MSTORE PUSH3 0x5DE SWAP2 DUP2 ADD SWAP1 PUSH3 0xA8B JUMP JUMPDEST PUSH1 0x1 JUMPDEST PUSH3 0x6AA JUMPI PUSH3 0x5F0 PUSH3 0xABE JUMP JUMPDEST DUP1 PUSH4 0x8C379A0 SUB PUSH3 0x639 JUMPI POP PUSH3 0x607 PUSH3 0xB0A JUMP JUMPDEST DUP1 PUSH3 0x614 JUMPI POP PUSH3 0x63B JUMP JUMPDEST DUP1 PUSH1 0x40 MLOAD PUSH3 0x461BCD PUSH1 0xE5 SHL DUP2 MSTORE PUSH1 0x4 ADD PUSH3 0x630 SWAP2 SWAP1 PUSH3 0xB99 JUMP JUMPDEST PUSH1 0x40 MLOAD DUP1 SWAP2 SUB SWAP1 REVERT JUMPDEST POP JUMPDEST PUSH1 0x40 MLOAD PUSH3 0x461BCD PUSH1 0xE5 SHL DUP2 MSTORE PUSH1 0x20 PUSH1 0x4 DUP3 ADD MSTORE PUSH1 0x34 PUSH1 0x24 DUP3 ADD MSTORE PUSH32 0x455243313135353A207472616E7366657220746F206E6F6E2D45524331313535 PUSH1 0x44 DUP3 ADD MSTORE PUSH32 0x526563656976657220696D706C656D656E746572000000000000000000000000 PUSH1 0x64 DUP3 ADD MSTORE PUSH1 0x84 ADD PUSH3 0x630 JUMP JUMPDEST PUSH1 0x1 PUSH1 0x1 PUSH1 0xE0 SHL SUB NOT DUP2 AND PUSH4 0xBC197C81 PUSH1 0xE0 SHL EQ PUSH3 0x71D JUMPI PUSH1 0x40 MLOAD PUSH3 0x461BCD PUSH1 0xE5 SHL DUP2 MSTORE PUSH1 0x20 PUSH1 0x4 DUP3 ADD MSTORE PUSH1 0x28 PUSH1 0x24 DUP3 ADD MSTORE PUSH32 0x455243313135353A204552433131353552656365697665722072656A65637465 PUSH1 0x44 DUP3 ADD MSTORE PUSH8 0x6420746F6B656E73 PUSH1 0xC0 SHL PUSH1 0x64 DUP3 ADD MSTORE PUSH1 0x84 ADD PUSH3 0x630 JUMP JUMPDEST POP JUMPDEST POP POP POP POP POP POP JUMP JUMPDEST PUSH1 0x0 JUMPDEST DUP4 DUP2 LT ISZERO PUSH3 0x744 JUMPI DUP2 DUP2 ADD MLOAD DUP4 DUP3 ADD MSTORE PUSH1 0x20 ADD PUSH3 0x72A JUMP JUMPDEST POP POP PUSH1 0x0 SWAP2 ADD MSTORE JUMP JUMPDEST PUSH32 0x506978656C205069637461736961204E465420436F6C6C656374696F6E202800 DUP2 MSTORE PUSH1 0x0 DUP3 MLOAD PUSH3 0x787 DUP2 PUSH1 0x1F DUP6 ADD PUSH1 0x20 DUP8 ADD PUSH3 0x727 JUMP JUMPDEST PUSH1 0x29 PUSH1 0xF8 SHL PUSH1 0x1F SWAP4 SWAP1 SWAP2 ADD SWAP3 DUP4 ADD MSTORE POP PUSH1 0x20 ADD SWAP2 SWAP1 POP JUMP JUMPDEST PUSH4 0x4E487B71 PUSH1 0xE0 SHL PUSH1 0x0 MSTORE PUSH1 0x41 PUSH1 0x4 MSTORE PUSH1 0x24 PUSH1 0x0 REVERT JUMPDEST PUSH1 0x1 DUP2 DUP2 SHR SWAP1 DUP3 AND DUP1 PUSH3 0x7CA JUMPI PUSH1 0x7F DUP3 AND SWAP2 POP JUMPDEST PUSH1 0x20 DUP3 LT DUP2 SUB PUSH3 0x7EB JUMPI PUSH4 0x4E487B71 PUSH1 0xE0 SHL PUSH1 0x0 MSTORE PUSH1 0x22 PUSH1 0x4 MSTORE PUSH1 0x24 PUSH1 0x0 REVERT JUMPDEST POP SWAP2 SWAP1 POP JUMP JUMPDEST PUSH1 0x1F DUP3 GT ISZERO PUSH3 0x83B JUMPI PUSH1 0x0 DUP2 DUP2 MSTORE PUSH1 0x20 DUP2 KECCAK256 PUSH1 0x1F DUP6 ADD PUSH1 0x5 SHR DUP2 ADD PUSH1 0x20 DUP7 LT ISZERO PUSH3 0x81A JUMPI POP DUP1 JUMPDEST PUSH1 0x1F DUP6 ADD PUSH1 0x5 SHR DUP3 ADD SWAP2 POP JUMPDEST DUP2 DUP2 LT ISZERO PUSH3 0x71F JUMPI DUP3 DUP2 SSTORE PUSH1 0x1 ADD PUSH3 0x826 JUMP JUMPDEST POP POP POP JUMP JUMPDEST DUP2 MLOAD PUSH1 0x1 PUSH1 0x1 PUSH1 0x40 SHL SUB DUP2 GT ISZERO PUSH3 0x85C JUMPI PUSH3 0x85C PUSH3 0x79F JUMP JUMPDEST PUSH3 0x874 DUP2 PUSH3 0x86D DUP5 SLOAD PUSH3 0x7B5 JUMP JUMPDEST DUP5 PUSH3 0x7F1 JUMP JUMPDEST PUSH1 0x20 DUP1 PUSH1 0x1F DUP4 GT PUSH1 0x1 DUP2 EQ PUSH3 0x8AC JUMPI PUSH1 0x0 DUP5 ISZERO PUSH3 0x893 JUMPI POP DUP6 DUP4 ADD MLOAD JUMPDEST PUSH1 0x0 NOT PUSH1 0x3 DUP7 SWAP1 SHL SHR NOT AND PUSH1 0x1 DUP6 SWAP1 SHL OR DUP6 SSTORE PUSH3 0x71F JUMP JUMPDEST PUSH1 0x0 DUP6 DUP2 MSTORE PUSH1 0x20 DUP2 KECCAK256 PUSH1 0x1F NOT DUP7 AND SWAP2 JUMPDEST DUP3 DUP2 LT ISZERO PUSH3 0x8DD JUMPI DUP9 DUP7 ADD MLOAD DUP3 SSTORE SWAP5 DUP5 ADD SWAP5 PUSH1 0x1 SWAP1 SWAP2 ADD SWAP1 DUP5 ADD PUSH3 0x8BC JUMP JUMPDEST POP DUP6 DUP3 LT ISZERO PUSH3 0x8FC JUMPI DUP8 DUP6 ADD MLOAD PUSH1 0x0 NOT PUSH1 0x3 DUP9 SWAP1 SHL PUSH1 0xF8 AND SHR NOT AND DUP2 SSTORE JUMPDEST POP POP POP POP POP PUSH1 0x1 SWAP1 DUP2 SHL ADD SWAP1 SSTORE POP JUMP JUMPDEST PUSH4 0x4E487B71 PUSH1 0xE0 SHL PUSH1 0x0 MSTORE PUSH1 0x11 PUSH1 0x4 MSTORE PUSH1 0x24 PUSH1 0x0 REVERT JUMPDEST DUP1 DUP3 MUL DUP2 ISZERO DUP3 DUP3 DIV DUP5 EQ OR PUSH3 0x93C JUMPI PUSH3 0x93C PUSH3 0x90C JUMP JUMPDEST SWAP3 SWAP2 POP POP JUMP JUMPDEST DUP1 DUP3 ADD DUP1 DUP3 GT ISZERO PUSH3 0x93C JUMPI PUSH3 0x93C PUSH3 0x90C JUMP JUMPDEST PUSH4 0x4E487B71 PUSH1 0xE0 SHL PUSH1 0x0 MSTORE PUSH1 0x32 PUSH1 0x4 MSTORE PUSH1 0x24 PUSH1 0x0 REVERT JUMPDEST PUSH1 0x0 PUSH1 0x1 DUP3 ADD PUSH3 0x983 JUMPI PUSH3 0x983 PUSH3 0x90C JUMP JUMPDEST POP PUSH1 0x1 ADD SWAP1 JUMP JUMPDEST PUSH1 0x0 DUP2 MLOAD DUP1 DUP5 MSTORE PUSH1 0x20 DUP1 DUP6 ADD SWAP5 POP DUP1 DUP5 ADD PUSH1 0x0 JUMPDEST DUP4 DUP2 LT ISZERO PUSH3 0x9BC JUMPI DUP2 MLOAD DUP8 MSTORE SWAP6 DUP3 ADD SWAP6 SWAP1 DUP3 ADD SWAP1 PUSH1 0x1 ADD PUSH3 0x99E JUMP JUMPDEST POP SWAP5 SWAP6 SWAP5 POP POP POP POP POP JUMP JUMPDEST PUSH1 0x40 DUP2 MSTORE PUSH1 0x0 PUSH3 0x9DC PUSH1 0x40 DUP4 ADD DUP6 PUSH3 0x98A JUMP JUMPDEST DUP3 DUP2 SUB PUSH1 0x20 DUP5 ADD MSTORE PUSH3 0x9F0 DUP2 DUP6 PUSH3 0x98A JUMP JUMPDEST SWAP6 SWAP5 POP POP POP POP POP JUMP JUMPDEST PUSH1 0x0 DUP2 MLOAD DUP1 DUP5 MSTORE PUSH3 0xA13 DUP2 PUSH1 0x20 DUP7 ADD PUSH1 0x20 DUP7 ADD PUSH3 0x727 JUMP JUMPDEST PUSH1 0x1F ADD PUSH1 0x1F NOT AND SWAP3 SWAP1 SWAP3 ADD PUSH1 0x20 ADD SWAP3 SWAP2 POP POP JUMP JUMPDEST PUSH1 0x1 PUSH1 0x1 PUSH1 0xA0 SHL SUB DUP7 DUP2 AND DUP3 MSTORE DUP6 AND PUSH1 0x20 DUP3 ADD MSTORE PUSH1 0xA0 PUSH1 0x40 DUP3 ADD DUP2 SWAP1 MSTORE PUSH1 0x0 SWAP1 PUSH3 0xA55 SWAP1 DUP4 ADD DUP7 PUSH3 0x98A JUMP JUMPDEST DUP3 DUP2 SUB PUSH1 0x60 DUP5 ADD MSTORE PUSH3 0xA69 DUP2 DUP7 PUSH3 0x98A JUMP JUMPDEST SWAP1 POP DUP3 DUP2 SUB PUSH1 0x80 DUP5 ADD MSTORE PUSH3 0xA7F DUP2 DUP6 PUSH3 0x9F9 JUMP JUMPDEST SWAP9 SWAP8 POP POP POP POP POP POP POP POP JUMP JUMPDEST PUSH1 0x0 PUSH1 0x20 DUP3 DUP5 SUB SLT ISZERO PUSH3 0xA9E JUMPI PUSH1 0x0 DUP1 REVERT JUMPDEST DUP2 MLOAD PUSH1 0x1 PUSH1 0x1 PUSH1 0xE0 SHL SUB NOT DUP2 AND DUP2 EQ PUSH3 0xAB7 JUMPI PUSH1 0x0 DUP1 REVERT JUMPDEST SWAP4 SWAP3 POP POP POP JUMP JUMPDEST PUSH1 0x0 PUSH1 0x3 RETURNDATASIZE GT ISZERO PUSH3 0xAD8 JUMPI PUSH1 0x4 PUSH1 0x0 DUP1 RETURNDATACOPY POP PUSH1 0x0 MLOAD PUSH1 0xE0 SHR JUMPDEST SWAP1 JUMP JUMPDEST PUSH1 0x1F DUP3 ADD PUSH1 0x1F NOT AND DUP2 ADD PUSH1 0x1 PUSH1 0x1 PUSH1 0x40 SHL SUB DUP2 GT DUP3 DUP3 LT OR ISZERO PUSH3 0xB03 JUMPI PUSH3 0xB03 PUSH3 0x79F JUMP JUMPDEST PUSH1 0x40 MSTORE POP POP JUMP JUMPDEST PUSH1 0x0 PUSH1 0x44 RETURNDATASIZE LT ISZERO PUSH3 0xB19 JUMPI SWAP1 JUMP JUMPDEST PUSH1 0x40 MLOAD PUSH1 0x3 NOT RETURNDATASIZE DUP2 ADD PUSH1 0x4 DUP4 RETURNDATACOPY DUP2 MLOAD RETURNDATASIZE PUSH1 0x1 PUSH1 0x1 PUSH1 0x40 SHL SUB DUP1 DUP4 GT PUSH1 0x24 DUP5 ADD DUP4 LT OR ISZERO PUSH3 0xB49 JUMPI POP POP POP POP POP SWAP1 JUMP JUMPDEST DUP3 DUP6 ADD SWAP2 POP DUP2 MLOAD DUP2 DUP2 GT ISZERO PUSH3 0xB62 JUMPI POP POP POP POP POP POP SWAP1 JUMP JUMPDEST DUP5 RETURNDATASIZE DUP8 ADD ADD PUSH1 0x20 DUP3 DUP6 ADD ADD GT ISZERO PUSH3 0xB7D JUMPI POP POP POP POP POP POP SWAP1 JUMP JUMPDEST PUSH3 0xB8E PUSH1 0x20 DUP3 DUP7 ADD ADD DUP8 PUSH3 0xADB JUMP JUMPDEST POP SWAP1 SWAP6 SWAP5 POP POP POP POP POP JUMP JUMPDEST PUSH1 0x20 DUP2 MSTORE PUSH1 0x0 PUSH3 0xAB7 PUSH1 0x20 DUP4 ADD DUP5 PUSH3 0x9F9 JUMP JUMPDEST PUSH2 0x458C DUP1 PUSH3 0xBBE PUSH1 0x0 CODECOPY PUSH1 0x0 RETURN INVALID PUSH1 0x80 PUSH1 0x40 MSTORE PUSH1 0x4 CALLDATASIZE LT PUSH2 0x274 JUMPI PUSH1 0x0 CALLDATALOAD PUSH1 0xE0 SHR DUP1 PUSH4 0x70DBF911 GT PUSH2 0x14F JUMPI DUP1 PUSH4 0xB76A10CA GT PUSH2 0xC1 JUMPI DUP1 PUSH4 0xE8A3D485 GT PUSH2 0x7A JUMPI DUP1 PUSH4 0xE8A3D485 EQ PUSH2 0x7A6 JUMPI DUP1 PUSH4 0xE985E9C5 EQ PUSH2 0x7BB JUMPI DUP1 PUSH4 0xED88C68E EQ PUSH2 0x280 JUMPI DUP1 PUSH4 0xF23A6E61 EQ PUSH2 0x7DB JUMPI DUP1 PUSH4 0xF242432A EQ PUSH2 0x807 JUMPI DUP1 PUSH4 0xF5DA96DC EQ PUSH2 0x827 JUMPI PUSH2 0x280 INVALID JUMPDEST DUP1 PUSH4 0xB76A10CA EQ PUSH2 0x6E5 JUMPI DUP1 PUSH4 0xB7BF7070 EQ PUSH2 0x705 JUMPI DUP1 PUSH4 0xBC197C81 EQ PUSH2 0x725 JUMPI DUP1 PUSH4 0xC4E8D5ED EQ PUSH2 0x751 JUMPI DUP1 PUSH4 0xD319AA30 EQ PUSH2 0x771 JUMPI DUP1 PUSH4 0xDBD3CFCD EQ PUSH2 0x786 JUMPI PUSH2 0x280 INVALID JUMPDEST DUP1 PUSH4 0x91372456 GT PUSH2 0x113 JUMPI DUP1 PUSH4 0x91372456 EQ PUSH2 0x632 JUMPI DUP1 PUSH4 0x9CD6E666 EQ PUSH2 0x650 JUMPI DUP1 PUSH4 0xA22CB465 EQ PUSH2 0x670 JUMPI DUP1 PUSH4 0xAFFE639F EQ PUSH2 0x690 JUMPI DUP1 PUSH4 0xB2828496 EQ PUSH2 0x6B0 JUMPI DUP1 PUSH4 0xB4D9B973 EQ PUSH2 0x6D0 JUMPI PUSH2 0x280 INVALID JUMPDEST DUP1 PUSH4 0x70DBF911 EQ PUSH2 0x5B2 JUMPI DUP1 PUSH4 0x75AB9782 EQ PUSH2 0x282 JUMPI DUP1 PUSH4 0x7A1E26EE EQ PUSH2 0x5D2 JUMPI DUP1 PUSH4 0x7F0F543C EQ PUSH2 0x5F2 JUMPI DUP1 PUSH4 0x811D678E EQ PUSH2 0x612 JUMPI PUSH2 0x280 INVALID JUMPDEST DUP1 PUSH4 0x2EB2C2D6 GT PUSH2 0x1E8 JUMPI DUP1 PUSH4 0x4F61B3AE GT PUSH2 0x1AC JUMPI DUP1 PUSH4 0x4F61B3AE EQ PUSH2 0x4F1 JUMPI DUP1 PUSH4 0x503D7FE4 EQ PUSH2 0x510 JUMPI DUP1 PUSH4 0x58F026F0 EQ PUSH2 0x530 JUMPI DUP1 PUSH4 0x6315AA45 EQ PUSH2 0x545 JUMPI DUP1 PUSH4 0x63DD5EE5 EQ PUSH2 0x565 JUMPI DUP1 PUSH4 0x64E847F9 EQ PUSH2 0x592 JUMPI PUSH2 0x280 INVALID JUMPDEST DUP1 PUSH4 0x2EB2C2D6 EQ PUSH2 0x45A JUMPI DUP1 PUSH4 0x41931A2F EQ PUSH2 0x47A JUMPI DUP1 PUSH4 0x43F22EDA EQ PUSH2 0x48F JUMPI DUP1 PUSH4 0x453A2DBF EQ PUSH2 0x4AF JUMPI DUP1 PUSH4 0x4E1273F4 EQ PUSH2 0x4C4 JUMPI PUSH2 0x280 INVALID JUMPDEST DUP1 PUSH4 0x150B7A02 GT PUSH2 0x23A JUMPI DUP1 PUSH4 0x150B7A02 EQ PUSH2 0x357 JUMPI DUP1 PUSH4 0x20A025D4 EQ PUSH2 0x39B JUMPI DUP1 PUSH4 0x249CB3FA EQ PUSH2 0x3BB JUMPI DUP1 PUSH4 0x2A55205A EQ PUSH2 0x3DB JUMPI DUP1 PUSH4 0x2AA4ADA0 EQ PUSH2 0x41A JUMPI DUP1 PUSH4 0x2E66CCF5 EQ PUSH2 0x43A JUMPI PUSH2 0x280 INVALID JUMPDEST DUP1 PUSH3 0x23DE29 EQ PUSH2 0x282 JUMPI DUP1 PUSH3 0xFDD58E EQ PUSH2 0x2A7 JUMPI DUP1 PUSH4 0x1FFC9A7 EQ PUSH2 0x2DA JUMPI DUP1 PUSH4 0x9F003B4 EQ PUSH2 0x30A JUMPI DUP1 PUSH4 0xE89341C EQ PUSH2 0x32A JUMPI PUSH2 0x280 INVALID JUMPDEST CALLDATASIZE PUSH2 0x27B JUMPI STOP JUMPDEST PUSH2 0x280 INVALID JUMPDEST STOP JUMPDEST CALLVALUE DUP1 ISZERO PUSH2 0x28E JUMPI PUSH1 0x0 DUP1 REVERT JUMPDEST POP PUSH2 0x280 PUSH2 0x29D CALLDATASIZE PUSH1 0x4 PUSH2 0x3238 JUMP JUMPDEST POP POP POP POP POP POP POP POP JUMP JUMPDEST CALLVALUE DUP1 ISZERO PUSH2 0x2B3 JUMPI PUSH1 0x0 DUP1 REVERT JUMPDEST POP PUSH2 0x2C7 PUSH2 0x2C2 CALLDATASIZE PUSH1 0x4 PUSH2 0x32E2 JUMP JUMPDEST PUSH2 0x847 JUMP JUMPDEST PUSH1 0x40 MLOAD SWAP1 DUP2 MSTORE PUSH1 0x20 ADD JUMPDEST PUSH1 0x40 MLOAD DUP1 SWAP2 SUB SWAP1 RETURN JUMPDEST CALLVALUE DUP1 ISZERO PUSH2 0x2E6 JUMPI PUSH1 0x0 DUP1 REVERT JUMPDEST POP PUSH2 0x2FA PUSH2 0x2F5 CALLDATASIZE PUSH1 0x4 PUSH2 0x3322 JUMP JUMPDEST PUSH2 0x8E2 JUMP JUMPDEST PUSH1 0x40 MLOAD SWAP1 ISZERO ISZERO DUP2 MSTORE PUSH1 0x20 ADD PUSH2 0x2D1 JUMP JUMPDEST CALLVALUE DUP1 ISZERO PUSH2 0x316 JUMPI PUSH1 0x0 DUP1 REVERT JUMPDEST POP PUSH2 0x280 PUSH2 0x325 CALLDATASIZE PUSH1 0x4 PUSH2 0x333F JUMP JUMPDEST PUSH2 0x958 JUMP JUMPDEST CALLVALUE DUP1 ISZERO PUSH2 0x336 JUMPI PUSH1 0x0 DUP1 REVERT JUMPDEST POP PUSH2 0x34A PUSH2 0x345 CALLDATASIZE PUSH1 0x4 PUSH2 0x333F JUMP JUMPDEST PUSH2 0x97D JUMP JUMPDEST PUSH1 0x40 MLOAD PUSH2 0x2D1 SWAP2 SWAP1 PUSH2 0x33A8 JUMP JUMPDEST CALLVALUE DUP1 ISZERO PUSH2 0x363 JUMPI PUSH1 0x0 DUP1 REVERT JUMPDEST POP PUSH2 0x382 PUSH2 0x372 CALLDATASIZE PUSH1 0x4 PUSH2 0x348A JUMP JUMPDEST PUSH4 0xA85BD01 PUSH1 0xE1 SHL SWAP5 SWAP4 POP POP POP POP JUMP JUMPDEST PUSH1 0x40 MLOAD PUSH1 0x1 PUSH1 0x1 PUSH1 0xE0 SHL SUB NOT SWAP1 SWAP2 AND DUP2 MSTORE PUSH1 0x20 ADD PUSH2 0x2D1 JUMP JUMPDEST CALLVALUE DUP1 ISZERO PUSH2 0x3A7 JUMPI PUSH1 0x0 DUP1 REVERT JUMPDEST POP PUSH2 0x280 PUSH2 0x3B6 CALLDATASIZE PUSH1 0x4 PUSH2 0x34F1 JUMP JUMPDEST PUSH2 0xA20 JUMP JUMPDEST CALLVALUE DUP1 ISZERO PUSH2 0x3C7 JUMPI PUSH1 0x0 DUP1 REVERT JUMPDEST POP PUSH2 0x2C7 PUSH2 0x3D6 CALLDATASIZE PUSH1 0x4 PUSH2 0x3541 JUMP JUMPDEST PUSH2 0xA3A JUMP JUMPDEST CALLVALUE DUP1 ISZERO PUSH2 0x3E7 JUMPI PUSH1 0x0 DUP1 REVERT JUMPDEST POP PUSH2 0x3FB PUSH2 0x3F6 CALLDATASIZE PUSH1 0x4 PUSH2 0x3564 JUMP JUMPDEST PUSH2 0xAD0 JUMP JUMPDEST PUSH1 0x40 DUP1 MLOAD PUSH1 0x1 PUSH1 0x1 PUSH1 0xA0 SHL SUB SWAP1 SWAP4 AND DUP4 MSTORE PUSH1 0x20 DUP4 ADD SWAP2 SWAP1 SWAP2 MSTORE ADD PUSH2 0x2D1 JUMP JUMPDEST CALLVALUE DUP1 ISZERO PUSH2 0x426 JUMPI PUSH1 0x0 DUP1 REVERT JUMPDEST POP PUSH2 0x280 PUSH2 0x435 CALLDATASIZE PUSH1 0x4 PUSH2 0x32E2 JUMP JUMPDEST PUSH2 0xB06 JUMP JUMPDEST CALLVALUE DUP1 ISZERO PUSH2 0x446 JUMPI PUSH1 0x0 DUP1 REVERT JUMPDEST POP PUSH2 0x280 PUSH2 0x455 CALLDATASIZE PUSH1 0x4 PUSH2 0x333F JUMP JUMPDEST PUSH2 0xB2E JUMP JUMPDEST CALLVALUE DUP1 ISZERO PUSH2 0x466 JUMPI PUSH1 0x0 DUP1 REVERT JUMPDEST POP PUSH2 0x280 PUSH2 0x475 CALLDATASIZE PUSH1 0x4 PUSH2 0x361A JUMP JUMPDEST PUSH2 0xB49 JUMP JUMPDEST CALLVALUE DUP1 ISZERO PUSH2 0x486 JUMPI PUSH1 0x0 DUP1 REVERT JUMPDEST POP PUSH2 0x280 PUSH2 0xD71 JUMP JUMPDEST CALLVALUE DUP1 ISZERO PUSH2 0x49B JUMPI PUSH1 0x0 DUP1 REVERT JUMPDEST POP PUSH2 0x34A PUSH2 0x4AA CALLDATASIZE PUSH1 0x4 PUSH2 0x333F JUMP JUMPDEST PUSH2 0xD95 JUMP JUMPDEST CALLVALUE DUP1 ISZERO PUSH2 0x4BB JUMPI PUSH1 0x0 DUP1 REVERT JUMPDEST POP PUSH2 0x34A PUSH2 0xDA0 JUMP JUMPDEST CALLVALUE DUP1 ISZERO PUSH2 0x4D0 JUMPI PUSH1 0x0 DUP1 REVERT JUMPDEST POP PUSH2 0x4E4 PUSH2 0x4DF CALLDATASIZE PUSH1 0x4 PUSH2 0x36C3 JUMP JUMPDEST PUSH2 0xDAF JUMP JUMPDEST PUSH1 0x40 MLOAD PUSH2 0x2D1 SWAP2 SWAP1 PUSH2 0x37C8 JUMP JUMPDEST CALLVALUE DUP1 ISZERO PUSH2 0x4FD JUMPI PUSH1 0x0 DUP1 REVERT JUMPDEST POP PUSH1 0x1 SLOAD PUSH1 0x1 PUSH1 0xA0 SHL SWAP1 DIV PUSH1 0xFF AND PUSH2 0x2FA JUMP JUMPDEST CALLVALUE DUP1 ISZERO PUSH2 0x51C JUMPI PUSH1 0x0 DUP1 REVERT JUMPDEST POP PUSH2 0x2FA PUSH2 0x52B CALLDATASIZE PUSH1 0x4 PUSH2 0x37DB JUMP JUMPDEST PUSH2 0xED8 JUMP JUMPDEST CALLVALUE DUP1 ISZERO PUSH2 0x53C JUMPI PUSH1 0x0 DUP1 REVERT JUMPDEST POP PUSH2 0x2C7 PUSH2 0xEE3 JUMP JUMPDEST CALLVALUE DUP1 ISZERO PUSH2 0x551 JUMPI PUSH1 0x0 DUP1 REVERT JUMPDEST POP PUSH2 0x280 PUSH2 0x560 CALLDATASIZE PUSH1 0x4 PUSH2 0x34F1 JUMP JUMPDEST PUSH2 0xEEE JUMP JUMPDEST CALLVALUE DUP1 ISZERO PUSH2 0x571 JUMPI PUSH1 0x0 DUP1 REVERT JUMPDEST POP PUSH2 0x57A PUSH2 0xF08 JUMP JUMPDEST PUSH1 0x40 MLOAD PUSH1 0x1 PUSH1 0x1 PUSH1 0xA0 SHL SUB SWAP1 SWAP2 AND DUP2 MSTORE PUSH1 0x20 ADD PUSH2 0x2D1 JUMP JUMPDEST CALLVALUE DUP1 ISZERO PUSH2 0x59E JUMPI PUSH1 0x0 DUP1 REVERT JUMPDEST POP PUSH2 0x280 PUSH2 0x5AD CALLDATASIZE PUSH1 0x4 PUSH2 0x34F1 JUMP JUMPDEST PUSH2 0xF1C JUMP JUMPDEST CALLVALUE DUP1 ISZERO PUSH2 0x5BE JUMPI PUSH1 0x0 DUP1 REVERT JUMPDEST POP PUSH2 0x280 PUSH2 0x5CD CALLDATASIZE PUSH1 0x4 PUSH2 0x3807 JUMP JUMPDEST PUSH2 0xF36 JUMP JUMPDEST CALLVALUE DUP1 ISZERO PUSH2 0x5DE JUMPI PUSH1 0x0 DUP1 REVERT JUMPDEST POP PUSH2 0x280 PUSH2 0x5ED CALLDATASIZE PUSH1 0x4 PUSH2 0x37DB JUMP JUMPDEST PUSH2 0xF62 JUMP JUMPDEST CALLVALUE DUP1 ISZERO PUSH2 0x5FE JUMPI PUSH1 0x0 DUP1 REVERT JUMPDEST POP PUSH2 0x34A PUSH2 0x60D CALLDATASIZE PUSH1 0x4 PUSH2 0x333F JUMP JUMPDEST PUSH2 0xF93 JUMP JUMPDEST CALLVALUE DUP1 ISZERO PUSH2 0x61E JUMPI PUSH1 0x0 DUP1 REVERT JUMPDEST POP PUSH2 0x280 PUSH2 0x62D CALLDATASIZE PUSH1 0x4 PUSH2 0x34F1 JUMP JUMPDEST PUSH2 0xF9E JUMP JUMPDEST CALLVALUE DUP1 ISZERO PUSH2 0x63E JUMPI PUSH1 0x0 DUP1 REVERT JUMPDEST POP PUSH1 0x0 SLOAD PUSH1 0x1 PUSH1 0x1 PUSH1 0xA0 SHL SUB AND PUSH2 0x57A JUMP JUMPDEST CALLVALUE DUP1 ISZERO PUSH2 0x65C JUMPI PUSH1 0x0 DUP1 REVERT JUMPDEST POP PUSH2 0x2FA PUSH2 0x66B CALLDATASIZE PUSH1 0x4 PUSH2 0x37DB JUMP JUMPDEST PUSH2 0xFB8 JUMP JUMPDEST CALLVALUE DUP1 ISZERO PUSH2 0x67C JUMPI PUSH1 0x0 DUP1 REVERT JUMPDEST POP PUSH2 0x280 PUSH2 0x68B CALLDATASIZE PUSH1 0x4 PUSH2 0x3862 JUMP JUMPDEST PUSH2 0xFC3 JUMP JUMPDEST CALLVALUE DUP1 ISZERO PUSH2 0x69C JUMPI PUSH1 0x0 DUP1 REVERT JUMPDEST POP PUSH2 0x34A PUSH2 0x6AB CALLDATASIZE PUSH1 0x4 PUSH2 0x333F JUMP JUMPDEST PUSH2 0x1099 JUMP JUMPDEST CALLVALUE DUP1 ISZERO PUSH2 0x6BC JUMPI PUSH1 0x0 DUP1 REVERT JUMPDEST POP PUSH2 0x280 PUSH2 0x6CB CALLDATASIZE PUSH1 0x4 PUSH2 0x3899 JUMP JUMPDEST PUSH2 0x10A4 JUMP JUMPDEST CALLVALUE DUP1 ISZERO PUSH2 0x6DC JUMPI PUSH1 0x0 DUP1 REVERT JUMPDEST POP PUSH2 0x280 PUSH2 0x10CE JUMP JUMPDEST CALLVALUE DUP1 ISZERO PUSH2 0x6F1 JUMPI PUSH1 0x0 DUP1 REVERT JUMPDEST POP PUSH2 0x280 PUSH2 0x700 CALLDATASIZE PUSH1 0x4 PUSH2 0x32E2 JUMP JUMPDEST PUSH2 0x10E1 JUMP JUMPDEST CALLVALUE DUP1 ISZERO PUSH2 0x711 JUMPI PUSH1 0x0 DUP1 REVERT JUMPDEST POP PUSH2 0x2FA PUSH2 0x720 CALLDATASIZE PUSH1 0x4 PUSH2 0x3541 JUMP JUMPDEST PUSH2 0x10FD JUMP JUMPDEST CALLVALUE DUP1 ISZERO PUSH2 0x731 JUMPI PUSH1 0x0 DUP1 REVERT JUMPDEST POP PUSH2 0x382 PUSH2 0x740 CALLDATASIZE PUSH1 0x4 PUSH2 0x361A JUMP JUMPDEST PUSH4 0xBC197C81 PUSH1 0xE0 SHL SWAP6 SWAP5 POP POP POP POP POP JUMP JUMPDEST CALLVALUE DUP1 ISZERO PUSH2 0x75D JUMPI PUSH1 0x0 DUP1 REVERT JUMPDEST POP PUSH2 0x57A PUSH2 0x76C CALLDATASIZE PUSH1 0x4 PUSH2 0x333F JUMP JUMPDEST PUSH2 0x1122 JUMP JUMPDEST CALLVALUE DUP1 ISZERO PUSH2 0x77D JUMPI PUSH1 0x0 DUP1 REVERT JUMPDEST POP PUSH2 0x57A PUSH2 0x113F JUMP JUMPDEST CALLVALUE DUP1 ISZERO PUSH2 0x792 JUMPI PUSH1 0x0 DUP1 REVERT JUMPDEST POP PUSH2 0x280 PUSH2 0x7A1 CALLDATASIZE PUSH1 0x4 PUSH2 0x37DB JUMP JUMPDEST PUSH2 0x1153 JUMP JUMPDEST CALLVALUE DUP1 ISZERO PUSH2 0x7B2 JUMPI PUSH1 0x0 DUP1 REVERT JUMPDEST POP PUSH2 0x34A PUSH2 0x1186 JUMP JUMPDEST CALLVALUE DUP1 ISZERO PUSH2 0x7C7 JUMPI PUSH1 0x0 DUP1 REVERT JUMPDEST POP PUSH2 0x2FA PUSH2 0x7D6 CALLDATASIZE PUSH1 0x4 PUSH2 0x38EF JUMP JUMPDEST PUSH2 0x1211 JUMP JUMPDEST CALLVALUE DUP1 ISZERO PUSH2 0x7E7 JUMPI PUSH1 0x0 DUP1 REVERT JUMPDEST POP PUSH2 0x382 PUSH2 0x7F6 CALLDATASIZE PUSH1 0x4 PUSH2 0x3919 JUMP JUMPDEST PUSH4 0xF23A6E61 PUSH1 0xE0 SHL SWAP6 SWAP5 POP POP POP POP POP JUMP JUMPDEST CALLVALUE DUP1 ISZERO PUSH2 0x813 JUMPI PUSH1 0x0 DUP1 REVERT JUMPDEST POP PUSH2 0x280 PUSH2 0x822 CALLDATASIZE PUSH1 0x4 PUSH2 0x3919 JUMP JUMPDEST PUSH2 0x123F JUMP JUMPDEST CALLVALUE DUP1 ISZERO PUSH2 0x833 JUMPI PUSH1 0x0 DUP1 REVERT JUMPDEST POP PUSH2 0x280 PUSH2 0x842 CALLDATASIZE PUSH1 0x4 PUSH2 0x397D JUMP JUMPDEST PUSH2 0x1399 JUMP JUMPDEST PUSH1 0x0 PUSH1 0x1 PUSH1 0x1 PUSH1 0xA0 SHL SUB DUP4 AND PUSH2 0x8B7 JUMPI PUSH1 0x40 MLOAD PUSH3 0x461BCD PUSH1 0xE5 SHL DUP2 MSTORE PUSH1 0x20 PUSH1 0x4 DUP3 ADD MSTORE PUSH1 0x2A PUSH1 0x24 DUP3 ADD MSTORE PUSH32 0x455243313135353A2061646472657373207A65726F206973206E6F7420612076 PUSH1 0x44 DUP3 ADD MSTORE PUSH10 0x30B634B21037BBB732B9 PUSH1 0xB1 SHL PUSH1 0x64 DUP3 ADD MSTORE PUSH1 0x84 ADD JUMPDEST PUSH1 0x40 MLOAD DUP1 SWAP2 SUB SWAP1 REVERT JUMPDEST POP PUSH1 0x0 DUP2 DUP2 MSTORE PUSH1 0xB PUSH1 0x20 SWAP1 DUP2 MSTORE PUSH1 0x40 DUP1 DUP4 KECCAK256 PUSH1 0x1 PUSH1 0x1 PUSH1 0xA0 SHL SUB DUP7 AND DUP5 MSTORE SWAP1 SWAP2 MSTORE SWAP1 KECCAK256 SLOAD JUMPDEST SWAP3 SWAP2 POP POP JUMP JUMPDEST PUSH1 0x0 PUSH1 0x1 PUSH1 0x1 PUSH1 0xE0 SHL SUB NOT DUP3 AND PUSH4 0x1FFC9A7 PUSH1 0xE0 SHL EQ DUP1 PUSH2 0x913 JUMPI POP PUSH1 0x1 PUSH1 0x1 PUSH1 0xE0 SHL SUB NOT DUP3 AND PUSH4 0x6CDB3D13 PUSH1 0xE1 SHL EQ JUMPDEST DUP1 PUSH2 0x92E JUMPI POP PUSH1 0x1 PUSH1 0x1 PUSH1 0xE0 SHL SUB NOT DUP3 AND PUSH4 0x3A24D07 PUSH1 0xE2 SHL EQ JUMPDEST DUP1 PUSH2 0x949 JUMPI POP PUSH1 0x1 PUSH1 0x1 PUSH1 0xE0 SHL SUB NOT DUP3 AND PUSH4 0x152A902D PUSH1 0xE1 SHL EQ JUMPDEST DUP1 PUSH2 0x8DC JUMPI POP PUSH2 0x8DC DUP3 PUSH2 0x13B7 JUMP JUMPDEST PUSH2 0x960 PUSH2 0x1458 JUMP JUMPDEST PUSH2 0x969 CALLER PUSH2 0x1479 JUMP JUMPDEST PUSH2 0x972 DUP2 PUSH1 0x3 SSTORE JUMP JUMPDEST PUSH2 0x97A PUSH2 0x10D7 JUMP JUMPDEST POP JUMP JUMPDEST PUSH1 0x60 PUSH1 0x0 PUSH2 0x98A DUP4 PUSH2 0x14C5 JUMP JUMPDEST SWAP1 POP PUSH1 0x0 PUSH2 0x997 DUP5 PUSH2 0x14F6 JUMP JUMPDEST SWAP1 POP PUSH1 0x0 PUSH2 0x9A4 DUP6 PUSH2 0x1626 JUMP JUMPDEST SWAP1 POP PUSH1 0x0 DUP4 DUP4 DUP4 PUSH1 0x40 MLOAD PUSH1 0x20 ADD PUSH2 0x9BD SWAP4 SWAP3 SWAP2 SWAP1 PUSH2 0x39C5 JUMP JUMPDEST PUSH1 0x40 MLOAD PUSH1 0x20 DUP2 DUP4 SUB SUB DUP2 MSTORE SWAP1 PUSH1 0x40 MSTORE SWAP1 POP PUSH2 0x9F6 DUP2 PUSH1 0x40 MLOAD PUSH1 0x20 ADD PUSH2 0x9E2 SWAP2 SWAP1 PUSH2 0x3A65 JUMP JUMPDEST PUSH1 0x40 MLOAD PUSH1 0x20 DUP2 DUP4 SUB SUB DUP2 MSTORE SWAP1 PUSH1 0x40 MSTORE PUSH2 0x1666 JUMP JUMPDEST PUSH1 0x40 MLOAD PUSH1 0x20 ADD PUSH2 0xA06 SWAP2 SWAP1 PUSH2 0x3A81 JUMP JUMPDEST PUSH1 0x40 MLOAD PUSH1 0x20 DUP2 DUP4 SUB SUB DUP2 MSTORE SWAP1 PUSH1 0x40 MSTORE SWAP5 POP POP POP POP POP SWAP2 SWAP1 POP JUMP JUMPDEST PUSH2 0xA28 PUSH2 0x1458 JUMP JUMPDEST PUSH2 0xA31 CALLER PUSH2 0x1479 JUMP JUMPDEST PUSH2 0x972 DUP2 PUSH2 0x17B8 JUMP JUMPDEST PUSH1 0x0 PUSH1 0x1 PUSH1 0x1 PUSH1 0xA0 SHL SUB DUP3 AND ADDRESS EQ DUP1 ISZERO PUSH2 0xA9C JUMPI POP PUSH32 0xB281FC8C12954D22544DB45DE3159A39272895B169A852B314F9CC762E44C53B DUP4 EQ DUP1 PUSH2 0xA9C JUMPI POP PUSH32 0x29DDB589B1FB5FC7CF394961C1ADF5F8C6454761ADF795E67FE149F658ABE895 DUP4 EQ JUMPDEST ISZERO PUSH2 0xAC8 JUMPI POP PUSH32 0xA2EF4600D742022D532D4747CB3547474667D6F13804902513B2EC01C848F4B4 PUSH2 0x8DC JUMP JUMPDEST POP PUSH1 0x0 PUSH2 0x8DC JUMP JUMPDEST PUSH1 0x2 SLOAD PUSH1 0x3 SLOAD PUSH1 0x1 PUSH1 0x1 PUSH1 0xA0 SHL SUB SWAP1 SWAP2 AND SWAP1 PUSH1 0x0 SWAP1 PUSH2 0x2710 SWAP1 PUSH2 0xAF3 SWAP1 DUP6 PUSH2 0x3ADC JUMP JUMPDEST PUSH2 0xAFD SWAP2 SWAP1 PUSH2 0x3B09 JUMP JUMPDEST SWAP1 POP SWAP3 POP SWAP3 SWAP1 POP JUMP JUMPDEST PUSH2 0xB0E PUSH2 0x1458 JUMP JUMPDEST PUSH2 0xB17 CALLER PUSH2 0x1479 JUMP JUMPDEST PUSH2 0xB22 DUP3 CALLER DUP4 PUSH2 0x17C4 JUMP JUMPDEST PUSH2 0xB2A PUSH2 0x10D7 JUMP JUMPDEST POP POP JUMP JUMPDEST PUSH2 0xB36 PUSH2 0x1458 JUMP JUMPDEST PUSH2 0xB3F CALLER PUSH2 0x1479 JUMP JUMPDEST PUSH2 0x972 CALLER DUP3 PUSH2 0x1939 JUMP JUMPDEST PUSH1 0x1 PUSH1 0x1 PUSH1 0xA0 SHL SUB DUP5 AND PUSH2 0xB6F JUMPI PUSH1 0x40 MLOAD PUSH3 0x461BCD PUSH1 0xE5 SHL DUP2 MSTORE PUSH1 0x4 ADD PUSH2 0x8AE SWAP1 PUSH2 0x3B1D JUMP JUMPDEST PUSH1 0x1 PUSH1 0x1 PUSH1 0xA0 SHL SUB DUP6 AND CALLER EQ DUP1 PUSH2 0xB8B JUMPI POP PUSH2 0xB8B DUP6 CALLER PUSH2 0x1211 JUMP JUMPDEST PUSH2 0xBA7 JUMPI PUSH1 0x40 MLOAD PUSH3 0x461BCD PUSH1 0xE5 SHL DUP2 MSTORE PUSH1 0x4 ADD PUSH2 0x8AE SWAP1 PUSH2 0x3B62 JUMP JUMPDEST DUP2 MLOAD DUP4 MLOAD EQ PUSH2 0xC09 JUMPI PUSH1 0x40 MLOAD PUSH3 0x461BCD PUSH1 0xE5 SHL DUP2 MSTORE PUSH1 0x20 PUSH1 0x4 DUP3 ADD MSTORE PUSH1 0x28 PUSH1 0x24 DUP3 ADD MSTORE PUSH32 0x455243313135353A2069647320616E6420616D6F756E7473206C656E67746820 PUSH1 0x44 DUP3 ADD MSTORE PUSH8 0xDAD2E6DAC2E8C6D PUSH1 0xC3 SHL PUSH1 0x64 DUP3 ADD MSTORE PUSH1 0x84 ADD PUSH2 0x8AE JUMP JUMPDEST PUSH1 0x0 JUMPDEST DUP4 MLOAD DUP2 LT ISZERO PUSH2 0xD04 JUMPI PUSH1 0x0 DUP5 DUP3 DUP2 MLOAD DUP2 LT PUSH2 0xC29 JUMPI PUSH2 0xC29 PUSH2 0x3BB0 JUMP JUMPDEST PUSH1 0x20 MUL PUSH1 0x20 ADD ADD MLOAD SWAP1 POP PUSH1 0x0 DUP5 DUP4 DUP2 MLOAD DUP2 LT PUSH2 0xC47 JUMPI PUSH2 0xC47 PUSH2 0x3BB0 JUMP JUMPDEST PUSH1 0x20 SWAP1 DUP2 MUL SWAP2 SWAP1 SWAP2 ADD DUP2 ADD MLOAD PUSH1 0x0 DUP5 DUP2 MSTORE PUSH1 0xB DUP4 MSTORE PUSH1 0x40 DUP1 DUP3 KECCAK256 PUSH1 0x1 PUSH1 0x1 PUSH1 0xA0 SHL SUB DUP14 AND DUP4 MSTORE SWAP1 SWAP4 MSTORE SWAP2 SWAP1 SWAP2 KECCAK256 SLOAD SWAP1 SWAP2 POP DUP2 DUP2 LT ISZERO PUSH2 0xC98 JUMPI PUSH1 0x40 MLOAD PUSH3 0x461BCD PUSH1 0xE5 SHL DUP2 MSTORE PUSH1 0x4 ADD PUSH2 0x8AE SWAP1 PUSH2 0x3BC6 JUMP JUMPDEST PUSH2 0xCA2 DUP3 DUP3 PUSH2 0x3C10 JUMP JUMPDEST PUSH1 0x0 DUP5 DUP2 MSTORE PUSH1 0xB PUSH1 0x20 SWAP1 DUP2 MSTORE PUSH1 0x40 DUP1 DUP4 KECCAK256 PUSH1 0x1 PUSH1 0x1 PUSH1 0xA0 SHL SUB DUP15 DUP2 AND DUP6 MSTORE SWAP3 MSTORE DUP1 DUP4 KECCAK256 SWAP4 SWAP1 SWAP4 SSTORE DUP11 AND DUP2 MSTORE SWAP1 DUP2 KECCAK256 DUP1 SLOAD DUP5 SWAP3 SWAP1 PUSH2 0xCE0 SWAP1 DUP5 SWAP1 PUSH2 0x3C23 JUMP JUMPDEST SWAP1 SWAP2 SSTORE POP PUSH2 0xCF0 SWAP1 POP DUP4 DUP10 PUSH2 0x196F JUMP JUMPDEST POP POP POP DUP1 PUSH2 0xCFD SWAP1 PUSH2 0x3C36 JUMP JUMPDEST SWAP1 POP PUSH2 0xC0C JUMP JUMPDEST POP DUP4 PUSH1 0x1 PUSH1 0x1 PUSH1 0xA0 SHL SUB AND DUP6 PUSH1 0x1 PUSH1 0x1 PUSH1 0xA0 SHL SUB AND CALLER PUSH1 0x1 PUSH1 0x1 PUSH1 0xA0 SHL SUB AND PUSH32 0x4A39DC06D4C0DBC64B70AF90FD698A233A518AA5D07E595D983B8C0526C8F7FB DUP7 DUP7 PUSH1 0x40 MLOAD PUSH2 0xD54 SWAP3 SWAP2 SWAP1 PUSH2 0x3C4F JUMP JUMPDEST PUSH1 0x40 MLOAD DUP1 SWAP2 SUB SWAP1 LOG4 PUSH2 0xD6A CALLER DUP7 DUP7 DUP7 DUP7 DUP7 PUSH2 0x199D JUMP JUMPDEST POP POP POP POP POP JUMP JUMPDEST PUSH2 0xD79 PUSH2 0x1458 JUMP JUMPDEST PUSH2 0xD82 CALLER PUSH2 0x1B01 JUMP JUMPDEST PUSH2 0xD8B CALLER PUSH2 0x1B4D JUMP JUMPDEST PUSH2 0xD93 PUSH2 0x10D7 JUMP JUMPDEST JUMP JUMPDEST PUSH1 0x60 PUSH2 0x8DC DUP3 PUSH2 0x1B56 JUMP JUMPDEST PUSH1 0x60 PUSH2 0xDAA PUSH2 0x1B61 JUMP JUMPDEST SWAP1 POP SWAP1 JUMP JUMPDEST PUSH1 0x60 DUP2 MLOAD DUP4 MLOAD EQ PUSH2 0xE14 JUMPI PUSH1 0x40 MLOAD PUSH3 0x461BCD PUSH1 0xE5 SHL DUP2 MSTORE PUSH1 0x20 PUSH1 0x4 DUP3 ADD MSTORE PUSH1 0x29 PUSH1 0x24 DUP3 ADD MSTORE PUSH32 0x455243313135353A206163636F756E747320616E6420696473206C656E677468 PUSH1 0x44 DUP3 ADD MSTORE PUSH9 0x40DAD2E6DAC2E8C6D PUSH1 0xBB SHL PUSH1 0x64 DUP3 ADD MSTORE PUSH1 0x84 ADD PUSH2 0x8AE JUMP JUMPDEST PUSH1 0x0 DUP4 MLOAD PUSH1 0x1 PUSH1 0x1 PUSH1 0x40 SHL SUB DUP2 GT ISZERO PUSH2 0xE2F JUMPI PUSH2 0xE2F PUSH2 0x33BB JUMP JUMPDEST PUSH1 0x40 MLOAD SWAP1 DUP1 DUP3 MSTORE DUP1 PUSH1 0x20 MUL PUSH1 0x20 ADD DUP3 ADD PUSH1 0x40 MSTORE DUP1 ISZERO PUSH2 0xE58 JUMPI DUP2 PUSH1 0x20 ADD PUSH1 0x20 DUP3 MUL DUP1 CALLDATASIZE DUP4 CALLDATACOPY ADD SWAP1 POP JUMPDEST POP SWAP1 POP PUSH1 0x0 JUMPDEST DUP5 MLOAD DUP2 LT ISZERO PUSH2 0xED0 JUMPI PUSH2 0xEA3 DUP6 DUP3 DUP2 MLOAD DUP2 LT PUSH2 0xE7C JUMPI PUSH2 0xE7C PUSH2 0x3BB0 JUMP JUMPDEST PUSH1 0x20 MUL PUSH1 0x20 ADD ADD MLOAD DUP6 DUP4 DUP2 MLOAD DUP2 LT PUSH2 0xE96 JUMPI PUSH2 0xE96 PUSH2 0x3BB0 JUMP JUMPDEST PUSH1 0x20 MUL PUSH1 0x20 ADD ADD MLOAD PUSH2 0x847 JUMP JUMPDEST DUP3 DUP3 DUP2 MLOAD DUP2 LT PUSH2 0xEB5 JUMPI PUSH2 0xEB5 PUSH2 0x3BB0 JUMP JUMPDEST PUSH1 0x20 SWAP1 DUP2 MUL SWAP2 SWAP1 SWAP2 ADD ADD MSTORE PUSH2 0xEC9 DUP2 PUSH2 0x3C36 JUMP JUMPDEST SWAP1 POP PUSH2 0xE5E JUMP JUMPDEST POP SWAP4 SWAP3 POP POP POP JUMP JUMPDEST PUSH1 0x0 PUSH2 0x8DC DUP3 PUSH2 0x1B6B JUMP JUMPDEST PUSH1 0x0 PUSH2 0xDAA PUSH1 0x3 SLOAD SWAP1 JUMP JUMPDEST PUSH2 0xEF6 PUSH2 0x1458 JUMP JUMPDEST PUSH2 0xEFF CALLER PUSH2 0x1479 JUMP JUMPDEST PUSH2 0x972 DUP2 PUSH2 0x1B9A JUMP JUMPDEST PUSH1 0x0 PUSH2 0xDAA PUSH1 0x2 SLOAD PUSH1 0x1 PUSH1 0x1 PUSH1 0xA0 SHL SUB AND SWAP1 JUMP JUMPDEST PUSH2 0xF24 PUSH2 0x1458 JUMP JUMPDEST PUSH2 0xF2D CALLER PUSH2 0x1479 JUMP JUMPDEST PUSH2 0x972 DUP2 PUSH2 0x1BA6 JUMP JUMPDEST PUSH2 0xF3E PUSH2 0x1458 JUMP JUMPDEST PUSH2 0xF48 DUP5 CALLER PUSH2 0x1BB2 JUMP JUMPDEST PUSH2 0xF54 DUP5 DUP5 DUP5 DUP5 PUSH2 0x1C27 JUMP JUMPDEST PUSH2 0xF5C PUSH2 0x10D7 JUMP JUMPDEST POP POP POP POP JUMP JUMPDEST PUSH2 0xF6A PUSH2 0x1458 JUMP JUMPDEST PUSH2 0xF73 CALLER PUSH2 0x1479 JUMP JUMPDEST PUSH1 0x2 DUP1 SLOAD PUSH1 0x1 PUSH1 0x1 PUSH1 0xA0 SHL SUB NOT AND PUSH1 0x1 PUSH1 0x1 PUSH1 0xA0 SHL SUB DUP4 AND OR SWAP1 SSTORE PUSH2 0x972 JUMP JUMPDEST PUSH1 0x60 PUSH2 0x8DC DUP3 PUSH2 0x1C6B JUMP JUMPDEST PUSH2 0xFA6 PUSH2 0x1458 JUMP JUMPDEST PUSH2 0xFAF CALLER PUSH2 0x1479 JUMP JUMPDEST PUSH2 0x972 DUP2 PUSH2 0x1C76 JUMP JUMPDEST PUSH1 0x0 PUSH2 0x8DC DUP3 PUSH2 0x1C82 JUMP JUMPDEST PUSH1 0x1 PUSH1 0x1 PUSH1 0xA0 SHL SUB DUP3 AND CALLER SUB PUSH2 0x102D JUMPI PUSH1 0x40 MLOAD PUSH3 0x461BCD PUSH1 0xE5 SHL DUP2 MSTORE PUSH1 0x20 PUSH1 0x4 DUP3 ADD MSTORE PUSH1 0x29 PUSH1 0x24 DUP3 ADD MSTORE PUSH32 0x455243313135353A2073657474696E6720617070726F76616C20737461747573 PUSH1 0x44 DUP3 ADD MSTORE PUSH9 0x103337B91039B2B633 PUSH1 0xB9 SHL PUSH1 0x64 DUP3 ADD MSTORE PUSH1 0x84 ADD PUSH2 0x8AE JUMP JUMPDEST CALLER PUSH1 0x0 DUP2 DUP2 MSTORE PUSH1 0xA PUSH1 0x20 SWAP1 DUP2 MSTORE PUSH1 0x40 DUP1 DUP4 KECCAK256 PUSH1 0x1 PUSH1 0x1 PUSH1 0xA0 SHL SUB DUP8 AND DUP1 DUP6 MSTORE SWAP1 DUP4 MSTORE SWAP3 DUP2 SWAP1 KECCAK256 DUP1 SLOAD PUSH1 0xFF NOT AND DUP7 ISZERO ISZERO SWAP1 DUP2 OR SWAP1 SWAP2 SSTORE SWAP1 MLOAD SWAP1 DUP2 MSTORE SWAP2 SWAP3 SWAP2 PUSH32 0x17307EAB39AB6107E8899845AD3D59BD9653F200F220920489CA2B5937696C31 SWAP2 ADD PUSH1 0x40 MLOAD DUP1 SWAP2 SUB SWAP1 LOG3 POP POP JUMP JUMPDEST PUSH1 0x60 PUSH2 0x8DC DUP3 PUSH2 0x1C94 JUMP JUMPDEST PUSH2 0x10AC PUSH2 0x1458 JUMP JUMPDEST PUSH2 0x10B5 CALLER PUSH2 0x1479 JUMP JUMPDEST PUSH2 0x10C1 DUP4 CALLER DUP5 DUP5 PUSH2 0x1C9F JUMP JUMPDEST PUSH2 0x10C9 PUSH2 0x10D7 JUMP JUMPDEST POP POP POP JUMP JUMPDEST PUSH2 0x10D7 CALLER PUSH2 0x1479 JUMP JUMPDEST PUSH2 0xD93 PUSH1 0x0 PUSH2 0x1E25 JUMP JUMPDEST PUSH2 0x10E9 PUSH2 0x1458 JUMP JUMPDEST PUSH2 0x10F2 CALLER PUSH2 0x1479 JUMP JUMPDEST PUSH2 0xB22 DUP3 DUP3 CALLER PUSH2 0x1E43 JUMP JUMPDEST PUSH1 0x0 DUP3 DUP2 MSTORE PUSH1 0x9 PUSH1 0x20 MSTORE PUSH1 0x40 DUP2 KECCAK256 SLOAD PUSH1 0x1 PUSH1 0x1 PUSH1 0xA0 SHL SUB DUP4 DUP2 AND SWAP2 AND EQ JUMPDEST SWAP4 SWAP3 POP POP POP JUMP JUMPDEST PUSH1 0x0 DUP2 DUP2 MSTORE PUSH1 0x9 PUSH1 0x20 MSTORE PUSH1 0x40 DUP2 KECCAK256 SLOAD PUSH1 0x1 PUSH1 0x1 PUSH1 0xA0 SHL SUB AND PUSH2 0x8DC JUMP JUMPDEST PUSH1 0x0 PUSH2 0xDAA PUSH1 0x1 SLOAD PUSH1 0x1 PUSH1 0x1 PUSH1 0xA0 SHL SUB AND SWAP1 JUMP JUMPDEST PUSH2 0x115B PUSH2 0x1458 JUMP JUMPDEST PUSH2 0x1164 CALLER PUSH2 0x1479 JUMP JUMPDEST PUSH2 0x972 DUP2 PUSH1 0x1 DUP1 SLOAD PUSH1 0x1 PUSH1 0x1 PUSH1 0xA0 SHL SUB NOT AND PUSH1 0x1 PUSH1 0x1 PUSH1 0xA0 SHL SUB DUP4 AND OR SWAP1 SSTORE POP JUMP JUMPDEST PUSH1 0x60 PUSH1 0x0 PUSH1 0x7 PUSH1 0x4 PUSH1 0x6 PUSH1 0x5 PUSH2 0x119D PUSH1 0x3 SLOAD PUSH2 0x1FBE JUMP JUMPDEST PUSH1 0x2 SLOAD PUSH2 0x11B2 SWAP1 PUSH1 0x1 PUSH1 0x1 PUSH1 0xA0 SHL SUB AND PUSH2 0x20E9 JUMP JUMPDEST PUSH1 0x40 MLOAD PUSH1 0x20 ADD PUSH2 0x11C7 SWAP7 SWAP6 SWAP5 SWAP4 SWAP3 SWAP2 SWAP1 PUSH2 0x3D2A JUMP JUMPDEST PUSH1 0x40 MLOAD PUSH1 0x20 DUP2 DUP4 SUB SUB DUP2 MSTORE SWAP1 PUSH1 0x40 MSTORE SWAP1 POP PUSH2 0x11EC DUP2 PUSH1 0x40 MLOAD PUSH1 0x20 ADD PUSH2 0x9E2 SWAP2 SWAP1 PUSH2 0x3A65 JUMP JUMPDEST PUSH1 0x40 MLOAD PUSH1 0x20 ADD PUSH2 0x11FC SWAP2 SWAP1 PUSH2 0x3A81 JUMP JUMPDEST PUSH1 0x40 MLOAD PUSH1 0x20 DUP2 DUP4 SUB SUB DUP2 MSTORE SWAP1 PUSH1 0x40 MSTORE SWAP2 POP POP SWAP1 JUMP JUMPDEST PUSH1 0x1 PUSH1 0x1 PUSH1 0xA0 SHL SUB SWAP2 DUP3 AND PUSH1 0x0 SWAP1 DUP2 MSTORE PUSH1 0xA PUSH1 0x20 SWAP1 DUP2 MSTORE PUSH1 0x40 DUP1 DUP4 KECCAK256 SWAP4 SWAP1 SWAP5 AND DUP3 MSTORE SWAP2 SWAP1 SWAP2 MSTORE KECCAK256 SLOAD PUSH1 0xFF AND SWAP1 JUMP JUMPDEST PUSH1 0x1 PUSH1 0x1 PUSH1 0xA0 SHL SUB DUP5 AND PUSH2 0x1265 JUMPI PUSH1 0x40 MLOAD PUSH3 0x461BCD PUSH1 0xE5 SHL DUP2 MSTORE PUSH1 0x4 ADD PUSH2 0x8AE SWAP1 PUSH2 0x3B1D JUMP JUMPDEST PUSH1 0x1 PUSH1 0x1 PUSH1 0xA0 SHL SUB DUP6 AND CALLER EQ DUP1 PUSH2 0x1281 JUMPI POP PUSH2 0x1281 DUP6 CALLER PUSH2 0x1211 JUMP JUMPDEST PUSH2 0x129D JUMPI PUSH1 0x40 MLOAD PUSH3 0x461BCD PUSH1 0xE5 SHL DUP2 MSTORE PUSH1 0x4 ADD PUSH2 0x8AE SWAP1 PUSH2 0x3B62 JUMP JUMPDEST PUSH1 0x0 DUP4 DUP2 MSTORE PUSH1 0xB PUSH1 0x20 SWAP1 DUP2 MSTORE PUSH1 0x40 DUP1 DUP4 KECCAK256 PUSH1 0x1 PUSH1 0x1 PUSH1 0xA0 SHL SUB DUP10 AND DUP5 MSTORE SWAP1 SWAP2 MSTORE SWAP1 KECCAK256 SLOAD DUP3 DUP2 LT ISZERO PUSH2 0x12E0 JUMPI PUSH1 0x40 MLOAD PUSH3 0x461BCD PUSH1 0xE5 SHL DUP2 MSTORE PUSH1 0x4 ADD PUSH2 0x8AE SWAP1 PUSH2 0x3BC6 JUMP JUMPDEST PUSH2 0x12EA DUP4 DUP3 PUSH2 0x3C10 JUMP JUMPDEST PUSH1 0x0 DUP6 DUP2 MSTORE PUSH1 0xB PUSH1 0x20 SWAP1 DUP2 MSTORE PUSH1 0x40 DUP1 DUP4 KECCAK256 PUSH1 0x1 PUSH1 0x1 PUSH1 0xA0 SHL SUB DUP12 DUP2 AND DUP6 MSTORE SWAP3 MSTORE DUP1 DUP4 KECCAK256 SWAP4 SWAP1 SWAP4 SSTORE DUP8 AND DUP2 MSTORE SWAP1 DUP2 KECCAK256 DUP1 SLOAD DUP6 SWAP3 SWAP1 PUSH2 0x1328 SWAP1 DUP5 SWAP1 PUSH2 0x3C23 JUMP JUMPDEST SWAP1 SWAP2 SSTORE POP PUSH2 0x1338 SWAP1 POP DUP5 DUP7 PUSH2 0x196F JUMP JUMPDEST PUSH1 0x40 DUP1 MLOAD DUP6 DUP2 MSTORE PUSH1 0x20 DUP2 ADD DUP6 SWAP1 MSTORE PUSH1 0x1 PUSH1 0x1 PUSH1 0xA0 SHL SUB DUP1 DUP9 AND SWAP3 SWAP1 DUP10 AND SWAP2 CALLER SWAP2 PUSH32 0xC3D58168C5AE7397731D063D5BBF3D657854427343F4C083240F7AACAA2D0F62 SWAP2 ADD PUSH1 0x40 MLOAD DUP1 SWAP2 SUB SWAP1 LOG4 PUSH2 0x1391 CALLER DUP8 DUP8 DUP8 DUP8 DUP8 PUSH2 0x20F4 JUMP JUMPDEST POP POP POP POP POP POP JUMP JUMPDEST PUSH2 0x13A1 PUSH2 0x1458 JUMP JUMPDEST PUSH2 0x13AA CALLER PUSH2 0x1479 JUMP JUMPDEST PUSH2 0xF54 DUP5 DUP5 CALLER DUP6 DUP6 PUSH2 0x21AF JUMP JUMPDEST PUSH1 0x0 PUSH1 0x1 PUSH1 0x1 PUSH1 0xE0 SHL SUB NOT DUP3 AND PUSH4 0x1FFC9A7 PUSH1 0xE0 SHL EQ DUP1 PUSH2 0x13E8 JUMPI POP PUSH1 0x1 PUSH1 0x1 PUSH1 0xE0 SHL SUB NOT DUP3 AND PUSH4 0xA85BD01 PUSH1 0xE1 SHL EQ JUMPDEST DUP1 PUSH2 0x1402 JUMPI POP PUSH1 0x1 PUSH1 0x1 PUSH1 0xE0 SHL SUB NOT DUP3 AND PUSH3 0x23DE29 PUSH1 0xE0 SHL EQ JUMPDEST DUP1 PUSH2 0x141D JUMPI POP PUSH1 0x1 PUSH1 0x1 PUSH1 0xE0 SHL SUB NOT DUP3 AND PUSH4 0x3AD5CBC1 PUSH1 0xE1 SHL EQ JUMPDEST DUP1 PUSH2 0x1438 JUMPI POP PUSH1 0x1 PUSH1 0x1 PUSH1 0xE0 SHL SUB NOT DUP3 AND PUSH4 0x2711897 PUSH1 0xE5 SHL EQ JUMPDEST DUP1 PUSH2 0x8DC JUMPI POP PUSH1 0x1 PUSH1 0x1 PUSH1 0xE0 SHL SUB NOT DUP3 AND PUSH4 0x124E59FD PUSH1 0xE1 SHL EQ SWAP3 SWAP2 POP POP JUMP JUMPDEST PUSH1 0x1 SLOAD PUSH1 0x1 PUSH1 0xA0 SHL SWAP1 DIV PUSH1 0xFF AND ISZERO PUSH2 0x146F JUMPI PUSH2 0x146F INVALID JUMPDEST PUSH2 0xD93 PUSH1 0x1 PUSH2 0x1E25 JUMP JUMPDEST PUSH2 0x1482 DUP2 PUSH2 0x1C82 JUMP JUMPDEST PUSH2 0x97A JUMPI DUP1 PUSH2 0x1499 PUSH1 0x0 SLOAD PUSH1 0x1 PUSH1 0x1 PUSH1 0xA0 SHL SUB AND SWAP1 JUMP JUMPDEST PUSH1 0x40 MLOAD PUSH4 0xDAA8083 PUSH1 0xE0 SHL DUP2 MSTORE PUSH1 0x1 PUSH1 0x1 PUSH1 0xA0 SHL SUB SWAP3 DUP4 AND PUSH1 0x4 DUP3 ADD MSTORE SWAP2 AND PUSH1 0x24 DUP3 ADD MSTORE PUSH1 0x44 ADD PUSH2 0x8AE JUMP JUMPDEST PUSH1 0x60 PUSH2 0x14D0 DUP3 PUSH2 0x1FBE JUMP JUMPDEST PUSH1 0x40 MLOAD PUSH1 0x20 ADD PUSH2 0x14E0 SWAP2 SWAP1 PUSH2 0x3E42 JUMP JUMPDEST PUSH1 0x40 MLOAD PUSH1 0x20 DUP2 DUP4 SUB SUB DUP2 MSTORE SWAP1 PUSH1 0x40 MSTORE SWAP1 POP SWAP2 SWAP1 POP JUMP JUMPDEST PUSH1 0x60 DUP2 PUSH1 0x0 SUB PUSH2 0x152E JUMPI POP POP PUSH1 0x40 DUP1 MLOAD DUP1 DUP3 ADD SWAP1 SWAP2 MSTORE PUSH1 0x12 DUP2 MSTORE PUSH18 0x2A34329031BAB93932B73A1034B6B0B3B297 PUSH1 0x71 SHL PUSH1 0x20 DUP3 ADD MSTORE SWAP1 JUMP JUMPDEST PUSH1 0x1 DUP3 LT ISZERO DUP1 ISZERO PUSH2 0x1549 JUMPI POP PUSH2 0x1545 PUSH1 0x3 DUP1 PUSH2 0x3ADC JUMP JUMPDEST DUP3 GT ISZERO JUMPDEST ISZERO PUSH2 0x15FB JUMPI PUSH1 0x0 DUP3 DUP2 MSTORE PUSH1 0x8 PUSH1 0x20 SWAP1 DUP2 MSTORE PUSH1 0x40 DUP1 DUP4 KECCAK256 DUP2 MLOAD PUSH1 0xA0 DUP2 ADD DUP4 MSTORE DUP2 SLOAD DUP1 DUP3 MSTORE PUSH1 0x1 DUP4 ADD SLOAD SWAP5 DUP3 ADD SWAP5 SWAP1 SWAP5 MSTORE PUSH1 0x2 SWAP1 SWAP2 ADD SLOAD PUSH1 0xFF DUP1 DUP3 AND SWAP4 DUP4 ADD SWAP4 SWAP1 SWAP4 MSTORE PUSH2 0x100 DUP2 DIV DUP4 AND PUSH1 0x60 DUP4 ADD MSTORE PUSH3 0x10000 SWAP1 DIV SWAP1 SWAP2 AND PUSH1 0x80 DUP3 ADD MSTORE SWAP2 SWAP1 PUSH2 0x15AF SWAP1 PUSH2 0x1FBE JUMP JUMPDEST SWAP1 POP PUSH1 0x0 PUSH2 0x15C0 DUP4 PUSH1 0x20 ADD MLOAD PUSH2 0x1FBE JUMP JUMPDEST SWAP1 POP PUSH1 0x0 PUSH2 0x15E4 DUP5 PUSH1 0x40 ADD MLOAD PUSH1 0xFF AND DUP6 PUSH1 0x60 ADD MLOAD PUSH1 0xFF AND DUP7 PUSH1 0x80 ADD MLOAD PUSH1 0xFF AND PUSH2 0x2339 JUMP JUMPDEST SWAP1 POP DUP3 DUP3 DUP3 PUSH1 0x40 MLOAD PUSH1 0x20 ADD PUSH2 0xA06 SWAP4 SWAP3 SWAP2 SWAP1 PUSH2 0x3E7E JUMP JUMPDEST POP POP PUSH1 0x40 DUP1 MLOAD DUP1 DUP3 ADD SWAP1 SWAP2 MSTORE PUSH1 0xA DUP2 MSTORE PUSH10 0x28556E6D696E74656429 PUSH1 0xB0 SHL PUSH1 0x20 DUP3 ADD MSTORE SWAP1 JUMP JUMPDEST SWAP2 SWAP1 POP JUMP JUMPDEST PUSH1 0x60 DUP2 PUSH1 0x0 SUB PUSH2 0x1638 JUMPI PUSH2 0x8DC PUSH2 0x25A5 JUMP JUMPDEST PUSH2 0x1643 PUSH1 0x3 DUP1 PUSH2 0x3ADC JUMP JUMPDEST DUP3 GT PUSH2 0x1652 JUMPI PUSH2 0x8DC DUP3 PUSH2 0x2998 JUMP JUMPDEST POP POP PUSH1 0x40 DUP1 MLOAD PUSH1 0x20 DUP2 ADD SWAP1 SWAP2 MSTORE PUSH1 0x0 DUP2 MSTORE SWAP1 JUMP JUMPDEST PUSH1 0x60 DUP2 MLOAD PUSH1 0x0 SUB PUSH2 0x1685 JUMPI POP POP PUSH1 0x40 DUP1 MLOAD PUSH1 0x20 DUP2 ADD SWAP1 SWAP2 MSTORE PUSH1 0x0 DUP2 MSTORE SWAP1 JUMP JUMPDEST PUSH1 0x0 PUSH1 0x40 MLOAD DUP1 PUSH1 0x60 ADD PUSH1 0x40 MSTORE DUP1 PUSH1 0x40 DUP2 MSTORE PUSH1 0x20 ADD PUSH2 0x4517 PUSH1 0x40 SWAP2 CODECOPY SWAP1 POP PUSH1 0x0 PUSH1 0x3 DUP5 MLOAD PUSH1 0x2 PUSH2 0x16B4 SWAP2 SWAP1 PUSH2 0x3C23 JUMP JUMPDEST PUSH2 0x16BE SWAP2 SWAP1 PUSH2 0x3B09 JUMP JUMPDEST PUSH2 0x16C9 SWAP1 PUSH1 0x4 PUSH2 0x3ADC JUMP JUMPDEST PUSH1 0x1 PUSH1 0x1 PUSH1 0x40 SHL SUB DUP2 GT ISZERO PUSH2 0x16E0 JUMPI PUSH2 0x16E0 PUSH2 0x33BB JUMP JUMPDEST PUSH1 0x40 MLOAD SWAP1 DUP1 DUP3 MSTORE DUP1 PUSH1 0x1F ADD PUSH1 0x1F NOT AND PUSH1 0x20 ADD DUP3 ADD PUSH1 0x40 MSTORE DUP1 ISZERO PUSH2 0x170A JUMPI PUSH1 0x20 DUP3 ADD DUP2 DUP1 CALLDATASIZE DUP4 CALLDATACOPY ADD SWAP1 POP JUMPDEST POP SWAP1 POP PUSH1 0x1 DUP3 ADD PUSH1 0x20 DUP3 ADD DUP6 DUP7 MLOAD DUP8 ADD JUMPDEST DUP1 DUP3 LT ISZERO PUSH2 0x1776 JUMPI PUSH1 0x3 DUP3 ADD SWAP2 POP DUP2 MLOAD PUSH1 0x3F DUP2 PUSH1 0x12 SHR AND DUP6 ADD MLOAD DUP5 MSTORE8 PUSH1 0x1 DUP5 ADD SWAP4 POP PUSH1 0x3F DUP2 PUSH1 0xC SHR AND DUP6 ADD MLOAD DUP5 MSTORE8 PUSH1 0x1 DUP5 ADD SWAP4 POP PUSH1 0x3F DUP2 PUSH1 0x6 SHR AND DUP6 ADD MLOAD DUP5 MSTORE8 PUSH1 0x1 DUP5 ADD SWAP4 POP PUSH1 0x3F DUP2 AND DUP6 ADD MLOAD DUP5 MSTORE8 POP PUSH1 0x1 DUP4 ADD SWAP3 POP PUSH2 0x171B JUMP JUMPDEST POP POP PUSH1 0x3 DUP7 MLOAD MOD PUSH1 0x1 DUP2 EQ PUSH2 0x1792 JUMPI PUSH1 0x2 DUP2 EQ PUSH2 0x17A5 JUMPI PUSH2 0x17AD JUMP JUMPDEST PUSH1 0x3D PUSH1 0x1 DUP4 SUB MSTORE8 PUSH1 0x3D PUSH1 0x2 DUP4 SUB MSTORE8 PUSH2 0x17AD JUMP JUMPDEST PUSH1 0x3D PUSH1 0x1 DUP4 SUB MSTORE8 JUMPDEST POP SWAP2 SWAP6 SWAP5 POP POP POP POP POP JUMP JUMPDEST PUSH1 0x6 PUSH2 0xB2A DUP3 DUP3 PUSH2 0x3F43 JUMP JUMPDEST DUP3 PUSH1 0x1 PUSH1 0x1 PUSH1 0xA0 SHL SUB AND EXTCODESIZE PUSH1 0x0 SUB PUSH2 0x181E JUMPI PUSH1 0x40 MLOAD PUSH3 0x461BCD PUSH1 0xE5 SHL DUP2 MSTORE PUSH1 0x20 PUSH1 0x4 DUP3 ADD MSTORE PUSH1 0x17 PUSH1 0x24 DUP3 ADD MSTORE PUSH32 0x4552433230546F6B656E436F6E74726163744572726F72000000000000000000 PUSH1 0x44 DUP3 ADD MSTORE PUSH1 0x64 ADD PUSH2 0x8AE JUMP JUMPDEST PUSH1 0x40 DUP1 MLOAD PUSH1 0x1 PUSH1 0x1 PUSH1 0xA0 SHL SUB DUP5 DUP2 AND PUSH1 0x24 DUP4 ADD MSTORE PUSH1 0x44 DUP1 DUP4 ADD DUP6 SWAP1 MSTORE DUP4 MLOAD DUP1 DUP5 SUB SWAP1 SWAP2 ADD DUP2 MSTORE PUSH1 0x64 SWAP1 SWAP3 ADD DUP4 MSTORE PUSH1 0x20 DUP3 ADD DUP1 MLOAD PUSH1 0x1 PUSH1 0x1 PUSH1 0xE0 SHL SUB AND PUSH4 0xA9059CBB PUSH1 0xE0 SHL OR SWAP1 MSTORE SWAP2 MLOAD SWAP1 SWAP2 PUSH1 0x0 SWAP2 DUP3 SWAP2 DUP8 AND SWAP1 PUSH2 0x187C SWAP1 DUP6 SWAP1 PUSH2 0x3A65 JUMP JUMPDEST PUSH1 0x0 PUSH1 0x40 MLOAD DUP1 DUP4 SUB DUP2 PUSH1 0x0 DUP7 GAS CALL SWAP2 POP POP RETURNDATASIZE DUP1 PUSH1 0x0 DUP2 EQ PUSH2 0x18B9 JUMPI PUSH1 0x40 MLOAD SWAP2 POP PUSH1 0x1F NOT PUSH1 0x3F RETURNDATASIZE ADD AND DUP3 ADD PUSH1 0x40 MSTORE RETURNDATASIZE DUP3 MSTORE RETURNDATASIZE PUSH1 0x0 PUSH1 0x20 DUP5 ADD RETURNDATACOPY PUSH2 0x18BE JUMP JUMPDEST PUSH1 0x60 SWAP2 POP JUMPDEST POP SWAP2 POP SWAP2 POP DUP2 ISZERO DUP1 PUSH2 0x18EC JUMPI POP DUP1 MLOAD ISZERO DUP1 ISZERO SWAP1 PUSH2 0x18EC JUMPI POP DUP1 DUP1 PUSH1 0x20 ADD SWAP1 MLOAD DUP2 ADD SWAP1 PUSH2 0x18EA SWAP2 SWAP1 PUSH2 0x4002 JUMP JUMPDEST ISZERO JUMPDEST ISZERO PUSH2 0x1391 JUMPI PUSH1 0x40 MLOAD PUSH3 0x461BCD PUSH1 0xE5 SHL DUP2 MSTORE PUSH1 0x20 PUSH1 0x4 DUP3 ADD MSTORE PUSH1 0x17 PUSH1 0x24 DUP3 ADD MSTORE PUSH32 0x4552433230546F6B656E5472616E736665724572726F72000000000000000000 PUSH1 0x44 DUP3 ADD MSTORE PUSH1 0x64 ADD PUSH2 0x8AE JUMP JUMPDEST PUSH1 0x40 MLOAD PUSH1 0x1 PUSH1 0x1 PUSH1 0xA0 SHL SUB DUP4 AND SWAP1 DUP3 ISZERO PUSH2 0x8FC MUL SWAP1 DUP4 SWAP1 PUSH1 0x0 DUP2 DUP2 DUP2 DUP6 DUP9 DUP9 CALL SWAP4 POP POP POP POP ISZERO DUP1 ISZERO PUSH2 0x10C9 JUMPI RETURNDATASIZE PUSH1 0x0 DUP1 RETURNDATACOPY RETURNDATASIZE PUSH1 0x0 REVERT JUMPDEST PUSH1 0x0 SWAP2 DUP3 MSTORE PUSH1 0x9 PUSH1 0x20 MSTORE PUSH1 0x40 SWAP1 SWAP2 KECCAK256 DUP1 SLOAD PUSH1 0x1 PUSH1 0x1 PUSH1 0xA0 SHL SUB NOT AND PUSH1 0x1 PUSH1 0x1 PUSH1 0xA0 SHL SUB SWAP1 SWAP3 AND SWAP2 SWAP1 SWAP2 OR SWAP1 SSTORE JUMP JUMPDEST PUSH1 0x1 PUSH1 0x1 PUSH1 0xA0 SHL SUB DUP5 AND EXTCODESIZE ISZERO PUSH2 0x1391 JUMPI PUSH1 0x40 MLOAD PUSH4 0xBC197C81 PUSH1 0xE0 SHL DUP2 MSTORE PUSH1 0x1 PUSH1 0x1 PUSH1 0xA0 SHL SUB DUP6 AND SWAP1 PUSH4 0xBC197C81 SWAP1 PUSH2 0x19E1 SWAP1 DUP10 SWAP1 DUP10 SWAP1 DUP9 SWAP1 DUP9 SWAP1 DUP9 SWAP1 PUSH1 0x4 ADD PUSH2 0x401F JUMP JUMPDEST PUSH1 0x20 PUSH1 0x40 MLOAD DUP1 DUP4 SUB DUP2 PUSH1 0x0 DUP8 GAS CALL SWAP3 POP POP POP DUP1 ISZERO PUSH2 0x1A1C JUMPI POP PUSH1 0x40 DUP1 MLOAD PUSH1 0x1F RETURNDATASIZE SWAP1 DUP2 ADD PUSH1 0x1F NOT AND DUP3 ADD SWAP1 SWAP3 MSTORE PUSH2 0x1A19 SWAP2 DUP2 ADD SWAP1 PUSH2 0x407D JUMP JUMPDEST PUSH1 0x1 JUMPDEST PUSH2 0x1AC8 JUMPI PUSH2 0x1A28 PUSH2 0x409A JUMP JUMPDEST DUP1 PUSH4 0x8C379A0 SUB PUSH2 0x1A61 JUMPI POP PUSH2 0x1A3C PUSH2 0x40B6 JUMP JUMPDEST DUP1 PUSH2 0x1A47 JUMPI POP PUSH2 0x1A63 JUMP JUMPDEST DUP1 PUSH1 0x40 MLOAD PUSH3 0x461BCD PUSH1 0xE5 SHL DUP2 MSTORE PUSH1 0x4 ADD PUSH2 0x8AE SWAP2 SWAP1 PUSH2 0x33A8 JUMP JUMPDEST POP JUMPDEST PUSH1 0x40 MLOAD PUSH3 0x461BCD PUSH1 0xE5 SHL DUP2 MSTORE PUSH1 0x20 PUSH1 0x4 DUP3 ADD MSTORE PUSH1 0x34 PUSH1 0x24 DUP3 ADD MSTORE PUSH32 0x455243313135353A207472616E7366657220746F206E6F6E2D45524331313535 PUSH1 0x44 DUP3 ADD MSTORE PUSH20 0x2932B1B2B4BB32B91034B6B83632B6B2B73A32B9 PUSH1 0x61 SHL PUSH1 0x64 DUP3 ADD MSTORE PUSH1 0x84 ADD PUSH2 0x8AE JUMP JUMPDEST PUSH1 0x1 PUSH1 0x1 PUSH1 0xE0 SHL SUB NOT DUP2 AND PUSH4 0xBC197C81 PUSH1 0xE0 SHL EQ PUSH2 0x1AF8 JUMPI PUSH1 0x40 MLOAD PUSH3 0x461BCD PUSH1 0xE5 SHL DUP2 MSTORE PUSH1 0x4 ADD PUSH2 0x8AE SWAP1 PUSH2 0x413F JUMP JUMPDEST POP POP POP POP POP POP POP JUMP JUMPDEST PUSH2 0x1B0A DUP2 PUSH2 0x1B6B JUMP JUMPDEST PUSH2 0x97A JUMPI DUP1 PUSH2 0x1B21 PUSH1 0x1 SLOAD PUSH1 0x1 PUSH1 0x1 PUSH1 0xA0 SHL SUB AND SWAP1 JUMP JUMPDEST PUSH1 0x40 MLOAD PUSH4 0x549FBFE3 PUSH1 0xE0 SHL DUP2 MSTORE PUSH1 0x1 PUSH1 0x1 PUSH1 0xA0 SHL SUB SWAP3 DUP4 AND PUSH1 0x4 DUP3 ADD MSTORE SWAP2 AND PUSH1 0x24 DUP3 ADD MSTORE PUSH1 0x44 ADD PUSH2 0x8AE JUMP JUMPDEST PUSH2 0x97A DUP2 PUSH2 0x2C56 JUMP JUMPDEST PUSH1 0x60 PUSH2 0x8DC DUP3 PUSH2 0x1626 JUMP JUMPDEST PUSH1 0x60 PUSH2 0xDAA PUSH2 0x1186 JUMP JUMPDEST PUSH1 0x0 PUSH2 0x1B7F PUSH1 0x1 SLOAD PUSH1 0x1 PUSH1 0x1 PUSH1 0xA0 SHL SUB AND SWAP1 JUMP JUMPDEST PUSH1 0x1 PUSH1 0x1 PUSH1 0xA0 SHL SUB AND DUP3 PUSH1 0x1 PUSH1 0x1 PUSH1 0xA0 SHL SUB AND EQ SWAP1 POP SWAP2 SWAP1 POP JUMP JUMPDEST PUSH1 0x4 PUSH2 0xB2A DUP3 DUP3 PUSH2 0x3F43 JUMP JUMPDEST PUSH1 0x7 PUSH2 0xB2A DUP3 DUP3 PUSH2 0x3F43 JUMP JUMPDEST PUSH1 0x0 DUP3 DUP2 MSTORE PUSH1 0x9 PUSH1 0x20 MSTORE PUSH1 0x40 SWAP1 KECCAK256 SLOAD PUSH1 0x1 PUSH1 0x1 PUSH1 0xA0 SHL SUB DUP3 DUP2 AND SWAP2 AND EQ PUSH2 0xB2A JUMPI DUP2 DUP2 PUSH2 0x1BF4 DUP5 PUSH1 0x0 SWAP1 DUP2 MSTORE PUSH1 0x9 PUSH1 0x20 MSTORE PUSH1 0x40 SWAP1 KECCAK256 SLOAD PUSH1 0x1 PUSH1 0x1 PUSH1 0xA0 SHL SUB AND SWAP1 JUMP JUMPDEST PUSH1 0x40 MLOAD PUSH4 0xB81A31AB PUSH1 0xE0 SHL DUP2 MSTORE PUSH1 0x4 DUP2 ADD SWAP4 SWAP1 SWAP4 MSTORE PUSH1 0x1 PUSH1 0x1 PUSH1 0xA0 SHL SUB SWAP2 DUP3 AND PUSH1 0x24 DUP5 ADD MSTORE AND PUSH1 0x44 DUP3 ADD MSTORE PUSH1 0x64 ADD PUSH2 0x8AE JUMP JUMPDEST PUSH1 0x0 DUP5 DUP2 MSTORE PUSH1 0x8 PUSH1 0x20 MSTORE PUSH1 0x40 SWAP1 KECCAK256 PUSH1 0x2 ADD DUP1 SLOAD PUSH1 0xFF DUP1 DUP7 AND PUSH2 0xFFFF NOT SWAP1 SWAP3 AND SWAP2 SWAP1 SWAP2 OR PUSH2 0x100 DUP3 DUP7 AND MUL OR PUSH3 0xFF0000 NOT AND PUSH3 0x10000 SWAP2 DUP5 AND SWAP2 SWAP1 SWAP2 MUL OR SWAP1 SSTORE PUSH2 0xF5C JUMP JUMPDEST PUSH1 0x60 PUSH2 0x8DC DUP3 PUSH2 0x14C5 JUMP JUMPDEST PUSH1 0x5 PUSH2 0xB2A DUP3 DUP3 PUSH2 0x3F43 JUMP JUMPDEST PUSH1 0x0 DUP1 SLOAD PUSH1 0x1 PUSH1 0x1 PUSH1 0xA0 SHL SUB AND PUSH2 0x1B7F JUMP JUMPDEST PUSH1 0x60 PUSH2 0x8DC DUP3 PUSH2 0x14F6 JUMP JUMPDEST DUP4 PUSH1 0x1 PUSH1 0x1 PUSH1 0xA0 SHL SUB AND EXTCODESIZE PUSH1 0x0 SUB PUSH2 0x1CF9 JUMPI PUSH1 0x40 MLOAD PUSH3 0x461BCD PUSH1 0xE5 SHL DUP2 MSTORE PUSH1 0x20 PUSH1 0x4 DUP3 ADD MSTORE PUSH1 0x18 PUSH1 0x24 DUP3 ADD MSTORE PUSH32 0x455243373737546F6B656E436F6E74726163744572726F720000000000000000 PUSH1 0x44 DUP3 ADD MSTORE PUSH1 0x64 ADD PUSH2 0x8AE JUMP JUMPDEST PUSH1 0x0 PUSH4 0x9BD9BBC6 PUSH1 0xE0 SHL DUP5 DUP5 DUP5 PUSH1 0x40 MLOAD PUSH1 0x24 ADD PUSH2 0x1D18 SWAP4 SWAP3 SWAP2 SWAP1 PUSH2 0x4187 JUMP JUMPDEST PUSH1 0x40 MLOAD PUSH1 0x20 DUP2 DUP4 SUB SUB DUP2 MSTORE SWAP1 PUSH1 0x40 MSTORE SWAP1 PUSH1 0x1 PUSH1 0x1 PUSH1 0xE0 SHL SUB NOT AND PUSH1 0x20 DUP3 ADD DUP1 MLOAD PUSH1 0x1 PUSH1 0x1 PUSH1 0xE0 SHL SUB DUP4 DUP2 DUP4 AND OR DUP4 MSTORE POP POP POP POP SWAP1 POP PUSH1 0x0 DUP1 DUP7 PUSH1 0x1 PUSH1 0x1 PUSH1 0xA0 SHL SUB AND DUP4 PUSH1 0x40 MLOAD PUSH2 0x1D68 SWAP2 SWAP1 PUSH2 0x3A65 JUMP JUMPDEST PUSH1 0x0 PUSH1 0x40 MLOAD DUP1 DUP4 SUB DUP2 PUSH1 0x0 DUP7 GAS CALL SWAP2 POP POP RETURNDATASIZE DUP1 PUSH1 0x0 DUP2 EQ PUSH2 0x1DA5 JUMPI PUSH1 0x40 MLOAD SWAP2 POP PUSH1 0x1F NOT PUSH1 0x3F RETURNDATASIZE ADD AND DUP3 ADD PUSH1 0x40 MSTORE RETURNDATASIZE DUP3 MSTORE RETURNDATASIZE PUSH1 0x0 PUSH1 0x20 DUP5 ADD RETURNDATACOPY PUSH2 0x1DAA JUMP JUMPDEST PUSH1 0x60 SWAP2 POP JUMPDEST POP SWAP2 POP SWAP2 POP DUP2 ISZERO DUP1 PUSH2 0x1DD8 JUMPI POP DUP1 MLOAD ISZERO DUP1 ISZERO SWAP1 PUSH2 0x1DD8 JUMPI POP DUP1 DUP1 PUSH1 0x20 ADD SWAP1 MLOAD DUP2 ADD SWAP1 PUSH2 0x1DD6 SWAP2 SWAP1 PUSH2 0x4002 JUMP JUMPDEST ISZERO JUMPDEST ISZERO PUSH2 0x1AF8 JUMPI PUSH1 0x40 MLOAD PUSH3 0x461BCD PUSH1 0xE5 SHL DUP2 MSTORE PUSH1 0x20 PUSH1 0x4 DUP3 ADD MSTORE PUSH1 0x18 PUSH1 0x24 DUP3 ADD MSTORE PUSH32 0x455243373737546F6B656E5472616E736665724572726F720000000000000000 PUSH1 0x44 DUP3 ADD MSTORE PUSH1 0x64 ADD PUSH2 0x8AE JUMP JUMPDEST PUSH1 0x1 DUP1 SLOAD SWAP2 ISZERO ISZERO PUSH1 0x1 PUSH1 0xA0 SHL MUL PUSH1 0xFF PUSH1 0xA0 SHL NOT SWAP1 SWAP3 AND SWAP2 SWAP1 SWAP2 OR SWAP1 SSTORE JUMP JUMPDEST DUP3 PUSH1 0x1 PUSH1 0x1 PUSH1 0xA0 SHL SUB AND EXTCODESIZE PUSH1 0x0 SUB PUSH2 0x1E9D JUMPI PUSH1 0x40 MLOAD PUSH3 0x461BCD PUSH1 0xE5 SHL DUP2 MSTORE PUSH1 0x20 PUSH1 0x4 DUP3 ADD MSTORE PUSH1 0x18 PUSH1 0x24 DUP3 ADD MSTORE PUSH32 0x455243373231546F6B656E436F6E74726163744572726F720000000000000000 PUSH1 0x44 DUP3 ADD MSTORE PUSH1 0x64 ADD PUSH2 0x8AE JUMP JUMPDEST PUSH1 0x40 DUP1 MLOAD ADDRESS PUSH1 0x24 DUP3 ADD MSTORE PUSH1 0x1 PUSH1 0x1 PUSH1 0xA0 SHL SUB DUP4 DUP2 AND PUSH1 0x44 DUP4 ADD MSTORE PUSH1 0x64 DUP1 DUP4 ADD DUP7 SWAP1 MSTORE DUP4 MLOAD DUP1 DUP5 SUB SWAP1 SWAP2 ADD DUP2 MSTORE PUSH1 0x84 SWAP1 SWAP3 ADD DUP4 MSTORE PUSH1 0x20 DUP3 ADD DUP1 MLOAD PUSH1 0x1 PUSH1 0x1 PUSH1 0xE0 SHL SUB AND PUSH4 0x23B872DD PUSH1 0xE0 SHL OR SWAP1 MSTORE SWAP2 MLOAD SWAP1 SWAP2 PUSH1 0x0 SWAP2 DUP3 SWAP2 DUP8 AND SWAP1 PUSH2 0x1F01 SWAP1 DUP6 SWAP1 PUSH2 0x3A65 JUMP JUMPDEST PUSH1 0x0 PUSH1 0x40 MLOAD DUP1 DUP4 SUB DUP2 PUSH1 0x0 DUP7 GAS CALL SWAP2 POP POP RETURNDATASIZE DUP1 PUSH1 0x0 DUP2 EQ PUSH2 0x1F3E JUMPI PUSH1 0x40 MLOAD SWAP2 POP PUSH1 0x1F NOT PUSH1 0x3F RETURNDATASIZE ADD AND DUP3 ADD PUSH1 0x40 MSTORE RETURNDATASIZE DUP3 MSTORE RETURNDATASIZE PUSH1 0x0 PUSH1 0x20 DUP5 ADD RETURNDATACOPY PUSH2 0x1F43 JUMP JUMPDEST PUSH1 0x60 SWAP2 POP JUMPDEST POP SWAP2 POP SWAP2 POP DUP2 ISZERO DUP1 PUSH2 0x1F71 JUMPI POP DUP1 MLOAD ISZERO DUP1 ISZERO SWAP1 PUSH2 0x1F71 JUMPI POP DUP1 DUP1 PUSH1 0x20 ADD SWAP1 MLOAD DUP2 ADD SWAP1 PUSH2 0x1F6F SWAP2 SWAP1 PUSH2 0x4002 JUMP JUMPDEST ISZERO JUMPDEST ISZERO PUSH2 0x1391 JUMPI PUSH1 0x40 MLOAD PUSH3 0x461BCD PUSH1 0xE5 SHL DUP2 MSTORE PUSH1 0x20 PUSH1 0x4 DUP3 ADD MSTORE PUSH1 0x18 PUSH1 0x24 DUP3 ADD MSTORE PUSH32 0x455243373231546F6B656E5472616E736665724572726F720000000000000000 PUSH1 0x44 DUP3 ADD MSTORE PUSH1 0x64 ADD PUSH2 0x8AE JUMP JUMPDEST PUSH1 0x60 DUP2 PUSH1 0x0 SUB PUSH2 0x1FE5 JUMPI POP POP PUSH1 0x40 DUP1 MLOAD DUP1 DUP3 ADD SWAP1 SWAP2 MSTORE PUSH1 0x1 DUP2 MSTORE PUSH1 0x3 PUSH1 0xFC SHL PUSH1 0x20 DUP3 ADD MSTORE SWAP1 JUMP JUMPDEST DUP2 PUSH1 0x0 JUMPDEST DUP2 ISZERO PUSH2 0x200F JUMPI DUP1 PUSH2 0x1FF9 DUP2 PUSH2 0x3C36 JUMP JUMPDEST SWAP2 POP PUSH2 0x2008 SWAP1 POP PUSH1 0xA DUP4 PUSH2 0x3B09 JUMP JUMPDEST SWAP2 POP PUSH2 0x1FE9 JUMP JUMPDEST PUSH1 0x0 DUP2 PUSH1 0x1 PUSH1 0x1 PUSH1 0x40 SHL SUB DUP2 GT ISZERO PUSH2 0x2029 JUMPI PUSH2 0x2029 PUSH2 0x33BB JUMP JUMPDEST PUSH1 0x40 MLOAD SWAP1 DUP1 DUP3 MSTORE DUP1 PUSH1 0x1F ADD PUSH1 0x1F NOT AND PUSH1 0x20 ADD DUP3 ADD PUSH1 0x40 MSTORE DUP1 ISZERO PUSH2 0x2053 JUMPI PUSH1 0x20 DUP3 ADD DUP2 DUP1 CALLDATASIZE DUP4 CALLDATACOPY ADD SWAP1 POP JUMPDEST POP SWAP1 POP DUP2 JUMPDEST DUP6 ISZERO PUSH2 0x20E0 JUMPI PUSH2 0x2069 PUSH1 0x1 DUP3 PUSH2 0x3C10 JUMP JUMPDEST SWAP1 POP PUSH1 0x0 PUSH2 0x2078 PUSH1 0xA DUP9 PUSH2 0x3B09 JUMP JUMPDEST PUSH2 0x2083 SWAP1 PUSH1 0xA PUSH2 0x3ADC JUMP JUMPDEST PUSH2 0x208D SWAP1 DUP9 PUSH2 0x3C10 JUMP JUMPDEST PUSH2 0x2098 SWAP1 PUSH1 0x30 PUSH2 0x41AE JUMP JUMPDEST SWAP1 POP PUSH1 0x0 DUP2 PUSH1 0xF8 SHL SWAP1 POP DUP1 DUP5 DUP5 DUP2 MLOAD DUP2 LT PUSH2 0x20B5 JUMPI PUSH2 0x20B5 PUSH2 0x3BB0 JUMP JUMPDEST PUSH1 0x20 ADD ADD SWAP1 PUSH1 0x1 PUSH1 0x1 PUSH1 0xF8 SHL SUB NOT AND SWAP1 DUP2 PUSH1 0x0 BYTE SWAP1 MSTORE8 POP PUSH2 0x20D7 PUSH1 0xA DUP10 PUSH2 0x3B09 JUMP JUMPDEST SWAP8 POP POP POP PUSH2 0x2058 JUMP JUMPDEST POP SWAP5 SWAP4 POP POP POP POP JUMP JUMPDEST PUSH1 0x60 PUSH2 0x8DC DUP3 PUSH2 0x2CC4 JUMP JUMPDEST PUSH1 0x1 PUSH1 0x1 PUSH1 0xA0 SHL SUB DUP5 AND EXTCODESIZE ISZERO PUSH2 0x1391 JUMPI PUSH1 0x40 MLOAD PUSH4 0xF23A6E61 PUSH1 0xE0 SHL DUP2 MSTORE PUSH1 0x1 PUSH1 0x1 PUSH1 0xA0 SHL SUB DUP6 AND SWAP1 PUSH4 0xF23A6E61 SWAP1 PUSH2 0x2138 SWAP1 DUP10 SWAP1 DUP10 SWAP1 DUP9 SWAP1 DUP9 SWAP1 DUP9 SWAP1 PUSH1 0x4 ADD PUSH2 0x41C7 JUMP JUMPDEST PUSH1 0x20 PUSH1 0x40 MLOAD DUP1 DUP4 SUB DUP2 PUSH1 0x0 DUP8 GAS CALL SWAP3 POP POP POP DUP1 ISZERO PUSH2 0x2173 JUMPI POP PUSH1 0x40 DUP1 MLOAD PUSH1 0x1F RETURNDATASIZE SWAP1 DUP2 ADD PUSH1 0x1F NOT AND DUP3 ADD SWAP1 SWAP3 MSTORE PUSH2 0x2170 SWAP2 DUP2 ADD SWAP1 PUSH2 0x407D JUMP JUMPDEST PUSH1 0x1 JUMPDEST PUSH2 0x217F JUMPI PUSH2 0x1A28 PUSH2 0x409A JUMP JUMPDEST PUSH1 0x1 PUSH1 0x1 PUSH1 0xE0 SHL SUB NOT DUP2 AND PUSH4 0xF23A6E61 PUSH1 0xE0 SHL EQ PUSH2 0x1AF8 JUMPI PUSH1 0x40 MLOAD PUSH3 0x461BCD PUSH1 0xE5 SHL DUP2 MSTORE PUSH1 0x4 ADD PUSH2 0x8AE SWAP1 PUSH2 0x413F JUMP JUMPDEST DUP5 PUSH1 0x1 PUSH1 0x1 PUSH1 0xA0 SHL SUB AND EXTCODESIZE PUSH1 0x0 SUB PUSH2 0x2209 JUMPI PUSH1 0x40 MLOAD PUSH3 0x461BCD PUSH1 0xE5 SHL DUP2 MSTORE PUSH1 0x20 PUSH1 0x4 DUP3 ADD MSTORE PUSH1 0x19 PUSH1 0x24 DUP3 ADD MSTORE PUSH32 0x45524331313535546F6B656E436F6E74726163744572726F7200000000000000 PUSH1 0x44 DUP3 ADD MSTORE PUSH1 0x64 ADD PUSH2 0x8AE JUMP JUMPDEST PUSH1 0x0 PUSH4 0xF242432A PUSH1 0xE0 SHL ADDRESS DUP6 DUP8 DUP7 DUP7 PUSH1 0x40 MLOAD PUSH1 0x24 ADD PUSH2 0x222C SWAP6 SWAP5 SWAP4 SWAP3 SWAP2 SWAP1 PUSH2 0x41C7 JUMP JUMPDEST PUSH1 0x40 MLOAD PUSH1 0x20 DUP2 DUP4 SUB SUB DUP2 MSTORE SWAP1 PUSH1 0x40 MSTORE SWAP1 PUSH1 0x1 PUSH1 0x1 PUSH1 0xE0 SHL SUB NOT AND PUSH1 0x20 DUP3 ADD DUP1 MLOAD PUSH1 0x1 PUSH1 0x1 PUSH1 0xE0 SHL SUB DUP4 DUP2 DUP4 AND OR DUP4 MSTORE POP POP POP POP SWAP1 POP PUSH1 0x0 DUP1 DUP8 PUSH1 0x1 PUSH1 0x1 PUSH1 0xA0 SHL SUB AND DUP4 PUSH1 0x40 MLOAD PUSH2 0x227C SWAP2 SWAP1 PUSH2 0x3A65 JUMP JUMPDEST PUSH1 0x0 PUSH1 0x40 MLOAD DUP1 DUP4 SUB DUP2 PUSH1 0x0 DUP7 GAS CALL SWAP2 POP POP RETURNDATASIZE DUP1 PUSH1 0x0 DUP2 EQ PUSH2 0x22B9 JUMPI PUSH1 0x40 MLOAD SWAP2 POP PUSH1 0x1F NOT PUSH1 0x3F RETURNDATASIZE ADD AND DUP3 ADD PUSH1 0x40 MSTORE RETURNDATASIZE DUP3 MSTORE RETURNDATASIZE PUSH1 0x0 PUSH1 0x20 DUP5 ADD RETURNDATACOPY PUSH2 0x22BE JUMP JUMPDEST PUSH1 0x60 SWAP2 POP JUMPDEST POP SWAP2 POP SWAP2 POP DUP2 ISZERO DUP1 PUSH2 0x22EC JUMPI POP DUP1 MLOAD ISZERO DUP1 ISZERO SWAP1 PUSH2 0x22EC JUMPI POP DUP1 DUP1 PUSH1 0x20 ADD SWAP1 MLOAD DUP2 ADD SWAP1 PUSH2 0x22EA SWAP2 SWAP1 PUSH2 0x4002 JUMP JUMPDEST ISZERO JUMPDEST ISZERO PUSH2 0x29D JUMPI PUSH1 0x40 MLOAD PUSH3 0x461BCD PUSH1 0xE5 SHL DUP2 MSTORE PUSH1 0x20 PUSH1 0x4 DUP3 ADD MSTORE PUSH1 0x19 PUSH1 0x24 DUP3 ADD MSTORE PUSH32 0x45524331313535546F6B656E5472616E736665724572726F7200000000000000 PUSH1 0x44 DUP3 ADD MSTORE PUSH1 0x64 ADD PUSH2 0x8AE JUMP JUMPDEST PUSH1 0x40 DUP1 MLOAD PUSH1 0x7 DUP1 DUP3 MSTORE DUP2 DUP4 ADD SWAP1 SWAP3 MSTORE PUSH1 0x60 SWAP2 PUSH1 0x0 SWAP2 SWAP1 PUSH1 0x20 DUP3 ADD DUP2 DUP1 CALLDATASIZE DUP4 CALLDATACOPY ADD SWAP1 POP POP SWAP1 POP PUSH1 0x23 PUSH1 0xF8 SHL DUP2 PUSH1 0x0 DUP2 MLOAD DUP2 LT PUSH2 0x2376 JUMPI PUSH2 0x2376 PUSH2 0x3BB0 JUMP JUMPDEST PUSH1 0x20 ADD ADD SWAP1 PUSH1 0x1 PUSH1 0x1 PUSH1 0xF8 SHL SUB NOT AND SWAP1 DUP2 PUSH1 0x0 BYTE SWAP1 MSTORE8 POP PUSH16 0x181899199A1A9B1B9C1CA0A121A222A3 PUSH1 0x81 SHL PUSH1 0x4 DUP7 PUSH1 0xF0 AND SWAP1 SHR PUSH1 0x10 DUP2 LT PUSH2 0x23B9 JUMPI PUSH2 0x23B9 PUSH2 0x3BB0 JUMP JUMPDEST BYTE PUSH1 0xF8 SHL DUP2 PUSH1 0x1 DUP2 MLOAD DUP2 LT PUSH2 0x23D0 JUMPI PUSH2 0x23D0 PUSH2 0x3BB0 JUMP JUMPDEST PUSH1 0x20 ADD ADD SWAP1 PUSH1 0x1 PUSH1 0x1 PUSH1 0xF8 SHL SUB NOT AND SWAP1 DUP2 PUSH1 0x0 BYTE SWAP1 MSTORE8 POP PUSH16 0x181899199A1A9B1B9C1CA0A121A222A3 PUSH1 0x81 SHL DUP6 PUSH1 0xF AND PUSH1 0x10 DUP2 LT PUSH2 0x240F JUMPI PUSH2 0x240F PUSH2 0x3BB0 JUMP JUMPDEST BYTE PUSH1 0xF8 SHL DUP2 PUSH1 0x2 DUP2 MLOAD DUP2 LT PUSH2 0x2426 JUMPI PUSH2 0x2426 PUSH2 0x3BB0 JUMP JUMPDEST PUSH1 0x20 ADD ADD SWAP1 PUSH1 0x1 PUSH1 0x1 PUSH1 0xF8 SHL SUB NOT AND SWAP1 DUP2 PUSH1 0x0 BYTE SWAP1 MSTORE8 POP PUSH16 0x181899199A1A9B1B9C1CA0A121A222A3 PUSH1 0x81 SHL PUSH1 0x4 DUP6 PUSH1 0xF0 AND SWAP1 SHR PUSH1 0x10 DUP2 LT PUSH2 0x2469 JUMPI PUSH2 0x2469 PUSH2 0x3BB0 JUMP JUMPDEST BYTE PUSH1 0xF8 SHL DUP2 PUSH1 0x3 DUP2 MLOAD DUP2 LT PUSH2 0x2480 JUMPI PUSH2 0x2480 PUSH2 0x3BB0 JUMP JUMPDEST PUSH1 0x20 ADD ADD SWAP1 PUSH1 0x1 PUSH1 0x1 PUSH1 0xF8 SHL SUB NOT AND SWAP1 DUP2 PUSH1 0x0 BYTE SWAP1 MSTORE8 POP PUSH16 0x181899199A1A9B1B9C1CA0A121A222A3 PUSH1 0x81 SHL DUP5 PUSH1 0xF AND PUSH1 0x10 DUP2 LT PUSH2 0x24BF JUMPI PUSH2 0x24BF PUSH2 0x3BB0 JUMP JUMPDEST BYTE PUSH1 0xF8 SHL DUP2 PUSH1 0x4 DUP2 MLOAD DUP2 LT PUSH2 0x24D6 JUMPI PUSH2 0x24D6 PUSH2 0x3BB0 JUMP JUMPDEST PUSH1 0x20 ADD ADD SWAP1 PUSH1 0x1 PUSH1 0x1 PUSH1 0xF8 SHL SUB NOT AND SWAP1 DUP2 PUSH1 0x0 BYTE SWAP1 MSTORE8 POP PUSH16 0x181899199A1A9B1B9C1CA0A121A222A3 PUSH1 0x81 SHL PUSH1 0x4 DUP5 PUSH1 0xF0 AND SWAP1 SHR PUSH1 0x10 DUP2 LT PUSH2 0x2519 JUMPI PUSH2 0x2519 PUSH2 0x3BB0 JUMP JUMPDEST BYTE PUSH1 0xF8 SHL DUP2 PUSH1 0x5 DUP2 MLOAD DUP2 LT PUSH2 0x2530 JUMPI PUSH2 0x2530 PUSH2 0x3BB0 JUMP JUMPDEST PUSH1 0x20 ADD ADD SWAP1 PUSH1 0x1 PUSH1 0x1 PUSH1 0xF8 SHL SUB NOT AND SWAP1 DUP2 PUSH1 0x0 BYTE SWAP1 MSTORE8 POP PUSH16 0x181899199A1A9B1B9C1CA0A121A222A3 PUSH1 0x81 SHL DUP4 PUSH1 0xF AND PUSH1 0x10 DUP2 LT PUSH2 0x256F JUMPI PUSH2 0x256F PUSH2 0x3BB0 JUMP JUMPDEST BYTE PUSH1 0xF8 SHL DUP2 PUSH1 0x6 DUP2 MLOAD DUP2 LT PUSH2 0x2586 JUMPI PUSH2 0x2586 PUSH2 0x3BB0 JUMP JUMPDEST PUSH1 0x20 ADD ADD SWAP1 PUSH1 0x1 PUSH1 0x1 PUSH1 0xF8 SHL SUB NOT AND SWAP1 DUP2 PUSH1 0x0 BYTE SWAP1 MSTORE8 POP SWAP5 SWAP4 POP POP POP POP JUMP JUMPDEST PUSH1 0x60 PUSH1 0x0 PUSH1 0x3 DUP1 PUSH2 0x25B6 DUP2 DUP1 PUSH2 0x3ADC JUMP JUMPDEST PUSH2 0x25C0 SWAP2 SWAP1 PUSH2 0x3ADC JUMP JUMPDEST PUSH2 0x25CA SWAP2 SWAP1 PUSH2 0x3ADC JUMP JUMPDEST SWAP1 POP PUSH1 0x0 PUSH1 0x40 MLOAD DUP1 PUSH1 0x60 ADD PUSH1 0x40 MSTORE DUP1 DUP4 PUSH1 0x1 PUSH1 0x1 PUSH1 0x40 SHL SUB DUP2 GT ISZERO PUSH2 0x25F1 JUMPI PUSH2 0x25F1 PUSH2 0x33BB JUMP JUMPDEST PUSH1 0x40 MLOAD SWAP1 DUP1 DUP3 MSTORE DUP1 PUSH1 0x20 MUL PUSH1 0x20 ADD DUP3 ADD PUSH1 0x40 MSTORE DUP1 ISZERO PUSH2 0x261A JUMPI DUP2 PUSH1 0x20 ADD PUSH1 0x20 DUP3 MUL DUP1 CALLDATASIZE DUP4 CALLDATACOPY ADD SWAP1 POP JUMPDEST POP DUP2 MSTORE PUSH1 0x20 ADD DUP4 PUSH1 0x1 PUSH1 0x1 PUSH1 0x40 SHL SUB DUP2 GT ISZERO PUSH2 0x2638 JUMPI PUSH2 0x2638 PUSH2 0x33BB JUMP JUMPDEST PUSH1 0x40 MLOAD SWAP1 DUP1 DUP3 MSTORE DUP1 PUSH1 0x20 MUL PUSH1 0x20 ADD DUP3 ADD PUSH1 0x40 MSTORE DUP1 ISZERO PUSH2 0x2661 JUMPI DUP2 PUSH1 0x20 ADD PUSH1 0x20 DUP3 MUL DUP1 CALLDATASIZE DUP4 CALLDATACOPY ADD SWAP1 POP JUMPDEST POP DUP2 MSTORE PUSH1 0x20 ADD DUP4 PUSH1 0x1 PUSH1 0x1 PUSH1 0x40 SHL SUB DUP2 GT ISZERO PUSH2 0x267F JUMPI PUSH2 0x267F PUSH2 0x33BB JUMP JUMPDEST PUSH1 0x40 MLOAD SWAP1 DUP1 DUP3 MSTORE DUP1 PUSH1 0x20 MUL PUSH1 0x20 ADD DUP3 ADD PUSH1 0x40 MSTORE DUP1 ISZERO PUSH2 0x26A8 JUMPI DUP2 PUSH1 0x20 ADD PUSH1 0x20 DUP3 MUL DUP1 CALLDATASIZE DUP4 CALLDATACOPY ADD SWAP1 POP JUMPDEST POP SWAP1 MSTORE SWAP1 POP PUSH1 0x0 JUMPDEST PUSH2 0x26BB PUSH1 0x3 DUP1 PUSH2 0x3ADC JUMP JUMPDEST DUP2 LT ISZERO PUSH2 0x28C4 JUMPI PUSH1 0x0 PUSH1 0x8 DUP2 PUSH2 0x26D2 DUP5 PUSH1 0x1 PUSH2 0x3C23 JUMP JUMPDEST DUP2 MSTORE PUSH1 0x20 DUP1 DUP3 ADD SWAP3 SWAP1 SWAP3 MSTORE PUSH1 0x40 SWAP1 DUP2 ADD PUSH1 0x0 SWAP1 DUP2 KECCAK256 DUP3 MLOAD PUSH1 0xA0 DUP2 ADD DUP5 MSTORE DUP2 SLOAD DUP2 MSTORE PUSH1 0x1 DUP3 ADD SLOAD SWAP5 DUP2 ADD SWAP5 SWAP1 SWAP5 MSTORE PUSH1 0x2 ADD SLOAD PUSH1 0xFF DUP1 DUP3 AND SWAP4 DUP6 ADD SWAP4 SWAP1 SWAP4 MSTORE PUSH2 0x100 DUP2 DIV DUP4 AND PUSH1 0x60 DUP6 ADD MSTORE PUSH3 0x10000 SWAP1 DIV SWAP1 SWAP2 AND PUSH1 0x80 DUP4 ADD MSTORE SWAP1 SWAP2 POP PUSH2 0x2737 PUSH1 0x3 DUP5 PUSH2 0x3B09 JUMP JUMPDEST SWAP1 POP PUSH1 0x0 PUSH2 0x2746 PUSH1 0x3 DUP6 PUSH2 0x420C JUMP JUMPDEST SWAP1 POP PUSH1 0x0 PUSH2 0x2755 PUSH1 0x3 DUP4 PUSH2 0x3ADC JUMP JUMPDEST PUSH1 0x3 DUP1 PUSH2 0x2762 DUP2 DUP8 PUSH2 0x3ADC JUMP JUMPDEST PUSH2 0x276C SWAP2 SWAP1 PUSH2 0x3ADC JUMP JUMPDEST PUSH2 0x2776 SWAP2 SWAP1 PUSH2 0x3ADC JUMP JUMPDEST PUSH2 0x2780 SWAP2 SWAP1 PUSH2 0x3C23 JUMP JUMPDEST SWAP1 POP PUSH1 0x0 JUMPDEST PUSH1 0x3 DUP2 LT ISZERO PUSH2 0x28AC JUMPI PUSH1 0x0 PUSH1 0x3 PUSH2 0x279C DUP2 DUP5 PUSH2 0x3ADC JUMP JUMPDEST PUSH2 0x27A6 SWAP2 SWAP1 PUSH2 0x3ADC JUMP JUMPDEST SWAP1 POP PUSH1 0x0 JUMPDEST PUSH1 0x3 DUP2 LT ISZERO PUSH2 0x2897 JUMPI PUSH1 0x0 DUP2 PUSH2 0x27C1 DUP5 DUP8 PUSH2 0x3C23 JUMP JUMPDEST PUSH2 0x27CB SWAP2 SWAP1 PUSH2 0x3C23 JUMP JUMPDEST SWAP1 POP DUP8 PUSH1 0x40 ADD MLOAD PUSH1 0xF8 SHL DUP11 PUSH1 0x0 ADD MLOAD DUP3 DUP2 MLOAD DUP2 LT PUSH2 0x27EB JUMPI PUSH2 0x27EB PUSH2 0x3BB0 JUMP JUMPDEST PUSH1 0x20 MUL PUSH1 0x20 ADD ADD SWAP1 PUSH1 0x1 PUSH1 0x1 PUSH1 0xF8 SHL SUB NOT AND SWAP1 DUP2 PUSH1 0x1 PUSH1 0x1 PUSH1 0xF8 SHL SUB NOT AND DUP2 MSTORE POP POP DUP8 PUSH1 0x60 ADD MLOAD PUSH1 0xF8 SHL DUP11 PUSH1 0x20 ADD MLOAD DUP3 DUP2 MLOAD DUP2 LT PUSH2 0x282B JUMPI PUSH2 0x282B PUSH2 0x3BB0 JUMP JUMPDEST PUSH1 0x20 MUL PUSH1 0x20 ADD ADD SWAP1 PUSH1 0x1 PUSH1 0x1 PUSH1 0xF8 SHL SUB NOT AND SWAP1 DUP2 PUSH1 0x1 PUSH1 0x1 PUSH1 0xF8 SHL SUB NOT AND DUP2 MSTORE POP POP DUP8 PUSH1 0x80 ADD MLOAD PUSH1 0xF8 SHL DUP11 PUSH1 0x40 ADD MLOAD DUP3 DUP2 MLOAD DUP2 LT PUSH2 0x286B JUMPI PUSH2 0x286B PUSH2 0x3BB0 JUMP JUMPDEST PUSH1 0x1 PUSH1 0x1 PUSH1 0xF8 SHL SUB NOT SWAP1 SWAP3 AND PUSH1 0x20 SWAP3 DUP4 MUL SWAP2 SWAP1 SWAP2 ADD SWAP1 SWAP2 ADD MSTORE POP DUP1 PUSH2 0x288F DUP2 PUSH2 0x3C36 JUMP JUMPDEST SWAP2 POP POP PUSH2 0x27AB JUMP JUMPDEST POP POP DUP1 DUP1 PUSH2 0x28A4 SWAP1 PUSH2 0x3C36 JUMP JUMPDEST SWAP2 POP POP PUSH2 0x2785 JUMP JUMPDEST POP POP POP POP POP DUP1 DUP1 PUSH2 0x28BC SWAP1 PUSH2 0x3C36 JUMP JUMPDEST SWAP2 POP POP PUSH2 0x26B0 JUMP JUMPDEST POP PUSH1 0x0 PUSH20 0xD9145CCE52D386F254917E481EB44E9943F39138 PUSH4 0xF6D57F9E PUSH2 0x28EC PUSH1 0x3 DUP1 PUSH2 0x3ADC JUMP JUMPDEST PUSH2 0x28F7 PUSH1 0x3 DUP1 PUSH2 0x3ADC JUMP JUMPDEST DUP6 PUSH1 0x40 MLOAD DUP5 PUSH4 0xFFFFFFFF AND PUSH1 0xE0 SHL DUP2 MSTORE PUSH1 0x4 ADD PUSH2 0x2916 SWAP4 SWAP3 SWAP2 SWAP1 PUSH2 0x425A JUMP JUMPDEST PUSH1 0x0 PUSH1 0x40 MLOAD DUP1 DUP4 SUB DUP2 DUP7 GAS STATICCALL ISZERO DUP1 ISZERO PUSH2 0x2933 JUMPI RETURNDATASIZE PUSH1 0x0 DUP1 RETURNDATACOPY RETURNDATASIZE PUSH1 0x0 REVERT JUMPDEST POP POP POP POP PUSH1 0x40 MLOAD RETURNDATASIZE PUSH1 0x0 DUP3 RETURNDATACOPY PUSH1 0x1F RETURNDATASIZE SWAP1 DUP2 ADD PUSH1 0x1F NOT AND DUP3 ADD PUSH1 0x40 MSTORE PUSH2 0x295B SWAP2 SWAP1 DUP2 ADD SWAP1 PUSH2 0x42BD JUMP JUMPDEST SWAP1 POP PUSH2 0x2971 DUP2 PUSH1 0x40 MLOAD PUSH1 0x20 ADD PUSH2 0x9E2 SWAP2 SWAP1 PUSH2 0x3A65 JUMP JUMPDEST PUSH1 0x40 MLOAD PUSH1 0x20 ADD PUSH2 0x2981 SWAP2 SWAP1 PUSH2 0x433E JUMP JUMPDEST PUSH1 0x40 MLOAD PUSH1 0x20 DUP2 DUP4 SUB SUB DUP2 MSTORE SWAP1 PUSH1 0x40 MSTORE SWAP4 POP POP POP POP SWAP1 JUMP JUMPDEST PUSH1 0x60 PUSH1 0x0 PUSH2 0x29A7 PUSH1 0x3 DUP1 PUSH2 0x3ADC JUMP JUMPDEST SWAP1 POP PUSH1 0x0 PUSH1 0x40 MLOAD DUP1 PUSH1 0x60 ADD PUSH1 0x40 MSTORE DUP1 DUP4 PUSH1 0x1 PUSH1 0x1 PUSH1 0x40 SHL SUB DUP2 GT ISZERO PUSH2 0x29CE JUMPI PUSH2 0x29CE PUSH2 0x33BB JUMP JUMPDEST PUSH1 0x40 MLOAD SWAP1 DUP1 DUP3 MSTORE DUP1 PUSH1 0x20 MUL PUSH1 0x20 ADD DUP3 ADD PUSH1 0x40 MSTORE DUP1 ISZERO PUSH2 0x29F7 JUMPI DUP2 PUSH1 0x20 ADD PUSH1 0x20 DUP3 MUL DUP1 CALLDATASIZE DUP4 CALLDATACOPY ADD SWAP1 POP JUMPDEST POP DUP2 MSTORE PUSH1 0x20 ADD DUP4 PUSH1 0x1 PUSH1 0x1 PUSH1 0x40 SHL SUB DUP2 GT ISZERO PUSH2 0x2A15 JUMPI PUSH2 0x2A15 PUSH2 0x33BB JUMP JUMPDEST PUSH1 0x40 MLOAD SWAP1 DUP1 DUP3 MSTORE DUP1 PUSH1 0x20 MUL PUSH1 0x20 ADD DUP3 ADD PUSH1 0x40 MSTORE DUP1 ISZERO PUSH2 0x2A3E JUMPI DUP2 PUSH1 0x20 ADD PUSH1 0x20 DUP3 MUL DUP1 CALLDATASIZE DUP4 CALLDATACOPY ADD SWAP1 POP JUMPDEST POP DUP2 MSTORE PUSH1 0x20 ADD DUP4 PUSH1 0x1 PUSH1 0x1 PUSH1 0x40 SHL SUB DUP2 GT ISZERO PUSH2 0x2A5C JUMPI PUSH2 0x2A5C PUSH2 0x33BB JUMP JUMPDEST PUSH1 0x40 MLOAD SWAP1 DUP1 DUP3 MSTORE DUP1 PUSH1 0x20 MUL PUSH1 0x20 ADD DUP3 ADD PUSH1 0x40 MSTORE DUP1 ISZERO PUSH2 0x2A85 JUMPI DUP2 PUSH1 0x20 ADD PUSH1 0x20 DUP3 MUL DUP1 CALLDATASIZE DUP4 CALLDATACOPY ADD SWAP1 POP JUMPDEST POP SWAP1 MSTORE PUSH1 0x0 DUP6 DUP2 MSTORE PUSH1 0x8 PUSH1 0x20 SWAP1 DUP2 MSTORE PUSH1 0x40 DUP1 DUP4 KECCAK256 DUP2 MLOAD PUSH1 0xA0 DUP2 ADD DUP4 MSTORE DUP2 SLOAD DUP2 MSTORE PUSH1 0x1 DUP3 ADD SLOAD SWAP4 DUP2 ADD SWAP4 SWAP1 SWAP4 MSTORE PUSH1 0x2 ADD SLOAD PUSH1 0xFF DUP1 DUP3 AND SWAP3 DUP5 ADD SWAP3 SWAP1 SWAP3 MSTORE PUSH2 0x100 DUP2 DIV DUP3 AND PUSH1 0x60 DUP5 ADD MSTORE PUSH3 0x10000 SWAP1 DIV AND PUSH1 0x80 DUP3 ADD MSTORE SWAP2 SWAP3 POP JUMPDEST DUP4 DUP2 LT ISZERO PUSH2 0x2BAE JUMPI DUP2 PUSH1 0x40 ADD MLOAD PUSH1 0xF8 SHL DUP4 PUSH1 0x0 ADD MLOAD DUP3 DUP2 MLOAD DUP2 LT PUSH2 0x2B03 JUMPI PUSH2 0x2B03 PUSH2 0x3BB0 JUMP JUMPDEST PUSH1 0x20 MUL PUSH1 0x20 ADD ADD SWAP1 PUSH1 0x1 PUSH1 0x1 PUSH1 0xF8 SHL SUB NOT AND SWAP1 DUP2 PUSH1 0x1 PUSH1 0x1 PUSH1 0xF8 SHL SUB NOT AND DUP2 MSTORE POP POP DUP2 PUSH1 0x60 ADD MLOAD PUSH1 0xF8 SHL DUP4 PUSH1 0x20 ADD MLOAD DUP3 DUP2 MLOAD DUP2 LT PUSH2 0x2B43 JUMPI PUSH2 0x2B43 PUSH2 0x3BB0 JUMP JUMPDEST PUSH1 0x20 MUL PUSH1 0x20 ADD ADD SWAP1 PUSH1 0x1 PUSH1 0x1 PUSH1 0xF8 SHL SUB NOT AND SWAP1 DUP2 PUSH1 0x1 PUSH1 0x1 PUSH1 0xF8 SHL SUB NOT AND DUP2 MSTORE POP POP DUP2 PUSH1 0x80 ADD MLOAD PUSH1 0xF8 SHL DUP4 PUSH1 0x40 ADD MLOAD DUP3 DUP2 MLOAD DUP2 LT PUSH2 0x2B83 JUMPI PUSH2 0x2B83 PUSH2 0x3BB0 JUMP JUMPDEST PUSH1 0x1 PUSH1 0x1 PUSH1 0xF8 SHL SUB NOT SWAP1 SWAP3 AND PUSH1 0x20 SWAP3 DUP4 MUL SWAP2 SWAP1 SWAP2 ADD SWAP1 SWAP2 ADD MSTORE DUP1 PUSH2 0x2BA6 DUP2 PUSH2 0x3C36 JUMP JUMPDEST SWAP2 POP POP PUSH2 0x2ADD JUMP JUMPDEST POP PUSH1 0x40 MLOAD PUSH4 0x7B6ABFCF PUSH1 0xE1 SHL DUP2 MSTORE PUSH1 0x0 SWAP1 PUSH20 0xD9145CCE52D386F254917E481EB44E9943F39138 SWAP1 PUSH4 0xF6D57F9E SWAP1 PUSH2 0x2BEE SWAP1 PUSH1 0x3 SWAP1 DUP2 SWAP1 DUP9 SWAP1 PUSH1 0x4 ADD PUSH2 0x425A JUMP JUMPDEST PUSH1 0x0 PUSH1 0x40 MLOAD DUP1 DUP4 SUB DUP2 DUP7 GAS STATICCALL ISZERO DUP1 ISZERO PUSH2 0x2C0B JUMPI RETURNDATASIZE PUSH1 0x0 DUP1 RETURNDATACOPY RETURNDATASIZE PUSH1 0x0 REVERT JUMPDEST POP POP POP POP PUSH1 0x40 MLOAD RETURNDATASIZE PUSH1 0x0 DUP3 RETURNDATACOPY PUSH1 0x1F RETURNDATASIZE SWAP1 DUP2 ADD PUSH1 0x1F NOT AND DUP3 ADD PUSH1 0x40 MSTORE PUSH2 0x2C33 SWAP2 SWAP1 DUP2 ADD SWAP1 PUSH2 0x42BD JUMP JUMPDEST POP POP PUSH1 0x40 DUP1 MLOAD DUP1 DUP3 ADD SWAP1 SWAP2 MSTORE PUSH1 0x1 DUP2 MSTORE PUSH1 0x41 PUSH1 0xF8 SHL PUSH1 0x20 DUP3 ADD MSTORE SWAP6 SWAP5 POP POP POP POP POP JUMP JUMPDEST PUSH1 0x0 SLOAD PUSH1 0x1 PUSH1 0x1 PUSH1 0xA0 SHL SUB DUP3 DUP2 AND SWAP2 AND EQ PUSH2 0x97A JUMPI PUSH1 0x0 DUP1 SLOAD PUSH1 0x40 MLOAD PUSH1 0x1 PUSH1 0x1 PUSH1 0xA0 SHL SUB DUP1 DUP6 AND SWAP4 SWAP3 AND SWAP2 PUSH32 0xB532073B38C83145E3E5135377A08BF9AAB55BC0FD7C1179CD4FB995D2A5159C SWAP2 LOG3 PUSH1 0x0 DUP1 SLOAD PUSH1 0x1 PUSH1 0x1 PUSH1 0xA0 SHL SUB DUP4 AND PUSH1 0x1 PUSH1 0x1 PUSH1 0xA0 SHL SUB NOT SWAP1 SWAP2 AND OR SWAP1 SSTORE POP JUMP JUMPDEST PUSH1 0x40 DUP1 MLOAD PUSH1 0x28 DUP1 DUP3 MSTORE PUSH1 0x60 DUP3 DUP2 ADD SWAP1 SWAP4 MSTORE PUSH2 0x8DC SWAP2 DUP5 SWAP2 DUP5 SWAP2 DUP4 DUP4 SHL SWAP2 PUSH1 0x0 SWAP2 SWAP1 PUSH1 0x20 DUP3 ADD DUP2 DUP1 CALLDATASIZE DUP4 CALLDATACOPY ADD SWAP1 POP POP SWAP1 POP PUSH1 0x0 DUP1 PUSH1 0x0 DUP1 PUSH1 0x0 DUP1 PUSH1 0x0 PUSH2 0x2D08 DUP12 PUSH2 0x2EA2 JUMP JUMPDEST SWAP1 POP PUSH1 0x0 JUMPDEST PUSH1 0x14 DUP2 LT ISZERO PUSH2 0x2E71 JUMPI PUSH2 0x2D21 DUP2 PUSH1 0x13 PUSH2 0x3C10 JUMP JUMPDEST PUSH2 0x2D2C SWAP1 PUSH1 0x8 PUSH2 0x3ADC JUMP JUMPDEST PUSH2 0x2D37 SWAP1 PUSH1 0x2 PUSH2 0x4460 JUMP JUMPDEST PUSH2 0x2D45 SWAP1 PUSH1 0x60 DUP13 SWAP1 SHR PUSH2 0x3B09 JUMP JUMPDEST SWAP8 POP PUSH2 0x2D52 PUSH1 0x10 DUP10 PUSH2 0x446C JUMP JUMPDEST SWAP7 POP PUSH2 0x2D5F DUP8 PUSH1 0x10 PUSH2 0x448E JUMP JUMPDEST PUSH2 0x2D69 SWAP1 DUP10 PUSH2 0x44B1 JUMP JUMPDEST SWAP6 POP DUP2 PUSH2 0x2D77 DUP3 PUSH1 0x2 PUSH2 0x3ADC JUMP JUMPDEST PUSH1 0x28 DUP2 LT PUSH2 0x2D87 JUMPI PUSH2 0x2D87 PUSH2 0x3BB0 JUMP JUMPDEST PUSH1 0x20 MUL ADD MLOAD SWAP5 POP DUP2 PUSH2 0x2D9A DUP3 PUSH1 0x2 PUSH2 0x3ADC JUMP JUMPDEST PUSH2 0x2DA5 SWAP1 PUSH1 0x1 PUSH2 0x3C23 JUMP JUMPDEST PUSH1 0x28 DUP2 LT PUSH2 0x2DB5 JUMPI PUSH2 0x2DB5 PUSH2 0x3BB0 JUMP JUMPDEST PUSH1 0x20 MUL ADD MLOAD SWAP4 POP PUSH2 0x2DC6 DUP8 DUP7 PUSH2 0x3033 JUMP JUMPDEST SWAP3 POP PUSH2 0x2DD2 DUP4 DUP9 PUSH2 0x41AE JUMP JUMPDEST PUSH1 0xF8 SHL DUP10 PUSH2 0x2DE1 DUP4 PUSH1 0x2 PUSH2 0x3ADC JUMP JUMPDEST DUP2 MLOAD DUP2 LT PUSH2 0x2DF1 JUMPI PUSH2 0x2DF1 PUSH2 0x3BB0 JUMP JUMPDEST PUSH1 0x20 ADD ADD SWAP1 PUSH1 0x1 PUSH1 0x1 PUSH1 0xF8 SHL SUB NOT AND SWAP1 DUP2 PUSH1 0x0 BYTE SWAP1 MSTORE8 POP PUSH2 0x2E12 DUP7 DUP6 PUSH2 0x3033 JUMP JUMPDEST SWAP3 POP PUSH2 0x2E1E DUP4 DUP8 PUSH2 0x41AE JUMP JUMPDEST PUSH1 0xF8 SHL DUP10 PUSH2 0x2E2D DUP4 PUSH1 0x2 PUSH2 0x3ADC JUMP JUMPDEST PUSH2 0x2E38 SWAP1 PUSH1 0x1 PUSH2 0x3C23 JUMP JUMPDEST DUP2 MLOAD DUP2 LT PUSH2 0x2E48 JUMPI PUSH2 0x2E48 PUSH2 0x3BB0 JUMP JUMPDEST PUSH1 0x20 ADD ADD SWAP1 PUSH1 0x1 PUSH1 0x1 PUSH1 0xF8 SHL SUB NOT AND SWAP1 DUP2 PUSH1 0x0 BYTE SWAP1 MSTORE8 POP DUP1 PUSH2 0x2E69 DUP2 PUSH2 0x3C36 JUMP JUMPDEST SWAP2 POP POP PUSH2 0x2D0D JUMP JUMPDEST POP DUP8 PUSH1 0x40 MLOAD PUSH1 0x20 ADD PUSH2 0x2E83 SWAP2 SWAP1 PUSH2 0x44CA JUMP JUMPDEST PUSH1 0x40 MLOAD PUSH1 0x20 DUP2 DUP4 SUB SUB DUP2 MSTORE SWAP1 PUSH1 0x40 MSTORE SWAP10 POP POP POP POP POP POP POP POP POP POP SWAP2 SWAP1 POP JUMP JUMPDEST PUSH2 0x2EAA PUSH2 0x31BA JUMP JUMPDEST PUSH1 0x60 DUP3 SWAP1 SHL PUSH1 0x0 PUSH2 0x2EBA DUP3 PUSH2 0x3060 JUMP JUMPDEST PUSH1 0x40 MLOAD PUSH1 0x20 ADD PUSH2 0x2ECA SWAP2 SWAP1 PUSH2 0x3A65 JUMP JUMPDEST PUSH1 0x40 MLOAD PUSH1 0x20 DUP2 DUP4 SUB SUB DUP2 MSTORE SWAP1 PUSH1 0x40 MSTORE DUP1 MLOAD SWAP1 PUSH1 0x20 ADD KECCAK256 SWAP1 POP PUSH1 0x0 DUP1 PUSH1 0x0 DUP1 PUSH1 0x0 JUMPDEST PUSH1 0x14 DUP2 LT ISZERO PUSH2 0x3027 JUMPI PUSH1 0x10 DUP8 DUP3 PUSH1 0x14 DUP2 LT PUSH2 0x2F08 JUMPI PUSH2 0x2F08 PUSH2 0x3BB0 JUMP JUMPDEST PUSH2 0x2F14 SWAP3 SWAP2 SWAP1 BYTE PUSH2 0x44F4 JUMP JUMPDEST SWAP4 POP PUSH1 0x10 DUP5 DUP9 DUP4 PUSH1 0x14 DUP2 LT PUSH2 0x2F2B JUMPI PUSH2 0x2F2B PUSH2 0x3BB0 JUMP JUMPDEST PUSH2 0x2F37 SWAP3 SWAP2 SWAP1 BYTE PUSH2 0x44B1 JUMP JUMPDEST PUSH2 0x2F41 SWAP2 SWAP1 PUSH2 0x446C JUMP JUMPDEST SWAP5 POP PUSH1 0x10 DUP7 DUP3 PUSH1 0x20 DUP2 LT PUSH2 0x2F57 JUMPI PUSH2 0x2F57 PUSH2 0x3BB0 JUMP JUMPDEST PUSH2 0x2F63 SWAP3 SWAP2 SWAP1 BYTE PUSH2 0x44F4 JUMP JUMPDEST SWAP2 POP PUSH1 0x10 DUP3 DUP8 DUP4 PUSH1 0x20 DUP2 LT PUSH2 0x2F7A JUMPI PUSH2 0x2F7A PUSH2 0x3BB0 JUMP JUMPDEST PUSH2 0x2F86 SWAP3 SWAP2 SWAP1 BYTE PUSH2 0x44B1 JUMP JUMPDEST PUSH2 0x2F90 SWAP2 SWAP1 PUSH2 0x446C JUMP JUMPDEST SWAP3 POP PUSH1 0x9 DUP6 PUSH1 0xFF AND GT DUP1 ISZERO PUSH2 0x2FA8 JUMPI POP PUSH1 0x7 DUP4 PUSH1 0xFF AND GT JUMPDEST DUP9 PUSH2 0x2FB4 DUP4 PUSH1 0x2 PUSH2 0x3ADC JUMP JUMPDEST PUSH1 0x28 DUP2 LT PUSH2 0x2FC4 JUMPI PUSH2 0x2FC4 PUSH2 0x3BB0 JUMP JUMPDEST SWAP2 ISZERO ISZERO PUSH1 0x20 SWAP1 SWAP3 MUL ADD MSTORE PUSH1 0x9 PUSH1 0xFF DUP6 AND GT DUP1 ISZERO PUSH2 0x2FE4 JUMPI POP PUSH1 0x7 DUP3 PUSH1 0xFF AND GT JUMPDEST DUP9 PUSH2 0x2FF0 DUP4 PUSH1 0x2 PUSH2 0x3ADC JUMP JUMPDEST PUSH2 0x2FFB SWAP1 PUSH1 0x1 PUSH2 0x3C23 JUMP JUMPDEST PUSH1 0x28 DUP2 LT PUSH2 0x300B JUMPI PUSH2 0x300B PUSH2 0x3BB0 JUMP JUMPDEST SWAP2 ISZERO ISZERO PUSH1 0x20 SWAP1 SWAP3 MUL ADD MSTORE DUP1 PUSH2 0x301F DUP2 PUSH2 0x3C36 JUMP JUMPDEST SWAP2 POP POP PUSH2 0x2EEB JUMP JUMPDEST POP POP POP POP POP POP POP SWAP2 SWAP1 POP JUMP JUMPDEST PUSH1 0x0 PUSH1 0xA DUP4 PUSH1 0xFF AND LT ISZERO PUSH2 0x3049 JUMPI POP PUSH1 0x30 PUSH2 0x8DC JUMP JUMPDEST DUP2 ISZERO PUSH2 0x3057 JUMPI POP PUSH1 0x37 PUSH2 0x8DC JUMP JUMPDEST POP PUSH1 0x57 SWAP3 SWAP2 POP POP JUMP JUMPDEST PUSH1 0x40 DUP1 MLOAD PUSH1 0x28 DUP1 DUP3 MSTORE PUSH1 0x60 DUP3 DUP2 ADD SWAP1 SWAP4 MSTORE PUSH1 0x0 SWAP2 SWAP1 PUSH1 0x20 DUP3 ADD DUP2 DUP1 CALLDATASIZE DUP4 CALLDATACOPY ADD SWAP1 POP POP SWAP1 POP PUSH1 0x0 DUP1 DUP1 DUP1 JUMPDEST PUSH1 0x14 DUP2 LT ISZERO PUSH2 0x31AF JUMPI PUSH2 0x309E DUP2 PUSH1 0x13 PUSH2 0x3C10 JUMP JUMPDEST PUSH2 0x30A9 SWAP1 PUSH1 0x8 PUSH2 0x3ADC JUMP JUMPDEST PUSH2 0x30B4 SWAP1 PUSH1 0x2 PUSH2 0x4460 JUMP JUMPDEST PUSH2 0x30C2 SWAP1 PUSH1 0x60 DUP10 SWAP1 SHR PUSH2 0x3B09 JUMP JUMPDEST SWAP4 POP PUSH2 0x30CF PUSH1 0x10 DUP6 PUSH2 0x446C JUMP JUMPDEST SWAP3 POP PUSH2 0x30DC DUP4 PUSH1 0x10 PUSH2 0x448E JUMP JUMPDEST PUSH2 0x30E6 SWAP1 DUP6 PUSH2 0x44B1 JUMP JUMPDEST SWAP2 POP PUSH1 0xA DUP4 PUSH1 0xFF AND LT PUSH2 0x30FA JUMPI PUSH1 0x57 PUSH2 0x30FD JUMP JUMPDEST PUSH1 0x30 JUMPDEST PUSH2 0x3107 SWAP1 DUP5 PUSH2 0x41AE JUMP JUMPDEST PUSH1 0xF8 SHL DUP6 PUSH2 0x3116 DUP4 PUSH1 0x2 PUSH2 0x3ADC JUMP JUMPDEST DUP2 MLOAD DUP2 LT PUSH2 0x3126 JUMPI PUSH2 0x3126 PUSH2 0x3BB0 JUMP JUMPDEST PUSH1 0x20 ADD ADD SWAP1 PUSH1 0x1 PUSH1 0x1 PUSH1 0xF8 SHL SUB NOT AND SWAP1 DUP2 PUSH1 0x0 BYTE SWAP1 MSTORE8 POP PUSH1 0xA DUP3 PUSH1 0xFF AND LT PUSH2 0x314F JUMPI PUSH1 0x57 PUSH2 0x3152 JUMP JUMPDEST PUSH1 0x30 JUMPDEST PUSH2 0x315C SWAP1 DUP4 PUSH2 0x41AE JUMP JUMPDEST PUSH1 0xF8 SHL DUP6 PUSH2 0x316B DUP4 PUSH1 0x2 PUSH2 0x3ADC JUMP JUMPDEST PUSH2 0x3176 SWAP1 PUSH1 0x1 PUSH2 0x3C23 JUMP JUMPDEST DUP2 MLOAD DUP2 LT PUSH2 0x3186 JUMPI PUSH2 0x3186 PUSH2 0x3BB0 JUMP JUMPDEST PUSH1 0x20 ADD ADD SWAP1 PUSH1 0x1 PUSH1 0x1 PUSH1 0xF8 SHL SUB NOT AND SWAP1 DUP2 PUSH1 0x0 BYTE SWAP1 MSTORE8 POP DUP1 PUSH2 0x31A7 DUP2 PUSH2 0x3C36 JUMP JUMPDEST SWAP2 POP POP PUSH2 0x308A JUMP JUMPDEST POP SWAP3 SWAP6 SWAP5 POP POP POP POP POP JUMP JUMPDEST PUSH1 0x40 MLOAD DUP1 PUSH2 0x500 ADD PUSH1 0x40 MSTORE DUP1 PUSH1 0x28 SWAP1 PUSH1 0x20 DUP3 MUL DUP1 CALLDATASIZE DUP4 CALLDATACOPY POP SWAP2 SWAP3 SWAP2 POP POP JUMP JUMPDEST DUP1 CALLDATALOAD PUSH1 0x1 PUSH1 0x1 PUSH1 0xA0 SHL SUB DUP2 AND DUP2 EQ PUSH2 0x1621 JUMPI PUSH1 0x0 DUP1 REVERT JUMPDEST PUSH1 0x0 DUP1 DUP4 PUSH1 0x1F DUP5 ADD SLT PUSH2 0x3202 JUMPI PUSH1 0x0 DUP1 REVERT JUMPDEST POP DUP2 CALLDATALOAD PUSH1 0x1 PUSH1 0x1 PUSH1 0x40 SHL SUB DUP2 GT ISZERO PUSH2 0x3219 JUMPI PUSH1 0x0 DUP1 REVERT JUMPDEST PUSH1 0x20 DUP4 ADD SWAP2 POP DUP4 PUSH1 0x20 DUP3 DUP6 ADD ADD GT ISZERO PUSH2 0x3231 JUMPI PUSH1 0x0 DUP1 REVERT JUMPDEST SWAP3 POP SWAP3 SWAP1 POP JUMP JUMPDEST PUSH1 0x0 DUP1 PUSH1 0x0 DUP1 PUSH1 0x0 DUP1 PUSH1 0x0 DUP1 PUSH1 0xC0 DUP10 DUP12 SUB SLT ISZERO PUSH2 0x3254 JUMPI PUSH1 0x0 DUP1 REVERT JUMPDEST PUSH2 0x325D DUP10 PUSH2 0x31D9 JUMP JUMPDEST SWAP8 POP PUSH2 0x326B PUSH1 0x20 DUP11 ADD PUSH2 0x31D9 JUMP JUMPDEST SWAP7 POP PUSH2 0x3279 PUSH1 0x40 DUP11 ADD PUSH2 0x31D9 JUMP JUMPDEST SWAP6 POP PUSH1 0x60 DUP10 ADD CALLDATALOAD SWAP5 POP PUSH1 0x80 DUP10 ADD CALLDATALOAD PUSH1 0x1 PUSH1 0x1 PUSH1 0x40 SHL SUB DUP1 DUP3 GT ISZERO PUSH2 0x329C JUMPI PUSH1 0x0 DUP1 REVERT JUMPDEST PUSH2 0x32A8 DUP13 DUP4 DUP14 ADD PUSH2 0x31F0 JUMP JUMPDEST SWAP1 SWAP7 POP SWAP5 POP PUSH1 0xA0 DUP12 ADD CALLDATALOAD SWAP2 POP DUP1 DUP3 GT ISZERO PUSH2 0x32C1 JUMPI PUSH1 0x0 DUP1 REVERT JUMPDEST POP PUSH2 0x32CE DUP12 DUP3 DUP13 ADD PUSH2 0x31F0 JUMP JUMPDEST SWAP10 SWAP13 SWAP9 SWAP12 POP SWAP7 SWAP10 POP SWAP5 SWAP8 SWAP4 SWAP7 SWAP3 SWAP6 SWAP5 POP POP POP JUMP JUMPDEST PUSH1 0x0 DUP1 PUSH1 0x40 DUP4 DUP6 SUB SLT ISZERO PUSH2 0x32F5 JUMPI PUSH1 0x0 DUP1 REVERT JUMPDEST PUSH2 0x32FE DUP4 PUSH2 0x31D9 JUMP JUMPDEST SWAP5 PUSH1 0x20 SWAP4 SWAP1 SWAP4 ADD CALLDATALOAD SWAP4 POP POP POP JUMP JUMPDEST PUSH1 0x1 PUSH1 0x1 PUSH1 0xE0 SHL SUB NOT DUP2 AND DUP2 EQ PUSH2 0x97A JUMPI PUSH1 0x0 DUP1 REVERT JUMPDEST PUSH1 0x0 PUSH1 0x20 DUP3 DUP5 SUB SLT ISZERO PUSH2 0x3334 JUMPI PUSH1 0x0 DUP1 REVERT JUMPDEST DUP2 CALLDATALOAD PUSH2 0x111B DUP2 PUSH2 0x330C JUMP JUMPDEST PUSH1 0x0 PUSH1 0x20 DUP3 DUP5 SUB SLT ISZERO PUSH2 0x3351 JUMPI PUSH1 0x0 DUP1 REVERT JUMPDEST POP CALLDATALOAD SWAP2 SWAP1 POP JUMP JUMPDEST PUSH1 0x0 JUMPDEST DUP4 DUP2 LT ISZERO PUSH2 0x3373 JUMPI DUP2 DUP2 ADD MLOAD DUP4 DUP3 ADD MSTORE PUSH1 0x20 ADD PUSH2 0x335B JUMP JUMPDEST POP POP PUSH1 0x0 SWAP2 ADD MSTORE JUMP JUMPDEST PUSH1 0x0 DUP2 MLOAD DUP1 DUP5 MSTORE PUSH2 0x3394 DUP2 PUSH1 0x20 DUP7 ADD PUSH1 0x20 DUP7 ADD PUSH2 0x3358 JUMP JUMPDEST PUSH1 0x1F ADD PUSH1 0x1F NOT AND SWAP3 SWAP1 SWAP3 ADD PUSH1 0x20 ADD SWAP3 SWAP2 POP POP JUMP JUMPDEST PUSH1 0x20 DUP2 MSTORE PUSH1 0x0 PUSH2 0x111B PUSH1 0x20 DUP4 ADD DUP5 PUSH2 0x337C JUMP JUMPDEST PUSH4 0x4E487B71 PUSH1 0xE0 SHL PUSH1 0x0 MSTORE PUSH1 0x41 PUSH1 0x4 MSTORE PUSH1 0x24 PUSH1 0x0 REVERT JUMPDEST PUSH1 0x1F DUP3 ADD PUSH1 0x1F NOT AND DUP2 ADD PUSH1 0x1 PUSH1 0x1 PUSH1 0x40 SHL SUB DUP2 GT DUP3 DUP3 LT OR ISZERO PUSH2 0x33F6 JUMPI PUSH2 0x33F6 PUSH2 0x33BB JUMP JUMPDEST PUSH1 0x40 MSTORE POP POP JUMP JUMPDEST PUSH1 0x0 PUSH1 0x1 PUSH1 0x1 PUSH1 0x40 SHL SUB DUP3 GT ISZERO PUSH2 0x3416 JUMPI PUSH2 0x3416 PUSH2 0x33BB JUMP JUMPDEST POP PUSH1 0x1F ADD PUSH1 0x1F NOT AND PUSH1 0x20 ADD SWAP1 JUMP JUMPDEST PUSH1 0x0 PUSH2 0x342F DUP4 PUSH2 0x33FD JUMP JUMPDEST PUSH1 0x40 MLOAD PUSH2 0x343C DUP3 DUP3 PUSH2 0x33D1 JUMP JUMPDEST DUP1 SWAP3 POP DUP5 DUP2 MSTORE DUP6 DUP6 DUP6 ADD GT ISZERO PUSH2 0x3451 JUMPI PUSH1 0x0 DUP1 REVERT JUMPDEST DUP5 DUP5 PUSH1 0x20 DUP4 ADD CALLDATACOPY PUSH1 0x0 PUSH1 0x20 DUP7 DUP4 ADD ADD MSTORE POP POP SWAP4 SWAP3 POP POP POP JUMP JUMPDEST PUSH1 0x0 DUP3 PUSH1 0x1F DUP4 ADD SLT PUSH2 0x347B JUMPI PUSH1 0x0 DUP1 REVERT JUMPDEST PUSH2 0x111B DUP4 DUP4 CALLDATALOAD PUSH1 0x20 DUP6 ADD PUSH2 0x3424 JUMP JUMPDEST PUSH1 0x0 DUP1 PUSH1 0x0 DUP1 PUSH1 0x80 DUP6 DUP8 SUB SLT ISZERO PUSH2 0x34A0 JUMPI PUSH1 0x0 DUP1 REVERT JUMPDEST PUSH2 0x34A9 DUP6 PUSH2 0x31D9 JUMP JUMPDEST SWAP4 POP PUSH2 0x34B7 PUSH1 0x20 DUP7 ADD PUSH2 0x31D9 JUMP JUMPDEST SWAP3 POP PUSH1 0x40 DUP6 ADD CALLDATALOAD SWAP2 POP PUSH1 0x60 DUP6 ADD CALLDATALOAD PUSH1 0x1 PUSH1 0x1 PUSH1 0x40 SHL SUB DUP2 GT ISZERO PUSH2 0x34D9 JUMPI PUSH1 0x0 DUP1 REVERT JUMPDEST PUSH2 0x34E5 DUP8 DUP3 DUP9 ADD PUSH2 0x346A JUMP JUMPDEST SWAP2 POP POP SWAP3 SWAP6 SWAP2 SWAP5 POP SWAP3 POP JUMP JUMPDEST PUSH1 0x0 PUSH1 0x20 DUP3 DUP5 SUB SLT ISZERO PUSH2 0x3503 JUMPI PUSH1 0x0 DUP1 REVERT JUMPDEST DUP2 CALLDATALOAD PUSH1 0x1 PUSH1 0x1 PUSH1 0x40 SHL SUB DUP2 GT ISZERO PUSH2 0x3519 JUMPI PUSH1 0x0 DUP1 REVERT JUMPDEST DUP3 ADD PUSH1 0x1F DUP2 ADD DUP5 SGT PUSH2 0x352A JUMPI PUSH1 0x0 DUP1 REVERT JUMPDEST PUSH2 0x3539 DUP5 DUP3 CALLDATALOAD PUSH1 0x20 DUP5 ADD PUSH2 0x3424 JUMP JUMPDEST SWAP5 SWAP4 POP POP POP POP JUMP JUMPDEST PUSH1 0x0 DUP1 PUSH1 0x40 DUP4 DUP6 SUB SLT ISZERO PUSH2 0x3554 JUMPI PUSH1 0x0 DUP1 REVERT JUMPDEST DUP3 CALLDATALOAD SWAP2 POP PUSH2 0xAFD PUSH1 0x20 DUP5 ADD PUSH2 0x31D9 JUMP JUMPDEST PUSH1 0x0 DUP1 PUSH1 0x40 DUP4 DUP6 SUB SLT ISZERO PUSH2 0x3577 JUMPI PUSH1 0x0 DUP1 REVERT JUMPDEST POP POP DUP1 CALLDATALOAD SWAP3 PUSH1 0x20 SWAP1 SWAP2 ADD CALLDATALOAD SWAP2 POP JUMP JUMPDEST PUSH1 0x0 PUSH1 0x1 PUSH1 0x1 PUSH1 0x40 SHL SUB DUP3 GT ISZERO PUSH2 0x359F JUMPI PUSH2 0x359F PUSH2 0x33BB JUMP JUMPDEST POP PUSH1 0x5 SHL PUSH1 0x20 ADD SWAP1 JUMP JUMPDEST PUSH1 0x0 DUP3 PUSH1 0x1F DUP4 ADD SLT PUSH2 0x35BA JUMPI PUSH1 0x0 DUP1 REVERT JUMPDEST DUP2 CALLDATALOAD PUSH1 0x20 PUSH2 0x35C7 DUP3 PUSH2 0x3586 JUMP JUMPDEST PUSH1 0x40 MLOAD PUSH2 0x35D4 DUP3 DUP3 PUSH2 0x33D1 JUMP JUMPDEST DUP4 DUP2 MSTORE PUSH1 0x5 SWAP4 SWAP1 SWAP4 SHL DUP6 ADD DUP3 ADD SWAP3 DUP3 DUP2 ADD SWAP2 POP DUP7 DUP5 GT ISZERO PUSH2 0x35F4 JUMPI PUSH1 0x0 DUP1 REVERT JUMPDEST DUP3 DUP7 ADD JUMPDEST DUP5 DUP2 LT ISZERO PUSH2 0x360F JUMPI DUP1 CALLDATALOAD DUP4 MSTORE SWAP2 DUP4 ADD SWAP2 DUP4 ADD PUSH2 0x35F8 JUMP JUMPDEST POP SWAP7 SWAP6 POP POP POP POP POP POP JUMP JUMPDEST PUSH1 0x0 DUP1 PUSH1 0x0 DUP1 PUSH1 0x0 PUSH1 0xA0 DUP7 DUP9 SUB SLT ISZERO PUSH2 0x3632 JUMPI PUSH1 0x0 DUP1 REVERT JUMPDEST PUSH2 0x363B DUP7 PUSH2 0x31D9 JUMP JUMPDEST SWAP5 POP PUSH2 0x3649 PUSH1 0x20 DUP8 ADD PUSH2 0x31D9 JUMP JUMPDEST SWAP4 POP PUSH1 0x40 DUP7 ADD CALLDATALOAD PUSH1 0x1 PUSH1 0x1 PUSH1 0x40 SHL SUB DUP1 DUP3 GT ISZERO PUSH2 0x3665 JUMPI PUSH1 0x0 DUP1 REVERT JUMPDEST PUSH2 0x3671 DUP10 DUP4 DUP11 ADD PUSH2 0x35A9 JUMP JUMPDEST SWAP5 POP PUSH1 0x60 DUP9 ADD CALLDATALOAD SWAP2 POP DUP1 DUP3 GT ISZERO PUSH2 0x3687 JUMPI PUSH1 0x0 DUP1 REVERT JUMPDEST PUSH2 0x3693 DUP10 DUP4 DUP11 ADD PUSH2 0x35A9 JUMP JUMPDEST SWAP4 POP PUSH1 0x80 DUP9 ADD CALLDATALOAD SWAP2 POP DUP1 DUP3 GT ISZERO PUSH2 0x36A9 JUMPI PUSH1 0x0 DUP1 REVERT JUMPDEST POP PUSH2 0x36B6 DUP9 DUP3 DUP10 ADD PUSH2 0x346A JUMP JUMPDEST SWAP2 POP POP SWAP3 SWAP6 POP SWAP3 SWAP6 SWAP1 SWAP4 POP JUMP JUMPDEST PUSH1 0x0 DUP1 PUSH1 0x40 DUP4 DUP6 SUB SLT ISZERO PUSH2 0x36D6 JUMPI PUSH1 0x0 DUP1 REVERT JUMPDEST DUP3 CALLDATALOAD PUSH1 0x1 PUSH1 0x1 PUSH1 0x40 SHL SUB DUP1 DUP3 GT ISZERO PUSH2 0x36ED JUMPI PUSH1 0x0 DUP1 REVERT JUMPDEST DUP2 DUP6 ADD SWAP2 POP DUP6 PUSH1 0x1F DUP4 ADD SLT PUSH2 0x3701 JUMPI PUSH1 0x0 DUP1 REVERT JUMPDEST DUP2 CALLDATALOAD PUSH1 0x20 PUSH2 0x370E DUP3 PUSH2 0x3586 JUMP JUMPDEST PUSH1 0x40 MLOAD PUSH2 0x371B DUP3 DUP3 PUSH2 0x33D1 JUMP JUMPDEST DUP4 DUP2 MSTORE PUSH1 0x5 SWAP4 SWAP1 SWAP4 SHL DUP6 ADD DUP3 ADD SWAP3 DUP3 DUP2 ADD SWAP2 POP DUP10 DUP5 GT ISZERO PUSH2 0x373B JUMPI PUSH1 0x0 DUP1 REVERT JUMPDEST SWAP5 DUP3 ADD SWAP5 JUMPDEST DUP4 DUP7 LT ISZERO PUSH2 0x3760 JUMPI PUSH2 0x3751 DUP7 PUSH2 0x31D9 JUMP JUMPDEST DUP3 MSTORE SWAP5 DUP3 ADD SWAP5 SWAP1 DUP3 ADD SWAP1 PUSH2 0x3740 JUMP JUMPDEST SWAP7 POP POP DUP7 ADD CALLDATALOAD SWAP3 POP POP DUP1 DUP3 GT ISZERO PUSH2 0x3776 JUMPI PUSH1 0x0 DUP1 REVERT JUMPDEST POP PUSH2 0x3783 DUP6 DUP3 DUP7 ADD PUSH2 0x35A9 JUMP JUMPDEST SWAP2 POP POP SWAP3 POP SWAP3 SWAP1 POP JUMP JUMPDEST PUSH1 0x0 DUP2 MLOAD DUP1 DUP5 MSTORE PUSH1 0x20 DUP1 DUP6 ADD SWAP5 POP DUP1 DUP5 ADD PUSH1 0x0 JUMPDEST DUP4 DUP2 LT ISZERO PUSH2 0x37BD JUMPI DUP2 MLOAD DUP8 MSTORE SWAP6 DUP3 ADD SWAP6 SWAP1 DUP3 ADD SWAP1 PUSH1 0x1 ADD PUSH2 0x37A1 JUMP JUMPDEST POP SWAP5 SWAP6 SWAP5 POP POP POP POP POP JUMP JUMPDEST PUSH1 0x20 DUP2 MSTORE PUSH1 0x0 PUSH2 0x111B PUSH1 0x20 DUP4 ADD DUP5 PUSH2 0x378D JUMP JUMPDEST PUSH1 0x0 PUSH1 0x20 DUP3 DUP5 SUB SLT ISZERO PUSH2 0x37ED JUMPI PUSH1 0x0 DUP1 REVERT JUMPDEST PUSH2 0x111B DUP3 PUSH2 0x31D9 JUMP JUMPDEST DUP1 CALLDATALOAD PUSH1 0xFF DUP2 AND DUP2 EQ PUSH2 0x1621 JUMPI PUSH1 0x0 DUP1 REVERT JUMPDEST PUSH1 0x0 DUP1 PUSH1 0x0 DUP1 PUSH1 0x80 DUP6 DUP8 SUB SLT ISZERO PUSH2 0x381D JUMPI PUSH1 0x0 DUP1 REVERT JUMPDEST DUP5 CALLDATALOAD SWAP4 POP PUSH2 0x382D PUSH1 0x20 DUP7 ADD PUSH2 0x37F6 JUMP JUMPDEST SWAP3 POP PUSH2 0x383B PUSH1 0x40 DUP7 ADD PUSH2 0x37F6 JUMP JUMPDEST SWAP2 POP PUSH2 0x3849 PUSH1 0x60 DUP7 ADD PUSH2 0x37F6 JUMP JUMPDEST SWAP1 POP SWAP3 SWAP6 SWAP2 SWAP5 POP SWAP3 POP JUMP JUMPDEST DUP1 ISZERO ISZERO DUP2 EQ PUSH2 0x97A JUMPI PUSH1 0x0 DUP1 REVERT JUMPDEST PUSH1 0x0 DUP1 PUSH1 0x40 DUP4 DUP6 SUB SLT ISZERO PUSH2 0x3875 JUMPI PUSH1 0x0 DUP1 REVERT JUMPDEST PUSH2 0x387E DUP4 PUSH2 0x31D9 JUMP JUMPDEST SWAP2 POP PUSH1 0x20 DUP4 ADD CALLDATALOAD PUSH2 0x388E DUP2 PUSH2 0x3854 JUMP JUMPDEST DUP1 SWAP2 POP POP SWAP3 POP SWAP3 SWAP1 POP JUMP JUMPDEST PUSH1 0x0 DUP1 PUSH1 0x0 PUSH1 0x60 DUP5 DUP7 SUB SLT ISZERO PUSH2 0x38AE JUMPI PUSH1 0x0 DUP1 REVERT JUMPDEST PUSH2 0x38B7 DUP5 PUSH2 0x31D9 JUMP JUMPDEST SWAP3 POP PUSH1 0x20 DUP5 ADD CALLDATALOAD SWAP2 POP PUSH1 0x40 DUP5 ADD CALLDATALOAD PUSH1 0x1 PUSH1 0x1 PUSH1 0x40 SHL SUB DUP2 GT ISZERO PUSH2 0x38D9 JUMPI PUSH1 0x0 DUP1 REVERT JUMPDEST PUSH2 0x38E5 DUP7 DUP3 DUP8 ADD PUSH2 0x346A JUMP JUMPDEST SWAP2 POP POP SWAP3 POP SWAP3 POP SWAP3 JUMP JUMPDEST PUSH1 0x0 DUP1 PUSH1 0x40 DUP4 DUP6 SUB SLT ISZERO PUSH2 0x3902 JUMPI PUSH1 0x0 DUP1 REVERT JUMPDEST PUSH2 0x390B DUP4 PUSH2 0x31D9 JUMP JUMPDEST SWAP2 POP PUSH2 0xAFD PUSH1 0x20 DUP5 ADD PUSH2 0x31D9 JUMP JUMPDEST PUSH1 0x0 DUP1 PUSH1 0x0 DUP1 PUSH1 0x0 PUSH1 0xA0 DUP7 DUP9 SUB SLT ISZERO PUSH2 0x3931 JUMPI PUSH1 0x0 DUP1 REVERT JUMPDEST PUSH2 0x393A DUP7 PUSH2 0x31D9 JUMP JUMPDEST SWAP5 POP PUSH2 0x3948 PUSH1 0x20 DUP8 ADD PUSH2 0x31D9 JUMP JUMPDEST SWAP4 POP PUSH1 0x40 DUP7 ADD CALLDATALOAD SWAP3 POP PUSH1 0x60 DUP7 ADD CALLDATALOAD SWAP2 POP PUSH1 0x80 DUP7 ADD CALLDATALOAD PUSH1 0x1 PUSH1 0x1 PUSH1 0x40 SHL SUB DUP2 GT ISZERO PUSH2 0x3971 JUMPI PUSH1 0x0 DUP1 REVERT JUMPDEST PUSH2 0x36B6 DUP9 DUP3 DUP10 ADD PUSH2 0x346A JUMP JUMPDEST PUSH1 0x0 DUP1 PUSH1 0x0 DUP1 PUSH1 0x80 DUP6 DUP8 SUB SLT ISZERO PUSH2 0x3993 JUMPI PUSH1 0x0 DUP1 REVERT JUMPDEST PUSH2 0x399C DUP6 PUSH2 0x31D9 JUMP JUMPDEST SWAP4 POP PUSH1 0x20 DUP6 ADD CALLDATALOAD SWAP3 POP PUSH1 0x40 DUP6 ADD CALLDATALOAD SWAP2 POP PUSH1 0x60 DUP6 ADD CALLDATALOAD PUSH1 0x1 PUSH1 0x1 PUSH1 0x40 SHL SUB DUP2 GT ISZERO PUSH2 0x34D9 JUMPI PUSH1 0x0 DUP1 REVERT JUMPDEST PUSH9 0x3D913730B6B2911D11 PUSH1 0xB9 SHL DUP2 MSTORE DUP4 MLOAD PUSH1 0x0 SWAP1 PUSH2 0x39EA DUP2 PUSH1 0x9 DUP6 ADD PUSH1 0x20 DUP10 ADD PUSH2 0x3358 JUMP JUMPDEST PUSH18 0x111610113232B9B1B934B83A34B7B7111D11 PUSH1 0x71 SHL PUSH1 0x9 SWAP2 DUP5 ADD SWAP2 DUP3 ADD MSTORE DUP5 MLOAD PUSH2 0x3A1C DUP2 PUSH1 0x1B DUP5 ADD PUSH1 0x20 DUP10 ADD PUSH2 0x3358 JUMP JUMPDEST PUSH12 0x1116101134B6B0B3B2911D11 PUSH1 0xA1 SHL PUSH1 0x1B SWAP3 SWAP1 SWAP2 ADD SWAP2 DUP3 ADD MSTORE DUP4 MLOAD PUSH2 0x3A49 DUP2 PUSH1 0x27 DUP5 ADD PUSH1 0x20 DUP9 ADD PUSH2 0x3358 JUMP JUMPDEST PUSH2 0x227D PUSH1 0xF0 SHL PUSH1 0x27 SWAP3 SWAP1 SWAP2 ADD SWAP2 DUP3 ADD MSTORE PUSH1 0x29 ADD SWAP6 SWAP5 POP POP POP POP POP JUMP JUMPDEST PUSH1 0x0 DUP3 MLOAD PUSH2 0x3A77 DUP2 DUP5 PUSH1 0x20 DUP8 ADD PUSH2 0x3358 JUMP JUMPDEST SWAP2 SWAP1 SWAP2 ADD SWAP3 SWAP2 POP POP JUMP JUMPDEST PUSH32 0x646174613A6170706C69636174696F6E2F6A736F6E3B6261736536342C000000 DUP2 MSTORE PUSH1 0x0 DUP3 MLOAD PUSH2 0x3AB9 DUP2 PUSH1 0x1D DUP6 ADD PUSH1 0x20 DUP8 ADD PUSH2 0x3358 JUMP JUMPDEST SWAP2 SWAP1 SWAP2 ADD PUSH1 0x1D ADD SWAP3 SWAP2 POP POP JUMP JUMPDEST PUSH4 0x4E487B71 PUSH1 0xE0 SHL PUSH1 0x0 MSTORE PUSH1 0x11 PUSH1 0x4 MSTORE PUSH1 0x24 PUSH1 0x0 REVERT JUMPDEST DUP1 DUP3 MUL DUP2 ISZERO DUP3 DUP3 DIV DUP5 EQ OR PUSH2 0x8DC JUMPI PUSH2 0x8DC PUSH2 0x3AC6 JUMP JUMPDEST PUSH4 0x4E487B71 PUSH1 0xE0 SHL PUSH1 0x0 MSTORE PUSH1 0x12 PUSH1 0x4 MSTORE PUSH1 0x24 PUSH1 0x0 REVERT JUMPDEST PUSH1 0x0 DUP3 PUSH2 0x3B18 JUMPI PUSH2 0x3B18 PUSH2 0x3AF3 JUMP JUMPDEST POP DIV SWAP1 JUMP JUMPDEST PUSH1 0x20 DUP1 DUP3 MSTORE PUSH1 0x25 SWAP1 DUP3 ADD MSTORE PUSH32 0x455243313135353A207472616E7366657220746F20746865207A65726F206164 PUSH1 0x40 DUP3 ADD MSTORE PUSH5 0x6472657373 PUSH1 0xD8 SHL PUSH1 0x60 DUP3 ADD MSTORE PUSH1 0x80 ADD SWAP1 JUMP JUMPDEST PUSH1 0x20 DUP1 DUP3 MSTORE PUSH1 0x2E SWAP1 DUP3 ADD MSTORE PUSH32 0x455243313135353A2063616C6C6572206973206E6F7420746F6B656E206F776E PUSH1 0x40 DUP3 ADD MSTORE PUSH14 0x195C881BDC88185C1C1C9BDD9959 PUSH1 0x92 SHL PUSH1 0x60 DUP3 ADD MSTORE PUSH1 0x80 ADD SWAP1 JUMP JUMPDEST PUSH4 0x4E487B71 PUSH1 0xE0 SHL PUSH1 0x0 MSTORE PUSH1 0x32 PUSH1 0x4 MSTORE PUSH1 0x24 PUSH1 0x0 REVERT JUMPDEST PUSH1 0x20 DUP1 DUP3 MSTORE PUSH1 0x2A SWAP1 DUP3 ADD MSTORE PUSH32 0x455243313135353A20696E73756666696369656E742062616C616E636520666F PUSH1 0x40 DUP3 ADD MSTORE PUSH10 0x39103A3930B739B332B9 PUSH1 0xB1 SHL PUSH1 0x60 DUP3 ADD MSTORE PUSH1 0x80 ADD SWAP1 JUMP JUMPDEST DUP2 DUP2 SUB DUP2 DUP2 GT ISZERO PUSH2 0x8DC JUMPI PUSH2 0x8DC PUSH2 0x3AC6 JUMP JUMPDEST DUP1 DUP3 ADD DUP1 DUP3 GT ISZERO PUSH2 0x8DC JUMPI PUSH2 0x8DC PUSH2 0x3AC6 JUMP JUMPDEST PUSH1 0x0 PUSH1 0x1 DUP3 ADD PUSH2 0x3C48 JUMPI PUSH2 0x3C48 PUSH2 0x3AC6 JUMP JUMPDEST POP PUSH1 0x1 ADD SWAP1 JUMP JUMPDEST PUSH1 0x40 DUP2 MSTORE PUSH1 0x0 PUSH2 0x3C62 PUSH1 0x40 DUP4 ADD DUP6 PUSH2 0x378D JUMP JUMPDEST DUP3 DUP2 SUB PUSH1 0x20 DUP5 ADD MSTORE PUSH2 0x3C74 DUP2 DUP6 PUSH2 0x378D JUMP JUMPDEST SWAP6 SWAP5 POP POP POP POP POP JUMP JUMPDEST PUSH1 0x1 DUP2 DUP2 SHR SWAP1 DUP3 AND DUP1 PUSH2 0x3C91 JUMPI PUSH1 0x7F DUP3 AND SWAP2 POP JUMPDEST PUSH1 0x20 DUP3 LT DUP2 SUB PUSH2 0x3CB1 JUMPI PUSH4 0x4E487B71 PUSH1 0xE0 SHL PUSH1 0x0 MSTORE PUSH1 0x22 PUSH1 0x4 MSTORE PUSH1 0x24 PUSH1 0x0 REVERT JUMPDEST POP SWAP2 SWAP1 POP JUMP JUMPDEST PUSH1 0x0 DUP2 SLOAD PUSH2 0x3CC4 DUP2 PUSH2 0x3C7D JUMP JUMPDEST PUSH1 0x1 DUP3 DUP2 AND DUP1 ISZERO PUSH2 0x3CDC JUMPI PUSH1 0x1 DUP2 EQ PUSH2 0x3CF1 JUMPI PUSH2 0x3D20 JUMP JUMPDEST PUSH1 0xFF NOT DUP5 AND DUP8 MSTORE DUP3 ISZERO ISZERO DUP4 MUL DUP8 ADD SWAP5 POP PUSH2 0x3D20 JUMP JUMPDEST DUP6 PUSH1 0x0 MSTORE PUSH1 0x20 DUP1 PUSH1 0x0 KECCAK256 PUSH1 0x0 JUMPDEST DUP6 DUP2 LT ISZERO PUSH2 0x3D17 JUMPI DUP2 SLOAD DUP11 DUP3 ADD MSTORE SWAP1 DUP5 ADD SWAP1 DUP3 ADD PUSH2 0x3CFE JUMP JUMPDEST POP POP POP DUP3 DUP8 ADD SWAP5 POP JUMPDEST POP POP POP POP SWAP3 SWAP2 POP POP JUMP JUMPDEST PUSH9 0x3D913730B6B2911D11 PUSH1 0xB9 SHL DUP2 MSTORE PUSH1 0x0 PUSH2 0x3D48 PUSH1 0x9 DUP4 ADD DUP10 PUSH2 0x3CB7 JUMP JUMPDEST PUSH18 0x111610113232B9B1B934B83A34B7B7111D11 PUSH1 0x71 SHL DUP2 MSTORE PUSH2 0x3D6D PUSH1 0x12 DUP3 ADD DUP10 PUSH2 0x3CB7 JUMP JUMPDEST PUSH12 0x1116101134B6B0B3B2911D11 PUSH1 0xA1 SHL DUP2 MSTORE SWAP1 POP PUSH2 0x3D8E PUSH1 0xC DUP3 ADD DUP9 PUSH2 0x3CB7 JUMP JUMPDEST PUSH20 0x1116101132BC3A32B93730B62FB634B735911D11 PUSH1 0x61 SHL DUP2 MSTORE SWAP1 POP PUSH2 0x3DB7 PUSH1 0x14 DUP3 ADD DUP8 PUSH2 0x3CB7 JUMP JUMPDEST SWAP1 POP PUSH32 0x222C202273656C6C65725F6665655F62617369735F706F696E7473223A000000 DUP2 MSTORE DUP5 MLOAD PUSH2 0x3DEF DUP2 PUSH1 0x1D DUP5 ADD PUSH1 0x20 DUP10 ADD PUSH2 0x3358 JUMP JUMPDEST PUSH19 0x1610113332B2AFB932B1B4B834B2B73A111D11 PUSH1 0x69 SHL PUSH1 0x1D SWAP3 SWAP1 SWAP2 ADD SWAP2 DUP3 ADD MSTORE DUP4 MLOAD PUSH2 0x3E23 DUP2 PUSH1 0x30 DUP5 ADD PUSH1 0x20 DUP9 ADD PUSH2 0x3358 JUMP JUMPDEST PUSH2 0x227D PUSH1 0xF0 SHL PUSH1 0x30 SWAP3 SWAP1 SWAP2 ADD SWAP2 DUP3 ADD MSTORE PUSH1 0x32 ADD SWAP9 SWAP8 POP POP POP POP POP POP POP POP JUMP JUMPDEST PUSH20 0x506978656C205069637461736961204E46542023 PUSH1 0x60 SHL DUP2 MSTORE PUSH1 0x0 DUP3 MLOAD PUSH2 0x3E71 DUP2 PUSH1 0x14 DUP6 ADD PUSH1 0x20 DUP8 ADD PUSH2 0x3358 JUMP JUMPDEST SWAP2 SWAP1 SWAP2 ADD PUSH1 0x14 ADD SWAP3 SWAP2 POP POP JUMP JUMPDEST PUSH9 0xA0DED2DCE8407A405 PUSH1 0xBB SHL DUP2 MSTORE PUSH1 0x0 DUP5 MLOAD PUSH2 0x3EA2 DUP2 PUSH1 0x9 DUP6 ADD PUSH1 0x20 DUP10 ADD PUSH2 0x3358 JUMP JUMPDEST PUSH1 0xB PUSH1 0xFA SHL PUSH1 0x9 SWAP2 DUP5 ADD SWAP2 DUP3 ADD MSTORE DUP5 MLOAD PUSH2 0x3EC3 DUP2 PUSH1 0xA DUP5 ADD PUSH1 0x20 DUP10 ADD PUSH2 0x3358 JUMP JUMPDEST PUSH12 0x1490169696902923A1101E9 PUSH1 0xA5 SHL PUSH1 0xA SWAP3 SWAP1 SWAP2 ADD SWAP2 DUP3 ADD MSTORE DUP4 MLOAD PUSH2 0x3EF0 DUP2 PUSH1 0x16 DUP5 ADD PUSH1 0x20 DUP9 ADD PUSH2 0x3358 JUMP JUMPDEST ADD PUSH1 0x16 ADD SWAP6 SWAP5 POP POP POP POP POP JUMP JUMPDEST PUSH1 0x1F DUP3 GT ISZERO PUSH2 0x10C9 JUMPI PUSH1 0x0 DUP2 DUP2 MSTORE PUSH1 0x20 DUP2 KECCAK256 PUSH1 0x1F DUP6 ADD PUSH1 0x5 SHR DUP2 ADD PUSH1 0x20 DUP7 LT ISZERO PUSH2 0x3F24 JUMPI POP DUP1 JUMPDEST PUSH1 0x1F DUP6 ADD PUSH1 0x5 SHR DUP3 ADD SWAP2 POP JUMPDEST DUP2 DUP2 LT ISZERO PUSH2 0x1391 JUMPI DUP3 DUP2 SSTORE PUSH1 0x1 ADD PUSH2 0x3F30 JUMP JUMPDEST DUP2 MLOAD PUSH1 0x1 PUSH1 0x1 PUSH1 0x40 SHL SUB DUP2 GT ISZERO PUSH2 0x3F5C JUMPI PUSH2 0x3F5C PUSH2 0x33BB JUMP JUMPDEST PUSH2 0x3F70 DUP2 PUSH2 0x3F6A DUP5 SLOAD PUSH2 0x3C7D JUMP JUMPDEST DUP5 PUSH2 0x3EFD JUMP JUMPDEST PUSH1 0x20 DUP1 PUSH1 0x1F DUP4 GT PUSH1 0x1 DUP2 EQ PUSH2 0x3FA5 JUMPI PUSH1 0x0 DUP5 ISZERO PUSH2 0x3F8D JUMPI POP DUP6 DUP4 ADD MLOAD JUMPDEST PUSH1 0x0 NOT PUSH1 0x3 DUP7 SWAP1 SHL SHR NOT AND PUSH1 0x1 DUP6 SWAP1 SHL OR DUP6 SSTORE PUSH2 0x1391 JUMP JUMPDEST PUSH1 0x0 DUP6 DUP2 MSTORE PUSH1 0x20 DUP2 KECCAK256 PUSH1 0x1F NOT DUP7 AND SWAP2 JUMPDEST DUP3 DUP2 LT ISZERO PUSH2 0x3FD4 JUMPI DUP9 DUP7 ADD MLOAD DUP3 SSTORE SWAP5 DUP5 ADD SWAP5 PUSH1 0x1 SWAP1 SWAP2 ADD SWAP1 DUP5 ADD PUSH2 0x3FB5 JUMP JUMPDEST POP DUP6 DUP3 LT ISZERO PUSH2 0x3FF2 JUMPI DUP8 DUP6 ADD MLOAD PUSH1 0x0 NOT PUSH1 0x3 DUP9 SWAP1 SHL PUSH1 0xF8 AND SHR NOT AND DUP2 SSTORE JUMPDEST POP POP POP POP POP PUSH1 0x1 SWAP1 DUP2 SHL ADD SWAP1 SSTORE POP JUMP JUMPDEST PUSH1 0x0 PUSH1 0x20 DUP3 DUP5 SUB SLT ISZERO PUSH2 0x4014 JUMPI PUSH1 0x0 DUP1 REVERT JUMPDEST DUP2 MLOAD PUSH2 0x111B DUP2 PUSH2 0x3854 JUMP JUMPDEST PUSH1 0x1 PUSH1 0x1 PUSH1 0xA0 SHL SUB DUP7 DUP2 AND DUP3 MSTORE DUP6 AND PUSH1 0x20 DUP3 ADD MSTORE PUSH1 0xA0 PUSH1 0x40 DUP3 ADD DUP2 SWAP1 MSTORE PUSH1 0x0 SWAP1 PUSH2 0x404B SWAP1 DUP4 ADD DUP7 PUSH2 0x378D JUMP JUMPDEST DUP3 DUP2 SUB PUSH1 0x60 DUP5 ADD MSTORE PUSH2 0x405D DUP2 DUP7 PUSH2 0x378D JUMP JUMPDEST SWAP1 POP DUP3 DUP2 SUB PUSH1 0x80 DUP5 ADD MSTORE PUSH2 0x4071 DUP2 DUP6 PUSH2 0x337C JUMP JUMPDEST SWAP9 SWAP8 POP POP POP POP POP POP POP POP JUMP JUMPDEST PUSH1 0x0 PUSH1 0x20 DUP3 DUP5 SUB SLT ISZERO PUSH2 0x408F JUMPI PUSH1 0x0 DUP1 REVERT JUMPDEST DUP2 MLOAD PUSH2 0x111B DUP2 PUSH2 0x330C JUMP JUMPDEST PUSH1 0x0 PUSH1 0x3 RETURNDATASIZE GT ISZERO PUSH2 0x40B3 JUMPI PUSH1 0x4 PUSH1 0x0 DUP1 RETURNDATACOPY POP PUSH1 0x0 MLOAD PUSH1 0xE0 SHR JUMPDEST SWAP1 JUMP JUMPDEST PUSH1 0x0 PUSH1 0x44 RETURNDATASIZE LT ISZERO PUSH2 0x40C4 JUMPI SWAP1 JUMP JUMPDEST PUSH1 0x40 MLOAD PUSH1 0x3 NOT RETURNDATASIZE DUP2 ADD PUSH1 0x4 DUP4 RETURNDATACOPY DUP2 MLOAD RETURNDATASIZE PUSH1 0x1 PUSH1 0x1 PUSH1 0x40 SHL SUB DUP2 PUSH1 0x24 DUP5 ADD GT DUP2 DUP5 GT OR ISZERO PUSH2 0x40F3 JUMPI POP POP POP POP POP SWAP1 JUMP JUMPDEST DUP3 DUP6 ADD SWAP2 POP DUP2 MLOAD DUP2 DUP2 GT ISZERO PUSH2 0x410B JUMPI POP POP POP POP POP POP SWAP1 JUMP JUMPDEST DUP5 RETURNDATASIZE DUP8 ADD ADD PUSH1 0x20 DUP3 DUP6 ADD ADD GT ISZERO PUSH2 0x4125 JUMPI POP POP POP POP POP POP SWAP1 JUMP JUMPDEST PUSH2 0x4134 PUSH1 0x20 DUP3 DUP7 ADD ADD DUP8 PUSH2 0x33D1 JUMP JUMPDEST POP SWAP1 SWAP6 SWAP5 POP POP POP POP POP JUMP JUMPDEST PUSH1 0x20 DUP1 DUP3 MSTORE PUSH1 0x28 SWAP1 DUP3 ADD MSTORE PUSH32 0x455243313135353A204552433131353552656365697665722072656A65637465 PUSH1 0x40 DUP3 ADD MSTORE PUSH8 0x6420746F6B656E73 PUSH1 0xC0 SHL PUSH1 0x60 DUP3 ADD MSTORE PUSH1 0x80 ADD SWAP1 JUMP JUMPDEST PUSH1 0x1 DUP1 PUSH1 0xA0 SHL SUB DUP5 AND DUP2 MSTORE DUP3 PUSH1 0x20 DUP3 ADD MSTORE PUSH1 0x60 PUSH1 0x40 DUP3 ADD MSTORE PUSH1 0x0 PUSH2 0x3C74 PUSH1 0x60 DUP4 ADD DUP5 PUSH2 0x337C JUMP JUMPDEST PUSH1 0xFF DUP2 DUP2 AND DUP4 DUP3 AND ADD SWAP1 DUP2 GT ISZERO PUSH2 0x8DC JUMPI PUSH2 0x8DC PUSH2 0x3AC6 JUMP JUMPDEST PUSH1 0x1 PUSH1 0x1 PUSH1 0xA0 SHL SUB DUP7 DUP2 AND DUP3 MSTORE DUP6 AND PUSH1 0x20 DUP3 ADD MSTORE PUSH1 0x40 DUP2 ADD DUP5 SWAP1 MSTORE PUSH1 0x60 DUP2 ADD DUP4 SWAP1 MSTORE PUSH1 0xA0 PUSH1 0x80 DUP3 ADD DUP2 SWAP1 MSTORE PUSH1 0x0 SWAP1 PUSH2 0x4201 SWAP1 DUP4 ADD DUP5 PUSH2 0x337C JUMP JUMPDEST SWAP8 SWAP7 POP POP POP POP POP POP POP JUMP JUMPDEST PUSH1 0x0 DUP3 PUSH2 0x421B JUMPI PUSH2 0x421B PUSH2 0x3AF3 JUMP JUMPDEST POP MOD SWAP1 JUMP JUMPDEST PUSH1 0x0 DUP2 MLOAD DUP1 DUP5 MSTORE PUSH1 0x20 DUP1 DUP6 ADD SWAP5 POP DUP1 DUP5 ADD PUSH1 0x0 JUMPDEST DUP4 DUP2 LT ISZERO PUSH2 0x37BD JUMPI DUP2 MLOAD PUSH1 0x1 PUSH1 0x1 PUSH1 0xF8 SHL SUB NOT AND DUP8 MSTORE SWAP6 DUP3 ADD SWAP6 SWAP1 DUP3 ADD SWAP1 PUSH1 0x1 ADD PUSH2 0x4234 JUMP JUMPDEST DUP4 DUP2 MSTORE DUP3 PUSH1 0x20 DUP3 ADD MSTORE PUSH1 0x60 PUSH1 0x40 DUP3 ADD MSTORE PUSH1 0x0 DUP3 MLOAD PUSH1 0x60 DUP1 DUP5 ADD MSTORE PUSH2 0x4281 PUSH1 0xC0 DUP5 ADD DUP3 PUSH2 0x4220 JUMP JUMPDEST SWAP1 POP PUSH1 0x20 DUP5 ADD MLOAD PUSH1 0x5F NOT DUP1 DUP6 DUP5 SUB ADD PUSH1 0x80 DUP7 ADD MSTORE PUSH2 0x429F DUP4 DUP4 PUSH2 0x4220 JUMP JUMPDEST SWAP3 POP PUSH1 0x40 DUP7 ADD MLOAD SWAP2 POP DUP1 DUP6 DUP5 SUB ADD PUSH1 0xA0 DUP7 ADD MSTORE POP PUSH2 0x4201 DUP3 DUP3 PUSH2 0x4220 JUMP JUMPDEST PUSH1 0x0 PUSH1 0x20 DUP3 DUP5 SUB SLT ISZERO PUSH2 0x42CF JUMPI PUSH1 0x0 DUP1 REVERT JUMPDEST DUP2 MLOAD PUSH1 0x1 PUSH1 0x1 PUSH1 0x40 SHL SUB DUP2 GT ISZERO PUSH2 0x42E5 JUMPI PUSH1 0x0 DUP1 REVERT JUMPDEST DUP3 ADD PUSH1 0x1F DUP2 ADD DUP5 SGT PUSH2 0x42F6 JUMPI PUSH1 0x0 DUP1 REVERT JUMPDEST DUP1 MLOAD PUSH2 0x4301 DUP2 PUSH2 0x33FD JUMP JUMPDEST PUSH1 0x40 MLOAD PUSH2 0x430E DUP3 DUP3 PUSH2 0x33D1 JUMP JUMPDEST DUP3 DUP2 MSTORE DUP7 PUSH1 0x20 DUP5 DUP7 ADD ADD GT ISZERO PUSH2 0x4323 JUMPI PUSH1 0x0 DUP1 REVERT JUMPDEST PUSH2 0x4334 DUP4 PUSH1 0x20 DUP4 ADD PUSH1 0x20 DUP8 ADD PUSH2 0x3358 JUMP JUMPDEST SWAP7 SWAP6 POP POP POP POP POP POP JUMP JUMPDEST PUSH22 0x19185D184E9A5B5859D94BDC1B99CED8985CD94D8D0B PUSH1 0x52 SHL DUP2 MSTORE PUSH1 0x0 DUP3 MLOAD PUSH2 0x436F DUP2 PUSH1 0x16 DUP6 ADD PUSH1 0x20 DUP8 ADD PUSH2 0x3358 JUMP JUMPDEST SWAP2 SWAP1 SWAP2 ADD PUSH1 0x16 ADD SWAP3 SWAP2 POP POP JUMP JUMPDEST PUSH1 0x1 DUP2 DUP2 JUMPDEST DUP1 DUP6 GT ISZERO PUSH2 0x43B7 JUMPI DUP2 PUSH1 0x0 NOT DIV DUP3 GT ISZERO PUSH2 0x439D JUMPI PUSH2 0x439D PUSH2 0x3AC6 JUMP JUMPDEST DUP1 DUP6 AND ISZERO PUSH2 0x43AA JUMPI SWAP2 DUP2 MUL SWAP2 JUMPDEST SWAP4 DUP5 SHR SWAP4 SWAP1 DUP1 MUL SWAP1 PUSH2 0x4381 JUMP JUMPDEST POP SWAP3 POP SWAP3 SWAP1 POP JUMP JUMPDEST PUSH1 0x0 DUP3 PUSH2 0x43CE JUMPI POP PUSH1 0x1 PUSH2 0x8DC JUMP JUMPDEST DUP2 PUSH2 0x43DB JUMPI POP PUSH1 0x0 PUSH2 0x8DC JUMP JUMPDEST DUP2 PUSH1 0x1 DUP2 EQ PUSH2 0x43F1 JUMPI PUSH1 0x2 DUP2 EQ PUSH2 0x43FB JUMPI PUSH2 0x4417 JUMP JUMPDEST PUSH1 0x1 SWAP2 POP POP PUSH2 0x8DC JUMP JUMPDEST PUSH1 0xFF DUP5 GT ISZERO PUSH2 0x440C JUMPI PUSH2 0x440C PUSH2 0x3AC6 JUMP JUMPDEST POP POP PUSH1 0x1 DUP3 SHL PUSH2 0x8DC JUMP JUMPDEST POP PUSH1 0x20 DUP4 LT PUSH2 0x133 DUP4 LT AND PUSH1 0x4E DUP5 LT PUSH1 0xB DUP5 LT AND OR ISZERO PUSH2 0x443A JUMPI POP DUP2 DUP2 EXP PUSH2 0x8DC JUMP JUMPDEST PUSH2 0x4444 DUP4 DUP4 PUSH2 0x437C JUMP JUMPDEST DUP1 PUSH1 0x0 NOT DIV DUP3 GT ISZERO PUSH2 0x4458 JUMPI PUSH2 0x4458 PUSH2 0x3AC6 JUMP JUMPDEST MUL SWAP4 SWAP3 POP POP POP JUMP JUMPDEST PUSH1 0x0 PUSH2 0x111B DUP4 DUP4 PUSH2 0x43BF JUMP JUMPDEST PUSH1 0x0 PUSH1 0xFF DUP4 AND DUP1 PUSH2 0x447F JUMPI PUSH2 0x447F PUSH2 0x3AF3 JUMP JUMPDEST DUP1 PUSH1 0xFF DUP5 AND DIV SWAP2 POP POP SWAP3 SWAP2 POP POP JUMP JUMPDEST PUSH1 0xFF DUP2 DUP2 AND DUP4 DUP3 AND MUL SWAP1 DUP2 AND SWAP1 DUP2 DUP2 EQ PUSH2 0x44AA JUMPI PUSH2 0x44AA PUSH2 0x3AC6 JUMP JUMPDEST POP SWAP3 SWAP2 POP POP JUMP JUMPDEST PUSH1 0xFF DUP3 DUP2 AND DUP3 DUP3 AND SUB SWAP1 DUP2 GT ISZERO PUSH2 0x8DC JUMPI PUSH2 0x8DC PUSH2 0x3AC6 JUMP JUMPDEST PUSH2 0x60F PUSH1 0xF3 SHL DUP2 MSTORE PUSH1 0x0 DUP3 MLOAD PUSH2 0x44E7 DUP2 PUSH1 0x2 DUP6 ADD PUSH1 0x20 DUP8 ADD PUSH2 0x3358 JUMP JUMPDEST SWAP2 SWAP1 SWAP2 ADD PUSH1 0x2 ADD SWAP3 SWAP2 POP POP JUMP JUMPDEST PUSH1 0x0 PUSH1 0xFF DUP4 AND DUP1 PUSH2 0x4507 JUMPI PUSH2 0x4507 PUSH2 0x3AF3 JUMP JUMPDEST DUP1 PUSH1 0xFF DUP5 AND MOD SWAP2 POP POP SWAP3 SWAP2 POP POP JUMP INVALID COINBASE TIMESTAMP NUMBER PREVRANDAO GASLIMIT CHAINID SELFBALANCE BASEFEE 0x49 0x4A 0x4B 0x4C 0x4D 0x4E 0x4F POP MLOAD MSTORE MSTORE8 SLOAD SSTORE JUMP JUMPI PC MSIZE GAS PUSH2 0x6263 PUSH5 0x6566676869 PUSH11 0x6B6C6D6E6F707172737475 PUSH23 0x7778797A303132333435363738392B2FA2646970667358 0x22 SLT KECCAK256 SIGNEXTEND 0xBE 0x4E 0xD6 SAR PUSH18 0x46AA6C863D61AA0543C8C8F6C480897E42BE 0xA7 DUP14 0xBF PUSH23 0x70784FB064736F6C6343000812003368747470733A2F2F PUSH14 0x75736963736C617965722E676974 PUSH9 0x75622E696F2F706978 PUSH6 0x6C5F70696374 PUSH2 0x7369 PUSH2 0x5F64 PUSH2 0x7070 0x2F PC MSIZE GAS 0x2E KECCAK256 PUSH9 0x747470733A2F2F6D75 PUSH20 0x6963736C617965722E6769746875622E696F2F70 PUSH10 0x78656C5F706963746173 PUSH10 0x615F646170702F687474 PUSH17 0x733A2F2F7261772E676974687562757365 PUSH19 0x636F6E74656E742E636F6D2F6D75736963736C PUSH2 0x7965 PUSH19 0x2F706978656C5F70696374617369615F646170 PUSH17 0x2F6D61696E2F73746F72655F696D616765 0x2E PUSH17 0x6E67000000000000000000000000000000 "
		},
		"gasEstimates": {
			"creation": {
				"codeDepositCost": "3560800",
				"executionCost": "infinite",
				"totalCost": "infinite"
			},
			"external": {
				"": "233",
				"action_applyConfig(uint256,uint8,uint8,uint8)": "infinite",
				"action_claimOwnerRole()": "infinite",
				"action_offerOwnerRole(address)": "infinite",
				"balanceOf(address,uint256)": "2748",
				"balanceOfBatch(address[],uint256[])": "infinite",
				"canImplementInterfaceForAddress(bytes32,address)": "595",
				"contractURI()": "infinite",
				"donate()": "184",
				"failsafe_unlock()": "26851",
				"get_description(uint256)": "infinite",
				"get_imageURI(uint256)": "infinite",
				"get_name(uint256)": "infinite",
				"get_nftOwner(uint256)": "2619",
				"get_openSeaData()": "infinite",
				"get_ownerAddress()": "2376",
				"get_ownerSuccessorAddress()": "2502",
				"get_royaltyAddress()": "2502",
				"get_royaltyBasisPoints()": "2408",
				"isApprovedForAll(address,address)": "infinite",
				"onERC1155BatchReceived(address,address,uint256[],uint256[],bytes)": "infinite",
				"onERC1155Received(address,address,uint256,uint256,bytes)": "infinite",
				"onERC721Received(address,address,uint256,bytes)": "infinite",
				"query_isLocked()": "2366",
				"query_isNFTOwner(uint256,address)": "2673",
				"query_isOwnerAddress(address)": "2663",
				"query_isOwnerSuccessorAddress(address)": "2666",
				"royaltyInfo(uint256,uint256)": "4872",
				"safeBatchTransferFrom(address,address,uint256[],uint256[],bytes)": "infinite",
				"safeTransferFrom(address,address,uint256,uint256,bytes)": "infinite",
				"setApprovalForAll(address,bool)": "26743",
				"set_royaltyAddress(address)": "infinite",
				"set_royaltyBasisPoints(uint256)": "infinite",
				"set_storeDescription(string)": "infinite",
				"set_storeExternalLinkURI(string)": "infinite",
				"set_storeImageURI(string)": "infinite",
				"set_storeName(string)": "infinite",
				"supportsInterface(bytes4)": "1035",
				"tokensReceived(address,address,address,uint256,bytes,bytes)": "infinite",
				"tokensToSend(address,address,address,uint256,bytes,bytes)": "infinite",
				"uri(uint256)": "infinite",
				"withdraw_coins(uint256)": "infinite",
				"withdraw_erc1155Tokens(address,uint256,uint256,bytes)": "infinite",
				"withdraw_erc20Tokens(address,uint256)": "infinite",
				"withdraw_erc721Tokens(address,uint256)": "infinite",
				"withdraw_erc777Tokens(address,uint256,bytes)": "infinite"
			},
			"internal": {
				"_doSafeBatchTransferAcceptanceCheck(address,address,address,uint256[] memory,uint256[] memory,bytes memory)": "infinite",
				"_doSafeTransferAcceptanceCheck(address,address,address,uint256,uint256,bytes memory)": "infinite",
				"applyConfig(uint256,uint8,uint8,uint8)": "24413",
				"createCompleteURI()": "infinite",
				"createDescription(uint256)": "infinite",
				"createImageURI(uint256)": "infinite",
				"createName(uint256)": "infinite",
				"createTileURI(uint256)": "infinite",
				"getDescription(uint256)": "infinite",
				"getImageURI(uint256)": "infinite",
				"getNFTOwner(uint256)": "infinite",
				"getName(uint256)": "infinite",
				"getOpenSeaData()": "infinite",
				"getRoyaltyAddress()": "infinite",
				"getRoyaltyBasisPoints()": "infinite",
				"isNFTOwner(uint256,address)": "infinite",
				"mintAll(address,bytes memory)": "infinite",
				"requireNFTOwner(uint256,address)": "infinite",
				"setColors(uint256,uint8,uint8,uint8)": "infinite",
				"setNFTOwner(uint256,address)": "24350",
				"setRoyaltyAddress(address)": "infinite",
				"setRoyaltyBasisPoints(uint256)": "infinite",
				"setStoreDescription(string memory)": "infinite",
				"setStoreExternalLinkURI(string memory)": "infinite",
				"setStoreImageURI(string memory)": "infinite",
				"setStoreName(string memory)": "infinite"
			}
		},
		"methodIdentifiers": {
			"action_applyConfig(uint256,uint8,uint8,uint8)": "70dbf911",
			"action_claimOwnerRole()": "41931a2f",
			"action_offerOwnerRole(address)": "dbd3cfcd",
			"balanceOf(address,uint256)": "00fdd58e",
			"balanceOfBatch(address[],uint256[])": "4e1273f4",
			"canImplementInterfaceForAddress(bytes32,address)": "249cb3fa",
			"contractURI()": "e8a3d485",
			"donate()": "ed88c68e",
			"failsafe_unlock()": "b4d9b973",
			"get_description(uint256)": "affe639f",
			"get_imageURI(uint256)": "43f22eda",
			"get_name(uint256)": "7f0f543c",
			"get_nftOwner(uint256)": "c4e8d5ed",
			"get_openSeaData()": "453a2dbf",
			"get_ownerAddress()": "91372456",
			"get_ownerSuccessorAddress()": "d319aa30",
			"get_royaltyAddress()": "63dd5ee5",
			"get_royaltyBasisPoints()": "58f026f0",
			"isApprovedForAll(address,address)": "e985e9c5",
			"onERC1155BatchReceived(address,address,uint256[],uint256[],bytes)": "bc197c81",
			"onERC1155Received(address,address,uint256,uint256,bytes)": "f23a6e61",
			"onERC721Received(address,address,uint256,bytes)": "150b7a02",
			"query_isLocked()": "4f61b3ae",
			"query_isNFTOwner(uint256,address)": "b7bf7070",
			"query_isOwnerAddress(address)": "9cd6e666",
			"query_isOwnerSuccessorAddress(address)": "503d7fe4",
			"royaltyInfo(uint256,uint256)": "2a55205a",
			"safeBatchTransferFrom(address,address,uint256[],uint256[],bytes)": "2eb2c2d6",
			"safeTransferFrom(address,address,uint256,uint256,bytes)": "f242432a",
			"setApprovalForAll(address,bool)": "a22cb465",
			"set_royaltyAddress(address)": "7a1e26ee",
			"set_royaltyBasisPoints(uint256)": "09f003b4",
			"set_storeDescription(string)": "6315aa45",
			"set_storeExternalLinkURI(string)": "811d678e",
			"set_storeImageURI(string)": "20a025d4",
			"set_storeName(string)": "64e847f9",
			"supportsInterface(bytes4)": "01ffc9a7",
			"tokensReceived(address,address,address,uint256,bytes,bytes)": "0023de29",
			"tokensToSend(address,address,address,uint256,bytes,bytes)": "75ab9782",
			"uri(uint256)": "0e89341c",
			"withdraw_coins(uint256)": "2e66ccf5",
			"withdraw_erc1155Tokens(address,uint256,uint256,bytes)": "f5da96dc",
			"withdraw_erc20Tokens(address,uint256)": "2aa4ada0",
			"withdraw_erc721Tokens(address,uint256)": "b76a10ca",
			"withdraw_erc777Tokens(address,uint256,bytes)": "b2828496"
		}
	},
	"abi": [
		{
			"inputs": [],
			"stateMutability": "payable",
			"type": "constructor"
		},
		{
			"inputs": [
				{
					"internalType": "uint256",
					"name": "value",
					"type": "uint256"
				},
				{
					"internalType": "uint256",
					"name": "mintFee",
					"type": "uint256"
				}
			],
			"name": "MintFeeError",
			"type": "error"
		},
		{
			"inputs": [],
			"name": "NoRemainingMintsError",
			"type": "error"
		},
		{
			"inputs": [
				{
					"internalType": "uint256",
					"name": "id",
					"type": "uint256"
				},
				{
					"internalType": "address",
					"name": "_address",
					"type": "address"
				},
				{
					"internalType": "address",
					"name": "nftOwner",
					"type": "address"
				}
			],
			"name": "NotNFTOwnerError",
			"type": "error"
		},
		{
			"inputs": [
				{
					"internalType": "address",
					"name": "_address",
					"type": "address"
				},
				{
					"internalType": "address",
					"name": "ownerAddress",
					"type": "address"
				}
			],
			"name": "NotOwnerError",
			"type": "error"
		},
		{
			"inputs": [
				{
					"internalType": "address",
					"name": "_address",
					"type": "address"
				},
				{
					"internalType": "address",
					"name": "ownerSuccessorAddress",
					"type": "address"
				}
			],
			"name": "NotOwnerSuccessorError",
			"type": "error"
		},
		{
			"anonymous": false,
			"inputs": [
				{
					"indexed": true,
					"internalType": "address",
					"name": "account",
					"type": "address"
				},
				{
					"indexed": true,
					"internalType": "address",
					"name": "operator",
					"type": "address"
				},
				{
					"indexed": false,
					"internalType": "bool",
					"name": "approved",
					"type": "bool"
				}
			],
			"name": "ApprovalForAll",
			"type": "event"
		},
		{
			"anonymous": false,
			"inputs": [
				{
					"indexed": true,
					"internalType": "address",
					"name": "oldOwnerAddress",
					"type": "address"
				},
				{
					"indexed": true,
					"internalType": "address",
					"name": "newOwnerAddress",
					"type": "address"
				}
			],
			"name": "OwnerChanged",
			"type": "event"
		},
		{
			"anonymous": false,
			"inputs": [
				{
					"indexed": true,
					"internalType": "address",
					"name": "operator",
					"type": "address"
				},
				{
					"indexed": true,
					"internalType": "address",
					"name": "from",
					"type": "address"
				},
				{
					"indexed": true,
					"internalType": "address",
					"name": "to",
					"type": "address"
				},
				{
					"indexed": false,
					"internalType": "uint256[]",
					"name": "ids",
					"type": "uint256[]"
				},
				{
					"indexed": false,
					"internalType": "uint256[]",
					"name": "values",
					"type": "uint256[]"
				}
			],
			"name": "TransferBatch",
			"type": "event"
		},
		{
			"anonymous": false,
			"inputs": [
				{
					"indexed": true,
					"internalType": "address",
					"name": "operator",
					"type": "address"
				},
				{
					"indexed": true,
					"internalType": "address",
					"name": "from",
					"type": "address"
				},
				{
					"indexed": true,
					"internalType": "address",
					"name": "to",
					"type": "address"
				},
				{
					"indexed": false,
					"internalType": "uint256",
					"name": "id",
					"type": "uint256"
				},
				{
					"indexed": false,
					"internalType": "uint256",
					"name": "value",
					"type": "uint256"
				}
			],
			"name": "TransferSingle",
			"type": "event"
		},
		{
			"anonymous": false,
			"inputs": [
				{
					"indexed": false,
					"internalType": "string",
					"name": "value",
					"type": "string"
				},
				{
					"indexed": true,
					"internalType": "uint256",
					"name": "id",
					"type": "uint256"
				}
			],
			"name": "URI",
			"type": "event"
		},
		{
			"stateMutability": "payable",
			"type": "fallback"
		},
		{
			"inputs": [
				{
					"internalType": "uint256",
					"name": "_id",
					"type": "uint256"
				},
				{
					"internalType": "uint8",
					"name": "_red",
					"type": "uint8"
				},
				{
					"internalType": "uint8",
					"name": "_green",
					"type": "uint8"
				},
				{
					"internalType": "uint8",
					"name": "_blue",
					"type": "uint8"
				}
			],
			"name": "action_applyConfig",
			"outputs": [],
			"stateMutability": "nonpayable",
			"type": "function"
		},
		{
			"inputs": [],
			"name": "action_claimOwnerRole",
			"outputs": [],
			"stateMutability": "nonpayable",
			"type": "function"
		},
		{
			"inputs": [
				{
					"internalType": "address",
					"name": "_address",
					"type": "address"
				}
			],
			"name": "action_offerOwnerRole",
			"outputs": [],
			"stateMutability": "nonpayable",
			"type": "function"
		},
		{
			"inputs": [
				{
					"internalType": "address",
					"name": "account",
					"type": "address"
				},
				{
					"internalType": "uint256",
					"name": "id",
					"type": "uint256"
				}
			],
			"name": "balanceOf",
			"outputs": [
				{
					"internalType": "uint256",
					"name": "",
					"type": "uint256"
				}
			],
			"stateMutability": "view",
			"type": "function"
		},
		{
			"inputs": [
				{
					"internalType": "address[]",
					"name": "accounts",
					"type": "address[]"
				},
				{
					"internalType": "uint256[]",
					"name": "ids",
					"type": "uint256[]"
				}
			],
			"name": "balanceOfBatch",
			"outputs": [
				{
					"internalType": "uint256[]",
					"name": "",
					"type": "uint256[]"
				}
			],
			"stateMutability": "view",
			"type": "function"
		},
		{
			"inputs": [
				{
					"internalType": "bytes32",
					"name": "interfaceHash",
					"type": "bytes32"
				},
				{
					"internalType": "address",
					"name": "account",
					"type": "address"
				}
			],
			"name": "canImplementInterfaceForAddress",
			"outputs": [
				{
					"internalType": "bytes32",
					"name": "",
					"type": "bytes32"
				}
			],
			"stateMutability": "view",
			"type": "function"
		},
		{
			"inputs": [],
			"name": "contractURI",
			"outputs": [
				{
					"internalType": "string",
					"name": "",
					"type": "string"
				}
			],
			"stateMutability": "view",
			"type": "function"
		},
		{
			"inputs": [],
			"name": "donate",
			"outputs": [],
			"stateMutability": "payable",
			"type": "function"
		},
		{
			"inputs": [],
			"name": "failsafe_unlock",
			"outputs": [],
			"stateMutability": "nonpayable",
			"type": "function"
		},
		{
			"inputs": [
				{
					"internalType": "uint256",
					"name": "_id",
					"type": "uint256"
				}
			],
			"name": "get_description",
			"outputs": [
				{
					"internalType": "string",
					"name": "",
					"type": "string"
				}
			],
			"stateMutability": "view",
			"type": "function"
		},
		{
			"inputs": [
				{
					"internalType": "uint256",
					"name": "_id",
					"type": "uint256"
				}
			],
			"name": "get_imageURI",
			"outputs": [
				{
					"internalType": "string",
					"name": "",
					"type": "string"
				}
			],
			"stateMutability": "view",
			"type": "function"
		},
		{
			"inputs": [
				{
					"internalType": "uint256",
					"name": "_id",
					"type": "uint256"
				}
			],
			"name": "get_name",
			"outputs": [
				{
					"internalType": "string",
					"name": "",
					"type": "string"
				}
			],
			"stateMutability": "pure",
			"type": "function"
		},
		{
			"inputs": [
				{
					"internalType": "uint256",
					"name": "_id",
					"type": "uint256"
				}
			],
			"name": "get_nftOwner",
			"outputs": [
				{
					"internalType": "address",
					"name": "",
					"type": "address"
				}
			],
			"stateMutability": "view",
			"type": "function"
		},
		{
			"inputs": [],
			"name": "get_openSeaData",
			"outputs": [
				{
					"internalType": "string",
					"name": "",
					"type": "string"
				}
			],
			"stateMutability": "view",
			"type": "function"
		},
		{
			"inputs": [],
			"name": "get_ownerAddress",
			"outputs": [
				{
					"internalType": "address",
					"name": "",
					"type": "address"
				}
			],
			"stateMutability": "view",
			"type": "function"
		},
		{
			"inputs": [],
			"name": "get_ownerSuccessorAddress",
			"outputs": [
				{
					"internalType": "address",
					"name": "",
					"type": "address"
				}
			],
			"stateMutability": "view",
			"type": "function"
		},
		{
			"inputs": [],
			"name": "get_royaltyAddress",
			"outputs": [
				{
					"internalType": "address",
					"name": "",
					"type": "address"
				}
			],
			"stateMutability": "view",
			"type": "function"
		},
		{
			"inputs": [],
			"name": "get_royaltyBasisPoints",
			"outputs": [
				{
					"internalType": "uint256",
					"name": "",
					"type": "uint256"
				}
			],
			"stateMutability": "view",
			"type": "function"
		},
		{
			"inputs": [
				{
					"internalType": "address",
					"name": "account",
					"type": "address"
				},
				{
					"internalType": "address",
					"name": "operator",
					"type": "address"
				}
			],
			"name": "isApprovedForAll",
			"outputs": [
				{
					"internalType": "bool",
					"name": "",
					"type": "bool"
				}
			],
			"stateMutability": "view",
			"type": "function"
		},
		{
			"inputs": [
				{
					"internalType": "address",
					"name": "",
					"type": "address"
				},
				{
					"internalType": "address",
					"name": "",
					"type": "address"
				},
				{
					"internalType": "uint256[]",
					"name": "",
					"type": "uint256[]"
				},
				{
					"internalType": "uint256[]",
					"name": "",
					"type": "uint256[]"
				},
				{
					"internalType": "bytes",
					"name": "",
					"type": "bytes"
				}
			],
			"name": "onERC1155BatchReceived",
			"outputs": [
				{
					"internalType": "bytes4",
					"name": "",
					"type": "bytes4"
				}
			],
			"stateMutability": "pure",
			"type": "function"
		},
		{
			"inputs": [
				{
					"internalType": "address",
					"name": "",
					"type": "address"
				},
				{
					"internalType": "address",
					"name": "",
					"type": "address"
				},
				{
					"internalType": "uint256",
					"name": "",
					"type": "uint256"
				},
				{
					"internalType": "uint256",
					"name": "",
					"type": "uint256"
				},
				{
					"internalType": "bytes",
					"name": "",
					"type": "bytes"
				}
			],
			"name": "onERC1155Received",
			"outputs": [
				{
					"internalType": "bytes4",
					"name": "",
					"type": "bytes4"
				}
			],
			"stateMutability": "pure",
			"type": "function"
		},
		{
			"inputs": [
				{
					"internalType": "address",
					"name": "",
					"type": "address"
				},
				{
					"internalType": "address",
					"name": "",
					"type": "address"
				},
				{
					"internalType": "uint256",
					"name": "",
					"type": "uint256"
				},
				{
					"internalType": "bytes",
					"name": "",
					"type": "bytes"
				}
			],
			"name": "onERC721Received",
			"outputs": [
				{
					"internalType": "bytes4",
					"name": "",
					"type": "bytes4"
				}
			],
			"stateMutability": "nonpayable",
			"type": "function"
		},
		{
			"inputs": [],
			"name": "query_isLocked",
			"outputs": [
				{
					"internalType": "bool",
					"name": "",
					"type": "bool"
				}
			],
			"stateMutability": "view",
			"type": "function"
		},
		{
			"inputs": [
				{
					"internalType": "uint256",
					"name": "_id",
					"type": "uint256"
				},
				{
					"internalType": "address",
					"name": "_address",
					"type": "address"
				}
			],
			"name": "query_isNFTOwner",
			"outputs": [
				{
					"internalType": "bool",
					"name": "",
					"type": "bool"
				}
			],
			"stateMutability": "view",
			"type": "function"
		},
		{
			"inputs": [
				{
					"internalType": "address",
					"name": "_address",
					"type": "address"
				}
			],
			"name": "query_isOwnerAddress",
			"outputs": [
				{
					"internalType": "bool",
					"name": "",
					"type": "bool"
				}
			],
			"stateMutability": "view",
			"type": "function"
		},
		{
			"inputs": [
				{
					"internalType": "address",
					"name": "_address",
					"type": "address"
				}
			],
			"name": "query_isOwnerSuccessorAddress",
			"outputs": [
				{
					"internalType": "bool",
					"name": "",
					"type": "bool"
				}
			],
			"stateMutability": "view",
			"type": "function"
		},
		{
			"inputs": [
				{
					"internalType": "uint256",
					"name": "",
					"type": "uint256"
				},
				{
					"internalType": "uint256",
					"name": "salePrice",
					"type": "uint256"
				}
			],
			"name": "royaltyInfo",
			"outputs": [
				{
					"internalType": "address",
					"name": "receiver",
					"type": "address"
				},
				{
					"internalType": "uint256",
					"name": "royaltyAmount",
					"type": "uint256"
				}
			],
			"stateMutability": "view",
			"type": "function"
		},
		{
			"inputs": [
				{
					"internalType": "address",
					"name": "from",
					"type": "address"
				},
				{
					"internalType": "address",
					"name": "to",
					"type": "address"
				},
				{
					"internalType": "uint256[]",
					"name": "ids",
					"type": "uint256[]"
				},
				{
					"internalType": "uint256[]",
					"name": "amounts",
					"type": "uint256[]"
				},
				{
					"internalType": "bytes",
					"name": "data",
					"type": "bytes"
				}
			],
			"name": "safeBatchTransferFrom",
			"outputs": [],
			"stateMutability": "nonpayable",
			"type": "function"
		},
		{
			"inputs": [
				{
					"internalType": "address",
					"name": "from",
					"type": "address"
				},
				{
					"internalType": "address",
					"name": "to",
					"type": "address"
				},
				{
					"internalType": "uint256",
					"name": "id",
					"type": "uint256"
				},
				{
					"internalType": "uint256",
					"name": "amount",
					"type": "uint256"
				},
				{
					"internalType": "bytes",
					"name": "data",
					"type": "bytes"
				}
			],
			"name": "safeTransferFrom",
			"outputs": [],
			"stateMutability": "nonpayable",
			"type": "function"
		},
		{
			"inputs": [
				{
					"internalType": "address",
					"name": "operator",
					"type": "address"
				},
				{
					"internalType": "bool",
					"name": "approved",
					"type": "bool"
				}
			],
			"name": "setApprovalForAll",
			"outputs": [],
			"stateMutability": "nonpayable",
			"type": "function"
		},
		{
			"inputs": [
				{
					"internalType": "address",
					"name": "_royaltyAddress",
					"type": "address"
				}
			],
			"name": "set_royaltyAddress",
			"outputs": [],
			"stateMutability": "nonpayable",
			"type": "function"
		},
		{
			"inputs": [
				{
					"internalType": "uint256",
					"name": "_royaltyBasisPoints",
					"type": "uint256"
				}
			],
			"name": "set_royaltyBasisPoints",
			"outputs": [],
			"stateMutability": "nonpayable",
			"type": "function"
		},
		{
			"inputs": [
				{
					"internalType": "string",
					"name": "_storeDescription",
					"type": "string"
				}
			],
			"name": "set_storeDescription",
			"outputs": [],
			"stateMutability": "nonpayable",
			"type": "function"
		},
		{
			"inputs": [
				{
					"internalType": "string",
					"name": "_storeExternalLinkURI",
					"type": "string"
				}
			],
			"name": "set_storeExternalLinkURI",
			"outputs": [],
			"stateMutability": "nonpayable",
			"type": "function"
		},
		{
			"inputs": [
				{
					"internalType": "string",
					"name": "_storeImageURI",
					"type": "string"
				}
			],
			"name": "set_storeImageURI",
			"outputs": [],
			"stateMutability": "nonpayable",
			"type": "function"
		},
		{
			"inputs": [
				{
					"internalType": "string",
					"name": "_storeName",
					"type": "string"
				}
			],
			"name": "set_storeName",
			"outputs": [],
			"stateMutability": "nonpayable",
			"type": "function"
		},
		{
			"inputs": [
				{
					"internalType": "bytes4",
					"name": "interfaceId",
					"type": "bytes4"
				}
			],
			"name": "supportsInterface",
			"outputs": [
				{
					"internalType": "bool",
					"name": "",
					"type": "bool"
				}
			],
			"stateMutability": "view",
			"type": "function"
		},
		{
			"inputs": [
				{
					"internalType": "address",
					"name": "operator",
					"type": "address"
				},
				{
					"internalType": "address",
					"name": "from",
					"type": "address"
				},
				{
					"internalType": "address",
					"name": "to",
					"type": "address"
				},
				{
					"internalType": "uint256",
					"name": "amount",
					"type": "uint256"
				},
				{
					"internalType": "bytes",
					"name": "userData",
					"type": "bytes"
				},
				{
					"internalType": "bytes",
					"name": "operatorData",
					"type": "bytes"
				}
			],
			"name": "tokensReceived",
			"outputs": [],
			"stateMutability": "nonpayable",
			"type": "function"
		},
		{
			"inputs": [
				{
					"internalType": "address",
					"name": "operator",
					"type": "address"
				},
				{
					"internalType": "address",
					"name": "from",
					"type": "address"
				},
				{
					"internalType": "address",
					"name": "to",
					"type": "address"
				},
				{
					"internalType": "uint256",
					"name": "amount",
					"type": "uint256"
				},
				{
					"internalType": "bytes",
					"name": "userData",
					"type": "bytes"
				},
				{
					"internalType": "bytes",
					"name": "operatorData",
					"type": "bytes"
				}
			],
			"name": "tokensToSend",
			"outputs": [],
			"stateMutability": "nonpayable",
			"type": "function"
		},
		{
			"inputs": [
				{
					"internalType": "uint256",
					"name": "id",
					"type": "uint256"
				}
			],
			"name": "uri",
			"outputs": [
				{
					"internalType": "string",
					"name": "",
					"type": "string"
				}
			],
			"stateMutability": "view",
			"type": "function"
		},
		{
			"inputs": [
				{
					"internalType": "uint256",
					"name": "_value",
					"type": "uint256"
				}
			],
			"name": "withdraw_coins",
			"outputs": [],
			"stateMutability": "nonpayable",
			"type": "function"
		},
		{
			"inputs": [
				{
					"internalType": "address",
					"name": "_tokenAddress",
					"type": "address"
				},
				{
					"internalType": "uint256",
					"name": "_id",
					"type": "uint256"
				},
				{
					"internalType": "uint256",
					"name": "_value",
					"type": "uint256"
				},
				{
					"internalType": "bytes",
					"name": "_data",
					"type": "bytes"
				}
			],
			"name": "withdraw_erc1155Tokens",
			"outputs": [],
			"stateMutability": "nonpayable",
			"type": "function"
		},
		{
			"inputs": [
				{
					"internalType": "address",
					"name": "_tokenAddress",
					"type": "address"
				},
				{
					"internalType": "uint256",
					"name": "_value",
					"type": "uint256"
				}
			],
			"name": "withdraw_erc20Tokens",
			"outputs": [],
			"stateMutability": "nonpayable",
			"type": "function"
		},
		{
			"inputs": [
				{
					"internalType": "address",
					"name": "_tokenAddress",
					"type": "address"
				},
				{
					"internalType": "uint256",
					"name": "_id",
					"type": "uint256"
				}
			],
			"name": "withdraw_erc721Tokens",
			"outputs": [],
			"stateMutability": "nonpayable",
			"type": "function"
		},
		{
			"inputs": [
				{
					"internalType": "address",
					"name": "_tokenAddress",
					"type": "address"
				},
				{
					"internalType": "uint256",
					"name": "_value",
					"type": "uint256"
				},
				{
					"internalType": "bytes",
					"name": "_data",
					"type": "bytes"
				}
			],
			"name": "withdraw_erc777Tokens",
			"outputs": [],
			"stateMutability": "nonpayable",
			"type": "function"
		},
		{
			"stateMutability": "payable",
			"type": "receive"
		}
	]
}