{
	"data": {
		"bytecode": {
			"linkReferences": {},
			"object": "60806040526200000e62000014565b620000de565b60005b6101008110156200009d578060005b60088110156200006c57816001166001036200004f57600182901c63edb8832018915062000057565b600182901c91505b806200006381620000a0565b91505062000026565b50806000836101008110620000855762000085620000c8565b015550806200009481620000a0565b91505062000017565b50565b600060018201620000c157634e487b7160e01b600052601160045260246000fd5b5060010190565b634e487b7160e01b600052603260045260246000fd5b61141280620000ee6000396000f3fe608060405234801561001057600080fd5b506004361061004c5760003560e01c806319858b361461005157806348b508b714610077578063d0c8331c1461008c578063fe2a364914610094575b600080fd5b61006461005f366004611169565b6100a7565b6040519081526020015b60405180910390f35b61007f610125565b60405161006e9190611284565b61007f610186565b6100646100a2366004611169565b61029c565b6000600181805b84811015610101578581815181106100c8576100c861129e565b602002602001015160f81c60ff16836100e191906112ca565b92506100ed83836112ca565b9150806100f9816112dd565b9150506100ae565b508161011082620100006112f6565b61011a91906112ca565b925050505b92915050565b60606000610131610186565b905060008190506101608160405160200161014c919061130d565b6040516020818303038152906040526102ba565b6040516020016101709190611329565b6040516020818303038152906040529250505090565b604080516064808252610ca08201909252606091600091829160208201610c80803683370190505090506101ba818361040d565b925090506101cc8183600360016105f2565b925090506101da8183610867565b925090506101e88183610ccd565b9250905060008267ffffffffffffffff81111561020757610207611136565b6040519080825280601f01601f191660200182016040528015610231576020820181803683370190505b50905060005b83811015610294578281815181106102515761025161129e565b602002602001015182828151811061026b5761026b61129e565b60200101906001600160f81b031916908160001a9053508061028c816112dd565b915050610237565b509392505050565b60006102ad63ffffffff8484610de9565b63ffffffff189392505050565b606081516000036102d957505060408051602081019091526000815290565b600060405180606001604052806040815260200161139d604091399050600060038451600261030891906112ca565b6103129190611367565b61031d9060046112f6565b67ffffffffffffffff81111561033557610335611136565b6040519080825280601f01601f19166020018201604052801561035f576020820181803683370190505b509050600182016020820185865187015b808210156103cb576003820191508151603f8160121c168501518453600184019350603f81600c1c168501518453600184019350603f8160061c168501518453600184019350603f8116850151845350600183019250610370565b50506003865106600181146103e757600281146103fa57610402565b603d6001830353603d6002830353610402565b603d60018303535b509195945050505050565b60606000608960f81b8484610421816112dd565b9550815181106104335761043361129e565b6001600160f81b031990921660209283029190910190910152600560fc1b848461045c816112dd565b95508151811061046e5761046e61129e565b6001600160f81b031990921660209283029190910190910152602760f91b8484610497816112dd565b9550815181106104a9576104a961129e565b6001600160f81b031990921660209283029190910190910152604760f81b84846104d2816112dd565b9550815181106104e4576104e461129e565b6001600160f81b031990921660209283029190910190910152600d60f81b848461050d816112dd565b95508151811061051f5761051f61129e565b6001600160f81b031990921660209283029190910190910152600560f91b8484610548816112dd565b95508151811061055a5761055a61129e565b6001600160f81b031990921660209283029190910190910152600d60f91b8484610583816112dd565b9550815181106105955761059561129e565b6001600160f81b031990921660209283029190910190910152600560f91b84846105be816112dd565b9550815181106105d0576105d061129e565b6001600160f81b03199290921660209283029190910190910152509192909150565b60606000846106026004826112ca565b955085604960f81b8882610615816112dd565b9950815181106106275761062761129e565b6001600160f81b031990921660209283029190910190910152600960fb1b8888610650816112dd565b9950815181106106625761066261129e565b6001600160f81b031990921660209283029190910190910152601160fa1b888861068b816112dd565b99508151811061069d5761069d61129e565b6001600160f81b031990921660209283029190910190910152602960f91b88886106c6816112dd565b9950815181106106d8576106d861129e565b6001600160f81b031990921660209283029190910190910152866106fd898289610e53565b909950975061070d898988610e53565b9099509750600160fb1b8989610722816112dd565b9a50815181106107345761073461129e565b6001600160f81b031990921660209283029190910190910152600160f91b898961075d816112dd565b9a508151811061076f5761076f61129e565b6001600160f81b03199092166020928302919091019091015260008989610795816112dd565b9a50815181106107a7576107a761129e565b6001600160f81b031990921660209283029190910190910152600089896107cd816112dd565b9a50815181106107df576107df61129e565b6001600160f81b03199092166020928302919091019091015260008989610805816112dd565b9a50815181106108175761081761129e565b6001600160f81b031990921660209283029190910190910152878061083e8b828681610f54565b909b5099506108578b866108528686611389565b610e53565b509b999a50505050505050505050565b60606000826108776004826112ca565b935083604960f81b868261088a816112dd565b97508151811061089c5761089c61129e565b6001600160f81b031990921660209283029190910190910152601160fa1b86866108c5816112dd565b9750815181106108d7576108d761129e565b6001600160f81b031990921660209283029190910190910152604160f81b8686610900816112dd565b9750815181106109125761091261129e565b6001600160f81b031990921660209283029190910190910152601560fa1b868661093b816112dd565b97508151811061094d5761094d61129e565b6001600160f81b03199092166020928302919091019091015284600f60fb1b8782610977816112dd565b9850815181106109895761098961129e565b6001600160f81b031990921660209283029190910190910152600160f81b87876109b2816112dd565b9850815181106109c4576109c461129e565b6001600160f81b031990921660209283029190910190910152600160f81b87876109ed816112dd565b9850815181106109ff576109ff61129e565b6001600160f81b03199092166020928302919091019091015285610a246004826112ca565b9650868060008a82610a35816112dd565b9b5081518110610a4757610a4761129e565b6001600160f81b031992831660209182029290920101528a8a610a69816112dd565b9b5081518110610a7b57610a7b61129e565b6001600160f81b03199092166020928302919091019091015260008a8a610aa1816112dd565b9b5081518110610ab357610ab361129e565b6001600160f81b03199092166020928302919091019091015260008a8a610ad9816112dd565b9b5081518110610aeb57610aeb61129e565b6001600160f81b03199092166020928302919091019091015260008a8a610b11816112dd565b9b5081518110610b2357610b2361129e565b6001600160f81b031992831660209182029290920101528a8a610b45816112dd565b9b5081518110610b5757610b5761129e565b6001600160f81b03199092166020928302919091019091015260008a8a610b7d816112dd565b9b5081518110610b8f57610b8f61129e565b6001600160f81b03199092166020928302919091019091015260008a8a610bb5816112dd565b9b5081518110610bc757610bc761129e565b6001600160f81b03199092166020928302919091019091015260008a8a610bed816112dd565b9b5081518110610bff57610bff61129e565b6001600160f81b031992831660209182029290920101528a8a610c21816112dd565b9b5081518110610c3357610c3361129e565b6001600160f81b0319909216602092830291909101909101528880610c5a8c828681611045565b909c509a508a80610c6d8e828b81610f54565b909e509c50610c818e8b6108528b86611389565b909e509950610c9a8e88610c958887611389565b611118565b909e509650610cba8e88610cae8887611389565b610c959061ffff611389565b509e9c9d50505050505050505050505050565b60606000610cdd84846000610e53565b909450925082604960f81b8582610cf3816112dd565b965081518110610d0557610d0561129e565b6001600160f81b031990921660209283029190910190910152604560f81b8585610d2e816112dd565b965081518110610d4057610d4061129e565b6001600160f81b031990921660209283029190910190910152602760f91b8585610d69816112dd565b965081518110610d7b57610d7b61129e565b6001600160f81b031990921660209283029190910190910152601160fa1b8585610da4816112dd565b965081518110610db657610db661129e565b6001600160f81b03199092166020928302919091019091015283610ddc86828481610f54565b9097909650945050505050565b600083815b83811015610e4a57600882901c6000868381518110610e0f57610e0f61129e565b602002602001015160f81c60ff16841860ff166101008110610e3357610e3361129e565b015418915080610e42816112dd565b915050610dee565b50949350505050565b606060006001600160f81b031960e084901b168585610e71816112dd565b965081518110610e8357610e8361129e565b6001600160f81b0319928316602091820292909201015260e884901b168585610eab816112dd565b965081518110610ebd57610ebd61129e565b6001600160f81b0319928316602091820292909201015260f084901b168585610ee5816112dd565b965081518110610ef757610ef761129e565b6001600160f81b0319928316602091820292909201015260f884901b168585610f1f816112dd565b965081518110610f3157610f3161129e565b6001600160f81b0319929092166020928302919091019091015250929391925050565b6060600080610f638585611389565b90506000808267ffffffffffffffff811115610f8157610f81611136565b604051908082528060200260200182016040528015610faa578160200160208202803683370190505b509050865b8681101561101a57898181518110610fc957610fc961129e565b6020026020010151828480610fdd906112dd565b955081518110610fef57610fef61129e565b6001600160f81b03199092166020928302919091019091015280611012816112dd565b915050610faf565b506000611027828561029c565b90506110348a8a83610e53565b909b909a5098505050505050505050565b60606000806110548585611389565b90506000808267ffffffffffffffff81111561107257611072611136565b60405190808252806020026020018201604052801561109b578160200160208202803683370190505b509050865b8681101561110b578981815181106110ba576110ba61129e565b60200260200101518284806110ce906112dd565b9550815181106110e0576110e061129e565b6001600160f81b03199092166020928302919091019091015280611103816112dd565b9150506110a0565b50600061102782856100a7565b606060006001600160f81b031960f084901b168585610ee5816112dd565b634e487b7160e01b600052604160045260246000fd5b80356001600160f81b03198116811461116457600080fd5b919050565b6000806040838503121561117c57600080fd5b823567ffffffffffffffff8082111561119457600080fd5b818501915085601f8301126111a857600080fd5b81356020828211156111bc576111bc611136565b8160051b604051601f19603f830116810181811086821117156111e1576111e1611136565b6040529283528183019350848101820192898411156111ff57600080fd5b948201945b83861015611224576112158661114c565b85529482019493820193611204565b9997909101359750505050505050565b60005b8381101561124f578181015183820152602001611237565b50506000910152565b60008151808452611270816020860160208601611234565b601f01601f19169290920160200192915050565b6020815260006112976020830184611258565b9392505050565b634e487b7160e01b600052603260045260246000fd5b634e487b7160e01b600052601160045260246000fd5b8082018082111561011f5761011f6112b4565b6000600182016112ef576112ef6112b4565b5060010190565b808202811582820484141761011f5761011f6112b4565b6000825161131f818460208701611234565b9190910192915050565b7519185d184e9a5b5859d94bdc1b99ced8985cd94d8d0b60521b81526000825161135a816016850160208701611234565b9190910160160192915050565b60008261138457634e487b7160e01b600052601260045260246000fd5b500490565b8181038181111561011f5761011f6112b456fe4142434445464748494a4b4c4d4e4f505152535455565758595a6162636465666768696a6b6c6d6e6f707172737475767778797a303132333435363738392b2fa2646970667358221220bcfb8351a31361c792d2303ab67bc20b192ba81036ea10fb42b078b3bdd0fd8264736f6c63430008120033",
			"opcodes": "PUSH1 0x80 PUSH1 0x40 MSTORE PUSH3 0xE PUSH3 0x14 JUMP JUMPDEST PUSH3 0xDE JUMP JUMPDEST PUSH1 0x0 JUMPDEST PUSH2 0x100 DUP2 LT ISZERO PUSH3 0x9D JUMPI DUP1 PUSH1 0x0 JUMPDEST PUSH1 0x8 DUP2 LT ISZERO PUSH3 0x6C JUMPI DUP2 PUSH1 0x1 AND PUSH1 0x1 SUB PUSH3 0x4F JUMPI PUSH1 0x1 DUP3 SWAP1 SHR PUSH4 0xEDB88320 XOR SWAP2 POP PUSH3 0x57 JUMP JUMPDEST PUSH1 0x1 DUP3 SWAP1 SHR SWAP2 POP JUMPDEST DUP1 PUSH3 0x63 DUP2 PUSH3 0xA0 JUMP JUMPDEST SWAP2 POP POP PUSH3 0x26 JUMP JUMPDEST POP DUP1 PUSH1 0x0 DUP4 PUSH2 0x100 DUP2 LT PUSH3 0x85 JUMPI PUSH3 0x85 PUSH3 0xC8 JUMP JUMPDEST ADD SSTORE POP DUP1 PUSH3 0x94 DUP2 PUSH3 0xA0 JUMP JUMPDEST SWAP2 POP POP PUSH3 0x17 JUMP JUMPDEST POP JUMP JUMPDEST PUSH1 0x0 PUSH1 0x1 DUP3 ADD PUSH3 0xC1 JUMPI PUSH4 0x4E487B71 PUSH1 0xE0 SHL PUSH1 0x0 MSTORE PUSH1 0x11 PUSH1 0x4 MSTORE PUSH1 0x24 PUSH1 0x0 REVERT JUMPDEST POP PUSH1 0x1 ADD SWAP1 JUMP JUMPDEST PUSH4 0x4E487B71 PUSH1 0xE0 SHL PUSH1 0x0 MSTORE PUSH1 0x32 PUSH1 0x4 MSTORE PUSH1 0x24 PUSH1 0x0 REVERT JUMPDEST PUSH2 0x1412 DUP1 PUSH3 0xEE PUSH1 0x0 CODECOPY PUSH1 0x0 RETURN INVALID PUSH1 0x80 PUSH1 0x40 MSTORE CALLVALUE DUP1 ISZERO PUSH2 0x10 JUMPI PUSH1 0x0 DUP1 REVERT JUMPDEST POP PUSH1 0x4 CALLDATASIZE LT PUSH2 0x4C JUMPI PUSH1 0x0 CALLDATALOAD PUSH1 0xE0 SHR DUP1 PUSH4 0x19858B36 EQ PUSH2 0x51 JUMPI DUP1 PUSH4 0x48B508B7 EQ PUSH2 0x77 JUMPI DUP1 PUSH4 0xD0C8331C EQ PUSH2 0x8C JUMPI DUP1 PUSH4 0xFE2A3649 EQ PUSH2 0x94 JUMPI JUMPDEST PUSH1 0x0 DUP1 REVERT JUMPDEST PUSH2 0x64 PUSH2 0x5F CALLDATASIZE PUSH1 0x4 PUSH2 0x1169 JUMP JUMPDEST PUSH2 0xA7 JUMP JUMPDEST PUSH1 0x40 MLOAD SWAP1 DUP2 MSTORE PUSH1 0x20 ADD JUMPDEST PUSH1 0x40 MLOAD DUP1 SWAP2 SUB SWAP1 RETURN JUMPDEST PUSH2 0x7F PUSH2 0x125 JUMP JUMPDEST PUSH1 0x40 MLOAD PUSH2 0x6E SWAP2 SWAP1 PUSH2 0x1284 JUMP JUMPDEST PUSH2 0x7F PUSH2 0x186 JUMP JUMPDEST PUSH2 0x64 PUSH2 0xA2 CALLDATASIZE PUSH1 0x4 PUSH2 0x1169 JUMP JUMPDEST PUSH2 0x29C JUMP JUMPDEST PUSH1 0x0 PUSH1 0x1 DUP2 DUP1 JUMPDEST DUP5 DUP2 LT ISZERO PUSH2 0x101 JUMPI DUP6 DUP2 DUP2 MLOAD DUP2 LT PUSH2 0xC8 JUMPI PUSH2 0xC8 PUSH2 0x129E JUMP JUMPDEST PUSH1 0x20 MUL PUSH1 0x20 ADD ADD MLOAD PUSH1 0xF8 SHR PUSH1 0xFF AND DUP4 PUSH2 0xE1 SWAP2 SWAP1 PUSH2 0x12CA JUMP JUMPDEST SWAP3 POP PUSH2 0xED DUP4 DUP4 PUSH2 0x12CA JUMP JUMPDEST SWAP2 POP DUP1 PUSH2 0xF9 DUP2 PUSH2 0x12DD JUMP JUMPDEST SWAP2 POP POP PUSH2 0xAE JUMP JUMPDEST POP DUP2 PUSH2 0x110 DUP3 PUSH3 0x10000 PUSH2 0x12F6 JUMP JUMPDEST PUSH2 0x11A SWAP2 SWAP1 PUSH2 0x12CA JUMP JUMPDEST SWAP3 POP POP POP JUMPDEST SWAP3 SWAP2 POP POP JUMP JUMPDEST PUSH1 0x60 PUSH1 0x0 PUSH2 0x131 PUSH2 0x186 JUMP JUMPDEST SWAP1 POP PUSH1 0x0 DUP2 SWAP1 POP PUSH2 0x160 DUP2 PUSH1 0x40 MLOAD PUSH1 0x20 ADD PUSH2 0x14C SWAP2 SWAP1 PUSH2 0x130D JUMP JUMPDEST PUSH1 0x40 MLOAD PUSH1 0x20 DUP2 DUP4 SUB SUB DUP2 MSTORE SWAP1 PUSH1 0x40 MSTORE PUSH2 0x2BA JUMP JUMPDEST PUSH1 0x40 MLOAD PUSH1 0x20 ADD PUSH2 0x170 SWAP2 SWAP1 PUSH2 0x1329 JUMP JUMPDEST PUSH1 0x40 MLOAD PUSH1 0x20 DUP2 DUP4 SUB SUB DUP2 MSTORE SWAP1 PUSH1 0x40 MSTORE SWAP3 POP POP POP SWAP1 JUMP JUMPDEST PUSH1 0x40 DUP1 MLOAD PUSH1 0x64 DUP1 DUP3 MSTORE PUSH2 0xCA0 DUP3 ADD SWAP1 SWAP3 MSTORE PUSH1 0x60 SWAP2 PUSH1 0x0 SWAP2 DUP3 SWAP2 PUSH1 0x20 DUP3 ADD PUSH2 0xC80 DUP1 CALLDATASIZE DUP4 CALLDATACOPY ADD SWAP1 POP POP SWAP1 POP PUSH2 0x1BA DUP2 DUP4 PUSH2 0x40D JUMP JUMPDEST SWAP3 POP SWAP1 POP PUSH2 0x1CC DUP2 DUP4 PUSH1 0x3 PUSH1 0x1 PUSH2 0x5F2 JUMP JUMPDEST SWAP3 POP SWAP1 POP PUSH2 0x1DA DUP2 DUP4 PUSH2 0x867 JUMP JUMPDEST SWAP3 POP SWAP1 POP PUSH2 0x1E8 DUP2 DUP4 PUSH2 0xCCD JUMP JUMPDEST SWAP3 POP SWAP1 POP PUSH1 0x0 DUP3 PUSH8 0xFFFFFFFFFFFFFFFF DUP2 GT ISZERO PUSH2 0x207 JUMPI PUSH2 0x207 PUSH2 0x1136 JUMP JUMPDEST PUSH1 0x40 MLOAD SWAP1 DUP1 DUP3 MSTORE DUP1 PUSH1 0x1F ADD PUSH1 0x1F NOT AND PUSH1 0x20 ADD DUP3 ADD PUSH1 0x40 MSTORE DUP1 ISZERO PUSH2 0x231 JUMPI PUSH1 0x20 DUP3 ADD DUP2 DUP1 CALLDATASIZE DUP4 CALLDATACOPY ADD SWAP1 POP JUMPDEST POP SWAP1 POP PUSH1 0x0 JUMPDEST DUP4 DUP2 LT ISZERO PUSH2 0x294 JUMPI DUP3 DUP2 DUP2 MLOAD DUP2 LT PUSH2 0x251 JUMPI PUSH2 0x251 PUSH2 0x129E JUMP JUMPDEST PUSH1 0x20 MUL PUSH1 0x20 ADD ADD MLOAD DUP3 DUP3 DUP2 MLOAD DUP2 LT PUSH2 0x26B JUMPI PUSH2 0x26B PUSH2 0x129E JUMP JUMPDEST PUSH1 0x20 ADD ADD SWAP1 PUSH1 0x1 PUSH1 0x1 PUSH1 0xF8 SHL SUB NOT AND SWAP1 DUP2 PUSH1 0x0 BYTE SWAP1 MSTORE8 POP DUP1 PUSH2 0x28C DUP2 PUSH2 0x12DD JUMP JUMPDEST SWAP2 POP POP PUSH2 0x237 JUMP JUMPDEST POP SWAP4 SWAP3 POP POP POP JUMP JUMPDEST PUSH1 0x0 PUSH2 0x2AD PUSH4 0xFFFFFFFF DUP5 DUP5 PUSH2 0xDE9 JUMP JUMPDEST PUSH4 0xFFFFFFFF XOR SWAP4 SWAP3 POP POP POP JUMP JUMPDEST PUSH1 0x60 DUP2 MLOAD PUSH1 0x0 SUB PUSH2 0x2D9 JUMPI POP POP PUSH1 0x40 DUP1 MLOAD PUSH1 0x20 DUP2 ADD SWAP1 SWAP2 MSTORE PUSH1 0x0 DUP2 MSTORE SWAP1 JUMP JUMPDEST PUSH1 0x0 PUSH1 0x40 MLOAD DUP1 PUSH1 0x60 ADD PUSH1 0x40 MSTORE DUP1 PUSH1 0x40 DUP2 MSTORE PUSH1 0x20 ADD PUSH2 0x139D PUSH1 0x40 SWAP2 CODECOPY SWAP1 POP PUSH1 0x0 PUSH1 0x3 DUP5 MLOAD PUSH1 0x2 PUSH2 0x308 SWAP2 SWAP1 PUSH2 0x12CA JUMP JUMPDEST PUSH2 0x312 SWAP2 SWAP1 PUSH2 0x1367 JUMP JUMPDEST PUSH2 0x31D SWAP1 PUSH1 0x4 PUSH2 0x12F6 JUMP JUMPDEST PUSH8 0xFFFFFFFFFFFFFFFF DUP2 GT ISZERO PUSH2 0x335 JUMPI PUSH2 0x335 PUSH2 0x1136 JUMP JUMPDEST PUSH1 0x40 MLOAD SWAP1 DUP1 DUP3 MSTORE DUP1 PUSH1 0x1F ADD PUSH1 0x1F NOT AND PUSH1 0x20 ADD DUP3 ADD PUSH1 0x40 MSTORE DUP1 ISZERO PUSH2 0x35F JUMPI PUSH1 0x20 DUP3 ADD DUP2 DUP1 CALLDATASIZE DUP4 CALLDATACOPY ADD SWAP1 POP JUMPDEST POP SWAP1 POP PUSH1 0x1 DUP3 ADD PUSH1 0x20 DUP3 ADD DUP6 DUP7 MLOAD DUP8 ADD JUMPDEST DUP1 DUP3 LT ISZERO PUSH2 0x3CB JUMPI PUSH1 0x3 DUP3 ADD SWAP2 POP DUP2 MLOAD PUSH1 0x3F DUP2 PUSH1 0x12 SHR AND DUP6 ADD MLOAD DUP5 MSTORE8 PUSH1 0x1 DUP5 ADD SWAP4 POP PUSH1 0x3F DUP2 PUSH1 0xC SHR AND DUP6 ADD MLOAD DUP5 MSTORE8 PUSH1 0x1 DUP5 ADD SWAP4 POP PUSH1 0x3F DUP2 PUSH1 0x6 SHR AND DUP6 ADD MLOAD DUP5 MSTORE8 PUSH1 0x1 DUP5 ADD SWAP4 POP PUSH1 0x3F DUP2 AND DUP6 ADD MLOAD DUP5 MSTORE8 POP PUSH1 0x1 DUP4 ADD SWAP3 POP PUSH2 0x370 JUMP JUMPDEST POP POP PUSH1 0x3 DUP7 MLOAD MOD PUSH1 0x1 DUP2 EQ PUSH2 0x3E7 JUMPI PUSH1 0x2 DUP2 EQ PUSH2 0x3FA JUMPI PUSH2 0x402 JUMP JUMPDEST PUSH1 0x3D PUSH1 0x1 DUP4 SUB MSTORE8 PUSH1 0x3D PUSH1 0x2 DUP4 SUB MSTORE8 PUSH2 0x402 JUMP JUMPDEST PUSH1 0x3D PUSH1 0x1 DUP4 SUB MSTORE8 JUMPDEST POP SWAP2 SWAP6 SWAP5 POP POP POP POP POP JUMP JUMPDEST PUSH1 0x60 PUSH1 0x0 PUSH1 0x89 PUSH1 0xF8 SHL DUP5 DUP5 PUSH2 0x421 DUP2 PUSH2 0x12DD JUMP JUMPDEST SWAP6 POP DUP2 MLOAD DUP2 LT PUSH2 0x433 JUMPI PUSH2 0x433 PUSH2 0x129E JUMP JUMPDEST PUSH1 0x1 PUSH1 0x1 PUSH1 0xF8 SHL SUB NOT SWAP1 SWAP3 AND PUSH1 0x20 SWAP3 DUP4 MUL SWAP2 SWAP1 SWAP2 ADD SWAP1 SWAP2 ADD MSTORE PUSH1 0x5 PUSH1 0xFC SHL DUP5 DUP5 PUSH2 0x45C DUP2 PUSH2 0x12DD JUMP JUMPDEST SWAP6 POP DUP2 MLOAD DUP2 LT PUSH2 0x46E JUMPI PUSH2 0x46E PUSH2 0x129E JUMP JUMPDEST PUSH1 0x1 PUSH1 0x1 PUSH1 0xF8 SHL SUB NOT SWAP1 SWAP3 AND PUSH1 0x20 SWAP3 DUP4 MUL SWAP2 SWAP1 SWAP2 ADD SWAP1 SWAP2 ADD MSTORE PUSH1 0x27 PUSH1 0xF9 SHL DUP5 DUP5 PUSH2 0x497 DUP2 PUSH2 0x12DD JUMP JUMPDEST SWAP6 POP DUP2 MLOAD DUP2 LT PUSH2 0x4A9 JUMPI PUSH2 0x4A9 PUSH2 0x129E JUMP JUMPDEST PUSH1 0x1 PUSH1 0x1 PUSH1 0xF8 SHL SUB NOT SWAP1 SWAP3 AND PUSH1 0x20 SWAP3 DUP4 MUL SWAP2 SWAP1 SWAP2 ADD SWAP1 SWAP2 ADD MSTORE PUSH1 0x47 PUSH1 0xF8 SHL DUP5 DUP5 PUSH2 0x4D2 DUP2 PUSH2 0x12DD JUMP JUMPDEST SWAP6 POP DUP2 MLOAD DUP2 LT PUSH2 0x4E4 JUMPI PUSH2 0x4E4 PUSH2 0x129E JUMP JUMPDEST PUSH1 0x1 PUSH1 0x1 PUSH1 0xF8 SHL SUB NOT SWAP1 SWAP3 AND PUSH1 0x20 SWAP3 DUP4 MUL SWAP2 SWAP1 SWAP2 ADD SWAP1 SWAP2 ADD MSTORE PUSH1 0xD PUSH1 0xF8 SHL DUP5 DUP5 PUSH2 0x50D DUP2 PUSH2 0x12DD JUMP JUMPDEST SWAP6 POP DUP2 MLOAD DUP2 LT PUSH2 0x51F JUMPI PUSH2 0x51F PUSH2 0x129E JUMP JUMPDEST PUSH1 0x1 PUSH1 0x1 PUSH1 0xF8 SHL SUB NOT SWAP1 SWAP3 AND PUSH1 0x20 SWAP3 DUP4 MUL SWAP2 SWAP1 SWAP2 ADD SWAP1 SWAP2 ADD MSTORE PUSH1 0x5 PUSH1 0xF9 SHL DUP5 DUP5 PUSH2 0x548 DUP2 PUSH2 0x12DD JUMP JUMPDEST SWAP6 POP DUP2 MLOAD DUP2 LT PUSH2 0x55A JUMPI PUSH2 0x55A PUSH2 0x129E JUMP JUMPDEST PUSH1 0x1 PUSH1 0x1 PUSH1 0xF8 SHL SUB NOT SWAP1 SWAP3 AND PUSH1 0x20 SWAP3 DUP4 MUL SWAP2 SWAP1 SWAP2 ADD SWAP1 SWAP2 ADD MSTORE PUSH1 0xD PUSH1 0xF9 SHL DUP5 DUP5 PUSH2 0x583 DUP2 PUSH2 0x12DD JUMP JUMPDEST SWAP6 POP DUP2 MLOAD DUP2 LT PUSH2 0x595 JUMPI PUSH2 0x595 PUSH2 0x129E JUMP JUMPDEST PUSH1 0x1 PUSH1 0x1 PUSH1 0xF8 SHL SUB NOT SWAP1 SWAP3 AND PUSH1 0x20 SWAP3 DUP4 MUL SWAP2 SWAP1 SWAP2 ADD SWAP1 SWAP2 ADD MSTORE PUSH1 0x5 PUSH1 0xF9 SHL DUP5 DUP5 PUSH2 0x5BE DUP2 PUSH2 0x12DD JUMP JUMPDEST SWAP6 POP DUP2 MLOAD DUP2 LT PUSH2 0x5D0 JUMPI PUSH2 0x5D0 PUSH2 0x129E JUMP JUMPDEST PUSH1 0x1 PUSH1 0x1 PUSH1 0xF8 SHL SUB NOT SWAP3 SWAP1 SWAP3 AND PUSH1 0x20 SWAP3 DUP4 MUL SWAP2 SWAP1 SWAP2 ADD SWAP1 SWAP2 ADD MSTORE POP SWAP2 SWAP3 SWAP1 SWAP2 POP JUMP JUMPDEST PUSH1 0x60 PUSH1 0x0 DUP5 PUSH2 0x602 PUSH1 0x4 DUP3 PUSH2 0x12CA JUMP JUMPDEST SWAP6 POP DUP6 PUSH1 0x49 PUSH1 0xF8 SHL DUP9 DUP3 PUSH2 0x615 DUP2 PUSH2 0x12DD JUMP JUMPDEST SWAP10 POP DUP2 MLOAD DUP2 LT PUSH2 0x627 JUMPI PUSH2 0x627 PUSH2 0x129E JUMP JUMPDEST PUSH1 0x1 PUSH1 0x1 PUSH1 0xF8 SHL SUB NOT SWAP1 SWAP3 AND PUSH1 0x20 SWAP3 DUP4 MUL SWAP2 SWAP1 SWAP2 ADD SWAP1 SWAP2 ADD MSTORE PUSH1 0x9 PUSH1 0xFB SHL DUP9 DUP9 PUSH2 0x650 DUP2 PUSH2 0x12DD JUMP JUMPDEST SWAP10 POP DUP2 MLOAD DUP2 LT PUSH2 0x662 JUMPI PUSH2 0x662 PUSH2 0x129E JUMP JUMPDEST PUSH1 0x1 PUSH1 0x1 PUSH1 0xF8 SHL SUB NOT SWAP1 SWAP3 AND PUSH1 0x20 SWAP3 DUP4 MUL SWAP2 SWAP1 SWAP2 ADD SWAP1 SWAP2 ADD MSTORE PUSH1 0x11 PUSH1 0xFA SHL DUP9 DUP9 PUSH2 0x68B DUP2 PUSH2 0x12DD JUMP JUMPDEST SWAP10 POP DUP2 MLOAD DUP2 LT PUSH2 0x69D JUMPI PUSH2 0x69D PUSH2 0x129E JUMP JUMPDEST PUSH1 0x1 PUSH1 0x1 PUSH1 0xF8 SHL SUB NOT SWAP1 SWAP3 AND PUSH1 0x20 SWAP3 DUP4 MUL SWAP2 SWAP1 SWAP2 ADD SWAP1 SWAP2 ADD MSTORE PUSH1 0x29 PUSH1 0xF9 SHL DUP9 DUP9 PUSH2 0x6C6 DUP2 PUSH2 0x12DD JUMP JUMPDEST SWAP10 POP DUP2 MLOAD DUP2 LT PUSH2 0x6D8 JUMPI PUSH2 0x6D8 PUSH2 0x129E JUMP JUMPDEST PUSH1 0x1 PUSH1 0x1 PUSH1 0xF8 SHL SUB NOT SWAP1 SWAP3 AND PUSH1 0x20 SWAP3 DUP4 MUL SWAP2 SWAP1 SWAP2 ADD SWAP1 SWAP2 ADD MSTORE DUP7 PUSH2 0x6FD DUP10 DUP3 DUP10 PUSH2 0xE53 JUMP JUMPDEST SWAP1 SWAP10 POP SWAP8 POP PUSH2 0x70D DUP10 DUP10 DUP9 PUSH2 0xE53 JUMP JUMPDEST SWAP1 SWAP10 POP SWAP8 POP PUSH1 0x1 PUSH1 0xFB SHL DUP10 DUP10 PUSH2 0x722 DUP2 PUSH2 0x12DD JUMP JUMPDEST SWAP11 POP DUP2 MLOAD DUP2 LT PUSH2 0x734 JUMPI PUSH2 0x734 PUSH2 0x129E JUMP JUMPDEST PUSH1 0x1 PUSH1 0x1 PUSH1 0xF8 SHL SUB NOT SWAP1 SWAP3 AND PUSH1 0x20 SWAP3 DUP4 MUL SWAP2 SWAP1 SWAP2 ADD SWAP1 SWAP2 ADD MSTORE PUSH1 0x1 PUSH1 0xF9 SHL DUP10 DUP10 PUSH2 0x75D DUP2 PUSH2 0x12DD JUMP JUMPDEST SWAP11 POP DUP2 MLOAD DUP2 LT PUSH2 0x76F JUMPI PUSH2 0x76F PUSH2 0x129E JUMP JUMPDEST PUSH1 0x1 PUSH1 0x1 PUSH1 0xF8 SHL SUB NOT SWAP1 SWAP3 AND PUSH1 0x20 SWAP3 DUP4 MUL SWAP2 SWAP1 SWAP2 ADD SWAP1 SWAP2 ADD MSTORE PUSH1 0x0 DUP10 DUP10 PUSH2 0x795 DUP2 PUSH2 0x12DD JUMP JUMPDEST SWAP11 POP DUP2 MLOAD DUP2 LT PUSH2 0x7A7 JUMPI PUSH2 0x7A7 PUSH2 0x129E JUMP JUMPDEST PUSH1 0x1 PUSH1 0x1 PUSH1 0xF8 SHL SUB NOT SWAP1 SWAP3 AND PUSH1 0x20 SWAP3 DUP4 MUL SWAP2 SWAP1 SWAP2 ADD SWAP1 SWAP2 ADD MSTORE PUSH1 0x0 DUP10 DUP10 PUSH2 0x7CD DUP2 PUSH2 0x12DD JUMP JUMPDEST SWAP11 POP DUP2 MLOAD DUP2 LT PUSH2 0x7DF JUMPI PUSH2 0x7DF PUSH2 0x129E JUMP JUMPDEST PUSH1 0x1 PUSH1 0x1 PUSH1 0xF8 SHL SUB NOT SWAP1 SWAP3 AND PUSH1 0x20 SWAP3 DUP4 MUL SWAP2 SWAP1 SWAP2 ADD SWAP1 SWAP2 ADD MSTORE PUSH1 0x0 DUP10 DUP10 PUSH2 0x805 DUP2 PUSH2 0x12DD JUMP JUMPDEST SWAP11 POP DUP2 MLOAD DUP2 LT PUSH2 0x817 JUMPI PUSH2 0x817 PUSH2 0x129E JUMP JUMPDEST PUSH1 0x1 PUSH1 0x1 PUSH1 0xF8 SHL SUB NOT SWAP1 SWAP3 AND PUSH1 0x20 SWAP3 DUP4 MUL SWAP2 SWAP1 SWAP2 ADD SWAP1 SWAP2 ADD MSTORE DUP8 DUP1 PUSH2 0x83E DUP12 DUP3 DUP7 DUP2 PUSH2 0xF54 JUMP JUMPDEST SWAP1 SWAP12 POP SWAP10 POP PUSH2 0x857 DUP12 DUP7 PUSH2 0x852 DUP7 DUP7 PUSH2 0x1389 JUMP JUMPDEST PUSH2 0xE53 JUMP JUMPDEST POP SWAP12 SWAP10 SWAP11 POP POP POP POP POP POP POP POP POP POP JUMP JUMPDEST PUSH1 0x60 PUSH1 0x0 DUP3 PUSH2 0x877 PUSH1 0x4 DUP3 PUSH2 0x12CA JUMP JUMPDEST SWAP4 POP DUP4 PUSH1 0x49 PUSH1 0xF8 SHL DUP7 DUP3 PUSH2 0x88A DUP2 PUSH2 0x12DD JUMP JUMPDEST SWAP8 POP DUP2 MLOAD DUP2 LT PUSH2 0x89C JUMPI PUSH2 0x89C PUSH2 0x129E JUMP JUMPDEST PUSH1 0x1 PUSH1 0x1 PUSH1 0xF8 SHL SUB NOT SWAP1 SWAP3 AND PUSH1 0x20 SWAP3 DUP4 MUL SWAP2 SWAP1 SWAP2 ADD SWAP1 SWAP2 ADD MSTORE PUSH1 0x11 PUSH1 0xFA SHL DUP7 DUP7 PUSH2 0x8C5 DUP2 PUSH2 0x12DD JUMP JUMPDEST SWAP8 POP DUP2 MLOAD DUP2 LT PUSH2 0x8D7 JUMPI PUSH2 0x8D7 PUSH2 0x129E JUMP JUMPDEST PUSH1 0x1 PUSH1 0x1 PUSH1 0xF8 SHL SUB NOT SWAP1 SWAP3 AND PUSH1 0x20 SWAP3 DUP4 MUL SWAP2 SWAP1 SWAP2 ADD SWAP1 SWAP2 ADD MSTORE PUSH1 0x41 PUSH1 0xF8 SHL DUP7 DUP7 PUSH2 0x900 DUP2 PUSH2 0x12DD JUMP JUMPDEST SWAP8 POP DUP2 MLOAD DUP2 LT PUSH2 0x912 JUMPI PUSH2 0x912 PUSH2 0x129E JUMP JUMPDEST PUSH1 0x1 PUSH1 0x1 PUSH1 0xF8 SHL SUB NOT SWAP1 SWAP3 AND PUSH1 0x20 SWAP3 DUP4 MUL SWAP2 SWAP1 SWAP2 ADD SWAP1 SWAP2 ADD MSTORE PUSH1 0x15 PUSH1 0xFA SHL DUP7 DUP7 PUSH2 0x93B DUP2 PUSH2 0x12DD JUMP JUMPDEST SWAP8 POP DUP2 MLOAD DUP2 LT PUSH2 0x94D JUMPI PUSH2 0x94D PUSH2 0x129E JUMP JUMPDEST PUSH1 0x1 PUSH1 0x1 PUSH1 0xF8 SHL SUB NOT SWAP1 SWAP3 AND PUSH1 0x20 SWAP3 DUP4 MUL SWAP2 SWAP1 SWAP2 ADD SWAP1 SWAP2 ADD MSTORE DUP5 PUSH1 0xF PUSH1 0xFB SHL DUP8 DUP3 PUSH2 0x977 DUP2 PUSH2 0x12DD JUMP JUMPDEST SWAP9 POP DUP2 MLOAD DUP2 LT PUSH2 0x989 JUMPI PUSH2 0x989 PUSH2 0x129E JUMP JUMPDEST PUSH1 0x1 PUSH1 0x1 PUSH1 0xF8 SHL SUB NOT SWAP1 SWAP3 AND PUSH1 0x20 SWAP3 DUP4 MUL SWAP2 SWAP1 SWAP2 ADD SWAP1 SWAP2 ADD MSTORE PUSH1 0x1 PUSH1 0xF8 SHL DUP8 DUP8 PUSH2 0x9B2 DUP2 PUSH2 0x12DD JUMP JUMPDEST SWAP9 POP DUP2 MLOAD DUP2 LT PUSH2 0x9C4 JUMPI PUSH2 0x9C4 PUSH2 0x129E JUMP JUMPDEST PUSH1 0x1 PUSH1 0x1 PUSH1 0xF8 SHL SUB NOT SWAP1 SWAP3 AND PUSH1 0x20 SWAP3 DUP4 MUL SWAP2 SWAP1 SWAP2 ADD SWAP1 SWAP2 ADD MSTORE PUSH1 0x1 PUSH1 0xF8 SHL DUP8 DUP8 PUSH2 0x9ED DUP2 PUSH2 0x12DD JUMP JUMPDEST SWAP9 POP DUP2 MLOAD DUP2 LT PUSH2 0x9FF JUMPI PUSH2 0x9FF PUSH2 0x129E JUMP JUMPDEST PUSH1 0x1 PUSH1 0x1 PUSH1 0xF8 SHL SUB NOT SWAP1 SWAP3 AND PUSH1 0x20 SWAP3 DUP4 MUL SWAP2 SWAP1 SWAP2 ADD SWAP1 SWAP2 ADD MSTORE DUP6 PUSH2 0xA24 PUSH1 0x4 DUP3 PUSH2 0x12CA JUMP JUMPDEST SWAP7 POP DUP7 DUP1 PUSH1 0x0 DUP11 DUP3 PUSH2 0xA35 DUP2 PUSH2 0x12DD JUMP JUMPDEST SWAP12 POP DUP2 MLOAD DUP2 LT PUSH2 0xA47 JUMPI PUSH2 0xA47 PUSH2 0x129E JUMP JUMPDEST PUSH1 0x1 PUSH1 0x1 PUSH1 0xF8 SHL SUB NOT SWAP3 DUP4 AND PUSH1 0x20 SWAP2 DUP3 MUL SWAP3 SWAP1 SWAP3 ADD ADD MSTORE DUP11 DUP11 PUSH2 0xA69 DUP2 PUSH2 0x12DD JUMP JUMPDEST SWAP12 POP DUP2 MLOAD DUP2 LT PUSH2 0xA7B JUMPI PUSH2 0xA7B PUSH2 0x129E JUMP JUMPDEST PUSH1 0x1 PUSH1 0x1 PUSH1 0xF8 SHL SUB NOT SWAP1 SWAP3 AND PUSH1 0x20 SWAP3 DUP4 MUL SWAP2 SWAP1 SWAP2 ADD SWAP1 SWAP2 ADD MSTORE PUSH1 0x0 DUP11 DUP11 PUSH2 0xAA1 DUP2 PUSH2 0x12DD JUMP JUMPDEST SWAP12 POP DUP2 MLOAD DUP2 LT PUSH2 0xAB3 JUMPI PUSH2 0xAB3 PUSH2 0x129E JUMP JUMPDEST PUSH1 0x1 PUSH1 0x1 PUSH1 0xF8 SHL SUB NOT SWAP1 SWAP3 AND PUSH1 0x20 SWAP3 DUP4 MUL SWAP2 SWAP1 SWAP2 ADD SWAP1 SWAP2 ADD MSTORE PUSH1 0x0 DUP11 DUP11 PUSH2 0xAD9 DUP2 PUSH2 0x12DD JUMP JUMPDEST SWAP12 POP DUP2 MLOAD DUP2 LT PUSH2 0xAEB JUMPI PUSH2 0xAEB PUSH2 0x129E JUMP JUMPDEST PUSH1 0x1 PUSH1 0x1 PUSH1 0xF8 SHL SUB NOT SWAP1 SWAP3 AND PUSH1 0x20 SWAP3 DUP4 MUL SWAP2 SWAP1 SWAP2 ADD SWAP1 SWAP2 ADD MSTORE PUSH1 0x0 DUP11 DUP11 PUSH2 0xB11 DUP2 PUSH2 0x12DD JUMP JUMPDEST SWAP12 POP DUP2 MLOAD DUP2 LT PUSH2 0xB23 JUMPI PUSH2 0xB23 PUSH2 0x129E JUMP JUMPDEST PUSH1 0x1 PUSH1 0x1 PUSH1 0xF8 SHL SUB NOT SWAP3 DUP4 AND PUSH1 0x20 SWAP2 DUP3 MUL SWAP3 SWAP1 SWAP3 ADD ADD MSTORE DUP11 DUP11 PUSH2 0xB45 DUP2 PUSH2 0x12DD JUMP JUMPDEST SWAP12 POP DUP2 MLOAD DUP2 LT PUSH2 0xB57 JUMPI PUSH2 0xB57 PUSH2 0x129E JUMP JUMPDEST PUSH1 0x1 PUSH1 0x1 PUSH1 0xF8 SHL SUB NOT SWAP1 SWAP3 AND PUSH1 0x20 SWAP3 DUP4 MUL SWAP2 SWAP1 SWAP2 ADD SWAP1 SWAP2 ADD MSTORE PUSH1 0x0 DUP11 DUP11 PUSH2 0xB7D DUP2 PUSH2 0x12DD JUMP JUMPDEST SWAP12 POP DUP2 MLOAD DUP2 LT PUSH2 0xB8F JUMPI PUSH2 0xB8F PUSH2 0x129E JUMP JUMPDEST PUSH1 0x1 PUSH1 0x1 PUSH1 0xF8 SHL SUB NOT SWAP1 SWAP3 AND PUSH1 0x20 SWAP3 DUP4 MUL SWAP2 SWAP1 SWAP2 ADD SWAP1 SWAP2 ADD MSTORE PUSH1 0x0 DUP11 DUP11 PUSH2 0xBB5 DUP2 PUSH2 0x12DD JUMP JUMPDEST SWAP12 POP DUP2 MLOAD DUP2 LT PUSH2 0xBC7 JUMPI PUSH2 0xBC7 PUSH2 0x129E JUMP JUMPDEST PUSH1 0x1 PUSH1 0x1 PUSH1 0xF8 SHL SUB NOT SWAP1 SWAP3 AND PUSH1 0x20 SWAP3 DUP4 MUL SWAP2 SWAP1 SWAP2 ADD SWAP1 SWAP2 ADD MSTORE PUSH1 0x0 DUP11 DUP11 PUSH2 0xBED DUP2 PUSH2 0x12DD JUMP JUMPDEST SWAP12 POP DUP2 MLOAD DUP2 LT PUSH2 0xBFF JUMPI PUSH2 0xBFF PUSH2 0x129E JUMP JUMPDEST PUSH1 0x1 PUSH1 0x1 PUSH1 0xF8 SHL SUB NOT SWAP3 DUP4 AND PUSH1 0x20 SWAP2 DUP3 MUL SWAP3 SWAP1 SWAP3 ADD ADD MSTORE DUP11 DUP11 PUSH2 0xC21 DUP2 PUSH2 0x12DD JUMP JUMPDEST SWAP12 POP DUP2 MLOAD DUP2 LT PUSH2 0xC33 JUMPI PUSH2 0xC33 PUSH2 0x129E JUMP JUMPDEST PUSH1 0x1 PUSH1 0x1 PUSH1 0xF8 SHL SUB NOT SWAP1 SWAP3 AND PUSH1 0x20 SWAP3 DUP4 MUL SWAP2 SWAP1 SWAP2 ADD SWAP1 SWAP2 ADD MSTORE DUP9 DUP1 PUSH2 0xC5A DUP13 DUP3 DUP7 DUP2 PUSH2 0x1045 JUMP JUMPDEST SWAP1 SWAP13 POP SWAP11 POP DUP11 DUP1 PUSH2 0xC6D DUP15 DUP3 DUP12 DUP2 PUSH2 0xF54 JUMP JUMPDEST SWAP1 SWAP15 POP SWAP13 POP PUSH2 0xC81 DUP15 DUP12 PUSH2 0x852 DUP12 DUP7 PUSH2 0x1389 JUMP JUMPDEST SWAP1 SWAP15 POP SWAP10 POP PUSH2 0xC9A DUP15 DUP9 PUSH2 0xC95 DUP9 DUP8 PUSH2 0x1389 JUMP JUMPDEST PUSH2 0x1118 JUMP JUMPDEST SWAP1 SWAP15 POP SWAP7 POP PUSH2 0xCBA DUP15 DUP9 PUSH2 0xCAE DUP9 DUP8 PUSH2 0x1389 JUMP JUMPDEST PUSH2 0xC95 SWAP1 PUSH2 0xFFFF PUSH2 0x1389 JUMP JUMPDEST POP SWAP15 SWAP13 SWAP14 POP POP POP POP POP POP POP POP POP POP POP POP POP JUMP JUMPDEST PUSH1 0x60 PUSH1 0x0 PUSH2 0xCDD DUP5 DUP5 PUSH1 0x0 PUSH2 0xE53 JUMP JUMPDEST SWAP1 SWAP5 POP SWAP3 POP DUP3 PUSH1 0x49 PUSH1 0xF8 SHL DUP6 DUP3 PUSH2 0xCF3 DUP2 PUSH2 0x12DD JUMP JUMPDEST SWAP7 POP DUP2 MLOAD DUP2 LT PUSH2 0xD05 JUMPI PUSH2 0xD05 PUSH2 0x129E JUMP JUMPDEST PUSH1 0x1 PUSH1 0x1 PUSH1 0xF8 SHL SUB NOT SWAP1 SWAP3 AND PUSH1 0x20 SWAP3 DUP4 MUL SWAP2 SWAP1 SWAP2 ADD SWAP1 SWAP2 ADD MSTORE PUSH1 0x45 PUSH1 0xF8 SHL DUP6 DUP6 PUSH2 0xD2E DUP2 PUSH2 0x12DD JUMP JUMPDEST SWAP7 POP DUP2 MLOAD DUP2 LT PUSH2 0xD40 JUMPI PUSH2 0xD40 PUSH2 0x129E JUMP JUMPDEST PUSH1 0x1 PUSH1 0x1 PUSH1 0xF8 SHL SUB NOT SWAP1 SWAP3 AND PUSH1 0x20 SWAP3 DUP4 MUL SWAP2 SWAP1 SWAP2 ADD SWAP1 SWAP2 ADD MSTORE PUSH1 0x27 PUSH1 0xF9 SHL DUP6 DUP6 PUSH2 0xD69 DUP2 PUSH2 0x12DD JUMP JUMPDEST SWAP7 POP DUP2 MLOAD DUP2 LT PUSH2 0xD7B JUMPI PUSH2 0xD7B PUSH2 0x129E JUMP JUMPDEST PUSH1 0x1 PUSH1 0x1 PUSH1 0xF8 SHL SUB NOT SWAP1 SWAP3 AND PUSH1 0x20 SWAP3 DUP4 MUL SWAP2 SWAP1 SWAP2 ADD SWAP1 SWAP2 ADD MSTORE PUSH1 0x11 PUSH1 0xFA SHL DUP6 DUP6 PUSH2 0xDA4 DUP2 PUSH2 0x12DD JUMP JUMPDEST SWAP7 POP DUP2 MLOAD DUP2 LT PUSH2 0xDB6 JUMPI PUSH2 0xDB6 PUSH2 0x129E JUMP JUMPDEST PUSH1 0x1 PUSH1 0x1 PUSH1 0xF8 SHL SUB NOT SWAP1 SWAP3 AND PUSH1 0x20 SWAP3 DUP4 MUL SWAP2 SWAP1 SWAP2 ADD SWAP1 SWAP2 ADD MSTORE DUP4 PUSH2 0xDDC DUP7 DUP3 DUP5 DUP2 PUSH2 0xF54 JUMP JUMPDEST SWAP1 SWAP8 SWAP1 SWAP7 POP SWAP5 POP POP POP POP POP JUMP JUMPDEST PUSH1 0x0 DUP4 DUP2 JUMPDEST DUP4 DUP2 LT ISZERO PUSH2 0xE4A JUMPI PUSH1 0x8 DUP3 SWAP1 SHR PUSH1 0x0 DUP7 DUP4 DUP2 MLOAD DUP2 LT PUSH2 0xE0F JUMPI PUSH2 0xE0F PUSH2 0x129E JUMP JUMPDEST PUSH1 0x20 MUL PUSH1 0x20 ADD ADD MLOAD PUSH1 0xF8 SHR PUSH1 0xFF AND DUP5 XOR PUSH1 0xFF AND PUSH2 0x100 DUP2 LT PUSH2 0xE33 JUMPI PUSH2 0xE33 PUSH2 0x129E JUMP JUMPDEST ADD SLOAD XOR SWAP2 POP DUP1 PUSH2 0xE42 DUP2 PUSH2 0x12DD JUMP JUMPDEST SWAP2 POP POP PUSH2 0xDEE JUMP JUMPDEST POP SWAP5 SWAP4 POP POP POP POP JUMP JUMPDEST PUSH1 0x60 PUSH1 0x0 PUSH1 0x1 PUSH1 0x1 PUSH1 0xF8 SHL SUB NOT PUSH1 0xE0 DUP5 SWAP1 SHL AND DUP6 DUP6 PUSH2 0xE71 DUP2 PUSH2 0x12DD JUMP JUMPDEST SWAP7 POP DUP2 MLOAD DUP2 LT PUSH2 0xE83 JUMPI PUSH2 0xE83 PUSH2 0x129E JUMP JUMPDEST PUSH1 0x1 PUSH1 0x1 PUSH1 0xF8 SHL SUB NOT SWAP3 DUP4 AND PUSH1 0x20 SWAP2 DUP3 MUL SWAP3 SWAP1 SWAP3 ADD ADD MSTORE PUSH1 0xE8 DUP5 SWAP1 SHL AND DUP6 DUP6 PUSH2 0xEAB DUP2 PUSH2 0x12DD JUMP JUMPDEST SWAP7 POP DUP2 MLOAD DUP2 LT PUSH2 0xEBD JUMPI PUSH2 0xEBD PUSH2 0x129E JUMP JUMPDEST PUSH1 0x1 PUSH1 0x1 PUSH1 0xF8 SHL SUB NOT SWAP3 DUP4 AND PUSH1 0x20 SWAP2 DUP3 MUL SWAP3 SWAP1 SWAP3 ADD ADD MSTORE PUSH1 0xF0 DUP5 SWAP1 SHL AND DUP6 DUP6 PUSH2 0xEE5 DUP2 PUSH2 0x12DD JUMP JUMPDEST SWAP7 POP DUP2 MLOAD DUP2 LT PUSH2 0xEF7 JUMPI PUSH2 0xEF7 PUSH2 0x129E JUMP JUMPDEST PUSH1 0x1 PUSH1 0x1 PUSH1 0xF8 SHL SUB NOT SWAP3 DUP4 AND PUSH1 0x20 SWAP2 DUP3 MUL SWAP3 SWAP1 SWAP3 ADD ADD MSTORE PUSH1 0xF8 DUP5 SWAP1 SHL AND DUP6 DUP6 PUSH2 0xF1F DUP2 PUSH2 0x12DD JUMP JUMPDEST SWAP7 POP DUP2 MLOAD DUP2 LT PUSH2 0xF31 JUMPI PUSH2 0xF31 PUSH2 0x129E JUMP JUMPDEST PUSH1 0x1 PUSH1 0x1 PUSH1 0xF8 SHL SUB NOT SWAP3 SWAP1 SWAP3 AND PUSH1 0x20 SWAP3 DUP4 MUL SWAP2 SWAP1 SWAP2 ADD SWAP1 SWAP2 ADD MSTORE POP SWAP3 SWAP4 SWAP2 SWAP3 POP POP JUMP JUMPDEST PUSH1 0x60 PUSH1 0x0 DUP1 PUSH2 0xF63 DUP6 DUP6 PUSH2 0x1389 JUMP JUMPDEST SWAP1 POP PUSH1 0x0 DUP1 DUP3 PUSH8 0xFFFFFFFFFFFFFFFF DUP2 GT ISZERO PUSH2 0xF81 JUMPI PUSH2 0xF81 PUSH2 0x1136 JUMP JUMPDEST PUSH1 0x40 MLOAD SWAP1 DUP1 DUP3 MSTORE DUP1 PUSH1 0x20 MUL PUSH1 0x20 ADD DUP3 ADD PUSH1 0x40 MSTORE DUP1 ISZERO PUSH2 0xFAA JUMPI DUP2 PUSH1 0x20 ADD PUSH1 0x20 DUP3 MUL DUP1 CALLDATASIZE DUP4 CALLDATACOPY ADD SWAP1 POP JUMPDEST POP SWAP1 POP DUP7 JUMPDEST DUP7 DUP2 LT ISZERO PUSH2 0x101A JUMPI DUP10 DUP2 DUP2 MLOAD DUP2 LT PUSH2 0xFC9 JUMPI PUSH2 0xFC9 PUSH2 0x129E JUMP JUMPDEST PUSH1 0x20 MUL PUSH1 0x20 ADD ADD MLOAD DUP3 DUP5 DUP1 PUSH2 0xFDD SWAP1 PUSH2 0x12DD JUMP JUMPDEST SWAP6 POP DUP2 MLOAD DUP2 LT PUSH2 0xFEF JUMPI PUSH2 0xFEF PUSH2 0x129E JUMP JUMPDEST PUSH1 0x1 PUSH1 0x1 PUSH1 0xF8 SHL SUB NOT SWAP1 SWAP3 AND PUSH1 0x20 SWAP3 DUP4 MUL SWAP2 SWAP1 SWAP2 ADD SWAP1 SWAP2 ADD MSTORE DUP1 PUSH2 0x1012 DUP2 PUSH2 0x12DD JUMP JUMPDEST SWAP2 POP POP PUSH2 0xFAF JUMP JUMPDEST POP PUSH1 0x0 PUSH2 0x1027 DUP3 DUP6 PUSH2 0x29C JUMP JUMPDEST SWAP1 POP PUSH2 0x1034 DUP11 DUP11 DUP4 PUSH2 0xE53 JUMP JUMPDEST SWAP1 SWAP12 SWAP1 SWAP11 POP SWAP9 POP POP POP POP POP POP POP POP POP JUMP JUMPDEST PUSH1 0x60 PUSH1 0x0 DUP1 PUSH2 0x1054 DUP6 DUP6 PUSH2 0x1389 JUMP JUMPDEST SWAP1 POP PUSH1 0x0 DUP1 DUP3 PUSH8 0xFFFFFFFFFFFFFFFF DUP2 GT ISZERO PUSH2 0x1072 JUMPI PUSH2 0x1072 PUSH2 0x1136 JUMP JUMPDEST PUSH1 0x40 MLOAD SWAP1 DUP1 DUP3 MSTORE DUP1 PUSH1 0x20 MUL PUSH1 0x20 ADD DUP3 ADD PUSH1 0x40 MSTORE DUP1 ISZERO PUSH2 0x109B JUMPI DUP2 PUSH1 0x20 ADD PUSH1 0x20 DUP3 MUL DUP1 CALLDATASIZE DUP4 CALLDATACOPY ADD SWAP1 POP JUMPDEST POP SWAP1 POP DUP7 JUMPDEST DUP7 DUP2 LT ISZERO PUSH2 0x110B JUMPI DUP10 DUP2 DUP2 MLOAD DUP2 LT PUSH2 0x10BA JUMPI PUSH2 0x10BA PUSH2 0x129E JUMP JUMPDEST PUSH1 0x20 MUL PUSH1 0x20 ADD ADD MLOAD DUP3 DUP5 DUP1 PUSH2 0x10CE SWAP1 PUSH2 0x12DD JUMP JUMPDEST SWAP6 POP DUP2 MLOAD DUP2 LT PUSH2 0x10E0 JUMPI PUSH2 0x10E0 PUSH2 0x129E JUMP JUMPDEST PUSH1 0x1 PUSH1 0x1 PUSH1 0xF8 SHL SUB NOT SWAP1 SWAP3 AND PUSH1 0x20 SWAP3 DUP4 MUL SWAP2 SWAP1 SWAP2 ADD SWAP1 SWAP2 ADD MSTORE DUP1 PUSH2 0x1103 DUP2 PUSH2 0x12DD JUMP JUMPDEST SWAP2 POP POP PUSH2 0x10A0 JUMP JUMPDEST POP PUSH1 0x0 PUSH2 0x1027 DUP3 DUP6 PUSH2 0xA7 JUMP JUMPDEST PUSH1 0x60 PUSH1 0x0 PUSH1 0x1 PUSH1 0x1 PUSH1 0xF8 SHL SUB NOT PUSH1 0xF0 DUP5 SWAP1 SHL AND DUP6 DUP6 PUSH2 0xEE5 DUP2 PUSH2 0x12DD JUMP JUMPDEST PUSH4 0x4E487B71 PUSH1 0xE0 SHL PUSH1 0x0 MSTORE PUSH1 0x41 PUSH1 0x4 MSTORE PUSH1 0x24 PUSH1 0x0 REVERT JUMPDEST DUP1 CALLDATALOAD PUSH1 0x1 PUSH1 0x1 PUSH1 0xF8 SHL SUB NOT DUP2 AND DUP2 EQ PUSH2 0x1164 JUMPI PUSH1 0x0 DUP1 REVERT JUMPDEST SWAP2 SWAP1 POP JUMP JUMPDEST PUSH1 0x0 DUP1 PUSH1 0x40 DUP4 DUP6 SUB SLT ISZERO PUSH2 0x117C JUMPI PUSH1 0x0 DUP1 REVERT JUMPDEST DUP3 CALLDATALOAD PUSH8 0xFFFFFFFFFFFFFFFF DUP1 DUP3 GT ISZERO PUSH2 0x1194 JUMPI PUSH1 0x0 DUP1 REVERT JUMPDEST DUP2 DUP6 ADD SWAP2 POP DUP6 PUSH1 0x1F DUP4 ADD SLT PUSH2 0x11A8 JUMPI PUSH1 0x0 DUP1 REVERT JUMPDEST DUP2 CALLDATALOAD PUSH1 0x20 DUP3 DUP3 GT ISZERO PUSH2 0x11BC JUMPI PUSH2 0x11BC PUSH2 0x1136 JUMP JUMPDEST DUP2 PUSH1 0x5 SHL PUSH1 0x40 MLOAD PUSH1 0x1F NOT PUSH1 0x3F DUP4 ADD AND DUP2 ADD DUP2 DUP2 LT DUP7 DUP3 GT OR ISZERO PUSH2 0x11E1 JUMPI PUSH2 0x11E1 PUSH2 0x1136 JUMP JUMPDEST PUSH1 0x40 MSTORE SWAP3 DUP4 MSTORE DUP2 DUP4 ADD SWAP4 POP DUP5 DUP2 ADD DUP3 ADD SWAP3 DUP10 DUP5 GT ISZERO PUSH2 0x11FF JUMPI PUSH1 0x0 DUP1 REVERT JUMPDEST SWAP5 DUP3 ADD SWAP5 JUMPDEST DUP4 DUP7 LT ISZERO PUSH2 0x1224 JUMPI PUSH2 0x1215 DUP7 PUSH2 0x114C JUMP JUMPDEST DUP6 MSTORE SWAP5 DUP3 ADD SWAP5 SWAP4 DUP3 ADD SWAP4 PUSH2 0x1204 JUMP JUMPDEST SWAP10 SWAP8 SWAP1 SWAP2 ADD CALLDATALOAD SWAP8 POP POP POP POP POP POP POP JUMP JUMPDEST PUSH1 0x0 JUMPDEST DUP4 DUP2 LT ISZERO PUSH2 0x124F JUMPI DUP2 DUP2 ADD MLOAD DUP4 DUP3 ADD MSTORE PUSH1 0x20 ADD PUSH2 0x1237 JUMP JUMPDEST POP POP PUSH1 0x0 SWAP2 ADD MSTORE JUMP JUMPDEST PUSH1 0x0 DUP2 MLOAD DUP1 DUP5 MSTORE PUSH2 0x1270 DUP2 PUSH1 0x20 DUP7 ADD PUSH1 0x20 DUP7 ADD PUSH2 0x1234 JUMP JUMPDEST PUSH1 0x1F ADD PUSH1 0x1F NOT AND SWAP3 SWAP1 SWAP3 ADD PUSH1 0x20 ADD SWAP3 SWAP2 POP POP JUMP JUMPDEST PUSH1 0x20 DUP2 MSTORE PUSH1 0x0 PUSH2 0x1297 PUSH1 0x20 DUP4 ADD DUP5 PUSH2 0x1258 JUMP JUMPDEST SWAP4 SWAP3 POP POP POP JUMP JUMPDEST PUSH4 0x4E487B71 PUSH1 0xE0 SHL PUSH1 0x0 MSTORE PUSH1 0x32 PUSH1 0x4 MSTORE PUSH1 0x24 PUSH1 0x0 REVERT JUMPDEST PUSH4 0x4E487B71 PUSH1 0xE0 SHL PUSH1 0x0 MSTORE PUSH1 0x11 PUSH1 0x4 MSTORE PUSH1 0x24 PUSH1 0x0 REVERT JUMPDEST DUP1 DUP3 ADD DUP1 DUP3 GT ISZERO PUSH2 0x11F JUMPI PUSH2 0x11F PUSH2 0x12B4 JUMP JUMPDEST PUSH1 0x0 PUSH1 0x1 DUP3 ADD PUSH2 0x12EF JUMPI PUSH2 0x12EF PUSH2 0x12B4 JUMP JUMPDEST POP PUSH1 0x1 ADD SWAP1 JUMP JUMPDEST DUP1 DUP3 MUL DUP2 ISZERO DUP3 DUP3 DIV DUP5 EQ OR PUSH2 0x11F JUMPI PUSH2 0x11F PUSH2 0x12B4 JUMP JUMPDEST PUSH1 0x0 DUP3 MLOAD PUSH2 0x131F DUP2 DUP5 PUSH1 0x20 DUP8 ADD PUSH2 0x1234 JUMP JUMPDEST SWAP2 SWAP1 SWAP2 ADD SWAP3 SWAP2 POP POP JUMP JUMPDEST PUSH22 0x19185D184E9A5B5859D94BDC1B99CED8985CD94D8D0B PUSH1 0x52 SHL DUP2 MSTORE PUSH1 0x0 DUP3 MLOAD PUSH2 0x135A DUP2 PUSH1 0x16 DUP6 ADD PUSH1 0x20 DUP8 ADD PUSH2 0x1234 JUMP JUMPDEST SWAP2 SWAP1 SWAP2 ADD PUSH1 0x16 ADD SWAP3 SWAP2 POP POP JUMP JUMPDEST PUSH1 0x0 DUP3 PUSH2 0x1384 JUMPI PUSH4 0x4E487B71 PUSH1 0xE0 SHL PUSH1 0x0 MSTORE PUSH1 0x12 PUSH1 0x4 MSTORE PUSH1 0x24 PUSH1 0x0 REVERT JUMPDEST POP DIV SWAP1 JUMP JUMPDEST DUP2 DUP2 SUB DUP2 DUP2 GT ISZERO PUSH2 0x11F JUMPI PUSH2 0x11F PUSH2 0x12B4 JUMP INVALID COINBASE TIMESTAMP NUMBER PREVRANDAO GASLIMIT CHAINID SELFBALANCE BASEFEE 0x49 0x4A 0x4B 0x4C 0x4D 0x4E 0x4F POP MLOAD MSTORE MSTORE8 SLOAD SSTORE JUMP JUMPI PC MSIZE GAS PUSH2 0x6263 PUSH5 0x6566676869 PUSH11 0x6B6C6D6E6F707172737475 PUSH23 0x7778797A303132333435363738392B2FA2646970667358 0x22 SLT KECCAK256 0xBC 0xFB DUP4 MLOAD LOG3 SGT PUSH2 0xC792 0xD2 ADDRESS GASPRICE 0xB6 PUSH28 0xC20B192BA81036EA10FB42B078B3BDD0FD8264736F6C634300081200 CALLER "
		},
		"gasEstimates": {
			"creation": {
				"codeDepositCost": "1027600",
				"executionCost": "infinite",
				"totalCost": "infinite"
			},
			"external": {
				"adler32(bytes1[],uint256)": "infinite",
				"crc(bytes1[],uint256)": "infinite",
				"createPNG()": "infinite",
				"createPNGString()": "infinite"
			},
			"internal": {
				"add2ByteValue(bytes1[] memory,uint256,uint256)": "infinite",
				"add4ByteValue(bytes1[] memory,uint256,uint256)": "infinite",
				"addADLER32(bytes1[] memory,uint256,uint256,uint256)": "infinite",
				"addCRC(bytes1[] memory,uint256,uint256,uint256)": "infinite",
				"addIDATChunck(bytes1[] memory,uint256)": "infinite",
				"addIENDChunck(bytes1[] memory,uint256)": "infinite",
				"addIHDRChunck(bytes1[] memory,uint256,uint256,uint256)": "infinite",
				"addPNGSignature(bytes1[] memory,uint256)": "infinite",
				"createCRCTable()": "infinite",
				"update_crc(uint256,bytes1[] memory,uint256)": "infinite"
			}
		},
		"methodIdentifiers": {
			"adler32(bytes1[],uint256)": "19858b36",
			"crc(bytes1[],uint256)": "fe2a3649",
			"createPNG()": "d0c8331c",
			"createPNGString()": "48b508b7"
		}
	},
	"abi": [
		{
			"inputs": [],
			"stateMutability": "payable",
			"type": "constructor"
		},
		{
			"inputs": [
				{
					"internalType": "bytes1[]",
					"name": "_buf",
					"type": "bytes1[]"
				},
				{
					"internalType": "uint256",
					"name": "_len",
					"type": "uint256"
				}
			],
			"name": "adler32",
			"outputs": [
				{
					"internalType": "uint256",
					"name": "",
					"type": "uint256"
				}
			],
			"stateMutability": "pure",
			"type": "function"
		},
		{
			"inputs": [
				{
					"internalType": "bytes1[]",
					"name": "_buf",
					"type": "bytes1[]"
				},
				{
					"internalType": "uint256",
					"name": "_len",
					"type": "uint256"
				}
			],
			"name": "crc",
			"outputs": [
				{
					"internalType": "uint256",
					"name": "",
					"type": "uint256"
				}
			],
			"stateMutability": "view",
			"type": "function"
		},
		{
			"inputs": [],
			"name": "createPNG",
			"outputs": [
				{
					"internalType": "bytes",
					"name": "",
					"type": "bytes"
				}
			],
			"stateMutability": "view",
			"type": "function"
		},
		{
			"inputs": [],
			"name": "createPNGString",
			"outputs": [
				{
					"internalType": "string",
					"name": "",
					"type": "string"
				}
			],
			"stateMutability": "view",
			"type": "function"
		}
	]
}