{
	"data": {
		"bytecode": {
			"linkReferences": {},
			"object": "60806040526200000e62000014565b620000de565b60005b6101008110156200009d578060005b60088110156200006c57816001166001036200004f57600182901c63edb8832018915062000057565b600182901c91505b806200006381620000a0565b91505062000026565b50806000836101008110620000855762000085620000c8565b015550806200009481620000a0565b91505062000017565b50565b600060018201620000c157634e487b7160e01b600052601160045260246000fd5b5060010190565b634e487b7160e01b600052603260045260246000fd5b61127680620000ee6000396000f3fe608060405234801561001057600080fd5b506004361061002b5760003560e01c8063f6d57f9e14610030575b600080fd5b61004361003e3660046110a6565b610059565b6040516100509190611170565b60405180910390f35b60606000808461006a8760036111d4565b61007491906111d4565b61007f8660506111eb565b61008991906111eb565b67ffffffffffffffff8111156100a1576100a1610f9f565b6040519080825280602002602001820160405280156100ca578160200160208202803683370190505b5090506100d781836101bd565b925090506100e7818388886103a2565b925090506100f88183888888610617565b925090506101068183610a9a565b9250905060008267ffffffffffffffff81111561012557610125610f9f565b6040519080825280601f01601f19166020018201604052801561014f576020820181803683370190505b50905060005b838110156101b25782818151811061016f5761016f6111fe565b6020026020010151828281518110610189576101896111fe565b60200101906001600160f81b031916908160001a905350806101aa81611214565b915050610155565b509695505050505050565b60606000608960f81b84846101d181611214565b9550815181106101e3576101e36111fe565b6001600160f81b031990921660209283029190910190910152600560fc1b848461020c81611214565b95508151811061021e5761021e6111fe565b6001600160f81b031990921660209283029190910190910152602760f91b848461024781611214565b955081518110610259576102596111fe565b6001600160f81b031990921660209283029190910190910152604760f81b848461028281611214565b955081518110610294576102946111fe565b6001600160f81b031990921660209283029190910190910152600d60f81b84846102bd81611214565b9550815181106102cf576102cf6111fe565b6001600160f81b031990921660209283029190910190910152600560f91b84846102f881611214565b95508151811061030a5761030a6111fe565b6001600160f81b031990921660209283029190910190910152600d60f91b848461033381611214565b955081518110610345576103456111fe565b6001600160f81b031990921660209283029190910190910152600560f91b848461036e81611214565b955081518110610380576103806111fe565b6001600160f81b03199290921660209283029190910190910152509192909150565b60606000846103b26004826111eb565b955085604960f81b88826103c581611214565b9950815181106103d7576103d76111fe565b6001600160f81b031990921660209283029190910190910152600960fb1b888861040081611214565b995081518110610412576104126111fe565b6001600160f81b031990921660209283029190910190910152601160fa1b888861043b81611214565b99508151811061044d5761044d6111fe565b6001600160f81b031990921660209283029190910190910152602960f91b888861047681611214565b995081518110610488576104886111fe565b6001600160f81b031990921660209283029190910190910152866104ad898289610bb6565b90995097506104bd898988610bb6565b9099509750600160fb1b89896104d281611214565b9a50815181106104e4576104e46111fe565b6001600160f81b031990921660209283029190910190910152600160f91b898961050d81611214565b9a508151811061051f5761051f6111fe565b6001600160f81b0319909216602092830291909101909101526000898961054581611214565b9a5081518110610557576105576111fe565b6001600160f81b0319909216602092830291909101909101526000898961057d81611214565b9a508151811061058f5761058f6111fe565b6001600160f81b031990921660209283029190910190910152600089896105b581611214565b9a50815181106105c7576105c76111fe565b6001600160f81b03199092166020928302919091019091015287806105ee8b828681610cb7565b909b5099506106078b86610602868661122d565b610bb6565b509b999a50505050505050505050565b604080516101408101825260006020820181905291810182905260608181018390526080820183905260a0820183905260c0820183905260e082018390526101008201839052610120820183905286825291906106756004886111eb565b61010082018190529650604960f81b888861068f81611214565b9950815181106106a1576106a16111fe565b6001600160f81b031990921660209283029190910190910152601160fa1b88886106ca81611214565b9950815181106106dc576106dc6111fe565b6001600160f81b031990921660209283029190910190910152604160f81b888861070581611214565b995081518110610717576107176111fe565b6001600160f81b031990921660209283029190910190910152601560fa1b888861074081611214565b995081518110610752576107526111fe565b6001600160f81b03199092166020928302919091018201528101879052600f60fb1b888861077f81611214565b995081518110610791576107916111fe565b6001600160f81b031990921660209283029190910190910152600160f81b88886107ba81611214565b9950815181106107cc576107cc6111fe565b6001600160f81b031990921660209283029190910190910152600160f81b88886107f581611214565b995081518110610807576108076111fe565b6001600160f81b031990921660209283029190910190910152606081018790526108326004886111eb565b60c082018190526080820181905296506000805b868110156109c05760008a8a61085b81611214565b9b508151811061086d5761086d6111fe565b6001600160f81b03199092166020928302919091019091015260005b888110156109ad5786518051849081106108a5576108a56111fe565b60200260200101518b8b806108b990611214565b9c50815181106108cb576108cb6111fe565b6001600160f81b03199092166020928302919091018201528701518051849081106108f8576108f86111fe565b60200260200101518b8b8061090c90611214565b9c508151811061091e5761091e6111fe565b6001600160f81b031990921660209283029190910190910152604087015180518490811061094e5761094e6111fe565b60200260200101518b8b8061096290611214565b9c5081518110610974576109746111fe565b6001600160f81b0319909216602092830291909101909101528261099781611214565b93505080806109a590611214565b915050610889565b50806109b881611214565b915050610846565b5060e0820188905260a0820188905260c08201516109e2908a908a9081610da8565b604084018190526101208401819052610100840151919a509850610a0a908a908a9081610cb7565b835160208501516040860151939c50919a50610a2b928c926106029161122d565b83526060830151608084015160a0850151929b50610a54928c9291610a4f9161122d565b610e7b565b60608401819052608084015160a0850151929b50610a84928c9291610a789161122d565b610a4f9061ffff61122d565b6060939093019290925250979596505050505050565b60606000610aaa84846000610bb6565b909450925082604960f81b8582610ac081611214565b965081518110610ad257610ad26111fe565b6001600160f81b031990921660209283029190910190910152604560f81b8585610afb81611214565b965081518110610b0d57610b0d6111fe565b6001600160f81b031990921660209283029190910190910152602760f91b8585610b3681611214565b965081518110610b4857610b486111fe565b6001600160f81b031990921660209283029190910190910152601160fa1b8585610b7181611214565b965081518110610b8357610b836111fe565b6001600160f81b03199092166020928302919091019091015283610ba986828481610cb7565b9097909650945050505050565b606060006001600160f81b031960e084901b168585610bd481611214565b965081518110610be657610be66111fe565b6001600160f81b0319928316602091820292909201015260e884901b168585610c0e81611214565b965081518110610c2057610c206111fe565b6001600160f81b0319928316602091820292909201015260f084901b168585610c4881611214565b965081518110610c5a57610c5a6111fe565b6001600160f81b0319928316602091820292909201015260f884901b168585610c8281611214565b965081518110610c9457610c946111fe565b6001600160f81b0319929092166020928302919091019091015250929391925050565b6060600080610cc6858561122d565b90506000808267ffffffffffffffff811115610ce457610ce4610f9f565b604051908082528060200260200182016040528015610d0d578160200160208202803683370190505b509050865b86811015610d7d57898181518110610d2c57610d2c6111fe565b6020026020010151828480610d4090611214565b955081518110610d5257610d526111fe565b6001600160f81b03199092166020928302919091019091015280610d7581611214565b915050610d12565b506000610d8a8285610e99565b9050610d978a8a83610bb6565b909b909a5098505050505050505050565b6060600080610db7858561122d565b90506000808267ffffffffffffffff811115610dd557610dd5610f9f565b604051908082528060200260200182016040528015610dfe578160200160208202803683370190505b509050865b86811015610e6e57898181518110610e1d57610e1d6111fe565b6020026020010151828480610e3190611214565b955081518110610e4357610e436111fe565b6001600160f81b03199092166020928302919091019091015280610e6681611214565b915050610e03565b506000610d8a8285610eb9565b606060006001600160f81b031960f084901b168585610c4881611214565b6000610eaa63ffffffff8484610f35565b63ffffffff1890505b92915050565b6000600181805b84811015610f1357858181518110610eda57610eda6111fe565b602002602001015160f81c60ff1683610ef391906111eb565b9250610eff83836111eb565b915080610f0b81611214565b915050610ec0565b5081610f2282620100006111d4565b610f2c91906111eb565b95945050505050565b600083815b83811015610f9657600882901c6000868381518110610f5b57610f5b6111fe565b602002602001015160f81c60ff16841860ff166101008110610f7f57610f7f6111fe565b015418915080610f8e81611214565b915050610f3a565b50949350505050565b634e487b7160e01b600052604160045260246000fd5b6040516060810167ffffffffffffffff81118282101715610fd857610fd8610f9f565b60405290565b604051601f8201601f1916810167ffffffffffffffff8111828210171561100757611007610f9f565b604052919050565b600082601f83011261102057600080fd5b8135602067ffffffffffffffff82111561103c5761103c610f9f565b8160051b61104b828201610fde565b928352848101820192828101908785111561106557600080fd5b83870192505b8483101561109b5782356001600160f81b03198116811461108c5760008081fd5b8252918301919083019061106b565b979650505050505050565b6000806000606084860312156110bb57600080fd5b8335925060208401359150604084013567ffffffffffffffff808211156110e157600080fd5b90850190606082880312156110f557600080fd5b6110fd610fb5565b82358281111561110c57600080fd5b6111188982860161100f565b82525060208301358281111561112d57600080fd5b6111398982860161100f565b60208301525060408301358281111561115157600080fd5b61115d8982860161100f565b6040830152508093505050509250925092565b600060208083528351808285015260005b8181101561119d57858101830151858201604001528201611181565b506000604082860101526040601f19601f8301168501019250505092915050565b634e487b7160e01b600052601160045260246000fd5b8082028115828204841417610eb357610eb36111be565b80820180821115610eb357610eb36111be565b634e487b7160e01b600052603260045260246000fd5b600060018201611226576112266111be565b5060010190565b81810381811115610eb357610eb36111be56fea26469706673582212207f9d5b65f77d30a52c347d515b9a798c2d5b00bb4e0a25d2c36a914fea46733c64736f6c63430008120033",
			"opcodes": "PUSH1 0x80 PUSH1 0x40 MSTORE PUSH3 0xE PUSH3 0x14 JUMP JUMPDEST PUSH3 0xDE JUMP JUMPDEST PUSH1 0x0 JUMPDEST PUSH2 0x100 DUP2 LT ISZERO PUSH3 0x9D JUMPI DUP1 PUSH1 0x0 JUMPDEST PUSH1 0x8 DUP2 LT ISZERO PUSH3 0x6C JUMPI DUP2 PUSH1 0x1 AND PUSH1 0x1 SUB PUSH3 0x4F JUMPI PUSH1 0x1 DUP3 SWAP1 SHR PUSH4 0xEDB88320 XOR SWAP2 POP PUSH3 0x57 JUMP JUMPDEST PUSH1 0x1 DUP3 SWAP1 SHR SWAP2 POP JUMPDEST DUP1 PUSH3 0x63 DUP2 PUSH3 0xA0 JUMP JUMPDEST SWAP2 POP POP PUSH3 0x26 JUMP JUMPDEST POP DUP1 PUSH1 0x0 DUP4 PUSH2 0x100 DUP2 LT PUSH3 0x85 JUMPI PUSH3 0x85 PUSH3 0xC8 JUMP JUMPDEST ADD SSTORE POP DUP1 PUSH3 0x94 DUP2 PUSH3 0xA0 JUMP JUMPDEST SWAP2 POP POP PUSH3 0x17 JUMP JUMPDEST POP JUMP JUMPDEST PUSH1 0x0 PUSH1 0x1 DUP3 ADD PUSH3 0xC1 JUMPI PUSH4 0x4E487B71 PUSH1 0xE0 SHL PUSH1 0x0 MSTORE PUSH1 0x11 PUSH1 0x4 MSTORE PUSH1 0x24 PUSH1 0x0 REVERT JUMPDEST POP PUSH1 0x1 ADD SWAP1 JUMP JUMPDEST PUSH4 0x4E487B71 PUSH1 0xE0 SHL PUSH1 0x0 MSTORE PUSH1 0x32 PUSH1 0x4 MSTORE PUSH1 0x24 PUSH1 0x0 REVERT JUMPDEST PUSH2 0x1276 DUP1 PUSH3 0xEE PUSH1 0x0 CODECOPY PUSH1 0x0 RETURN INVALID PUSH1 0x80 PUSH1 0x40 MSTORE CALLVALUE DUP1 ISZERO PUSH2 0x10 JUMPI PUSH1 0x0 DUP1 REVERT JUMPDEST POP PUSH1 0x4 CALLDATASIZE LT PUSH2 0x2B JUMPI PUSH1 0x0 CALLDATALOAD PUSH1 0xE0 SHR DUP1 PUSH4 0xF6D57F9E EQ PUSH2 0x30 JUMPI JUMPDEST PUSH1 0x0 DUP1 REVERT JUMPDEST PUSH2 0x43 PUSH2 0x3E CALLDATASIZE PUSH1 0x4 PUSH2 0x10A6 JUMP JUMPDEST PUSH2 0x59 JUMP JUMPDEST PUSH1 0x40 MLOAD PUSH2 0x50 SWAP2 SWAP1 PUSH2 0x1170 JUMP JUMPDEST PUSH1 0x40 MLOAD DUP1 SWAP2 SUB SWAP1 RETURN JUMPDEST PUSH1 0x60 PUSH1 0x0 DUP1 DUP5 PUSH2 0x6A DUP8 PUSH1 0x3 PUSH2 0x11D4 JUMP JUMPDEST PUSH2 0x74 SWAP2 SWAP1 PUSH2 0x11D4 JUMP JUMPDEST PUSH2 0x7F DUP7 PUSH1 0x50 PUSH2 0x11EB JUMP JUMPDEST PUSH2 0x89 SWAP2 SWAP1 PUSH2 0x11EB JUMP JUMPDEST PUSH8 0xFFFFFFFFFFFFFFFF DUP2 GT ISZERO PUSH2 0xA1 JUMPI PUSH2 0xA1 PUSH2 0xF9F JUMP JUMPDEST PUSH1 0x40 MLOAD SWAP1 DUP1 DUP3 MSTORE DUP1 PUSH1 0x20 MUL PUSH1 0x20 ADD DUP3 ADD PUSH1 0x40 MSTORE DUP1 ISZERO PUSH2 0xCA JUMPI DUP2 PUSH1 0x20 ADD PUSH1 0x20 DUP3 MUL DUP1 CALLDATASIZE DUP4 CALLDATACOPY ADD SWAP1 POP JUMPDEST POP SWAP1 POP PUSH2 0xD7 DUP2 DUP4 PUSH2 0x1BD JUMP JUMPDEST SWAP3 POP SWAP1 POP PUSH2 0xE7 DUP2 DUP4 DUP9 DUP9 PUSH2 0x3A2 JUMP JUMPDEST SWAP3 POP SWAP1 POP PUSH2 0xF8 DUP2 DUP4 DUP9 DUP9 DUP9 PUSH2 0x617 JUMP JUMPDEST SWAP3 POP SWAP1 POP PUSH2 0x106 DUP2 DUP4 PUSH2 0xA9A JUMP JUMPDEST SWAP3 POP SWAP1 POP PUSH1 0x0 DUP3 PUSH8 0xFFFFFFFFFFFFFFFF DUP2 GT ISZERO PUSH2 0x125 JUMPI PUSH2 0x125 PUSH2 0xF9F JUMP JUMPDEST PUSH1 0x40 MLOAD SWAP1 DUP1 DUP3 MSTORE DUP1 PUSH1 0x1F ADD PUSH1 0x1F NOT AND PUSH1 0x20 ADD DUP3 ADD PUSH1 0x40 MSTORE DUP1 ISZERO PUSH2 0x14F JUMPI PUSH1 0x20 DUP3 ADD DUP2 DUP1 CALLDATASIZE DUP4 CALLDATACOPY ADD SWAP1 POP JUMPDEST POP SWAP1 POP PUSH1 0x0 JUMPDEST DUP4 DUP2 LT ISZERO PUSH2 0x1B2 JUMPI DUP3 DUP2 DUP2 MLOAD DUP2 LT PUSH2 0x16F JUMPI PUSH2 0x16F PUSH2 0x11FE JUMP JUMPDEST PUSH1 0x20 MUL PUSH1 0x20 ADD ADD MLOAD DUP3 DUP3 DUP2 MLOAD DUP2 LT PUSH2 0x189 JUMPI PUSH2 0x189 PUSH2 0x11FE JUMP JUMPDEST PUSH1 0x20 ADD ADD SWAP1 PUSH1 0x1 PUSH1 0x1 PUSH1 0xF8 SHL SUB NOT AND SWAP1 DUP2 PUSH1 0x0 BYTE SWAP1 MSTORE8 POP DUP1 PUSH2 0x1AA DUP2 PUSH2 0x1214 JUMP JUMPDEST SWAP2 POP POP PUSH2 0x155 JUMP JUMPDEST POP SWAP7 SWAP6 POP POP POP POP POP POP JUMP JUMPDEST PUSH1 0x60 PUSH1 0x0 PUSH1 0x89 PUSH1 0xF8 SHL DUP5 DUP5 PUSH2 0x1D1 DUP2 PUSH2 0x1214 JUMP JUMPDEST SWAP6 POP DUP2 MLOAD DUP2 LT PUSH2 0x1E3 JUMPI PUSH2 0x1E3 PUSH2 0x11FE JUMP JUMPDEST PUSH1 0x1 PUSH1 0x1 PUSH1 0xF8 SHL SUB NOT SWAP1 SWAP3 AND PUSH1 0x20 SWAP3 DUP4 MUL SWAP2 SWAP1 SWAP2 ADD SWAP1 SWAP2 ADD MSTORE PUSH1 0x5 PUSH1 0xFC SHL DUP5 DUP5 PUSH2 0x20C DUP2 PUSH2 0x1214 JUMP JUMPDEST SWAP6 POP DUP2 MLOAD DUP2 LT PUSH2 0x21E JUMPI PUSH2 0x21E PUSH2 0x11FE JUMP JUMPDEST PUSH1 0x1 PUSH1 0x1 PUSH1 0xF8 SHL SUB NOT SWAP1 SWAP3 AND PUSH1 0x20 SWAP3 DUP4 MUL SWAP2 SWAP1 SWAP2 ADD SWAP1 SWAP2 ADD MSTORE PUSH1 0x27 PUSH1 0xF9 SHL DUP5 DUP5 PUSH2 0x247 DUP2 PUSH2 0x1214 JUMP JUMPDEST SWAP6 POP DUP2 MLOAD DUP2 LT PUSH2 0x259 JUMPI PUSH2 0x259 PUSH2 0x11FE JUMP JUMPDEST PUSH1 0x1 PUSH1 0x1 PUSH1 0xF8 SHL SUB NOT SWAP1 SWAP3 AND PUSH1 0x20 SWAP3 DUP4 MUL SWAP2 SWAP1 SWAP2 ADD SWAP1 SWAP2 ADD MSTORE PUSH1 0x47 PUSH1 0xF8 SHL DUP5 DUP5 PUSH2 0x282 DUP2 PUSH2 0x1214 JUMP JUMPDEST SWAP6 POP DUP2 MLOAD DUP2 LT PUSH2 0x294 JUMPI PUSH2 0x294 PUSH2 0x11FE JUMP JUMPDEST PUSH1 0x1 PUSH1 0x1 PUSH1 0xF8 SHL SUB NOT SWAP1 SWAP3 AND PUSH1 0x20 SWAP3 DUP4 MUL SWAP2 SWAP1 SWAP2 ADD SWAP1 SWAP2 ADD MSTORE PUSH1 0xD PUSH1 0xF8 SHL DUP5 DUP5 PUSH2 0x2BD DUP2 PUSH2 0x1214 JUMP JUMPDEST SWAP6 POP DUP2 MLOAD DUP2 LT PUSH2 0x2CF JUMPI PUSH2 0x2CF PUSH2 0x11FE JUMP JUMPDEST PUSH1 0x1 PUSH1 0x1 PUSH1 0xF8 SHL SUB NOT SWAP1 SWAP3 AND PUSH1 0x20 SWAP3 DUP4 MUL SWAP2 SWAP1 SWAP2 ADD SWAP1 SWAP2 ADD MSTORE PUSH1 0x5 PUSH1 0xF9 SHL DUP5 DUP5 PUSH2 0x2F8 DUP2 PUSH2 0x1214 JUMP JUMPDEST SWAP6 POP DUP2 MLOAD DUP2 LT PUSH2 0x30A JUMPI PUSH2 0x30A PUSH2 0x11FE JUMP JUMPDEST PUSH1 0x1 PUSH1 0x1 PUSH1 0xF8 SHL SUB NOT SWAP1 SWAP3 AND PUSH1 0x20 SWAP3 DUP4 MUL SWAP2 SWAP1 SWAP2 ADD SWAP1 SWAP2 ADD MSTORE PUSH1 0xD PUSH1 0xF9 SHL DUP5 DUP5 PUSH2 0x333 DUP2 PUSH2 0x1214 JUMP JUMPDEST SWAP6 POP DUP2 MLOAD DUP2 LT PUSH2 0x345 JUMPI PUSH2 0x345 PUSH2 0x11FE JUMP JUMPDEST PUSH1 0x1 PUSH1 0x1 PUSH1 0xF8 SHL SUB NOT SWAP1 SWAP3 AND PUSH1 0x20 SWAP3 DUP4 MUL SWAP2 SWAP1 SWAP2 ADD SWAP1 SWAP2 ADD MSTORE PUSH1 0x5 PUSH1 0xF9 SHL DUP5 DUP5 PUSH2 0x36E DUP2 PUSH2 0x1214 JUMP JUMPDEST SWAP6 POP DUP2 MLOAD DUP2 LT PUSH2 0x380 JUMPI PUSH2 0x380 PUSH2 0x11FE JUMP JUMPDEST PUSH1 0x1 PUSH1 0x1 PUSH1 0xF8 SHL SUB NOT SWAP3 SWAP1 SWAP3 AND PUSH1 0x20 SWAP3 DUP4 MUL SWAP2 SWAP1 SWAP2 ADD SWAP1 SWAP2 ADD MSTORE POP SWAP2 SWAP3 SWAP1 SWAP2 POP JUMP JUMPDEST PUSH1 0x60 PUSH1 0x0 DUP5 PUSH2 0x3B2 PUSH1 0x4 DUP3 PUSH2 0x11EB JUMP JUMPDEST SWAP6 POP DUP6 PUSH1 0x49 PUSH1 0xF8 SHL DUP9 DUP3 PUSH2 0x3C5 DUP2 PUSH2 0x1214 JUMP JUMPDEST SWAP10 POP DUP2 MLOAD DUP2 LT PUSH2 0x3D7 JUMPI PUSH2 0x3D7 PUSH2 0x11FE JUMP JUMPDEST PUSH1 0x1 PUSH1 0x1 PUSH1 0xF8 SHL SUB NOT SWAP1 SWAP3 AND PUSH1 0x20 SWAP3 DUP4 MUL SWAP2 SWAP1 SWAP2 ADD SWAP1 SWAP2 ADD MSTORE PUSH1 0x9 PUSH1 0xFB SHL DUP9 DUP9 PUSH2 0x400 DUP2 PUSH2 0x1214 JUMP JUMPDEST SWAP10 POP DUP2 MLOAD DUP2 LT PUSH2 0x412 JUMPI PUSH2 0x412 PUSH2 0x11FE JUMP JUMPDEST PUSH1 0x1 PUSH1 0x1 PUSH1 0xF8 SHL SUB NOT SWAP1 SWAP3 AND PUSH1 0x20 SWAP3 DUP4 MUL SWAP2 SWAP1 SWAP2 ADD SWAP1 SWAP2 ADD MSTORE PUSH1 0x11 PUSH1 0xFA SHL DUP9 DUP9 PUSH2 0x43B DUP2 PUSH2 0x1214 JUMP JUMPDEST SWAP10 POP DUP2 MLOAD DUP2 LT PUSH2 0x44D JUMPI PUSH2 0x44D PUSH2 0x11FE JUMP JUMPDEST PUSH1 0x1 PUSH1 0x1 PUSH1 0xF8 SHL SUB NOT SWAP1 SWAP3 AND PUSH1 0x20 SWAP3 DUP4 MUL SWAP2 SWAP1 SWAP2 ADD SWAP1 SWAP2 ADD MSTORE PUSH1 0x29 PUSH1 0xF9 SHL DUP9 DUP9 PUSH2 0x476 DUP2 PUSH2 0x1214 JUMP JUMPDEST SWAP10 POP DUP2 MLOAD DUP2 LT PUSH2 0x488 JUMPI PUSH2 0x488 PUSH2 0x11FE JUMP JUMPDEST PUSH1 0x1 PUSH1 0x1 PUSH1 0xF8 SHL SUB NOT SWAP1 SWAP3 AND PUSH1 0x20 SWAP3 DUP4 MUL SWAP2 SWAP1 SWAP2 ADD SWAP1 SWAP2 ADD MSTORE DUP7 PUSH2 0x4AD DUP10 DUP3 DUP10 PUSH2 0xBB6 JUMP JUMPDEST SWAP1 SWAP10 POP SWAP8 POP PUSH2 0x4BD DUP10 DUP10 DUP9 PUSH2 0xBB6 JUMP JUMPDEST SWAP1 SWAP10 POP SWAP8 POP PUSH1 0x1 PUSH1 0xFB SHL DUP10 DUP10 PUSH2 0x4D2 DUP2 PUSH2 0x1214 JUMP JUMPDEST SWAP11 POP DUP2 MLOAD DUP2 LT PUSH2 0x4E4 JUMPI PUSH2 0x4E4 PUSH2 0x11FE JUMP JUMPDEST PUSH1 0x1 PUSH1 0x1 PUSH1 0xF8 SHL SUB NOT SWAP1 SWAP3 AND PUSH1 0x20 SWAP3 DUP4 MUL SWAP2 SWAP1 SWAP2 ADD SWAP1 SWAP2 ADD MSTORE PUSH1 0x1 PUSH1 0xF9 SHL DUP10 DUP10 PUSH2 0x50D DUP2 PUSH2 0x1214 JUMP JUMPDEST SWAP11 POP DUP2 MLOAD DUP2 LT PUSH2 0x51F JUMPI PUSH2 0x51F PUSH2 0x11FE JUMP JUMPDEST PUSH1 0x1 PUSH1 0x1 PUSH1 0xF8 SHL SUB NOT SWAP1 SWAP3 AND PUSH1 0x20 SWAP3 DUP4 MUL SWAP2 SWAP1 SWAP2 ADD SWAP1 SWAP2 ADD MSTORE PUSH1 0x0 DUP10 DUP10 PUSH2 0x545 DUP2 PUSH2 0x1214 JUMP JUMPDEST SWAP11 POP DUP2 MLOAD DUP2 LT PUSH2 0x557 JUMPI PUSH2 0x557 PUSH2 0x11FE JUMP JUMPDEST PUSH1 0x1 PUSH1 0x1 PUSH1 0xF8 SHL SUB NOT SWAP1 SWAP3 AND PUSH1 0x20 SWAP3 DUP4 MUL SWAP2 SWAP1 SWAP2 ADD SWAP1 SWAP2 ADD MSTORE PUSH1 0x0 DUP10 DUP10 PUSH2 0x57D DUP2 PUSH2 0x1214 JUMP JUMPDEST SWAP11 POP DUP2 MLOAD DUP2 LT PUSH2 0x58F JUMPI PUSH2 0x58F PUSH2 0x11FE JUMP JUMPDEST PUSH1 0x1 PUSH1 0x1 PUSH1 0xF8 SHL SUB NOT SWAP1 SWAP3 AND PUSH1 0x20 SWAP3 DUP4 MUL SWAP2 SWAP1 SWAP2 ADD SWAP1 SWAP2 ADD MSTORE PUSH1 0x0 DUP10 DUP10 PUSH2 0x5B5 DUP2 PUSH2 0x1214 JUMP JUMPDEST SWAP11 POP DUP2 MLOAD DUP2 LT PUSH2 0x5C7 JUMPI PUSH2 0x5C7 PUSH2 0x11FE JUMP JUMPDEST PUSH1 0x1 PUSH1 0x1 PUSH1 0xF8 SHL SUB NOT SWAP1 SWAP3 AND PUSH1 0x20 SWAP3 DUP4 MUL SWAP2 SWAP1 SWAP2 ADD SWAP1 SWAP2 ADD MSTORE DUP8 DUP1 PUSH2 0x5EE DUP12 DUP3 DUP7 DUP2 PUSH2 0xCB7 JUMP JUMPDEST SWAP1 SWAP12 POP SWAP10 POP PUSH2 0x607 DUP12 DUP7 PUSH2 0x602 DUP7 DUP7 PUSH2 0x122D JUMP JUMPDEST PUSH2 0xBB6 JUMP JUMPDEST POP SWAP12 SWAP10 SWAP11 POP POP POP POP POP POP POP POP POP POP JUMP JUMPDEST PUSH1 0x40 DUP1 MLOAD PUSH2 0x140 DUP2 ADD DUP3 MSTORE PUSH1 0x0 PUSH1 0x20 DUP3 ADD DUP2 SWAP1 MSTORE SWAP2 DUP2 ADD DUP3 SWAP1 MSTORE PUSH1 0x60 DUP2 DUP2 ADD DUP4 SWAP1 MSTORE PUSH1 0x80 DUP3 ADD DUP4 SWAP1 MSTORE PUSH1 0xA0 DUP3 ADD DUP4 SWAP1 MSTORE PUSH1 0xC0 DUP3 ADD DUP4 SWAP1 MSTORE PUSH1 0xE0 DUP3 ADD DUP4 SWAP1 MSTORE PUSH2 0x100 DUP3 ADD DUP4 SWAP1 MSTORE PUSH2 0x120 DUP3 ADD DUP4 SWAP1 MSTORE DUP7 DUP3 MSTORE SWAP2 SWAP1 PUSH2 0x675 PUSH1 0x4 DUP9 PUSH2 0x11EB JUMP JUMPDEST PUSH2 0x100 DUP3 ADD DUP2 SWAP1 MSTORE SWAP7 POP PUSH1 0x49 PUSH1 0xF8 SHL DUP9 DUP9 PUSH2 0x68F DUP2 PUSH2 0x1214 JUMP JUMPDEST SWAP10 POP DUP2 MLOAD DUP2 LT PUSH2 0x6A1 JUMPI PUSH2 0x6A1 PUSH2 0x11FE JUMP JUMPDEST PUSH1 0x1 PUSH1 0x1 PUSH1 0xF8 SHL SUB NOT SWAP1 SWAP3 AND PUSH1 0x20 SWAP3 DUP4 MUL SWAP2 SWAP1 SWAP2 ADD SWAP1 SWAP2 ADD MSTORE PUSH1 0x11 PUSH1 0xFA SHL DUP9 DUP9 PUSH2 0x6CA DUP2 PUSH2 0x1214 JUMP JUMPDEST SWAP10 POP DUP2 MLOAD DUP2 LT PUSH2 0x6DC JUMPI PUSH2 0x6DC PUSH2 0x11FE JUMP JUMPDEST PUSH1 0x1 PUSH1 0x1 PUSH1 0xF8 SHL SUB NOT SWAP1 SWAP3 AND PUSH1 0x20 SWAP3 DUP4 MUL SWAP2 SWAP1 SWAP2 ADD SWAP1 SWAP2 ADD MSTORE PUSH1 0x41 PUSH1 0xF8 SHL DUP9 DUP9 PUSH2 0x705 DUP2 PUSH2 0x1214 JUMP JUMPDEST SWAP10 POP DUP2 MLOAD DUP2 LT PUSH2 0x717 JUMPI PUSH2 0x717 PUSH2 0x11FE JUMP JUMPDEST PUSH1 0x1 PUSH1 0x1 PUSH1 0xF8 SHL SUB NOT SWAP1 SWAP3 AND PUSH1 0x20 SWAP3 DUP4 MUL SWAP2 SWAP1 SWAP2 ADD SWAP1 SWAP2 ADD MSTORE PUSH1 0x15 PUSH1 0xFA SHL DUP9 DUP9 PUSH2 0x740 DUP2 PUSH2 0x1214 JUMP JUMPDEST SWAP10 POP DUP2 MLOAD DUP2 LT PUSH2 0x752 JUMPI PUSH2 0x752 PUSH2 0x11FE JUMP JUMPDEST PUSH1 0x1 PUSH1 0x1 PUSH1 0xF8 SHL SUB NOT SWAP1 SWAP3 AND PUSH1 0x20 SWAP3 DUP4 MUL SWAP2 SWAP1 SWAP2 ADD DUP3 ADD MSTORE DUP2 ADD DUP8 SWAP1 MSTORE PUSH1 0xF PUSH1 0xFB SHL DUP9 DUP9 PUSH2 0x77F DUP2 PUSH2 0x1214 JUMP JUMPDEST SWAP10 POP DUP2 MLOAD DUP2 LT PUSH2 0x791 JUMPI PUSH2 0x791 PUSH2 0x11FE JUMP JUMPDEST PUSH1 0x1 PUSH1 0x1 PUSH1 0xF8 SHL SUB NOT SWAP1 SWAP3 AND PUSH1 0x20 SWAP3 DUP4 MUL SWAP2 SWAP1 SWAP2 ADD SWAP1 SWAP2 ADD MSTORE PUSH1 0x1 PUSH1 0xF8 SHL DUP9 DUP9 PUSH2 0x7BA DUP2 PUSH2 0x1214 JUMP JUMPDEST SWAP10 POP DUP2 MLOAD DUP2 LT PUSH2 0x7CC JUMPI PUSH2 0x7CC PUSH2 0x11FE JUMP JUMPDEST PUSH1 0x1 PUSH1 0x1 PUSH1 0xF8 SHL SUB NOT SWAP1 SWAP3 AND PUSH1 0x20 SWAP3 DUP4 MUL SWAP2 SWAP1 SWAP2 ADD SWAP1 SWAP2 ADD MSTORE PUSH1 0x1 PUSH1 0xF8 SHL DUP9 DUP9 PUSH2 0x7F5 DUP2 PUSH2 0x1214 JUMP JUMPDEST SWAP10 POP DUP2 MLOAD DUP2 LT PUSH2 0x807 JUMPI PUSH2 0x807 PUSH2 0x11FE JUMP JUMPDEST PUSH1 0x1 PUSH1 0x1 PUSH1 0xF8 SHL SUB NOT SWAP1 SWAP3 AND PUSH1 0x20 SWAP3 DUP4 MUL SWAP2 SWAP1 SWAP2 ADD SWAP1 SWAP2 ADD MSTORE PUSH1 0x60 DUP2 ADD DUP8 SWAP1 MSTORE PUSH2 0x832 PUSH1 0x4 DUP9 PUSH2 0x11EB JUMP JUMPDEST PUSH1 0xC0 DUP3 ADD DUP2 SWAP1 MSTORE PUSH1 0x80 DUP3 ADD DUP2 SWAP1 MSTORE SWAP7 POP PUSH1 0x0 DUP1 JUMPDEST DUP7 DUP2 LT ISZERO PUSH2 0x9C0 JUMPI PUSH1 0x0 DUP11 DUP11 PUSH2 0x85B DUP2 PUSH2 0x1214 JUMP JUMPDEST SWAP12 POP DUP2 MLOAD DUP2 LT PUSH2 0x86D JUMPI PUSH2 0x86D PUSH2 0x11FE JUMP JUMPDEST PUSH1 0x1 PUSH1 0x1 PUSH1 0xF8 SHL SUB NOT SWAP1 SWAP3 AND PUSH1 0x20 SWAP3 DUP4 MUL SWAP2 SWAP1 SWAP2 ADD SWAP1 SWAP2 ADD MSTORE PUSH1 0x0 JUMPDEST DUP9 DUP2 LT ISZERO PUSH2 0x9AD JUMPI DUP7 MLOAD DUP1 MLOAD DUP5 SWAP1 DUP2 LT PUSH2 0x8A5 JUMPI PUSH2 0x8A5 PUSH2 0x11FE JUMP JUMPDEST PUSH1 0x20 MUL PUSH1 0x20 ADD ADD MLOAD DUP12 DUP12 DUP1 PUSH2 0x8B9 SWAP1 PUSH2 0x1214 JUMP JUMPDEST SWAP13 POP DUP2 MLOAD DUP2 LT PUSH2 0x8CB JUMPI PUSH2 0x8CB PUSH2 0x11FE JUMP JUMPDEST PUSH1 0x1 PUSH1 0x1 PUSH1 0xF8 SHL SUB NOT SWAP1 SWAP3 AND PUSH1 0x20 SWAP3 DUP4 MUL SWAP2 SWAP1 SWAP2 ADD DUP3 ADD MSTORE DUP8 ADD MLOAD DUP1 MLOAD DUP5 SWAP1 DUP2 LT PUSH2 0x8F8 JUMPI PUSH2 0x8F8 PUSH2 0x11FE JUMP JUMPDEST PUSH1 0x20 MUL PUSH1 0x20 ADD ADD MLOAD DUP12 DUP12 DUP1 PUSH2 0x90C SWAP1 PUSH2 0x1214 JUMP JUMPDEST SWAP13 POP DUP2 MLOAD DUP2 LT PUSH2 0x91E JUMPI PUSH2 0x91E PUSH2 0x11FE JUMP JUMPDEST PUSH1 0x1 PUSH1 0x1 PUSH1 0xF8 SHL SUB NOT SWAP1 SWAP3 AND PUSH1 0x20 SWAP3 DUP4 MUL SWAP2 SWAP1 SWAP2 ADD SWAP1 SWAP2 ADD MSTORE PUSH1 0x40 DUP8 ADD MLOAD DUP1 MLOAD DUP5 SWAP1 DUP2 LT PUSH2 0x94E JUMPI PUSH2 0x94E PUSH2 0x11FE JUMP JUMPDEST PUSH1 0x20 MUL PUSH1 0x20 ADD ADD MLOAD DUP12 DUP12 DUP1 PUSH2 0x962 SWAP1 PUSH2 0x1214 JUMP JUMPDEST SWAP13 POP DUP2 MLOAD DUP2 LT PUSH2 0x974 JUMPI PUSH2 0x974 PUSH2 0x11FE JUMP JUMPDEST PUSH1 0x1 PUSH1 0x1 PUSH1 0xF8 SHL SUB NOT SWAP1 SWAP3 AND PUSH1 0x20 SWAP3 DUP4 MUL SWAP2 SWAP1 SWAP2 ADD SWAP1 SWAP2 ADD MSTORE DUP3 PUSH2 0x997 DUP2 PUSH2 0x1214 JUMP JUMPDEST SWAP4 POP POP DUP1 DUP1 PUSH2 0x9A5 SWAP1 PUSH2 0x1214 JUMP JUMPDEST SWAP2 POP POP PUSH2 0x889 JUMP JUMPDEST POP DUP1 PUSH2 0x9B8 DUP2 PUSH2 0x1214 JUMP JUMPDEST SWAP2 POP POP PUSH2 0x846 JUMP JUMPDEST POP PUSH1 0xE0 DUP3 ADD DUP9 SWAP1 MSTORE PUSH1 0xA0 DUP3 ADD DUP9 SWAP1 MSTORE PUSH1 0xC0 DUP3 ADD MLOAD PUSH2 0x9E2 SWAP1 DUP11 SWAP1 DUP11 SWAP1 DUP2 PUSH2 0xDA8 JUMP JUMPDEST PUSH1 0x40 DUP5 ADD DUP2 SWAP1 MSTORE PUSH2 0x120 DUP5 ADD DUP2 SWAP1 MSTORE PUSH2 0x100 DUP5 ADD MLOAD SWAP2 SWAP11 POP SWAP9 POP PUSH2 0xA0A SWAP1 DUP11 SWAP1 DUP11 SWAP1 DUP2 PUSH2 0xCB7 JUMP JUMPDEST DUP4 MLOAD PUSH1 0x20 DUP6 ADD MLOAD PUSH1 0x40 DUP7 ADD MLOAD SWAP4 SWAP13 POP SWAP2 SWAP11 POP PUSH2 0xA2B SWAP3 DUP13 SWAP3 PUSH2 0x602 SWAP2 PUSH2 0x122D JUMP JUMPDEST DUP4 MSTORE PUSH1 0x60 DUP4 ADD MLOAD PUSH1 0x80 DUP5 ADD MLOAD PUSH1 0xA0 DUP6 ADD MLOAD SWAP3 SWAP12 POP PUSH2 0xA54 SWAP3 DUP13 SWAP3 SWAP2 PUSH2 0xA4F SWAP2 PUSH2 0x122D JUMP JUMPDEST PUSH2 0xE7B JUMP JUMPDEST PUSH1 0x60 DUP5 ADD DUP2 SWAP1 MSTORE PUSH1 0x80 DUP5 ADD MLOAD PUSH1 0xA0 DUP6 ADD MLOAD SWAP3 SWAP12 POP PUSH2 0xA84 SWAP3 DUP13 SWAP3 SWAP2 PUSH2 0xA78 SWAP2 PUSH2 0x122D JUMP JUMPDEST PUSH2 0xA4F SWAP1 PUSH2 0xFFFF PUSH2 0x122D JUMP JUMPDEST PUSH1 0x60 SWAP4 SWAP1 SWAP4 ADD SWAP3 SWAP1 SWAP3 MSTORE POP SWAP8 SWAP6 SWAP7 POP POP POP POP POP POP JUMP JUMPDEST PUSH1 0x60 PUSH1 0x0 PUSH2 0xAAA DUP5 DUP5 PUSH1 0x0 PUSH2 0xBB6 JUMP JUMPDEST SWAP1 SWAP5 POP SWAP3 POP DUP3 PUSH1 0x49 PUSH1 0xF8 SHL DUP6 DUP3 PUSH2 0xAC0 DUP2 PUSH2 0x1214 JUMP JUMPDEST SWAP7 POP DUP2 MLOAD DUP2 LT PUSH2 0xAD2 JUMPI PUSH2 0xAD2 PUSH2 0x11FE JUMP JUMPDEST PUSH1 0x1 PUSH1 0x1 PUSH1 0xF8 SHL SUB NOT SWAP1 SWAP3 AND PUSH1 0x20 SWAP3 DUP4 MUL SWAP2 SWAP1 SWAP2 ADD SWAP1 SWAP2 ADD MSTORE PUSH1 0x45 PUSH1 0xF8 SHL DUP6 DUP6 PUSH2 0xAFB DUP2 PUSH2 0x1214 JUMP JUMPDEST SWAP7 POP DUP2 MLOAD DUP2 LT PUSH2 0xB0D JUMPI PUSH2 0xB0D PUSH2 0x11FE JUMP JUMPDEST PUSH1 0x1 PUSH1 0x1 PUSH1 0xF8 SHL SUB NOT SWAP1 SWAP3 AND PUSH1 0x20 SWAP3 DUP4 MUL SWAP2 SWAP1 SWAP2 ADD SWAP1 SWAP2 ADD MSTORE PUSH1 0x27 PUSH1 0xF9 SHL DUP6 DUP6 PUSH2 0xB36 DUP2 PUSH2 0x1214 JUMP JUMPDEST SWAP7 POP DUP2 MLOAD DUP2 LT PUSH2 0xB48 JUMPI PUSH2 0xB48 PUSH2 0x11FE JUMP JUMPDEST PUSH1 0x1 PUSH1 0x1 PUSH1 0xF8 SHL SUB NOT SWAP1 SWAP3 AND PUSH1 0x20 SWAP3 DUP4 MUL SWAP2 SWAP1 SWAP2 ADD SWAP1 SWAP2 ADD MSTORE PUSH1 0x11 PUSH1 0xFA SHL DUP6 DUP6 PUSH2 0xB71 DUP2 PUSH2 0x1214 JUMP JUMPDEST SWAP7 POP DUP2 MLOAD DUP2 LT PUSH2 0xB83 JUMPI PUSH2 0xB83 PUSH2 0x11FE JUMP JUMPDEST PUSH1 0x1 PUSH1 0x1 PUSH1 0xF8 SHL SUB NOT SWAP1 SWAP3 AND PUSH1 0x20 SWAP3 DUP4 MUL SWAP2 SWAP1 SWAP2 ADD SWAP1 SWAP2 ADD MSTORE DUP4 PUSH2 0xBA9 DUP7 DUP3 DUP5 DUP2 PUSH2 0xCB7 JUMP JUMPDEST SWAP1 SWAP8 SWAP1 SWAP7 POP SWAP5 POP POP POP POP POP JUMP JUMPDEST PUSH1 0x60 PUSH1 0x0 PUSH1 0x1 PUSH1 0x1 PUSH1 0xF8 SHL SUB NOT PUSH1 0xE0 DUP5 SWAP1 SHL AND DUP6 DUP6 PUSH2 0xBD4 DUP2 PUSH2 0x1214 JUMP JUMPDEST SWAP7 POP DUP2 MLOAD DUP2 LT PUSH2 0xBE6 JUMPI PUSH2 0xBE6 PUSH2 0x11FE JUMP JUMPDEST PUSH1 0x1 PUSH1 0x1 PUSH1 0xF8 SHL SUB NOT SWAP3 DUP4 AND PUSH1 0x20 SWAP2 DUP3 MUL SWAP3 SWAP1 SWAP3 ADD ADD MSTORE PUSH1 0xE8 DUP5 SWAP1 SHL AND DUP6 DUP6 PUSH2 0xC0E DUP2 PUSH2 0x1214 JUMP JUMPDEST SWAP7 POP DUP2 MLOAD DUP2 LT PUSH2 0xC20 JUMPI PUSH2 0xC20 PUSH2 0x11FE JUMP JUMPDEST PUSH1 0x1 PUSH1 0x1 PUSH1 0xF8 SHL SUB NOT SWAP3 DUP4 AND PUSH1 0x20 SWAP2 DUP3 MUL SWAP3 SWAP1 SWAP3 ADD ADD MSTORE PUSH1 0xF0 DUP5 SWAP1 SHL AND DUP6 DUP6 PUSH2 0xC48 DUP2 PUSH2 0x1214 JUMP JUMPDEST SWAP7 POP DUP2 MLOAD DUP2 LT PUSH2 0xC5A JUMPI PUSH2 0xC5A PUSH2 0x11FE JUMP JUMPDEST PUSH1 0x1 PUSH1 0x1 PUSH1 0xF8 SHL SUB NOT SWAP3 DUP4 AND PUSH1 0x20 SWAP2 DUP3 MUL SWAP3 SWAP1 SWAP3 ADD ADD MSTORE PUSH1 0xF8 DUP5 SWAP1 SHL AND DUP6 DUP6 PUSH2 0xC82 DUP2 PUSH2 0x1214 JUMP JUMPDEST SWAP7 POP DUP2 MLOAD DUP2 LT PUSH2 0xC94 JUMPI PUSH2 0xC94 PUSH2 0x11FE JUMP JUMPDEST PUSH1 0x1 PUSH1 0x1 PUSH1 0xF8 SHL SUB NOT SWAP3 SWAP1 SWAP3 AND PUSH1 0x20 SWAP3 DUP4 MUL SWAP2 SWAP1 SWAP2 ADD SWAP1 SWAP2 ADD MSTORE POP SWAP3 SWAP4 SWAP2 SWAP3 POP POP JUMP JUMPDEST PUSH1 0x60 PUSH1 0x0 DUP1 PUSH2 0xCC6 DUP6 DUP6 PUSH2 0x122D JUMP JUMPDEST SWAP1 POP PUSH1 0x0 DUP1 DUP3 PUSH8 0xFFFFFFFFFFFFFFFF DUP2 GT ISZERO PUSH2 0xCE4 JUMPI PUSH2 0xCE4 PUSH2 0xF9F JUMP JUMPDEST PUSH1 0x40 MLOAD SWAP1 DUP1 DUP3 MSTORE DUP1 PUSH1 0x20 MUL PUSH1 0x20 ADD DUP3 ADD PUSH1 0x40 MSTORE DUP1 ISZERO PUSH2 0xD0D JUMPI DUP2 PUSH1 0x20 ADD PUSH1 0x20 DUP3 MUL DUP1 CALLDATASIZE DUP4 CALLDATACOPY ADD SWAP1 POP JUMPDEST POP SWAP1 POP DUP7 JUMPDEST DUP7 DUP2 LT ISZERO PUSH2 0xD7D JUMPI DUP10 DUP2 DUP2 MLOAD DUP2 LT PUSH2 0xD2C JUMPI PUSH2 0xD2C PUSH2 0x11FE JUMP JUMPDEST PUSH1 0x20 MUL PUSH1 0x20 ADD ADD MLOAD DUP3 DUP5 DUP1 PUSH2 0xD40 SWAP1 PUSH2 0x1214 JUMP JUMPDEST SWAP6 POP DUP2 MLOAD DUP2 LT PUSH2 0xD52 JUMPI PUSH2 0xD52 PUSH2 0x11FE JUMP JUMPDEST PUSH1 0x1 PUSH1 0x1 PUSH1 0xF8 SHL SUB NOT SWAP1 SWAP3 AND PUSH1 0x20 SWAP3 DUP4 MUL SWAP2 SWAP1 SWAP2 ADD SWAP1 SWAP2 ADD MSTORE DUP1 PUSH2 0xD75 DUP2 PUSH2 0x1214 JUMP JUMPDEST SWAP2 POP POP PUSH2 0xD12 JUMP JUMPDEST POP PUSH1 0x0 PUSH2 0xD8A DUP3 DUP6 PUSH2 0xE99 JUMP JUMPDEST SWAP1 POP PUSH2 0xD97 DUP11 DUP11 DUP4 PUSH2 0xBB6 JUMP JUMPDEST SWAP1 SWAP12 SWAP1 SWAP11 POP SWAP9 POP POP POP POP POP POP POP POP POP JUMP JUMPDEST PUSH1 0x60 PUSH1 0x0 DUP1 PUSH2 0xDB7 DUP6 DUP6 PUSH2 0x122D JUMP JUMPDEST SWAP1 POP PUSH1 0x0 DUP1 DUP3 PUSH8 0xFFFFFFFFFFFFFFFF DUP2 GT ISZERO PUSH2 0xDD5 JUMPI PUSH2 0xDD5 PUSH2 0xF9F JUMP JUMPDEST PUSH1 0x40 MLOAD SWAP1 DUP1 DUP3 MSTORE DUP1 PUSH1 0x20 MUL PUSH1 0x20 ADD DUP3 ADD PUSH1 0x40 MSTORE DUP1 ISZERO PUSH2 0xDFE JUMPI DUP2 PUSH1 0x20 ADD PUSH1 0x20 DUP3 MUL DUP1 CALLDATASIZE DUP4 CALLDATACOPY ADD SWAP1 POP JUMPDEST POP SWAP1 POP DUP7 JUMPDEST DUP7 DUP2 LT ISZERO PUSH2 0xE6E JUMPI DUP10 DUP2 DUP2 MLOAD DUP2 LT PUSH2 0xE1D JUMPI PUSH2 0xE1D PUSH2 0x11FE JUMP JUMPDEST PUSH1 0x20 MUL PUSH1 0x20 ADD ADD MLOAD DUP3 DUP5 DUP1 PUSH2 0xE31 SWAP1 PUSH2 0x1214 JUMP JUMPDEST SWAP6 POP DUP2 MLOAD DUP2 LT PUSH2 0xE43 JUMPI PUSH2 0xE43 PUSH2 0x11FE JUMP JUMPDEST PUSH1 0x1 PUSH1 0x1 PUSH1 0xF8 SHL SUB NOT SWAP1 SWAP3 AND PUSH1 0x20 SWAP3 DUP4 MUL SWAP2 SWAP1 SWAP2 ADD SWAP1 SWAP2 ADD MSTORE DUP1 PUSH2 0xE66 DUP2 PUSH2 0x1214 JUMP JUMPDEST SWAP2 POP POP PUSH2 0xE03 JUMP JUMPDEST POP PUSH1 0x0 PUSH2 0xD8A DUP3 DUP6 PUSH2 0xEB9 JUMP JUMPDEST PUSH1 0x60 PUSH1 0x0 PUSH1 0x1 PUSH1 0x1 PUSH1 0xF8 SHL SUB NOT PUSH1 0xF0 DUP5 SWAP1 SHL AND DUP6 DUP6 PUSH2 0xC48 DUP2 PUSH2 0x1214 JUMP JUMPDEST PUSH1 0x0 PUSH2 0xEAA PUSH4 0xFFFFFFFF DUP5 DUP5 PUSH2 0xF35 JUMP JUMPDEST PUSH4 0xFFFFFFFF XOR SWAP1 POP JUMPDEST SWAP3 SWAP2 POP POP JUMP JUMPDEST PUSH1 0x0 PUSH1 0x1 DUP2 DUP1 JUMPDEST DUP5 DUP2 LT ISZERO PUSH2 0xF13 JUMPI DUP6 DUP2 DUP2 MLOAD DUP2 LT PUSH2 0xEDA JUMPI PUSH2 0xEDA PUSH2 0x11FE JUMP JUMPDEST PUSH1 0x20 MUL PUSH1 0x20 ADD ADD MLOAD PUSH1 0xF8 SHR PUSH1 0xFF AND DUP4 PUSH2 0xEF3 SWAP2 SWAP1 PUSH2 0x11EB JUMP JUMPDEST SWAP3 POP PUSH2 0xEFF DUP4 DUP4 PUSH2 0x11EB JUMP JUMPDEST SWAP2 POP DUP1 PUSH2 0xF0B DUP2 PUSH2 0x1214 JUMP JUMPDEST SWAP2 POP POP PUSH2 0xEC0 JUMP JUMPDEST POP DUP2 PUSH2 0xF22 DUP3 PUSH3 0x10000 PUSH2 0x11D4 JUMP JUMPDEST PUSH2 0xF2C SWAP2 SWAP1 PUSH2 0x11EB JUMP JUMPDEST SWAP6 SWAP5 POP POP POP POP POP JUMP JUMPDEST PUSH1 0x0 DUP4 DUP2 JUMPDEST DUP4 DUP2 LT ISZERO PUSH2 0xF96 JUMPI PUSH1 0x8 DUP3 SWAP1 SHR PUSH1 0x0 DUP7 DUP4 DUP2 MLOAD DUP2 LT PUSH2 0xF5B JUMPI PUSH2 0xF5B PUSH2 0x11FE JUMP JUMPDEST PUSH1 0x20 MUL PUSH1 0x20 ADD ADD MLOAD PUSH1 0xF8 SHR PUSH1 0xFF AND DUP5 XOR PUSH1 0xFF AND PUSH2 0x100 DUP2 LT PUSH2 0xF7F JUMPI PUSH2 0xF7F PUSH2 0x11FE JUMP JUMPDEST ADD SLOAD XOR SWAP2 POP DUP1 PUSH2 0xF8E DUP2 PUSH2 0x1214 JUMP JUMPDEST SWAP2 POP POP PUSH2 0xF3A JUMP JUMPDEST POP SWAP5 SWAP4 POP POP POP POP JUMP JUMPDEST PUSH4 0x4E487B71 PUSH1 0xE0 SHL PUSH1 0x0 MSTORE PUSH1 0x41 PUSH1 0x4 MSTORE PUSH1 0x24 PUSH1 0x0 REVERT JUMPDEST PUSH1 0x40 MLOAD PUSH1 0x60 DUP2 ADD PUSH8 0xFFFFFFFFFFFFFFFF DUP2 GT DUP3 DUP3 LT OR ISZERO PUSH2 0xFD8 JUMPI PUSH2 0xFD8 PUSH2 0xF9F JUMP JUMPDEST PUSH1 0x40 MSTORE SWAP1 JUMP JUMPDEST PUSH1 0x40 MLOAD PUSH1 0x1F DUP3 ADD PUSH1 0x1F NOT AND DUP2 ADD PUSH8 0xFFFFFFFFFFFFFFFF DUP2 GT DUP3 DUP3 LT OR ISZERO PUSH2 0x1007 JUMPI PUSH2 0x1007 PUSH2 0xF9F JUMP JUMPDEST PUSH1 0x40 MSTORE SWAP2 SWAP1 POP JUMP JUMPDEST PUSH1 0x0 DUP3 PUSH1 0x1F DUP4 ADD SLT PUSH2 0x1020 JUMPI PUSH1 0x0 DUP1 REVERT JUMPDEST DUP2 CALLDATALOAD PUSH1 0x20 PUSH8 0xFFFFFFFFFFFFFFFF DUP3 GT ISZERO PUSH2 0x103C JUMPI PUSH2 0x103C PUSH2 0xF9F JUMP JUMPDEST DUP2 PUSH1 0x5 SHL PUSH2 0x104B DUP3 DUP3 ADD PUSH2 0xFDE JUMP JUMPDEST SWAP3 DUP4 MSTORE DUP5 DUP2 ADD DUP3 ADD SWAP3 DUP3 DUP2 ADD SWAP1 DUP8 DUP6 GT ISZERO PUSH2 0x1065 JUMPI PUSH1 0x0 DUP1 REVERT JUMPDEST DUP4 DUP8 ADD SWAP3 POP JUMPDEST DUP5 DUP4 LT ISZERO PUSH2 0x109B JUMPI DUP3 CALLDATALOAD PUSH1 0x1 PUSH1 0x1 PUSH1 0xF8 SHL SUB NOT DUP2 AND DUP2 EQ PUSH2 0x108C JUMPI PUSH1 0x0 DUP1 DUP2 REVERT JUMPDEST DUP3 MSTORE SWAP2 DUP4 ADD SWAP2 SWAP1 DUP4 ADD SWAP1 PUSH2 0x106B JUMP JUMPDEST SWAP8 SWAP7 POP POP POP POP POP POP POP JUMP JUMPDEST PUSH1 0x0 DUP1 PUSH1 0x0 PUSH1 0x60 DUP5 DUP7 SUB SLT ISZERO PUSH2 0x10BB JUMPI PUSH1 0x0 DUP1 REVERT JUMPDEST DUP4 CALLDATALOAD SWAP3 POP PUSH1 0x20 DUP5 ADD CALLDATALOAD SWAP2 POP PUSH1 0x40 DUP5 ADD CALLDATALOAD PUSH8 0xFFFFFFFFFFFFFFFF DUP1 DUP3 GT ISZERO PUSH2 0x10E1 JUMPI PUSH1 0x0 DUP1 REVERT JUMPDEST SWAP1 DUP6 ADD SWAP1 PUSH1 0x60 DUP3 DUP9 SUB SLT ISZERO PUSH2 0x10F5 JUMPI PUSH1 0x0 DUP1 REVERT JUMPDEST PUSH2 0x10FD PUSH2 0xFB5 JUMP JUMPDEST DUP3 CALLDATALOAD DUP3 DUP2 GT ISZERO PUSH2 0x110C JUMPI PUSH1 0x0 DUP1 REVERT JUMPDEST PUSH2 0x1118 DUP10 DUP3 DUP7 ADD PUSH2 0x100F JUMP JUMPDEST DUP3 MSTORE POP PUSH1 0x20 DUP4 ADD CALLDATALOAD DUP3 DUP2 GT ISZERO PUSH2 0x112D JUMPI PUSH1 0x0 DUP1 REVERT JUMPDEST PUSH2 0x1139 DUP10 DUP3 DUP7 ADD PUSH2 0x100F JUMP JUMPDEST PUSH1 0x20 DUP4 ADD MSTORE POP PUSH1 0x40 DUP4 ADD CALLDATALOAD DUP3 DUP2 GT ISZERO PUSH2 0x1151 JUMPI PUSH1 0x0 DUP1 REVERT JUMPDEST PUSH2 0x115D DUP10 DUP3 DUP7 ADD PUSH2 0x100F JUMP JUMPDEST PUSH1 0x40 DUP4 ADD MSTORE POP DUP1 SWAP4 POP POP POP POP SWAP3 POP SWAP3 POP SWAP3 JUMP JUMPDEST PUSH1 0x0 PUSH1 0x20 DUP1 DUP4 MSTORE DUP4 MLOAD DUP1 DUP3 DUP6 ADD MSTORE PUSH1 0x0 JUMPDEST DUP2 DUP2 LT ISZERO PUSH2 0x119D JUMPI DUP6 DUP2 ADD DUP4 ADD MLOAD DUP6 DUP3 ADD PUSH1 0x40 ADD MSTORE DUP3 ADD PUSH2 0x1181 JUMP JUMPDEST POP PUSH1 0x0 PUSH1 0x40 DUP3 DUP7 ADD ADD MSTORE PUSH1 0x40 PUSH1 0x1F NOT PUSH1 0x1F DUP4 ADD AND DUP6 ADD ADD SWAP3 POP POP POP SWAP3 SWAP2 POP POP JUMP JUMPDEST PUSH4 0x4E487B71 PUSH1 0xE0 SHL PUSH1 0x0 MSTORE PUSH1 0x11 PUSH1 0x4 MSTORE PUSH1 0x24 PUSH1 0x0 REVERT JUMPDEST DUP1 DUP3 MUL DUP2 ISZERO DUP3 DUP3 DIV DUP5 EQ OR PUSH2 0xEB3 JUMPI PUSH2 0xEB3 PUSH2 0x11BE JUMP JUMPDEST DUP1 DUP3 ADD DUP1 DUP3 GT ISZERO PUSH2 0xEB3 JUMPI PUSH2 0xEB3 PUSH2 0x11BE JUMP JUMPDEST PUSH4 0x4E487B71 PUSH1 0xE0 SHL PUSH1 0x0 MSTORE PUSH1 0x32 PUSH1 0x4 MSTORE PUSH1 0x24 PUSH1 0x0 REVERT JUMPDEST PUSH1 0x0 PUSH1 0x1 DUP3 ADD PUSH2 0x1226 JUMPI PUSH2 0x1226 PUSH2 0x11BE JUMP JUMPDEST POP PUSH1 0x1 ADD SWAP1 JUMP JUMPDEST DUP2 DUP2 SUB DUP2 DUP2 GT ISZERO PUSH2 0xEB3 JUMPI PUSH2 0xEB3 PUSH2 0x11BE JUMP INVALID LOG2 PUSH5 0x6970667358 0x22 SLT KECCAK256 PUSH32 0x9D5B65F77D30A52C347D515B9A798C2D5B00BB4E0A25D2C36A914FEA46733C64 PUSH20 0x6F6C634300081200330000000000000000000000 "
		},
		"gasEstimates": {
			"creation": {
				"codeDepositCost": "945200",
				"executionCost": "infinite",
				"totalCost": "infinite"
			},
			"external": {
				"createPNG(uint256,uint256,(bytes1[],bytes1[],bytes1[]))": "infinite"
			},
			"internal": {
				"add2ByteValue(bytes1[] memory,uint256,uint256)": "infinite",
				"add4ByteValue(bytes1[] memory,uint256,uint256)": "infinite",
				"addADLER32(bytes1[] memory,uint256,uint256,uint256)": "infinite",
				"addCRC(bytes1[] memory,uint256,uint256,uint256)": "infinite",
				"addIDATChunck(bytes1[] memory,uint256,uint256,uint256,struct PNGData memory)": "infinite",
				"addIENDChunck(bytes1[] memory,uint256)": "infinite",
				"addIHDRChunck(bytes1[] memory,uint256,uint256,uint256)": "infinite",
				"addPNGSignature(bytes1[] memory,uint256)": "infinite",
				"adler32(bytes1[] memory,uint256)": "infinite",
				"crc(bytes1[] memory,uint256)": "infinite",
				"createCRCTable()": "infinite",
				"update_crc(uint256,bytes1[] memory,uint256)": "infinite"
			}
		},
		"methodIdentifiers": {
			"createPNG(uint256,uint256,(bytes1[],bytes1[],bytes1[]))": "f6d57f9e"
		}
	},
	"abi": [
		{
			"inputs": [],
			"stateMutability": "payable",
			"type": "constructor"
		},
		{
			"inputs": [
				{
					"internalType": "uint256",
					"name": "_width",
					"type": "uint256"
				},
				{
					"internalType": "uint256",
					"name": "_height",
					"type": "uint256"
				},
				{
					"components": [
						{
							"internalType": "bytes1[]",
							"name": "red",
							"type": "bytes1[]"
						},
						{
							"internalType": "bytes1[]",
							"name": "green",
							"type": "bytes1[]"
						},
						{
							"internalType": "bytes1[]",
							"name": "blue",
							"type": "bytes1[]"
						}
					],
					"internalType": "struct PNGData",
					"name": "pngData",
					"type": "tuple"
				}
			],
			"name": "createPNG",
			"outputs": [
				{
					"internalType": "bytes",
					"name": "",
					"type": "bytes"
				}
			],
			"stateMutability": "view",
			"type": "function"
		}
	]
}