{
	"data": {
		"bytecode": {
			"linkReferences": {},
			"object": "60806040526200000e62000014565b620000de565b60005b6101008110156200009d578060005b60088110156200006c57816001166001036200004f57600182901c63edb8832018915062000057565b600182901c91505b806200006381620000a0565b91505062000026565b50806000836101008110620000855762000085620000c8565b015550806200009481620000a0565b91505062000017565b50565b600060018201620000c157634e487b7160e01b600052601160045260246000fd5b5060010190565b634e487b7160e01b600052603260045260246000fd5b61189880620000ee6000396000f3fe608060405234801561001057600080fd5b506004361061004c5760003560e01c806319858b361461005157806348b508b714610077578063f6d57f9e1461008c578063fe2a36491461009f575b600080fd5b61006461005f3660046115ab565b6100b2565b6040519081526020015b60405180910390f35b61007f610130565b60405161006e9190611640565b61007f61009a36600461165a565b6103e0565b6100646100ad3660046115ab565b6104fa565b6000600181805b8481101561010c578581815181106100d3576100d3611724565b602002602001015160f81c60ff16836100ec9190611750565b92506100f88383611750565b91508061010481611763565b9150506100b9565b508161011b826201000061177c565b6101259190611750565b925050505b92915050565b604080516003606080830182815260e084019094529260009291829190608083018680368337505050815260408051600380825260808201909252602092830192909190820160608036833750505081526040805160038082526080820190925260209283019290919082016060803683375050509052805180519192506001600160f81b0319916000906101c7576101c7611724565b6001600160f81b031990921660209283029190910190910152805180516000919060019081106101f9576101f9611724565b6001600160f81b0319909216602092830291909101909101528051805160009190600290811061022b5761022b611724565b6001600160f81b0319909216602092830291909101820152810151805160009190829061025a5761025a611724565b6001600160f81b03199283166020918202929092018101919091528201518051600190811061028b5761028b611724565b6001600160f81b031990921660209283029190910182015281015180516000919060029081106102bd576102bd611724565b60200260200101906001600160f81b03191690816001600160f81b03191681525050600081604001516000815181106102f8576102f8611724565b60200260200101906001600160f81b03191690816001600160f81b031916815250506000816040015160018151811061033357610333611724565b6001600160f81b0319928316602091820292909201015260408201518051600290811061036257610362611724565b6001600160f81b031990921660209283029190910190910152600061038a60036001846103e0565b905060008190506103b9816040516020016103a59190611793565b604051602081830303815290604052610518565b6040516020016103c991906117af565b604051602081830303815290604052935050505090565b604080516064808252610ca08201909252606091600091829160208201610c8080368337019050509050610414818361066b565b9250905061042481838888610850565b925090506104358183888888610ac5565b92509050610443818361103b565b9250905060008267ffffffffffffffff811115610462576104626114a4565b6040519080825280601f01601f19166020018201604052801561048c576020820181803683370190505b50905060005b838110156104ef578281815181106104ac576104ac611724565b60200260200101518282815181106104c6576104c6611724565b60200101906001600160f81b031916908160001a905350806104e781611763565b915050610492565b509695505050505050565b600061050b63ffffffff8484611157565b63ffffffff189392505050565b6060815160000361053757505060408051602081019091526000815290565b600060405180606001604052806040815260200161182360409139905060006003845160026105669190611750565b61057091906117ed565b61057b90600461177c565b67ffffffffffffffff811115610593576105936114a4565b6040519080825280601f01601f1916602001820160405280156105bd576020820181803683370190505b509050600182016020820185865187015b80821015610629576003820191508151603f8160121c168501518453600184019350603f81600c1c168501518453600184019350603f8160061c168501518453600184019350603f81168501518453506001830192506105ce565b5050600386510660018114610645576002811461065857610660565b603d6001830353603d6002830353610660565b603d60018303535b509195945050505050565b60606000608960f81b848461067f81611763565b95508151811061069157610691611724565b6001600160f81b031990921660209283029190910190910152600560fc1b84846106ba81611763565b9550815181106106cc576106cc611724565b6001600160f81b031990921660209283029190910190910152602760f91b84846106f581611763565b95508151811061070757610707611724565b6001600160f81b031990921660209283029190910190910152604760f81b848461073081611763565b95508151811061074257610742611724565b6001600160f81b031990921660209283029190910190910152600d60f81b848461076b81611763565b95508151811061077d5761077d611724565b6001600160f81b031990921660209283029190910190910152600560f91b84846107a681611763565b9550815181106107b8576107b8611724565b6001600160f81b031990921660209283029190910190910152600d60f91b84846107e181611763565b9550815181106107f3576107f3611724565b6001600160f81b031990921660209283029190910190910152600560f91b848461081c81611763565b95508151811061082e5761082e611724565b6001600160f81b03199290921660209283029190910190910152509192909150565b6060600084610860600482611750565b955085604960f81b888261087381611763565b99508151811061088557610885611724565b6001600160f81b031990921660209283029190910190910152600960fb1b88886108ae81611763565b9950815181106108c0576108c0611724565b6001600160f81b031990921660209283029190910190910152601160fa1b88886108e981611763565b9950815181106108fb576108fb611724565b6001600160f81b031990921660209283029190910190910152602960f91b888861092481611763565b99508151811061093657610936611724565b6001600160f81b0319909216602092830291909101909101528661095b8982896111c1565b909950975061096b8989886111c1565b9099509750600160fb1b898961098081611763565b9a508151811061099257610992611724565b6001600160f81b031990921660209283029190910190910152600160f91b89896109bb81611763565b9a50815181106109cd576109cd611724565b6001600160f81b031990921660209283029190910190910152600089896109f381611763565b9a5081518110610a0557610a05611724565b6001600160f81b03199092166020928302919091019091015260008989610a2b81611763565b9a5081518110610a3d57610a3d611724565b6001600160f81b03199092166020928302919091019091015260008989610a6381611763565b9a5081518110610a7557610a75611724565b6001600160f81b0319909216602092830291909101909101528780610a9c8b8286816112c2565b909b509950610ab58b86610ab0868661180f565b6111c1565b509b999a50505050505050505050565b6060600085610ad5600482611750565b9650604960f81b8888610ae781611763565b995081518110610af957610af9611724565b6001600160f81b031990921660209283029190910190910152601160fa1b8888610b2281611763565b995081518110610b3457610b34611724565b6001600160f81b031990921660209283029190910190910152604160f81b8888610b5d81611763565b995081518110610b6f57610b6f611724565b6001600160f81b031990921660209283029190910190910152601560fa1b8888610b9881611763565b995081518110610baa57610baa611724565b6001600160f81b03199092166020928302919091019091015286600f60fb1b8982610bd481611763565b9a5081518110610be657610be6611724565b6001600160f81b031990921660209283029190910190910152600160f81b8989610c0f81611763565b9a5081518110610c2157610c21611724565b6001600160f81b031990921660209283029190910190910152600160f81b8989610c4a81611763565b9a5081518110610c5c57610c5c611724565b6001600160f81b03199092166020928302919091019091015287610c81600482611750565b98508860008b82610c9181611763565b9c5081518110610ca357610ca3611724565b6001600160f81b03199092166020928302919091019091015286518051600090610ccf57610ccf611724565b60200260200101518b8b80610ce390611763565b9c5081518110610cf557610cf5611724565b6001600160f81b031990921660209283029190910190910152865180516001908110610d2357610d23611724565b60200260200101518b8b80610d3790611763565b9c5081518110610d4957610d49611724565b6001600160f81b031990921660209283029190910190910152865180516002908110610d7757610d77611724565b60200260200101518b8b80610d8b90611763565b9c5081518110610d9d57610d9d611724565b6001600160f81b03199092166020928302919091018201528701518051600090610dc957610dc9611724565b60200260200101518b8b80610ddd90611763565b9c5081518110610def57610def611724565b6001600160f81b031990921660209283029190910182015287015180516001908110610e1d57610e1d611724565b60200260200101518b8b80610e3190611763565b9c5081518110610e4357610e43611724565b6001600160f81b031990921660209283029190910182015287015180516002908110610e7157610e71611724565b60200260200101518b8b80610e8590611763565b9c5081518110610e9757610e97611724565b6001600160f81b03199092166020928302919091019091015260408701518051600090610ec657610ec6611724565b60200260200101518b8b80610eda90611763565b9c5081518110610eec57610eec611724565b6001600160f81b031990921660209283029190910190910152604087015180516001908110610f1d57610f1d611724565b60200260200101518b8b80610f3190611763565b9c5081518110610f4357610f43611724565b6001600160f81b031990921660209283029190910190910152604087015180516002908110610f7457610f74611724565b60200260200101518b8b80610f8890611763565b9c5081518110610f9a57610f9a611724565b6001600160f81b03199092166020928302919091019091015289610fc08c8284816113b3565b909c509a508a610fdc8d82610fd660048961180f565b846112c2565b909d509b50610ff08d87610ab0888561180f565b909d5095506110098d85611004868661180f565b611486565b909d5093506110298d8561101d868661180f565b6110049061ffff61180f565b509d9b9c505050505050505050505050565b6060600061104b848460006111c1565b909450925082604960f81b858261106181611763565b96508151811061107357611073611724565b6001600160f81b031990921660209283029190910190910152604560f81b858561109c81611763565b9650815181106110ae576110ae611724565b6001600160f81b031990921660209283029190910190910152602760f91b85856110d781611763565b9650815181106110e9576110e9611724565b6001600160f81b031990921660209283029190910190910152601160fa1b858561111281611763565b96508151811061112457611124611724565b6001600160f81b0319909216602092830291909101909101528361114a868284816112c2565b9097909650945050505050565b600083815b838110156111b857600882901c600086838151811061117d5761117d611724565b602002602001015160f81c60ff16841860ff1661010081106111a1576111a1611724565b0154189150806111b081611763565b91505061115c565b50949350505050565b606060006001600160f81b031960e084901b1685856111df81611763565b9650815181106111f1576111f1611724565b6001600160f81b0319928316602091820292909201015260e884901b16858561121981611763565b96508151811061122b5761122b611724565b6001600160f81b0319928316602091820292909201015260f084901b16858561125381611763565b96508151811061126557611265611724565b6001600160f81b0319928316602091820292909201015260f884901b16858561128d81611763565b96508151811061129f5761129f611724565b6001600160f81b0319929092166020928302919091019091015250929391925050565b60606000806112d1858561180f565b90506000808267ffffffffffffffff8111156112ef576112ef6114a4565b604051908082528060200260200182016040528015611318578160200160208202803683370190505b509050865b868110156113885789818151811061133757611337611724565b602002602001015182848061134b90611763565b95508151811061135d5761135d611724565b6001600160f81b0319909216602092830291909101909101528061138081611763565b91505061131d565b50600061139582856104fa565b90506113a28a8a836111c1565b909b909a5098505050505050505050565b60606000806113c2858561180f565b90506000808267ffffffffffffffff8111156113e0576113e06114a4565b604051908082528060200260200182016040528015611409578160200160208202803683370190505b509050865b868110156114795789818151811061142857611428611724565b602002602001015182848061143c90611763565b95508151811061144e5761144e611724565b6001600160f81b0319909216602092830291909101909101528061147181611763565b91505061140e565b50600061139582856100b2565b606060006001600160f81b031960f084901b16858561125381611763565b634e487b7160e01b600052604160045260246000fd5b6040516060810167ffffffffffffffff811182821017156114dd576114dd6114a4565b60405290565b604051601f8201601f1916810167ffffffffffffffff8111828210171561150c5761150c6114a4565b604052919050565b600082601f83011261152557600080fd5b8135602067ffffffffffffffff821115611541576115416114a4565b8160051b6115508282016114e3565b928352848101820192828101908785111561156a57600080fd5b83870192505b848310156115a05782356001600160f81b0319811681146115915760008081fd5b82529183019190830190611570565b979650505050505050565b600080604083850312156115be57600080fd5b823567ffffffffffffffff8111156115d557600080fd5b6115e185828601611514565b95602094909401359450505050565b60005b8381101561160b5781810151838201526020016115f3565b50506000910152565b6000815180845261162c8160208601602086016115f0565b601f01601f19169290920160200192915050565b6020815260006116536020830184611614565b9392505050565b60008060006060848603121561166f57600080fd5b8335925060208401359150604084013567ffffffffffffffff8082111561169557600080fd5b90850190606082880312156116a957600080fd5b6116b16114ba565b8235828111156116c057600080fd5b6116cc89828601611514565b8252506020830135828111156116e157600080fd5b6116ed89828601611514565b60208301525060408301358281111561170557600080fd5b61171189828601611514565b6040830152508093505050509250925092565b634e487b7160e01b600052603260045260246000fd5b634e487b7160e01b600052601160045260246000fd5b8082018082111561012a5761012a61173a565b6000600182016117755761177561173a565b5060010190565b808202811582820484141761012a5761012a61173a565b600082516117a58184602087016115f0565b9190910192915050565b7519185d184e9a5b5859d94bdc1b99ced8985cd94d8d0b60521b8152600082516117e08160168501602087016115f0565b9190910160160192915050565b60008261180a57634e487b7160e01b600052601260045260246000fd5b500490565b8181038181111561012a5761012a61173a56fe4142434445464748494a4b4c4d4e4f505152535455565758595a6162636465666768696a6b6c6d6e6f707172737475767778797a303132333435363738392b2fa2646970667358221220e40778a29a0c47f87c119dd855aac78077edbd9c46c5a046b18ae28e29e1e41764736f6c63430008120033",
			"opcodes": "PUSH1 0x80 PUSH1 0x40 MSTORE PUSH3 0xE PUSH3 0x14 JUMP JUMPDEST PUSH3 0xDE JUMP JUMPDEST PUSH1 0x0 JUMPDEST PUSH2 0x100 DUP2 LT ISZERO PUSH3 0x9D JUMPI DUP1 PUSH1 0x0 JUMPDEST PUSH1 0x8 DUP2 LT ISZERO PUSH3 0x6C JUMPI DUP2 PUSH1 0x1 AND PUSH1 0x1 SUB PUSH3 0x4F JUMPI PUSH1 0x1 DUP3 SWAP1 SHR PUSH4 0xEDB88320 XOR SWAP2 POP PUSH3 0x57 JUMP JUMPDEST PUSH1 0x1 DUP3 SWAP1 SHR SWAP2 POP JUMPDEST DUP1 PUSH3 0x63 DUP2 PUSH3 0xA0 JUMP JUMPDEST SWAP2 POP POP PUSH3 0x26 JUMP JUMPDEST POP DUP1 PUSH1 0x0 DUP4 PUSH2 0x100 DUP2 LT PUSH3 0x85 JUMPI PUSH3 0x85 PUSH3 0xC8 JUMP JUMPDEST ADD SSTORE POP DUP1 PUSH3 0x94 DUP2 PUSH3 0xA0 JUMP JUMPDEST SWAP2 POP POP PUSH3 0x17 JUMP JUMPDEST POP JUMP JUMPDEST PUSH1 0x0 PUSH1 0x1 DUP3 ADD PUSH3 0xC1 JUMPI PUSH4 0x4E487B71 PUSH1 0xE0 SHL PUSH1 0x0 MSTORE PUSH1 0x11 PUSH1 0x4 MSTORE PUSH1 0x24 PUSH1 0x0 REVERT JUMPDEST POP PUSH1 0x1 ADD SWAP1 JUMP JUMPDEST PUSH4 0x4E487B71 PUSH1 0xE0 SHL PUSH1 0x0 MSTORE PUSH1 0x32 PUSH1 0x4 MSTORE PUSH1 0x24 PUSH1 0x0 REVERT JUMPDEST PUSH2 0x1898 DUP1 PUSH3 0xEE PUSH1 0x0 CODECOPY PUSH1 0x0 RETURN INVALID PUSH1 0x80 PUSH1 0x40 MSTORE CALLVALUE DUP1 ISZERO PUSH2 0x10 JUMPI PUSH1 0x0 DUP1 REVERT JUMPDEST POP PUSH1 0x4 CALLDATASIZE LT PUSH2 0x4C JUMPI PUSH1 0x0 CALLDATALOAD PUSH1 0xE0 SHR DUP1 PUSH4 0x19858B36 EQ PUSH2 0x51 JUMPI DUP1 PUSH4 0x48B508B7 EQ PUSH2 0x77 JUMPI DUP1 PUSH4 0xF6D57F9E EQ PUSH2 0x8C JUMPI DUP1 PUSH4 0xFE2A3649 EQ PUSH2 0x9F JUMPI JUMPDEST PUSH1 0x0 DUP1 REVERT JUMPDEST PUSH2 0x64 PUSH2 0x5F CALLDATASIZE PUSH1 0x4 PUSH2 0x15AB JUMP JUMPDEST PUSH2 0xB2 JUMP JUMPDEST PUSH1 0x40 MLOAD SWAP1 DUP2 MSTORE PUSH1 0x20 ADD JUMPDEST PUSH1 0x40 MLOAD DUP1 SWAP2 SUB SWAP1 RETURN JUMPDEST PUSH2 0x7F PUSH2 0x130 JUMP JUMPDEST PUSH1 0x40 MLOAD PUSH2 0x6E SWAP2 SWAP1 PUSH2 0x1640 JUMP JUMPDEST PUSH2 0x7F PUSH2 0x9A CALLDATASIZE PUSH1 0x4 PUSH2 0x165A JUMP JUMPDEST PUSH2 0x3E0 JUMP JUMPDEST PUSH2 0x64 PUSH2 0xAD CALLDATASIZE PUSH1 0x4 PUSH2 0x15AB JUMP JUMPDEST PUSH2 0x4FA JUMP JUMPDEST PUSH1 0x0 PUSH1 0x1 DUP2 DUP1 JUMPDEST DUP5 DUP2 LT ISZERO PUSH2 0x10C JUMPI DUP6 DUP2 DUP2 MLOAD DUP2 LT PUSH2 0xD3 JUMPI PUSH2 0xD3 PUSH2 0x1724 JUMP JUMPDEST PUSH1 0x20 MUL PUSH1 0x20 ADD ADD MLOAD PUSH1 0xF8 SHR PUSH1 0xFF AND DUP4 PUSH2 0xEC SWAP2 SWAP1 PUSH2 0x1750 JUMP JUMPDEST SWAP3 POP PUSH2 0xF8 DUP4 DUP4 PUSH2 0x1750 JUMP JUMPDEST SWAP2 POP DUP1 PUSH2 0x104 DUP2 PUSH2 0x1763 JUMP JUMPDEST SWAP2 POP POP PUSH2 0xB9 JUMP JUMPDEST POP DUP2 PUSH2 0x11B DUP3 PUSH3 0x10000 PUSH2 0x177C JUMP JUMPDEST PUSH2 0x125 SWAP2 SWAP1 PUSH2 0x1750 JUMP JUMPDEST SWAP3 POP POP POP JUMPDEST SWAP3 SWAP2 POP POP JUMP JUMPDEST PUSH1 0x40 DUP1 MLOAD PUSH1 0x3 PUSH1 0x60 DUP1 DUP4 ADD DUP3 DUP2 MSTORE PUSH1 0xE0 DUP5 ADD SWAP1 SWAP5 MSTORE SWAP3 PUSH1 0x0 SWAP3 SWAP2 DUP3 SWAP2 SWAP1 PUSH1 0x80 DUP4 ADD DUP7 DUP1 CALLDATASIZE DUP4 CALLDATACOPY POP POP POP DUP2 MSTORE PUSH1 0x40 DUP1 MLOAD PUSH1 0x3 DUP1 DUP3 MSTORE PUSH1 0x80 DUP3 ADD SWAP1 SWAP3 MSTORE PUSH1 0x20 SWAP3 DUP4 ADD SWAP3 SWAP1 SWAP2 SWAP1 DUP3 ADD PUSH1 0x60 DUP1 CALLDATASIZE DUP4 CALLDATACOPY POP POP POP DUP2 MSTORE PUSH1 0x40 DUP1 MLOAD PUSH1 0x3 DUP1 DUP3 MSTORE PUSH1 0x80 DUP3 ADD SWAP1 SWAP3 MSTORE PUSH1 0x20 SWAP3 DUP4 ADD SWAP3 SWAP1 SWAP2 SWAP1 DUP3 ADD PUSH1 0x60 DUP1 CALLDATASIZE DUP4 CALLDATACOPY POP POP POP SWAP1 MSTORE DUP1 MLOAD DUP1 MLOAD SWAP2 SWAP3 POP PUSH1 0x1 PUSH1 0x1 PUSH1 0xF8 SHL SUB NOT SWAP2 PUSH1 0x0 SWAP1 PUSH2 0x1C7 JUMPI PUSH2 0x1C7 PUSH2 0x1724 JUMP JUMPDEST PUSH1 0x1 PUSH1 0x1 PUSH1 0xF8 SHL SUB NOT SWAP1 SWAP3 AND PUSH1 0x20 SWAP3 DUP4 MUL SWAP2 SWAP1 SWAP2 ADD SWAP1 SWAP2 ADD MSTORE DUP1 MLOAD DUP1 MLOAD PUSH1 0x0 SWAP2 SWAP1 PUSH1 0x1 SWAP1 DUP2 LT PUSH2 0x1F9 JUMPI PUSH2 0x1F9 PUSH2 0x1724 JUMP JUMPDEST PUSH1 0x1 PUSH1 0x1 PUSH1 0xF8 SHL SUB NOT SWAP1 SWAP3 AND PUSH1 0x20 SWAP3 DUP4 MUL SWAP2 SWAP1 SWAP2 ADD SWAP1 SWAP2 ADD MSTORE DUP1 MLOAD DUP1 MLOAD PUSH1 0x0 SWAP2 SWAP1 PUSH1 0x2 SWAP1 DUP2 LT PUSH2 0x22B JUMPI PUSH2 0x22B PUSH2 0x1724 JUMP JUMPDEST PUSH1 0x1 PUSH1 0x1 PUSH1 0xF8 SHL SUB NOT SWAP1 SWAP3 AND PUSH1 0x20 SWAP3 DUP4 MUL SWAP2 SWAP1 SWAP2 ADD DUP3 ADD MSTORE DUP2 ADD MLOAD DUP1 MLOAD PUSH1 0x0 SWAP2 SWAP1 DUP3 SWAP1 PUSH2 0x25A JUMPI PUSH2 0x25A PUSH2 0x1724 JUMP JUMPDEST PUSH1 0x1 PUSH1 0x1 PUSH1 0xF8 SHL SUB NOT SWAP3 DUP4 AND PUSH1 0x20 SWAP2 DUP3 MUL SWAP3 SWAP1 SWAP3 ADD DUP2 ADD SWAP2 SWAP1 SWAP2 MSTORE DUP3 ADD MLOAD DUP1 MLOAD PUSH1 0x1 SWAP1 DUP2 LT PUSH2 0x28B JUMPI PUSH2 0x28B PUSH2 0x1724 JUMP JUMPDEST PUSH1 0x1 PUSH1 0x1 PUSH1 0xF8 SHL SUB NOT SWAP1 SWAP3 AND PUSH1 0x20 SWAP3 DUP4 MUL SWAP2 SWAP1 SWAP2 ADD DUP3 ADD MSTORE DUP2 ADD MLOAD DUP1 MLOAD PUSH1 0x0 SWAP2 SWAP1 PUSH1 0x2 SWAP1 DUP2 LT PUSH2 0x2BD JUMPI PUSH2 0x2BD PUSH2 0x1724 JUMP JUMPDEST PUSH1 0x20 MUL PUSH1 0x20 ADD ADD SWAP1 PUSH1 0x1 PUSH1 0x1 PUSH1 0xF8 SHL SUB NOT AND SWAP1 DUP2 PUSH1 0x1 PUSH1 0x1 PUSH1 0xF8 SHL SUB NOT AND DUP2 MSTORE POP POP PUSH1 0x0 DUP2 PUSH1 0x40 ADD MLOAD PUSH1 0x0 DUP2 MLOAD DUP2 LT PUSH2 0x2F8 JUMPI PUSH2 0x2F8 PUSH2 0x1724 JUMP JUMPDEST PUSH1 0x20 MUL PUSH1 0x20 ADD ADD SWAP1 PUSH1 0x1 PUSH1 0x1 PUSH1 0xF8 SHL SUB NOT AND SWAP1 DUP2 PUSH1 0x1 PUSH1 0x1 PUSH1 0xF8 SHL SUB NOT AND DUP2 MSTORE POP POP PUSH1 0x0 DUP2 PUSH1 0x40 ADD MLOAD PUSH1 0x1 DUP2 MLOAD DUP2 LT PUSH2 0x333 JUMPI PUSH2 0x333 PUSH2 0x1724 JUMP JUMPDEST PUSH1 0x1 PUSH1 0x1 PUSH1 0xF8 SHL SUB NOT SWAP3 DUP4 AND PUSH1 0x20 SWAP2 DUP3 MUL SWAP3 SWAP1 SWAP3 ADD ADD MSTORE PUSH1 0x40 DUP3 ADD MLOAD DUP1 MLOAD PUSH1 0x2 SWAP1 DUP2 LT PUSH2 0x362 JUMPI PUSH2 0x362 PUSH2 0x1724 JUMP JUMPDEST PUSH1 0x1 PUSH1 0x1 PUSH1 0xF8 SHL SUB NOT SWAP1 SWAP3 AND PUSH1 0x20 SWAP3 DUP4 MUL SWAP2 SWAP1 SWAP2 ADD SWAP1 SWAP2 ADD MSTORE PUSH1 0x0 PUSH2 0x38A PUSH1 0x3 PUSH1 0x1 DUP5 PUSH2 0x3E0 JUMP JUMPDEST SWAP1 POP PUSH1 0x0 DUP2 SWAP1 POP PUSH2 0x3B9 DUP2 PUSH1 0x40 MLOAD PUSH1 0x20 ADD PUSH2 0x3A5 SWAP2 SWAP1 PUSH2 0x1793 JUMP JUMPDEST PUSH1 0x40 MLOAD PUSH1 0x20 DUP2 DUP4 SUB SUB DUP2 MSTORE SWAP1 PUSH1 0x40 MSTORE PUSH2 0x518 JUMP JUMPDEST PUSH1 0x40 MLOAD PUSH1 0x20 ADD PUSH2 0x3C9 SWAP2 SWAP1 PUSH2 0x17AF JUMP JUMPDEST PUSH1 0x40 MLOAD PUSH1 0x20 DUP2 DUP4 SUB SUB DUP2 MSTORE SWAP1 PUSH1 0x40 MSTORE SWAP4 POP POP POP POP SWAP1 JUMP JUMPDEST PUSH1 0x40 DUP1 MLOAD PUSH1 0x64 DUP1 DUP3 MSTORE PUSH2 0xCA0 DUP3 ADD SWAP1 SWAP3 MSTORE PUSH1 0x60 SWAP2 PUSH1 0x0 SWAP2 DUP3 SWAP2 PUSH1 0x20 DUP3 ADD PUSH2 0xC80 DUP1 CALLDATASIZE DUP4 CALLDATACOPY ADD SWAP1 POP POP SWAP1 POP PUSH2 0x414 DUP2 DUP4 PUSH2 0x66B JUMP JUMPDEST SWAP3 POP SWAP1 POP PUSH2 0x424 DUP2 DUP4 DUP9 DUP9 PUSH2 0x850 JUMP JUMPDEST SWAP3 POP SWAP1 POP PUSH2 0x435 DUP2 DUP4 DUP9 DUP9 DUP9 PUSH2 0xAC5 JUMP JUMPDEST SWAP3 POP SWAP1 POP PUSH2 0x443 DUP2 DUP4 PUSH2 0x103B JUMP JUMPDEST SWAP3 POP SWAP1 POP PUSH1 0x0 DUP3 PUSH8 0xFFFFFFFFFFFFFFFF DUP2 GT ISZERO PUSH2 0x462 JUMPI PUSH2 0x462 PUSH2 0x14A4 JUMP JUMPDEST PUSH1 0x40 MLOAD SWAP1 DUP1 DUP3 MSTORE DUP1 PUSH1 0x1F ADD PUSH1 0x1F NOT AND PUSH1 0x20 ADD DUP3 ADD PUSH1 0x40 MSTORE DUP1 ISZERO PUSH2 0x48C JUMPI PUSH1 0x20 DUP3 ADD DUP2 DUP1 CALLDATASIZE DUP4 CALLDATACOPY ADD SWAP1 POP JUMPDEST POP SWAP1 POP PUSH1 0x0 JUMPDEST DUP4 DUP2 LT ISZERO PUSH2 0x4EF JUMPI DUP3 DUP2 DUP2 MLOAD DUP2 LT PUSH2 0x4AC JUMPI PUSH2 0x4AC PUSH2 0x1724 JUMP JUMPDEST PUSH1 0x20 MUL PUSH1 0x20 ADD ADD MLOAD DUP3 DUP3 DUP2 MLOAD DUP2 LT PUSH2 0x4C6 JUMPI PUSH2 0x4C6 PUSH2 0x1724 JUMP JUMPDEST PUSH1 0x20 ADD ADD SWAP1 PUSH1 0x1 PUSH1 0x1 PUSH1 0xF8 SHL SUB NOT AND SWAP1 DUP2 PUSH1 0x0 BYTE SWAP1 MSTORE8 POP DUP1 PUSH2 0x4E7 DUP2 PUSH2 0x1763 JUMP JUMPDEST SWAP2 POP POP PUSH2 0x492 JUMP JUMPDEST POP SWAP7 SWAP6 POP POP POP POP POP POP JUMP JUMPDEST PUSH1 0x0 PUSH2 0x50B PUSH4 0xFFFFFFFF DUP5 DUP5 PUSH2 0x1157 JUMP JUMPDEST PUSH4 0xFFFFFFFF XOR SWAP4 SWAP3 POP POP POP JUMP JUMPDEST PUSH1 0x60 DUP2 MLOAD PUSH1 0x0 SUB PUSH2 0x537 JUMPI POP POP PUSH1 0x40 DUP1 MLOAD PUSH1 0x20 DUP2 ADD SWAP1 SWAP2 MSTORE PUSH1 0x0 DUP2 MSTORE SWAP1 JUMP JUMPDEST PUSH1 0x0 PUSH1 0x40 MLOAD DUP1 PUSH1 0x60 ADD PUSH1 0x40 MSTORE DUP1 PUSH1 0x40 DUP2 MSTORE PUSH1 0x20 ADD PUSH2 0x1823 PUSH1 0x40 SWAP2 CODECOPY SWAP1 POP PUSH1 0x0 PUSH1 0x3 DUP5 MLOAD PUSH1 0x2 PUSH2 0x566 SWAP2 SWAP1 PUSH2 0x1750 JUMP JUMPDEST PUSH2 0x570 SWAP2 SWAP1 PUSH2 0x17ED JUMP JUMPDEST PUSH2 0x57B SWAP1 PUSH1 0x4 PUSH2 0x177C JUMP JUMPDEST PUSH8 0xFFFFFFFFFFFFFFFF DUP2 GT ISZERO PUSH2 0x593 JUMPI PUSH2 0x593 PUSH2 0x14A4 JUMP JUMPDEST PUSH1 0x40 MLOAD SWAP1 DUP1 DUP3 MSTORE DUP1 PUSH1 0x1F ADD PUSH1 0x1F NOT AND PUSH1 0x20 ADD DUP3 ADD PUSH1 0x40 MSTORE DUP1 ISZERO PUSH2 0x5BD JUMPI PUSH1 0x20 DUP3 ADD DUP2 DUP1 CALLDATASIZE DUP4 CALLDATACOPY ADD SWAP1 POP JUMPDEST POP SWAP1 POP PUSH1 0x1 DUP3 ADD PUSH1 0x20 DUP3 ADD DUP6 DUP7 MLOAD DUP8 ADD JUMPDEST DUP1 DUP3 LT ISZERO PUSH2 0x629 JUMPI PUSH1 0x3 DUP3 ADD SWAP2 POP DUP2 MLOAD PUSH1 0x3F DUP2 PUSH1 0x12 SHR AND DUP6 ADD MLOAD DUP5 MSTORE8 PUSH1 0x1 DUP5 ADD SWAP4 POP PUSH1 0x3F DUP2 PUSH1 0xC SHR AND DUP6 ADD MLOAD DUP5 MSTORE8 PUSH1 0x1 DUP5 ADD SWAP4 POP PUSH1 0x3F DUP2 PUSH1 0x6 SHR AND DUP6 ADD MLOAD DUP5 MSTORE8 PUSH1 0x1 DUP5 ADD SWAP4 POP PUSH1 0x3F DUP2 AND DUP6 ADD MLOAD DUP5 MSTORE8 POP PUSH1 0x1 DUP4 ADD SWAP3 POP PUSH2 0x5CE JUMP JUMPDEST POP POP PUSH1 0x3 DUP7 MLOAD MOD PUSH1 0x1 DUP2 EQ PUSH2 0x645 JUMPI PUSH1 0x2 DUP2 EQ PUSH2 0x658 JUMPI PUSH2 0x660 JUMP JUMPDEST PUSH1 0x3D PUSH1 0x1 DUP4 SUB MSTORE8 PUSH1 0x3D PUSH1 0x2 DUP4 SUB MSTORE8 PUSH2 0x660 JUMP JUMPDEST PUSH1 0x3D PUSH1 0x1 DUP4 SUB MSTORE8 JUMPDEST POP SWAP2 SWAP6 SWAP5 POP POP POP POP POP JUMP JUMPDEST PUSH1 0x60 PUSH1 0x0 PUSH1 0x89 PUSH1 0xF8 SHL DUP5 DUP5 PUSH2 0x67F DUP2 PUSH2 0x1763 JUMP JUMPDEST SWAP6 POP DUP2 MLOAD DUP2 LT PUSH2 0x691 JUMPI PUSH2 0x691 PUSH2 0x1724 JUMP JUMPDEST PUSH1 0x1 PUSH1 0x1 PUSH1 0xF8 SHL SUB NOT SWAP1 SWAP3 AND PUSH1 0x20 SWAP3 DUP4 MUL SWAP2 SWAP1 SWAP2 ADD SWAP1 SWAP2 ADD MSTORE PUSH1 0x5 PUSH1 0xFC SHL DUP5 DUP5 PUSH2 0x6BA DUP2 PUSH2 0x1763 JUMP JUMPDEST SWAP6 POP DUP2 MLOAD DUP2 LT PUSH2 0x6CC JUMPI PUSH2 0x6CC PUSH2 0x1724 JUMP JUMPDEST PUSH1 0x1 PUSH1 0x1 PUSH1 0xF8 SHL SUB NOT SWAP1 SWAP3 AND PUSH1 0x20 SWAP3 DUP4 MUL SWAP2 SWAP1 SWAP2 ADD SWAP1 SWAP2 ADD MSTORE PUSH1 0x27 PUSH1 0xF9 SHL DUP5 DUP5 PUSH2 0x6F5 DUP2 PUSH2 0x1763 JUMP JUMPDEST SWAP6 POP DUP2 MLOAD DUP2 LT PUSH2 0x707 JUMPI PUSH2 0x707 PUSH2 0x1724 JUMP JUMPDEST PUSH1 0x1 PUSH1 0x1 PUSH1 0xF8 SHL SUB NOT SWAP1 SWAP3 AND PUSH1 0x20 SWAP3 DUP4 MUL SWAP2 SWAP1 SWAP2 ADD SWAP1 SWAP2 ADD MSTORE PUSH1 0x47 PUSH1 0xF8 SHL DUP5 DUP5 PUSH2 0x730 DUP2 PUSH2 0x1763 JUMP JUMPDEST SWAP6 POP DUP2 MLOAD DUP2 LT PUSH2 0x742 JUMPI PUSH2 0x742 PUSH2 0x1724 JUMP JUMPDEST PUSH1 0x1 PUSH1 0x1 PUSH1 0xF8 SHL SUB NOT SWAP1 SWAP3 AND PUSH1 0x20 SWAP3 DUP4 MUL SWAP2 SWAP1 SWAP2 ADD SWAP1 SWAP2 ADD MSTORE PUSH1 0xD PUSH1 0xF8 SHL DUP5 DUP5 PUSH2 0x76B DUP2 PUSH2 0x1763 JUMP JUMPDEST SWAP6 POP DUP2 MLOAD DUP2 LT PUSH2 0x77D JUMPI PUSH2 0x77D PUSH2 0x1724 JUMP JUMPDEST PUSH1 0x1 PUSH1 0x1 PUSH1 0xF8 SHL SUB NOT SWAP1 SWAP3 AND PUSH1 0x20 SWAP3 DUP4 MUL SWAP2 SWAP1 SWAP2 ADD SWAP1 SWAP2 ADD MSTORE PUSH1 0x5 PUSH1 0xF9 SHL DUP5 DUP5 PUSH2 0x7A6 DUP2 PUSH2 0x1763 JUMP JUMPDEST SWAP6 POP DUP2 MLOAD DUP2 LT PUSH2 0x7B8 JUMPI PUSH2 0x7B8 PUSH2 0x1724 JUMP JUMPDEST PUSH1 0x1 PUSH1 0x1 PUSH1 0xF8 SHL SUB NOT SWAP1 SWAP3 AND PUSH1 0x20 SWAP3 DUP4 MUL SWAP2 SWAP1 SWAP2 ADD SWAP1 SWAP2 ADD MSTORE PUSH1 0xD PUSH1 0xF9 SHL DUP5 DUP5 PUSH2 0x7E1 DUP2 PUSH2 0x1763 JUMP JUMPDEST SWAP6 POP DUP2 MLOAD DUP2 LT PUSH2 0x7F3 JUMPI PUSH2 0x7F3 PUSH2 0x1724 JUMP JUMPDEST PUSH1 0x1 PUSH1 0x1 PUSH1 0xF8 SHL SUB NOT SWAP1 SWAP3 AND PUSH1 0x20 SWAP3 DUP4 MUL SWAP2 SWAP1 SWAP2 ADD SWAP1 SWAP2 ADD MSTORE PUSH1 0x5 PUSH1 0xF9 SHL DUP5 DUP5 PUSH2 0x81C DUP2 PUSH2 0x1763 JUMP JUMPDEST SWAP6 POP DUP2 MLOAD DUP2 LT PUSH2 0x82E JUMPI PUSH2 0x82E PUSH2 0x1724 JUMP JUMPDEST PUSH1 0x1 PUSH1 0x1 PUSH1 0xF8 SHL SUB NOT SWAP3 SWAP1 SWAP3 AND PUSH1 0x20 SWAP3 DUP4 MUL SWAP2 SWAP1 SWAP2 ADD SWAP1 SWAP2 ADD MSTORE POP SWAP2 SWAP3 SWAP1 SWAP2 POP JUMP JUMPDEST PUSH1 0x60 PUSH1 0x0 DUP5 PUSH2 0x860 PUSH1 0x4 DUP3 PUSH2 0x1750 JUMP JUMPDEST SWAP6 POP DUP6 PUSH1 0x49 PUSH1 0xF8 SHL DUP9 DUP3 PUSH2 0x873 DUP2 PUSH2 0x1763 JUMP JUMPDEST SWAP10 POP DUP2 MLOAD DUP2 LT PUSH2 0x885 JUMPI PUSH2 0x885 PUSH2 0x1724 JUMP JUMPDEST PUSH1 0x1 PUSH1 0x1 PUSH1 0xF8 SHL SUB NOT SWAP1 SWAP3 AND PUSH1 0x20 SWAP3 DUP4 MUL SWAP2 SWAP1 SWAP2 ADD SWAP1 SWAP2 ADD MSTORE PUSH1 0x9 PUSH1 0xFB SHL DUP9 DUP9 PUSH2 0x8AE DUP2 PUSH2 0x1763 JUMP JUMPDEST SWAP10 POP DUP2 MLOAD DUP2 LT PUSH2 0x8C0 JUMPI PUSH2 0x8C0 PUSH2 0x1724 JUMP JUMPDEST PUSH1 0x1 PUSH1 0x1 PUSH1 0xF8 SHL SUB NOT SWAP1 SWAP3 AND PUSH1 0x20 SWAP3 DUP4 MUL SWAP2 SWAP1 SWAP2 ADD SWAP1 SWAP2 ADD MSTORE PUSH1 0x11 PUSH1 0xFA SHL DUP9 DUP9 PUSH2 0x8E9 DUP2 PUSH2 0x1763 JUMP JUMPDEST SWAP10 POP DUP2 MLOAD DUP2 LT PUSH2 0x8FB JUMPI PUSH2 0x8FB PUSH2 0x1724 JUMP JUMPDEST PUSH1 0x1 PUSH1 0x1 PUSH1 0xF8 SHL SUB NOT SWAP1 SWAP3 AND PUSH1 0x20 SWAP3 DUP4 MUL SWAP2 SWAP1 SWAP2 ADD SWAP1 SWAP2 ADD MSTORE PUSH1 0x29 PUSH1 0xF9 SHL DUP9 DUP9 PUSH2 0x924 DUP2 PUSH2 0x1763 JUMP JUMPDEST SWAP10 POP DUP2 MLOAD DUP2 LT PUSH2 0x936 JUMPI PUSH2 0x936 PUSH2 0x1724 JUMP JUMPDEST PUSH1 0x1 PUSH1 0x1 PUSH1 0xF8 SHL SUB NOT SWAP1 SWAP3 AND PUSH1 0x20 SWAP3 DUP4 MUL SWAP2 SWAP1 SWAP2 ADD SWAP1 SWAP2 ADD MSTORE DUP7 PUSH2 0x95B DUP10 DUP3 DUP10 PUSH2 0x11C1 JUMP JUMPDEST SWAP1 SWAP10 POP SWAP8 POP PUSH2 0x96B DUP10 DUP10 DUP9 PUSH2 0x11C1 JUMP JUMPDEST SWAP1 SWAP10 POP SWAP8 POP PUSH1 0x1 PUSH1 0xFB SHL DUP10 DUP10 PUSH2 0x980 DUP2 PUSH2 0x1763 JUMP JUMPDEST SWAP11 POP DUP2 MLOAD DUP2 LT PUSH2 0x992 JUMPI PUSH2 0x992 PUSH2 0x1724 JUMP JUMPDEST PUSH1 0x1 PUSH1 0x1 PUSH1 0xF8 SHL SUB NOT SWAP1 SWAP3 AND PUSH1 0x20 SWAP3 DUP4 MUL SWAP2 SWAP1 SWAP2 ADD SWAP1 SWAP2 ADD MSTORE PUSH1 0x1 PUSH1 0xF9 SHL DUP10 DUP10 PUSH2 0x9BB DUP2 PUSH2 0x1763 JUMP JUMPDEST SWAP11 POP DUP2 MLOAD DUP2 LT PUSH2 0x9CD JUMPI PUSH2 0x9CD PUSH2 0x1724 JUMP JUMPDEST PUSH1 0x1 PUSH1 0x1 PUSH1 0xF8 SHL SUB NOT SWAP1 SWAP3 AND PUSH1 0x20 SWAP3 DUP4 MUL SWAP2 SWAP1 SWAP2 ADD SWAP1 SWAP2 ADD MSTORE PUSH1 0x0 DUP10 DUP10 PUSH2 0x9F3 DUP2 PUSH2 0x1763 JUMP JUMPDEST SWAP11 POP DUP2 MLOAD DUP2 LT PUSH2 0xA05 JUMPI PUSH2 0xA05 PUSH2 0x1724 JUMP JUMPDEST PUSH1 0x1 PUSH1 0x1 PUSH1 0xF8 SHL SUB NOT SWAP1 SWAP3 AND PUSH1 0x20 SWAP3 DUP4 MUL SWAP2 SWAP1 SWAP2 ADD SWAP1 SWAP2 ADD MSTORE PUSH1 0x0 DUP10 DUP10 PUSH2 0xA2B DUP2 PUSH2 0x1763 JUMP JUMPDEST SWAP11 POP DUP2 MLOAD DUP2 LT PUSH2 0xA3D JUMPI PUSH2 0xA3D PUSH2 0x1724 JUMP JUMPDEST PUSH1 0x1 PUSH1 0x1 PUSH1 0xF8 SHL SUB NOT SWAP1 SWAP3 AND PUSH1 0x20 SWAP3 DUP4 MUL SWAP2 SWAP1 SWAP2 ADD SWAP1 SWAP2 ADD MSTORE PUSH1 0x0 DUP10 DUP10 PUSH2 0xA63 DUP2 PUSH2 0x1763 JUMP JUMPDEST SWAP11 POP DUP2 MLOAD DUP2 LT PUSH2 0xA75 JUMPI PUSH2 0xA75 PUSH2 0x1724 JUMP JUMPDEST PUSH1 0x1 PUSH1 0x1 PUSH1 0xF8 SHL SUB NOT SWAP1 SWAP3 AND PUSH1 0x20 SWAP3 DUP4 MUL SWAP2 SWAP1 SWAP2 ADD SWAP1 SWAP2 ADD MSTORE DUP8 DUP1 PUSH2 0xA9C DUP12 DUP3 DUP7 DUP2 PUSH2 0x12C2 JUMP JUMPDEST SWAP1 SWAP12 POP SWAP10 POP PUSH2 0xAB5 DUP12 DUP7 PUSH2 0xAB0 DUP7 DUP7 PUSH2 0x180F JUMP JUMPDEST PUSH2 0x11C1 JUMP JUMPDEST POP SWAP12 SWAP10 SWAP11 POP POP POP POP POP POP POP POP POP POP JUMP JUMPDEST PUSH1 0x60 PUSH1 0x0 DUP6 PUSH2 0xAD5 PUSH1 0x4 DUP3 PUSH2 0x1750 JUMP JUMPDEST SWAP7 POP PUSH1 0x49 PUSH1 0xF8 SHL DUP9 DUP9 PUSH2 0xAE7 DUP2 PUSH2 0x1763 JUMP JUMPDEST SWAP10 POP DUP2 MLOAD DUP2 LT PUSH2 0xAF9 JUMPI PUSH2 0xAF9 PUSH2 0x1724 JUMP JUMPDEST PUSH1 0x1 PUSH1 0x1 PUSH1 0xF8 SHL SUB NOT SWAP1 SWAP3 AND PUSH1 0x20 SWAP3 DUP4 MUL SWAP2 SWAP1 SWAP2 ADD SWAP1 SWAP2 ADD MSTORE PUSH1 0x11 PUSH1 0xFA SHL DUP9 DUP9 PUSH2 0xB22 DUP2 PUSH2 0x1763 JUMP JUMPDEST SWAP10 POP DUP2 MLOAD DUP2 LT PUSH2 0xB34 JUMPI PUSH2 0xB34 PUSH2 0x1724 JUMP JUMPDEST PUSH1 0x1 PUSH1 0x1 PUSH1 0xF8 SHL SUB NOT SWAP1 SWAP3 AND PUSH1 0x20 SWAP3 DUP4 MUL SWAP2 SWAP1 SWAP2 ADD SWAP1 SWAP2 ADD MSTORE PUSH1 0x41 PUSH1 0xF8 SHL DUP9 DUP9 PUSH2 0xB5D DUP2 PUSH2 0x1763 JUMP JUMPDEST SWAP10 POP DUP2 MLOAD DUP2 LT PUSH2 0xB6F JUMPI PUSH2 0xB6F PUSH2 0x1724 JUMP JUMPDEST PUSH1 0x1 PUSH1 0x1 PUSH1 0xF8 SHL SUB NOT SWAP1 SWAP3 AND PUSH1 0x20 SWAP3 DUP4 MUL SWAP2 SWAP1 SWAP2 ADD SWAP1 SWAP2 ADD MSTORE PUSH1 0x15 PUSH1 0xFA SHL DUP9 DUP9 PUSH2 0xB98 DUP2 PUSH2 0x1763 JUMP JUMPDEST SWAP10 POP DUP2 MLOAD DUP2 LT PUSH2 0xBAA JUMPI PUSH2 0xBAA PUSH2 0x1724 JUMP JUMPDEST PUSH1 0x1 PUSH1 0x1 PUSH1 0xF8 SHL SUB NOT SWAP1 SWAP3 AND PUSH1 0x20 SWAP3 DUP4 MUL SWAP2 SWAP1 SWAP2 ADD SWAP1 SWAP2 ADD MSTORE DUP7 PUSH1 0xF PUSH1 0xFB SHL DUP10 DUP3 PUSH2 0xBD4 DUP2 PUSH2 0x1763 JUMP JUMPDEST SWAP11 POP DUP2 MLOAD DUP2 LT PUSH2 0xBE6 JUMPI PUSH2 0xBE6 PUSH2 0x1724 JUMP JUMPDEST PUSH1 0x1 PUSH1 0x1 PUSH1 0xF8 SHL SUB NOT SWAP1 SWAP3 AND PUSH1 0x20 SWAP3 DUP4 MUL SWAP2 SWAP1 SWAP2 ADD SWAP1 SWAP2 ADD MSTORE PUSH1 0x1 PUSH1 0xF8 SHL DUP10 DUP10 PUSH2 0xC0F DUP2 PUSH2 0x1763 JUMP JUMPDEST SWAP11 POP DUP2 MLOAD DUP2 LT PUSH2 0xC21 JUMPI PUSH2 0xC21 PUSH2 0x1724 JUMP JUMPDEST PUSH1 0x1 PUSH1 0x1 PUSH1 0xF8 SHL SUB NOT SWAP1 SWAP3 AND PUSH1 0x20 SWAP3 DUP4 MUL SWAP2 SWAP1 SWAP2 ADD SWAP1 SWAP2 ADD MSTORE PUSH1 0x1 PUSH1 0xF8 SHL DUP10 DUP10 PUSH2 0xC4A DUP2 PUSH2 0x1763 JUMP JUMPDEST SWAP11 POP DUP2 MLOAD DUP2 LT PUSH2 0xC5C JUMPI PUSH2 0xC5C PUSH2 0x1724 JUMP JUMPDEST PUSH1 0x1 PUSH1 0x1 PUSH1 0xF8 SHL SUB NOT SWAP1 SWAP3 AND PUSH1 0x20 SWAP3 DUP4 MUL SWAP2 SWAP1 SWAP2 ADD SWAP1 SWAP2 ADD MSTORE DUP8 PUSH2 0xC81 PUSH1 0x4 DUP3 PUSH2 0x1750 JUMP JUMPDEST SWAP9 POP DUP9 PUSH1 0x0 DUP12 DUP3 PUSH2 0xC91 DUP2 PUSH2 0x1763 JUMP JUMPDEST SWAP13 POP DUP2 MLOAD DUP2 LT PUSH2 0xCA3 JUMPI PUSH2 0xCA3 PUSH2 0x1724 JUMP JUMPDEST PUSH1 0x1 PUSH1 0x1 PUSH1 0xF8 SHL SUB NOT SWAP1 SWAP3 AND PUSH1 0x20 SWAP3 DUP4 MUL SWAP2 SWAP1 SWAP2 ADD SWAP1 SWAP2 ADD MSTORE DUP7 MLOAD DUP1 MLOAD PUSH1 0x0 SWAP1 PUSH2 0xCCF JUMPI PUSH2 0xCCF PUSH2 0x1724 JUMP JUMPDEST PUSH1 0x20 MUL PUSH1 0x20 ADD ADD MLOAD DUP12 DUP12 DUP1 PUSH2 0xCE3 SWAP1 PUSH2 0x1763 JUMP JUMPDEST SWAP13 POP DUP2 MLOAD DUP2 LT PUSH2 0xCF5 JUMPI PUSH2 0xCF5 PUSH2 0x1724 JUMP JUMPDEST PUSH1 0x1 PUSH1 0x1 PUSH1 0xF8 SHL SUB NOT SWAP1 SWAP3 AND PUSH1 0x20 SWAP3 DUP4 MUL SWAP2 SWAP1 SWAP2 ADD SWAP1 SWAP2 ADD MSTORE DUP7 MLOAD DUP1 MLOAD PUSH1 0x1 SWAP1 DUP2 LT PUSH2 0xD23 JUMPI PUSH2 0xD23 PUSH2 0x1724 JUMP JUMPDEST PUSH1 0x20 MUL PUSH1 0x20 ADD ADD MLOAD DUP12 DUP12 DUP1 PUSH2 0xD37 SWAP1 PUSH2 0x1763 JUMP JUMPDEST SWAP13 POP DUP2 MLOAD DUP2 LT PUSH2 0xD49 JUMPI PUSH2 0xD49 PUSH2 0x1724 JUMP JUMPDEST PUSH1 0x1 PUSH1 0x1 PUSH1 0xF8 SHL SUB NOT SWAP1 SWAP3 AND PUSH1 0x20 SWAP3 DUP4 MUL SWAP2 SWAP1 SWAP2 ADD SWAP1 SWAP2 ADD MSTORE DUP7 MLOAD DUP1 MLOAD PUSH1 0x2 SWAP1 DUP2 LT PUSH2 0xD77 JUMPI PUSH2 0xD77 PUSH2 0x1724 JUMP JUMPDEST PUSH1 0x20 MUL PUSH1 0x20 ADD ADD MLOAD DUP12 DUP12 DUP1 PUSH2 0xD8B SWAP1 PUSH2 0x1763 JUMP JUMPDEST SWAP13 POP DUP2 MLOAD DUP2 LT PUSH2 0xD9D JUMPI PUSH2 0xD9D PUSH2 0x1724 JUMP JUMPDEST PUSH1 0x1 PUSH1 0x1 PUSH1 0xF8 SHL SUB NOT SWAP1 SWAP3 AND PUSH1 0x20 SWAP3 DUP4 MUL SWAP2 SWAP1 SWAP2 ADD DUP3 ADD MSTORE DUP8 ADD MLOAD DUP1 MLOAD PUSH1 0x0 SWAP1 PUSH2 0xDC9 JUMPI PUSH2 0xDC9 PUSH2 0x1724 JUMP JUMPDEST PUSH1 0x20 MUL PUSH1 0x20 ADD ADD MLOAD DUP12 DUP12 DUP1 PUSH2 0xDDD SWAP1 PUSH2 0x1763 JUMP JUMPDEST SWAP13 POP DUP2 MLOAD DUP2 LT PUSH2 0xDEF JUMPI PUSH2 0xDEF PUSH2 0x1724 JUMP JUMPDEST PUSH1 0x1 PUSH1 0x1 PUSH1 0xF8 SHL SUB NOT SWAP1 SWAP3 AND PUSH1 0x20 SWAP3 DUP4 MUL SWAP2 SWAP1 SWAP2 ADD DUP3 ADD MSTORE DUP8 ADD MLOAD DUP1 MLOAD PUSH1 0x1 SWAP1 DUP2 LT PUSH2 0xE1D JUMPI PUSH2 0xE1D PUSH2 0x1724 JUMP JUMPDEST PUSH1 0x20 MUL PUSH1 0x20 ADD ADD MLOAD DUP12 DUP12 DUP1 PUSH2 0xE31 SWAP1 PUSH2 0x1763 JUMP JUMPDEST SWAP13 POP DUP2 MLOAD DUP2 LT PUSH2 0xE43 JUMPI PUSH2 0xE43 PUSH2 0x1724 JUMP JUMPDEST PUSH1 0x1 PUSH1 0x1 PUSH1 0xF8 SHL SUB NOT SWAP1 SWAP3 AND PUSH1 0x20 SWAP3 DUP4 MUL SWAP2 SWAP1 SWAP2 ADD DUP3 ADD MSTORE DUP8 ADD MLOAD DUP1 MLOAD PUSH1 0x2 SWAP1 DUP2 LT PUSH2 0xE71 JUMPI PUSH2 0xE71 PUSH2 0x1724 JUMP JUMPDEST PUSH1 0x20 MUL PUSH1 0x20 ADD ADD MLOAD DUP12 DUP12 DUP1 PUSH2 0xE85 SWAP1 PUSH2 0x1763 JUMP JUMPDEST SWAP13 POP DUP2 MLOAD DUP2 LT PUSH2 0xE97 JUMPI PUSH2 0xE97 PUSH2 0x1724 JUMP JUMPDEST PUSH1 0x1 PUSH1 0x1 PUSH1 0xF8 SHL SUB NOT SWAP1 SWAP3 AND PUSH1 0x20 SWAP3 DUP4 MUL SWAP2 SWAP1 SWAP2 ADD SWAP1 SWAP2 ADD MSTORE PUSH1 0x40 DUP8 ADD MLOAD DUP1 MLOAD PUSH1 0x0 SWAP1 PUSH2 0xEC6 JUMPI PUSH2 0xEC6 PUSH2 0x1724 JUMP JUMPDEST PUSH1 0x20 MUL PUSH1 0x20 ADD ADD MLOAD DUP12 DUP12 DUP1 PUSH2 0xEDA SWAP1 PUSH2 0x1763 JUMP JUMPDEST SWAP13 POP DUP2 MLOAD DUP2 LT PUSH2 0xEEC JUMPI PUSH2 0xEEC PUSH2 0x1724 JUMP JUMPDEST PUSH1 0x1 PUSH1 0x1 PUSH1 0xF8 SHL SUB NOT SWAP1 SWAP3 AND PUSH1 0x20 SWAP3 DUP4 MUL SWAP2 SWAP1 SWAP2 ADD SWAP1 SWAP2 ADD MSTORE PUSH1 0x40 DUP8 ADD MLOAD DUP1 MLOAD PUSH1 0x1 SWAP1 DUP2 LT PUSH2 0xF1D JUMPI PUSH2 0xF1D PUSH2 0x1724 JUMP JUMPDEST PUSH1 0x20 MUL PUSH1 0x20 ADD ADD MLOAD DUP12 DUP12 DUP1 PUSH2 0xF31 SWAP1 PUSH2 0x1763 JUMP JUMPDEST SWAP13 POP DUP2 MLOAD DUP2 LT PUSH2 0xF43 JUMPI PUSH2 0xF43 PUSH2 0x1724 JUMP JUMPDEST PUSH1 0x1 PUSH1 0x1 PUSH1 0xF8 SHL SUB NOT SWAP1 SWAP3 AND PUSH1 0x20 SWAP3 DUP4 MUL SWAP2 SWAP1 SWAP2 ADD SWAP1 SWAP2 ADD MSTORE PUSH1 0x40 DUP8 ADD MLOAD DUP1 MLOAD PUSH1 0x2 SWAP1 DUP2 LT PUSH2 0xF74 JUMPI PUSH2 0xF74 PUSH2 0x1724 JUMP JUMPDEST PUSH1 0x20 MUL PUSH1 0x20 ADD ADD MLOAD DUP12 DUP12 DUP1 PUSH2 0xF88 SWAP1 PUSH2 0x1763 JUMP JUMPDEST SWAP13 POP DUP2 MLOAD DUP2 LT PUSH2 0xF9A JUMPI PUSH2 0xF9A PUSH2 0x1724 JUMP JUMPDEST PUSH1 0x1 PUSH1 0x1 PUSH1 0xF8 SHL SUB NOT SWAP1 SWAP3 AND PUSH1 0x20 SWAP3 DUP4 MUL SWAP2 SWAP1 SWAP2 ADD SWAP1 SWAP2 ADD MSTORE DUP10 PUSH2 0xFC0 DUP13 DUP3 DUP5 DUP2 PUSH2 0x13B3 JUMP JUMPDEST SWAP1 SWAP13 POP SWAP11 POP DUP11 PUSH2 0xFDC DUP14 DUP3 PUSH2 0xFD6 PUSH1 0x4 DUP10 PUSH2 0x180F JUMP JUMPDEST DUP5 PUSH2 0x12C2 JUMP JUMPDEST SWAP1 SWAP14 POP SWAP12 POP PUSH2 0xFF0 DUP14 DUP8 PUSH2 0xAB0 DUP9 DUP6 PUSH2 0x180F JUMP JUMPDEST SWAP1 SWAP14 POP SWAP6 POP PUSH2 0x1009 DUP14 DUP6 PUSH2 0x1004 DUP7 DUP7 PUSH2 0x180F JUMP JUMPDEST PUSH2 0x1486 JUMP JUMPDEST SWAP1 SWAP14 POP SWAP4 POP PUSH2 0x1029 DUP14 DUP6 PUSH2 0x101D DUP7 DUP7 PUSH2 0x180F JUMP JUMPDEST PUSH2 0x1004 SWAP1 PUSH2 0xFFFF PUSH2 0x180F JUMP JUMPDEST POP SWAP14 SWAP12 SWAP13 POP POP POP POP POP POP POP POP POP POP POP POP JUMP JUMPDEST PUSH1 0x60 PUSH1 0x0 PUSH2 0x104B DUP5 DUP5 PUSH1 0x0 PUSH2 0x11C1 JUMP JUMPDEST SWAP1 SWAP5 POP SWAP3 POP DUP3 PUSH1 0x49 PUSH1 0xF8 SHL DUP6 DUP3 PUSH2 0x1061 DUP2 PUSH2 0x1763 JUMP JUMPDEST SWAP7 POP DUP2 MLOAD DUP2 LT PUSH2 0x1073 JUMPI PUSH2 0x1073 PUSH2 0x1724 JUMP JUMPDEST PUSH1 0x1 PUSH1 0x1 PUSH1 0xF8 SHL SUB NOT SWAP1 SWAP3 AND PUSH1 0x20 SWAP3 DUP4 MUL SWAP2 SWAP1 SWAP2 ADD SWAP1 SWAP2 ADD MSTORE PUSH1 0x45 PUSH1 0xF8 SHL DUP6 DUP6 PUSH2 0x109C DUP2 PUSH2 0x1763 JUMP JUMPDEST SWAP7 POP DUP2 MLOAD DUP2 LT PUSH2 0x10AE JUMPI PUSH2 0x10AE PUSH2 0x1724 JUMP JUMPDEST PUSH1 0x1 PUSH1 0x1 PUSH1 0xF8 SHL SUB NOT SWAP1 SWAP3 AND PUSH1 0x20 SWAP3 DUP4 MUL SWAP2 SWAP1 SWAP2 ADD SWAP1 SWAP2 ADD MSTORE PUSH1 0x27 PUSH1 0xF9 SHL DUP6 DUP6 PUSH2 0x10D7 DUP2 PUSH2 0x1763 JUMP JUMPDEST SWAP7 POP DUP2 MLOAD DUP2 LT PUSH2 0x10E9 JUMPI PUSH2 0x10E9 PUSH2 0x1724 JUMP JUMPDEST PUSH1 0x1 PUSH1 0x1 PUSH1 0xF8 SHL SUB NOT SWAP1 SWAP3 AND PUSH1 0x20 SWAP3 DUP4 MUL SWAP2 SWAP1 SWAP2 ADD SWAP1 SWAP2 ADD MSTORE PUSH1 0x11 PUSH1 0xFA SHL DUP6 DUP6 PUSH2 0x1112 DUP2 PUSH2 0x1763 JUMP JUMPDEST SWAP7 POP DUP2 MLOAD DUP2 LT PUSH2 0x1124 JUMPI PUSH2 0x1124 PUSH2 0x1724 JUMP JUMPDEST PUSH1 0x1 PUSH1 0x1 PUSH1 0xF8 SHL SUB NOT SWAP1 SWAP3 AND PUSH1 0x20 SWAP3 DUP4 MUL SWAP2 SWAP1 SWAP2 ADD SWAP1 SWAP2 ADD MSTORE DUP4 PUSH2 0x114A DUP7 DUP3 DUP5 DUP2 PUSH2 0x12C2 JUMP JUMPDEST SWAP1 SWAP8 SWAP1 SWAP7 POP SWAP5 POP POP POP POP POP JUMP JUMPDEST PUSH1 0x0 DUP4 DUP2 JUMPDEST DUP4 DUP2 LT ISZERO PUSH2 0x11B8 JUMPI PUSH1 0x8 DUP3 SWAP1 SHR PUSH1 0x0 DUP7 DUP4 DUP2 MLOAD DUP2 LT PUSH2 0x117D JUMPI PUSH2 0x117D PUSH2 0x1724 JUMP JUMPDEST PUSH1 0x20 MUL PUSH1 0x20 ADD ADD MLOAD PUSH1 0xF8 SHR PUSH1 0xFF AND DUP5 XOR PUSH1 0xFF AND PUSH2 0x100 DUP2 LT PUSH2 0x11A1 JUMPI PUSH2 0x11A1 PUSH2 0x1724 JUMP JUMPDEST ADD SLOAD XOR SWAP2 POP DUP1 PUSH2 0x11B0 DUP2 PUSH2 0x1763 JUMP JUMPDEST SWAP2 POP POP PUSH2 0x115C JUMP JUMPDEST POP SWAP5 SWAP4 POP POP POP POP JUMP JUMPDEST PUSH1 0x60 PUSH1 0x0 PUSH1 0x1 PUSH1 0x1 PUSH1 0xF8 SHL SUB NOT PUSH1 0xE0 DUP5 SWAP1 SHL AND DUP6 DUP6 PUSH2 0x11DF DUP2 PUSH2 0x1763 JUMP JUMPDEST SWAP7 POP DUP2 MLOAD DUP2 LT PUSH2 0x11F1 JUMPI PUSH2 0x11F1 PUSH2 0x1724 JUMP JUMPDEST PUSH1 0x1 PUSH1 0x1 PUSH1 0xF8 SHL SUB NOT SWAP3 DUP4 AND PUSH1 0x20 SWAP2 DUP3 MUL SWAP3 SWAP1 SWAP3 ADD ADD MSTORE PUSH1 0xE8 DUP5 SWAP1 SHL AND DUP6 DUP6 PUSH2 0x1219 DUP2 PUSH2 0x1763 JUMP JUMPDEST SWAP7 POP DUP2 MLOAD DUP2 LT PUSH2 0x122B JUMPI PUSH2 0x122B PUSH2 0x1724 JUMP JUMPDEST PUSH1 0x1 PUSH1 0x1 PUSH1 0xF8 SHL SUB NOT SWAP3 DUP4 AND PUSH1 0x20 SWAP2 DUP3 MUL SWAP3 SWAP1 SWAP3 ADD ADD MSTORE PUSH1 0xF0 DUP5 SWAP1 SHL AND DUP6 DUP6 PUSH2 0x1253 DUP2 PUSH2 0x1763 JUMP JUMPDEST SWAP7 POP DUP2 MLOAD DUP2 LT PUSH2 0x1265 JUMPI PUSH2 0x1265 PUSH2 0x1724 JUMP JUMPDEST PUSH1 0x1 PUSH1 0x1 PUSH1 0xF8 SHL SUB NOT SWAP3 DUP4 AND PUSH1 0x20 SWAP2 DUP3 MUL SWAP3 SWAP1 SWAP3 ADD ADD MSTORE PUSH1 0xF8 DUP5 SWAP1 SHL AND DUP6 DUP6 PUSH2 0x128D DUP2 PUSH2 0x1763 JUMP JUMPDEST SWAP7 POP DUP2 MLOAD DUP2 LT PUSH2 0x129F JUMPI PUSH2 0x129F PUSH2 0x1724 JUMP JUMPDEST PUSH1 0x1 PUSH1 0x1 PUSH1 0xF8 SHL SUB NOT SWAP3 SWAP1 SWAP3 AND PUSH1 0x20 SWAP3 DUP4 MUL SWAP2 SWAP1 SWAP2 ADD SWAP1 SWAP2 ADD MSTORE POP SWAP3 SWAP4 SWAP2 SWAP3 POP POP JUMP JUMPDEST PUSH1 0x60 PUSH1 0x0 DUP1 PUSH2 0x12D1 DUP6 DUP6 PUSH2 0x180F JUMP JUMPDEST SWAP1 POP PUSH1 0x0 DUP1 DUP3 PUSH8 0xFFFFFFFFFFFFFFFF DUP2 GT ISZERO PUSH2 0x12EF JUMPI PUSH2 0x12EF PUSH2 0x14A4 JUMP JUMPDEST PUSH1 0x40 MLOAD SWAP1 DUP1 DUP3 MSTORE DUP1 PUSH1 0x20 MUL PUSH1 0x20 ADD DUP3 ADD PUSH1 0x40 MSTORE DUP1 ISZERO PUSH2 0x1318 JUMPI DUP2 PUSH1 0x20 ADD PUSH1 0x20 DUP3 MUL DUP1 CALLDATASIZE DUP4 CALLDATACOPY ADD SWAP1 POP JUMPDEST POP SWAP1 POP DUP7 JUMPDEST DUP7 DUP2 LT ISZERO PUSH2 0x1388 JUMPI DUP10 DUP2 DUP2 MLOAD DUP2 LT PUSH2 0x1337 JUMPI PUSH2 0x1337 PUSH2 0x1724 JUMP JUMPDEST PUSH1 0x20 MUL PUSH1 0x20 ADD ADD MLOAD DUP3 DUP5 DUP1 PUSH2 0x134B SWAP1 PUSH2 0x1763 JUMP JUMPDEST SWAP6 POP DUP2 MLOAD DUP2 LT PUSH2 0x135D JUMPI PUSH2 0x135D PUSH2 0x1724 JUMP JUMPDEST PUSH1 0x1 PUSH1 0x1 PUSH1 0xF8 SHL SUB NOT SWAP1 SWAP3 AND PUSH1 0x20 SWAP3 DUP4 MUL SWAP2 SWAP1 SWAP2 ADD SWAP1 SWAP2 ADD MSTORE DUP1 PUSH2 0x1380 DUP2 PUSH2 0x1763 JUMP JUMPDEST SWAP2 POP POP PUSH2 0x131D JUMP JUMPDEST POP PUSH1 0x0 PUSH2 0x1395 DUP3 DUP6 PUSH2 0x4FA JUMP JUMPDEST SWAP1 POP PUSH2 0x13A2 DUP11 DUP11 DUP4 PUSH2 0x11C1 JUMP JUMPDEST SWAP1 SWAP12 SWAP1 SWAP11 POP SWAP9 POP POP POP POP POP POP POP POP POP JUMP JUMPDEST PUSH1 0x60 PUSH1 0x0 DUP1 PUSH2 0x13C2 DUP6 DUP6 PUSH2 0x180F JUMP JUMPDEST SWAP1 POP PUSH1 0x0 DUP1 DUP3 PUSH8 0xFFFFFFFFFFFFFFFF DUP2 GT ISZERO PUSH2 0x13E0 JUMPI PUSH2 0x13E0 PUSH2 0x14A4 JUMP JUMPDEST PUSH1 0x40 MLOAD SWAP1 DUP1 DUP3 MSTORE DUP1 PUSH1 0x20 MUL PUSH1 0x20 ADD DUP3 ADD PUSH1 0x40 MSTORE DUP1 ISZERO PUSH2 0x1409 JUMPI DUP2 PUSH1 0x20 ADD PUSH1 0x20 DUP3 MUL DUP1 CALLDATASIZE DUP4 CALLDATACOPY ADD SWAP1 POP JUMPDEST POP SWAP1 POP DUP7 JUMPDEST DUP7 DUP2 LT ISZERO PUSH2 0x1479 JUMPI DUP10 DUP2 DUP2 MLOAD DUP2 LT PUSH2 0x1428 JUMPI PUSH2 0x1428 PUSH2 0x1724 JUMP JUMPDEST PUSH1 0x20 MUL PUSH1 0x20 ADD ADD MLOAD DUP3 DUP5 DUP1 PUSH2 0x143C SWAP1 PUSH2 0x1763 JUMP JUMPDEST SWAP6 POP DUP2 MLOAD DUP2 LT PUSH2 0x144E JUMPI PUSH2 0x144E PUSH2 0x1724 JUMP JUMPDEST PUSH1 0x1 PUSH1 0x1 PUSH1 0xF8 SHL SUB NOT SWAP1 SWAP3 AND PUSH1 0x20 SWAP3 DUP4 MUL SWAP2 SWAP1 SWAP2 ADD SWAP1 SWAP2 ADD MSTORE DUP1 PUSH2 0x1471 DUP2 PUSH2 0x1763 JUMP JUMPDEST SWAP2 POP POP PUSH2 0x140E JUMP JUMPDEST POP PUSH1 0x0 PUSH2 0x1395 DUP3 DUP6 PUSH2 0xB2 JUMP JUMPDEST PUSH1 0x60 PUSH1 0x0 PUSH1 0x1 PUSH1 0x1 PUSH1 0xF8 SHL SUB NOT PUSH1 0xF0 DUP5 SWAP1 SHL AND DUP6 DUP6 PUSH2 0x1253 DUP2 PUSH2 0x1763 JUMP JUMPDEST PUSH4 0x4E487B71 PUSH1 0xE0 SHL PUSH1 0x0 MSTORE PUSH1 0x41 PUSH1 0x4 MSTORE PUSH1 0x24 PUSH1 0x0 REVERT JUMPDEST PUSH1 0x40 MLOAD PUSH1 0x60 DUP2 ADD PUSH8 0xFFFFFFFFFFFFFFFF DUP2 GT DUP3 DUP3 LT OR ISZERO PUSH2 0x14DD JUMPI PUSH2 0x14DD PUSH2 0x14A4 JUMP JUMPDEST PUSH1 0x40 MSTORE SWAP1 JUMP JUMPDEST PUSH1 0x40 MLOAD PUSH1 0x1F DUP3 ADD PUSH1 0x1F NOT AND DUP2 ADD PUSH8 0xFFFFFFFFFFFFFFFF DUP2 GT DUP3 DUP3 LT OR ISZERO PUSH2 0x150C JUMPI PUSH2 0x150C PUSH2 0x14A4 JUMP JUMPDEST PUSH1 0x40 MSTORE SWAP2 SWAP1 POP JUMP JUMPDEST PUSH1 0x0 DUP3 PUSH1 0x1F DUP4 ADD SLT PUSH2 0x1525 JUMPI PUSH1 0x0 DUP1 REVERT JUMPDEST DUP2 CALLDATALOAD PUSH1 0x20 PUSH8 0xFFFFFFFFFFFFFFFF DUP3 GT ISZERO PUSH2 0x1541 JUMPI PUSH2 0x1541 PUSH2 0x14A4 JUMP JUMPDEST DUP2 PUSH1 0x5 SHL PUSH2 0x1550 DUP3 DUP3 ADD PUSH2 0x14E3 JUMP JUMPDEST SWAP3 DUP4 MSTORE DUP5 DUP2 ADD DUP3 ADD SWAP3 DUP3 DUP2 ADD SWAP1 DUP8 DUP6 GT ISZERO PUSH2 0x156A JUMPI PUSH1 0x0 DUP1 REVERT JUMPDEST DUP4 DUP8 ADD SWAP3 POP JUMPDEST DUP5 DUP4 LT ISZERO PUSH2 0x15A0 JUMPI DUP3 CALLDATALOAD PUSH1 0x1 PUSH1 0x1 PUSH1 0xF8 SHL SUB NOT DUP2 AND DUP2 EQ PUSH2 0x1591 JUMPI PUSH1 0x0 DUP1 DUP2 REVERT JUMPDEST DUP3 MSTORE SWAP2 DUP4 ADD SWAP2 SWAP1 DUP4 ADD SWAP1 PUSH2 0x1570 JUMP JUMPDEST SWAP8 SWAP7 POP POP POP POP POP POP POP JUMP JUMPDEST PUSH1 0x0 DUP1 PUSH1 0x40 DUP4 DUP6 SUB SLT ISZERO PUSH2 0x15BE JUMPI PUSH1 0x0 DUP1 REVERT JUMPDEST DUP3 CALLDATALOAD PUSH8 0xFFFFFFFFFFFFFFFF DUP2 GT ISZERO PUSH2 0x15D5 JUMPI PUSH1 0x0 DUP1 REVERT JUMPDEST PUSH2 0x15E1 DUP6 DUP3 DUP7 ADD PUSH2 0x1514 JUMP JUMPDEST SWAP6 PUSH1 0x20 SWAP5 SWAP1 SWAP5 ADD CALLDATALOAD SWAP5 POP POP POP POP JUMP JUMPDEST PUSH1 0x0 JUMPDEST DUP4 DUP2 LT ISZERO PUSH2 0x160B JUMPI DUP2 DUP2 ADD MLOAD DUP4 DUP3 ADD MSTORE PUSH1 0x20 ADD PUSH2 0x15F3 JUMP JUMPDEST POP POP PUSH1 0x0 SWAP2 ADD MSTORE JUMP JUMPDEST PUSH1 0x0 DUP2 MLOAD DUP1 DUP5 MSTORE PUSH2 0x162C DUP2 PUSH1 0x20 DUP7 ADD PUSH1 0x20 DUP7 ADD PUSH2 0x15F0 JUMP JUMPDEST PUSH1 0x1F ADD PUSH1 0x1F NOT AND SWAP3 SWAP1 SWAP3 ADD PUSH1 0x20 ADD SWAP3 SWAP2 POP POP JUMP JUMPDEST PUSH1 0x20 DUP2 MSTORE PUSH1 0x0 PUSH2 0x1653 PUSH1 0x20 DUP4 ADD DUP5 PUSH2 0x1614 JUMP JUMPDEST SWAP4 SWAP3 POP POP POP JUMP JUMPDEST PUSH1 0x0 DUP1 PUSH1 0x0 PUSH1 0x60 DUP5 DUP7 SUB SLT ISZERO PUSH2 0x166F JUMPI PUSH1 0x0 DUP1 REVERT JUMPDEST DUP4 CALLDATALOAD SWAP3 POP PUSH1 0x20 DUP5 ADD CALLDATALOAD SWAP2 POP PUSH1 0x40 DUP5 ADD CALLDATALOAD PUSH8 0xFFFFFFFFFFFFFFFF DUP1 DUP3 GT ISZERO PUSH2 0x1695 JUMPI PUSH1 0x0 DUP1 REVERT JUMPDEST SWAP1 DUP6 ADD SWAP1 PUSH1 0x60 DUP3 DUP9 SUB SLT ISZERO PUSH2 0x16A9 JUMPI PUSH1 0x0 DUP1 REVERT JUMPDEST PUSH2 0x16B1 PUSH2 0x14BA JUMP JUMPDEST DUP3 CALLDATALOAD DUP3 DUP2 GT ISZERO PUSH2 0x16C0 JUMPI PUSH1 0x0 DUP1 REVERT JUMPDEST PUSH2 0x16CC DUP10 DUP3 DUP7 ADD PUSH2 0x1514 JUMP JUMPDEST DUP3 MSTORE POP PUSH1 0x20 DUP4 ADD CALLDATALOAD DUP3 DUP2 GT ISZERO PUSH2 0x16E1 JUMPI PUSH1 0x0 DUP1 REVERT JUMPDEST PUSH2 0x16ED DUP10 DUP3 DUP7 ADD PUSH2 0x1514 JUMP JUMPDEST PUSH1 0x20 DUP4 ADD MSTORE POP PUSH1 0x40 DUP4 ADD CALLDATALOAD DUP3 DUP2 GT ISZERO PUSH2 0x1705 JUMPI PUSH1 0x0 DUP1 REVERT JUMPDEST PUSH2 0x1711 DUP10 DUP3 DUP7 ADD PUSH2 0x1514 JUMP JUMPDEST PUSH1 0x40 DUP4 ADD MSTORE POP DUP1 SWAP4 POP POP POP POP SWAP3 POP SWAP3 POP SWAP3 JUMP JUMPDEST PUSH4 0x4E487B71 PUSH1 0xE0 SHL PUSH1 0x0 MSTORE PUSH1 0x32 PUSH1 0x4 MSTORE PUSH1 0x24 PUSH1 0x0 REVERT JUMPDEST PUSH4 0x4E487B71 PUSH1 0xE0 SHL PUSH1 0x0 MSTORE PUSH1 0x11 PUSH1 0x4 MSTORE PUSH1 0x24 PUSH1 0x0 REVERT JUMPDEST DUP1 DUP3 ADD DUP1 DUP3 GT ISZERO PUSH2 0x12A JUMPI PUSH2 0x12A PUSH2 0x173A JUMP JUMPDEST PUSH1 0x0 PUSH1 0x1 DUP3 ADD PUSH2 0x1775 JUMPI PUSH2 0x1775 PUSH2 0x173A JUMP JUMPDEST POP PUSH1 0x1 ADD SWAP1 JUMP JUMPDEST DUP1 DUP3 MUL DUP2 ISZERO DUP3 DUP3 DIV DUP5 EQ OR PUSH2 0x12A JUMPI PUSH2 0x12A PUSH2 0x173A JUMP JUMPDEST PUSH1 0x0 DUP3 MLOAD PUSH2 0x17A5 DUP2 DUP5 PUSH1 0x20 DUP8 ADD PUSH2 0x15F0 JUMP JUMPDEST SWAP2 SWAP1 SWAP2 ADD SWAP3 SWAP2 POP POP JUMP JUMPDEST PUSH22 0x19185D184E9A5B5859D94BDC1B99CED8985CD94D8D0B PUSH1 0x52 SHL DUP2 MSTORE PUSH1 0x0 DUP3 MLOAD PUSH2 0x17E0 DUP2 PUSH1 0x16 DUP6 ADD PUSH1 0x20 DUP8 ADD PUSH2 0x15F0 JUMP JUMPDEST SWAP2 SWAP1 SWAP2 ADD PUSH1 0x16 ADD SWAP3 SWAP2 POP POP JUMP JUMPDEST PUSH1 0x0 DUP3 PUSH2 0x180A JUMPI PUSH4 0x4E487B71 PUSH1 0xE0 SHL PUSH1 0x0 MSTORE PUSH1 0x12 PUSH1 0x4 MSTORE PUSH1 0x24 PUSH1 0x0 REVERT JUMPDEST POP DIV SWAP1 JUMP JUMPDEST DUP2 DUP2 SUB DUP2 DUP2 GT ISZERO PUSH2 0x12A JUMPI PUSH2 0x12A PUSH2 0x173A JUMP INVALID COINBASE TIMESTAMP NUMBER PREVRANDAO GASLIMIT CHAINID SELFBALANCE BASEFEE 0x49 0x4A 0x4B 0x4C 0x4D 0x4E 0x4F POP MLOAD MSTORE MSTORE8 SLOAD SSTORE JUMP JUMPI PC MSIZE GAS PUSH2 0x6263 PUSH5 0x6566676869 PUSH11 0x6B6C6D6E6F707172737475 PUSH23 0x7778797A303132333435363738392B2FA2646970667358 0x22 SLT KECCAK256 0xE4 SMOD PUSH25 0xA29A0C47F87C119DD855AAC78077EDBD9C46C5A046B18AE28E 0x29 0xE1 0xE4 OR PUSH5 0x736F6C6343 STOP ADDMOD SLT STOP CALLER "
		},
		"gasEstimates": {
			"creation": {
				"codeDepositCost": "1259200",
				"executionCost": "infinite",
				"totalCost": "infinite"
			},
			"external": {
				"adler32(bytes1[],uint256)": "infinite",
				"crc(bytes1[],uint256)": "infinite",
				"createPNG(uint256,uint256,(bytes1[],bytes1[],bytes1[]))": "infinite",
				"createPNGString()": "infinite"
			},
			"internal": {
				"add2ByteValue(bytes1[] memory,uint256,uint256)": "infinite",
				"add4ByteValue(bytes1[] memory,uint256,uint256)": "infinite",
				"addADLER32(bytes1[] memory,uint256,uint256,uint256)": "infinite",
				"addCRC(bytes1[] memory,uint256,uint256,uint256)": "infinite",
				"addIDATChunck(bytes1[] memory,uint256,uint256,uint256,struct PixelPictasiaUtils.PNGData memory)": "infinite",
				"addIENDChunck(bytes1[] memory,uint256)": "infinite",
				"addIHDRChunck(bytes1[] memory,uint256,uint256,uint256)": "infinite",
				"addPNGSignature(bytes1[] memory,uint256)": "infinite",
				"createCRCTable()": "infinite",
				"update_crc(uint256,bytes1[] memory,uint256)": "infinite"
			}
		},
		"methodIdentifiers": {
			"adler32(bytes1[],uint256)": "19858b36",
			"crc(bytes1[],uint256)": "fe2a3649",
			"createPNG(uint256,uint256,(bytes1[],bytes1[],bytes1[]))": "f6d57f9e",
			"createPNGString()": "48b508b7"
		}
	},
	"abi": [
		{
			"inputs": [],
			"stateMutability": "payable",
			"type": "constructor"
		},
		{
			"inputs": [
				{
					"internalType": "bytes1[]",
					"name": "_buf",
					"type": "bytes1[]"
				},
				{
					"internalType": "uint256",
					"name": "_len",
					"type": "uint256"
				}
			],
			"name": "adler32",
			"outputs": [
				{
					"internalType": "uint256",
					"name": "",
					"type": "uint256"
				}
			],
			"stateMutability": "pure",
			"type": "function"
		},
		{
			"inputs": [
				{
					"internalType": "bytes1[]",
					"name": "_buf",
					"type": "bytes1[]"
				},
				{
					"internalType": "uint256",
					"name": "_len",
					"type": "uint256"
				}
			],
			"name": "crc",
			"outputs": [
				{
					"internalType": "uint256",
					"name": "",
					"type": "uint256"
				}
			],
			"stateMutability": "view",
			"type": "function"
		},
		{
			"inputs": [
				{
					"internalType": "uint256",
					"name": "_width",
					"type": "uint256"
				},
				{
					"internalType": "uint256",
					"name": "_height",
					"type": "uint256"
				},
				{
					"components": [
						{
							"internalType": "bytes1[]",
							"name": "red",
							"type": "bytes1[]"
						},
						{
							"internalType": "bytes1[]",
							"name": "green",
							"type": "bytes1[]"
						},
						{
							"internalType": "bytes1[]",
							"name": "blue",
							"type": "bytes1[]"
						}
					],
					"internalType": "struct PixelPictasiaUtils.PNGData",
					"name": "pngData",
					"type": "tuple"
				}
			],
			"name": "createPNG",
			"outputs": [
				{
					"internalType": "bytes",
					"name": "",
					"type": "bytes"
				}
			],
			"stateMutability": "view",
			"type": "function"
		},
		{
			"inputs": [],
			"name": "createPNGString",
			"outputs": [
				{
					"internalType": "string",
					"name": "",
					"type": "string"
				}
			],
			"stateMutability": "view",
			"type": "function"
		}
	]
}